{
  "address": "0x09e0C4970b1Cb62a9FF7Bb4b5ff1858c09cD1e64",
  "abi": [
    {
      "anonymous": false,
      "inputs": [
        {
          "indexed": true,
          "internalType": "address",
          "name": "user",
          "type": "address"
        },
        {
          "indexed": true,
          "internalType": "address",
          "name": "newAdmin",
          "type": "address"
        }
      ],
      "name": "AdminUpdated",
      "type": "event"
    },
    {
      "anonymous": false,
      "inputs": [
        {
          "indexed": false,
          "internalType": "uint8",
          "name": "version",
          "type": "uint8"
        }
      ],
      "name": "Initialized",
      "type": "event"
    },
    {
      "anonymous": false,
      "inputs": [
        {
          "indexed": false,
          "internalType": "address",
          "name": "user",
          "type": "address"
        },
        {
          "indexed": false,
          "internalType": "address",
          "name": "token",
          "type": "address"
        },
        {
          "indexed": false,
          "internalType": "uint256",
          "name": "amount",
          "type": "uint256"
        }
      ],
      "name": "Retrieve",
      "type": "event"
    },
    {
      "inputs": [],
      "name": "admin",
      "outputs": [
        {
          "internalType": "address",
          "name": "",
          "type": "address"
        }
      ],
      "stateMutability": "view",
      "type": "function"
    },
    {
      "inputs": [
        {
          "internalType": "address",
          "name": "admin_",
          "type": "address"
        }
      ],
      "name": "initialize",
      "outputs": [],
      "stateMutability": "nonpayable",
      "type": "function"
    },
    {
      "inputs": [
        {
          "internalType": "address",
          "name": "",
          "type": "address"
        }
      ],
      "name": "remainTokenMap",
      "outputs": [
        {
          "internalType": "uint256",
          "name": "",
          "type": "uint256"
        }
      ],
      "stateMutability": "view",
      "type": "function"
    },
    {
      "inputs": [
        {
          "internalType": "address[]",
          "name": "tokens",
          "type": "address[]"
        }
      ],
      "name": "retrievables",
      "outputs": [
        {
          "internalType": "uint256[]",
          "name": "",
          "type": "uint256[]"
        }
      ],
      "stateMutability": "view",
      "type": "function"
    },
    {
      "inputs": [
        {
          "internalType": "address[]",
          "name": "tokens",
          "type": "address[]"
        }
      ],
      "name": "retrieveTokens",
      "outputs": [],
      "stateMutability": "nonpayable",
      "type": "function"
    },
    {
      "inputs": [
        {
          "internalType": "address[]",
          "name": "tokens",
          "type": "address[]"
        }
      ],
      "name": "retrieved",
      "outputs": [
        {
          "internalType": "uint256[]",
          "name": "",
          "type": "uint256[]"
        }
      ],
      "stateMutability": "view",
      "type": "function"
    },
    {
      "inputs": [
        {
          "internalType": "address",
          "name": "newAdmin",
          "type": "address"
        }
      ],
      "name": "setAdmin",
      "outputs": [],
      "stateMutability": "nonpayable",
      "type": "function"
    },
    {
      "inputs": [
        {
          "components": [
            {
              "internalType": "address",
              "name": "user",
              "type": "address"
            },
            {
              "internalType": "address",
              "name": "token",
              "type": "address"
            },
            {
              "internalType": "uint256",
              "name": "amount",
              "type": "uint256"
            }
          ],
          "internalType": "struct AccidentHandler20220715V2.Record[]",
          "name": "records_",
          "type": "tuple[]"
        }
      ],
      "name": "setRecords",
      "outputs": [],
      "stateMutability": "nonpayable",
      "type": "function"
    },
    {
      "inputs": [
        {
          "internalType": "address",
          "name": "",
          "type": "address"
        },
        {
          "internalType": "address",
          "name": "",
          "type": "address"
        }
      ],
      "name": "userRetrievableTokenMap",
      "outputs": [
        {
          "internalType": "uint256",
          "name": "",
          "type": "uint256"
        }
      ],
      "stateMutability": "view",
      "type": "function"
    },
    {
      "inputs": [
        {
          "internalType": "address",
          "name": "",
          "type": "address"
        },
        {
          "internalType": "address",
          "name": "",
          "type": "address"
        }
      ],
      "name": "userRetrievedTokenMap",
      "outputs": [
        {
          "internalType": "uint256",
          "name": "",
          "type": "uint256"
        }
      ],
      "stateMutability": "view",
      "type": "function"
    }
  ],
  "transactionHash": "0xf6f3f17126abc8a61dddab8ba4b979cdf9b5db0a9443099964fef0d166388e58",
  "args": [],
  "numDeployments": 1,
  "solcInputHash": "56c0f08da04beba62da4bdd58cbd747d",
  "bytecode": "0x608060405234801561001057600080fd5b50610f7a806100206000396000f3fe608060405234801561001057600080fd5b506004361061009e5760003560e01c80639a22d5a6116100665780639a22d5a614610154578063c4d66de814610167578063e797e9ef1461017a578063f1a0d18b1461018d578063f851a440146101ad57600080fd5b80632d915022146100a357806336463706146100e1578063704b6c021461010157806376de352d146101165780637fa3b3da14610129575b600080fd5b6100ce6100b1366004610c5f565b600260209081526000928352604080842090915290825290205481565b6040519081526020015b60405180910390f35b6100f46100ef366004610c92565b6101de565b6040516100d89190610d07565b61011461010f366004610d4b565b6102c1565b005b6100f4610124366004610c92565b610321565b6100ce610137366004610c5f565b600160209081526000928352604080842090915290825290205481565b610114610162366004610d66565b6103fc565b610114610175366004610d4b565b61055a565b610114610188366004610c92565b610627565b6100ce61019b366004610d4b565b60036020526000908152604090205481565b6000546101c6906201000090046001600160a01b031681565b6040516001600160a01b0390911681526020016100d8565b606060008267ffffffffffffffff8111156101fb576101fb610dc9565b604051908082528060200260200182016040528015610224578160200160208202803683370190505b50905060005b838110156102b9573360009081526001602052604081209086868481811061025457610254610ddf565b90506020020160208101906102699190610d4b565b6001600160a01b03166001600160a01b031681526020019081526020016000205482828151811061029c5761029c610ddf565b6020908102919091010152806102b181610e0b565b91505061022a565b509392505050565b6000546201000090046001600160a01b031633146103155760405162461bcd60e51b815260206004820152600c60248201526b15539055551213d49256915160a21b60448201526064015b60405180910390fd5b61031e81610876565b50565b606060008267ffffffffffffffff81111561033e5761033e610dc9565b604051908082528060200260200182016040528015610367578160200160208202803683370190505b50905060005b838110156102b9573360009081526002602052604081209086868481811061039757610397610ddf565b90506020020160208101906103ac9190610d4b565b6001600160a01b03166001600160a01b03168152602001908152602001600020548282815181106103df576103df610ddf565b6020908102919091010152806103f481610e0b565b91505061036d565b6000546201000090046001600160a01b0316331461044b5760405162461bcd60e51b815260206004820152600c60248201526b15539055551213d49256915160a21b604482015260640161030c565b60005b81811015610555573683838381811061046957610469610ddf565b606002919091019150506040810135600160006104896020850185610d4b565b6001600160a01b03166001600160a01b0316815260200190815260200160002060008360200160208101906104be9190610d4b565b6001600160a01b03166001600160a01b0316815260200190815260200160002060008282546104ed9190610e26565b90915550506040810180359060039060009061050c9060208601610d4b565b6001600160a01b03166001600160a01b03168152602001908152602001600020600082825461053b9190610e26565b9091555082915061054d905081610e0b565b91505061044e565b505050565b6000610566600161092b565b9050801561057e576000805461ff0019166101001790555b6001600160a01b0382166105d45760405162461bcd60e51b815260206004820152601e60248201527f43616e74207365742061646d696e20746f207a65726f20616464726573730000604482015260640161030c565b6105dd82610876565b8015610623576000805461ff0019169055604051600181527f7f26b83ff96e1f2b6a682f133852f6798a09c465da95921460cefb38474024989060200160405180910390a15b5050565b60005b8181101561055557600083838381811061064657610646610ddf565b905060200201602081019061065b9190610d4b565b336000908152600160205260408120919250908186868681811061068157610681610ddf565b90506020020160208101906106969190610d4b565b6001600160a01b031681526020810191909152604001600020549050801561086157336000908152600160205260408120908686868181106106da576106da610ddf565b90506020020160208101906106ef9190610d4b565b6001600160a01b031681526020808201929092526040908101600090812081905533815260029092528120829187878781811061072e5761072e610ddf565b90506020020160208101906107439190610d4b565b6001600160a01b03166001600160a01b0316815260200190815260200160002060008282546107729190610e26565b909155508190506003600087878781811061078f5761078f610ddf565b90506020020160208101906107a49190610d4b565b6001600160a01b03166001600160a01b0316815260200190815260200160002060008282546107d39190610e3e565b909155506107ed90506001600160a01b03831633836109b8565b7f8bd0db04d7d748ae70a6a244675345c05f70e540f344927714da92f35b2418ce3386868681811061082157610821610ddf565b90506020020160208101906108369190610d4b565b604080516001600160a01b039384168152929091166020830152810183905260600160405180910390a15b5050808061086e90610e0b565b91505061062a565b6001600160a01b0381166108d65760405162461bcd60e51b815260206004820152602160248201527f43616e206e6f74207365742061646d696e20746f207a65726f206164647265736044820152607360f81b606482015260840161030c565b6000805462010000600160b01b031916620100006001600160a01b038416908102919091178255604051909133917f101b8081ff3b56bbf45deb824d86a3b0fd38b7e3dd42421105cf8abe9106db0b9190a350565b60008054610100900460ff1615610972578160ff16600114801561094e5750303b155b61096a5760405162461bcd60e51b815260040161030c90610e55565b506000919050565b60005460ff8084169116106109995760405162461bcd60e51b815260040161030c90610e55565b506000805460ff191660ff92909216919091179055600190565b919050565b604080516001600160a01b03848116602483015260448083018590528351808403909101815260649092018352602080830180516001600160e01b031663a9059cbb60e01b17905283518085019094528084527f5361666545524332303a206c6f772d6c6576656c2063616c6c206661696c65649084015261055592869291600091610a48918516908490610ac5565b8051909150156105555780806020019051810190610a669190610ea3565b6105555760405162461bcd60e51b815260206004820152602a60248201527f5361666545524332303a204552433230206f7065726174696f6e20646964206e6044820152691bdd081cdd58d8d9595960b21b606482015260840161030c565b6060610ad48484600085610ade565b90505b9392505050565b606082471015610b3f5760405162461bcd60e51b815260206004820152602660248201527f416464726573733a20696e73756666696369656e742062616c616e636520666f6044820152651c8818d85b1b60d21b606482015260840161030c565b6001600160a01b0385163b610b965760405162461bcd60e51b815260206004820152601d60248201527f416464726573733a2063616c6c20746f206e6f6e2d636f6e7472616374000000604482015260640161030c565b600080866001600160a01b03168587604051610bb29190610ef5565b60006040518083038185875af1925050503d8060008114610bef576040519150601f19603f3d011682016040523d82523d6000602084013e610bf4565b606091505b5091509150610c04828286610c0f565b979650505050505050565b60608315610c1e575081610ad7565b825115610c2e5782518084602001fd5b8160405162461bcd60e51b815260040161030c9190610f11565b80356001600160a01b03811681146109b357600080fd5b60008060408385031215610c7257600080fd5b610c7b83610c48565b9150610c8960208401610c48565b90509250929050565b60008060208385031215610ca557600080fd5b823567ffffffffffffffff80821115610cbd57600080fd5b818501915085601f830112610cd157600080fd5b813581811115610ce057600080fd5b8660208260051b8501011115610cf557600080fd5b60209290920196919550909350505050565b6020808252825182820181905260009190848201906040850190845b81811015610d3f57835183529284019291840191600101610d23565b50909695505050505050565b600060208284031215610d5d57600080fd5b610ad782610c48565b60008060208385031215610d7957600080fd5b823567ffffffffffffffff80821115610d9157600080fd5b818501915085601f830112610da557600080fd5b813581811115610db457600080fd5b866020606083028501011115610cf557600080fd5b634e487b7160e01b600052604160045260246000fd5b634e487b7160e01b600052603260045260246000fd5b634e487b7160e01b600052601160045260246000fd5b6000600019821415610e1f57610e1f610df5565b5060010190565b60008219821115610e3957610e39610df5565b500190565b600082821015610e5057610e50610df5565b500390565b6020808252602e908201527f496e697469616c697a61626c653a20636f6e747261637420697320616c72656160408201526d191e481a5b9a5d1a585b1a5e995960921b606082015260800190565b600060208284031215610eb557600080fd5b81518015158114610ad757600080fd5b60005b83811015610ee0578181015183820152602001610ec8565b83811115610eef576000848401525b50505050565b60008251610f07818460208701610ec5565b9190910192915050565b6020815260008251806020840152610f30816040850160208701610ec5565b601f01601f1916919091016040019291505056fea2646970667358221220a2bed5a7051e71257e7bced9265434964074c2129f81ee207b93a9d62d059ea564736f6c63430008090033",
  "devdoc": {
    "kind": "dev",
    "methods": {},
    "version": 1
  },
  "userdoc": {
    "kind": "user",
    "methods": {},
    "version": 1
  },
  "storageLayout": {
    "storage": [
      {
        "astId": 6,
        "contract": "contracts/AccidentHandler20220715V2.sol:AccidentHandler20220715V2",
        "label": "_initialized",
        "offset": 0,
        "slot": "0",
        "type": "t_uint8"
      },
      {
        "astId": 9,
        "contract": "contracts/AccidentHandler20220715V2.sol:AccidentHandler20220715V2",
        "label": "_initializing",
        "offset": 1,
        "slot": "0",
        "type": "t_bool"
      },
      {
        "astId": 696,
        "contract": "contracts/AccidentHandler20220715V2.sol:AccidentHandler20220715V2",
        "label": "admin",
        "offset": 2,
        "slot": "0",
        "type": "t_address"
      },
      {
        "astId": 768,
        "contract": "contracts/AccidentHandler20220715V2.sol:AccidentHandler20220715V2",
        "label": "userRetrievableTokenMap",
        "offset": 0,
        "slot": "1",
        "type": "t_mapping(t_address,t_mapping(t_address,t_uint256))"
      },
      {
        "astId": 774,
        "contract": "contracts/AccidentHandler20220715V2.sol:AccidentHandler20220715V2",
        "label": "userRetrievedTokenMap",
        "offset": 0,
        "slot": "2",
        "type": "t_mapping(t_address,t_mapping(t_address,t_uint256))"
      },
      {
        "astId": 778,
        "contract": "contracts/AccidentHandler20220715V2.sol:AccidentHandler20220715V2",
        "label": "remainTokenMap",
        "offset": 0,
        "slot": "3",
        "type": "t_mapping(t_address,t_uint256)"
      }
    ],
    "types": {
      "t_address": {
        "encoding": "inplace",
        "label": "address",
        "numberOfBytes": "20"
      },
      "t_bool": {
        "encoding": "inplace",
        "label": "bool",
        "numberOfBytes": "1"
      },
      "t_mapping(t_address,t_mapping(t_address,t_uint256))": {
        "encoding": "mapping",
        "key": "t_address",
        "label": "mapping(address => mapping(address => uint256))",
        "numberOfBytes": "32",
        "value": "t_mapping(t_address,t_uint256)"
      },
      "t_mapping(t_address,t_uint256)": {
        "encoding": "mapping",
        "key": "t_address",
        "label": "mapping(address => uint256)",
        "numberOfBytes": "32",
        "value": "t_uint256"
      },
      "t_uint256": {
        "encoding": "inplace",
        "label": "uint256",
        "numberOfBytes": "32"
      },
      "t_uint8": {
        "encoding": "inplace",
        "label": "uint8",
        "numberOfBytes": "1"
      }
    }
  }
}