{
  "address": "0x21B22823eBd575D8fe79Fef7dE49A57e630e14ac",
  "abi": [
    {
      "inputs": [],
      "stateMutability": "nonpayable",
      "type": "constructor"
    },
    {
      "anonymous": false,
      "inputs": [
        {
          "indexed": false,
          "internalType": "address",
          "name": "liquidator",
          "type": "address"
        },
        {
          "indexed": false,
          "internalType": "bool",
          "name": "allowed",
          "type": "bool"
        }
      ],
      "name": "AllowedLiquidatorChanged",
      "type": "event"
    },
    {
      "anonymous": false,
      "inputs": [
        {
          "indexed": false,
          "internalType": "uint256",
          "name": "collateralRate",
          "type": "uint256"
        }
      ],
      "name": "CollateralRateChanged",
      "type": "event"
    },
    {
      "anonymous": false,
      "inputs": [
        {
          "indexed": true,
          "internalType": "address",
          "name": "dToken",
          "type": "address"
        },
        {
          "indexed": false,
          "internalType": "address",
          "name": "oldVault",
          "type": "address"
        },
        {
          "indexed": false,
          "internalType": "address",
          "name": "newVault",
          "type": "address"
        },
        {
          "indexed": false,
          "internalType": "uint256",
          "name": "vtype",
          "type": "uint256"
        }
      ],
      "name": "DTokenVaultChanged",
      "type": "event"
    },
    {
      "anonymous": false,
      "inputs": [
        {
          "indexed": true,
          "internalType": "address",
          "name": "user",
          "type": "address"
        },
        {
          "indexed": false,
          "internalType": "address",
          "name": "vault",
          "type": "address"
        },
        {
          "indexed": false,
          "internalType": "uint256",
          "name": "amount",
          "type": "uint256"
        },
        {
          "indexed": false,
          "internalType": "uint256",
          "name": "usdValue",
          "type": "uint256"
        }
      ],
      "name": "DepositVaultReleased",
      "type": "event"
    },
    {
      "anonymous": false,
      "inputs": [
        {
          "indexed": true,
          "internalType": "address",
          "name": "user",
          "type": "address"
        },
        {
          "indexed": false,
          "internalType": "address",
          "name": "sourceVault",
          "type": "address"
        },
        {
          "indexed": false,
          "internalType": "uint256",
          "name": "sourceAmount",
          "type": "uint256"
        },
        {
          "indexed": false,
          "internalType": "address",
          "name": "targetVault",
          "type": "address"
        },
        {
          "indexed": false,
          "internalType": "uint256",
          "name": "targetAmount",
          "type": "uint256"
        }
      ],
      "name": "DepositVaultSwapped",
      "type": "event"
    },
    {
      "anonymous": false,
      "inputs": [
        {
          "indexed": false,
          "internalType": "address",
          "name": "vault",
          "type": "address"
        },
        {
          "indexed": false,
          "internalType": "enum IController.ValidVault",
          "name": "state",
          "type": "uint8"
        }
      ],
      "name": "InitValidVault",
      "type": "event"
    },
    {
      "anonymous": false,
      "inputs": [
        {
          "indexed": false,
          "internalType": "uint8",
          "name": "version",
          "type": "uint8"
        }
      ],
      "name": "Initialized",
      "type": "event"
    },
    {
      "anonymous": false,
      "inputs": [
        {
          "indexed": false,
          "internalType": "uint256",
          "name": "liquidateRate",
          "type": "uint256"
        }
      ],
      "name": "LiquidateRateChanged",
      "type": "event"
    },
    {
      "anonymous": false,
      "inputs": [
        {
          "indexed": true,
          "internalType": "address",
          "name": "user",
          "type": "address"
        },
        {
          "indexed": false,
          "internalType": "address",
          "name": "vault",
          "type": "address"
        },
        {
          "indexed": false,
          "internalType": "uint256",
          "name": "amount",
          "type": "uint256"
        },
        {
          "indexed": false,
          "internalType": "uint256",
          "name": "usdValue",
          "type": "uint256"
        }
      ],
      "name": "MintVaultReleased",
      "type": "event"
    },
    {
      "anonymous": false,
      "inputs": [
        {
          "indexed": false,
          "internalType": "bool",
          "name": "open",
          "type": "bool"
        }
      ],
      "name": "OpenLiquidateChanged",
      "type": "event"
    },
    {
      "anonymous": false,
      "inputs": [
        {
          "indexed": true,
          "internalType": "address",
          "name": "previousOwner",
          "type": "address"
        },
        {
          "indexed": true,
          "internalType": "address",
          "name": "newOwner",
          "type": "address"
        }
      ],
      "name": "OwnershipTransferred",
      "type": "event"
    },
    {
      "anonymous": false,
      "inputs": [
        {
          "indexed": false,
          "internalType": "address",
          "name": "vault",
          "type": "address"
        },
        {
          "indexed": false,
          "internalType": "address",
          "name": "user",
          "type": "address"
        },
        {
          "indexed": false,
          "internalType": "enum IController.ValidVault",
          "name": "state",
          "type": "uint8"
        }
      ],
      "name": "SetValidVault",
      "type": "event"
    },
    {
      "anonymous": false,
      "inputs": [
        {
          "indexed": false,
          "internalType": "address",
          "name": "vault",
          "type": "address"
        },
        {
          "components": [
            {
              "internalType": "bool",
              "name": "enabled",
              "type": "bool"
            },
            {
              "internalType": "bool",
              "name": "enableDeposit",
              "type": "bool"
            },
            {
              "internalType": "bool",
              "name": "enableWithdraw",
              "type": "bool"
            },
            {
              "internalType": "bool",
              "name": "enableBorrow",
              "type": "bool"
            },
            {
              "internalType": "bool",
              "name": "enableRepay",
              "type": "bool"
            },
            {
              "internalType": "bool",
              "name": "enableLiquidate",
              "type": "bool"
            }
          ],
          "indexed": false,
          "internalType": "struct IController.VaultState",
          "name": "state",
          "type": "tuple"
        }
      ],
      "name": "SetVaultStates",
      "type": "event"
    },
    {
      "anonymous": false,
      "inputs": [
        {
          "indexed": true,
          "internalType": "address",
          "name": "underlying",
          "type": "address"
        },
        {
          "indexed": false,
          "internalType": "address",
          "name": "oldDToken",
          "type": "address"
        },
        {
          "indexed": false,
          "internalType": "address",
          "name": "newDToken",
          "type": "address"
        }
      ],
      "name": "UnderlyingDTokenChanged",
      "type": "event"
    },
    {
      "anonymous": false,
      "inputs": [
        {
          "indexed": true,
          "internalType": "address",
          "name": "underlying",
          "type": "address"
        },
        {
          "indexed": false,
          "internalType": "address",
          "name": "oldStrage",
          "type": "address"
        },
        {
          "indexed": false,
          "internalType": "address",
          "name": "newDToken",
          "type": "address"
        },
        {
          "indexed": false,
          "internalType": "uint256",
          "name": "stype",
          "type": "uint256"
        }
      ],
      "name": "UnderlyingStrategyChanged",
      "type": "event"
    },
    {
      "anonymous": false,
      "inputs": [
        {
          "indexed": true,
          "internalType": "address",
          "name": "underlying",
          "type": "address"
        },
        {
          "indexed": false,
          "internalType": "address",
          "name": "oracle",
          "type": "address"
        },
        {
          "indexed": false,
          "internalType": "uint256",
          "name": "discount",
          "type": "uint256"
        },
        {
          "indexed": false,
          "internalType": "uint256",
          "name": "premium",
          "type": "uint256"
        }
      ],
      "name": "ValueConfChanged",
      "type": "event"
    },
    {
      "anonymous": false,
      "inputs": [
        {
          "indexed": false,
          "internalType": "address",
          "name": "preivousFactory",
          "type": "address"
        },
        {
          "indexed": false,
          "internalType": "address",
          "name": "newFactory",
          "type": "address"
        }
      ],
      "name": "VaultFactoryChanged",
      "type": "event"
    },
    {
      "anonymous": false,
      "inputs": [
        {
          "indexed": true,
          "internalType": "address",
          "name": "user",
          "type": "address"
        },
        {
          "indexed": false,
          "internalType": "uint256",
          "name": "expectedUsdValue",
          "type": "uint256"
        },
        {
          "indexed": false,
          "internalType": "uint256",
          "name": "releasedUsdValue",
          "type": "uint256"
        }
      ],
      "name": "VaultsReleased",
      "type": "event"
    },
    {
      "inputs": [
        {
          "internalType": "address",
          "name": "",
          "type": "address"
        }
      ],
      "name": "allowedLiquidator",
      "outputs": [
        {
          "internalType": "bool",
          "name": "",
          "type": "bool"
        }
      ],
      "stateMutability": "view",
      "type": "function"
    },
    {
      "inputs": [
        {
          "internalType": "address",
          "name": "_user",
          "type": "address"
        },
        {
          "internalType": "address",
          "name": "_vault",
          "type": "address"
        },
        {
          "internalType": "uint256",
          "name": "_amount",
          "type": "uint256"
        }
      ],
      "name": "beforeBorrow",
      "outputs": [],
      "stateMutability": "view",
      "type": "function"
    },
    {
      "inputs": [
        {
          "internalType": "address",
          "name": "",
          "type": "address"
        },
        {
          "internalType": "address",
          "name": "_vault",
          "type": "address"
        },
        {
          "internalType": "uint256",
          "name": "",
          "type": "uint256"
        }
      ],
      "name": "beforeDeposit",
      "outputs": [],
      "stateMutability": "view",
      "type": "function"
    },
    {
      "inputs": [
        {
          "internalType": "address",
          "name": "_repayer",
          "type": "address"
        },
        {
          "internalType": "address",
          "name": "_vault",
          "type": "address"
        },
        {
          "internalType": "uint256",
          "name": "_amount",
          "type": "uint256"
        }
      ],
      "name": "beforeRepay",
      "outputs": [],
      "stateMutability": "view",
      "type": "function"
    },
    {
      "inputs": [
        {
          "internalType": "address",
          "name": "_user",
          "type": "address"
        },
        {
          "internalType": "address",
          "name": "_vault",
          "type": "address"
        },
        {
          "internalType": "uint256",
          "name": "_amount",
          "type": "uint256"
        }
      ],
      "name": "beforeWithdraw",
      "outputs": [],
      "stateMutability": "view",
      "type": "function"
    },
    {
      "inputs": [],
      "name": "collateralRate",
      "outputs": [
        {
          "internalType": "uint256",
          "name": "",
          "type": "uint256"
        }
      ],
      "stateMutability": "view",
      "type": "function"
    },
    {
      "inputs": [
        {
          "internalType": "address",
          "name": "",
          "type": "address"
        }
      ],
      "name": "dyTokenVaults",
      "outputs": [
        {
          "internalType": "address",
          "name": "",
          "type": "address"
        }
      ],
      "stateMutability": "view",
      "type": "function"
    },
    {
      "inputs": [
        {
          "internalType": "address",
          "name": "",
          "type": "address"
        }
      ],
      "name": "dyTokens",
      "outputs": [
        {
          "internalType": "address",
          "name": "",
          "type": "address"
        }
      ],
      "stateMutability": "view",
      "type": "function"
    },
    {
      "inputs": [
        {
          "internalType": "address",
          "name": "_underlying",
          "type": "address"
        }
      ],
      "name": "emergencyWithdrawAll",
      "outputs": [],
      "stateMutability": "nonpayable",
      "type": "function"
    },
    {
      "inputs": [
        {
          "internalType": "address",
          "name": "_user",
          "type": "address"
        },
        {
          "internalType": "bool",
          "name": "isDepositVault",
          "type": "bool"
        }
      ],
      "name": "exitVault",
      "outputs": [],
      "stateMutability": "nonpayable",
      "type": "function"
    },
    {
      "inputs": [
        {
          "internalType": "address",
          "name": "_underlying",
          "type": "address"
        }
      ],
      "name": "getValueConf",
      "outputs": [
        {
          "internalType": "address",
          "name": "oracle",
          "type": "address"
        },
        {
          "internalType": "uint16",
          "name": "dr",
          "type": "uint16"
        },
        {
          "internalType": "uint16",
          "name": "pr",
          "type": "uint16"
        }
      ],
      "stateMutability": "view",
      "type": "function"
    },
    {
      "inputs": [
        {
          "internalType": "address",
          "name": "token0",
          "type": "address"
        },
        {
          "internalType": "address",
          "name": "token1",
          "type": "address"
        }
      ],
      "name": "getValueConfs",
      "outputs": [
        {
          "internalType": "address",
          "name": "oracle0",
          "type": "address"
        },
        {
          "internalType": "uint16",
          "name": "dr0",
          "type": "uint16"
        },
        {
          "internalType": "uint16",
          "name": "pr0",
          "type": "uint16"
        },
        {
          "internalType": "address",
          "name": "oracle1",
          "type": "address"
        },
        {
          "internalType": "uint16",
          "name": "dr1",
          "type": "uint16"
        },
        {
          "internalType": "uint16",
          "name": "pr1",
          "type": "uint16"
        }
      ],
      "stateMutability": "view",
      "type": "function"
    },
    {
      "inputs": [],
      "name": "globalState",
      "outputs": [
        {
          "internalType": "bool",
          "name": "enabled",
          "type": "bool"
        },
        {
          "internalType": "bool",
          "name": "enableDeposit",
          "type": "bool"
        },
        {
          "internalType": "bool",
          "name": "enableWithdraw",
          "type": "bool"
        },
        {
          "internalType": "bool",
          "name": "enableBorrow",
          "type": "bool"
        },
        {
          "internalType": "bool",
          "name": "enableRepay",
          "type": "bool"
        },
        {
          "internalType": "bool",
          "name": "enableLiquidate",
          "type": "bool"
        }
      ],
      "stateMutability": "view",
      "type": "function"
    },
    {
      "inputs": [
        {
          "internalType": "address[]",
          "name": "_vault",
          "type": "address[]"
        },
        {
          "internalType": "enum IController.ValidVault[]",
          "name": "_state",
          "type": "uint8[]"
        }
      ],
      "name": "initValidVault",
      "outputs": [],
      "stateMutability": "nonpayable",
      "type": "function"
    },
    {
      "inputs": [],
      "name": "initialize",
      "outputs": [],
      "stateMutability": "nonpayable",
      "type": "function"
    },
    {
      "inputs": [
        {
          "internalType": "address",
          "name": "_borrower",
          "type": "address"
        }
      ],
      "name": "isNeedLiquidate",
      "outputs": [
        {
          "internalType": "bool",
          "name": "",
          "type": "bool"
        }
      ],
      "stateMutability": "view",
      "type": "function"
    },
    {
      "inputs": [],
      "name": "isOpenLiquidate",
      "outputs": [
        {
          "internalType": "bool",
          "name": "",
          "type": "bool"
        }
      ],
      "stateMutability": "view",
      "type": "function"
    },
    {
      "inputs": [
        {
          "internalType": "address",
          "name": "_user",
          "type": "address"
        },
        {
          "internalType": "bool",
          "name": "isDepositVault",
          "type": "bool"
        }
      ],
      "name": "joinVault",
      "outputs": [],
      "stateMutability": "nonpayable",
      "type": "function"
    },
    {
      "inputs": [
        {
          "internalType": "address",
          "name": "_borrower",
          "type": "address"
        },
        {
          "internalType": "bytes",
          "name": "data",
          "type": "bytes"
        }
      ],
      "name": "liquidate",
      "outputs": [],
      "stateMutability": "nonpayable",
      "type": "function"
    },
    {
      "inputs": [],
      "name": "liquidateRate",
      "outputs": [
        {
          "internalType": "uint256",
          "name": "",
          "type": "uint256"
        }
      ],
      "stateMutability": "view",
      "type": "function"
    },
    {
      "inputs": [
        {
          "internalType": "address",
          "name": "_user",
          "type": "address"
        },
        {
          "internalType": "address",
          "name": "vault",
          "type": "address"
        }
      ],
      "name": "maxBorrow",
      "outputs": [
        {
          "internalType": "uint256",
          "name": "",
          "type": "uint256"
        }
      ],
      "stateMutability": "view",
      "type": "function"
    },
    {
      "inputs": [],
      "name": "owner",
      "outputs": [
        {
          "internalType": "address",
          "name": "",
          "type": "address"
        }
      ],
      "stateMutability": "view",
      "type": "function"
    },
    {
      "inputs": [
        {
          "internalType": "address",
          "name": "user_",
          "type": "address"
        },
        {
          "internalType": "address",
          "name": "liquidator_",
          "type": "address"
        },
        {
          "internalType": "contract IVault[]",
          "name": "mintVaults_",
          "type": "address[]"
        }
      ],
      "name": "releaseMintVaults",
      "outputs": [],
      "stateMutability": "nonpayable",
      "type": "function"
    },
    {
      "inputs": [
        {
          "internalType": "address",
          "name": "user_",
          "type": "address"
        },
        {
          "internalType": "address",
          "name": "liquidator_",
          "type": "address"
        }
      ],
      "name": "releaseZeroValueVaults",
      "outputs": [],
      "stateMutability": "nonpayable",
      "type": "function"
    },
    {
      "inputs": [],
      "name": "renounceOwnership",
      "outputs": [],
      "stateMutability": "nonpayable",
      "type": "function"
    },
    {
      "inputs": [
        {
          "internalType": "uint256",
          "name": "_collateralRate",
          "type": "uint256"
        }
      ],
      "name": "setCollateralRate",
      "outputs": [],
      "stateMutability": "nonpayable",
      "type": "function"
    },
    {
      "inputs": [
        {
          "internalType": "address",
          "name": "_underlying",
          "type": "address"
        },
        {
          "internalType": "address",
          "name": "_dToken",
          "type": "address"
        }
      ],
      "name": "setDYToken",
      "outputs": [],
      "stateMutability": "nonpayable",
      "type": "function"
    },
    {
      "inputs": [
        {
          "components": [
            {
              "internalType": "bool",
              "name": "enabled",
              "type": "bool"
            },
            {
              "internalType": "bool",
              "name": "enableDeposit",
              "type": "bool"
            },
            {
              "internalType": "bool",
              "name": "enableWithdraw",
              "type": "bool"
            },
            {
              "internalType": "bool",
              "name": "enableBorrow",
              "type": "bool"
            },
            {
              "internalType": "bool",
              "name": "enableRepay",
              "type": "bool"
            },
            {
              "internalType": "bool",
              "name": "enableLiquidate",
              "type": "bool"
            }
          ],
          "internalType": "struct IController.VaultState",
          "name": "state_",
          "type": "tuple"
        }
      ],
      "name": "setGlobalState",
      "outputs": [],
      "stateMutability": "nonpayable",
      "type": "function"
    },
    {
      "inputs": [
        {
          "internalType": "uint256",
          "name": "_liquidateRate",
          "type": "uint256"
        }
      ],
      "name": "setLiquidateRate",
      "outputs": [],
      "stateMutability": "nonpayable",
      "type": "function"
    },
    {
      "inputs": [
        {
          "internalType": "bool",
          "name": "_open",
          "type": "bool"
        }
      ],
      "name": "setOpenLiquidate",
      "outputs": [],
      "stateMutability": "nonpayable",
      "type": "function"
    },
    {
      "inputs": [
        {
          "internalType": "address",
          "name": "_underlying",
          "type": "address"
        },
        {
          "internalType": "address",
          "name": "_oracle",
          "type": "address"
        },
        {
          "internalType": "uint16",
          "name": "_discount",
          "type": "uint16"
        },
        {
          "internalType": "uint16",
          "name": "_premium",
          "type": "uint16"
        }
      ],
      "name": "setOracles",
      "outputs": [],
      "stateMutability": "nonpayable",
      "type": "function"
    },
    {
      "inputs": [
        {
          "internalType": "address",
          "name": "_underlying",
          "type": "address"
        },
        {
          "internalType": "address",
          "name": "_strategy",
          "type": "address"
        },
        {
          "internalType": "uint256",
          "name": "stype",
          "type": "uint256"
        }
      ],
      "name": "setStrategy",
      "outputs": [],
      "stateMutability": "nonpayable",
      "type": "function"
    },
    {
      "inputs": [
        {
          "internalType": "address[]",
          "name": "_vault",
          "type": "address[]"
        },
        {
          "internalType": "enum IController.ValidVault[]",
          "name": "_state",
          "type": "uint8[]"
        }
      ],
      "name": "setValidVault",
      "outputs": [],
      "stateMutability": "nonpayable",
      "type": "function"
    },
    {
      "inputs": [
        {
          "internalType": "address",
          "name": "_dyToken",
          "type": "address"
        },
        {
          "internalType": "address",
          "name": "_vault",
          "type": "address"
        },
        {
          "internalType": "uint256",
          "name": "vtype",
          "type": "uint256"
        }
      ],
      "name": "setVault",
      "outputs": [],
      "stateMutability": "nonpayable",
      "type": "function"
    },
    {
      "inputs": [
        {
          "internalType": "address",
          "name": "vaultFactory_",
          "type": "address"
        }
      ],
      "name": "setVaultFactory",
      "outputs": [],
      "stateMutability": "nonpayable",
      "type": "function"
    },
    {
      "inputs": [
        {
          "internalType": "address",
          "name": "_vault",
          "type": "address"
        },
        {
          "components": [
            {
              "internalType": "bool",
              "name": "enabled",
              "type": "bool"
            },
            {
              "internalType": "bool",
              "name": "enableDeposit",
              "type": "bool"
            },
            {
              "internalType": "bool",
              "name": "enableWithdraw",
              "type": "bool"
            },
            {
              "internalType": "bool",
              "name": "enableBorrow",
              "type": "bool"
            },
            {
              "internalType": "bool",
              "name": "enableRepay",
              "type": "bool"
            },
            {
              "internalType": "bool",
              "name": "enableLiquidate",
              "type": "bool"
            }
          ],
          "internalType": "struct IController.VaultState",
          "name": "_state",
          "type": "tuple"
        }
      ],
      "name": "setVaultStates",
      "outputs": [],
      "stateMutability": "nonpayable",
      "type": "function"
    },
    {
      "inputs": [
        {
          "internalType": "address",
          "name": "",
          "type": "address"
        }
      ],
      "name": "strategies",
      "outputs": [
        {
          "internalType": "address",
          "name": "",
          "type": "address"
        }
      ],
      "stateMutability": "view",
      "type": "function"
    },
    {
      "inputs": [
        {
          "internalType": "address",
          "name": "user_",
          "type": "address"
        },
        {
          "internalType": "address",
          "name": "liquidator_",
          "type": "address"
        },
        {
          "internalType": "contract IVault[]",
          "name": "sourceVaults_",
          "type": "address[]"
        },
        {
          "internalType": "contract IVault[]",
          "name": "targetVaults_",
          "type": "address[]"
        }
      ],
      "name": "swapUserDepositVaults",
      "outputs": [],
      "stateMutability": "nonpayable",
      "type": "function"
    },
    {
      "inputs": [
        {
          "internalType": "address",
          "name": "newOwner",
          "type": "address"
        }
      ],
      "name": "transferOwnership",
      "outputs": [],
      "stateMutability": "nonpayable",
      "type": "function"
    },
    {
      "inputs": [
        {
          "internalType": "address",
          "name": "liquidator",
          "type": "address"
        },
        {
          "internalType": "bool",
          "name": "allowed",
          "type": "bool"
        }
      ],
      "name": "updateAllowedLiquidator",
      "outputs": [],
      "stateMutability": "nonpayable",
      "type": "function"
    },
    {
      "inputs": [
        {
          "internalType": "address",
          "name": "_user",
          "type": "address"
        },
        {
          "internalType": "bool",
          "name": "isDepositVault",
          "type": "bool"
        }
      ],
      "name": "userJoinedVaultCount",
      "outputs": [
        {
          "internalType": "uint256",
          "name": "",
          "type": "uint256"
        }
      ],
      "stateMutability": "view",
      "type": "function"
    },
    {
      "inputs": [
        {
          "internalType": "address",
          "name": "_user",
          "type": "address"
        },
        {
          "internalType": "bool",
          "name": "isDepositVault",
          "type": "bool"
        },
        {
          "internalType": "uint256",
          "name": "index",
          "type": "uint256"
        }
      ],
      "name": "userJoinedVaultInfoAt",
      "outputs": [
        {
          "internalType": "address",
          "name": "vault",
          "type": "address"
        },
        {
          "components": [
            {
              "internalType": "bool",
              "name": "enabled",
              "type": "bool"
            },
            {
              "internalType": "bool",
              "name": "enableDeposit",
              "type": "bool"
            },
            {
              "internalType": "bool",
              "name": "enableWithdraw",
              "type": "bool"
            },
            {
              "internalType": "bool",
              "name": "enableBorrow",
              "type": "bool"
            },
            {
              "internalType": "bool",
              "name": "enableRepay",
              "type": "bool"
            },
            {
              "internalType": "bool",
              "name": "enableLiquidate",
              "type": "bool"
            }
          ],
          "internalType": "struct IController.VaultState",
          "name": "state",
          "type": "tuple"
        }
      ],
      "stateMutability": "view",
      "type": "function"
    },
    {
      "inputs": [
        {
          "internalType": "address",
          "name": "_user",
          "type": "address"
        },
        {
          "internalType": "contract IVault",
          "name": "_vault",
          "type": "address"
        },
        {
          "internalType": "int256",
          "name": "_amount",
          "type": "int256"
        },
        {
          "internalType": "bool",
          "name": "_dp",
          "type": "bool"
        }
      ],
      "name": "userPendingValues",
      "outputs": [
        {
          "internalType": "uint256",
          "name": "pendingDepositValue",
          "type": "uint256"
        },
        {
          "internalType": "uint256",
          "name": "pendingBrorowValue",
          "type": "uint256"
        }
      ],
      "stateMutability": "view",
      "type": "function"
    },
    {
      "inputs": [
        {
          "internalType": "address",
          "name": "_user",
          "type": "address"
        },
        {
          "internalType": "contract IVault",
          "name": "_vault",
          "type": "address"
        },
        {
          "internalType": "int256",
          "name": "_amount",
          "type": "int256"
        },
        {
          "internalType": "bool",
          "name": "_dp",
          "type": "bool"
        }
      ],
      "name": "userTotalPendingValues",
      "outputs": [
        {
          "internalType": "uint256",
          "name": "pendingDepositValue",
          "type": "uint256"
        },
        {
          "internalType": "uint256",
          "name": "pendingBrorowValue",
          "type": "uint256"
        }
      ],
      "stateMutability": "view",
      "type": "function"
    },
    {
      "inputs": [
        {
          "internalType": "address",
          "name": "_user",
          "type": "address"
        },
        {
          "internalType": "bool",
          "name": "_dp",
          "type": "bool"
        }
      ],
      "name": "userTotalValues",
      "outputs": [
        {
          "internalType": "uint256",
          "name": "totalDepositValue",
          "type": "uint256"
        },
        {
          "internalType": "uint256",
          "name": "totalBorrowValue",
          "type": "uint256"
        }
      ],
      "stateMutability": "view",
      "type": "function"
    },
    {
      "inputs": [
        {
          "internalType": "address",
          "name": "_user",
          "type": "address"
        },
        {
          "internalType": "bool",
          "name": "_dp",
          "type": "bool"
        }
      ],
      "name": "userValues",
      "outputs": [
        {
          "internalType": "uint256",
          "name": "totalDepositValue",
          "type": "uint256"
        },
        {
          "internalType": "uint256",
          "name": "totalBorrowValue",
          "type": "uint256"
        }
      ],
      "stateMutability": "view",
      "type": "function"
    },
    {
      "inputs": [
        {
          "internalType": "address",
          "name": "",
          "type": "address"
        }
      ],
      "name": "validVaults",
      "outputs": [
        {
          "internalType": "enum IController.ValidVault",
          "name": "",
          "type": "uint8"
        }
      ],
      "stateMutability": "view",
      "type": "function"
    },
    {
      "inputs": [
        {
          "internalType": "address",
          "name": "",
          "type": "address"
        },
        {
          "internalType": "address",
          "name": "",
          "type": "address"
        }
      ],
      "name": "validVaultsOfUser",
      "outputs": [
        {
          "internalType": "enum IController.ValidVault",
          "name": "",
          "type": "uint8"
        }
      ],
      "stateMutability": "view",
      "type": "function"
    },
    {
      "inputs": [],
      "name": "vaultFactory",
      "outputs": [
        {
          "internalType": "address",
          "name": "",
          "type": "address"
        }
      ],
      "stateMutability": "view",
      "type": "function"
    },
    {
      "inputs": [
        {
          "internalType": "address",
          "name": "",
          "type": "address"
        }
      ],
      "name": "vaultStates",
      "outputs": [
        {
          "internalType": "bool",
          "name": "enabled",
          "type": "bool"
        },
        {
          "internalType": "bool",
          "name": "enableDeposit",
          "type": "bool"
        },
        {
          "internalType": "bool",
          "name": "enableWithdraw",
          "type": "bool"
        },
        {
          "internalType": "bool",
          "name": "enableBorrow",
          "type": "bool"
        },
        {
          "internalType": "bool",
          "name": "enableRepay",
          "type": "bool"
        },
        {
          "internalType": "bool",
          "name": "enableLiquidate",
          "type": "bool"
        }
      ],
      "stateMutability": "view",
      "type": "function"
    }
  ],
  "transactionHash": "0x7ee30dfa96026877859a236b2debf81b32734a8ce700b581538c52656774db0e",
  "args": [],
  "numDeployments": 2,
  "solcInputHash": "e171a0d2c508dbabc406390f6e2dedd1",
  "bytecode": "0x608060405234801561001057600080fd5b50615301806100206000396000f3fe608060405234801561001057600080fd5b50600436106102d65760003560e01c80636c45967711610182578063b66d927a116100e9578063d7a6681c116100a2578063e76c01e41161007c578063e76c01e4146107e8578063f2fde38b14610825578063f7d2267314610838578063f9009ee81461084b57600080fd5b8063d7a6681c146107af578063d8a06f73146107c2578063e26ec36a146107d557600080fd5b8063b66d927a14610722578063b74e8b0514610735578063c4c0048714610748578063c5321fb01461075b578063c8b268b31461076e578063d2786d451461078157600080fd5b80638da5cb5b1161013b5780638da5cb5b1461069857806390a83dc2146106a957806396721753146106bc5780639c045f3e146106cf578063aaace601146106f0578063ab27197e1461071957600080fd5b80636c459677146106265780636e7e6a1e14610639578063715018a61461064c57806379bf27b1146106545780638129fc1c1461066757806383d576501461066f57600080fd5b806339ebf823116102415780635911a1ae116101fa578063624b5ed4116101d4578063624b5ed4146105bd5780636657fc67146105d05780636989725c146106005780636af2482d1461061357600080fd5b80635911a1ae1461050b57806359e27fc41461051e5780635f49202f1461053157600080fd5b806339ebf823146104335780633dcecc2f146104745780633ea7fbdb146104c957806346b45be7146104dc57806354ab6269146104ef57806358a6be1c1461050257600080fd5b80631490881611610293578063149088161461034f5780631acd8c9c146103625780631e516051146103a45780632b9553ce146103d75780632ea87482146103ea57806338b204211461040b57600080fd5b8063054c1344146102db578063095e377d146102f057806309ba9b47146103035780630d37a290146103165780630ebdee19146103295780630eccd2c91461033c575b600080fd5b6102ee6102e9366004614742565b610858565b005b6102ee6102fe366004614783565b610a01565b6102ee610311366004614742565b610ea8565b6102ee6103243660046147ce565b610f96565b6102ee610337366004614834565b61114b565b6102ee61034a366004614862565b6111d7565b6102ee61035d366004614783565b61142e565b6103756103703660046148e7565b611522565b604080516001600160a01b03909416845261ffff92831660208501529116908201526060015b60405180910390f35b6103c76103b23660046148e7565b606f6020526000908152604090205460ff1681565b604051901515815260200161039b565b6102ee6103e5366004614742565b611575565b6103fd6103f8366004614834565b61169c565b60405190815260200161039b565b61041e610419366004614904565b6116f3565b6040805192835260208301919091520161039b565b61045c6104413660046148e7565b6066602052600090815260409020546001600160a01b031681565b6040516001600160a01b03909116815260200161039b565b610487610482366004614783565b61174f565b604080516001600160a01b03978816815261ffff96871660208201529486169085015294909116606083015282166080820152911660a082015260c00161039b565b6102ee6104d73660046148e7565b611782565b6102ee6104ea366004614a3b565b611815565b6102ee6104fd3660046148e7565b611acf565b6103fd606d5481565b6103fd610519366004614783565b611b86565b6102ee61052c366004614742565b611c94565b61058461053f3660046148e7565b606b6020526000908152604090205460ff80821691610100810482169162010000820481169163010000008104821691600160201b8204811691600160281b90041686565b604080519615158752941515602087015292151593850193909352151560608401529015156080830152151560a082015260c00161039b565b6102ee6105cb366004614afd565b611df3565b6105f36105de3660046148e7565b60706020526000908152604090205460ff1681565b60405161039b9190614b4e565b6102ee61060e366004614742565b611e59565b6102ee610621366004614c0b565b611f47565b6102ee610634366004614c38565b612066565b6102ee610647366004614c55565b6120d1565b6102ee612199565b6102ee610662366004614834565b6121cf565b6102ee612292565b61045c61067d3660046148e7565b6068602052600090815260409020546001600160a01b031681565b6033546001600160a01b031661045c565b6102ee6106b7366004614742565b61231c565b61041e6106ca366004614904565b61248c565b6106e26106dd366004614c71565b61249b565b60405161039b929190614ca1565b61045c6106fe3660046148e7565b6065602052600090815260409020546001600160a01b031681565b6103fd606c5481565b6103c76107303660046148e7565b6125a2565b6102ee610743366004614d4c565b6125d9565b6102ee610756366004614834565b612b9f565b6102ee610769366004614a3b565b612caa565b6102ee61077c366004614afd565b612f67565b6105f361078f366004614783565b607160209081526000928352604080842090915290825290205460ff1681565b6102ee6107bd366004614de1565b612fc6565b60735461045c906001600160a01b031681565b61041e6107e3366004614834565b6136b0565b6072546105849060ff80821691610100810482169162010000820481169163010000008104821691600160201b8204811691600160281b90041686565b6102ee6108333660046148e7565b6136ed565b61041e610846366004614834565b613785565b606e546103c79060ff1681565b6001600160a01b0382166000908152606b6020908152604091829020825160c081018452905460ff8082161515835261010082048116151593830193909352620100008104831615159382019390935263010000008304821615156060820152600160201b8304821615156080820152600160281b9092048116151560a08301526072541680156108f1575060725462010000900460ff165b80156108fb575080515b8015610908575080604001515b61094d5760405162461bcd60e51b815260206004820152601160248201527015d2551211149055d7d11254d050931151607a1b60448201526064015b60405180910390fd5b61095783856137ab565b156109fb576000610974858561096d8685614e5c565b600161389a565b6001600160a01b0386166000908152606a602052604081209192509061099d9087906001613ae5565b9050606d54816109ad9190614e9b565b6109b961271084614e9b565b10156109f85760405162461bcd60e51b815260206004820152600e60248201526d1313d5d7d0d3d31310551154905360921b6044820152606401610944565b50505b50505050565b6033546001600160a01b03163314610a2b5760405162461bcd60e51b815260040161094490614eba565b6001600160a01b0381166000908152606f602052604090205460ff16610a635760405162461bcd60e51b815260040161094490614eef565b60408051600160208201526000910160408051601f198184030181529181526001600160a01b0385166000908152606a6020529081209192505b610aa682613bb4565b811015610c88576000610ab98383613bbe565b90506000816001600160a01b031663ae318c4d8860006040518363ffffffff1660e01b8152600401610aec929190614f1b565b60206040518083038186803b158015610b0457600080fd5b505afa158015610b18573d6000803e3d6000fd5b505050506040513d601f19601f82011682018060405250810190610b3c9190614f36565b90508015610b4b575050610c76565b6040516354a5706f60e01b81526001600160a01b038881166004830152600091908416906354a5706f9060240160206040518083038186803b158015610b9057600080fd5b505afa158015610ba4573d6000803e3d6000fd5b505050506040513d601f19601f82011682018060405250810190610bc89190614f36565b6040516374eb83c160e01b81529091506001600160a01b038416906374eb83c190610bfb908a908c908b90600401614fa7565b600060405180830381600087803b158015610c1557600080fd5b505af1158015610c29573d6000803e3d6000fd5b50505050876001600160a01b03167f7114e74d858e0dbdc24007f787fb65581d52fdcd4e8517d6f3a1f9448323428c848385604051610c6a93929190614fdc565b60405180910390a25050505b80610c8081614ffd565b915050610a9d565b506001600160a01b0384166000908152606960205260408120905b610cac82613bb4565b8110156109f8576000610cbf8383613bbe565b90506000816001600160a01b031663ae318c4d8960006040518363ffffffff1660e01b8152600401610cf2929190614f1b565b60206040518083038186803b158015610d0a57600080fd5b505afa158015610d1e573d6000803e3d6000fd5b505050506040513d601f19601f82011682018060405250810190610d429190614f36565b9050600081118015610d715750731e3174c5757cf5457f8a3a8c3e4a35ed2d1383226001600160a01b03831614155b15610d7d575050610e96565b60405163fc7e286d60e01b81526001600160a01b0389811660048301526000919084169063fc7e286d9060240160206040518083038186803b158015610dc257600080fd5b505afa158015610dd6573d6000803e3d6000fd5b505050506040513d601f19601f82011682018060405250810190610dfa9190614f36565b6040516374eb83c160e01b81529091506001600160a01b038416906374eb83c190610e2d908b908d908c90600401614fa7565b600060405180830381600087803b158015610e4757600080fd5b505af1158015610e5b573d6000803e3d6000fd5b50505050886001600160a01b03166000805160206152ac833981519152848385604051610e8a93929190614fdc565b60405180910390a25050505b80610ea081614ffd565b915050610ca3565b6001600160a01b0382166000908152606b6020908152604091829020825160c081018452905460ff8082161515835261010082048116151593830193909352620100008104831615159382019390935263010000008304821615156060820152600160201b8304821615156080820152600160281b9092048116151560a0830152607254168015610f405750607254610100900460ff165b8015610f4a575080515b8015610f57575080602001515b6109fb5760405162461bcd60e51b815260206004820152601060248201526f4445504f534954455f44495341424c4560801b6044820152606401610944565b6033546001600160a01b0316331480610fb957506073546001600160a01b031633145b610fd55760405162461bcd60e51b815260040161094490615018565b6001600160a01b03831661101c5760405162461bcd60e51b815260206004820152600e60248201526d494e56414c49445f4f5241434c4560901b6044820152606401610944565b6127108261ffff1611156110645760405162461bcd60e51b815260206004820152600f60248201526e444953434f55545f544f4f5f42494760881b6044820152606401610944565b6127108161ffff1610156110ae5760405162461bcd60e51b81526020600482015260116024820152701414915352555357d513d3d7d4d3505313607a1b6044820152606401610944565b6001600160a01b0384811660008181526067602090815260409182902080549488166001600160b01b03199095168517600160a01b61ffff8981169182029290921761ffff60b01b1916600160b01b92891692830217835584519687529286019290925291840152917f7cb71f764a6240297d887d23473a61cf07ba9d34ccfbdd326620a5b896cd33469060600160405180910390a25050505050565b6033546001600160a01b031633146111755760405162461bcd60e51b815260040161094490614eba565b6001600160a01b0382166000908152606f602052604090819020805460ff1916831515179055517fd8949265082223b72749a7863e551684ee0df9a0c8ece536b9f14686b68425fc906111cb9084908490614f1b565b60405180910390a15050565b606e54339060ff168061120257506001600160a01b0381166000908152606f602052604090205460ff165b6112435760405162461bcd60e51b815260206004820152601260248201527124a72b20a624a22fa624a8aaa4a220aa27a960711b6044820152606401610944565b61124c846125a2565b61128c5760405162461bcd60e51b81526020600482015260116024820152700869e989882a88aa48298be8a9c9eaa8e9607b1b6044820152606401610944565b6001600160a01b0384166000908152606960205260408120906112ae82613bb4565b9050805b80156113625760006112cf6112c8600184615063565b8590613bbe565b90506112db81896137ab565b1561134f576112ea8882613bca565b6040516374eb83c160e01b81526001600160a01b038216906374eb83c19061131c9088908c908c908c9060040161507a565b600060405180830381600087803b15801561133657600080fd5b505af115801561134a573d6000803e3d6000fd5b505050505b508061135a816150c6565b9150506112b2565b506001600160a01b0386166000908152606a602052604081209061138582613bb4565b9050805b801561142357600061139f6112c8600184615063565b90506113ab8a82613bca565b6040516374eb83c160e01b81526001600160a01b038216906374eb83c1906113dd908a908e908e908e9060040161507a565b600060405180830381600087803b1580156113f757600080fd5b505af115801561140b573d6000803e3d6000fd5b5050505050808061141b906150c6565b915050611389565b505050505050505050565b6033546001600160a01b031633148061145157506073546001600160a01b031633145b61146d5760405162461bcd60e51b815260040161094490615018565b6001600160a01b0381166114b45760405162461bcd60e51b815260206004820152600e60248201526d24a72b20a624a22fa22a27a5a2a760911b6044820152606401610944565b6001600160a01b0382811660008181526065602090815260409182902080548686166001600160a01b0319821681179092558351951680865291850152927fd5c0cad2a6b3eea813a7bdf548752779e26da201508f6e807ec5ec3d65d020d6910160405180910390a2505050565b6001600160a01b039081166000908152606760209081526040918290208251606081018452905493841680825261ffff600160a01b86048116938301849052600160b01b90950490941692018290529192565b6001600160a01b0382166000908152606b6020908152604091829020825160c081018452905460ff8082161515835261010082048116151593830193909352620100008104831615159382019390935263010000008304821615156060820152600160201b8304821615156080820152600160281b9092048116151560a083015260725416801561160f57506072546301000000900460ff165b8015611619575080515b8015611626575080606001515b6116645760405162461bcd60e51b815260206004820152600f60248201526e1093d49493d5d7d11254d050931151608a1b6044820152606401610944565b6000611671856001613cbb565b6001600160a01b0386166000908152606a602052604081209192509061099d90879087876001613da5565b6000816116c9576001600160a01b0383166000908152606a602052604090206116c490613bb4565b6116ea565b6001600160a01b03831660009081526069602052604090206116ea90613bb4565b90505b92915050565b6001600160a01b0384166000908152606960205260408120819061171b908790878787613da5565b6001600160a01b0387166000908152606a60205260409020909250611744908790878787613da5565b905094509492505050565b60008060008060008061176188611522565b9197509550935061177187611522565b979a96995094975095939492505050565b6033546001600160a01b031633146117ac5760405162461bcd60e51b815260040161094490614eba565b607354604080516001600160a01b03928316815291831660208301527f8dea3c42cf6bdedf4c3c6397296fe418086bb6ced33d229f2d5a3c0d109927e2910160405180910390a1607380546001600160a01b0319166001600160a01b0392909216919091179055565b6033546001600160a01b031633148061183857506073546001600160a01b031633145b6118545760405162461bcd60e51b815260040161094490615018565b81518151808214801561186657508115155b6118a25760405162461bcd60e51b815260206004820152600d60248201526c494e56414c49445f504152414d60981b6044820152606401610944565b60005b82811015611ac8576000607060008784815181106118c5576118c56150dd565b6020908102919091018101516001600160a01b031682528101919091526040016000205460ff1660028111156118fd576118fd614b16565b1461193a5760405162461bcd60e51b815260206004820152600d60248201526c5345545f4f4e4c595f4f4e434560981b6044820152606401610944565b600284828151811061194e5761194e6150dd565b6020026020010151600281111561196757611967614b16565b148061199d57506001848281518110611982576119826150dd565b6020026020010151600281111561199b5761199b614b16565b145b6119d95760405162461bcd60e51b815260206004820152600d60248201526c494e56414c49445f56414c554560981b6044820152606401610944565b8381815181106119eb576119eb6150dd565b602002602001015160706000878481518110611a0957611a096150dd565b6020908102919091018101516001600160a01b03168252810191909152604001600020805460ff19166001836002811115611a4657611a46614b16565b02179055507f05334cade7d5051a457d6cddb92a76a5266e31459f3118a536c99b169beaa0f5858281518110611a7e57611a7e6150dd565b6020026020010151858381518110611a9857611a986150dd565b6020026020010151604051611aae9291906150f3565b60405180910390a180611ac081614ffd565b9150506118a5565b5050505050565b6033546001600160a01b03163314611af95760405162461bcd60e51b815260040161094490614eba565b6001600160a01b03808216600090815260666020908152604080832054815163429c145b60e11b8152915194169363853828b693600480840194938390030190829087803b158015611b4a57600080fd5b505af1158015611b5e573d6000803e3d6000fd5b505050506040513d601f19601f82011682018060405250810190611b829190614f36565b5050565b600080611b94846001613cbb565b6001600160a01b0385166000908152606a6020526040812091925090611bbd9086906001613ae5565b90506000606d5461271084611bd29190614e9b565b611bdc9190615110565b905081811115611c7f576000611bf28383615063565b60405163281aa7fd60e21b815260048101829052600160248201529091506001600160a01b0387169063a06a9ff49060440160206040518083038186803b158015611c3c57600080fd5b505afa158015611c50573d6000803e3d6000fd5b505050506040513d601f19601f82011682018060405250810190611c749190614f36565b9450505050506116ed565b600093505050506116ed565b50505092915050565b6033546001600160a01b0316331480611cb757506073546001600160a01b031633145b611cd35760405162461bcd60e51b815260040161094490615018565b816001600160a01b031663ba58591c6040518163ffffffff1660e01b815260040160206040518083038186803b158015611d0c57600080fd5b505afa158015611d20573d6000803e3d6000fd5b505050506040513d601f19601f82011682018060405250810190611d449190615132565b611d805760405162461bcd60e51b815260206004820152600d60248201526c1253959053125157d590531555609a1b6044820152606401610944565b6001600160a01b038084166000818152606860205260409081902080548685166001600160a01b031982161790915590519216917f0ff9c79e47a5eed61bfb093d8315d37efcfa7f6679e507f608289c78941b0e5190611de59084908790879061514f565b60405180910390a250505050565b6033546001600160a01b03163314611e1d5760405162461bcd60e51b815260040161094490614eba565b606d8190556040518181527f13e612fc69e30b3adcca3cb6573fa94782e94f59261f9b32c96c34b90552b335906020015b60405180910390a150565b6001600160a01b0382166000908152606b6020908152604091829020825160c081018452905460ff8082161515835261010082048116151593830193909352620100008104831615159382019390935263010000008304821615156060820152600160201b8304821615156080820152600160281b9092048116151560a0830152607254168015611ef35750607254600160201b900460ff165b8015611efd575080515b8015611f0a575080608001515b6109fb5760405162461bcd60e51b815260206004820152600e60248201526d149154105657d11254d05093115160921b6044820152606401610944565b6033546001600160a01b0316331480611f6a57506073546001600160a01b031633145b611f865760405162461bcd60e51b815260040161094490615018565b6001600160a01b0382166000908152606b60209081526040918290208351815492850151858501516060870151608088015160a089015161ffff1990971694151561ff00191694909417610100931515939093029290921763ffff00001916620100009115159190910263ff0000001916176301000000911515919091021765ffff000000001916600160201b9115159190910265ff0000000000191617600160281b92151592909202919091179055517f0f86f36676a78407d88aa894e600955aca44b6b9eaff4740c81228e2fa75d628906111cb9084908490614ca1565b6033546001600160a01b031633146120905760405162461bcd60e51b815260040161094490614eba565b606e805460ff19168215159081179091556040519081527fcfa23450328fe03391963dc3e54c19ebeecb28fd8a628b495b71ab8534d61c3290602001611e4e565b6033546001600160a01b031633146120fb5760405162461bcd60e51b815260040161094490614eba565b805160728054602084015160408501516060860151608087015160a09097015161ffff1990941695151561ff00191695909517610100921515929092029190911763ffff00001916620100009115159190910263ff0000001916176301000000931515939093029290921765ffff000000001916600160201b9315159390930265ff0000000000191692909217600160281b91151591909102179055565b6033546001600160a01b031633146121c35760405162461bcd60e51b815260040161094490614eba565b6121cd6000613fb8565b565b336000818152606b602052604090205460ff168061220c57506001600160a01b0381166000908152606b6020526040902054600160281b900460ff165b6122495760405162461bcd60e51b815260206004820152600e60248201526d24a72b20a624a22fa1a0a62622a960911b6044820152606401610944565b60008261226d576001600160a01b0384166000908152606a60205260409020612286565b6001600160a01b03841660009081526069602052604090205b9050611ac8818361400a565b600061229e600161401f565b905080156122b6576000805461ff0019166101001790555b6122be6140ac565b612af8606c556132c8606d55606e805460ff191660011790558015612319576000805461ff0019169055604051600181527f7f26b83ff96e1f2b6a682f133852f6798a09c465da95921460cefb384740249890602001611e4e565b50565b6033546001600160a01b031633146123465760405162461bcd60e51b815260040161094490614eba565b6001600160a01b0382166123925760405162461bcd60e51b815260206004820152601360248201527214dd1c985d1959da595cc8111a5cd8589b1959606a1b6044820152606401610944565b6001600160a01b0380841660009081526066602052604090205416801561242857806001600160a01b031663853828b66040518163ffffffff1660e01b8152600401602060405180830381600087803b1580156123ee57600080fd5b505af1158015612402573d6000803e3d6000fd5b505050506040513d601f19601f820116820180604052508101906124269190614f36565b505b6001600160a01b038481166000818152606660205260409081902080546001600160a01b0319169387169390931790925590517fcc7d45f325309ae5b4940b5de638a482be2a51aa3a917326a84f65bcc2f7352390611de59084908790879061514f565b60008061171b8686868661389a565b6040805160c081018252600080825260208201819052918101829052606081018290526080810182905260a081018290526000846124f0576001600160a01b0386166000908152606a60205260409020612509565b6001600160a01b03861660009081526069602052604090205b90506125158185613bbe565b6001600160a01b0381166000908152606b6020908152604091829020825160c081018452905460ff8082161515835261010082048116151593830193909352620100008104831615159382019390935263010000008304821615156060820152600160201b8304821615156080820152600160281b90920416151560a08201529097909650945050505050565b60008060006125b28460016136b0565b91509150606c54816125c49190614e9b565b6125d061271084614e9b565b10949350505050565b6033546001600160a01b031633146126035760405162461bcd60e51b815260040161094490614eba565b6001600160a01b0385166000908152606f602052604090205460ff1661263b5760405162461bcd60e51b815260040161094490614eef565b8261267a5760405162461bcd60e51b815260206004820152600f60248201526e06e6f7468696e6720746f207377617608c1b6044820152606401610944565b8281146126ef5760405162461bcd60e51b815260206004820152603a60248201527f6c656e677468206f6620736f757263655661756c74735f2073686f756c64206260448201527f6520657175616c20746f207461726765745661756c74735f27730000000000006064820152608401610944565b604080516001602082015260009101604051602081830303815290604052905060005b84811015612b9557600086868381811061272e5761272e6150dd565b905060200201602081019061274391906148e7565b90506000858584818110612759576127596150dd565b905060200201602081019061276e91906148e7565b90506000826001600160a01b031663ae318c4d8c60006040518363ffffffff1660e01b81526004016127a1929190614f1b565b60206040518083038186803b1580156127b957600080fd5b505afa1580156127cd573d6000803e3d6000fd5b505050506040513d601f19601f820116820180604052508101906127f19190614f36565b60405163fc7e286d60e01b81526001600160a01b038d8116600483015291925060009185169063fc7e286d9060240160206040518083038186803b15801561283857600080fd5b505afa15801561284c573d6000803e3d6000fd5b505050506040513d601f19601f820116820180604052508101906128709190614f36565b9050836001600160a01b03166374eb83c18c8e896040518463ffffffff1660e01b81526004016128a293929190614fa7565b600060405180830381600087803b1580156128bc57600080fd5b505af11580156128d0573d6000803e3d6000fd5b505050506001600160a01b038416734527ba20f16f86525b6d174b6314502ca6d5256e141561290e57612907816301d2eb40614e9b565b9150612944565b73c703fdad6ca5df56bd729fef24157e196a4810f86001600160a01b03851614156129445761294181630c0a4680614e9b565b91505b600082116129555750505050612b83565b604051630eda25c760e11b8152670de0b6b3a76400006004820152600060248201819052906001600160a01b03851690631db44b8e9060440160206040518083038186803b1580156129a657600080fd5b505afa1580156129ba573d6000803e3d6000fd5b505050506040513d601f19601f820116820180604052508101906129de9190614f36565b9050600064e8d4a51000826129f38683614e9b565b6129fd9190615110565b612a079190615110565b9050612a91333083886001600160a01b0316636f307dc36040518163ffffffff1660e01b815260040160206040518083038186803b158015612a4857600080fd5b505afa158015612a5c573d6000803e3d6000fd5b505050506040513d601f19601f82011682018060405250810190612a809190615173565b6001600160a01b03169291906140db565b612b178582876001600160a01b0316636f307dc36040518163ffffffff1660e01b815260040160206040518083038186803b158015612acf57600080fd5b505afa158015612ae3573d6000803e3d6000fd5b505050506040513d601f19601f82011682018060405250810190612b079190615173565b6001600160a01b03169190614133565b612b22858f83614257565b604080516001600160a01b038881168252602082018690528781169282019290925260608101839052908f16907fcba74a9a38e532ea920e947d3babe6efc7b838cb416f82d9b9d79f32744b34ca9060800160405180910390a25050505050505b80612b8d81614ffd565b915050612712565b5050505050505050565b336000818152606b602052604090205460ff1680612bdc57506001600160a01b0381166000908152606b6020526040902054600160281b900460ff165b612c195760405162461bcd60e51b815260206004820152600e60248201526d24a72b20a624a22fa1a0a62622a960911b6044820152606401610944565b600082612c3d576001600160a01b0384166000908152606a60205260409020612c56565b6001600160a01b03841660009081526069602052604090205b90506014612c6382613bb4565b10612ca05760405162461bcd60e51b815260206004820152600d60248201526c0949e929cbea89e9ebe9aaa869609b1b6044820152606401610944565b611ac8818361432e565b815181513391908082148015612cbf57508115155b612cfb5760405162461bcd60e51b815260206004820152600d60248201526c494e56414c49445f504152414d60981b6044820152606401610944565b60005b82811015612ea7576002858281518110612d1a57612d1a6150dd565b60200260200101516002811115612d3357612d33614b16565b1480612d6957506001858281518110612d4e57612d4e6150dd565b60200260200101516002811115612d6757612d67614b16565b145b612da55760405162461bcd60e51b815260206004820152600d60248201526c494e56414c49445f56414c554560981b6044820152606401610944565b848181518110612db757612db76150dd565b602002602001015160716000888481518110612dd557612dd56150dd565b6020908102919091018101516001600160a01b039081168352828201939093526040918201600090812093891681529290529020805460ff19166001836002811115612e2357612e23614b16565b02179055507f65d4763abdc1e045affaf50aed5fc2a1f4f466da45ee41ea701e0ad5029ff0b0868281518110612e5b57612e5b6150dd565b602002602001015185878481518110612e7657612e766150dd565b6020026020010151604051612e8d93929190615190565b60405180910390a180612e9f81614ffd565b915050612cfe565b506000612eb5846001613cbb565b6001600160a01b0385166000908152606a6020526040812091925090612ede9086906001613ae5565b90506000606d5461271084612ef39190614e9b565b612efd9190615110565b9050606d5482612f0d9190614e9b565b612f1961271085614e9b565b1015612b955760405162461bcd60e51b815260206004820152601d60248201527f53455456414c49445641554c543a204c4f575f434f4c4c41544552414c0000006044820152606401610944565b6033546001600160a01b03163314612f915760405162461bcd60e51b815260040161094490614eba565b606c8190556040518181527f138a4f81e91d7ed8109625537819aae162d22b1e4b5f73e1919d1f6e21bfbb4b90602001611e4e565b6033546001600160a01b03163314612ff05760405162461bcd60e51b815260040161094490614eba565b6001600160a01b0383166000908152606f602052604090205460ff166130285760405162461bcd60e51b815260040161094490614eef565b6001600160a01b038416600090815260696020908152604080832081516001818501528251808203909401845282019091529190815b8481101561325d57600086868381811061307a5761307a6150dd565b905060200201602081019061308f91906148e7565b90506000816001600160a01b031663ae318c4d8b60006040518363ffffffff1660e01b81526004016130c2929190614f1b565b60206040518083038186803b1580156130da57600080fd5b505afa1580156130ee573d6000803e3d6000fd5b505050506040513d601f19601f820116820180604052508101906131129190614f36565b6040516354a5706f60e01b81526001600160a01b038c811660048301529192506000918416906354a5706f9060240160206040518083038186803b15801561315957600080fd5b505afa15801561316d573d6000803e3d6000fd5b505050506040513d601f19601f820116820180604052508101906131919190614f36565b905061319d82876151b5565b6040516374eb83c160e01b81529096506001600160a01b038416906374eb83c1906131d0908d908f908a90600401614fa7565b600060405180830381600087803b1580156131ea57600080fd5b505af11580156131fe573d6000803e3d6000fd5b505050508a6001600160a01b03167f7114e74d858e0dbdc24007f787fb65581d52fdcd4e8517d6f3a1f9448323428c84838560405161323f93929190614fdc565b60405180910390a2505050808061325590614ffd565b91505061305e565b506000821161326e575050506109fb565b60008061327a85613bb4565b90505b801561366157600061329a613293600184615063565b8790613bbe565b90506132a6818b6137ab565b15806132d257506001600160a01b0381166000908152606b6020526040902054600160281b900460ff16155b156132dd575061364f565b60405163ae318c4d60e01b81526000906001600160a01b0383169063ae318c4d9061330e908e908590600401614f1b565b60206040518083038186803b15801561332657600080fd5b505afa15801561333a573d6000803e3d6000fd5b505050506040513d601f19601f8201168201806040525081019061335e9190614f36565b905061336a81856151b5565b60405163fc7e286d60e01b81526001600160a01b038d8116600483015291955060009184169063fc7e286d9060240160206040518083038186803b1580156133b157600080fd5b505afa1580156133c5573d6000803e3d6000fd5b505050506040513d601f19601f820116820180604052508101906133e99190614f36565b9050826001600160a01b03166374eb83c18c8e896040518463ffffffff1660e01b815260040161341b93929190614fa7565b600060405180830381600087803b15801561343557600080fd5b505af1158015613449573d6000803e3d6000fd5b5050505086851415613490578b6001600160a01b03166000805160206152ac83398151915284838560405161348093929190614fdc565b60405180910390a2505050613661565b868510156134d3578b6001600160a01b03166000805160206152ac8339815191528483856040516134c393929190614fdc565b60405180910390a250505061364f565b60006134df8887615063565b90506305f5e100811015613529578c6001600160a01b03166000805160206152ac83398151915285848660405161351893929190614fdc565b60405180910390a250505050613661565b600064e8d4a510008461353c8486614e9b565b61354b9064e8d4a51000614e9b565b6135559190615110565b61355f9190615110565b90508281111561356c5750815b6135ab8d3083886001600160a01b0316636f307dc36040518163ffffffff1660e01b815260040160206040518083038186803b158015612a4857600080fd5b6135e98582876001600160a01b0316636f307dc36040518163ffffffff1660e01b815260040160206040518083038186803b158015612acf57600080fd5b6135f4858f83614257565b6001600160a01b038e166000805160206152ac833981519152866136188487615063565b6136228689615063565b60405161363193929190614fdc565b60405180910390a26136438288615063565b96505050505050613661565b80613659816150c6565b91505061327d565b5060408051848152602081018390526001600160a01b038a16917f26e0bc17070eb8681630837613dc291e5976262044227decb74f578aee1eee5c910160405180910390a25050505050505050565b6000806136bd8484613cbb565b6001600160a01b0385166000908152606a602052604090209092506136e490859085613ae5565b90509250929050565b6033546001600160a01b031633146137175760405162461bcd60e51b815260040161094490614eba565b6001600160a01b03811661377c5760405162461bcd60e51b815260206004820152602660248201527f4f776e61626c653a206e6577206f776e657220697320746865207a65726f206160448201526564647265737360d01b6064820152608401610944565b61231981613fb8565b6001600160a01b038216600090815260696020526040812081906136bd90859085613ae5565b6001600160a01b03808316600090815260716020908152604080832093851683529290529081205460ff1681808260028111156137ea576137ea614b16565b146137f55781613812565b6001600160a01b03851660009081526070602052604090205460ff165b9050600081600281111561382857613828614b16565b141561386a5760405162461bcd60e51b81526020600482015260116024820152701590531251159055531517d55392539255607a1b6044820152606401610944565b600281600281111561387e5761387e614b16565b141561388f576001925050506116ed565b506000949350505050565b6001600160a01b0384166000908152606960205260408120816138bc82613bb4565b90506000805b82811015613a345760006138d68583613bbe565b90506138e2818b6137ab565b15613a2157806001600160a01b0316896001600160a01b0316141561399657604051635ac28bf960e01b81526001600160a01b038b81166004830152602482018a9052821690635ac28bf99060440160206040518083038186803b15801561394957600080fd5b505afa15801561395d573d6000803e3d6000fd5b505050506040513d601f19601f820116820180604052508101906139819190614f36565b61398b90876151b5565b955060019250613a21565b60405163ae318c4d60e01b81526001600160a01b0382169063ae318c4d906139c4908d908b90600401614f1b565b60206040518083038186803b1580156139dc57600080fd5b505afa1580156139f0573d6000803e3d6000fd5b505050506040513d601f19601f82011682018060405250810190613a149190614f36565b613a1e90876151b5565b95505b5080613a2c81614ffd565b9150506138c2565b5080158015613a485750613a4887896137ab565b15613ada57604051635ac28bf960e01b81526001600160a01b03898116600483015260248201889052881690635ac28bf99060440160206040518083038186803b158015613a9557600080fd5b505afa158015613aa9573d6000803e3d6000fd5b505050506040513d601f19601f82011682018060405250810190613acd9190614f36565b613ad790856151b5565b93505b505050949350505050565b600080613af184613bb4565b905060005b81811015613bab576000613b0a8683613bbe565b60405163ae318c4d60e01b81529091506001600160a01b0382169063ae318c4d90613b3b908a908990600401614f1b565b60206040518083038186803b158015613b5357600080fd5b505afa158015613b67573d6000803e3d6000fd5b505050506040513d601f19601f82011682018060405250810190613b8b9190614f36565b613b9590856151b5565b9350508080613ba390614ffd565b915050613af6565b50509392505050565b60006116ed825490565b60006116ea8383614343565b6001600160a01b0381166000908152606b6020908152604091829020825160c081018452905460ff8082161515835261010082048116151593830193909352620100008104831615159382019390935263010000008304821615156060820152600160201b8304821615156080820152600160281b9092048116151560a0830152607254168015613c645750607254600160281b900460ff165b8015613c6e575080515b8015613c7b57508060a001515b613cb65760405162461bcd60e51b815260206004820152600c60248201526b13125457d11254d05093115160a21b6044820152606401610944565b505050565b6001600160a01b038216600090815260696020526040812081613cdd82613bb4565b905060005b81811015611c8b576000613cf68483613bbe565b9050613d0281886137ab565b15613d925760405163ae318c4d60e01b81526001600160a01b0382169063ae318c4d90613d35908a908a90600401614f1b565b60206040518083038186803b158015613d4d57600080fd5b505afa158015613d61573d6000803e3d6000fd5b505050506040513d601f19601f82011682018060405250810190613d859190614f36565b613d8f90866151b5565b94505b5080613d9d81614ffd565b915050613ce2565b600080613db186613bb4565b90506000805b82811015613f1a576000613dcb8983613bbe565b9050806001600160a01b0316886001600160a01b03161415613e7c57604051635ac28bf960e01b81526001600160a01b038b8116600483015260248201899052821690635ac28bf99060440160206040518083038186803b158015613e2f57600080fd5b505afa158015613e43573d6000803e3d6000fd5b505050506040513d601f19601f82011682018060405250810190613e679190614f36565b613e7190866151b5565b945060019250613f07565b60405163ae318c4d60e01b81526001600160a01b0382169063ae318c4d90613eaa908d908a90600401614f1b565b60206040518083038186803b158015613ec257600080fd5b505afa158015613ed6573d6000803e3d6000fd5b505050506040513d601f19601f82011682018060405250810190613efa9190614f36565b613f0490866151b5565b94505b5080613f1281614ffd565b915050613db7565b5080613fad57604051635ac28bf960e01b81526001600160a01b03898116600483015260248201879052871690635ac28bf99060440160206040518083038186803b158015613f6857600080fd5b505afa158015613f7c573d6000803e3d6000fd5b505050506040513d601f19601f82011682018060405250810190613fa09190614f36565b613faa90846151b5565b92505b505095945050505050565b603380546001600160a01b038381166001600160a01b0319831681179093556040519116919082907f8be0079c531659141344cd1fd0a4f28419497f9722a3daafe3b4186f6b6457e090600090a35050565b60006116ea836001600160a01b03841661436d565b60008054610100900460ff1615614066578160ff1660011480156140425750303b155b61405e5760405162461bcd60e51b8152600401610944906151cd565b506000919050565b60005460ff80841691161061408d5760405162461bcd60e51b8152600401610944906151cd565b506000805460ff191660ff92909216919091179055600190565b919050565b600054610100900460ff166140d35760405162461bcd60e51b81526004016109449061521b565b6121cd614460565b6109fb846323b872dd60e01b8585856040516024016140fc9392919061514f565b60408051601f198184030181529190526020810180516001600160e01b03166001600160e01b031990931692909217909152614490565b8015806141bc5750604051636eb1769f60e11b81523060048201526001600160a01b03838116602483015284169063dd62ed3e9060440160206040518083038186803b15801561418257600080fd5b505afa158015614196573d6000803e3d6000fd5b505050506040513d601f19601f820116820180604052508101906141ba9190614f36565b155b6142275760405162461bcd60e51b815260206004820152603660248201527f5361666545524332303a20617070726f76652066726f6d206e6f6e2d7a65726f60448201527520746f206e6f6e2d7a65726f20616c6c6f77616e636560501b6064820152608401610944565b6040516001600160a01b038316602482015260448101829052613cb690849063095ea7b360e01b906064016140fc565b826001600160a01b031663f213159c846001600160a01b0316636f307dc36040518163ffffffff1660e01b815260040160206040518083038186803b15801561429f57600080fd5b505afa1580156142b3573d6000803e3d6000fd5b505050506040513d601f19601f820116820180604052508101906142d79190615173565b84846040518463ffffffff1660e01b81526004016142f79392919061514f565b600060405180830381600087803b15801561431157600080fd5b505af1158015614325573d6000803e3d6000fd5b50505050505050565b60006116ea836001600160a01b038416614562565b600082600001828154811061435a5761435a6150dd565b9060005260206000200154905092915050565b60008181526001830160205260408120548015614456576000614391600183615063565b85549091506000906143a590600190615063565b905081811461440a5760008660000182815481106143c5576143c56150dd565b90600052602060002001549050808760000184815481106143e8576143e86150dd565b6000918252602080832090910192909255918252600188019052604090208390555b855486908061441b5761441b615266565b6001900381819060005260206000200160009055905585600101600086815260200190815260200160002060009055600193505050506116ed565b60009150506116ed565b600054610100900460ff166144875760405162461bcd60e51b81526004016109449061521b565b6121cd33613fb8565b60006144e5826040518060400160405280602081526020017f5361666545524332303a206c6f772d6c6576656c2063616c6c206661696c6564815250856001600160a01b03166145b19092919063ffffffff16565b805190915015613cb657808060200190518101906145039190615132565b613cb65760405162461bcd60e51b815260206004820152602a60248201527f5361666545524332303a204552433230206f7065726174696f6e20646964206e6044820152691bdd081cdd58d8d9595960b21b6064820152608401610944565b60008181526001830160205260408120546145a9575081546001818101845560008481526020808220909301849055845484825282860190935260409020919091556116ed565b5060006116ed565b60606145c084846000856145ca565b90505b9392505050565b60608247101561462b5760405162461bcd60e51b815260206004820152602660248201527f416464726573733a20696e73756666696369656e742062616c616e636520666f6044820152651c8818d85b1b60d21b6064820152608401610944565b843b6146795760405162461bcd60e51b815260206004820152601d60248201527f416464726573733a2063616c6c20746f206e6f6e2d636f6e74726163740000006044820152606401610944565b600080866001600160a01b03168587604051614695919061527c565b60006040518083038185875af1925050503d80600081146146d2576040519150601f19603f3d011682016040523d82523d6000602084013e6146d7565b606091505b50915091506146e78282866146f4565b925050505b949350505050565b606083156147035750816145c3565b8251156147135782518084602001fd5b8160405162461bcd60e51b81526004016109449190615298565b6001600160a01b038116811461231957600080fd5b60008060006060848603121561475757600080fd5b83356147628161472d565b925060208401356147728161472d565b929592945050506040919091013590565b6000806040838503121561479657600080fd5b82356147a18161472d565b915060208301356147b18161472d565b809150509250929050565b803561ffff811681146140a757600080fd5b600080600080608085870312156147e457600080fd5b84356147ef8161472d565b935060208501356147ff8161472d565b925061480d604086016147bc565b915061481b606086016147bc565b905092959194509250565b801515811461231957600080fd5b6000806040838503121561484757600080fd5b82356148528161472d565b915060208301356147b181614826565b60008060006040848603121561487757600080fd5b83356148828161472d565b9250602084013567ffffffffffffffff8082111561489f57600080fd5b818601915086601f8301126148b357600080fd5b8135818111156148c257600080fd5b8760208285010111156148d457600080fd5b6020830194508093505050509250925092565b6000602082840312156148f957600080fd5b81356145c38161472d565b6000806000806080858703121561491a57600080fd5b84356149258161472d565b935060208501356149358161472d565b925060408501359150606085013561494c81614826565b939692955090935050565b634e487b7160e01b600052604160045260246000fd5b604051601f8201601f1916810167ffffffffffffffff8111828210171561499657614996614957565b604052919050565b600067ffffffffffffffff8211156149b8576149b8614957565b5060051b60200190565b600082601f8301126149d357600080fd5b813560206149e86149e38361499e565b61496d565b82815260059290921b84018101918181019086841115614a0757600080fd5b8286015b84811015614a3057803560038110614a235760008081fd5b8352918301918301614a0b565b509695505050505050565b60008060408385031215614a4e57600080fd5b823567ffffffffffffffff80821115614a6657600080fd5b818501915085601f830112614a7a57600080fd5b81356020614a8a6149e38361499e565b82815260059290921b84018101918181019089841115614aa957600080fd5b948201945b83861015614ad0578535614ac18161472d565b82529482019490820190614aae565b96505086013592505080821115614ae657600080fd5b50614af3858286016149c2565b9150509250929050565b600060208284031215614b0f57600080fd5b5035919050565b634e487b7160e01b600052602160045260246000fd5b60038110614b4a57634e487b7160e01b600052602160045260246000fd5b9052565b602081016116ed8284614b2c565b600060c08284031215614b6e57600080fd5b60405160c0810181811067ffffffffffffffff82111715614b9157614b91614957565b6040529050808235614ba281614826565b81526020830135614bb281614826565b60208201526040830135614bc581614826565b60408201526060830135614bd881614826565b60608201526080830135614beb81614826565b608082015260a0830135614bfe81614826565b60a0919091015292915050565b60008060e08385031215614c1e57600080fd5b8235614c298161472d565b91506136e48460208501614b5c565b600060208284031215614c4a57600080fd5b81356145c381614826565b600060c08284031215614c6757600080fd5b6116ea8383614b5c565b600080600060608486031215614c8657600080fd5b8335614c918161472d565b9250602084013561477281614826565b600060e08201905060018060a01b03841682528251151560208301526020830151151560408301526040830151151560608301526060830151151560808301526080830151151560a083015260a0830151151560c08301529392505050565b60008083601f840112614d1257600080fd5b50813567ffffffffffffffff811115614d2a57600080fd5b6020830191508360208260051b8501011115614d4557600080fd5b9250929050565b60008060008060008060808789031215614d6557600080fd5b8635614d708161472d565b95506020870135614d808161472d565b9450604087013567ffffffffffffffff80821115614d9d57600080fd5b614da98a838b01614d00565b90965094506060890135915080821115614dc257600080fd5b50614dcf89828a01614d00565b979a9699509497509295939492505050565b60008060008060608587031215614df757600080fd5b8435614e028161472d565b93506020850135614e128161472d565b9250604085013567ffffffffffffffff811115614e2e57600080fd5b614e3a87828801614d00565b95989497509550505050565b634e487b7160e01b600052601160045260246000fd5b60008083128015600160ff1b850184121615614e7a57614e7a614e46565b6001600160ff1b0384018313811615614e9557614e95614e46565b50500390565b6000816000190483118215151615614eb557614eb5614e46565b500290565b6020808252818101527f4f776e61626c653a2063616c6c6572206973206e6f7420746865206f776e6572604082015260600190565b60208082526012908201527124b73b30b634b2103634b8bab4b230ba37b960711b604082015260600190565b6001600160a01b039290921682521515602082015260400190565b600060208284031215614f4857600080fd5b5051919050565b60005b83811015614f6a578181015183820152602001614f52565b838111156109fb5750506000910152565b60008151808452614f93816020860160208601614f4f565b601f01601f19169290920160200192915050565b6001600160a01b03848116825283166020820152606060408201819052600090614fd390830184614f7b565b95945050505050565b6001600160a01b039390931683526020830191909152604082015260600190565b600060001982141561501157615011614e46565b5060010190565b6020808252602b908201527f4f776e61626c653a2063616c6c6572206973206e6f7420746865206f776e657260408201526a206f7220666163746f727960a81b606082015260800190565b60008282101561507557615075614e46565b500390565b6001600160a01b0385811682528416602082015260606040820181905281018290526000828460808401376000608084840101526080601f19601f850116830101905095945050505050565b6000816150d5576150d5614e46565b506000190190565b634e487b7160e01b600052603260045260246000fd5b6001600160a01b0383168152604081016145c36020830184614b2c565b60008261512d57634e487b7160e01b600052601260045260246000fd5b500490565b60006020828403121561514457600080fd5b81516145c381614826565b6001600160a01b039384168152919092166020820152604081019190915260600190565b60006020828403121561518557600080fd5b81516145c38161472d565b6001600160a01b03848116825283166020820152606081016146ec6040830184614b2c565b600082198211156151c8576151c8614e46565b500190565b6020808252602e908201527f496e697469616c697a61626c653a20636f6e747261637420697320616c72656160408201526d191e481a5b9a5d1a585b1a5e995960921b606082015260800190565b6020808252602b908201527f496e697469616c697a61626c653a20636f6e7472616374206973206e6f74206960408201526a6e697469616c697a696e6760a81b606082015260800190565b634e487b7160e01b600052603160045260246000fd5b6000825161528e818460208701614f4f565b9190910192915050565b6020815260006116ea6020830184614f7b56fe007534de14ea9193847e0ffc37f145402749f07b3c792a421470da99278f1359a2646970667358221220a28c7cb294ce3e747b3f74f940cc2f20861b93f28bf4122ad7b523c879df2aa164736f6c63430008090033",
  "devdoc": {
    "kind": "dev",
    "methods": {
      "beforeBorrow(address,address,uint256)": {
        "params": {
          "_amount": "loan amount",
          "_user": "borrower",
          "_vault": "address of loan market"
        }
      },
      "beforeDeposit(address,address,uint256)": {
        "params": {
          "_vault": "address of deposit market param  _amount deposit amount"
        }
      },
      "owner()": {
        "details": "Returns the address of the current owner."
      },
      "renounceOwnership()": {
        "details": "Leaves the contract without owner. It will not be possible to call `onlyOwner` functions anymore. Can only be called by the current owner. NOTE: Renouncing ownership will leave the contract without an owner, thereby removing any functionality that is only available to the owner."
      },
      "transferOwnership(address)": {
        "details": "Transfers ownership of the contract to a new account (`newOwner`). Can only be called by the current owner."
      },
      "userPendingValues(address,address,int256,bool)": {
        "params": {
          "_amount": "the amount of deposits or withdrawals",
          "_dp": "discount or premium",
          "_user": "depositors",
          "_vault": "target vault"
        }
      },
      "userTotalPendingValues(address,address,int256,bool)": {
        "params": {
          "_amount": "the amount of deposits or withdrawals",
          "_dp": "discount or premium",
          "_user": "depositors",
          "_vault": "target vault"
        }
      },
      "userTotalValues(address,bool)": {
        "params": {
          "_dp": "discount or premium",
          "_user": "depositors"
        }
      },
      "userValues(address,bool)": {
        "params": {
          "_dp": "discount or premium",
          "_user": "depositors"
        }
      }
    },
    "version": 1
  },
  "userdoc": {
    "kind": "user",
    "methods": {
      "beforeBorrow(address,address,uint256)": {
        "notice": "Risk control check before borrowing"
      },
      "beforeDeposit(address,address,uint256)": {
        "notice": "Risk control check before deposit param _user depositors"
      },
      "isNeedLiquidate(address)": {
        "notice": "determine whether the borrower needs to be liquidated"
      },
      "maxBorrow(address,address)": {
        "notice": "maximum that a user can borrow from a Vault"
      },
      "userPendingValues(address,address,int256,bool)": {
        "notice": "predict total valid vault value after the user operating vault (i.e., Vault of deposit only counts collateral)"
      },
      "userTotalPendingValues(address,address,int256,bool)": {
        "notice": "predict total vault value after the user operating Vault"
      },
      "userTotalValues(address,bool)": {
        "notice": "Get user total Vault value"
      },
      "userValues(address,bool)": {
        "notice": "Get user total valid Vault value (i.e., Vault of deposit only counts collateral)"
      }
    },
    "version": 1
  },
  "storageLayout": {
    "storage": [
      {
        "astId": 188,
        "contract": "contracts/AppController.sol:AppController",
        "label": "_initialized",
        "offset": 0,
        "slot": "0",
        "type": "t_uint8"
      },
      {
        "astId": 191,
        "contract": "contracts/AppController.sol:AppController",
        "label": "_initializing",
        "offset": 1,
        "slot": "0",
        "type": "t_bool"
      },
      {
        "astId": 1640,
        "contract": "contracts/AppController.sol:AppController",
        "label": "__gap",
        "offset": 0,
        "slot": "1",
        "type": "t_array(t_uint256)50_storage"
      },
      {
        "astId": 68,
        "contract": "contracts/AppController.sol:AppController",
        "label": "_owner",
        "offset": 0,
        "slot": "51",
        "type": "t_address"
      },
      {
        "astId": 180,
        "contract": "contracts/AppController.sol:AppController",
        "label": "__gap",
        "offset": 0,
        "slot": "52",
        "type": "t_array(t_uint256)49_storage"
      },
      {
        "astId": 6495,
        "contract": "contracts/AppController.sol:AppController",
        "label": "dyTokens",
        "offset": 0,
        "slot": "101",
        "type": "t_mapping(t_address,t_address)"
      },
      {
        "astId": 6499,
        "contract": "contracts/AppController.sol:AppController",
        "label": "strategies",
        "offset": 0,
        "slot": "102",
        "type": "t_mapping(t_address,t_address)"
      },
      {
        "astId": 6511,
        "contract": "contracts/AppController.sol:AppController",
        "label": "valueConfs",
        "offset": 0,
        "slot": "103",
        "type": "t_mapping(t_address,t_struct(ValueConf)6506_storage)"
      },
      {
        "astId": 6516,
        "contract": "contracts/AppController.sol:AppController",
        "label": "dyTokenVaults",
        "offset": 0,
        "slot": "104",
        "type": "t_mapping(t_address,t_address)"
      },
      {
        "astId": 6521,
        "contract": "contracts/AppController.sol:AppController",
        "label": "userJoinedDepositVaults",
        "offset": 0,
        "slot": "105",
        "type": "t_mapping(t_address,t_struct(AddressSet)5867_storage)"
      },
      {
        "astId": 6526,
        "contract": "contracts/AppController.sol:AppController",
        "label": "userJoinedBorrowVaults",
        "offset": 0,
        "slot": "106",
        "type": "t_mapping(t_address,t_struct(AddressSet)5867_storage)"
      },
      {
        "astId": 6531,
        "contract": "contracts/AppController.sol:AppController",
        "label": "vaultStates",
        "offset": 0,
        "slot": "107",
        "type": "t_mapping(t_address,t_struct(VaultState)17796_storage)"
      },
      {
        "astId": 6533,
        "contract": "contracts/AppController.sol:AppController",
        "label": "liquidateRate",
        "offset": 0,
        "slot": "108",
        "type": "t_uint256"
      },
      {
        "astId": 6535,
        "contract": "contracts/AppController.sol:AppController",
        "label": "collateralRate",
        "offset": 0,
        "slot": "109",
        "type": "t_uint256"
      },
      {
        "astId": 6537,
        "contract": "contracts/AppController.sol:AppController",
        "label": "isOpenLiquidate",
        "offset": 0,
        "slot": "110",
        "type": "t_bool"
      },
      {
        "astId": 6541,
        "contract": "contracts/AppController.sol:AppController",
        "label": "allowedLiquidator",
        "offset": 0,
        "slot": "111",
        "type": "t_mapping(t_address,t_bool)"
      },
      {
        "astId": 6547,
        "contract": "contracts/AppController.sol:AppController",
        "label": "validVaults",
        "offset": 0,
        "slot": "112",
        "type": "t_mapping(t_address,t_enum(ValidVault)17930)"
      },
      {
        "astId": 6555,
        "contract": "contracts/AppController.sol:AppController",
        "label": "validVaultsOfUser",
        "offset": 0,
        "slot": "113",
        "type": "t_mapping(t_address,t_mapping(t_address,t_enum(ValidVault)17930))"
      },
      {
        "astId": 6558,
        "contract": "contracts/AppController.sol:AppController",
        "label": "globalState",
        "offset": 0,
        "slot": "114",
        "type": "t_struct(VaultState)17796_storage"
      },
      {
        "astId": 6560,
        "contract": "contracts/AppController.sol:AppController",
        "label": "vaultFactory",
        "offset": 0,
        "slot": "115",
        "type": "t_address"
      }
    ],
    "types": {
      "t_address": {
        "encoding": "inplace",
        "label": "address",
        "numberOfBytes": "20"
      },
      "t_array(t_bytes32)dyn_storage": {
        "base": "t_bytes32",
        "encoding": "dynamic_array",
        "label": "bytes32[]",
        "numberOfBytes": "32"
      },
      "t_array(t_uint256)49_storage": {
        "base": "t_uint256",
        "encoding": "inplace",
        "label": "uint256[49]",
        "numberOfBytes": "1568"
      },
      "t_array(t_uint256)50_storage": {
        "base": "t_uint256",
        "encoding": "inplace",
        "label": "uint256[50]",
        "numberOfBytes": "1600"
      },
      "t_bool": {
        "encoding": "inplace",
        "label": "bool",
        "numberOfBytes": "1"
      },
      "t_bytes32": {
        "encoding": "inplace",
        "label": "bytes32",
        "numberOfBytes": "32"
      },
      "t_enum(ValidVault)17930": {
        "encoding": "inplace",
        "label": "enum IController.ValidVault",
        "numberOfBytes": "1"
      },
      "t_mapping(t_address,t_address)": {
        "encoding": "mapping",
        "key": "t_address",
        "label": "mapping(address => address)",
        "numberOfBytes": "32",
        "value": "t_address"
      },
      "t_mapping(t_address,t_bool)": {
        "encoding": "mapping",
        "key": "t_address",
        "label": "mapping(address => bool)",
        "numberOfBytes": "32",
        "value": "t_bool"
      },
      "t_mapping(t_address,t_enum(ValidVault)17930)": {
        "encoding": "mapping",
        "key": "t_address",
        "label": "mapping(address => enum IController.ValidVault)",
        "numberOfBytes": "32",
        "value": "t_enum(ValidVault)17930"
      },
      "t_mapping(t_address,t_mapping(t_address,t_enum(ValidVault)17930))": {
        "encoding": "mapping",
        "key": "t_address",
        "label": "mapping(address => mapping(address => enum IController.ValidVault))",
        "numberOfBytes": "32",
        "value": "t_mapping(t_address,t_enum(ValidVault)17930)"
      },
      "t_mapping(t_address,t_struct(AddressSet)5867_storage)": {
        "encoding": "mapping",
        "key": "t_address",
        "label": "mapping(address => struct EnumerableSet.AddressSet)",
        "numberOfBytes": "32",
        "value": "t_struct(AddressSet)5867_storage"
      },
      "t_mapping(t_address,t_struct(ValueConf)6506_storage)": {
        "encoding": "mapping",
        "key": "t_address",
        "label": "mapping(address => struct AppController.ValueConf)",
        "numberOfBytes": "32",
        "value": "t_struct(ValueConf)6506_storage"
      },
      "t_mapping(t_address,t_struct(VaultState)17796_storage)": {
        "encoding": "mapping",
        "key": "t_address",
        "label": "mapping(address => struct IController.VaultState)",
        "numberOfBytes": "32",
        "value": "t_struct(VaultState)17796_storage"
      },
      "t_mapping(t_bytes32,t_uint256)": {
        "encoding": "mapping",
        "key": "t_bytes32",
        "label": "mapping(bytes32 => uint256)",
        "numberOfBytes": "32",
        "value": "t_uint256"
      },
      "t_struct(AddressSet)5867_storage": {
        "encoding": "inplace",
        "label": "struct EnumerableSet.AddressSet",
        "members": [
          {
            "astId": 5866,
            "contract": "contracts/AppController.sol:AppController",
            "label": "_inner",
            "offset": 0,
            "slot": "0",
            "type": "t_struct(Set)5566_storage"
          }
        ],
        "numberOfBytes": "64"
      },
      "t_struct(Set)5566_storage": {
        "encoding": "inplace",
        "label": "struct EnumerableSet.Set",
        "members": [
          {
            "astId": 5561,
            "contract": "contracts/AppController.sol:AppController",
            "label": "_values",
            "offset": 0,
            "slot": "0",
            "type": "t_array(t_bytes32)dyn_storage"
          },
          {
            "astId": 5565,
            "contract": "contracts/AppController.sol:AppController",
            "label": "_indexes",
            "offset": 0,
            "slot": "1",
            "type": "t_mapping(t_bytes32,t_uint256)"
          }
        ],
        "numberOfBytes": "64"
      },
      "t_struct(ValueConf)6506_storage": {
        "encoding": "inplace",
        "label": "struct AppController.ValueConf",
        "members": [
          {
            "astId": 6501,
            "contract": "contracts/AppController.sol:AppController",
            "label": "oracle",
            "offset": 0,
            "slot": "0",
            "type": "t_address"
          },
          {
            "astId": 6503,
            "contract": "contracts/AppController.sol:AppController",
            "label": "dr",
            "offset": 20,
            "slot": "0",
            "type": "t_uint16"
          },
          {
            "astId": 6505,
            "contract": "contracts/AppController.sol:AppController",
            "label": "pr",
            "offset": 22,
            "slot": "0",
            "type": "t_uint16"
          }
        ],
        "numberOfBytes": "32"
      },
      "t_struct(VaultState)17796_storage": {
        "encoding": "inplace",
        "label": "struct IController.VaultState",
        "members": [
          {
            "astId": 17785,
            "contract": "contracts/AppController.sol:AppController",
            "label": "enabled",
            "offset": 0,
            "slot": "0",
            "type": "t_bool"
          },
          {
            "astId": 17787,
            "contract": "contracts/AppController.sol:AppController",
            "label": "enableDeposit",
            "offset": 1,
            "slot": "0",
            "type": "t_bool"
          },
          {
            "astId": 17789,
            "contract": "contracts/AppController.sol:AppController",
            "label": "enableWithdraw",
            "offset": 2,
            "slot": "0",
            "type": "t_bool"
          },
          {
            "astId": 17791,
            "contract": "contracts/AppController.sol:AppController",
            "label": "enableBorrow",
            "offset": 3,
            "slot": "0",
            "type": "t_bool"
          },
          {
            "astId": 17793,
            "contract": "contracts/AppController.sol:AppController",
            "label": "enableRepay",
            "offset": 4,
            "slot": "0",
            "type": "t_bool"
          },
          {
            "astId": 17795,
            "contract": "contracts/AppController.sol:AppController",
            "label": "enableLiquidate",
            "offset": 5,
            "slot": "0",
            "type": "t_bool"
          }
        ],
        "numberOfBytes": "32"
      },
      "t_uint16": {
        "encoding": "inplace",
        "label": "uint16",
        "numberOfBytes": "2"
      },
      "t_uint256": {
        "encoding": "inplace",
        "label": "uint256",
        "numberOfBytes": "32"
      },
      "t_uint8": {
        "encoding": "inplace",
        "label": "uint8",
        "numberOfBytes": "1"
      }
    }
  }
}