{
  "address": "0x48B8dA0AA56519A32E22adF51baEf344Ba440628",
  "abi": [
    {
      "anonymous": false,
      "inputs": [
        {
          "indexed": false,
          "internalType": "address",
          "name": "controller",
          "type": "address"
        }
      ],
      "name": "ControllerChanged",
      "type": "event"
    },
    {
      "anonymous": false,
      "inputs": [
        {
          "indexed": true,
          "internalType": "address",
          "name": "supplyer",
          "type": "address"
        },
        {
          "indexed": false,
          "internalType": "uint256",
          "name": "amount",
          "type": "uint256"
        }
      ],
      "name": "Deposit",
      "type": "event"
    },
    {
      "anonymous": false,
      "inputs": [
        {
          "indexed": false,
          "internalType": "address",
          "name": "farm",
          "type": "address"
        }
      ],
      "name": "FarmChanged",
      "type": "event"
    },
    {
      "anonymous": false,
      "inputs": [
        {
          "indexed": false,
          "internalType": "address",
          "name": "feeconf",
          "type": "address"
        }
      ],
      "name": "FeeConfChanged",
      "type": "event"
    },
    {
      "anonymous": false,
      "inputs": [
        {
          "indexed": false,
          "internalType": "uint8",
          "name": "version",
          "type": "uint8"
        }
      ],
      "name": "Initialized",
      "type": "event"
    },
    {
      "anonymous": false,
      "inputs": [
        {
          "indexed": true,
          "internalType": "address",
          "name": "liquidator",
          "type": "address"
        },
        {
          "indexed": true,
          "internalType": "address",
          "name": "borrower",
          "type": "address"
        },
        {
          "indexed": false,
          "internalType": "uint256",
          "name": "supplies",
          "type": "uint256"
        }
      ],
      "name": "Liquidated",
      "type": "event"
    },
    {
      "anonymous": false,
      "inputs": [
        {
          "indexed": true,
          "internalType": "address",
          "name": "previousOwner",
          "type": "address"
        },
        {
          "indexed": true,
          "internalType": "address",
          "name": "newOwner",
          "type": "address"
        }
      ],
      "name": "OwnershipTransferred",
      "type": "event"
    },
    {
      "anonymous": false,
      "inputs": [
        {
          "indexed": true,
          "internalType": "address",
          "name": "redeemer",
          "type": "address"
        },
        {
          "indexed": false,
          "internalType": "uint256",
          "name": "amount",
          "type": "uint256"
        }
      ],
      "name": "Withdraw",
      "type": "event"
    },
    {
      "inputs": [],
      "name": "controller",
      "outputs": [
        {
          "internalType": "address",
          "name": "",
          "type": "address"
        }
      ],
      "stateMutability": "view",
      "type": "function"
    },
    {
      "inputs": [
        {
          "internalType": "address",
          "name": "dytoken",
          "type": "address"
        },
        {
          "internalType": "uint256",
          "name": "amount",
          "type": "uint256"
        }
      ],
      "name": "deposit",
      "outputs": [],
      "stateMutability": "nonpayable",
      "type": "function"
    },
    {
      "inputs": [
        {
          "internalType": "address",
          "name": "dytoken",
          "type": "address"
        },
        {
          "internalType": "address",
          "name": "to",
          "type": "address"
        },
        {
          "internalType": "uint256",
          "name": "amount",
          "type": "uint256"
        }
      ],
      "name": "depositTo",
      "outputs": [],
      "stateMutability": "nonpayable",
      "type": "function"
    },
    {
      "inputs": [
        {
          "internalType": "address",
          "name": "",
          "type": "address"
        }
      ],
      "name": "deposits",
      "outputs": [
        {
          "internalType": "uint256",
          "name": "",
          "type": "uint256"
        }
      ],
      "stateMutability": "view",
      "type": "function"
    },
    {
      "inputs": [],
      "name": "farm",
      "outputs": [
        {
          "internalType": "contract IVaultFarm",
          "name": "",
          "type": "address"
        }
      ],
      "stateMutability": "view",
      "type": "function"
    },
    {
      "inputs": [],
      "name": "feeConf",
      "outputs": [
        {
          "internalType": "contract IFeeConf",
          "name": "",
          "type": "address"
        }
      ],
      "stateMutability": "view",
      "type": "function"
    },
    {
      "inputs": [
        {
          "internalType": "address",
          "name": "_controller",
          "type": "address"
        },
        {
          "internalType": "address",
          "name": "_feeConf",
          "type": "address"
        },
        {
          "internalType": "address",
          "name": "_underlying",
          "type": "address"
        }
      ],
      "name": "initialize",
      "outputs": [],
      "stateMutability": "nonpayable",
      "type": "function"
    },
    {
      "inputs": [],
      "name": "isDuetVault",
      "outputs": [
        {
          "internalType": "bool",
          "name": "",
          "type": "bool"
        }
      ],
      "stateMutability": "view",
      "type": "function"
    },
    {
      "inputs": [
        {
          "internalType": "address",
          "name": "liquidator",
          "type": "address"
        },
        {
          "internalType": "address",
          "name": "borrower",
          "type": "address"
        },
        {
          "internalType": "bytes",
          "name": "data",
          "type": "bytes"
        }
      ],
      "name": "liquidate",
      "outputs": [],
      "stateMutability": "nonpayable",
      "type": "function"
    },
    {
      "inputs": [],
      "name": "owner",
      "outputs": [
        {
          "internalType": "address",
          "name": "",
          "type": "address"
        }
      ],
      "stateMutability": "view",
      "type": "function"
    },
    {
      "inputs": [
        {
          "internalType": "address",
          "name": "user",
          "type": "address"
        },
        {
          "internalType": "int256",
          "name": "amount",
          "type": "int256"
        }
      ],
      "name": "pendingValue",
      "outputs": [
        {
          "internalType": "uint256",
          "name": "",
          "type": "uint256"
        }
      ],
      "stateMutability": "view",
      "type": "function"
    },
    {
      "inputs": [],
      "name": "renounceOwnership",
      "outputs": [],
      "stateMutability": "nonpayable",
      "type": "function"
    },
    {
      "inputs": [
        {
          "internalType": "address",
          "name": "_controller",
          "type": "address"
        }
      ],
      "name": "setAppController",
      "outputs": [],
      "stateMutability": "nonpayable",
      "type": "function"
    },
    {
      "inputs": [
        {
          "internalType": "address",
          "name": "_feeConf",
          "type": "address"
        }
      ],
      "name": "setFeeConf",
      "outputs": [],
      "stateMutability": "nonpayable",
      "type": "function"
    },
    {
      "inputs": [
        {
          "internalType": "address",
          "name": "_farm",
          "type": "address"
        }
      ],
      "name": "setVaultFarm",
      "outputs": [],
      "stateMutability": "nonpayable",
      "type": "function"
    },
    {
      "inputs": [
        {
          "internalType": "address",
          "name": "dytoken",
          "type": "address"
        },
        {
          "internalType": "uint256",
          "name": "amount",
          "type": "uint256"
        },
        {
          "internalType": "address",
          "name": "user",
          "type": "address"
        }
      ],
      "name": "syncDeposit",
      "outputs": [],
      "stateMutability": "nonpayable",
      "type": "function"
    },
    {
      "inputs": [
        {
          "internalType": "address",
          "name": "newOwner",
          "type": "address"
        }
      ],
      "name": "transferOwnership",
      "outputs": [],
      "stateMutability": "nonpayable",
      "type": "function"
    },
    {
      "inputs": [],
      "name": "underlying",
      "outputs": [
        {
          "internalType": "address",
          "name": "",
          "type": "address"
        }
      ],
      "stateMutability": "view",
      "type": "function"
    },
    {
      "inputs": [
        {
          "internalType": "uint256",
          "name": "_amount",
          "type": "uint256"
        },
        {
          "internalType": "bool",
          "name": "dp",
          "type": "bool"
        }
      ],
      "name": "underlyingAmountValue",
      "outputs": [
        {
          "internalType": "uint256",
          "name": "value",
          "type": "uint256"
        }
      ],
      "stateMutability": "view",
      "type": "function"
    },
    {
      "inputs": [],
      "name": "underlyingToken",
      "outputs": [
        {
          "internalType": "address",
          "name": "",
          "type": "address"
        }
      ],
      "stateMutability": "view",
      "type": "function"
    },
    {
      "inputs": [
        {
          "internalType": "address",
          "name": "user",
          "type": "address"
        },
        {
          "internalType": "bool",
          "name": "dp",
          "type": "bool"
        }
      ],
      "name": "userValue",
      "outputs": [
        {
          "internalType": "uint256",
          "name": "",
          "type": "uint256"
        }
      ],
      "stateMutability": "view",
      "type": "function"
    },
    {
      "inputs": [
        {
          "internalType": "uint256",
          "name": "amount",
          "type": "uint256"
        },
        {
          "internalType": "bool",
          "name": "unpack",
          "type": "bool"
        }
      ],
      "name": "withdraw",
      "outputs": [],
      "stateMutability": "nonpayable",
      "type": "function"
    },
    {
      "inputs": [
        {
          "internalType": "address",
          "name": "to",
          "type": "address"
        },
        {
          "internalType": "uint256",
          "name": "amount",
          "type": "uint256"
        },
        {
          "internalType": "bool",
          "name": "unpack",
          "type": "bool"
        },
        {
          "internalType": "bytes",
          "name": "data",
          "type": "bytes"
        }
      ],
      "name": "withdrawCall",
      "outputs": [],
      "stateMutability": "nonpayable",
      "type": "function"
    },
    {
      "inputs": [
        {
          "internalType": "address",
          "name": "to",
          "type": "address"
        },
        {
          "internalType": "uint256",
          "name": "amount",
          "type": "uint256"
        },
        {
          "internalType": "bool",
          "name": "unpack",
          "type": "bool"
        }
      ],
      "name": "withdrawTo",
      "outputs": [],
      "stateMutability": "nonpayable",
      "type": "function"
    }
  ],
  "transactionHash": "0x0b3f604bda7923fd79c08cff760a1900dc3fc568627477917a460711f4034532",
  "args": [],
  "numDeployments": 1,
  "solcInputHash": "d88de6d8197d74a259ab40038f33299f",
  "bytecode": "0x608060405234801561001057600080fd5b506123b9806100206000396000f3fe608060405234801561001057600080fd5b50600436106101585760003560e01c806374eb83c1116100c3578063c0c53b8b1161007c578063c0c53b8b146102cf578063eb1cc3ba146102e2578063f213159c146102f5578063f2fde38b14610308578063f77c47911461031b578063fc7e286d1461032e57600080fd5b806374eb83c114610263578063877c8cd1146102765780638da5cb5b14610289578063a0d9d1d91461029a578063ae318c4d146102ad578063ba58591c146102c057600080fd5b806347e7ef241161011557806347e7ef24146101fc5780635ac28bf91461020f5780636695535c146102225780636f307dc314610235578063715018a61461024857806373e2290c1461025057600080fd5b8063035262b91461015d5780631a6d413e146101725780631db44b8e146101855780632495a599146101ab57806336e9332d146101d657806338d07436146101e9575b600080fd5b61017061016b366004611c5f565b61034e565b005b610170610180366004611cd2565b6103fb565b610198610193366004611cef565b6104c8565b6040519081526020015b60405180910390f35b609c546101be906001600160a01b031681565b6040516001600160a01b0390911681526020016101a2565b609a546101be906001600160a01b031681565b6101706101f7366004611cef565b6106cd565b61017061020a366004611d1f565b6106dd565b61019861021d366004611d1f565b610722565b610170610230366004611cd2565b610792565b6097546101be906001600160a01b031681565b610170610852565b61017061025e366004611d4b565b610888565b610170610271366004611d8d565b610899565b6099546101be906001600160a01b031681565b6033546001600160a01b03166101be565b6101706102a8366004611cd2565b6108a5565b6101986102bb366004611df2565b610968565b604051600181526020016101a2565b6101706102dd366004611e20565b6109b7565b6101706102f0366004611e60565b610b46565b610170610303366004611e97565b610c5c565b610170610316366004611cd2565b610c9d565b6098546101be906001600160a01b031681565b61019861033c366004611cd2565b609b6020526000908152604090205481565b600061035b868686610d38565b905081156103f35760008461037b576097546001600160a01b0316610388565b609c546001600160a01b03165b6040516304dc8c2160e01b81529091506001600160a01b038816906304dc8c21906103bf903390859087908a908a90600401611ed8565b600060405180830381600087803b1580156103d957600080fd5b505af11580156103ed573d6000803e3d6000fd5b50505050505b505050505050565b6033546001600160a01b0316331461042e5760405162461bcd60e51b815260040161042590611f2c565b60405180910390fd5b6001600160a01b0381166104735760405162461bcd60e51b815260206004820152600c60248201526b494e56414c49445f4641524d60a01b6044820152606401610425565b609a80546001600160a01b0319166001600160a01b0383169081179091556040519081527fe8d79c9831b9b25abf1785ab7027993c1cca203c617c418d316776b3c980ec8a906020015b60405180910390a150565b6000826104d7575060006106c7565b60975460405163f755b39d60e01b8152600481018590526000916001600160a01b03169063f755b39d9060240160206040518083038186803b15801561051c57600080fd5b505afa158015610530573d6000803e3d6000fd5b505050506040513d601f19601f820116820180604052508101906105549190611f61565b609854609c546040516306b3632760e21b81526001600160a01b03918216600482015292935060009283929190911690631acd8c9c9060240160606040518083038186803b1580156105a557600080fd5b505afa1580156105b9573d6000803e3d6000fd5b505050506040513d601f19601f820116820180604052508101906105dd9190611f8c565b50609c546040516341976e0960e01b81526001600160a01b03918216600482015292945061ffff919091169250600091908416906341976e099060240160206040518083038186803b15801561063257600080fd5b505afa158015610646573d6000803e3d6000fd5b505050506040513d601f19601f8201168201806040525081019061066a9190611f61565b905085156106a857609d54612710836106838488611fe7565b61068d9190611fe7565b6106979190612006565b6106a19190612006565b94506106c2565b609d546106b58286611fe7565b6106bf9190612006565b94505b505050505b92915050565b6106d8338383610d38565b505050565b6097546001600160a01b0383811691161461070a5760405162461bcd60e51b815260040161042590612028565b610714338261107c565b61071e3382611094565b5050565b6000808212610761576001600160a01b0383166000908152609b602052604090205461075a9061075390849061204f565b60016104c8565b90506106c7565b61075a61076f836000612067565b6001600160a01b0385166000908152609b602052604090205461075391906120a6565b6033546001600160a01b031633146107bc5760405162461bcd60e51b815260040161042590611f2c565b6001600160a01b0381166108045760405162461bcd60e51b815260206004820152600f60248201526e24a72b20a624a22fa322a2a1a7a72360891b6044820152606401610425565b609980546001600160a01b0319166001600160a01b0383169081179091556040519081527f2f848457f88c295370f87d543957f8cfe46e0759b3a528ae233eb79885a2949d906020016104bd565b6033546001600160a01b0316331461087c5760405162461bcd60e51b815260040161042590611f2c565b6108866000611337565b565b610893838383610d38565b50505050565b61089384848484611389565b6033546001600160a01b031633146108cf5760405162461bcd60e51b815260040161042590611f2c565b6001600160a01b03811661091a5760405162461bcd60e51b815260206004820152601260248201527124a72b20a624a22fa1a7a72a2927a62622a960711b6044820152606401610425565b609880546001600160a01b0319166001600160a01b0383169081179091556040519081527f027c3e080ed9215f564a9455a666f7e459b3edc0bb6e02a1bf842fde4d0ccfc1906020016104bd565b6001600160a01b0382166000908152609b602052604081205461098d575060006106c7565b6001600160a01b0383166000908152609b60205260409020546109b090836104c8565b9392505050565b60006109c3600161169d565b905080156109db576000805461ff0019166101001790555b6109e684848461172a565b816001600160a01b0316636f307dc36040518163ffffffff1660e01b815260040160206040518083038186803b158015610a1f57600080fd5b505afa158015610a33573d6000803e3d6000fd5b505050506040513d601f19601f82011682018060405250810190610a5791906120bd565b609c80546001600160a01b0319166001600160a01b039290921691821790556040805163313ce56760e01b815290516000929163313ce567916004808301926020929190829003018186803b158015610aaf57600080fd5b505afa158015610ac3573d6000803e3d6000fd5b505050506040513d601f19601f82011682018060405250810190610ae791906120da565b60ff169050610af781600a6121e1565b609d55508015610893576000805461ff0019169055604051600181527f7f26b83ff96e1f2b6a682f133852f6798a09c465da95921460cefb38474024989060200160405180910390a150505050565b60985460405163083d576560e41b81526001600160a01b03858116600483015260009216906383d576509060240160206040518083038186803b158015610b8c57600080fd5b505afa158015610ba0573d6000803e3d6000fd5b505050506040513d601f19601f82011682018060405250810190610bc491906120bd565b6097549091506001600160a01b031633148015610bee57506097546001600160a01b038581169116145b610c0a5760405162461bcd60e51b815260040161042590612028565b6001600160a01b0381163014610c525760405162461bcd60e51b815260206004820152600d60248201526c0ac82aa98a8beaa9c9a82a8869609b1b6044820152606401610425565b6108938284611094565b6097546001600160a01b03848116911614610c895760405162461bcd60e51b815260040161042590612028565b610c93338261107c565b6106d88282611094565b6033546001600160a01b03163314610cc75760405162461bcd60e51b815260040161042590611f2c565b6001600160a01b038116610d2c5760405162461bcd60e51b815260206004820152602660248201527f4f776e61626c653a206e6577206f776e657220697320746865207a65726f206160448201526564647265737360d01b6064820152608401610425565b610d3581611337565b50565b600060026065541415610d5d5760405162461bcd60e51b8152600401610425906121ed565b6002606555336000818152609b6020526040902054841115610db85760405162461bcd60e51b8152602060048201526014602482015273125394d551919250d251539517d1115413d4d25560621b6044820152606401610425565b60985460405163015304d160e21b81526001600160a01b038381166004830152306024830152604482018790529091169063054c13449060640160006040518083038186803b158015610e0a57600080fd5b505afa158015610e1e573d6000803e3d6000fd5b505050506001600160a01b0381166000908152609b602052604081208054869290610e4a9084906120a6565b90915550506040518481526001600160a01b038216907f884edad9ce6fa2440d8a54cc123490eb96d2768479d49ff9c7366125a94243649060200160405180910390a2610e9681611771565b609a546001600160a01b031615610f1857609a5460975460405163a66bd52160e01b81526001600160a01b03848116600483015260248201889052918216604482015291169063a66bd52190606401600060405180830381600087803b158015610eff57600080fd5b505af1158015610f13573d6000803e3d6000fd5b505050505b609954604051636dd5b69d60e01b81526b77697468647261775f66656560a01b600482015260009182916001600160a01b0390911690636dd5b69d90602401604080518083038186803b158015610f6e57600080fd5b505afa158015610f82573d6000803e3d6000fd5b505050506040513d601f19601f82011682018060405250810190610fa69190612224565b87955090925090508015610fe9576000612710610fc38389611fe7565b610fcd9190612006565b9050610fd981886120a6565b9450610fe783826000611830565b505b84156110615760975460405163ead5d35960e01b81526001600160a01b03898116600483015260248201879052600160448301529091169063ead5d35990606401600060405180830381600087803b15801561104457600080fd5b505af1158015611058573d6000803e3d6000fd5b5050505061106d565b61106d87856000611830565b50506001606555509392505050565b60975461071e906001600160a01b03168330846118a6565b600260655414156110b75760405162461bcd60e51b8152600401610425906121ed565b6002606555806110fc5760405162461bcd60e51b815260206004820152601060248201526f4445504f534954455f49535f5a45524f60801b6044820152606401610425565b6098546040516309ba9b4760e01b81526001600160a01b03848116600483015230602483015260448201849052909116906309ba9b479060640160006040518083038186803b15801561114e57600080fd5b505afa158015611162573d6000803e3d6000fd5b5050609954604051636dd5b69d60e01b81526a6465706f7369745f66656560a81b6004820152600093508392506001600160a01b0390911690636dd5b69d90602401604080518083038186803b1580156111bb57600080fd5b505afa1580156111cf573d6000803e3d6000fd5b505050506040513d601f19601f820116820180604052508101906111f39190612224565b909250905082811561123457600061271061120e8487611fe7565b6112189190612006565b905061122481866120a6565b915061123284826000611830565b505b6001600160a01b0385166000908152609b60205260408120805483929061125c90849061204f565b90915550506040518181526001600160a01b038616907fe1fffcc4923d04b559f4d29a8bfc6cda04eb5b0d3c460751c2402c5c5cc9109c9060200160405180910390a26112a885611771565b609a546001600160a01b03161561132b57609a5460975460405163758e61dd60e11b81526001600160a01b03888116600483015260248201859052918216604482015291169063eb1cc3ba906064015b600060405180830381600087803b15801561131257600080fd5b505af1158015611326573d6000803e3d6000fd5b505050505b50506001606555505050565b603380546001600160a01b038381166001600160a01b0319831681179093556040519116919082907f8be0079c531659141344cd1fd0a4f28419497f9722a3daafe3b4186f6b6457e090600090a35050565b600260655414156113ac5760405162461bcd60e51b8152600401610425906121ed565b60026065556098546001600160a01b0316331461140b5760405162461bcd60e51b815260206004820152601860248201527f4c49515549444154455f494e56414c49445f43414c4c455200000000000000006044820152606401610425565b826001600160a01b0316846001600160a01b0316141561146d5760405162461bcd60e51b815260206004820152601a60248201527f4c49515549444154455f44495341424c455f594f555253454c460000000000006044820152606401610425565b6001600160a01b0383166000908152609b602052604090205480156115ec57609954604051636dd5b69d60e01b8152666c69715f66656560c81b6004820152829160009182916001600160a01b031690636dd5b69d90602401604080518083038186803b1580156114dd57600080fd5b505afa1580156114f1573d6000803e3d6000fd5b505050506040513d601f19601f820116820180604052508101906115159190612224565b9150915060008111801561153157506001600160a01b03821615155b1561156b5760006127106115458387611fe7565b61154f9190612006565b905061155b81856120a6565b935061156983826001611830565b505b61157788846001611830565b84156115e857609754604051631d20dce760e01b81526001600160a01b03808b1692631d20dce7926115b5928c92169088908c908c90600401611ed8565b600060405180830381600087803b1580156115cf57600080fd5b505af11580156115e3573d6000803e3d6000fd5b505050505b5050505b6001600160a01b038085166000818152609b6020526040808220919091555190918716907fde0aa27286f5cb3a4ed853dc4823ead62d63e92cdf13de09d6aece56970721a49061163f9085815260200190565b60405180910390a361165084611771565b609a546001600160a01b03161561132b57609a546097546040516322211d1160e21b81526001600160a01b03878116600483015291821660248201529116906388847444906044016112f8565b60008054610100900460ff16156116e4578160ff1660011480156116c05750303b155b6116dc5760405162461bcd60e51b815260040161042590612252565b506000919050565b60005460ff80841691161061170b5760405162461bcd60e51b815260040161042590612252565b506000805460ff191660ff92909216919091179055600190565b919050565b611732611911565b609880546001600160a01b039485166001600160a01b031991821617909155609980549385169382169390931790925560978054919093169116179055565b6001600160a01b0381166000908152609b6020526040902054600190156117f65760985460405163c4c0048760e01b81526001600160a01b03848116600483015283151560248301529091169063c4c00487906044015b600060405180830381600087803b1580156117e257600080fd5b505af11580156103f3573d6000803e3d6000fd5b6098546040516379bf27b160e01b81526001600160a01b0384811660048301528315156024830152909116906379bf27b1906044016117c8565b6001600160a01b03831630141561184657505050565b6001600160a01b03831661188f5760405162461bcd60e51b815260206004820152601060248201526f7265636569707420697320656d70747960801b6044820152606401610425565b6097546106d8906001600160a01b03168484611940565b6040516001600160a01b03808516602483015283166044820152606481018290526108939085906323b872dd60e01b906084015b60408051601f198184030181529190526020810180516001600160e01b03166001600160e01b031990931692909217909152611970565b600054610100900460ff166119385760405162461bcd60e51b8152600401610425906122a0565b610886611a42565b6040516001600160a01b0383166024820152604481018290526106d890849063a9059cbb60e01b906064016118da565b60006119c5826040518060400160405280602081526020017f5361666545524332303a206c6f772d6c6576656c2063616c6c206661696c6564815250856001600160a01b0316611a729092919063ffffffff16565b8051909150156106d857808060200190518101906119e391906122eb565b6106d85760405162461bcd60e51b815260206004820152602a60248201527f5361666545524332303a204552433230206f7065726174696f6e20646964206e6044820152691bdd081cdd58d8d9595960b21b6064820152608401610425565b600054610100900460ff16611a695760405162461bcd60e51b8152600401610425906122a0565b61088633611337565b6060611a818484600085611a89565b949350505050565b606082471015611aea5760405162461bcd60e51b815260206004820152602660248201527f416464726573733a20696e73756666696369656e742062616c616e636520666f6044820152651c8818d85b1b60d21b6064820152608401610425565b6001600160a01b0385163b611b415760405162461bcd60e51b815260206004820152601d60248201527f416464726573733a2063616c6c20746f206e6f6e2d636f6e74726163740000006044820152606401610425565b600080866001600160a01b03168587604051611b5d9190612334565b60006040518083038185875af1925050503d8060008114611b9a576040519150601f19603f3d011682016040523d82523d6000602084013e611b9f565b606091505b5091509150611baf828286611bba565b979650505050505050565b60608315611bc95750816109b0565b825115611bd95782518084602001fd5b8160405162461bcd60e51b81526004016104259190612350565b6001600160a01b0381168114610d3557600080fd5b8015158114610d3557600080fd5b60008083601f840112611c2857600080fd5b50813567ffffffffffffffff811115611c4057600080fd5b602083019150836020828501011115611c5857600080fd5b9250929050565b600080600080600060808688031215611c7757600080fd5b8535611c8281611bf3565b9450602086013593506040860135611c9981611c08565b9250606086013567ffffffffffffffff811115611cb557600080fd5b611cc188828901611c16565b969995985093965092949392505050565b600060208284031215611ce457600080fd5b81356109b081611bf3565b60008060408385031215611d0257600080fd5b823591506020830135611d1481611c08565b809150509250929050565b60008060408385031215611d3257600080fd5b8235611d3d81611bf3565b946020939093013593505050565b600080600060608486031215611d6057600080fd5b8335611d6b81611bf3565b9250602084013591506040840135611d8281611c08565b809150509250925092565b60008060008060608587031215611da357600080fd5b8435611dae81611bf3565b93506020850135611dbe81611bf3565b9250604085013567ffffffffffffffff811115611dda57600080fd5b611de687828801611c16565b95989497509550505050565b60008060408385031215611e0557600080fd5b8235611e1081611bf3565b91506020830135611d1481611c08565b600080600060608486031215611e3557600080fd5b8335611e4081611bf3565b92506020840135611e5081611bf3565b91506040840135611d8281611bf3565b600080600060608486031215611e7557600080fd5b8335611e8081611bf3565b9250602084013591506040840135611d8281611bf3565b600080600060608486031215611eac57600080fd5b8335611eb781611bf3565b92506020840135611ec781611bf3565b929592945050506040919091013590565b6001600160a01b038681168252851660208201526040810184905260806060820181905281018290526000828460a0840137600060a0848401015260a0601f19601f85011683010190509695505050505050565b6020808252818101527f4f776e61626c653a2063616c6c6572206973206e6f7420746865206f776e6572604082015260600190565b600060208284031215611f7357600080fd5b5051919050565b805161ffff8116811461172557600080fd5b600080600060608486031215611fa157600080fd5b8351611fac81611bf3565b9250611fba60208501611f7a565b9150611fc860408501611f7a565b90509250925092565b634e487b7160e01b600052601160045260246000fd5b600081600019048311821515161561200157612001611fd1565b500290565b60008261202357634e487b7160e01b600052601260045260246000fd5b500490565b6020808252600d908201526c0a89e968a9cbeaa9c9a82a8869609b1b604082015260600190565b6000821982111561206257612062611fd1565b500190565b60008083128015600160ff1b85018412161561208557612085611fd1565b6001600160ff1b03840183138116156120a0576120a0611fd1565b50500390565b6000828210156120b8576120b8611fd1565b500390565b6000602082840312156120cf57600080fd5b81516109b081611bf3565b6000602082840312156120ec57600080fd5b815160ff811681146109b057600080fd5b600181815b8085111561213857816000190482111561211e5761211e611fd1565b8085161561212b57918102915b93841c9390800290612102565b509250929050565b60008261214f575060016106c7565b8161215c575060006106c7565b8160018114612172576002811461217c57612198565b60019150506106c7565b60ff84111561218d5761218d611fd1565b50506001821b6106c7565b5060208310610133831016604e8410600b84101617156121bb575081810a6106c7565b6121c583836120fd565b80600019048211156121d9576121d9611fd1565b029392505050565b60006109b08383612140565b6020808252601f908201527f5265656e7472616e637947756172643a207265656e7472616e742063616c6c00604082015260600190565b6000806040838503121561223757600080fd5b825161224281611bf3565b6020939093015192949293505050565b6020808252602e908201527f496e697469616c697a61626c653a20636f6e747261637420697320616c72656160408201526d191e481a5b9a5d1a585b1a5e995960921b606082015260800190565b6020808252602b908201527f496e697469616c697a61626c653a20636f6e7472616374206973206e6f74206960408201526a6e697469616c697a696e6760a81b606082015260800190565b6000602082840312156122fd57600080fd5b81516109b081611c08565b60005b8381101561232357818101518382015260200161230b565b838111156108935750506000910152565b60008251612346818460208701612308565b9190910192915050565b602081526000825180602084015261236f816040850160208701612308565b601f01601f1916919091016040019291505056fea2646970667358221220f153447f3a70670e3b26faa58de31b7fc9df5fa82ced518f451b085f2fe8779964736f6c63430008090033",
  "devdoc": {
    "kind": "dev",
    "methods": {
      "owner()": {
        "details": "Returns the address of the current owner."
      },
      "renounceOwnership()": {
        "details": "Leaves the contract without owner. It will not be possible to call `onlyOwner` functions anymore. Can only be called by the current owner. NOTE: Renouncing ownership will leave the contract without an owner, thereby removing any functionality that is only available to the owner."
      },
      "transferOwnership(address)": {
        "details": "Transfers ownership of the contract to a new account (`newOwner`). Can only be called by the current owner."
      },
      "userValue(address,bool)": {
        "params": {
          "dp": "Discount  Premium"
        }
      }
    },
    "version": 1
  },
  "userdoc": {
    "events": {
      "Deposit(address,uint256)": {
        "notice": ""
      },
      "Liquidated(address,address,uint256)": {
        "notice": ""
      },
      "Withdraw(address,uint256)": {
        "notice": ""
      }
    },
    "kind": "user",
    "methods": {
      "userValue(address,bool)": {
        "notice": " Vault "
      }
    },
    "version": 1
  },
  "storageLayout": {
    "storage": [
      {
        "astId": 188,
        "contract": "contracts/vault/SingleFarmingVault.sol:SingleFarmingVault",
        "label": "_initialized",
        "offset": 0,
        "slot": "0",
        "type": "t_uint8"
      },
      {
        "astId": 191,
        "contract": "contracts/vault/SingleFarmingVault.sol:SingleFarmingVault",
        "label": "_initializing",
        "offset": 1,
        "slot": "0",
        "type": "t_bool"
      },
      {
        "astId": 1640,
        "contract": "contracts/vault/SingleFarmingVault.sol:SingleFarmingVault",
        "label": "__gap",
        "offset": 0,
        "slot": "1",
        "type": "t_array(t_uint256)50_storage"
      },
      {
        "astId": 68,
        "contract": "contracts/vault/SingleFarmingVault.sol:SingleFarmingVault",
        "label": "_owner",
        "offset": 0,
        "slot": "51",
        "type": "t_address"
      },
      {
        "astId": 180,
        "contract": "contracts/vault/SingleFarmingVault.sol:SingleFarmingVault",
        "label": "__gap",
        "offset": 0,
        "slot": "52",
        "type": "t_array(t_uint256)49_storage"
      },
      {
        "astId": 337,
        "contract": "contracts/vault/SingleFarmingVault.sol:SingleFarmingVault",
        "label": "_status",
        "offset": 0,
        "slot": "101",
        "type": "t_uint256"
      },
      {
        "astId": 381,
        "contract": "contracts/vault/SingleFarmingVault.sol:SingleFarmingVault",
        "label": "__gap",
        "offset": 0,
        "slot": "102",
        "type": "t_array(t_uint256)49_storage"
      },
      {
        "astId": 26325,
        "contract": "contracts/vault/SingleFarmingVault.sol:SingleFarmingVault",
        "label": "underlying",
        "offset": 0,
        "slot": "151",
        "type": "t_address"
      },
      {
        "astId": 26327,
        "contract": "contracts/vault/SingleFarmingVault.sol:SingleFarmingVault",
        "label": "controller",
        "offset": 0,
        "slot": "152",
        "type": "t_address"
      },
      {
        "astId": 26330,
        "contract": "contracts/vault/SingleFarmingVault.sol:SingleFarmingVault",
        "label": "feeConf",
        "offset": 0,
        "slot": "153",
        "type": "t_contract(IFeeConf)18249"
      },
      {
        "astId": 26333,
        "contract": "contracts/vault/SingleFarmingVault.sol:SingleFarmingVault",
        "label": "farm",
        "offset": 0,
        "slot": "154",
        "type": "t_contract(IVaultFarm)19052"
      },
      {
        "astId": 26337,
        "contract": "contracts/vault/SingleFarmingVault.sol:SingleFarmingVault",
        "label": "deposits",
        "offset": 0,
        "slot": "155",
        "type": "t_mapping(t_address,t_uint256)"
      },
      {
        "astId": 29209,
        "contract": "contracts/vault/SingleFarmingVault.sol:SingleFarmingVault",
        "label": "underlyingToken",
        "offset": 0,
        "slot": "156",
        "type": "t_address"
      },
      {
        "astId": 29211,
        "contract": "contracts/vault/SingleFarmingVault.sol:SingleFarmingVault",
        "label": "underlyingScale",
        "offset": 0,
        "slot": "157",
        "type": "t_uint256"
      }
    ],
    "types": {
      "t_address": {
        "encoding": "inplace",
        "label": "address",
        "numberOfBytes": "20"
      },
      "t_array(t_uint256)49_storage": {
        "base": "t_uint256",
        "encoding": "inplace",
        "label": "uint256[49]",
        "numberOfBytes": "1568"
      },
      "t_array(t_uint256)50_storage": {
        "base": "t_uint256",
        "encoding": "inplace",
        "label": "uint256[50]",
        "numberOfBytes": "1600"
      },
      "t_bool": {
        "encoding": "inplace",
        "label": "bool",
        "numberOfBytes": "1"
      },
      "t_contract(IFeeConf)18249": {
        "encoding": "inplace",
        "label": "contract IFeeConf",
        "numberOfBytes": "20"
      },
      "t_contract(IVaultFarm)19052": {
        "encoding": "inplace",
        "label": "contract IVaultFarm",
        "numberOfBytes": "20"
      },
      "t_mapping(t_address,t_uint256)": {
        "encoding": "mapping",
        "key": "t_address",
        "label": "mapping(address => uint256)",
        "numberOfBytes": "32",
        "value": "t_uint256"
      },
      "t_uint256": {
        "encoding": "inplace",
        "label": "uint256",
        "numberOfBytes": "32"
      },
      "t_uint8": {
        "encoding": "inplace",
        "label": "uint8",
        "numberOfBytes": "1"
      }
    }
  }
}