{
  "address": "0xB6EF9CfCC2Fa947D1404Ef786C74dB78f280d979",
  "abi": [
    {
      "inputs": [
        {
          "internalType": "address",
          "name": "token",
          "type": "address"
        }
      ],
      "name": "getPrice",
      "outputs": [
        {
          "internalType": "uint256",
          "name": "",
          "type": "uint256"
        }
      ],
      "stateMutability": "view",
      "type": "function"
    }
  ],
  "transactionHash": "0x382ed44ce0398927b3d357edb8e6645143c7413d1638c33e983ffba96c39bbaa",
  "args": [],
  "numDeployments": 1,
  "solcInputHash": "c8ea625892340a298631395964c900fc",
  "bytecode": "0x608060405234801561001057600080fd5b5060b48061001f6000396000f3fe6080604052348015600f57600080fd5b506004361060285760003560e01c806341976e0914602d575b600080fd5b603e60383660046050565b50600090565b60405190815260200160405180910390f35b600060208284031215606157600080fd5b81356001600160a01b0381168114607757600080fd5b939250505056fea2646970667358221220babb0aec13637f9169e73d3883cdba7c4d1a54c95a5e89983d1e5322c572b1ad64736f6c63430008090033",
  "devdoc": {
    "kind": "dev",
    "methods": {},
    "version": 1
  },
  "userdoc": {
    "kind": "user",
    "methods": {},
    "version": 1
  },
  "storageLayout": {
    "storage": [],
    "types": null
  }
}