{
  "address": "0x765675852C05d358B6c5B9EdF30Da8b36EBD9B66",
  "abi": [
    {
      "anonymous": false,
      "inputs": [
        {
          "indexed": true,
          "internalType": "address",
          "name": "user",
          "type": "address"
        },
        {
          "indexed": true,
          "internalType": "address",
          "name": "newAdmin",
          "type": "address"
        }
      ],
      "name": "AdminUpdated",
      "type": "event"
    },
    {
      "anonymous": false,
      "inputs": [
        {
          "indexed": false,
          "internalType": "uint8",
          "name": "version",
          "type": "uint8"
        }
      ],
      "name": "Initialized",
      "type": "event"
    },
    {
      "anonymous": false,
      "inputs": [
        {
          "indexed": false,
          "internalType": "address",
          "name": "user",
          "type": "address"
        },
        {
          "indexed": false,
          "internalType": "address",
          "name": "token",
          "type": "address"
        },
        {
          "indexed": false,
          "internalType": "uint256",
          "name": "amount",
          "type": "uint256"
        }
      ],
      "name": "Retrieve",
      "type": "event"
    },
    {
      "inputs": [],
      "name": "admin",
      "outputs": [
        {
          "internalType": "address",
          "name": "",
          "type": "address"
        }
      ],
      "stateMutability": "view",
      "type": "function"
    },
    {
      "inputs": [],
      "name": "endingAt",
      "outputs": [
        {
          "internalType": "uint256",
          "name": "",
          "type": "uint256"
        }
      ],
      "stateMutability": "view",
      "type": "function"
    },
    {
      "inputs": [
        {
          "internalType": "address",
          "name": "admin_",
          "type": "address"
        },
        {
          "internalType": "uint256",
          "name": "endingAt_",
          "type": "uint256"
        }
      ],
      "name": "initialize",
      "outputs": [],
      "stateMutability": "nonpayable",
      "type": "function"
    },
    {
      "inputs": [
        {
          "internalType": "address",
          "name": "",
          "type": "address"
        }
      ],
      "name": "remainTokenMap",
      "outputs": [
        {
          "internalType": "uint256",
          "name": "",
          "type": "uint256"
        }
      ],
      "stateMutability": "view",
      "type": "function"
    },
    {
      "inputs": [
        {
          "internalType": "address[]",
          "name": "tokens",
          "type": "address[]"
        }
      ],
      "name": "retrievables",
      "outputs": [
        {
          "internalType": "uint256[]",
          "name": "",
          "type": "uint256[]"
        }
      ],
      "stateMutability": "view",
      "type": "function"
    },
    {
      "inputs": [
        {
          "internalType": "address[]",
          "name": "tokens",
          "type": "address[]"
        }
      ],
      "name": "retrieveTokens",
      "outputs": [],
      "stateMutability": "nonpayable",
      "type": "function"
    },
    {
      "inputs": [
        {
          "internalType": "address[]",
          "name": "tokens",
          "type": "address[]"
        }
      ],
      "name": "retrieved",
      "outputs": [
        {
          "internalType": "uint256[]",
          "name": "",
          "type": "uint256[]"
        }
      ],
      "stateMutability": "view",
      "type": "function"
    },
    {
      "inputs": [
        {
          "internalType": "address",
          "name": "newAdmin",
          "type": "address"
        }
      ],
      "name": "setAdmin",
      "outputs": [],
      "stateMutability": "nonpayable",
      "type": "function"
    },
    {
      "inputs": [
        {
          "internalType": "uint256",
          "name": "endingAt_",
          "type": "uint256"
        }
      ],
      "name": "setEndingAt",
      "outputs": [],
      "stateMutability": "nonpayable",
      "type": "function"
    },
    {
      "inputs": [
        {
          "components": [
            {
              "internalType": "address",
              "name": "user",
              "type": "address"
            },
            {
              "internalType": "address",
              "name": "token",
              "type": "address"
            },
            {
              "internalType": "uint256",
              "name": "amount",
              "type": "uint256"
            }
          ],
          "internalType": "struct AccidentHandler20220715V3.Record[]",
          "name": "records_",
          "type": "tuple[]"
        }
      ],
      "name": "setRecords",
      "outputs": [],
      "stateMutability": "nonpayable",
      "type": "function"
    },
    {
      "inputs": [
        {
          "internalType": "contract IERC20Upgradeable[]",
          "name": "tokens_",
          "type": "address[]"
        }
      ],
      "name": "transferTokens",
      "outputs": [],
      "stateMutability": "nonpayable",
      "type": "function"
    },
    {
      "inputs": [
        {
          "internalType": "address",
          "name": "",
          "type": "address"
        },
        {
          "internalType": "address",
          "name": "",
          "type": "address"
        }
      ],
      "name": "userRetrievableTokenMap",
      "outputs": [
        {
          "internalType": "uint256",
          "name": "",
          "type": "uint256"
        }
      ],
      "stateMutability": "view",
      "type": "function"
    },
    {
      "inputs": [
        {
          "internalType": "address",
          "name": "",
          "type": "address"
        },
        {
          "internalType": "address",
          "name": "",
          "type": "address"
        }
      ],
      "name": "userRetrievedTokenMap",
      "outputs": [
        {
          "internalType": "uint256",
          "name": "",
          "type": "uint256"
        }
      ],
      "stateMutability": "view",
      "type": "function"
    }
  ],
  "transactionHash": "0xa2b350650a4a14ed89f0a3ce8995e52b19d9f04e13a23b46bcf4102a2c5fa3b9",
  "args": [],
  "numDeployments": 1,
  "solcInputHash": "123cc147802b234c976c6c4db54070fc",
  "bytecode": "0x608060405234801561001057600080fd5b506113b9806100206000396000f3fe608060405234801561001057600080fd5b50600436106100cf5760003560e01c80639a22d5a61161008c578063cd6dc68711610066578063cd6dc687146101c7578063e797e9ef146101da578063f1a0d18b146101ed578063f851a4401461020d57600080fd5b80639a22d5a614610198578063a4d5b6f3146101ab578063c23b4988146101be57600080fd5b80632d915022146100d457806336463706146101125780635ab2fd3214610132578063704b6c021461014757806376de352d1461015a5780637fa3b3da1461016d575b600080fd5b6100ff6100e2366004610fe7565b600260209081526000928352604080842090915290825290205481565b6040519081526020015b60405180910390f35b61012561012036600461106c565b61023e565b60405161010991906110ae565b6101456101403660046110f2565b610321565b005b61014561015536600461110b565b6103a5565b61012561016836600461106c565b6103e1565b6100ff61017b366004610fe7565b600160209081526000928352604080842090915290825290205481565b6101456101a6366004611128565b6104bc565b6101456101b936600461106c565b610780565b6100ff60045481565b6101456101d536600461119d565b610888565b6101456101e836600461106c565b61095e565b6100ff6101fb36600461110b565b60036020526000908152604090205481565b600054610226906201000090046001600160a01b031681565b6040516001600160a01b039091168152602001610109565b606060008267ffffffffffffffff81111561025b5761025b6111c9565b604051908082528060200260200182016040528015610284578160200160208202803683370190505b50905060005b8381101561031957336000908152600160205260408120908686848181106102b4576102b46111df565b90506020020160208101906102c9919061110b565b6001600160a01b03166001600160a01b03168152602001908152602001600020548282815181106102fc576102fc6111df565b6020908102919091010152806103118161120b565b91505061028a565b509392505050565b6000546201000090046001600160a01b0316331461035a5760405162461bcd60e51b815260040161035190611226565b60405180910390fd5b600081116103a05760405162461bcd60e51b8152602060048201526013602482015272496e76616c696420656e64696e672074696d6560681b6044820152606401610351565b600455565b6000546201000090046001600160a01b031633146103d55760405162461bcd60e51b815260040161035190611226565b6103de81610bee565b50565b606060008267ffffffffffffffff8111156103fe576103fe6111c9565b604051908082528060200260200182016040528015610427578160200160208202803683370190505b50905060005b838110156103195733600090815260026020526040812090868684818110610457576104576111df565b905060200201602081019061046c919061110b565b6001600160a01b03166001600160a01b031681526020019081526020016000205482828151811061049f5761049f6111df565b6020908102919091010152806104b48161120b565b91505061042d565b6000546201000090046001600160a01b031633146104ec5760405162461bcd60e51b815260040161035190611226565b60005b8181101561077b573683838381811061050a5761050a6111df565b905060600201905060008160400135116105245750610769565b60016000610535602084018461110b565b6001600160a01b03166001600160a01b03168152602001908152602001600020600082602001602081019061056a919061110b565b6001600160a01b031681526020810191909152604001600020541580156105ee57506002600061059d602084018461110b565b6001600160a01b03166001600160a01b0316815260200190815260200160002060008260200160208101906105d2919061110b565b6001600160a01b03168152602081019190915260400160002054155b6105fb602083018361110b565b61060b604084016020850161110b565b6040517f43616e206e6f742073657420747769636520666f72207573657200000000000060208201526bffffffffffffffffffffffff19606093841b8116603a8301526716103a37b5b2b71d60c11b604e8301529190921b166056820152606a01604051602081830303815290604052906106995760405162461bcd60e51b8152600401610351919061127c565b506040810135600160006106b0602085018561110b565b6001600160a01b03166001600160a01b0316815260200190815260200160002060008360200160208101906106e5919061110b565b6001600160a01b03166001600160a01b03168152602001908152602001600020600082825461071491906112af565b909155505060408101803590600390600090610733906020860161110b565b6001600160a01b03166001600160a01b03168152602001908152602001600020600082825461076291906112af565b9091555050505b806107738161120b565b9150506104ef565b505050565b6000546201000090046001600160a01b031633146107b05760405162461bcd60e51b815260040161035190611226565b60005b8181101561077b5760008383838181106107cf576107cf6111df565b90506020020160208101906107e4919061110b565b6040516370a0823160e01b81523060048201529091506108759033906001600160a01b038416906370a082319060240160206040518083038186803b15801561082c57600080fd5b505afa158015610840573d6000803e3d6000fd5b505050506040513d601f19601f8201168201806040525081019061086491906112c7565b6001600160a01b0384169190610ca3565b50806108808161120b565b9150506107b3565b60006108946001610cf5565b905080156108ac576000805461ff0019166101001790555b6001600160a01b0383166109025760405162461bcd60e51b815260206004820152601f60248201527f43616e2774207365742061646d696e20746f207a65726f2061646472657373006044820152606401610351565b61090b83610bee565b61091482610321565b801561077b576000805461ff0019169055604051600181527f7f26b83ff96e1f2b6a682f133852f6798a09c465da95921460cefb38474024989060200160405180910390a1505050565b426004541161099f5760405162461bcd60e51b815260206004820152600d60248201526c4f7574206f662077696e646f7760981b6044820152606401610351565b60005b8181101561077b5760008383838181106109be576109be6111df565b90506020020160208101906109d3919061110b565b33600090815260016020526040812091925090818686868181106109f9576109f96111df565b9050602002016020810190610a0e919061110b565b6001600160a01b0316815260208101919091526040016000205490508015610bd95733600090815260016020526040812090868686818110610a5257610a526111df565b9050602002016020810190610a67919061110b565b6001600160a01b0316815260208082019290925260409081016000908120819055338152600290925281208291878787818110610aa657610aa66111df565b9050602002016020810190610abb919061110b565b6001600160a01b03166001600160a01b031681526020019081526020016000206000828254610aea91906112af565b9091555081905060036000878787818110610b0757610b076111df565b9050602002016020810190610b1c919061110b565b6001600160a01b03166001600160a01b031681526020019081526020016000206000828254610b4b91906112e0565b90915550610b6590506001600160a01b0383163383610ca3565b7f8bd0db04d7d748ae70a6a244675345c05f70e540f344927714da92f35b2418ce33868686818110610b9957610b996111df565b9050602002016020810190610bae919061110b565b604080516001600160a01b039384168152929091166020830152810183905260600160405180910390a15b50508080610be69061120b565b9150506109a2565b6001600160a01b038116610c4e5760405162461bcd60e51b815260206004820152602160248201527f43616e206e6f74207365742061646d696e20746f207a65726f206164647265736044820152607360f81b6064820152608401610351565b6000805462010000600160b01b031916620100006001600160a01b038416908102919091178255604051909133917f101b8081ff3b56bbf45deb824d86a3b0fd38b7e3dd42421105cf8abe9106db0b9190a350565b604080516001600160a01b038416602482015260448082018490528251808303909101815260649091019091526020810180516001600160e01b031663a9059cbb60e01b17905261077b908490610d7d565b60008054610100900460ff1615610d3c578160ff166001148015610d185750303b155b610d345760405162461bcd60e51b8152600401610351906112f7565b506000919050565b60005460ff808416911610610d635760405162461bcd60e51b8152600401610351906112f7565b506000805460ff191660ff92909216919091179055600190565b6000610dd2826040518060400160405280602081526020017f5361666545524332303a206c6f772d6c6576656c2063616c6c206661696c6564815250856001600160a01b0316610e4f9092919063ffffffff16565b80519091501561077b5780806020019051810190610df09190611345565b61077b5760405162461bcd60e51b815260206004820152602a60248201527f5361666545524332303a204552433230206f7065726174696f6e20646964206e6044820152691bdd081cdd58d8d9595960b21b6064820152608401610351565b6060610e5e8484600085610e68565b90505b9392505050565b606082471015610ec95760405162461bcd60e51b815260206004820152602660248201527f416464726573733a20696e73756666696369656e742062616c616e636520666f6044820152651c8818d85b1b60d21b6064820152608401610351565b6001600160a01b0385163b610f205760405162461bcd60e51b815260206004820152601d60248201527f416464726573733a2063616c6c20746f206e6f6e2d636f6e74726163740000006044820152606401610351565b600080866001600160a01b03168587604051610f3c9190611367565b60006040518083038185875af1925050503d8060008114610f79576040519150601f19603f3d011682016040523d82523d6000602084013e610f7e565b606091505b5091509150610f8e828286610f99565b979650505050505050565b60608315610fa8575081610e61565b825115610fb85782518084602001fd5b8160405162461bcd60e51b8152600401610351919061127c565b6001600160a01b03811681146103de57600080fd5b60008060408385031215610ffa57600080fd5b823561100581610fd2565b9150602083013561101581610fd2565b809150509250929050565b60008083601f84011261103257600080fd5b50813567ffffffffffffffff81111561104a57600080fd5b6020830191508360208260051b850101111561106557600080fd5b9250929050565b6000806020838503121561107f57600080fd5b823567ffffffffffffffff81111561109657600080fd5b6110a285828601611020565b90969095509350505050565b6020808252825182820181905260009190848201906040850190845b818110156110e6578351835292840192918401916001016110ca565b50909695505050505050565b60006020828403121561110457600080fd5b5035919050565b60006020828403121561111d57600080fd5b8135610e6181610fd2565b6000806020838503121561113b57600080fd5b823567ffffffffffffffff8082111561115357600080fd5b818501915085601f83011261116757600080fd5b81358181111561117657600080fd5b86602060608302850101111561118b57600080fd5b60209290920196919550909350505050565b600080604083850312156111b057600080fd5b82356111bb81610fd2565b946020939093013593505050565b634e487b7160e01b600052604160045260246000fd5b634e487b7160e01b600052603260045260246000fd5b634e487b7160e01b600052601160045260246000fd5b600060001982141561121f5761121f6111f5565b5060010190565b6020808252600c908201526b15539055551213d49256915160a21b604082015260600190565b60005b8381101561126757818101518382015260200161124f565b83811115611276576000848401525b50505050565b602081526000825180602084015261129b81604085016020870161124c565b601f01601f19169190910160400192915050565b600082198211156112c2576112c26111f5565b500190565b6000602082840312156112d957600080fd5b5051919050565b6000828210156112f2576112f26111f5565b500390565b6020808252602e908201527f496e697469616c697a61626c653a20636f6e747261637420697320616c72656160408201526d191e481a5b9a5d1a585b1a5e995960921b606082015260800190565b60006020828403121561135757600080fd5b81518015158114610e6157600080fd5b6000825161137981846020870161124c565b919091019291505056fea26469706673582212201a371d8c26e9835bdf1c431a29f2afec84f77ca22889db0485227d008775e97a64736f6c63430008090033",
  "devdoc": {
    "kind": "dev",
    "methods": {},
    "version": 1
  },
  "userdoc": {
    "kind": "user",
    "methods": {},
    "version": 1
  },
  "storageLayout": {
    "storage": [
      {
        "astId": 6,
        "contract": "contracts/AccidentHandler20220715V3.sol:AccidentHandler20220715V3",
        "label": "_initialized",
        "offset": 0,
        "slot": "0",
        "type": "t_uint8"
      },
      {
        "astId": 9,
        "contract": "contracts/AccidentHandler20220715V3.sol:AccidentHandler20220715V3",
        "label": "_initializing",
        "offset": 1,
        "slot": "0",
        "type": "t_bool"
      },
      {
        "astId": 696,
        "contract": "contracts/AccidentHandler20220715V3.sol:AccidentHandler20220715V3",
        "label": "admin",
        "offset": 2,
        "slot": "0",
        "type": "t_address"
      },
      {
        "astId": 768,
        "contract": "contracts/AccidentHandler20220715V3.sol:AccidentHandler20220715V3",
        "label": "userRetrievableTokenMap",
        "offset": 0,
        "slot": "1",
        "type": "t_mapping(t_address,t_mapping(t_address,t_uint256))"
      },
      {
        "astId": 774,
        "contract": "contracts/AccidentHandler20220715V3.sol:AccidentHandler20220715V3",
        "label": "userRetrievedTokenMap",
        "offset": 0,
        "slot": "2",
        "type": "t_mapping(t_address,t_mapping(t_address,t_uint256))"
      },
      {
        "astId": 778,
        "contract": "contracts/AccidentHandler20220715V3.sol:AccidentHandler20220715V3",
        "label": "remainTokenMap",
        "offset": 0,
        "slot": "3",
        "type": "t_mapping(t_address,t_uint256)"
      },
      {
        "astId": 780,
        "contract": "contracts/AccidentHandler20220715V3.sol:AccidentHandler20220715V3",
        "label": "endingAt",
        "offset": 0,
        "slot": "4",
        "type": "t_uint256"
      }
    ],
    "types": {
      "t_address": {
        "encoding": "inplace",
        "label": "address",
        "numberOfBytes": "20"
      },
      "t_bool": {
        "encoding": "inplace",
        "label": "bool",
        "numberOfBytes": "1"
      },
      "t_mapping(t_address,t_mapping(t_address,t_uint256))": {
        "encoding": "mapping",
        "key": "t_address",
        "label": "mapping(address => mapping(address => uint256))",
        "numberOfBytes": "32",
        "value": "t_mapping(t_address,t_uint256)"
      },
      "t_mapping(t_address,t_uint256)": {
        "encoding": "mapping",
        "key": "t_address",
        "label": "mapping(address => uint256)",
        "numberOfBytes": "32",
        "value": "t_uint256"
      },
      "t_uint256": {
        "encoding": "inplace",
        "label": "uint256",
        "numberOfBytes": "32"
      },
      "t_uint8": {
        "encoding": "inplace",
        "label": "uint8",
        "numberOfBytes": "1"
      }
    }
  }
}