{
  "address": "0xE1fF0aDb1c53cF8737464780D76cE44d82f5e0aC",
  "abi": [
    {
      "inputs": [],
      "stateMutability": "nonpayable",
      "type": "constructor"
    },
    {
      "anonymous": false,
      "inputs": [
        {
          "indexed": true,
          "internalType": "address",
          "name": "user",
          "type": "address"
        },
        {
          "indexed": true,
          "internalType": "address",
          "name": "newAdmin",
          "type": "address"
        }
      ],
      "name": "AdminUpdated",
      "type": "event"
    },
    {
      "anonymous": false,
      "inputs": [
        {
          "indexed": false,
          "internalType": "uint8",
          "name": "version",
          "type": "uint8"
        }
      ],
      "name": "Initialized",
      "type": "event"
    },
    {
      "inputs": [],
      "name": "admin",
      "outputs": [
        {
          "internalType": "address",
          "name": "",
          "type": "address"
        }
      ],
      "stateMutability": "view",
      "type": "function"
    },
    {
      "inputs": [],
      "name": "duetPoolFee",
      "outputs": [
        {
          "internalType": "uint24",
          "name": "",
          "type": "uint24"
        }
      ],
      "stateMutability": "view",
      "type": "function"
    },
    {
      "inputs": [],
      "name": "duetToken",
      "outputs": [
        {
          "internalType": "address",
          "name": "",
          "type": "address"
        }
      ],
      "stateMutability": "view",
      "type": "function"
    },
    {
      "inputs": [
        {
          "internalType": "address",
          "name": "token_",
          "type": "address"
        }
      ],
      "name": "getPrice",
      "outputs": [
        {
          "internalType": "uint256",
          "name": "price",
          "type": "uint256"
        }
      ],
      "stateMutability": "view",
      "type": "function"
    },
    {
      "inputs": [
        {
          "internalType": "contract IUniswapV3Factory",
          "name": "uniswapV3Factory_",
          "type": "address"
        },
        {
          "internalType": "address",
          "name": "usdLikeToken_",
          "type": "address"
        },
        {
          "internalType": "address",
          "name": "duetToken_",
          "type": "address"
        },
        {
          "internalType": "uint24",
          "name": "duetPoolFee_",
          "type": "uint24"
        }
      ],
      "name": "initialize",
      "outputs": [],
      "stateMutability": "nonpayable",
      "type": "function"
    },
    {
      "inputs": [
        {
          "internalType": "address",
          "name": "newAdmin",
          "type": "address"
        }
      ],
      "name": "setAdmin",
      "outputs": [],
      "stateMutability": "nonpayable",
      "type": "function"
    },
    {
      "inputs": [],
      "name": "uniswapV3Factory",
      "outputs": [
        {
          "internalType": "contract IUniswapV3Factory",
          "name": "",
          "type": "address"
        }
      ],
      "stateMutability": "view",
      "type": "function"
    },
    {
      "inputs": [],
      "name": "usdLikeToken",
      "outputs": [
        {
          "internalType": "address",
          "name": "",
          "type": "address"
        }
      ],
      "stateMutability": "view",
      "type": "function"
    }
  ],
  "transactionHash": "0x7127c28b01a9997b2017626b425f5721db2d02f11e96c3006bde83ad23b75045",
  "args": [],
  "numDeployments": 3,
  "solcInputHash": "efd29a4a9e557fdaa196ca7b5bcdc80a",
  "bytecode": "0x608080604052346100c1576000549060ff8260081c1661006f575060ff80821610610034575b604051610e7890816100c78239f35b60ff90811916176000557f7f26b83ff96e1f2b6a682f133852f6798a09c465da95921460cefb3847402498602060405160ff8152a138610025565b62461bcd60e51b815260206004820152602760248201527f496e697469616c697a61626c653a20636f6e747261637420697320696e697469604482015266616c697a696e6760c81b6064820152608490fd5b600080fdfe608060408181526004918236101561001657600080fd5b600092833560e01c9182633daa0ace14610c0e5750816341976e09146103445781635b5491821461031b5781635cdeea08146102f2578163704b6c0214610281578163c4627023146100d157508063ec5cc934146100ab5763f851a4401461007d57600080fd5b346100a757816003193601126100a7579054905160109190911c6001600160a01b03168152602090f35b5080fd5b50346100a757816003193601126100a75760209062ffffff60035460a01c169051908152f35b90503461027d57608036600319011261027d576001600160a01b03813581811690819003610279576024359180831680930361027557604435908116809103610275576064359062ffffff8216820361027157865460ff8160081c161595868097610264575b801561024d575b156101f3575060ff1981166001178855856101e2575b50600354936bffffffffffffffffffffffff60a01b90816001541617600155600254161760025562ffffff60a01b9060a01b169168ffffffffffffffffff60b81b1617176003556101a433610c4e565b6101ac575080f35b60207f7f26b83ff96e1f2b6a682f133852f6798a09c465da95921460cefb38474024989161ff001984541684555160018152a180f35b61ffff191661010117875538610154565b608490602089519162461bcd60e51b8352820152602e60248201527f496e697469616c697a61626c653a20636f6e747261637420697320616c72656160448201526d191e481a5b9a5d1a585b1a5e995960921b6064820152fd5b50303b15801561013e5750600160ff83161461013e565b50600160ff831610610137565b8680fd5b8580fd5b8480fd5b8280fd5b90503461027d57602036600319011261027d5761029c610c33565b835490929060101c6001600160a01b031633036102c057836102bd84610c4e565b80f35b906020606492519162461bcd60e51b8352820152600c60248201526b15539055551213d49256915160a21b6044820152fd5b5050346100a757816003193601126100a75760015490516001600160a01b039091168152602090f35b5050346100a757816003193601126100a75760035490516001600160a01b039091168152602090f35b9190503461027d5760209283600319360112610c0b57610362610c33565b50600354600254600180548551630b4c774160e11b81526001600160a01b039384168882015290831660248083019190915260a085901c62ffffff166044830152949388908290606490829087165afa908115610c01578491610bc7575b50855167ffffffffffffffff906060810182811182821017610bb557878994878d94858e8c968a5260028352818301928a368537610e109a8b61040283610d4d565b528861040d83610d70565b525198899763883bdbfd60e01b8952880192880152518091526044860192918b88915b838310610b89575050505050908380920392165afa918215610b7f578692610a74575b505061046861046182610d70565b5191610d4d565b5160060b9060060b03667fffffffffffff8113667fffffffffffff19821217610a625760060b0560020b9083821215610a5c57600160ff1b8214610a4957818403915b620d89e88311610a2557849083831615610a13576001600160881b036ffffcb933bd6fad37aa2d162d1a5940015b1693600281166109e1575b8981166109af575b6008811661097d575b6010811661094b575b8a8116610919575b8881166108e7575b6080908181166108b4575b6101008116610881575b610200811661084e575b610400811661081b575b61080081166107e8575b61100081166107b5575b6120008116610782575b614000811661074f575b618000811661071c575b6201000081166106e9575b6202000081166106b7575b620400008116610674575b6208000016610638575b5013610614575b81881c9163ffffffff1661060c575060ff835b1681018091116105fa576105c29116610d80565b9368056bc75e2d63100000948581029581870414901517156105ea57505050519060c01c8152f35b634e487b7160e01b825260119052fd5b5050634e487b7160e01b815260118452fd5b60ff906105ae565b90801561062557600019049061059b565b5050634e487b7160e01b82525060128452fd5b90936b048a170391f7dc42444e8fa280820293508115918404141715610662571c91849038610594565b634e487b7160e01b8652601189528686fd5b94909192506d2216e584f5fa1ea926041bedfe98908181029181830414901517156106a557811c938692919061058a565b634e487b7160e01b875260118a528787fd5b94909192506e5d6af8dedb81196699c329225ee604908181029181830414901517156106a55790869291811c9461057f565b94909192506f09aa508b5b7a84e1c677de54f3e99bc9908181029181830414901517156106a55790869291811c94610574565b94909192506f31be135f97d08fd981231505542fcfa6908181029181830414901517156106a55790869291811c94610569565b94909192506f70d869a156d2a1b890bb3df62baf32f7908181029181830414901517156106a55790869291811c9461055f565b94909192506fa9f746462d870fdf8a65dc1f90e061e5908181029181830414901517156106a55790869291811c94610555565b94909192506fd097f3bdfd2022b8845ad8f792aa5825908181029181830414901517156106a55790869291811c9461054b565b94909192506fe7159475a2c29b7443b29c7fa6e889d9908181029181830414901517156106a55790869291811c94610541565b94909192506ff3392b0822b70005940c7a398e4b70f3908181029181830414901517156106a55790869291811c94610537565b94909192506ff987a7253ac413176f2b074cf7815e54908181029181830414901517156106a55790869291811c9461052d565b94909192506ffcbe86c7900a88aedcffc83b479aa3a4908181029181830414901517156106a55790869291811c94610523565b94909192506ffe5dee046a99a2a811c461f1969c3053908181029181830414901517156106a55790869291811c94610519565b939091506fff2ea16466c96a3843ec78b326b52861908181029181830414901517156106625790859160801c9361050e565b939091506fff973b41fa98c081472e6896dfb254c0908181029181830414901517156106625790859160801c93610506565b939091506fffcb9843d60f6159c9db58835c926644908181029181830414901517156106625790859160801c936104fe565b939091506fffe5caca7e10e4e61c3624eaa0941cd0908181029181830414901517156106625790859160801c936104f5565b939091506ffff2e50f5f656932ef12357cf3c7fdcc908181029181830414901517156106625790859160801c936104ec565b939091506ffff97272373d413259a46990580e213a908181029181830414901517156106625790859160801c936104e4565b6001600160881b03600160801b6104d9565b60648883888c8b519362461bcd60e51b8552840152820152601560fa1b6044820152fd5b5050634e487b7160e01b82525060118452fd5b816104ab565b634e487b7160e01b8552601188528585fd5b9091503d8087843e610a868184610cfd565b8201908883830312610271578251818111610b5a5783019282601f85011215610b5a57835193610ab585610d35565b94610ac28c519687610cfd565b8086528d8087019160051b83010191858311610b7b578e01905b828210610b5e575050508b810151918211610b5a570181601f82011215610271578051908b80610b0b84610d35565b610b178d519182610cfd565b848152019260051b820101928311610b5a578b01905b828210610b3e575050503880610453565b81518781168103610b56578152908b01908b01610b2d565b8880fd5b8780fd5b81518060060b8103610b77578152908e01908e01610adc565b8b80fd5b8a80fd5b88513d88823e3d90fd5b93849397995080985063ffffffff91959296505116815201940191019289918f9387958b8e9896610430565b634e487b7160e01b875260418a528787fd5b90508781813d8311610bfa575b610bde8183610cfd565b81010312610bf657518281168103610bf657386103c0565b8380fd5b503d610bd4565b86513d86823e3d90fd5b80fd5b8490346100a757816003193601126100a7576002546001600160a01b03168152602090f35b600435906001600160a01b0382168203610c4957565b600080fd5b6001600160a01b038116908115610cae576000805462010000600160b01b03191660109290921b62010000600160b01b031691909117815533907f101b8081ff3b56bbf45deb824d86a3b0fd38b7e3dd42421105cf8abe9106db0b9080a3565b60405162461bcd60e51b815260206004820152602160248201527f43616e206e6f74207365742061646d696e20746f207a65726f206164647265736044820152607360f81b6064820152608490fd5b90601f8019910116810190811067ffffffffffffffff821117610d1f57604052565b634e487b7160e01b600052604160045260246000fd5b67ffffffffffffffff8111610d1f5760051b60200190565b805115610d5a5760200190565b634e487b7160e01b600052603260045260246000fd5b805160011015610d5a5760400190565b6000908015610e3e578080600114610e3657600214610e2e576001918261013383101683600b84101617610e1e5760028392935b808211610de157505082600019048211610dcd57500290565b634e487b7160e01b81526011600452602490fd5b909380600019048111610e0a57818516610e01575b800293811c90610db4565b80930292610df6565b634e487b7160e01b83526011600452602483fd5b929150600283910a92610dcd5750565b509060049150565b505050600190565b509056fea26469706673582212207cdb0c158f3d17f142808900cbc71ed904e153c372bab7fa0e2d87270b2d081c64736f6c63430008110033",
  "devdoc": {
    "kind": "dev",
    "methods": {},
    "version": 1
  },
  "userdoc": {
    "kind": "user",
    "methods": {},
    "version": 1
  },
  "storageLayout": {
    "storage": [
      {
        "astId": 6,
        "contract": "contracts/BoosterOracle.sol:BoosterOracle",
        "label": "_initialized",
        "offset": 0,
        "slot": "0",
        "type": "t_uint8"
      },
      {
        "astId": 9,
        "contract": "contracts/BoosterOracle.sol:BoosterOracle",
        "label": "_initializing",
        "offset": 1,
        "slot": "0",
        "type": "t_bool"
      },
      {
        "astId": 462,
        "contract": "contracts/BoosterOracle.sol:BoosterOracle",
        "label": "admin",
        "offset": 2,
        "slot": "0",
        "type": "t_address"
      },
      {
        "astId": 1056,
        "contract": "contracts/BoosterOracle.sol:BoosterOracle",
        "label": "usdLikeToken",
        "offset": 0,
        "slot": "1",
        "type": "t_address"
      },
      {
        "astId": 1058,
        "contract": "contracts/BoosterOracle.sol:BoosterOracle",
        "label": "duetToken",
        "offset": 0,
        "slot": "2",
        "type": "t_address"
      },
      {
        "astId": 1061,
        "contract": "contracts/BoosterOracle.sol:BoosterOracle",
        "label": "uniswapV3Factory",
        "offset": 0,
        "slot": "3",
        "type": "t_contract(IUniswapV3Factory)596"
      },
      {
        "astId": 1063,
        "contract": "contracts/BoosterOracle.sol:BoosterOracle",
        "label": "duetPoolFee",
        "offset": 20,
        "slot": "3",
        "type": "t_uint24"
      }
    ],
    "types": {
      "t_address": {
        "encoding": "inplace",
        "label": "address",
        "numberOfBytes": "20"
      },
      "t_bool": {
        "encoding": "inplace",
        "label": "bool",
        "numberOfBytes": "1"
      },
      "t_contract(IUniswapV3Factory)596": {
        "encoding": "inplace",
        "label": "contract IUniswapV3Factory",
        "numberOfBytes": "20"
      },
      "t_uint24": {
        "encoding": "inplace",
        "label": "uint24",
        "numberOfBytes": "3"
      },
      "t_uint8": {
        "encoding": "inplace",
        "label": "uint8",
        "numberOfBytes": "1"
      }
    }
  }
}