{
  "address": "0x3468Cd538300eC18800A3D361B1E55d284642848",
  "abi": [
    {
      "inputs": [],
      "name": "FEE",
      "outputs": [
        {
          "internalType": "uint24",
          "name": "",
          "type": "uint24"
        }
      ],
      "stateMutability": "view",
      "type": "function"
    },
    {
      "inputs": [
        {
          "internalType": "address",
          "name": "token0",
          "type": "address"
        }
      ],
      "name": "getPrice",
      "outputs": [
        {
          "internalType": "uint256",
          "name": "",
          "type": "uint256"
        }
      ],
      "stateMutability": "view",
      "type": "function"
    }
  ],
  "transactionHash": "0x734bd40b1c93af183ef9a33ca0318003f35dcc51a6e908b0f99ec0ed97e218ed",
  "args": [],
  "numDeployments": 3,
  "solcInputHash": "313e86cbaf8fb15d940426938f1c51a8",
  "bytecode": "0x608060405234801561001057600080fd5b50610474806100206000396000f3fe608060405234801561001057600080fd5b50600436106100365760003560e01c806341976e091461003b578063c57981b514610061575b600080fd5b61004e6100493660046101fe565b61007e565b6040519081526020015b60405180910390f35b61006a61271081565b60405162ffffff9091168152602001610058565b604051630b4c774160e11b8152734d13a9b2e1c6784c6290350d34645ddc7e765808600482015273ff970a61a04b1ca14834a43f5de4533ebddb5cc860248201526127106044820152600090731f98431c8ad98523631ae4a59f267346ea31f9849082908290631698ee8290606401602060405180830381865afa15801561010a573d6000803e3d6000fd5b505050506040513d601f19601f8201168201806040525081019061012e9190610222565b905060008190506000816001600160a01b0316633850c7bd6040518163ffffffff1660e01b815260040160e060405180830381865afa158015610175573d6000803e3d6000fd5b505050506040513d601f19601f820116820180604052508101906101999190610256565b50505050505090506000600160c01b6002836001600160a01b03166101be91906103f6565b6101d19068056bc75e2d63100000610405565b6101db919061041c565b979650505050505050565b6001600160a01b03811681146101fb57600080fd5b50565b60006020828403121561021057600080fd5b813561021b816101e6565b9392505050565b60006020828403121561023457600080fd5b815161021b816101e6565b805161ffff8116811461025157600080fd5b919050565b600080600080600080600060e0888a03121561027157600080fd5b875161027c816101e6565b8097505060208801518060020b811461029457600080fd5b95506102a26040890161023f565b94506102b06060890161023f565b93506102be6080890161023f565b925060a088015160ff811681146102d457600080fd5b60c089015190925080151581146102ea57600080fd5b8091505092959891949750929550565b634e487b7160e01b600052601160045260246000fd5b600181815b8085111561034b578160001904821115610331576103316102fa565b8085161561033e57918102915b93841c9390800290610315565b509250929050565b600082610362575060016103f0565b8161036f575060006103f0565b8160018114610385576002811461038f576103ab565b60019150506103f0565b60ff8411156103a0576103a06102fa565b50506001821b6103f0565b5060208310610133831016604e8410600b84101617156103ce575081810a6103f0565b6103d88383610310565b80600019048211156103ec576103ec6102fa565b0290505b92915050565b600061021b60ff841683610353565b80820281158282048414176103f0576103f06102fa565b60008261043957634e487b7160e01b600052601260045260246000fd5b50049056fea2646970667358221220eced9458b92f4aae096312e7eb6491aa1830cc3342a4dccc5165a7c364b02c2364736f6c63430008110033",
  "devdoc": {
    "kind": "dev",
    "methods": {},
    "version": 1
  },
  "userdoc": {
    "kind": "user",
    "methods": {},
    "version": 1
  },
  "storageLayout": {
    "storage": [],
    "types": null
  }
}