{
  "address": "0x0af9161CBEe79e05E5ed8624747998Bbe01cb6F9",
  "abi": [
    {
      "inputs": [],
      "name": "FEE",
      "outputs": [
        {
          "internalType": "uint24",
          "name": "",
          "type": "uint24"
        }
      ],
      "stateMutability": "view",
      "type": "function"
    },
    {
      "inputs": [
        {
          "internalType": "address",
          "name": "token0",
          "type": "address"
        }
      ],
      "name": "getPrice",
      "outputs": [
        {
          "internalType": "uint256",
          "name": "",
          "type": "uint256"
        }
      ],
      "stateMutability": "view",
      "type": "function"
    }
  ],
  "transactionHash": "0xe3fdd409e800eb0f43d325737fb641fe365b87f33a2dfc1511921076c297bf6e",
  "args": [],
  "numDeployments": 2,
  "solcInputHash": "8185945ecc748f56c375aa3593a00e51",
  "bytecode": "0x608060405234801561001057600080fd5b50610469806100206000396000f3fe608060405234801561001057600080fd5b50600436106100365760003560e01c806341976e091461003b578063c57981b514610061575b600080fd5b61004e6100493660046101f3565b61007e565b6040519081526020015b60405180910390f35b61006a61271081565b60405162ffffff9091168152602001610058565b604051630b4c774160e11b81526001600160a01b038216600482015273ff970a61a04b1ca14834a43f5de4533ebddb5cc860248201526127106044820152600090731f98431c8ad98523631ae4a59f267346ea31f9849082908290631698ee8290606401602060405180830381865afa1580156100ff573d6000803e3d6000fd5b505050506040513d601f19601f820116820180604052508101906101239190610217565b905060008190506000816001600160a01b0316633850c7bd6040518163ffffffff1660e01b815260040160e060405180830381865afa15801561016a573d6000803e3d6000fd5b505050506040513d601f19601f8201168201806040525081019061018e919061024b565b50505050505090506000600160c01b6002836001600160a01b03166101b391906103eb565b6101c69068056bc75e2d631000006103fa565b6101d09190610411565b979650505050505050565b6001600160a01b03811681146101f057600080fd5b50565b60006020828403121561020557600080fd5b8135610210816101db565b9392505050565b60006020828403121561022957600080fd5b8151610210816101db565b805161ffff8116811461024657600080fd5b919050565b600080600080600080600060e0888a03121561026657600080fd5b8751610271816101db565b8097505060208801518060020b811461028957600080fd5b955061029760408901610234565b94506102a560608901610234565b93506102b360808901610234565b925060a088015160ff811681146102c957600080fd5b60c089015190925080151581146102df57600080fd5b8091505092959891949750929550565b634e487b7160e01b600052601160045260246000fd5b600181815b80851115610340578160001904821115610326576103266102ef565b8085161561033357918102915b93841c939080029061030a565b509250929050565b600082610357575060016103e5565b81610364575060006103e5565b816001811461037a5760028114610384576103a0565b60019150506103e5565b60ff841115610395576103956102ef565b50506001821b6103e5565b5060208310610133831016604e8410600b84101617156103c3575081810a6103e5565b6103cd8383610305565b80600019048211156103e1576103e16102ef565b0290505b92915050565b600061021060ff841683610348565b80820281158282048414176103e5576103e56102ef565b60008261042e57634e487b7160e01b600052601260045260246000fd5b50049056fea26469706673582212203a044a0c6177733f0adf1529088294f7e421413c4a0140b1b9f9d95fb50a487c64736f6c63430008110033",
  "devdoc": {
    "kind": "dev",
    "methods": {},
    "version": 1
  },
  "userdoc": {
    "kind": "user",
    "methods": {},
    "version": 1
  },
  "storageLayout": {
    "storage": [],
    "types": null
  }
}