{
  "address": "0x7B853E4c8cde6908Ef8fdA291843d6eC9C2E32d2",
  "abi": [
    {
      "inputs": [],
      "stateMutability": "nonpayable",
      "type": "constructor"
    },
    {
      "anonymous": false,
      "inputs": [
        {
          "indexed": true,
          "internalType": "address",
          "name": "user",
          "type": "address"
        },
        {
          "indexed": false,
          "internalType": "uint256",
          "name": "liquidity",
          "type": "uint256"
        }
      ],
      "name": "AddLiquidity",
      "type": "event"
    },
    {
      "anonymous": false,
      "inputs": [
        {
          "indexed": true,
          "internalType": "address",
          "name": "user",
          "type": "address"
        },
        {
          "indexed": false,
          "internalType": "address",
          "name": "token",
          "type": "address"
        }
      ],
      "name": "AddSupportedBoosterToken",
      "type": "event"
    },
    {
      "anonymous": false,
      "inputs": [
        {
          "indexed": true,
          "internalType": "address",
          "name": "user",
          "type": "address"
        },
        {
          "indexed": true,
          "internalType": "address",
          "name": "newAdmin",
          "type": "address"
        }
      ],
      "name": "AdminUpdated",
      "type": "event"
    },
    {
      "anonymous": false,
      "inputs": [
        {
          "indexed": false,
          "internalType": "uint8",
          "name": "version",
          "type": "uint8"
        }
      ],
      "name": "Initialized",
      "type": "event"
    },
    {
      "anonymous": false,
      "inputs": [
        {
          "indexed": true,
          "internalType": "address",
          "name": "user",
          "type": "address"
        },
        {
          "indexed": false,
          "internalType": "uint256",
          "name": "liquidity",
          "type": "uint256"
        }
      ],
      "name": "RemoveLiquidity",
      "type": "event"
    },
    {
      "anonymous": false,
      "inputs": [
        {
          "indexed": true,
          "internalType": "address",
          "name": "user",
          "type": "address"
        },
        {
          "indexed": false,
          "internalType": "address",
          "name": "token",
          "type": "address"
        }
      ],
      "name": "RemoveSupportedBoosterToken",
      "type": "event"
    },
    {
      "anonymous": false,
      "inputs": [
        {
          "indexed": true,
          "internalType": "address",
          "name": "user",
          "type": "address"
        },
        {
          "indexed": false,
          "internalType": "address",
          "name": "booster",
          "type": "address"
        },
        {
          "indexed": false,
          "internalType": "uint256",
          "name": "amount",
          "type": "uint256"
        },
        {
          "indexed": false,
          "internalType": "uint256",
          "name": "value",
          "type": "uint256"
        }
      ],
      "name": "StakeBooster",
      "type": "event"
    },
    {
      "anonymous": false,
      "inputs": [
        {
          "indexed": true,
          "internalType": "address",
          "name": "user",
          "type": "address"
        },
        {
          "indexed": false,
          "internalType": "address",
          "name": "booster",
          "type": "address"
        },
        {
          "indexed": false,
          "internalType": "uint256",
          "name": "amount",
          "type": "uint256"
        },
        {
          "indexed": false,
          "internalType": "uint256",
          "name": "value",
          "type": "uint256"
        }
      ],
      "name": "UnstakeBooster",
      "type": "event"
    },
    {
      "inputs": [],
      "name": "LIQUIDITY_DECIMALS",
      "outputs": [
        {
          "internalType": "uint256",
          "name": "",
          "type": "uint256"
        }
      ],
      "stateMutability": "view",
      "type": "function"
    },
    {
      "inputs": [],
      "name": "MIN_BOOSTER_TOKENS",
      "outputs": [
        {
          "internalType": "uint256",
          "name": "",
          "type": "uint256"
        }
      ],
      "stateMutability": "view",
      "type": "function"
    },
    {
      "inputs": [],
      "name": "MIN_LIQUIDITY_OPS",
      "outputs": [
        {
          "internalType": "uint256",
          "name": "",
          "type": "uint256"
        }
      ],
      "stateMutability": "view",
      "type": "function"
    },
    {
      "inputs": [],
      "name": "PRECISION",
      "outputs": [
        {
          "internalType": "uint256",
          "name": "",
          "type": "uint256"
        }
      ],
      "stateMutability": "view",
      "type": "function"
    },
    {
      "inputs": [],
      "name": "PRICE_DECIMALS",
      "outputs": [
        {
          "internalType": "uint256",
          "name": "",
          "type": "uint256"
        }
      ],
      "stateMutability": "view",
      "type": "function"
    },
    {
      "inputs": [
        {
          "internalType": "uint256",
          "name": "underlyingAmount_",
          "type": "uint256"
        },
        {
          "components": [
            {
              "internalType": "bytes[]",
              "name": "vaas",
              "type": "bytes[]"
            },
            {
              "internalType": "bytes32[]",
              "name": "ids",
              "type": "bytes32[]"
            }
          ],
          "internalType": "struct IPool.PythData",
          "name": "pythData",
          "type": "tuple"
        }
      ],
      "name": "addLiquidity",
      "outputs": [],
      "stateMutability": "payable",
      "type": "function"
    },
    {
      "inputs": [
        {
          "internalType": "contract IERC20MetadataUpgradeable",
          "name": "booster_",
          "type": "address"
        }
      ],
      "name": "addSupportedBooster",
      "outputs": [],
      "stateMutability": "nonpayable",
      "type": "function"
    },
    {
      "inputs": [],
      "name": "admin",
      "outputs": [
        {
          "internalType": "address",
          "name": "",
          "type": "address"
        }
      ],
      "stateMutability": "view",
      "type": "function"
    },
    {
      "inputs": [
        {
          "internalType": "uint256",
          "name": "amount_",
          "type": "uint256"
        }
      ],
      "name": "amountToShares",
      "outputs": [
        {
          "internalType": "uint256",
          "name": "",
          "type": "uint256"
        }
      ],
      "stateMutability": "view",
      "type": "function"
    },
    {
      "inputs": [],
      "name": "blockNumber",
      "outputs": [
        {
          "internalType": "uint256",
          "name": "",
          "type": "uint256"
        }
      ],
      "stateMutability": "view",
      "type": "function"
    },
    {
      "inputs": [],
      "name": "boosterLockDuration",
      "outputs": [
        {
          "internalType": "uint256",
          "name": "",
          "type": "uint256"
        }
      ],
      "stateMutability": "view",
      "type": "function"
    },
    {
      "inputs": [],
      "name": "boosterOracle",
      "outputs": [
        {
          "internalType": "contract IBoosterOracle",
          "name": "",
          "type": "address"
        }
      ],
      "stateMutability": "view",
      "type": "function"
    },
    {
      "inputs": [],
      "name": "calcPool",
      "outputs": [
        {
          "internalType": "uint256",
          "name": "normalLiquidity",
          "type": "uint256"
        },
        {
          "internalType": "uint256",
          "name": "boostedLiquidity",
          "type": "uint256"
        }
      ],
      "stateMutability": "view",
      "type": "function"
    },
    {
      "inputs": [],
      "name": "chainId",
      "outputs": [
        {
          "internalType": "uint256",
          "name": "",
          "type": "uint256"
        }
      ],
      "stateMutability": "view",
      "type": "function"
    },
    {
      "inputs": [],
      "name": "deriLens",
      "outputs": [
        {
          "internalType": "contract IDeriLens",
          "name": "",
          "type": "address"
        }
      ],
      "stateMutability": "view",
      "type": "function"
    },
    {
      "inputs": [
        {
          "internalType": "uint256",
          "name": "amount_",
          "type": "uint256"
        },
        {
          "components": [
            {
              "internalType": "bytes[]",
              "name": "vaas",
              "type": "bytes[]"
            },
            {
              "internalType": "bytes32[]",
              "name": "ids",
              "type": "bytes32[]"
            }
          ],
          "internalType": "struct IPool.PythData",
          "name": "pythData",
          "type": "tuple"
        }
      ],
      "name": "forceAddLiquidity",
      "outputs": [],
      "stateMutability": "payable",
      "type": "function"
    },
    {
      "inputs": [],
      "name": "getRemoteInfo",
      "outputs": [
        {
          "components": [
            {
              "internalType": "address",
              "name": "account",
              "type": "address"
            },
            {
              "internalType": "uint256",
              "name": "lTokenId",
              "type": "uint256"
            },
            {
              "internalType": "address",
              "name": "vault",
              "type": "address"
            },
            {
              "internalType": "int256",
              "name": "amountB0",
              "type": "int256"
            },
            {
              "internalType": "int256",
              "name": "liquidity",
              "type": "int256"
            },
            {
              "internalType": "int256",
              "name": "cumulativePnlPerLiquidity",
              "type": "int256"
            },
            {
              "internalType": "uint256",
              "name": "vaultLiquidity",
              "type": "uint256"
            },
            {
              "components": [
                {
                  "internalType": "address",
                  "name": "underlying",
                  "type": "address"
                },
                {
                  "internalType": "address",
                  "name": "vToken",
                  "type": "address"
                },
                {
                  "internalType": "string",
                  "name": "underlyingSymbol",
                  "type": "string"
                },
                {
                  "internalType": "string",
                  "name": "vTokenSymbol",
                  "type": "string"
                },
                {
                  "internalType": "uint256",
                  "name": "underlyingPrice",
                  "type": "uint256"
                },
                {
                  "internalType": "uint256",
                  "name": "exchangeRate",
                  "type": "uint256"
                },
                {
                  "internalType": "uint256",
                  "name": "vTokenBalance",
                  "type": "uint256"
                }
              ],
              "internalType": "struct IDeriLens.MarketInfo[]",
              "name": "markets",
              "type": "tuple[]"
            }
          ],
          "internalType": "struct IDeriLens.LpInfo",
          "name": "lpInfo",
          "type": "tuple"
        }
      ],
      "stateMutability": "view",
      "type": "function"
    },
    {
      "inputs": [
        {
          "internalType": "address",
          "name": "user_",
          "type": "address"
        }
      ],
      "name": "getUserInfo",
      "outputs": [
        {
          "components": [
            {
              "internalType": "uint256",
              "name": "shares",
              "type": "uint256"
            },
            {
              "internalType": "uint256",
              "name": "boostedShares",
              "type": "uint256"
            },
            {
              "internalType": "uint256",
              "name": "stakedBoosterValue",
              "type": "uint256"
            },
            {
              "internalType": "uint256",
              "name": "stakedBoosterAmount",
              "type": "uint256"
            },
            {
              "internalType": "uint256",
              "name": "lastActionTime",
              "type": "uint256"
            },
            {
              "internalType": "uint256",
              "name": "lastActionBlock",
              "type": "uint256"
            },
            {
              "internalType": "uint256",
              "name": "accAddedLiquidity",
              "type": "uint256"
            },
            {
              "internalType": "uint256",
              "name": "accRemovedLiquidity",
              "type": "uint256"
            }
          ],
          "internalType": "struct DuetProStaking.UserInfo",
          "name": "info",
          "type": "tuple"
        },
        {
          "internalType": "uint256",
          "name": "normalLiquidity",
          "type": "uint256"
        },
        {
          "internalType": "uint256",
          "name": "boostedLiquidity",
          "type": "uint256"
        }
      ],
      "stateMutability": "view",
      "type": "function"
    },
    {
      "inputs": [
        {
          "internalType": "contract IPool",
          "name": "pool_",
          "type": "address"
        },
        {
          "internalType": "contract IDeriLens",
          "name": "deriLens_",
          "type": "address"
        },
        {
          "internalType": "contract IERC20MetadataUpgradeable",
          "name": "usdLikeUnderlying_",
          "type": "address"
        },
        {
          "internalType": "contract IBoosterOracle",
          "name": "boosterOracle_",
          "type": "address"
        },
        {
          "internalType": "address",
          "name": "admin_",
          "type": "address"
        }
      ],
      "name": "initialize",
      "outputs": [],
      "stateMutability": "nonpayable",
      "type": "function"
    },
    {
      "inputs": [],
      "name": "lastActionBlock",
      "outputs": [
        {
          "internalType": "uint256",
          "name": "",
          "type": "uint256"
        }
      ],
      "stateMutability": "view",
      "type": "function"
    },
    {
      "inputs": [],
      "name": "lastActionTime",
      "outputs": [
        {
          "internalType": "uint256",
          "name": "",
          "type": "uint256"
        }
      ],
      "stateMutability": "view",
      "type": "function"
    },
    {
      "inputs": [],
      "name": "lastBoostedLiquidity",
      "outputs": [
        {
          "internalType": "uint256",
          "name": "",
          "type": "uint256"
        }
      ],
      "stateMutability": "view",
      "type": "function"
    },
    {
      "inputs": [
        {
          "internalType": "address",
          "name": "",
          "type": "address"
        }
      ],
      "name": "lastBoosterOperatedAt",
      "outputs": [
        {
          "internalType": "uint256",
          "name": "",
          "type": "uint256"
        }
      ],
      "stateMutability": "view",
      "type": "function"
    },
    {
      "inputs": [],
      "name": "lastNormalLiquidity",
      "outputs": [
        {
          "internalType": "uint256",
          "name": "",
          "type": "uint256"
        }
      ],
      "stateMutability": "view",
      "type": "function"
    },
    {
      "inputs": [
        {
          "internalType": "uint256",
          "name": "value_",
          "type": "uint256"
        },
        {
          "internalType": "uint256",
          "name": "sourceDecimals_",
          "type": "uint256"
        },
        {
          "internalType": "uint256",
          "name": "targetDecimals_",
          "type": "uint256"
        }
      ],
      "name": "normalizeDecimals",
      "outputs": [
        {
          "internalType": "uint256",
          "name": "",
          "type": "uint256"
        }
      ],
      "stateMutability": "pure",
      "type": "function"
    },
    {
      "inputs": [],
      "name": "pool",
      "outputs": [
        {
          "internalType": "contract IPool",
          "name": "",
          "type": "address"
        }
      ],
      "stateMutability": "view",
      "type": "function"
    },
    {
      "inputs": [
        {
          "internalType": "uint256",
          "name": "amount_",
          "type": "uint256"
        },
        {
          "components": [
            {
              "internalType": "bytes[]",
              "name": "vaas",
              "type": "bytes[]"
            },
            {
              "internalType": "bytes32[]",
              "name": "ids",
              "type": "bytes32[]"
            }
          ],
          "internalType": "struct IPool.PythData",
          "name": "pythData",
          "type": "tuple"
        }
      ],
      "name": "removeLiquidity",
      "outputs": [
        {
          "internalType": "uint256",
          "name": "userNormalLiquidity",
          "type": "uint256"
        },
        {
          "internalType": "uint256",
          "name": "userBoostedLiquidity",
          "type": "uint256"
        },
        {
          "internalType": "uint256",
          "name": "normalSharesToRemove",
          "type": "uint256"
        },
        {
          "internalType": "uint256",
          "name": "userNormalShares",
          "type": "uint256"
        },
        {
          "internalType": "uint256",
          "name": "normalLiquidityToRemove",
          "type": "uint256"
        }
      ],
      "stateMutability": "payable",
      "type": "function"
    },
    {
      "inputs": [
        {
          "internalType": "contract IERC20MetadataUpgradeable",
          "name": "booster_",
          "type": "address"
        }
      ],
      "name": "removeSupportedBooster",
      "outputs": [],
      "stateMutability": "nonpayable",
      "type": "function"
    },
    {
      "inputs": [
        {
          "internalType": "address",
          "name": "newAdmin",
          "type": "address"
        }
      ],
      "name": "setAdmin",
      "outputs": [],
      "stateMutability": "nonpayable",
      "type": "function"
    },
    {
      "inputs": [
        {
          "internalType": "uint256",
          "name": "duration",
          "type": "uint256"
        }
      ],
      "name": "setBoosterLockDuration",
      "outputs": [],
      "stateMutability": "nonpayable",
      "type": "function"
    },
    {
      "inputs": [
        {
          "internalType": "contract IBoosterOracle",
          "name": "boosterOracle_",
          "type": "address"
        }
      ],
      "name": "setBoosterOracle",
      "outputs": [],
      "stateMutability": "nonpayable",
      "type": "function"
    },
    {
      "inputs": [
        {
          "internalType": "uint256",
          "name": "shares_",
          "type": "uint256"
        },
        {
          "internalType": "uint256",
          "name": "boostedShares_",
          "type": "uint256"
        }
      ],
      "name": "sharesToLiquidity",
      "outputs": [
        {
          "internalType": "uint256",
          "name": "normalLiquidity",
          "type": "uint256"
        },
        {
          "internalType": "uint256",
          "name": "boostedLiquidity",
          "type": "uint256"
        }
      ],
      "stateMutability": "view",
      "type": "function"
    },
    {
      "inputs": [
        {
          "internalType": "contract IERC20MetadataUpgradeable",
          "name": "booster_",
          "type": "address"
        },
        {
          "internalType": "uint256",
          "name": "amount_",
          "type": "uint256"
        }
      ],
      "name": "stakeBooster",
      "outputs": [],
      "stateMutability": "nonpayable",
      "type": "function"
    },
    {
      "inputs": [
        {
          "internalType": "address",
          "name": "",
          "type": "address"
        }
      ],
      "name": "supportedBoosterTokens",
      "outputs": [
        {
          "internalType": "bool",
          "name": "",
          "type": "bool"
        }
      ],
      "stateMutability": "view",
      "type": "function"
    },
    {
      "inputs": [],
      "name": "totalBoostedShares",
      "outputs": [
        {
          "internalType": "uint256",
          "name": "",
          "type": "uint256"
        }
      ],
      "stateMutability": "view",
      "type": "function"
    },
    {
      "inputs": [],
      "name": "totalShares",
      "outputs": [
        {
          "internalType": "uint256",
          "name": "",
          "type": "uint256"
        }
      ],
      "stateMutability": "view",
      "type": "function"
    },
    {
      "inputs": [],
      "name": "totalStakedBoosterAmount",
      "outputs": [
        {
          "internalType": "uint256",
          "name": "",
          "type": "uint256"
        }
      ],
      "stateMutability": "view",
      "type": "function"
    },
    {
      "inputs": [],
      "name": "totalStakedBoosterValue",
      "outputs": [
        {
          "internalType": "uint256",
          "name": "",
          "type": "uint256"
        }
      ],
      "stateMutability": "view",
      "type": "function"
    },
    {
      "inputs": [
        {
          "internalType": "contract IERC20MetadataUpgradeable",
          "name": "booster_",
          "type": "address"
        },
        {
          "internalType": "uint256",
          "name": "amount_",
          "type": "uint256"
        }
      ],
      "name": "unstakeBooster",
      "outputs": [],
      "stateMutability": "nonpayable",
      "type": "function"
    },
    {
      "inputs": [],
      "name": "usdLikeUnderlying",
      "outputs": [
        {
          "internalType": "contract IERC20MetadataUpgradeable",
          "name": "",
          "type": "address"
        }
      ],
      "stateMutability": "view",
      "type": "function"
    },
    {
      "inputs": [
        {
          "internalType": "address",
          "name": "",
          "type": "address"
        }
      ],
      "name": "userInfos",
      "outputs": [
        {
          "internalType": "uint256",
          "name": "shares",
          "type": "uint256"
        },
        {
          "internalType": "uint256",
          "name": "boostedShares",
          "type": "uint256"
        },
        {
          "internalType": "uint256",
          "name": "stakedBoosterValue",
          "type": "uint256"
        },
        {
          "internalType": "uint256",
          "name": "stakedBoosterAmount",
          "type": "uint256"
        },
        {
          "internalType": "uint256",
          "name": "lastActionTime",
          "type": "uint256"
        },
        {
          "internalType": "uint256",
          "name": "lastActionBlock",
          "type": "uint256"
        },
        {
          "internalType": "uint256",
          "name": "accAddedLiquidity",
          "type": "uint256"
        },
        {
          "internalType": "uint256",
          "name": "accRemovedLiquidity",
          "type": "uint256"
        }
      ],
      "stateMutability": "view",
      "type": "function"
    },
    {
      "inputs": [
        {
          "internalType": "address",
          "name": "",
          "type": "address"
        },
        {
          "internalType": "address",
          "name": "",
          "type": "address"
        }
      ],
      "name": "userStakedBooster",
      "outputs": [
        {
          "internalType": "uint256",
          "name": "",
          "type": "uint256"
        }
      ],
      "stateMutability": "view",
      "type": "function"
    }
  ],
  "transactionHash": "0xc10470e603bd3ac86097a1b4ef6c5c921d1dae878a353e37bbae05ccd38edcf0",
  "args": [],
  "numDeployments": 4,
  "solcInputHash": "3ad645ff87e64c601e544de9f17aa045",
  "bytecode": "0x60808060405234620000d85762093a8060435561759146036200002d575b604051612dcd9081620000de8239f35b6000549060ff8260081c1662000086575060ff80821610156200001d5760ff90811916176000557f7f26b83ff96e1f2b6a682f133852f6798a09c465da95921460cefb3847402498602060405160ff8152a1386200001d565b62461bcd60e51b815260206004820152602760248201527f496e697469616c697a61626c653a20636f6e747261637420697320696e697469604482015266616c697a696e6760c81b6064820152608490fd5b600080fdfe6080604052600436101561001257600080fd5b600060e08135811c90816285cc9814610d4457816304eb082d146119f5578163085f0316146119d757816311df7e9e146119b55781631459457a1461154057816315e24d561461152257816316f0115b146114f957816318d78cd0146114db5781631946398d1461148b578163218185071461139d5781632bc0503e146113745781633a98ef39146113565781633fd664c71461132f578163401336ef146112dc57816343b0215f146112565781634aa0829c1461121d57816357e871e71461120257816358d7e40c1461118a5781635a606975146111655781636386c1c7146110345781636c75f2bb14610d89578163704b6c0214610d4f578163714f58ae14610d445781637420783d14610cc957816375ceaf6d14610cab5781638912232c1461098f5781638db8a13514610973578163961c7cfd146109555781639a8a05921461093a578163a3b45d161461091c578163a58e79c9146108f3578163a6dc7318146108d5578163aa0c2f06146107a157508063aaf5eb6814610781578063b811540e14610726578063d5d8e087146106fd578063ecd04dd214610505578063f06b3b9314610292578063f1a640f814610276578063f1f7b6f314610237578063f851a4401461020e5763f9c1ed6d146101ee575b600080fd5b3461020b578060031936011261020b576020603954604051908152f35b80fd5b503461020b578060031936011261020b576033546040516001600160a01b039091168152602090f35b503461020b57602036600319011261020b5760209060ff906040906001600160a01b03610262611a49565b168152604184522054166040519015158152f35b503461020b578060031936011261020b57602060405160088152f35b503461020b57604036600319011261020b576102ac611a49565b602435906102b8611cb1565b60018060a01b038116918284526020916041835260ff604086205416156104b45760405163313ce56760e01b81528381600481885afa9081156104a95761030b9160ff91889161047c575b501683612886565b90670de0b6b3a76400008210610411576103b77f15e5e08da6e2e9ba2619e8339b9322a1480de2c7f842c542d3e6c547e755ef37949392600292338952604286526040892095604481524260408b2055610363612541565b61036f8630338c611d07565b338a526040815260408a209089600052526040600020610390838254611c8e565b9055600386016103a1838254611c8e565b90556103af82603d54611c8e565b603d55612952565b92016103c4838254611c8e565b90556103d282603c54611c8e565b603c556103de336129f7565b6103e733612a25565b604080516001600160a01b0395909516855260208501919091528301523391606090a26001805580f35b60405162461bcd60e51b815260048101859052603e60248201527f4475657450726f5374616b696e673a20616d6f756e74206d757374206265206760448201527f726561746572207468616e204d494e5f424f4f535445525f544f4b454e5300006064820152608490fd5b61049c9150863d88116104a2575b6104948183611bf4565b810190611c15565b38610303565b503d61048a565b6040513d88823e3d90fd5b60405162461bcd60e51b815260048101849052602360248201527f4475657450726f5374616b696e673a20756e737570706f7274656420626f6f736044820152623a32b960e91b6064820152608490fd5b503461020b57604036600319011261020b5761051f611a49565b60243561052a611cb1565b33835260209060408252604084209260018060a01b0381169384600052835281604060002054106106a45733855260448352604085205415158061068b575b61064657908460026105ec837f17b3fdc0a312e53c9cae4f2bcb6da445a19da2774fbacb037fa5fb6127366c8196953385526042875260408520966105ac612541565b3386526040815260408620908a6000525260406000206105cd838254611f3f565b9055600387016105de838254611f3f565b90556103af82603d54611f3f565b930180548490818111610634575050555b603c548280821161062357505084603c555b61061a813386611f4c565b6103de336129f7565b61062c91611f3f565b603c5561060f565b61063f929350611f3f565b90556105fd565b60405162461bcd60e51b815260048101849052601e60248201527f4475657450726f5374616b696e673a20626f6f73746572206c6f636b656400006044820152606490fd5b5061069d604086205460435490611c8e565b4210610569565b60405162461bcd60e51b815260048101849052602b60248201527f4475657450726f5374616b696e673a20696e73756666696369656e742073746160448201526a35b2b2103137b7b9ba32b960a91b6064820152608490fd5b503461020b578060031936011261020b576037546040516001600160a01b039091168152602090f35b503461020b57602036600319011261020b576020906004359061074761220c565b603854919250908015610779579061076561076b92610771956121d6565b92611c8e565b906120c7565b604051908152f35b505050610771565b503461020b578060031936011261020b57602060405164e8d4a510008152f35b823461020b578060031936011261020b576107ba6125b6565b60405191602080845261012084019060018060a01b03938481511682870152818101516040870152846040820151169060609182880152818101519060809182890152818101519660a097888a015289888301519260c093848c015283810151828c0152015197610100808b015288518097526101409486868c01968960051b8d01019a01989b5b888d1061084f578b8b038cf35b9091929394959697989988806001928e61013f19908203018b528d51908882511681528883830151168382015289806108a861089860408601518a60408701528a860190611ab7565b8a8601518582038c870152611ab7565b938d80820151908501528a8101518b85015201519101529c0198019c019b95949392919098979698610842565b823461020b578060031936011261020b576020603f54604051908152f35b823461020b578060031936011261020b576035546040516001600160a01b039091168152602090f35b823461020b578060031936011261020b576020604354604051908152f35b823461020b578060031936011261020b576020604051468152f35b823461020b578060031936011261020b576020603b54604051908152f35b823461020b578060031936011261020b57602060405160128152f35b8261099936611a5f565b91906109a3611cb1565b60375460405163313ce56760e01b815290602090829060049082906001600160a01b03165afa908115610c1b576109e7929160ff918591610c8c575b501690612886565b6109ef612541565b338252604260205260408220805491600182015490610a0e8285612173565b919095610a1b8388611c8e565b808310801590610c7a575b8015610c5f575b610c57575b50610a3d8487611f3f565b94819488839181861115600014610c26575060079291610abf610a64610aca93888c6120e7565b98610a7b889c5b610a75838d611c8e565b90611f3f565b8555610a92610a8a828c611c8e565b603854611f3f565b603855610aa18c603a54611f3f565b603a55610ab2816001870154611f3f565b6001860155603954611f3f565b603955603b54611f3f565b603b55610ad6336129f7565b01610ae2838254611c8e565b905560375460405163313ce56760e01b81526001600160a01b0390911698906020816004818d5afa908115610c1b57610b279160ff918591610bfc575b5016846128d2565b9860018060a01b036034541690813b15610bf8579183918b610b60946040519586948593849363d591ecb560e01b855260048501611fc1565b039134905af18015610bed57610bd9575b505060375460a097610b8d9133906001600160a01b0316611f4c565b6040519081527fdfdd120ded9b7afc0c23dd5310e93aaa3e1c3b9f75af9b805fab3030842439f260203392a2600180556040519485526020850152604084015260608301526080820152f35b610be38291611baf565b61020b5780610b71565b6040513d84823e3d90fd5b8380fd5b610c15915060203d6020116104a2576104948183611bf4565b8c610b1f565b6040513d85823e3d90fd5b8199610aca9298506007949350610abf90610a7b610c518a610c4a8e9d9f8c611f3f565b80966120e7565b91610a6b565b915088610a32565b50670de0b6b3a7640000610c738483611f3f565b1115610a2d565b50670de0b6b3a7640000811115610a26565b610ca5915060203d6020116104a2576104948183611bf4565b866109df565b823461020b578060031936011261020b576020603a54604051908152f35b823461020b57602036600319011261020b57610ce3611a49565b6033546001600160a01b039190610cfd9083163314611adc565b16808252604160205260408220600160ff198254161790556040519081527f4a9622c6945580f38c98aa249f85babc8ae91f5dc0a8c4665b6dc699b2dfce0c60203392a280f35b5050506101e9611a25565b823461020b57602036600319011261020b57610d86610d6c611a49565b610d8160018060a01b03603354163314611adc565b611b17565b80f35b82610d9336611a5f565b90610d9c611cb1565b60375460405163313ce56760e01b8152602092916001600160a01b03919084908290600490829086165afa9081156104a957610de39160ff91889161101757501683612886565b93670de0b6b3a76400008510610fac5790859291610dff612541565b610e1183836037541630903390611d07565b60375460345460405163095ea7b360e01b81529084166001600160a01b0316600482015260248101859052908690829085168188816044810103925af18015610fa157610f74575b5060345460375483169216803b15610f7057610e8e938593604051958694859384936304dcf83760e01b855260048501611fc1565b039134905af18015610bed57610f58575b50507fbb37879e252460856212dc4e8c6edf174e473df9423e3a7feccd21f8c28d587a9033845260428152600660408520610f1a603854610ee260395482611f3f565b8015610f4c57610ef9610f109189603a54916120e7565b80925b610f088a603a54611c8e565b603a55611c8e565b6038558254611c8e565b8155610f25336129f7565b01610f31848254611c8e565b9055610f3c33612a25565b6040519283523392a26001805580f35b50610f10878092610efc565b610f6190611baf565b610f6c578284610e9f565b8280fd5b8480fd5b610f9390863d8811610f9a575b610f8b8183611bf4565b810190611d7c565b5087610e59565b503d610f81565b6040513d87823e3d90fd5b60405162461bcd60e51b815260048101859052603d60248201527f4475657450726f5374616b696e673a20616d6f756e74206d757374206265206760448201527f726561746572207468616e204d494e5f4c49515549444954595f4f50530000006064820152608490fd5b61102e9150863d88116104a2576104948183611bf4565b88610303565b9050346111615760209081600319360112610f6c579161014092611056611a49565b828260405161106481611bd8565b82815282878201528260408201528260608201528260808201528260a08201528260c0820152015260018060a01b0316908183526042845260406110b2818520546001838720015490612173565b94909381526042865220604051906110c982611bd8565b805495868352600182015490808401918252600283015460408501908152600384015490606086019182526004850154926080870193845260058601549460a0880195865288600760068901549860c08b01998a52015498019788526040519b8c5251908b01525160408a01525160608901525160808801525160a08701525160c08601525190840152610100830152610120820152f35b5080fd5b823461020b57606036600319011261020b576020610771604435602435600435612918565b823461020b57602036600319011261020b576111a4611a49565b6033546001600160a01b0391906111be9083163314611adc565b1680825260416020526040822060ff1981541690556040519081527f83a53b7d80f6805eccf4bb6bbaa7a90aa8e2799c1939ec7d008858dee4e0e35b60203392a280f35b823461020b578060031936011261020b576020610771612cca565b823461020b57602036600319011261020b576020906040906001600160a01b03611245611a49565b168152604483522054604051908152f35b90503461116157602036600319011261116157610100916040906001600160a01b03611280611a49565b168152604260205220805491600182015491600281015460038201546004830154906005840154926007600686015495015496604051988952602089015260408801526060870152608086015260a085015260c0840152820152f35b823461020b57604036600319011261020b576112f6611a49565b6024356001600160a01b0381811693918490036101e9576040921681528160205220906000526020526020604060002054604051908152f35b823461020b578060031936011261020b57604061134a61220c565b82519182526020820152f35b823461020b578060031936011261020b576020603854604051908152f35b823461020b578060031936011261020b576036546040516001600160a01b039091168152602090f35b82806113a836611a5f565b6037549192916001600160a01b03906113c8908590309033908516611d07565b60375460345460405163095ea7b360e01b81529083166001600160a01b031660048201526024810186905290602090829084168187816044810103925af1801561148057611462575b508060345416906037541693813b15610bf85761144594604051958694859384936304dcf83760e01b855260048501611fc1565b039134905af18015610bed57611459575080f35b610d8690611baf565b6114799060203d8111610f9a57610f8b8183611bf4565b5085611411565b6040513d86823e3d90fd5b823461020b57602036600319011261020b576114a5611a49565b6033546001600160a01b0391906114bf9083163314611adc565b166bffffffffffffffffffffffff60a01b603654161760365580f35b823461020b578060031936011261020b576020603d54604051908152f35b823461020b578060031936011261020b576034546040516001600160a01b039091168152602090f35b823461020b578060031936011261020b576020603c54604051908152f35b823461020b5760a036600319011261020b576004356001600160a01b038181169291839003611161576024908135818116809103610bf85760449283358381168091036119b1576064968735928584168094036119ad576084988935968716978888036119a95789549860ff8a60081c1615998a809b61199c575b8015611985575b1561192d5760ff1981166001178c558a61191c575b5084156118c757871561186e5785156118075786156117a957156117535760405163313ce56760e01b8152602081600481895afa9081156117485760129160ff918d9161172a575b5016116116c457505050611686959697506bffffffffffffffffffffffff60a01b9283603654161760365561166360ff895460081c1661165e81611c2e565b611c2e565b600180558260345416176034558160375416176037556035541617603555611b17565b61168d5780f35b61ff001981541681557f7f26b83ff96e1f2b6a682f133852f6798a09c465da95921460cefb3847402498602060405160018152a180f35b6040805162461bcd60e51b815260206004820152938401527f4475657450726f5374616b696e673a207573644c696b65556e6465726c79696e908301527f675f20646563696d616c73206d757374206265206c657373207468616e203138908201528890fd5b611742915060203d81116104a2576104948183611bf4565b8e61161f565b6040513d8d823e3d90fd5b8a92917f4475657450726f5374616b696e673a2061646d696e2063616e6e6f74206265206b7a65726f206164647265737360a01b92602c6040519562461bcd60e51b875260206004880152860152840152820152fd5b60405162461bcd60e51b8152602060048201526034818601527f4475657450726f5374616b696e673a20626f6f737465724f7261636c6520636181840152736e6e6f74206265207a65726f206164647265737360601b818501528c90fd5b60405162461bcd60e51b8152602060048201526039818601527f4475657450726f5374616b696e673a207573644c696b65556e6465726c79696e818401527f675f2063616e6e6f74206265207a65726f206164647265737300000000000000818501528c90fd5b60405162461bcd60e51b815260206004820152602f818601527f4475657450726f5374616b696e673a20646572694c656e732063616e6e6f7420818401526e6265207a65726f206164647265737360881b818501528c90fd5b60405162461bcd60e51b815260206004820152602b818601527f4475657450726f5374616b696e673a20706f6f6c2063616e6e6f74206265207a818401526a65726f206164647265737360a81b818501528c90fd5b61ffff1916610101178b558c6115d7565b60405162461bcd60e51b815260206004820152602e818701527f496e697469616c697a61626c653a20636f6e747261637420697320616c726561818501526d191e481a5b9a5d1a585b1a5e995960921b818601528d90fd5b50303b1580156115c25750600160ff8216146115c2565b50600160ff8216106115bb565b8980fd5b8780fd5b8580fd5b823461020b57604036600319011261020b57604061134a602435600435612173565b823461020b578060031936011261020b576020603e54604051908152f35b823461020b57602036600319011261020b57611a1c60018060a01b03603354163314611adc565b60043560435580f35b50346101e95760003660031901126101e9576020604051670de0b6b3a76400008152f35b600435906001600160a01b03821682036101e957565b906003196040818401126101e95760043592602435916001600160401b0383116101e957826040920301126101e95760040190565b60005b838110611aa75750506000910152565b8181015183820152602001611a97565b90602091611ad081518092818552858086019101611a94565b601f01601f1916010190565b15611ae357565b60405162461bcd60e51b815260206004820152600c60248201526b15539055551213d49256915160a21b6044820152606490fd5b6001600160a01b03168015611b6057603380546001600160a01b03191682179055337f101b8081ff3b56bbf45deb824d86a3b0fd38b7e3dd42421105cf8abe9106db0b600080a3565b60405162461bcd60e51b815260206004820152602160248201527f43616e206e6f74207365742061646d696e20746f207a65726f206164647265736044820152607360f81b6064820152608490fd5b6001600160401b038111611bc257604052565b634e487b7160e01b600052604160045260246000fd5b61010081019081106001600160401b03821117611bc257604052565b90601f801991011681019081106001600160401b03821117611bc257604052565b908160209103126101e9575160ff811681036101e95790565b15611c3557565b60405162461bcd60e51b815260206004820152602b60248201527f496e697469616c697a61626c653a20636f6e7472616374206973206e6f74206960448201526a6e697469616c697a696e6760a81b6064820152608490fd5b91908201809211611c9b57565b634e487b7160e01b600052601160045260246000fd5b600260015414611cc2576002600155565b60405162461bcd60e51b815260206004820152601f60248201527f5265656e7472616e637947756172643a207265656e7472616e742063616c6c006044820152606490fd5b6040516323b872dd60e01b60208201526001600160a01b03928316602482015292909116604483015260648083019390935291815260a08101918183106001600160401b03841117611bc257611d5f92604052611d94565b565b6001600160401b038111611bc257601f01601f191660200190565b908160209103126101e9575180151581036101e95790565b60408051908101916001600160a01b03166001600160401b03831182841017611bc257611e22926040526000806020958685527f5361666545524332303a206c6f772d6c6576656c2063616c6c206661696c656487860152868151910182855af13d15611e9e573d91611e0683611d61565b92611e146040519485611bf4565b83523d60008785013e611ea2565b80519081611e2f57505050565b8280611e3f938301019101611d7c565b15611e475750565b6084906040519062461bcd60e51b82526004820152602a60248201527f5361666545524332303a204552433230206f7065726174696f6e20646964206e6044820152691bdd081cdd58d8d9595960b21b6064820152fd5b6060915b91929015611f045750815115611eb6575090565b3b15611ebf5790565b60405162461bcd60e51b815260206004820152601d60248201527f416464726573733a2063616c6c20746f206e6f6e2d636f6e74726163740000006044820152606490fd5b825190915015611f175750805190602001fd5b60405162461bcd60e51b815260206004820152908190611f3b906024830190611ab7565b0390fd5b91908203918211611c9b57565b60405163a9059cbb60e01b60208201526001600160a01b03929092166024830152604480830193909352918152611d5f91611f88606483611bf4565b611d94565b9035601e19823603018112156101e95701602081359101916001600160401b0382116101e9578160051b360383136101e957565b6001600160a01b03909116815260208082019290925260606040820152909160a0820190611fef8180611f8d565b809193604060608701525260c084019060c08160051b8601019380926000915b8383106120585750505050508084612028920190611f8d565b838303605f1901608090940193909352828252916001600160fb1b0381116101e95760051b809284830137010190565b909192939560bf198882030183528635601e19833603018112156101e95782018981019190356001600160401b0381116101e95780360383136101e9578a828280600196849695859652848401376000828201840152601f01601f19160101980195949190910192019061200f565b81156120d1570490565b634e487b7160e01b600052601260045260246000fd5b91600019828409928281029283808610950394808603951461215c57848311156101e957829109600182190182168092046003810a6002908083028203028083028203028083028203028083028203028083028203028092029003029360018380600003040190848311900302920304170290565b505080919250156101e957612170916120c7565b90565b9080929161218a61218261220c565b939092611f3f565b906038549161219c6039548094611f3f565b60009290919081156121cd576121b293506120e7565b935b60009281156121c75761217093506120e7565b50505090565b505050936121b4565b81810292918115918404141715611c9b57565b8051156121f65760200190565b634e487b7160e01b600052603260045260246000fd5b603f54612217612cca565b14612537576038541561252f5761222c6125b6565b60608101519060c0810151151580612521575b612475575b50906000918281131561242657801561242157603a54603b54936122688583611c8e565b808403938282128186128116908287139015161761240d571461240657808313156123d35780835b126122f0578460011b90858204600214861517156122dc5750816122d06122c9836122c261217097966122d696611c8e565b90866120e7565b8094611f3f565b90611c8e565b93611c8e565b634e487b7160e01b81526011600452602490fd5b50906123106123096123028685611c8e565b86846120e7565b8092611f3f565b9182811061238357818510612332576121709261232c91611f3f565b93611f3f565b60405162461bcd60e51b81526020600482015260356024820152600080516020612d78833981519152604482015274081b9959d85d1a5d9948189bdbdcdd1959081c1b9b605a1b6064820152608490fd5b60405162461bcd60e51b81526020600482015260346024820152600080516020612d78833981519152604482015273081b9959d85d1a5d99481b9bdc9b585b081c1b9b60621b6064820152608490fd5b828103818412828212811690838313901516176123f257819093612290565b634e487b7160e01b82526011600452602482fd5b5090509190565b634e487b7160e01b83526011600452602483fd5b508190565b60405162461bcd60e51b81526020600482015260336024820152600080516020612d788339815191526044820152720206e656761746976652062616c616e6365423606c1b6064820152608490fd5b60e00180516001600160a01b0390819061248e906121e9565b5151169060375416036124c8576124a760c091516121e9565b5101519060008282019283129112908015821691151617611c9b5738612244565b60405162461bcd60e51b815260206004820152603b6024820152600080516020612d7883398151915260448201527f206d61726b657420756e6465726c79696e67206d69736d6174636800000000006064820152608490fd5b5060e081015151151561223f565b600090600090565b603a5490603b5490565b61254961220c565b603b55603a5542603e5561255b612cca565b603f55565b51906001600160a01b03821682036101e957565b81601f820112156101e957805161258a81611d61565b926125986040519485611bf4565b818452602082840101116101e9576121709160208085019101611a94565b606060e06040516125c681611bd8565b60008152600060208201526000604082015260008382015260006080820152600060a0820152600060c0820152015260018060a01b0360008160355416916034541660446040518094819363bea66a0160e01b835260048301523060248301525afa90811561286c5760009161263a575090565b90503d806000833e61264c8183611bf4565b60208282810103126101e95781516001600160401b0381116101e9578201906101008282850103126101e9576040519261268584611bd8565b61268e83612560565b8452602083015160208501526126a660408401612560565b6040850152606083015160608501526080830151608085015260a083015160a085015260c083015160c085015260e0830151926001600160401b0384116101e957828201601f8583010112156101e95783810151916001600160401b038311611bc257604051948360051b9361271f6020860188611bf4565b865260208601918581016020868487010101116101e957602082850101925b6020868487010101841061275b575050505050505060e082015290565b8351906001600160401b0382116101e95760e08685018301848a0103601f1901126101e957604051918260e08101106001600160401b0360e085011117611bc25760e083016040526127b3602082878a010101612560565b83526127c5604082878a010101612560565b60208401526060818689010101516001600160401b0381116101e9576127f79060208b87019184898c01010101612574565b6040840152608081868901010151916001600160401b0383116101e95760209360e0836128338b888f988199988d839a8e019401010101612574565b606084015260a0818a8d01010151608084015260c0818a8d0101015160a0840152888b0101015160c0820152815201940193905061273e565b6040513d6000823e3d90fd5b604d8111611c9b57600a0a90565b816012146128cd57816012116128ae576011198201918211611c9b5761076b61217092612878565b906012039060128211611c9b576128c761217092612878565b906121d6565b905090565b906012811461291457601281116128fb576012039060128211611c9b5761076b61217092612878565b601119810191908211611c9b576128c761217092612878565b5090565b9080831461294c5780831161293c576129376121709361076b92611f3f565b612878565b6129376128c79161217094611f3f565b50905090565b6036546040516341976e0960e01b81526001600160a01b0392831660048201529160209183916024918391165afa90811561286c576000916129be575b50670de0b6b3a7640000916129a3916121d6565b046402540be40090818102918183041490151715611c9b5790565b906020823d82116129ef575b816129d760209383611bf4565b8101031261020b575051670de0b6b3a764000061298f565b3d91506129ca565b6129ff612cca565b9060018060a01b0316600052604260205260056040600020015542600460406000200155565b6001600160a01b03166000908152604260205260408120603f54612a47612cca565b03612c7b576005810154612a59612cca565b03612c255780548015612c1e576001820191825491612a8283612a7c8184611f3f565b92612173565b60028495929501918254808314612c1357808311612b7e5750508415612b6757612aac9154611f3f565b838110612b78575082935b6039548015612b7057612ace9086603b54916120e7565b925b8315612b6757612b5196612b37958785612b1996151580612b5f575b15612b5657612afb93506120e7565b915b612b08858254611c8e565b9055612b1e84612b19848454611f3f565b611c8e565b9055612b2c83603954611c8e565b603955603854611f3f565b603855612b4681603b54611c8e565b603b55603a54611f3f565b603a55565b50505091612afd565b506001612aec565b50505050505050565b508492612ad0565b93612ab7565b612b519850612bf99650612b19945082979350612ba090612ba8929693611f3f565b9687866120e7565b91612bcf83612bc9612bbf60385460395490611f3f565b8a603a54916120e7565b96611f3f565b9055612bdd82603954611f3f565b603955612bef84612b19848454611f3f565b9055603854611f3f565b603855612c0881603b54611f3f565b603b55603a54611c8e565b505050505050505050565b5060010155565b60405162461bcd60e51b815260206004820152602860248201527f4475657450726f5374616b696e673a2075706461746520757365722073686172604482015267195cc8199a5c9cdd60c21b6064820152608490fd5b60405162461bcd60e51b815260206004820152602160248201527f4475657450726f5374616b696e673a2075706461746520706f6f6c20666972736044820152601d60fa1b6064820152608490fd5b61a4b146148015612d6d575b8015612d62575b8015612d56575b8015612d4a575b612cf3574390565b60405163a3b1b31d60e01b815260208160048160645afa90811561286c57600091612d1c575090565b906020823d8211612d42575b81612d3560209383611bf4565b8101031261020b57505190565b3d9150612d28565b5062066eed4614612ceb565b5062066eeb4614612ce4565b5061a4ba4614612cdd565b5060c84614612cd656fe4475657450726f5374616b696e673a2063616c6320706f6f6c206572726f722ca264697066735822122030314c2552b9eab6e7fb6f8f369ec972f340e75e066ef0644f12f8cb49cf63e264736f6c63430008110033",
  "devdoc": {
    "kind": "dev",
    "methods": {},
    "version": 1
  },
  "userdoc": {
    "kind": "user",
    "methods": {},
    "version": 1
  },
  "storageLayout": {
    "storage": [
      {
        "astId": 158,
        "contract": "contracts/DuetProStaking.sol:DuetProStaking",
        "label": "_initialized",
        "offset": 0,
        "slot": "0",
        "type": "t_uint8"
      },
      {
        "astId": 161,
        "contract": "contracts/DuetProStaking.sol:DuetProStaking",
        "label": "_initializing",
        "offset": 1,
        "slot": "0",
        "type": "t_bool"
      },
      {
        "astId": 461,
        "contract": "contracts/DuetProStaking.sol:DuetProStaking",
        "label": "_status",
        "offset": 0,
        "slot": "1",
        "type": "t_uint256"
      },
      {
        "astId": 519,
        "contract": "contracts/DuetProStaking.sol:DuetProStaking",
        "label": "__gap",
        "offset": 0,
        "slot": "2",
        "type": "t_array(t_uint256)49_storage"
      },
      {
        "astId": 2101,
        "contract": "contracts/DuetProStaking.sol:DuetProStaking",
        "label": "admin",
        "offset": 0,
        "slot": "51",
        "type": "t_address"
      },
      {
        "astId": 2461,
        "contract": "contracts/DuetProStaking.sol:DuetProStaking",
        "label": "pool",
        "offset": 0,
        "slot": "52",
        "type": "t_contract(IPool)4734"
      },
      {
        "astId": 2464,
        "contract": "contracts/DuetProStaking.sol:DuetProStaking",
        "label": "deriLens",
        "offset": 0,
        "slot": "53",
        "type": "t_contract(IDeriLens)4561"
      },
      {
        "astId": 2467,
        "contract": "contracts/DuetProStaking.sol:DuetProStaking",
        "label": "boosterOracle",
        "offset": 0,
        "slot": "54",
        "type": "t_contract(IBoosterOracle)4262"
      },
      {
        "astId": 2470,
        "contract": "contracts/DuetProStaking.sol:DuetProStaking",
        "label": "usdLikeUnderlying",
        "offset": 0,
        "slot": "55",
        "type": "t_contract(IERC20MetadataUpgradeable)623"
      },
      {
        "astId": 2472,
        "contract": "contracts/DuetProStaking.sol:DuetProStaking",
        "label": "totalShares",
        "offset": 0,
        "slot": "56",
        "type": "t_uint256"
      },
      {
        "astId": 2474,
        "contract": "contracts/DuetProStaking.sol:DuetProStaking",
        "label": "totalBoostedShares",
        "offset": 0,
        "slot": "57",
        "type": "t_uint256"
      },
      {
        "astId": 2476,
        "contract": "contracts/DuetProStaking.sol:DuetProStaking",
        "label": "lastNormalLiquidity",
        "offset": 0,
        "slot": "58",
        "type": "t_uint256"
      },
      {
        "astId": 2478,
        "contract": "contracts/DuetProStaking.sol:DuetProStaking",
        "label": "lastBoostedLiquidity",
        "offset": 0,
        "slot": "59",
        "type": "t_uint256"
      },
      {
        "astId": 2480,
        "contract": "contracts/DuetProStaking.sol:DuetProStaking",
        "label": "totalStakedBoosterValue",
        "offset": 0,
        "slot": "60",
        "type": "t_uint256"
      },
      {
        "astId": 2482,
        "contract": "contracts/DuetProStaking.sol:DuetProStaking",
        "label": "totalStakedBoosterAmount",
        "offset": 0,
        "slot": "61",
        "type": "t_uint256"
      },
      {
        "astId": 2484,
        "contract": "contracts/DuetProStaking.sol:DuetProStaking",
        "label": "lastActionTime",
        "offset": 0,
        "slot": "62",
        "type": "t_uint256"
      },
      {
        "astId": 2486,
        "contract": "contracts/DuetProStaking.sol:DuetProStaking",
        "label": "lastActionBlock",
        "offset": 0,
        "slot": "63",
        "type": "t_uint256"
      },
      {
        "astId": 2492,
        "contract": "contracts/DuetProStaking.sol:DuetProStaking",
        "label": "userStakedBooster",
        "offset": 0,
        "slot": "64",
        "type": "t_mapping(t_address,t_mapping(t_address,t_uint256))"
      },
      {
        "astId": 2496,
        "contract": "contracts/DuetProStaking.sol:DuetProStaking",
        "label": "supportedBoosterTokens",
        "offset": 0,
        "slot": "65",
        "type": "t_mapping(t_address,t_bool)"
      },
      {
        "astId": 2501,
        "contract": "contracts/DuetProStaking.sol:DuetProStaking",
        "label": "userInfos",
        "offset": 0,
        "slot": "66",
        "type": "t_mapping(t_address,t_struct(UserInfo)2525_storage)"
      },
      {
        "astId": 2504,
        "contract": "contracts/DuetProStaking.sol:DuetProStaking",
        "label": "boosterLockDuration",
        "offset": 0,
        "slot": "67",
        "type": "t_uint256"
      },
      {
        "astId": 2508,
        "contract": "contracts/DuetProStaking.sol:DuetProStaking",
        "label": "lastBoosterOperatedAt",
        "offset": 0,
        "slot": "68",
        "type": "t_mapping(t_address,t_uint256)"
      }
    ],
    "types": {
      "t_address": {
        "encoding": "inplace",
        "label": "address",
        "numberOfBytes": "20"
      },
      "t_array(t_uint256)49_storage": {
        "base": "t_uint256",
        "encoding": "inplace",
        "label": "uint256[49]",
        "numberOfBytes": "1568"
      },
      "t_bool": {
        "encoding": "inplace",
        "label": "bool",
        "numberOfBytes": "1"
      },
      "t_contract(IBoosterOracle)4262": {
        "encoding": "inplace",
        "label": "contract IBoosterOracle",
        "numberOfBytes": "20"
      },
      "t_contract(IDeriLens)4561": {
        "encoding": "inplace",
        "label": "contract IDeriLens",
        "numberOfBytes": "20"
      },
      "t_contract(IERC20MetadataUpgradeable)623": {
        "encoding": "inplace",
        "label": "contract IERC20MetadataUpgradeable",
        "numberOfBytes": "20"
      },
      "t_contract(IPool)4734": {
        "encoding": "inplace",
        "label": "contract IPool",
        "numberOfBytes": "20"
      },
      "t_mapping(t_address,t_bool)": {
        "encoding": "mapping",
        "key": "t_address",
        "label": "mapping(address => bool)",
        "numberOfBytes": "32",
        "value": "t_bool"
      },
      "t_mapping(t_address,t_mapping(t_address,t_uint256))": {
        "encoding": "mapping",
        "key": "t_address",
        "label": "mapping(address => mapping(address => uint256))",
        "numberOfBytes": "32",
        "value": "t_mapping(t_address,t_uint256)"
      },
      "t_mapping(t_address,t_struct(UserInfo)2525_storage)": {
        "encoding": "mapping",
        "key": "t_address",
        "label": "mapping(address => struct DuetProStaking.UserInfo)",
        "numberOfBytes": "32",
        "value": "t_struct(UserInfo)2525_storage"
      },
      "t_mapping(t_address,t_uint256)": {
        "encoding": "mapping",
        "key": "t_address",
        "label": "mapping(address => uint256)",
        "numberOfBytes": "32",
        "value": "t_uint256"
      },
      "t_struct(UserInfo)2525_storage": {
        "encoding": "inplace",
        "label": "struct DuetProStaking.UserInfo",
        "members": [
          {
            "astId": 2510,
            "contract": "contracts/DuetProStaking.sol:DuetProStaking",
            "label": "shares",
            "offset": 0,
            "slot": "0",
            "type": "t_uint256"
          },
          {
            "astId": 2512,
            "contract": "contracts/DuetProStaking.sol:DuetProStaking",
            "label": "boostedShares",
            "offset": 0,
            "slot": "1",
            "type": "t_uint256"
          },
          {
            "astId": 2514,
            "contract": "contracts/DuetProStaking.sol:DuetProStaking",
            "label": "stakedBoosterValue",
            "offset": 0,
            "slot": "2",
            "type": "t_uint256"
          },
          {
            "astId": 2516,
            "contract": "contracts/DuetProStaking.sol:DuetProStaking",
            "label": "stakedBoosterAmount",
            "offset": 0,
            "slot": "3",
            "type": "t_uint256"
          },
          {
            "astId": 2518,
            "contract": "contracts/DuetProStaking.sol:DuetProStaking",
            "label": "lastActionTime",
            "offset": 0,
            "slot": "4",
            "type": "t_uint256"
          },
          {
            "astId": 2520,
            "contract": "contracts/DuetProStaking.sol:DuetProStaking",
            "label": "lastActionBlock",
            "offset": 0,
            "slot": "5",
            "type": "t_uint256"
          },
          {
            "astId": 2522,
            "contract": "contracts/DuetProStaking.sol:DuetProStaking",
            "label": "accAddedLiquidity",
            "offset": 0,
            "slot": "6",
            "type": "t_uint256"
          },
          {
            "astId": 2524,
            "contract": "contracts/DuetProStaking.sol:DuetProStaking",
            "label": "accRemovedLiquidity",
            "offset": 0,
            "slot": "7",
            "type": "t_uint256"
          }
        ],
        "numberOfBytes": "256"
      },
      "t_uint256": {
        "encoding": "inplace",
        "label": "uint256",
        "numberOfBytes": "32"
      },
      "t_uint8": {
        "encoding": "inplace",
        "label": "uint8",
        "numberOfBytes": "1"
      }
    }
  }
}