{
  "address": "0x4F70FDfB7BE46B6f3e0325b626662184020B1044",
  "abi": [
    {
      "inputs": [],
      "stateMutability": "nonpayable",
      "type": "constructor"
    },
    {
      "anonymous": false,
      "inputs": [
        {
          "indexed": true,
          "internalType": "address",
          "name": "user",
          "type": "address"
        },
        {
          "indexed": false,
          "internalType": "address",
          "name": "token",
          "type": "address"
        }
      ],
      "name": "AddSupportedBoosterToken",
      "type": "event"
    },
    {
      "anonymous": false,
      "inputs": [
        {
          "indexed": true,
          "internalType": "address",
          "name": "user",
          "type": "address"
        },
        {
          "indexed": true,
          "internalType": "address",
          "name": "newAdmin",
          "type": "address"
        }
      ],
      "name": "AdminUpdated",
      "type": "event"
    },
    {
      "anonymous": false,
      "inputs": [
        {
          "indexed": false,
          "internalType": "uint8",
          "name": "version",
          "type": "uint8"
        }
      ],
      "name": "Initialized",
      "type": "event"
    },
    {
      "anonymous": false,
      "inputs": [
        {
          "indexed": true,
          "internalType": "address",
          "name": "user",
          "type": "address"
        },
        {
          "indexed": false,
          "internalType": "address",
          "name": "token",
          "type": "address"
        }
      ],
      "name": "RemoveSupportedBoosterToken",
      "type": "event"
    },
    {
      "inputs": [],
      "name": "LIQUIDITY_DECIMALS",
      "outputs": [
        {
          "internalType": "uint256",
          "name": "",
          "type": "uint256"
        }
      ],
      "stateMutability": "view",
      "type": "function"
    },
    {
      "inputs": [],
      "name": "MIN_BOOSTER_TOKENS",
      "outputs": [
        {
          "internalType": "uint256",
          "name": "",
          "type": "uint256"
        }
      ],
      "stateMutability": "view",
      "type": "function"
    },
    {
      "inputs": [],
      "name": "MIN_LIQUIDITY_OPS",
      "outputs": [
        {
          "internalType": "uint256",
          "name": "",
          "type": "uint256"
        }
      ],
      "stateMutability": "view",
      "type": "function"
    },
    {
      "inputs": [],
      "name": "PRECISION",
      "outputs": [
        {
          "internalType": "uint256",
          "name": "",
          "type": "uint256"
        }
      ],
      "stateMutability": "view",
      "type": "function"
    },
    {
      "inputs": [],
      "name": "PRICE_DECIMALS",
      "outputs": [
        {
          "internalType": "uint256",
          "name": "",
          "type": "uint256"
        }
      ],
      "stateMutability": "view",
      "type": "function"
    },
    {
      "inputs": [
        {
          "internalType": "uint256",
          "name": "underlyingAmount_",
          "type": "uint256"
        },
        {
          "components": [
            {
              "internalType": "bytes[]",
              "name": "vaas",
              "type": "bytes[]"
            },
            {
              "internalType": "bytes32[]",
              "name": "ids",
              "type": "bytes32[]"
            }
          ],
          "internalType": "struct IPool.PythData",
          "name": "pythData",
          "type": "tuple"
        }
      ],
      "name": "addLiquidity",
      "outputs": [],
      "stateMutability": "payable",
      "type": "function"
    },
    {
      "inputs": [
        {
          "internalType": "contract IERC20MetadataUpgradeable",
          "name": "booster_",
          "type": "address"
        }
      ],
      "name": "addSupportedBooster",
      "outputs": [],
      "stateMutability": "nonpayable",
      "type": "function"
    },
    {
      "inputs": [],
      "name": "admin",
      "outputs": [
        {
          "internalType": "address",
          "name": "",
          "type": "address"
        }
      ],
      "stateMutability": "view",
      "type": "function"
    },
    {
      "inputs": [
        {
          "internalType": "uint256",
          "name": "amount_",
          "type": "uint256"
        }
      ],
      "name": "amountToShares",
      "outputs": [
        {
          "internalType": "uint256",
          "name": "",
          "type": "uint256"
        }
      ],
      "stateMutability": "view",
      "type": "function"
    },
    {
      "inputs": [],
      "name": "blockNumber",
      "outputs": [
        {
          "internalType": "uint256",
          "name": "",
          "type": "uint256"
        }
      ],
      "stateMutability": "view",
      "type": "function"
    },
    {
      "inputs": [],
      "name": "boosterOracle",
      "outputs": [
        {
          "internalType": "contract IBoosterOracle",
          "name": "",
          "type": "address"
        }
      ],
      "stateMutability": "view",
      "type": "function"
    },
    {
      "inputs": [],
      "name": "calcPool",
      "outputs": [
        {
          "internalType": "uint256",
          "name": "normalLiquidity",
          "type": "uint256"
        },
        {
          "internalType": "uint256",
          "name": "boostedLiquidity",
          "type": "uint256"
        }
      ],
      "stateMutability": "view",
      "type": "function"
    },
    {
      "inputs": [],
      "name": "chainId",
      "outputs": [
        {
          "internalType": "uint256",
          "name": "",
          "type": "uint256"
        }
      ],
      "stateMutability": "view",
      "type": "function"
    },
    {
      "inputs": [],
      "name": "deriLens",
      "outputs": [
        {
          "internalType": "contract IDeriLens",
          "name": "",
          "type": "address"
        }
      ],
      "stateMutability": "view",
      "type": "function"
    },
    {
      "inputs": [
        {
          "internalType": "uint256",
          "name": "amount_",
          "type": "uint256"
        },
        {
          "components": [
            {
              "internalType": "bytes[]",
              "name": "vaas",
              "type": "bytes[]"
            },
            {
              "internalType": "bytes32[]",
              "name": "ids",
              "type": "bytes32[]"
            }
          ],
          "internalType": "struct IPool.PythData",
          "name": "pythData",
          "type": "tuple"
        }
      ],
      "name": "forceAddLiquidity",
      "outputs": [],
      "stateMutability": "payable",
      "type": "function"
    },
    {
      "inputs": [],
      "name": "getRemoteInfo",
      "outputs": [
        {
          "components": [
            {
              "internalType": "address",
              "name": "account",
              "type": "address"
            },
            {
              "internalType": "uint256",
              "name": "lTokenId",
              "type": "uint256"
            },
            {
              "internalType": "address",
              "name": "vault",
              "type": "address"
            },
            {
              "internalType": "int256",
              "name": "amountB0",
              "type": "int256"
            },
            {
              "internalType": "int256",
              "name": "liquidity",
              "type": "int256"
            },
            {
              "internalType": "int256",
              "name": "cumulativePnlPerLiquidity",
              "type": "int256"
            },
            {
              "internalType": "uint256",
              "name": "vaultLiquidity",
              "type": "uint256"
            },
            {
              "components": [
                {
                  "internalType": "address",
                  "name": "underlying",
                  "type": "address"
                },
                {
                  "internalType": "address",
                  "name": "vToken",
                  "type": "address"
                },
                {
                  "internalType": "string",
                  "name": "underlyingSymbol",
                  "type": "string"
                },
                {
                  "internalType": "string",
                  "name": "vTokenSymbol",
                  "type": "string"
                },
                {
                  "internalType": "uint256",
                  "name": "underlyingPrice",
                  "type": "uint256"
                },
                {
                  "internalType": "uint256",
                  "name": "exchangeRate",
                  "type": "uint256"
                },
                {
                  "internalType": "uint256",
                  "name": "vTokenBalance",
                  "type": "uint256"
                }
              ],
              "internalType": "struct IDeriLens.MarketInfo[]",
              "name": "markets",
              "type": "tuple[]"
            }
          ],
          "internalType": "struct IDeriLens.LpInfo",
          "name": "lpInfo",
          "type": "tuple"
        }
      ],
      "stateMutability": "view",
      "type": "function"
    },
    {
      "inputs": [
        {
          "internalType": "address",
          "name": "user_",
          "type": "address"
        }
      ],
      "name": "getUserInfo",
      "outputs": [
        {
          "components": [
            {
              "internalType": "uint256",
              "name": "shares",
              "type": "uint256"
            },
            {
              "internalType": "uint256",
              "name": "boostedShares",
              "type": "uint256"
            },
            {
              "internalType": "uint256",
              "name": "stakedBoosterValue",
              "type": "uint256"
            },
            {
              "internalType": "uint256",
              "name": "stakedBoosterAmount",
              "type": "uint256"
            },
            {
              "internalType": "uint256",
              "name": "lastActionTime",
              "type": "uint256"
            },
            {
              "internalType": "uint256",
              "name": "lastActionBlock",
              "type": "uint256"
            },
            {
              "internalType": "uint256",
              "name": "accAddedLiquidity",
              "type": "uint256"
            },
            {
              "internalType": "uint256",
              "name": "accRemovedLiquidity",
              "type": "uint256"
            }
          ],
          "internalType": "struct DuetProStaking.UserInfo",
          "name": "info",
          "type": "tuple"
        },
        {
          "internalType": "uint256",
          "name": "normalLiquidity",
          "type": "uint256"
        },
        {
          "internalType": "uint256",
          "name": "boostedLiquidity",
          "type": "uint256"
        }
      ],
      "stateMutability": "view",
      "type": "function"
    },
    {
      "inputs": [
        {
          "internalType": "contract IPool",
          "name": "pool_",
          "type": "address"
        },
        {
          "internalType": "contract IDeriLens",
          "name": "deriLens_",
          "type": "address"
        },
        {
          "internalType": "contract IERC20MetadataUpgradeable",
          "name": "usdLikeUnderlying_",
          "type": "address"
        },
        {
          "internalType": "contract IBoosterOracle",
          "name": "boosterOracle_",
          "type": "address"
        },
        {
          "internalType": "address",
          "name": "admin_",
          "type": "address"
        }
      ],
      "name": "initialize",
      "outputs": [],
      "stateMutability": "nonpayable",
      "type": "function"
    },
    {
      "inputs": [],
      "name": "lastActionBlock",
      "outputs": [
        {
          "internalType": "uint256",
          "name": "",
          "type": "uint256"
        }
      ],
      "stateMutability": "view",
      "type": "function"
    },
    {
      "inputs": [],
      "name": "lastActionTime",
      "outputs": [
        {
          "internalType": "uint256",
          "name": "",
          "type": "uint256"
        }
      ],
      "stateMutability": "view",
      "type": "function"
    },
    {
      "inputs": [],
      "name": "lastBoostedLiquidity",
      "outputs": [
        {
          "internalType": "uint256",
          "name": "",
          "type": "uint256"
        }
      ],
      "stateMutability": "view",
      "type": "function"
    },
    {
      "inputs": [],
      "name": "lastNormalLiquidity",
      "outputs": [
        {
          "internalType": "uint256",
          "name": "",
          "type": "uint256"
        }
      ],
      "stateMutability": "view",
      "type": "function"
    },
    {
      "inputs": [
        {
          "internalType": "uint256",
          "name": "value_",
          "type": "uint256"
        },
        {
          "internalType": "uint256",
          "name": "sourceDecimals_",
          "type": "uint256"
        },
        {
          "internalType": "uint256",
          "name": "targetDecimals_",
          "type": "uint256"
        }
      ],
      "name": "normalizeDecimals",
      "outputs": [
        {
          "internalType": "uint256",
          "name": "",
          "type": "uint256"
        }
      ],
      "stateMutability": "pure",
      "type": "function"
    },
    {
      "inputs": [],
      "name": "pool",
      "outputs": [
        {
          "internalType": "contract IPool",
          "name": "",
          "type": "address"
        }
      ],
      "stateMutability": "view",
      "type": "function"
    },
    {
      "inputs": [
        {
          "internalType": "uint256",
          "name": "amount_",
          "type": "uint256"
        },
        {
          "components": [
            {
              "internalType": "bytes[]",
              "name": "vaas",
              "type": "bytes[]"
            },
            {
              "internalType": "bytes32[]",
              "name": "ids",
              "type": "bytes32[]"
            }
          ],
          "internalType": "struct IPool.PythData",
          "name": "pythData",
          "type": "tuple"
        }
      ],
      "name": "removeLiquidity",
      "outputs": [
        {
          "internalType": "uint256",
          "name": "userNormalLiquidity",
          "type": "uint256"
        },
        {
          "internalType": "uint256",
          "name": "userBoostedLiquidity",
          "type": "uint256"
        },
        {
          "internalType": "uint256",
          "name": "normalSharesToRemove",
          "type": "uint256"
        },
        {
          "internalType": "uint256",
          "name": "userNormalShares",
          "type": "uint256"
        },
        {
          "internalType": "uint256",
          "name": "normalLiquidityToRemove",
          "type": "uint256"
        }
      ],
      "stateMutability": "payable",
      "type": "function"
    },
    {
      "inputs": [
        {
          "internalType": "contract IERC20MetadataUpgradeable",
          "name": "booster_",
          "type": "address"
        }
      ],
      "name": "removeSupportedBooster",
      "outputs": [],
      "stateMutability": "nonpayable",
      "type": "function"
    },
    {
      "inputs": [
        {
          "internalType": "address",
          "name": "newAdmin",
          "type": "address"
        }
      ],
      "name": "setAdmin",
      "outputs": [],
      "stateMutability": "nonpayable",
      "type": "function"
    },
    {
      "inputs": [
        {
          "internalType": "contract IBoosterOracle",
          "name": "boosterOracle_",
          "type": "address"
        }
      ],
      "name": "setBoosterOracle",
      "outputs": [],
      "stateMutability": "nonpayable",
      "type": "function"
    },
    {
      "inputs": [
        {
          "internalType": "uint256",
          "name": "shares_",
          "type": "uint256"
        },
        {
          "internalType": "uint256",
          "name": "boostedShares_",
          "type": "uint256"
        }
      ],
      "name": "sharesToLiquidity",
      "outputs": [
        {
          "internalType": "uint256",
          "name": "normalLiquidity",
          "type": "uint256"
        },
        {
          "internalType": "uint256",
          "name": "boostedLiquidity",
          "type": "uint256"
        }
      ],
      "stateMutability": "view",
      "type": "function"
    },
    {
      "inputs": [
        {
          "internalType": "contract IERC20MetadataUpgradeable",
          "name": "booster_",
          "type": "address"
        },
        {
          "internalType": "uint256",
          "name": "amount_",
          "type": "uint256"
        }
      ],
      "name": "stakeBooster",
      "outputs": [],
      "stateMutability": "nonpayable",
      "type": "function"
    },
    {
      "inputs": [
        {
          "internalType": "address",
          "name": "",
          "type": "address"
        }
      ],
      "name": "supportedBoosterTokens",
      "outputs": [
        {
          "internalType": "bool",
          "name": "",
          "type": "bool"
        }
      ],
      "stateMutability": "view",
      "type": "function"
    },
    {
      "inputs": [],
      "name": "totalBoostedShares",
      "outputs": [
        {
          "internalType": "uint256",
          "name": "",
          "type": "uint256"
        }
      ],
      "stateMutability": "view",
      "type": "function"
    },
    {
      "inputs": [],
      "name": "totalShares",
      "outputs": [
        {
          "internalType": "uint256",
          "name": "",
          "type": "uint256"
        }
      ],
      "stateMutability": "view",
      "type": "function"
    },
    {
      "inputs": [],
      "name": "totalStakedBoosterAmount",
      "outputs": [
        {
          "internalType": "uint256",
          "name": "",
          "type": "uint256"
        }
      ],
      "stateMutability": "view",
      "type": "function"
    },
    {
      "inputs": [],
      "name": "totalStakedBoosterValue",
      "outputs": [
        {
          "internalType": "uint256",
          "name": "",
          "type": "uint256"
        }
      ],
      "stateMutability": "view",
      "type": "function"
    },
    {
      "inputs": [
        {
          "internalType": "contract IERC20MetadataUpgradeable",
          "name": "booster_",
          "type": "address"
        },
        {
          "internalType": "uint256",
          "name": "amount_",
          "type": "uint256"
        }
      ],
      "name": "unstakeBooster",
      "outputs": [],
      "stateMutability": "nonpayable",
      "type": "function"
    },
    {
      "inputs": [],
      "name": "usdLikeUnderlying",
      "outputs": [
        {
          "internalType": "contract IERC20MetadataUpgradeable",
          "name": "",
          "type": "address"
        }
      ],
      "stateMutability": "view",
      "type": "function"
    },
    {
      "inputs": [
        {
          "internalType": "address",
          "name": "",
          "type": "address"
        }
      ],
      "name": "userInfos",
      "outputs": [
        {
          "internalType": "uint256",
          "name": "shares",
          "type": "uint256"
        },
        {
          "internalType": "uint256",
          "name": "boostedShares",
          "type": "uint256"
        },
        {
          "internalType": "uint256",
          "name": "stakedBoosterValue",
          "type": "uint256"
        },
        {
          "internalType": "uint256",
          "name": "stakedBoosterAmount",
          "type": "uint256"
        },
        {
          "internalType": "uint256",
          "name": "lastActionTime",
          "type": "uint256"
        },
        {
          "internalType": "uint256",
          "name": "lastActionBlock",
          "type": "uint256"
        },
        {
          "internalType": "uint256",
          "name": "accAddedLiquidity",
          "type": "uint256"
        },
        {
          "internalType": "uint256",
          "name": "accRemovedLiquidity",
          "type": "uint256"
        }
      ],
      "stateMutability": "view",
      "type": "function"
    },
    {
      "inputs": [
        {
          "internalType": "address",
          "name": "",
          "type": "address"
        },
        {
          "internalType": "address",
          "name": "",
          "type": "address"
        }
      ],
      "name": "userStakedBooster",
      "outputs": [
        {
          "internalType": "uint256",
          "name": "",
          "type": "uint256"
        }
      ],
      "stateMutability": "view",
      "type": "function"
    }
  ],
  "transactionHash": "0xf85ac363b5165924e546a672e210f0c79b51c47ca36b64c7b6be183edbbe883a",
  "args": [],
  "numDeployments": 3,
  "solcInputHash": "6b0033c719aa24e083360297a103f234",
  "bytecode": "0x60808060405234620000d157617591460362000026575b604051612bec9081620000d78239f35b6000549060ff8260081c166200007f575060ff8082161015620000165760ff90811916176000557f7f26b83ff96e1f2b6a682f133852f6798a09c465da95921460cefb3847402498602060405160ff8152a13862000016565b62461bcd60e51b815260206004820152602760248201527f496e697469616c697a61626c653a20636f6e747261637420697320696e697469604482015266616c697a696e6760c81b6064820152608490fd5b600080fdfe6080604052600436101561001257600080fd5b600060e08135811c90816285cc9814610c08578163085f03161461182657816311df7e9e146118045781631459457a1461138f57816315e24d561461137157816316f0115b1461134857816318d78cd01461132a5781631946398d146112da57816321818507146111f75781632bc0503e146111ce5781633a98ef39146111b05781633fd664c714611189578163401336ef1461113657816343b0215f146110b057816357e871e71461109557816358d7e40c1461101d5781635a60697514610ff85781636386c1c714610ec75781636c75f2bb14610c4d578163704b6c0214610c13578163714f58ae14610c085781637420783d14610b8d57816375ceaf6d14610b6f5781638912232c1461086c5781638db8a13514610850578163961c7cfd146108325781639a8a059214610817578163a58e79c9146107ee578163a6dc7318146107d0578163aa0c2f061461069c57508063aaf5eb681461067c578063b811540e14610621578063d5d8e087146105f8578063ecd04dd214610497578063f06b3b9314610271578063f1a640f814610255578063f1f7b6f314610216578063f851a440146101ed5763f9c1ed6d146101cd575b600080fd5b346101ea57806003193601126101ea576020603954604051908152f35b80fd5b50346101ea57806003193601126101ea576033546040516001600160a01b039091168152602090f35b50346101ea5760203660031901126101ea5760209060ff906040906001600160a01b03610241611868565b168152604184522054166040519015158152f35b50346101ea57806003193601126101ea57602060405160088152f35b50346101ea5760403660031901126101ea5761028b611868565b90602435610297611ad0565b6001600160a01b03831680835260416020908152604084205490949060ff16156104465760405163313ce56760e01b81528581600481865afa90811561043b576102ed9160ff91879161040e575b5016846126a5565b91670de0b6b3a764000083106103a357916103709160029361038796973389526042815261032960408a2097610321612360565b303385611b26565b338952604081526040892091600052526040600020610349838254611aad565b90556003850161035a838254611aad565b905561036882603d54611aad565b603d55612771565b910161037d828254611aad565b9055603c54611aad565b603c5561039333612816565b61039c33612844565b6001805580f35b60405162461bcd60e51b815260048101879052603e60248201527f4475657450726f5374616b696e673a20616d6f756e74206d757374206265206760448201527f726561746572207468616e204d494e5f424f4f535445525f544f4b454e5300006064820152608490fd5b61042e9150883d8a11610434575b6104268183611a13565b810190611a34565b386102e5565b503d61041c565b6040513d87823e3d90fd5b60405162461bcd60e51b815260048101869052602360248201527f4475657450726f5374616b696e673a20756e737570706f7274656420626f6f736044820152623a32b960e91b6064820152608490fd5b50346101ea5760403660031901126101ea576104b1611868565b906024356104bd611ad0565b33825260209260408452604083209060018060a01b03811691826000528552826040600020541061059f5793836002610549856105739798338552604286526040852095610509612360565b3386526040815260408620908860005252604060002061052a838254611d5e565b90556003860161053b838254611d5e565b905561036882603d54611d5e565b92018054839081811161058d575050555b603c549080821161057c57505083603c555b3390611d6b565b61039333612816565b61058591611d5e565b603c5561056c565b610598929350611d5e565b905561055a565b60405162461bcd60e51b815260048101869052602b60248201527f4475657450726f5374616b696e673a20696e73756666696369656e742073746160448201526a35b2b2103137b7b9ba32b960a91b6064820152608490fd5b50346101ea57806003193601126101ea576037546040516001600160a01b039091168152602090f35b50346101ea5760203660031901126101ea576020906004359061064261202b565b60385491925090801561067457906106606106669261066c95611ff5565b92611aad565b90611ee6565b604051908152f35b50505061066c565b50346101ea57806003193601126101ea57602060405164e8d4a510008152f35b82346101ea57806003193601126101ea576106b56123d5565b60405191602080845261012084019060018060a01b03938481511682870152818101516040870152846040820151169060609182880152818101519060809182890152818101519660a097888a015289888301519260c093848c015283810151828c0152015197610100808b015288518097526101409486868c01968960051b8d01019a01989b5b888d1061074a578b8b038cf35b9091929394959697989988806001928e61013f19908203018b528d51908882511681528883830151168382015289806107a361079360408601518a60408701528a8601906118d6565b8a8601518582038c8701526118d6565b938d80820151908501528a8101518b85015201519101529c0198019c019b9594939291909897969861073d565b82346101ea57806003193601126101ea576020603f54604051908152f35b82346101ea57806003193601126101ea576035546040516001600160a01b039091168152602090f35b82346101ea57806003193601126101ea576020604051468152f35b82346101ea57806003193601126101ea576020603b54604051908152f35b82346101ea57806003193601126101ea57602060405160128152f35b826108763661187e565b9190610880611ad0565b60375460405163313ce56760e01b815290602090829060049082906001600160a01b03165afa908115610b64576108c4929160ff918591610b45575b5016906126a5565b916108cd612360565b338252604260205260408220918254916001840154916108ed8385611f92565b9290956108fa8488611aad565b808910801590610b33575b8015610b18575b610b10575b5090879392916109218688611d5e565b95839081908a90818911610adc5750916109a06109ab9261095c610949600797968c8e611f06565b9a9c5b610956838d611aad565b90611d5e565b855561097361096b828c611aad565b603854611d5e565b6038556109828c603a54611d5e565b603a55610993816001870154611d5e565b6001860155603954611d5e565b603955603b54611d5e565b603b556109b733612816565b016109c3898254611aad565b905560375460405163313ce56760e01b81526001600160a01b0390911698906020816004818d5afa908115610ad157610a09929160ff918691610ab2575b5016906126f1565b9760018060a01b036034541690813b15610aae579183918a610a42946040519586948593849363d591ecb560e01b855260048501611de0565b039134905af18015610aa357610a8f575b505060375460a096610a6f9133906001600160a01b0316611d6b565b600180556040519485526020850152604084015260608301526080820152f35b610a9982916119ce565b6101ea5780610a53565b6040513d84823e3d90fd5b8380fd5b610acb915060203d602011610434576104268183611a13565b8c610a01565b6040513d86823e3d90fd5b999750505050839086958998610af28b8d611d5e565b9384610afd92611f06565b926109a060079461095c6109ab9461094c565b975088610911565b50670de0b6b3a7640000610b2c8a83611d5e565b111561090c565b50670de0b6b3a7640000811115610905565b610b5e915060203d602011610434576104268183611a13565b866108bc565b6040513d85823e3d90fd5b82346101ea57806003193601126101ea576020603a54604051908152f35b82346101ea5760203660031901126101ea57610ba7611868565b6033546001600160a01b039190610bc190831633146118fb565b16808252604160205260408220600160ff198254161790556040519081527f4a9622c6945580f38c98aa249f85babc8ae91f5dc0a8c4665b6dc699b2dfce0c60203392a280f35b5050506101c8611844565b82346101ea5760203660031901126101ea57610c4a610c30611868565b610c4560018060a01b036033541633146118fb565b611936565b80f35b82610c573661187e565b90610c60611ad0565b60375460405163313ce56760e01b8152602092916001600160a01b03919084908290600490829086165afa908115610ebc57610ca89160ff918891610e9f575b5016836126a5565b93670de0b6b3a76400008510610e345790859291610cc4612360565b610cd683836037541630903390611b26565b60375460345460405163095ea7b360e01b81529084166001600160a01b0316600482015260248101859052908690829085168188816044810103925af1801561043b57610e07575b5060345460375483169216803b15610e0357610d53938593604051958694859384936304dcf83760e01b855260048501611de0565b039134905af18015610aa357610deb575b505060429033845252610dd4600660408420610dc0603854610d8860395482611d5e565b8015610ddf57610d9f610db69188603a5491611f06565b80925b610dae89603a54611aad565b603a55611aad565b6038558254611aad565b8155610dcb33612816565b01918254611aad565b905561039c33612844565b50610db6868092610da2565b610df4906119ce565b610dff578284610d64565b8280fd5b8480fd5b610e2690863d8811610e2d575b610e1e8183611a13565b810190611b9b565b5087610d1e565b503d610e14565b60405162461bcd60e51b815260048101859052603d60248201527f4475657450726f5374616b696e673a20616d6f756e74206d757374206265206760448201527f726561746572207468616e204d494e5f4c49515549444954595f4f50530000006064820152608490fd5b610eb69150863d8811610434576104268183611a13565b88610ca0565b6040513d88823e3d90fd5b905034610ff45760209081600319360112610dff579161014092610ee9611868565b8282604051610ef7816119f7565b82815282878201528260408201528260608201528260808201528260a08201528260c0820152015260018060a01b031690818352604284526040610f45818520546001838720015490611f92565b9490938152604286522060405190610f5c826119f7565b805495868352600182015490808401918252600283015460408501908152600384015490606086019182526004850154926080870193845260058601549460a0880195865288600760068901549860c08b01998a52015498019788526040519b8c5251908b01525160408a01525160608901525160808801525160a08701525160c08601525190840152610100830152610120820152f35b5080fd5b82346101ea5760603660031901126101ea57602061066c604435602435600435612737565b82346101ea5760203660031901126101ea57611037611868565b6033546001600160a01b03919061105190831633146118fb565b1680825260416020526040822060ff1981541690556040519081527f83a53b7d80f6805eccf4bb6bbaa7a90aa8e2799c1939ec7d008858dee4e0e35b60203392a280f35b82346101ea57806003193601126101ea57602061066c612ae9565b905034610ff4576020366003190112610ff457610100916040906001600160a01b036110da611868565b168152604260205220805491600182015491600281015460038201546004830154906005840154926007600686015495015496604051988952602089015260408801526060870152608086015260a085015260c0840152820152f35b82346101ea5760403660031901126101ea57611150611868565b6024356001600160a01b0381811693918490036101c8576040921681528160205220906000526020526020604060002054604051908152f35b82346101ea57806003193601126101ea5760406111a461202b565b82519182526020820152f35b82346101ea57806003193601126101ea576020603854604051908152f35b82346101ea57806003193601126101ea576036546040516001600160a01b039091168152602090f35b82806112023661187e565b6037549192916001600160a01b0390611222908590309033908516611b26565b60375460345460405163095ea7b360e01b81529083166001600160a01b031660048201526024810186905290602090829084168187816044810103925af18015610ad1576112bc575b508060345416906037541693813b15610aae5761129f94604051958694859384936304dcf83760e01b855260048501611de0565b039134905af18015610aa3576112b3575080f35b610c4a906119ce565b6112d39060203d8111610e2d57610e1e8183611a13565b508561126b565b82346101ea5760203660031901126101ea576112f4611868565b6033546001600160a01b03919061130e90831633146118fb565b166bffffffffffffffffffffffff60a01b603654161760365580f35b82346101ea57806003193601126101ea576020603d54604051908152f35b82346101ea57806003193601126101ea576034546040516001600160a01b039091168152602090f35b82346101ea57806003193601126101ea576020603c54604051908152f35b82346101ea5760a03660031901126101ea576004356001600160a01b038181169291839003610ff4576024908135818116809103610aae576044928335838116809103611800576064968735928584168094036117fc576084988935968716978888036117f85789549860ff8a60081c1615998a809b6117eb575b80156117d4575b1561177c5760ff1981166001178c558a61176b575b5084156117165787156116bd5785156116565786156115f857156115a25760405163313ce56760e01b8152602081600481895afa9081156115975760129160ff918d91611579575b501611611513575050506114d5959697506bffffffffffffffffffffffff60a01b928360365416176036556114b260ff895460081c166114ad81611a4d565b611a4d565b600180558260345416176034558160375416176037556035541617603555611936565b6114dc5780f35b61ff001981541681557f7f26b83ff96e1f2b6a682f133852f6798a09c465da95921460cefb3847402498602060405160018152a180f35b6040805162461bcd60e51b815260206004820152938401527f4475657450726f5374616b696e673a207573644c696b65556e6465726c79696e908301527f675f20646563696d616c73206d757374206265206c657373207468616e203138908201528890fd5b611591915060203d8111610434576104268183611a13565b8e61146e565b6040513d8d823e3d90fd5b8a92917f4475657450726f5374616b696e673a2061646d696e2063616e6e6f74206265206b7a65726f206164647265737360a01b92602c6040519562461bcd60e51b875260206004880152860152840152820152fd5b60405162461bcd60e51b8152602060048201526034818601527f4475657450726f5374616b696e673a20626f6f737465724f7261636c6520636181840152736e6e6f74206265207a65726f206164647265737360601b818501528c90fd5b60405162461bcd60e51b8152602060048201526039818601527f4475657450726f5374616b696e673a207573644c696b65556e6465726c79696e818401527f675f2063616e6e6f74206265207a65726f206164647265737300000000000000818501528c90fd5b60405162461bcd60e51b815260206004820152602f818601527f4475657450726f5374616b696e673a20646572694c656e732063616e6e6f7420818401526e6265207a65726f206164647265737360881b818501528c90fd5b60405162461bcd60e51b815260206004820152602b818601527f4475657450726f5374616b696e673a20706f6f6c2063616e6e6f74206265207a818401526a65726f206164647265737360a81b818501528c90fd5b61ffff1916610101178b558c611426565b60405162461bcd60e51b815260206004820152602e818701527f496e697469616c697a61626c653a20636f6e747261637420697320616c726561818501526d191e481a5b9a5d1a585b1a5e995960921b818601528d90fd5b50303b1580156114115750600160ff821614611411565b50600160ff82161061140a565b8980fd5b8780fd5b8580fd5b82346101ea5760403660031901126101ea5760406111a4602435600435611f92565b82346101ea57806003193601126101ea576020603e54604051908152f35b50346101c85760003660031901126101c8576020604051670de0b6b3a76400008152f35b600435906001600160a01b03821682036101c857565b906003196040818401126101c85760043592602435916001600160401b0383116101c857826040920301126101c85760040190565b60005b8381106118c65750506000910152565b81810151838201526020016118b6565b906020916118ef815180928185528580860191016118b3565b601f01601f1916010190565b1561190257565b60405162461bcd60e51b815260206004820152600c60248201526b15539055551213d49256915160a21b6044820152606490fd5b6001600160a01b0316801561197f57603380546001600160a01b03191682179055337f101b8081ff3b56bbf45deb824d86a3b0fd38b7e3dd42421105cf8abe9106db0b600080a3565b60405162461bcd60e51b815260206004820152602160248201527f43616e206e6f74207365742061646d696e20746f207a65726f206164647265736044820152607360f81b6064820152608490fd5b6001600160401b0381116119e157604052565b634e487b7160e01b600052604160045260246000fd5b61010081019081106001600160401b038211176119e157604052565b90601f801991011681019081106001600160401b038211176119e157604052565b908160209103126101c8575160ff811681036101c85790565b15611a5457565b60405162461bcd60e51b815260206004820152602b60248201527f496e697469616c697a61626c653a20636f6e7472616374206973206e6f74206960448201526a6e697469616c697a696e6760a81b6064820152608490fd5b91908201809211611aba57565b634e487b7160e01b600052601160045260246000fd5b600260015414611ae1576002600155565b60405162461bcd60e51b815260206004820152601f60248201527f5265656e7472616e637947756172643a207265656e7472616e742063616c6c006044820152606490fd5b6040516323b872dd60e01b60208201526001600160a01b03928316602482015292909116604483015260648083019390935291815260a08101918183106001600160401b038411176119e157611b7e92604052611bb3565b565b6001600160401b0381116119e157601f01601f191660200190565b908160209103126101c8575180151581036101c85790565b60408051908101916001600160a01b03166001600160401b038311828410176119e157611c41926040526000806020958685527f5361666545524332303a206c6f772d6c6576656c2063616c6c206661696c656487860152868151910182855af13d15611cbd573d91611c2583611b80565b92611c336040519485611a13565b83523d60008785013e611cc1565b80519081611c4e57505050565b8280611c5e938301019101611b9b565b15611c665750565b6084906040519062461bcd60e51b82526004820152602a60248201527f5361666545524332303a204552433230206f7065726174696f6e20646964206e6044820152691bdd081cdd58d8d9595960b21b6064820152fd5b6060915b91929015611d235750815115611cd5575090565b3b15611cde5790565b60405162461bcd60e51b815260206004820152601d60248201527f416464726573733a2063616c6c20746f206e6f6e2d636f6e74726163740000006044820152606490fd5b825190915015611d365750805190602001fd5b60405162461bcd60e51b815260206004820152908190611d5a9060248301906118d6565b0390fd5b91908203918211611aba57565b60405163a9059cbb60e01b60208201526001600160a01b03929092166024830152604480830193909352918152611b7e91611da7606483611a13565b611bb3565b9035601e19823603018112156101c85701602081359101916001600160401b0382116101c8578160051b360383136101c857565b6001600160a01b03909116815260208082019290925260606040820152909160a0820190611e0e8180611dac565b809193604060608701525260c084019060c08160051b8601019380926000915b838310611e775750505050508084611e47920190611dac565b838303605f1901608090940193909352828252916001600160fb1b0381116101c85760051b809284830137010190565b909192939560bf198882030183528635601e19833603018112156101c85782018981019190356001600160401b0381116101c85780360383136101c8578a828280600196849695859652848401376000828201840152601f01601f191601019801959491909101920190611e2e565b8115611ef0570490565b634e487b7160e01b600052601260045260246000fd5b916000198284099282810292838086109503948086039514611f7b57848311156101c857829109600182190182168092046003810a6002908083028203028083028203028083028203028083028203028083028203028092029003029360018380600003040190848311900302920304170290565b505080919250156101c857611f8f91611ee6565b90565b90809291611fa9611fa161202b565b939092611d5e565b9060385491611fbb6039548094611d5e565b6000929091908115611fec57611fd19350611f06565b935b6000928115611fe657611f8f9350611f06565b50505090565b50505093611fd3565b81810292918115918404141715611aba57565b8051156120155760200190565b634e487b7160e01b600052603260045260246000fd5b603f54612036612ae9565b14612356576038541561234e5761204b6123d5565b60608101519060c0810151151580612340575b612294575b50906000918281131561224557801561224057603a54603b54936120878583611aad565b808403938282128186128116908287139015161761222c571461222557808313156121f25780835b1261210f578460011b90858204600214861517156120fb5750816120ef6120e8836120e1611f8f97966120f596611aad565b9086611f06565b8094611d5e565b90611aad565b93611aad565b634e487b7160e01b81526011600452602490fd5b509061212f6121286121218685611aad565b8684611f06565b8092611d5e565b918281106121a25781851061215157611f8f9261214b91611d5e565b93611d5e565b60405162461bcd60e51b81526020600482015260356024820152600080516020612b97833981519152604482015274081b9959d85d1a5d9948189bdbdcdd1959081c1b9b605a1b6064820152608490fd5b60405162461bcd60e51b81526020600482015260346024820152600080516020612b97833981519152604482015273081b9959d85d1a5d99481b9bdc9b585b081c1b9b60621b6064820152608490fd5b82810381841282821281169083831390151617612211578190936120af565b634e487b7160e01b82526011600452602482fd5b5090509190565b634e487b7160e01b83526011600452602483fd5b508190565b60405162461bcd60e51b81526020600482015260336024820152600080516020612b978339815191526044820152720206e656761746976652062616c616e6365423606c1b6064820152608490fd5b60e00180516001600160a01b039081906122ad90612008565b5151169060375416036122e7576122c660c09151612008565b5101519060008282019283129112908015821691151617611aba5738612063565b60405162461bcd60e51b815260206004820152603b6024820152600080516020612b9783398151915260448201527f206d61726b657420756e6465726c79696e67206d69736d6174636800000000006064820152608490fd5b5060e081015151151561205e565b600090600090565b603a5490603b5490565b61236861202b565b603b55603a5542603e5561237a612ae9565b603f55565b51906001600160a01b03821682036101c857565b81601f820112156101c85780516123a981611b80565b926123b76040519485611a13565b818452602082840101116101c857611f8f91602080850191016118b3565b606060e06040516123e5816119f7565b60008152600060208201526000604082015260008382015260006080820152600060a0820152600060c0820152015260018060a01b0360008160355416916034541660446040518094819363bea66a0160e01b835260048301523060248301525afa90811561268b57600091612459575090565b90503d806000833e61246b8183611a13565b60208282810103126101c85781516001600160401b0381116101c8578201906101008282850103126101c857604051926124a4846119f7565b6124ad8361237f565b8452602083015160208501526124c56040840161237f565b6040850152606083015160608501526080830151608085015260a083015160a085015260c083015160c085015260e0830151926001600160401b0384116101c857828201601f8583010112156101c85783810151916001600160401b0383116119e157604051948360051b9361253e6020860188611a13565b865260208601918581016020868487010101116101c857602082850101925b6020868487010101841061257a575050505050505060e082015290565b8351906001600160401b0382116101c85760e08685018301848a0103601f1901126101c857604051918260e08101106001600160401b0360e0850111176119e15760e083016040526125d2602082878a01010161237f565b83526125e4604082878a01010161237f565b60208401526060818689010101516001600160401b0381116101c8576126169060208b87019184898c01010101612393565b6040840152608081868901010151916001600160401b0383116101c85760209360e0836126528b888f988199988d839a8e019401010101612393565b606084015260a0818a8d01010151608084015260c0818a8d0101015160a0840152888b0101015160c0820152815201940193905061255d565b6040513d6000823e3d90fd5b604d8111611aba57600a0a90565b816012146126ec57816012116126cd576011198201918211611aba57610666611f8f92612697565b906012039060128211611aba576126e6611f8f92612697565b90611ff5565b905090565b9060128114612733576012811161271a576012039060128211611aba57610666611f8f92612697565b601119810191908211611aba576126e6611f8f92612697565b5090565b9080831461276b5780831161275b57612756611f8f9361066692611d5e565b612697565b6127566126e691611f8f94611d5e565b50905090565b6036546040516341976e0960e01b81526001600160a01b0392831660048201529160209183916024918391165afa90811561268b576000916127dd575b50670de0b6b3a7640000916127c291611ff5565b046402540be40090818102918183041490151715611aba5790565b906020823d821161280e575b816127f660209383611a13565b810103126101ea575051670de0b6b3a76400006127ae565b3d91506127e9565b61281e612ae9565b9060018060a01b0316600052604260205260056040600020015542600460406000200155565b6001600160a01b03166000908152604260205260408120603f54612866612ae9565b03612a9a576005810154612878612ae9565b03612a445780548015612a3d5760018201918254916128a18361289b8184611d5e565b92611f92565b60028495929501918254808314612a325780831161299d5750508415612986576128cb9154611d5e565b838110612997575082935b603954801561298f576128ed9086603b5491611f06565b925b831561298657612970966129569587856129389615158061297e575b156129755761291a9350611f06565b915b612927858254611aad565b905561293d84612938848454611d5e565b611aad565b905561294b83603954611aad565b603955603854611d5e565b60385561296581603b54611aad565b603b55603a54611d5e565b603a55565b5050509161291c565b50600161290b565b50505050505050565b5084926128ef565b936128d6565b6129709850612a1896506129389450829793506129bf906129c7929693611d5e565b968786611f06565b916129ee836129e86129de60385460395490611d5e565b8a603a5491611f06565b96611d5e565b90556129fc82603954611d5e565b603955612a0e84612938848454611d5e565b9055603854611d5e565b603855612a2781603b54611d5e565b603b55603a54611aad565b505050505050505050565b5060010155565b60405162461bcd60e51b815260206004820152602860248201527f4475657450726f5374616b696e673a2075706461746520757365722073686172604482015267195cc8199a5c9cdd60c21b6064820152608490fd5b60405162461bcd60e51b815260206004820152602160248201527f4475657450726f5374616b696e673a2075706461746520706f6f6c20666972736044820152601d60fa1b6064820152608490fd5b61a4b146148015612b8c575b8015612b81575b8015612b75575b8015612b69575b612b12574390565b60405163a3b1b31d60e01b815260208160048160645afa90811561268b57600091612b3b575090565b906020823d8211612b61575b81612b5460209383611a13565b810103126101ea57505190565b3d9150612b47565b5062066eed4614612b0a565b5062066eeb4614612b03565b5061a4ba4614612afc565b5060c84614612af556fe4475657450726f5374616b696e673a2063616c6320706f6f6c206572726f722ca2646970667358221220bf093dad3168b89adcec73baddbcf9f51367065cdbf479f7d36f88e919ad374164736f6c63430008110033",
  "devdoc": {
    "kind": "dev",
    "methods": {},
    "version": 1
  },
  "userdoc": {
    "kind": "user",
    "methods": {},
    "version": 1
  },
  "storageLayout": {
    "storage": [
      {
        "astId": 158,
        "contract": "contracts/DuetProStaking.sol:DuetProStaking",
        "label": "_initialized",
        "offset": 0,
        "slot": "0",
        "type": "t_uint8"
      },
      {
        "astId": 161,
        "contract": "contracts/DuetProStaking.sol:DuetProStaking",
        "label": "_initializing",
        "offset": 1,
        "slot": "0",
        "type": "t_bool"
      },
      {
        "astId": 461,
        "contract": "contracts/DuetProStaking.sol:DuetProStaking",
        "label": "_status",
        "offset": 0,
        "slot": "1",
        "type": "t_uint256"
      },
      {
        "astId": 519,
        "contract": "contracts/DuetProStaking.sol:DuetProStaking",
        "label": "__gap",
        "offset": 0,
        "slot": "2",
        "type": "t_array(t_uint256)49_storage"
      },
      {
        "astId": 1276,
        "contract": "contracts/DuetProStaking.sol:DuetProStaking",
        "label": "admin",
        "offset": 0,
        "slot": "51",
        "type": "t_address"
      },
      {
        "astId": 1557,
        "contract": "contracts/DuetProStaking.sol:DuetProStaking",
        "label": "pool",
        "offset": 0,
        "slot": "52",
        "type": "t_contract(IPool)3722"
      },
      {
        "astId": 1560,
        "contract": "contracts/DuetProStaking.sol:DuetProStaking",
        "label": "deriLens",
        "offset": 0,
        "slot": "53",
        "type": "t_contract(IDeriLens)3549"
      },
      {
        "astId": 1563,
        "contract": "contracts/DuetProStaking.sol:DuetProStaking",
        "label": "boosterOracle",
        "offset": 0,
        "slot": "54",
        "type": "t_contract(IBoosterOracle)3250"
      },
      {
        "astId": 1566,
        "contract": "contracts/DuetProStaking.sol:DuetProStaking",
        "label": "usdLikeUnderlying",
        "offset": 0,
        "slot": "55",
        "type": "t_contract(IERC20MetadataUpgradeable)623"
      },
      {
        "astId": 1568,
        "contract": "contracts/DuetProStaking.sol:DuetProStaking",
        "label": "totalShares",
        "offset": 0,
        "slot": "56",
        "type": "t_uint256"
      },
      {
        "astId": 1570,
        "contract": "contracts/DuetProStaking.sol:DuetProStaking",
        "label": "totalBoostedShares",
        "offset": 0,
        "slot": "57",
        "type": "t_uint256"
      },
      {
        "astId": 1572,
        "contract": "contracts/DuetProStaking.sol:DuetProStaking",
        "label": "lastNormalLiquidity",
        "offset": 0,
        "slot": "58",
        "type": "t_uint256"
      },
      {
        "astId": 1574,
        "contract": "contracts/DuetProStaking.sol:DuetProStaking",
        "label": "lastBoostedLiquidity",
        "offset": 0,
        "slot": "59",
        "type": "t_uint256"
      },
      {
        "astId": 1576,
        "contract": "contracts/DuetProStaking.sol:DuetProStaking",
        "label": "totalStakedBoosterValue",
        "offset": 0,
        "slot": "60",
        "type": "t_uint256"
      },
      {
        "astId": 1578,
        "contract": "contracts/DuetProStaking.sol:DuetProStaking",
        "label": "totalStakedBoosterAmount",
        "offset": 0,
        "slot": "61",
        "type": "t_uint256"
      },
      {
        "astId": 1580,
        "contract": "contracts/DuetProStaking.sol:DuetProStaking",
        "label": "lastActionTime",
        "offset": 0,
        "slot": "62",
        "type": "t_uint256"
      },
      {
        "astId": 1582,
        "contract": "contracts/DuetProStaking.sol:DuetProStaking",
        "label": "lastActionBlock",
        "offset": 0,
        "slot": "63",
        "type": "t_uint256"
      },
      {
        "astId": 1588,
        "contract": "contracts/DuetProStaking.sol:DuetProStaking",
        "label": "userStakedBooster",
        "offset": 0,
        "slot": "64",
        "type": "t_mapping(t_address,t_mapping(t_address,t_uint256))"
      },
      {
        "astId": 1592,
        "contract": "contracts/DuetProStaking.sol:DuetProStaking",
        "label": "supportedBoosterTokens",
        "offset": 0,
        "slot": "65",
        "type": "t_mapping(t_address,t_bool)"
      },
      {
        "astId": 1597,
        "contract": "contracts/DuetProStaking.sol:DuetProStaking",
        "label": "userInfos",
        "offset": 0,
        "slot": "66",
        "type": "t_mapping(t_address,t_struct(UserInfo)1614_storage)"
      }
    ],
    "types": {
      "t_address": {
        "encoding": "inplace",
        "label": "address",
        "numberOfBytes": "20"
      },
      "t_array(t_uint256)49_storage": {
        "base": "t_uint256",
        "encoding": "inplace",
        "label": "uint256[49]",
        "numberOfBytes": "1568"
      },
      "t_bool": {
        "encoding": "inplace",
        "label": "bool",
        "numberOfBytes": "1"
      },
      "t_contract(IBoosterOracle)3250": {
        "encoding": "inplace",
        "label": "contract IBoosterOracle",
        "numberOfBytes": "20"
      },
      "t_contract(IDeriLens)3549": {
        "encoding": "inplace",
        "label": "contract IDeriLens",
        "numberOfBytes": "20"
      },
      "t_contract(IERC20MetadataUpgradeable)623": {
        "encoding": "inplace",
        "label": "contract IERC20MetadataUpgradeable",
        "numberOfBytes": "20"
      },
      "t_contract(IPool)3722": {
        "encoding": "inplace",
        "label": "contract IPool",
        "numberOfBytes": "20"
      },
      "t_mapping(t_address,t_bool)": {
        "encoding": "mapping",
        "key": "t_address",
        "label": "mapping(address => bool)",
        "numberOfBytes": "32",
        "value": "t_bool"
      },
      "t_mapping(t_address,t_mapping(t_address,t_uint256))": {
        "encoding": "mapping",
        "key": "t_address",
        "label": "mapping(address => mapping(address => uint256))",
        "numberOfBytes": "32",
        "value": "t_mapping(t_address,t_uint256)"
      },
      "t_mapping(t_address,t_struct(UserInfo)1614_storage)": {
        "encoding": "mapping",
        "key": "t_address",
        "label": "mapping(address => struct DuetProStaking.UserInfo)",
        "numberOfBytes": "32",
        "value": "t_struct(UserInfo)1614_storage"
      },
      "t_mapping(t_address,t_uint256)": {
        "encoding": "mapping",
        "key": "t_address",
        "label": "mapping(address => uint256)",
        "numberOfBytes": "32",
        "value": "t_uint256"
      },
      "t_struct(UserInfo)1614_storage": {
        "encoding": "inplace",
        "label": "struct DuetProStaking.UserInfo",
        "members": [
          {
            "astId": 1599,
            "contract": "contracts/DuetProStaking.sol:DuetProStaking",
            "label": "shares",
            "offset": 0,
            "slot": "0",
            "type": "t_uint256"
          },
          {
            "astId": 1601,
            "contract": "contracts/DuetProStaking.sol:DuetProStaking",
            "label": "boostedShares",
            "offset": 0,
            "slot": "1",
            "type": "t_uint256"
          },
          {
            "astId": 1603,
            "contract": "contracts/DuetProStaking.sol:DuetProStaking",
            "label": "stakedBoosterValue",
            "offset": 0,
            "slot": "2",
            "type": "t_uint256"
          },
          {
            "astId": 1605,
            "contract": "contracts/DuetProStaking.sol:DuetProStaking",
            "label": "stakedBoosterAmount",
            "offset": 0,
            "slot": "3",
            "type": "t_uint256"
          },
          {
            "astId": 1607,
            "contract": "contracts/DuetProStaking.sol:DuetProStaking",
            "label": "lastActionTime",
            "offset": 0,
            "slot": "4",
            "type": "t_uint256"
          },
          {
            "astId": 1609,
            "contract": "contracts/DuetProStaking.sol:DuetProStaking",
            "label": "lastActionBlock",
            "offset": 0,
            "slot": "5",
            "type": "t_uint256"
          },
          {
            "astId": 1611,
            "contract": "contracts/DuetProStaking.sol:DuetProStaking",
            "label": "accAddedLiquidity",
            "offset": 0,
            "slot": "6",
            "type": "t_uint256"
          },
          {
            "astId": 1613,
            "contract": "contracts/DuetProStaking.sol:DuetProStaking",
            "label": "accRemovedLiquidity",
            "offset": 0,
            "slot": "7",
            "type": "t_uint256"
          }
        ],
        "numberOfBytes": "256"
      },
      "t_uint256": {
        "encoding": "inplace",
        "label": "uint256",
        "numberOfBytes": "32"
      },
      "t_uint8": {
        "encoding": "inplace",
        "label": "uint8",
        "numberOfBytes": "1"
      }
    }
  }
}