{
  "address": "0x9f1c294a4e5fBEb2c4EAc5aAB9FBa407C5CaF39B",
  "abi": [
    {
      "inputs": [],
      "stateMutability": "nonpayable",
      "type": "constructor"
    },
    {
      "anonymous": false,
      "inputs": [
        {
          "indexed": true,
          "internalType": "address",
          "name": "user",
          "type": "address"
        },
        {
          "indexed": false,
          "internalType": "address",
          "name": "token",
          "type": "address"
        }
      ],
      "name": "AddSupportedBoosterToken",
      "type": "event"
    },
    {
      "anonymous": false,
      "inputs": [
        {
          "indexed": true,
          "internalType": "address",
          "name": "user",
          "type": "address"
        },
        {
          "indexed": true,
          "internalType": "address",
          "name": "newAdmin",
          "type": "address"
        }
      ],
      "name": "AdminUpdated",
      "type": "event"
    },
    {
      "anonymous": false,
      "inputs": [
        {
          "indexed": false,
          "internalType": "uint8",
          "name": "version",
          "type": "uint8"
        }
      ],
      "name": "Initialized",
      "type": "event"
    },
    {
      "anonymous": false,
      "inputs": [
        {
          "indexed": true,
          "internalType": "address",
          "name": "user",
          "type": "address"
        },
        {
          "indexed": false,
          "internalType": "address",
          "name": "token",
          "type": "address"
        }
      ],
      "name": "RemoveSupportedBoosterToken",
      "type": "event"
    },
    {
      "inputs": [],
      "name": "LIQUIDITY_DECIMALS",
      "outputs": [
        {
          "internalType": "uint256",
          "name": "",
          "type": "uint256"
        }
      ],
      "stateMutability": "view",
      "type": "function"
    },
    {
      "inputs": [],
      "name": "MIN_BOOSTER_TOKENS",
      "outputs": [
        {
          "internalType": "uint256",
          "name": "",
          "type": "uint256"
        }
      ],
      "stateMutability": "view",
      "type": "function"
    },
    {
      "inputs": [],
      "name": "MIN_LIQUIDITY_OPS",
      "outputs": [
        {
          "internalType": "uint256",
          "name": "",
          "type": "uint256"
        }
      ],
      "stateMutability": "view",
      "type": "function"
    },
    {
      "inputs": [],
      "name": "PRECISION",
      "outputs": [
        {
          "internalType": "uint256",
          "name": "",
          "type": "uint256"
        }
      ],
      "stateMutability": "view",
      "type": "function"
    },
    {
      "inputs": [],
      "name": "PRICE_DECIMALS",
      "outputs": [
        {
          "internalType": "uint256",
          "name": "",
          "type": "uint256"
        }
      ],
      "stateMutability": "view",
      "type": "function"
    },
    {
      "inputs": [
        {
          "internalType": "uint256",
          "name": "underlyingAmount_",
          "type": "uint256"
        },
        {
          "components": [
            {
              "internalType": "bytes[]",
              "name": "vaas",
              "type": "bytes[]"
            },
            {
              "internalType": "bytes32[]",
              "name": "ids",
              "type": "bytes32[]"
            }
          ],
          "internalType": "struct IPool.PythData",
          "name": "pythData",
          "type": "tuple"
        }
      ],
      "name": "addLiquidity",
      "outputs": [],
      "stateMutability": "payable",
      "type": "function"
    },
    {
      "inputs": [
        {
          "internalType": "contract IERC20MetadataUpgradeable",
          "name": "booster_",
          "type": "address"
        }
      ],
      "name": "addSupportedBooster",
      "outputs": [],
      "stateMutability": "nonpayable",
      "type": "function"
    },
    {
      "inputs": [],
      "name": "admin",
      "outputs": [
        {
          "internalType": "address",
          "name": "",
          "type": "address"
        }
      ],
      "stateMutability": "view",
      "type": "function"
    },
    {
      "inputs": [
        {
          "internalType": "uint256",
          "name": "amount_",
          "type": "uint256"
        }
      ],
      "name": "amountToShares",
      "outputs": [
        {
          "internalType": "uint256",
          "name": "",
          "type": "uint256"
        }
      ],
      "stateMutability": "view",
      "type": "function"
    },
    {
      "inputs": [],
      "name": "boosterOracle",
      "outputs": [
        {
          "internalType": "contract IBoosterOracle",
          "name": "",
          "type": "address"
        }
      ],
      "stateMutability": "view",
      "type": "function"
    },
    {
      "inputs": [],
      "name": "calcPool",
      "outputs": [
        {
          "internalType": "uint256",
          "name": "normalLiquidity",
          "type": "uint256"
        },
        {
          "internalType": "uint256",
          "name": "boostedLiquidity",
          "type": "uint256"
        }
      ],
      "stateMutability": "view",
      "type": "function"
    },
    {
      "inputs": [],
      "name": "deriLens",
      "outputs": [
        {
          "internalType": "contract IDeriLens",
          "name": "",
          "type": "address"
        }
      ],
      "stateMutability": "view",
      "type": "function"
    },
    {
      "inputs": [
        {
          "internalType": "uint256",
          "name": "amount_",
          "type": "uint256"
        },
        {
          "components": [
            {
              "internalType": "bytes[]",
              "name": "vaas",
              "type": "bytes[]"
            },
            {
              "internalType": "bytes32[]",
              "name": "ids",
              "type": "bytes32[]"
            }
          ],
          "internalType": "struct IPool.PythData",
          "name": "pythData",
          "type": "tuple"
        }
      ],
      "name": "forceAddLiquidity",
      "outputs": [],
      "stateMutability": "payable",
      "type": "function"
    },
    {
      "inputs": [],
      "name": "getRemoteInfo",
      "outputs": [
        {
          "components": [
            {
              "internalType": "address",
              "name": "account",
              "type": "address"
            },
            {
              "internalType": "uint256",
              "name": "lTokenId",
              "type": "uint256"
            },
            {
              "internalType": "address",
              "name": "vault",
              "type": "address"
            },
            {
              "internalType": "int256",
              "name": "amountB0",
              "type": "int256"
            },
            {
              "internalType": "int256",
              "name": "liquidity",
              "type": "int256"
            },
            {
              "internalType": "int256",
              "name": "cumulativePnlPerLiquidity",
              "type": "int256"
            },
            {
              "internalType": "uint256",
              "name": "vaultLiquidity",
              "type": "uint256"
            },
            {
              "components": [
                {
                  "internalType": "address",
                  "name": "underlying",
                  "type": "address"
                },
                {
                  "internalType": "address",
                  "name": "vToken",
                  "type": "address"
                },
                {
                  "internalType": "string",
                  "name": "underlyingSymbol",
                  "type": "string"
                },
                {
                  "internalType": "string",
                  "name": "vTokenSymbol",
                  "type": "string"
                },
                {
                  "internalType": "uint256",
                  "name": "underlyingPrice",
                  "type": "uint256"
                },
                {
                  "internalType": "uint256",
                  "name": "exchangeRate",
                  "type": "uint256"
                },
                {
                  "internalType": "uint256",
                  "name": "vTokenBalance",
                  "type": "uint256"
                }
              ],
              "internalType": "struct IDeriLens.MarketInfo[]",
              "name": "markets",
              "type": "tuple[]"
            }
          ],
          "internalType": "struct IDeriLens.LpInfo",
          "name": "lpInfo",
          "type": "tuple"
        }
      ],
      "stateMutability": "view",
      "type": "function"
    },
    {
      "inputs": [
        {
          "internalType": "address",
          "name": "user_",
          "type": "address"
        }
      ],
      "name": "getUserInfo",
      "outputs": [
        {
          "components": [
            {
              "internalType": "uint256",
              "name": "shares",
              "type": "uint256"
            },
            {
              "internalType": "uint256",
              "name": "boostedShares",
              "type": "uint256"
            },
            {
              "internalType": "uint256",
              "name": "stakedBoosterValue",
              "type": "uint256"
            },
            {
              "internalType": "uint256",
              "name": "stakedBoosterAmount",
              "type": "uint256"
            },
            {
              "internalType": "uint256",
              "name": "lastActionTime",
              "type": "uint256"
            },
            {
              "internalType": "uint256",
              "name": "lastActionBlock",
              "type": "uint256"
            },
            {
              "internalType": "uint256",
              "name": "accAddedLiquidity",
              "type": "uint256"
            },
            {
              "internalType": "uint256",
              "name": "accRemovedLiquidity",
              "type": "uint256"
            }
          ],
          "internalType": "struct DuetProStaking.UserInfo",
          "name": "info",
          "type": "tuple"
        },
        {
          "internalType": "uint256",
          "name": "normalLiquidity",
          "type": "uint256"
        },
        {
          "internalType": "uint256",
          "name": "boostedLiquidity",
          "type": "uint256"
        }
      ],
      "stateMutability": "view",
      "type": "function"
    },
    {
      "inputs": [
        {
          "internalType": "contract IPool",
          "name": "pool_",
          "type": "address"
        },
        {
          "internalType": "contract IDeriLens",
          "name": "deriLens_",
          "type": "address"
        },
        {
          "internalType": "contract IERC20MetadataUpgradeable",
          "name": "usdLikeUnderlying_",
          "type": "address"
        },
        {
          "internalType": "contract IBoosterOracle",
          "name": "boosterOracle_",
          "type": "address"
        },
        {
          "internalType": "address",
          "name": "admin_",
          "type": "address"
        }
      ],
      "name": "initialize",
      "outputs": [],
      "stateMutability": "nonpayable",
      "type": "function"
    },
    {
      "inputs": [],
      "name": "lastActionBlock",
      "outputs": [
        {
          "internalType": "uint256",
          "name": "",
          "type": "uint256"
        }
      ],
      "stateMutability": "view",
      "type": "function"
    },
    {
      "inputs": [],
      "name": "lastActionTime",
      "outputs": [
        {
          "internalType": "uint256",
          "name": "",
          "type": "uint256"
        }
      ],
      "stateMutability": "view",
      "type": "function"
    },
    {
      "inputs": [],
      "name": "lastBoostedLiquidity",
      "outputs": [
        {
          "internalType": "uint256",
          "name": "",
          "type": "uint256"
        }
      ],
      "stateMutability": "view",
      "type": "function"
    },
    {
      "inputs": [],
      "name": "lastNormalLiquidity",
      "outputs": [
        {
          "internalType": "uint256",
          "name": "",
          "type": "uint256"
        }
      ],
      "stateMutability": "view",
      "type": "function"
    },
    {
      "inputs": [
        {
          "internalType": "uint256",
          "name": "value_",
          "type": "uint256"
        },
        {
          "internalType": "uint256",
          "name": "sourceDecimals_",
          "type": "uint256"
        },
        {
          "internalType": "uint256",
          "name": "targetDecimals_",
          "type": "uint256"
        }
      ],
      "name": "normalizeDecimals",
      "outputs": [
        {
          "internalType": "uint256",
          "name": "",
          "type": "uint256"
        }
      ],
      "stateMutability": "pure",
      "type": "function"
    },
    {
      "inputs": [],
      "name": "pool",
      "outputs": [
        {
          "internalType": "contract IPool",
          "name": "",
          "type": "address"
        }
      ],
      "stateMutability": "view",
      "type": "function"
    },
    {
      "inputs": [
        {
          "internalType": "uint256",
          "name": "amount_",
          "type": "uint256"
        },
        {
          "components": [
            {
              "internalType": "bytes[]",
              "name": "vaas",
              "type": "bytes[]"
            },
            {
              "internalType": "bytes32[]",
              "name": "ids",
              "type": "bytes32[]"
            }
          ],
          "internalType": "struct IPool.PythData",
          "name": "pythData",
          "type": "tuple"
        }
      ],
      "name": "removeLiquidity",
      "outputs": [],
      "stateMutability": "nonpayable",
      "type": "function"
    },
    {
      "inputs": [
        {
          "internalType": "contract IERC20MetadataUpgradeable",
          "name": "booster_",
          "type": "address"
        }
      ],
      "name": "removeSupportedBooster",
      "outputs": [],
      "stateMutability": "nonpayable",
      "type": "function"
    },
    {
      "inputs": [
        {
          "internalType": "address",
          "name": "newAdmin",
          "type": "address"
        }
      ],
      "name": "setAdmin",
      "outputs": [],
      "stateMutability": "nonpayable",
      "type": "function"
    },
    {
      "inputs": [
        {
          "internalType": "contract IBoosterOracle",
          "name": "boosterOracle_",
          "type": "address"
        }
      ],
      "name": "setBoosterOracle",
      "outputs": [],
      "stateMutability": "nonpayable",
      "type": "function"
    },
    {
      "inputs": [
        {
          "internalType": "uint256",
          "name": "shares_",
          "type": "uint256"
        },
        {
          "internalType": "uint256",
          "name": "boostedShares_",
          "type": "uint256"
        }
      ],
      "name": "sharesToLiquidity",
      "outputs": [
        {
          "internalType": "uint256",
          "name": "normalLiquidity",
          "type": "uint256"
        },
        {
          "internalType": "uint256",
          "name": "boostedLiquidity",
          "type": "uint256"
        }
      ],
      "stateMutability": "view",
      "type": "function"
    },
    {
      "inputs": [
        {
          "internalType": "contract IERC20MetadataUpgradeable",
          "name": "booster_",
          "type": "address"
        },
        {
          "internalType": "uint256",
          "name": "amount_",
          "type": "uint256"
        }
      ],
      "name": "stakeBooster",
      "outputs": [],
      "stateMutability": "nonpayable",
      "type": "function"
    },
    {
      "inputs": [
        {
          "internalType": "address",
          "name": "",
          "type": "address"
        }
      ],
      "name": "supportedBoosterTokens",
      "outputs": [
        {
          "internalType": "bool",
          "name": "",
          "type": "bool"
        }
      ],
      "stateMutability": "view",
      "type": "function"
    },
    {
      "inputs": [],
      "name": "totalBoostedShares",
      "outputs": [
        {
          "internalType": "uint256",
          "name": "",
          "type": "uint256"
        }
      ],
      "stateMutability": "view",
      "type": "function"
    },
    {
      "inputs": [],
      "name": "totalShares",
      "outputs": [
        {
          "internalType": "uint256",
          "name": "",
          "type": "uint256"
        }
      ],
      "stateMutability": "view",
      "type": "function"
    },
    {
      "inputs": [],
      "name": "totalStakedBoosterAmount",
      "outputs": [
        {
          "internalType": "uint256",
          "name": "",
          "type": "uint256"
        }
      ],
      "stateMutability": "view",
      "type": "function"
    },
    {
      "inputs": [],
      "name": "totalStakedBoosterValue",
      "outputs": [
        {
          "internalType": "uint256",
          "name": "",
          "type": "uint256"
        }
      ],
      "stateMutability": "view",
      "type": "function"
    },
    {
      "inputs": [
        {
          "internalType": "contract IERC20MetadataUpgradeable",
          "name": "booster_",
          "type": "address"
        },
        {
          "internalType": "uint256",
          "name": "amount_",
          "type": "uint256"
        }
      ],
      "name": "unstakeBooster",
      "outputs": [],
      "stateMutability": "nonpayable",
      "type": "function"
    },
    {
      "inputs": [],
      "name": "usdLikeUnderlying",
      "outputs": [
        {
          "internalType": "contract IERC20MetadataUpgradeable",
          "name": "",
          "type": "address"
        }
      ],
      "stateMutability": "view",
      "type": "function"
    },
    {
      "inputs": [
        {
          "internalType": "address",
          "name": "",
          "type": "address"
        }
      ],
      "name": "userInfos",
      "outputs": [
        {
          "internalType": "uint256",
          "name": "shares",
          "type": "uint256"
        },
        {
          "internalType": "uint256",
          "name": "boostedShares",
          "type": "uint256"
        },
        {
          "internalType": "uint256",
          "name": "stakedBoosterValue",
          "type": "uint256"
        },
        {
          "internalType": "uint256",
          "name": "stakedBoosterAmount",
          "type": "uint256"
        },
        {
          "internalType": "uint256",
          "name": "lastActionTime",
          "type": "uint256"
        },
        {
          "internalType": "uint256",
          "name": "lastActionBlock",
          "type": "uint256"
        },
        {
          "internalType": "uint256",
          "name": "accAddedLiquidity",
          "type": "uint256"
        },
        {
          "internalType": "uint256",
          "name": "accRemovedLiquidity",
          "type": "uint256"
        }
      ],
      "stateMutability": "view",
      "type": "function"
    },
    {
      "inputs": [
        {
          "internalType": "address",
          "name": "",
          "type": "address"
        },
        {
          "internalType": "address",
          "name": "",
          "type": "address"
        }
      ],
      "name": "userStakedBooster",
      "outputs": [
        {
          "internalType": "uint256",
          "name": "",
          "type": "uint256"
        }
      ],
      "stateMutability": "view",
      "type": "function"
    }
  ],
  "transactionHash": "0x9e732eb56b6b3473ba9f38f61568d50d89fb2f4c55824f33708cb4138c4025d9",
  "args": [],
  "numDeployments": 1,
  "solcInputHash": "9bccf3e6a590c0da557ab91be566237c",
  "bytecode": "0x60806040523480156200001157600080fd5b506200001c62000022565b620000e4565b600054610100900460ff16156200008f5760405162461bcd60e51b815260206004820152602760248201527f496e697469616c697a61626c653a20636f6e747261637420697320696e697469604482015266616c697a696e6760c81b606482015260840160405180910390fd5b60005460ff9081161015620000e2576000805460ff191660ff9081179091556040519081527f7f26b83ff96e1f2b6a682f133852f6798a09c465da95921460cefb38474024989060200160405180910390a15b565b61318480620000f46000396000f3fe6080604052600436106102195760003560e01c8063704b6c0211610123578063aa0c2f06116100ab578063f06b3b931161006f578063f06b3b93146106c2578063f1a640f8146106e2578063f1f7b6f3146106f7578063f851a44014610737578063f9c1ed6d1461075757600080fd5b8063aa0c2f0614610627578063aaf5eb6814610649578063b811540e14610662578063d5d8e08714610682578063ecd04dd2146106a257600080fd5b80638912232c116100f25780638912232c146105a65780638db8a135146105c6578063961c7cfd146105db578063a58e79c9146105f1578063a6dc73181461061157600080fd5b8063704b6c0214610550578063714f58ae1461021e5780637420783d1461057057806375ceaf6d1461059057600080fd5b80632bc0503e116101a657806343b0215f1161017557806343b0215f146103d157806358d7e40c1461046a5780635a6069751461048a5780636386c1c7146104aa5780636c75f2bb1461053d57600080fd5b80632bc0503e146103515780633a98ef39146103715780633fd664c714610387578063401336ef1461039c57600080fd5b806315e24d56116101ed57806315e24d56146102ba57806316f0115b146102d057806318d78cd0146103085780631946398d1461031e578063218185071461033e57600080fd5b806285cc981461021e578063085f03161461024d57806311df7e9e146102635780631459457a14610298575b600080fd5b34801561022a57600080fd5b5061023a670de0b6b3a764000081565b6040519081526020015b60405180910390f35b34801561025957600080fd5b5061023a603e5481565b34801561026f57600080fd5b5061028361027e366004612688565b61076d565b60408051928352602083019190915201610244565b3480156102a457600080fd5b506102b86102b33660046126bf565b6107e8565b005b3480156102c657600080fd5b5061023a603c5481565b3480156102dc57600080fd5b506034546102f0906001600160a01b031681565b6040516001600160a01b039091168152602001610244565b34801561031457600080fd5b5061023a603d5481565b34801561032a57600080fd5b506102b8610339366004612730565b610c73565b6102b861034c36600461274d565b610cbf565b34801561035d57600080fd5b506036546102f0906001600160a01b031681565b34801561037d57600080fd5b5061023a60385481565b34801561039357600080fd5b50610283610d72565b3480156103a857600080fd5b5061023a6103b736600461279b565b604060208181526000938452818420905290825290205481565b3480156103dd57600080fd5b5061042f6103ec366004612730565b6042602052600090815260409020805460018201546002830154600384015460048501546005860154600687015460079097015495969495939492939192909188565b604080519889526020890197909752958701949094526060860192909252608085015260a084015260c083015260e082015261010001610244565b34801561047657600080fd5b506102b8610485366004612730565b611001565b34801561049657600080fd5b5061023a6104a53660046127c9565b611085565b3480156104b657600080fd5b506104ca6104c5366004612730565b6110ec565b60405161024493929190600061014082019050845182526020850151602083015260408501516040830152606085015160608301526080850151608083015260a085015160a083015260c085015160c083015260e085015160e08301528361010083015282610120830152949350505050565b6102b861054b36600461274d565b6111df565b34801561055c57600080fd5b506102b861056b366004612730565b611474565b34801561057c57600080fd5b506102b861058b366004612730565b6114aa565b34801561059c57600080fd5b5061023a603a5481565b3480156105b257600080fd5b506102b86105c136600461274d565b61152a565b3480156105d257600080fd5b5061023a601281565b3480156105e757600080fd5b5061023a603b5481565b3480156105fd57600080fd5b506035546102f0906001600160a01b031681565b34801561061d57600080fd5b5061023a603f5481565b34801561063357600080fd5b5061063c611831565b6040516102449190612903565b34801561065557600080fd5b5061023a64e8d4a5100081565b34801561066e57600080fd5b5061023a61067d366004612974565b61190a565b34801561068e57600080fd5b506037546102f0906001600160a01b031681565b3480156106ae57600080fd5b506102b86106bd36600461298d565b611954565b3480156106ce57600080fd5b506102b86106dd36600461298d565b611b0c565b3480156106ee57600080fd5b5061023a600881565b34801561070357600080fd5b50610727610712366004612730565b60416020526000908152604090205460ff1681565b6040519015158152602001610244565b34801561074357600080fd5b506033546102f0906001600160a01b031681565b34801561076357600080fd5b5061023a60395481565b60008060008061077b610d72565b9092509050600061078c86886129cf565b905060006039546038546107a091906129cf565b9050600082116107b15760006107bc565b6107bc848383611d48565b600088116107cb5760006107d8565b6107d88489603954611d48565b95509550505050505b9250929050565b600054610100900460ff16158080156108085750600054600160ff909116105b806108225750303b158015610822575060005460ff166001145b61088a5760405162461bcd60e51b815260206004820152602e60248201527f496e697469616c697a61626c653a20636f6e747261637420697320616c72656160448201526d191e481a5b9a5d1a585b1a5e995960921b60648201526084015b60405180910390fd5b6000805460ff1916600117905580156108ad576000805461ff0019166101001790555b6001600160a01b0386166109175760405162461bcd60e51b815260206004820152602b60248201527f4475657450726f5374616b696e673a20706f6f6c2063616e6e6f74206265207a60448201526a65726f206164647265737360a81b6064820152608401610881565b6001600160a01b0385166109855760405162461bcd60e51b815260206004820152602f60248201527f4475657450726f5374616b696e673a20646572694c656e732063616e6e6f742060448201526e6265207a65726f206164647265737360881b6064820152608401610881565b6001600160a01b038416610a015760405162461bcd60e51b815260206004820152603960248201527f4475657450726f5374616b696e673a207573644c696b65556e6465726c79696e60448201527f675f2063616e6e6f74206265207a65726f2061646472657373000000000000006064820152608401610881565b6001600160a01b038316610a745760405162461bcd60e51b815260206004820152603460248201527f4475657450726f5374616b696e673a20626f6f737465724f7261636c652063616044820152736e6e6f74206265207a65726f206164647265737360601b6064820152608401610881565b6001600160a01b038216610adf5760405162461bcd60e51b815260206004820152602c60248201527f4475657450726f5374616b696e673a2061646d696e2063616e6e6f742062652060448201526b7a65726f206164647265737360a01b6064820152608401610881565b6012846001600160a01b031663313ce5676040518163ffffffff1660e01b8152600401602060405180830381865afa158015610b1f573d6000803e3d6000fd5b505050506040513d601f19601f82011682018060405250810190610b4391906129e2565b60ff161115610bbc576040805162461bcd60e51b81526020600482015260248101919091527f4475657450726f5374616b696e673a207573644c696b65556e6465726c79696e60448201527f675f20646563696d616c73206d757374206265206c657373207468616e2031386064820152608401610881565b603680546001600160a01b0319166001600160a01b038516179055610bdf611e05565b603480546001600160a01b038089166001600160a01b031992831617909255603780548784169083161790556035805492881692909116919091179055610c2582611e36565b8015610c6b576000805461ff0019169055604051600181527f7f26b83ff96e1f2b6a682f133852f6798a09c465da95921460cefb38474024989060200160405180910390a15b505050505050565b6033546001600160a01b03163314610c9d5760405162461bcd60e51b815260040161088190612a05565b603680546001600160a01b0319166001600160a01b0392909216919091179055565b6033546001600160a01b03163314610ce95760405162461bcd60e51b815260040161088190612a05565b603754610d01906001600160a01b0316333085611ee2565b6034546037546040516304dcf83760e01b81526001600160a01b03928316926304dcf837923492610d3c929091169087908790600401612acf565b6000604051808303818588803b158015610d5557600080fd5b505af1158015610d69573d6000803e3d6000fd5b50505050505050565b60008043603f5403610d8a575050603a54603b549091565b6000610d94611831565b90508060800151600003610dad57506000928392509050565b6000603a548260800151610dc19190612bc1565b9050603854600003610dd95750600093849350915050565b80600003610df157603a54603b549350935050509091565b8060008113610f4f57600064e8d4a5100060385464e8d4a5100060395485610e199190612be8565b610e239190612be8565b610e2d9190612c15565b610e379190612c15565b90506000610e4582846129cf565b905080603a541015610eb65760405162461bcd60e51b815260206004820152603460248201527f4475657450726f5374616b696e673a2063616c6320706f6f6c206572726f722c604482015273081b9959d85d1a5d99481b9bdc9b585b081c1b9b60621b6064820152608401610881565b81603b541015610f265760405162461bcd60e51b815260206004820152603560248201527f4475657450726f5374616b696e673a2063616c6320706f6f6c206572726f722c604482015274081b9959d85d1a5d9948189bdbdcdd1959081c1b9b605a1b6064820152608401610881565b80603a54610f3491906129cf565b82603b54610f4291906129cf565b9650965050505050509091565b6000603954603854610f6191906129cf565b905060006039546002610f749190612be8565b610f7e9083612c37565b9050600064e8d4a510008260395464e8d4a5100087610f9d9190612be8565b610fa79190612be8565b610fb2906002612be8565b610fbc9190612c15565b610fc69190612c15565b90506000610fd482866129cf565b905080603a54610fe49190612c37565b82603b54610ff29190612c37565b98509850505050505050509091565b6033546001600160a01b0316331461102b5760405162461bcd60e51b815260040161088190612a05565b6001600160a01b038116600081815260416020908152604091829020805460ff19169055905191825233917f83a53b7d80f6805eccf4bb6bbaa7a90aa8e2799c1939ec7d008858dee4e0e35b91015b60405180910390a250565b60008282036110955750826110e5565b828211156110c3576110a783836129cf565b6110b290600a612d2e565b6110bc9085612be8565b90506110e5565b6110cd82846129cf565b6110d890600a612d2e565b6110e29085612c15565b90505b9392505050565b61113460405180610100016040528060008152602001600081526020016000815260200160008152602001600081526020016000815260200160008152602001600081525090565b6001600160a01b03821660009081526042602052604081208054600190910154829161115f9161076d565b6001600160a01b0395909516600090815260426020908152604091829020825161010081018452815481526001820154928101929092526002810154928201929092526003820154606082015260048201546080820152600582015460a0820152600682015460c082015260079091015460e08201529590949350915050565b6111e7611f53565b670de0b6b3a764000082111561120f5760405162461bcd60e51b815260040161088190612d3a565b611217611fac565b6037543390611231906001600160a01b0316823086611ee2565b60375460345460405163095ea7b360e01b81526001600160a01b0391821660048201526024810186905291169063095ea7b3906044016020604051808303816000875af1158015611286573d6000803e3d6000fd5b505050506040513d601f19601f820116820180604052508101906112aa9190612d97565b506034546037546040516304dcf83760e01b81526001600160a01b03928316926304dcf8379234926112e6929091169088908890600401612acf565b6000604051808303818588803b1580156112ff57600080fd5b505af1158015611313573d6000803e3d6000fd5b5050505050600061139f84603760009054906101000a90046001600160a01b03166001600160a01b031663313ce5676040518163ffffffff1660e01b8152600401602060405180830381865afa158015611371573d6000803e3d6000fd5b505050506040513d601f19601f8201168201806040525081019061139591906129e2565b60ff166012611085565b6001600160a01b038316600090815260426020526040812060395460385493945090926113cc91906129cf565b905060008082116113dd57836113ea565b6113ea8483603a54611d48565b905083603a60008282546113fe9190612c37565b9250508190555080603860008282546114179190612c37565b9091555050825481908490600090611430908490612c37565b9091555061143f905085611fc4565b838360060160008282546114539190612c37565b90915550611462905085611fea565b505050505061147060018055565b5050565b6033546001600160a01b0316331461149e5760405162461bcd60e51b815260040161088190612a05565b6114a781611e36565b50565b6033546001600160a01b031633146114d45760405162461bcd60e51b815260040161088190612a05565b6001600160a01b038116600081815260416020908152604091829020805460ff19166001179055905191825233917f4a9622c6945580f38c98aa249f85babc8ae91f5dc0a8c4665b6dc699b2dfce0c910161107a565b611532611f53565b670de0b6b3a764000082111561155a5760405162461bcd60e51b815260040161088190612d3a565b611562611fac565b60006115bb83603760009054906101000a90046001600160a01b03166001600160a01b031663313ce5676040518163ffffffff1660e01b8152600401602060405180830381865afa158015611371573d6000803e3d6000fd5b336000818152604260205260408120805460018201549495509293909282916115e4919061076d565b90925090506115f38183612c37565b8511156116515760405162461bcd60e51b815260206004820152602660248201527f4475657450726f5374616b696e673a20696e73756666696369656e74206c697160448201526575696469747960d01b6064820152608401610881565b60018301548354600091611664916129cf565b9050600080600080868a116116885761167e858b89611d48565b93508992506116ac565b849350869250611698838b6129cf565b90506116a988600101548288611d48565b91505b6116b68285612c37565b8860000160008282546116c991906129cf565b909155506116d990508285612c37565b603860008282546116ea91906129cf565b9250508190555082603a600082825461170391906129cf565b925050819055508188600101600082825461171e91906129cf565b92505081905550816039600082825461173791906129cf565b9250508190555080603b600082825461175091906129cf565b9091555061175f905089611fc4565b898860070160008282546117739190612c37565b92505081905550603460009054906101000a90046001600160a01b03166001600160a01b031663d591ecb5603760009054906101000a90046001600160a01b03168e8e6040518463ffffffff1660e01b81526004016117d493929190612acf565b600060405180830381600087803b1580156117ee57600080fd5b505af1158015611802573d6000803e3d6000fd5b505060375461181e92506001600160a01b031690508a8e61238d565b5050505050505050505061147060018055565b61188b60405180610100016040528060006001600160a01b031681526020016000815260200160006001600160a01b0316815260200160008152602001600081526020016000815260200160008152602001606081525090565b60355460345460405163bea66a0160e01b81526001600160a01b03918216600482015230602482015291169063bea66a0190604401600060405180830381865afa1580156118dd573d6000803e3d6000fd5b505050506040513d6000823e601f3d908101601f191682016040526119059190810190612ff9565b905090565b6000806000611917610d72565b9150915060006038541161192b578361194c565b6119358183612c37565b6038546119429086612be8565b61194c9190612c15565b949350505050565b61195c611f53565b336000818152604060208181528183206001600160a01b038716845290529020548211156119e05760405162461bcd60e51b815260206004820152602b60248201527f4475657450726f5374616b696e673a20696e73756666696369656e742073746160448201526a35b2b2103137b7b9ba32b960a91b6064820152608401610881565b6001600160a01b0381166000908152604260205260409020611a00611fac565b6001600160a01b038083166000908152604060208181528183209388168352929092529081208054859290611a369084906129cf565b9250508190555082816003016000828254611a5191906129cf565b9250508190555082603d6000828254611a6a91906129cf565b9091555060009050611a7c85856123c2565b905080826002015411611a955760006002830155611aaf565b80826002016000828254611aa991906129cf565b90915550505b80603c5411611ac2576000603c55611ada565b80603c6000828254611ad491906129cf565b90915550505b611aee6001600160a01b038616848661238d565b611af783611fc4565b611b0083611fea565b50505061147060018055565b611b14611f53565b6001600160a01b03821660009081526041602052604090205460ff16611b885760405162461bcd60e51b815260206004820152602360248201527f4475657450726f5374616b696e673a20756e737570706f7274656420626f6f736044820152623a32b960e91b6064820152608401610881565b6000611bcc82846001600160a01b031663313ce5676040518163ffffffff1660e01b8152600401602060405180830381865afa158015611371573d6000803e3d6000fd5b9050670de0b6b3a7640000811015611c4c5760405162461bcd60e51b815260206004820152603e60248201527f4475657450726f5374616b696e673a20616d6f756e74206d757374206265206760448201527f726561746572207468616e204d494e5f424f4f535445525f544f4b454e5300006064820152608401610881565b336000818152604260205260409020611c63611fac565b611c786001600160a01b038616833087611ee2565b6001600160a01b038083166000908152604060208181528183209389168352929092529081208054859290611cae908490612c37565b9250508190555082816003016000828254611cc99190612c37565b9250508190555082603d6000828254611ce29190612c37565b9091555060009050611cf486856123c2565b905080826002016000828254611d0a9190612c37565b9250508190555080603c6000828254611d239190612c37565b90915550611d32905083611fc4565b611d3b83611fea565b5050505061147060018055565b6000808060001985870985870292508281108382030391505080600003611d8f5760008411611d7657600080fd5b838281611d8557611d85612bff565b04925050506110e5565b808411611d9b57600080fd5b600084868809600360018719810188169788900491820a808302600290810390910280840282030280840282030280840282030280840282030292830290039091026000889003889004909101858311909403939093029303949094049190911702949350505050565b600054610100900460ff16611e2c5760405162461bcd60e51b8152600401610881906130bb565b611e3461246c565b565b6001600160a01b038116611e965760405162461bcd60e51b815260206004820152602160248201527f43616e206e6f74207365742061646d696e20746f207a65726f206164647265736044820152607360f81b6064820152608401610881565b603380546001600160a01b0319166001600160a01b03831690811790915560405133907f101b8081ff3b56bbf45deb824d86a3b0fd38b7e3dd42421105cf8abe9106db0b90600090a350565b6040516001600160a01b0380851660248301528316604482015260648101829052611f4d9085906323b872dd60e01b906084015b60408051601f198184030181529190526020810180516001600160e01b03166001600160e01b031990931692909217909152612493565b50505050565b600260015403611fa55760405162461bcd60e51b815260206004820152601f60248201527f5265656e7472616e637947756172643a207265656e7472616e742063616c6c006044820152606401610881565b6002600155565b42603e5543603f55611fbc610d72565b603b55603a55565b6001600160a01b0316600090815260426020526040902043600582015542600490910155565b6001600160a01b0381166000908152604260205260409020603f54431461205d5760405162461bcd60e51b815260206004820152602160248201527f4475657450726f5374616b696e673a2075706461746520706f6f6c20666972736044820152601d60fa1b6064820152608401610881565b438160050154146120c15760405162461bcd60e51b815260206004820152602860248201527f4475657450726f5374616b696e673a2075706461746520757365722073686172604482015267195cc8199a5c9cdd60c21b6064820152608401610881565b80546000036120d557600060019091015550565b600181015481546000916120e8916129cf565b90506000806120ff8460000154856001015461076d565b9150915083600201548103612115575050505050565b836002015481111561223a57600084600201548261213391906129cf565b9050600061214686600101548385611d48565b9050600061216660395460385461215d91906129cf565b84603a54611d48565b90508187600101600082825461217c91906129cf565b92505081905550816039600082825461219591906129cf565b90915550508654829088906000906121ae9084906129cf565b90915550508654819088906000906121c7908490612c37565b9250508190555081603860008282546121e091906129cf565b9250508190555080603860008282546121f99190612c37565b9250508190555082603b600082825461221291906129cf565b9250508190555082603a600082825461222b9190612c37565b90915550505050505050505050565b600081856002015461224c91906129cf565b90508281101561225c578061225e565b825b90506000808660010154116122915760006039541161227d57816122a2565b61228c82603b54603954611d48565b6122a2565b6122a2866001015483603b54611d48565b905060008086116122b45760006122bf565b6122bf868487611d48565b90506000818310156122da576122d583836129cf565b6122e4565b6122e482846129cf565b9050828860010160008282546122fa9190612c37565b90915550508754819089906000906123139084906129cf565b92505081905550826039600082825461232c9190612c37565b92505081905550806038600082825461234591906129cf565b9250508190555083603b600082825461235e9190612c37565b9250508190555083603a600082825461237791906129cf565b9091555050505050505050505050565b60018055565b6040516001600160a01b0383166024820152604481018290526123bd90849063a9059cbb60e01b90606401611f16565b505050565b6036546040516341976e0960e01b81526001600160a01b03848116600483015260009283929116906341976e0990602401602060405180830381865afa158015612410573d6000803e3d6000fd5b505050506040513d601f19601f820116820180604052508101906124349190613106565b90506124626124456012600a612d2e565b61244f8584612be8565b6124599190612c15565b60086012611085565b9150505b92915050565b600054610100900460ff166123875760405162461bcd60e51b8152600401610881906130bb565b60006124e8826040518060400160405280602081526020017f5361666545524332303a206c6f772d6c6576656c2063616c6c206661696c6564815250856001600160a01b03166125659092919063ffffffff16565b8051909150156123bd57808060200190518101906125069190612d97565b6123bd5760405162461bcd60e51b815260206004820152602a60248201527f5361666545524332303a204552433230206f7065726174696f6e20646964206e6044820152691bdd081cdd58d8d9595960b21b6064820152608401610881565b60606110e2848460008585600080866001600160a01b0316858760405161258c919061311f565b60006040518083038185875af1925050503d80600081146125c9576040519150601f19603f3d011682016040523d82523d6000602084013e6125ce565b606091505b50915091506125df878383876125ea565b979650505050505050565b60608315612659578251600003612652576001600160a01b0385163b6126525760405162461bcd60e51b815260206004820152601d60248201527f416464726573733a2063616c6c20746f206e6f6e2d636f6e74726163740000006044820152606401610881565b508161194c565b61194c838381511561266e5781518083602001fd5b8060405162461bcd60e51b8152600401610881919061313b565b6000806040838503121561269b57600080fd5b50508035926020909101359150565b6001600160a01b03811681146114a757600080fd5b600080600080600060a086880312156126d757600080fd5b85356126e2816126aa565b945060208601356126f2816126aa565b93506040860135612702816126aa565b92506060860135612712816126aa565b91506080860135612722816126aa565b809150509295509295909350565b60006020828403121561274257600080fd5b81356110e5816126aa565b6000806040838503121561276057600080fd5b82359150602083013567ffffffffffffffff81111561277e57600080fd5b83016040818603121561279057600080fd5b809150509250929050565b600080604083850312156127ae57600080fd5b82356127b9816126aa565b91506020830135612790816126aa565b6000806000606084860312156127de57600080fd5b505081359360208301359350604090920135919050565b60005b838110156128105781810151838201526020016127f8565b50506000910152565b600081518084526128318160208601602086016127f5565b601f01601f19169290920160200192915050565b600081518084526020808501808196508360051b8101915082860160005b858110156128f6578284038952815180516001600160a01b03908116865286820151168686015260408082015160e082880181905291906128a683890182612819565b92505050606080830151878303828901526128c18382612819565b608085810151908a015260a080860151908a015260c09485015194909801939093525050509784019790840190600101612863565b5091979650505050505050565b60208152600060018060a01b03808451166020840152602084015160408401528060408501511660608401525060608301516080830152608083015160a083015260a083015160c083015260c083015160e083015260e0830151610100808185015250612462610120840182612845565b60006020828403121561298657600080fd5b5035919050565b600080604083850312156129a057600080fd5b82356129ab816126aa565b946020939093013593505050565b634e487b7160e01b600052601160045260246000fd5b81810381811115612466576124666129b9565b6000602082840312156129f457600080fd5b815160ff811681146110e557600080fd5b6020808252600c908201526b15539055551213d49256915160a21b604082015260600190565b6000808335601e19843603018112612a4257600080fd5b830160208101925035905067ffffffffffffffff811115612a6257600080fd5b8060051b36038213156107e157600080fd5b81835281816020850137506000828201602090810191909152601f909101601f19169091010190565b81835260006001600160fb1b03831115612ab657600080fd5b8260051b80836020870137939093016020019392505050565b6001600160a01b038416815260208082018490526060604083015260009060a08301612afb8580612a2b565b604060608701528281845260c08701905060c08260051b88010193508260005b83811015612b8b5788860360bf19018352813536869003601e19018112612b4157600080fd5b8501878101903567ffffffffffffffff811115612b5d57600080fd5b803603821315612b6c57600080fd5b612b77888284612a74565b975050509186019190860190600101612b1b565b5050505050612b9c82860186612a2b565b858303605f190160808701529250612bb5828483612a9d565b98975050505050505050565b8181036000831280158383131683831282161715612be157612be16129b9565b5092915050565b8082028115828204841417612466576124666129b9565b634e487b7160e01b600052601260045260246000fd5b600082612c3257634e487b7160e01b600052601260045260246000fd5b500490565b80820180821115612466576124666129b9565b600181815b80851115612c85578160001904821115612c6b57612c6b6129b9565b80851615612c7857918102915b93841c9390800290612c4f565b509250929050565b600082612c9c57506001612466565b81612ca957506000612466565b8160018114612cbf5760028114612cc957612ce5565b6001915050612466565b60ff841115612cda57612cda6129b9565b50506001821b612466565b5060208310610133831016604e8410600b8410161715612d08575081810a612466565b612d128383612c4a565b8060001904821115612d2657612d266129b9565b029392505050565b60006110e58383612c8d565b6020808252603d908201527f4475657450726f5374616b696e673a20616d6f756e74206d757374206265206760408201527f726561746572207468616e204d494e5f4c49515549444954595f4f5053000000606082015260800190565b600060208284031215612da957600080fd5b815180151581146110e557600080fd5b634e487b7160e01b600052604160045260246000fd5b60405160e0810167ffffffffffffffff81118282101715612df257612df2612db9565b60405290565b604051610100810167ffffffffffffffff81118282101715612df257612df2612db9565b604051601f8201601f1916810167ffffffffffffffff81118282101715612e4557612e45612db9565b604052919050565b8051612e58816126aa565b919050565b600082601f830112612e6e57600080fd5b815167ffffffffffffffff811115612e8857612e88612db9565b612e9b601f8201601f1916602001612e1c565b818152846020838601011115612eb057600080fd5b61194c8260208301602087016127f5565b600082601f830112612ed257600080fd5b8151602067ffffffffffffffff80831115612eef57612eef612db9565b8260051b612efe838201612e1c565b9384528581018301938381019088861115612f1857600080fd5b84880192505b85831015612bb557825184811115612f365760008081fd5b880160e0818b03601f1901811315612f4e5760008081fd5b612f56612dcf565b612f61888401612e4d565b81526040612f70818501612e4d565b8983015260608085015189811115612f885760008081fd5b612f968f8c83890101612e5d565b8385015250608091508185015189811115612fb15760008081fd5b612fbf8f8c83890101612e5d565b918401919091525060a0848101519183019190915260c0808501519183019190915291909201519082015282529184019190840190612f1e565b60006020828403121561300b57600080fd5b815167ffffffffffffffff8082111561302357600080fd5b90830190610100828603121561303857600080fd5b613040612df8565b61304983612e4d565b81526020830151602082015261306160408401612e4d565b6040820152606083015160608201526080830151608082015260a083015160a082015260c083015160c082015260e0830151828111156130a057600080fd5b6130ac87828601612ec1565b60e08301525095945050505050565b6020808252602b908201527f496e697469616c697a61626c653a20636f6e7472616374206973206e6f74206960408201526a6e697469616c697a696e6760a81b606082015260800190565b60006020828403121561311857600080fd5b5051919050565b600082516131318184602087016127f5565b9190910192915050565b6020815260006110e5602083018461281956fea2646970667358221220978f8f43c513f62866ed6f4d22023314a031cb4f322771a0b5143f135d660fb464736f6c63430008110033",
  "devdoc": {
    "kind": "dev",
    "methods": {},
    "version": 1
  },
  "userdoc": {
    "kind": "user",
    "methods": {},
    "version": 1
  },
  "storageLayout": {
    "storage": [
      {
        "astId": 6,
        "contract": "contracts/DuetProStaking.sol:DuetProStaking",
        "label": "_initialized",
        "offset": 0,
        "slot": "0",
        "type": "t_uint8"
      },
      {
        "astId": 9,
        "contract": "contracts/DuetProStaking.sol:DuetProStaking",
        "label": "_initializing",
        "offset": 1,
        "slot": "0",
        "type": "t_bool"
      },
      {
        "astId": 309,
        "contract": "contracts/DuetProStaking.sol:DuetProStaking",
        "label": "_status",
        "offset": 0,
        "slot": "1",
        "type": "t_uint256"
      },
      {
        "astId": 367,
        "contract": "contracts/DuetProStaking.sol:DuetProStaking",
        "label": "__gap",
        "offset": 0,
        "slot": "2",
        "type": "t_array(t_uint256)49_storage"
      },
      {
        "astId": 1227,
        "contract": "contracts/DuetProStaking.sol:DuetProStaking",
        "label": "admin",
        "offset": 0,
        "slot": "51",
        "type": "t_address"
      },
      {
        "astId": 1504,
        "contract": "contracts/DuetProStaking.sol:DuetProStaking",
        "label": "pool",
        "offset": 0,
        "slot": "52",
        "type": "t_contract(IPool)3506"
      },
      {
        "astId": 1507,
        "contract": "contracts/DuetProStaking.sol:DuetProStaking",
        "label": "deriLens",
        "offset": 0,
        "slot": "53",
        "type": "t_contract(IDeriLens)3351"
      },
      {
        "astId": 1510,
        "contract": "contracts/DuetProStaking.sol:DuetProStaking",
        "label": "boosterOracle",
        "offset": 0,
        "slot": "54",
        "type": "t_contract(IBoosterOracle)3052"
      },
      {
        "astId": 1513,
        "contract": "contracts/DuetProStaking.sol:DuetProStaking",
        "label": "usdLikeUnderlying",
        "offset": 0,
        "slot": "55",
        "type": "t_contract(IERC20MetadataUpgradeable)471"
      },
      {
        "astId": 1515,
        "contract": "contracts/DuetProStaking.sol:DuetProStaking",
        "label": "totalShares",
        "offset": 0,
        "slot": "56",
        "type": "t_uint256"
      },
      {
        "astId": 1517,
        "contract": "contracts/DuetProStaking.sol:DuetProStaking",
        "label": "totalBoostedShares",
        "offset": 0,
        "slot": "57",
        "type": "t_uint256"
      },
      {
        "astId": 1519,
        "contract": "contracts/DuetProStaking.sol:DuetProStaking",
        "label": "lastNormalLiquidity",
        "offset": 0,
        "slot": "58",
        "type": "t_uint256"
      },
      {
        "astId": 1521,
        "contract": "contracts/DuetProStaking.sol:DuetProStaking",
        "label": "lastBoostedLiquidity",
        "offset": 0,
        "slot": "59",
        "type": "t_uint256"
      },
      {
        "astId": 1523,
        "contract": "contracts/DuetProStaking.sol:DuetProStaking",
        "label": "totalStakedBoosterValue",
        "offset": 0,
        "slot": "60",
        "type": "t_uint256"
      },
      {
        "astId": 1525,
        "contract": "contracts/DuetProStaking.sol:DuetProStaking",
        "label": "totalStakedBoosterAmount",
        "offset": 0,
        "slot": "61",
        "type": "t_uint256"
      },
      {
        "astId": 1527,
        "contract": "contracts/DuetProStaking.sol:DuetProStaking",
        "label": "lastActionTime",
        "offset": 0,
        "slot": "62",
        "type": "t_uint256"
      },
      {
        "astId": 1529,
        "contract": "contracts/DuetProStaking.sol:DuetProStaking",
        "label": "lastActionBlock",
        "offset": 0,
        "slot": "63",
        "type": "t_uint256"
      },
      {
        "astId": 1535,
        "contract": "contracts/DuetProStaking.sol:DuetProStaking",
        "label": "userStakedBooster",
        "offset": 0,
        "slot": "64",
        "type": "t_mapping(t_address,t_mapping(t_address,t_uint256))"
      },
      {
        "astId": 1539,
        "contract": "contracts/DuetProStaking.sol:DuetProStaking",
        "label": "supportedBoosterTokens",
        "offset": 0,
        "slot": "65",
        "type": "t_mapping(t_address,t_bool)"
      },
      {
        "astId": 1544,
        "contract": "contracts/DuetProStaking.sol:DuetProStaking",
        "label": "userInfos",
        "offset": 0,
        "slot": "66",
        "type": "t_mapping(t_address,t_struct(UserInfo)1561_storage)"
      }
    ],
    "types": {
      "t_address": {
        "encoding": "inplace",
        "label": "address",
        "numberOfBytes": "20"
      },
      "t_array(t_uint256)49_storage": {
        "base": "t_uint256",
        "encoding": "inplace",
        "label": "uint256[49]",
        "numberOfBytes": "1568"
      },
      "t_bool": {
        "encoding": "inplace",
        "label": "bool",
        "numberOfBytes": "1"
      },
      "t_contract(IBoosterOracle)3052": {
        "encoding": "inplace",
        "label": "contract IBoosterOracle",
        "numberOfBytes": "20"
      },
      "t_contract(IDeriLens)3351": {
        "encoding": "inplace",
        "label": "contract IDeriLens",
        "numberOfBytes": "20"
      },
      "t_contract(IERC20MetadataUpgradeable)471": {
        "encoding": "inplace",
        "label": "contract IERC20MetadataUpgradeable",
        "numberOfBytes": "20"
      },
      "t_contract(IPool)3506": {
        "encoding": "inplace",
        "label": "contract IPool",
        "numberOfBytes": "20"
      },
      "t_mapping(t_address,t_bool)": {
        "encoding": "mapping",
        "key": "t_address",
        "label": "mapping(address => bool)",
        "numberOfBytes": "32",
        "value": "t_bool"
      },
      "t_mapping(t_address,t_mapping(t_address,t_uint256))": {
        "encoding": "mapping",
        "key": "t_address",
        "label": "mapping(address => mapping(address => uint256))",
        "numberOfBytes": "32",
        "value": "t_mapping(t_address,t_uint256)"
      },
      "t_mapping(t_address,t_struct(UserInfo)1561_storage)": {
        "encoding": "mapping",
        "key": "t_address",
        "label": "mapping(address => struct DuetProStaking.UserInfo)",
        "numberOfBytes": "32",
        "value": "t_struct(UserInfo)1561_storage"
      },
      "t_mapping(t_address,t_uint256)": {
        "encoding": "mapping",
        "key": "t_address",
        "label": "mapping(address => uint256)",
        "numberOfBytes": "32",
        "value": "t_uint256"
      },
      "t_struct(UserInfo)1561_storage": {
        "encoding": "inplace",
        "label": "struct DuetProStaking.UserInfo",
        "members": [
          {
            "astId": 1546,
            "contract": "contracts/DuetProStaking.sol:DuetProStaking",
            "label": "shares",
            "offset": 0,
            "slot": "0",
            "type": "t_uint256"
          },
          {
            "astId": 1548,
            "contract": "contracts/DuetProStaking.sol:DuetProStaking",
            "label": "boostedShares",
            "offset": 0,
            "slot": "1",
            "type": "t_uint256"
          },
          {
            "astId": 1550,
            "contract": "contracts/DuetProStaking.sol:DuetProStaking",
            "label": "stakedBoosterValue",
            "offset": 0,
            "slot": "2",
            "type": "t_uint256"
          },
          {
            "astId": 1552,
            "contract": "contracts/DuetProStaking.sol:DuetProStaking",
            "label": "stakedBoosterAmount",
            "offset": 0,
            "slot": "3",
            "type": "t_uint256"
          },
          {
            "astId": 1554,
            "contract": "contracts/DuetProStaking.sol:DuetProStaking",
            "label": "lastActionTime",
            "offset": 0,
            "slot": "4",
            "type": "t_uint256"
          },
          {
            "astId": 1556,
            "contract": "contracts/DuetProStaking.sol:DuetProStaking",
            "label": "lastActionBlock",
            "offset": 0,
            "slot": "5",
            "type": "t_uint256"
          },
          {
            "astId": 1558,
            "contract": "contracts/DuetProStaking.sol:DuetProStaking",
            "label": "accAddedLiquidity",
            "offset": 0,
            "slot": "6",
            "type": "t_uint256"
          },
          {
            "astId": 1560,
            "contract": "contracts/DuetProStaking.sol:DuetProStaking",
            "label": "accRemovedLiquidity",
            "offset": 0,
            "slot": "7",
            "type": "t_uint256"
          }
        ],
        "numberOfBytes": "256"
      },
      "t_uint256": {
        "encoding": "inplace",
        "label": "uint256",
        "numberOfBytes": "32"
      },
      "t_uint8": {
        "encoding": "inplace",
        "label": "uint8",
        "numberOfBytes": "1"
      }
    }
  }
}