{
  "address": "0xFD348dC51F042cC2b531C6e673F4fc84C8c3d1A9",
  "abi": [
    {
      "inputs": [],
      "stateMutability": "nonpayable",
      "type": "constructor"
    },
    {
      "anonymous": false,
      "inputs": [
        {
          "indexed": true,
          "internalType": "address",
          "name": "user",
          "type": "address"
        },
        {
          "indexed": false,
          "internalType": "address",
          "name": "token",
          "type": "address"
        }
      ],
      "name": "AddSupportedBoosterToken",
      "type": "event"
    },
    {
      "anonymous": false,
      "inputs": [
        {
          "indexed": true,
          "internalType": "address",
          "name": "user",
          "type": "address"
        },
        {
          "indexed": true,
          "internalType": "address",
          "name": "newAdmin",
          "type": "address"
        }
      ],
      "name": "AdminUpdated",
      "type": "event"
    },
    {
      "anonymous": false,
      "inputs": [
        {
          "indexed": false,
          "internalType": "uint8",
          "name": "version",
          "type": "uint8"
        }
      ],
      "name": "Initialized",
      "type": "event"
    },
    {
      "anonymous": false,
      "inputs": [
        {
          "indexed": true,
          "internalType": "address",
          "name": "user",
          "type": "address"
        },
        {
          "indexed": false,
          "internalType": "address",
          "name": "token",
          "type": "address"
        }
      ],
      "name": "RemoveSupportedBoosterToken",
      "type": "event"
    },
    {
      "inputs": [],
      "name": "LIQUIDITY_DECIMALS",
      "outputs": [
        {
          "internalType": "uint256",
          "name": "",
          "type": "uint256"
        }
      ],
      "stateMutability": "view",
      "type": "function"
    },
    {
      "inputs": [],
      "name": "MIN_BOOSTER_TOKENS",
      "outputs": [
        {
          "internalType": "uint256",
          "name": "",
          "type": "uint256"
        }
      ],
      "stateMutability": "view",
      "type": "function"
    },
    {
      "inputs": [],
      "name": "MIN_LIQUIDITY_OPS",
      "outputs": [
        {
          "internalType": "uint256",
          "name": "",
          "type": "uint256"
        }
      ],
      "stateMutability": "view",
      "type": "function"
    },
    {
      "inputs": [],
      "name": "PRECISION",
      "outputs": [
        {
          "internalType": "uint256",
          "name": "",
          "type": "uint256"
        }
      ],
      "stateMutability": "view",
      "type": "function"
    },
    {
      "inputs": [],
      "name": "PRICE_DECIMALS",
      "outputs": [
        {
          "internalType": "uint256",
          "name": "",
          "type": "uint256"
        }
      ],
      "stateMutability": "view",
      "type": "function"
    },
    {
      "inputs": [
        {
          "internalType": "uint256",
          "name": "underlyingAmount_",
          "type": "uint256"
        },
        {
          "components": [
            {
              "internalType": "bytes32",
              "name": "oracleSymbolId",
              "type": "bytes32"
            },
            {
              "internalType": "uint256",
              "name": "timestamp",
              "type": "uint256"
            },
            {
              "internalType": "uint256",
              "name": "value",
              "type": "uint256"
            },
            {
              "internalType": "uint8",
              "name": "v",
              "type": "uint8"
            },
            {
              "internalType": "bytes32",
              "name": "r",
              "type": "bytes32"
            },
            {
              "internalType": "bytes32",
              "name": "s",
              "type": "bytes32"
            }
          ],
          "internalType": "struct IPool.OracleSignature[]",
          "name": "oracleSignatures_",
          "type": "tuple[]"
        }
      ],
      "name": "addLiquidity",
      "outputs": [],
      "stateMutability": "payable",
      "type": "function"
    },
    {
      "inputs": [
        {
          "internalType": "contract IERC20MetadataUpgradeable",
          "name": "booster_",
          "type": "address"
        }
      ],
      "name": "addSupportedBooster",
      "outputs": [],
      "stateMutability": "nonpayable",
      "type": "function"
    },
    {
      "inputs": [],
      "name": "admin",
      "outputs": [
        {
          "internalType": "address",
          "name": "",
          "type": "address"
        }
      ],
      "stateMutability": "view",
      "type": "function"
    },
    {
      "inputs": [
        {
          "internalType": "uint256",
          "name": "amount_",
          "type": "uint256"
        }
      ],
      "name": "amountToShares",
      "outputs": [
        {
          "internalType": "uint256",
          "name": "",
          "type": "uint256"
        }
      ],
      "stateMutability": "view",
      "type": "function"
    },
    {
      "inputs": [],
      "name": "boosterOracle",
      "outputs": [
        {
          "internalType": "contract IBoosterOracle",
          "name": "",
          "type": "address"
        }
      ],
      "stateMutability": "view",
      "type": "function"
    },
    {
      "inputs": [],
      "name": "calcPool",
      "outputs": [
        {
          "internalType": "uint256",
          "name": "normalLiquidity",
          "type": "uint256"
        },
        {
          "internalType": "uint256",
          "name": "boostedLiquidity",
          "type": "uint256"
        }
      ],
      "stateMutability": "view",
      "type": "function"
    },
    {
      "inputs": [],
      "name": "deriLens",
      "outputs": [
        {
          "internalType": "contract IDeriLens",
          "name": "",
          "type": "address"
        }
      ],
      "stateMutability": "view",
      "type": "function"
    },
    {
      "inputs": [
        {
          "internalType": "uint256",
          "name": "amount_",
          "type": "uint256"
        },
        {
          "components": [
            {
              "internalType": "bytes32",
              "name": "oracleSymbolId",
              "type": "bytes32"
            },
            {
              "internalType": "uint256",
              "name": "timestamp",
              "type": "uint256"
            },
            {
              "internalType": "uint256",
              "name": "value",
              "type": "uint256"
            },
            {
              "internalType": "uint8",
              "name": "v",
              "type": "uint8"
            },
            {
              "internalType": "bytes32",
              "name": "r",
              "type": "bytes32"
            },
            {
              "internalType": "bytes32",
              "name": "s",
              "type": "bytes32"
            }
          ],
          "internalType": "struct IPool.OracleSignature[]",
          "name": "oracleSignatures_",
          "type": "tuple[]"
        }
      ],
      "name": "forceAddLiquidity",
      "outputs": [],
      "stateMutability": "payable",
      "type": "function"
    },
    {
      "inputs": [],
      "name": "getRemoteInfo",
      "outputs": [
        {
          "components": [
            {
              "internalType": "address",
              "name": "account",
              "type": "address"
            },
            {
              "internalType": "uint256",
              "name": "lTokenId",
              "type": "uint256"
            },
            {
              "internalType": "address",
              "name": "vault",
              "type": "address"
            },
            {
              "internalType": "int256",
              "name": "amountB0",
              "type": "int256"
            },
            {
              "internalType": "int256",
              "name": "liquidity",
              "type": "int256"
            },
            {
              "internalType": "int256",
              "name": "cumulativePnlPerLiquidity",
              "type": "int256"
            },
            {
              "internalType": "uint256",
              "name": "vaultLiquidity",
              "type": "uint256"
            },
            {
              "components": [
                {
                  "internalType": "address",
                  "name": "underlying",
                  "type": "address"
                },
                {
                  "internalType": "address",
                  "name": "vToken",
                  "type": "address"
                },
                {
                  "internalType": "string",
                  "name": "underlyingSymbol",
                  "type": "string"
                },
                {
                  "internalType": "string",
                  "name": "vTokenSymbol",
                  "type": "string"
                },
                {
                  "internalType": "uint256",
                  "name": "underlyingPrice",
                  "type": "uint256"
                },
                {
                  "internalType": "uint256",
                  "name": "exchangeRate",
                  "type": "uint256"
                },
                {
                  "internalType": "uint256",
                  "name": "vTokenBalance",
                  "type": "uint256"
                }
              ],
              "internalType": "struct IDeriLens.MarketInfo[]",
              "name": "markets",
              "type": "tuple[]"
            }
          ],
          "internalType": "struct IDeriLens.LpInfo",
          "name": "lpInfo",
          "type": "tuple"
        }
      ],
      "stateMutability": "view",
      "type": "function"
    },
    {
      "inputs": [
        {
          "internalType": "address",
          "name": "user_",
          "type": "address"
        }
      ],
      "name": "getUserInfo",
      "outputs": [
        {
          "components": [
            {
              "internalType": "uint256",
              "name": "shares",
              "type": "uint256"
            },
            {
              "internalType": "uint256",
              "name": "boostedShares",
              "type": "uint256"
            },
            {
              "internalType": "uint256",
              "name": "stakedBoosterValue",
              "type": "uint256"
            },
            {
              "internalType": "uint256",
              "name": "stakedBoosterAmount",
              "type": "uint256"
            },
            {
              "internalType": "uint256",
              "name": "lastActionTime",
              "type": "uint256"
            },
            {
              "internalType": "uint256",
              "name": "lastActionBlock",
              "type": "uint256"
            },
            {
              "internalType": "uint256",
              "name": "accAddedLiquidity",
              "type": "uint256"
            },
            {
              "internalType": "uint256",
              "name": "accRemovedLiquidity",
              "type": "uint256"
            }
          ],
          "internalType": "struct DuetProStaking.UserInfo",
          "name": "info",
          "type": "tuple"
        },
        {
          "internalType": "uint256",
          "name": "normalLiquidity",
          "type": "uint256"
        },
        {
          "internalType": "uint256",
          "name": "boostedLiquidity",
          "type": "uint256"
        }
      ],
      "stateMutability": "view",
      "type": "function"
    },
    {
      "inputs": [
        {
          "internalType": "contract IPool",
          "name": "pool_",
          "type": "address"
        },
        {
          "internalType": "contract IDeriLens",
          "name": "deriLens_",
          "type": "address"
        },
        {
          "internalType": "contract IERC20MetadataUpgradeable",
          "name": "usdLikeUnderlying_",
          "type": "address"
        },
        {
          "internalType": "contract IBoosterOracle",
          "name": "boosterOracle_",
          "type": "address"
        },
        {
          "internalType": "address",
          "name": "admin_",
          "type": "address"
        }
      ],
      "name": "initialize",
      "outputs": [],
      "stateMutability": "nonpayable",
      "type": "function"
    },
    {
      "inputs": [],
      "name": "lastActionBlock",
      "outputs": [
        {
          "internalType": "uint256",
          "name": "",
          "type": "uint256"
        }
      ],
      "stateMutability": "view",
      "type": "function"
    },
    {
      "inputs": [],
      "name": "lastActionTime",
      "outputs": [
        {
          "internalType": "uint256",
          "name": "",
          "type": "uint256"
        }
      ],
      "stateMutability": "view",
      "type": "function"
    },
    {
      "inputs": [],
      "name": "lastBoostedLiquidity",
      "outputs": [
        {
          "internalType": "uint256",
          "name": "",
          "type": "uint256"
        }
      ],
      "stateMutability": "view",
      "type": "function"
    },
    {
      "inputs": [],
      "name": "lastNormalLiquidity",
      "outputs": [
        {
          "internalType": "uint256",
          "name": "",
          "type": "uint256"
        }
      ],
      "stateMutability": "view",
      "type": "function"
    },
    {
      "inputs": [
        {
          "internalType": "uint256",
          "name": "value_",
          "type": "uint256"
        },
        {
          "internalType": "uint256",
          "name": "sourceDecimals_",
          "type": "uint256"
        },
        {
          "internalType": "uint256",
          "name": "targetDecimals_",
          "type": "uint256"
        }
      ],
      "name": "normalizeDecimals",
      "outputs": [
        {
          "internalType": "uint256",
          "name": "",
          "type": "uint256"
        }
      ],
      "stateMutability": "pure",
      "type": "function"
    },
    {
      "inputs": [],
      "name": "pool",
      "outputs": [
        {
          "internalType": "contract IPool",
          "name": "",
          "type": "address"
        }
      ],
      "stateMutability": "view",
      "type": "function"
    },
    {
      "inputs": [
        {
          "internalType": "uint256",
          "name": "amount_",
          "type": "uint256"
        },
        {
          "components": [
            {
              "internalType": "bytes32",
              "name": "oracleSymbolId",
              "type": "bytes32"
            },
            {
              "internalType": "uint256",
              "name": "timestamp",
              "type": "uint256"
            },
            {
              "internalType": "uint256",
              "name": "value",
              "type": "uint256"
            },
            {
              "internalType": "uint8",
              "name": "v",
              "type": "uint8"
            },
            {
              "internalType": "bytes32",
              "name": "r",
              "type": "bytes32"
            },
            {
              "internalType": "bytes32",
              "name": "s",
              "type": "bytes32"
            }
          ],
          "internalType": "struct IPool.OracleSignature[]",
          "name": "oracleSignatures_",
          "type": "tuple[]"
        }
      ],
      "name": "removeLiquidity",
      "outputs": [],
      "stateMutability": "nonpayable",
      "type": "function"
    },
    {
      "inputs": [
        {
          "internalType": "contract IERC20MetadataUpgradeable",
          "name": "booster_",
          "type": "address"
        }
      ],
      "name": "removeSupportedBooster",
      "outputs": [],
      "stateMutability": "nonpayable",
      "type": "function"
    },
    {
      "inputs": [
        {
          "internalType": "address",
          "name": "newAdmin",
          "type": "address"
        }
      ],
      "name": "setAdmin",
      "outputs": [],
      "stateMutability": "nonpayable",
      "type": "function"
    },
    {
      "inputs": [
        {
          "internalType": "contract IBoosterOracle",
          "name": "boosterOracle_",
          "type": "address"
        }
      ],
      "name": "setBoosterOracle",
      "outputs": [],
      "stateMutability": "nonpayable",
      "type": "function"
    },
    {
      "inputs": [
        {
          "internalType": "uint256",
          "name": "shares_",
          "type": "uint256"
        },
        {
          "internalType": "uint256",
          "name": "boostedShares_",
          "type": "uint256"
        }
      ],
      "name": "sharesToLiquidity",
      "outputs": [
        {
          "internalType": "uint256",
          "name": "normalLiquidity",
          "type": "uint256"
        },
        {
          "internalType": "uint256",
          "name": "boostedLiquidity",
          "type": "uint256"
        }
      ],
      "stateMutability": "view",
      "type": "function"
    },
    {
      "inputs": [
        {
          "internalType": "contract IERC20MetadataUpgradeable",
          "name": "booster_",
          "type": "address"
        },
        {
          "internalType": "uint256",
          "name": "amount_",
          "type": "uint256"
        }
      ],
      "name": "stakeBooster",
      "outputs": [],
      "stateMutability": "nonpayable",
      "type": "function"
    },
    {
      "inputs": [
        {
          "internalType": "address",
          "name": "",
          "type": "address"
        }
      ],
      "name": "supportedBoosterTokens",
      "outputs": [
        {
          "internalType": "bool",
          "name": "",
          "type": "bool"
        }
      ],
      "stateMutability": "view",
      "type": "function"
    },
    {
      "inputs": [],
      "name": "totalBoostedShares",
      "outputs": [
        {
          "internalType": "uint256",
          "name": "",
          "type": "uint256"
        }
      ],
      "stateMutability": "view",
      "type": "function"
    },
    {
      "inputs": [],
      "name": "totalShares",
      "outputs": [
        {
          "internalType": "uint256",
          "name": "",
          "type": "uint256"
        }
      ],
      "stateMutability": "view",
      "type": "function"
    },
    {
      "inputs": [],
      "name": "totalStakedBoosterAmount",
      "outputs": [
        {
          "internalType": "uint256",
          "name": "",
          "type": "uint256"
        }
      ],
      "stateMutability": "view",
      "type": "function"
    },
    {
      "inputs": [],
      "name": "totalStakedBoosterValue",
      "outputs": [
        {
          "internalType": "uint256",
          "name": "",
          "type": "uint256"
        }
      ],
      "stateMutability": "view",
      "type": "function"
    },
    {
      "inputs": [
        {
          "internalType": "contract IERC20MetadataUpgradeable",
          "name": "booster_",
          "type": "address"
        },
        {
          "internalType": "uint256",
          "name": "amount_",
          "type": "uint256"
        }
      ],
      "name": "unstakeBooster",
      "outputs": [],
      "stateMutability": "nonpayable",
      "type": "function"
    },
    {
      "inputs": [],
      "name": "usdLikeUnderlying",
      "outputs": [
        {
          "internalType": "contract IERC20MetadataUpgradeable",
          "name": "",
          "type": "address"
        }
      ],
      "stateMutability": "view",
      "type": "function"
    },
    {
      "inputs": [
        {
          "internalType": "address",
          "name": "",
          "type": "address"
        }
      ],
      "name": "userInfos",
      "outputs": [
        {
          "internalType": "uint256",
          "name": "shares",
          "type": "uint256"
        },
        {
          "internalType": "uint256",
          "name": "boostedShares",
          "type": "uint256"
        },
        {
          "internalType": "uint256",
          "name": "stakedBoosterValue",
          "type": "uint256"
        },
        {
          "internalType": "uint256",
          "name": "stakedBoosterAmount",
          "type": "uint256"
        },
        {
          "internalType": "uint256",
          "name": "lastActionTime",
          "type": "uint256"
        },
        {
          "internalType": "uint256",
          "name": "lastActionBlock",
          "type": "uint256"
        },
        {
          "internalType": "uint256",
          "name": "accAddedLiquidity",
          "type": "uint256"
        },
        {
          "internalType": "uint256",
          "name": "accRemovedLiquidity",
          "type": "uint256"
        }
      ],
      "stateMutability": "view",
      "type": "function"
    },
    {
      "inputs": [
        {
          "internalType": "address",
          "name": "",
          "type": "address"
        },
        {
          "internalType": "address",
          "name": "",
          "type": "address"
        }
      ],
      "name": "userStakedBooster",
      "outputs": [
        {
          "internalType": "uint256",
          "name": "",
          "type": "uint256"
        }
      ],
      "stateMutability": "view",
      "type": "function"
    }
  ],
  "transactionHash": "0x3a1e71bf442b1d6292eabc1c9d8fb868d7160950fe384a841ff7878710776dd1",
  "args": [],
  "numDeployments": 1,
  "solcInputHash": "01e510245a5d017cce4027d5075363fc",
  "bytecode": "0x60806040523480156200001157600080fd5b506200001c62000022565b620000e4565b600054610100900460ff16156200008f5760405162461bcd60e51b815260206004820152602760248201527f496e697469616c697a61626c653a20636f6e747261637420697320696e697469604482015266616c697a696e6760c81b606482015260840160405180910390fd5b60005460ff9081161015620000e2576000805460ff191660ff9081179091556040519081527f7f26b83ff96e1f2b6a682f133852f6798a09c465da95921460cefb38474024989060200160405180910390a15b565b61318180620000f46000396000f3fe6080604052600436106102195760003560e01c8063714f58ae11610123578063aa0c2f06116100ab578063f06b3b931161006f578063f06b3b93146106c2578063f1a640f8146106e2578063f1f7b6f3146106f7578063f851a44014610737578063f9c1ed6d1461075757600080fd5b8063aa0c2f0614610627578063aaf5eb6814610649578063b811540e14610662578063d5d8e08714610682578063ecd04dd2146106a257600080fd5b80638e07540f116100f25780638e07540f146105a8578063961c7cfd146105c85780639c284b1c146105de578063a58e79c9146105f1578063a6dc73181461061157600080fd5b8063714f58ae1461021e5780637420783d1461055d57806375ceaf6d1461057d5780638db8a1351461059357600080fd5b80633a98ef39116101a657806343b0215f1161017557806343b0215f146103d157806358d7e40c1461046a5780635a6069751461048a5780636386c1c7146104aa578063704b6c021461053d57600080fd5b80633a98ef391461035e5780633e502e86146103745780633fd664c714610387578063401336ef1461039c57600080fd5b806315e24d56116101ed57806315e24d56146102ba57806316f0115b146102d057806318d78cd0146103085780631946398d1461031e5780632bc0503e1461033e57600080fd5b806285cc981461021e578063085f03161461024d57806311df7e9e146102635780631459457a14610298575b600080fd5b34801561022a57600080fd5b5061023a670de0b6b3a764000081565b6040519081526020015b60405180910390f35b34801561025957600080fd5b5061023a603e5481565b34801561026f57600080fd5b5061028361027e366004612687565b61076d565b60408051928352602083019190915201610244565b3480156102a457600080fd5b506102b86102b33660046126be565b6107e7565b005b3480156102c657600080fd5b5061023a603c5481565b3480156102dc57600080fd5b506034546102f0906001600160a01b031681565b6040516001600160a01b039091168152602001610244565b34801561031457600080fd5b5061023a603d5481565b34801561032a57600080fd5b506102b861033936600461272f565b610c72565b34801561034a57600080fd5b506036546102f0906001600160a01b031681565b34801561036a57600080fd5b5061023a60385481565b6102b8610382366004612836565b610cbe565b34801561039357600080fd5b50610283610d71565b3480156103a857600080fd5b5061023a6103b736600461292c565b604060208181526000938452818420905290825290205481565b3480156103dd57600080fd5b5061042f6103ec36600461272f565b6042602052600090815260409020805460018201546002830154600384015460048501546005860154600687015460079097015495969495939492939192909188565b604080519889526020890197909752958701949094526060860192909252608085015260a084015260c083015260e082015261010001610244565b34801561047657600080fd5b506102b861048536600461272f565b611000565b34801561049657600080fd5b5061023a6104a5366004612965565b611084565b3480156104b657600080fd5b506104ca6104c536600461272f565b6110eb565b60405161024493929190600061014082019050845182526020850151602083015260408501516040830152606085015160608301526080850151608083015260a085015160a083015260c085015160c083015260e085015160e08301528361010083015282610120830152949350505050565b34801561054957600080fd5b506102b861055836600461272f565b6111de565b34801561056957600080fd5b506102b861057836600461272f565b611214565b34801561058957600080fd5b5061023a603a5481565b34801561059f57600080fd5b5061023a601281565b3480156105b457600080fd5b506102b86105c3366004612836565b611294565b3480156105d457600080fd5b5061023a603b5481565b6102b86105ec366004612836565b6115cd565b3480156105fd57600080fd5b506035546102f0906001600160a01b031681565b34801561061d57600080fd5b5061023a603f5481565b34801561063357600080fd5b5061063c611830565b6040516102449190612a9f565b34801561065557600080fd5b5061023a64e8d4a5100081565b34801561066e57600080fd5b5061023a61067d366004612b10565b611909565b34801561068e57600080fd5b506037546102f0906001600160a01b031681565b3480156106ae57600080fd5b506102b86106bd366004612b29565b611953565b3480156106ce57600080fd5b506102b86106dd366004612b29565b611b0b565b3480156106ee57600080fd5b5061023a600881565b34801561070357600080fd5b5061072761071236600461272f565b60416020526000908152604090205460ff1681565b6040519015158152602001610244565b34801561074357600080fd5b506033546102f0906001600160a01b031681565b34801561076357600080fd5b5061023a60395481565b60008060008061077b610d71565b9092509050600061078c8688612b6b565b905060006039546038546107a09190612b6b565b9050600082116107b15760006107bc565b6107bc848383611d47565b600088116107cb5760006107d8565b6107d88489603954611d47565b95509550505050509250929050565b600054610100900460ff16158080156108075750600054600160ff909116105b806108215750303b158015610821575060005460ff166001145b6108895760405162461bcd60e51b815260206004820152602e60248201527f496e697469616c697a61626c653a20636f6e747261637420697320616c72656160448201526d191e481a5b9a5d1a585b1a5e995960921b60648201526084015b60405180910390fd5b6000805460ff1916600117905580156108ac576000805461ff0019166101001790555b6001600160a01b0386166109165760405162461bcd60e51b815260206004820152602b60248201527f4475657450726f5374616b696e673a20706f6f6c2063616e6e6f74206265207a60448201526a65726f206164647265737360a81b6064820152608401610880565b6001600160a01b0385166109845760405162461bcd60e51b815260206004820152602f60248201527f4475657450726f5374616b696e673a20646572694c656e732063616e6e6f742060448201526e6265207a65726f206164647265737360881b6064820152608401610880565b6001600160a01b038416610a005760405162461bcd60e51b815260206004820152603960248201527f4475657450726f5374616b696e673a207573644c696b65556e6465726c79696e60448201527f675f2063616e6e6f74206265207a65726f2061646472657373000000000000006064820152608401610880565b6001600160a01b038316610a735760405162461bcd60e51b815260206004820152603460248201527f4475657450726f5374616b696e673a20626f6f737465724f7261636c652063616044820152736e6e6f74206265207a65726f206164647265737360601b6064820152608401610880565b6001600160a01b038216610ade5760405162461bcd60e51b815260206004820152602c60248201527f4475657450726f5374616b696e673a2061646d696e2063616e6e6f742062652060448201526b7a65726f206164647265737360a01b6064820152608401610880565b6012846001600160a01b031663313ce5676040518163ffffffff1660e01b8152600401602060405180830381865afa158015610b1e573d6000803e3d6000fd5b505050506040513d601f19601f82011682018060405250810190610b429190612b7e565b60ff161115610bbb576040805162461bcd60e51b81526020600482015260248101919091527f4475657450726f5374616b696e673a207573644c696b65556e6465726c79696e60448201527f675f20646563696d616c73206d757374206265206c657373207468616e2031386064820152608401610880565b603680546001600160a01b0319166001600160a01b038516179055610bde611e04565b603480546001600160a01b038089166001600160a01b031992831617909255603780548784169083161790556035805492881692909116919091179055610c2482611e35565b8015610c6a576000805461ff0019169055604051600181527f7f26b83ff96e1f2b6a682f133852f6798a09c465da95921460cefb38474024989060200160405180910390a15b505050505050565b6033546001600160a01b03163314610c9c5760405162461bcd60e51b815260040161088090612b9b565b603680546001600160a01b0319166001600160a01b0392909216919091179055565b6033546001600160a01b03163314610ce85760405162461bcd60e51b815260040161088090612b9b565b603754610d00906001600160a01b0316333085611ee1565b6034546037546040516321aade6b60e11b81526001600160a01b0392831692634355bcd6923492610d3b929091169087908790600401612bc1565b6000604051808303818588803b158015610d5457600080fd5b505af1158015610d68573d6000803e3d6000fd5b50505050505050565b60008043603f5403610d89575050603a54603b549091565b6000610d93611830565b90508060800151600003610dac57506000928392509050565b6000603a548260800151610dc09190612c56565b9050603854600003610dd85750600093849350915050565b80600003610df057603a54603b549350935050509091565b8060008113610f4e57600064e8d4a5100060385464e8d4a5100060395485610e189190612c7d565b610e229190612c7d565b610e2c9190612caa565b610e369190612caa565b90506000610e448284612b6b565b905080603a541015610eb55760405162461bcd60e51b815260206004820152603460248201527f4475657450726f5374616b696e673a2063616c6320706f6f6c206572726f722c604482015273081b9959d85d1a5d99481b9bdc9b585b081c1b9b60621b6064820152608401610880565b81603b541015610f255760405162461bcd60e51b815260206004820152603560248201527f4475657450726f5374616b696e673a2063616c6320706f6f6c206572726f722c604482015274081b9959d85d1a5d9948189bdbdcdd1959081c1b9b605a1b6064820152608401610880565b80603a54610f339190612b6b565b82603b54610f419190612b6b565b9650965050505050509091565b6000603954603854610f609190612b6b565b905060006039546002610f739190612c7d565b610f7d9083612ccc565b9050600064e8d4a510008260395464e8d4a5100087610f9c9190612c7d565b610fa69190612c7d565b610fb1906002612c7d565b610fbb9190612caa565b610fc59190612caa565b90506000610fd38286612b6b565b905080603a54610fe39190612ccc565b82603b54610ff19190612ccc565b98509850505050505050509091565b6033546001600160a01b0316331461102a5760405162461bcd60e51b815260040161088090612b9b565b6001600160a01b038116600081815260416020908152604091829020805460ff19169055905191825233917f83a53b7d80f6805eccf4bb6bbaa7a90aa8e2799c1939ec7d008858dee4e0e35b91015b60405180910390a250565b60008282036110945750826110e4565b828211156110c2576110a68383612b6b565b6110b190600a612dc3565b6110bb9085612c7d565b90506110e4565b6110cc8284612b6b565b6110d790600a612dc3565b6110e19085612caa565b90505b9392505050565b61113360405180610100016040528060008152602001600081526020016000815260200160008152602001600081526020016000815260200160008152602001600081525090565b6001600160a01b03821660009081526042602052604081208054600190910154829161115e9161076d565b6001600160a01b0395909516600090815260426020908152604091829020825161010081018452815481526001820154928101929092526002810154928201929092526003820154606082015260048201546080820152600582015460a0820152600682015460c082015260079091015460e08201529590949350915050565b6033546001600160a01b031633146112085760405162461bcd60e51b815260040161088090612b9b565b61121181611e35565b50565b6033546001600160a01b0316331461123e5760405162461bcd60e51b815260040161088090612b9b565b6001600160a01b038116600081815260416020908152604091829020805460ff19166001179055905191825233917f4a9622c6945580f38c98aa249f85babc8ae91f5dc0a8c4665b6dc699b2dfce0c9101611079565b61129c611f52565b670de0b6b3a76400008211156112c45760405162461bcd60e51b815260040161088090612dcf565b6112cc611fab565b600061135383603760009054906101000a90046001600160a01b03166001600160a01b031663313ce5676040518163ffffffff1660e01b8152600401602060405180830381865afa158015611325573d6000803e3d6000fd5b505050506040513d601f19601f820116820180604052508101906113499190612b7e565b60ff166012611084565b3360008181526042602052604081208054600182015494955092939092829161137c919061076d565b909250905061138b8183612ccc565b8511156113e95760405162461bcd60e51b815260206004820152602660248201527f4475657450726f5374616b696e673a20696e73756666696369656e74206c697160448201526575696469747960d01b6064820152608401610880565b600183015483546000916113fc91612b6b565b9050600080600080868a1161142057611416858b89611d47565b9350899250611444565b849350869250611430838b612b6b565b905061144188600101548288611d47565b91505b61144e8285612ccc565b8860000160008282546114619190612b6b565b9091555061147190508285612ccc565b603860008282546114829190612b6b565b9250508190555082603a600082825461149b9190612b6b565b92505081905550818860010160008282546114b69190612b6b565b9250508190555081603960008282546114cf9190612b6b565b9250508190555080603b60008282546114e89190612b6b565b909155506114f7905089611fc3565b8988600701600082825461150b9190612ccc565b92505081905550603460009054906101000a90046001600160a01b03166001600160a01b031663489d6b06603760009054906101000a90046001600160a01b03168e8e6040518463ffffffff1660e01b815260040161156c93929190612bc1565b600060405180830381600087803b15801561158657600080fd5b505af115801561159a573d6000803e3d6000fd5b50506037546115b692506001600160a01b031690508a8e611fe9565b505050505050505050506115c960018055565b5050565b6115d5611f52565b670de0b6b3a76400008211156115fd5760405162461bcd60e51b815260040161088090612dcf565b611605611fab565b603754339061161f906001600160a01b0316823086611ee1565b60375460345460405163095ea7b360e01b81526001600160a01b0391821660048201526024810186905291169063095ea7b3906044016020604051808303816000875af1158015611674573d6000803e3d6000fd5b505050506040513d601f19601f820116820180604052508101906116989190612e2c565b506034546037546040516321aade6b60e11b81526001600160a01b0392831692634355bcd69234926116d4929091169088908890600401612bc1565b6000604051808303818588803b1580156116ed57600080fd5b505af1158015611701573d6000803e3d6000fd5b5050505050600061175f84603760009054906101000a90046001600160a01b03166001600160a01b031663313ce5676040518163ffffffff1660e01b8152600401602060405180830381865afa158015611325573d6000803e3d6000fd5b6001600160a01b0383166000908152604260205260408120603954603854939450909261178c9190612b6b565b9050600080821161179d57836117aa565b6117aa8483603a54611d47565b905083603a60008282546117be9190612ccc565b9250508190555080603860008282546117d79190612ccc565b90915550508254819084906000906117f0908490612ccc565b909155506117ff905085611fc3565b838360060160008282546118139190612ccc565b90915550611822905085612024565b50505050506115c960018055565b61188a60405180610100016040528060006001600160a01b031681526020016000815260200160006001600160a01b0316815260200160008152602001600081526020016000815260200160008152602001606081525090565b60355460345460405163bea66a0160e01b81526001600160a01b03918216600482015230602482015291169063bea66a0190604401600060405180830381865afa1580156118dc573d6000803e3d6000fd5b505050506040513d6000823e601f3d908101601f191682016040526119049190810190612ff6565b905090565b6000806000611916610d71565b9150915060006038541161192a578361194b565b6119348183612ccc565b6038546119419086612c7d565b61194b9190612caa565b949350505050565b61195b611f52565b336000818152604060208181528183206001600160a01b038716845290529020548211156119df5760405162461bcd60e51b815260206004820152602b60248201527f4475657450726f5374616b696e673a20696e73756666696369656e742073746160448201526a35b2b2103137b7b9ba32b960a91b6064820152608401610880565b6001600160a01b03811660009081526042602052604090206119ff611fab565b6001600160a01b038083166000908152604060208181528183209388168352929092529081208054859290611a35908490612b6b565b9250508190555082816003016000828254611a509190612b6b565b9250508190555082603d6000828254611a699190612b6b565b9091555060009050611a7b85856123c1565b905080826002015411611a945760006002830155611aae565b80826002016000828254611aa89190612b6b565b90915550505b80603c5411611ac1576000603c55611ad9565b80603c6000828254611ad39190612b6b565b90915550505b611aed6001600160a01b0386168486611fe9565b611af683611fc3565b611aff83612024565b5050506115c960018055565b611b13611f52565b6001600160a01b03821660009081526041602052604090205460ff16611b875760405162461bcd60e51b815260206004820152602360248201527f4475657450726f5374616b696e673a20756e737570706f7274656420626f6f736044820152623a32b960e91b6064820152608401610880565b6000611bcb82846001600160a01b031663313ce5676040518163ffffffff1660e01b8152600401602060405180830381865afa158015611325573d6000803e3d6000fd5b9050670de0b6b3a7640000811015611c4b5760405162461bcd60e51b815260206004820152603e60248201527f4475657450726f5374616b696e673a20616d6f756e74206d757374206265206760448201527f726561746572207468616e204d494e5f424f4f535445525f544f4b454e5300006064820152608401610880565b336000818152604260205260409020611c62611fab565b611c776001600160a01b038616833087611ee1565b6001600160a01b038083166000908152604060208181528183209389168352929092529081208054859290611cad908490612ccc565b9250508190555082816003016000828254611cc89190612ccc565b9250508190555082603d6000828254611ce19190612ccc565b9091555060009050611cf386856123c1565b905080826002016000828254611d099190612ccc565b9250508190555080603c6000828254611d229190612ccc565b90915550611d31905083611fc3565b611d3a83612024565b505050506115c960018055565b6000808060001985870985870292508281108382030391505080600003611d8e5760008411611d7557600080fd5b838281611d8457611d84612c94565b04925050506110e4565b808411611d9a57600080fd5b600084868809600360018719810188169788900491820a808302600290810390910280840282030280840282030280840282030280840282030292830290039091026000889003889004909101858311909403939093029303949094049190911702949350505050565b600054610100900460ff16611e2b5760405162461bcd60e51b8152600401610880906130b8565b611e3361246b565b565b6001600160a01b038116611e955760405162461bcd60e51b815260206004820152602160248201527f43616e206e6f74207365742061646d696e20746f207a65726f206164647265736044820152607360f81b6064820152608401610880565b603380546001600160a01b0319166001600160a01b03831690811790915560405133907f101b8081ff3b56bbf45deb824d86a3b0fd38b7e3dd42421105cf8abe9106db0b90600090a350565b6040516001600160a01b0380851660248301528316604482015260648101829052611f4c9085906323b872dd60e01b906084015b60408051601f198184030181529190526020810180516001600160e01b03166001600160e01b031990931692909217909152612492565b50505050565b600260015403611fa45760405162461bcd60e51b815260206004820152601f60248201527f5265656e7472616e637947756172643a207265656e7472616e742063616c6c006044820152606401610880565b6002600155565b42603e5543603f55611fbb610d71565b603b55603a55565b6001600160a01b0316600090815260426020526040902043600582015542600490910155565b6040516001600160a01b03831660248201526044810182905261201990849063a9059cbb60e01b90606401611f15565b505050565b60018055565b6001600160a01b0381166000908152604260205260409020603f5443146120975760405162461bcd60e51b815260206004820152602160248201527f4475657450726f5374616b696e673a2075706461746520706f6f6c20666972736044820152601d60fa1b6064820152608401610880565b438160050154146120fb5760405162461bcd60e51b815260206004820152602860248201527f4475657450726f5374616b696e673a2075706461746520757365722073686172604482015267195cc8199a5c9cdd60c21b6064820152608401610880565b805460000361210f57600060019091015550565b6001810154815460009161212291612b6b565b90506000806121398460000154856001015461076d565b915091508360020154810361214f575050505050565b836002015481111561227457600084600201548261216d9190612b6b565b9050600061218086600101548385611d47565b905060006121a06039546038546121979190612b6b565b84603a54611d47565b9050818760010160008282546121b69190612b6b565b9250508190555081603960008282546121cf9190612b6b565b90915550508654829088906000906121e8908490612b6b565b9091555050865481908890600090612201908490612ccc565b92505081905550816038600082825461221a9190612b6b565b9250508190555080603860008282546122339190612ccc565b9250508190555082603b600082825461224c9190612b6b565b9250508190555082603a60008282546122659190612ccc565b90915550505050505050505050565b60008185600201546122869190612b6b565b9050828110156122965780612298565b825b90506000808660010154116122cb576000603954116122b757816122dc565b6122c682603b54603954611d47565b6122dc565b6122dc866001015483603b54611d47565b905060008086116122ee5760006122f9565b6122f9868487611d47565b90506000818310156123145761230f8383612b6b565b61231e565b61231e8284612b6b565b9050828860010160008282546123349190612ccc565b909155505087548190899060009061234d908490612b6b565b9250508190555082603960008282546123669190612ccc565b92505081905550806038600082825461237f9190612b6b565b9250508190555083603b60008282546123989190612ccc565b9250508190555083603a60008282546123b19190612b6b565b9091555050505050505050505050565b6036546040516341976e0960e01b81526001600160a01b03848116600483015260009283929116906341976e0990602401602060405180830381865afa15801561240f573d6000803e3d6000fd5b505050506040513d601f19601f820116820180604052508101906124339190613103565b90506124616124446012600a612dc3565b61244e8584612c7d565b6124589190612caa565b60086012611084565b9150505b92915050565b600054610100900460ff1661201e5760405162461bcd60e51b8152600401610880906130b8565b60006124e7826040518060400160405280602081526020017f5361666545524332303a206c6f772d6c6576656c2063616c6c206661696c6564815250856001600160a01b03166125649092919063ffffffff16565b80519091501561201957808060200190518101906125059190612e2c565b6120195760405162461bcd60e51b815260206004820152602a60248201527f5361666545524332303a204552433230206f7065726174696f6e20646964206e6044820152691bdd081cdd58d8d9595960b21b6064820152608401610880565b60606110e1848460008585600080866001600160a01b0316858760405161258b919061311c565b60006040518083038185875af1925050503d80600081146125c8576040519150601f19603f3d011682016040523d82523d6000602084013e6125cd565b606091505b50915091506125de878383876125e9565b979650505050505050565b60608315612658578251600003612651576001600160a01b0385163b6126515760405162461bcd60e51b815260206004820152601d60248201527f416464726573733a2063616c6c20746f206e6f6e2d636f6e74726163740000006044820152606401610880565b508161194b565b61194b838381511561266d5781518083602001fd5b8060405162461bcd60e51b81526004016108809190613138565b6000806040838503121561269a57600080fd5b50508035926020909101359150565b6001600160a01b038116811461121157600080fd5b600080600080600060a086880312156126d657600080fd5b85356126e1816126a9565b945060208601356126f1816126a9565b93506040860135612701816126a9565b92506060860135612711816126a9565b91506080860135612721816126a9565b809150509295509295909350565b60006020828403121561274157600080fd5b81356110e4816126a9565b634e487b7160e01b600052604160045260246000fd5b60405160c0810167ffffffffffffffff811182821017156127855761278561274c565b60405290565b60405160e0810167ffffffffffffffff811182821017156127855761278561274c565b604051610100810167ffffffffffffffff811182821017156127855761278561274c565b604051601f8201601f1916810167ffffffffffffffff811182821017156127fb576127fb61274c565b604052919050565b600067ffffffffffffffff82111561281d5761281d61274c565b5060051b60200190565b60ff8116811461121157600080fd5b600080604080848603121561284a57600080fd5b8335925060208085013567ffffffffffffffff81111561286957600080fd5b8501601f8101871361287a57600080fd5b803561288d61288882612803565b6127d2565b81815260c0918202830184019184820191908a8411156128ac57600080fd5b938501935b8385101561291b5780858c0312156128c95760008081fd5b6128d1612762565b85358152868601358782015287860135888201526060808701356128f481612827565b908201526080868101359082015260a08087013590820152835293840193918501916128b1565b508096505050505050509250929050565b6000806040838503121561293f57600080fd5b823561294a816126a9565b9150602083013561295a816126a9565b809150509250929050565b60008060006060848603121561297a57600080fd5b505081359360208301359350604090920135919050565b60005b838110156129ac578181015183820152602001612994565b50506000910152565b600081518084526129cd816020860160208601612991565b601f01601f19169290920160200192915050565b600081518084526020808501808196508360051b8101915082860160005b85811015612a92578284038952815180516001600160a01b03908116865286820151168686015260408082015160e08288018190529190612a42838901826129b5565b9250505060608083015187830382890152612a5d83826129b5565b608085810151908a015260a080860151908a015260c094850151949098019390935250505097840197908401906001016129ff565b5091979650505050505050565b60208152600060018060a01b03808451166020840152602084015160408401528060408501511660608401525060608301516080830152608083015160a083015260a083015160c083015260c083015160e083015260e08301516101008081850152506124616101208401826129e1565b600060208284031215612b2257600080fd5b5035919050565b60008060408385031215612b3c57600080fd5b8235612b47816126a9565b946020939093013593505050565b634e487b7160e01b600052601160045260246000fd5b8181038181111561246557612465612b55565b600060208284031215612b9057600080fd5b81516110e481612827565b6020808252600c908201526b15539055551213d49256915160a21b604082015260600190565b6001600160a01b03841681526020808201849052606060408084018290528451848301819052600093608092909183870190888401875b82811015612c4557815180518552868101518786015285810151868601528881015160ff1689860152878101518886015260a0908101519085015260c09093019290850190600101612bf8565b50919b9a5050505050505050505050565b8181036000831280158383131683831282161715612c7657612c76612b55565b5092915050565b808202811582820484141761246557612465612b55565b634e487b7160e01b600052601260045260246000fd5b600082612cc757634e487b7160e01b600052601260045260246000fd5b500490565b8082018082111561246557612465612b55565b600181815b80851115612d1a578160001904821115612d0057612d00612b55565b80851615612d0d57918102915b93841c9390800290612ce4565b509250929050565b600082612d3157506001612465565b81612d3e57506000612465565b8160018114612d545760028114612d5e57612d7a565b6001915050612465565b60ff841115612d6f57612d6f612b55565b50506001821b612465565b5060208310610133831016604e8410600b8410161715612d9d575081810a612465565b612da78383612cdf565b8060001904821115612dbb57612dbb612b55565b029392505050565b60006110e48383612d22565b6020808252603d908201527f4475657450726f5374616b696e673a20616d6f756e74206d757374206265206760408201527f726561746572207468616e204d494e5f4c49515549444954595f4f5053000000606082015260800190565b600060208284031215612e3e57600080fd5b815180151581146110e457600080fd5b8051612e59816126a9565b919050565b600082601f830112612e6f57600080fd5b815167ffffffffffffffff811115612e8957612e8961274c565b612e9c601f8201601f19166020016127d2565b818152846020838601011115612eb157600080fd5b61194b826020830160208701612991565b600082601f830112612ed357600080fd5b81516020612ee361288883612803565b82815260059290921b84018101918181019086841115612f0257600080fd5b8286015b84811015612feb57805167ffffffffffffffff80821115612f275760008081fd5b9088019060e0828b03601f1901811315612f415760008081fd5b612f4961278b565b612f54888501612e4e565b81526040612f63818601612e4e565b8983015260608086015185811115612f7b5760008081fd5b612f898f8c838a0101612e5e565b8385015250608091508186015185811115612fa45760008081fd5b612fb28f8c838a0101612e5e565b918401919091525060a0858101519183019190915260c08086015191830191909152919093015190830152508352918301918301612f06565b509695505050505050565b60006020828403121561300857600080fd5b815167ffffffffffffffff8082111561302057600080fd5b90830190610100828603121561303557600080fd5b61303d6127ae565b61304683612e4e565b81526020830151602082015261305e60408401612e4e565b6040820152606083015160608201526080830151608082015260a083015160a082015260c083015160c082015260e08301518281111561309d57600080fd5b6130a987828601612ec2565b60e08301525095945050505050565b6020808252602b908201527f496e697469616c697a61626c653a20636f6e7472616374206973206e6f74206960408201526a6e697469616c697a696e6760a81b606082015260800190565b60006020828403121561311557600080fd5b5051919050565b6000825161312e818460208701612991565b9190910192915050565b6020815260006110e460208301846129b556fea2646970667358221220b62903884d37d403d5458e4c2cf74f02ddbcb7dddcd276bd0cb3a08bd661762764736f6c63430008110033",
  "devdoc": {
    "kind": "dev",
    "methods": {},
    "version": 1
  },
  "userdoc": {
    "kind": "user",
    "methods": {},
    "version": 1
  },
  "storageLayout": {
    "storage": [
      {
        "astId": 6,
        "contract": "contracts/DuetProStaking.sol:DuetProStaking",
        "label": "_initialized",
        "offset": 0,
        "slot": "0",
        "type": "t_uint8"
      },
      {
        "astId": 9,
        "contract": "contracts/DuetProStaking.sol:DuetProStaking",
        "label": "_initializing",
        "offset": 1,
        "slot": "0",
        "type": "t_bool"
      },
      {
        "astId": 309,
        "contract": "contracts/DuetProStaking.sol:DuetProStaking",
        "label": "_status",
        "offset": 0,
        "slot": "1",
        "type": "t_uint256"
      },
      {
        "astId": 367,
        "contract": "contracts/DuetProStaking.sol:DuetProStaking",
        "label": "__gap",
        "offset": 0,
        "slot": "2",
        "type": "t_array(t_uint256)49_storage"
      },
      {
        "astId": 1124,
        "contract": "contracts/DuetProStaking.sol:DuetProStaking",
        "label": "admin",
        "offset": 0,
        "slot": "51",
        "type": "t_address"
      },
      {
        "astId": 1401,
        "contract": "contracts/DuetProStaking.sol:DuetProStaking",
        "label": "pool",
        "offset": 0,
        "slot": "52",
        "type": "t_contract(IPool)3408"
      },
      {
        "astId": 1404,
        "contract": "contracts/DuetProStaking.sol:DuetProStaking",
        "label": "deriLens",
        "offset": 0,
        "slot": "53",
        "type": "t_contract(IDeriLens)3251"
      },
      {
        "astId": 1407,
        "contract": "contracts/DuetProStaking.sol:DuetProStaking",
        "label": "boosterOracle",
        "offset": 0,
        "slot": "54",
        "type": "t_contract(IBoosterOracle)2952"
      },
      {
        "astId": 1410,
        "contract": "contracts/DuetProStaking.sol:DuetProStaking",
        "label": "usdLikeUnderlying",
        "offset": 0,
        "slot": "55",
        "type": "t_contract(IERC20MetadataUpgradeable)471"
      },
      {
        "astId": 1412,
        "contract": "contracts/DuetProStaking.sol:DuetProStaking",
        "label": "totalShares",
        "offset": 0,
        "slot": "56",
        "type": "t_uint256"
      },
      {
        "astId": 1414,
        "contract": "contracts/DuetProStaking.sol:DuetProStaking",
        "label": "totalBoostedShares",
        "offset": 0,
        "slot": "57",
        "type": "t_uint256"
      },
      {
        "astId": 1416,
        "contract": "contracts/DuetProStaking.sol:DuetProStaking",
        "label": "lastNormalLiquidity",
        "offset": 0,
        "slot": "58",
        "type": "t_uint256"
      },
      {
        "astId": 1418,
        "contract": "contracts/DuetProStaking.sol:DuetProStaking",
        "label": "lastBoostedLiquidity",
        "offset": 0,
        "slot": "59",
        "type": "t_uint256"
      },
      {
        "astId": 1420,
        "contract": "contracts/DuetProStaking.sol:DuetProStaking",
        "label": "totalStakedBoosterValue",
        "offset": 0,
        "slot": "60",
        "type": "t_uint256"
      },
      {
        "astId": 1422,
        "contract": "contracts/DuetProStaking.sol:DuetProStaking",
        "label": "totalStakedBoosterAmount",
        "offset": 0,
        "slot": "61",
        "type": "t_uint256"
      },
      {
        "astId": 1424,
        "contract": "contracts/DuetProStaking.sol:DuetProStaking",
        "label": "lastActionTime",
        "offset": 0,
        "slot": "62",
        "type": "t_uint256"
      },
      {
        "astId": 1426,
        "contract": "contracts/DuetProStaking.sol:DuetProStaking",
        "label": "lastActionBlock",
        "offset": 0,
        "slot": "63",
        "type": "t_uint256"
      },
      {
        "astId": 1432,
        "contract": "contracts/DuetProStaking.sol:DuetProStaking",
        "label": "userStakedBooster",
        "offset": 0,
        "slot": "64",
        "type": "t_mapping(t_address,t_mapping(t_address,t_uint256))"
      },
      {
        "astId": 1436,
        "contract": "contracts/DuetProStaking.sol:DuetProStaking",
        "label": "supportedBoosterTokens",
        "offset": 0,
        "slot": "65",
        "type": "t_mapping(t_address,t_bool)"
      },
      {
        "astId": 1441,
        "contract": "contracts/DuetProStaking.sol:DuetProStaking",
        "label": "userInfos",
        "offset": 0,
        "slot": "66",
        "type": "t_mapping(t_address,t_struct(UserInfo)1458_storage)"
      }
    ],
    "types": {
      "t_address": {
        "encoding": "inplace",
        "label": "address",
        "numberOfBytes": "20"
      },
      "t_array(t_uint256)49_storage": {
        "base": "t_uint256",
        "encoding": "inplace",
        "label": "uint256[49]",
        "numberOfBytes": "1568"
      },
      "t_bool": {
        "encoding": "inplace",
        "label": "bool",
        "numberOfBytes": "1"
      },
      "t_contract(IBoosterOracle)2952": {
        "encoding": "inplace",
        "label": "contract IBoosterOracle",
        "numberOfBytes": "20"
      },
      "t_contract(IDeriLens)3251": {
        "encoding": "inplace",
        "label": "contract IDeriLens",
        "numberOfBytes": "20"
      },
      "t_contract(IERC20MetadataUpgradeable)471": {
        "encoding": "inplace",
        "label": "contract IERC20MetadataUpgradeable",
        "numberOfBytes": "20"
      },
      "t_contract(IPool)3408": {
        "encoding": "inplace",
        "label": "contract IPool",
        "numberOfBytes": "20"
      },
      "t_mapping(t_address,t_bool)": {
        "encoding": "mapping",
        "key": "t_address",
        "label": "mapping(address => bool)",
        "numberOfBytes": "32",
        "value": "t_bool"
      },
      "t_mapping(t_address,t_mapping(t_address,t_uint256))": {
        "encoding": "mapping",
        "key": "t_address",
        "label": "mapping(address => mapping(address => uint256))",
        "numberOfBytes": "32",
        "value": "t_mapping(t_address,t_uint256)"
      },
      "t_mapping(t_address,t_struct(UserInfo)1458_storage)": {
        "encoding": "mapping",
        "key": "t_address",
        "label": "mapping(address => struct DuetProStaking.UserInfo)",
        "numberOfBytes": "32",
        "value": "t_struct(UserInfo)1458_storage"
      },
      "t_mapping(t_address,t_uint256)": {
        "encoding": "mapping",
        "key": "t_address",
        "label": "mapping(address => uint256)",
        "numberOfBytes": "32",
        "value": "t_uint256"
      },
      "t_struct(UserInfo)1458_storage": {
        "encoding": "inplace",
        "label": "struct DuetProStaking.UserInfo",
        "members": [
          {
            "astId": 1443,
            "contract": "contracts/DuetProStaking.sol:DuetProStaking",
            "label": "shares",
            "offset": 0,
            "slot": "0",
            "type": "t_uint256"
          },
          {
            "astId": 1445,
            "contract": "contracts/DuetProStaking.sol:DuetProStaking",
            "label": "boostedShares",
            "offset": 0,
            "slot": "1",
            "type": "t_uint256"
          },
          {
            "astId": 1447,
            "contract": "contracts/DuetProStaking.sol:DuetProStaking",
            "label": "stakedBoosterValue",
            "offset": 0,
            "slot": "2",
            "type": "t_uint256"
          },
          {
            "astId": 1449,
            "contract": "contracts/DuetProStaking.sol:DuetProStaking",
            "label": "stakedBoosterAmount",
            "offset": 0,
            "slot": "3",
            "type": "t_uint256"
          },
          {
            "astId": 1451,
            "contract": "contracts/DuetProStaking.sol:DuetProStaking",
            "label": "lastActionTime",
            "offset": 0,
            "slot": "4",
            "type": "t_uint256"
          },
          {
            "astId": 1453,
            "contract": "contracts/DuetProStaking.sol:DuetProStaking",
            "label": "lastActionBlock",
            "offset": 0,
            "slot": "5",
            "type": "t_uint256"
          },
          {
            "astId": 1455,
            "contract": "contracts/DuetProStaking.sol:DuetProStaking",
            "label": "accAddedLiquidity",
            "offset": 0,
            "slot": "6",
            "type": "t_uint256"
          },
          {
            "astId": 1457,
            "contract": "contracts/DuetProStaking.sol:DuetProStaking",
            "label": "accRemovedLiquidity",
            "offset": 0,
            "slot": "7",
            "type": "t_uint256"
          }
        ],
        "numberOfBytes": "256"
      },
      "t_uint256": {
        "encoding": "inplace",
        "label": "uint256",
        "numberOfBytes": "32"
      },
      "t_uint8": {
        "encoding": "inplace",
        "label": "uint8",
        "numberOfBytes": "1"
      }
    }
  }
}