{
  "address": "0x8e5fE8f123408b26CBe33DC32f7A68656BFd25d9",
  "abi": [
    {
      "anonymous": false,
      "inputs": [
        {
          "indexed": true,
          "internalType": "address",
          "name": "user",
          "type": "address"
        },
        {
          "indexed": true,
          "internalType": "address",
          "name": "newAdmin",
          "type": "address"
        }
      ],
      "name": "AdminUpdated",
      "type": "event"
    },
    {
      "anonymous": false,
      "inputs": [
        {
          "indexed": false,
          "internalType": "uint8",
          "name": "version",
          "type": "uint8"
        }
      ],
      "name": "Initialized",
      "type": "event"
    },
    {
      "anonymous": false,
      "inputs": [
        {
          "indexed": false,
          "internalType": "address",
          "name": "account",
          "type": "address"
        }
      ],
      "name": "Paused",
      "type": "event"
    },
    {
      "anonymous": false,
      "inputs": [
        {
          "indexed": true,
          "internalType": "address",
          "name": "previousPool",
          "type": "address"
        },
        {
          "indexed": true,
          "internalType": "address",
          "name": "newPool",
          "type": "address"
        }
      ],
      "name": "SiblingPoolUpdated",
      "type": "event"
    },
    {
      "anonymous": false,
      "inputs": [
        {
          "indexed": true,
          "internalType": "address",
          "name": "user",
          "type": "address"
        },
        {
          "indexed": false,
          "internalType": "uint256",
          "name": "amount",
          "type": "uint256"
        }
      ],
      "name": "Staked",
      "type": "event"
    },
    {
      "anonymous": false,
      "inputs": [
        {
          "indexed": false,
          "internalType": "address",
          "name": "account",
          "type": "address"
        }
      ],
      "name": "Unpaused",
      "type": "event"
    },
    {
      "anonymous": false,
      "inputs": [
        {
          "indexed": true,
          "internalType": "address",
          "name": "user",
          "type": "address"
        },
        {
          "indexed": false,
          "internalType": "uint256",
          "name": "amount",
          "type": "uint256"
        }
      ],
      "name": "Unstaked",
      "type": "event"
    },
    {
      "inputs": [],
      "name": "ACC_REWARDS_PRECISION",
      "outputs": [
        {
          "internalType": "uint256",
          "name": "",
          "type": "uint256"
        }
      ],
      "stateMutability": "view",
      "type": "function"
    },
    {
      "inputs": [],
      "name": "accRewardPerShare",
      "outputs": [
        {
          "internalType": "uint256",
          "name": "",
          "type": "uint256"
        }
      ],
      "stateMutability": "view",
      "type": "function"
    },
    {
      "inputs": [],
      "name": "admin",
      "outputs": [
        {
          "internalType": "address",
          "name": "",
          "type": "address"
        }
      ],
      "stateMutability": "view",
      "type": "function"
    },
    {
      "inputs": [],
      "name": "bond",
      "outputs": [
        {
          "internalType": "contract IExtendableBond",
          "name": "",
          "type": "address"
        }
      ],
      "stateMutability": "view",
      "type": "function"
    },
    {
      "inputs": [],
      "name": "bondRewardsSuspended",
      "outputs": [
        {
          "internalType": "bool",
          "name": "",
          "type": "bool"
        }
      ],
      "stateMutability": "view",
      "type": "function"
    },
    {
      "inputs": [],
      "name": "bondToken",
      "outputs": [
        {
          "internalType": "contract IERC20Upgradeable",
          "name": "",
          "type": "address"
        }
      ],
      "stateMutability": "view",
      "type": "function"
    },
    {
      "inputs": [],
      "name": "claimBonuses",
      "outputs": [],
      "stateMutability": "nonpayable",
      "type": "function"
    },
    {
      "inputs": [
        {
          "internalType": "address",
          "name": "user_",
          "type": "address"
        }
      ],
      "name": "getUserPendingRewards",
      "outputs": [
        {
          "internalType": "uint256",
          "name": "",
          "type": "uint256"
        }
      ],
      "stateMutability": "view",
      "type": "function"
    },
    {
      "inputs": [
        {
          "internalType": "contract IERC20Upgradeable",
          "name": "bondToken_",
          "type": "address"
        },
        {
          "internalType": "contract IExtendableBond",
          "name": "bond_",
          "type": "address"
        },
        {
          "internalType": "address",
          "name": "admin_",
          "type": "address"
        }
      ],
      "name": "initialize",
      "outputs": [],
      "stateMutability": "nonpayable",
      "type": "function"
    },
    {
      "inputs": [],
      "name": "lastUpdatedPoolAt",
      "outputs": [
        {
          "internalType": "uint256",
          "name": "",
          "type": "uint256"
        }
      ],
      "stateMutability": "view",
      "type": "function"
    },
    {
      "inputs": [],
      "name": "lpToken",
      "outputs": [
        {
          "internalType": "contract IERC20Upgradeable",
          "name": "",
          "type": "address"
        }
      ],
      "stateMutability": "view",
      "type": "function"
    },
    {
      "inputs": [],
      "name": "masterChef",
      "outputs": [
        {
          "internalType": "contract MultiRewardsMasterChef",
          "name": "",
          "type": "address"
        }
      ],
      "stateMutability": "view",
      "type": "function"
    },
    {
      "inputs": [],
      "name": "masterChefPid",
      "outputs": [
        {
          "internalType": "uint256",
          "name": "",
          "type": "uint256"
        }
      ],
      "stateMutability": "view",
      "type": "function"
    },
    {
      "inputs": [],
      "name": "paused",
      "outputs": [
        {
          "internalType": "bool",
          "name": "",
          "type": "bool"
        }
      ],
      "stateMutability": "view",
      "type": "function"
    },
    {
      "inputs": [
        {
          "internalType": "address",
          "name": "user_",
          "type": "address"
        }
      ],
      "name": "resetUserRewardDebit",
      "outputs": [],
      "stateMutability": "nonpayable",
      "type": "function"
    },
    {
      "inputs": [
        {
          "internalType": "address",
          "name": "newAdmin",
          "type": "address"
        }
      ],
      "name": "setAdmin",
      "outputs": [],
      "stateMutability": "nonpayable",
      "type": "function"
    },
    {
      "inputs": [
        {
          "internalType": "bool",
          "name": "suspended_",
          "type": "bool"
        }
      ],
      "name": "setBondRewardsSuspended",
      "outputs": [],
      "stateMutability": "nonpayable",
      "type": "function"
    },
    {
      "inputs": [
        {
          "internalType": "contract IERC20Upgradeable",
          "name": "lpToken_",
          "type": "address"
        }
      ],
      "name": "setLpToken",
      "outputs": [],
      "stateMutability": "nonpayable",
      "type": "function"
    },
    {
      "inputs": [
        {
          "internalType": "contract MultiRewardsMasterChef",
          "name": "masterChef_",
          "type": "address"
        },
        {
          "internalType": "uint256",
          "name": "masterChefPid_",
          "type": "uint256"
        }
      ],
      "name": "setMasterChef",
      "outputs": [],
      "stateMutability": "nonpayable",
      "type": "function"
    },
    {
      "inputs": [
        {
          "internalType": "contract IBondFarmingPool",
          "name": "siblingPool_",
          "type": "address"
        }
      ],
      "name": "setSiblingPool",
      "outputs": [],
      "stateMutability": "nonpayable",
      "type": "function"
    },
    {
      "inputs": [],
      "name": "siblingPool",
      "outputs": [
        {
          "internalType": "contract IBondFarmingPool",
          "name": "",
          "type": "address"
        }
      ],
      "stateMutability": "view",
      "type": "function"
    },
    {
      "inputs": [
        {
          "internalType": "uint256",
          "name": "amount_",
          "type": "uint256"
        }
      ],
      "name": "stake",
      "outputs": [],
      "stateMutability": "nonpayable",
      "type": "function"
    },
    {
      "inputs": [
        {
          "internalType": "address",
          "name": "user_",
          "type": "address"
        },
        {
          "internalType": "uint256",
          "name": "amount_",
          "type": "uint256"
        }
      ],
      "name": "stakeForUser",
      "outputs": [],
      "stateMutability": "nonpayable",
      "type": "function"
    },
    {
      "inputs": [],
      "name": "totalLpAmount",
      "outputs": [
        {
          "internalType": "uint256",
          "name": "",
          "type": "uint256"
        }
      ],
      "stateMutability": "view",
      "type": "function"
    },
    {
      "inputs": [],
      "name": "totalPendingRewards",
      "outputs": [
        {
          "internalType": "uint256",
          "name": "",
          "type": "uint256"
        }
      ],
      "stateMutability": "view",
      "type": "function"
    },
    {
      "inputs": [
        {
          "internalType": "uint256",
          "name": "amount_",
          "type": "uint256"
        }
      ],
      "name": "unstake",
      "outputs": [],
      "stateMutability": "nonpayable",
      "type": "function"
    },
    {
      "inputs": [],
      "name": "unstakeAll",
      "outputs": [],
      "stateMutability": "nonpayable",
      "type": "function"
    },
    {
      "inputs": [],
      "name": "updatePool",
      "outputs": [],
      "stateMutability": "nonpayable",
      "type": "function"
    },
    {
      "inputs": [
        {
          "internalType": "address",
          "name": "",
          "type": "address"
        }
      ],
      "name": "usersInfo",
      "outputs": [
        {
          "internalType": "uint256",
          "name": "lpAmount",
          "type": "uint256"
        },
        {
          "internalType": "uint256",
          "name": "rewardDebt",
          "type": "uint256"
        },
        {
          "internalType": "uint256",
          "name": "pendingRewards",
          "type": "uint256"
        },
        {
          "internalType": "uint256",
          "name": "claimedRewards",
          "type": "uint256"
        }
      ],
      "stateMutability": "view",
      "type": "function"
    }
  ],
  "transactionHash": "0x4a65614d60a39386ffea1510f591eba1e94436fad6cd75d532b213d4f45556de",
  "args": [],
  "numDeployments": 9,
  "solcInputHash": "6e7314b689170c54588a818f52f46db3",
  "bytecode": "0x60806040526000609c5560a1805460ff1916905534801561001f57600080fd5b50611d778061002f6000396000f3fe608060405234801561001057600080fd5b50600436106101cf5760003560e01c8063672f149011610104578063c28f4392116100a2578063e3161ddd11610071578063e3161ddd146103d7578063ec1371f2146103df578063f851a440146103e7578063fd79c6a2146103fa57600080fd5b8063c28f4392146103a0578063c62c610b146103b3578063cf7c11fa146103bc578063d9d72c19146103cf57600080fd5b80639ee933b5116100de5780639ee933b514610354578063a694fc3a14610367578063a75f68c71461037a578063c0c53b8b1461038d57600080fd5b8063672f149014610325578063704b6c0214610338578063939d62371461034b57600080fd5b80635b755f39116101715780635d0eaaaf1161014b5780635d0eaaaf1461029d5780635fcbd285146102f257806364c9ec6f146103055780636702679a1461031857600080fd5b80635b755f39146102715780635c975abb1461027d5780635d0198811461029457600080fd5b806335322f37116101ad57806335322f371461022c57806345a13b9614610234578063532d739714610247578063575a86b21461025e57600080fd5b8063123cecbe146101d45780632e17de78146101e95780633530c61e146101fc575b600080fd5b6101e76101e2366004611a2c565b61040d565b005b6101e76101f7366004611a49565b610601565b609b5461020f906001600160a01b031681565b6040516001600160a01b0390911681526020015b60405180910390f35b6101e7610955565b6101e7610242366004611a70565b6109c1565b61025060a05481565b604051908152602001610223565b609d5461020f906001600160a01b031681565b61025064e8d4a5100081565b60655460ff165b6040519015158152602001610223565b610250609c5481565b6102d26102ab366004611a2c565b60a26020526000908152604090208054600182015460028301546003909301549192909184565b604080519485526020850193909352918301526060820152608001610223565b60995461020f906001600160a01b031681565b609a5461020f906001600160a01b031681565b60a1546102849060ff1681565b6101e7610333366004611a8d565b610a06565b6101e7610346366004611a2c565b610a56565b610250609f5481565b6101e7610362366004611a2c565b610a8c565b6101e7610375366004611a49565b610ad8565b6101e7610388366004611a2c565b610b83565b6101e761039b366004611ab9565b610bed565b60985461020f906001600160a01b031681565b610250609e5481565b6102506103ca366004611a2c565b610ca6565b6101e7610de1565b6101e7610deb565b610250610e88565b60975461020f906001600160a01b031681565b6101e7610408366004611a8d565b610fc1565b6097546001600160a01b031633146104405760405162461bcd60e51b815260040161043790611b04565b60405180910390fd5b60006001600160a01b0316816001600160a01b0316633530c61e6040518163ffffffff1660e01b815260040160206040518083038186803b15801561048457600080fd5b505afa158015610498573d6000803e3d6000fd5b505050506040513d601f19601f820116820180604052508101906104bc9190611b2a565b6001600160a01b031614806105525750306001600160a01b0316816001600160a01b0316633530c61e6040518163ffffffff1660e01b815260040160206040518083038186803b15801561050f57600080fd5b505afa158015610523573d6000803e3d6000fd5b505050506040513d601f19601f820116820180604052508101906105479190611b2a565b6001600160a01b0316145b801561056757506001600160a01b0381163014155b6105a55760405162461bcd60e51b815260206004820152600f60248201526e496e76616c6964207369626c696e6760881b6044820152606401610437565b609b546040516001600160a01b038084169216907f5c0b1436fffe2be9a261bad04f4b4c330db8e95f54f09d910e47447e94f4329490600090a3609b80546001600160a01b0319166001600160a01b0392909216919091179055565b60655460ff16156106245760405162461bcd60e51b815260040161043790611b47565b600260015414156106775760405162461bcd60e51b815260206004820152601f60248201527f5265656e7472616e637947756172643a207265656e7472616e742063616c6c006044820152606401610437565b600260015533600081815260a2602052604090208054831180159061069c5750805415155b6106f45760405162461bcd60e51b815260206004820152602360248201527f756e7374616b6520616d6f756e742065786365656473206f776e656420616d6f6044820152621d5b9d60ea1b6064820152608401610437565b6106fc611252565b600064e8d4a510008260000154609f546107169190611b87565b6107209190611ba6565b9050600082600101548284600201546107399190611bc8565b6107439190611be0565b6098546040516370a0823160e01b81523060048201529192506000916001600160a01b03909116906370a082319060240160206040518083038186803b15801561078c57600080fd5b505afa1580156107a0573d6000803e3d6000fd5b505050506040513d601f19601f820116820180604052508101906107c49190611bf7565b9050808211156107d2578091505b6001840183905560006002850155851561085f57835464e8d4a51000906107fa908890611be0565b609f546108079190611b87565b6108119190611ba6565b600185015583548690859060009061082a908490611be0565b925050819055508560a060008282546108439190611be0565b909155505060995461085f906001600160a01b031686886112cf565b811561087c5760985461087c906001600160a01b031686846112cf565b818460030160008282546108909190611bc8565b9091555050609d54609e546040516370ad001d60e11b81526004810191909152602481018890526001600160a01b0387811660448301529091169063e15a003a90606401600060405180830381600087803b1580156108ee57600080fd5b505af1158015610902573d6000803e3d6000fd5b50505050846001600160a01b03167f0f5bb82176feb1b5e747e28471aa92156a04d9f3ab9f45f28e2d704232b93f758760405161094191815260200190565b60405180910390a250506001805550505050565b33600090815260a260205260409020546109a65760405162461bcd60e51b81526020600482015260126024820152716e6f7468696e6720746f20756e7374616b6560701b6044820152606401610437565b33600090815260a260205260409020546109bf90610601565b565b6097546001600160a01b031633146109eb5760405162461bcd60e51b815260040161043790611b04565b6109f3611252565b60a1805460ff1916911515919091179055565b6097546001600160a01b03163314610a305760405162461bcd60e51b815260040161043790611b04565b609d80546001600160a01b0319166001600160a01b039390931692909217909155609e55565b6097546001600160a01b03163314610a805760405162461bcd60e51b815260040161043790611b04565b610a8981611337565b50565b6097546001600160a01b03163314610ab65760405162461bcd60e51b815260040161043790611b04565b609980546001600160a01b0319166001600160a01b0392909216919091179055565b60655460ff1615610afb5760405162461bcd60e51b815260040161043790611b47565b60a15460ff1615610b745760405162461bcd60e51b815260206004820152603960248201527f5265776172642073757370656e6465642e20506c6561736520666f6c6c6f772060448201527f7468652070726f6a65637420616e6e6f756e63656d656e7420000000000000006064820152608401610437565b33610b7f8183610fc1565b5050565b6097546001600160a01b03163314610bad5760405162461bcd60e51b815260040161043790611b04565b6001600160a01b038116600090815260a2602052604090208054609f5464e8d4a5100091610bda91611b87565b610be49190611ba6565b60019091015550565b6000610bf960016113e3565b90508015610c11576000805461ff0019166101001790555b610c1961146b565b610c2161149a565b610c2a82611337565b609880546001600160a01b038087166001600160a01b031992831617909255609a8054928616929091169190911790558015610ca0576000805461ff0019169055604051600181527f7f26b83ff96e1f2b6a682f133852f6798a09c465da95921460cefb38474024989060200160405180910390a15b50505050565b6001600160a01b038116600090815260a26020526040812060a0541580610ccc57508054155b15610cda5750600092915050565b6000610ce4610e88565b609f5460a054609a54604051625e3ded60e61b81526004810185905293945060009364e8d4a51000916001600160a01b03169063178f7b409060240160206040518083038186803b158015610d3857600080fd5b505afa158015610d4c573d6000803e3d6000fd5b505050506040513d601f19601f82011682018060405250810190610d709190611bf7565b610d7a9086611be0565b610d849190611b87565b610d8e9190611ba6565b610d989190611bc8565b90508260010154836002015464e8d4a51000856000015484610dba9190611b87565b610dc49190611ba6565b610dce9190611bc8565b610dd89190611be0565b95945050505050565b6109bf6000610601565b609b546001600160a01b0316331480610e0e5750609a546001600160a01b031633145b610e805760405162461bcd60e51b815260206004820152603960248201527f426f6e644c504661726d696e67506f6f6c3a2043616c6c696e672066726f6d2060448201527f7369626c696e6720706f6f6c206f7220626f6e64206f6e6c79000000000000006064820152608401610437565b6109bf6114c9565b60a15460009060ff1615610e9c5750600090565b609a5460408051637609b8f960e11b815290516000926001600160a01b03169163ec1371f2916004808301926020929190829003018186803b158015610ee157600080fd5b505afa158015610ef5573d6000803e3d6000fd5b505050506040513d601f19601f82011682018060405250810190610f199190611bf7565b905060008111610f2b57600091505090565b609b60009054906101000a90046001600160a01b03166001600160a01b031663ec1371f26040518163ffffffff1660e01b815260040160206040518083038186803b158015610f7957600080fd5b505afa158015610f8d573d6000803e3d6000fd5b505050506040513d601f19601f82011682018060405250810190610fb19190611bf7565b610fbb9082611be0565b91505090565b60655460ff1615610fe45760405162461bcd60e51b815260040161043790611b47565b600260015414156110375760405162461bcd60e51b815260206004820152601f60248201527f5265656e7472616e637947756172643a207265656e7472616e742063616c6c006044820152606401610437565b60026001558061107c5760405162461bcd60e51b815260206004820152601060248201526f6e6f7468696e6720746f207374616b6560801b6044820152606401610437565b611084611252565b6001600160a01b038216600090815260a26020526040902080541561112757600064e8d4a510008260000154609f546110bd9190611b87565b6110c79190611ba6565b90508160010154816110d99190611be0565b8260020160008282546110ec9190611bc8565b9091555050815464e8d4a5100090611105908590611bc8565b609f546111129190611b87565b61111c9190611ba6565b60018301555061114b565b64e8d4a5100082609f5461113b9190611b87565b6111459190611ba6565b60018201555b609954611163906001600160a01b031633308561172a565b818160000160008282546111779190611bc8565b925050819055508160a060008282546111909190611bc8565b9091555050609d54609e5460405163a3f30d2760e01b81526004810191909152602481018490526001600160a01b0385811660448301529091169063a3f30d2790606401600060405180830381600087803b1580156111ee57600080fd5b505af1158015611202573d6000803e3d6000fd5b50505050826001600160a01b03167f9e71bc8eea02a63969f509818f2dafb9254532904319f9dbda79b67bd34a5f3d8360405161124191815260200190565b60405180910390a250506001805550565b60a15460ff161561125f57565b609b60009054906101000a90046001600160a01b03166001600160a01b031663e3161ddd6040518163ffffffff1660e01b8152600401600060405180830381600087803b1580156112af57600080fd5b505af11580156112c3573d6000803e3d6000fd5b505050506109bf6114c9565b6040516001600160a01b03831660248201526044810182905261133290849063a9059cbb60e01b906064015b60408051601f198184030181529190526020810180516001600160e01b03166001600160e01b031990931692909217909152611762565b505050565b6001600160a01b0381166113975760405162461bcd60e51b815260206004820152602160248201527f43616e206e6f74207365742061646d696e20746f207a65726f206164647265736044820152607360f81b6064820152608401610437565b609780546001600160a01b0319166001600160a01b03831690811790915560405133907f101b8081ff3b56bbf45deb824d86a3b0fd38b7e3dd42421105cf8abe9106db0b90600090a350565b60008054610100900460ff161561142a578160ff1660011480156114065750303b155b6114225760405162461bcd60e51b815260040161043790611c10565b506000919050565b60005460ff8084169116106114515760405162461bcd60e51b815260040161043790611c10565b506000805460ff191660ff92909216919091179055600190565b600054610100900460ff166114925760405162461bcd60e51b815260040161043790611c5e565b6109bf611834565b600054610100900460ff166114c15760405162461bcd60e51b815260040161043790611c5e565b6109bf611861565b609c54609b60009054906101000a90046001600160a01b03166001600160a01b0316635d0198816040518163ffffffff1660e01b815260040160206040518083038186803b15801561151a57600080fd5b505afa15801561152e573d6000803e3d6000fd5b505050506040513d601f19601f820116820180604052508101906115529190611bf7565b11806115f05750609c54609b60009054906101000a90046001600160a01b03166001600160a01b0316635d0198816040518163ffffffff1660e01b815260040160206040518083038186803b1580156115aa57600080fd5b505afa1580156115be573d6000803e3d6000fd5b505050506040513d601f19601f820116820180604052508101906115e29190611bf7565b1480156115f0575043609c54145b61163c5760405162461bcd60e51b815260206004820152601960248201527f75706461746520626f6e6420706f6f6c2066697273746c792e000000000000006044820152606401610437565b6000611646610e88565b43609c559050801580611659575060a054155b156116615750565b609a54604051632a52d5a560e21b8152306004820152602481018390526000916001600160a01b03169063a94b569490604401602060405180830381600087803b1580156116ae57600080fd5b505af11580156116c2573d6000803e3d6000fd5b505050506040513d601f19601f820116820180604052508101906116e69190611bf7565b60a05490915064e8d4a510006116fc8385611be0565b6117069190611b87565b6117109190611ba6565b609f60008282546117219190611bc8565b90915550505050565b6040516001600160a01b0380851660248301528316604482015260648101829052610ca09085906323b872dd60e01b906084016112fb565b60006117b7826040518060400160405280602081526020017f5361666545524332303a206c6f772d6c6576656c2063616c6c206661696c6564815250856001600160a01b03166118949092919063ffffffff16565b80519091501561133257808060200190518101906117d59190611ca9565b6113325760405162461bcd60e51b815260206004820152602a60248201527f5361666545524332303a204552433230206f7065726174696f6e20646964206e6044820152691bdd081cdd58d8d9595960b21b6064820152608401610437565b600054610100900460ff1661185b5760405162461bcd60e51b815260040161043790611c5e565b60018055565b600054610100900460ff166118885760405162461bcd60e51b815260040161043790611c5e565b6065805460ff19169055565b60606118a384846000856118ad565b90505b9392505050565b60608247101561190e5760405162461bcd60e51b815260206004820152602660248201527f416464726573733a20696e73756666696369656e742062616c616e636520666f6044820152651c8818d85b1b60d21b6064820152608401610437565b6001600160a01b0385163b6119655760405162461bcd60e51b815260206004820152601d60248201527f416464726573733a2063616c6c20746f206e6f6e2d636f6e74726163740000006044820152606401610437565b600080866001600160a01b031685876040516119819190611cf2565b60006040518083038185875af1925050503d80600081146119be576040519150601f19603f3d011682016040523d82523d6000602084013e6119c3565b606091505b50915091506119d38282866119de565b979650505050505050565b606083156119ed5750816118a6565b8251156119fd5782518084602001fd5b8160405162461bcd60e51b81526004016104379190611d0e565b6001600160a01b0381168114610a8957600080fd5b600060208284031215611a3e57600080fd5b81356118a681611a17565b600060208284031215611a5b57600080fd5b5035919050565b8015158114610a8957600080fd5b600060208284031215611a8257600080fd5b81356118a681611a62565b60008060408385031215611aa057600080fd5b8235611aab81611a17565b946020939093013593505050565b600080600060608486031215611ace57600080fd5b8335611ad981611a17565b92506020840135611ae981611a17565b91506040840135611af981611a17565b809150509250925092565b6020808252600c908201526b15539055551213d49256915160a21b604082015260600190565b600060208284031215611b3c57600080fd5b81516118a681611a17565b60208082526010908201526f14185d5cd8589b194e881c185d5cd95960821b604082015260600190565b634e487b7160e01b600052601160045260246000fd5b6000816000190483118215151615611ba157611ba1611b71565b500290565b600082611bc357634e487b7160e01b600052601260045260246000fd5b500490565b60008219821115611bdb57611bdb611b71565b500190565b600082821015611bf257611bf2611b71565b500390565b600060208284031215611c0957600080fd5b5051919050565b6020808252602e908201527f496e697469616c697a61626c653a20636f6e747261637420697320616c72656160408201526d191e481a5b9a5d1a585b1a5e995960921b606082015260800190565b6020808252602b908201527f496e697469616c697a61626c653a20636f6e7472616374206973206e6f74206960408201526a6e697469616c697a696e6760a81b606082015260800190565b600060208284031215611cbb57600080fd5b81516118a681611a62565b60005b83811015611ce1578181015183820152602001611cc9565b83811115610ca05750506000910152565b60008251611d04818460208701611cc6565b9190910192915050565b6020815260008251806020840152611d2d816040850160208701611cc6565b601f01601f1916919091016040019291505056fea26469706673582212208e5b7151ac24ce4179da153311513be474e1d9acb33bc6b035d528613eb2d52364736f6c63430008090033",
  "devdoc": {
    "kind": "dev",
    "methods": {
      "getUserPendingRewards(address)": {
        "details": "get pending rewards by specific user"
      },
      "paused()": {
        "details": "Returns true if the contract is paused, and false otherwise."
      },
      "totalPendingRewards()": {
        "details": "distribute single bond pool first, then LP pool will get the remaining rewards. see _updatePools"
      },
      "updatePool()": {
        "details": "see: _updatePool"
      }
    },
    "stateVariables": {
      "accRewardPerShare": {
        "details": "accumulated bond token rewards of each lp token."
      },
      "bondRewardsSuspended": {
        "details": "_updatePools() no longer works after bondRewardsSuspended is true."
      }
    },
    "version": 1
  },
  "userdoc": {
    "kind": "user",
    "methods": {
      "bondRewardsSuspended()": {
        "notice": "mark bond reward is suspended. If the LP Token needs to be migrated, such as from pancake to ESP, the bond rewards will be suspended.you can not stake anymore when bond rewards has been suspended."
      },
      "unstake(uint256)": {
        "notice": "unstake by shares"
      }
    },
    "version": 1
  },
  "storageLayout": {
    "storage": [
      {
        "astId": 6,
        "contract": "contracts/BondLPFarmingPool.sol:BondLPFarmingPool",
        "label": "_initialized",
        "offset": 0,
        "slot": "0",
        "type": "t_uint8"
      },
      {
        "astId": 9,
        "contract": "contracts/BondLPFarmingPool.sol:BondLPFarmingPool",
        "label": "_initializing",
        "offset": 1,
        "slot": "0",
        "type": "t_bool"
      },
      {
        "astId": 266,
        "contract": "contracts/BondLPFarmingPool.sol:BondLPFarmingPool",
        "label": "_status",
        "offset": 0,
        "slot": "1",
        "type": "t_uint256"
      },
      {
        "astId": 310,
        "contract": "contracts/BondLPFarmingPool.sol:BondLPFarmingPool",
        "label": "__gap",
        "offset": 0,
        "slot": "2",
        "type": "t_array(t_uint256)49_storage"
      },
      {
        "astId": 897,
        "contract": "contracts/BondLPFarmingPool.sol:BondLPFarmingPool",
        "label": "__gap",
        "offset": 0,
        "slot": "51",
        "type": "t_array(t_uint256)50_storage"
      },
      {
        "astId": 162,
        "contract": "contracts/BondLPFarmingPool.sol:BondLPFarmingPool",
        "label": "_paused",
        "offset": 0,
        "slot": "101",
        "type": "t_bool"
      },
      {
        "astId": 251,
        "contract": "contracts/BondLPFarmingPool.sol:BondLPFarmingPool",
        "label": "__gap",
        "offset": 0,
        "slot": "102",
        "type": "t_array(t_uint256)49_storage"
      },
      {
        "astId": 7800,
        "contract": "contracts/BondLPFarmingPool.sol:BondLPFarmingPool",
        "label": "admin",
        "offset": 0,
        "slot": "151",
        "type": "t_address"
      },
      {
        "astId": 3837,
        "contract": "contracts/BondLPFarmingPool.sol:BondLPFarmingPool",
        "label": "bondToken",
        "offset": 0,
        "slot": "152",
        "type": "t_contract(IERC20Upgradeable)389"
      },
      {
        "astId": 3840,
        "contract": "contracts/BondLPFarmingPool.sol:BondLPFarmingPool",
        "label": "lpToken",
        "offset": 0,
        "slot": "153",
        "type": "t_contract(IERC20Upgradeable)389"
      },
      {
        "astId": 3847,
        "contract": "contracts/BondLPFarmingPool.sol:BondLPFarmingPool",
        "label": "bond",
        "offset": 0,
        "slot": "154",
        "type": "t_contract(IExtendableBond)7766"
      },
      {
        "astId": 3850,
        "contract": "contracts/BondLPFarmingPool.sol:BondLPFarmingPool",
        "label": "siblingPool",
        "offset": 0,
        "slot": "155",
        "type": "t_contract(IBondFarmingPool)7637"
      },
      {
        "astId": 3853,
        "contract": "contracts/BondLPFarmingPool.sol:BondLPFarmingPool",
        "label": "lastUpdatedPoolAt",
        "offset": 0,
        "slot": "156",
        "type": "t_uint256"
      },
      {
        "astId": 3856,
        "contract": "contracts/BondLPFarmingPool.sol:BondLPFarmingPool",
        "label": "masterChef",
        "offset": 0,
        "slot": "157",
        "type": "t_contract(MultiRewardsMasterChef)7597"
      },
      {
        "astId": 3858,
        "contract": "contracts/BondLPFarmingPool.sol:BondLPFarmingPool",
        "label": "masterChefPid",
        "offset": 0,
        "slot": "158",
        "type": "t_uint256"
      },
      {
        "astId": 3861,
        "contract": "contracts/BondLPFarmingPool.sol:BondLPFarmingPool",
        "label": "accRewardPerShare",
        "offset": 0,
        "slot": "159",
        "type": "t_uint256"
      },
      {
        "astId": 3866,
        "contract": "contracts/BondLPFarmingPool.sol:BondLPFarmingPool",
        "label": "totalLpAmount",
        "offset": 0,
        "slot": "160",
        "type": "t_uint256"
      },
      {
        "astId": 3870,
        "contract": "contracts/BondLPFarmingPool.sol:BondLPFarmingPool",
        "label": "bondRewardsSuspended",
        "offset": 0,
        "slot": "161",
        "type": "t_bool"
      },
      {
        "astId": 3888,
        "contract": "contracts/BondLPFarmingPool.sol:BondLPFarmingPool",
        "label": "usersInfo",
        "offset": 0,
        "slot": "162",
        "type": "t_mapping(t_address,t_struct(UserInfo)3883_storage)"
      }
    ],
    "types": {
      "t_address": {
        "encoding": "inplace",
        "label": "address",
        "numberOfBytes": "20"
      },
      "t_array(t_uint256)49_storage": {
        "base": "t_uint256",
        "encoding": "inplace",
        "label": "uint256[49]",
        "numberOfBytes": "1568"
      },
      "t_array(t_uint256)50_storage": {
        "base": "t_uint256",
        "encoding": "inplace",
        "label": "uint256[50]",
        "numberOfBytes": "1600"
      },
      "t_bool": {
        "encoding": "inplace",
        "label": "bool",
        "numberOfBytes": "1"
      },
      "t_contract(IBondFarmingPool)7637": {
        "encoding": "inplace",
        "label": "contract IBondFarmingPool",
        "numberOfBytes": "20"
      },
      "t_contract(IERC20Upgradeable)389": {
        "encoding": "inplace",
        "label": "contract IERC20Upgradeable",
        "numberOfBytes": "20"
      },
      "t_contract(IExtendableBond)7766": {
        "encoding": "inplace",
        "label": "contract IExtendableBond",
        "numberOfBytes": "20"
      },
      "t_contract(MultiRewardsMasterChef)7597": {
        "encoding": "inplace",
        "label": "contract MultiRewardsMasterChef",
        "numberOfBytes": "20"
      },
      "t_mapping(t_address,t_struct(UserInfo)3883_storage)": {
        "encoding": "mapping",
        "key": "t_address",
        "label": "mapping(address => struct BondLPFarmingPool.UserInfo)",
        "numberOfBytes": "32",
        "value": "t_struct(UserInfo)3883_storage"
      },
      "t_struct(UserInfo)3883_storage": {
        "encoding": "inplace",
        "label": "struct BondLPFarmingPool.UserInfo",
        "members": [
          {
            "astId": 3873,
            "contract": "contracts/BondLPFarmingPool.sol:BondLPFarmingPool",
            "label": "lpAmount",
            "offset": 0,
            "slot": "0",
            "type": "t_uint256"
          },
          {
            "astId": 3876,
            "contract": "contracts/BondLPFarmingPool.sol:BondLPFarmingPool",
            "label": "rewardDebt",
            "offset": 0,
            "slot": "1",
            "type": "t_uint256"
          },
          {
            "astId": 3879,
            "contract": "contracts/BondLPFarmingPool.sol:BondLPFarmingPool",
            "label": "pendingRewards",
            "offset": 0,
            "slot": "2",
            "type": "t_uint256"
          },
          {
            "astId": 3882,
            "contract": "contracts/BondLPFarmingPool.sol:BondLPFarmingPool",
            "label": "claimedRewards",
            "offset": 0,
            "slot": "3",
            "type": "t_uint256"
          }
        ],
        "numberOfBytes": "128"
      },
      "t_uint256": {
        "encoding": "inplace",
        "label": "uint256",
        "numberOfBytes": "32"
      },
      "t_uint8": {
        "encoding": "inplace",
        "label": "uint8",
        "numberOfBytes": "1"
      }
    }
  }
}