{
  "address": "0x1A371dBCEA9DC7745f389fDeDAb30CA765E17365",
  "abi": [
    {
      "anonymous": false,
      "inputs": [
        {
          "indexed": true,
          "internalType": "address",
          "name": "user",
          "type": "address"
        },
        {
          "indexed": true,
          "internalType": "address",
          "name": "newAdmin",
          "type": "address"
        }
      ],
      "name": "AdminUpdated",
      "type": "event"
    },
    {
      "anonymous": false,
      "inputs": [
        {
          "indexed": false,
          "internalType": "uint8",
          "name": "version",
          "type": "uint8"
        }
      ],
      "name": "Initialized",
      "type": "event"
    },
    {
      "anonymous": false,
      "inputs": [
        {
          "indexed": false,
          "internalType": "address",
          "name": "account",
          "type": "address"
        }
      ],
      "name": "Paused",
      "type": "event"
    },
    {
      "anonymous": false,
      "inputs": [
        {
          "indexed": true,
          "internalType": "address",
          "name": "previousPool",
          "type": "address"
        },
        {
          "indexed": true,
          "internalType": "address",
          "name": "newPool",
          "type": "address"
        }
      ],
      "name": "SiblingPoolUpdated",
      "type": "event"
    },
    {
      "anonymous": false,
      "inputs": [
        {
          "indexed": true,
          "internalType": "address",
          "name": "user",
          "type": "address"
        },
        {
          "indexed": false,
          "internalType": "uint256",
          "name": "amount",
          "type": "uint256"
        }
      ],
      "name": "Staked",
      "type": "event"
    },
    {
      "anonymous": false,
      "inputs": [
        {
          "indexed": false,
          "internalType": "address",
          "name": "account",
          "type": "address"
        }
      ],
      "name": "Unpaused",
      "type": "event"
    },
    {
      "anonymous": false,
      "inputs": [
        {
          "indexed": true,
          "internalType": "address",
          "name": "user",
          "type": "address"
        },
        {
          "indexed": false,
          "internalType": "uint256",
          "name": "amount",
          "type": "uint256"
        }
      ],
      "name": "Unstaked",
      "type": "event"
    },
    {
      "inputs": [],
      "name": "admin",
      "outputs": [
        {
          "internalType": "address",
          "name": "",
          "type": "address"
        }
      ],
      "stateMutability": "view",
      "type": "function"
    },
    {
      "inputs": [
        {
          "internalType": "uint256",
          "name": "amount_",
          "type": "uint256"
        }
      ],
      "name": "amountToShares",
      "outputs": [
        {
          "internalType": "uint256",
          "name": "",
          "type": "uint256"
        }
      ],
      "stateMutability": "view",
      "type": "function"
    },
    {
      "inputs": [],
      "name": "bond",
      "outputs": [
        {
          "internalType": "contract IExtendableBond",
          "name": "",
          "type": "address"
        }
      ],
      "stateMutability": "view",
      "type": "function"
    },
    {
      "inputs": [],
      "name": "bondToken",
      "outputs": [
        {
          "internalType": "contract IERC20Upgradeable",
          "name": "",
          "type": "address"
        }
      ],
      "stateMutability": "view",
      "type": "function"
    },
    {
      "inputs": [],
      "name": "claimBonuses",
      "outputs": [],
      "stateMutability": "nonpayable",
      "type": "function"
    },
    {
      "inputs": [
        {
          "internalType": "address",
          "name": "user_",
          "type": "address"
        }
      ],
      "name": "earnedToDate",
      "outputs": [
        {
          "internalType": "int256",
          "name": "",
          "type": "int256"
        }
      ],
      "stateMutability": "view",
      "type": "function"
    },
    {
      "inputs": [
        {
          "internalType": "contract IERC20Upgradeable",
          "name": "bondToken_",
          "type": "address"
        },
        {
          "internalType": "contract IExtendableBond",
          "name": "bond_",
          "type": "address"
        },
        {
          "internalType": "address",
          "name": "admin_",
          "type": "address"
        }
      ],
      "name": "initialize",
      "outputs": [],
      "stateMutability": "nonpayable",
      "type": "function"
    },
    {
      "inputs": [],
      "name": "lastUpdatedPoolAt",
      "outputs": [
        {
          "internalType": "uint256",
          "name": "",
          "type": "uint256"
        }
      ],
      "stateMutability": "view",
      "type": "function"
    },
    {
      "inputs": [],
      "name": "masterChef",
      "outputs": [
        {
          "internalType": "contract IMultiRewardsMasterChef",
          "name": "",
          "type": "address"
        }
      ],
      "stateMutability": "view",
      "type": "function"
    },
    {
      "inputs": [],
      "name": "masterChefPid",
      "outputs": [
        {
          "internalType": "uint256",
          "name": "",
          "type": "uint256"
        }
      ],
      "stateMutability": "view",
      "type": "function"
    },
    {
      "inputs": [],
      "name": "paused",
      "outputs": [
        {
          "internalType": "bool",
          "name": "",
          "type": "bool"
        }
      ],
      "stateMutability": "view",
      "type": "function"
    },
    {
      "inputs": [
        {
          "internalType": "uint256",
          "name": "shares_",
          "type": "uint256"
        }
      ],
      "name": "pendingRewardsByShares",
      "outputs": [
        {
          "internalType": "uint256",
          "name": "",
          "type": "uint256"
        }
      ],
      "stateMutability": "view",
      "type": "function"
    },
    {
      "inputs": [
        {
          "internalType": "address",
          "name": "newAdmin",
          "type": "address"
        }
      ],
      "name": "setAdmin",
      "outputs": [],
      "stateMutability": "nonpayable",
      "type": "function"
    },
    {
      "inputs": [
        {
          "internalType": "contract IMultiRewardsMasterChef",
          "name": "masterChef_",
          "type": "address"
        },
        {
          "internalType": "uint256",
          "name": "masterChefPid_",
          "type": "uint256"
        }
      ],
      "name": "setMasterChef",
      "outputs": [],
      "stateMutability": "nonpayable",
      "type": "function"
    },
    {
      "inputs": [
        {
          "internalType": "contract IBondFarmingPool",
          "name": "siblingPool_",
          "type": "address"
        }
      ],
      "name": "setSiblingPool",
      "outputs": [],
      "stateMutability": "nonpayable",
      "type": "function"
    },
    {
      "inputs": [
        {
          "internalType": "uint256",
          "name": "shares_",
          "type": "uint256"
        }
      ],
      "name": "sharesToBondAmount",
      "outputs": [
        {
          "internalType": "uint256",
          "name": "",
          "type": "uint256"
        }
      ],
      "stateMutability": "view",
      "type": "function"
    },
    {
      "inputs": [],
      "name": "siblingPool",
      "outputs": [
        {
          "internalType": "contract IBondFarmingPool",
          "name": "",
          "type": "address"
        }
      ],
      "stateMutability": "view",
      "type": "function"
    },
    {
      "inputs": [
        {
          "internalType": "uint256",
          "name": "amount_",
          "type": "uint256"
        }
      ],
      "name": "stake",
      "outputs": [],
      "stateMutability": "nonpayable",
      "type": "function"
    },
    {
      "inputs": [
        {
          "internalType": "address",
          "name": "user_",
          "type": "address"
        },
        {
          "internalType": "uint256",
          "name": "amount_",
          "type": "uint256"
        }
      ],
      "name": "stakeForUser",
      "outputs": [],
      "stateMutability": "nonpayable",
      "type": "function"
    },
    {
      "inputs": [],
      "name": "totalPendingRewards",
      "outputs": [
        {
          "internalType": "uint256",
          "name": "",
          "type": "uint256"
        }
      ],
      "stateMutability": "view",
      "type": "function"
    },
    {
      "inputs": [],
      "name": "totalShares",
      "outputs": [
        {
          "internalType": "uint256",
          "name": "",
          "type": "uint256"
        }
      ],
      "stateMutability": "view",
      "type": "function"
    },
    {
      "inputs": [
        {
          "internalType": "bool",
          "name": "exclusiveFees",
          "type": "bool"
        }
      ],
      "name": "underlyingAmount",
      "outputs": [
        {
          "internalType": "uint256",
          "name": "",
          "type": "uint256"
        }
      ],
      "stateMutability": "view",
      "type": "function"
    },
    {
      "inputs": [
        {
          "internalType": "uint256",
          "name": "shares_",
          "type": "uint256"
        }
      ],
      "name": "unstake",
      "outputs": [],
      "stateMutability": "nonpayable",
      "type": "function"
    },
    {
      "inputs": [],
      "name": "unstakeAll",
      "outputs": [],
      "stateMutability": "nonpayable",
      "type": "function"
    },
    {
      "inputs": [
        {
          "internalType": "uint256",
          "name": "amount_",
          "type": "uint256"
        }
      ],
      "name": "unstakeByAmount",
      "outputs": [],
      "stateMutability": "nonpayable",
      "type": "function"
    },
    {
      "inputs": [],
      "name": "updatePool",
      "outputs": [],
      "stateMutability": "nonpayable",
      "type": "function"
    },
    {
      "inputs": [
        {
          "internalType": "address",
          "name": "",
          "type": "address"
        }
      ],
      "name": "usersInfo",
      "outputs": [
        {
          "internalType": "uint256",
          "name": "shares",
          "type": "uint256"
        },
        {
          "internalType": "int256",
          "name": "accNetStaked",
          "type": "int256"
        }
      ],
      "stateMutability": "view",
      "type": "function"
    }
  ],
  "transactionHash": "0x283db0e9f092ed09d4050556b33fff11060a28f7819e0c262138e12fe2bb38e7",
  "args": [],
  "numDeployments": 13,
  "solcInputHash": "02f905e457618912b9cccdbee726763a",
  "bytecode": "0x60806040526000609a556000609b5534801561001a57600080fd5b50611da48061002a6000396000f3fe608060405234801561001057600080fd5b50600436106101a95760003560e01c8063704b6c02116100f9578063c62c610b11610097578063e3161ddd11610071578063e3161ddd14610388578063ec1371f214610390578063f851a44014610398578063fd79c6a2146103ab57600080fd5b8063c62c610b14610364578063d759c3cc1461036d578063d9d72c191461038057600080fd5b8063a90fbd20116100d3578063a90fbd2014610318578063b811540e1461032b578063c0c53b8b1461033e578063c28f43921461035157600080fd5b8063704b6c02146102df578063768e52c8146102f2578063a694fc3a1461030557600080fd5b80633a98ef39116101665780635d019881116101405780635d019881146102745780635d0eaaaf1461027d57806364c9ec6f146102b9578063672f1490146102cc57600080fd5b80633a98ef3914610242578063575a86b21461024b5780635c975abb1461025e57600080fd5b80630ad83c78146101ae578063123cecbe146101d45780632e17de78146101e957806333d9ddf4146101fc5780633530c61e1461020f57806335322f371461023a575b600080fd5b6101c16101bc366004611a04565b6103be565b6040519081526020015b60405180910390f35b6101e76101e2366004611a04565b6103f7565b005b6101e76101f7366004611a21565b6105eb565b6101e761020a366004611a21565b61082d565b609c54610222906001600160a01b031681565b6040516001600160a01b0390911681526020016101cb565b6101e7610875565b6101c1609a5481565b609d54610222906001600160a01b031681565b60335460ff1660405190151581526020016101cb565b6101c1609b5481565b6102a461028b366004611a04565b609f602052600090815260409020805460019091015482565b604080519283526020830191909152016101cb565b609954610222906001600160a01b031681565b6101e76102da366004611a3a565b6108e1565b6101e76102ed366004611a04565b610931565b6101c1610300366004611a21565b610967565b6101e7610313366004611a21565b610994565b6101c1610326366004611a21565b6109c6565b6101c1610339366004611a21565b610a76565b6101e761034c366004611a66565b610a9d565b609854610222906001600160a01b031681565b6101c1609e5481565b6101c161037b366004611abf565b610b56565b6101e7610c7a565b6101e7610d3f565b6101c1610ddc565b609754610222906001600160a01b031681565b6101e76103b9366004611a3a565b610f9e565b6001600160a01b0381166000908152609f60205260408120600181015481546103e690610967565b6103f09190611af2565b9392505050565b6097546001600160a01b0316331461042a5760405162461bcd60e51b815260040161042190611b31565b60405180910390fd5b60006001600160a01b0316816001600160a01b0316633530c61e6040518163ffffffff1660e01b815260040160206040518083038186803b15801561046e57600080fd5b505afa158015610482573d6000803e3d6000fd5b505050506040513d601f19601f820116820180604052508101906104a69190611b57565b6001600160a01b0316148061053c5750306001600160a01b0316816001600160a01b0316633530c61e6040518163ffffffff1660e01b815260040160206040518083038186803b1580156104f957600080fd5b505afa15801561050d573d6000803e3d6000fd5b505050506040513d601f19601f820116820180604052508101906105319190611b57565b6001600160a01b0316145b801561055157506001600160a01b0381163014155b61058f5760405162461bcd60e51b815260206004820152600f60248201526e496e76616c6964207369626c696e6760881b6044820152606401610421565b609c546040516001600160a01b038084169216907f5c0b1436fffe2be9a261bad04f4b4c330db8e95f54f09d910e47447e94f4329490600090a3609c80546001600160a01b0319166001600160a01b0392909216919091179055565b60335460ff161561060e5760405162461bcd60e51b815260040161042190611b74565b600260655414156106615760405162461bcd60e51b815260206004820152601f60248201527f5265656e7472616e637947756172643a207265656e7472616e742063616c6c006044820152606401610421565b6002606555336000818152609f6020526040902080548311801590610688575082609a5410155b6106e05760405162461bcd60e51b815260206004820152602360248201527f756e7374616b65207368617265732065786365656473206f776e65642073686160448201526272657360e81b6064820152608401610421565b6106e8611179565b60006106f384610967565b9050838260000160008282546107099190611b9e565b9250508190555083609a60008282546107229190611b9e565b909155505060985461073e906001600160a01b031684836111e5565b6001600160a01b0383166000908152609f602052604081206001018054839290610769908490611af2565b9091555050609d54609e546040516370ad001d60e11b81526004810191909152602481018690526001600160a01b0385811660448301529091169063e15a003a90606401600060405180830381600087803b1580156107c757600080fd5b505af11580156107db573d6000803e3d6000fd5b50505050826001600160a01b03167f0f5bb82176feb1b5e747e28471aa92156a04d9f3ab9f45f28e2d704232b93f758260405161081a91815260200190565b60405180910390a2505060016065555050565b336000908152609f60205260408120805490919061084a90610967565b905080831061086357815461085e906105eb565b505050565b61085e6101f783600001548584611248565b336000908152609f60205260409020546108c65760405162461bcd60e51b81526020600482015260126024820152716e6f7468696e6720746f20756e7374616b6560701b6044820152606401610421565b336000908152609f60205260409020546108df906105eb565b565b6097546001600160a01b0316331461090b5760405162461bcd60e51b815260040161042190611b31565b609d80546001600160a01b0319166001600160a01b039390931692909217909155609e55565b6097546001600160a01b0316331461095b5760405162461bcd60e51b815260040161042190611b31565b61096481611306565b50565b600080821161097857506000919050565b61098e6109856001610b56565b83609a54611248565b92915050565b60335460ff16156109b75760405162461bcd60e51b815260040161042190611b74565b336109c28183610f9e565b5050565b60008082116109d757506000919050565b60006109e1610ddc565b609954604051625e3ded60e61b8152600481018390529192506103f0916001600160a01b039091169063178f7b409060240160206040518083038186803b158015610a2b57600080fd5b505afa158015610a3f573d6000803e3d6000fd5b505050506040513d601f19601f82011682018060405250810190610a639190611bb5565b610a6d9083611b9e565b84609a54611248565b600080609a5411610a87578161098e565b61098e82609a54610a986000610b56565b611248565b6000610aa960016113b2565b90508015610ac1576000805461ff0019166101001790555b610ac961143a565b610ad1611469565b610ada82611306565b609880546001600160a01b038087166001600160a01b03199283161790925560998054928616929091169190911790558015610b50576000805461ff0019169055604051600181527f7f26b83ff96e1f2b6a682f133852f6798a09c465da95921460cefb38474024989060200160405180910390a15b50505050565b600080610b61610ddc565b905082610b6f576000610bea565b609954604051625e3ded60e61b8152600481018390526001600160a01b039091169063178f7b409060240160206040518083038186803b158015610bb257600080fd5b505afa158015610bc6573d6000803e3d6000fd5b505050506040513d601f19601f82011682018060405250810190610bea9190611bb5565b610bf49082611b9e565b6098546040516370a0823160e01b81523060048201529192506001600160a01b0316906370a082319060240160206040518083038186803b158015610c3857600080fd5b505afa158015610c4c573d6000803e3d6000fd5b505050506040513d601f19601f82011682018060405250810190610c709190611bb5565b6103f09082611bce565b336000818152609f602052604090208054610cca5760405162461bcd60e51b815260206004820152601060248201526f4e6f7468696e6720746f20636c61696d60801b6044820152606401610421565b609d54609e546040516370ad001d60e11b81526004810191909152600060248201526001600160a01b0384811660448301529091169063e15a003a90606401600060405180830381600087803b158015610d2357600080fd5b505af1158015610d37573d6000803e3d6000fd5b505050505050565b609c546001600160a01b0316331480610d6257506099546001600160a01b031633145b610dd45760405162461bcd60e51b815260206004820152603960248201527f426f6e644c504661726d696e67506f6f6c3a2043616c6c696e672066726f6d2060448201527f7369626c696e6720706f6f6c206f7220626f6e64206f6e6c79000000000000006064820152608401610421565b6108df611498565b600043609b541415610dee5750600090565b60995460408051637609b8f960e11b815290516000926001600160a01b03169163ec1371f2916004808301926020929190829003018186803b158015610e3357600080fd5b505afa158015610e47573d6000803e3d6000fd5b505050506040513d601f19601f82011682018060405250810190610e6b9190611bb5565b905060008111610e7d57600091505090565b6098546040516370a0823160e01b81523060048201526000916001600160a01b0316906370a082319060240160206040518083038186803b158015610ec157600080fd5b505afa158015610ed5573d6000803e3d6000fd5b505050506040513d601f19601f82011682018060405250810190610ef99190611bb5565b905060008111610f0c5760009250505090565b610f978282609860009054906101000a90046001600160a01b03166001600160a01b03166318160ddd6040518163ffffffff1660e01b815260040160206040518083038186803b158015610f5f57600080fd5b505afa158015610f73573d6000803e3d6000fd5b505050506040513d601f19601f82011682018060405250810190610a989190611bb5565b9250505090565b60335460ff1615610fc15760405162461bcd60e51b815260040161042190611b74565b600260655414156110145760405162461bcd60e51b815260206004820152601f60248201527f5265656e7472616e637947756172643a207265656e7472616e742063616c6c006044820152606401610421565b6002606555611021611179565b600061102c82610a76565b609854909150611047906001600160a01b0316333085611703565b80609a60008282546110599190611bce565b90915550506001600160a01b0383166000908152609f602052604081208054839290611086908490611bce565b90915550506001600160a01b0383166000908152609f6020526040812060010180548492906110b6908490611be6565b9091555050609d54609e5460405163a3f30d2760e01b81526004810191909152602481018390526001600160a01b0385811660448301529091169063a3f30d2790606401600060405180830381600087803b15801561111457600080fd5b505af1158015611128573d6000803e3d6000fd5b50505050826001600160a01b03167f9e71bc8eea02a63969f509818f2dafb9254532904319f9dbda79b67bd34a5f3d8360405161116791815260200190565b60405180910390a25050600160655550565b611181611498565b609c60009054906101000a90046001600160a01b03166001600160a01b031663e3161ddd6040518163ffffffff1660e01b8152600401600060405180830381600087803b1580156111d157600080fd5b505af1158015610b50573d6000803e3d6000fd5b6040516001600160a01b03831660248201526044810182905261085e90849063a9059cbb60e01b906064015b60408051601f198184030181529190526020810180516001600160e01b03166001600160e01b03199093169290921790915261173b565b600080806000198587098587029250828110838203039150508060001415611290576000841161127757600080fd5b83828161128657611286611c27565b04925050506103f0565b80841161129c57600080fd5b600084868809600360018719810188169788900491820a808302600290810390910280840282030280840282030280840282030280840282030292830290039091026000889003889004909101858311909403939093029303949094049190911702949350505050565b6001600160a01b0381166113665760405162461bcd60e51b815260206004820152602160248201527f43616e206e6f74207365742061646d696e20746f207a65726f206164647265736044820152607360f81b6064820152608401610421565b609780546001600160a01b0319166001600160a01b03831690811790915560405133907f101b8081ff3b56bbf45deb824d86a3b0fd38b7e3dd42421105cf8abe9106db0b90600090a350565b60008054610100900460ff16156113f9578160ff1660011480156113d55750303b155b6113f15760405162461bcd60e51b815260040161042190611c3d565b506000919050565b60005460ff8084169116106114205760405162461bcd60e51b815260040161042190611c3d565b506000805460ff191660ff92909216919091179055600190565b600054610100900460ff166114615760405162461bcd60e51b815260040161042190611c8b565b6108df61180d565b600054610100900460ff166114905760405162461bcd60e51b815260040161042190611c8b565b6108df61183b565b609c546001600160a01b03166115015760405162461bcd60e51b815260206004820152602860248201527f426f6e644661726d696e67506f6f6c3a20436f6e7472616374206e6f7420726560448201526730b23c903cb2ba1760c11b6064820152608401610421565b609c5460408051635d01988160e01b8152905143926001600160a01b031691635d019881916004808301926020929190829003018186803b15801561154557600080fd5b505afa158015611559573d6000803e3d6000fd5b505050506040513d601f19601f8201168201806040525081019061157d9190611bb5565b108061161b5750609b54609c60009054906101000a90046001600160a01b03166001600160a01b0316635d0198816040518163ffffffff1660e01b815260040160206040518083038186803b1580156115d557600080fd5b505afa1580156115e9573d6000803e3d6000fd5b505050506040513d601f19601f8201168201806040525081019061160d9190611bb5565b14801561161b575043609b54145b6116675760405162461bcd60e51b815260206004820152601960248201527f75706461746520626f6e6420706f6f6c2066697273746c792e000000000000006044820152606401610421565b6000611671610ddc565b43609b5590508061167f5750565b609954604051632a52d5a560e21b8152306004820152602481018390526001600160a01b039091169063a94b569490604401602060405180830381600087803b1580156116cb57600080fd5b505af11580156116df573d6000803e3d6000fd5b505050506040513d601f19601f820116820180604052508101906109c29190611bb5565b6040516001600160a01b0380851660248301528316604482015260648101829052610b509085906323b872dd60e01b90608401611211565b6000611790826040518060400160405280602081526020017f5361666545524332303a206c6f772d6c6576656c2063616c6c206661696c6564815250856001600160a01b031661186e9092919063ffffffff16565b80519091501561085e57808060200190518101906117ae9190611cd6565b61085e5760405162461bcd60e51b815260206004820152602a60248201527f5361666545524332303a204552433230206f7065726174696f6e20646964206e6044820152691bdd081cdd58d8d9595960b21b6064820152608401610421565b600054610100900460ff166118345760405162461bcd60e51b815260040161042190611c8b565b6001606555565b600054610100900460ff166118625760405162461bcd60e51b815260040161042190611c8b565b6033805460ff19169055565b606061187d8484600085611885565b949350505050565b6060824710156118e65760405162461bcd60e51b815260206004820152602660248201527f416464726573733a20696e73756666696369656e742062616c616e636520666f6044820152651c8818d85b1b60d21b6064820152608401610421565b6001600160a01b0385163b61193d5760405162461bcd60e51b815260206004820152601d60248201527f416464726573733a2063616c6c20746f206e6f6e2d636f6e74726163740000006044820152606401610421565b600080866001600160a01b031685876040516119599190611d1f565b60006040518083038185875af1925050503d8060008114611996576040519150601f19603f3d011682016040523d82523d6000602084013e61199b565b606091505b50915091506119ab8282866119b6565b979650505050505050565b606083156119c55750816103f0565b8251156119d55782518084602001fd5b8160405162461bcd60e51b81526004016104219190611d3b565b6001600160a01b038116811461096457600080fd5b600060208284031215611a1657600080fd5b81356103f0816119ef565b600060208284031215611a3357600080fd5b5035919050565b60008060408385031215611a4d57600080fd5b8235611a58816119ef565b946020939093013593505050565b600080600060608486031215611a7b57600080fd5b8335611a86816119ef565b92506020840135611a96816119ef565b91506040840135611aa6816119ef565b809150509250925092565b801515811461096457600080fd5b600060208284031215611ad157600080fd5b81356103f081611ab1565b634e487b7160e01b600052601160045260246000fd5b60008083128015600160ff1b850184121615611b1057611b10611adc565b6001600160ff1b0384018313811615611b2b57611b2b611adc565b50500390565b6020808252600c908201526b15539055551213d49256915160a21b604082015260600190565b600060208284031215611b6957600080fd5b81516103f0816119ef565b60208082526010908201526f14185d5cd8589b194e881c185d5cd95960821b604082015260600190565b600082821015611bb057611bb0611adc565b500390565b600060208284031215611bc757600080fd5b5051919050565b60008219821115611be157611be1611adc565b500190565b600080821280156001600160ff1b0384900385131615611c0857611c08611adc565b600160ff1b8390038412811615611c2157611c21611adc565b50500190565b634e487b7160e01b600052601260045260246000fd5b6020808252602e908201527f496e697469616c697a61626c653a20636f6e747261637420697320616c72656160408201526d191e481a5b9a5d1a585b1a5e995960921b606082015260800190565b6020808252602b908201527f496e697469616c697a61626c653a20636f6e7472616374206973206e6f74206960408201526a6e697469616c697a696e6760a81b606082015260800190565b600060208284031215611ce857600080fd5b81516103f081611ab1565b60005b83811015611d0e578181015183820152602001611cf6565b83811115610b505750506000910152565b60008251611d31818460208701611cf3565b9190910192915050565b6020815260008251806020840152611d5a816040850160208701611cf3565b601f01601f1916919091016040019291505056fea2646970667358221220c4330242deff988213c04b1c1edf3994bae6fbb8ca8e911c88f2cd30c4bde48164736f6c63430008090033",
  "devdoc": {
    "kind": "dev",
    "methods": {
      "earnedToDate(address)": {
        "details": "calculate earned amount to date of specific user."
      },
      "paused()": {
        "details": "Returns true if the contract is paused, and false otherwise."
      },
      "updatePool()": {
        "details": "see: _updatePool"
      }
    },
    "version": 1
  },
  "userdoc": {
    "kind": "user",
    "methods": {
      "unstake(uint256)": {
        "notice": "unstake by shares"
      }
    },
    "version": 1
  },
  "storageLayout": {
    "storage": [
      {
        "astId": 6,
        "contract": "contracts/BondFarmingPool.sol:BondFarmingPool",
        "label": "_initialized",
        "offset": 0,
        "slot": "0",
        "type": "t_uint8"
      },
      {
        "astId": 9,
        "contract": "contracts/BondFarmingPool.sol:BondFarmingPool",
        "label": "_initializing",
        "offset": 1,
        "slot": "0",
        "type": "t_bool"
      },
      {
        "astId": 897,
        "contract": "contracts/BondFarmingPool.sol:BondFarmingPool",
        "label": "__gap",
        "offset": 0,
        "slot": "1",
        "type": "t_array(t_uint256)50_storage"
      },
      {
        "astId": 162,
        "contract": "contracts/BondFarmingPool.sol:BondFarmingPool",
        "label": "_paused",
        "offset": 0,
        "slot": "51",
        "type": "t_bool"
      },
      {
        "astId": 251,
        "contract": "contracts/BondFarmingPool.sol:BondFarmingPool",
        "label": "__gap",
        "offset": 0,
        "slot": "52",
        "type": "t_array(t_uint256)49_storage"
      },
      {
        "astId": 266,
        "contract": "contracts/BondFarmingPool.sol:BondFarmingPool",
        "label": "_status",
        "offset": 0,
        "slot": "101",
        "type": "t_uint256"
      },
      {
        "astId": 310,
        "contract": "contracts/BondFarmingPool.sol:BondFarmingPool",
        "label": "__gap",
        "offset": 0,
        "slot": "102",
        "type": "t_array(t_uint256)49_storage"
      },
      {
        "astId": 3100,
        "contract": "contracts/BondFarmingPool.sol:BondFarmingPool",
        "label": "admin",
        "offset": 0,
        "slot": "151",
        "type": "t_address"
      },
      {
        "astId": 4073,
        "contract": "contracts/BondFarmingPool.sol:BondFarmingPool",
        "label": "bondToken",
        "offset": 0,
        "slot": "152",
        "type": "t_contract(IERC20Upgradeable)389"
      },
      {
        "astId": 4076,
        "contract": "contracts/BondFarmingPool.sol:BondFarmingPool",
        "label": "bond",
        "offset": 0,
        "slot": "153",
        "type": "t_contract(IExtendableBond)8811"
      },
      {
        "astId": 4079,
        "contract": "contracts/BondFarmingPool.sol:BondFarmingPool",
        "label": "totalShares",
        "offset": 0,
        "slot": "154",
        "type": "t_uint256"
      },
      {
        "astId": 4082,
        "contract": "contracts/BondFarmingPool.sol:BondFarmingPool",
        "label": "lastUpdatedPoolAt",
        "offset": 0,
        "slot": "155",
        "type": "t_uint256"
      },
      {
        "astId": 4085,
        "contract": "contracts/BondFarmingPool.sol:BondFarmingPool",
        "label": "siblingPool",
        "offset": 0,
        "slot": "156",
        "type": "t_contract(IBondFarmingPool)8767"
      },
      {
        "astId": 4088,
        "contract": "contracts/BondFarmingPool.sol:BondFarmingPool",
        "label": "masterChef",
        "offset": 0,
        "slot": "157",
        "type": "t_contract(IMultiRewardsMasterChef)8846"
      },
      {
        "astId": 4090,
        "contract": "contracts/BondFarmingPool.sol:BondFarmingPool",
        "label": "masterChefPid",
        "offset": 0,
        "slot": "158",
        "type": "t_uint256"
      },
      {
        "astId": 4102,
        "contract": "contracts/BondFarmingPool.sol:BondFarmingPool",
        "label": "usersInfo",
        "offset": 0,
        "slot": "159",
        "type": "t_mapping(t_address,t_struct(UserInfo)4097_storage)"
      }
    ],
    "types": {
      "t_address": {
        "encoding": "inplace",
        "label": "address",
        "numberOfBytes": "20"
      },
      "t_array(t_uint256)49_storage": {
        "base": "t_uint256",
        "encoding": "inplace",
        "label": "uint256[49]",
        "numberOfBytes": "1568"
      },
      "t_array(t_uint256)50_storage": {
        "base": "t_uint256",
        "encoding": "inplace",
        "label": "uint256[50]",
        "numberOfBytes": "1600"
      },
      "t_bool": {
        "encoding": "inplace",
        "label": "bool",
        "numberOfBytes": "1"
      },
      "t_contract(IBondFarmingPool)8767": {
        "encoding": "inplace",
        "label": "contract IBondFarmingPool",
        "numberOfBytes": "20"
      },
      "t_contract(IERC20Upgradeable)389": {
        "encoding": "inplace",
        "label": "contract IERC20Upgradeable",
        "numberOfBytes": "20"
      },
      "t_contract(IExtendableBond)8811": {
        "encoding": "inplace",
        "label": "contract IExtendableBond",
        "numberOfBytes": "20"
      },
      "t_contract(IMultiRewardsMasterChef)8846": {
        "encoding": "inplace",
        "label": "contract IMultiRewardsMasterChef",
        "numberOfBytes": "20"
      },
      "t_int256": {
        "encoding": "inplace",
        "label": "int256",
        "numberOfBytes": "32"
      },
      "t_mapping(t_address,t_struct(UserInfo)4097_storage)": {
        "encoding": "mapping",
        "key": "t_address",
        "label": "mapping(address => struct BondFarmingPool.UserInfo)",
        "numberOfBytes": "32",
        "value": "t_struct(UserInfo)4097_storage"
      },
      "t_struct(UserInfo)4097_storage": {
        "encoding": "inplace",
        "label": "struct BondFarmingPool.UserInfo",
        "members": [
          {
            "astId": 4093,
            "contract": "contracts/BondFarmingPool.sol:BondFarmingPool",
            "label": "shares",
            "offset": 0,
            "slot": "0",
            "type": "t_uint256"
          },
          {
            "astId": 4096,
            "contract": "contracts/BondFarmingPool.sol:BondFarmingPool",
            "label": "accNetStaked",
            "offset": 0,
            "slot": "1",
            "type": "t_int256"
          }
        ],
        "numberOfBytes": "64"
      },
      "t_uint256": {
        "encoding": "inplace",
        "label": "uint256",
        "numberOfBytes": "32"
      },
      "t_uint8": {
        "encoding": "inplace",
        "label": "uint8",
        "numberOfBytes": "1"
      }
    }
  }
}