{
  "address": "0x8ff100E2DeF1164724E58A4dC83FcF2C78A2C0e4",
  "abi": [
    {
      "anonymous": false,
      "inputs": [
        {
          "indexed": true,
          "internalType": "address",
          "name": "user",
          "type": "address"
        },
        {
          "indexed": true,
          "internalType": "address",
          "name": "newAdmin",
          "type": "address"
        }
      ],
      "name": "AdminUpdated",
      "type": "event"
    },
    {
      "anonymous": false,
      "inputs": [
        {
          "indexed": false,
          "internalType": "uint8",
          "name": "version",
          "type": "uint8"
        }
      ],
      "name": "Initialized",
      "type": "event"
    },
    {
      "anonymous": false,
      "inputs": [
        {
          "indexed": false,
          "internalType": "address",
          "name": "account",
          "type": "address"
        }
      ],
      "name": "Paused",
      "type": "event"
    },
    {
      "anonymous": false,
      "inputs": [
        {
          "indexed": true,
          "internalType": "address",
          "name": "previousPool",
          "type": "address"
        },
        {
          "indexed": true,
          "internalType": "address",
          "name": "newPool",
          "type": "address"
        }
      ],
      "name": "SiblingPoolUpdated",
      "type": "event"
    },
    {
      "anonymous": false,
      "inputs": [
        {
          "indexed": true,
          "internalType": "address",
          "name": "user",
          "type": "address"
        },
        {
          "indexed": false,
          "internalType": "uint256",
          "name": "amount",
          "type": "uint256"
        }
      ],
      "name": "Staked",
      "type": "event"
    },
    {
      "anonymous": false,
      "inputs": [
        {
          "indexed": false,
          "internalType": "address",
          "name": "account",
          "type": "address"
        }
      ],
      "name": "Unpaused",
      "type": "event"
    },
    {
      "anonymous": false,
      "inputs": [
        {
          "indexed": true,
          "internalType": "address",
          "name": "user",
          "type": "address"
        },
        {
          "indexed": false,
          "internalType": "uint256",
          "name": "amount",
          "type": "uint256"
        }
      ],
      "name": "Unstaked",
      "type": "event"
    },
    {
      "inputs": [],
      "name": "ACC_REWARDS_PRECISION",
      "outputs": [
        {
          "internalType": "uint256",
          "name": "",
          "type": "uint256"
        }
      ],
      "stateMutability": "view",
      "type": "function"
    },
    {
      "inputs": [],
      "name": "accPancakeRewardsPerShares",
      "outputs": [
        {
          "internalType": "uint256",
          "name": "",
          "type": "uint256"
        }
      ],
      "stateMutability": "view",
      "type": "function"
    },
    {
      "inputs": [],
      "name": "accRewardPerShare",
      "outputs": [
        {
          "internalType": "uint256",
          "name": "",
          "type": "uint256"
        }
      ],
      "stateMutability": "view",
      "type": "function"
    },
    {
      "inputs": [],
      "name": "admin",
      "outputs": [
        {
          "internalType": "address",
          "name": "",
          "type": "address"
        }
      ],
      "stateMutability": "view",
      "type": "function"
    },
    {
      "inputs": [],
      "name": "bond",
      "outputs": [
        {
          "internalType": "contract IExtendableBond",
          "name": "",
          "type": "address"
        }
      ],
      "stateMutability": "view",
      "type": "function"
    },
    {
      "inputs": [],
      "name": "bondRewardsSuspended",
      "outputs": [
        {
          "internalType": "bool",
          "name": "",
          "type": "bool"
        }
      ],
      "stateMutability": "view",
      "type": "function"
    },
    {
      "inputs": [],
      "name": "bondToken",
      "outputs": [
        {
          "internalType": "contract IERC20Upgradeable",
          "name": "",
          "type": "address"
        }
      ],
      "stateMutability": "view",
      "type": "function"
    },
    {
      "inputs": [],
      "name": "cakeToken",
      "outputs": [
        {
          "internalType": "contract IERC20Upgradeable",
          "name": "",
          "type": "address"
        }
      ],
      "stateMutability": "view",
      "type": "function"
    },
    {
      "inputs": [],
      "name": "claimBonuses",
      "outputs": [],
      "stateMutability": "nonpayable",
      "type": "function"
    },
    {
      "inputs": [
        {
          "internalType": "address",
          "name": "user_",
          "type": "address"
        }
      ],
      "name": "getUserPendingRewards",
      "outputs": [
        {
          "internalType": "uint256",
          "name": "",
          "type": "uint256"
        }
      ],
      "stateMutability": "view",
      "type": "function"
    },
    {
      "inputs": [
        {
          "internalType": "contract IERC20Upgradeable",
          "name": "cakeToken_",
          "type": "address"
        },
        {
          "internalType": "contract IPancakeMasterChefV2",
          "name": "pancakeMasterChef_",
          "type": "address"
        },
        {
          "internalType": "uint256",
          "name": "pancakeMasterChefPid_",
          "type": "uint256"
        }
      ],
      "name": "initPancake",
      "outputs": [],
      "stateMutability": "nonpayable",
      "type": "function"
    },
    {
      "inputs": [
        {
          "internalType": "contract IERC20Upgradeable",
          "name": "bondToken_",
          "type": "address"
        },
        {
          "internalType": "contract IExtendableBond",
          "name": "bond_",
          "type": "address"
        },
        {
          "internalType": "address",
          "name": "admin_",
          "type": "address"
        }
      ],
      "name": "initialize",
      "outputs": [],
      "stateMutability": "nonpayable",
      "type": "function"
    },
    {
      "inputs": [],
      "name": "lastUpdatedPoolAt",
      "outputs": [
        {
          "internalType": "uint256",
          "name": "",
          "type": "uint256"
        }
      ],
      "stateMutability": "view",
      "type": "function"
    },
    {
      "inputs": [],
      "name": "lpToken",
      "outputs": [
        {
          "internalType": "contract IERC20Upgradeable",
          "name": "",
          "type": "address"
        }
      ],
      "stateMutability": "view",
      "type": "function"
    },
    {
      "inputs": [],
      "name": "masterChef",
      "outputs": [
        {
          "internalType": "contract IMultiRewardsMasterChef",
          "name": "",
          "type": "address"
        }
      ],
      "stateMutability": "view",
      "type": "function"
    },
    {
      "inputs": [],
      "name": "masterChefPid",
      "outputs": [
        {
          "internalType": "uint256",
          "name": "",
          "type": "uint256"
        }
      ],
      "stateMutability": "view",
      "type": "function"
    },
    {
      "inputs": [],
      "name": "pancakeMasterChef",
      "outputs": [
        {
          "internalType": "contract IPancakeMasterChefV2",
          "name": "",
          "type": "address"
        }
      ],
      "stateMutability": "view",
      "type": "function"
    },
    {
      "inputs": [],
      "name": "pancakeMasterChefPid",
      "outputs": [
        {
          "internalType": "uint256",
          "name": "",
          "type": "uint256"
        }
      ],
      "stateMutability": "view",
      "type": "function"
    },
    {
      "inputs": [
        {
          "internalType": "address",
          "name": "",
          "type": "address"
        }
      ],
      "name": "pancakeUsersInfo",
      "outputs": [
        {
          "internalType": "uint256",
          "name": "rewardDebt",
          "type": "uint256"
        },
        {
          "internalType": "uint256",
          "name": "pendingRewards",
          "type": "uint256"
        },
        {
          "internalType": "uint256",
          "name": "claimedRewards",
          "type": "uint256"
        }
      ],
      "stateMutability": "view",
      "type": "function"
    },
    {
      "inputs": [],
      "name": "paused",
      "outputs": [
        {
          "internalType": "bool",
          "name": "",
          "type": "bool"
        }
      ],
      "stateMutability": "view",
      "type": "function"
    },
    {
      "inputs": [],
      "name": "remoteEnable",
      "outputs": [],
      "stateMutability": "nonpayable",
      "type": "function"
    },
    {
      "inputs": [],
      "name": "remoteEnabled",
      "outputs": [
        {
          "internalType": "bool",
          "name": "",
          "type": "bool"
        }
      ],
      "stateMutability": "view",
      "type": "function"
    },
    {
      "inputs": [
        {
          "internalType": "address",
          "name": "newAdmin",
          "type": "address"
        }
      ],
      "name": "setAdmin",
      "outputs": [],
      "stateMutability": "nonpayable",
      "type": "function"
    },
    {
      "inputs": [
        {
          "internalType": "bool",
          "name": "suspended_",
          "type": "bool"
        }
      ],
      "name": "setBondRewardsSuspended",
      "outputs": [],
      "stateMutability": "nonpayable",
      "type": "function"
    },
    {
      "inputs": [
        {
          "internalType": "contract IERC20Upgradeable",
          "name": "lpToken_",
          "type": "address"
        }
      ],
      "name": "setLpToken",
      "outputs": [],
      "stateMutability": "nonpayable",
      "type": "function"
    },
    {
      "inputs": [
        {
          "internalType": "contract IMultiRewardsMasterChef",
          "name": "masterChef_",
          "type": "address"
        },
        {
          "internalType": "uint256",
          "name": "masterChefPid_",
          "type": "uint256"
        }
      ],
      "name": "setMasterChef",
      "outputs": [],
      "stateMutability": "nonpayable",
      "type": "function"
    },
    {
      "inputs": [
        {
          "internalType": "contract IBondFarmingPool",
          "name": "siblingPool_",
          "type": "address"
        }
      ],
      "name": "setSiblingPool",
      "outputs": [],
      "stateMutability": "nonpayable",
      "type": "function"
    },
    {
      "inputs": [],
      "name": "siblingPool",
      "outputs": [
        {
          "internalType": "contract IBondFarmingPool",
          "name": "",
          "type": "address"
        }
      ],
      "stateMutability": "view",
      "type": "function"
    },
    {
      "inputs": [
        {
          "internalType": "uint256",
          "name": "amount_",
          "type": "uint256"
        }
      ],
      "name": "stake",
      "outputs": [],
      "stateMutability": "nonpayable",
      "type": "function"
    },
    {
      "inputs": [
        {
          "internalType": "address",
          "name": "user_",
          "type": "address"
        },
        {
          "internalType": "uint256",
          "name": "amount_",
          "type": "uint256"
        }
      ],
      "name": "stakeForUser",
      "outputs": [],
      "stateMutability": "nonpayable",
      "type": "function"
    },
    {
      "inputs": [],
      "name": "totalLpAmount",
      "outputs": [
        {
          "internalType": "uint256",
          "name": "",
          "type": "uint256"
        }
      ],
      "stateMutability": "view",
      "type": "function"
    },
    {
      "inputs": [],
      "name": "totalPendingRewards",
      "outputs": [
        {
          "internalType": "uint256",
          "name": "",
          "type": "uint256"
        }
      ],
      "stateMutability": "view",
      "type": "function"
    },
    {
      "inputs": [
        {
          "internalType": "uint256",
          "name": "amount_",
          "type": "uint256"
        }
      ],
      "name": "unstake",
      "outputs": [],
      "stateMutability": "nonpayable",
      "type": "function"
    },
    {
      "inputs": [],
      "name": "unstakeAll",
      "outputs": [],
      "stateMutability": "nonpayable",
      "type": "function"
    },
    {
      "inputs": [],
      "name": "updatePool",
      "outputs": [],
      "stateMutability": "nonpayable",
      "type": "function"
    },
    {
      "inputs": [
        {
          "internalType": "address",
          "name": "",
          "type": "address"
        }
      ],
      "name": "usersInfo",
      "outputs": [
        {
          "internalType": "uint256",
          "name": "lpAmount",
          "type": "uint256"
        },
        {
          "internalType": "uint256",
          "name": "rewardDebt",
          "type": "uint256"
        },
        {
          "internalType": "uint256",
          "name": "pendingRewards",
          "type": "uint256"
        },
        {
          "internalType": "uint256",
          "name": "claimedRewards",
          "type": "uint256"
        }
      ],
      "stateMutability": "view",
      "type": "function"
    }
  ],
  "transactionHash": "0x4e553de5ebcfca5d780f87e483fdcf1c4aa3b86ddea29755ebdb75b962e47e6a",
  "args": [],
  "numDeployments": 4,
  "solcInputHash": "084f9fa4ee921b4c2bf2c1e9efb70f72",
  "bytecode": "0x60806040526000609c5560a1805460ff1916905534801561001f57600080fd5b506127e48061002f6000396000f3fe608060405234801561001057600080fd5b506004361061021c5760003560e01c8063704b6c0211610125578063cf7c11fa116100ad578063ec1371f21161007c578063ec1371f2146104a8578063eeea7a52146104b0578063f851a440146104b8578063fd79c6a2146104cb578063ff98933a146104de57600080fd5b8063cf7c11fa14610478578063d9d72c191461048b578063dd02885414610493578063e3161ddd146104a057600080fd5b8063a694fc3a116100f4578063a694fc3a14610423578063c0c53b8b14610436578063c28f439214610449578063c62c610b1461045c578063c8bac0601461046557600080fd5b8063704b6c02146103e15780638904bf2f146103f4578063939d6237146104075780639ee933b51461041057600080fd5b80635b755f39116101a85780635fcbd285116101775780635fcbd2851461039257806364c9ec6f146103a55780636702679a146103b8578063672f1490146103c55780636f2066b0146103d857600080fd5b80635b755f39146103115780635c975abb1461031d5780635d019881146103345780635d0eaaaf1461033d57600080fd5b806335322f37116101ef57806335322f37146102905780633e70a32e1461029857806345a13b96146102e2578063532d7397146102f5578063575a86b2146102fe57600080fd5b80630a90cc0c14610221578063123cecbe1461023d5780632e17de78146102525780633530c61e14610265575b600080fd5b61022a60a55481565b6040519081526020015b60405180910390f35b61025061024b366004612458565b6104f1565b005b610250610260366004612475565b6106e5565b609b54610278906001600160a01b031681565b6040516001600160a01b039091168152602001610234565b610250610a43565b6102c76102a6366004612458565b60a86020526000908152604090208054600182015460029092015490919083565b60408051938452602084019290925290820152606001610234565b6102506102f036600461249c565b610aaf565b61022a60a05481565b609d54610278906001600160a01b031681565b61022a64e8d4a5100081565b60655460ff165b6040519015158152602001610234565b61022a609c5481565b61037261034b366004612458565b60a26020526000908152604090208054600182015460028301546003909301549192909184565b604080519485526020850193909352918301526060820152608001610234565b609954610278906001600160a01b031681565b609a54610278906001600160a01b031681565b60a1546103249060ff1681565b6102506103d33660046124b9565b610af4565b61022a60a65481565b6102506103ef366004612458565b610b44565b60a354610278906001600160a01b031681565b61022a609f5481565b61025061041e366004612458565b610b7a565b610250610431366004612475565b610bc6565b6102506104443660046124e5565b610c71565b609854610278906001600160a01b031681565b61022a609e5481565b60a454610278906001600160a01b031681565b61022a610486366004612458565b610d2a565b610250610e65565b60a7546103249060ff1681565b610250610e6f565b61022a610f0c565b610250611045565b609754610278906001600160a01b031681565b6102506104d93660046124b9565b6110c9565b6102506104ec366004612530565b611364565b6097546001600160a01b031633146105245760405162461bcd60e51b815260040161051b90612571565b60405180910390fd5b60006001600160a01b0316816001600160a01b0316633530c61e6040518163ffffffff1660e01b815260040160206040518083038186803b15801561056857600080fd5b505afa15801561057c573d6000803e3d6000fd5b505050506040513d601f19601f820116820180604052508101906105a09190612597565b6001600160a01b031614806106365750306001600160a01b0316816001600160a01b0316633530c61e6040518163ffffffff1660e01b815260040160206040518083038186803b1580156105f357600080fd5b505afa158015610607573d6000803e3d6000fd5b505050506040513d601f19601f8201168201806040525081019061062b9190612597565b6001600160a01b0316145b801561064b57506001600160a01b0381163014155b6106895760405162461bcd60e51b815260206004820152600f60248201526e496e76616c6964207369626c696e6760881b604482015260640161051b565b609b546040516001600160a01b038084169216907f5c0b1436fffe2be9a261bad04f4b4c330db8e95f54f09d910e47447e94f4329490600090a3609b80546001600160a01b0319166001600160a01b0392909216919091179055565b60655460ff16156107085760405162461bcd60e51b815260040161051b906125b4565b6002600154141561075b5760405162461bcd60e51b815260206004820152601f60248201527f5265656e7472616e637947756172643a207265656e7472616e742063616c6c00604482015260640161051b565b600260015533600081815260a260205260409020805483118015906107805750805415155b6107d85760405162461bcd60e51b815260206004820152602360248201527f756e7374616b6520616d6f756e742065786365656473206f776e656420616d6f6044820152621d5b9d60ea1b606482015260840161051b565b6107e0611490565b600064e8d4a510008260000154609f546107fa91906125f4565b6108049190612613565b90506000826001015482846002015461081d9190612635565b610827919061264d565b6098546040516370a0823160e01b81523060048201529192506000916001600160a01b03909116906370a082319060240160206040518083038186803b15801561087057600080fd5b505afa158015610884573d6000803e3d6000fd5b505050506040513d601f19601f820116820180604052508101906108a89190612664565b9050808211156108b6578091505b60018401839055600060028501556108ce858761150d565b851561094d57835464e8d4a51000906108e890889061264d565b609f546108f591906125f4565b6108ff9190612613565b600185015583548690859060009061091890849061264d565b925050819055508560a06000828254610931919061264d565b909155505060995461094d906001600160a01b031686886116ff565b811561096a5760985461096a906001600160a01b031686846116ff565b8184600301600082825461097e9190612635565b9091555050609d54609e546040516370ad001d60e11b81526004810191909152602481018890526001600160a01b0387811660448301529091169063e15a003a90606401600060405180830381600087803b1580156109dc57600080fd5b505af11580156109f0573d6000803e3d6000fd5b50505050846001600160a01b03167f0f5bb82176feb1b5e747e28471aa92156a04d9f3ab9f45f28e2d704232b93f7587604051610a2f91815260200190565b60405180910390a250506001805550505050565b33600090815260a26020526040902054610a945760405162461bcd60e51b81526020600482015260126024820152716e6f7468696e6720746f20756e7374616b6560701b604482015260640161051b565b33600090815260a26020526040902054610aad906106e5565b565b6097546001600160a01b03163314610ad95760405162461bcd60e51b815260040161051b90612571565b610ae1611490565b60a1805460ff1916911515919091179055565b6097546001600160a01b03163314610b1e5760405162461bcd60e51b815260040161051b90612571565b609d80546001600160a01b0319166001600160a01b039390931692909217909155609e55565b6097546001600160a01b03163314610b6e5760405162461bcd60e51b815260040161051b90612571565b610b7781611767565b50565b6097546001600160a01b03163314610ba45760405162461bcd60e51b815260040161051b90612571565b609980546001600160a01b0319166001600160a01b0392909216919091179055565b60655460ff1615610be95760405162461bcd60e51b815260040161051b906125b4565b60a15460ff1615610c625760405162461bcd60e51b815260206004820152603960248201527f5265776172642073757370656e6465642e20506c6561736520666f6c6c6f772060448201527f7468652070726f6a65637420616e6e6f756e63656d656e742000000000000000606482015260840161051b565b33610c6d81836110c9565b5050565b6000610c7d6001611813565b90508015610c95576000805461ff0019166101001790555b610c9d61189b565b610ca56118ca565b610cae82611767565b609880546001600160a01b038087166001600160a01b031992831617909255609a8054928616929091169190911790558015610d24576000805461ff0019169055604051600181527f7f26b83ff96e1f2b6a682f133852f6798a09c465da95921460cefb38474024989060200160405180910390a15b50505050565b6001600160a01b038116600090815260a26020526040812060a0541580610d5057508054155b15610d5e5750600092915050565b6000610d68610f0c565b609f5460a054609a54604051625e3ded60e61b81526004810185905293945060009364e8d4a51000916001600160a01b03169063178f7b409060240160206040518083038186803b158015610dbc57600080fd5b505afa158015610dd0573d6000803e3d6000fd5b505050506040513d601f19601f82011682018060405250810190610df49190612664565b610dfe908661264d565b610e0891906125f4565b610e129190612613565b610e1c9190612635565b90508260010154836002015464e8d4a51000856000015484610e3e91906125f4565b610e489190612613565b610e529190612635565b610e5c919061264d565b95945050505050565b610aad60006106e5565b609b546001600160a01b0316331480610e925750609a546001600160a01b031633145b610f045760405162461bcd60e51b815260206004820152603960248201527f426f6e644c504661726d696e67506f6f6c3a2043616c6c696e672066726f6d2060448201527f7369626c696e6720706f6f6c206f7220626f6e64206f6e6c7900000000000000606482015260840161051b565b610aad6118f9565b60a15460009060ff1615610f205750600090565b609a5460408051637609b8f960e11b815290516000926001600160a01b03169163ec1371f2916004808301926020929190829003018186803b158015610f6557600080fd5b505afa158015610f79573d6000803e3d6000fd5b505050506040513d601f19601f82011682018060405250810190610f9d9190612664565b905060008111610faf57600091505090565b609b60009054906101000a90046001600160a01b03166001600160a01b031663ec1371f26040518163ffffffff1660e01b815260040160206040518083038186803b158015610ffd57600080fd5b505afa158015611011573d6000803e3d6000fd5b505050506040513d601f19601f820116820180604052508101906110359190612664565b61103f908261264d565b91505090565b6097546001600160a01b0316331461106f5760405162461bcd60e51b815260040161051b90612571565b60a75460ff16156110b45760405162461bcd60e51b815260206004820152600f60248201526e105b1c9958591e48195b98589b1959608a1b604482015260640161051b565b60a7805460ff19166001179055610aad611b62565b60655460ff16156110ec5760405162461bcd60e51b815260040161051b906125b4565b6002600154141561113f5760405162461bcd60e51b815260206004820152601f60248201527f5265656e7472616e637947756172643a207265656e7472616e742063616c6c00604482015260640161051b565b6002600155806111845760405162461bcd60e51b815260206004820152601060248201526f6e6f7468696e6720746f207374616b6560801b604482015260640161051b565b61118c611490565b6001600160a01b038216600090815260a26020526040902080541561122f57600064e8d4a510008260000154609f546111c591906125f4565b6111cf9190612613565b90508160010154816111e1919061264d565b8260020160008282546111f49190612635565b9091555050815464e8d4a510009061120d908590612635565b609f5461121a91906125f4565b6112249190612613565b600183015550611253565b64e8d4a5100082609f5461124391906125f4565b61124d9190612613565b60018201555b60995461126b906001600160a01b0316333085611c81565b6112758383611cb9565b818160000160008282546112899190612635565b925050819055508160a060008282546112a29190612635565b9091555050609d54609e5460405163a3f30d2760e01b81526004810191909152602481018490526001600160a01b0385811660448301529091169063a3f30d2790606401600060405180830381600087803b15801561130057600080fd5b505af1158015611314573d6000803e3d6000fd5b50505050826001600160a01b03167f9e71bc8eea02a63969f509818f2dafb9254532904319f9dbda79b67bd34a5f3d8360405161135391815260200190565b60405180910390a250506001805550565b6097546001600160a01b0316331461138e5760405162461bcd60e51b815260040161051b90612571565b6001600160a01b038216158015906113a557508015155b80156113b957506001600160a01b03831615155b6113f65760405162461bcd60e51b815260206004820152600e60248201526d496e76616c696420696e7075747360901b604482015260640161051b565b60a4546001600160a01b031615801561140f575060a554155b61145b5760405162461bcd60e51b815260206004820181905260248201527f63616e206e6f74206d6f646966792070616e63616b654d617374657243686566604482015260640161051b565b60a380546001600160a01b039485166001600160a01b03199182161790915560a480549390941692169190911790915560a555565b60a15460ff161561149d57565b609b60009054906101000a90046001600160a01b03166001600160a01b031663e3161ddd6040518163ffffffff1660e01b8152600401600060405180830381600087803b1580156114ed57600080fd5b505af1158015611501573d6000803e3d6000fd5b50505050610aad6118f9565b6001600160a01b038216600090815260a26020908152604080832060a89092528220815460a6549293919264e8d4a5100091611548916125f4565b6115529190612613565b825460018401549192506000916115699084612635565b611573919061264d565b6000600185015582845560a75490915060ff161561160257611593611e32565b60a45460a554604051630441a3e760e41b81526001600160a01b039092169163441a3e70916115cf918990600401918252602082015260400190565b600060405180830381600087803b1580156115e957600080fd5b505af11580156115fd573d6000803e3d6000fd5b505050505b80156116f75760a3546040516370a0823160e01b81523060048201526000916001600160a01b0316906370a082319060240160206040518083038186803b15801561164c57600080fd5b505afa158015611660573d6000803e3d6000fd5b505050506040513d601f19601f820116820180604052508101906116849190612664565b9050808211156116c45760a3546116a5906001600160a01b031688836116ff565b808460020160008282546116b99190612635565b909155506116f59050565b60a3546116db906001600160a01b031688846116ff565b818460020160008282546116ef9190612635565b90915550505b505b505050505050565b6040516001600160a01b03831660248201526044810182905261176290849063a9059cbb60e01b906064015b60408051601f198184030181529190526020810180516001600160e01b03166001600160e01b031990931692909217909152611ea5565b505050565b6001600160a01b0381166117c75760405162461bcd60e51b815260206004820152602160248201527f43616e206e6f74207365742061646d696e20746f207a65726f206164647265736044820152607360f81b606482015260840161051b565b609780546001600160a01b0319166001600160a01b03831690811790915560405133907f101b8081ff3b56bbf45deb824d86a3b0fd38b7e3dd42421105cf8abe9106db0b90600090a350565b60008054610100900460ff161561185a578160ff1660011480156118365750303b155b6118525760405162461bcd60e51b815260040161051b9061267d565b506000919050565b60005460ff8084169116106118815760405162461bcd60e51b815260040161051b9061267d565b506000805460ff191660ff92909216919091179055600190565b600054610100900460ff166118c25760405162461bcd60e51b815260040161051b906126cb565b610aad611f77565b600054610100900460ff166118f15760405162461bcd60e51b815260040161051b906126cb565b610aad611fa4565b609c54609b60009054906101000a90046001600160a01b03166001600160a01b0316635d0198816040518163ffffffff1660e01b815260040160206040518083038186803b15801561194a57600080fd5b505afa15801561195e573d6000803e3d6000fd5b505050506040513d601f19601f820116820180604052508101906119829190612664565b1180611a205750609c54609b60009054906101000a90046001600160a01b03166001600160a01b0316635d0198816040518163ffffffff1660e01b815260040160206040518083038186803b1580156119da57600080fd5b505afa1580156119ee573d6000803e3d6000fd5b505050506040513d601f19601f82011682018060405250810190611a129190612664565b148015611a20575043609c54145b611a6c5760405162461bcd60e51b815260206004820152601960248201527f75706461746520626f6e6420706f6f6c2066697273746c792e00000000000000604482015260640161051b565b6000611a76610f0c565b43609c559050611a84611fd7565b801580611a91575060a054155b15611a995750565b609a54604051632a52d5a560e21b8152306004820152602481018390526000916001600160a01b03169063a94b569490604401602060405180830381600087803b158015611ae657600080fd5b505af1158015611afa573d6000803e3d6000fd5b505050506040513d601f19601f82011682018060405250810190611b1e9190612664565b60a05490915064e8d4a51000611b34838561264d565b611b3e91906125f4565b611b489190612613565b609f6000828254611b599190612635565b90915550505050565b611b6a611e32565b6099546040516370a0823160e01b81523060048201526000916001600160a01b0316906370a082319060240160206040518083038186803b158015611bae57600080fd5b505afa158015611bc2573d6000803e3d6000fd5b505050506040513d601f19601f82011682018060405250810190611be69190612664565b905060008111611bf35750565b60a454609954611c10916001600160a01b0391821691168361219c565b60a45460a554604051631c57762b60e31b81526001600160a01b039092169163e2bbb15891611c4c918590600401918252602082015260400190565b600060405180830381600087803b158015611c6657600080fd5b505af1158015611c7a573d6000803e3d6000fd5b5050505050565b6040516001600160a01b0380851660248301528316604482015260648101829052610d249085906323b872dd60e01b9060840161172b565b6001600160a01b038216600090815260a26020908152604080832060a8909252909120815415611d6157600064e8d4a51000836000015460a654611cfd91906125f4565b611d079190612613565b8254909150611d16908261264d565b826001016000828254611d299190612635565b9091555050825464e8d4a5100090611d42908690612635565b60a654611d4f91906125f4565b611d599190612613565b825550611d82565b64e8d4a510008360a654611d7591906125f4565b611d7f9190612613565b81555b600083118015611d94575060a75460ff165b15610d2457611da1611e32565b60a454609954611dbe916001600160a01b0391821691168561219c565b60a45460a554604051631c57762b60e31b81526001600160a01b039092169163e2bbb15891611dfa918790600401918252602082015260400190565b600060405180830381600087803b158015611e1457600080fd5b505af1158015611e28573d6000803e3d6000fd5b5050505050505050565b60a4546001600160a01b031615801590611e4d575060a55415155b8015611e63575060a3546001600160a01b031615155b610aad5760405162461bcd60e51b815260206004820152601360248201527214185b98d85ad9481b9bdd081cd95d1d1b1959606a1b604482015260640161051b565b6000611efa826040518060400160405280602081526020017f5361666545524332303a206c6f772d6c6576656c2063616c6c206661696c6564815250856001600160a01b03166122c09092919063ffffffff16565b8051909150156117625780806020019051810190611f189190612716565b6117625760405162461bcd60e51b815260206004820152602a60248201527f5361666545524332303a204552433230206f7065726174696f6e20646964206e6044820152691bdd081cdd58d8d9595960b21b606482015260840161051b565b600054610100900460ff16611f9e5760405162461bcd60e51b815260040161051b906126cb565b60018055565b600054610100900460ff16611fcb5760405162461bcd60e51b815260040161051b906126cb565b6065805460ff19169055565b60a75460ff16611fe357565b611feb611e32565b60a3546040516370a0823160e01b81523060048201526000916001600160a01b0316906370a082319060240160206040518083038186803b15801561202f57600080fd5b505afa158015612043573d6000803e3d6000fd5b505050506040513d601f19601f820116820180604052508101906120679190612664565b60a45460a554604051631c57762b60e31b81526004810191909152600060248201529192506001600160a01b03169063e2bbb15890604401600060405180830381600087803b1580156120b957600080fd5b505af11580156120cd573d6000803e3d6000fd5b505060a3546040516370a0823160e01b8152306004820152600093506001600160a01b0390911691506370a082319060240160206040518083038186803b15801561211757600080fd5b505afa15801561212b573d6000803e3d6000fd5b505050506040513d601f19601f8201168201806040525081019061214f9190612664565b9050600061215d838361264d565b905080156117625760a05461217764e8d4a51000836125f4565b6121819190612613565b60a660008282546121929190612635565b9091555050505050565b8015806122255750604051636eb1769f60e11b81523060048201526001600160a01b03838116602483015284169063dd62ed3e9060440160206040518083038186803b1580156121eb57600080fd5b505afa1580156121ff573d6000803e3d6000fd5b505050506040513d601f19601f820116820180604052508101906122239190612664565b155b6122905760405162461bcd60e51b815260206004820152603660248201527f5361666545524332303a20617070726f76652066726f6d206e6f6e2d7a65726f60448201527520746f206e6f6e2d7a65726f20616c6c6f77616e636560501b606482015260840161051b565b6040516001600160a01b03831660248201526044810182905261176290849063095ea7b360e01b9060640161172b565b60606122cf84846000856122d9565b90505b9392505050565b60608247101561233a5760405162461bcd60e51b815260206004820152602660248201527f416464726573733a20696e73756666696369656e742062616c616e636520666f6044820152651c8818d85b1b60d21b606482015260840161051b565b6001600160a01b0385163b6123915760405162461bcd60e51b815260206004820152601d60248201527f416464726573733a2063616c6c20746f206e6f6e2d636f6e7472616374000000604482015260640161051b565b600080866001600160a01b031685876040516123ad919061275f565b60006040518083038185875af1925050503d80600081146123ea576040519150601f19603f3d011682016040523d82523d6000602084013e6123ef565b606091505b50915091506123ff82828661240a565b979650505050505050565b606083156124195750816122d2565b8251156124295782518084602001fd5b8160405162461bcd60e51b815260040161051b919061277b565b6001600160a01b0381168114610b7757600080fd5b60006020828403121561246a57600080fd5b81356122d281612443565b60006020828403121561248757600080fd5b5035919050565b8015158114610b7757600080fd5b6000602082840312156124ae57600080fd5b81356122d28161248e565b600080604083850312156124cc57600080fd5b82356124d781612443565b946020939093013593505050565b6000806000606084860312156124fa57600080fd5b833561250581612443565b9250602084013561251581612443565b9150604084013561252581612443565b809150509250925092565b60008060006060848603121561254557600080fd5b833561255081612443565b9250602084013561256081612443565b929592945050506040919091013590565b6020808252600c908201526b15539055551213d49256915160a21b604082015260600190565b6000602082840312156125a957600080fd5b81516122d281612443565b60208082526010908201526f14185d5cd8589b194e881c185d5cd95960821b604082015260600190565b634e487b7160e01b600052601160045260246000fd5b600081600019048311821515161561260e5761260e6125de565b500290565b60008261263057634e487b7160e01b600052601260045260246000fd5b500490565b60008219821115612648576126486125de565b500190565b60008282101561265f5761265f6125de565b500390565b60006020828403121561267657600080fd5b5051919050565b6020808252602e908201527f496e697469616c697a61626c653a20636f6e747261637420697320616c72656160408201526d191e481a5b9a5d1a585b1a5e995960921b606082015260800190565b6020808252602b908201527f496e697469616c697a61626c653a20636f6e7472616374206973206e6f74206960408201526a6e697469616c697a696e6760a81b606082015260800190565b60006020828403121561272857600080fd5b81516122d28161248e565b60005b8381101561274e578181015183820152602001612736565b83811115610d245750506000910152565b60008251612771818460208701612733565b9190910192915050565b602081526000825180602084015261279a816040850160208701612733565b601f01601f1916919091016040019291505056fea26469706673582212202e146faa58230bdeb3c30dc58e71fe620c162a27e6b000ee65c87cb50814691d64736f6c63430008090033",
  "devdoc": {
    "kind": "dev",
    "methods": {
      "getUserPendingRewards(address)": {
        "details": "get pending rewards by specific user"
      },
      "paused()": {
        "details": "Returns true if the contract is paused, and false otherwise."
      },
      "remoteEnable()": {
        "details": "enable remote staking (stake to PancakeSwap LP farming pool)."
      },
      "totalPendingRewards()": {
        "details": "distribute single bond pool first, then LP pool will get the remaining rewards. see _updatePools"
      },
      "updatePool()": {
        "details": "see: _updatePool"
      }
    },
    "stateVariables": {
      "accPancakeRewardsPerShares": {
        "details": "accumulated cake rewards of each lp token."
      },
      "remoteEnabled": {
        "details": "whether remote staking enabled (stake to PancakeSwap LP farming pool)."
      }
    },
    "version": 1
  },
  "userdoc": {
    "kind": "user",
    "methods": {
      "bondRewardsSuspended()": {
        "notice": "mark bond reward is suspended. If the LP Token needs to be migrated, such as from pancake to ESP, the bond rewards will be suspended.you can not stake anymore when bond rewards has been suspended."
      },
      "remoteEnabled()": {
        "notice": "It cannot be modified from true to false as this may cause accounting problems."
      },
      "unstake(uint256)": {
        "notice": "unstake by shares"
      }
    },
    "version": 1
  },
  "storageLayout": {
    "storage": [
      {
        "astId": 6,
        "contract": "contracts/underlyings/pancake/BondLPPancakeFarmingPool.sol:BondLPPancakeFarmingPool",
        "label": "_initialized",
        "offset": 0,
        "slot": "0",
        "type": "t_uint8"
      },
      {
        "astId": 9,
        "contract": "contracts/underlyings/pancake/BondLPPancakeFarmingPool.sol:BondLPPancakeFarmingPool",
        "label": "_initializing",
        "offset": 1,
        "slot": "0",
        "type": "t_bool"
      },
      {
        "astId": 266,
        "contract": "contracts/underlyings/pancake/BondLPPancakeFarmingPool.sol:BondLPPancakeFarmingPool",
        "label": "_status",
        "offset": 0,
        "slot": "1",
        "type": "t_uint256"
      },
      {
        "astId": 310,
        "contract": "contracts/underlyings/pancake/BondLPPancakeFarmingPool.sol:BondLPPancakeFarmingPool",
        "label": "__gap",
        "offset": 0,
        "slot": "2",
        "type": "t_array(t_uint256)49_storage"
      },
      {
        "astId": 897,
        "contract": "contracts/underlyings/pancake/BondLPPancakeFarmingPool.sol:BondLPPancakeFarmingPool",
        "label": "__gap",
        "offset": 0,
        "slot": "51",
        "type": "t_array(t_uint256)50_storage"
      },
      {
        "astId": 162,
        "contract": "contracts/underlyings/pancake/BondLPPancakeFarmingPool.sol:BondLPPancakeFarmingPool",
        "label": "_paused",
        "offset": 0,
        "slot": "101",
        "type": "t_bool"
      },
      {
        "astId": 251,
        "contract": "contracts/underlyings/pancake/BondLPPancakeFarmingPool.sol:BondLPPancakeFarmingPool",
        "label": "__gap",
        "offset": 0,
        "slot": "102",
        "type": "t_array(t_uint256)49_storage"
      },
      {
        "astId": 7931,
        "contract": "contracts/underlyings/pancake/BondLPPancakeFarmingPool.sol:BondLPPancakeFarmingPool",
        "label": "admin",
        "offset": 0,
        "slot": "151",
        "type": "t_address"
      },
      {
        "astId": 3837,
        "contract": "contracts/underlyings/pancake/BondLPPancakeFarmingPool.sol:BondLPPancakeFarmingPool",
        "label": "bondToken",
        "offset": 0,
        "slot": "152",
        "type": "t_contract(IERC20Upgradeable)389"
      },
      {
        "astId": 3840,
        "contract": "contracts/underlyings/pancake/BondLPPancakeFarmingPool.sol:BondLPPancakeFarmingPool",
        "label": "lpToken",
        "offset": 0,
        "slot": "153",
        "type": "t_contract(IERC20Upgradeable)389"
      },
      {
        "astId": 3847,
        "contract": "contracts/underlyings/pancake/BondLPPancakeFarmingPool.sol:BondLPPancakeFarmingPool",
        "label": "bond",
        "offset": 0,
        "slot": "154",
        "type": "t_contract(IExtendableBond)7862"
      },
      {
        "astId": 3850,
        "contract": "contracts/underlyings/pancake/BondLPPancakeFarmingPool.sol:BondLPPancakeFarmingPool",
        "label": "siblingPool",
        "offset": 0,
        "slot": "155",
        "type": "t_contract(IBondFarmingPool)7721"
      },
      {
        "astId": 3853,
        "contract": "contracts/underlyings/pancake/BondLPPancakeFarmingPool.sol:BondLPPancakeFarmingPool",
        "label": "lastUpdatedPoolAt",
        "offset": 0,
        "slot": "156",
        "type": "t_uint256"
      },
      {
        "astId": 3856,
        "contract": "contracts/underlyings/pancake/BondLPPancakeFarmingPool.sol:BondLPPancakeFarmingPool",
        "label": "masterChef",
        "offset": 0,
        "slot": "157",
        "type": "t_contract(IMultiRewardsMasterChef)7897"
      },
      {
        "astId": 3858,
        "contract": "contracts/underlyings/pancake/BondLPPancakeFarmingPool.sol:BondLPPancakeFarmingPool",
        "label": "masterChefPid",
        "offset": 0,
        "slot": "158",
        "type": "t_uint256"
      },
      {
        "astId": 3861,
        "contract": "contracts/underlyings/pancake/BondLPPancakeFarmingPool.sol:BondLPPancakeFarmingPool",
        "label": "accRewardPerShare",
        "offset": 0,
        "slot": "159",
        "type": "t_uint256"
      },
      {
        "astId": 3866,
        "contract": "contracts/underlyings/pancake/BondLPPancakeFarmingPool.sol:BondLPPancakeFarmingPool",
        "label": "totalLpAmount",
        "offset": 0,
        "slot": "160",
        "type": "t_uint256"
      },
      {
        "astId": 3870,
        "contract": "contracts/underlyings/pancake/BondLPPancakeFarmingPool.sol:BondLPPancakeFarmingPool",
        "label": "bondRewardsSuspended",
        "offset": 0,
        "slot": "161",
        "type": "t_bool"
      },
      {
        "astId": 3888,
        "contract": "contracts/underlyings/pancake/BondLPPancakeFarmingPool.sol:BondLPPancakeFarmingPool",
        "label": "usersInfo",
        "offset": 0,
        "slot": "162",
        "type": "t_mapping(t_address,t_struct(UserInfo)3883_storage)"
      },
      {
        "astId": 16491,
        "contract": "contracts/underlyings/pancake/BondLPPancakeFarmingPool.sol:BondLPPancakeFarmingPool",
        "label": "cakeToken",
        "offset": 0,
        "slot": "163",
        "type": "t_contract(IERC20Upgradeable)389"
      },
      {
        "astId": 16498,
        "contract": "contracts/underlyings/pancake/BondLPPancakeFarmingPool.sol:BondLPPancakeFarmingPool",
        "label": "pancakeMasterChef",
        "offset": 0,
        "slot": "164",
        "type": "t_contract(IPancakeMasterChefV2)7921"
      },
      {
        "astId": 16500,
        "contract": "contracts/underlyings/pancake/BondLPPancakeFarmingPool.sol:BondLPPancakeFarmingPool",
        "label": "pancakeMasterChefPid",
        "offset": 0,
        "slot": "165",
        "type": "t_uint256"
      },
      {
        "astId": 16503,
        "contract": "contracts/underlyings/pancake/BondLPPancakeFarmingPool.sol:BondLPPancakeFarmingPool",
        "label": "accPancakeRewardsPerShares",
        "offset": 0,
        "slot": "166",
        "type": "t_uint256"
      },
      {
        "astId": 16506,
        "contract": "contracts/underlyings/pancake/BondLPPancakeFarmingPool.sol:BondLPPancakeFarmingPool",
        "label": "remoteEnabled",
        "offset": 0,
        "slot": "167",
        "type": "t_bool"
      },
      {
        "astId": 16521,
        "contract": "contracts/underlyings/pancake/BondLPPancakeFarmingPool.sol:BondLPPancakeFarmingPool",
        "label": "pancakeUsersInfo",
        "offset": 0,
        "slot": "168",
        "type": "t_mapping(t_address,t_struct(PancakeUserInfo)16516_storage)"
      }
    ],
    "types": {
      "t_address": {
        "encoding": "inplace",
        "label": "address",
        "numberOfBytes": "20"
      },
      "t_array(t_uint256)49_storage": {
        "base": "t_uint256",
        "encoding": "inplace",
        "label": "uint256[49]",
        "numberOfBytes": "1568"
      },
      "t_array(t_uint256)50_storage": {
        "base": "t_uint256",
        "encoding": "inplace",
        "label": "uint256[50]",
        "numberOfBytes": "1600"
      },
      "t_bool": {
        "encoding": "inplace",
        "label": "bool",
        "numberOfBytes": "1"
      },
      "t_contract(IBondFarmingPool)7721": {
        "encoding": "inplace",
        "label": "contract IBondFarmingPool",
        "numberOfBytes": "20"
      },
      "t_contract(IERC20Upgradeable)389": {
        "encoding": "inplace",
        "label": "contract IERC20Upgradeable",
        "numberOfBytes": "20"
      },
      "t_contract(IExtendableBond)7862": {
        "encoding": "inplace",
        "label": "contract IExtendableBond",
        "numberOfBytes": "20"
      },
      "t_contract(IMultiRewardsMasterChef)7897": {
        "encoding": "inplace",
        "label": "contract IMultiRewardsMasterChef",
        "numberOfBytes": "20"
      },
      "t_contract(IPancakeMasterChefV2)7921": {
        "encoding": "inplace",
        "label": "contract IPancakeMasterChefV2",
        "numberOfBytes": "20"
      },
      "t_mapping(t_address,t_struct(PancakeUserInfo)16516_storage)": {
        "encoding": "mapping",
        "key": "t_address",
        "label": "mapping(address => struct BondLPPancakeFarmingPool.PancakeUserInfo)",
        "numberOfBytes": "32",
        "value": "t_struct(PancakeUserInfo)16516_storage"
      },
      "t_mapping(t_address,t_struct(UserInfo)3883_storage)": {
        "encoding": "mapping",
        "key": "t_address",
        "label": "mapping(address => struct BondLPFarmingPool.UserInfo)",
        "numberOfBytes": "32",
        "value": "t_struct(UserInfo)3883_storage"
      },
      "t_struct(PancakeUserInfo)16516_storage": {
        "encoding": "inplace",
        "label": "struct BondLPPancakeFarmingPool.PancakeUserInfo",
        "members": [
          {
            "astId": 16509,
            "contract": "contracts/underlyings/pancake/BondLPPancakeFarmingPool.sol:BondLPPancakeFarmingPool",
            "label": "rewardDebt",
            "offset": 0,
            "slot": "0",
            "type": "t_uint256"
          },
          {
            "astId": 16512,
            "contract": "contracts/underlyings/pancake/BondLPPancakeFarmingPool.sol:BondLPPancakeFarmingPool",
            "label": "pendingRewards",
            "offset": 0,
            "slot": "1",
            "type": "t_uint256"
          },
          {
            "astId": 16515,
            "contract": "contracts/underlyings/pancake/BondLPPancakeFarmingPool.sol:BondLPPancakeFarmingPool",
            "label": "claimedRewards",
            "offset": 0,
            "slot": "2",
            "type": "t_uint256"
          }
        ],
        "numberOfBytes": "96"
      },
      "t_struct(UserInfo)3883_storage": {
        "encoding": "inplace",
        "label": "struct BondLPFarmingPool.UserInfo",
        "members": [
          {
            "astId": 3873,
            "contract": "contracts/underlyings/pancake/BondLPPancakeFarmingPool.sol:BondLPPancakeFarmingPool",
            "label": "lpAmount",
            "offset": 0,
            "slot": "0",
            "type": "t_uint256"
          },
          {
            "astId": 3876,
            "contract": "contracts/underlyings/pancake/BondLPPancakeFarmingPool.sol:BondLPPancakeFarmingPool",
            "label": "rewardDebt",
            "offset": 0,
            "slot": "1",
            "type": "t_uint256"
          },
          {
            "astId": 3879,
            "contract": "contracts/underlyings/pancake/BondLPPancakeFarmingPool.sol:BondLPPancakeFarmingPool",
            "label": "pendingRewards",
            "offset": 0,
            "slot": "2",
            "type": "t_uint256"
          },
          {
            "astId": 3882,
            "contract": "contracts/underlyings/pancake/BondLPPancakeFarmingPool.sol:BondLPPancakeFarmingPool",
            "label": "claimedRewards",
            "offset": 0,
            "slot": "3",
            "type": "t_uint256"
          }
        ],
        "numberOfBytes": "128"
      },
      "t_uint256": {
        "encoding": "inplace",
        "label": "uint256",
        "numberOfBytes": "32"
      },
      "t_uint8": {
        "encoding": "inplace",
        "label": "uint8",
        "numberOfBytes": "1"
      }
    }
  }
}