{
  "address": "0x098eE3F2eCf6dD41cF5057875724cc134226A4fD",
  "abi": [
    {
      "inputs": [
        {
          "internalType": "contract ExtendableBondAdmin",
          "name": "entrypoint_",
          "type": "address"
        },
        {
          "internalType": "contract IPancakePair",
          "name": "pairTokenAddress__CAKE_BUSD_",
          "type": "address"
        },
        {
          "internalType": "contract IPancakePair",
          "name": "pairTokenAddress__BUSD_DUET_",
          "type": "address"
        },
        {
          "internalType": "contract CakePool",
          "name": "pancakePool_",
          "type": "address"
        },
        {
          "internalType": "contract MasterChefV2",
          "name": "pancakeMasterChef_",
          "type": "address"
        }
      ],
      "stateMutability": "nonpayable",
      "type": "constructor"
    },
    {
      "inputs": [
        {
          "internalType": "contract ExtendableBondedCake",
          "name": "eb_",
          "type": "address"
        }
      ],
      "name": "addressBook",
      "outputs": [
        {
          "components": [
            {
              "internalType": "address",
              "name": "underlyingToken",
              "type": "address"
            },
            {
              "internalType": "address",
              "name": "bondToken",
              "type": "address"
            },
            {
              "internalType": "address",
              "name": "lpToken",
              "type": "address"
            },
            {
              "internalType": "address",
              "name": "bondFarmingPool",
              "type": "address"
            },
            {
              "internalType": "address",
              "name": "bondLpFarmingPool",
              "type": "address"
            },
            {
              "internalType": "address",
              "name": "multiRewardsMasterChef",
              "type": "address"
            },
            {
              "internalType": "uint256",
              "name": "bondFarmingPoolId",
              "type": "uint256"
            },
            {
              "internalType": "uint256",
              "name": "bondLpFarmingPoolId",
              "type": "uint256"
            },
            {
              "internalType": "address",
              "name": "pancakePool",
              "type": "address"
            }
          ],
          "internalType": "struct ExtendableBondedCakeReader.AddressBook",
          "name": "book",
          "type": "tuple"
        }
      ],
      "stateMutability": "view",
      "type": "function"
    },
    {
      "inputs": [],
      "name": "entrypoint",
      "outputs": [
        {
          "internalType": "contract ExtendableBondAdmin",
          "name": "",
          "type": "address"
        }
      ],
      "stateMutability": "view",
      "type": "function"
    },
    {
      "inputs": [
        {
          "internalType": "string",
          "name": "groupName_",
          "type": "string"
        }
      ],
      "name": "extendableBondGroupInfo",
      "outputs": [
        {
          "components": [
            {
              "internalType": "uint256",
              "name": "allEbStacked",
              "type": "uint256"
            },
            {
              "internalType": "uint256",
              "name": "ebCommonPriceAsUsd",
              "type": "uint256"
            },
            {
              "internalType": "uint256",
              "name": "duetSideAPR",
              "type": "uint256"
            },
            {
              "internalType": "uint256",
              "name": "underlyingSideAPR",
              "type": "uint256"
            }
          ],
          "internalType": "struct ExtendableBondedCakeReader.ExtendableBondGroupInfo",
          "name": "",
          "type": "tuple"
        }
      ],
      "stateMutability": "view",
      "type": "function"
    },
    {
      "inputs": [
        {
          "internalType": "contract ExtendableBond",
          "name": "eb_",
          "type": "address"
        }
      ],
      "name": "extendableBondLpStakePackageUserInfo",
      "outputs": [
        {
          "components": [
            {
              "internalType": "uint256",
              "name": "lpStake_underlyingStaked",
              "type": "uint256"
            },
            {
              "internalType": "uint256",
              "name": "lpStake_bondStaked",
              "type": "uint256"
            },
            {
              "internalType": "uint256",
              "name": "lpStake_lpStaked",
              "type": "uint256"
            },
            {
              "internalType": "uint256",
              "name": "lpStake_ebPendingRewards",
              "type": "uint256"
            },
            {
              "internalType": "uint256",
              "name": "lpStake_lpClaimedRewards",
              "type": "uint256"
            },
            {
              "internalType": "uint256",
              "name": "lpStake_bDuetPendingRewards",
              "type": "uint256"
            },
            {
              "internalType": "uint256",
              "name": "lpStake_bDuetClaimedRewards",
              "type": "uint256"
            }
          ],
          "internalType": "struct ExtendableBondReader.ExtendableBondLpStakePackageUserInfo",
          "name": "",
          "type": "tuple"
        }
      ],
      "stateMutability": "view",
      "type": "function"
    },
    {
      "inputs": [
        {
          "internalType": "contract ExtendableBond",
          "name": "eb_",
          "type": "address"
        }
      ],
      "name": "extendableBondPackagePublicInfo",
      "outputs": [
        {
          "components": [
            {
              "internalType": "string",
              "name": "name",
              "type": "string"
            },
            {
              "internalType": "string",
              "name": "symbol",
              "type": "string"
            },
            {
              "internalType": "uint8",
              "name": "decimals",
              "type": "uint8"
            },
            {
              "internalType": "uint256",
              "name": "underlyingUsdPrice",
              "type": "uint256"
            },
            {
              "internalType": "uint256",
              "name": "bondUnderlyingPrice",
              "type": "uint256"
            },
            {
              "internalType": "bool",
              "name": "convertable",
              "type": "bool"
            },
            {
              "internalType": "uint256",
              "name": "convertableFrom",
              "type": "uint256"
            },
            {
              "internalType": "uint256",
              "name": "convertableEnd",
              "type": "uint256"
            },
            {
              "internalType": "bool",
              "name": "redeemable",
              "type": "bool"
            },
            {
              "internalType": "uint256",
              "name": "redeemableFrom",
              "type": "uint256"
            },
            {
              "internalType": "uint256",
              "name": "redeemableEnd",
              "type": "uint256"
            },
            {
              "internalType": "uint256",
              "name": "maturity",
              "type": "uint256"
            },
            {
              "internalType": "uint256",
              "name": "underlyingAPY",
              "type": "uint256"
            },
            {
              "internalType": "uint256",
              "name": "singleStake_totalStaked",
              "type": "uint256"
            },
            {
              "internalType": "uint256",
              "name": "singleStake_bDuetAPR",
              "type": "uint256"
            },
            {
              "internalType": "uint256",
              "name": "lpStake_totalStaked",
              "type": "uint256"
            },
            {
              "internalType": "uint256",
              "name": "lpStake_bDuetAPR",
              "type": "uint256"
            }
          ],
          "internalType": "struct ExtendableBondReader.ExtendableBondPackagePublicInfo",
          "name": "",
          "type": "tuple"
        }
      ],
      "stateMutability": "view",
      "type": "function"
    },
    {
      "inputs": [
        {
          "internalType": "contract ExtendableBond",
          "name": "eb_",
          "type": "address"
        }
      ],
      "name": "extendableBondSingleStakePackageUserInfo",
      "outputs": [
        {
          "components": [
            {
              "internalType": "int256",
              "name": "singleStake_staked",
              "type": "int256"
            },
            {
              "internalType": "int256",
              "name": "singleStake_ebEarnedToDate",
              "type": "int256"
            },
            {
              "internalType": "uint256",
              "name": "singleStake_bDuetPendingRewards",
              "type": "uint256"
            },
            {
              "internalType": "uint256",
              "name": "singleStake_bDuetClaimedRewards",
              "type": "uint256"
            }
          ],
          "internalType": "struct ExtendableBondReader.ExtendableBondSingleStakePackageUserInfo",
          "name": "",
          "type": "tuple"
        }
      ],
      "stateMutability": "view",
      "type": "function"
    },
    {
      "inputs": [],
      "name": "pairTokenAddress__BUSD_DUET",
      "outputs": [
        {
          "internalType": "contract IPancakePair",
          "name": "",
          "type": "address"
        }
      ],
      "stateMutability": "view",
      "type": "function"
    },
    {
      "inputs": [],
      "name": "pairTokenAddress__CAKE_BUSD",
      "outputs": [
        {
          "internalType": "contract IPancakePair",
          "name": "",
          "type": "address"
        }
      ],
      "stateMutability": "view",
      "type": "function"
    },
    {
      "inputs": [],
      "name": "pancakeMasterChef",
      "outputs": [
        {
          "internalType": "contract MasterChefV2",
          "name": "",
          "type": "address"
        }
      ],
      "stateMutability": "view",
      "type": "function"
    },
    {
      "inputs": [],
      "name": "pancakePool",
      "outputs": [
        {
          "internalType": "contract CakePool",
          "name": "",
          "type": "address"
        }
      ],
      "stateMutability": "view",
      "type": "function"
    }
  ],
  "transactionHash": "0x7767c0ca4e70b1d657693f485db9ea8f62c9e8e5967591f9fe312c72cdb543b2",
  "args": [
    "0x14Bfa96fa589E1d9A1C107D95b9fAe736A026acE",
    "0x804678fa97d91B974ec2af3c843270886528a9E6",
    "0xbDF0aA1D1985Caa357A6aC6661D838DA8691c569",
    "0x45c54210128a065de780C4B0Df3d16664f7f859e",
    "0xa5f8C5Dbd5F286960b9d90548680aE5ebFf07652"
  ],
  "numDeployments": 3,
  "solcInputHash": "3006eeed44f8c195fd4b16e68c115ad3",
  "bytecode": "0x6101206040523480156200001257600080fd5b5060405162002af638038062002af6833981016040819052620000359162000078565b6001600160a01b0394851660805292841660a05290831660c052821660e0521661010052620000f8565b6001600160a01b03811681146200007557600080fd5b50565b600080600080600060a086880312156200009157600080fd5b85516200009e816200005f565b6020870151909550620000b1816200005f565b6040870151909450620000c4816200005f565b6060870151909350620000d7816200005f565b6080870151909250620000ea816200005f565b809150509295509295909350565b60805160a05160c05160e051610100516129ac6200014a600039600061029d015260006102760152600060d10152600081816102c401526117a401526000818161024f015261088701526129ac6000f3fe608060405234801561001057600080fd5b506004361061009e5760003560e01c8063a65d69d411610066578063a65d69d41461024a578063aba19e6014610271578063c8bac06014610298578063ca5ee5ab146102bf578063cdab5bed146102e657600080fd5b806319ca7b74146100a35780631ac7d423146100cc578063602cc58f1461010b57806373283dac146101515780639590cf28146101ba575b600080fd5b6100b66100b13660046122a5565b6102f9565b6040516100c3919061231e565b60405180910390f35b6100f37f000000000000000000000000000000000000000000000000000000000000000081565b6040516001600160a01b0390911681526020016100c3565b61011e610119366004612433565b610855565b6040516100c391908151815260208083015190820152604080830151908201526060918201519181019190915260800190565b61016461015f3660046122a5565b610a4a565b6040516100c39190600060e082019050825182526020830151602083015260408301516040830152606083015160608301526080830151608083015260a083015160a083015260c083015160c083015292915050565b6101cd6101c83660046122a5565b610ccf565b6040516100c3919081516001600160a01b03908116825260208084015182169083015260408084015182169083015260608084015182169083015260808084015182169083015260a08084015182169083015260c0808401519083015260e080840151908301526101009283015116918101919091526101200190565b6100f37f000000000000000000000000000000000000000000000000000000000000000081565b6100f37f000000000000000000000000000000000000000000000000000000000000000081565b6100f37f000000000000000000000000000000000000000000000000000000000000000081565b6100f37f000000000000000000000000000000000000000000000000000000000000000081565b61011e6102f43660046122a5565b6112a7565b6103876040518061022001604052806060815260200160608152602001600060ff1681526020016000815260200160008152602001600015158152602001600081526020016000815260200160001515815260200160008152602001600081526020016000815260200160008152602001600081526020016000815260200160008152602001600081525090565b6000826001600160a01b031663b3cb305b6040518163ffffffff1660e01b815260040160206040518083038186803b1580156103c257600080fd5b505afa1580156103d6573d6000803e3d6000fd5b505050506040513d601f19601f820116820180604052508101906103fa91906124a5565b90506000836001600160a01b0316635cb7758e6040518163ffffffff1660e01b815260040160206040518083038186803b15801561043757600080fd5b505afa15801561044b573d6000803e3d6000fd5b505050506040513d601f19601f8201168201806040525081019061046f91906124a5565b905060008060008060008060008a6001600160a01b0316633dae08cc6040518163ffffffff1660e01b815260040160e06040518083038186803b1580156104b557600080fd5b505afa1580156104c9573d6000803e3d6000fd5b505050506040513d601f19601f820116820180604052508101906104ed91906124d7565b965096509650965096509650965060008b6001600160a01b031663c28f43926040518163ffffffff1660e01b815260040160206040518083038186803b15801561053657600080fd5b505afa15801561054a573d6000803e3d6000fd5b505050506040513d601f19601f8201168201806040525081019061056e91906124a5565b90506000604051806102200160405280836001600160a01b03166306fdde036040518163ffffffff1660e01b815260040160006040518083038186803b1580156105b757600080fd5b505afa1580156105cb573d6000803e3d6000fd5b505050506040513d6000823e601f3d908101601f191682016040526105f391908101906125aa565b8152602001836001600160a01b03166395d89b416040518163ffffffff1660e01b815260040160006040518083038186803b15801561063157600080fd5b505afa158015610645573d6000803e3d6000fd5b505050506040513d6000823e601f3d908101601f1916820160405261066d91908101906125aa565b8152602001836001600160a01b031663313ce5676040518163ffffffff1660e01b815260040160206040518083038186803b1580156106ab57600080fd5b505afa1580156106bf573d6000803e3d6000fd5b505050506040513d601f19601f820116820180604052508101906106e3919061263e565b60ff1681526020016106f48f61162f565b81526020016107028f611880565b81526020018a151581526020018981526020018881526020018715158152602001868152602001858152602001848152602001600081526020018c6001600160a01b031663d759c3cc60006040518263ffffffff1660e01b815260040161076d911515815260200190565b60206040518083038186803b15801561078557600080fd5b505afa158015610799573d6000803e3d6000fd5b505050506040513d601f19601f820116820180604052508101906107bd9190612661565b8152602001600081526020018b6001600160a01b031663532d73976040518163ffffffff1660e01b815260040160206040518083038186803b15801561080257600080fd5b505afa158015610816573d6000803e3d6000fd5b505050506040513d601f19601f8201168201806040525081019061083a9190612661565b815260006020909101529d9c50505050505050505050505050565b6108806040518060800160405280600081526020016000815260200160008152602001600081525090565b60008060007f00000000000000000000000000000000000000000000000000000000000000006001600160a01b031663e0ea7b3187876040518363ffffffff1660e01b81526004016108d392919061267a565b60006040518083038186803b1580156108eb57600080fd5b505afa1580156108ff573d6000803e3d6000fd5b505050506040513d6000823e601f3d908101601f1916820160405261092791908101906126cd565b905060005b81518110156109ff57600082828151811061094957610949612761565b602002602001015190506000819050816001600160a01b0316634a1dfebf6040518163ffffffff1660e01b815260040160206040518083038186803b15801561099157600080fd5b505afa1580156109a5573d6000803e3d6000fd5b505050506040513d601f19601f820116820180604052508101906109c99190612661565b6109d3908761278d565b95506109de8161162f565b6109e8908661278d565b9450505080806109f7906127a5565b91505061092c565b50600080825111610a11576000610a1d565b8151610a1d90846127c0565b60408051608081018252958652602086019190915260009085018190526060850152509195945050505050565b610a8a6040518060e00160405280600081526020016000815260200160008152602001600081526020016000815260200160008152602001600081525090565b3380610ad65760405162461bcd60e51b8152602060048201526016602482015275496e76616c69642073656e646572206164647265737360501b60448201526064015b60405180910390fd5b6000836001600160a01b0316635cb7758e6040518163ffffffff1660e01b815260040160206040518083038186803b158015610b1157600080fd5b505afa158015610b25573d6000803e3d6000fd5b505050506040513d601f19601f82011682018060405250810190610b4991906124a5565b604051635d0eaaaf60e01b81526001600160a01b038481166004830152919250600091829190841690635d0eaaaf9060240160806040518083038186803b158015610b9357600080fd5b505afa158015610ba7573d6000803e3d6000fd5b505050506040513d601f19601f82011682018060405250810190610bcb91906127e2565b935050509150600080610bde8885611a1f565b915091506000610bf789610bf18b611a78565b89611b66565b6040516367be08fd60e11b81526001600160a01b03898116600483015291925060009188169063cf7c11fa9060240160206040518083038186803b158015610c3e57600080fd5b505afa158015610c52573d6000803e3d6000fd5b505050506040513d601f19601f82011682018060405250810190610c769190612661565b90506000610c8d8b610c878d611a78565b8b611d9e565b6040805160e0810182529687526020870195909552938501969096526060840152608083019390935260a082019290925260c081019190915295945050505050565b6040805161012081018252600080825260208201819052918101829052606081018290526080810182905260a0810182905260c0810182905260e081018290526101008101919091526000826001600160a01b031663b3cb305b6040518163ffffffff1660e01b815260040160206040518083038186803b158015610d5357600080fd5b505afa158015610d67573d6000803e3d6000fd5b505050506040513d601f19601f82011682018060405250810190610d8b91906124a5565b90506000836001600160a01b0316635cb7758e6040518163ffffffff1660e01b815260040160206040518083038186803b158015610dc857600080fd5b505afa158015610ddc573d6000803e3d6000fd5b505050506040513d601f19601f82011682018060405250810190610e0091906124a5565b90506000826001600160a01b031663575a86b26040518163ffffffff1660e01b815260040160206040518083038186803b158015610e3d57600080fd5b505afa158015610e51573d6000803e3d6000fd5b505050506040513d601f19601f82011682018060405250810190610e7591906124a5565b9050846001600160a01b0316632495a5996040518163ffffffff1660e01b815260040160206040518083038186803b158015610eb057600080fd5b505afa158015610ec4573d6000803e3d6000fd5b505050506040513d601f19601f82011682018060405250810190610ee891906124a5565b6001600160a01b03908116855260408051636147a1c960e11b815290519187169163c28f439291600480820192602092909190829003018186803b158015610f2f57600080fd5b505afa158015610f43573d6000803e3d6000fd5b505050506040513d601f19601f82011682018060405250810190610f6791906124a5565b84602001906001600160a01b031690816001600160a01b031681525050816001600160a01b0316635fcbd2856040518163ffffffff1660e01b815260040160206040518083038186803b158015610fbd57600080fd5b505afa158015610fd1573d6000803e3d6000fd5b505050506040513d601f19601f82011682018060405250810190610ff591906124a5565b84604001906001600160a01b031690816001600160a01b031681525050846001600160a01b031663b3cb305b6040518163ffffffff1660e01b815260040160206040518083038186803b15801561104b57600080fd5b505afa15801561105f573d6000803e3d6000fd5b505050506040513d601f19601f8201168201806040525081019061108391906124a5565b84606001906001600160a01b031690816001600160a01b031681525050846001600160a01b0316635cb7758e6040518163ffffffff1660e01b815260040160206040518083038186803b1580156110d957600080fd5b505afa1580156110ed573d6000803e3d6000fd5b505050506040513d601f19601f8201168201806040525081019061111191906124a5565b6001600160a01b03908116608086015281811660a08601526040805163c62c610b60e01b815290519185169163c62c610b91600480820192602092909190829003018186803b15801561116357600080fd5b505afa158015611177573d6000803e3d6000fd5b505050506040513d601f19601f8201168201806040525081019061119b9190612661565b8460c0018181525050816001600160a01b031663c62c610b6040518163ffffffff1660e01b815260040160206040518083038186803b1580156111dd57600080fd5b505afa1580156111f1573d6000803e3d6000fd5b505050506040513d601f19601f820116820180604052508101906112159190612661565b8460e0018181525050846001600160a01b031663ed64a9676040518163ffffffff1660e01b815260040160206040518083038186803b15801561125757600080fd5b505afa15801561126b573d6000803e3d6000fd5b505050506040513d601f19601f8201168201806040525081019061128f91906124a5565b6001600160a01b031661010085015250919392505050565b6112d26040518060800160405280600081526020016000815260200160008152602001600081525090565b33806113195760405162461bcd60e51b8152602060048201526016602482015275496e76616c69642073656e646572206164647265737360501b6044820152606401610acd565b6000836001600160a01b031663b3cb305b6040518163ffffffff1660e01b815260040160206040518083038186803b15801561135457600080fd5b505afa158015611368573d6000803e3d6000fd5b505050506040513d601f19601f8201168201806040525081019061138c91906124a5565b604051635d0eaaaf60e01b81526001600160a01b038481166004830152919250600091831690635d0eaaaf90602401604080518083038186803b1580156113d257600080fd5b505afa1580156113e6573d6000803e3d6000fd5b505050506040513d601f19601f8201168201806040525081019061140a9190612818565b509050600061148a86846001600160a01b031663c62c610b6040518163ffffffff1660e01b815260040160206040518083038186803b15801561144c57600080fd5b505afa158015611460573d6000803e3d6000fd5b505050506040513d601f19601f820116820180604052508101906114849190612661565b86611b66565b9050600061150987856001600160a01b031663c62c610b6040518163ffffffff1660e01b815260040160206040518083038186803b1580156114cb57600080fd5b505afa1580156114df573d6000803e3d6000fd5b505050506040513d601f19601f820116820180604052508101906115039190612661565b87611d9e565b604080516080810191829052630ed1ca5960e31b90915260848101859052909150600090806001600160a01b03871663768e52c860a4830160206040518083038186803b15801561155957600080fd5b505afa15801561156d573d6000803e3d6000fd5b505050506040513d601f19601f820116820180604052508101906115919190612661565b815260405163015b078f60e31b81526001600160a01b038981166004830152602090920191881690630ad83c789060240160206040518083038186803b1580156115da57600080fd5b505afa1580156115ee573d6000803e3d6000fd5b505050506040513d601f19601f820116820180604052508101906116129190612661565b815260208101949094526040909301919091525095945050505050565b600080826001600160a01b0316635cb7758e6040518163ffffffff1660e01b815260040160206040518083038186803b15801561166b57600080fd5b505afa15801561167f573d6000803e3d6000fd5b505050506040513d601f19601f820116820180604052508101906116a391906124a5565b90506000816001600160a01b0316635fcbd2856040518163ffffffff1660e01b815260040160206040518083038186803b1580156116e057600080fd5b505afa1580156116f4573d6000803e3d6000fd5b505050506040513d601f19601f8201168201806040525081019061171891906124a5565b90506000816001600160a01b03166318160ddd6040518163ffffffff1660e01b815260040160206040518083038186803b15801561175557600080fd5b505afa158015611769573d6000803e3d6000fd5b505050506040513d601f19601f8201168201806040525081019061178d9190612661565b90508061179f57506000949350505050565b6000807f00000000000000000000000000000000000000000000000000000000000000006001600160a01b0316630902f1ac6040518163ffffffff1660e01b815260040160606040518083038186803b1580156117fb57600080fd5b505afa15801561180f573d6000803e3d6000fd5b505050506040513d601f19601f820116820180604052508101906118339190612853565b506001600160701b031691506001600160701b031691508060001415611860575060009695505050505050565b8261186b82846127c0565b61187591906128a3565b979650505050505050565b600080826001600160a01b0316635cb7758e6040518163ffffffff1660e01b815260040160206040518083038186803b1580156118bc57600080fd5b505afa1580156118d0573d6000803e3d6000fd5b505050506040513d601f19601f820116820180604052508101906118f491906124a5565b90506000816001600160a01b0316635fcbd2856040518163ffffffff1660e01b815260040160206040518083038186803b15801561193157600080fd5b505afa158015611945573d6000803e3d6000fd5b505050506040513d601f19601f8201168201806040525081019061196991906124a5565b9050600080826001600160a01b0316630902f1ac6040518163ffffffff1660e01b815260040160606040518083038186803b1580156119a757600080fd5b505afa1580156119bb573d6000803e3d6000fd5b505050506040513d601f19601f820116820180604052508101906119df9190612853565b506001600160701b031691506001600160701b031691508060001415611a0b5750600095945050505050565b611a1581836127c0565b9695505050505050565b6000806000611a2d85611fb3565b9050600080611a3b87612117565b909250905082611a4b87846128a3565b611a5591906127c0565b945082611a6287836128a3565b611a6c91906127c0565b93505050509250929050565b600080826001600160a01b0316635cb7758e6040518163ffffffff1660e01b815260040160206040518083038186803b158015611ab457600080fd5b505afa158015611ac8573d6000803e3d6000fd5b505050506040513d601f19601f82011682018060405250810190611aec91906124a5565b9050806001600160a01b0316630a90cc0c6040518163ffffffff1660e01b815260040160206040518083038186803b158015611b2757600080fd5b505afa158015611b3b573d6000803e3d6000fd5b505050506040513d601f19601f82011682018060405250810190611b5f9190612661565b9392505050565b600080846001600160a01b031663b3cb305b6040518163ffffffff1660e01b815260040160206040518083038186803b158015611ba257600080fd5b505afa158015611bb6573d6000803e3d6000fd5b505050506040513d601f19601f82011682018060405250810190611bda91906124a5565b90506000816001600160a01b031663575a86b26040518163ffffffff1660e01b815260040160206040518083038186803b158015611c1757600080fd5b505afa158015611c2b573d6000803e3d6000fd5b505050506040513d601f19601f82011682018060405250810190611c4f91906124a5565b6040516334637d4f60e21b8152600481018790526001600160a01b03868116602483015291925060009183169063d18df53c9060440160006040518083038186803b158015611c9d57600080fd5b505afa158015611cb1573d6000803e3d6000fd5b505050506040513d6000823e601f3d908101601f19168201604052611cd991908101906128c2565b905060005b826001600160a01b031663b3c799d66040518163ffffffff1660e01b815260040160206040518083038186803b158015611d1757600080fd5b505afa158015611d2b573d6000803e3d6000fd5b505050506040513d601f19601f82011682018060405250810190611d4f9190612661565b811015611d9357818181518110611d6857611d68612761565b60200260200101516020015185611d7f919061278d565b945080611d8b816127a5565b915050611cde565b505050509392505050565b600080846001600160a01b031663b3cb305b6040518163ffffffff1660e01b815260040160206040518083038186803b158015611dda57600080fd5b505afa158015611dee573d6000803e3d6000fd5b505050506040513d601f19601f82011682018060405250810190611e1291906124a5565b90506000816001600160a01b031663575a86b26040518163ffffffff1660e01b815260040160206040518083038186803b158015611e4f57600080fd5b505afa158015611e63573d6000803e3d6000fd5b505050506040513d601f19601f82011682018060405250810190611e8791906124a5565b905060005b816001600160a01b031663b3c799d66040518163ffffffff1660e01b815260040160206040518083038186803b158015611ec557600080fd5b505afa158015611ed9573d6000803e3d6000fd5b505050506040513d601f19601f82011682018060405250810190611efd9190612661565b811015611fa957604051630781d12560e11b8152600481018790526001600160a01b03868116602483015260448201839052831690630f03a24a9060640160206040518083038186803b158015611f5357600080fd5b505afa158015611f67573d6000803e3d6000fd5b505050506040513d601f19601f82011682018060405250810190611f8b9190612661565b611f95908561278d565b935080611fa1816127a5565b915050611e8c565b5050509392505050565b600080826001600160a01b0316635cb7758e6040518163ffffffff1660e01b815260040160206040518083038186803b158015611fef57600080fd5b505afa158015612003573d6000803e3d6000fd5b505050506040513d601f19601f8201168201806040525081019061202791906124a5565b90506000816001600160a01b0316635fcbd2856040518163ffffffff1660e01b815260040160206040518083038186803b15801561206457600080fd5b505afa158015612078573d6000803e3d6000fd5b505050506040513d601f19601f8201168201806040525081019061209c91906124a5565b9050806001600160a01b03166318160ddd6040518163ffffffff1660e01b815260040160206040518083038186803b1580156120d757600080fd5b505afa1580156120eb573d6000803e3d6000fd5b505050506040513d601f19601f8201168201806040525081019061210f9190612661565b949350505050565b6000806000836001600160a01b0316635cb7758e6040518163ffffffff1660e01b815260040160206040518083038186803b15801561215557600080fd5b505afa158015612169573d6000803e3d6000fd5b505050506040513d601f19601f8201168201806040525081019061218d91906124a5565b90506000816001600160a01b0316635fcbd2856040518163ffffffff1660e01b815260040160206040518083038186803b1580156121ca57600080fd5b505afa1580156121de573d6000803e3d6000fd5b505050506040513d601f19601f8201168201806040525081019061220291906124a5565b9050806001600160a01b0316630902f1ac6040518163ffffffff1660e01b815260040160606040518083038186803b15801561223d57600080fd5b505afa158015612251573d6000803e3d6000fd5b505050506040513d601f19601f820116820180604052508101906122759190612853565b506001600160701b0391821697911695509350505050565b6001600160a01b03811681146122a257600080fd5b50565b6000602082840312156122b757600080fd5b8135611b5f8161228d565b60005b838110156122dd5781810151838201526020016122c5565b838111156122ec576000848401525b50505050565b6000815180845261230a8160208601602086016122c2565b601f01601f19169290920160200192915050565b602081526000825161022080602085015261233d6102408501836122f2565b91506020850151601f1985840301604086015261235a83826122f2565b9250506040850151612371606086018260ff169052565b5060608501516080850152608085015160a085015260a085015161239960c086018215159052565b5060c085015160e085015260e08501516101008181870152808701519150506101206123c88187018315159052565b8601516101408681019190915286015161016080870191909152860151610180808701919091528601516101a0808701919091528601516101c0808701919091528601516101e080870191909152860151610200808701919091529095015193019290925250919050565b6000806020838503121561244657600080fd5b823567ffffffffffffffff8082111561245e57600080fd5b818501915085601f83011261247257600080fd5b81358181111561248157600080fd5b86602082850101111561249357600080fd5b60209290920196919550909350505050565b6000602082840312156124b757600080fd5b8151611b5f8161228d565b805180151581146124d257600080fd5b919050565b600080600080600080600060e0888a0312156124f257600080fd5b6124fb886124c2565b96506020880151955060408801519450612517606089016124c2565b93506080880151925060a0880151915060c0880151905092959891949750929550565b634e487b7160e01b600052604160045260246000fd5b6040805190810167ffffffffffffffff811182821017156125735761257361253a565b60405290565b604051601f8201601f1916810167ffffffffffffffff811182821017156125a2576125a261253a565b604052919050565b6000602082840312156125bc57600080fd5b815167ffffffffffffffff808211156125d457600080fd5b818401915084601f8301126125e857600080fd5b8151818111156125fa576125fa61253a565b61260d601f8201601f1916602001612579565b915080825285602082850101111561262457600080fd5b6126358160208401602086016122c2565b50949350505050565b60006020828403121561265057600080fd5b815160ff81168114611b5f57600080fd5b60006020828403121561267357600080fd5b5051919050565b60208152816020820152818360408301376000818301604090810191909152601f909201601f19160101919050565b600067ffffffffffffffff8211156126c3576126c361253a565b5060051b60200190565b600060208083850312156126e057600080fd5b825167ffffffffffffffff8111156126f757600080fd5b8301601f8101851361270857600080fd5b805161271b612716826126a9565b612579565b81815260059190911b8201830190838101908783111561273a57600080fd5b928401925b828410156118755783516127528161228d565b8252928401929084019061273f565b634e487b7160e01b600052603260045260246000fd5b634e487b7160e01b600052601160045260246000fd5b600082198211156127a0576127a0612777565b500190565b60006000198214156127b9576127b9612777565b5060010190565b6000826127dd57634e487b7160e01b600052601260045260246000fd5b500490565b600080600080608085870312156127f857600080fd5b505082516020840151604085015160609095015191969095509092509050565b6000806040838503121561282b57600080fd5b505080516020909101519092909150565b80516001600160701b03811681146124d257600080fd5b60008060006060848603121561286857600080fd5b6128718461283c565b925061287f6020850161283c565b9150604084015163ffffffff8116811461289857600080fd5b809150509250925092565b60008160001904831182151516156128bd576128bd612777565b500290565b600060208083850312156128d557600080fd5b825167ffffffffffffffff8111156128ec57600080fd5b8301601f810185136128fd57600080fd5b805161290b612716826126a9565b81815260069190911b8201830190838101908783111561292a57600080fd5b928401925b8284101561187557604084890312156129485760008081fd5b612950612550565b845161295b8161228d565b8152848601518682015282526040909301929084019061292f56fea2646970667358221220096ec3f853689e7a441bcbd09afe187ff8393d95297360a5aaba56285193a57d64736f6c63430008090033",
  "devdoc": {
    "kind": "dev",
    "methods": {},
    "version": 1
  },
  "userdoc": {
    "kind": "user",
    "methods": {},
    "version": 1
  },
  "storageLayout": {
    "storage": [],
    "types": null
  }
}