{
  "address": "0xF4A98Ce722A6Da0c9e40caEC2021a271497b72f7",
  "abi": [
    {
      "anonymous": false,
      "inputs": [
        {
          "indexed": true,
          "internalType": "address",
          "name": "user",
          "type": "address"
        },
        {
          "indexed": true,
          "internalType": "address",
          "name": "newAdmin",
          "type": "address"
        }
      ],
      "name": "AdminUpdated",
      "type": "event"
    },
    {
      "anonymous": false,
      "inputs": [
        {
          "indexed": false,
          "internalType": "uint8",
          "name": "version",
          "type": "uint8"
        }
      ],
      "name": "Initialized",
      "type": "event"
    },
    {
      "inputs": [],
      "name": "admin",
      "outputs": [
        {
          "internalType": "address",
          "name": "",
          "type": "address"
        }
      ],
      "stateMutability": "view",
      "type": "function"
    },
    {
      "inputs": [
        {
          "internalType": "string",
          "name": "groupName_",
          "type": "string"
        },
        {
          "internalType": "address",
          "name": "itemAddress_",
          "type": "address"
        }
      ],
      "name": "appendGroupItem",
      "outputs": [],
      "stateMutability": "nonpayable",
      "type": "function"
    },
    {
      "inputs": [
        {
          "internalType": "string",
          "name": "groupName_",
          "type": "string"
        }
      ],
      "name": "createGroup",
      "outputs": [],
      "stateMutability": "nonpayable",
      "type": "function"
    },
    {
      "inputs": [
        {
          "internalType": "string",
          "name": "groupName_",
          "type": "string"
        }
      ],
      "name": "destroyGroup",
      "outputs": [],
      "stateMutability": "nonpayable",
      "type": "function"
    },
    {
      "inputs": [],
      "name": "groupNames",
      "outputs": [
        {
          "internalType": "string[]",
          "name": "",
          "type": "string[]"
        }
      ],
      "stateMutability": "view",
      "type": "function"
    },
    {
      "inputs": [
        {
          "internalType": "string",
          "name": "groupName_",
          "type": "string"
        }
      ],
      "name": "groupedAddresses",
      "outputs": [
        {
          "internalType": "address[]",
          "name": "",
          "type": "address[]"
        }
      ],
      "stateMutability": "view",
      "type": "function"
    },
    {
      "inputs": [
        {
          "internalType": "address",
          "name": "admin_",
          "type": "address"
        }
      ],
      "name": "initialize",
      "outputs": [],
      "stateMutability": "nonpayable",
      "type": "function"
    },
    {
      "inputs": [
        {
          "internalType": "string",
          "name": "groupName_",
          "type": "string"
        },
        {
          "internalType": "address",
          "name": "itemAddress_",
          "type": "address"
        }
      ],
      "name": "removeGroupItem",
      "outputs": [],
      "stateMutability": "nonpayable",
      "type": "function"
    },
    {
      "inputs": [
        {
          "internalType": "address",
          "name": "newAdmin",
          "type": "address"
        }
      ],
      "name": "setAdmin",
      "outputs": [],
      "stateMutability": "nonpayable",
      "type": "function"
    }
  ],
  "transactionHash": "0xf9d2e76677f93cd787560a74fd2272237ace061f4c289b7a4bb76a5297e8e703",
  "args": [],
  "numDeployments": 1,
  "solcInputHash": "8d3b2a2e96a5a79848e631c5a0dc789f",
  "bytecode": "0x608060405234801561001057600080fd5b5061127c806100206000396000f3fe608060405234801561001057600080fd5b50600436106100935760003560e01c8063c4d66de811610066578063c4d66de8146100f1578063dc2ddcae14610104578063e0ea7b3114610117578063ec41f7a114610137578063f851a4401461014a57600080fd5b806331a9370014610098578063704b6c02146100ad57806392f7dac1146100c0578063bb8016dd146100de575b600080fd5b6100ab6100a6366004610e79565b61017b565b005b6100ab6100bb366004610ed2565b610330565b6100c861036c565b6040516100d59190610ef4565b60405180910390f35b6100ab6100ec366004610f8f565b610445565b6100ab6100ff366004610ed2565b610683565b6100ab610112366004610e79565b610750565b61012a610125366004610e79565b6108ca565b6040516100d59190610fe3565b6100ab610145366004610f8f565b610947565b600054610163906201000090046001600160a01b031681565b6040516001600160a01b0390911681526020016100d5565b6000546201000090046001600160a01b031633146101b45760405162461bcd60e51b81526004016101ab90611030565b60405180910390fd5b60001960005b6001548110156102505783836040516020016101d7929190611056565b604051602081830303815290604052805190602001206001828154811061020057610200611066565b9060005260206000200160405160200161021a91906110b7565b60405160208183030381529060405280519060200120141561023e57809150610250565b8061024881611169565b9150506101ba565b5060008112156102725760405162461bcd60e51b81526004016101ab90611184565b600180546102819082906111b4565b8154811061029157610291611066565b90600052602060002001600182815481106102ae576102ae611066565b906000526020600020019080546102c49061107c565b6102cf929190610c6f565b5060018054806102e1576102e16111cb565b6001900381819060005260206000200160006102fd9190610cfa565b905560028383604051610311929190611056565b9081526020016040518091039020600061032b9190610d34565b505050565b6000546201000090046001600160a01b031633146103605760405162461bcd60e51b81526004016101ab90611030565b61036981610b2d565b50565b60606001805480602002602001604051908101604052809291908181526020016000905b8282101561043c5783829060005260206000200180546103af9061107c565b80601f01602080910402602001604051908101604052809291908181526020018280546103db9061107c565b80156104285780601f106103fd57610100808354040283529160200191610428565b820191906000526020600020905b81548152906001019060200180831161040b57829003601f168201915b505050505081526020019060010190610390565b50505050905090565b6000546201000090046001600160a01b031633146104755760405162461bcd60e51b81526004016101ab90611030565b82826000805b600154811015610512578383604051602001610498929190611056565b60405160208183030381529060405280519060200120600182815481106104c1576104c1611066565b906000526020600020016040516020016104db91906110b7565b6040516020818303038152906040528051906020012014156105005760019150610512565b8061050a81611169565b91505061047b565b50806105305760405162461bcd60e51b81526004016101ab90611184565b600060028787604051610544929190611056565b9081526040519081900360200190208054909150610562575061067b565b8054600090610573906001906111b4565b90505b856001600160a01b031682828154811061059257610592611066565b6000918252602090912001546001600160a01b0316146105b157610666565b815482906105c1906001906111b4565b815481106105d1576105d1611066565b9060005260206000200160009054906101000a90046001600160a01b031682828154811061060157610601611066565b9060005260206000200160006101000a8154816001600160a01b0302191690836001600160a01b031602179055508180548061063f5761063f6111cb565b600082815260209020810160001990810180546001600160a01b0319169055019055610678565b80610670816111e1565b915050610576565b50505b505050505050565b600061068f6001610be2565b905080156106a7576000805461ff0019166101001790555b6001600160a01b0382166106fd5760405162461bcd60e51b815260206004820152601e60248201527f43616e74207365742061646d696e20746f207a65726f2061646472657373000060448201526064016101ab565b61070682610b2d565b801561074c576000805461ff0019169055604051600181527f7f26b83ff96e1f2b6a682f133852f6798a09c465da95921460cefb38474024989060200160405180910390a15b5050565b6000546201000090046001600160a01b031633146107805760405162461bcd60e51b81526004016101ab90611030565b60005b6001548110156108505782826040516020016107a0929190611056565b60405160208183030381529060405280519060200120600182815481106107c9576107c9611066565b906000526020600020016040516020016107e391906110b7565b60405160208183030381529060405280519060200120141561083e5760405162461bcd60e51b81526020600482015260146024820152734475706c69636174652067726f7570206e616d6560601b60448201526064016101ab565b8061084881611169565b915050610783565b5060608060028484604051610866929190611056565b90815260200160405180910390209080519060200190610887929190610d52565b506001805480820182556000919091526108c4907fb10e2d527612073b26eecdfd717e6a320cf44b4afac2b0732d9fcbe2b7fa0cf6018484610da7565b50505050565b6060600283836040516108de929190611056565b908152604080519182900360209081018320805480830285018301909352828452919083018282801561093a57602002820191906000526020600020905b81546001600160a01b0316815260019091019060200180831161091c575b5050505050905092915050565b6000546201000090046001600160a01b031633146109775760405162461bcd60e51b81526004016101ab90611030565b82826000805b600154811015610a1457838360405160200161099a929190611056565b60405160208183030381529060405280519060200120600182815481106109c3576109c3611066565b906000526020600020016040516020016109dd91906110b7565b604051602081830303815290604052805190602001201415610a025760019150610a14565b80610a0c81611169565b91505061097d565b5080610a325760405162461bcd60e51b81526004016101ab90611184565b600060028787604051610a46929190611056565b9081526020016040518091039020905060005b8154811015610af357856001600160a01b0316828281548110610a7e57610a7e611066565b6000918252602090912001546001600160a01b03161415610ae15760405162461bcd60e51b815260206004820152601a60248201527f4475706c6963617465206164647265737320696e2067726f757000000000000060448201526064016101ab565b80610aeb81611169565b915050610a59565b508054600181018255600091825260209091200180546001600160a01b0319166001600160a01b0395909516949094179093555050505050565b6001600160a01b038116610b8d5760405162461bcd60e51b815260206004820152602160248201527f43616e206e6f74207365742061646d696e20746f207a65726f206164647265736044820152607360f81b60648201526084016101ab565b6000805462010000600160b01b031916620100006001600160a01b038416908102919091178255604051909133917f101b8081ff3b56bbf45deb824d86a3b0fd38b7e3dd42421105cf8abe9106db0b9190a350565b60008054610100900460ff1615610c29578160ff166001148015610c055750303b155b610c215760405162461bcd60e51b81526004016101ab906111f8565b506000919050565b60005460ff808416911610610c505760405162461bcd60e51b81526004016101ab906111f8565b506000805460ff191660ff92909216919091179055600190565b919050565b828054610c7b9061107c565b90600052602060002090601f016020900481019282610c9d5760008555610cea565b82601f10610cae5780548555610cea565b82800160010185558215610cea57600052602060002091601f016020900482015b82811115610cea578254825591600101919060010190610ccf565b50610cf6929150610e1b565b5090565b508054610d069061107c565b6000825580601f10610d16575050565b601f0160209004906000526020600020908101906103699190610e1b565b50805460008255906000526020600020908101906103699190610e1b565b828054828255906000526020600020908101928215610cea579160200282015b82811115610cea57825182546001600160a01b0319166001600160a01b03909116178255602090920191600190910190610d72565b828054610db39061107c565b90600052602060002090601f016020900481019282610dd55760008555610cea565b82601f10610dee5782800160ff19823516178555610cea565b82800160010185558215610cea579182015b82811115610cea578235825591602001919060010190610e00565b5b80821115610cf65760008155600101610e1c565b60008083601f840112610e4257600080fd5b50813567ffffffffffffffff811115610e5a57600080fd5b602083019150836020828501011115610e7257600080fd5b9250929050565b60008060208385031215610e8c57600080fd5b823567ffffffffffffffff811115610ea357600080fd5b610eaf85828601610e30565b90969095509350505050565b80356001600160a01b0381168114610c6a57600080fd5b600060208284031215610ee457600080fd5b610eed82610ebb565b9392505050565b6000602080830181845280855180835260408601915060408160051b87010192508387016000805b83811015610f8157888603603f1901855282518051808852835b81811015610f51578281018a01518982018b01528901610f36565b81811115610f6157848a838b0101525b50601f01601f191696909601870195509386019391860191600101610f1c565b509398975050505050505050565b600080600060408486031215610fa457600080fd5b833567ffffffffffffffff811115610fbb57600080fd5b610fc786828701610e30565b9094509250610fda905060208501610ebb565b90509250925092565b6020808252825182820181905260009190848201906040850190845b818110156110245783516001600160a01b031683529284019291840191600101610fff565b50909695505050505050565b6020808252600c908201526b15539055551213d49256915160a21b604082015260600190565b8183823760009101908152919050565b634e487b7160e01b600052603260045260246000fd5b600181811c9082168061109057607f821691505b602082108114156110b157634e487b7160e01b600052602260045260246000fd5b50919050565b600080835481600182811c9150808316806110d357607f831692505b60208084108214156110f357634e487b7160e01b86526022600452602486fd5b818015611107576001811461111857611145565b60ff19861689528489019650611145565b60008a81526020902060005b8681101561113d5781548b820152908501908301611124565b505084890196505b509498975050505050505050565b634e487b7160e01b600052601160045260246000fd5b600060001982141561117d5761117d611153565b5060010190565b602080825260169082015275556e7265676973747265642067726f7570206e616d6560501b604082015260600190565b6000828210156111c6576111c6611153565b500390565b634e487b7160e01b600052603160045260246000fd5b6000816111f0576111f0611153565b506000190190565b6020808252602e908201527f496e697469616c697a61626c653a20636f6e747261637420697320616c72656160408201526d191e481a5b9a5d1a585b1a5e995960921b60608201526080019056fea264697066735822122044c10768970721b9f5cd0bc8bd8e2ce94dcae72b3e8fc504ba642fe9713a641064736f6c63430008090033",
  "devdoc": {
    "kind": "dev",
    "methods": {},
    "version": 1
  },
  "userdoc": {
    "kind": "user",
    "methods": {},
    "version": 1
  },
  "storageLayout": {
    "storage": [
      {
        "astId": 6,
        "contract": "contracts/ExtendableBondRegistry.sol:ExtendableBondRegistry",
        "label": "_initialized",
        "offset": 0,
        "slot": "0",
        "type": "t_uint8"
      },
      {
        "astId": 9,
        "contract": "contracts/ExtendableBondRegistry.sol:ExtendableBondRegistry",
        "label": "_initializing",
        "offset": 1,
        "slot": "0",
        "type": "t_bool"
      },
      {
        "astId": 9344,
        "contract": "contracts/ExtendableBondRegistry.sol:ExtendableBondRegistry",
        "label": "admin",
        "offset": 2,
        "slot": "0",
        "type": "t_address"
      },
      {
        "astId": 6663,
        "contract": "contracts/ExtendableBondRegistry.sol:ExtendableBondRegistry",
        "label": "groups",
        "offset": 0,
        "slot": "1",
        "type": "t_array(t_string_storage)dyn_storage"
      },
      {
        "astId": 6668,
        "contract": "contracts/ExtendableBondRegistry.sol:ExtendableBondRegistry",
        "label": "groupedExtendableBonds",
        "offset": 0,
        "slot": "2",
        "type": "t_mapping(t_string_memory_ptr,t_array(t_address)dyn_storage)"
      }
    ],
    "types": {
      "t_address": {
        "encoding": "inplace",
        "label": "address",
        "numberOfBytes": "20"
      },
      "t_array(t_address)dyn_storage": {
        "base": "t_address",
        "encoding": "dynamic_array",
        "label": "address[]",
        "numberOfBytes": "32"
      },
      "t_array(t_string_storage)dyn_storage": {
        "base": "t_string_storage",
        "encoding": "dynamic_array",
        "label": "string[]",
        "numberOfBytes": "32"
      },
      "t_bool": {
        "encoding": "inplace",
        "label": "bool",
        "numberOfBytes": "1"
      },
      "t_mapping(t_string_memory_ptr,t_array(t_address)dyn_storage)": {
        "encoding": "mapping",
        "key": "t_string_memory_ptr",
        "label": "mapping(string => address[])",
        "numberOfBytes": "32",
        "value": "t_array(t_address)dyn_storage"
      },
      "t_string_memory_ptr": {
        "encoding": "bytes",
        "label": "string",
        "numberOfBytes": "32"
      },
      "t_string_storage": {
        "encoding": "bytes",
        "label": "string",
        "numberOfBytes": "32"
      },
      "t_uint8": {
        "encoding": "inplace",
        "label": "uint8",
        "numberOfBytes": "1"
      }
    }
  }
}