{
  "address": "0xE700863568Edd6D37d45C6108fB86320325ABA7A",
  "abi": [
    {
      "anonymous": false,
      "inputs": [
        {
          "indexed": true,
          "internalType": "address",
          "name": "previousAdmin",
          "type": "address"
        },
        {
          "indexed": true,
          "internalType": "address",
          "name": "newAdmin",
          "type": "address"
        }
      ],
      "name": "AdminChanged",
      "type": "event"
    },
    {
      "anonymous": false,
      "inputs": [
        {
          "indexed": true,
          "internalType": "address",
          "name": "user",
          "type": "address"
        },
        {
          "indexed": true,
          "internalType": "uint256",
          "name": "pid",
          "type": "uint256"
        }
      ],
      "name": "ClaimRewards",
      "type": "event"
    },
    {
      "anonymous": false,
      "inputs": [
        {
          "indexed": true,
          "internalType": "address",
          "name": "user",
          "type": "address"
        },
        {
          "indexed": true,
          "internalType": "uint256",
          "name": "pid",
          "type": "uint256"
        },
        {
          "indexed": false,
          "internalType": "uint256",
          "name": "amount",
          "type": "uint256"
        }
      ],
      "name": "Deposit",
      "type": "event"
    },
    {
      "anonymous": false,
      "inputs": [
        {
          "indexed": true,
          "internalType": "address",
          "name": "user",
          "type": "address"
        },
        {
          "indexed": true,
          "internalType": "uint256",
          "name": "pid",
          "type": "uint256"
        },
        {
          "indexed": false,
          "internalType": "uint256",
          "name": "amount",
          "type": "uint256"
        }
      ],
      "name": "EmergencyWithdraw",
      "type": "event"
    },
    {
      "anonymous": false,
      "inputs": [
        {
          "indexed": false,
          "internalType": "uint8",
          "name": "version",
          "type": "uint8"
        }
      ],
      "name": "Initialized",
      "type": "event"
    },
    {
      "anonymous": false,
      "inputs": [
        {
          "indexed": true,
          "internalType": "uint256",
          "name": "pid",
          "type": "uint256"
        },
        {
          "indexed": true,
          "internalType": "address",
          "name": "lpToken",
          "type": "address"
        },
        {
          "indexed": true,
          "internalType": "address",
          "name": "proxyFarmer",
          "type": "address"
        },
        {
          "indexed": false,
          "internalType": "uint256",
          "name": "allocPoint",
          "type": "uint256"
        }
      ],
      "name": "PoolAdded",
      "type": "event"
    },
    {
      "anonymous": false,
      "inputs": [
        {
          "indexed": true,
          "internalType": "uint256",
          "name": "pid",
          "type": "uint256"
        },
        {
          "indexed": false,
          "internalType": "uint256",
          "name": "allocPoint",
          "type": "uint256"
        }
      ],
      "name": "PoolUpdated",
      "type": "event"
    },
    {
      "anonymous": false,
      "inputs": [
        {
          "indexed": true,
          "internalType": "uint256",
          "name": "rewardId",
          "type": "uint256"
        },
        {
          "indexed": true,
          "internalType": "address",
          "name": "rewardToken",
          "type": "address"
        },
        {
          "indexed": false,
          "internalType": "uint256",
          "name": "rewardPerBlock",
          "type": "uint256"
        },
        {
          "indexed": false,
          "internalType": "uint256",
          "name": "startedAtBlock",
          "type": "uint256"
        },
        {
          "indexed": false,
          "internalType": "uint256",
          "name": "endedAtBlock",
          "type": "uint256"
        }
      ],
      "name": "RewardSpecAdded",
      "type": "event"
    },
    {
      "anonymous": false,
      "inputs": [
        {
          "indexed": true,
          "internalType": "uint256",
          "name": "rewardId",
          "type": "uint256"
        },
        {
          "indexed": false,
          "internalType": "uint256",
          "name": "rewardPerBlock",
          "type": "uint256"
        },
        {
          "indexed": false,
          "internalType": "uint256",
          "name": "startedAtBlock",
          "type": "uint256"
        },
        {
          "indexed": false,
          "internalType": "uint256",
          "name": "endedAtBlock",
          "type": "uint256"
        }
      ],
      "name": "RewardSpecUpdated",
      "type": "event"
    },
    {
      "anonymous": false,
      "inputs": [
        {
          "indexed": true,
          "internalType": "address",
          "name": "user",
          "type": "address"
        },
        {
          "indexed": true,
          "internalType": "uint256",
          "name": "pid",
          "type": "uint256"
        },
        {
          "indexed": false,
          "internalType": "uint256",
          "name": "amount",
          "type": "uint256"
        }
      ],
      "name": "Withdraw",
      "type": "event"
    },
    {
      "inputs": [
        {
          "internalType": "uint256",
          "name": "_allocPoint",
          "type": "uint256"
        },
        {
          "internalType": "contract IERC20",
          "name": "_lpToken",
          "type": "address"
        },
        {
          "internalType": "address",
          "name": "_proxyFarmer",
          "type": "address"
        },
        {
          "internalType": "bool",
          "name": "_withUpdate",
          "type": "bool"
        }
      ],
      "name": "add",
      "outputs": [
        {
          "internalType": "uint256",
          "name": "pid",
          "type": "uint256"
        }
      ],
      "stateMutability": "nonpayable",
      "type": "function"
    },
    {
      "inputs": [
        {
          "internalType": "contract IERC20",
          "name": "token",
          "type": "address"
        },
        {
          "internalType": "uint256",
          "name": "rewardPerBlock",
          "type": "uint256"
        },
        {
          "internalType": "uint256",
          "name": "startedAtBlock",
          "type": "uint256"
        },
        {
          "internalType": "uint256",
          "name": "endedAtBlock",
          "type": "uint256"
        }
      ],
      "name": "addRewardSpec",
      "outputs": [
        {
          "internalType": "uint256",
          "name": "rewardId",
          "type": "uint256"
        }
      ],
      "stateMutability": "nonpayable",
      "type": "function"
    },
    {
      "inputs": [],
      "name": "admin",
      "outputs": [
        {
          "internalType": "address",
          "name": "",
          "type": "address"
        }
      ],
      "stateMutability": "view",
      "type": "function"
    },
    {
      "inputs": [
        {
          "internalType": "uint256",
          "name": "_pid",
          "type": "uint256"
        },
        {
          "internalType": "uint256",
          "name": "_amount",
          "type": "uint256"
        }
      ],
      "name": "deposit",
      "outputs": [],
      "stateMutability": "nonpayable",
      "type": "function"
    },
    {
      "inputs": [
        {
          "internalType": "uint256",
          "name": "_pid",
          "type": "uint256"
        },
        {
          "internalType": "uint256",
          "name": "_amount",
          "type": "uint256"
        },
        {
          "internalType": "address",
          "name": "user_",
          "type": "address"
        }
      ],
      "name": "depositForUser",
      "outputs": [],
      "stateMutability": "nonpayable",
      "type": "function"
    },
    {
      "inputs": [
        {
          "internalType": "uint256",
          "name": "_pid",
          "type": "uint256"
        }
      ],
      "name": "emergencyWithdraw",
      "outputs": [],
      "stateMutability": "nonpayable",
      "type": "function"
    },
    {
      "inputs": [
        {
          "internalType": "uint256",
          "name": "_from",
          "type": "uint256"
        },
        {
          "internalType": "uint256",
          "name": "_to",
          "type": "uint256"
        },
        {
          "internalType": "uint256",
          "name": "rewardId",
          "type": "uint256"
        }
      ],
      "name": "getMultiplier",
      "outputs": [
        {
          "internalType": "uint256",
          "name": "",
          "type": "uint256"
        }
      ],
      "stateMutability": "view",
      "type": "function"
    },
    {
      "inputs": [],
      "name": "getRewardSpecsLength",
      "outputs": [
        {
          "internalType": "uint256",
          "name": "",
          "type": "uint256"
        }
      ],
      "stateMutability": "view",
      "type": "function"
    },
    {
      "inputs": [
        {
          "internalType": "uint256",
          "name": "pid_",
          "type": "uint256"
        },
        {
          "internalType": "address",
          "name": "user_",
          "type": "address"
        }
      ],
      "name": "getUserAmount",
      "outputs": [
        {
          "internalType": "uint256",
          "name": "",
          "type": "uint256"
        }
      ],
      "stateMutability": "view",
      "type": "function"
    },
    {
      "inputs": [
        {
          "internalType": "uint256",
          "name": "pid_",
          "type": "uint256"
        },
        {
          "internalType": "address",
          "name": "user_",
          "type": "address"
        },
        {
          "internalType": "uint256",
          "name": "rewardId_",
          "type": "uint256"
        }
      ],
      "name": "getUserClaimedRewards",
      "outputs": [
        {
          "internalType": "uint256",
          "name": "",
          "type": "uint256"
        }
      ],
      "stateMutability": "view",
      "type": "function"
    },
    {
      "inputs": [
        {
          "internalType": "uint256",
          "name": "pid_",
          "type": "uint256"
        },
        {
          "internalType": "address",
          "name": "user_",
          "type": "address"
        },
        {
          "internalType": "uint256",
          "name": "rewardId_",
          "type": "uint256"
        }
      ],
      "name": "getUserRewardDebt",
      "outputs": [
        {
          "internalType": "uint256",
          "name": "",
          "type": "uint256"
        }
      ],
      "stateMutability": "view",
      "type": "function"
    },
    {
      "inputs": [
        {
          "internalType": "address",
          "name": "admin_",
          "type": "address"
        }
      ],
      "name": "initialize",
      "outputs": [],
      "stateMutability": "nonpayable",
      "type": "function"
    },
    {
      "inputs": [],
      "name": "massUpdatePools",
      "outputs": [],
      "stateMutability": "nonpayable",
      "type": "function"
    },
    {
      "inputs": [
        {
          "internalType": "uint256",
          "name": "_pid",
          "type": "uint256"
        }
      ],
      "name": "migrate",
      "outputs": [],
      "stateMutability": "nonpayable",
      "type": "function"
    },
    {
      "inputs": [],
      "name": "migrator",
      "outputs": [
        {
          "internalType": "contract IMigratorChef",
          "name": "",
          "type": "address"
        }
      ],
      "stateMutability": "view",
      "type": "function"
    },
    {
      "inputs": [
        {
          "internalType": "uint256",
          "name": "_pid",
          "type": "uint256"
        },
        {
          "internalType": "address",
          "name": "_user",
          "type": "address"
        }
      ],
      "name": "pendingRewards",
      "outputs": [
        {
          "components": [
            {
              "internalType": "contract IERC20",
              "name": "token",
              "type": "address"
            },
            {
              "internalType": "uint256",
              "name": "amount",
              "type": "uint256"
            }
          ],
          "internalType": "struct MultiRewardsMasterChef.RewardInfo[]",
          "name": "",
          "type": "tuple[]"
        }
      ],
      "stateMutability": "view",
      "type": "function"
    },
    {
      "inputs": [
        {
          "internalType": "uint256",
          "name": "",
          "type": "uint256"
        }
      ],
      "name": "poolInfo",
      "outputs": [
        {
          "internalType": "contract IERC20",
          "name": "lpToken",
          "type": "address"
        },
        {
          "internalType": "uint256",
          "name": "allocPoint",
          "type": "uint256"
        },
        {
          "internalType": "uint256",
          "name": "lastRewardBlock",
          "type": "uint256"
        },
        {
          "internalType": "address",
          "name": "proxyFarmer",
          "type": "address"
        },
        {
          "internalType": "uint256",
          "name": "totalAmount",
          "type": "uint256"
        }
      ],
      "stateMutability": "view",
      "type": "function"
    },
    {
      "inputs": [],
      "name": "poolLength",
      "outputs": [
        {
          "internalType": "uint256",
          "name": "",
          "type": "uint256"
        }
      ],
      "stateMutability": "view",
      "type": "function"
    },
    {
      "inputs": [
        {
          "internalType": "uint256",
          "name": "",
          "type": "uint256"
        },
        {
          "internalType": "uint256",
          "name": "",
          "type": "uint256"
        }
      ],
      "name": "poolsRewardsAccRewardsPerShare",
      "outputs": [
        {
          "internalType": "uint256",
          "name": "",
          "type": "uint256"
        }
      ],
      "stateMutability": "view",
      "type": "function"
    },
    {
      "inputs": [
        {
          "internalType": "uint256",
          "name": "rewardId",
          "type": "uint256"
        },
        {
          "internalType": "uint256",
          "name": "rewardPerBlock",
          "type": "uint256"
        },
        {
          "internalType": "uint256",
          "name": "startedAtBlock",
          "type": "uint256"
        },
        {
          "internalType": "uint256",
          "name": "endedAtBlock",
          "type": "uint256"
        }
      ],
      "name": "previewSetRewardSpec",
      "outputs": [
        {
          "internalType": "uint256",
          "name": "depositAmount",
          "type": "uint256"
        },
        {
          "internalType": "uint256",
          "name": "refundAmount",
          "type": "uint256"
        }
      ],
      "stateMutability": "view",
      "type": "function"
    },
    {
      "inputs": [
        {
          "internalType": "uint256",
          "name": "",
          "type": "uint256"
        }
      ],
      "name": "rewardSpecs",
      "outputs": [
        {
          "internalType": "contract IERC20",
          "name": "token",
          "type": "address"
        },
        {
          "internalType": "uint256",
          "name": "rewardPerBlock",
          "type": "uint256"
        },
        {
          "internalType": "uint256",
          "name": "startedAtBlock",
          "type": "uint256"
        },
        {
          "internalType": "uint256",
          "name": "endedAtBlock",
          "type": "uint256"
        },
        {
          "internalType": "uint256",
          "name": "claimedAmount",
          "type": "uint256"
        }
      ],
      "stateMutability": "view",
      "type": "function"
    },
    {
      "inputs": [
        {
          "internalType": "uint256",
          "name": "_pid",
          "type": "uint256"
        },
        {
          "internalType": "uint256",
          "name": "_allocPoint",
          "type": "uint256"
        },
        {
          "internalType": "bool",
          "name": "_withUpdate",
          "type": "bool"
        }
      ],
      "name": "set",
      "outputs": [],
      "stateMutability": "nonpayable",
      "type": "function"
    },
    {
      "inputs": [
        {
          "internalType": "address",
          "name": "admin_",
          "type": "address"
        }
      ],
      "name": "setAdmin",
      "outputs": [],
      "stateMutability": "nonpayable",
      "type": "function"
    },
    {
      "inputs": [
        {
          "internalType": "contract IMigratorChef",
          "name": "_migrator",
          "type": "address"
        }
      ],
      "name": "setMigrator",
      "outputs": [],
      "stateMutability": "nonpayable",
      "type": "function"
    },
    {
      "inputs": [
        {
          "internalType": "uint256",
          "name": "rewardId",
          "type": "uint256"
        },
        {
          "internalType": "uint256",
          "name": "rewardPerBlock",
          "type": "uint256"
        },
        {
          "internalType": "uint256",
          "name": "startedAtBlock",
          "type": "uint256"
        },
        {
          "internalType": "uint256",
          "name": "endedAtBlock",
          "type": "uint256"
        }
      ],
      "name": "setRewardSpec",
      "outputs": [],
      "stateMutability": "nonpayable",
      "type": "function"
    },
    {
      "inputs": [],
      "name": "totalAllocPoint",
      "outputs": [
        {
          "internalType": "uint256",
          "name": "",
          "type": "uint256"
        }
      ],
      "stateMutability": "view",
      "type": "function"
    },
    {
      "inputs": [
        {
          "internalType": "uint256",
          "name": "_pid",
          "type": "uint256"
        }
      ],
      "name": "updatePool",
      "outputs": [],
      "stateMutability": "nonpayable",
      "type": "function"
    },
    {
      "inputs": [
        {
          "internalType": "uint256",
          "name": "",
          "type": "uint256"
        },
        {
          "internalType": "address",
          "name": "",
          "type": "address"
        }
      ],
      "name": "userInfo",
      "outputs": [
        {
          "internalType": "uint256",
          "name": "amount",
          "type": "uint256"
        }
      ],
      "stateMutability": "view",
      "type": "function"
    },
    {
      "inputs": [
        {
          "internalType": "uint256",
          "name": "_pid",
          "type": "uint256"
        },
        {
          "internalType": "uint256",
          "name": "_amount",
          "type": "uint256"
        }
      ],
      "name": "withdraw",
      "outputs": [],
      "stateMutability": "nonpayable",
      "type": "function"
    },
    {
      "inputs": [
        {
          "internalType": "uint256",
          "name": "_pid",
          "type": "uint256"
        },
        {
          "internalType": "uint256",
          "name": "_amount",
          "type": "uint256"
        },
        {
          "internalType": "address",
          "name": "user_",
          "type": "address"
        }
      ],
      "name": "withdrawForUser",
      "outputs": [],
      "stateMutability": "nonpayable",
      "type": "function"
    }
  ],
  "transactionHash": "0xf6904b6f3ed7719c72bcbe9d01c00c1f7189b0be640195be0fc201fb78d82587",
  "args": [],
  "numDeployments": 6,
  "solcInputHash": "4e5cbcf5bb28924d824bdaa61d05d7c6",
  "bytecode": "0x6080604052600060075534801561001557600080fd5b506001600055612a728061002a6000396000f3fe608060405234801561001057600080fd5b50600436106101da5760003560e01c8063704b6c0211610104578063c4d66de8116100a2578063e15a003a11610071578063e15a003a146104d9578063e2bbb158146104ec578063f4014261146104ff578063f851a4401461051257600080fd5b8063c4d66de81461044e578063c71b4b4314610461578063d18df53c14610474578063e11f2f7d1461049457600080fd5b806393f1a40b116100de57806393f1a40b146103c55780639d98425d146103f0578063a3f30d2714610433578063b3c799d61461044657600080fd5b8063704b6c02146103745780637bafb029146103875780637cd07e471461039a57600080fd5b8063441a3e701161017c5780635312ea8e1161014b5780635312ea8e1461031b578063630b5ba11461032e57806364482f79146103365780636d053f821461034957600080fd5b8063441a3e70146102ba578063454b0608146102cd5780634eac43ea146102e057806351eb05a61461030857600080fd5b806317caf6f1116101b857806317caf6f11461025357806323cf31181461025c5780633437586b1461027157806338cc39af146102a757600080fd5b8063081e3eda146101df5780630f03a24a146101f65780631526fe2714610209575b600080fd5b6004545b6040519081526020015b60405180910390f35b6101e361020436600461252d565b61052b565b61021c610217366004612565565b610561565b604080516001600160a01b03968716815260208101959095528401929092529092166060820152608081019190915260a0016101ed565b6101e360075481565b61026f61026a36600461257e565b6105ae565b005b6101e361027f36600461259b565b60009182526006602090815260408084206001600160a01b0393909316845291905290205490565b61026f6102b53660046125cb565b610609565b61026f6102c83660046125fd565b61078c565b61026f6102db366004612565565b61079b565b6102f36102ee3660046125cb565b610a32565b604080519283526020830191909152016101ed565b61026f610316366004612565565b610ca1565b61026f610329366004612565565b610dd7565b61026f610f36565b61026f61034436600461262d565b610f5d565b6101e36103573660046125fd565b600560209081526000928352604080842090915290825290205481565b61026f61038236600461257e565b611057565b6101e3610395366004612666565b611139565b6003546103ad906001600160a01b031681565b6040516001600160a01b0390911681526020016101ed565b6101e36103d336600461259b565b600660209081526000928352604080842090915290825290205481565b6101e36103fe36600461252d565b60008381526006602090815260408083206001600160a01b038616845282528083208484526002019091529020549392505050565b61026f610441366004612692565b6111c2565b6002546101e3565b61026f61045c36600461257e565b6111d2565b6101e361046f3660046126c0565b611260565b61048761048236600461259b565b6114c4565b6040516101ed9190612713565b6104a76104a2366004612565565b611716565b604080516001600160a01b0390961686526020860194909452928401919091526060830152608082015260a0016101ed565b61026f6104e7366004612692565b611761565b61026f6104fa3660046125fd565b61176c565b6101e361050d36600461276b565b611777565b6001546103ad906201000090046001600160a01b031681565b60008381526006602090815260408083206001600160a01b038616845282528083208484526001019091529020545b9392505050565b6004818154811061057157600080fd5b6000918252602090912060059091020180546001820154600283015460038401546004909401546001600160a01b03938416955091939092169085565b6001546201000090046001600160a01b031633146105e75760405162461bcd60e51b81526004016105de906127a6565b60405180910390fd5b600380546001600160a01b0319166001600160a01b0392909216919091179055565b6001546201000090046001600160a01b031633146106395760405162461bcd60e51b81526004016105de906127a6565b60008061064886868686610a32565b915091508160001480610659575080155b6106bd5760405162461bcd60e51b815260206004820152602f60248201527f4f6e65206f66206465706f736974416d6f756e7420616e6420726566756e644160448201526e06d6f756e74206d757374206265203608c1b60648201526084016105de565b6106c5610f36565b6000600287815481106106da576106da6127ca565b90600052602060002090600502019050600083111561070f57805461070a906001600160a01b03163330866119db565b61072b565b811561072b57805461072b906001600160a01b03163384611a4c565b600281018590556003810184905560018101869055604080518781526020810187905290810185905287907f530b7180ca2663982be0715862d074b6f7076d01f48fd143a4c82e0b7beebaf89060600160405180910390a250505050505050565b610797828233611a7c565b5050565b6001546201000090046001600160a01b031633146107cb5760405162461bcd60e51b81526004016105de906127a6565b6003546001600160a01b031661081a5760405162461bcd60e51b815260206004820152601460248201527336b4b3b930ba329d1037379036b4b3b930ba37b960611b60448201526064016105de565b60006004828154811061082f5761082f6127ca565b6000918252602082206005919091020180546040516370a0823160e01b81523060048201529193506001600160a01b0316919082906370a082319060240160206040518083038186803b15801561088557600080fd5b505afa158015610899573d6000803e3d6000fd5b505050506040513d601f19601f820116820180604052508101906108bd91906127e0565b6003549091506108da906001600160a01b03848116911683611df2565b60035460405163ce5494bb60e01b81526001600160a01b038481166004830152600092169063ce5494bb90602401602060405180830381600087803b15801561092257600080fd5b505af1158015610936573d6000803e3d6000fd5b505050506040513d601f19601f8201168201806040525081019061095a91906127f9565b6040516370a0823160e01b81523060048201529091506001600160a01b038216906370a082319060240160206040518083038186803b15801561099c57600080fd5b505afa1580156109b0573d6000803e3d6000fd5b505050506040513d601f19601f820116820180604052508101906109d491906127e0565b8214610a115760405162461bcd60e51b815260206004820152600c60248201526b1b5a59dc985d194e8818985960a21b60448201526064016105de565b83546001600160a01b0319166001600160a01b039190911617909255505050565b600080600060028781548110610a4a57610a4a6127ca565b90600052602060002090600502019050438411610ac45760405162461bcd60e51b815260206004820152603260248201527f63616e206e6f74206d6f6469667920656e6465644174426c6f636b20746f2061604482015271103830b9ba10313637b1b590373ab6b132b960711b60648201526084016105de565b848411610ae35760405162461bcd60e51b81526004016105de90612816565b4381600301541015610b7657438511610b555760405162461bcd60e51b815260206004820152602e60248201527f63616e206e6f74206d6f6469667920737461727465644174426c6f636b20746f60448201526d0818481c185cdd081c195c9a5bd960921b60648201526084016105de565b85610b60868661287e565b610b6a9190612895565b60009250925050610c98565b6000804383600201541115610c2b57438711610bea5760405162461bcd60e51b815260206004820152602d60248201527f63616e206e6f74206d6f6469667920737461727465644174426c6f636b20746f60448201526c2061207061737420626c6f636b60981b60648201526084016105de565b826001015483600201548460030154610c03919061287e565b610c0d9190612895565b915087610c1a888861287e565b610c249190612895565b9050610c64565b8260010154438460030154610c40919061287e565b610c4a9190612895565b915087610c57438861287e565b610c619190612895565b90505b81811115610c8457610c76828261287e565b600094509450505050610c98565b6000610c90828461287e565b945094505050505b94509492505050565b600060048281548110610cb657610cb66127ca565b9060005260206000209060050201905080600201544311610cd5575050565b600481015480610cea57504360029091015550565b60005b600254811015610dcb57600060028281548110610d0c57610d0c6127ca565b906000526020600020906005020190506000610d2d85600201544385611139565b90506000610d62600754610d5c8860010154610d56876001015487611f1690919063ffffffff16565b90611f16565b90611f22565b9050610d9a610d7a86610d5c8464e8d4a51000611f16565b600089815260056020908152604080832089845290915290205490611f2e565b600088815260056020908152604080832088845290915290205550829150610dc39050816128b4565b915050610ced565b50504360029091015550565b60026000541415610dfa5760405162461bcd60e51b81526004016105de906128cf565b600260009081556004805483908110610e1557610e156127ca565b60009182526020808320858452600682526040808520338652909252922060036005909202909201908101549092506001600160a01b0316610e8f5760405162461bcd60e51b81526020600482015260136024820152726e6f7468696e6720746f20776974686472617760681b60448201526064016105de565b80546004830154610e9f91611f3a565b600483015580548254610ebf916001600160a01b03909116903390611a4c565b60008082555b600254811015610ef257600081815260028301602052604081205580610eea816128b4565b915050610ec5565b508054604051908152839033907fbb757047c2b5f3974fe26b7c10f732e7bce710b0952a71082702781e62ae05959060200160405180910390a35050600160005550565b60045460005b8181101561079757610f4d81610ca1565b610f56816128b4565b9050610f3c565b6001546201000090046001600160a01b03163314610f8d5760405162461bcd60e51b81526004016105de906127a6565b8015610f9b57610f9b610f36565b600060048481548110610fb057610fb06127ca565b90600052602060002090600502016001015490508260048581548110610fd857610fd86127ca565b906000526020600020906005020160010181905550828114611017576110138361100d83600754611f3a90919063ffffffff16565b90611f2e565b6007555b837f7fa9647ec1cc14e3822b46d05a2b9d4e019bde8875c0088c46b6503d71bf17228460405161104991815260200190565b60405180910390a250505050565b6001546201000090046001600160a01b031633146110875760405162461bcd60e51b81526004016105de906127a6565b6001600160a01b0381166110dd5760405162461bcd60e51b815260206004820152601760248201527f63616e206e6f74206265207a65726f206164647265737300000000000000000060448201526064016105de565b600180546001600160a01b038381166201000081810262010000600160b01b031985161790945560405193909204169182907f7e644d79422f17c01e4894b5f4f588d331ebfa28653d42ae832dc59e38c9798f90600090a35050565b6000806002838154811061114f5761114f6127ca565b90600052602060002090600502019050806002015484101561117557600091505061055a565b806002015485101561118957806002015494505b806003015484111561119d57806003015493505b838511156111af57600091505061055a565b6111b98486611f3a565b95945050505050565b6111cd838383611f46565b505050565b60006111de600161223a565b905080156111f6576001805461ff0019166101001790555b6001805462010000600160b01b031916620100006001600160a01b038516021790558015610797576001805461ff00191681556040519081527f7f26b83ff96e1f2b6a682f133852f6798a09c465da95921460cefb38474024989060200160405180910390a15050565b6001546000906201000090046001600160a01b031633146112935760405162461bcd60e51b81526004016105de906127a6565b81156112a1576112a1610f36565b6001600160a01b03831615611320576001600160a01b038416156113205760405162461bcd60e51b815260206004820152603060248201527f4c50546f6b656e2073686f756c6420626520616464726573732030207768656e60448201526f10383937bc34b2b2103330b936b2b91760811b60648201526084016105de565b600754439061132f9087611f2e565b6007556040805160a0810182526001600160a01b0387811682526020820189815292820184815287821660608401908152600060808501818152600480546001808201835582855297517f8a35acfbc15ff81a39ae7d344fd709f28e8600b4aa8c65c6b64bfe7fe36bd19b600590920291820180546001600160a01b0319908116928a1692909217905598517f8a35acfbc15ff81a39ae7d344fd709f28e8600b4aa8c65c6b64bfe7fe36bd19c82015594517f8a35acfbc15ff81a39ae7d344fd709f28e8600b4aa8c65c6b64bfe7fe36bd19d86015592517f8a35acfbc15ff81a39ae7d344fd709f28e8600b4aa8c65c6b64bfe7fe36bd19e8501805490981695169490941790955591517f8a35acfbc15ff81a39ae7d344fd709f28e8600b4aa8c65c6b64bfe7fe36bd19f909101555461146a919061287e565b9050846001600160a01b0316866001600160a01b0316827f32a60bdf9445a75fb5c95e4fb9c0131216cc2970d2dc89dd6a1babe40459c53c8a6040516114b291815260200190565b60405180910390a49695505050505050565b60025460609060009067ffffffffffffffff8111156114e5576114e5612906565b60405190808252806020026020018201604052801561152a57816020015b60408051808201909152600080825260208201528152602001906001900390816115035790505b509050600060048581548110611542576115426127ca565b600091825260208083208884526006825260408085206001600160a01b038a1686529092529083206005909202019250905b60025481101561170b57600060028281548110611593576115936127ca565b9060005260206000209060050201905080600201544310156115f2576040805180820190915281546001600160a01b031681526000602082015285518690849081106115e1576115e16127ca565b6020026020010181905250506116f9565b6000888152600560209081526040808320858452909152902054600485015460028601544311801561162357508015155b1561168657600061163987600201544387611139565b90506000611662600754610d5c8a60010154610d56896001015487611f1690919063ffffffff16565b905061168161167a84610d5c8464e8d4a51000611f16565b8590611f2e565b935050505b60408051808201825284546001600160a01b03168152600086815260028801602090815292902054875491928301916116d591906116cf9064e8d4a5100090610d5c9089611f16565b90611f3a565b8152508785815181106116ea576116ea6127ca565b60200260200101819052505050505b80611703816128b4565b915050611574565b509195945050505050565b6002818154811061172657600080fd5b6000918252602090912060059091020180546001820154600283015460038401546004909401546001600160a01b0390931694509092909185565b6111cd838383611a7c565b610797828233611f46565b6001546000906201000090046001600160a01b031633146117aa5760405162461bcd60e51b81526004016105de906127a6565b8282116117c95760405162461bcd60e51b81526004016105de90612816565b6000841161182c5760405162461bcd60e51b815260206004820152602a60248201527f726577617264506572426c6f636b2073686f756c642062652067726561746572604482015269207468616e207a65726f60b01b60648201526084016105de565b61185833308661183c878761287e565b6118469190612895565b6001600160a01b0389169291906119db565b6040805160a0810182526001600160a01b0387811682526020820187815292820186815260608301868152600060808501818152600280546001808201835582855297517f405787fa12a823e0f2b7631cc41b3ba8828b3321ca811111fa75cd3aa3bb5ace600590920291820180546001600160a01b031916919098161790965596517f405787fa12a823e0f2b7631cc41b3ba8828b3321ca811111fa75cd3aa3bb5acf86015592517f405787fa12a823e0f2b7631cc41b3ba8828b3321ca811111fa75cd3aa3bb5ad085015590517f405787fa12a823e0f2b7631cc41b3ba8828b3321ca811111fa75cd3aa3bb5ad184015590517f405787fa12a823e0f2b7631cc41b3ba8828b3321ca811111fa75cd3aa3bb5ad2909201919091559154611981919061287e565b60408051878152602081018790529081018590529091506001600160a01b0387169082907f5559fa33cc724bbfe0d3288dac40529fcc3ee1de0328f4739e13ec4b57eb03d19060600160405180910390a395945050505050565b6040516001600160a01b0380851660248301528316604482015260648101829052611a469085906323b872dd60e01b906084015b60408051601f198184030181529190526020810180516001600160e01b03166001600160e01b0319909316929092179091526122c2565b50505050565b6040516001600160a01b0383166024820152604481018290526111cd90849063a9059cbb60e01b90606401611a0f565b60026000541415611a9f5760405162461bcd60e51b81526004016105de906128cf565b600260009081556004805485908110611aba57611aba6127ca565b600091825260208083208784526006825260408085206001600160a01b03881686529092529220805460059092029092019250841115611b3c5760405162461bcd60e51b815260206004820152601e60248201527f77697468647261773a20496e73756666696369656e742062616c616e6365000060448201526064016105de565b60038201546001600160a01b031615611ba45760038201546001600160a01b03163314611b9f5760405162461bcd60e51b815260206004820152601160248201527027b7363c90383937bc3c903330b936b2b960791b60448201526064016105de565b611bfc565b336001600160a01b03841614611bfc5760405162461bcd60e51b815260206004820152601b60248201527f43616e206e6f7420776974686472617720666f72206f7468657273000000000060448201526064016105de565b611c0585610ca1565b60005b600254811015611d5d57600060028281548110611c2757611c276127ca565b600091825260208083208a8452600580835260408086208887529093529190932054865492909102909201925015611d0c5760008381526002850160205260408120548554611c8691906116cf9064e8d4a5100090610d5c9087611f16565b90508015611ce25780836004016000828254611ca2919061291c565b9091555050600084815260018601602052604081208054839290611cc790849061291c565b90915550508254611ce2906001600160a01b03168883611a4c565b8454611cf99064e8d4a5100090610d5c9085611f16565b6000858152600287016020526040902055505b8615611d4857611d3664e8d4a51000610d5c83610d568b8960000154611f3a90919063ffffffff16565b60008481526002860160205260409020555b50508080611d55906128b4565b915050611c08565b508315611dae578054611d709085611f3a565b81556004820154611d819085611f3a565b600483015560038201546001600160a01b0316611dae578154611dae906001600160a01b03168486611a4c565b604051848152859033907ff279e6a1f5e320cca91135676d9cb6e44ca8a08c0b88342bcdb1144f6511b568906020015b60405180910390a350506001600055505050565b801580611e7b5750604051636eb1769f60e11b81523060048201526001600160a01b03838116602483015284169063dd62ed3e9060440160206040518083038186803b158015611e4157600080fd5b505afa158015611e55573d6000803e3d6000fd5b505050506040513d601f19601f82011682018060405250810190611e7991906127e0565b155b611ee65760405162461bcd60e51b815260206004820152603660248201527f5361666545524332303a20617070726f76652066726f6d206e6f6e2d7a65726f60448201527520746f206e6f6e2d7a65726f20616c6c6f77616e636560501b60648201526084016105de565b6040516001600160a01b0383166024820152604481018290526111cd90849063095ea7b360e01b90606401611a0f565b600061055a8284612895565b600061055a8284612934565b600061055a828461291c565b600061055a828461287e565b60026000541415611f695760405162461bcd60e51b81526004016105de906128cf565b600260009081556004805485908110611f8457611f846127ca565b6000918252602090912060059091020160038101549091506001600160a01b031615611fff5760038101546001600160a01b03163314611ffa5760405162461bcd60e51b815260206004820152601160248201527027b7363c90383937bc3c903330b936b2b960791b60448201526064016105de565b612057565b336001600160a01b038316146120575760405162461bcd60e51b815260206004820152601a60248201527f43616e206e6f74206465706f73697420666f72206f746865727300000000000060448201526064016105de565b60008481526006602090815260408083206001600160a01b0386168452909152902061208285610ca1565b60005b6002548110156121ab576000600282815481106120a4576120a46127ca565b600091825260208083208a8452600580835260408086208887529093529190932054865492909102909201925015612161576000838152600285016020526040812054855461210391906116cf9064e8d4a5100090610d5c9087611f16565b9050801561215f578083600401600082825461211f919061291c565b909155505060008481526001860160205260408120805483929061214490849061291c565b9091555050825461215f906001600160a01b03168883611a4c565b505b61218564e8d4a51000610d5c83610d568b8960000154611f2e90919063ffffffff16565b6000848152600286016020526040902055508190506121a3816128b4565b915050612085565b5083156121fe5760038201546001600160a01b03166121db5781546121db906001600160a01b03168430876119db565b60048201546121ea9085611f2e565b600483015580546121fb9085611f2e565b81555b84836001600160a01b03167f90890809c654f11d6e72a28fa60149770a0d11ec6c92319d6ceb2bb0a4ea1a1586604051611dde91815260200190565b600154600090610100900460ff1615612283578160ff16600114801561225f5750303b155b61227b5760405162461bcd60e51b81526004016105de90612956565b506000919050565b60015460ff8084169116106122aa5760405162461bcd60e51b81526004016105de90612956565b506001805460ff191660ff9290921691909117815590565b6000612317826040518060400160405280602081526020017f5361666545524332303a206c6f772d6c6576656c2063616c6c206661696c6564815250856001600160a01b03166123949092919063ffffffff16565b8051909150156111cd578080602001905181019061233591906129a4565b6111cd5760405162461bcd60e51b815260206004820152602a60248201527f5361666545524332303a204552433230206f7065726174696f6e20646964206e6044820152691bdd081cdd58d8d9595960b21b60648201526084016105de565b60606123a384846000856123ab565b949350505050565b60608247101561240c5760405162461bcd60e51b815260206004820152602660248201527f416464726573733a20696e73756666696369656e742062616c616e636520666f6044820152651c8818d85b1b60d21b60648201526084016105de565b6001600160a01b0385163b6124635760405162461bcd60e51b815260206004820152601d60248201527f416464726573733a2063616c6c20746f206e6f6e2d636f6e747261637400000060448201526064016105de565b600080866001600160a01b0316858760405161247f91906129ed565b60006040518083038185875af1925050503d80600081146124bc576040519150601f19603f3d011682016040523d82523d6000602084013e6124c1565b606091505b50915091506124d18282866124dc565b979650505050505050565b606083156124eb57508161055a565b8251156124fb5782518084602001fd5b8160405162461bcd60e51b81526004016105de9190612a09565b6001600160a01b038116811461252a57600080fd5b50565b60008060006060848603121561254257600080fd5b83359250602084013561255481612515565b929592945050506040919091013590565b60006020828403121561257757600080fd5b5035919050565b60006020828403121561259057600080fd5b813561055a81612515565b600080604083850312156125ae57600080fd5b8235915060208301356125c081612515565b809150509250929050565b600080600080608085870312156125e157600080fd5b5050823594602084013594506040840135936060013592509050565b6000806040838503121561261057600080fd5b50508035926020909101359150565b801515811461252a57600080fd5b60008060006060848603121561264257600080fd5b8335925060208401359150604084013561265b8161261f565b809150509250925092565b60008060006060848603121561267b57600080fd5b505081359360208301359350604090920135919050565b6000806000606084860312156126a757600080fd5b8335925060208401359150604084013561265b81612515565b600080600080608085870312156126d657600080fd5b8435935060208501356126e881612515565b925060408501356126f881612515565b915060608501356127088161261f565b939692955090935050565b602080825282518282018190526000919060409081850190868401855b8281101561275e57815180516001600160a01b03168552860151868501529284019290850190600101612730565b5091979650505050505050565b6000806000806080858703121561278157600080fd5b843561278c81612515565b966020860135965060408601359560600135945092505050565b6020808252600a908201526927b7363c9030b236b4b760b11b604082015260600190565b634e487b7160e01b600052603260045260246000fd5b6000602082840312156127f257600080fd5b5051919050565b60006020828403121561280b57600080fd5b815161055a81612515565b60208082526032908201527f656e6465644174426c6f636b2073686f756c642062652067726561746572207460408201527168616e20737461727465644174426c6f636b60701b606082015260800190565b634e487b7160e01b600052601160045260246000fd5b60008282101561289057612890612868565b500390565b60008160001904831182151516156128af576128af612868565b500290565b60006000198214156128c8576128c8612868565b5060010190565b6020808252601f908201527f5265656e7472616e637947756172643a207265656e7472616e742063616c6c00604082015260600190565b634e487b7160e01b600052604160045260246000fd5b6000821982111561292f5761292f612868565b500190565b60008261295157634e487b7160e01b600052601260045260246000fd5b500490565b6020808252602e908201527f496e697469616c697a61626c653a20636f6e747261637420697320616c72656160408201526d191e481a5b9a5d1a585b1a5e995960921b606082015260800190565b6000602082840312156129b657600080fd5b815161055a8161261f565b60005b838110156129dc5781810151838201526020016129c4565b83811115611a465750506000910152565b600082516129ff8184602087016129c1565b9190910192915050565b6020815260008251806020840152612a288160408501602087016129c1565b601f01601f1916919091016040019291505056fea264697066735822122093ff39b2c92331eaaaf6559ad437d55a370ff92344ad41f89e773e8900f2941464736f6c63430008090033",
  "devdoc": {
    "kind": "dev",
    "methods": {},
    "version": 1
  },
  "userdoc": {
    "kind": "user",
    "methods": {},
    "version": 1
  },
  "storageLayout": {
    "storage": [
      {
        "astId": 1102,
        "contract": "contracts/MultiRewardsMasterChef.sol:MultiRewardsMasterChef",
        "label": "_status",
        "offset": 0,
        "slot": "0",
        "type": "t_uint256"
      },
      {
        "astId": 6,
        "contract": "contracts/MultiRewardsMasterChef.sol:MultiRewardsMasterChef",
        "label": "_initialized",
        "offset": 0,
        "slot": "1",
        "type": "t_uint8"
      },
      {
        "astId": 9,
        "contract": "contracts/MultiRewardsMasterChef.sol:MultiRewardsMasterChef",
        "label": "_initializing",
        "offset": 1,
        "slot": "1",
        "type": "t_bool"
      },
      {
        "astId": 6897,
        "contract": "contracts/MultiRewardsMasterChef.sol:MultiRewardsMasterChef",
        "label": "admin",
        "offset": 2,
        "slot": "1",
        "type": "t_address"
      },
      {
        "astId": 6946,
        "contract": "contracts/MultiRewardsMasterChef.sol:MultiRewardsMasterChef",
        "label": "rewardSpecs",
        "offset": 0,
        "slot": "2",
        "type": "t_array(t_struct(RewardSpec)6942_storage)dyn_storage"
      },
      {
        "astId": 6949,
        "contract": "contracts/MultiRewardsMasterChef.sol:MultiRewardsMasterChef",
        "label": "migrator",
        "offset": 0,
        "slot": "3",
        "type": "t_contract(IMigratorChef)6882"
      },
      {
        "astId": 6953,
        "contract": "contracts/MultiRewardsMasterChef.sol:MultiRewardsMasterChef",
        "label": "poolInfo",
        "offset": 0,
        "slot": "4",
        "type": "t_array(t_struct(PoolInfo)6924_storage)dyn_storage"
      },
      {
        "astId": 6959,
        "contract": "contracts/MultiRewardsMasterChef.sol:MultiRewardsMasterChef",
        "label": "poolsRewardsAccRewardsPerShare",
        "offset": 0,
        "slot": "5",
        "type": "t_mapping(t_uint256,t_mapping(t_uint256,t_uint256))"
      },
      {
        "astId": 6966,
        "contract": "contracts/MultiRewardsMasterChef.sol:MultiRewardsMasterChef",
        "label": "userInfo",
        "offset": 0,
        "slot": "6",
        "type": "t_mapping(t_uint256,t_mapping(t_address,t_struct(UserInfo)6910_storage))"
      },
      {
        "astId": 6969,
        "contract": "contracts/MultiRewardsMasterChef.sol:MultiRewardsMasterChef",
        "label": "totalAllocPoint",
        "offset": 0,
        "slot": "7",
        "type": "t_uint256"
      }
    ],
    "types": {
      "t_address": {
        "encoding": "inplace",
        "label": "address",
        "numberOfBytes": "20"
      },
      "t_array(t_struct(PoolInfo)6924_storage)dyn_storage": {
        "base": "t_struct(PoolInfo)6924_storage",
        "encoding": "dynamic_array",
        "label": "struct MultiRewardsMasterChef.PoolInfo[]",
        "numberOfBytes": "32"
      },
      "t_array(t_struct(RewardSpec)6942_storage)dyn_storage": {
        "base": "t_struct(RewardSpec)6942_storage",
        "encoding": "dynamic_array",
        "label": "struct MultiRewardsMasterChef.RewardSpec[]",
        "numberOfBytes": "32"
      },
      "t_bool": {
        "encoding": "inplace",
        "label": "bool",
        "numberOfBytes": "1"
      },
      "t_contract(IERC20)1795": {
        "encoding": "inplace",
        "label": "contract IERC20",
        "numberOfBytes": "20"
      },
      "t_contract(IMigratorChef)6882": {
        "encoding": "inplace",
        "label": "contract IMigratorChef",
        "numberOfBytes": "20"
      },
      "t_mapping(t_address,t_struct(UserInfo)6910_storage)": {
        "encoding": "mapping",
        "key": "t_address",
        "label": "mapping(address => struct MultiRewardsMasterChef.UserInfo)",
        "numberOfBytes": "32",
        "value": "t_struct(UserInfo)6910_storage"
      },
      "t_mapping(t_uint256,t_mapping(t_address,t_struct(UserInfo)6910_storage))": {
        "encoding": "mapping",
        "key": "t_uint256",
        "label": "mapping(uint256 => mapping(address => struct MultiRewardsMasterChef.UserInfo))",
        "numberOfBytes": "32",
        "value": "t_mapping(t_address,t_struct(UserInfo)6910_storage)"
      },
      "t_mapping(t_uint256,t_mapping(t_uint256,t_uint256))": {
        "encoding": "mapping",
        "key": "t_uint256",
        "label": "mapping(uint256 => mapping(uint256 => uint256))",
        "numberOfBytes": "32",
        "value": "t_mapping(t_uint256,t_uint256)"
      },
      "t_mapping(t_uint256,t_uint256)": {
        "encoding": "mapping",
        "key": "t_uint256",
        "label": "mapping(uint256 => uint256)",
        "numberOfBytes": "32",
        "value": "t_uint256"
      },
      "t_struct(PoolInfo)6924_storage": {
        "encoding": "inplace",
        "label": "struct MultiRewardsMasterChef.PoolInfo",
        "members": [
          {
            "astId": 6913,
            "contract": "contracts/MultiRewardsMasterChef.sol:MultiRewardsMasterChef",
            "label": "lpToken",
            "offset": 0,
            "slot": "0",
            "type": "t_contract(IERC20)1795"
          },
          {
            "astId": 6915,
            "contract": "contracts/MultiRewardsMasterChef.sol:MultiRewardsMasterChef",
            "label": "allocPoint",
            "offset": 0,
            "slot": "1",
            "type": "t_uint256"
          },
          {
            "astId": 6917,
            "contract": "contracts/MultiRewardsMasterChef.sol:MultiRewardsMasterChef",
            "label": "lastRewardBlock",
            "offset": 0,
            "slot": "2",
            "type": "t_uint256"
          },
          {
            "astId": 6920,
            "contract": "contracts/MultiRewardsMasterChef.sol:MultiRewardsMasterChef",
            "label": "proxyFarmer",
            "offset": 0,
            "slot": "3",
            "type": "t_address"
          },
          {
            "astId": 6923,
            "contract": "contracts/MultiRewardsMasterChef.sol:MultiRewardsMasterChef",
            "label": "totalAmount",
            "offset": 0,
            "slot": "4",
            "type": "t_uint256"
          }
        ],
        "numberOfBytes": "160"
      },
      "t_struct(RewardSpec)6942_storage": {
        "encoding": "inplace",
        "label": "struct MultiRewardsMasterChef.RewardSpec",
        "members": [
          {
            "astId": 6933,
            "contract": "contracts/MultiRewardsMasterChef.sol:MultiRewardsMasterChef",
            "label": "token",
            "offset": 0,
            "slot": "0",
            "type": "t_contract(IERC20)1795"
          },
          {
            "astId": 6935,
            "contract": "contracts/MultiRewardsMasterChef.sol:MultiRewardsMasterChef",
            "label": "rewardPerBlock",
            "offset": 0,
            "slot": "1",
            "type": "t_uint256"
          },
          {
            "astId": 6937,
            "contract": "contracts/MultiRewardsMasterChef.sol:MultiRewardsMasterChef",
            "label": "startedAtBlock",
            "offset": 0,
            "slot": "2",
            "type": "t_uint256"
          },
          {
            "astId": 6939,
            "contract": "contracts/MultiRewardsMasterChef.sol:MultiRewardsMasterChef",
            "label": "endedAtBlock",
            "offset": 0,
            "slot": "3",
            "type": "t_uint256"
          },
          {
            "astId": 6941,
            "contract": "contracts/MultiRewardsMasterChef.sol:MultiRewardsMasterChef",
            "label": "claimedAmount",
            "offset": 0,
            "slot": "4",
            "type": "t_uint256"
          }
        ],
        "numberOfBytes": "160"
      },
      "t_struct(UserInfo)6910_storage": {
        "encoding": "inplace",
        "label": "struct MultiRewardsMasterChef.UserInfo",
        "members": [
          {
            "astId": 6899,
            "contract": "contracts/MultiRewardsMasterChef.sol:MultiRewardsMasterChef",
            "label": "amount",
            "offset": 0,
            "slot": "0",
            "type": "t_uint256"
          },
          {
            "astId": 6904,
            "contract": "contracts/MultiRewardsMasterChef.sol:MultiRewardsMasterChef",
            "label": "claimedRewards",
            "offset": 0,
            "slot": "1",
            "type": "t_mapping(t_uint256,t_uint256)"
          },
          {
            "astId": 6909,
            "contract": "contracts/MultiRewardsMasterChef.sol:MultiRewardsMasterChef",
            "label": "rewardDebt",
            "offset": 0,
            "slot": "2",
            "type": "t_mapping(t_uint256,t_uint256)"
          }
        ],
        "numberOfBytes": "96"
      },
      "t_uint256": {
        "encoding": "inplace",
        "label": "uint256",
        "numberOfBytes": "32"
      },
      "t_uint8": {
        "encoding": "inplace",
        "label": "uint8",
        "numberOfBytes": "1"
      }
    }
  }
}