{
  "address": "0x12E66D2AF14E33AD0E75D9381b7bE10D1A3dc602",
  "abi": [
    {
      "anonymous": false,
      "inputs": [
        {
          "indexed": true,
          "internalType": "address",
          "name": "user",
          "type": "address"
        },
        {
          "indexed": true,
          "internalType": "address",
          "name": "newAdmin",
          "type": "address"
        }
      ],
      "name": "AdminUpdated",
      "type": "event"
    },
    {
      "anonymous": false,
      "inputs": [
        {
          "indexed": false,
          "internalType": "uint8",
          "name": "version",
          "type": "uint8"
        }
      ],
      "name": "Initialized",
      "type": "event"
    },
    {
      "inputs": [
        {
          "internalType": "contract IExtendableBondedCake",
          "name": "eb_",
          "type": "address"
        }
      ],
      "name": "addressBook",
      "outputs": [
        {
          "components": [
            {
              "internalType": "address",
              "name": "underlyingToken",
              "type": "address"
            },
            {
              "internalType": "address",
              "name": "bondToken",
              "type": "address"
            },
            {
              "internalType": "address",
              "name": "lpToken",
              "type": "address"
            },
            {
              "internalType": "address",
              "name": "bondFarmingPool",
              "type": "address"
            },
            {
              "internalType": "address",
              "name": "bondLpFarmingPool",
              "type": "address"
            },
            {
              "internalType": "uint256",
              "name": "bondFarmingPoolId",
              "type": "uint256"
            },
            {
              "internalType": "uint256",
              "name": "bondLpFarmingPoolId",
              "type": "uint256"
            },
            {
              "internalType": "address",
              "name": "pancakePool",
              "type": "address"
            }
          ],
          "internalType": "struct ExtendableBondedReaderCake.AddressBook",
          "name": "book",
          "type": "tuple"
        }
      ],
      "stateMutability": "view",
      "type": "function"
    },
    {
      "inputs": [],
      "name": "admin",
      "outputs": [
        {
          "internalType": "address",
          "name": "",
          "type": "address"
        }
      ],
      "stateMutability": "view",
      "type": "function"
    },
    {
      "inputs": [],
      "name": "cakeOracle",
      "outputs": [
        {
          "internalType": "contract IOracle",
          "name": "",
          "type": "address"
        }
      ],
      "stateMutability": "view",
      "type": "function"
    },
    {
      "inputs": [
        {
          "internalType": "string",
          "name": "groupName_",
          "type": "string"
        }
      ],
      "name": "extendableBondGroupInfo",
      "outputs": [
        {
          "components": [
            {
              "internalType": "uint256",
              "name": "allEbStacked",
              "type": "uint256"
            },
            {
              "internalType": "uint256",
              "name": "ebCommonPriceAsUsd",
              "type": "uint256"
            },
            {
              "internalType": "uint256",
              "name": "duetSideAPR",
              "type": "uint256"
            },
            {
              "internalType": "uint256",
              "name": "underlyingSideAPR",
              "type": "uint256"
            },
            {
              "internalType": "uint256",
              "name": "faceUsdValue",
              "type": "uint256"
            }
          ],
          "internalType": "struct ExtendableBondedReaderCake.ExtendableBondGroupInfo",
          "name": "",
          "type": "tuple"
        }
      ],
      "stateMutability": "view",
      "type": "function"
    },
    {
      "inputs": [
        {
          "internalType": "contract IExtendableBond",
          "name": "eb_",
          "type": "address"
        }
      ],
      "name": "extendableBondLpStakePackageUserInfo",
      "outputs": [
        {
          "components": [
            {
              "internalType": "uint256",
              "name": "lpStake_underlyingStaked",
              "type": "uint256"
            },
            {
              "internalType": "uint256",
              "name": "lpStake_bondStaked",
              "type": "uint256"
            },
            {
              "internalType": "uint256",
              "name": "lpStake_lpStaked",
              "type": "uint256"
            },
            {
              "internalType": "uint256",
              "name": "lpStake_ebPendingRewards",
              "type": "uint256"
            },
            {
              "internalType": "uint256",
              "name": "lpStake_lpClaimedRewards",
              "type": "uint256"
            },
            {
              "internalType": "uint256",
              "name": "lpStake_bDuetPendingRewards",
              "type": "uint256"
            },
            {
              "internalType": "uint256",
              "name": "lpStake_bDuetClaimedRewards",
              "type": "uint256"
            }
          ],
          "internalType": "struct ExtendableBondReader.ExtendableBondLpStakePackageUserInfo",
          "name": "",
          "type": "tuple"
        }
      ],
      "stateMutability": "view",
      "type": "function"
    },
    {
      "inputs": [
        {
          "internalType": "contract IExtendableBond",
          "name": "eb_",
          "type": "address"
        }
      ],
      "name": "extendableBondPackagePublicInfo",
      "outputs": [
        {
          "components": [
            {
              "internalType": "string",
              "name": "name",
              "type": "string"
            },
            {
              "internalType": "string",
              "name": "symbol",
              "type": "string"
            },
            {
              "internalType": "uint8",
              "name": "decimals",
              "type": "uint8"
            },
            {
              "internalType": "uint256",
              "name": "underlyingUsdPrice",
              "type": "uint256"
            },
            {
              "internalType": "uint256",
              "name": "bondUnderlyingPrice",
              "type": "uint256"
            },
            {
              "internalType": "bool",
              "name": "convertable",
              "type": "bool"
            },
            {
              "internalType": "uint256",
              "name": "convertableFrom",
              "type": "uint256"
            },
            {
              "internalType": "uint256",
              "name": "convertableEnd",
              "type": "uint256"
            },
            {
              "internalType": "bool",
              "name": "redeemable",
              "type": "bool"
            },
            {
              "internalType": "uint256",
              "name": "redeemableFrom",
              "type": "uint256"
            },
            {
              "internalType": "uint256",
              "name": "redeemableEnd",
              "type": "uint256"
            },
            {
              "internalType": "uint256",
              "name": "maturity",
              "type": "uint256"
            },
            {
              "internalType": "uint256",
              "name": "underlyingAPY",
              "type": "uint256"
            },
            {
              "internalType": "uint256",
              "name": "singleStake_totalStaked",
              "type": "uint256"
            },
            {
              "internalType": "uint256",
              "name": "singleStake_bDuetAPR",
              "type": "uint256"
            },
            {
              "internalType": "uint256",
              "name": "lpStake_totalStaked",
              "type": "uint256"
            },
            {
              "internalType": "uint256",
              "name": "lpStake_bDuetAPR",
              "type": "uint256"
            }
          ],
          "internalType": "struct ExtendableBondReader.ExtendableBondPackagePublicInfo",
          "name": "",
          "type": "tuple"
        }
      ],
      "stateMutability": "view",
      "type": "function"
    },
    {
      "inputs": [
        {
          "internalType": "contract IExtendableBond",
          "name": "eb_",
          "type": "address"
        }
      ],
      "name": "extendableBondSingleStakePackageUserInfo",
      "outputs": [
        {
          "components": [
            {
              "internalType": "int256",
              "name": "singleStake_staked",
              "type": "int256"
            },
            {
              "internalType": "int256",
              "name": "singleStake_ebEarnedToDate",
              "type": "int256"
            },
            {
              "internalType": "uint256",
              "name": "singleStake_bDuetPendingRewards",
              "type": "uint256"
            },
            {
              "internalType": "uint256",
              "name": "singleStake_bDuetClaimedRewards",
              "type": "uint256"
            }
          ],
          "internalType": "struct ExtendableBondReader.ExtendableBondSingleStakePackageUserInfo",
          "name": "",
          "type": "tuple"
        }
      ],
      "stateMutability": "view",
      "type": "function"
    },
    {
      "inputs": [
        {
          "internalType": "address",
          "name": "admin_",
          "type": "address"
        },
        {
          "internalType": "address",
          "name": "registry_",
          "type": "address"
        },
        {
          "internalType": "address",
          "name": "pancakePool_",
          "type": "address"
        },
        {
          "internalType": "address",
          "name": "pancakeMasterChef_",
          "type": "address"
        },
        {
          "internalType": "address",
          "name": "pairTokenAddress__CAKE_BUSD_",
          "type": "address"
        },
        {
          "internalType": "address",
          "name": "pairTokenAddress__DUET_anyUSD_",
          "type": "address"
        }
      ],
      "name": "initialize",
      "outputs": [],
      "stateMutability": "nonpayable",
      "type": "function"
    },
    {
      "inputs": [],
      "name": "pairTokenAddress__CAKE_BUSD",
      "outputs": [
        {
          "internalType": "contract IPancakePair",
          "name": "",
          "type": "address"
        }
      ],
      "stateMutability": "view",
      "type": "function"
    },
    {
      "inputs": [],
      "name": "pairTokenAddress__DUET_anyUSD",
      "outputs": [
        {
          "internalType": "contract IPancakePair",
          "name": "",
          "type": "address"
        }
      ],
      "stateMutability": "view",
      "type": "function"
    },
    {
      "inputs": [],
      "name": "pancakeMasterChef",
      "outputs": [
        {
          "internalType": "contract MasterChefV2",
          "name": "",
          "type": "address"
        }
      ],
      "stateMutability": "view",
      "type": "function"
    },
    {
      "inputs": [],
      "name": "pancakePool",
      "outputs": [
        {
          "internalType": "contract ICakePool",
          "name": "",
          "type": "address"
        }
      ],
      "stateMutability": "view",
      "type": "function"
    },
    {
      "inputs": [],
      "name": "registry",
      "outputs": [
        {
          "internalType": "contract ExtendableBondRegistry",
          "name": "",
          "type": "address"
        }
      ],
      "stateMutability": "view",
      "type": "function"
    },
    {
      "inputs": [
        {
          "internalType": "address",
          "name": "newAdmin",
          "type": "address"
        }
      ],
      "name": "setAdmin",
      "outputs": [],
      "stateMutability": "nonpayable",
      "type": "function"
    },
    {
      "inputs": [
        {
          "internalType": "contract IOracle",
          "name": "cakeOracle_",
          "type": "address"
        }
      ],
      "name": "setCakeOracle",
      "outputs": [],
      "stateMutability": "nonpayable",
      "type": "function"
    },
    {
      "inputs": [
        {
          "internalType": "address",
          "name": "registry_",
          "type": "address"
        },
        {
          "internalType": "address",
          "name": "pancakePool_",
          "type": "address"
        },
        {
          "internalType": "address",
          "name": "pancakeMasterChef_",
          "type": "address"
        },
        {
          "internalType": "address",
          "name": "pairTokenAddress__CAKE_BUSD_",
          "type": "address"
        },
        {
          "internalType": "address",
          "name": "pairTokenAddress__DUET_anyUSD_",
          "type": "address"
        }
      ],
      "name": "updateReferences",
      "outputs": [],
      "stateMutability": "nonpayable",
      "type": "function"
    }
  ],
  "transactionHash": "0x074e8ddf5bebf9c0285c50e17c3530e4d5147349599bddc150d13aab60fe6469",
  "args": [],
  "numDeployments": 3,
  "solcInputHash": "98241968b6b63e0537f7514d216a92da",
  "bytecode": "0x608060405234801561001057600080fd5b506144e9806100206000396000f3fe608060405234801561001057600080fd5b50600436106101005760003560e01c80639590cf2811610097578063cc2a9a5b11610066578063cc2a9a5b14610321578063cdab5bed14610334578063e4ed77361461037a578063f851a4401461038d57600080fd5b80639590cf2814610265578063aba19e60146102e8578063c8bac060146102fb578063ca5ee5ab1461030e57600080fd5b8063602cc58f116100d3578063602cc58f14610181578063704b6c02146101d657806373283dac146101e95780637b1039991461025257600080fd5b806319ca7b74146101055780631e7abfd11461012e5780634049744f146101595780635efcc2851461016e575b600080fd5b610118610113366004613a7d565b6103a6565b6040516101259190613af6565b60405180910390f35b600654610141906001600160a01b031681565b6040516001600160a01b039091168152602001610125565b61016c610167366004613c0b565b610910565b005b600554610141906001600160a01b031681565b61019461018f366004613c7c565b610be2565b6040516101259190600060a082019050825182526020830151602083015260408301516040830152606083015160608301526080830151608083015292915050565b61016c6101e4366004613a7d565b610ee2565b6101fc6101f7366004613a7d565b610f1e565b6040516101259190600060e082019050825182526020830151602083015260408301516040830152606083015160608301526080830151608083015260a083015160a083015260c083015160c083015292915050565b600154610141906001600160a01b031681565b610278610273366004613a7d565b61119e565b604051610125919081516001600160a01b03908116825260208084015182169083015260408084015182169083015260608084015182169083015260808084015182169083015260a0838101519083015260c0808401519083015260e09283015116918101919091526101000190565b600254610141906001600160a01b031681565b600354610141906001600160a01b031681565b600454610141906001600160a01b031681565b61016c61032f366004613cee565b6116fb565b610347610342366004613a7d565b6117da565b60405161012591908151815260208083015190820152604080830151908201526060918201519181019190915260800190565b61016c610388366004613a7d565b611b62565b600054610141906201000090046001600160a01b031681565b6104346040518061022001604052806060815260200160608152602001600060ff1681526020016000815260200160008152602001600015158152602001600081526020016000815260200160001515815260200160008152602001600081526020016000815260200160008152602001600081526020016000815260200160008152602001600081525090565b6000826001600160a01b031663b3cb305b6040518163ffffffff1660e01b815260040160206040518083038186803b15801561046f57600080fd5b505afa158015610483573d6000803e3d6000fd5b505050506040513d601f19601f820116820180604052508101906104a79190613d70565b90506000836001600160a01b0316635cb7758e6040518163ffffffff1660e01b815260040160206040518083038186803b1580156104e457600080fd5b505afa1580156104f8573d6000803e3d6000fd5b505050506040513d601f19601f8201168201806040525081019061051c9190613d70565b905060008060008060008060008a6001600160a01b0316633dae08cc6040518163ffffffff1660e01b815260040160e06040518083038186803b15801561056257600080fd5b505afa158015610576573d6000803e3d6000fd5b505050506040513d601f19601f8201168201806040525081019061059a9190613d9d565b965096509650965096509650965060008b6001600160a01b031663c28f43926040518163ffffffff1660e01b815260040160206040518083038186803b1580156105e357600080fd5b505afa1580156105f7573d6000803e3d6000fd5b505050506040513d601f19601f8201168201806040525081019061061b9190613d70565b90506000604051806102200160405280836001600160a01b03166306fdde036040518163ffffffff1660e01b815260040160006040518083038186803b15801561066457600080fd5b505afa158015610678573d6000803e3d6000fd5b505050506040513d6000823e601f3d908101601f191682016040526106a09190810190613e94565b8152602001836001600160a01b03166395d89b416040518163ffffffff1660e01b815260040160006040518083038186803b1580156106de57600080fd5b505afa1580156106f2573d6000803e3d6000fd5b505050506040513d6000823e601f3d908101601f1916820160405261071a9190810190613e94565b8152602001836001600160a01b031663313ce5676040518163ffffffff1660e01b815260040160206040518083038186803b15801561075857600080fd5b505afa15801561076c573d6000803e3d6000fd5b505050506040513d601f19601f820116820180604052508101906107909190613f28565b60ff1681526020016107a18f611c6f565b81526020016107af8f611ea8565b81526020018a1515815260200189815260200188815260200187151581526020018681526020018581526020018481526020016107eb8f612047565b81526040516335d670f360e21b8152600060048201526020909101906001600160a01b038e169063d759c3cc9060240160206040518083038186803b15801561083357600080fd5b505afa158015610847573d6000803e3d6000fd5b505050506040513d601f19601f8201168201806040525081019061086b9190613f4b565b81526020016108798f61255a565b81526020018b6001600160a01b031663532d73976040518163ffffffff1660e01b815260040160206040518083038186803b1580156108b757600080fd5b505afa1580156108cb573d6000803e3d6000fd5b505050506040513d601f19601f820116820180604052508101906108ef9190613f4b565b81526020016108fd8f612651565b90529d9c50505050505050505050505050565b6000546201000090046001600160a01b031633146109495760405162461bcd60e51b815260040161094090613f64565b60405180910390fd5b6001600160a01b0385166109a95760405162461bcd60e51b815260206004820152602160248201527f43616e742073657420526567697374727920746f207a65726f206164647265736044820152607360f81b6064820152608401610940565b600180546001600160a01b0319166001600160a01b03878116919091179091558416610a235760405162461bcd60e51b8152602060048201526024808201527f43616e74207365742050616e63616b65506f6f6c20746f207a65726f206164646044820152637265737360e01b6064820152608401610940565b600280546001600160a01b0319166001600160a01b03868116919091179091558316610aa45760405162461bcd60e51b815260206004820152602a60248201527f43616e74207365742050616e63616b654d61737465724368656620746f207a65604482015269726f206164647265737360b01b6064820152608401610940565b600380546001600160a01b0319166001600160a01b03858116919091179091558216610b2f5760405162461bcd60e51b815260206004820152603460248201527f43616e74207365742050616972546f6b656e416464726573735f5f43414b455f6044820152734255534420746f207a65726f206164647265737360601b6064820152608401610940565b600480546001600160a01b0319166001600160a01b03848116919091179091558116610bbc5760405162461bcd60e51b815260206004820152603660248201527f43616e74207365742070616972546f6b656e416464726573735f5f445545545f604482015275616e7955534420746f207a65726f206164647265737360501b6064820152608401610940565b600580546001600160a01b0319166001600160a01b039290921691909117905550505050565b610c146040518060a0016040528060008152602001600081526020016000815260200160008152602001600081525090565b60015460405163e0ea7b3160e01b8152600091829182916001600160a01b03169063e0ea7b3190610c4b9089908990600401613f8a565b60006040518083038186803b158015610c6357600080fd5b505afa158015610c77573d6000803e3d6000fd5b505050506040513d6000823e601f3d908101601f19168201604052610c9f9190810190613fdd565b9050600080600660009054906101000a90046001600160a01b03166001600160a01b031663feaf968c6040518163ffffffff1660e01b815260040160a06040518083038186803b158015610cf257600080fd5b505afa158015610d06573d6000803e3d6000fd5b505050506040513d601f19601f82011682018060405250810190610d2a919061408b565b5050509150506000808213610d40576000610d42565b815b905060005b8451811015610e5e576000858281518110610d6457610d646140db565b602002602001015190506000819050806001600160a01b0316634a1dfebf6040518163ffffffff1660e01b815260040160206040518083038186803b158015610dac57600080fd5b505afa158015610dc0573d6000803e3d6000fd5b505050506040513d601f19601f82011682018060405250810190610de49190613f4b565b610dee908a614107565b9850610df981611c6f565b610e039089614107565b97506000610e1082612047565b90506000610e2f610e2084612651565b610e298561255a565b90612660565b9050610e45610e3e8284614107565b8990612660565b9750505050508080610e569061411f565b915050610d47565b50600080855111610e70576000610e7c565b8451610e7c908761413a565b90506000610e88612677565b905060006040518060a001604052808a8152602001848152602001878152602001838152602001670de0b6b3a7640000868c610ec4919061415c565b610ece919061413a565b905299505050505050505050505b92915050565b6000546201000090046001600160a01b03163314610f125760405162461bcd60e51b815260040161094090613f64565b610f1b81612a7a565b50565b610f5e6040518060e00160405280600081526020016000815260200160008152602001600081526020016000815260200160008152602001600081525090565b3380610fa55760405162461bcd60e51b8152602060048201526016602482015275496e76616c69642073656e646572206164647265737360501b6044820152606401610940565b6000836001600160a01b0316635cb7758e6040518163ffffffff1660e01b815260040160206040518083038186803b158015610fe057600080fd5b505afa158015610ff4573d6000803e3d6000fd5b505050506040513d601f19601f820116820180604052508101906110189190613d70565b604051635d0eaaaf60e01b81526001600160a01b038481166004830152919250600091829190841690635d0eaaaf9060240160806040518083038186803b15801561106257600080fd5b505afa158015611076573d6000803e3d6000fd5b505050506040513d601f19601f8201168201806040525081019061109a919061417b565b9350505091506000806110ad8885612b2f565b9150915060006110c6896110c08b612b88565b89612c6f565b6040516367be08fd60e11b81526001600160a01b03898116600483015291925060009188169063cf7c11fa9060240160206040518083038186803b15801561110d57600080fd5b505afa158015611121573d6000803e3d6000fd5b505050506040513d601f19601f820116820180604052508101906111459190613f4b565b9050600061115c8b6111568d612b88565b8b612ea7565b6040805160e0810182529687526020870195909552938501969096526060840152608083019390935260a082019290925260c081019190915295945050505050565b6040805161010081018252600080825260208201819052918101829052606081018290526080810182905260a0810182905260c0810182905260e08101919091526000826001600160a01b031663b3cb305b6040518163ffffffff1660e01b815260040160206040518083038186803b15801561121a57600080fd5b505afa15801561122e573d6000803e3d6000fd5b505050506040513d601f19601f820116820180604052508101906112529190613d70565b90506000836001600160a01b0316635cb7758e6040518163ffffffff1660e01b815260040160206040518083038186803b15801561128f57600080fd5b505afa1580156112a3573d6000803e3d6000fd5b505050506040513d601f19601f820116820180604052508101906112c79190613d70565b9050836001600160a01b0316632495a5996040518163ffffffff1660e01b815260040160206040518083038186803b15801561130257600080fd5b505afa158015611316573d6000803e3d6000fd5b505050506040513d601f19601f8201168201806040525081019061133a9190613d70565b6001600160a01b03908116845260408051636147a1c960e11b815290519186169163c28f439291600480820192602092909190829003018186803b15801561138157600080fd5b505afa158015611395573d6000803e3d6000fd5b505050506040513d601f19601f820116820180604052508101906113b99190613d70565b83602001906001600160a01b031690816001600160a01b031681525050806001600160a01b0316635fcbd2856040518163ffffffff1660e01b815260040160206040518083038186803b15801561140f57600080fd5b505afa158015611423573d6000803e3d6000fd5b505050506040513d601f19601f820116820180604052508101906114479190613d70565b83604001906001600160a01b031690816001600160a01b031681525050836001600160a01b031663b3cb305b6040518163ffffffff1660e01b815260040160206040518083038186803b15801561149d57600080fd5b505afa1580156114b1573d6000803e3d6000fd5b505050506040513d601f19601f820116820180604052508101906114d59190613d70565b83606001906001600160a01b031690816001600160a01b031681525050836001600160a01b0316635cb7758e6040518163ffffffff1660e01b815260040160206040518083038186803b15801561152b57600080fd5b505afa15801561153f573d6000803e3d6000fd5b505050506040513d601f19601f820116820180604052508101906115639190613d70565b83608001906001600160a01b031690816001600160a01b031681525050816001600160a01b031663c62c610b6040518163ffffffff1660e01b815260040160206040518083038186803b1580156115b957600080fd5b505afa1580156115cd573d6000803e3d6000fd5b505050506040513d601f19601f820116820180604052508101906115f19190613f4b565b8360a0018181525050806001600160a01b031663c62c610b6040518163ffffffff1660e01b815260040160206040518083038186803b15801561163357600080fd5b505afa158015611647573d6000803e3d6000fd5b505050506040513d601f19601f8201168201806040525081019061166b9190613f4b565b8360c0018181525050836001600160a01b031663ed64a9676040518163ffffffff1660e01b815260040160206040518083038186803b1580156116ad57600080fd5b505afa1580156116c1573d6000803e3d6000fd5b505050506040513d601f19601f820116820180604052508101906116e59190613d70565b6001600160a01b031660e0840152509092915050565b600061170760016130bc565b9050801561171f576000805461ff0019166101001790555b6001600160a01b0387166117755760405162461bcd60e51b815260206004820152601e60248201527f43616e74207365742061646d696e20746f207a65726f206164647265737300006044820152606401610940565b61177e87612a7a565b61178b8686868686610910565b80156117d1576000805461ff0019169055604051600181527f7f26b83ff96e1f2b6a682f133852f6798a09c465da95921460cefb38474024989060200160405180910390a15b50505050505050565b6118056040518060800160405280600081526020016000815260200160008152602001600081525090565b338061184c5760405162461bcd60e51b8152602060048201526016602482015275496e76616c69642073656e646572206164647265737360501b6044820152606401610940565b6000836001600160a01b031663b3cb305b6040518163ffffffff1660e01b815260040160206040518083038186803b15801561188757600080fd5b505afa15801561189b573d6000803e3d6000fd5b505050506040513d601f19601f820116820180604052508101906118bf9190613d70565b604051635d0eaaaf60e01b81526001600160a01b038481166004830152919250600091831690635d0eaaaf90602401604080518083038186803b15801561190557600080fd5b505afa158015611919573d6000803e3d6000fd5b505050506040513d601f19601f8201168201806040525081019061193d91906141b1565b50905060006119bd86846001600160a01b031663c62c610b6040518163ffffffff1660e01b815260040160206040518083038186803b15801561197f57600080fd5b505afa158015611993573d6000803e3d6000fd5b505050506040513d601f19601f820116820180604052508101906119b79190613f4b565b86612c6f565b90506000611a3c87856001600160a01b031663c62c610b6040518163ffffffff1660e01b815260040160206040518083038186803b1580156119fe57600080fd5b505afa158015611a12573d6000803e3d6000fd5b505050506040513d601f19601f82011682018060405250810190611a369190613f4b565b87612ea7565b604080516080810191829052630ed1ca5960e31b90915260848101859052909150600090806001600160a01b03871663768e52c860a4830160206040518083038186803b158015611a8c57600080fd5b505afa158015611aa0573d6000803e3d6000fd5b505050506040513d601f19601f82011682018060405250810190611ac49190613f4b565b815260405163015b078f60e31b81526001600160a01b038981166004830152602090920191881690630ad83c789060240160206040518083038186803b158015611b0d57600080fd5b505afa158015611b21573d6000803e3d6000fd5b505050506040513d601f19601f82011682018060405250810190611b459190613f4b565b815260208101949094526040909301919091525095945050505050565b6000546201000090046001600160a01b03163314611b925760405162461bcd60e51b815260040161094090613f64565b6000816001600160a01b031663feaf968c6040518163ffffffff1660e01b815260040160a06040518083038186803b158015611bcd57600080fd5b505afa158015611be1573d6000803e3d6000fd5b505050506040513d601f19601f82011682018060405250810190611c05919061408b565b50505091505060008113611c4c5760405162461bcd60e51b815260206004820152600e60248201526d496e76616c6964206f7261636c6560901b6044820152606401610940565b50600680546001600160a01b0319166001600160a01b0392909216919091179055565b600080826001600160a01b0316635cb7758e6040518163ffffffff1660e01b815260040160206040518083038186803b158015611cab57600080fd5b505afa158015611cbf573d6000803e3d6000fd5b505050506040513d601f19601f82011682018060405250810190611ce39190613d70565b90506000816001600160a01b0316635fcbd2856040518163ffffffff1660e01b815260040160206040518083038186803b158015611d2057600080fd5b505afa158015611d34573d6000803e3d6000fd5b505050506040513d601f19601f82011682018060405250810190611d589190613d70565b90506000816001600160a01b03166318160ddd6040518163ffffffff1660e01b815260040160206040518083038186803b158015611d9557600080fd5b505afa158015611da9573d6000803e3d6000fd5b505050506040513d601f19601f82011682018060405250810190611dcd9190613f4b565b905080611ddf57506000949350505050565b6004805460408051630240bc6b60e21b8152905160009384936001600160a01b031692630902f1ac9281830192606092829003018186803b158015611e2357600080fd5b505afa158015611e37573d6000803e3d6000fd5b505050506040513d601f19601f82011682018060405250810190611e5b91906141ec565b506001600160701b031691506001600160701b031691508060001415611e88575060009695505050505050565b82611e93828461413a565b611e9d919061415c565b979650505050505050565b600080826001600160a01b0316635cb7758e6040518163ffffffff1660e01b815260040160206040518083038186803b158015611ee457600080fd5b505afa158015611ef8573d6000803e3d6000fd5b505050506040513d601f19601f82011682018060405250810190611f1c9190613d70565b90506000816001600160a01b0316635fcbd2856040518163ffffffff1660e01b815260040160206040518083038186803b158015611f5957600080fd5b505afa158015611f6d573d6000803e3d6000fd5b505050506040513d601f19601f82011682018060405250810190611f919190613d70565b9050600080826001600160a01b0316630902f1ac6040518163ffffffff1660e01b815260040160606040518083038186803b158015611fcf57600080fd5b505afa158015611fe3573d6000803e3d6000fd5b505050506040513d601f19601f8201168201806040525081019061200791906141ec565b506001600160701b031691506001600160701b0316915080600014156120335750600095945050505050565b61203d818361413a565b9695505050505050565b6000808290506000816001600160a01b031663ed64a9676040518163ffffffff1660e01b815260040160206040518083038186803b15801561208857600080fd5b505afa15801561209c573d6000803e3d6000fd5b505050506040513d601f19601f820116820180604052508101906120c09190613d70565b90506000816001600160a01b0316631959a002846001600160a01b031663c28f43926040518163ffffffff1660e01b815260040160206040518083038186803b15801561210c57600080fd5b505afa158015612120573d6000803e3d6000fd5b505050506040513d601f19601f820116820180604052508101906121449190613d70565b6040516001600160e01b031960e084901b1681526001600160a01b0390911660048201526024016101206040518083038186803b15801561218457600080fd5b505afa158015612198573d6000803e3d6000fd5b505050506040513d601f19601f820116820180604052508101906121bc919061423c565b600354604051631e9b828b60e01b81526000600482018190529293506001600160a01b0390911690631e9b828b9060240160206040518083038186803b15801561220557600080fd5b505afa158015612219573d6000803e3d6000fd5b505050506040513d601f19601f8201168201806040525081019061223d9190613f4b565b600354604051631526fe2760e01b81526000600482018190529293506001600160a01b0390911690631526fe279060240160a06040518083038186803b15801561228657600080fd5b505afa15801561229a573d6000803e3d6000fd5b505050506040513d601f19601f820116820180604052508101906122be91906142bc565b5050925050506000600360009054906101000a90046001600160a01b03166001600160a01b03166399d7e84a6040518163ffffffff1660e01b815260040160206040518083038186803b15801561231457600080fd5b505afa158015612328573d6000803e3d6000fd5b505050506040513d601f19601f8201168201806040525081019061234c9190613f4b565b90508061236157506000979650505050505050565b600061236d828461413a565b905060008161237f62a066808761415c565b612389919061415c565b90506000600260009054906101000a90046001600160a01b03166001600160a01b03166377c7b8fc6040518163ffffffff1660e01b815260040160206040518083038186803b1580156123db57600080fd5b505afa1580156123ef573d6000803e3d6000fd5b505050506040513d601f19601f820116820180604052508101906124139190613f4b565b90506000600260009054906101000a90046001600160a01b03166001600160a01b0316633a98ef396040518163ffffffff1660e01b815260040160206040518083038186803b15801561246557600080fd5b505afa158015612479573d6000803e3d6000fd5b505050506040513d601f19601f8201168201806040525081019061249d9190613f4b565b9050600081836124b5670de0b6b3a76400008761415c565b6124bf919061413a565b6124c9919061413a565b6124d490606461415c565b9050600089608001518a60a001516124ec91906142f9565b9050600064e8d4a510006301e133806125058484612660565b612515906512309ce5400061415c565b61251f919061413a565b612529919061413a565b90506000612538826001614107565b612542908561415c565b9050809e505050505050505050505050505050919050565b600080826001600160a01b031663b3cb305b6040518163ffffffff1660e01b815260040160206040518083038186803b15801561259657600080fd5b505afa1580156125aa573d6000803e3d6000fd5b505050506040513d601f19601f820116820180604052508101906125ce9190613d70565b905061264a83826001600160a01b031663c62c610b6040518163ffffffff1660e01b815260040160206040518083038186803b15801561260d57600080fd5b505afa158015612621573d6000803e3d6000fd5b505050506040513d601f19601f820116820180604052508101906126459190613f4b565b613149565b9392505050565b6000610edc8261264584612b88565b600081831015612670578161264a565b5090919050565b600354604051631526fe2760e01b815260006004820181905291829182916001600160a01b031690631526fe279060240160a06040518083038186803b1580156126c057600080fd5b505afa1580156126d4573d6000803e3d6000fd5b505050506040513d601f19601f820116820180604052508101906126f891906142bc565b9450509350505060008161279157600360009054906101000a90046001600160a01b03166001600160a01b03166399d7e84a6040518163ffffffff1660e01b815260040160206040518083038186803b15801561275457600080fd5b505afa158015612768573d6000803e3d6000fd5b505050506040513d601f19601f8201168201806040525081019061278c9190613f4b565b612817565b600360009054906101000a90046001600160a01b03166001600160a01b031663c40d337b6040518163ffffffff1660e01b815260040160206040518083038186803b1580156127df57600080fd5b505afa1580156127f3573d6000803e3d6000fd5b505050506040513d601f19601f820116820180604052508101906128179190613f4b565b905080612828576000935050505090565b6000612834828561413a565b600354604051631e9b828b60e01b815285151560048201529192506000916001600160a01b0390911690631e9b828b9060240160206040518083038186803b15801561287f57600080fd5b505afa158015612893573d6000803e3d6000fd5b505050506040513d601f19601f820116820180604052508101906128b79190613f4b565b6128c1908361415c565b90506000816128d362a066808261415c565b6128dd919061415c565b90506000600260009054906101000a90046001600160a01b03166001600160a01b03166377c7b8fc6040518163ffffffff1660e01b815260040160206040518083038186803b15801561292f57600080fd5b505afa158015612943573d6000803e3d6000fd5b505050506040513d601f19601f820116820180604052508101906129679190613f4b565b90506000600260009054906101000a90046001600160a01b03166001600160a01b0316633a98ef396040518163ffffffff1660e01b815260040160206040518083038186803b1580156129b957600080fd5b505afa1580156129cd573d6000803e3d6000fd5b505050506040513d601f19601f820116820180604052508101906129f19190613f4b565b905060006064612a01838561415c565b612a0b919061413a565b905080612a22576000995050505050505050505090565b600081612a37670de0b6b3a76400008761415c565b612a41919061413a565b905060026000612a5260648361413a565b612a5d9060016142f9565b9050612a69818461415c565b9c5050505050505050505050505090565b6001600160a01b038116612ada5760405162461bcd60e51b815260206004820152602160248201527f43616e206e6f74207365742061646d696e20746f207a65726f206164647265736044820152607360f81b6064820152608401610940565b6000805462010000600160b01b031916620100006001600160a01b038416908102919091178255604051909133917f101b8081ff3b56bbf45deb824d86a3b0fd38b7e3dd42421105cf8abe9106db0b9190a350565b6000806000612b3d856135cd565b9050600080612b4b87613731565b909250905082612b5b878461415c565b612b65919061413a565b945082612b72878361415c565b612b7c919061413a565b93505050509250929050565b600080826001600160a01b0316635cb7758e6040518163ffffffff1660e01b815260040160206040518083038186803b158015612bc457600080fd5b505afa158015612bd8573d6000803e3d6000fd5b505050506040513d601f19601f82011682018060405250810190612bfc9190613d70565b9050806001600160a01b031663c62c610b6040518163ffffffff1660e01b815260040160206040518083038186803b158015612c3757600080fd5b505afa158015612c4b573d6000803e3d6000fd5b505050506040513d601f19601f8201168201806040525081019061264a9190613f4b565b600080846001600160a01b031663b3cb305b6040518163ffffffff1660e01b815260040160206040518083038186803b158015612cab57600080fd5b505afa158015612cbf573d6000803e3d6000fd5b505050506040513d601f19601f82011682018060405250810190612ce39190613d70565b90506000816001600160a01b031663575a86b26040518163ffffffff1660e01b815260040160206040518083038186803b158015612d2057600080fd5b505afa158015612d34573d6000803e3d6000fd5b505050506040513d601f19601f82011682018060405250810190612d589190613d70565b6040516334637d4f60e21b8152600481018790526001600160a01b03868116602483015291925060009183169063d18df53c9060440160006040518083038186803b158015612da657600080fd5b505afa158015612dba573d6000803e3d6000fd5b505050506040513d6000823e601f3d908101601f19168201604052612de29190810190614310565b905060005b826001600160a01b031663b3c799d66040518163ffffffff1660e01b815260040160206040518083038186803b158015612e2057600080fd5b505afa158015612e34573d6000803e3d6000fd5b505050506040513d601f19601f82011682018060405250810190612e589190613f4b565b811015612e9c57818181518110612e7157612e716140db565b60200260200101516020015185612e889190614107565b945080612e948161411f565b915050612de7565b505050509392505050565b600080846001600160a01b031663b3cb305b6040518163ffffffff1660e01b815260040160206040518083038186803b158015612ee357600080fd5b505afa158015612ef7573d6000803e3d6000fd5b505050506040513d601f19601f82011682018060405250810190612f1b9190613d70565b90506000816001600160a01b031663575a86b26040518163ffffffff1660e01b815260040160206040518083038186803b158015612f5857600080fd5b505afa158015612f6c573d6000803e3d6000fd5b505050506040513d601f19601f82011682018060405250810190612f909190613d70565b905060005b816001600160a01b031663b3c799d66040518163ffffffff1660e01b815260040160206040518083038186803b158015612fce57600080fd5b505afa158015612fe2573d6000803e3d6000fd5b505050506040513d601f19601f820116820180604052508101906130069190613f4b565b8110156130b257604051630781d12560e11b8152600481018790526001600160a01b03868116602483015260448201839052831690630f03a24a9060640160206040518083038186803b15801561305c57600080fd5b505afa158015613070573d6000803e3d6000fd5b505050506040513d601f19601f820116820180604052508101906130949190613f4b565b61309e9085614107565b9350806130aa8161411f565b915050612f95565b5050509392505050565b60008054610100900460ff1615613103578160ff1660011480156130df5750303b155b6130fb5760405162461bcd60e51b8152600401610940906143c4565b506000919050565b60005460ff80841691161061312a5760405162461bcd60e51b8152600401610940906143c4565b506000805460ff191660ff92909216919091179055600190565b919050565b600080836001600160a01b031663c28f43926040518163ffffffff1660e01b815260040160206040518083038186803b15801561318557600080fd5b505afa158015613199573d6000803e3d6000fd5b505050506040513d601f19601f820116820180604052508101906131bd9190613d70565b6001600160a01b03166318160ddd6040518163ffffffff1660e01b815260040160206040518083038186803b1580156131f557600080fd5b505afa158015613209573d6000803e3d6000fd5b505050506040513d601f19601f8201168201806040525081019061322d9190613f4b565b90508061323a5750610edc565b6000846001600160a01b031663b3cb305b6040518163ffffffff1660e01b815260040160206040518083038186803b15801561327557600080fd5b505afa158015613289573d6000803e3d6000fd5b505050506040513d601f19601f820116820180604052508101906132ad9190613d70565b90506000816001600160a01b031663575a86b26040518163ffffffff1660e01b815260040160206040518083038186803b1580156132ea57600080fd5b505afa1580156132fe573d6000803e3d6000fd5b505050506040513d601f19601f820116820180604052508101906133229190613d70565b90506000816001600160a01b03166317caf6f16040518163ffffffff1660e01b815260040160206040518083038186803b15801561335f57600080fd5b505afa158015613373573d6000803e3d6000fd5b505050506040513d601f19601f820116820180604052508101906133979190613f4b565b9050806133a75750505050610edc565b60006133b2886138a7565b905060006133bf89611c6f565b9050806133d157505050505050610edc565b604051631526fe2760e01b8152600481018990526000906001600160a01b03861690631526fe279060240160a06040518083038186803b15801561341457600080fd5b505afa158015613428573d6000803e3d6000fd5b505050506040513d601f19601f8201168201806040525081019061344c9190614412565b50505091505060005b856001600160a01b031663b3c799d66040518163ffffffff1660e01b815260040160206040518083038186803b15801561348e57600080fd5b505afa1580156134a2573d6000803e3d6000fd5b505050506040513d601f19601f820116820180604052508101906134c69190613f4b565b8110156135bf5760405163e11f2f7d60e01b8152600481018290526000906001600160a01b0388169063e11f2f7d9060240160a06040518083038186803b15801561351057600080fd5b505afa158015613524573d6000803e3d6000fd5b505050506040513d601f19601f82011682018060405250810190613548919061446a565b505050915050838961355a919061415c565b8562a06680888661356d8661271061415c565b613577919061415c565b613581919061413a565b61358b919061415c565b613595919061415c565b61359f919061413a565b6135a9908b614107565b99505080806135b79061411f565b915050613455565b505050505050505092915050565b600080826001600160a01b0316635cb7758e6040518163ffffffff1660e01b815260040160206040518083038186803b15801561360957600080fd5b505afa15801561361d573d6000803e3d6000fd5b505050506040513d601f19601f820116820180604052508101906136419190613d70565b90506000816001600160a01b0316635fcbd2856040518163ffffffff1660e01b815260040160206040518083038186803b15801561367e57600080fd5b505afa158015613692573d6000803e3d6000fd5b505050506040513d601f19601f820116820180604052508101906136b69190613d70565b9050806001600160a01b03166318160ddd6040518163ffffffff1660e01b815260040160206040518083038186803b1580156136f157600080fd5b505afa158015613705573d6000803e3d6000fd5b505050506040513d601f19601f820116820180604052508101906137299190613f4b565b949350505050565b6000806000836001600160a01b0316635cb7758e6040518163ffffffff1660e01b815260040160206040518083038186803b15801561376f57600080fd5b505afa158015613783573d6000803e3d6000fd5b505050506040513d601f19601f820116820180604052508101906137a79190613d70565b90506000816001600160a01b0316635fcbd2856040518163ffffffff1660e01b815260040160206040518083038186803b1580156137e457600080fd5b505afa1580156137f8573d6000803e3d6000fd5b505050506040513d601f19601f8201168201806040525081019061381c9190613d70565b9050806001600160a01b0316630902f1ac6040518163ffffffff1660e01b815260040160606040518083038186803b15801561385757600080fd5b505afa15801561386b573d6000803e3d6000fd5b505050506040513d601f19601f8201168201806040525081019061388f91906141ec565b506001600160701b0391821697911695509350505050565b600080826001600160a01b0316635cb7758e6040518163ffffffff1660e01b815260040160206040518083038186803b1580156138e357600080fd5b505afa1580156138f7573d6000803e3d6000fd5b505050506040513d601f19601f8201168201806040525081019061391b9190613d70565b90506000816001600160a01b0316635fcbd2856040518163ffffffff1660e01b815260040160206040518083038186803b15801561395857600080fd5b505afa15801561396c573d6000803e3d6000fd5b505050506040513d601f19601f820116820180604052508101906139909190613d70565b90506000816001600160a01b03166318160ddd6040518163ffffffff1660e01b815260040160206040518083038186803b1580156139cd57600080fd5b505afa1580156139e1573d6000803e3d6000fd5b505050506040513d601f19601f82011682018060405250810190613a059190613f4b565b905080613a1757506000949350505050565b600080600560009054906101000a90046001600160a01b03166001600160a01b0316630902f1ac6040518163ffffffff1660e01b815260040160606040518083038186803b158015611e2357600080fd5b6001600160a01b0381168114610f1b57600080fd5b600060208284031215613a8f57600080fd5b813561264a81613a68565b60005b83811015613ab5578181015183820152602001613a9d565b83811115613ac4576000848401525b50505050565b60008151808452613ae2816020860160208601613a9a565b601f01601f19169290920160200192915050565b6020815260008251610220806020850152613b15610240850183613aca565b91506020850151601f19858403016040860152613b328382613aca565b9250506040850151613b49606086018260ff169052565b5060608501516080850152608085015160a085015260a0850151613b7160c086018215159052565b5060c085015160e085015260e0850151610100818187015280870151915050610120613ba08187018315159052565b8601516101408681019190915286015161016080870191909152860151610180808701919091528601516101a0808701919091528601516101c0808701919091528601516101e080870191909152860151610200808701919091529095015193019290925250919050565b600080600080600060a08688031215613c2357600080fd5b8535613c2e81613a68565b94506020860135613c3e81613a68565b93506040860135613c4e81613a68565b92506060860135613c5e81613a68565b91506080860135613c6e81613a68565b809150509295509295909350565b60008060208385031215613c8f57600080fd5b823567ffffffffffffffff80821115613ca757600080fd5b818501915085601f830112613cbb57600080fd5b813581811115613cca57600080fd5b866020828501011115613cdc57600080fd5b60209290920196919550909350505050565b60008060008060008060c08789031215613d0757600080fd5b8635613d1281613a68565b95506020870135613d2281613a68565b94506040870135613d3281613a68565b93506060870135613d4281613a68565b92506080870135613d5281613a68565b915060a0870135613d6281613a68565b809150509295509295509295565b600060208284031215613d8257600080fd5b815161264a81613a68565b8051801515811461314457600080fd5b600080600080600080600060e0888a031215613db857600080fd5b613dc188613d8d565b96506020880151955060408801519450613ddd60608901613d8d565b93506080880151925060a0880151915060c0880151905092959891949750929550565b634e487b7160e01b600052604160045260246000fd5b604051610120810167ffffffffffffffff81118282101715613e3a57613e3a613e00565b60405290565b6040805190810167ffffffffffffffff81118282101715613e3a57613e3a613e00565b604051601f8201601f1916810167ffffffffffffffff81118282101715613e8c57613e8c613e00565b604052919050565b600060208284031215613ea657600080fd5b815167ffffffffffffffff80821115613ebe57600080fd5b818401915084601f830112613ed257600080fd5b815181811115613ee457613ee4613e00565b613ef7601f8201601f1916602001613e63565b9150808252856020828501011115613f0e57600080fd5b613f1f816020840160208601613a9a565b50949350505050565b600060208284031215613f3a57600080fd5b815160ff8116811461264a57600080fd5b600060208284031215613f5d57600080fd5b5051919050565b6020808252600c908201526b15539055551213d49256915160a21b604082015260600190565b60208152816020820152818360408301376000818301604090810191909152601f909201601f19160101919050565b600067ffffffffffffffff821115613fd357613fd3613e00565b5060051b60200190565b60006020808385031215613ff057600080fd5b825167ffffffffffffffff81111561400757600080fd5b8301601f8101851361401857600080fd5b805161402b61402682613fb9565b613e63565b81815260059190911b8201830190838101908783111561404a57600080fd5b928401925b82841015611e9d57835161406281613a68565b8252928401929084019061404f565b805169ffffffffffffffffffff8116811461314457600080fd5b600080600080600060a086880312156140a357600080fd5b6140ac86614071565b94506020860151935060408601519250606086015191506140cf60808701614071565b90509295509295909350565b634e487b7160e01b600052603260045260246000fd5b634e487b7160e01b600052601160045260246000fd5b6000821982111561411a5761411a6140f1565b500190565b6000600019821415614133576141336140f1565b5060010190565b60008261415757634e487b7160e01b600052601260045260246000fd5b500490565b6000816000190483118215151615614176576141766140f1565b500290565b6000806000806080858703121561419157600080fd5b505082516020840151604085015160609095015191969095509092509050565b600080604083850312156141c457600080fd5b505080516020909101519092909150565b80516001600160701b038116811461314457600080fd5b60008060006060848603121561420157600080fd5b61420a846141d5565b9250614218602085016141d5565b9150604084015163ffffffff8116811461423157600080fd5b809150509250925092565b6000610120828403121561424f57600080fd5b614257613e16565b825181526020830151602082015260408301516040820152606083015160608201526080830151608082015260a083015160a082015260c083015160c08201526142a360e08401613d8d565b60e0820152610100928301519281019290925250919050565b600080600080600060a086880312156142d457600080fd5b855194506020860151935060408601519250606086015191506140cf60808701613d8d565b60008282101561430b5761430b6140f1565b500390565b6000602080838503121561432357600080fd5b825167ffffffffffffffff81111561433a57600080fd5b8301601f8101851361434b57600080fd5b805161435961402682613fb9565b81815260069190911b8201830190838101908783111561437857600080fd5b928401925b82841015611e9d57604084890312156143965760008081fd5b61439e613e40565b84516143a981613a68565b8152848601518682015282526040909301929084019061437d565b6020808252602e908201527f496e697469616c697a61626c653a20636f6e747261637420697320616c72656160408201526d191e481a5b9a5d1a585b1a5e995960921b606082015260800190565b600080600080600060a0868803121561442a57600080fd5b855161443581613a68565b809550506020860151935060408601519250606086015161445581613a68565b80925050608086015190509295509295909350565b600080600080600060a0868803121561448257600080fd5b855161448d81613a68565b602087015160408801516060890151608090990151929a9199509796509094509250505056fea2646970667358221220804f5e84615fdf772eca8f763bb29ced6be4de847dec13d775c0c455ccc75d8e64736f6c63430008090033",
  "devdoc": {
    "kind": "dev",
    "methods": {},
    "version": 1
  },
  "userdoc": {
    "kind": "user",
    "methods": {},
    "version": 1
  },
  "storageLayout": {
    "storage": [
      {
        "astId": 6,
        "contract": "contracts/ExtendableBondedReaderCake.sol:ExtendableBondedReaderCake",
        "label": "_initialized",
        "offset": 0,
        "slot": "0",
        "type": "t_uint8"
      },
      {
        "astId": 9,
        "contract": "contracts/ExtendableBondedReaderCake.sol:ExtendableBondedReaderCake",
        "label": "_initializing",
        "offset": 1,
        "slot": "0",
        "type": "t_bool"
      },
      {
        "astId": 3923,
        "contract": "contracts/ExtendableBondedReaderCake.sol:ExtendableBondedReaderCake",
        "label": "admin",
        "offset": 2,
        "slot": "0",
        "type": "t_address"
      },
      {
        "astId": 7261,
        "contract": "contracts/ExtendableBondedReaderCake.sol:ExtendableBondedReaderCake",
        "label": "registry",
        "offset": 0,
        "slot": "1",
        "type": "t_contract(ExtendableBondRegistry)7185"
      },
      {
        "astId": 7264,
        "contract": "contracts/ExtendableBondedReaderCake.sol:ExtendableBondedReaderCake",
        "label": "pancakePool",
        "offset": 0,
        "slot": "2",
        "type": "t_contract(ICakePool)2240"
      },
      {
        "astId": 7267,
        "contract": "contracts/ExtendableBondedReaderCake.sol:ExtendableBondedReaderCake",
        "label": "pancakeMasterChef",
        "offset": 0,
        "slot": "3",
        "type": "t_contract(MasterChefV2)6030"
      },
      {
        "astId": 7270,
        "contract": "contracts/ExtendableBondedReaderCake.sol:ExtendableBondedReaderCake",
        "label": "pairTokenAddress__CAKE_BUSD",
        "offset": 0,
        "slot": "4",
        "type": "t_contract(IPancakePair)2482"
      },
      {
        "astId": 7273,
        "contract": "contracts/ExtendableBondedReaderCake.sol:ExtendableBondedReaderCake",
        "label": "pairTokenAddress__DUET_anyUSD",
        "offset": 0,
        "slot": "5",
        "type": "t_contract(IPancakePair)2482"
      },
      {
        "astId": 7276,
        "contract": "contracts/ExtendableBondedReaderCake.sol:ExtendableBondedReaderCake",
        "label": "cakeOracle",
        "offset": 0,
        "slot": "6",
        "type": "t_contract(IOracle)8201"
      }
    ],
    "types": {
      "t_address": {
        "encoding": "inplace",
        "label": "address",
        "numberOfBytes": "20"
      },
      "t_bool": {
        "encoding": "inplace",
        "label": "bool",
        "numberOfBytes": "1"
      },
      "t_contract(ExtendableBondRegistry)7185": {
        "encoding": "inplace",
        "label": "contract ExtendableBondRegistry",
        "numberOfBytes": "20"
      },
      "t_contract(ICakePool)2240": {
        "encoding": "inplace",
        "label": "contract ICakePool",
        "numberOfBytes": "20"
      },
      "t_contract(IOracle)8201": {
        "encoding": "inplace",
        "label": "contract IOracle",
        "numberOfBytes": "20"
      },
      "t_contract(IPancakePair)2482": {
        "encoding": "inplace",
        "label": "contract IPancakePair",
        "numberOfBytes": "20"
      },
      "t_contract(MasterChefV2)6030": {
        "encoding": "inplace",
        "label": "contract MasterChefV2",
        "numberOfBytes": "20"
      },
      "t_uint8": {
        "encoding": "inplace",
        "label": "uint8",
        "numberOfBytes": "1"
      }
    }
  }
}