{
  "address": "0x2223D6504b527A9208cdc90b43d89ABb27Fb037C",
  "abi": [
    {
      "anonymous": false,
      "inputs": [
        {
          "indexed": true,
          "internalType": "address",
          "name": "user",
          "type": "address"
        },
        {
          "indexed": true,
          "internalType": "address",
          "name": "newAdmin",
          "type": "address"
        }
      ],
      "name": "AdminUpdated",
      "type": "event"
    },
    {
      "anonymous": false,
      "inputs": [
        {
          "indexed": false,
          "internalType": "uint8",
          "name": "version",
          "type": "uint8"
        }
      ],
      "name": "Initialized",
      "type": "event"
    },
    {
      "inputs": [
        {
          "internalType": "contract IExtendableBondedCake",
          "name": "eb_",
          "type": "address"
        }
      ],
      "name": "addressBook",
      "outputs": [
        {
          "components": [
            {
              "internalType": "address",
              "name": "underlyingToken",
              "type": "address"
            },
            {
              "internalType": "address",
              "name": "bondToken",
              "type": "address"
            },
            {
              "internalType": "address",
              "name": "lpToken",
              "type": "address"
            },
            {
              "internalType": "address",
              "name": "bondFarmingPool",
              "type": "address"
            },
            {
              "internalType": "address",
              "name": "bondLpFarmingPool",
              "type": "address"
            },
            {
              "internalType": "uint256",
              "name": "bondFarmingPoolId",
              "type": "uint256"
            },
            {
              "internalType": "uint256",
              "name": "bondLpFarmingPoolId",
              "type": "uint256"
            },
            {
              "internalType": "address",
              "name": "pancakePool",
              "type": "address"
            }
          ],
          "internalType": "struct ExtendableBondedReaderCake.AddressBook",
          "name": "book",
          "type": "tuple"
        }
      ],
      "stateMutability": "view",
      "type": "function"
    },
    {
      "inputs": [],
      "name": "admin",
      "outputs": [
        {
          "internalType": "address",
          "name": "",
          "type": "address"
        }
      ],
      "stateMutability": "view",
      "type": "function"
    },
    {
      "inputs": [
        {
          "internalType": "string",
          "name": "groupName_",
          "type": "string"
        }
      ],
      "name": "extendableBondGroupInfo",
      "outputs": [
        {
          "components": [
            {
              "internalType": "uint256",
              "name": "allEbStacked",
              "type": "uint256"
            },
            {
              "internalType": "uint256",
              "name": "ebCommonPriceAsUsd",
              "type": "uint256"
            },
            {
              "internalType": "uint256",
              "name": "duetSideAPR",
              "type": "uint256"
            },
            {
              "internalType": "uint256",
              "name": "underlyingSideAPR",
              "type": "uint256"
            }
          ],
          "internalType": "struct ExtendableBondedReaderCake.ExtendableBondGroupInfo",
          "name": "",
          "type": "tuple"
        }
      ],
      "stateMutability": "view",
      "type": "function"
    },
    {
      "inputs": [
        {
          "internalType": "contract IExtendableBond",
          "name": "eb_",
          "type": "address"
        }
      ],
      "name": "extendableBondLpStakePackageUserInfo",
      "outputs": [
        {
          "components": [
            {
              "internalType": "uint256",
              "name": "lpStake_underlyingStaked",
              "type": "uint256"
            },
            {
              "internalType": "uint256",
              "name": "lpStake_bondStaked",
              "type": "uint256"
            },
            {
              "internalType": "uint256",
              "name": "lpStake_lpStaked",
              "type": "uint256"
            },
            {
              "internalType": "uint256",
              "name": "lpStake_ebPendingRewards",
              "type": "uint256"
            },
            {
              "internalType": "uint256",
              "name": "lpStake_lpClaimedRewards",
              "type": "uint256"
            },
            {
              "internalType": "uint256",
              "name": "lpStake_bDuetPendingRewards",
              "type": "uint256"
            },
            {
              "internalType": "uint256",
              "name": "lpStake_bDuetClaimedRewards",
              "type": "uint256"
            }
          ],
          "internalType": "struct ExtendableBondReader.ExtendableBondLpStakePackageUserInfo",
          "name": "",
          "type": "tuple"
        }
      ],
      "stateMutability": "view",
      "type": "function"
    },
    {
      "inputs": [
        {
          "internalType": "contract IExtendableBond",
          "name": "eb_",
          "type": "address"
        }
      ],
      "name": "extendableBondPackagePublicInfo",
      "outputs": [
        {
          "components": [
            {
              "internalType": "string",
              "name": "name",
              "type": "string"
            },
            {
              "internalType": "string",
              "name": "symbol",
              "type": "string"
            },
            {
              "internalType": "uint8",
              "name": "decimals",
              "type": "uint8"
            },
            {
              "internalType": "uint256",
              "name": "underlyingUsdPrice",
              "type": "uint256"
            },
            {
              "internalType": "uint256",
              "name": "bondUnderlyingPrice",
              "type": "uint256"
            },
            {
              "internalType": "bool",
              "name": "convertable",
              "type": "bool"
            },
            {
              "internalType": "uint256",
              "name": "convertableFrom",
              "type": "uint256"
            },
            {
              "internalType": "uint256",
              "name": "convertableEnd",
              "type": "uint256"
            },
            {
              "internalType": "bool",
              "name": "redeemable",
              "type": "bool"
            },
            {
              "internalType": "uint256",
              "name": "redeemableFrom",
              "type": "uint256"
            },
            {
              "internalType": "uint256",
              "name": "redeemableEnd",
              "type": "uint256"
            },
            {
              "internalType": "uint256",
              "name": "maturity",
              "type": "uint256"
            },
            {
              "internalType": "uint256",
              "name": "underlyingAPY",
              "type": "uint256"
            },
            {
              "internalType": "uint256",
              "name": "singleStake_totalStaked",
              "type": "uint256"
            },
            {
              "internalType": "uint256",
              "name": "singleStake_bDuetAPR",
              "type": "uint256"
            },
            {
              "internalType": "uint256",
              "name": "lpStake_totalStaked",
              "type": "uint256"
            },
            {
              "internalType": "uint256",
              "name": "lpStake_bDuetAPR",
              "type": "uint256"
            }
          ],
          "internalType": "struct ExtendableBondReader.ExtendableBondPackagePublicInfo",
          "name": "",
          "type": "tuple"
        }
      ],
      "stateMutability": "view",
      "type": "function"
    },
    {
      "inputs": [
        {
          "internalType": "contract IExtendableBond",
          "name": "eb_",
          "type": "address"
        }
      ],
      "name": "extendableBondSingleStakePackageUserInfo",
      "outputs": [
        {
          "components": [
            {
              "internalType": "int256",
              "name": "singleStake_staked",
              "type": "int256"
            },
            {
              "internalType": "int256",
              "name": "singleStake_ebEarnedToDate",
              "type": "int256"
            },
            {
              "internalType": "uint256",
              "name": "singleStake_bDuetPendingRewards",
              "type": "uint256"
            },
            {
              "internalType": "uint256",
              "name": "singleStake_bDuetClaimedRewards",
              "type": "uint256"
            }
          ],
          "internalType": "struct ExtendableBondReader.ExtendableBondSingleStakePackageUserInfo",
          "name": "",
          "type": "tuple"
        }
      ],
      "stateMutability": "view",
      "type": "function"
    },
    {
      "inputs": [
        {
          "internalType": "address",
          "name": "admin_",
          "type": "address"
        },
        {
          "internalType": "address",
          "name": "registry_",
          "type": "address"
        },
        {
          "internalType": "address",
          "name": "pancakePool_",
          "type": "address"
        },
        {
          "internalType": "address",
          "name": "pancakeMasterChef_",
          "type": "address"
        },
        {
          "internalType": "address",
          "name": "pairTokenAddress__CAKE_BUSD_",
          "type": "address"
        },
        {
          "internalType": "address",
          "name": "pairTokenAddress__DUET_anyUSD_",
          "type": "address"
        }
      ],
      "name": "initialize",
      "outputs": [],
      "stateMutability": "nonpayable",
      "type": "function"
    },
    {
      "inputs": [],
      "name": "pairTokenAddress__CAKE_BUSD",
      "outputs": [
        {
          "internalType": "contract IPancakePair",
          "name": "",
          "type": "address"
        }
      ],
      "stateMutability": "view",
      "type": "function"
    },
    {
      "inputs": [],
      "name": "pairTokenAddress__DUET_anyUSD",
      "outputs": [
        {
          "internalType": "contract IPancakePair",
          "name": "",
          "type": "address"
        }
      ],
      "stateMutability": "view",
      "type": "function"
    },
    {
      "inputs": [],
      "name": "pancakeMasterChef",
      "outputs": [
        {
          "internalType": "contract MasterChefV2",
          "name": "",
          "type": "address"
        }
      ],
      "stateMutability": "view",
      "type": "function"
    },
    {
      "inputs": [],
      "name": "pancakePool",
      "outputs": [
        {
          "internalType": "contract ICakePool",
          "name": "",
          "type": "address"
        }
      ],
      "stateMutability": "view",
      "type": "function"
    },
    {
      "inputs": [],
      "name": "registry",
      "outputs": [
        {
          "internalType": "contract ExtendableBondRegistry",
          "name": "",
          "type": "address"
        }
      ],
      "stateMutability": "view",
      "type": "function"
    },
    {
      "inputs": [
        {
          "internalType": "address",
          "name": "newAdmin",
          "type": "address"
        }
      ],
      "name": "setAdmin",
      "outputs": [],
      "stateMutability": "nonpayable",
      "type": "function"
    },
    {
      "inputs": [
        {
          "internalType": "address",
          "name": "registry_",
          "type": "address"
        },
        {
          "internalType": "address",
          "name": "pancakePool_",
          "type": "address"
        },
        {
          "internalType": "address",
          "name": "pancakeMasterChef_",
          "type": "address"
        },
        {
          "internalType": "address",
          "name": "pairTokenAddress__CAKE_BUSD_",
          "type": "address"
        },
        {
          "internalType": "address",
          "name": "pairTokenAddress__DUET_anyUSD_",
          "type": "address"
        }
      ],
      "name": "updateReferences",
      "outputs": [],
      "stateMutability": "nonpayable",
      "type": "function"
    }
  ],
  "transactionHash": "0x7e8fbcf8a02a7776e03c0132732f6283d9ef88d645434e5ec12187506fb9bdf9",
  "args": [],
  "numDeployments": 1,
  "solcInputHash": "49a2df2cb8e34b9c0756d07ceb95c4c4",
  "bytecode": "0x608060405234801561001057600080fd5b5061423f806100206000396000f3fe608060405234801561001057600080fd5b50600436106100ea5760003560e01c80639590cf281161008c578063ca5ee5ab11610066578063ca5ee5ab146102d6578063cc2a9a5b146102e9578063cdab5bed146102fc578063f851a4401461030f57600080fd5b80639590cf281461022d578063aba19e60146102b0578063c8bac060146102c357600080fd5b8063602cc58f116100c8578063602cc58f14610158578063704b6c021461019e57806373283dac146101b15780637b1039991461021a57600080fd5b806319ca7b74146100ef5780634049744f146101185780635efcc2851461012d575b600080fd5b6101026100fd366004613857565b610328565b60405161010f91906138d0565b60405180910390f35b61012b6101263660046139e5565b610892565b005b600554610140906001600160a01b031681565b6040516001600160a01b03909116815260200161010f565b61016b610166366004613a56565b610b7f565b60405161010f91908151815260208083015190820152604080830151908201526060918201519181019190915260800190565b61012b6101ac366004613857565b610daa565b6101c46101bf366004613857565b610e05565b60405161010f9190600060e082019050825182526020830151602083015260408301516040830152606083015160608301526080830151608083015260a083015160a083015260c083015160c083015292915050565b600154610140906001600160a01b031681565b61024061023b366004613857565b611085565b60405161010f919081516001600160a01b03908116825260208084015182169083015260408084015182169083015260608084015182169083015260808084015182169083015260a0838101519083015260c0808401519083015260e09283015116918101919091526101000190565b600254610140906001600160a01b031681565b600354610140906001600160a01b031681565b600454610140906001600160a01b031681565b61012b6102f7366004613ac8565b6115e2565b61016b61030a366004613857565b6116c1565b600054610140906201000090046001600160a01b031681565b6103b66040518061022001604052806060815260200160608152602001600060ff1681526020016000815260200160008152602001600015158152602001600081526020016000815260200160001515815260200160008152602001600081526020016000815260200160008152602001600081526020016000815260200160008152602001600081525090565b6000826001600160a01b031663b3cb305b6040518163ffffffff1660e01b815260040160206040518083038186803b1580156103f157600080fd5b505afa158015610405573d6000803e3d6000fd5b505050506040513d601f19601f820116820180604052508101906104299190613b4a565b90506000836001600160a01b0316635cb7758e6040518163ffffffff1660e01b815260040160206040518083038186803b15801561046657600080fd5b505afa15801561047a573d6000803e3d6000fd5b505050506040513d601f19601f8201168201806040525081019061049e9190613b4a565b905060008060008060008060008a6001600160a01b0316633dae08cc6040518163ffffffff1660e01b815260040160e06040518083038186803b1580156104e457600080fd5b505afa1580156104f8573d6000803e3d6000fd5b505050506040513d601f19601f8201168201806040525081019061051c9190613b77565b965096509650965096509650965060008b6001600160a01b031663c28f43926040518163ffffffff1660e01b815260040160206040518083038186803b15801561056557600080fd5b505afa158015610579573d6000803e3d6000fd5b505050506040513d601f19601f8201168201806040525081019061059d9190613b4a565b90506000604051806102200160405280836001600160a01b03166306fdde036040518163ffffffff1660e01b815260040160006040518083038186803b1580156105e657600080fd5b505afa1580156105fa573d6000803e3d6000fd5b505050506040513d6000823e601f3d908101601f191682016040526106229190810190613c6e565b8152602001836001600160a01b03166395d89b416040518163ffffffff1660e01b815260040160006040518083038186803b15801561066057600080fd5b505afa158015610674573d6000803e3d6000fd5b505050506040513d6000823e601f3d908101601f1916820160405261069c9190810190613c6e565b8152602001836001600160a01b031663313ce5676040518163ffffffff1660e01b815260040160206040518083038186803b1580156106da57600080fd5b505afa1580156106ee573d6000803e3d6000fd5b505050506040513d601f19601f820116820180604052508101906107129190613d02565b60ff1681526020016107238f611a49565b81526020016107318f611c82565b81526020018a15158152602001898152602001888152602001871515815260200186815260200185815260200184815260200161076d8f611e21565b81526040516335d670f360e21b8152600060048201526020909101906001600160a01b038e169063d759c3cc9060240160206040518083038186803b1580156107b557600080fd5b505afa1580156107c9573d6000803e3d6000fd5b505050506040513d601f19601f820116820180604052508101906107ed9190613d25565b81526020016107fb8f612334565b81526020018b6001600160a01b031663532d73976040518163ffffffff1660e01b815260040160206040518083038186803b15801561083957600080fd5b505afa15801561084d573d6000803e3d6000fd5b505050506040513d601f19601f820116820180604052508101906108719190613d25565b815260200161087f8f61242b565b90529d9c50505050505050505050505050565b6000546201000090046001600160a01b031633146108e65760405162461bcd60e51b815260206004820152600c60248201526b15539055551213d49256915160a21b60448201526064015b60405180910390fd5b6001600160a01b0385166109465760405162461bcd60e51b815260206004820152602160248201527f43616e742073657420526567697374727920746f207a65726f206164647265736044820152607360f81b60648201526084016108dd565b600180546001600160a01b0319166001600160a01b038781169190911790915584166109c05760405162461bcd60e51b8152602060048201526024808201527f43616e74207365742050616e63616b65506f6f6c20746f207a65726f206164646044820152637265737360e01b60648201526084016108dd565b600280546001600160a01b0319166001600160a01b03868116919091179091558316610a415760405162461bcd60e51b815260206004820152602a60248201527f43616e74207365742050616e63616b654d61737465724368656620746f207a65604482015269726f206164647265737360b01b60648201526084016108dd565b600380546001600160a01b0319166001600160a01b03858116919091179091558216610acc5760405162461bcd60e51b815260206004820152603460248201527f43616e74207365742050616972546f6b656e416464726573735f5f43414b455f6044820152734255534420746f207a65726f206164647265737360601b60648201526084016108dd565b600480546001600160a01b0319166001600160a01b03848116919091179091558116610b595760405162461bcd60e51b815260206004820152603660248201527f43616e74207365742070616972546f6b656e416464726573735f5f445545545f604482015275616e7955534420746f207a65726f206164647265737360501b60648201526084016108dd565b600580546001600160a01b0319166001600160a01b039290921691909117905550505050565b610baa6040518060800160405280600081526020016000815260200160008152602001600081525090565b60015460405163e0ea7b3160e01b8152600091829182916001600160a01b03169063e0ea7b3190610be19089908990600401613d3e565b60006040518083038186803b158015610bf957600080fd5b505afa158015610c0d573d6000803e3d6000fd5b505050506040513d6000823e601f3d908101601f19168201604052610c359190810190613d91565b90506000805b8251811015610d52576000838281518110610c5857610c58613e25565b602002602001015190506000819050806001600160a01b0316634a1dfebf6040518163ffffffff1660e01b815260040160206040518083038186803b158015610ca057600080fd5b505afa158015610cb4573d6000803e3d6000fd5b505050506040513d601f19601f82011682018060405250810190610cd89190613d25565b610ce29088613e51565b9650610ced81611a49565b610cf79087613e51565b95506000610d0482611e21565b90506000610d23610d148461242b565b610d1d85612334565b9061243a565b9050610d39610d328284613e51565b879061243a565b9550505050508080610d4a90613e69565b915050610c3b565b50600080835111610d64576000610d70565b8251610d709085613e84565b90506000610d7c612451565b6040805160808101825297885260208801939093529186019290925260608501525091925050505b92915050565b6000546201000090046001600160a01b03163314610df95760405162461bcd60e51b815260206004820152600c60248201526b15539055551213d49256915160a21b60448201526064016108dd565b610e0281612854565b50565b610e456040518060e00160405280600081526020016000815260200160008152602001600081526020016000815260200160008152602001600081525090565b3380610e8c5760405162461bcd60e51b8152602060048201526016602482015275496e76616c69642073656e646572206164647265737360501b60448201526064016108dd565b6000836001600160a01b0316635cb7758e6040518163ffffffff1660e01b815260040160206040518083038186803b158015610ec757600080fd5b505afa158015610edb573d6000803e3d6000fd5b505050506040513d601f19601f82011682018060405250810190610eff9190613b4a565b604051635d0eaaaf60e01b81526001600160a01b038481166004830152919250600091829190841690635d0eaaaf9060240160806040518083038186803b158015610f4957600080fd5b505afa158015610f5d573d6000803e3d6000fd5b505050506040513d601f19601f82011682018060405250810190610f819190613ea6565b935050509150600080610f948885612909565b915091506000610fad89610fa78b612962565b89612a49565b6040516367be08fd60e11b81526001600160a01b03898116600483015291925060009188169063cf7c11fa9060240160206040518083038186803b158015610ff457600080fd5b505afa158015611008573d6000803e3d6000fd5b505050506040513d601f19601f8201168201806040525081019061102c9190613d25565b905060006110438b61103d8d612962565b8b612c81565b6040805160e0810182529687526020870195909552938501969096526060840152608083019390935260a082019290925260c081019190915295945050505050565b6040805161010081018252600080825260208201819052918101829052606081018290526080810182905260a0810182905260c0810182905260e08101919091526000826001600160a01b031663b3cb305b6040518163ffffffff1660e01b815260040160206040518083038186803b15801561110157600080fd5b505afa158015611115573d6000803e3d6000fd5b505050506040513d601f19601f820116820180604052508101906111399190613b4a565b90506000836001600160a01b0316635cb7758e6040518163ffffffff1660e01b815260040160206040518083038186803b15801561117657600080fd5b505afa15801561118a573d6000803e3d6000fd5b505050506040513d601f19601f820116820180604052508101906111ae9190613b4a565b9050836001600160a01b0316632495a5996040518163ffffffff1660e01b815260040160206040518083038186803b1580156111e957600080fd5b505afa1580156111fd573d6000803e3d6000fd5b505050506040513d601f19601f820116820180604052508101906112219190613b4a565b6001600160a01b03908116845260408051636147a1c960e11b815290519186169163c28f439291600480820192602092909190829003018186803b15801561126857600080fd5b505afa15801561127c573d6000803e3d6000fd5b505050506040513d601f19601f820116820180604052508101906112a09190613b4a565b83602001906001600160a01b031690816001600160a01b031681525050806001600160a01b0316635fcbd2856040518163ffffffff1660e01b815260040160206040518083038186803b1580156112f657600080fd5b505afa15801561130a573d6000803e3d6000fd5b505050506040513d601f19601f8201168201806040525081019061132e9190613b4a565b83604001906001600160a01b031690816001600160a01b031681525050836001600160a01b031663b3cb305b6040518163ffffffff1660e01b815260040160206040518083038186803b15801561138457600080fd5b505afa158015611398573d6000803e3d6000fd5b505050506040513d601f19601f820116820180604052508101906113bc9190613b4a565b83606001906001600160a01b031690816001600160a01b031681525050836001600160a01b0316635cb7758e6040518163ffffffff1660e01b815260040160206040518083038186803b15801561141257600080fd5b505afa158015611426573d6000803e3d6000fd5b505050506040513d601f19601f8201168201806040525081019061144a9190613b4a565b83608001906001600160a01b031690816001600160a01b031681525050816001600160a01b031663c62c610b6040518163ffffffff1660e01b815260040160206040518083038186803b1580156114a057600080fd5b505afa1580156114b4573d6000803e3d6000fd5b505050506040513d601f19601f820116820180604052508101906114d89190613d25565b8360a0018181525050806001600160a01b031663c62c610b6040518163ffffffff1660e01b815260040160206040518083038186803b15801561151a57600080fd5b505afa15801561152e573d6000803e3d6000fd5b505050506040513d601f19601f820116820180604052508101906115529190613d25565b8360c0018181525050836001600160a01b031663ed64a9676040518163ffffffff1660e01b815260040160206040518083038186803b15801561159457600080fd5b505afa1580156115a8573d6000803e3d6000fd5b505050506040513d601f19601f820116820180604052508101906115cc9190613b4a565b6001600160a01b031660e0840152509092915050565b60006115ee6001612e96565b90508015611606576000805461ff0019166101001790555b6001600160a01b03871661165c5760405162461bcd60e51b815260206004820152601e60248201527f43616e74207365742061646d696e20746f207a65726f2061646472657373000060448201526064016108dd565b61166587612854565b6116728686868686610892565b80156116b8576000805461ff0019169055604051600181527f7f26b83ff96e1f2b6a682f133852f6798a09c465da95921460cefb38474024989060200160405180910390a15b50505050505050565b6116ec6040518060800160405280600081526020016000815260200160008152602001600081525090565b33806117335760405162461bcd60e51b8152602060048201526016602482015275496e76616c69642073656e646572206164647265737360501b60448201526064016108dd565b6000836001600160a01b031663b3cb305b6040518163ffffffff1660e01b815260040160206040518083038186803b15801561176e57600080fd5b505afa158015611782573d6000803e3d6000fd5b505050506040513d601f19601f820116820180604052508101906117a69190613b4a565b604051635d0eaaaf60e01b81526001600160a01b038481166004830152919250600091831690635d0eaaaf90602401604080518083038186803b1580156117ec57600080fd5b505afa158015611800573d6000803e3d6000fd5b505050506040513d601f19601f820116820180604052508101906118249190613edc565b50905060006118a486846001600160a01b031663c62c610b6040518163ffffffff1660e01b815260040160206040518083038186803b15801561186657600080fd5b505afa15801561187a573d6000803e3d6000fd5b505050506040513d601f19601f8201168201806040525081019061189e9190613d25565b86612a49565b9050600061192387856001600160a01b031663c62c610b6040518163ffffffff1660e01b815260040160206040518083038186803b1580156118e557600080fd5b505afa1580156118f9573d6000803e3d6000fd5b505050506040513d601f19601f8201168201806040525081019061191d9190613d25565b87612c81565b604080516080810191829052630ed1ca5960e31b90915260848101859052909150600090806001600160a01b03871663768e52c860a4830160206040518083038186803b15801561197357600080fd5b505afa158015611987573d6000803e3d6000fd5b505050506040513d601f19601f820116820180604052508101906119ab9190613d25565b815260405163015b078f60e31b81526001600160a01b038981166004830152602090920191881690630ad83c789060240160206040518083038186803b1580156119f457600080fd5b505afa158015611a08573d6000803e3d6000fd5b505050506040513d601f19601f82011682018060405250810190611a2c9190613d25565b815260208101949094526040909301919091525095945050505050565b600080826001600160a01b0316635cb7758e6040518163ffffffff1660e01b815260040160206040518083038186803b158015611a8557600080fd5b505afa158015611a99573d6000803e3d6000fd5b505050506040513d601f19601f82011682018060405250810190611abd9190613b4a565b90506000816001600160a01b0316635fcbd2856040518163ffffffff1660e01b815260040160206040518083038186803b158015611afa57600080fd5b505afa158015611b0e573d6000803e3d6000fd5b505050506040513d601f19601f82011682018060405250810190611b329190613b4a565b90506000816001600160a01b03166318160ddd6040518163ffffffff1660e01b815260040160206040518083038186803b158015611b6f57600080fd5b505afa158015611b83573d6000803e3d6000fd5b505050506040513d601f19601f82011682018060405250810190611ba79190613d25565b905080611bb957506000949350505050565b6004805460408051630240bc6b60e21b8152905160009384936001600160a01b031692630902f1ac9281830192606092829003018186803b158015611bfd57600080fd5b505afa158015611c11573d6000803e3d6000fd5b505050506040513d601f19601f82011682018060405250810190611c359190613f17565b506001600160701b031691506001600160701b031691508060001415611c62575060009695505050505050565b82611c6d8284613e84565b611c779190613f67565b979650505050505050565b600080826001600160a01b0316635cb7758e6040518163ffffffff1660e01b815260040160206040518083038186803b158015611cbe57600080fd5b505afa158015611cd2573d6000803e3d6000fd5b505050506040513d601f19601f82011682018060405250810190611cf69190613b4a565b90506000816001600160a01b0316635fcbd2856040518163ffffffff1660e01b815260040160206040518083038186803b158015611d3357600080fd5b505afa158015611d47573d6000803e3d6000fd5b505050506040513d601f19601f82011682018060405250810190611d6b9190613b4a565b9050600080826001600160a01b0316630902f1ac6040518163ffffffff1660e01b815260040160606040518083038186803b158015611da957600080fd5b505afa158015611dbd573d6000803e3d6000fd5b505050506040513d601f19601f82011682018060405250810190611de19190613f17565b506001600160701b031691506001600160701b031691508060001415611e0d5750600095945050505050565b611e178183613e84565b9695505050505050565b6000808290506000816001600160a01b031663ed64a9676040518163ffffffff1660e01b815260040160206040518083038186803b158015611e6257600080fd5b505afa158015611e76573d6000803e3d6000fd5b505050506040513d601f19601f82011682018060405250810190611e9a9190613b4a565b90506000816001600160a01b0316631959a002846001600160a01b031663c28f43926040518163ffffffff1660e01b815260040160206040518083038186803b158015611ee657600080fd5b505afa158015611efa573d6000803e3d6000fd5b505050506040513d601f19601f82011682018060405250810190611f1e9190613b4a565b6040516001600160e01b031960e084901b1681526001600160a01b0390911660048201526024016101206040518083038186803b158015611f5e57600080fd5b505afa158015611f72573d6000803e3d6000fd5b505050506040513d601f19601f82011682018060405250810190611f969190613f86565b600354604051631e9b828b60e01b81526000600482018190529293506001600160a01b0390911690631e9b828b9060240160206040518083038186803b158015611fdf57600080fd5b505afa158015611ff3573d6000803e3d6000fd5b505050506040513d601f19601f820116820180604052508101906120179190613d25565b600354604051631526fe2760e01b81526000600482018190529293506001600160a01b0390911690631526fe279060240160a06040518083038186803b15801561206057600080fd5b505afa158015612074573d6000803e3d6000fd5b505050506040513d601f19601f820116820180604052508101906120989190614006565b5050925050506000600360009054906101000a90046001600160a01b03166001600160a01b03166399d7e84a6040518163ffffffff1660e01b815260040160206040518083038186803b1580156120ee57600080fd5b505afa158015612102573d6000803e3d6000fd5b505050506040513d601f19601f820116820180604052508101906121269190613d25565b90508061213b57506000979650505050505050565b60006121478284613e84565b905060008161215962a0668087613f67565b6121639190613f67565b90506000600260009054906101000a90046001600160a01b03166001600160a01b03166377c7b8fc6040518163ffffffff1660e01b815260040160206040518083038186803b1580156121b557600080fd5b505afa1580156121c9573d6000803e3d6000fd5b505050506040513d601f19601f820116820180604052508101906121ed9190613d25565b90506000600260009054906101000a90046001600160a01b03166001600160a01b0316633a98ef396040518163ffffffff1660e01b815260040160206040518083038186803b15801561223f57600080fd5b505afa158015612253573d6000803e3d6000fd5b505050506040513d601f19601f820116820180604052508101906122779190613d25565b90506000818361228f670de0b6b3a764000087613f67565b6122999190613e84565b6122a39190613e84565b6122ae906064613f67565b9050600089608001518a60a001516122c6919061404f565b9050600064e8d4a510006301e133806122df848461243a565b6122ef906512309ce54000613f67565b6122f99190613e84565b6123039190613e84565b90506000612312826001613e51565b61231c9085613f67565b9050809e505050505050505050505050505050919050565b600080826001600160a01b031663b3cb305b6040518163ffffffff1660e01b815260040160206040518083038186803b15801561237057600080fd5b505afa158015612384573d6000803e3d6000fd5b505050506040513d601f19601f820116820180604052508101906123a89190613b4a565b905061242483826001600160a01b031663c62c610b6040518163ffffffff1660e01b815260040160206040518083038186803b1580156123e757600080fd5b505afa1580156123fb573d6000803e3d6000fd5b505050506040513d601f19601f8201168201806040525081019061241f9190613d25565b612f23565b9392505050565b6000610da48261241f84612962565b60008183101561244a5781612424565b5090919050565b600354604051631526fe2760e01b815260006004820181905291829182916001600160a01b031690631526fe279060240160a06040518083038186803b15801561249a57600080fd5b505afa1580156124ae573d6000803e3d6000fd5b505050506040513d601f19601f820116820180604052508101906124d29190614006565b9450509350505060008161256b57600360009054906101000a90046001600160a01b03166001600160a01b03166399d7e84a6040518163ffffffff1660e01b815260040160206040518083038186803b15801561252e57600080fd5b505afa158015612542573d6000803e3d6000fd5b505050506040513d601f19601f820116820180604052508101906125669190613d25565b6125f1565b600360009054906101000a90046001600160a01b03166001600160a01b031663c40d337b6040518163ffffffff1660e01b815260040160206040518083038186803b1580156125b957600080fd5b505afa1580156125cd573d6000803e3d6000fd5b505050506040513d601f19601f820116820180604052508101906125f19190613d25565b905080612602576000935050505090565b600061260e8285613e84565b600354604051631e9b828b60e01b815285151560048201529192506000916001600160a01b0390911690631e9b828b9060240160206040518083038186803b15801561265957600080fd5b505afa15801561266d573d6000803e3d6000fd5b505050506040513d601f19601f820116820180604052508101906126919190613d25565b61269b9083613f67565b90506000816126ad62a0668082613f67565b6126b79190613f67565b90506000600260009054906101000a90046001600160a01b03166001600160a01b03166377c7b8fc6040518163ffffffff1660e01b815260040160206040518083038186803b15801561270957600080fd5b505afa15801561271d573d6000803e3d6000fd5b505050506040513d601f19601f820116820180604052508101906127419190613d25565b90506000600260009054906101000a90046001600160a01b03166001600160a01b0316633a98ef396040518163ffffffff1660e01b815260040160206040518083038186803b15801561279357600080fd5b505afa1580156127a7573d6000803e3d6000fd5b505050506040513d601f19601f820116820180604052508101906127cb9190613d25565b9050600060646127db8385613f67565b6127e59190613e84565b9050806127fc576000995050505050505050505090565b600081612811670de0b6b3a764000087613f67565b61281b9190613e84565b90506002600061282c606483613e84565b61283790600161404f565b90506128438184613f67565b9c5050505050505050505050505090565b6001600160a01b0381166128b45760405162461bcd60e51b815260206004820152602160248201527f43616e206e6f74207365742061646d696e20746f207a65726f206164647265736044820152607360f81b60648201526084016108dd565b6000805462010000600160b01b031916620100006001600160a01b038416908102919091178255604051909133917f101b8081ff3b56bbf45deb824d86a3b0fd38b7e3dd42421105cf8abe9106db0b9190a350565b6000806000612917856133a7565b90506000806129258761350b565b9092509050826129358784613f67565b61293f9190613e84565b94508261294c8783613f67565b6129569190613e84565b93505050509250929050565b600080826001600160a01b0316635cb7758e6040518163ffffffff1660e01b815260040160206040518083038186803b15801561299e57600080fd5b505afa1580156129b2573d6000803e3d6000fd5b505050506040513d601f19601f820116820180604052508101906129d69190613b4a565b9050806001600160a01b031663c62c610b6040518163ffffffff1660e01b815260040160206040518083038186803b158015612a1157600080fd5b505afa158015612a25573d6000803e3d6000fd5b505050506040513d601f19601f820116820180604052508101906124249190613d25565b600080846001600160a01b031663b3cb305b6040518163ffffffff1660e01b815260040160206040518083038186803b158015612a8557600080fd5b505afa158015612a99573d6000803e3d6000fd5b505050506040513d601f19601f82011682018060405250810190612abd9190613b4a565b90506000816001600160a01b031663575a86b26040518163ffffffff1660e01b815260040160206040518083038186803b158015612afa57600080fd5b505afa158015612b0e573d6000803e3d6000fd5b505050506040513d601f19601f82011682018060405250810190612b329190613b4a565b6040516334637d4f60e21b8152600481018790526001600160a01b03868116602483015291925060009183169063d18df53c9060440160006040518083038186803b158015612b8057600080fd5b505afa158015612b94573d6000803e3d6000fd5b505050506040513d6000823e601f3d908101601f19168201604052612bbc9190810190614066565b905060005b826001600160a01b031663b3c799d66040518163ffffffff1660e01b815260040160206040518083038186803b158015612bfa57600080fd5b505afa158015612c0e573d6000803e3d6000fd5b505050506040513d601f19601f82011682018060405250810190612c329190613d25565b811015612c7657818181518110612c4b57612c4b613e25565b60200260200101516020015185612c629190613e51565b945080612c6e81613e69565b915050612bc1565b505050509392505050565b600080846001600160a01b031663b3cb305b6040518163ffffffff1660e01b815260040160206040518083038186803b158015612cbd57600080fd5b505afa158015612cd1573d6000803e3d6000fd5b505050506040513d601f19601f82011682018060405250810190612cf59190613b4a565b90506000816001600160a01b031663575a86b26040518163ffffffff1660e01b815260040160206040518083038186803b158015612d3257600080fd5b505afa158015612d46573d6000803e3d6000fd5b505050506040513d601f19601f82011682018060405250810190612d6a9190613b4a565b905060005b816001600160a01b031663b3c799d66040518163ffffffff1660e01b815260040160206040518083038186803b158015612da857600080fd5b505afa158015612dbc573d6000803e3d6000fd5b505050506040513d601f19601f82011682018060405250810190612de09190613d25565b811015612e8c57604051630781d12560e11b8152600481018790526001600160a01b03868116602483015260448201839052831690630f03a24a9060640160206040518083038186803b158015612e3657600080fd5b505afa158015612e4a573d6000803e3d6000fd5b505050506040513d601f19601f82011682018060405250810190612e6e9190613d25565b612e789085613e51565b935080612e8481613e69565b915050612d6f565b5050509392505050565b60008054610100900460ff1615612edd578160ff166001148015612eb95750303b155b612ed55760405162461bcd60e51b81526004016108dd9061411a565b506000919050565b60005460ff808416911610612f045760405162461bcd60e51b81526004016108dd9061411a565b506000805460ff191660ff92909216919091179055600190565b919050565b600080836001600160a01b031663c28f43926040518163ffffffff1660e01b815260040160206040518083038186803b158015612f5f57600080fd5b505afa158015612f73573d6000803e3d6000fd5b505050506040513d601f19601f82011682018060405250810190612f979190613b4a565b6001600160a01b03166318160ddd6040518163ffffffff1660e01b815260040160206040518083038186803b158015612fcf57600080fd5b505afa158015612fe3573d6000803e3d6000fd5b505050506040513d601f19601f820116820180604052508101906130079190613d25565b9050806130145750610da4565b6000846001600160a01b031663b3cb305b6040518163ffffffff1660e01b815260040160206040518083038186803b15801561304f57600080fd5b505afa158015613063573d6000803e3d6000fd5b505050506040513d601f19601f820116820180604052508101906130879190613b4a565b90506000816001600160a01b031663575a86b26040518163ffffffff1660e01b815260040160206040518083038186803b1580156130c457600080fd5b505afa1580156130d8573d6000803e3d6000fd5b505050506040513d601f19601f820116820180604052508101906130fc9190613b4a565b90506000816001600160a01b03166317caf6f16040518163ffffffff1660e01b815260040160206040518083038186803b15801561313957600080fd5b505afa15801561314d573d6000803e3d6000fd5b505050506040513d601f19601f820116820180604052508101906131719190613d25565b9050806131815750505050610da4565b600061318c88613681565b9050600061319989611a49565b9050806131ab57505050505050610da4565b604051631526fe2760e01b8152600481018990526000906001600160a01b03861690631526fe279060240160a06040518083038186803b1580156131ee57600080fd5b505afa158015613202573d6000803e3d6000fd5b505050506040513d601f19601f820116820180604052508101906132269190614168565b50505091505060005b856001600160a01b031663b3c799d66040518163ffffffff1660e01b815260040160206040518083038186803b15801561326857600080fd5b505afa15801561327c573d6000803e3d6000fd5b505050506040513d601f19601f820116820180604052508101906132a09190613d25565b8110156133995760405163e11f2f7d60e01b8152600481018290526000906001600160a01b0388169063e11f2f7d9060240160a06040518083038186803b1580156132ea57600080fd5b505afa1580156132fe573d6000803e3d6000fd5b505050506040513d601f19601f8201168201806040525081019061332291906141c0565b50505091505083896133349190613f67565b8562a06680888661334786612710613f67565b6133519190613f67565b61335b9190613e84565b6133659190613f67565b61336f9190613f67565b6133799190613e84565b613383908b613e51565b995050808061339190613e69565b91505061322f565b505050505050505092915050565b600080826001600160a01b0316635cb7758e6040518163ffffffff1660e01b815260040160206040518083038186803b1580156133e357600080fd5b505afa1580156133f7573d6000803e3d6000fd5b505050506040513d601f19601f8201168201806040525081019061341b9190613b4a565b90506000816001600160a01b0316635fcbd2856040518163ffffffff1660e01b815260040160206040518083038186803b15801561345857600080fd5b505afa15801561346c573d6000803e3d6000fd5b505050506040513d601f19601f820116820180604052508101906134909190613b4a565b9050806001600160a01b03166318160ddd6040518163ffffffff1660e01b815260040160206040518083038186803b1580156134cb57600080fd5b505afa1580156134df573d6000803e3d6000fd5b505050506040513d601f19601f820116820180604052508101906135039190613d25565b949350505050565b6000806000836001600160a01b0316635cb7758e6040518163ffffffff1660e01b815260040160206040518083038186803b15801561354957600080fd5b505afa15801561355d573d6000803e3d6000fd5b505050506040513d601f19601f820116820180604052508101906135819190613b4a565b90506000816001600160a01b0316635fcbd2856040518163ffffffff1660e01b815260040160206040518083038186803b1580156135be57600080fd5b505afa1580156135d2573d6000803e3d6000fd5b505050506040513d601f19601f820116820180604052508101906135f69190613b4a565b9050806001600160a01b0316630902f1ac6040518163ffffffff1660e01b815260040160606040518083038186803b15801561363157600080fd5b505afa158015613645573d6000803e3d6000fd5b505050506040513d601f19601f820116820180604052508101906136699190613f17565b506001600160701b0391821697911695509350505050565b600080826001600160a01b0316635cb7758e6040518163ffffffff1660e01b815260040160206040518083038186803b1580156136bd57600080fd5b505afa1580156136d1573d6000803e3d6000fd5b505050506040513d601f19601f820116820180604052508101906136f59190613b4a565b90506000816001600160a01b0316635fcbd2856040518163ffffffff1660e01b815260040160206040518083038186803b15801561373257600080fd5b505afa158015613746573d6000803e3d6000fd5b505050506040513d601f19601f8201168201806040525081019061376a9190613b4a565b90506000816001600160a01b03166318160ddd6040518163ffffffff1660e01b815260040160206040518083038186803b1580156137a757600080fd5b505afa1580156137bb573d6000803e3d6000fd5b505050506040513d601f19601f820116820180604052508101906137df9190613d25565b9050806137f157506000949350505050565b600080600560009054906101000a90046001600160a01b03166001600160a01b0316630902f1ac6040518163ffffffff1660e01b815260040160606040518083038186803b158015611bfd57600080fd5b6001600160a01b0381168114610e0257600080fd5b60006020828403121561386957600080fd5b813561242481613842565b60005b8381101561388f578181015183820152602001613877565b8381111561389e576000848401525b50505050565b600081518084526138bc816020860160208601613874565b601f01601f19169290920160200192915050565b60208152600082516102208060208501526138ef6102408501836138a4565b91506020850151601f1985840301604086015261390c83826138a4565b9250506040850151613923606086018260ff169052565b5060608501516080850152608085015160a085015260a085015161394b60c086018215159052565b5060c085015160e085015260e085015161010081818701528087015191505061012061397a8187018315159052565b8601516101408681019190915286015161016080870191909152860151610180808701919091528601516101a0808701919091528601516101c0808701919091528601516101e080870191909152860151610200808701919091529095015193019290925250919050565b600080600080600060a086880312156139fd57600080fd5b8535613a0881613842565b94506020860135613a1881613842565b93506040860135613a2881613842565b92506060860135613a3881613842565b91506080860135613a4881613842565b809150509295509295909350565b60008060208385031215613a6957600080fd5b823567ffffffffffffffff80821115613a8157600080fd5b818501915085601f830112613a9557600080fd5b813581811115613aa457600080fd5b866020828501011115613ab657600080fd5b60209290920196919550909350505050565b60008060008060008060c08789031215613ae157600080fd5b8635613aec81613842565b95506020870135613afc81613842565b94506040870135613b0c81613842565b93506060870135613b1c81613842565b92506080870135613b2c81613842565b915060a0870135613b3c81613842565b809150509295509295509295565b600060208284031215613b5c57600080fd5b815161242481613842565b80518015158114612f1e57600080fd5b600080600080600080600060e0888a031215613b9257600080fd5b613b9b88613b67565b96506020880151955060408801519450613bb760608901613b67565b93506080880151925060a0880151915060c0880151905092959891949750929550565b634e487b7160e01b600052604160045260246000fd5b604051610120810167ffffffffffffffff81118282101715613c1457613c14613bda565b60405290565b6040805190810167ffffffffffffffff81118282101715613c1457613c14613bda565b604051601f8201601f1916810167ffffffffffffffff81118282101715613c6657613c66613bda565b604052919050565b600060208284031215613c8057600080fd5b815167ffffffffffffffff80821115613c9857600080fd5b818401915084601f830112613cac57600080fd5b815181811115613cbe57613cbe613bda565b613cd1601f8201601f1916602001613c3d565b9150808252856020828501011115613ce857600080fd5b613cf9816020840160208601613874565b50949350505050565b600060208284031215613d1457600080fd5b815160ff8116811461242457600080fd5b600060208284031215613d3757600080fd5b5051919050565b60208152816020820152818360408301376000818301604090810191909152601f909201601f19160101919050565b600067ffffffffffffffff821115613d8757613d87613bda565b5060051b60200190565b60006020808385031215613da457600080fd5b825167ffffffffffffffff811115613dbb57600080fd5b8301601f81018513613dcc57600080fd5b8051613ddf613dda82613d6d565b613c3d565b81815260059190911b82018301908381019087831115613dfe57600080fd5b928401925b82841015611c77578351613e1681613842565b82529284019290840190613e03565b634e487b7160e01b600052603260045260246000fd5b634e487b7160e01b600052601160045260246000fd5b60008219821115613e6457613e64613e3b565b500190565b6000600019821415613e7d57613e7d613e3b565b5060010190565b600082613ea157634e487b7160e01b600052601260045260246000fd5b500490565b60008060008060808587031215613ebc57600080fd5b505082516020840151604085015160609095015191969095509092509050565b60008060408385031215613eef57600080fd5b505080516020909101519092909150565b80516001600160701b0381168114612f1e57600080fd5b600080600060608486031215613f2c57600080fd5b613f3584613f00565b9250613f4360208501613f00565b9150604084015163ffffffff81168114613f5c57600080fd5b809150509250925092565b6000816000190483118215151615613f8157613f81613e3b565b500290565b60006101208284031215613f9957600080fd5b613fa1613bf0565b825181526020830151602082015260408301516040820152606083015160608201526080830151608082015260a083015160a082015260c083015160c0820152613fed60e08401613b67565b60e0820152610100928301519281019290925250919050565b600080600080600060a0868803121561401e57600080fd5b8551945060208601519350604086015192506060860151915061404360808701613b67565b90509295509295909350565b60008282101561406157614061613e3b565b500390565b6000602080838503121561407957600080fd5b825167ffffffffffffffff81111561409057600080fd5b8301601f810185136140a157600080fd5b80516140af613dda82613d6d565b81815260069190911b820183019083810190878311156140ce57600080fd5b928401925b82841015611c7757604084890312156140ec5760008081fd5b6140f4613c1a565b84516140ff81613842565b815284860151868201528252604090930192908401906140d3565b6020808252602e908201527f496e697469616c697a61626c653a20636f6e747261637420697320616c72656160408201526d191e481a5b9a5d1a585b1a5e995960921b606082015260800190565b600080600080600060a0868803121561418057600080fd5b855161418b81613842565b80955050602086015193506040860151925060608601516141ab81613842565b80925050608086015190509295509295909350565b600080600080600060a086880312156141d857600080fd5b85516141e381613842565b602087015160408801516060890151608090990151929a9199509796509094509250505056fea26469706673582212208c001bd165158ead14968699991a6642c2fe7dc8f96f6951941a434ade31f8dc64736f6c63430008090033",
  "devdoc": {
    "kind": "dev",
    "methods": {},
    "version": 1
  },
  "userdoc": {
    "kind": "user",
    "methods": {},
    "version": 1
  },
  "storageLayout": {
    "storage": [
      {
        "astId": 6,
        "contract": "contracts/ExtendableBondedReaderCake.sol:ExtendableBondedReaderCake",
        "label": "_initialized",
        "offset": 0,
        "slot": "0",
        "type": "t_uint8"
      },
      {
        "astId": 9,
        "contract": "contracts/ExtendableBondedReaderCake.sol:ExtendableBondedReaderCake",
        "label": "_initializing",
        "offset": 1,
        "slot": "0",
        "type": "t_bool"
      },
      {
        "astId": 3923,
        "contract": "contracts/ExtendableBondedReaderCake.sol:ExtendableBondedReaderCake",
        "label": "admin",
        "offset": 2,
        "slot": "0",
        "type": "t_address"
      },
      {
        "astId": 7253,
        "contract": "contracts/ExtendableBondedReaderCake.sol:ExtendableBondedReaderCake",
        "label": "registry",
        "offset": 0,
        "slot": "1",
        "type": "t_contract(ExtendableBondRegistry)7180"
      },
      {
        "astId": 7256,
        "contract": "contracts/ExtendableBondedReaderCake.sol:ExtendableBondedReaderCake",
        "label": "pancakePool",
        "offset": 0,
        "slot": "2",
        "type": "t_contract(ICakePool)2240"
      },
      {
        "astId": 7259,
        "contract": "contracts/ExtendableBondedReaderCake.sol:ExtendableBondedReaderCake",
        "label": "pancakeMasterChef",
        "offset": 0,
        "slot": "3",
        "type": "t_contract(MasterChefV2)6030"
      },
      {
        "astId": 7262,
        "contract": "contracts/ExtendableBondedReaderCake.sol:ExtendableBondedReaderCake",
        "label": "pairTokenAddress__CAKE_BUSD",
        "offset": 0,
        "slot": "4",
        "type": "t_contract(IPancakePair)2482"
      },
      {
        "astId": 7265,
        "contract": "contracts/ExtendableBondedReaderCake.sol:ExtendableBondedReaderCake",
        "label": "pairTokenAddress__DUET_anyUSD",
        "offset": 0,
        "slot": "5",
        "type": "t_contract(IPancakePair)2482"
      }
    ],
    "types": {
      "t_address": {
        "encoding": "inplace",
        "label": "address",
        "numberOfBytes": "20"
      },
      "t_bool": {
        "encoding": "inplace",
        "label": "bool",
        "numberOfBytes": "1"
      },
      "t_contract(ExtendableBondRegistry)7180": {
        "encoding": "inplace",
        "label": "contract ExtendableBondRegistry",
        "numberOfBytes": "20"
      },
      "t_contract(ICakePool)2240": {
        "encoding": "inplace",
        "label": "contract ICakePool",
        "numberOfBytes": "20"
      },
      "t_contract(IPancakePair)2482": {
        "encoding": "inplace",
        "label": "contract IPancakePair",
        "numberOfBytes": "20"
      },
      "t_contract(MasterChefV2)6030": {
        "encoding": "inplace",
        "label": "contract MasterChefV2",
        "numberOfBytes": "20"
      },
      "t_uint8": {
        "encoding": "inplace",
        "label": "uint8",
        "numberOfBytes": "1"
      }
    }
  }
}