{
  "address": "0x356EdC22ba3fbd7C673297Ac88D30681aff4Fe7D",
  "abi": [
    {
      "inputs": [],
      "stateMutability": "nonpayable",
      "type": "constructor"
    },
    {
      "anonymous": false,
      "inputs": [
        {
          "indexed": true,
          "internalType": "address",
          "name": "owner",
          "type": "address"
        },
        {
          "indexed": true,
          "internalType": "address",
          "name": "spender",
          "type": "address"
        },
        {
          "indexed": false,
          "internalType": "uint256",
          "name": "value",
          "type": "uint256"
        }
      ],
      "name": "Approval",
      "type": "event"
    },
    {
      "anonymous": false,
      "inputs": [
        {
          "indexed": false,
          "internalType": "uint256",
          "name": "amount",
          "type": "uint256"
        },
        {
          "indexed": false,
          "internalType": "uint256",
          "name": "inventoryAmount",
          "type": "uint256"
        }
      ],
      "name": "BondGranted",
      "type": "event"
    },
    {
      "anonymous": false,
      "inputs": [
        {
          "indexed": true,
          "internalType": "address",
          "name": "account",
          "type": "address"
        },
        {
          "indexed": false,
          "internalType": "uint256",
          "name": "bondAmount",
          "type": "uint256"
        },
        {
          "indexed": false,
          "internalType": "uint256",
          "name": "underlyingAmount",
          "type": "uint256"
        }
      ],
      "name": "BondMinted",
      "type": "event"
    },
    {
      "anonymous": false,
      "inputs": [
        {
          "indexed": true,
          "internalType": "address",
          "name": "account",
          "type": "address"
        },
        {
          "indexed": false,
          "internalType": "uint256",
          "name": "amount",
          "type": "uint256"
        }
      ],
      "name": "BondRedeemed",
      "type": "event"
    },
    {
      "anonymous": false,
      "inputs": [
        {
          "indexed": true,
          "internalType": "address",
          "name": "account",
          "type": "address"
        },
        {
          "indexed": false,
          "internalType": "uint256",
          "name": "bondAmount",
          "type": "uint256"
        },
        {
          "indexed": false,
          "internalType": "uint256",
          "name": "underlyingAmount",
          "type": "uint256"
        }
      ],
      "name": "BondSold",
      "type": "event"
    },
    {
      "anonymous": false,
      "inputs": [
        {
          "indexed": false,
          "internalType": "uint8",
          "name": "version",
          "type": "uint8"
        }
      ],
      "name": "Initialized",
      "type": "event"
    },
    {
      "anonymous": false,
      "inputs": [
        {
          "indexed": true,
          "internalType": "address",
          "name": "from",
          "type": "address"
        },
        {
          "indexed": true,
          "internalType": "address",
          "name": "to",
          "type": "address"
        },
        {
          "indexed": false,
          "internalType": "uint256",
          "name": "value",
          "type": "uint256"
        }
      ],
      "name": "Transfer",
      "type": "event"
    },
    {
      "inputs": [
        {
          "internalType": "address",
          "name": "owner",
          "type": "address"
        },
        {
          "internalType": "address",
          "name": "spender",
          "type": "address"
        }
      ],
      "name": "allowance",
      "outputs": [
        {
          "internalType": "uint256",
          "name": "",
          "type": "uint256"
        }
      ],
      "stateMutability": "view",
      "type": "function"
    },
    {
      "inputs": [
        {
          "internalType": "uint256",
          "name": "bondAmount_",
          "type": "uint256"
        }
      ],
      "name": "amountToUnderlying",
      "outputs": [
        {
          "internalType": "uint256",
          "name": "",
          "type": "uint256"
        }
      ],
      "stateMutability": "view",
      "type": "function"
    },
    {
      "inputs": [
        {
          "internalType": "address",
          "name": "spender",
          "type": "address"
        },
        {
          "internalType": "uint256",
          "name": "amount",
          "type": "uint256"
        }
      ],
      "name": "approve",
      "outputs": [
        {
          "internalType": "bool",
          "name": "",
          "type": "bool"
        }
      ],
      "stateMutability": "nonpayable",
      "type": "function"
    },
    {
      "inputs": [
        {
          "internalType": "address",
          "name": "account",
          "type": "address"
        }
      ],
      "name": "balanceOf",
      "outputs": [
        {
          "internalType": "uint256",
          "name": "",
          "type": "uint256"
        }
      ],
      "stateMutability": "view",
      "type": "function"
    },
    {
      "inputs": [],
      "name": "decimals",
      "outputs": [
        {
          "internalType": "uint8",
          "name": "",
          "type": "uint8"
        }
      ],
      "stateMutability": "view",
      "type": "function"
    },
    {
      "inputs": [
        {
          "internalType": "address",
          "name": "spender",
          "type": "address"
        },
        {
          "internalType": "uint256",
          "name": "subtractedValue",
          "type": "uint256"
        }
      ],
      "name": "decreaseAllowance",
      "outputs": [
        {
          "internalType": "bool",
          "name": "",
          "type": "bool"
        }
      ],
      "stateMutability": "nonpayable",
      "type": "function"
    },
    {
      "inputs": [
        {
          "internalType": "contract IERC20MetadataUpgradeable",
          "name": "token_",
          "type": "address"
        },
        {
          "internalType": "address",
          "name": "to_",
          "type": "address"
        },
        {
          "internalType": "uint256",
          "name": "amount_",
          "type": "uint256"
        }
      ],
      "name": "emergencyWithdraw",
      "outputs": [],
      "stateMutability": "nonpayable",
      "type": "function"
    },
    {
      "inputs": [
        {
          "internalType": "uint256",
          "name": "bondAmount_",
          "type": "uint256"
        }
      ],
      "name": "faceValue",
      "outputs": [
        {
          "internalType": "uint256",
          "name": "",
          "type": "uint256"
        }
      ],
      "stateMutability": "view",
      "type": "function"
    },
    {
      "inputs": [],
      "name": "factory",
      "outputs": [
        {
          "internalType": "contract IBondFactory",
          "name": "",
          "type": "address"
        }
      ],
      "stateMutability": "view",
      "type": "function"
    },
    {
      "inputs": [],
      "name": "getPrice",
      "outputs": [
        {
          "components": [
            {
              "internalType": "uint256",
              "name": "price",
              "type": "uint256"
            },
            {
              "internalType": "uint256",
              "name": "bid",
              "type": "uint256"
            },
            {
              "internalType": "uint256",
              "name": "ask",
              "type": "uint256"
            },
            {
              "internalType": "uint256",
              "name": "lastUpdated",
              "type": "uint256"
            }
          ],
          "internalType": "struct IBondFactory.BondPrice",
          "name": "price",
          "type": "tuple"
        }
      ],
      "stateMutability": "view",
      "type": "function"
    },
    {
      "inputs": [
        {
          "internalType": "uint256",
          "name": "amount_",
          "type": "uint256"
        }
      ],
      "name": "grant",
      "outputs": [],
      "stateMutability": "nonpayable",
      "type": "function"
    },
    {
      "inputs": [
        {
          "internalType": "address",
          "name": "spender",
          "type": "address"
        },
        {
          "internalType": "uint256",
          "name": "addedValue",
          "type": "uint256"
        }
      ],
      "name": "increaseAllowance",
      "outputs": [
        {
          "internalType": "bool",
          "name": "",
          "type": "bool"
        }
      ],
      "stateMutability": "nonpayable",
      "type": "function"
    },
    {
      "inputs": [
        {
          "internalType": "string",
          "name": "name_",
          "type": "string"
        },
        {
          "internalType": "string",
          "name": "symbol_",
          "type": "string"
        },
        {
          "internalType": "string",
          "name": "series_",
          "type": "string"
        },
        {
          "internalType": "address",
          "name": "factory_",
          "type": "address"
        },
        {
          "internalType": "contract IERC20MetadataUpgradeable",
          "name": "underlyingToken_",
          "type": "address"
        },
        {
          "internalType": "uint256",
          "name": "maturity_",
          "type": "uint256"
        },
        {
          "internalType": "string",
          "name": "isin_",
          "type": "string"
        }
      ],
      "name": "initialize",
      "outputs": [],
      "stateMutability": "nonpayable",
      "type": "function"
    },
    {
      "inputs": [],
      "name": "inventoryAmount",
      "outputs": [
        {
          "internalType": "uint256",
          "name": "",
          "type": "uint256"
        }
      ],
      "stateMutability": "view",
      "type": "function"
    },
    {
      "inputs": [],
      "name": "isin",
      "outputs": [
        {
          "internalType": "string",
          "name": "",
          "type": "string"
        }
      ],
      "stateMutability": "view",
      "type": "function"
    },
    {
      "inputs": [],
      "name": "kind",
      "outputs": [
        {
          "internalType": "string",
          "name": "",
          "type": "string"
        }
      ],
      "stateMutability": "view",
      "type": "function"
    },
    {
      "inputs": [],
      "name": "maturity",
      "outputs": [
        {
          "internalType": "uint256",
          "name": "",
          "type": "uint256"
        }
      ],
      "stateMutability": "view",
      "type": "function"
    },
    {
      "inputs": [],
      "name": "minTradingAmount",
      "outputs": [
        {
          "internalType": "uint256",
          "name": "",
          "type": "uint256"
        }
      ],
      "stateMutability": "view",
      "type": "function"
    },
    {
      "inputs": [
        {
          "internalType": "address",
          "name": "account_",
          "type": "address"
        },
        {
          "internalType": "uint256",
          "name": "bondAmount_",
          "type": "uint256"
        }
      ],
      "name": "mintByBondAmount",
      "outputs": [
        {
          "internalType": "uint256",
          "name": "underlyingAmount",
          "type": "uint256"
        }
      ],
      "stateMutability": "nonpayable",
      "type": "function"
    },
    {
      "inputs": [
        {
          "internalType": "address",
          "name": "account_",
          "type": "address"
        },
        {
          "internalType": "uint256",
          "name": "underlyingAmount_",
          "type": "uint256"
        }
      ],
      "name": "mintByUnderlyingAmount",
      "outputs": [
        {
          "internalType": "uint256",
          "name": "bondAmount",
          "type": "uint256"
        }
      ],
      "stateMutability": "nonpayable",
      "type": "function"
    },
    {
      "inputs": [],
      "name": "name",
      "outputs": [
        {
          "internalType": "string",
          "name": "",
          "type": "string"
        }
      ],
      "stateMutability": "view",
      "type": "function"
    },
    {
      "inputs": [
        {
          "internalType": "uint256",
          "name": "bondAmount_",
          "type": "uint256"
        }
      ],
      "name": "previewMintByBondAmount",
      "outputs": [
        {
          "internalType": "uint256",
          "name": "underlyingAmount",
          "type": "uint256"
        }
      ],
      "stateMutability": "view",
      "type": "function"
    },
    {
      "inputs": [
        {
          "internalType": "uint256",
          "name": "underlyingAmount_",
          "type": "uint256"
        }
      ],
      "name": "previewMintByUnderlyingAmount",
      "outputs": [
        {
          "internalType": "uint256",
          "name": "bondAmount",
          "type": "uint256"
        }
      ],
      "stateMutability": "view",
      "type": "function"
    },
    {
      "inputs": [
        {
          "internalType": "uint256",
          "name": "bondAmount_",
          "type": "uint256"
        }
      ],
      "name": "previewSellByBondAmount",
      "outputs": [
        {
          "internalType": "uint256",
          "name": "underlyingAmount",
          "type": "uint256"
        }
      ],
      "stateMutability": "view",
      "type": "function"
    },
    {
      "inputs": [
        {
          "internalType": "uint256",
          "name": "bondAmount_",
          "type": "uint256"
        }
      ],
      "name": "redeem",
      "outputs": [],
      "stateMutability": "nonpayable",
      "type": "function"
    },
    {
      "inputs": [
        {
          "internalType": "address",
          "name": "account_",
          "type": "address"
        },
        {
          "internalType": "uint256",
          "name": "bondAmount_",
          "type": "uint256"
        }
      ],
      "name": "redeemFor",
      "outputs": [],
      "stateMutability": "nonpayable",
      "type": "function"
    },
    {
      "inputs": [],
      "name": "redeemedAmount",
      "outputs": [
        {
          "internalType": "uint256",
          "name": "",
          "type": "uint256"
        }
      ],
      "stateMutability": "view",
      "type": "function"
    },
    {
      "inputs": [
        {
          "internalType": "uint256",
          "name": "bondAmount_",
          "type": "uint256"
        }
      ],
      "name": "sellByBondAmount",
      "outputs": [
        {
          "internalType": "uint256",
          "name": "underlyingAmount",
          "type": "uint256"
        }
      ],
      "stateMutability": "nonpayable",
      "type": "function"
    },
    {
      "inputs": [],
      "name": "series",
      "outputs": [
        {
          "internalType": "string",
          "name": "",
          "type": "string"
        }
      ],
      "stateMutability": "view",
      "type": "function"
    },
    {
      "inputs": [],
      "name": "symbol",
      "outputs": [
        {
          "internalType": "string",
          "name": "",
          "type": "string"
        }
      ],
      "stateMutability": "view",
      "type": "function"
    },
    {
      "inputs": [],
      "name": "totalSupply",
      "outputs": [
        {
          "internalType": "uint256",
          "name": "",
          "type": "uint256"
        }
      ],
      "stateMutability": "view",
      "type": "function"
    },
    {
      "inputs": [
        {
          "internalType": "address",
          "name": "to",
          "type": "address"
        },
        {
          "internalType": "uint256",
          "name": "amount",
          "type": "uint256"
        }
      ],
      "name": "transfer",
      "outputs": [
        {
          "internalType": "bool",
          "name": "",
          "type": "bool"
        }
      ],
      "stateMutability": "nonpayable",
      "type": "function"
    },
    {
      "inputs": [
        {
          "internalType": "address",
          "name": "from",
          "type": "address"
        },
        {
          "internalType": "address",
          "name": "to",
          "type": "address"
        },
        {
          "internalType": "uint256",
          "name": "amount",
          "type": "uint256"
        }
      ],
      "name": "transferFrom",
      "outputs": [
        {
          "internalType": "bool",
          "name": "",
          "type": "bool"
        }
      ],
      "stateMutability": "nonpayable",
      "type": "function"
    },
    {
      "inputs": [
        {
          "internalType": "uint256",
          "name": "amount_",
          "type": "uint256"
        },
        {
          "internalType": "address",
          "name": "to_",
          "type": "address"
        }
      ],
      "name": "underlyingOut",
      "outputs": [],
      "stateMutability": "nonpayable",
      "type": "function"
    },
    {
      "inputs": [],
      "name": "underlyingToken",
      "outputs": [
        {
          "internalType": "contract IERC20MetadataUpgradeable",
          "name": "",
          "type": "address"
        }
      ],
      "stateMutability": "view",
      "type": "function"
    }
  ],
  "transactionHash": "0x4e7424143f60b454a5f8064b04da85be6dbcd10d6c934de91d2423413155326c",
  "args": [],
  "numDeployments": 3,
  "solcInputHash": "4c46ee79ae53925e0d6bdef79317b818",
  "bytecode": "0x60806040523480156200001157600080fd5b506200001c62000022565b62000152565b6200002e60ff62000031565b50565b60008054610100900460ff1615620000ca578160ff1660011480156200006a575062000068306200014360201b6200158c1760201c565b155b620000c25760405162461bcd60e51b815260206004820152602e60248201526000805160206200292f83398151915260448201526d191e481a5b9a5d1a585b1a5e995960921b60648201526084015b60405180910390fd5b506000919050565b60005460ff808416911610620001295760405162461bcd60e51b815260206004820152602e60248201526000805160206200292f83398151915260448201526d191e481a5b9a5d1a585b1a5e995960921b6064820152608401620000b9565b506000805460ff191660ff92909216919091179055600190565b6001600160a01b03163b151590565b6127cd80620001626000396000f3fe608060405234801561001057600080fd5b50600436106102115760003560e01c806382d5a60d11610125578063da7b038b116100ad578063e63ea4081161007c578063e63ea408146104a2578063f12d870f146104b5578063fc48e642146104bd578063fde2ba8c146104d0578063fe8dbd8e146104e357600080fd5b8063da7b038b14610456578063db006a7514610469578063dd62ed3e1461047c578063df776b2d1461048f57600080fd5b8063a457c2d7116100f4578063a457c2d714610401578063a773184214610414578063a9059cbb1461041d578063c0da288514610430578063c45a01551461044357600080fd5b806382d5a60d146103a357806395d89b41146103ab57806398d5fdca146103b357806398ecd688146103ee57600080fd5b80632491510a116101a85780633ce896b8116101775780633ce896b8146103395780634cb4bdc91461034c5780635eee69a91461035f57806370a08231146103675780637a82a1981461039057600080fd5b80632491510a146102d85780632495a599146102e1578063313ce5671461030c578063395093511461032657600080fd5b8063160e3f3d116101e4578063160e3f3d1461029f57806318160ddd146102b4578063204f83f9146102bc57806323b872dd146102c557600080fd5b806304baa00b1461021657806306d914061461025357806306fdde0314610274578063095ea7b31461027c575b600080fd5b61023d60405180604001604052806008815260200167111a5cd8dbdd5b9d60c21b81525081565b60405161024a919061204d565b60405180910390f35b6102666102613660046120a0565b6104f4565b60405190815260200161024a565b61023d6105dd565b61028f61028a3660046120a0565b61066f565b604051901515815260200161024a565b6102b26102ad3660046120cc565b610689565b005b603554610266565b61026660995481565b61028f6102d33660046120e5565b61070a565b610266609b5481565b6098546102f4906001600160a01b031681565b6040516001600160a01b03909116815260200161024a565b610314610730565b60405160ff909116815260200161024a565b61028f6103343660046120a0565b6107b2565b6102666103473660046120a0565b6107d4565b61026661035a3660046120cc565b6108a6565b610266610a98565b610266610375366004612126565b6001600160a01b031660009081526033602052604090205490565b6102b261039e3660046120a0565b610b2c565b61023d610c93565b61023d610d21565b6103bb610d30565b60405161024a91908151815260208083015190820152604080830151908201526060918201519181019190915260800190565b6102666103fc3660046120cc565b610f3d565b61028f61040f3660046120a0565b611010565b610266609c5481565b61028f61042b3660046120a0565b611096565b61026661043e3660046120cc565b6110a4565b6097546102f4906001600160a01b031681565b6102666104643660046120cc565b6111b6565b6102b26104773660046120cc565b611260565b61026661048a366004612143565b61126d565b6102b261049d36600461221f565b611298565b6102b26104b03660046120e5565b6113e3565b61023d611426565b6102666104cb3660046120cc565b611433565b6102b26104de3660046122f7565b611547565b6102666104f13660046120cc565b90565b600060995442106105205760405162461bcd60e51b81526004016105179061231c565b60405180910390fd5b600260655414156105435760405162461bcd60e51b81526004016105179061235e565b6002606555609854610560906001600160a01b031633308561159b565b61056982611433565b905080609b600082825461057d91906123ab565b9091555061058d9050838261160c565b60408051828152602081018490526001600160a01b038516917f877d49304b52a404e1f7fe620a933370ab38d3d49a4daf24591f8750848310ca91015b60405180910390a2600160655592915050565b6060603680546105ec906123c2565b80601f0160208091040260200160405190810160405280929190818152602001828054610618906123c2565b80156106655780601f1061063a57610100808354040283529160200191610665565b820191906000526020600020905b81548152906001019060200180831161064857829003601f168201915b5050505050905090565b60003361067d8185856116eb565b60019150505b92915050565b6097546001600160a01b031633146106b35760405162461bcd60e51b8152600401610517906123fd565b80609b60008282546106c59190612434565b9091555050609b546040805183815260208101929092527f632d02909e5759576f4a85e32a3793720a7ca5319576cc41010c4217ddbad0e9910160405180910390a150565b60003361071885828561180f565b610723858585611883565b60019150505b9392505050565b6098546040805163313ce56760e01b815290516000926001600160a01b03169163313ce567916004808301926020929190829003018186803b15801561077557600080fd5b505afa158015610789573d6000803e3d6000fd5b505050506040513d601f19601f820116820180604052508101906107ad919061244c565b905090565b60003361067d8185856107c5838361126d565b6107cf9190612434565b6116eb565b6000600260655414156107f95760405162461bcd60e51b81526004016105179061235e565b6002606555609954421061081f5760405162461bcd60e51b81526004016105179061231c565b610828826110a4565b609854909150610843906001600160a01b031633308461159b565b81609b600082825461085591906123ab565b909155506108659050838361160c565b60408051838152602081018390526001600160a01b038516917f877d49304b52a404e1f7fe620a933370ab38d3d49a4daf24591f8750848310ca91016105ca565b600060995442106108c95760405162461bcd60e51b81526004016105179061231c565b6108d1610a98565b8210156108f05760405162461bcd60e51b81526004016105179061246f565b3360009081526033602052604090205482111561094f5760405162461bcd60e51b815260206004820152601d60248201527f446973636f756e74426f6e643a20455843454544535f42414c414e43450000006044820152606401610517565b609760009054906101000a90046001600160a01b03166001600160a01b031663dfb2866d6040518163ffffffff1660e01b815260040160206040518083038186803b15801561099d57600080fd5b505afa1580156109b1573d6000803e3d6000fd5b505050506040513d601f19601f820116820180604052508101906109d591906124a6565b6109dd610d30565b602001516109eb90846124bf565b6109f591906124de565b6098546040516370a0823160e01b815230600482015291925082916001600160a01b03909116906370a082319060240160206040518083038186803b158015610a3d57600080fd5b505afa158015610a51573d6000803e3d6000fd5b505050506040513d601f19601f82011682018060405250810190610a7591906124a6565b1015610a935760405162461bcd60e51b815260040161051790612500565b919050565b6098546040805163313ce56760e01b815290516000926004926001600160a01b039091169163313ce567918085019160209181900386018186803b158015610adf57600080fd5b505afa158015610af3573d6000803e3d6000fd5b505050506040513d601f19601f82011682018060405250810190610b17919061244c565b610b219190612544565b6107ad90600a61264b565b609954421015610b885760405162461bcd60e51b815260206004820152602160248201527f446973636f756e74426f6e643a204d5553545f41465445525f4d4154555249546044820152605960f81b6064820152608401610517565b60026065541415610bab5760405162461bcd60e51b81526004016105179061235e565b600260655533600090815260336020526040902054811115610c0f5760405162461bcd60e51b815260206004820152601d60248201527f446973636f756e74426f6e643a20455843454544535f42414c414e43450000006044820152606401610517565b610c193382611a51565b80609c6000828254610c2b9190612434565b9091555050609854610c47906001600160a01b03168383611b9f565b816001600160a01b03167fbbb59c50b3cd05fe4982a9bc1fbab45bd421ac707f4fba6b080522e3a9cc03b382604051610c8291815260200190565b60405180910390a250506001606555565b609d8054610ca0906123c2565b80601f0160208091040260200160405190810160405280929190818152602001828054610ccc906123c2565b8015610d195780601f10610cee57610100808354040283529160200191610d19565b820191906000526020600020905b815481529060010190602001808311610cfc57829003601f168201915b505050505081565b6060603780546105ec906123c2565b610d5b6040518060800160405280600081526020016000815260200160008152602001600081525090565b6097546040516341976e0960e01b81523060048201526001600160a01b03909116906341976e099060240160806040518083038186803b158015610d9e57600080fd5b505afa158015610db2573d6000803e3d6000fd5b505050506040513d601f19601f82011682018060405250810190610dd6919061265a565b90506000609760009054906101000a90046001600160a01b03166001600160a01b031663dfb2866d6040518163ffffffff1660e01b815260040160206040518083038186803b158015610e2857600080fd5b505afa158015610e3c573d6000803e3d6000fd5b505050506040513d601f19601f82011682018060405250810190610e6091906124a6565b90506000610e6f600a836124de565b610e7a9060086124bf565b90506000610e89600a846124de565b610e9490600c6124bf565b905081846000015110158015610eab575083518110155b8015610ebb575081846040015110155b8015610ecb575080846040015111155b8015610edb575081846020015110155b8015610eeb575080846020015111155b610f375760405162461bcd60e51b815260206004820152601b60248201527f446973636f756e74426f6e643a20494e56414c49445f505249434500000000006044820152606401610517565b50505090565b60006099544210610f605760405162461bcd60e51b81526004016105179061231c565b60026065541415610f835760405162461bcd60e51b81526004016105179061235e565b6002606555610f91826108a6565b9050610f9d3383611a51565b81609b6000828254610faf9190612434565b9091555050609854610fcb906001600160a01b03163383611b9f565b604080518381526020810183905233917f3dbe987d8c318f20a1d550dd52db9a8a20cc25aab2f175c7ccafb306ee48d210910160405180910390a26001606555919050565b6000338161101e828661126d565b90508381101561107e5760405162461bcd60e51b815260206004820152602560248201527f45524332303a2064656372656173656420616c6c6f77616e63652062656c6f77604482015264207a65726f60d81b6064820152608401610517565b61108b82868684036116eb565b506001949350505050565b60003361067d818585611883565b600060995442106110c75760405162461bcd60e51b81526004016105179061231c565b6110cf610a98565b8210156110ee5760405162461bcd60e51b81526004016105179061246f565b81609b5410156111105760405162461bcd60e51b815260040161051790612500565b609760009054906101000a90046001600160a01b03166001600160a01b031663dfb2866d6040518163ffffffff1660e01b815260040160206040518083038186803b15801561115e57600080fd5b505afa158015611172573d6000803e3d6000fd5b505050506040513d601f19601f8201168201806040525081019061119691906124a6565b61119e610d30565b604001516111ac90846124bf565b61068391906124de565b600060995442106111c75781610683565b609760009054906101000a90046001600160a01b03166001600160a01b031663dfb2866d6040518163ffffffff1660e01b815260040160206040518083038186803b15801561121557600080fd5b505afa158015611229573d6000803e3d6000fd5b505050506040513d601f19601f8201168201806040525081019061124d91906124a6565b611255610d30565b516111ac90846124bf565b61126a3382610b2c565b50565b6001600160a01b03918216600090815260346020908152604080832093909416825291909152205490565b60006112a46001611bcf565b905080156112bc576000805461ff0019166101001790555b6112c68888611c57565b6112ce611c88565b42831180156112ea57506112e6426325980600612434565b8311155b6113365760405162461bcd60e51b815260206004820152601e60248201527f446973636f756e74426f6e643a20494e56414c49445f4d4154555249545900006044820152606401610517565b855161134990609a906020890190611f88565b50609880546001600160a01b038087166001600160a01b03199283161790925560978054928816929091169190911790556099839055815161139290609d906020850190611f88565b5080156113d9576000805461ff0019169055604051600181527f7f26b83ff96e1f2b6a682f133852f6798a09c465da95921460cefb38474024989060200160405180910390a15b5050505050505050565b6097546001600160a01b0316331461140d5760405162461bcd60e51b8152600401610517906123fd565b6114216001600160a01b0384168383611b9f565b505050565b609a8054610ca0906123c2565b600060995442106114565760405162461bcd60e51b81526004016105179061231c565b61145e610a98565b82101561147d5760405162461bcd60e51b81526004016105179061246f565b611485610d30565b60400151609760009054906101000a90046001600160a01b03166001600160a01b031663dfb2866d6040518163ffffffff1660e01b815260040160206040518083038186803b1580156114d757600080fd5b505afa1580156114eb573d6000803e3d6000fd5b505050506040513d601f19601f8201168201806040525081019061150f91906124a6565b61151990846124bf565b61152391906124de565b905080609b541015610a935760405162461bcd60e51b815260040161051790612500565b6097546001600160a01b031633146115715760405162461bcd60e51b8152600401610517906123fd565b609854611588906001600160a01b03168284611b9f565b5050565b6001600160a01b03163b151590565b6040516001600160a01b03808516602483015283166044820152606481018290526116069085906323b872dd60e01b906084015b60408051601f198184030181529190526020810180516001600160e01b03166001600160e01b031990931692909217909152611cb9565b50505050565b6001600160a01b0382166116625760405162461bcd60e51b815260206004820152601f60248201527f45524332303a206d696e7420746f20746865207a65726f2061646472657373006044820152606401610517565b80603560008282546116749190612434565b90915550506001600160a01b038216600090815260336020526040812080548392906116a1908490612434565b90915550506040518181526001600160a01b038316906000907fddf252ad1be2c89b69c2b068fc378daa952ba7f163c4a11628f55a4df523b3ef9060200160405180910390a35050565b6001600160a01b03831661174d5760405162461bcd60e51b8152602060048201526024808201527f45524332303a20617070726f76652066726f6d20746865207a65726f206164646044820152637265737360e01b6064820152608401610517565b6001600160a01b0382166117ae5760405162461bcd60e51b815260206004820152602260248201527f45524332303a20617070726f766520746f20746865207a65726f206164647265604482015261737360f01b6064820152608401610517565b6001600160a01b0383811660008181526034602090815260408083209487168084529482529182902085905590518481527f8c5be1e5ebec7d5bd14f71427d1e84f3dd0314c0f7b2291e5b200ac8c7c3b925910160405180910390a3505050565b600061181b848461126d565b9050600019811461160657818110156118765760405162461bcd60e51b815260206004820152601d60248201527f45524332303a20696e73756666696369656e7420616c6c6f77616e63650000006044820152606401610517565b61160684848484036116eb565b6001600160a01b0383166118e75760405162461bcd60e51b815260206004820152602560248201527f45524332303a207472616e736665722066726f6d20746865207a65726f206164604482015264647265737360d81b6064820152608401610517565b6001600160a01b0382166119495760405162461bcd60e51b815260206004820152602360248201527f45524332303a207472616e7366657220746f20746865207a65726f206164647260448201526265737360e81b6064820152608401610517565b6001600160a01b038316600090815260336020526040902054818110156119c15760405162461bcd60e51b815260206004820152602660248201527f45524332303a207472616e7366657220616d6f756e7420657863656564732062604482015265616c616e636560d01b6064820152608401610517565b6001600160a01b038085166000908152603360205260408082208585039055918516815290812080548492906119f8908490612434565b92505081905550826001600160a01b0316846001600160a01b03167fddf252ad1be2c89b69c2b068fc378daa952ba7f163c4a11628f55a4df523b3ef84604051611a4491815260200190565b60405180910390a3611606565b6001600160a01b038216611ab15760405162461bcd60e51b815260206004820152602160248201527f45524332303a206275726e2066726f6d20746865207a65726f206164647265736044820152607360f81b6064820152608401610517565b6001600160a01b03821660009081526033602052604090205481811015611b255760405162461bcd60e51b815260206004820152602260248201527f45524332303a206275726e20616d6f756e7420657863656564732062616c616e604482015261636560f01b6064820152608401610517565b6001600160a01b0383166000908152603360205260408120838303905560358054849290611b549084906123ab565b90915550506040518281526000906001600160a01b038516907fddf252ad1be2c89b69c2b068fc378daa952ba7f163c4a11628f55a4df523b3ef9060200160405180910390a3505050565b6040516001600160a01b03831660248201526044810182905261142190849063a9059cbb60e01b906064016115cf565b60008054610100900460ff1615611c16578160ff166001148015611bf25750303b155b611c0e5760405162461bcd60e51b8152600401610517906126c0565b506000919050565b60005460ff808416911610611c3d5760405162461bcd60e51b8152600401610517906126c0565b506000805460ff191660ff92909216919091179055600190565b600054610100900460ff16611c7e5760405162461bcd60e51b81526004016105179061270e565b6115888282611d8b565b600054610100900460ff16611caf5760405162461bcd60e51b81526004016105179061270e565b611cb7611dd9565b565b6000611d0e826040518060400160405280602081526020017f5361666545524332303a206c6f772d6c6576656c2063616c6c206661696c6564815250856001600160a01b0316611e079092919063ffffffff16565b8051909150156114215780806020019051810190611d2c9190612759565b6114215760405162461bcd60e51b815260206004820152602a60248201527f5361666545524332303a204552433230206f7065726174696f6e20646964206e6044820152691bdd081cdd58d8d9595960b21b6064820152608401610517565b600054610100900460ff16611db25760405162461bcd60e51b81526004016105179061270e565b8151611dc5906036906020850190611f88565b508051611421906037906020840190611f88565b600054610100900460ff16611e005760405162461bcd60e51b81526004016105179061270e565b6001606555565b6060611e168484600085611e1e565b949350505050565b606082471015611e7f5760405162461bcd60e51b815260206004820152602660248201527f416464726573733a20696e73756666696369656e742062616c616e636520666f6044820152651c8818d85b1b60d21b6064820152608401610517565b6001600160a01b0385163b611ed65760405162461bcd60e51b815260206004820152601d60248201527f416464726573733a2063616c6c20746f206e6f6e2d636f6e74726163740000006044820152606401610517565b600080866001600160a01b03168587604051611ef2919061277b565b60006040518083038185875af1925050503d8060008114611f2f576040519150601f19603f3d011682016040523d82523d6000602084013e611f34565b606091505b5091509150611f44828286611f4f565b979650505050505050565b60608315611f5e575081610729565b825115611f6e5782518084602001fd5b8160405162461bcd60e51b8152600401610517919061204d565b828054611f94906123c2565b90600052602060002090601f016020900481019282611fb65760008555611ffc565b82601f10611fcf57805160ff1916838001178555611ffc565b82800160010185558215611ffc579182015b82811115611ffc578251825591602001919060010190611fe1565b5061200892915061200c565b5090565b5b80821115612008576000815560010161200d565b60005b8381101561203c578181015183820152602001612024565b838111156116065750506000910152565b602081526000825180602084015261206c816040850160208701612021565b601f01601f19169190910160400192915050565b6001600160a01b038116811461126a57600080fd5b8035610a9381612080565b600080604083850312156120b357600080fd5b82356120be81612080565b946020939093013593505050565b6000602082840312156120de57600080fd5b5035919050565b6000806000606084860312156120fa57600080fd5b833561210581612080565b9250602084013561211581612080565b929592945050506040919091013590565b60006020828403121561213857600080fd5b813561072981612080565b6000806040838503121561215657600080fd5b823561216181612080565b9150602083013561217181612080565b809150509250929050565b634e487b7160e01b600052604160045260246000fd5b600082601f8301126121a357600080fd5b813567ffffffffffffffff808211156121be576121be61217c565b604051601f8301601f19908116603f011681019082821181831017156121e6576121e661217c565b816040528381528660208588010111156121ff57600080fd5b836020870160208301376000602085830101528094505050505092915050565b600080600080600080600060e0888a03121561223a57600080fd5b873567ffffffffffffffff8082111561225257600080fd5b61225e8b838c01612192565b985060208a013591508082111561227457600080fd5b6122808b838c01612192565b975060408a013591508082111561229657600080fd5b6122a28b838c01612192565b96506122b060608b01612095565b95506122be60808b01612095565b945060a08a0135935060c08a01359150808211156122db57600080fd5b506122e88a828b01612192565b91505092959891949750929550565b6000806040838503121561230a57600080fd5b82359150602083013561217181612080565b60208082526022908201527f446973636f756e74426f6e643a204d5553545f4245464f52455f4d4154555249604082015261545960f01b606082015260800190565b6020808252601f908201527f5265656e7472616e637947756172643a207265656e7472616e742063616c6c00604082015260600190565b634e487b7160e01b600052601160045260246000fd5b6000828210156123bd576123bd612395565b500390565b600181811c908216806123d657607f821691505b602082108114156123f757634e487b7160e01b600052602260045260246000fd5b50919050565b6020808252601a908201527f446973636f756e74426f6e643a20554e415554484f52495a4544000000000000604082015260600190565b6000821982111561244757612447612395565b500190565b60006020828403121561245e57600080fd5b815160ff8116811461072957600080fd5b6020808252601c908201527f446973636f756e74426f6e643a20414d4f554e545f544f4f5f4c4f5700000000604082015260600190565b6000602082840312156124b857600080fd5b5051919050565b60008160001904831182151516156124d9576124d9612395565b500290565b6000826124fb57634e487b7160e01b600052601260045260246000fd5b500490565b60208082526024908201527f446973636f756e74426f6e643a20494e53554646494349454e545f4c495155496040820152634449545960e01b606082015260800190565b600060ff821660ff84168082101561255e5761255e612395565b90039392505050565b600181815b808511156125a257816000190482111561258857612588612395565b8085161561259557918102915b93841c939080029061256c565b509250929050565b6000826125b957506001610683565b816125c657506000610683565b81600181146125dc57600281146125e657612602565b6001915050610683565b60ff8411156125f7576125f7612395565b50506001821b610683565b5060208310610133831016604e8410600b8410161715612625575081810a610683565b61262f8383612567565b806000190482111561264357612643612395565b029392505050565b600061072960ff8416836125aa565b60006080828403121561266c57600080fd5b6040516080810181811067ffffffffffffffff8211171561268f5761268f61217c565b8060405250825181526020830151602082015260408301516040820152606083015160608201528091505092915050565b6020808252602e908201527f496e697469616c697a61626c653a20636f6e747261637420697320616c72656160408201526d191e481a5b9a5d1a585b1a5e995960921b606082015260800190565b6020808252602b908201527f496e697469616c697a61626c653a20636f6e7472616374206973206e6f74206960408201526a6e697469616c697a696e6760a81b606082015260800190565b60006020828403121561276b57600080fd5b8151801515811461072957600080fd5b6000825161278d818460208701612021565b919091019291505056fea2646970667358221220a0d02cd335c9071858e72f2fcf6018fdc339c17e725b6ffadf034d3ec269915864736f6c63430008090033496e697469616c697a61626c653a20636f6e747261637420697320616c726561",
  "devdoc": {
    "kind": "dev",
    "methods": {
      "allowance(address,address)": {
        "details": "See {IERC20-allowance}."
      },
      "approve(address,uint256)": {
        "details": "See {IERC20-approve}. NOTE: If `amount` is the maximum `uint256`, the allowance is not updated on `transferFrom`. This is semantically equivalent to an infinite approval. Requirements: - `spender` cannot be the zero address."
      },
      "balanceOf(address)": {
        "details": "See {IERC20-balanceOf}."
      },
      "constructor": {
        "custom:oz-upgrades-unsafe-allow": "constructor"
      },
      "decreaseAllowance(address,uint256)": {
        "details": "Atomically decreases the allowance granted to `spender` by the caller. This is an alternative to {approve} that can be used as a mitigation for problems described in {IERC20-approve}. Emits an {Approval} event indicating the updated allowance. Requirements: - `spender` cannot be the zero address. - `spender` must have allowance for the caller of at least `subtractedValue`."
      },
      "grant(uint256)": {
        "details": "grant specific amount of bond for user mint."
      },
      "increaseAllowance(address,uint256)": {
        "details": "Atomically increases the allowance granted to `spender` by the caller. This is an alternative to {approve} that can be used as a mitigation for problems described in {IERC20-approve}. Emits an {Approval} event indicating the updated allowance. Requirements: - `spender` cannot be the zero address."
      },
      "name()": {
        "details": "Returns the name of the token."
      },
      "symbol()": {
        "details": "Returns the symbol of the token, usually a shorter version of the name."
      },
      "totalSupply()": {
        "details": "See {IERC20-totalSupply}."
      },
      "transfer(address,uint256)": {
        "details": "See {IERC20-transfer}. Requirements: - `to` cannot be the zero address. - the caller must have a balance of at least `amount`."
      },
      "transferFrom(address,address,uint256)": {
        "details": "See {IERC20-transferFrom}. Emits an {Approval} event indicating the updated allowance. This is not required by the EIP. See the note at the beginning of {ERC20}. NOTE: Does not update the allowance if the current allowance is the maximum `uint256`. Requirements: - `from` and `to` cannot be the zero address. - `from` must have a balance of at least `amount`. - the caller must have allowance for ``from``'s tokens of at least `amount`."
      }
    },
    "version": 1
  },
  "userdoc": {
    "kind": "user",
    "methods": {},
    "version": 1
  },
  "storageLayout": {
    "storage": [
      {
        "astId": 6,
        "contract": "contracts/DiscountBond.sol:DiscountBond",
        "label": "_initialized",
        "offset": 0,
        "slot": "0",
        "type": "t_uint8"
      },
      {
        "astId": 9,
        "contract": "contracts/DiscountBond.sol:DiscountBond",
        "label": "_initializing",
        "offset": 1,
        "slot": "0",
        "type": "t_bool"
      },
      {
        "astId": 1533,
        "contract": "contracts/DiscountBond.sol:DiscountBond",
        "label": "__gap",
        "offset": 0,
        "slot": "1",
        "type": "t_array(t_uint256)50_storage"
      },
      {
        "astId": 330,
        "contract": "contracts/DiscountBond.sol:DiscountBond",
        "label": "_balances",
        "offset": 0,
        "slot": "51",
        "type": "t_mapping(t_address,t_uint256)"
      },
      {
        "astId": 336,
        "contract": "contracts/DiscountBond.sol:DiscountBond",
        "label": "_allowances",
        "offset": 0,
        "slot": "52",
        "type": "t_mapping(t_address,t_mapping(t_address,t_uint256))"
      },
      {
        "astId": 338,
        "contract": "contracts/DiscountBond.sol:DiscountBond",
        "label": "_totalSupply",
        "offset": 0,
        "slot": "53",
        "type": "t_uint256"
      },
      {
        "astId": 340,
        "contract": "contracts/DiscountBond.sol:DiscountBond",
        "label": "_name",
        "offset": 0,
        "slot": "54",
        "type": "t_string_storage"
      },
      {
        "astId": 342,
        "contract": "contracts/DiscountBond.sol:DiscountBond",
        "label": "_symbol",
        "offset": 0,
        "slot": "55",
        "type": "t_string_storage"
      },
      {
        "astId": 921,
        "contract": "contracts/DiscountBond.sol:DiscountBond",
        "label": "__gap",
        "offset": 0,
        "slot": "56",
        "type": "t_array(t_uint256)45_storage"
      },
      {
        "astId": 266,
        "contract": "contracts/DiscountBond.sol:DiscountBond",
        "label": "_status",
        "offset": 0,
        "slot": "101",
        "type": "t_uint256"
      },
      {
        "astId": 310,
        "contract": "contracts/DiscountBond.sol:DiscountBond",
        "label": "__gap",
        "offset": 0,
        "slot": "102",
        "type": "t_array(t_uint256)49_storage"
      },
      {
        "astId": 3378,
        "contract": "contracts/DiscountBond.sol:DiscountBond",
        "label": "factory",
        "offset": 0,
        "slot": "151",
        "type": "t_contract(IBondFactory)4170"
      },
      {
        "astId": 3381,
        "contract": "contracts/DiscountBond.sol:DiscountBond",
        "label": "underlyingToken",
        "offset": 0,
        "slot": "152",
        "type": "t_contract(IERC20MetadataUpgradeable)1025"
      },
      {
        "astId": 3383,
        "contract": "contracts/DiscountBond.sol:DiscountBond",
        "label": "maturity",
        "offset": 0,
        "slot": "153",
        "type": "t_uint256"
      },
      {
        "astId": 3385,
        "contract": "contracts/DiscountBond.sol:DiscountBond",
        "label": "series",
        "offset": 0,
        "slot": "154",
        "type": "t_string_storage"
      },
      {
        "astId": 3387,
        "contract": "contracts/DiscountBond.sol:DiscountBond",
        "label": "inventoryAmount",
        "offset": 0,
        "slot": "155",
        "type": "t_uint256"
      },
      {
        "astId": 3389,
        "contract": "contracts/DiscountBond.sol:DiscountBond",
        "label": "redeemedAmount",
        "offset": 0,
        "slot": "156",
        "type": "t_uint256"
      },
      {
        "astId": 3391,
        "contract": "contracts/DiscountBond.sol:DiscountBond",
        "label": "isin",
        "offset": 0,
        "slot": "157",
        "type": "t_string_storage"
      }
    ],
    "types": {
      "t_address": {
        "encoding": "inplace",
        "label": "address",
        "numberOfBytes": "20"
      },
      "t_array(t_uint256)45_storage": {
        "base": "t_uint256",
        "encoding": "inplace",
        "label": "uint256[45]",
        "numberOfBytes": "1440"
      },
      "t_array(t_uint256)49_storage": {
        "base": "t_uint256",
        "encoding": "inplace",
        "label": "uint256[49]",
        "numberOfBytes": "1568"
      },
      "t_array(t_uint256)50_storage": {
        "base": "t_uint256",
        "encoding": "inplace",
        "label": "uint256[50]",
        "numberOfBytes": "1600"
      },
      "t_bool": {
        "encoding": "inplace",
        "label": "bool",
        "numberOfBytes": "1"
      },
      "t_contract(IBondFactory)4170": {
        "encoding": "inplace",
        "label": "contract IBondFactory",
        "numberOfBytes": "20"
      },
      "t_contract(IERC20MetadataUpgradeable)1025": {
        "encoding": "inplace",
        "label": "contract IERC20MetadataUpgradeable",
        "numberOfBytes": "20"
      },
      "t_mapping(t_address,t_mapping(t_address,t_uint256))": {
        "encoding": "mapping",
        "key": "t_address",
        "label": "mapping(address => mapping(address => uint256))",
        "numberOfBytes": "32",
        "value": "t_mapping(t_address,t_uint256)"
      },
      "t_mapping(t_address,t_uint256)": {
        "encoding": "mapping",
        "key": "t_address",
        "label": "mapping(address => uint256)",
        "numberOfBytes": "32",
        "value": "t_uint256"
      },
      "t_string_storage": {
        "encoding": "bytes",
        "label": "string",
        "numberOfBytes": "32"
      },
      "t_uint256": {
        "encoding": "inplace",
        "label": "uint256",
        "numberOfBytes": "32"
      },
      "t_uint8": {
        "encoding": "inplace",
        "label": "uint8",
        "numberOfBytes": "1"
      }
    }
  }
}