{
  "address": "0xbac25F8fAd2966274eF74E61C3633FdF7d1fcCB4",
  "abi": [
    {
      "anonymous": false,
      "inputs": [
        {
          "indexed": true,
          "internalType": "address",
          "name": "user",
          "type": "address"
        },
        {
          "indexed": true,
          "internalType": "address",
          "name": "newAdmin",
          "type": "address"
        }
      ],
      "name": "AdminUpdated",
      "type": "event"
    },
    {
      "anonymous": false,
      "inputs": [
        {
          "indexed": true,
          "internalType": "string",
          "name": "groupTopic",
          "type": "string"
        }
      ],
      "name": "GroupCreated",
      "type": "event"
    },
    {
      "anonymous": false,
      "inputs": [
        {
          "indexed": true,
          "internalType": "string",
          "name": "groupTopic",
          "type": "string"
        }
      ],
      "name": "GroupDestroyed",
      "type": "event"
    },
    {
      "anonymous": false,
      "inputs": [
        {
          "indexed": true,
          "internalType": "string",
          "name": "groupTopic",
          "type": "string"
        },
        {
          "indexed": false,
          "internalType": "address",
          "name": "item",
          "type": "address"
        }
      ],
      "name": "GroupItemAppended",
      "type": "event"
    },
    {
      "anonymous": false,
      "inputs": [
        {
          "indexed": true,
          "internalType": "string",
          "name": "groupTopic",
          "type": "string"
        },
        {
          "indexed": false,
          "internalType": "address",
          "name": "item",
          "type": "address"
        }
      ],
      "name": "GroupItemRemoved",
      "type": "event"
    },
    {
      "anonymous": false,
      "inputs": [
        {
          "indexed": false,
          "internalType": "uint8",
          "name": "version",
          "type": "uint8"
        }
      ],
      "name": "Initialized",
      "type": "event"
    },
    {
      "inputs": [],
      "name": "admin",
      "outputs": [
        {
          "internalType": "address",
          "name": "",
          "type": "address"
        }
      ],
      "stateMutability": "view",
      "type": "function"
    },
    {
      "inputs": [
        {
          "internalType": "string",
          "name": "groupName_",
          "type": "string"
        },
        {
          "internalType": "address",
          "name": "itemAddress_",
          "type": "address"
        }
      ],
      "name": "appendGroupItem",
      "outputs": [],
      "stateMutability": "nonpayable",
      "type": "function"
    },
    {
      "inputs": [
        {
          "internalType": "string",
          "name": "groupName_",
          "type": "string"
        }
      ],
      "name": "createGroup",
      "outputs": [],
      "stateMutability": "nonpayable",
      "type": "function"
    },
    {
      "inputs": [
        {
          "internalType": "string",
          "name": "groupName_",
          "type": "string"
        }
      ],
      "name": "destroyGroup",
      "outputs": [],
      "stateMutability": "nonpayable",
      "type": "function"
    },
    {
      "inputs": [],
      "name": "groupNames",
      "outputs": [
        {
          "internalType": "string[]",
          "name": "",
          "type": "string[]"
        }
      ],
      "stateMutability": "view",
      "type": "function"
    },
    {
      "inputs": [
        {
          "internalType": "string",
          "name": "groupName_",
          "type": "string"
        }
      ],
      "name": "groupedAddresses",
      "outputs": [
        {
          "internalType": "address[]",
          "name": "",
          "type": "address[]"
        }
      ],
      "stateMutability": "view",
      "type": "function"
    },
    {
      "inputs": [
        {
          "internalType": "address",
          "name": "admin_",
          "type": "address"
        }
      ],
      "name": "initialize",
      "outputs": [],
      "stateMutability": "nonpayable",
      "type": "function"
    },
    {
      "inputs": [
        {
          "internalType": "string",
          "name": "groupName_",
          "type": "string"
        },
        {
          "internalType": "address",
          "name": "itemAddress_",
          "type": "address"
        }
      ],
      "name": "removeGroupItem",
      "outputs": [],
      "stateMutability": "nonpayable",
      "type": "function"
    },
    {
      "inputs": [
        {
          "internalType": "address",
          "name": "newAdmin",
          "type": "address"
        }
      ],
      "name": "setAdmin",
      "outputs": [],
      "stateMutability": "nonpayable",
      "type": "function"
    }
  ],
  "transactionHash": "0x3b347d58331f2ccc99a86b721bab6b40d2325e4a6da9605ec5c594272d3ef08e",
  "args": [],
  "numDeployments": 5,
  "solcInputHash": "49a2df2cb8e34b9c0756d07ceb95c4c4",
  "bytecode": "0x608060405234801561001057600080fd5b5061139d806100206000396000f3fe608060405234801561001057600080fd5b50600436106100935760003560e01c8063c4d66de811610066578063c4d66de8146100f1578063dc2ddcae14610104578063e0ea7b3114610117578063ec41f7a114610137578063f851a4401461014a57600080fd5b806331a9370014610098578063704b6c02146100ad57806392f7dac1146100c0578063bb8016dd146100de575b600080fd5b6100ab6100a6366004610f9a565b61017b565b005b6100ab6100bb366004610ff3565b610370565b6100c86103ac565b6040516100d59190611015565b60405180910390f35b6100ab6100ec3660046110b0565b610485565b6100ab6100ff366004610ff3565b610716565b6100ab610112366004610f9a565b6107e3565b61012a610125366004610f9a565b61099d565b6040516100d59190611104565b6100ab6101453660046110b0565b610a1a565b600054610163906201000090046001600160a01b031681565b6040516001600160a01b0390911681526020016100d5565b6000546201000090046001600160a01b031633146101b45760405162461bcd60e51b81526004016101ab90611151565b60405180910390fd5b60001960005b6001548110156102505783836040516020016101d7929190611177565b604051602081830303815290604052805190602001206001828154811061020057610200611187565b9060005260206000200160405160200161021a91906111d8565b60405160208183030381529060405280519060200120141561023e57809150610250565b806102488161128a565b9150506101ba565b5060008112156102725760405162461bcd60e51b81526004016101ab906112a5565b600180546102819082906112d5565b8154811061029157610291611187565b90600052602060002001600182815481106102ae576102ae611187565b906000526020600020019080546102c49061119d565b6102cf929190610d90565b5060018054806102e1576102e16112ec565b6001900381819060005260206000200160006102fd9190610e1b565b905560028383604051610311929190611177565b9081526020016040518091039020600061032b9190610e55565b828260405161033b929190611177565b604051908190038120907f0947f0f80f952b50741ab830998780d54536ca29bde012c7d8777485875bc92090600090a2505050565b6000546201000090046001600160a01b031633146103a05760405162461bcd60e51b81526004016101ab90611151565b6103a981610c4e565b50565b60606001805480602002602001604051908101604052809291908181526020016000905b8282101561047c5783829060005260206000200180546103ef9061119d565b80601f016020809104026020016040519081016040528092919081815260200182805461041b9061119d565b80156104685780601f1061043d57610100808354040283529160200191610468565b820191906000526020600020905b81548152906001019060200180831161044b57829003601f168201915b5050505050815260200190600101906103d0565b50505050905090565b6000546201000090046001600160a01b031633146104b55760405162461bcd60e51b81526004016101ab90611151565b82826000805b6001548110156105525783836040516020016104d8929190611177565b604051602081830303815290604052805190602001206001828154811061050157610501611187565b9060005260206000200160405160200161051b91906111d8565b6040516020818303038152906040528051906020012014156105405760019150610552565b8061054a8161128a565b9150506104bb565b50806105705760405162461bcd60e51b81526004016101ab906112a5565b600060028787604051610584929190611177565b90815260405190819003602001902080549091506105a2575061070e565b80546000906105b3906001906112d5565b90505b856001600160a01b03168282815481106105d2576105d2611187565b6000918252602090912001546001600160a01b0316146105f1576106f9565b81548290610601906001906112d5565b8154811061061157610611611187565b9060005260206000200160009054906101000a90046001600160a01b031682828154811061064157610641611187565b9060005260206000200160006101000a8154816001600160a01b0302191690836001600160a01b031602179055508180548061067f5761067f6112ec565b600082815260209020810160001990810180546001600160a01b03191690550190556040516106b19089908990611177565b6040519081900381206001600160a01b0388168252907f84c77510c2028d2f665c381b397b23408099bf1519177be9499c21047adaf8929060200160405180910390a261070b565b8061070381611302565b9150506105b6565b50505b505050505050565b60006107226001610d03565b9050801561073a576000805461ff0019166101001790555b6001600160a01b0382166107905760405162461bcd60e51b815260206004820152601e60248201527f43616e74207365742061646d696e20746f207a65726f2061646472657373000060448201526064016101ab565b61079982610c4e565b80156107df576000805461ff0019169055604051600181527f7f26b83ff96e1f2b6a682f133852f6798a09c465da95921460cefb38474024989060200160405180910390a15b5050565b6000546201000090046001600160a01b031633146108135760405162461bcd60e51b81526004016101ab90611151565b60005b6001548110156108e3578282604051602001610833929190611177565b604051602081830303815290604052805190602001206001828154811061085c5761085c611187565b9060005260206000200160405160200161087691906111d8565b6040516020818303038152906040528051906020012014156108d15760405162461bcd60e51b81526020600482015260146024820152734475706c69636174652067726f7570206e616d6560601b60448201526064016101ab565b806108db8161128a565b915050610816565b50606080600284846040516108f9929190611177565b9081526020016040518091039020908051906020019061091a929190610e73565b50600180548082018255600091909152610957907fb10e2d527612073b26eecdfd717e6a320cf44b4afac2b0732d9fcbe2b7fa0cf6018484610ec8565b508282604051610968929190611177565b604051908190038120907fb4082bf161f07af2ff5aed9b78e2cb1baf973ed4f2cc2e6e8e81a46752cc334590600090a2505050565b6060600283836040516109b1929190611177565b9081526040805191829003602090810183208054808302850183019093528284529190830182828015610a0d57602002820191906000526020600020905b81546001600160a01b031681526001909101906020018083116109ef575b5050505050905092915050565b6000546201000090046001600160a01b03163314610a4a5760405162461bcd60e51b81526004016101ab90611151565b82826000805b600154811015610ae7578383604051602001610a6d929190611177565b6040516020818303038152906040528051906020012060018281548110610a9657610a96611187565b90600052602060002001604051602001610ab091906111d8565b604051602081830303815290604052805190602001201415610ad55760019150610ae7565b80610adf8161128a565b915050610a50565b5080610b055760405162461bcd60e51b81526004016101ab906112a5565b600060028787604051610b19929190611177565b9081526020016040518091039020905060005b8154811015610bc657856001600160a01b0316828281548110610b5157610b51611187565b6000918252602090912001546001600160a01b03161415610bb45760405162461bcd60e51b815260206004820152601a60248201527f4475706c6963617465206164647265737320696e2067726f757000000000000060448201526064016101ab565b80610bbe8161128a565b915050610b2c565b5080546001810182556000828152602090200180546001600160a01b0319166001600160a01b038716179055604051610c029088908890611177565b6040519081900381206001600160a01b0387168252907fe4016f5dc087e44f3b1df5acaed10fd1c96b3aeb2fcf3609e71b88c730d7a3cb9060200160405180910390a250505050505050565b6001600160a01b038116610cae5760405162461bcd60e51b815260206004820152602160248201527f43616e206e6f74207365742061646d696e20746f207a65726f206164647265736044820152607360f81b60648201526084016101ab565b6000805462010000600160b01b031916620100006001600160a01b038416908102919091178255604051909133917f101b8081ff3b56bbf45deb824d86a3b0fd38b7e3dd42421105cf8abe9106db0b9190a350565b60008054610100900460ff1615610d4a578160ff166001148015610d265750303b155b610d425760405162461bcd60e51b81526004016101ab90611319565b506000919050565b60005460ff808416911610610d715760405162461bcd60e51b81526004016101ab90611319565b506000805460ff191660ff92909216919091179055600190565b919050565b828054610d9c9061119d565b90600052602060002090601f016020900481019282610dbe5760008555610e0b565b82601f10610dcf5780548555610e0b565b82800160010185558215610e0b57600052602060002091601f016020900482015b82811115610e0b578254825591600101919060010190610df0565b50610e17929150610f3c565b5090565b508054610e279061119d565b6000825580601f10610e37575050565b601f0160209004906000526020600020908101906103a99190610f3c565b50805460008255906000526020600020908101906103a99190610f3c565b828054828255906000526020600020908101928215610e0b579160200282015b82811115610e0b57825182546001600160a01b0319166001600160a01b03909116178255602090920191600190910190610e93565b828054610ed49061119d565b90600052602060002090601f016020900481019282610ef65760008555610e0b565b82601f10610f0f5782800160ff19823516178555610e0b565b82800160010185558215610e0b579182015b82811115610e0b578235825591602001919060010190610f21565b5b80821115610e175760008155600101610f3d565b60008083601f840112610f6357600080fd5b50813567ffffffffffffffff811115610f7b57600080fd5b602083019150836020828501011115610f9357600080fd5b9250929050565b60008060208385031215610fad57600080fd5b823567ffffffffffffffff811115610fc457600080fd5b610fd085828601610f51565b90969095509350505050565b80356001600160a01b0381168114610d8b57600080fd5b60006020828403121561100557600080fd5b61100e82610fdc565b9392505050565b6000602080830181845280855180835260408601915060408160051b87010192508387016000805b838110156110a257888603603f1901855282518051808852835b81811015611072578281018a01518982018b01528901611057565b8181111561108257848a838b0101525b50601f01601f19169690960187019550938601939186019160010161103d565b509398975050505050505050565b6000806000604084860312156110c557600080fd5b833567ffffffffffffffff8111156110dc57600080fd5b6110e886828701610f51565b90945092506110fb905060208501610fdc565b90509250925092565b6020808252825182820181905260009190848201906040850190845b818110156111455783516001600160a01b031683529284019291840191600101611120565b50909695505050505050565b6020808252600c908201526b15539055551213d49256915160a21b604082015260600190565b8183823760009101908152919050565b634e487b7160e01b600052603260045260246000fd5b600181811c908216806111b157607f821691505b602082108114156111d257634e487b7160e01b600052602260045260246000fd5b50919050565b600080835481600182811c9150808316806111f457607f831692505b602080841082141561121457634e487b7160e01b86526022600452602486fd5b818015611228576001811461123957611266565b60ff19861689528489019650611266565b60008a81526020902060005b8681101561125e5781548b820152908501908301611245565b505084890196505b509498975050505050505050565b634e487b7160e01b600052601160045260246000fd5b600060001982141561129e5761129e611274565b5060010190565b602080825260169082015275556e7265676973747265642067726f7570206e616d6560501b604082015260600190565b6000828210156112e7576112e7611274565b500390565b634e487b7160e01b600052603160045260246000fd5b60008161131157611311611274565b506000190190565b6020808252602e908201527f496e697469616c697a61626c653a20636f6e747261637420697320616c72656160408201526d191e481a5b9a5d1a585b1a5e995960921b60608201526080019056fea2646970667358221220b76cc744b3e347d1e61fabb21c1120c7ada6c1757d424208573b9320a8259d5b64736f6c63430008090033",
  "devdoc": {
    "kind": "dev",
    "methods": {},
    "version": 1
  },
  "userdoc": {
    "kind": "user",
    "methods": {},
    "version": 1
  },
  "storageLayout": {
    "storage": [
      {
        "astId": 6,
        "contract": "contracts/ExtendableBondRegistry.sol:ExtendableBondRegistry",
        "label": "_initialized",
        "offset": 0,
        "slot": "0",
        "type": "t_uint8"
      },
      {
        "astId": 9,
        "contract": "contracts/ExtendableBondRegistry.sol:ExtendableBondRegistry",
        "label": "_initializing",
        "offset": 1,
        "slot": "0",
        "type": "t_bool"
      },
      {
        "astId": 3923,
        "contract": "contracts/ExtendableBondRegistry.sol:ExtendableBondRegistry",
        "label": "admin",
        "offset": 2,
        "slot": "0",
        "type": "t_address"
      },
      {
        "astId": 6786,
        "contract": "contracts/ExtendableBondRegistry.sol:ExtendableBondRegistry",
        "label": "groups",
        "offset": 0,
        "slot": "1",
        "type": "t_array(t_string_storage)dyn_storage"
      },
      {
        "astId": 6791,
        "contract": "contracts/ExtendableBondRegistry.sol:ExtendableBondRegistry",
        "label": "groupedExtendableBonds",
        "offset": 0,
        "slot": "2",
        "type": "t_mapping(t_string_memory_ptr,t_array(t_address)dyn_storage)"
      }
    ],
    "types": {
      "t_address": {
        "encoding": "inplace",
        "label": "address",
        "numberOfBytes": "20"
      },
      "t_array(t_address)dyn_storage": {
        "base": "t_address",
        "encoding": "dynamic_array",
        "label": "address[]",
        "numberOfBytes": "32"
      },
      "t_array(t_string_storage)dyn_storage": {
        "base": "t_string_storage",
        "encoding": "dynamic_array",
        "label": "string[]",
        "numberOfBytes": "32"
      },
      "t_bool": {
        "encoding": "inplace",
        "label": "bool",
        "numberOfBytes": "1"
      },
      "t_mapping(t_string_memory_ptr,t_array(t_address)dyn_storage)": {
        "encoding": "mapping",
        "key": "t_string_memory_ptr",
        "label": "mapping(string => address[])",
        "numberOfBytes": "32",
        "value": "t_array(t_address)dyn_storage"
      },
      "t_string_memory_ptr": {
        "encoding": "bytes",
        "label": "string",
        "numberOfBytes": "32"
      },
      "t_string_storage": {
        "encoding": "bytes",
        "label": "string",
        "numberOfBytes": "32"
      },
      "t_uint8": {
        "encoding": "inplace",
        "label": "uint8",
        "numberOfBytes": "1"
      }
    }
  }
}