{
  "address": "0x684b833C92e777D5Ea2c9D85908f0E14b99d72AA",
  "abi": [
    {
      "anonymous": false,
      "inputs": [
        {
          "indexed": true,
          "internalType": "address",
          "name": "user",
          "type": "address"
        },
        {
          "indexed": true,
          "internalType": "address",
          "name": "newAdmin",
          "type": "address"
        }
      ],
      "name": "AdminUpdated",
      "type": "event"
    },
    {
      "anonymous": false,
      "inputs": [
        {
          "indexed": false,
          "internalType": "address",
          "name": "token",
          "type": "address"
        },
        {
          "indexed": false,
          "internalType": "address",
          "name": "vault",
          "type": "address"
        },
        {
          "indexed": false,
          "internalType": "address",
          "name": "oracle",
          "type": "address"
        }
      ],
      "name": "DTokenCreated",
      "type": "event"
    },
    {
      "anonymous": false,
      "inputs": [
        {
          "indexed": false,
          "internalType": "uint8",
          "name": "version",
          "type": "uint8"
        }
      ],
      "name": "Initialized",
      "type": "event"
    },
    {
      "inputs": [],
      "name": "admin",
      "outputs": [
        {
          "internalType": "address",
          "name": "",
          "type": "address"
        }
      ],
      "stateMutability": "view",
      "type": "function"
    },
    {
      "inputs": [],
      "name": "appCtrl",
      "outputs": [
        {
          "internalType": "contract IController",
          "name": "",
          "type": "address"
        }
      ],
      "stateMutability": "view",
      "type": "function"
    },
    {
      "inputs": [
        {
          "internalType": "string",
          "name": "name_",
          "type": "string"
        },
        {
          "internalType": "string",
          "name": "symbol_",
          "type": "string"
        },
        {
          "internalType": "contract AggregatorV3Interface",
          "name": "aggregator_",
          "type": "address"
        }
      ],
      "name": "createMintingSuite",
      "outputs": [],
      "stateMutability": "nonpayable",
      "type": "function"
    },
    {
      "inputs": [],
      "name": "dTokenList",
      "outputs": [
        {
          "components": [
            {
              "internalType": "address",
              "name": "token",
              "type": "address"
            },
            {
              "internalType": "address",
              "name": "vault",
              "type": "address"
            },
            {
              "internalType": "address",
              "name": "oracle",
              "type": "address"
            }
          ],
          "internalType": "struct DTokenSuiteFactory.DTokenSuite[]",
          "name": "",
          "type": "tuple[]"
        }
      ],
      "stateMutability": "view",
      "type": "function"
    },
    {
      "inputs": [],
      "name": "feeConf",
      "outputs": [
        {
          "internalType": "address",
          "name": "",
          "type": "address"
        }
      ],
      "stateMutability": "view",
      "type": "function"
    },
    {
      "inputs": [
        {
          "internalType": "uint256",
          "name": "index",
          "type": "uint256"
        }
      ],
      "name": "forgetMintingSuite",
      "outputs": [],
      "stateMutability": "nonpayable",
      "type": "function"
    },
    {
      "inputs": [
        {
          "internalType": "address",
          "name": "admin_",
          "type": "address"
        },
        {
          "internalType": "address",
          "name": "appCtrl_",
          "type": "address"
        },
        {
          "internalType": "address",
          "name": "feeConf_",
          "type": "address"
        },
        {
          "internalType": "address",
          "name": "sharedVaultImplement_",
          "type": "address"
        }
      ],
      "name": "initialize",
      "outputs": [],
      "stateMutability": "nonpayable",
      "type": "function"
    },
    {
      "inputs": [
        {
          "internalType": "address",
          "name": "newAdmin",
          "type": "address"
        }
      ],
      "name": "setAdmin",
      "outputs": [],
      "stateMutability": "nonpayable",
      "type": "function"
    },
    {
      "inputs": [
        {
          "internalType": "address",
          "name": "implement_",
          "type": "address"
        }
      ],
      "name": "setSharedVaultImplement",
      "outputs": [],
      "stateMutability": "nonpayable",
      "type": "function"
    },
    {
      "inputs": [],
      "name": "sharedVaultImplement",
      "outputs": [
        {
          "internalType": "address",
          "name": "",
          "type": "address"
        }
      ],
      "stateMutability": "view",
      "type": "function"
    },
    {
      "inputs": [
        {
          "internalType": "address",
          "name": "contract_",
          "type": "address"
        }
      ],
      "name": "updateAppCtrl",
      "outputs": [],
      "stateMutability": "nonpayable",
      "type": "function"
    },
    {
      "inputs": [
        {
          "internalType": "address",
          "name": "contract_",
          "type": "address"
        }
      ],
      "name": "updateFeeConf",
      "outputs": [],
      "stateMutability": "nonpayable",
      "type": "function"
    }
  ],
  "transactionHash": "0xd8e5d8241d7d000f9f4251c51593fee60a94f1be9721896fb370f8bab3a9a2d2",
  "args": [],
  "numDeployments": 6,
  "solcInputHash": "f0c5b8e3b13b6e3b977d5751816c3c91",
  "bytecode": "0x608060405234801561001057600080fd5b50615817806100206000396000f3fe60806040523480156200001157600080fd5b5060043610620000c35760003560e01c8063877c8cd1116200007a578063877c8cd1146200016e578063d539c69e1462000182578063e17e14181462000199578063eb88e42b14620001ad578063f851a44014620001c6578063f8c8765e14620001e057600080fd5b80630ee8284d14620000c85780633a97a1e114620000e1578063491e507814620000f85780634ad9e9f1146200010f578063704b6c02146200014057806385aeeac91462000157575b600080fd5b620000df620000d936600462000ba2565b620001f7565b005b620000df620000f236600462000bd2565b62000359565b620000df6200010936600462000bd2565b620003ae565b60025462000123906001600160a01b031681565b6040516001600160a01b0390911681526020015b60405180910390f35b620000df6200015136600462000bd2565b62000403565b620000df6200016836600462000bd2565b62000444565b60035462000123906001600160a01b031681565b620000df6200019336600462000ca4565b62000548565b60045462000123906001600160a01b031681565b620001b762000893565b60405162000137919062000d25565b60005462000123906201000090046001600160a01b031681565b620000df620001f136600462000d8f565b6200091c565b6000546201000090046001600160a01b03163314620002335760405162461bcd60e51b81526004016200022a9062000df4565b60405180910390fd5b805b6001805462000245919062000e30565b811015620003045760016200025b828262000e4a565b815481106200026e576200026e62000e65565b90600052602060002090600302016001828154811062000292576200029262000e65565b60009182526020909120825460039092020180546001600160a01b03199081166001600160a01b03938416178255600180850154908301805483169185169190911790556002938401549390910180549091169290911691909117905580620002fb8162000e7b565b91505062000235565b50600180548062000319576200031962000e99565b60008281526020902060036000199092019182020180546001600160a01b0319908116825560018201805482169055600290910180549091169055905550565b6000546201000090046001600160a01b031633146200038c5760405162461bcd60e51b81526004016200022a9062000df4565b600280546001600160a01b0319166001600160a01b0392909216919091179055565b6000546201000090046001600160a01b03163314620003e15760405162461bcd60e51b81526004016200022a9062000df4565b600380546001600160a01b0319166001600160a01b0392909216919091179055565b6000546201000090046001600160a01b03163314620004365760405162461bcd60e51b81526004016200022a9062000df4565b620004418162000a31565b50565b6000546201000090046001600160a01b03163314620004775760405162461bcd60e51b81526004016200022a9062000df4565b600480546001600160a01b0319166001600160a01b03831617905560005b600154811015620005445760018181548110620004b657620004b662000e65565b600091825260209091206003909102016001015460048054604051631b2ce7f360e11b81526001600160a01b039182169281019290925290911690633659cfe690602401600060405180830381600087803b1580156200051557600080fd5b505af11580156200052a573d6000803e3d6000fd5b5050505080806200053b9062000e7b565b91505062000495565b5050565b6000546201000090046001600160a01b031633146200057b5760405162461bcd60e51b81526004016200022a9062000df4565b600083836040516200058d9062000b78565b6200059a92919062000eff565b604051809103906000f080158015620005b7573d6000803e3d6000fd5b5090506000604051620005ca9062000b86565b604051809103906000f080158015620005e7573d6000803e3d6000fd5b506004546040519192506000916001600160a01b03909116906200060b9062000b94565b6001600160a01b039091168152602001604051809103906000f08015801562000638573d6000803e3d6000fd5b5060025460035460405163c0c53b8b60e01b81526001600160a01b0392831660048201529082166024820152858216604482015291925082169063c0c53b8b90606401600060405180830381600087803b1580156200069657600080fd5b505af1158015620006ab573d6000803e3d6000fd5b50506040516339ca53fb60e11b81526001600160a01b038681166004830152878116602483015285169250637394a7f69150604401600060405180830381600087803b158015620006fb57600080fd5b505af115801562000710573d6000803e3d6000fd5b50506040516379cc172f60e11b81526001600160a01b0384811660048301528616925063f3982e5e9150602401600060405180830381600087803b1580156200075857600080fd5b505af11580156200076d573d6000803e3d6000fd5b505060408051606080820183526001600160a01b0388811683528681166020808501918252898316858701908152600180548082018255600091909152865160039091027fb10e2d527612073b26eecdfd717e6a320cf44b4afac2b0732d9fcbe2b7fa0cf6810180549287166001600160a01b0319938416811790915594517fb10e2d527612073b26eecdfd717e6a320cf44b4afac2b0732d9fcbe2b7fa0cf7820180549188169184168217905592517fb10e2d527612073b26eecdfd717e6a320cf44b4afac2b0732d9fcbe2b7fa0cf890910180549190961691168117909455865192835290820152938401529093507fb9b804d067955ba3fb653162be4888bb4494e63911c6a0ae909ecdfcffade9d092500160405180910390a150505050505050565b60606001805480602002602001604051908101604052809291908181526020016000905b8282101562000913576000848152602090819020604080516060810182526003860290920180546001600160a01b03908116845260018083015482168587015260029092015416918301919091529083529092019101620008b7565b50505050905090565b60006200092a600162000ae8565b9050801562000943576000805461ff0019166101001790555b6001600160a01b0385166200099b5760405162461bcd60e51b815260206004820152601e60248201527f43616e74207365742061646d696e20746f207a65726f2061646472657373000060448201526064016200022a565b620009a68562000a31565b600280546001600160a01b038087166001600160a01b031992831617909255600380548684169083161790556004805492851692909116919091179055801562000a2a576000805461ff0019169055604051600181527f7f26b83ff96e1f2b6a682f133852f6798a09c465da95921460cefb38474024989060200160405180910390a15b5050505050565b6001600160a01b03811662000a935760405162461bcd60e51b815260206004820152602160248201527f43616e206e6f74207365742061646d696e20746f207a65726f206164647265736044820152607360f81b60648201526084016200022a565b6000805462010000600160b01b031916620100006001600160a01b038416908102919091178255604051909133917f101b8081ff3b56bbf45deb824d86a3b0fd38b7e3dd42421105cf8abe9106db0b9190a350565b60008054610100900460ff161562000b34578160ff16600114801562000b0d5750303b155b62000b2c5760405162461bcd60e51b81526004016200022a9062000f31565b506000919050565b60005460ff80841691161062000b5e5760405162461bcd60e51b81526004016200022a9062000f31565b506000805460ff191660ff92909216919091179055600190565b611c9c8062000f8083390190565b61063f8062002c1c83390190565b612587806200325b83390190565b60006020828403121562000bb557600080fd5b5035919050565b6001600160a01b03811681146200044157600080fd5b60006020828403121562000be557600080fd5b813562000bf28162000bbc565b9392505050565b634e487b7160e01b600052604160045260246000fd5b600082601f83011262000c2157600080fd5b813567ffffffffffffffff8082111562000c3f5762000c3f62000bf9565b604051601f8301601f19908116603f0116810190828211818310171562000c6a5762000c6a62000bf9565b8160405283815286602085880101111562000c8457600080fd5b836020870160208301376000602085830101528094505050505092915050565b60008060006060848603121562000cba57600080fd5b833567ffffffffffffffff8082111562000cd357600080fd5b62000ce18783880162000c0f565b9450602086013591508082111562000cf857600080fd5b5062000d078682870162000c0f565b925050604084013562000d1a8162000bbc565b809150509250925092565b602080825282518282018190526000919060409081850190868401855b8281101562000d8257815180516001600160a01b039081168652878201518116888701529086015116858501526060909301929085019060010162000d42565b5091979650505050505050565b6000806000806080858703121562000da657600080fd5b843562000db38162000bbc565b9350602085013562000dc58162000bbc565b9250604085013562000dd78162000bbc565b9150606085013562000de98162000bbc565b939692955090935050565b6020808252600c908201526b15539055551213d49256915160a21b604082015260600190565b634e487b7160e01b600052601160045260246000fd5b60008282101562000e455762000e4562000e1a565b500390565b6000821982111562000e605762000e6062000e1a565b500190565b634e487b7160e01b600052603260045260246000fd5b600060001982141562000e925762000e9262000e1a565b5060010190565b634e487b7160e01b600052603160045260246000fd5b6000815180845260005b8181101562000ed75760208185018101518683018201520162000eb9565b8181111562000eea576000602083870101525b50601f01601f19169290920160200192915050565b60408152600062000f14604083018562000eaf565b828103602084015262000f28818562000eaf565b95945050505050565b6020808252602e908201527f496e697469616c697a61626c653a20636f6e747261637420697320616c72656160408201526d191e481a5b9a5d1a585b1a5e995960921b60608201526080019056fe6101406040523480156200001257600080fd5b5060405162001c9c38038062001c9c8339810160408190526200003591620003e2565b8180604051806040016040528060018152602001603160f81b815250848481600390805190602001906200006b9291906200026f565b508051620000819060049060208401906200026f565b5050825160209384012082519284019290922060e08390526101008190524660a0818152604080517f8b73c3c69bb8fe3d512ecc4cf759cc79239f7b179b0ffacaa9a75d522b39400f818901819052818301979097526060810194909452608080850193909352308483018190528151808603909301835260c09485019091528151919096012090529290925261012052506200012090503362000135565b6200012d33600062000187565b5050620004b0565b600780546001600160a01b038381166001600160a01b0319831681179093556040519116919082907f8be0079c531659141344cd1fd0a4f28419497f9722a3daafe3b4186f6b6457e090600090a35050565b6001600160a01b038216620001e25760405162461bcd60e51b815260206004820152601f60248201527f45524332303a206d696e7420746f20746865207a65726f206164647265737300604482015260640160405180910390fd5b8060026000828254620001f691906200044c565b90915550506001600160a01b03821660009081526020819052604081208054839290620002259084906200044c565b90915550506040518181526001600160a01b038316906000907fddf252ad1be2c89b69c2b068fc378daa952ba7f163c4a11628f55a4df523b3ef9060200160405180910390a35050565b8280546200027d9062000473565b90600052602060002090601f016020900481019282620002a15760008555620002ec565b82601f10620002bc57805160ff1916838001178555620002ec565b82800160010185558215620002ec579182015b82811115620002ec578251825591602001919060010190620002cf565b50620002fa929150620002fe565b5090565b5b80821115620002fa5760008155600101620002ff565b634e487b7160e01b600052604160045260246000fd5b600082601f8301126200033d57600080fd5b81516001600160401b03808211156200035a576200035a62000315565b604051601f8301601f19908116603f0116810190828211818310171562000385576200038562000315565b81604052838152602092508683858801011115620003a257600080fd5b600091505b83821015620003c65785820183015181830184015290820190620003a7565b83821115620003d85760008385830101525b9695505050505050565b60008060408385031215620003f657600080fd5b82516001600160401b03808211156200040e57600080fd5b6200041c868387016200032b565b935060208501519150808211156200043357600080fd5b5062000442858286016200032b565b9150509250929050565b600082198211156200046e57634e487b7160e01b600052601160045260246000fd5b500190565b600181811c908216806200048857607f821691505b60208210811415620004aa57634e487b7160e01b600052602260045260246000fd5b50919050565b60805160a05160c05160e051610100516101205161179c620005006000396000610d9e01526000610ded01526000610dc801526000610d2101526000610d4b01526000610d75015261179c6000f3fe608060405234801561001057600080fd5b506004361061014d5760003560e01c806370a08231116100c3578063a457c2d71161007c578063a457c2d7146102ba578063a9059cbb146102cd578063d505accf146102e0578063dd62ed3e146102f3578063f2fde38b14610306578063f3982e5e1461031957600080fd5b806370a0823114610240578063715018a6146102695780637ecebe00146102715780638da5cb5b1461028457806395d89b411461029f5780639bd9bbc6146102a757600080fd5b8063313ce56711610115578063313ce567146101cd5780633644e515146101dc57806339509351146101e457806340c10f19146101f757806342966c681461020a578063648ec7b91461021d57600080fd5b806306fdde0314610152578063095ea7b314610170578063102425901461019357806318160ddd146101a857806323b872dd146101ba575b600080fd5b61015a61032c565b60405161016791906113f8565b60405180910390f35b61018361017e366004611469565b6103be565b6040519015158152602001610167565b6101a66101a1366004611493565b6103d6565b005b6002545b604051908152602001610167565b6101836101c83660046114b5565b61045f565b60405160128152602001610167565b6101ac610483565b6101836101f2366004611469565b610492565b6101a6610205366004611469565b6104b4565b6101a66102183660046114f1565b610511565b61018361022b366004611493565b60086020526000908152604090205460ff1681565b6101ac61024e366004611493565b6001600160a01b031660009081526020819052604090205490565b6101a661051e565b6101ac61027f366004611493565b610554565b6007546040516001600160a01b039091168152602001610167565b61015a610574565b6101836102b536600461150a565b610583565b6101836102c8366004611469565b610676565b6101836102db366004611469565b6106f1565b6101a66102ee366004611591565b6106ff565b6101ac610301366004611604565b610863565b6101a6610314366004611493565b61088e565b6101a6610327366004611493565b610926565b60606003805461033b90611637565b80601f016020809104026020016040519081016040528092919081815260200182805461036790611637565b80156103b45780601f10610389576101008083540402835291602001916103b4565b820191906000526020600020905b81548152906001019060200180831161039757829003601f168201915b5050505050905090565b6000336103cc8185856109a7565b5060019392505050565b6007546001600160a01b031633146104095760405162461bcd60e51b81526004016104009061166c565b60405180910390fd5b6001600160a01b0381166000818152600860209081526040808320805460ff19169055519182527f57669c236ecc06eb96f3d7bc6305804f857a3ed5a6bfe71c68049adae78f6e0f91015b60405180910390a250565b60003361046d858285610acc565b610478858585610b46565b506001949350505050565b600061048d610d14565b905090565b6000336103cc8185856104a58383610863565b6104af91906116b7565b6109a7565b3360009081526008602052604090205460ff166105035760405162461bcd60e51b815260206004820152600d60248201526c34b73b30b634b21036b4b732b960991b6044820152606401610400565b61050d8282610e3b565b5050565b61051b3382610f1a565b50565b6007546001600160a01b031633146105485760405162461bcd60e51b81526004016104009061166c565b6105526000611060565b565b6001600160a01b0381166000908152600560205260408120545b92915050565b60606004805461033b90611637565b6000610590338686610b46565b6001600160a01b0385163b156104785760405163d031426360e01b81526000906001600160a01b0387169063d0314263906105d59033908990899089906004016116cf565b602060405180830381600087803b1580156105ef57600080fd5b505af1158015610603573d6000803e3d6000fd5b505050506040513d601f19601f820116820180604052508101906106279190611717565b90508061066a5760405162461bcd60e51b8152602060048201526011602482015270139bc81d1bdad95b9cd49958d95a5d9959607a1b6044820152606401610400565b50506001949350505050565b600033816106848286610863565b9050838110156106e45760405162461bcd60e51b815260206004820152602560248201527f45524332303a2064656372656173656420616c6c6f77616e63652062656c6f77604482015264207a65726f60d81b6064820152608401610400565b61047882868684036109a7565b6000336103cc818585610b46565b8342111561074f5760405162461bcd60e51b815260206004820152601d60248201527f45524332305065726d69743a206578706972656420646561646c696e650000006044820152606401610400565b60007f6e71edae12b1b97f4d1f60370fef10105fa2faae0126114a169c64845d6126c988888861077e8c6110b2565b6040805160208101969096526001600160a01b0394851690860152929091166060840152608083015260a082015260c0810186905260e00160405160208183030381529060405280519060200120905060006107d9826110da565b905060006107e982878787611128565b9050896001600160a01b0316816001600160a01b03161461084c5760405162461bcd60e51b815260206004820152601e60248201527f45524332305065726d69743a20696e76616c6964207369676e617475726500006044820152606401610400565b6108578a8a8a6109a7565b50505050505050505050565b6001600160a01b03918216600090815260016020908152604080832093909416825291909152205490565b6007546001600160a01b031633146108b85760405162461bcd60e51b81526004016104009061166c565b6001600160a01b03811661091d5760405162461bcd60e51b815260206004820152602660248201527f4f776e61626c653a206e6577206f776e657220697320746865207a65726f206160448201526564647265737360d01b6064820152608401610400565b61051b81611060565b6007546001600160a01b031633146109505760405162461bcd60e51b81526004016104009061166c565b6001600160a01b038116600081815260086020908152604091829020805460ff1916600190811790915591519182527f57669c236ecc06eb96f3d7bc6305804f857a3ed5a6bfe71c68049adae78f6e0f9101610454565b6001600160a01b038316610a095760405162461bcd60e51b8152602060048201526024808201527f45524332303a20617070726f76652066726f6d20746865207a65726f206164646044820152637265737360e01b6064820152608401610400565b6001600160a01b038216610a6a5760405162461bcd60e51b815260206004820152602260248201527f45524332303a20617070726f766520746f20746865207a65726f206164647265604482015261737360f01b6064820152608401610400565b6001600160a01b0383811660008181526001602090815260408083209487168084529482529182902085905590518481527f8c5be1e5ebec7d5bd14f71427d1e84f3dd0314c0f7b2291e5b200ac8c7c3b92591015b60405180910390a3505050565b6000610ad88484610863565b90506000198114610b405781811015610b335760405162461bcd60e51b815260206004820152601d60248201527f45524332303a20696e73756666696369656e7420616c6c6f77616e63650000006044820152606401610400565b610b4084848484036109a7565b50505050565b6001600160a01b038316610baa5760405162461bcd60e51b815260206004820152602560248201527f45524332303a207472616e736665722066726f6d20746865207a65726f206164604482015264647265737360d81b6064820152608401610400565b6001600160a01b038216610c0c5760405162461bcd60e51b815260206004820152602360248201527f45524332303a207472616e7366657220746f20746865207a65726f206164647260448201526265737360e81b6064820152608401610400565b6001600160a01b03831660009081526020819052604090205481811015610c845760405162461bcd60e51b815260206004820152602660248201527f45524332303a207472616e7366657220616d6f756e7420657863656564732062604482015265616c616e636560d01b6064820152608401610400565b6001600160a01b03808516600090815260208190526040808220858503905591851681529081208054849290610cbb9084906116b7565b92505081905550826001600160a01b0316846001600160a01b03167fddf252ad1be2c89b69c2b068fc378daa952ba7f163c4a11628f55a4df523b3ef84604051610d0791815260200190565b60405180910390a3610b40565b6000306001600160a01b037f000000000000000000000000000000000000000000000000000000000000000016148015610d6d57507f000000000000000000000000000000000000000000000000000000000000000046145b15610d9757507f000000000000000000000000000000000000000000000000000000000000000090565b50604080517f00000000000000000000000000000000000000000000000000000000000000006020808301919091527f0000000000000000000000000000000000000000000000000000000000000000828401527f000000000000000000000000000000000000000000000000000000000000000060608301524660808301523060a0808401919091528351808403909101815260c0909201909252805191012090565b6001600160a01b038216610e915760405162461bcd60e51b815260206004820152601f60248201527f45524332303a206d696e7420746f20746865207a65726f2061646472657373006044820152606401610400565b8060026000828254610ea391906116b7565b90915550506001600160a01b03821660009081526020819052604081208054839290610ed09084906116b7565b90915550506040518181526001600160a01b038316906000907fddf252ad1be2c89b69c2b068fc378daa952ba7f163c4a11628f55a4df523b3ef9060200160405180910390a35050565b6001600160a01b038216610f7a5760405162461bcd60e51b815260206004820152602160248201527f45524332303a206275726e2066726f6d20746865207a65726f206164647265736044820152607360f81b6064820152608401610400565b6001600160a01b03821660009081526020819052604090205481811015610fee5760405162461bcd60e51b815260206004820152602260248201527f45524332303a206275726e20616d6f756e7420657863656564732062616c616e604482015261636560f01b6064820152608401610400565b6001600160a01b038316600090815260208190526040812083830390556002805484929061101d908490611739565b90915550506040518281526000906001600160a01b038516907fddf252ad1be2c89b69c2b068fc378daa952ba7f163c4a11628f55a4df523b3ef90602001610abf565b600780546001600160a01b038381166001600160a01b0319831681179093556040519116919082907f8be0079c531659141344cd1fd0a4f28419497f9722a3daafe3b4186f6b6457e090600090a35050565b6001600160a01b03811660009081526005602052604090208054600181018255905b50919050565b600061056e6110e7610d14565b8360405161190160f01b6020820152602281018390526042810182905260009060620160405160208183030381529060405280519060200120905092915050565b600080600061113987878787611150565b915091506111468161123d565b5095945050505050565b6000807f7fffffffffffffffffffffffffffffff5d576e7357a4501ddfe92f46681b20a08311156111875750600090506003611234565b8460ff16601b1415801561119f57508460ff16601c14155b156111b05750600090506004611234565b6040805160008082526020820180845289905260ff881692820192909252606081018690526080810185905260019060a0016020604051602081039080840390855afa158015611204573d6000803e3d6000fd5b5050604051601f1901519150506001600160a01b03811661122d57600060019250925050611234565b9150600090505b94509492505050565b600081600481111561125157611251611750565b141561125a5750565b600181600481111561126e5761126e611750565b14156112bc5760405162461bcd60e51b815260206004820152601860248201527f45434453413a20696e76616c6964207369676e617475726500000000000000006044820152606401610400565b60028160048111156112d0576112d0611750565b141561131e5760405162461bcd60e51b815260206004820152601f60248201527f45434453413a20696e76616c6964207369676e6174757265206c656e677468006044820152606401610400565b600381600481111561133257611332611750565b141561138b5760405162461bcd60e51b815260206004820152602260248201527f45434453413a20696e76616c6964207369676e6174757265202773272076616c604482015261756560f01b6064820152608401610400565b600481600481111561139f5761139f611750565b141561051b5760405162461bcd60e51b815260206004820152602260248201527f45434453413a20696e76616c6964207369676e6174757265202776272076616c604482015261756560f01b6064820152608401610400565b600060208083528351808285015260005b8181101561142557858101830151858201604001528201611409565b81811115611437576000604083870101525b50601f01601f1916929092016040019392505050565b80356001600160a01b038116811461146457600080fd5b919050565b6000806040838503121561147c57600080fd5b6114858361144d565b946020939093013593505050565b6000602082840312156114a557600080fd5b6114ae8261144d565b9392505050565b6000806000606084860312156114ca57600080fd5b6114d38461144d565b92506114e16020850161144d565b9150604084013590509250925092565b60006020828403121561150357600080fd5b5035919050565b6000806000806060858703121561152057600080fd5b6115298561144d565b935060208501359250604085013567ffffffffffffffff8082111561154d57600080fd5b818701915087601f83011261156157600080fd5b81358181111561157057600080fd5b88602082850101111561158257600080fd5b95989497505060200194505050565b600080600080600080600060e0888a0312156115ac57600080fd5b6115b58861144d565b96506115c36020890161144d565b95506040880135945060608801359350608088013560ff811681146115e757600080fd5b9699959850939692959460a0840135945060c09093013592915050565b6000806040838503121561161757600080fd5b6116208361144d565b915061162e6020840161144d565b90509250929050565b600181811c9082168061164b57607f821691505b602082108114156110d457634e487b7160e01b600052602260045260246000fd5b6020808252818101527f4f776e61626c653a2063616c6c6572206973206e6f7420746865206f776e6572604082015260600190565b634e487b7160e01b600052601160045260246000fd5b600082198211156116ca576116ca6116a1565b500190565b6001600160a01b0385168152602081018490526060604082018190528101829052818360808301376000818301608090810191909152601f909201601f191601019392505050565b60006020828403121561172957600080fd5b815180151581146114ae57600080fd5b60008282101561174b5761174b6116a1565b500390565b634e487b7160e01b600052602160045260246000fdfea264697066735822122095f5a223484482778450eb01a84b460703b62c9b78f2bb5aa55c7078a39b425964736f6c63430008090033608060405234801561001057600080fd5b5061001a3361001f565b61006f565b600080546001600160a01b038381166001600160a01b0319831681178455604051919092169283917f8be0079c531659141344cd1fd0a4f28419497f9722a3daafe3b4186f6b6457e09190a35050565b6105c18061007e6000396000f3fe608060405234801561001057600080fd5b50600436106100625760003560e01c8063112cdab91461006757806341976e09146100ad578063715018a6146100ce5780637394a7f6146100d85780638da5cb5b146100eb578063f2fde38b146100fc575b600080fd5b610090610075366004610467565b6001602052600090815260409020546001600160a01b031681565b6040516001600160a01b0390911681526020015b60405180910390f35b6100c06100bb366004610467565b61010f565b6040519081526020016100a4565b6100d66101f0565b005b6100d66100e636600461048b565b610226565b6000546001600160a01b0316610090565b6100d661010a366004610467565b610367565b6001600160a01b03808216600090815260016020526040808220548151633fabe5a360e21b815291519293849391169163feaf968c9160048083019260a0929190829003018186803b15801561016457600080fd5b505afa158015610178573d6000803e3d6000fd5b505050506040513d601f19601f8201168201806040525081019061019c91906104e3565b50505091505060008112156101ea5760405162461bcd60e51b815260206004820152600f60248201526e4e656761746976652050726963652160881b60448201526064015b60405180910390fd5b92915050565b6000546001600160a01b0316331461021a5760405162461bcd60e51b81526004016101e190610533565b6102246000610402565b565b6000546001600160a01b031633146102505760405162461bcd60e51b81526004016101e190610533565b6000816001600160a01b031663313ce5676040518163ffffffff1660e01b815260040160206040518083038186803b15801561028b57600080fd5b505afa15801561029f573d6000803e3d6000fd5b505050506040513d601f19601f820116820180604052508101906102c39190610568565b90508060ff1660081461030f5760405162461bcd60e51b81526020600482015260146024820152736e6f7420737570706f727420646563696d616c7360601b60448201526064016101e1565b6001600160a01b0383811660008181526001602052604080822080546001600160a01b0319169487169485179055517fc437dd54e22b198f1cbc09dee1a8e823dec5346dd8cd48b5be2c55f6e4f517e99190a3505050565b6000546001600160a01b031633146103915760405162461bcd60e51b81526004016101e190610533565b6001600160a01b0381166103f65760405162461bcd60e51b815260206004820152602660248201527f4f776e61626c653a206e6577206f776e657220697320746865207a65726f206160448201526564647265737360d01b60648201526084016101e1565b6103ff81610402565b50565b600080546001600160a01b038381166001600160a01b0319831681178455604051919092169283917f8be0079c531659141344cd1fd0a4f28419497f9722a3daafe3b4186f6b6457e09190a35050565b6001600160a01b03811681146103ff57600080fd5b60006020828403121561047957600080fd5b813561048481610452565b9392505050565b6000806040838503121561049e57600080fd5b82356104a981610452565b915060208301356104b981610452565b809150509250929050565b805169ffffffffffffffffffff811681146104de57600080fd5b919050565b600080600080600060a086880312156104fb57600080fd5b610504866104c4565b9450602086015193506040860151925060608601519150610527608087016104c4565b90509295509295909350565b6020808252818101527f4f776e61626c653a2063616c6c6572206973206e6f7420746865206f776e6572604082015260600190565b60006020828403121561057a57600080fd5b815160ff8116811461048457600080fdfea2646970667358221220a28469570289b5a5a4de6a368375a0880824d164f5dde255abe37917d809cb3264736f6c634300080900336080604052604051620025873803806200258783398101604081905262000026916200031d565b6200005360017fb53127684a568b3173ae13b9f8a6016e243e63b6e8ee1178d6a717850b5d61046200034f565b600080516020620025478339815191521462000073576200007362000375565b620000a060017f360894a13ba1a3210667c828492db98dca3e2076cc3735a920a3ca505d382bbd6200034f565b6000805160206200256783398151915214620000c057620000c062000375565b620000cb33620000dd565b620000d68162000138565b506200038b565b7f7e644d79422f17c01e4894b5f4f588d331ebfa28653d42ae832dc59e38c9798f620001086200017a565b604080516001600160a01b03928316815291841660208301520160405180910390a16200013581620001b3565b50565b620001438162000268565b6040516001600160a01b038216907fbc7cd75a20ee27fd9adebab32041f755214dbc6bffa90cc0225b39da2e5c2d3b90600090a250565b6000620001a46000805160206200254783398151915260001b6200030b60201b62000c261760201c565b546001600160a01b0316919050565b6001600160a01b0381166200021e5760405162461bcd60e51b815260206004820152602660248201527f455243313936373a206e65772061646d696e20697320746865207a65726f206160448201526564647265737360d01b60648201526084015b60405180910390fd5b80620002476000805160206200254783398151915260001b6200030b60201b62000c261760201c565b80546001600160a01b0319166001600160a01b039290921691909117905550565b6200027e816200030e60201b62000c291760201c565b620002e25760405162461bcd60e51b815260206004820152602d60248201527f455243313936373a206e657720696d706c656d656e746174696f6e206973206e60448201526c1bdd08184818dbdb9d1c9858dd609a1b606482015260840162000215565b80620002476000805160206200256783398151915260001b6200030b60201b62000c261760201c565b90565b6001600160a01b03163b151590565b6000602082840312156200033057600080fd5b81516001600160a01b03811681146200034857600080fd5b9392505050565b6000828210156200037057634e487b7160e01b600052601160045260246000fd5b500390565b634e487b7160e01b600052600160045260246000fd5b6121ac806200039b6000396000f3fe60806040526004361061012e5760003560e01c8063877c8cd1116100ab578063ba58591c1161006f578063ba58591c14610350578063c0c53b8b14610370578063c5ebeaec14610390578063d0314263146103b0578063f2fde38b146103d0578063f77c4791146103f05761013d565b8063877c8cd1146102b25780638da5cb5b146102d2578063a06a9ff4146102f0578063a0d9d1d914610310578063ae318c4d146103305761013d565b80635ac28bf9116100f25780635ac28bf9146102055780636695535c146102255780636f307dc314610245578063715018a61461027d57806374eb83c1146102925761013d565b806314223902146101455780631db44b8e146101655780633659cfe614610198578063371fd8e6146101b857806354a5706f146101d85761013d565b3661013d5761013b610410565b005b61013b610410565b34801561015157600080fd5b5061013b610160366004611b01565b610422565b34801561017157600080fd5b50610185610180366004611b3b565b610434565b6040519081526020015b60405180910390f35b3480156101a457600080fd5b5061013b6101b3366004611b6b565b6105b5565b3480156101c457600080fd5b5061013b6101d3366004611b88565b610624565b3480156101e457600080fd5b506101856101f3366004611b6b565b609a6020526000908152604090205481565b34801561021157600080fd5b50610185610220366004611b01565b610635565b34801561023157600080fd5b5061013b610240366004611b6b565b6106a5565b34801561025157600080fd5b50609754610265906001600160a01b031681565b6040516001600160a01b03909116815260200161018f565b34801561028957600080fd5b5061013b61076c565b34801561029e57600080fd5b5061013b6102ad366004611bea565b6107a0565b3480156102be57600080fd5b50609954610265906001600160a01b031681565b3480156102de57600080fd5b506033546001600160a01b0316610265565b3480156102fc57600080fd5b5061018561030b366004611b3b565b6107b2565b34801561031c57600080fd5b5061013b61032b366004611b6b565b6108ef565b34801561033c57600080fd5b5061018561034b366004611c4f565b6109b2565b34801561035c57600080fd5b5060015b604051901515815260200161018f565b34801561037c57600080fd5b5061013b61038b366004611c7d565b610a01565b34801561039c57600080fd5b5061013b6103ab366004611b88565b610afa565b3480156103bc57600080fd5b506103606103cb366004611cc8565b610b04565b3480156103dc57600080fd5b5061013b6103eb366004611b6b565b610b8e565b3480156103fc57600080fd5b50609854610265906001600160a01b031681565b61042061041b610c38565b610c47565b565b61042f3383836000610c6b565b505050565b600082610443575060006105af565b6098546097546040516306b3632760e21b81526001600160a01b03918216600482015260009283921690631acd8c9c9060240160606040518083038186803b15801561048e57600080fd5b505afa1580156104a2573d6000803e3d6000fd5b505050506040513d601f19601f820116820180604052508101906104c69190611d1e565b6097546040516341976e0960e01b81526001600160a01b03918216600482015293955061ffff91909116935060009290851691506341976e099060240160206040518083038186803b15801561051b57600080fd5b505afa15801561052f573d6000803e3d6000fd5b505050506040513d601f19601f820116820180604052508101906105539190611d63565b9050841561059157609b546127108361056c8985611d92565b6105769190611d92565b6105809190611db1565b61058a9190611db1565b93506105ab565b609b5461059e8783611d92565b6105a89190611db1565b93505b5050505b92915050565b6105bd610d94565b6001600160a01b0316336001600160a01b0316146106185760405162461bcd60e51b815260206004820152601360248201527224b73b30b634b210383937bc3c9030b236b4b760691b60448201526064015b60405180910390fd5b61062181610dc7565b50565b6106313333836000610c6b565b5050565b6000808212610674576001600160a01b0383166000908152609a602052604090205461066d90610666908490611dd3565b6001610434565b90506105af565b61066d610682836000611deb565b6001600160a01b0385166000908152609a60205260409020546106669190611e2a565b6033546001600160a01b031633146106cf5760405162461bcd60e51b815260040161060f90611e41565b6001600160a01b0381166107175760405162461bcd60e51b815260206004820152600f60248201526e24a72b20a624a22fa322a2a1a7a72360891b604482015260640161060f565b609980546001600160a01b0319166001600160a01b0383169081179091556040519081527f2f848457f88c295370f87d543957f8cfe46e0759b3a528ae233eb79885a2949d906020015b60405180910390a150565b6033546001600160a01b031633146107965760405162461bcd60e51b815260040161060f90611e41565b6104206000610e07565b6107ac84848484610e59565b50505050565b6098546097546040516306b3632760e21b81526001600160a01b03918216600482015260009283928392911690631acd8c9c9060240160606040518083038186803b15801561080057600080fd5b505afa158015610814573d6000803e3d6000fd5b505050506040513d601f19601f820116820180604052508101906108389190611d1e565b6097546040516341976e0960e01b81526001600160a01b03918216600482015293955061ffff91909116935060009290851691506341976e099060240160206040518083038186803b15801561088d57600080fd5b505afa1580156108a1573d6000803e3d6000fd5b505050506040513d601f19601f820116820180604052508101906108c59190611d63565b905084156108e0578181612710609b548961056c9190611d92565b80609b548761059e9190611d92565b6033546001600160a01b031633146109195760405162461bcd60e51b815260040161060f90611e41565b6001600160a01b0381166109645760405162461bcd60e51b815260206004820152601260248201527124a72b20a624a22fa1a7a72a2927a62622a960711b604482015260640161060f565b609880546001600160a01b0319166001600160a01b0383169081179091556040519081527f027c3e080ed9215f564a9455a666f7e459b3edc0bb6e02a1bf842fde4d0ccfc190602001610761565b6001600160a01b0382166000908152609a60205260408120546109d7575060006105af565b6001600160a01b0383166000908152609a60205260409020546109fa9083610434565b9392505050565b6000610a0d6001611052565b90508015610a25576000805461ff0019166101001790555b610a308484846110df565b816001600160a01b031663313ce5676040518163ffffffff1660e01b815260040160206040518083038186803b158015610a6957600080fd5b505afa158015610a7d573d6000803e3d6000fd5b505050506040513d601f19601f82011682018060405250810190610aa19190611e76565b610aac90600a611f7d565b609b5580156107ac576000805461ff0019169055604051600181527f7f26b83ff96e1f2b6a682f133852f6798a09c465da95921460cefb38474024989060200160405180910390a150505050565b6106213382611126565b6097546000906001600160a01b03163314610b525760405162461bcd60e51b815260206004820152600e60248201526d24a72b20a624a22fa1a0a62622a960911b604482015260640161060f565b6000610b618687876001610c6b565b905080851115610b8057610b8086610b798388611e2a565b6001611316565b60019150505b949350505050565b6033546001600160a01b03163314610bb85760405162461bcd60e51b815260040161060f90611e41565b6001600160a01b038116610c1d5760405162461bcd60e51b815260206004820152602660248201527f4f776e61626c653a206e6577206f776e657220697320746865207a65726f206160448201526564647265737360d01b606482015260840161060f565b61062181610e07565b90565b6001600160a01b03163b151590565b6000610c4261138c565b905090565b3660008037600080366000845af43d6000803e808015610c66573d6000f35b3d6000fd5b600060026065541415610c905760405162461bcd60e51b815260040161060f90611f8c565b600260655582610ccf5760405162461bcd60e51b815260206004820152600a60248201526952455041595f5a45524f60b01b604482015260640161060f565b609854604051631a625c9760e21b81526001600160a01b0387811660048301523060248301526044820186905290911690636989725c9060640160006040518083038186803b158015610d2157600080fd5b505afa158015610d35573d6000803e3d6000fd5b50505050610d45858585856113b4565b905060008111610d875760405162461bcd60e51b815260206004820152600d60248201526c4e4f5f4c4f414e5f524550415960981b604482015260640161060f565b6001606555949350505050565b60007fb53127684a568b3173ae13b9f8a6016e243e63b6e8ee1178d6a717850b5d61035b546001600160a01b0316919050565b610dd0816115e8565b6040516001600160a01b038216907fbc7cd75a20ee27fd9adebab32041f755214dbc6bffa90cc0225b39da2e5c2d3b90600090a250565b603380546001600160a01b038381166001600160a01b0319831681179093556040519116919082907f8be0079c531659141344cd1fd0a4f28419497f9722a3daafe3b4186f6b6457e090600090a35050565b60026065541415610e7c5760405162461bcd60e51b815260040161060f90611f8c565b60026065556098546001600160a01b03163314610edb5760405162461bcd60e51b815260206004820152601860248201527f4c49515549444154455f494e56414c49445f43414c4c45520000000000000000604482015260640161060f565b826001600160a01b0316846001600160a01b03161415610f3d5760405162461bcd60e51b815260206004820152601a60248201527f4c49515549444154455f44495341424c455f594f555253454c46000000000000604482015260640161060f565b6001600160a01b0383166000908152609a60205260409020548015610fd7578115610fcd5760975460405163fb66893b60e01b81526001600160a01b038088169263fb66893b92610f9a9289921690869089908990600401611fc3565b600060405180830381600087803b158015610fb457600080fd5b505af1158015610fc8573d6000803e3d6000fd5b505050505b610fd78582611696565b6001600160a01b0384166000908152609a6020526040812055610ff9846116ae565b836001600160a01b0316856001600160a01b03167fde0aa27286f5cb3a4ed853dc4823ead62d63e92cdf13de09d6aece56970721a48360405161103e91815260200190565b60405180910390a350506001606555505050565b60008054610100900460ff1615611099578160ff1660011480156110755750303b155b6110915760405162461bcd60e51b815260040161060f90612017565b506000919050565b60005460ff8084169116106110c05760405162461bcd60e51b815260040161060f90612017565b506000805460ff191660ff92909216919091179055600190565b919050565b6110e7611772565b609880546001600160a01b039485166001600160a01b031991821617909155609980549385169382169390931790925560978054919093169116179055565b600260655414156111495760405162461bcd60e51b815260040161060f90611f8c565b60026065556098546040516315caa9e760e11b81526001600160a01b0384811660048301523060248301526044820184905290911690632b9553ce9060640160006040518083038186803b1580156111a057600080fd5b505afa1580156111b4573d6000803e3d6000fd5b5050609954604051636dd5b69d60e01b815269626f72726f775f66656560b01b6004820152600093508392506001600160a01b0390911690636dd5b69d90602401604080518083038186803b15801561120c57600080fd5b505afa158015611220573d6000803e3d6000fd5b505050506040513d601f19601f820116820180604052508101906112449190612065565b909250905060006127106112588386611d92565b6112629190611db1565b905060006112708286611e2a565b6001600160a01b0387166000908152609a602052604081208054929350839290919061129d908490611dd3565b909155506112ac9050866116ae565b6112b686826117a1565b81156112c6576112c684836117a1565b856001600160a01b03167fcbc04eca7e9da35cb1393a6135a199ca52e450d5e9251cbd99f7847d33a367508260405161130191815260200190565b60405180910390a25050600160655550505050565b6001600160a01b03831630141561132c57505050565b6001600160a01b0383166113755760405162461bcd60e51b815260206004820152601060248201526f7265636569707420697320656d70747960801b604482015260640161060f565b60975461042f906001600160a01b031684846117da565b60007f360894a13ba1a3210667c828492db98dca3e2076cc3735a920a3ca505d382bbc610db8565b6001600160a01b0383166000908152609a6020526040812054806113dc576000915050610b86565b609954604051636dd5b69d60e01b81526872657061795f66656560b81b600482015260009182916001600160a01b0390911690636dd5b69d90602401604080518083038186803b15801561142f57600080fd5b505afa158015611443573d6000803e3d6000fd5b505050506040513d601f19601f820116820180604052508101906114679190612065565b9092509050600061271061147b8386611d92565b6114859190611db1565b905060006114938286611dd3565b88106114c557506001600160a01b0388166000908152609a6020526040812055836114be8282611dd3565b955061151c565b6114d183612710611dd3565b6114dd6127108a611d92565b6114e79190611db1565b90506114f38189611e2a565b91506114ff8186611e2a565b6001600160a01b038a166000908152609a60205260409020558795505b866115305761152b8a87611696565b611575565b858810156115755760405162461bcd60e51b8152602060048201526012602482015271494e53554646494349454e545f524550415960701b604482015260640161060f565b61157e8161183d565b61158a84836001611316565b6001600160a01b0389166000818152609a6020908152604091829020548251858152918201527f77c6871227e5d2dec8dadd5354f78453203e22e669cd0ec4c19d9a8c5edb31d0910160405180910390a25050505050949350505050565b6001600160a01b0381163b6116555760405162461bcd60e51b815260206004820152602d60248201527f455243313936373a206e657720696d706c656d656e746174696f6e206973206e60448201526c1bdd08184818dbdb9d1c9858dd609a1b606482015260840161060f565b7f360894a13ba1a3210667c828492db98dca3e2076cc3735a920a3ca505d382bbc80546001600160a01b0319166001600160a01b0392909216919091179055565b609754610631906001600160a01b031683308461189e565b6001600160a01b0381166000908152609a6020526040812054156117385760985460405163c4c0048760e01b81526001600160a01b03848116600483015283151560248301529091169063c4c00487906044015b600060405180830381600087803b15801561171c57600080fd5b505af1158015611730573d6000803e3d6000fd5b505050505050565b6098546040516379bf27b160e01b81526001600160a01b0384811660048301528315156024830152909116906379bf27b190604401611702565b600054610100900460ff166117995760405162461bcd60e51b815260040161060f90612093565b6104206118d6565b6097546040516340c10f1960e01b81526001600160a01b03848116600483015260248201849052909116906340c10f1990604401611702565b6040516001600160a01b03831660248201526044810182905261042f90849063a9059cbb60e01b906064015b60408051601f198184030181529190526020810180516001600160e01b03166001600160e01b031990931692909217909152611906565b609754604051630852cd8d60e31b8152600481018390526001600160a01b03909116906342966c6890602401600060405180830381600087803b15801561188357600080fd5b505af1158015611897573d6000803e3d6000fd5b5050505050565b6040516001600160a01b03808516602483015283166044820152606481018290526107ac9085906323b872dd60e01b90608401611806565b600054610100900460ff166118fd5760405162461bcd60e51b815260040161060f90612093565b61042033610e07565b600061195b826040518060400160405280602081526020017f5361666545524332303a206c6f772d6c6576656c2063616c6c206661696c6564815250856001600160a01b03166119d89092919063ffffffff16565b80519091501561042f578080602001905181019061197991906120de565b61042f5760405162461bcd60e51b815260206004820152602a60248201527f5361666545524332303a204552433230206f7065726174696f6e20646964206e6044820152691bdd081cdd58d8d9595960b21b606482015260840161060f565b6060610b868484600085856001600160a01b0385163b611a3a5760405162461bcd60e51b815260206004820152601d60248201527f416464726573733a2063616c6c20746f206e6f6e2d636f6e7472616374000000604482015260640161060f565b600080866001600160a01b03168587604051611a569190612127565b60006040518083038185875af1925050503d8060008114611a93576040519150601f19603f3d011682016040523d82523d6000602084013e611a98565b606091505b5091509150611aa8828286611ab3565b979650505050505050565b60608315611ac25750816109fa565b825115611ad25782518084602001fd5b8160405162461bcd60e51b815260040161060f9190612143565b6001600160a01b038116811461062157600080fd5b60008060408385031215611b1457600080fd5b8235611b1f81611aec565b946020939093013593505050565b801515811461062157600080fd5b60008060408385031215611b4e57600080fd5b823591506020830135611b6081611b2d565b809150509250929050565b600060208284031215611b7d57600080fd5b81356109fa81611aec565b600060208284031215611b9a57600080fd5b5035919050565b60008083601f840112611bb357600080fd5b50813567ffffffffffffffff811115611bcb57600080fd5b602083019150836020828501011115611be357600080fd5b9250929050565b60008060008060608587031215611c0057600080fd5b8435611c0b81611aec565b93506020850135611c1b81611aec565b9250604085013567ffffffffffffffff811115611c3757600080fd5b611c4387828801611ba1565b95989497509550505050565b60008060408385031215611c6257600080fd5b8235611c6d81611aec565b91506020830135611b6081611b2d565b600080600060608486031215611c9257600080fd5b8335611c9d81611aec565b92506020840135611cad81611aec565b91506040840135611cbd81611aec565b809150509250925092565b60008060008060608587031215611cde57600080fd5b8435611ce981611aec565b935060208501359250604085013567ffffffffffffffff811115611c3757600080fd5b805161ffff811681146110da57600080fd5b600080600060608486031215611d3357600080fd5b8351611d3e81611aec565b9250611d4c60208501611d0c565b9150611d5a60408501611d0c565b90509250925092565b600060208284031215611d7557600080fd5b5051919050565b634e487b7160e01b600052601160045260246000fd5b6000816000190483118215151615611dac57611dac611d7c565b500290565b600082611dce57634e487b7160e01b600052601260045260246000fd5b500490565b60008219821115611de657611de6611d7c565b500190565b60008083128015600160ff1b850184121615611e0957611e09611d7c565b6001600160ff1b0384018313811615611e2457611e24611d7c565b50500390565b600082821015611e3c57611e3c611d7c565b500390565b6020808252818101527f4f776e61626c653a2063616c6c6572206973206e6f7420746865206f776e6572604082015260600190565b600060208284031215611e8857600080fd5b815160ff811681146109fa57600080fd5b600181815b80851115611ed4578160001904821115611eba57611eba611d7c565b80851615611ec757918102915b93841c9390800290611e9e565b509250929050565b600082611eeb575060016105af565b81611ef8575060006105af565b8160018114611f0e5760028114611f1857611f34565b60019150506105af565b60ff841115611f2957611f29611d7c565b50506001821b6105af565b5060208310610133831016604e8410600b8410161715611f57575081810a6105af565b611f618383611e99565b8060001904821115611f7557611f75611d7c565b029392505050565b60006109fa60ff841683611edc565b6020808252601f908201527f5265656e7472616e637947756172643a207265656e7472616e742063616c6c00604082015260600190565b6001600160a01b038681168252851660208201526040810184905260806060820181905281018290526000828460a0840137600060a0848401015260a0601f19601f85011683010190509695505050505050565b6020808252602e908201527f496e697469616c697a61626c653a20636f6e747261637420697320616c72656160408201526d191e481a5b9a5d1a585b1a5e995960921b606082015260800190565b6000806040838503121561207857600080fd5b825161208381611aec565b6020939093015192949293505050565b6020808252602b908201527f496e697469616c697a61626c653a20636f6e7472616374206973206e6f74206960408201526a6e697469616c697a696e6760a81b606082015260800190565b6000602082840312156120f057600080fd5b81516109fa81611b2d565b60005b838110156121165781810151838201526020016120fe565b838111156107ac5750506000910152565b600082516121398184602087016120fb565b9190910192915050565b60208152600082518060208401526121628160408501602087016120fb565b601f01601f1916919091016040019291505056fea2646970667358221220e3926dba4560d1df24214dd80d6489e8607b8247d3a369b78bc38d34808816f664736f6c63430008090033b53127684a568b3173ae13b9f8a6016e243e63b6e8ee1178d6a717850b5d6103360894a13ba1a3210667c828492db98dca3e2076cc3735a920a3ca505d382bbca2646970667358221220c44254fd1c26dc874bdc952150dde64835c09676fc58495fcb215e4fb74aa95b64736f6c63430008090033",
  "devdoc": {
    "kind": "dev",
    "methods": {},
    "version": 1
  },
  "userdoc": {
    "kind": "user",
    "methods": {},
    "version": 1
  },
  "storageLayout": {
    "storage": [
      {
        "astId": 130,
        "contract": "contracts/DTokenSuiteFactory.sol:DTokenSuiteFactory",
        "label": "_initialized",
        "offset": 0,
        "slot": "0",
        "type": "t_uint8"
      },
      {
        "astId": 133,
        "contract": "contracts/DTokenSuiteFactory.sol:DTokenSuiteFactory",
        "label": "_initializing",
        "offset": 1,
        "slot": "0",
        "type": "t_bool"
      },
      {
        "astId": 3574,
        "contract": "contracts/DTokenSuiteFactory.sol:DTokenSuiteFactory",
        "label": "admin",
        "offset": 2,
        "slot": "0",
        "type": "t_address"
      },
      {
        "astId": 3816,
        "contract": "contracts/DTokenSuiteFactory.sol:DTokenSuiteFactory",
        "label": "dTokens",
        "offset": 0,
        "slot": "1",
        "type": "t_array(t_struct(DTokenSuite)3812_storage)dyn_storage"
      },
      {
        "astId": 3827,
        "contract": "contracts/DTokenSuiteFactory.sol:DTokenSuiteFactory",
        "label": "appCtrl",
        "offset": 0,
        "slot": "2",
        "type": "t_contract(IController)5454"
      },
      {
        "astId": 3829,
        "contract": "contracts/DTokenSuiteFactory.sol:DTokenSuiteFactory",
        "label": "feeConf",
        "offset": 0,
        "slot": "3",
        "type": "t_address"
      },
      {
        "astId": 3831,
        "contract": "contracts/DTokenSuiteFactory.sol:DTokenSuiteFactory",
        "label": "sharedVaultImplement",
        "offset": 0,
        "slot": "4",
        "type": "t_address"
      }
    ],
    "types": {
      "t_address": {
        "encoding": "inplace",
        "label": "address",
        "numberOfBytes": "20"
      },
      "t_array(t_struct(DTokenSuite)3812_storage)dyn_storage": {
        "base": "t_struct(DTokenSuite)3812_storage",
        "encoding": "dynamic_array",
        "label": "struct DTokenSuiteFactory.DTokenSuite[]",
        "numberOfBytes": "32"
      },
      "t_bool": {
        "encoding": "inplace",
        "label": "bool",
        "numberOfBytes": "1"
      },
      "t_contract(IController)5454": {
        "encoding": "inplace",
        "label": "contract IController",
        "numberOfBytes": "20"
      },
      "t_struct(DTokenSuite)3812_storage": {
        "encoding": "inplace",
        "label": "struct DTokenSuiteFactory.DTokenSuite",
        "members": [
          {
            "astId": 3807,
            "contract": "contracts/DTokenSuiteFactory.sol:DTokenSuiteFactory",
            "label": "token",
            "offset": 0,
            "slot": "0",
            "type": "t_address"
          },
          {
            "astId": 3809,
            "contract": "contracts/DTokenSuiteFactory.sol:DTokenSuiteFactory",
            "label": "vault",
            "offset": 0,
            "slot": "1",
            "type": "t_address"
          },
          {
            "astId": 3811,
            "contract": "contracts/DTokenSuiteFactory.sol:DTokenSuiteFactory",
            "label": "oracle",
            "offset": 0,
            "slot": "2",
            "type": "t_address"
          }
        ],
        "numberOfBytes": "96"
      },
      "t_uint8": {
        "encoding": "inplace",
        "label": "uint8",
        "numberOfBytes": "1"
      }
    }
  }
}