{
  "address": "0xD8fF683007b14d73fc55dd04AC37f9fde9403f24",
  "abi": [
    {
      "anonymous": false,
      "inputs": [
        {
          "indexed": true,
          "internalType": "address",
          "name": "borrower",
          "type": "address"
        },
        {
          "indexed": false,
          "internalType": "uint256",
          "name": "amount",
          "type": "uint256"
        }
      ],
      "name": "Borrow",
      "type": "event"
    },
    {
      "anonymous": false,
      "inputs": [
        {
          "indexed": false,
          "internalType": "address",
          "name": "controller",
          "type": "address"
        }
      ],
      "name": "ControllerChanged",
      "type": "event"
    },
    {
      "anonymous": false,
      "inputs": [
        {
          "indexed": false,
          "internalType": "address",
          "name": "feeconf",
          "type": "address"
        }
      ],
      "name": "FeeConfChanged",
      "type": "event"
    },
    {
      "anonymous": false,
      "inputs": [
        {
          "indexed": false,
          "internalType": "uint8",
          "name": "version",
          "type": "uint8"
        }
      ],
      "name": "Initialized",
      "type": "event"
    },
    {
      "anonymous": false,
      "inputs": [
        {
          "indexed": true,
          "internalType": "address",
          "name": "liquidator",
          "type": "address"
        },
        {
          "indexed": true,
          "internalType": "address",
          "name": "borrower",
          "type": "address"
        },
        {
          "indexed": false,
          "internalType": "uint256",
          "name": "borrows",
          "type": "uint256"
        }
      ],
      "name": "Liquidated",
      "type": "event"
    },
    {
      "anonymous": false,
      "inputs": [
        {
          "indexed": true,
          "internalType": "address",
          "name": "previousOwner",
          "type": "address"
        },
        {
          "indexed": true,
          "internalType": "address",
          "name": "newOwner",
          "type": "address"
        }
      ],
      "name": "OwnershipTransferred",
      "type": "event"
    },
    {
      "anonymous": false,
      "inputs": [
        {
          "indexed": true,
          "internalType": "address",
          "name": "repayer",
          "type": "address"
        },
        {
          "indexed": false,
          "internalType": "uint256",
          "name": "amount",
          "type": "uint256"
        },
        {
          "indexed": false,
          "internalType": "uint256",
          "name": "leftBorrows",
          "type": "uint256"
        }
      ],
      "name": "Repay",
      "type": "event"
    },
    {
      "inputs": [
        {
          "internalType": "uint256",
          "name": "amount",
          "type": "uint256"
        }
      ],
      "name": "borrow",
      "outputs": [],
      "stateMutability": "nonpayable",
      "type": "function"
    },
    {
      "inputs": [
        {
          "internalType": "address",
          "name": "",
          "type": "address"
        }
      ],
      "name": "borrows",
      "outputs": [
        {
          "internalType": "uint256",
          "name": "",
          "type": "uint256"
        }
      ],
      "stateMutability": "view",
      "type": "function"
    },
    {
      "inputs": [],
      "name": "controller",
      "outputs": [
        {
          "internalType": "address",
          "name": "",
          "type": "address"
        }
      ],
      "stateMutability": "view",
      "type": "function"
    },
    {
      "inputs": [],
      "name": "feeConf",
      "outputs": [
        {
          "internalType": "contract IFeeConf",
          "name": "",
          "type": "address"
        }
      ],
      "stateMutability": "view",
      "type": "function"
    },
    {
      "inputs": [
        {
          "internalType": "address",
          "name": "_controller",
          "type": "address"
        },
        {
          "internalType": "address",
          "name": "_feeConf",
          "type": "address"
        },
        {
          "internalType": "address",
          "name": "_underlying",
          "type": "address"
        }
      ],
      "name": "initialize",
      "outputs": [],
      "stateMutability": "nonpayable",
      "type": "function"
    },
    {
      "inputs": [],
      "name": "isDuetVault",
      "outputs": [
        {
          "internalType": "bool",
          "name": "",
          "type": "bool"
        }
      ],
      "stateMutability": "view",
      "type": "function"
    },
    {
      "inputs": [
        {
          "internalType": "address",
          "name": "liquidator",
          "type": "address"
        },
        {
          "internalType": "address",
          "name": "borrower",
          "type": "address"
        },
        {
          "internalType": "bytes",
          "name": "data",
          "type": "bytes"
        }
      ],
      "name": "liquidate",
      "outputs": [],
      "stateMutability": "nonpayable",
      "type": "function"
    },
    {
      "inputs": [],
      "name": "owner",
      "outputs": [
        {
          "internalType": "address",
          "name": "",
          "type": "address"
        }
      ],
      "stateMutability": "view",
      "type": "function"
    },
    {
      "inputs": [
        {
          "internalType": "address",
          "name": "user",
          "type": "address"
        },
        {
          "internalType": "int256",
          "name": "amount",
          "type": "int256"
        }
      ],
      "name": "pendingValue",
      "outputs": [
        {
          "internalType": "uint256",
          "name": "",
          "type": "uint256"
        }
      ],
      "stateMutability": "view",
      "type": "function"
    },
    {
      "inputs": [],
      "name": "renounceOwnership",
      "outputs": [],
      "stateMutability": "nonpayable",
      "type": "function"
    },
    {
      "inputs": [
        {
          "internalType": "uint256",
          "name": "amount",
          "type": "uint256"
        }
      ],
      "name": "repay",
      "outputs": [],
      "stateMutability": "nonpayable",
      "type": "function"
    },
    {
      "inputs": [
        {
          "internalType": "address",
          "name": "to",
          "type": "address"
        },
        {
          "internalType": "uint256",
          "name": "amount",
          "type": "uint256"
        }
      ],
      "name": "repayTo",
      "outputs": [],
      "stateMutability": "nonpayable",
      "type": "function"
    },
    {
      "inputs": [
        {
          "internalType": "address",
          "name": "_controller",
          "type": "address"
        }
      ],
      "name": "setAppController",
      "outputs": [],
      "stateMutability": "nonpayable",
      "type": "function"
    },
    {
      "inputs": [
        {
          "internalType": "address",
          "name": "_feeConf",
          "type": "address"
        }
      ],
      "name": "setFeeConf",
      "outputs": [],
      "stateMutability": "nonpayable",
      "type": "function"
    },
    {
      "inputs": [
        {
          "internalType": "address",
          "name": "from",
          "type": "address"
        },
        {
          "internalType": "uint256",
          "name": "amount",
          "type": "uint256"
        },
        {
          "internalType": "bytes",
          "name": "exData",
          "type": "bytes"
        }
      ],
      "name": "tokensReceived",
      "outputs": [
        {
          "internalType": "bool",
          "name": "",
          "type": "bool"
        }
      ],
      "stateMutability": "nonpayable",
      "type": "function"
    },
    {
      "inputs": [
        {
          "internalType": "address",
          "name": "newOwner",
          "type": "address"
        }
      ],
      "name": "transferOwnership",
      "outputs": [],
      "stateMutability": "nonpayable",
      "type": "function"
    },
    {
      "inputs": [],
      "name": "underlying",
      "outputs": [
        {
          "internalType": "address",
          "name": "",
          "type": "address"
        }
      ],
      "stateMutability": "view",
      "type": "function"
    },
    {
      "inputs": [
        {
          "internalType": "uint256",
          "name": "amount",
          "type": "uint256"
        },
        {
          "internalType": "bool",
          "name": "dp",
          "type": "bool"
        }
      ],
      "name": "underlyingAmountValue",
      "outputs": [
        {
          "internalType": "uint256",
          "name": "value",
          "type": "uint256"
        }
      ],
      "stateMutability": "view",
      "type": "function"
    },
    {
      "inputs": [
        {
          "internalType": "address",
          "name": "user",
          "type": "address"
        },
        {
          "internalType": "bool",
          "name": "dp",
          "type": "bool"
        }
      ],
      "name": "userValue",
      "outputs": [
        {
          "internalType": "uint256",
          "name": "",
          "type": "uint256"
        }
      ],
      "stateMutability": "view",
      "type": "function"
    },
    {
      "inputs": [
        {
          "internalType": "uint256",
          "name": "value",
          "type": "uint256"
        },
        {
          "internalType": "bool",
          "name": "dp",
          "type": "bool"
        }
      ],
      "name": "valueToAmount",
      "outputs": [
        {
          "internalType": "uint256",
          "name": "amount",
          "type": "uint256"
        }
      ],
      "stateMutability": "view",
      "type": "function"
    }
  ],
  "transactionHash": "0xa84f94cea0278eb506713ac3e26cf12845feff2342e479140e3e65a54aada050",
  "args": [],
  "numDeployments": 1,
  "solcInputHash": "d6f5bbd7e7b1fa9c3ec472700583bbff",
  "bytecode": "0x608060405234801561001057600080fd5b50611e75806100206000396000f3fe608060405234801561001057600080fd5b506004361061012c5760003560e01c80638da5cb5b116100ad578063c0c53b8b11610071578063c0c53b8b1461027b578063c5ebeaec1461028e578063d0314263146102a1578063f2fde38b146102b4578063f77c4791146102c757600080fd5b80638da5cb5b1461021e578063a06a9ff41461022f578063a0d9d1d914610242578063ae318c4d14610255578063ba58591c1461026857600080fd5b80636695535c116100f45780636695535c146101b25780636f307dc3146101c5578063715018a6146101f057806374eb83c1146101f8578063877c8cd11461020b57600080fd5b806314223902146101315780631db44b8e14610146578063371fd8e61461016c57806354a5706f1461017f5780635ac28bf91461019f575b600080fd5b61014461013f3660046117ca565b6102da565b005b610159610154366004611804565b6102ec565b6040519081526020015b60405180910390f35b61014461017a366004611834565b61046d565b61015961018d36600461184d565b609a6020526000908152604090205481565b6101596101ad3660046117ca565b61047e565b6101446101c036600461184d565b6104ee565b6097546101d8906001600160a01b031681565b6040516001600160a01b039091168152602001610163565b6101446105be565b6101446102063660046118b3565b6105f4565b6099546101d8906001600160a01b031681565b6033546001600160a01b03166101d8565b61015961023d366004611804565b610606565b61014461025036600461184d565b610743565b610159610263366004611918565b610806565b60015b6040519015158152602001610163565b610144610289366004611946565b610855565b61014461029c366004611834565b61094e565b61026b6102af366004611991565b61095b565b6101446102c236600461184d565b6109e5565b6098546101d8906001600160a01b031681565b6102e73383836000610a7d565b505050565b6000826102fb57506000610467565b6098546097546040516306b3632760e21b81526001600160a01b03918216600482015260009283921690631acd8c9c9060240160606040518083038186803b15801561034657600080fd5b505afa15801561035a573d6000803e3d6000fd5b505050506040513d601f19601f8201168201806040525081019061037e91906119e7565b6097546040516341976e0960e01b81526001600160a01b03918216600482015293955061ffff91909116935060009290851691506341976e099060240160206040518083038186803b1580156103d357600080fd5b505afa1580156103e7573d6000803e3d6000fd5b505050506040513d601f19601f8201168201806040525081019061040b9190611a2c565b9050841561044957609b54612710836104248985611a5b565b61042e9190611a5b565b6104389190611a7a565b6104429190611a7a565b9350610463565b609b546104568783611a5b565b6104609190611a7a565b93505b5050505b92915050565b61047a3333836000610a7d565b5050565b60008082126104bd576001600160a01b0383166000908152609a60205260409020546104b6906104af908490611a9c565b60016102ec565b9050610467565b6104b66104cb836000611ab4565b6001600160a01b0385166000908152609a60205260409020546104af9190611af3565b6033546001600160a01b031633146105215760405162461bcd60e51b815260040161051890611b0a565b60405180910390fd5b6001600160a01b0381166105695760405162461bcd60e51b815260206004820152600f60248201526e24a72b20a624a22fa322a2a1a7a72360891b6044820152606401610518565b609980546001600160a01b0319166001600160a01b0383169081179091556040519081527f2f848457f88c295370f87d543957f8cfe46e0759b3a528ae233eb79885a2949d906020015b60405180910390a150565b6033546001600160a01b031633146105e85760405162461bcd60e51b815260040161051890611b0a565b6105f26000610ba6565b565b61060084848484610bf8565b50505050565b6098546097546040516306b3632760e21b81526001600160a01b03918216600482015260009283928392911690631acd8c9c9060240160606040518083038186803b15801561065457600080fd5b505afa158015610668573d6000803e3d6000fd5b505050506040513d601f19601f8201168201806040525081019061068c91906119e7565b6097546040516341976e0960e01b81526001600160a01b03918216600482015293955061ffff91909116935060009290851691506341976e099060240160206040518083038186803b1580156106e157600080fd5b505afa1580156106f5573d6000803e3d6000fd5b505050506040513d601f19601f820116820180604052508101906107199190611a2c565b90508415610734578181612710609b54896104249190611a5b565b80609b54876104569190611a5b565b6033546001600160a01b0316331461076d5760405162461bcd60e51b815260040161051890611b0a565b6001600160a01b0381166107b85760405162461bcd60e51b815260206004820152601260248201527124a72b20a624a22fa1a7a72a2927a62622a960711b6044820152606401610518565b609880546001600160a01b0319166001600160a01b0383169081179091556040519081527f027c3e080ed9215f564a9455a666f7e459b3edc0bb6e02a1bf842fde4d0ccfc1906020016105b3565b6001600160a01b0382166000908152609a602052604081205461082b57506000610467565b6001600160a01b0383166000908152609a602052604090205461084e90836102ec565b9392505050565b60006108616001610df1565b90508015610879576000805461ff0019166101001790555b610884848484610e7e565b816001600160a01b031663313ce5676040518163ffffffff1660e01b815260040160206040518083038186803b1580156108bd57600080fd5b505afa1580156108d1573d6000803e3d6000fd5b505050506040513d601f19601f820116820180604052508101906108f59190611b3f565b61090090600a611c46565b609b558015610600576000805461ff0019169055604051600181527f7f26b83ff96e1f2b6a682f133852f6798a09c465da95921460cefb38474024989060200160405180910390a150505050565b6109583382610ec5565b50565b6097546000906001600160a01b031633146109a95760405162461bcd60e51b815260206004820152600e60248201526d24a72b20a624a22fa1a0a62622a960911b6044820152606401610518565b60006109b88687876001610a7d565b9050808511156109d7576109d7866109d08388611af3565b60016110b5565b60019150505b949350505050565b6033546001600160a01b03163314610a0f5760405162461bcd60e51b815260040161051890611b0a565b6001600160a01b038116610a745760405162461bcd60e51b815260206004820152602660248201527f4f776e61626c653a206e6577206f776e657220697320746865207a65726f206160448201526564647265737360d01b6064820152608401610518565b61095881610ba6565b600060026065541415610aa25760405162461bcd60e51b815260040161051890611c55565b600260655582610ae15760405162461bcd60e51b815260206004820152600a60248201526952455041595f5a45524f60b01b6044820152606401610518565b609854604051631a625c9760e21b81526001600160a01b0387811660048301523060248301526044820186905290911690636989725c9060640160006040518083038186803b158015610b3357600080fd5b505afa158015610b47573d6000803e3d6000fd5b50505050610b578585858561112b565b905060008111610b995760405162461bcd60e51b815260206004820152600d60248201526c4e4f5f4c4f414e5f524550415960981b6044820152606401610518565b6001606555949350505050565b603380546001600160a01b038381166001600160a01b0319831681179093556040519116919082907f8be0079c531659141344cd1fd0a4f28419497f9722a3daafe3b4186f6b6457e090600090a35050565b60026065541415610c1b5760405162461bcd60e51b815260040161051890611c55565b60026065556098546001600160a01b03163314610c7a5760405162461bcd60e51b815260206004820152601860248201527f4c49515549444154455f494e56414c49445f43414c4c455200000000000000006044820152606401610518565b826001600160a01b0316846001600160a01b03161415610cdc5760405162461bcd60e51b815260206004820152601a60248201527f4c49515549444154455f44495341424c455f594f555253454c460000000000006044820152606401610518565b6001600160a01b0383166000908152609a60205260409020548015610d76578115610d6c5760975460405163fb66893b60e01b81526001600160a01b038088169263fb66893b92610d399289921690869089908990600401611c8c565b600060405180830381600087803b158015610d5357600080fd5b505af1158015610d67573d6000803e3d6000fd5b505050505b610d76858261135f565b6001600160a01b0384166000908152609a6020526040812055610d9884611377565b836001600160a01b0316856001600160a01b03167fde0aa27286f5cb3a4ed853dc4823ead62d63e92cdf13de09d6aece56970721a483604051610ddd91815260200190565b60405180910390a350506001606555505050565b60008054610100900460ff1615610e38578160ff166001148015610e145750303b155b610e305760405162461bcd60e51b815260040161051890611ce0565b506000919050565b60005460ff808416911610610e5f5760405162461bcd60e51b815260040161051890611ce0565b506000805460ff191660ff92909216919091179055600190565b919050565b610e8661143b565b609880546001600160a01b039485166001600160a01b031991821617909155609980549385169382169390931790925560978054919093169116179055565b60026065541415610ee85760405162461bcd60e51b815260040161051890611c55565b60026065556098546040516315caa9e760e11b81526001600160a01b0384811660048301523060248301526044820184905290911690632b9553ce9060640160006040518083038186803b158015610f3f57600080fd5b505afa158015610f53573d6000803e3d6000fd5b5050609954604051636dd5b69d60e01b815269626f72726f775f66656560b01b6004820152600093508392506001600160a01b0390911690636dd5b69d90602401604080518083038186803b158015610fab57600080fd5b505afa158015610fbf573d6000803e3d6000fd5b505050506040513d601f19601f82011682018060405250810190610fe39190611d2e565b90925090506000612710610ff78386611a5b565b6110019190611a7a565b9050600061100f8286611af3565b6001600160a01b0387166000908152609a602052604081208054929350839290919061103c908490611a9c565b9091555061104b905086611377565b611055868261146a565b811561106557611065848361146a565b856001600160a01b03167fcbc04eca7e9da35cb1393a6135a199ca52e450d5e9251cbd99f7847d33a36750826040516110a091815260200190565b60405180910390a25050600160655550505050565b6001600160a01b0383163014156110cb57505050565b6001600160a01b0383166111145760405162461bcd60e51b815260206004820152601060248201526f7265636569707420697320656d70747960801b6044820152606401610518565b6097546102e7906001600160a01b031684846114a3565b6001600160a01b0383166000908152609a6020526040812054806111535760009150506109dd565b609954604051636dd5b69d60e01b81526872657061795f66656560b81b600482015260009182916001600160a01b0390911690636dd5b69d90602401604080518083038186803b1580156111a657600080fd5b505afa1580156111ba573d6000803e3d6000fd5b505050506040513d601f19601f820116820180604052508101906111de9190611d2e565b909250905060006127106111f28386611a5b565b6111fc9190611a7a565b9050600061120a8286611a9c565b881061123c57506001600160a01b0388166000908152609a6020526040812055836112358282611a9c565b9550611293565b61124883612710611a9c565b6112546127108a611a5b565b61125e9190611a7a565b905061126a8189611af3565b91506112768186611af3565b6001600160a01b038a166000908152609a60205260409020558795505b866112a7576112a28a8761135f565b6112ec565b858810156112ec5760405162461bcd60e51b8152602060048201526012602482015271494e53554646494349454e545f524550415960701b6044820152606401610518565b6112f581611506565b611301848360016110b5565b6001600160a01b0389166000818152609a6020908152604091829020548251858152918201527f77c6871227e5d2dec8dadd5354f78453203e22e669cd0ec4c19d9a8c5edb31d0910160405180910390a25050505050949350505050565b60975461047a906001600160a01b0316833084611567565b6001600160a01b0381166000908152609a6020526040812054156114015760985460405163c4c0048760e01b81526001600160a01b03848116600483015283151560248301529091169063c4c00487906044015b600060405180830381600087803b1580156113e557600080fd5b505af11580156113f9573d6000803e3d6000fd5b505050505050565b6098546040516379bf27b160e01b81526001600160a01b0384811660048301528315156024830152909116906379bf27b1906044016113cb565b600054610100900460ff166114625760405162461bcd60e51b815260040161051890611d5c565b6105f261159f565b6097546040516340c10f1960e01b81526001600160a01b03848116600483015260248201849052909116906340c10f19906044016113cb565b6040516001600160a01b0383166024820152604481018290526102e790849063a9059cbb60e01b906064015b60408051601f198184030181529190526020810180516001600160e01b03166001600160e01b0319909316929092179091526115cf565b609754604051630852cd8d60e31b8152600481018390526001600160a01b03909116906342966c6890602401600060405180830381600087803b15801561154c57600080fd5b505af1158015611560573d6000803e3d6000fd5b5050505050565b6040516001600160a01b03808516602483015283166044820152606481018290526106009085906323b872dd60e01b906084016114cf565b600054610100900460ff166115c65760405162461bcd60e51b815260040161051890611d5c565b6105f233610ba6565b6000611624826040518060400160405280602081526020017f5361666545524332303a206c6f772d6c6576656c2063616c6c206661696c6564815250856001600160a01b03166116a19092919063ffffffff16565b8051909150156102e757808060200190518101906116429190611da7565b6102e75760405162461bcd60e51b815260206004820152602a60248201527f5361666545524332303a204552433230206f7065726174696f6e20646964206e6044820152691bdd081cdd58d8d9595960b21b6064820152608401610518565b60606109dd8484600085856001600160a01b0385163b6117035760405162461bcd60e51b815260206004820152601d60248201527f416464726573733a2063616c6c20746f206e6f6e2d636f6e74726163740000006044820152606401610518565b600080866001600160a01b0316858760405161171f9190611df0565b60006040518083038185875af1925050503d806000811461175c576040519150601f19603f3d011682016040523d82523d6000602084013e611761565b606091505b509150915061177182828661177c565b979650505050505050565b6060831561178b57508161084e565b82511561179b5782518084602001fd5b8160405162461bcd60e51b81526004016105189190611e0c565b6001600160a01b038116811461095857600080fd5b600080604083850312156117dd57600080fd5b82356117e8816117b5565b946020939093013593505050565b801515811461095857600080fd5b6000806040838503121561181757600080fd5b823591506020830135611829816117f6565b809150509250929050565b60006020828403121561184657600080fd5b5035919050565b60006020828403121561185f57600080fd5b813561084e816117b5565b60008083601f84011261187c57600080fd5b50813567ffffffffffffffff81111561189457600080fd5b6020830191508360208285010111156118ac57600080fd5b9250929050565b600080600080606085870312156118c957600080fd5b84356118d4816117b5565b935060208501356118e4816117b5565b9250604085013567ffffffffffffffff81111561190057600080fd5b61190c8782880161186a565b95989497509550505050565b6000806040838503121561192b57600080fd5b8235611936816117b5565b91506020830135611829816117f6565b60008060006060848603121561195b57600080fd5b8335611966816117b5565b92506020840135611976816117b5565b91506040840135611986816117b5565b809150509250925092565b600080600080606085870312156119a757600080fd5b84356119b2816117b5565b935060208501359250604085013567ffffffffffffffff81111561190057600080fd5b805161ffff81168114610e7957600080fd5b6000806000606084860312156119fc57600080fd5b8351611a07816117b5565b9250611a15602085016119d5565b9150611a23604085016119d5565b90509250925092565b600060208284031215611a3e57600080fd5b5051919050565b634e487b7160e01b600052601160045260246000fd5b6000816000190483118215151615611a7557611a75611a45565b500290565b600082611a9757634e487b7160e01b600052601260045260246000fd5b500490565b60008219821115611aaf57611aaf611a45565b500190565b60008083128015600160ff1b850184121615611ad257611ad2611a45565b6001600160ff1b0384018313811615611aed57611aed611a45565b50500390565b600082821015611b0557611b05611a45565b500390565b6020808252818101527f4f776e61626c653a2063616c6c6572206973206e6f7420746865206f776e6572604082015260600190565b600060208284031215611b5157600080fd5b815160ff8116811461084e57600080fd5b600181815b80851115611b9d578160001904821115611b8357611b83611a45565b80851615611b9057918102915b93841c9390800290611b67565b509250929050565b600082611bb457506001610467565b81611bc157506000610467565b8160018114611bd75760028114611be157611bfd565b6001915050610467565b60ff841115611bf257611bf2611a45565b50506001821b610467565b5060208310610133831016604e8410600b8410161715611c20575081810a610467565b611c2a8383611b62565b8060001904821115611c3e57611c3e611a45565b029392505050565b600061084e60ff841683611ba5565b6020808252601f908201527f5265656e7472616e637947756172643a207265656e7472616e742063616c6c00604082015260600190565b6001600160a01b038681168252851660208201526040810184905260806060820181905281018290526000828460a0840137600060a0848401015260a0601f19601f85011683010190509695505050505050565b6020808252602e908201527f496e697469616c697a61626c653a20636f6e747261637420697320616c72656160408201526d191e481a5b9a5d1a585b1a5e995960921b606082015260800190565b60008060408385031215611d4157600080fd5b8251611d4c816117b5565b6020939093015192949293505050565b6020808252602b908201527f496e697469616c697a61626c653a20636f6e7472616374206973206e6f74206960408201526a6e697469616c697a696e6760a81b606082015260800190565b600060208284031215611db957600080fd5b815161084e816117f6565b60005b83811015611ddf578181015183820152602001611dc7565b838111156106005750506000910152565b60008251611e02818460208701611dc4565b9190910192915050565b6020815260008251806020840152611e2b816040850160208701611dc4565b601f01601f1916919091016040019291505056fea2646970667358221220d9fb2f9d936eeb30cb691196abf6f73d519ea9d1d2f5b04f8cf5fafb468c6e8764736f6c63430008090033",
  "devdoc": {
    "kind": "dev",
    "methods": {
      "owner()": {
        "details": "Returns the address of the current owner."
      },
      "renounceOwnership()": {
        "details": "Leaves the contract without owner. It will not be possible to call `onlyOwner` functions anymore. Can only be called by the current owner. NOTE: Renouncing ownership will leave the contract without an owner, thereby removing any functionality that is only available to the owner."
      },
      "transferOwnership(address)": {
        "details": "Transfers ownership of the contract to a new account (`newOwner`). Can only be called by the current owner."
      }
    },
    "version": 1
  },
  "userdoc": {
    "events": {
      "Borrow(address,uint256)": {
        "notice": ""
      },
      "Liquidated(address,address,uint256)": {
        "notice": ""
      },
      "Repay(address,uint256,uint256)": {
        "notice": ""
      }
    },
    "kind": "user",
    "methods": {},
    "version": 1
  },
  "storageLayout": {
    "storage": [
      {
        "astId": 130,
        "contract": "contracts/MintVault.sol:MintVault",
        "label": "_initialized",
        "offset": 0,
        "slot": "0",
        "type": "t_uint8"
      },
      {
        "astId": 133,
        "contract": "contracts/MintVault.sol:MintVault",
        "label": "_initializing",
        "offset": 1,
        "slot": "0",
        "type": "t_bool"
      },
      {
        "astId": 910,
        "contract": "contracts/MintVault.sol:MintVault",
        "label": "__gap",
        "offset": 0,
        "slot": "1",
        "type": "t_array(t_uint256)50_storage"
      },
      {
        "astId": 10,
        "contract": "contracts/MintVault.sol:MintVault",
        "label": "_owner",
        "offset": 0,
        "slot": "51",
        "type": "t_address"
      },
      {
        "astId": 122,
        "contract": "contracts/MintVault.sol:MintVault",
        "label": "__gap",
        "offset": 0,
        "slot": "52",
        "type": "t_array(t_uint256)49_storage"
      },
      {
        "astId": 279,
        "contract": "contracts/MintVault.sol:MintVault",
        "label": "_status",
        "offset": 0,
        "slot": "101",
        "type": "t_uint256"
      },
      {
        "astId": 323,
        "contract": "contracts/MintVault.sol:MintVault",
        "label": "__gap",
        "offset": 0,
        "slot": "102",
        "type": "t_array(t_uint256)49_storage"
      },
      {
        "astId": 4080,
        "contract": "contracts/MintVault.sol:MintVault",
        "label": "underlying",
        "offset": 0,
        "slot": "151",
        "type": "t_address"
      },
      {
        "astId": 4082,
        "contract": "contracts/MintVault.sol:MintVault",
        "label": "controller",
        "offset": 0,
        "slot": "152",
        "type": "t_address"
      },
      {
        "astId": 4085,
        "contract": "contracts/MintVault.sol:MintVault",
        "label": "feeConf",
        "offset": 0,
        "slot": "153",
        "type": "t_contract(IFeeConf)4851"
      },
      {
        "astId": 4089,
        "contract": "contracts/MintVault.sol:MintVault",
        "label": "borrows",
        "offset": 0,
        "slot": "154",
        "type": "t_mapping(t_address,t_uint256)"
      },
      {
        "astId": 3639,
        "contract": "contracts/MintVault.sol:MintVault",
        "label": "decimalScale",
        "offset": 0,
        "slot": "155",
        "type": "t_uint256"
      }
    ],
    "types": {
      "t_address": {
        "encoding": "inplace",
        "label": "address",
        "numberOfBytes": "20"
      },
      "t_array(t_uint256)49_storage": {
        "base": "t_uint256",
        "encoding": "inplace",
        "label": "uint256[49]",
        "numberOfBytes": "1568"
      },
      "t_array(t_uint256)50_storage": {
        "base": "t_uint256",
        "encoding": "inplace",
        "label": "uint256[50]",
        "numberOfBytes": "1600"
      },
      "t_bool": {
        "encoding": "inplace",
        "label": "bool",
        "numberOfBytes": "1"
      },
      "t_contract(IFeeConf)4851": {
        "encoding": "inplace",
        "label": "contract IFeeConf",
        "numberOfBytes": "20"
      },
      "t_mapping(t_address,t_uint256)": {
        "encoding": "mapping",
        "key": "t_address",
        "label": "mapping(address => uint256)",
        "numberOfBytes": "32",
        "value": "t_uint256"
      },
      "t_uint256": {
        "encoding": "inplace",
        "label": "uint256",
        "numberOfBytes": "32"
      },
      "t_uint8": {
        "encoding": "inplace",
        "label": "uint8",
        "numberOfBytes": "1"
      }
    }
  }
}