{
  "address": "0xEA2f1Be45C10e3E359D723cc74c71F03Ad5CB5a9",
  "abi": [
    {
      "inputs": [
        {
          "internalType": "address",
          "name": "admin_",
          "type": "address"
        }
      ],
      "stateMutability": "nonpayable",
      "type": "constructor"
    },
    {
      "anonymous": false,
      "inputs": [
        {
          "indexed": true,
          "internalType": "address",
          "name": "user",
          "type": "address"
        },
        {
          "indexed": true,
          "internalType": "address",
          "name": "newAdmin",
          "type": "address"
        }
      ],
      "name": "AdminUpdated",
      "type": "event"
    },
    {
      "inputs": [],
      "name": "admin",
      "outputs": [
        {
          "internalType": "address",
          "name": "",
          "type": "address"
        }
      ],
      "stateMutability": "view",
      "type": "function"
    },
    {
      "inputs": [],
      "name": "decimals",
      "outputs": [
        {
          "internalType": "uint8",
          "name": "",
          "type": "uint8"
        }
      ],
      "stateMutability": "pure",
      "type": "function"
    },
    {
      "inputs": [],
      "name": "description",
      "outputs": [
        {
          "internalType": "string",
          "name": "",
          "type": "string"
        }
      ],
      "stateMutability": "pure",
      "type": "function"
    },
    {
      "inputs": [
        {
          "internalType": "uint80",
          "name": "_roundId",
          "type": "uint80"
        }
      ],
      "name": "getRoundData",
      "outputs": [
        {
          "internalType": "uint80",
          "name": "roundId",
          "type": "uint80"
        },
        {
          "internalType": "int256",
          "name": "answer",
          "type": "int256"
        },
        {
          "internalType": "uint256",
          "name": "startedAt",
          "type": "uint256"
        },
        {
          "internalType": "uint256",
          "name": "updatedAt",
          "type": "uint256"
        },
        {
          "internalType": "uint80",
          "name": "answeredInRound",
          "type": "uint80"
        }
      ],
      "stateMutability": "view",
      "type": "function"
    },
    {
      "inputs": [],
      "name": "latestRoundData",
      "outputs": [
        {
          "internalType": "uint80",
          "name": "roundId",
          "type": "uint80"
        },
        {
          "internalType": "int256",
          "name": "answer",
          "type": "int256"
        },
        {
          "internalType": "uint256",
          "name": "startedAt",
          "type": "uint256"
        },
        {
          "internalType": "uint256",
          "name": "updatedAt",
          "type": "uint256"
        },
        {
          "internalType": "uint80",
          "name": "answeredInRound",
          "type": "uint80"
        }
      ],
      "stateMutability": "view",
      "type": "function"
    },
    {
      "inputs": [],
      "name": "mock_r_answer",
      "outputs": [
        {
          "internalType": "int256",
          "name": "",
          "type": "int256"
        }
      ],
      "stateMutability": "view",
      "type": "function"
    },
    {
      "inputs": [
        {
          "internalType": "address",
          "name": "newAdmin",
          "type": "address"
        }
      ],
      "name": "setAdmin",
      "outputs": [],
      "stateMutability": "nonpayable",
      "type": "function"
    },
    {
      "inputs": [
        {
          "internalType": "int256",
          "name": "v_",
          "type": "int256"
        }
      ],
      "name": "updateMockRoundAnswer",
      "outputs": [],
      "stateMutability": "nonpayable",
      "type": "function"
    },
    {
      "inputs": [],
      "name": "version",
      "outputs": [
        {
          "internalType": "uint256",
          "name": "",
          "type": "uint256"
        }
      ],
      "stateMutability": "pure",
      "type": "function"
    }
  ],
  "transactionHash": "0x1fd6353af3e60cfb61e0f7a9e167bf8a5fb8a27d25fbc96d8ac9e952a9c91929",
  "args": [
    "0xe7a2b8C8feD53713F69227e6c3d2384E80CF88a6"
  ],
  "numDeployments": 3,
  "solcInputHash": "368218a8a47bc9c5b475d383a4c1db5b",
  "bytecode": "0x6080604052620afd7060015534801561001757600080fd5b5060405161059f38038061059f8339810160408190526100369161014b565b6001600160a01b0381166100915760405162461bcd60e51b815260206004820152601e60248201527f43616e74207365742061646d696e20746f207a65726f2061646472657373000060448201526064015b60405180910390fd5b61009a816100a0565b5061017b565b6001600160a01b0381166101005760405162461bcd60e51b815260206004820152602160248201527f43616e206e6f74207365742061646d696e20746f207a65726f206164647265736044820152607360f81b6064820152608401610088565b600080546001600160a01b0319166001600160a01b0383169081178255604051909133917f101b8081ff3b56bbf45deb824d86a3b0fd38b7e3dd42421105cf8abe9106db0b9190a350565b60006020828403121561015d57600080fd5b81516001600160a01b038116811461017457600080fd5b9392505050565b6104158061018a6000396000f3fe608060405234801561001057600080fd5b50600436106100935760003560e01c80637945e188116100665780637945e188146101025780639a6fc8f514610115578063cd77060414610174578063f851a4401461017d578063feaf968c146101a857600080fd5b8063313ce5671461009857806354fd4d50146100ac578063704b6c02146100bd5780637284e416146100d2575b600080fd5b604051600881526020015b60405180910390f35b60005b6040519081526020016100a3565b6100d06100cb366004610315565b6101c2565b005b604080518082018252600e81526d111d595d135bd8dac80bc81554d160921b602082015290516100a39190610345565b6100d061011036600461039a565b61021c565b61013d6101233660046103b3565b60015490916362cfee159081906802000000000000e54090565b6040805169ffffffffffffffffffff968716815260208101959095528401929092526060830152909116608082015260a0016100a3565b6100af60015481565b600054610190906001600160a01b031681565b6040516001600160a01b0390911681526020016100a3565b6001546802000000000000e540906362cfee15808361013d565b6000546001600160a01b031633146102105760405162461bcd60e51b815260206004820152600c60248201526b15539055551213d49256915160a21b60448201526064015b60405180910390fd5b6102198161026a565b50565b6000546001600160a01b031633146102655760405162461bcd60e51b815260206004820152600c60248201526b15539055551213d49256915160a21b6044820152606401610207565b600155565b6001600160a01b0381166102ca5760405162461bcd60e51b815260206004820152602160248201527f43616e206e6f74207365742061646d696e20746f207a65726f206164647265736044820152607360f81b6064820152608401610207565b600080546001600160a01b0319166001600160a01b0383169081178255604051909133917f101b8081ff3b56bbf45deb824d86a3b0fd38b7e3dd42421105cf8abe9106db0b9190a350565b60006020828403121561032757600080fd5b81356001600160a01b038116811461033e57600080fd5b9392505050565b600060208083528351808285015260005b8181101561037257858101830151858201604001528201610356565b81811115610384576000604083870101525b50601f01601f1916929092016040019392505050565b6000602082840312156103ac57600080fd5b5035919050565b6000602082840312156103c557600080fd5b813569ffffffffffffffffffff8116811461033e57600080fdfea2646970667358221220f5e8231ad3315b6f39cb945e522e3e6e49801cc9368075f1ff76f9314aaacd9564736f6c63430008090033",
  "devdoc": {
    "kind": "dev",
    "methods": {},
    "version": 1
  },
  "userdoc": {
    "kind": "user",
    "methods": {},
    "version": 1
  },
  "storageLayout": {
    "storage": [
      {
        "astId": 3574,
        "contract": "contracts/mocks/MockOracleUSDAggregator.sol:MockOracleUSDAggregator",
        "label": "admin",
        "offset": 0,
        "slot": "0",
        "type": "t_address"
      },
      {
        "astId": 5775,
        "contract": "contracts/mocks/MockOracleUSDAggregator.sol:MockOracleUSDAggregator",
        "label": "mock_r_answer",
        "offset": 0,
        "slot": "1",
        "type": "t_int256"
      }
    ],
    "types": {
      "t_address": {
        "encoding": "inplace",
        "label": "address",
        "numberOfBytes": "20"
      },
      "t_int256": {
        "encoding": "inplace",
        "label": "int256",
        "numberOfBytes": "32"
      }
    }
  }
}