{
  "address": "0xFFBFEE7113DEce5E65EF6af2FD1e13482d2f6f84",
  "abi": [
    {
      "inputs": [],
      "stateMutability": "nonpayable",
      "type": "constructor"
    },
    {
      "anonymous": false,
      "inputs": [
        {
          "indexed": false,
          "internalType": "address",
          "name": "liquidator",
          "type": "address"
        },
        {
          "indexed": false,
          "internalType": "bool",
          "name": "allowed",
          "type": "bool"
        }
      ],
      "name": "AllowedLiquidatorChanged",
      "type": "event"
    },
    {
      "anonymous": false,
      "inputs": [
        {
          "indexed": false,
          "internalType": "uint256",
          "name": "collateralRate",
          "type": "uint256"
        }
      ],
      "name": "CollateralRateChanged",
      "type": "event"
    },
    {
      "anonymous": false,
      "inputs": [
        {
          "indexed": true,
          "internalType": "address",
          "name": "dToken",
          "type": "address"
        },
        {
          "indexed": false,
          "internalType": "address",
          "name": "oldVault",
          "type": "address"
        },
        {
          "indexed": false,
          "internalType": "address",
          "name": "newVault",
          "type": "address"
        },
        {
          "indexed": false,
          "internalType": "uint256",
          "name": "vtype",
          "type": "uint256"
        }
      ],
      "name": "DTokenVaultChanged",
      "type": "event"
    },
    {
      "anonymous": false,
      "inputs": [
        {
          "indexed": false,
          "internalType": "address",
          "name": "vault",
          "type": "address"
        },
        {
          "indexed": false,
          "internalType": "enum IController.ValidVault",
          "name": "state",
          "type": "uint8"
        }
      ],
      "name": "InitValidVault",
      "type": "event"
    },
    {
      "anonymous": false,
      "inputs": [
        {
          "indexed": false,
          "internalType": "uint8",
          "name": "version",
          "type": "uint8"
        }
      ],
      "name": "Initialized",
      "type": "event"
    },
    {
      "anonymous": false,
      "inputs": [
        {
          "indexed": false,
          "internalType": "uint256",
          "name": "liquidateRate",
          "type": "uint256"
        }
      ],
      "name": "LiquidateRateChanged",
      "type": "event"
    },
    {
      "anonymous": false,
      "inputs": [
        {
          "indexed": false,
          "internalType": "bool",
          "name": "open",
          "type": "bool"
        }
      ],
      "name": "OpenLiquidateChanged",
      "type": "event"
    },
    {
      "anonymous": false,
      "inputs": [
        {
          "indexed": true,
          "internalType": "address",
          "name": "previousOwner",
          "type": "address"
        },
        {
          "indexed": true,
          "internalType": "address",
          "name": "newOwner",
          "type": "address"
        }
      ],
      "name": "OwnershipTransferred",
      "type": "event"
    },
    {
      "anonymous": false,
      "inputs": [
        {
          "indexed": false,
          "internalType": "address",
          "name": "user",
          "type": "address"
        },
        {
          "indexed": false,
          "internalType": "uint256",
          "name": "amount",
          "type": "uint256"
        }
      ],
      "name": "ReleaseAdvance",
      "type": "event"
    },
    {
      "anonymous": false,
      "inputs": [
        {
          "indexed": false,
          "internalType": "address",
          "name": "user",
          "type": "address"
        },
        {
          "indexed": false,
          "internalType": "address",
          "name": "liqudator",
          "type": "address"
        },
        {
          "indexed": false,
          "internalType": "address",
          "name": "vault",
          "type": "address"
        },
        {
          "indexed": false,
          "internalType": "uint256",
          "name": "amount",
          "type": "uint256"
        }
      ],
      "name": "ReleaseByBorrowLiquidation",
      "type": "event"
    },
    {
      "anonymous": false,
      "inputs": [
        {
          "indexed": false,
          "internalType": "address",
          "name": "user",
          "type": "address"
        },
        {
          "indexed": false,
          "internalType": "address",
          "name": "liqudator",
          "type": "address"
        },
        {
          "indexed": false,
          "internalType": "address",
          "name": "vault",
          "type": "address"
        },
        {
          "indexed": false,
          "internalType": "uint256",
          "name": "amount",
          "type": "uint256"
        }
      ],
      "name": "ReleaseByDepositLiquidation",
      "type": "event"
    },
    {
      "anonymous": false,
      "inputs": [
        {
          "indexed": false,
          "internalType": "address",
          "name": "user",
          "type": "address"
        },
        {
          "indexed": false,
          "internalType": "uint256",
          "name": "amount",
          "type": "uint256"
        }
      ],
      "name": "ReleaseWithDebit",
      "type": "event"
    },
    {
      "anonymous": false,
      "inputs": [
        {
          "indexed": false,
          "internalType": "address",
          "name": "user",
          "type": "address"
        },
        {
          "indexed": false,
          "internalType": "address",
          "name": "underlying",
          "type": "address"
        },
        {
          "indexed": false,
          "internalType": "address",
          "name": "vault",
          "type": "address"
        },
        {
          "indexed": false,
          "internalType": "uint256",
          "name": "amount",
          "type": "uint256"
        }
      ],
      "name": "ReleaseWithPayback",
      "type": "event"
    },
    {
      "anonymous": false,
      "inputs": [
        {
          "indexed": false,
          "internalType": "address",
          "name": "vault",
          "type": "address"
        },
        {
          "indexed": false,
          "internalType": "address",
          "name": "user",
          "type": "address"
        },
        {
          "indexed": false,
          "internalType": "enum IController.ValidVault",
          "name": "state",
          "type": "uint8"
        }
      ],
      "name": "SetValidVault",
      "type": "event"
    },
    {
      "anonymous": false,
      "inputs": [
        {
          "indexed": false,
          "internalType": "address",
          "name": "vault",
          "type": "address"
        },
        {
          "components": [
            {
              "internalType": "bool",
              "name": "enabled",
              "type": "bool"
            },
            {
              "internalType": "bool",
              "name": "enableDeposit",
              "type": "bool"
            },
            {
              "internalType": "bool",
              "name": "enableWithdraw",
              "type": "bool"
            },
            {
              "internalType": "bool",
              "name": "enableBorrow",
              "type": "bool"
            },
            {
              "internalType": "bool",
              "name": "enableRepay",
              "type": "bool"
            },
            {
              "internalType": "bool",
              "name": "enableLiquidate",
              "type": "bool"
            }
          ],
          "indexed": false,
          "internalType": "struct AppController.VaultState",
          "name": "state",
          "type": "tuple"
        }
      ],
      "name": "SetVaultStates",
      "type": "event"
    },
    {
      "anonymous": false,
      "inputs": [
        {
          "indexed": true,
          "internalType": "address",
          "name": "underlying",
          "type": "address"
        },
        {
          "indexed": false,
          "internalType": "address",
          "name": "oldDToken",
          "type": "address"
        },
        {
          "indexed": false,
          "internalType": "address",
          "name": "newDToken",
          "type": "address"
        }
      ],
      "name": "UnderlyingDTokenChanged",
      "type": "event"
    },
    {
      "anonymous": false,
      "inputs": [
        {
          "indexed": true,
          "internalType": "address",
          "name": "underlying",
          "type": "address"
        },
        {
          "indexed": false,
          "internalType": "address",
          "name": "oldStrage",
          "type": "address"
        },
        {
          "indexed": false,
          "internalType": "address",
          "name": "newDToken",
          "type": "address"
        },
        {
          "indexed": false,
          "internalType": "uint256",
          "name": "stype",
          "type": "uint256"
        }
      ],
      "name": "UnderlyingStrategyChanged",
      "type": "event"
    },
    {
      "anonymous": false,
      "inputs": [
        {
          "indexed": true,
          "internalType": "address",
          "name": "underlying",
          "type": "address"
        },
        {
          "indexed": false,
          "internalType": "address",
          "name": "oracle",
          "type": "address"
        },
        {
          "indexed": false,
          "internalType": "uint256",
          "name": "discount",
          "type": "uint256"
        },
        {
          "indexed": false,
          "internalType": "uint256",
          "name": "premium",
          "type": "uint256"
        }
      ],
      "name": "ValueConfChanged",
      "type": "event"
    },
    {
      "inputs": [
        {
          "internalType": "address",
          "name": "",
          "type": "address"
        }
      ],
      "name": "allowedLiquidator",
      "outputs": [
        {
          "internalType": "bool",
          "name": "",
          "type": "bool"
        }
      ],
      "stateMutability": "view",
      "type": "function"
    },
    {
      "inputs": [
        {
          "internalType": "address",
          "name": "_user",
          "type": "address"
        },
        {
          "internalType": "address",
          "name": "_vault",
          "type": "address"
        },
        {
          "internalType": "uint256",
          "name": "_amount",
          "type": "uint256"
        }
      ],
      "name": "beforeBorrow",
      "outputs": [],
      "stateMutability": "view",
      "type": "function"
    },
    {
      "inputs": [
        {
          "internalType": "address",
          "name": "",
          "type": "address"
        },
        {
          "internalType": "address",
          "name": "_vault",
          "type": "address"
        },
        {
          "internalType": "uint256",
          "name": "",
          "type": "uint256"
        }
      ],
      "name": "beforeDeposit",
      "outputs": [],
      "stateMutability": "view",
      "type": "function"
    },
    {
      "inputs": [
        {
          "internalType": "address",
          "name": "_repayer",
          "type": "address"
        },
        {
          "internalType": "address",
          "name": "_vault",
          "type": "address"
        },
        {
          "internalType": "uint256",
          "name": "_amount",
          "type": "uint256"
        }
      ],
      "name": "beforeRepay",
      "outputs": [],
      "stateMutability": "view",
      "type": "function"
    },
    {
      "inputs": [
        {
          "internalType": "address",
          "name": "_user",
          "type": "address"
        },
        {
          "internalType": "address",
          "name": "_vault",
          "type": "address"
        },
        {
          "internalType": "uint256",
          "name": "_amount",
          "type": "uint256"
        }
      ],
      "name": "beforeWithdraw",
      "outputs": [],
      "stateMutability": "view",
      "type": "function"
    },
    {
      "inputs": [],
      "name": "collateralRate",
      "outputs": [
        {
          "internalType": "uint256",
          "name": "",
          "type": "uint256"
        }
      ],
      "stateMutability": "view",
      "type": "function"
    },
    {
      "inputs": [
        {
          "internalType": "address",
          "name": "",
          "type": "address"
        }
      ],
      "name": "dyTokenVaults",
      "outputs": [
        {
          "internalType": "address",
          "name": "",
          "type": "address"
        }
      ],
      "stateMutability": "view",
      "type": "function"
    },
    {
      "inputs": [
        {
          "internalType": "address",
          "name": "",
          "type": "address"
        }
      ],
      "name": "dyTokens",
      "outputs": [
        {
          "internalType": "address",
          "name": "",
          "type": "address"
        }
      ],
      "stateMutability": "view",
      "type": "function"
    },
    {
      "inputs": [
        {
          "internalType": "address",
          "name": "_underlying",
          "type": "address"
        }
      ],
      "name": "emergencyWithdrawAll",
      "outputs": [],
      "stateMutability": "nonpayable",
      "type": "function"
    },
    {
      "inputs": [
        {
          "internalType": "address",
          "name": "_user",
          "type": "address"
        },
        {
          "internalType": "bool",
          "name": "isDepositVault",
          "type": "bool"
        }
      ],
      "name": "exitVault",
      "outputs": [],
      "stateMutability": "nonpayable",
      "type": "function"
    },
    {
      "inputs": [
        {
          "internalType": "address",
          "name": "_underlying",
          "type": "address"
        }
      ],
      "name": "getValueConf",
      "outputs": [
        {
          "internalType": "address",
          "name": "oracle",
          "type": "address"
        },
        {
          "internalType": "uint16",
          "name": "dr",
          "type": "uint16"
        },
        {
          "internalType": "uint16",
          "name": "pr",
          "type": "uint16"
        }
      ],
      "stateMutability": "view",
      "type": "function"
    },
    {
      "inputs": [
        {
          "internalType": "address",
          "name": "token0",
          "type": "address"
        },
        {
          "internalType": "address",
          "name": "token1",
          "type": "address"
        }
      ],
      "name": "getValueConfs",
      "outputs": [
        {
          "internalType": "address",
          "name": "oracle0",
          "type": "address"
        },
        {
          "internalType": "uint16",
          "name": "dr0",
          "type": "uint16"
        },
        {
          "internalType": "uint16",
          "name": "pr0",
          "type": "uint16"
        },
        {
          "internalType": "address",
          "name": "oracle1",
          "type": "address"
        },
        {
          "internalType": "uint16",
          "name": "dr1",
          "type": "uint16"
        },
        {
          "internalType": "uint16",
          "name": "pr1",
          "type": "uint16"
        }
      ],
      "stateMutability": "view",
      "type": "function"
    },
    {
      "inputs": [],
      "name": "globalVaultState",
      "outputs": [
        {
          "internalType": "bool",
          "name": "enabled",
          "type": "bool"
        },
        {
          "internalType": "bool",
          "name": "enableDeposit",
          "type": "bool"
        },
        {
          "internalType": "bool",
          "name": "enableWithdraw",
          "type": "bool"
        },
        {
          "internalType": "bool",
          "name": "enableBorrow",
          "type": "bool"
        },
        {
          "internalType": "bool",
          "name": "enableRepay",
          "type": "bool"
        },
        {
          "internalType": "bool",
          "name": "enableLiquidate",
          "type": "bool"
        }
      ],
      "stateMutability": "view",
      "type": "function"
    },
    {
      "inputs": [
        {
          "internalType": "address[]",
          "name": "_vault",
          "type": "address[]"
        },
        {
          "internalType": "enum IController.ValidVault[]",
          "name": "_state",
          "type": "uint8[]"
        }
      ],
      "name": "initValidVault",
      "outputs": [],
      "stateMutability": "nonpayable",
      "type": "function"
    },
    {
      "inputs": [],
      "name": "initialize",
      "outputs": [],
      "stateMutability": "nonpayable",
      "type": "function"
    },
    {
      "inputs": [
        {
          "internalType": "address",
          "name": "_borrower",
          "type": "address"
        }
      ],
      "name": "isNeedLiquidate",
      "outputs": [
        {
          "internalType": "bool",
          "name": "",
          "type": "bool"
        }
      ],
      "stateMutability": "view",
      "type": "function"
    },
    {
      "inputs": [],
      "name": "isOpenLiquidate",
      "outputs": [
        {
          "internalType": "bool",
          "name": "",
          "type": "bool"
        }
      ],
      "stateMutability": "view",
      "type": "function"
    },
    {
      "inputs": [
        {
          "internalType": "address",
          "name": "_user",
          "type": "address"
        },
        {
          "internalType": "bool",
          "name": "isDepositVault",
          "type": "bool"
        }
      ],
      "name": "joinVault",
      "outputs": [],
      "stateMutability": "nonpayable",
      "type": "function"
    },
    {
      "inputs": [
        {
          "internalType": "address",
          "name": "_borrower",
          "type": "address"
        },
        {
          "internalType": "bytes",
          "name": "data",
          "type": "bytes"
        }
      ],
      "name": "liquidate",
      "outputs": [],
      "stateMutability": "nonpayable",
      "type": "function"
    },
    {
      "inputs": [],
      "name": "liquidateRate",
      "outputs": [
        {
          "internalType": "uint256",
          "name": "",
          "type": "uint256"
        }
      ],
      "stateMutability": "view",
      "type": "function"
    },
    {
      "inputs": [
        {
          "internalType": "address",
          "name": "_user",
          "type": "address"
        },
        {
          "internalType": "address",
          "name": "vault",
          "type": "address"
        }
      ],
      "name": "maxBorrow",
      "outputs": [
        {
          "internalType": "uint256",
          "name": "",
          "type": "uint256"
        }
      ],
      "stateMutability": "view",
      "type": "function"
    },
    {
      "inputs": [],
      "name": "owner",
      "outputs": [
        {
          "internalType": "address",
          "name": "",
          "type": "address"
        }
      ],
      "stateMutability": "view",
      "type": "function"
    },
    {
      "inputs": [
        {
          "internalType": "address",
          "name": "user_",
          "type": "address"
        },
        {
          "internalType": "address[]",
          "name": "borrowVaults_",
          "type": "address[]"
        },
        {
          "internalType": "address",
          "name": "liquidator_",
          "type": "address"
        }
      ],
      "name": "releaseVaultFor",
      "outputs": [],
      "stateMutability": "nonpayable",
      "type": "function"
    },
    {
      "inputs": [
        {
          "internalType": "address[]",
          "name": "users_",
          "type": "address[]"
        },
        {
          "internalType": "address[]",
          "name": "borrowVaults_",
          "type": "address[]"
        },
        {
          "internalType": "address",
          "name": "liquidator_",
          "type": "address"
        }
      ],
      "name": "releaseVaults",
      "outputs": [],
      "stateMutability": "nonpayable",
      "type": "function"
    },
    {
      "inputs": [],
      "name": "renounceOwnership",
      "outputs": [],
      "stateMutability": "nonpayable",
      "type": "function"
    },
    {
      "inputs": [
        {
          "internalType": "uint256",
          "name": "_collateralRate",
          "type": "uint256"
        }
      ],
      "name": "setCollateralRate",
      "outputs": [],
      "stateMutability": "nonpayable",
      "type": "function"
    },
    {
      "inputs": [
        {
          "internalType": "address",
          "name": "_underlying",
          "type": "address"
        },
        {
          "internalType": "address",
          "name": "_dToken",
          "type": "address"
        }
      ],
      "name": "setDYToken",
      "outputs": [],
      "stateMutability": "nonpayable",
      "type": "function"
    },
    {
      "inputs": [
        {
          "components": [
            {
              "internalType": "bool",
              "name": "enabled",
              "type": "bool"
            },
            {
              "internalType": "bool",
              "name": "enableDeposit",
              "type": "bool"
            },
            {
              "internalType": "bool",
              "name": "enableWithdraw",
              "type": "bool"
            },
            {
              "internalType": "bool",
              "name": "enableBorrow",
              "type": "bool"
            },
            {
              "internalType": "bool",
              "name": "enableRepay",
              "type": "bool"
            },
            {
              "internalType": "bool",
              "name": "enableLiquidate",
              "type": "bool"
            }
          ],
          "internalType": "struct AppController.VaultState",
          "name": "_state",
          "type": "tuple"
        }
      ],
      "name": "setGlobalVaultState",
      "outputs": [],
      "stateMutability": "nonpayable",
      "type": "function"
    },
    {
      "inputs": [
        {
          "internalType": "uint256",
          "name": "_liquidateRate",
          "type": "uint256"
        }
      ],
      "name": "setLiquidateRate",
      "outputs": [],
      "stateMutability": "nonpayable",
      "type": "function"
    },
    {
      "inputs": [
        {
          "internalType": "bool",
          "name": "_open",
          "type": "bool"
        }
      ],
      "name": "setOpenLiquidate",
      "outputs": [],
      "stateMutability": "nonpayable",
      "type": "function"
    },
    {
      "inputs": [
        {
          "internalType": "address",
          "name": "_underlying",
          "type": "address"
        },
        {
          "internalType": "address",
          "name": "_oracle",
          "type": "address"
        },
        {
          "internalType": "uint16",
          "name": "_discount",
          "type": "uint16"
        },
        {
          "internalType": "uint16",
          "name": "_premium",
          "type": "uint16"
        }
      ],
      "name": "setOracles",
      "outputs": [],
      "stateMutability": "nonpayable",
      "type": "function"
    },
    {
      "inputs": [
        {
          "internalType": "address",
          "name": "_underlying",
          "type": "address"
        },
        {
          "internalType": "address",
          "name": "_strategy",
          "type": "address"
        },
        {
          "internalType": "uint256",
          "name": "stype",
          "type": "uint256"
        }
      ],
      "name": "setStrategy",
      "outputs": [],
      "stateMutability": "nonpayable",
      "type": "function"
    },
    {
      "inputs": [
        {
          "internalType": "address[]",
          "name": "_vault",
          "type": "address[]"
        },
        {
          "internalType": "enum IController.ValidVault[]",
          "name": "_state",
          "type": "uint8[]"
        }
      ],
      "name": "setValidVault",
      "outputs": [],
      "stateMutability": "nonpayable",
      "type": "function"
    },
    {
      "inputs": [
        {
          "internalType": "address",
          "name": "_dyToken",
          "type": "address"
        },
        {
          "internalType": "address",
          "name": "_vault",
          "type": "address"
        },
        {
          "internalType": "uint256",
          "name": "vtype",
          "type": "uint256"
        }
      ],
      "name": "setVault",
      "outputs": [],
      "stateMutability": "nonpayable",
      "type": "function"
    },
    {
      "inputs": [
        {
          "internalType": "address",
          "name": "_vault",
          "type": "address"
        },
        {
          "components": [
            {
              "internalType": "bool",
              "name": "enabled",
              "type": "bool"
            },
            {
              "internalType": "bool",
              "name": "enableDeposit",
              "type": "bool"
            },
            {
              "internalType": "bool",
              "name": "enableWithdraw",
              "type": "bool"
            },
            {
              "internalType": "bool",
              "name": "enableBorrow",
              "type": "bool"
            },
            {
              "internalType": "bool",
              "name": "enableRepay",
              "type": "bool"
            },
            {
              "internalType": "bool",
              "name": "enableLiquidate",
              "type": "bool"
            }
          ],
          "internalType": "struct AppController.VaultState",
          "name": "_state",
          "type": "tuple"
        }
      ],
      "name": "setVaultStates",
      "outputs": [],
      "stateMutability": "nonpayable",
      "type": "function"
    },
    {
      "inputs": [
        {
          "internalType": "address",
          "name": "",
          "type": "address"
        }
      ],
      "name": "strategies",
      "outputs": [
        {
          "internalType": "address",
          "name": "",
          "type": "address"
        }
      ],
      "stateMutability": "view",
      "type": "function"
    },
    {
      "inputs": [
        {
          "internalType": "address",
          "name": "newOwner",
          "type": "address"
        }
      ],
      "name": "transferOwnership",
      "outputs": [],
      "stateMutability": "nonpayable",
      "type": "function"
    },
    {
      "inputs": [
        {
          "internalType": "address",
          "name": "liquidator",
          "type": "address"
        },
        {
          "internalType": "bool",
          "name": "allowed",
          "type": "bool"
        }
      ],
      "name": "updateAllowedLiquidator",
      "outputs": [],
      "stateMutability": "nonpayable",
      "type": "function"
    },
    {
      "inputs": [
        {
          "internalType": "address",
          "name": "_user",
          "type": "address"
        },
        {
          "internalType": "bool",
          "name": "isDepositVault",
          "type": "bool"
        }
      ],
      "name": "userJoinedVaultCount",
      "outputs": [
        {
          "internalType": "uint256",
          "name": "",
          "type": "uint256"
        }
      ],
      "stateMutability": "view",
      "type": "function"
    },
    {
      "inputs": [
        {
          "internalType": "address",
          "name": "_user",
          "type": "address"
        },
        {
          "internalType": "bool",
          "name": "isDepositVault",
          "type": "bool"
        },
        {
          "internalType": "uint256",
          "name": "index",
          "type": "uint256"
        }
      ],
      "name": "userJoinedVaultInfoAt",
      "outputs": [
        {
          "internalType": "address",
          "name": "vault",
          "type": "address"
        },
        {
          "components": [
            {
              "internalType": "bool",
              "name": "enabled",
              "type": "bool"
            },
            {
              "internalType": "bool",
              "name": "enableDeposit",
              "type": "bool"
            },
            {
              "internalType": "bool",
              "name": "enableWithdraw",
              "type": "bool"
            },
            {
              "internalType": "bool",
              "name": "enableBorrow",
              "type": "bool"
            },
            {
              "internalType": "bool",
              "name": "enableRepay",
              "type": "bool"
            },
            {
              "internalType": "bool",
              "name": "enableLiquidate",
              "type": "bool"
            }
          ],
          "internalType": "struct AppController.VaultState",
          "name": "state",
          "type": "tuple"
        }
      ],
      "stateMutability": "view",
      "type": "function"
    },
    {
      "inputs": [
        {
          "internalType": "address",
          "name": "_user",
          "type": "address"
        },
        {
          "internalType": "contract IVault",
          "name": "_vault",
          "type": "address"
        },
        {
          "internalType": "int256",
          "name": "_amount",
          "type": "int256"
        },
        {
          "internalType": "bool",
          "name": "_dp",
          "type": "bool"
        }
      ],
      "name": "userPendingValues",
      "outputs": [
        {
          "internalType": "uint256",
          "name": "pendingDepositValue",
          "type": "uint256"
        },
        {
          "internalType": "uint256",
          "name": "pendingBrorowValue",
          "type": "uint256"
        }
      ],
      "stateMutability": "view",
      "type": "function"
    },
    {
      "inputs": [
        {
          "internalType": "address",
          "name": "_user",
          "type": "address"
        },
        {
          "internalType": "contract IVault",
          "name": "_vault",
          "type": "address"
        },
        {
          "internalType": "int256",
          "name": "_amount",
          "type": "int256"
        },
        {
          "internalType": "bool",
          "name": "_dp",
          "type": "bool"
        }
      ],
      "name": "userTotalPendingValues",
      "outputs": [
        {
          "internalType": "uint256",
          "name": "pendingDepositValue",
          "type": "uint256"
        },
        {
          "internalType": "uint256",
          "name": "pendingBrorowValue",
          "type": "uint256"
        }
      ],
      "stateMutability": "view",
      "type": "function"
    },
    {
      "inputs": [
        {
          "internalType": "address",
          "name": "_user",
          "type": "address"
        },
        {
          "internalType": "bool",
          "name": "_dp",
          "type": "bool"
        }
      ],
      "name": "userTotalValues",
      "outputs": [
        {
          "internalType": "uint256",
          "name": "totalDepositValue",
          "type": "uint256"
        },
        {
          "internalType": "uint256",
          "name": "totalBorrowValue",
          "type": "uint256"
        }
      ],
      "stateMutability": "view",
      "type": "function"
    },
    {
      "inputs": [
        {
          "internalType": "address",
          "name": "_user",
          "type": "address"
        },
        {
          "internalType": "bool",
          "name": "_dp",
          "type": "bool"
        }
      ],
      "name": "userValues",
      "outputs": [
        {
          "internalType": "uint256",
          "name": "totalDepositValue",
          "type": "uint256"
        },
        {
          "internalType": "uint256",
          "name": "totalBorrowValue",
          "type": "uint256"
        }
      ],
      "stateMutability": "view",
      "type": "function"
    },
    {
      "inputs": [
        {
          "internalType": "address",
          "name": "",
          "type": "address"
        }
      ],
      "name": "validVaults",
      "outputs": [
        {
          "internalType": "enum IController.ValidVault",
          "name": "",
          "type": "uint8"
        }
      ],
      "stateMutability": "view",
      "type": "function"
    },
    {
      "inputs": [
        {
          "internalType": "address",
          "name": "",
          "type": "address"
        },
        {
          "internalType": "address",
          "name": "",
          "type": "address"
        }
      ],
      "name": "validVaultsOfUser",
      "outputs": [
        {
          "internalType": "enum IController.ValidVault",
          "name": "",
          "type": "uint8"
        }
      ],
      "stateMutability": "view",
      "type": "function"
    },
    {
      "inputs": [
        {
          "internalType": "address",
          "name": "",
          "type": "address"
        }
      ],
      "name": "vaultStates",
      "outputs": [
        {
          "internalType": "bool",
          "name": "enabled",
          "type": "bool"
        },
        {
          "internalType": "bool",
          "name": "enableDeposit",
          "type": "bool"
        },
        {
          "internalType": "bool",
          "name": "enableWithdraw",
          "type": "bool"
        },
        {
          "internalType": "bool",
          "name": "enableBorrow",
          "type": "bool"
        },
        {
          "internalType": "bool",
          "name": "enableRepay",
          "type": "bool"
        },
        {
          "internalType": "bool",
          "name": "enableLiquidate",
          "type": "bool"
        }
      ],
      "stateMutability": "view",
      "type": "function"
    }
  ],
  "transactionHash": "0xe7665422dd7d9098e044a08c91ea120a38dc1bcc90c8d4bb4ea347faed07bc31",
  "args": [],
  "numDeployments": 5,
  "solcInputHash": "5914f88f5afd653fffc52737d2239b96",
  "bytecode": "0x608060405234801561001057600080fd5b50614b8b806100206000396000f3fe608060405234801561001057600080fd5b50600436106102955760003560e01c80636c45967711610167578063ace664b4116100ce578063dc95785a11610087578063dc95785a14610748578063e26ec36a14610785578063f2fde38b14610798578063f610c281146107ab578063f7d22673146107be578063f9009ee8146107d157600080fd5b8063ace664b4146106bb578063b66d927a146106ce578063c4c00487146106e1578063c5321fb0146106f4578063c8b268b314610707578063d2786d451461071a57600080fd5b80638da5cb5b116101205780638da5cb5b1461063157806390a83dc21461064257806396721753146106555780639c045f3e14610668578063aaace60114610689578063ab27197e146106b257600080fd5b80636c459677146105bf578063715018a6146105d257806379bf27b1146105da5780637e7cd29e146105ed5780638129fc1c1461060057806383d576501461060857600080fd5b806339ebf8231161020b57806359e27fc4116101c457806359e27fc4146104b75780635f49202f146104ca578063624b5ed4146105565780636657fc67146105695780636989725c146105995780636af2482d146105ac57600080fd5b806339ebf823146103df5780633dcecc2f1461042057806346b45be71461047557806354ab62691461048857806358a6be1c1461049b5780635911a1ae146104a457600080fd5b8063149088161161025d57806314908816146102fb5780631acd8c9c1461030e5780631e516051146103505780632b9553ce146103835780632ea874821461039657806338b20421146103b757600080fd5b8063054c13441461029a57806309ba9b47146102af5780630d37a290146102c25780630ebdee19146102d55780630eccd2c9146102e8575b600080fd5b6102ad6102a836600461407e565b6107de565b005b6102ad6102bd36600461407e565b6109b4565b6102ad6102d03660046140d1565b610c2b565b6102ad6102e3366004614137565b610dcb565b6102ad6102f6366004614170565b610e57565b6102ad6103093660046141f5565b6110ae565b61032161031c366004614223565b61118d565b604080516001600160a01b03909416845261ffff92831660208501529116908201526060015b60405180910390f35b61037361035e366004614223565b606f6020526000908152604090205460ff1681565b6040519015158152602001610347565b6102ad61039136600461407e565b6111e0565b6103a96103a4366004614137565b6114e2565b604051908152602001610347565b6103ca6103c5366004614240565b611539565b60408051928352602083019190915201610347565b6104086103ed366004614223565b6066602052600090815260409020546001600160a01b031681565b6040516001600160a01b039091168152602001610347565b61043361042e3660046141f5565b611595565b604080516001600160a01b03978816815261ffff96871660208201529486169085015294909116606083015282166080820152911660a082015260c001610347565b6102ad610483366004614377565b6115c8565b6102ad610496366004614223565b61186d565b6103a9606d5481565b6103a96104b23660046141f5565b611924565b6102ad6104c536600461407e565b611a32565b61051d6104d8366004614223565b606b6020526000908152604090205460ff80821691610100810482169162010000820481169163010000008104821691600160201b8204811691600160281b90041686565b604080519615158752941515602087015292151593850193909352151560608401529015156080830152151560a082015260c001610347565b6102ad610564366004614439565b611b7c565b61058c610577366004614223565b60706020526000908152604090205460ff1681565b604051610347919061448a565b6102ad6105a736600461407e565b611be2565b6102ad6105ba366004614547565b611cfd565b6102ad6105cd366004614574565b611e05565b6102ad611e70565b6102ad6105e8366004614137565b611ea6565b6102ad6105fb3660046145dd565b611f3f565b6102ad611fb8565b610408610616366004614223565b6068602052600090815260409020546001600160a01b031681565b6033546001600160a01b0316610408565b6102ad61065036600461407e565b612042565b6103ca610663366004614240565b6121b2565b61067b610676366004614661565b6121c1565b604051610347929190614691565b610408610697366004614223565b6065602052600090815260409020546001600160a01b031681565b6103a9606c5481565b6102ad6106c93660046146f0565b6122c8565b6103736106dc366004614223565b61238e565b6102ad6106ef366004614137565b6123c5565b6102ad610702366004614377565b6124a6565b6102ad610715366004614439565b61276d565b61058c6107283660046141f5565b607160209081526000928352604080842090915290825290205460ff1681565b60725461051d9060ff80821691610100810482169162010000820481169163010000008104821691600160201b8204811691600160281b90041686565b6103ca610793366004614137565b6127cc565b6102ad6107a6366004614223565b612809565b6102ad6107b936600461470c565b6128a1565b6103ca6107cc366004614137565b612b14565b606e546103739060ff1681565b6001600160a01b0382166000908152606b6020908152604091829020825160c081018452905460ff8082161515835261010082048116151593830193909352620100008104831615159382019390935263010000008304821615156060820152600160201b8304821615156080820152600160281b90920416151560a0820152336001600160a01b031661087a6033546001600160a01b031690565b6001600160a01b031614806108bb575060725460ff1680156108a4575060725462010000900460ff165b80156108ae575080515b80156108bb575080604001515b6109005760405162461bcd60e51b815260206004820152601160248201527015d2551211149055d7d11254d050931151607a1b60448201526064015b60405180910390fd5b61090a8385612b3a565b156109ae5760006109278585610920868561477f565b6001612c29565b6001600160a01b0386166000908152606a60205260408120919250906109509087906001612e74565b9050606d548161096091906147be565b61096c612710846147be565b10156109ab5760405162461bcd60e51b815260206004820152600e60248201526d1313d5d7d0d3d31310551154905360921b60448201526064016108f7565b50505b50505050565b6001600160a01b0382166000908152606b6020908152604091829020825160c081018452905460ff8082161515835261010082048116151593830193909352620100008104831615159382019390935263010000008304821615156060820152600160201b8304821615156080820152600160281b90920416151560a0820152336001600160a01b0316610a506033546001600160a01b031690565b6001600160a01b03161480610a90575060725460ff168015610a795750607254610100900460ff165b8015610a83575080515b8015610a90575080602001515b610acf5760405162461bcd60e51b815260206004820152601060248201526f4445504f534954455f44495341424c4560801b60448201526064016108f7565b6000836001600160a01b0316636f307dc36040518163ffffffff1660e01b815260040160206040518083038186803b158015610b0a57600080fd5b505afa158015610b1e573d6000803e3d6000fd5b505050506040513d601f19601f82011682018060405250810190610b4291906147dd565b90506000610b4f8261118d565b50506040516341976e0960e01b81526001600160a01b0384811660048301529192506000918316906341976e099060240160206040518083038186803b158015610b9857600080fd5b505afa158015610bac573d6000803e3d6000fd5b505050506040513d601f19601f82011682018060405250810190610bd091906147fa565b905060008111610c225760405162461bcd60e51b815260206004820152601b60248201527f4e4f545f4143435045545f5a45524f5f50524943455f544f4b454e000000000060448201526064016108f7565b50505050505050565b6033546001600160a01b03163314610c555760405162461bcd60e51b81526004016108f790614813565b6001600160a01b038316610c9c5760405162461bcd60e51b815260206004820152600e60248201526d494e56414c49445f4f5241434c4560901b60448201526064016108f7565b6127108261ffff161115610ce45760405162461bcd60e51b815260206004820152600f60248201526e444953434f55545f544f4f5f42494760881b60448201526064016108f7565b6127108161ffff161015610d2e5760405162461bcd60e51b81526020600482015260116024820152701414915352555357d513d3d7d4d3505313607a1b60448201526064016108f7565b6001600160a01b0384811660008181526067602090815260409182902080549488166001600160b01b03199095168517600160a01b61ffff8981169182029290921761ffff60b01b1916600160b01b92891692830217835584519687529286019290925291840152917f7cb71f764a6240297d887d23473a61cf07ba9d34ccfbdd326620a5b896cd33469060600160405180910390a25050505050565b6033546001600160a01b03163314610df55760405162461bcd60e51b81526004016108f790614813565b6001600160a01b0382166000908152606f602052604090819020805460ff1916831515179055517fd8949265082223b72749a7863e551684ee0df9a0c8ece536b9f14686b68425fc90610e4b9084908490614848565b60405180910390a15050565b606e54339060ff1680610e8257506001600160a01b0381166000908152606f602052604090205460ff165b610ec35760405162461bcd60e51b815260206004820152601260248201527124a72b20a624a22fa624a8aaa4a220aa27a960711b60448201526064016108f7565b610ecc8461238e565b610f0c5760405162461bcd60e51b81526020600482015260116024820152700869e989882a88aa48298be8a9c9eaa8e9607b1b60448201526064016108f7565b6001600160a01b038416600090815260696020526040812090610f2e82612f43565b9050805b8015610fe2576000610f4f610f48600184614863565b8590612f4d565b9050610f5b8189612b3a565b15610fcf57610f6a8882612f59565b6040516374eb83c160e01b81526001600160a01b038216906374eb83c190610f9c9088908c908c908c9060040161487a565b600060405180830381600087803b158015610fb657600080fd5b505af1158015610fca573d6000803e3d6000fd5b505050505b5080610fda816148c6565b915050610f32565b506001600160a01b0386166000908152606a602052604081209061100582612f43565b9050805b80156110a357600061101f610f48600184614863565b905061102b8a82612f59565b6040516374eb83c160e01b81526001600160a01b038216906374eb83c19061105d908a908e908e908e9060040161487a565b600060405180830381600087803b15801561107757600080fd5b505af115801561108b573d6000803e3d6000fd5b5050505050808061109b906148c6565b915050611009565b505050505050505050565b6033546001600160a01b031633146110d85760405162461bcd60e51b81526004016108f790614813565b6001600160a01b03811661111f5760405162461bcd60e51b815260206004820152600e60248201526d24a72b20a624a22fa22a27a5a2a760911b60448201526064016108f7565b6001600160a01b0382811660008181526065602090815260409182902080548686166001600160a01b0319821681179092558351951680865291850152927fd5c0cad2a6b3eea813a7bdf548752779e26da201508f6e807ec5ec3d65d020d6910160405180910390a2505050565b6001600160a01b039081166000908152606760209081526040918290208251606081018452905493841680825261ffff600160a01b86048116938301849052600160b01b90950490941692018290529192565b6001600160a01b0382166000908152606b6020908152604091829020825160c081018452905460ff8082161515835261010082048116151593830193909352620100008104831615159382019390935263010000008304821615156060820152600160201b8304821615156080820152600160281b90920416151560a0820152336001600160a01b031661127c6033546001600160a01b031690565b6001600160a01b031614806112be575060725460ff1680156112a757506072546301000000900460ff165b80156112b1575080515b80156112be575080606001515b6112fc5760405162461bcd60e51b815260206004820152600f60248201526e1093d49493d5d7d11254d050931151608a1b60448201526064016108f7565b6000836001600160a01b0316636f307dc36040518163ffffffff1660e01b815260040160206040518083038186803b15801561133757600080fd5b505afa15801561134b573d6000803e3d6000fd5b505050506040513d601f19601f8201168201806040525081019061136f91906147dd565b9050600061137c8261118d565b50506040516341976e0960e01b81526001600160a01b0384811660048301529192506000918316906341976e099060240160206040518083038186803b1580156113c557600080fd5b505afa1580156113d9573d6000803e3d6000fd5b505050506040513d601f19601f820116820180604052508101906113fd91906147fa565b90506000811161144f5760405162461bcd60e51b815260206004820152601b60248201527f4e4f545f4143435045545f5a45524f5f50524943455f544f4b454e000000000060448201526064016108f7565b600061145c886001613077565b6001600160a01b0389166000908152606a6020526040812091925090611487908a908a8a6001613161565b9050606d548161149791906147be565b6114a3612710846147be565b10156110a35760405162461bcd60e51b815260206004820152600e60248201526d1313d5d7d0d3d31310551154905360921b60448201526064016108f7565b60008161150f576001600160a01b0383166000908152606a6020526040902061150a90612f43565b611530565b6001600160a01b038316600090815260696020526040902061153090612f43565b90505b92915050565b6001600160a01b03841660009081526069602052604081208190611561908790878787613161565b6001600160a01b0387166000908152606a6020526040902090925061158a908790878787613161565b905094509492505050565b6000806000806000806115a78861118d565b919750955093506115b78761118d565b979a96995094975095939492505050565b6033546001600160a01b031633146115f25760405162461bcd60e51b81526004016108f790614813565b81518151808214801561160457508115155b6116405760405162461bcd60e51b815260206004820152600d60248201526c494e56414c49445f504152414d60981b60448201526064016108f7565b60005b8281101561186657600060706000878481518110611663576116636148dd565b6020908102919091018101516001600160a01b031682528101919091526040016000205460ff16600281111561169b5761169b614452565b146116d85760405162461bcd60e51b815260206004820152600d60248201526c5345545f4f4e4c595f4f4e434560981b60448201526064016108f7565b60028482815181106116ec576116ec6148dd565b6020026020010151600281111561170557611705614452565b148061173b57506001848281518110611720576117206148dd565b6020026020010151600281111561173957611739614452565b145b6117775760405162461bcd60e51b815260206004820152600d60248201526c494e56414c49445f56414c554560981b60448201526064016108f7565b838181518110611789576117896148dd565b6020026020010151607060008784815181106117a7576117a76148dd565b6020908102919091018101516001600160a01b03168252810191909152604001600020805460ff191660018360028111156117e4576117e4614452565b02179055507f05334cade7d5051a457d6cddb92a76a5266e31459f3118a536c99b169beaa0f585828151811061181c5761181c6148dd565b6020026020010151858381518110611836576118366148dd565b602002602001015160405161184c9291906148f3565b60405180910390a18061185e81614910565b915050611643565b5050505050565b6033546001600160a01b031633146118975760405162461bcd60e51b81526004016108f790614813565b6001600160a01b03808216600090815260666020908152604080832054815163429c145b60e11b8152915194169363853828b693600480840194938390030190829087803b1580156118e857600080fd5b505af11580156118fc573d6000803e3d6000fd5b505050506040513d601f19601f8201168201806040525081019061192091906147fa565b5050565b600080611932846001613077565b6001600160a01b0385166000908152606a602052604081209192509061195b9086906001612e74565b90506000606d546127108461197091906147be565b61197a919061492b565b905081811115611a1d5760006119908383614863565b60405163281aa7fd60e21b815260048101829052600160248201529091506001600160a01b0387169063a06a9ff49060440160206040518083038186803b1580156119da57600080fd5b505afa1580156119ee573d6000803e3d6000fd5b505050506040513d601f19601f82011682018060405250810190611a1291906147fa565b945050505050611533565b60009350505050611533565b50505092915050565b6033546001600160a01b03163314611a5c5760405162461bcd60e51b81526004016108f790614813565b816001600160a01b031663ba58591c6040518163ffffffff1660e01b815260040160206040518083038186803b158015611a9557600080fd5b505afa158015611aa9573d6000803e3d6000fd5b505050506040513d601f19601f82011682018060405250810190611acd919061494d565b611b095760405162461bcd60e51b815260206004820152600d60248201526c1253959053125157d590531555609a1b60448201526064016108f7565b6001600160a01b038084166000818152606860205260409081902080548685166001600160a01b031982161790915590519216917f0ff9c79e47a5eed61bfb093d8315d37efcfa7f6679e507f608289c78941b0e5190611b6e9084908790879061496a565b60405180910390a250505050565b6033546001600160a01b03163314611ba65760405162461bcd60e51b81526004016108f790614813565b606d8190556040518181527f13e612fc69e30b3adcca3cb6573fa94782e94f59261f9b32c96c34b90552b335906020015b60405180910390a150565b6001600160a01b0382166000908152606b6020908152604091829020825160c081018452905460ff8082161515835261010082048116151593830193909352620100008104831615159382019390935263010000008304821615156060820152600160201b8304821615156080820152600160281b90920416151560a0820152336001600160a01b0316611c7e6033546001600160a01b031690565b6001600160a01b03161480611cc0575060725460ff168015611ca95750607254600160201b900460ff165b8015611cb3575080515b8015611cc0575080608001515b6109ae5760405162461bcd60e51b815260206004820152600e60248201526d149154105657d11254d05093115160921b60448201526064016108f7565b6033546001600160a01b03163314611d275760405162461bcd60e51b81526004016108f790614813565b6001600160a01b0382166000908152606b60209081526040918290208351815492850151858501516060870151608088015160a089015161ffff1990971694151561ff00191694909417610100931515939093029290921763ffff00001916620100009115159190910263ff0000001916176301000000911515919091021765ffff000000001916600160201b9115159190910260ff60281b191617600160281b92151592909202919091179055517f0f86f36676a78407d88aa894e600955aca44b6b9eaff4740c81228e2fa75d62890610e4b9084908490614691565b6033546001600160a01b03163314611e2f5760405162461bcd60e51b81526004016108f790614813565b606e805460ff19168215159081179091556040519081527fcfa23450328fe03391963dc3e54c19ebeecb28fd8a628b495b71ab8534d61c3290602001611bd7565b6033546001600160a01b03163314611e9a5760405162461bcd60e51b81526004016108f790614813565b611ea46000613374565b565b336000818152606b602052604090205460ff16611ef65760405162461bcd60e51b815260206004820152600e60248201526d159055531517d11254d05093115160921b60448201526064016108f7565b600082611f1a576001600160a01b0384166000908152606a60205260409020611f33565b6001600160a01b03841660009081526069602052604090205b905061186681836133c6565b6033546001600160a01b03163314611f695760405162461bcd60e51b81526004016108f790614813565b60005b848110156109ab57611fa6868683818110611f8957611f896148dd565b9050602002016020810190611f9e9190614223565b8585856128a1565b80611fb081614910565b915050611f6c565b6000611fc460016133db565b90508015611fdc576000805461ff0019166101001790555b611fe4613468565b612af8606c556132c8606d55606e805460ff19166001179055801561203f576000805461ff0019169055604051600181527f7f26b83ff96e1f2b6a682f133852f6798a09c465da95921460cefb384740249890602001611bd7565b50565b6033546001600160a01b0316331461206c5760405162461bcd60e51b81526004016108f790614813565b6001600160a01b0382166120b85760405162461bcd60e51b815260206004820152601360248201527214dd1c985d1959da595cc8111a5cd8589b1959606a1b60448201526064016108f7565b6001600160a01b0380841660009081526066602052604090205416801561214e57806001600160a01b031663853828b66040518163ffffffff1660e01b8152600401602060405180830381600087803b15801561211457600080fd5b505af1158015612128573d6000803e3d6000fd5b505050506040513d601f19601f8201168201806040525081019061214c91906147fa565b505b6001600160a01b038481166000818152606660205260409081902080546001600160a01b0319169387169390931790925590517fcc7d45f325309ae5b4940b5de638a482be2a51aa3a917326a84f65bcc2f7352390611b6e9084908790879061496a565b60008061156186868686612c29565b6040805160c081018252600080825260208201819052918101829052606081018290526080810182905260a08101829052600084612216576001600160a01b0386166000908152606a6020526040902061222f565b6001600160a01b03861660009081526069602052604090205b905061223b8185612f4d565b6001600160a01b0381166000908152606b6020908152604091829020825160c081018452905460ff8082161515835261010082048116151593830193909352620100008104831615159382019390935263010000008304821615156060820152600160201b8304821615156080820152600160281b90920416151560a08201529097909650945050505050565b6033546001600160a01b031633146122f25760405162461bcd60e51b81526004016108f790614813565b805160728054602084015160408501516060860151608087015160a09097015161ffff1990941695151561ff00191695909517610100921515929092029190911763ffff00001916620100009115159190910263ff0000001916176301000000931515939093029290921765ffff000000001916600160201b9315159390930260ff60281b191692909217600160281b91151591909102179055565b600080600061239e8460016127cc565b91509150606c54816123b091906147be565b6123bc612710846147be565b10949350505050565b336000818152606b602052604090205460ff166124155760405162461bcd60e51b815260206004820152600e60248201526d159055531517d11254d05093115160921b60448201526064016108f7565b600082612439576001600160a01b0384166000908152606a60205260409020612452565b6001600160a01b03841660009081526069602052604090205b9050601461245f82612f43565b1061249c5760405162461bcd60e51b815260206004820152600d60248201526c0949e929cbea89e9ebe9aaa869609b1b60448201526064016108f7565b6118668183613497565b8151815133919080821480156124bb57508115155b6124f75760405162461bcd60e51b815260206004820152600d60248201526c494e56414c49445f504152414d60981b60448201526064016108f7565b60005b828110156126a3576002858281518110612516576125166148dd565b6020026020010151600281111561252f5761252f614452565b14806125655750600185828151811061254a5761254a6148dd565b6020026020010151600281111561256357612563614452565b145b6125a15760405162461bcd60e51b815260206004820152600d60248201526c494e56414c49445f56414c554560981b60448201526064016108f7565b8481815181106125b3576125b36148dd565b6020026020010151607160008884815181106125d1576125d16148dd565b6020908102919091018101516001600160a01b039081168352828201939093526040918201600090812093891681529290529020805460ff1916600183600281111561261f5761261f614452565b02179055507f65d4763abdc1e045affaf50aed5fc2a1f4f466da45ee41ea701e0ad5029ff0b0868281518110612657576126576148dd565b602002602001015185878481518110612672576126726148dd565b60200260200101516040516126899392919061498e565b60405180910390a18061269b81614910565b9150506124fa565b5060006126b1846001613077565b6001600160a01b0385166000908152606a60205260408120919250906126da9086906001612e74565b90506000606d54612710846126ef91906147be565b6126f9919061492b565b9050606d548261270991906147be565b612715612710856147be565b10156127635760405162461bcd60e51b815260206004820152601d60248201527f53455456414c49445641554c543a204c4f575f434f4c4c41544552414c00000060448201526064016108f7565b5050505050505050565b6033546001600160a01b031633146127975760405162461bcd60e51b81526004016108f790614813565b606c8190556040518181527f138a4f81e91d7ed8109625537819aae162d22b1e4b5f73e1919d1f6e21bfbb4b90602001611bd7565b6000806127d98484613077565b6001600160a01b0385166000908152606a6020526040902090925061280090859085612e74565b90509250929050565b6033546001600160a01b031633146128335760405162461bcd60e51b81526004016108f790614813565b6001600160a01b0381166128985760405162461bcd60e51b815260206004820152602660248201527f4f776e61626c653a206e6577206f776e657220697320746865207a65726f206160448201526564647265737360d01b60648201526084016108f7565b61203f81613374565b6033546001600160a01b031633146128cb5760405162461bcd60e51b81526004016108f790614813565b6000805b838110156129da5760008585838181106128eb576128eb6148dd565b90506020020160208101906129009190614223565b6001600160a01b0388166000908152606a6020526040902090915061292590826134ac565b61292f57506129c8565b600061293c8883876134ce565b6001600160a01b0389166000908152606a6020526040902090915061296190836134ac565b156129b95760405162461bcd60e51b815260206004820152602260248201527f4e4f5420434f4d504c454c54454c592052455041494544204d494e5420564155604482015261131560f21b60648201526084016108f7565b6129c381856149b3565b935050505b806129d281614910565b9150506128cf565b50600081116129e957506109ae565b604080516001600160a01b0387168152602081018390527fd23fb662f88318206dd1d4f312c79cc8f6cad84d6791f16248ea48286d1f75fd910160405180910390a16001600160a01b038516600090815260696020526040812090612a4d82612f43565b90505b600083118015612a605750600081115b15612ac3576000612a7c612a75600184614863565b8490612f4d565b9050612a8888826136ef565b612a925750612ab1565b6000612aa0898387896137a2565b9050612aac8186614863565b945050505b80612abb816148c6565b915050612a50565b5081156109ab57604080516001600160a01b0388168152602081018490527fc649b38f60b165ec8c5a2f8f05cabe175203f0b0d407c4e071ed9ae73935a106910160405180910390a1505050505050565b6001600160a01b038216600090815260696020526040812081906127d990859085612e74565b6001600160a01b03808316600090815260716020908152604080832093851683529290529081205460ff168180826002811115612b7957612b79614452565b14612b845781612ba1565b6001600160a01b03851660009081526070602052604090205460ff165b90506000816002811115612bb757612bb7614452565b1415612bf95760405162461bcd60e51b81526020600482015260116024820152701590531251159055531517d55392539255607a1b60448201526064016108f7565b6002816002811115612c0d57612c0d614452565b1415612c1e57600192505050611533565b506000949350505050565b6001600160a01b038416600090815260696020526040812081612c4b82612f43565b90506000805b82811015612dc3576000612c658583612f4d565b9050612c71818b612b3a565b15612db057806001600160a01b0316896001600160a01b03161415612d2557604051635ac28bf960e01b81526001600160a01b038b81166004830152602482018a9052821690635ac28bf99060440160206040518083038186803b158015612cd857600080fd5b505afa158015612cec573d6000803e3d6000fd5b505050506040513d601f19601f82011682018060405250810190612d1091906147fa565b612d1a90876149b3565b955060019250612db0565b60405163ae318c4d60e01b81526001600160a01b0382169063ae318c4d90612d53908d908b90600401614848565b60206040518083038186803b158015612d6b57600080fd5b505afa158015612d7f573d6000803e3d6000fd5b505050506040513d601f19601f82011682018060405250810190612da391906147fa565b612dad90876149b3565b95505b5080612dbb81614910565b915050612c51565b5080158015612dd75750612dd78789612b3a565b15612e6957604051635ac28bf960e01b81526001600160a01b03898116600483015260248201889052881690635ac28bf99060440160206040518083038186803b158015612e2457600080fd5b505afa158015612e38573d6000803e3d6000fd5b505050506040513d601f19601f82011682018060405250810190612e5c91906147fa565b612e6690856149b3565b93505b505050949350505050565b600080612e8084612f43565b905060005b81811015612f3a576000612e998683612f4d565b60405163ae318c4d60e01b81529091506001600160a01b0382169063ae318c4d90612eca908a908990600401614848565b60206040518083038186803b158015612ee257600080fd5b505afa158015612ef6573d6000803e3d6000fd5b505050506040513d601f19601f82011682018060405250810190612f1a91906147fa565b612f2490856149b3565b9350508080612f3290614910565b915050612e85565b50509392505050565b6000611533825490565b60006115308383613ad1565b6001600160a01b0381166000908152606b6020908152604091829020825160c081018452905460ff8082161515835261010082048116151593830193909352620100008104831615159382019390935263010000008304821615156060820152600160201b8304821615156080820152600160281b90920416151560a0820152336001600160a01b0316612ff56033546001600160a01b031690565b6001600160a01b03161480613037575060725460ff1680156130205750607254600160281b900460ff165b801561302a575080515b801561303757508060a001515b6130725760405162461bcd60e51b815260206004820152600c60248201526b13125457d11254d05093115160a21b60448201526064016108f7565b505050565b6001600160a01b03821660009081526069602052604081208161309982612f43565b905060005b81811015611a295760006130b28483612f4d565b90506130be8188612b3a565b1561314e5760405163ae318c4d60e01b81526001600160a01b0382169063ae318c4d906130f1908a908a90600401614848565b60206040518083038186803b15801561310957600080fd5b505afa15801561311d573d6000803e3d6000fd5b505050506040513d601f19601f8201168201806040525081019061314191906147fa565b61314b90866149b3565b94505b508061315981614910565b91505061309e565b60008061316d86612f43565b90506000805b828110156132d65760006131878983612f4d565b9050806001600160a01b0316886001600160a01b0316141561323857604051635ac28bf960e01b81526001600160a01b038b8116600483015260248201899052821690635ac28bf99060440160206040518083038186803b1580156131eb57600080fd5b505afa1580156131ff573d6000803e3d6000fd5b505050506040513d601f19601f8201168201806040525081019061322391906147fa565b61322d90866149b3565b9450600192506132c3565b60405163ae318c4d60e01b81526001600160a01b0382169063ae318c4d90613266908d908a90600401614848565b60206040518083038186803b15801561327e57600080fd5b505afa158015613292573d6000803e3d6000fd5b505050506040513d601f19601f820116820180604052508101906132b691906147fa565b6132c090866149b3565b94505b50806132ce81614910565b915050613173565b508061336957604051635ac28bf960e01b81526001600160a01b03898116600483015260248201879052871690635ac28bf99060440160206040518083038186803b15801561332457600080fd5b505afa158015613338573d6000803e3d6000fd5b505050506040513d601f19601f8201168201806040525081019061335c91906147fa565b61336690846149b3565b92505b505095945050505050565b603380546001600160a01b038381166001600160a01b0319831681179093556040519116919082907f8be0079c531659141344cd1fd0a4f28419497f9722a3daafe3b4186f6b6457e090600090a35050565b6000611530836001600160a01b038416613afb565b60008054610100900460ff1615613422578160ff1660011480156133fe5750303b155b61341a5760405162461bcd60e51b81526004016108f7906149cb565b506000919050565b60005460ff8084169116106134495760405162461bcd60e51b81526004016108f7906149cb565b506000805460ff191660ff92909216919091179055600190565b919050565b600054610100900460ff1661348f5760405162461bcd60e51b81526004016108f790614a19565b611ea4613bee565b6000611530836001600160a01b038416613c1e565b6001600160a01b03811660009081526001830160205260408120541515611530565b60405163ae318c4d60e01b81526000906001600160a01b0384169063ae318c4d906134ff9087908590600401614848565b60206040518083038186803b15801561351757600080fd5b505afa15801561352b573d6000803e3d6000fd5b505050506040513d601f19601f8201168201806040525081019061354f91906147fa565b6040516354a5706f60e01b81526001600160a01b0386811660048301529192506000918516906354a5706f9060240160206040518083038186803b15801561359657600080fd5b505afa1580156135aa573d6000803e3d6000fd5b505050506040513d601f19601f820116820180604052508101906135ce91906147fa565b6001600160a01b0385166000818152606b60205260409081902080546501000000000165ff00000000ff1982161790915590516374eb83c160e01b815292935060ff80821693600160281b9092041691906374eb83c1906136359088908b90600401614a64565b600060405180830381600087803b15801561364f57600080fd5b505af1158015613663573d6000803e3d6000fd5b505050507f28b242d231f0362c6d85b9b8f7dfe0350a65dbfda98e750dd4c9aa9bcb63f5f98786888660405161369c9493929190614a9a565b60405180910390a16001600160a01b039095166000908152606b602052604090208054951515600160281b0260ff60281b199215159290921665ff00000000ff1990961695909517179093559392505050565b600080613766836001600160a01b0316636f307dc36040518163ffffffff1660e01b815260040160206040518083038186803b15801561372e57600080fd5b505afa158015613742573d6000803e3d6000fd5b505050506040513d601f19601f8201168201806040525081019061031c91906147dd565b5061ffff1691505060008111613780576000915050611533565b61378a8385612b3a565b613798576000915050611533565b5060019392505050565b60405163ae318c4d60e01b81526000906001600160a01b0385169063ae318c4d906137d39088908590600401614848565b60206040518083038186803b1580156137eb57600080fd5b505afa1580156137ff573d6000803e3d6000fd5b505050506040513d601f19601f8201168201806040525081019061382391906147fa565b60405163fc7e286d60e01b81526001600160a01b03878116600483015291925060009186169063fc7e286d9060240160206040518083038186803b15801561386a57600080fd5b505afa15801561387e573d6000803e3d6000fd5b505050506040513d601f19601f820116820180604052508101906138a291906147fa565b6001600160a01b0386166000818152606b60205260409081902080546501000000000165ff00000000ff1982161790915590516374eb83c160e01b815292935060ff80821693600160281b9092041691906374eb83c1906139099088908c90600401614a64565b600060405180830381600087803b15801561392357600080fd5b505af1158015613937573d6000803e3d6000fd5b505050507f7249982a4b91c89507451d210662acd32a485a89541cc4b45c036e61ab021b8e888689866040516139709493929190614a9a565b60405180910390a185841115613a8557600061398c8786614863565b9050600064e8d4a51000866139a184886147be565b6139b09064e8d4a510006147be565b6139ba919061492b565b6139c4919061492b565b90506139d28a8a8984613c6d565b7ffa8d7300586ff156c1dd943ffeb03da352c20d8a536676d2ba78b92e4762fe808a8a6001600160a01b0316636f307dc36040518163ffffffff1660e01b815260040160206040518083038186803b158015613a2d57600080fd5b505afa158015613a41573d6000803e3d6000fd5b505050506040513d601f19601f82011682018060405250810190613a6591906147dd565b8b85604051613a779493929190614a9a565b60405180910390a187955050505b6001600160a01b039096166000908152606b602052604090208054961515600160281b0260ff60281b199215159290921665ff00000000ff199097169690961717909455949350505050565b6000826000018281548110613ae857613ae86148dd565b9060005260206000200154905092915050565b60008181526001830160205260408120548015613be4576000613b1f600183614863565b8554909150600090613b3390600190614863565b9050818114613b98576000866000018281548110613b5357613b536148dd565b9060005260206000200154905080876000018481548110613b7657613b766148dd565b6000918252602080832090910192909255918252600188019052604090208390555b8554869080613ba957613ba9614ac4565b600190038181906000526020600020016000905590558560010160008681526020019081526020016000206000905560019350505050611533565b6000915050611533565b600054610100900460ff16613c155760405162461bcd60e51b81526004016108f790614a19565b611ea433613374565b6000818152600183016020526040812054613c6557508154600181810184556000848152602080822090930184905584548482528286019093526040902091909155611533565b506000611533565b6000836001600160a01b0316636f307dc36040518163ffffffff1660e01b815260040160206040518083038186803b158015613ca857600080fd5b505afa158015613cbc573d6000803e3d6000fd5b505050506040513d601f19601f82011682018060405250810190613ce091906147dd565b9050613d6a833084846001600160a01b0316636f307dc36040518163ffffffff1660e01b815260040160206040518083038186803b158015613d2157600080fd5b505afa158015613d35573d6000803e3d6000fd5b505050506040513d601f19601f82011682018060405250810190613d5991906147dd565b6001600160a01b0316929190613dc8565b604051633c84c56760e21b81526001600160a01b0385169063f213159c90613d9a9084908990879060040161496a565b600060405180830381600087803b158015613db457600080fd5b505af11580156110a3573d6000803e3d6000fd5b6109ae846323b872dd60e01b858585604051602401613de99392919061496a565b60408051601f198184030181529190526020810180516001600160e01b03166001600160e01b0319909316929092179091526000613e70826040518060400160405280602081526020017f5361666545524332303a206c6f772d6c6576656c2063616c6c206661696c6564815250856001600160a01b0316613eed9092919063ffffffff16565b8051909150156130725780806020019051810190613e8e919061494d565b6130725760405162461bcd60e51b815260206004820152602a60248201527f5361666545524332303a204552433230206f7065726174696f6e20646964206e6044820152691bdd081cdd58d8d9595960b21b60648201526084016108f7565b6060613efc8484600085613f06565b90505b9392505050565b606082471015613f675760405162461bcd60e51b815260206004820152602660248201527f416464726573733a20696e73756666696369656e742062616c616e636520666f6044820152651c8818d85b1b60d21b60648201526084016108f7565b843b613fb55760405162461bcd60e51b815260206004820152601d60248201527f416464726573733a2063616c6c20746f206e6f6e2d636f6e747261637400000060448201526064016108f7565b600080866001600160a01b03168587604051613fd19190614b06565b60006040518083038185875af1925050503d806000811461400e576040519150601f19603f3d011682016040523d82523d6000602084013e614013565b606091505b5091509150614023828286614030565b925050505b949350505050565b6060831561403f575081613eff565b82511561404f5782518084602001fd5b8160405162461bcd60e51b81526004016108f79190614b22565b6001600160a01b038116811461203f57600080fd5b60008060006060848603121561409357600080fd5b833561409e81614069565b925060208401356140ae81614069565b929592945050506040919091013590565b803561ffff8116811461346357600080fd5b600080600080608085870312156140e757600080fd5b84356140f281614069565b9350602085013561410281614069565b9250614110604086016140bf565b915061411e606086016140bf565b905092959194509250565b801515811461203f57600080fd5b6000806040838503121561414a57600080fd5b823561415581614069565b9150602083013561416581614129565b809150509250929050565b60008060006040848603121561418557600080fd5b833561419081614069565b9250602084013567ffffffffffffffff808211156141ad57600080fd5b818601915086601f8301126141c157600080fd5b8135818111156141d057600080fd5b8760208285010111156141e257600080fd5b6020830194508093505050509250925092565b6000806040838503121561420857600080fd5b823561421381614069565b9150602083013561416581614069565b60006020828403121561423557600080fd5b8135613eff81614069565b6000806000806080858703121561425657600080fd5b843561426181614069565b9350602085013561427181614069565b925060408501359150606085013561428881614129565b939692955090935050565b634e487b7160e01b600052604160045260246000fd5b604051601f8201601f1916810167ffffffffffffffff811182821017156142d2576142d2614293565b604052919050565b600067ffffffffffffffff8211156142f4576142f4614293565b5060051b60200190565b600082601f83011261430f57600080fd5b8135602061432461431f836142da565b6142a9565b82815260059290921b8401810191818101908684111561434357600080fd5b8286015b8481101561436c5780356003811061435f5760008081fd5b8352918301918301614347565b509695505050505050565b6000806040838503121561438a57600080fd5b823567ffffffffffffffff808211156143a257600080fd5b818501915085601f8301126143b657600080fd5b813560206143c661431f836142da565b82815260059290921b840181019181810190898411156143e557600080fd5b948201945b8386101561440c5785356143fd81614069565b825294820194908201906143ea565b9650508601359250508082111561442257600080fd5b5061442f858286016142fe565b9150509250929050565b60006020828403121561444b57600080fd5b5035919050565b634e487b7160e01b600052602160045260246000fd5b6003811061448657634e487b7160e01b600052602160045260246000fd5b9052565b602081016115338284614468565b600060c082840312156144aa57600080fd5b60405160c0810181811067ffffffffffffffff821117156144cd576144cd614293565b60405290508082356144de81614129565b815260208301356144ee81614129565b6020820152604083013561450181614129565b6040820152606083013561451481614129565b6060820152608083013561452781614129565b608082015260a083013561453a81614129565b60a0919091015292915050565b60008060e0838503121561455a57600080fd5b823561456581614069565b91506128008460208501614498565b60006020828403121561458657600080fd5b8135613eff81614129565b60008083601f8401126145a357600080fd5b50813567ffffffffffffffff8111156145bb57600080fd5b6020830191508360208260051b85010111156145d657600080fd5b9250929050565b6000806000806000606086880312156145f557600080fd5b853567ffffffffffffffff8082111561460d57600080fd5b61461989838a01614591565b9097509550602088013591508082111561463257600080fd5b5061463f88828901614591565b909450925050604086013561465381614069565b809150509295509295909350565b60008060006060848603121561467657600080fd5b833561468181614069565b925060208401356140ae81614129565b600060e08201905060018060a01b03841682528251151560208301526020830151151560408301526040830151151560608301526060830151151560808301526080830151151560a083015260a0830151151560c08301529392505050565b600060c0828403121561470257600080fd5b6115308383614498565b6000806000806060858703121561472257600080fd5b843561472d81614069565b9350602085013567ffffffffffffffff81111561474957600080fd5b61475587828801614591565b909450925050604085013561428881614069565b634e487b7160e01b600052601160045260246000fd5b60008083128015600160ff1b85018412161561479d5761479d614769565b6001600160ff1b03840183138116156147b8576147b8614769565b50500390565b60008160001904831182151516156147d8576147d8614769565b500290565b6000602082840312156147ef57600080fd5b8151613eff81614069565b60006020828403121561480c57600080fd5b5051919050565b6020808252818101527f4f776e61626c653a2063616c6c6572206973206e6f7420746865206f776e6572604082015260600190565b6001600160a01b039290921682521515602082015260400190565b60008282101561487557614875614769565b500390565b6001600160a01b0385811682528416602082015260606040820181905281018290526000828460808401376000608084840101526080601f19601f850116830101905095945050505050565b6000816148d5576148d5614769565b506000190190565b634e487b7160e01b600052603260045260246000fd5b6001600160a01b038316815260408101613eff6020830184614468565b600060001982141561492457614924614769565b5060010190565b60008261494857634e487b7160e01b600052601260045260246000fd5b500490565b60006020828403121561495f57600080fd5b8151613eff81614129565b6001600160a01b039384168152919092166020820152604081019190915260600190565b6001600160a01b03848116825283166020820152606081016140286040830184614468565b600082198211156149c6576149c6614769565b500190565b6020808252602e908201527f496e697469616c697a61626c653a20636f6e747261637420697320616c72656160408201526d191e481a5b9a5d1a585b1a5e995960921b606082015260800190565b6020808252602b908201527f496e697469616c697a61626c653a20636f6e7472616374206973206e6f74206960408201526a6e697469616c697a696e6760a81b606082015260800190565b6001600160a01b03928316815291166020820152606060408201819052600490820152633078303160e01b608082015260a00190565b6001600160a01b039485168152928416602084015292166040820152606081019190915260800190565b634e487b7160e01b600052603160045260246000fd5b60005b83811015614af5578181015183820152602001614add565b838111156109ae5750506000910152565b60008251614b18818460208701614ada565b9190910192915050565b6020815260008251806020840152614b41816040850160208701614ada565b601f01601f1916919091016040019291505056fea264697066735822122003de67d8513a6ef7d7d76b2acad80ba416abb2caa826aca526b6d80ee84893fd64736f6c63430008090033",
  "devdoc": {
    "kind": "dev",
    "methods": {
      "beforeBorrow(address,address,uint256)": {
        "params": {
          "_amount": "loan amount",
          "_user": "borrower",
          "_vault": "address of loan market"
        }
      },
      "beforeDeposit(address,address,uint256)": {
        "params": {
          "_vault": "address of deposit market param  _amount deposit amount"
        }
      },
      "owner()": {
        "details": "Returns the address of the current owner."
      },
      "renounceOwnership()": {
        "details": "Leaves the contract without owner. It will not be possible to call `onlyOwner` functions anymore. Can only be called by the current owner. NOTE: Renouncing ownership will leave the contract without an owner, thereby removing any functionality that is only available to the owner."
      },
      "transferOwnership(address)": {
        "details": "Transfers ownership of the contract to a new account (`newOwner`). Can only be called by the current owner."
      },
      "userPendingValues(address,address,int256,bool)": {
        "params": {
          "_amount": "the amount of deposits or withdrawals",
          "_dp": "discount or premium",
          "_user": "depositors",
          "_vault": "target vault"
        }
      },
      "userTotalPendingValues(address,address,int256,bool)": {
        "params": {
          "_amount": "the amount of deposits or withdrawals",
          "_dp": "discount or premium",
          "_user": "depositors",
          "_vault": "target vault"
        }
      },
      "userTotalValues(address,bool)": {
        "params": {
          "_dp": "discount or premium",
          "_user": "depositors"
        }
      },
      "userValues(address,bool)": {
        "params": {
          "_dp": "discount or premium",
          "_user": "depositors"
        }
      }
    },
    "version": 1
  },
  "userdoc": {
    "kind": "user",
    "methods": {
      "beforeBorrow(address,address,uint256)": {
        "notice": "Risk control check before borrowing"
      },
      "beforeDeposit(address,address,uint256)": {
        "notice": "Risk control check before deposit param _user depositors"
      },
      "isNeedLiquidate(address)": {
        "notice": "determine whether the borrower needs to be liquidated"
      },
      "maxBorrow(address,address)": {
        "notice": "maximum that a user can borrow from a Vault"
      },
      "userPendingValues(address,address,int256,bool)": {
        "notice": "predict total valid vault value after the user operating vault (i.e., Vault of deposit only counts collateral)"
      },
      "userTotalPendingValues(address,address,int256,bool)": {
        "notice": "predict total vault value after the user operating Vault"
      },
      "userTotalValues(address,bool)": {
        "notice": "Get user total Vault value"
      },
      "userValues(address,bool)": {
        "notice": "Get user total valid Vault value (i.e., Vault of deposit only counts collateral)"
      }
    },
    "version": 1
  },
  "storageLayout": {
    "storage": [
      {
        "astId": 188,
        "contract": "contracts/AppController.sol:AppController",
        "label": "_initialized",
        "offset": 0,
        "slot": "0",
        "type": "t_uint8"
      },
      {
        "astId": 191,
        "contract": "contracts/AppController.sol:AppController",
        "label": "_initializing",
        "offset": 1,
        "slot": "0",
        "type": "t_bool"
      },
      {
        "astId": 1640,
        "contract": "contracts/AppController.sol:AppController",
        "label": "__gap",
        "offset": 0,
        "slot": "1",
        "type": "t_array(t_uint256)50_storage"
      },
      {
        "astId": 68,
        "contract": "contracts/AppController.sol:AppController",
        "label": "_owner",
        "offset": 0,
        "slot": "51",
        "type": "t_address"
      },
      {
        "astId": 180,
        "contract": "contracts/AppController.sol:AppController",
        "label": "__gap",
        "offset": 0,
        "slot": "52",
        "type": "t_array(t_uint256)49_storage"
      },
      {
        "astId": 5809,
        "contract": "contracts/AppController.sol:AppController",
        "label": "dyTokens",
        "offset": 0,
        "slot": "101",
        "type": "t_mapping(t_address,t_address)"
      },
      {
        "astId": 5813,
        "contract": "contracts/AppController.sol:AppController",
        "label": "strategies",
        "offset": 0,
        "slot": "102",
        "type": "t_mapping(t_address,t_address)"
      },
      {
        "astId": 5825,
        "contract": "contracts/AppController.sol:AppController",
        "label": "valueConfs",
        "offset": 0,
        "slot": "103",
        "type": "t_mapping(t_address,t_struct(ValueConf)5820_storage)"
      },
      {
        "astId": 5830,
        "contract": "contracts/AppController.sol:AppController",
        "label": "dyTokenVaults",
        "offset": 0,
        "slot": "104",
        "type": "t_mapping(t_address,t_address)"
      },
      {
        "astId": 5835,
        "contract": "contracts/AppController.sol:AppController",
        "label": "userJoinedDepositVaults",
        "offset": 0,
        "slot": "105",
        "type": "t_mapping(t_address,t_struct(AddressSet)5179_storage)"
      },
      {
        "astId": 5840,
        "contract": "contracts/AppController.sol:AppController",
        "label": "userJoinedBorrowVaults",
        "offset": 0,
        "slot": "106",
        "type": "t_mapping(t_address,t_struct(AddressSet)5179_storage)"
      },
      {
        "astId": 5858,
        "contract": "contracts/AppController.sol:AppController",
        "label": "vaultStates",
        "offset": 0,
        "slot": "107",
        "type": "t_mapping(t_address,t_struct(VaultState)5853_storage)"
      },
      {
        "astId": 5860,
        "contract": "contracts/AppController.sol:AppController",
        "label": "liquidateRate",
        "offset": 0,
        "slot": "108",
        "type": "t_uint256"
      },
      {
        "astId": 5862,
        "contract": "contracts/AppController.sol:AppController",
        "label": "collateralRate",
        "offset": 0,
        "slot": "109",
        "type": "t_uint256"
      },
      {
        "astId": 5864,
        "contract": "contracts/AppController.sol:AppController",
        "label": "isOpenLiquidate",
        "offset": 0,
        "slot": "110",
        "type": "t_bool"
      },
      {
        "astId": 5868,
        "contract": "contracts/AppController.sol:AppController",
        "label": "allowedLiquidator",
        "offset": 0,
        "slot": "111",
        "type": "t_mapping(t_address,t_bool)"
      },
      {
        "astId": 5874,
        "contract": "contracts/AppController.sol:AppController",
        "label": "validVaults",
        "offset": 0,
        "slot": "112",
        "type": "t_mapping(t_address,t_enum(ValidVault)16620)"
      },
      {
        "astId": 5882,
        "contract": "contracts/AppController.sol:AppController",
        "label": "validVaultsOfUser",
        "offset": 0,
        "slot": "113",
        "type": "t_mapping(t_address,t_mapping(t_address,t_enum(ValidVault)16620))"
      },
      {
        "astId": 5885,
        "contract": "contracts/AppController.sol:AppController",
        "label": "globalVaultState",
        "offset": 0,
        "slot": "114",
        "type": "t_struct(VaultState)5853_storage"
      }
    ],
    "types": {
      "t_address": {
        "encoding": "inplace",
        "label": "address",
        "numberOfBytes": "20"
      },
      "t_array(t_bytes32)dyn_storage": {
        "base": "t_bytes32",
        "encoding": "dynamic_array",
        "label": "bytes32[]",
        "numberOfBytes": "32"
      },
      "t_array(t_uint256)49_storage": {
        "base": "t_uint256",
        "encoding": "inplace",
        "label": "uint256[49]",
        "numberOfBytes": "1568"
      },
      "t_array(t_uint256)50_storage": {
        "base": "t_uint256",
        "encoding": "inplace",
        "label": "uint256[50]",
        "numberOfBytes": "1600"
      },
      "t_bool": {
        "encoding": "inplace",
        "label": "bool",
        "numberOfBytes": "1"
      },
      "t_bytes32": {
        "encoding": "inplace",
        "label": "bytes32",
        "numberOfBytes": "32"
      },
      "t_enum(ValidVault)16620": {
        "encoding": "inplace",
        "label": "enum IController.ValidVault",
        "numberOfBytes": "1"
      },
      "t_mapping(t_address,t_address)": {
        "encoding": "mapping",
        "key": "t_address",
        "label": "mapping(address => address)",
        "numberOfBytes": "32",
        "value": "t_address"
      },
      "t_mapping(t_address,t_bool)": {
        "encoding": "mapping",
        "key": "t_address",
        "label": "mapping(address => bool)",
        "numberOfBytes": "32",
        "value": "t_bool"
      },
      "t_mapping(t_address,t_enum(ValidVault)16620)": {
        "encoding": "mapping",
        "key": "t_address",
        "label": "mapping(address => enum IController.ValidVault)",
        "numberOfBytes": "32",
        "value": "t_enum(ValidVault)16620"
      },
      "t_mapping(t_address,t_mapping(t_address,t_enum(ValidVault)16620))": {
        "encoding": "mapping",
        "key": "t_address",
        "label": "mapping(address => mapping(address => enum IController.ValidVault))",
        "numberOfBytes": "32",
        "value": "t_mapping(t_address,t_enum(ValidVault)16620)"
      },
      "t_mapping(t_address,t_struct(AddressSet)5179_storage)": {
        "encoding": "mapping",
        "key": "t_address",
        "label": "mapping(address => struct EnumerableSet.AddressSet)",
        "numberOfBytes": "32",
        "value": "t_struct(AddressSet)5179_storage"
      },
      "t_mapping(t_address,t_struct(ValueConf)5820_storage)": {
        "encoding": "mapping",
        "key": "t_address",
        "label": "mapping(address => struct AppController.ValueConf)",
        "numberOfBytes": "32",
        "value": "t_struct(ValueConf)5820_storage"
      },
      "t_mapping(t_address,t_struct(VaultState)5853_storage)": {
        "encoding": "mapping",
        "key": "t_address",
        "label": "mapping(address => struct AppController.VaultState)",
        "numberOfBytes": "32",
        "value": "t_struct(VaultState)5853_storage"
      },
      "t_mapping(t_bytes32,t_uint256)": {
        "encoding": "mapping",
        "key": "t_bytes32",
        "label": "mapping(bytes32 => uint256)",
        "numberOfBytes": "32",
        "value": "t_uint256"
      },
      "t_struct(AddressSet)5179_storage": {
        "encoding": "inplace",
        "label": "struct EnumerableSet.AddressSet",
        "members": [
          {
            "astId": 5178,
            "contract": "contracts/AppController.sol:AppController",
            "label": "_inner",
            "offset": 0,
            "slot": "0",
            "type": "t_struct(Set)4878_storage"
          }
        ],
        "numberOfBytes": "64"
      },
      "t_struct(Set)4878_storage": {
        "encoding": "inplace",
        "label": "struct EnumerableSet.Set",
        "members": [
          {
            "astId": 4873,
            "contract": "contracts/AppController.sol:AppController",
            "label": "_values",
            "offset": 0,
            "slot": "0",
            "type": "t_array(t_bytes32)dyn_storage"
          },
          {
            "astId": 4877,
            "contract": "contracts/AppController.sol:AppController",
            "label": "_indexes",
            "offset": 0,
            "slot": "1",
            "type": "t_mapping(t_bytes32,t_uint256)"
          }
        ],
        "numberOfBytes": "64"
      },
      "t_struct(ValueConf)5820_storage": {
        "encoding": "inplace",
        "label": "struct AppController.ValueConf",
        "members": [
          {
            "astId": 5815,
            "contract": "contracts/AppController.sol:AppController",
            "label": "oracle",
            "offset": 0,
            "slot": "0",
            "type": "t_address"
          },
          {
            "astId": 5817,
            "contract": "contracts/AppController.sol:AppController",
            "label": "dr",
            "offset": 20,
            "slot": "0",
            "type": "t_uint16"
          },
          {
            "astId": 5819,
            "contract": "contracts/AppController.sol:AppController",
            "label": "pr",
            "offset": 22,
            "slot": "0",
            "type": "t_uint16"
          }
        ],
        "numberOfBytes": "32"
      },
      "t_struct(VaultState)5853_storage": {
        "encoding": "inplace",
        "label": "struct AppController.VaultState",
        "members": [
          {
            "astId": 5842,
            "contract": "contracts/AppController.sol:AppController",
            "label": "enabled",
            "offset": 0,
            "slot": "0",
            "type": "t_bool"
          },
          {
            "astId": 5844,
            "contract": "contracts/AppController.sol:AppController",
            "label": "enableDeposit",
            "offset": 1,
            "slot": "0",
            "type": "t_bool"
          },
          {
            "astId": 5846,
            "contract": "contracts/AppController.sol:AppController",
            "label": "enableWithdraw",
            "offset": 2,
            "slot": "0",
            "type": "t_bool"
          },
          {
            "astId": 5848,
            "contract": "contracts/AppController.sol:AppController",
            "label": "enableBorrow",
            "offset": 3,
            "slot": "0",
            "type": "t_bool"
          },
          {
            "astId": 5850,
            "contract": "contracts/AppController.sol:AppController",
            "label": "enableRepay",
            "offset": 4,
            "slot": "0",
            "type": "t_bool"
          },
          {
            "astId": 5852,
            "contract": "contracts/AppController.sol:AppController",
            "label": "enableLiquidate",
            "offset": 5,
            "slot": "0",
            "type": "t_bool"
          }
        ],
        "numberOfBytes": "32"
      },
      "t_uint16": {
        "encoding": "inplace",
        "label": "uint16",
        "numberOfBytes": "2"
      },
      "t_uint256": {
        "encoding": "inplace",
        "label": "uint256",
        "numberOfBytes": "32"
      },
      "t_uint8": {
        "encoding": "inplace",
        "label": "uint8",
        "numberOfBytes": "1"
      }
    }
  }
}