{
  "address": "0xA4742CBA9eD24390926c056bc5BFE638FBfbbF4f",
  "abi": [
    {
      "anonymous": false,
      "inputs": [
        {
          "indexed": true,
          "internalType": "address",
          "name": "user",
          "type": "address"
        },
        {
          "indexed": true,
          "internalType": "address",
          "name": "newAdmin",
          "type": "address"
        }
      ],
      "name": "AdminUpdated",
      "type": "event"
    },
    {
      "anonymous": false,
      "inputs": [
        {
          "indexed": false,
          "internalType": "uint256",
          "name": "amount",
          "type": "uint256"
        },
        {
          "indexed": true,
          "internalType": "address",
          "name": "user",
          "type": "address"
        }
      ],
      "name": "Converted",
      "type": "event"
    },
    {
      "anonymous": false,
      "inputs": [
        {
          "indexed": false,
          "internalType": "uint8",
          "name": "version",
          "type": "uint8"
        }
      ],
      "name": "Initialized",
      "type": "event"
    },
    {
      "anonymous": false,
      "inputs": [
        {
          "indexed": true,
          "internalType": "address",
          "name": "user",
          "type": "address"
        },
        {
          "indexed": true,
          "internalType": "address",
          "name": "newKeeper",
          "type": "address"
        }
      ],
      "name": "KeeperUpdated",
      "type": "event"
    },
    {
      "anonymous": false,
      "inputs": [
        {
          "indexed": true,
          "internalType": "address",
          "name": "to",
          "type": "address"
        },
        {
          "indexed": false,
          "internalType": "uint256",
          "name": "amount",
          "type": "uint256"
        }
      ],
      "name": "MintedBondTokenForRewards",
      "type": "event"
    },
    {
      "anonymous": false,
      "inputs": [
        {
          "indexed": false,
          "internalType": "address",
          "name": "account",
          "type": "address"
        }
      ],
      "name": "Paused",
      "type": "event"
    },
    {
      "anonymous": false,
      "inputs": [
        {
          "indexed": false,
          "internalType": "address",
          "name": "account",
          "type": "address"
        }
      ],
      "name": "Unpaused",
      "type": "event"
    },
    {
      "inputs": [],
      "name": "PERCENTAGE_FACTOR",
      "outputs": [
        {
          "internalType": "uint16",
          "name": "",
          "type": "uint16"
        }
      ],
      "stateMutability": "view",
      "type": "function"
    },
    {
      "inputs": [
        {
          "components": [
            {
              "internalType": "string",
              "name": "desc",
              "type": "string"
            },
            {
              "internalType": "uint16",
              "name": "rate",
              "type": "uint16"
            },
            {
              "internalType": "address",
              "name": "receiver",
              "type": "address"
            }
          ],
          "internalType": "struct ExtendableBond.FeeSpec",
          "name": "feeSpec_",
          "type": "tuple"
        }
      ],
      "name": "addFeeSpec",
      "outputs": [],
      "stateMutability": "nonpayable",
      "type": "function"
    },
    {
      "inputs": [],
      "name": "admin",
      "outputs": [
        {
          "internalType": "address",
          "name": "",
          "type": "address"
        }
      ],
      "stateMutability": "view",
      "type": "function"
    },
    {
      "inputs": [],
      "name": "bondFarmingPool",
      "outputs": [
        {
          "internalType": "contract IBondFarmingPool",
          "name": "",
          "type": "address"
        }
      ],
      "stateMutability": "view",
      "type": "function"
    },
    {
      "inputs": [],
      "name": "bondLPFarmingPool",
      "outputs": [
        {
          "internalType": "contract IBondFarmingPool",
          "name": "",
          "type": "address"
        }
      ],
      "stateMutability": "view",
      "type": "function"
    },
    {
      "inputs": [],
      "name": "bondToken",
      "outputs": [
        {
          "internalType": "contract IBondTokenUpgradeable",
          "name": "",
          "type": "address"
        }
      ],
      "stateMutability": "view",
      "type": "function"
    },
    {
      "inputs": [
        {
          "internalType": "uint256",
          "name": "amount_",
          "type": "uint256"
        }
      ],
      "name": "burnBondToken",
      "outputs": [],
      "stateMutability": "nonpayable",
      "type": "function"
    },
    {
      "inputs": [],
      "name": "cakePool",
      "outputs": [
        {
          "internalType": "contract ICakePool",
          "name": "",
          "type": "address"
        }
      ],
      "stateMutability": "view",
      "type": "function"
    },
    {
      "inputs": [
        {
          "internalType": "uint256",
          "name": "amount_",
          "type": "uint256"
        }
      ],
      "name": "calculateFeeAmount",
      "outputs": [
        {
          "internalType": "uint256",
          "name": "",
          "type": "uint256"
        }
      ],
      "stateMutability": "view",
      "type": "function"
    },
    {
      "inputs": [],
      "name": "checkPoints",
      "outputs": [
        {
          "internalType": "bool",
          "name": "convertable",
          "type": "bool"
        },
        {
          "internalType": "uint256",
          "name": "convertableFrom",
          "type": "uint256"
        },
        {
          "internalType": "uint256",
          "name": "convertableEnd",
          "type": "uint256"
        },
        {
          "internalType": "bool",
          "name": "redeemable",
          "type": "bool"
        },
        {
          "internalType": "uint256",
          "name": "redeemableFrom",
          "type": "uint256"
        },
        {
          "internalType": "uint256",
          "name": "redeemableEnd",
          "type": "uint256"
        },
        {
          "internalType": "uint256",
          "name": "maturity",
          "type": "uint256"
        }
      ],
      "stateMutability": "view",
      "type": "function"
    },
    {
      "inputs": [
        {
          "internalType": "uint256",
          "name": "amount_",
          "type": "uint256"
        }
      ],
      "name": "convert",
      "outputs": [],
      "stateMutability": "nonpayable",
      "type": "function"
    },
    {
      "inputs": [
        {
          "internalType": "uint256",
          "name": "amount_",
          "type": "uint256"
        }
      ],
      "name": "convertAndStake",
      "outputs": [],
      "stateMutability": "nonpayable",
      "type": "function"
    },
    {
      "inputs": [],
      "name": "depositAllToRemote",
      "outputs": [],
      "stateMutability": "nonpayable",
      "type": "function"
    },
    {
      "inputs": [
        {
          "internalType": "uint256",
          "name": "amount_",
          "type": "uint256"
        }
      ],
      "name": "depositToRemote",
      "outputs": [],
      "stateMutability": "nonpayable",
      "type": "function"
    },
    {
      "inputs": [
        {
          "internalType": "address",
          "name": "to_",
          "type": "address"
        }
      ],
      "name": "emergencyTransferUnderlyingTokens",
      "outputs": [],
      "stateMutability": "nonpayable",
      "type": "function"
    },
    {
      "inputs": [
        {
          "internalType": "bool",
          "name": "force_",
          "type": "bool"
        }
      ],
      "name": "extendPancakeLockDuration",
      "outputs": [],
      "stateMutability": "nonpayable",
      "type": "function"
    },
    {
      "inputs": [
        {
          "internalType": "uint256",
          "name": "",
          "type": "uint256"
        }
      ],
      "name": "feeSpecs",
      "outputs": [
        {
          "internalType": "string",
          "name": "desc",
          "type": "string"
        },
        {
          "internalType": "uint16",
          "name": "rate",
          "type": "uint16"
        },
        {
          "internalType": "address",
          "name": "receiver",
          "type": "address"
        }
      ],
      "stateMutability": "view",
      "type": "function"
    },
    {
      "inputs": [],
      "name": "feeSpecsLength",
      "outputs": [
        {
          "internalType": "uint256",
          "name": "",
          "type": "uint256"
        }
      ],
      "stateMutability": "view",
      "type": "function"
    },
    {
      "inputs": [
        {
          "internalType": "contract IBondTokenUpgradeable",
          "name": "bondToken_",
          "type": "address"
        },
        {
          "internalType": "contract IERC20Upgradeable",
          "name": "underlyingToken_",
          "type": "address"
        },
        {
          "internalType": "address",
          "name": "admin_",
          "type": "address"
        }
      ],
      "name": "initialize",
      "outputs": [],
      "stateMutability": "nonpayable",
      "type": "function"
    },
    {
      "inputs": [],
      "name": "keeper",
      "outputs": [
        {
          "internalType": "address",
          "name": "",
          "type": "address"
        }
      ],
      "stateMutability": "view",
      "type": "function"
    },
    {
      "inputs": [
        {
          "internalType": "address",
          "name": "to_",
          "type": "address"
        },
        {
          "internalType": "uint256",
          "name": "amount_",
          "type": "uint256"
        }
      ],
      "name": "mintBondTokenForRewards",
      "outputs": [
        {
          "internalType": "uint256",
          "name": "totalFeeAmount",
          "type": "uint256"
        }
      ],
      "stateMutability": "nonpayable",
      "type": "function"
    },
    {
      "inputs": [],
      "name": "pancakeUserInfo",
      "outputs": [
        {
          "components": [
            {
              "internalType": "uint256",
              "name": "shares",
              "type": "uint256"
            },
            {
              "internalType": "uint256",
              "name": "lastDepositedTime",
              "type": "uint256"
            },
            {
              "internalType": "uint256",
              "name": "cakeAtLastUserAction",
              "type": "uint256"
            },
            {
              "internalType": "uint256",
              "name": "lastUserActionTime",
              "type": "uint256"
            },
            {
              "internalType": "uint256",
              "name": "lockStartTime",
              "type": "uint256"
            },
            {
              "internalType": "uint256",
              "name": "lockEndTime",
              "type": "uint256"
            },
            {
              "internalType": "uint256",
              "name": "userBoostedShare",
              "type": "uint256"
            },
            {
              "internalType": "bool",
              "name": "locked",
              "type": "bool"
            },
            {
              "internalType": "uint256",
              "name": "lockedAmount",
              "type": "uint256"
            }
          ],
          "internalType": "struct ICakePool.UserInfo",
          "name": "",
          "type": "tuple"
        }
      ],
      "stateMutability": "view",
      "type": "function"
    },
    {
      "inputs": [],
      "name": "pause",
      "outputs": [],
      "stateMutability": "nonpayable",
      "type": "function"
    },
    {
      "inputs": [],
      "name": "paused",
      "outputs": [
        {
          "internalType": "bool",
          "name": "",
          "type": "bool"
        }
      ],
      "stateMutability": "view",
      "type": "function"
    },
    {
      "inputs": [
        {
          "internalType": "uint256",
          "name": "amount_",
          "type": "uint256"
        }
      ],
      "name": "redeem",
      "outputs": [],
      "stateMutability": "nonpayable",
      "type": "function"
    },
    {
      "inputs": [],
      "name": "redeemAll",
      "outputs": [],
      "stateMutability": "nonpayable",
      "type": "function"
    },
    {
      "inputs": [],
      "name": "remoteUnderlyingAmount",
      "outputs": [
        {
          "internalType": "uint256",
          "name": "",
          "type": "uint256"
        }
      ],
      "stateMutability": "view",
      "type": "function"
    },
    {
      "inputs": [
        {
          "internalType": "uint256",
          "name": "feeSpecIndex",
          "type": "uint256"
        }
      ],
      "name": "removeFeeSpec",
      "outputs": [],
      "stateMutability": "nonpayable",
      "type": "function"
    },
    {
      "inputs": [
        {
          "internalType": "bool",
          "name": "deposit_",
          "type": "bool"
        }
      ],
      "name": "secondsToPancakeLockExtend",
      "outputs": [
        {
          "internalType": "uint256",
          "name": "secondsToExtend",
          "type": "uint256"
        }
      ],
      "stateMutability": "view",
      "type": "function"
    },
    {
      "inputs": [
        {
          "internalType": "address",
          "name": "newAdmin",
          "type": "address"
        }
      ],
      "name": "setAdmin",
      "outputs": [],
      "stateMutability": "nonpayable",
      "type": "function"
    },
    {
      "inputs": [
        {
          "internalType": "contract ICakePool",
          "name": "cakePool_",
          "type": "address"
        }
      ],
      "name": "setCakePool",
      "outputs": [],
      "stateMutability": "nonpayable",
      "type": "function"
    },
    {
      "inputs": [
        {
          "internalType": "bool",
          "name": "convertable_",
          "type": "bool"
        }
      ],
      "name": "setConvertable",
      "outputs": [],
      "stateMutability": "nonpayable",
      "type": "function"
    },
    {
      "inputs": [
        {
          "internalType": "contract IBondFarmingPool",
          "name": "bondPool_",
          "type": "address"
        },
        {
          "internalType": "contract IBondFarmingPool",
          "name": "lpPool_",
          "type": "address"
        }
      ],
      "name": "setFarmingPools",
      "outputs": [],
      "stateMutability": "nonpayable",
      "type": "function"
    },
    {
      "inputs": [
        {
          "internalType": "uint256",
          "name": "feeId_",
          "type": "uint256"
        },
        {
          "components": [
            {
              "internalType": "string",
              "name": "desc",
              "type": "string"
            },
            {
              "internalType": "uint16",
              "name": "rate",
              "type": "uint16"
            },
            {
              "internalType": "address",
              "name": "receiver",
              "type": "address"
            }
          ],
          "internalType": "struct ExtendableBond.FeeSpec",
          "name": "feeSpec_",
          "type": "tuple"
        }
      ],
      "name": "setFeeSpec",
      "outputs": [],
      "stateMutability": "nonpayable",
      "type": "function"
    },
    {
      "inputs": [
        {
          "internalType": "address",
          "name": "newKeeper",
          "type": "address"
        }
      ],
      "name": "setKeeper",
      "outputs": [],
      "stateMutability": "nonpayable",
      "type": "function"
    },
    {
      "inputs": [
        {
          "internalType": "bool",
          "name": "redeemable_",
          "type": "bool"
        }
      ],
      "name": "setRedeemable",
      "outputs": [],
      "stateMutability": "nonpayable",
      "type": "function"
    },
    {
      "inputs": [],
      "name": "totalBondTokenAmount",
      "outputs": [
        {
          "internalType": "uint256",
          "name": "",
          "type": "uint256"
        }
      ],
      "stateMutability": "view",
      "type": "function"
    },
    {
      "inputs": [],
      "name": "totalPendingRewards",
      "outputs": [
        {
          "internalType": "uint256",
          "name": "",
          "type": "uint256"
        }
      ],
      "stateMutability": "view",
      "type": "function"
    },
    {
      "inputs": [],
      "name": "totalUnderlyingAmount",
      "outputs": [
        {
          "internalType": "uint256",
          "name": "",
          "type": "uint256"
        }
      ],
      "stateMutability": "view",
      "type": "function"
    },
    {
      "inputs": [],
      "name": "underlyingAmount",
      "outputs": [
        {
          "internalType": "uint256",
          "name": "",
          "type": "uint256"
        }
      ],
      "stateMutability": "view",
      "type": "function"
    },
    {
      "inputs": [],
      "name": "underlyingToken",
      "outputs": [
        {
          "internalType": "contract IERC20Upgradeable",
          "name": "",
          "type": "address"
        }
      ],
      "stateMutability": "view",
      "type": "function"
    },
    {
      "inputs": [],
      "name": "unpause",
      "outputs": [],
      "stateMutability": "nonpayable",
      "type": "function"
    },
    {
      "inputs": [
        {
          "components": [
            {
              "internalType": "bool",
              "name": "convertable",
              "type": "bool"
            },
            {
              "internalType": "uint256",
              "name": "convertableFrom",
              "type": "uint256"
            },
            {
              "internalType": "uint256",
              "name": "convertableEnd",
              "type": "uint256"
            },
            {
              "internalType": "bool",
              "name": "redeemable",
              "type": "bool"
            },
            {
              "internalType": "uint256",
              "name": "redeemableFrom",
              "type": "uint256"
            },
            {
              "internalType": "uint256",
              "name": "redeemableEnd",
              "type": "uint256"
            },
            {
              "internalType": "uint256",
              "name": "maturity",
              "type": "uint256"
            }
          ],
          "internalType": "struct ExtendableBond.CheckPoints",
          "name": "checkPoints_",
          "type": "tuple"
        }
      ],
      "name": "updateCheckPoints",
      "outputs": [],
      "stateMutability": "nonpayable",
      "type": "function"
    },
    {
      "inputs": [
        {
          "internalType": "bool",
          "name": "makeRedeemable_",
          "type": "bool"
        }
      ],
      "name": "withdrawAllCakesFromPancake",
      "outputs": [],
      "stateMutability": "nonpayable",
      "type": "function"
    }
  ],
  "transactionHash": "0x2ff0f0d02b4887e0938a56cdc33ceecce302c997ab1015802788447d4ad6bb48",
  "args": [],
  "numDeployments": 6,
  "solcInputHash": "ee3115e3f00f1f48c7e0652764b2a0ca",
  "bytecode": "0x608060405234801561001057600080fd5b506137d0806100206000396000f3fe608060405234801561001057600080fd5b50600436106102745760003560e01c8063a3908e1b11610151578063d3d63770116100c3578063ec1371f211610087578063ec1371f2146105d7578063ed64a967146105df578063ee01e5e7146105f2578063f7d97faf1461060e578063f851a44014610621578063fe58b0191461063457600080fd5b8063d3d6377014610583578063d629b80c14610596578063db006a75146105a9578063dbfb206a146105bc578063de21647c146105c457600080fd5b8063b59f279611610115578063b59f2796146104ad578063b87b331214610524578063c0c53b8b14610537578063c28f43921461054a578063cb268a181461055d578063cd49b1781461057057600080fd5b8063a3908e1b1461044e578063a94b569414610461578063aced166114610474578063b1acc8a414610487578063b3cb305b1461049a57600080fd5b80634eccc36a116101ea578063741a0e32116101ae578063741a0e32146103fd578063748747e6146104055780637614115c146104185780637bd5490e146104205780638456cb5914610433578063a18487731461043b57600080fd5b80634eccc36a146103b15780635c975abb146103b95780635cb7758e146103cf57806365389451146103e2578063704b6c02146103ea57600080fd5b80633ab452711161023c5780633ab45271146102fa5780633dae08cc1461030d5780633f2d25c11461036c5780633f4ba83a1461037f57806344877d16146103875780634a1dfebf146103a957600080fd5b8063178f7b40146102795780632495a5991461029f5780632f4350c2146102ca57806338907118146102d45780633a1739d2146102e7575b600080fd5b61028c610287366004612f68565b610647565b6040519081526020015b60405180910390f35b609a546102b2906001600160a01b031681565b6040516001600160a01b039091168152602001610296565b6102d26106e8565b005b6102d26102e2366004612f8f565b610793565b6102d26102f5366004612fac565b6107e5565b6102d2610308366004612fd6565b610a0b565b609e54609f5460a05460a15460a25460a35460a4546103359660ff9081169695941692919087565b6040805197151588526020880196909652948601939093529015156060850152608084015260a083015260c082015260e001610296565b6102d261037a366004612f68565b610b39565b6102d2610d29565b61039a610395366004612f68565b610da4565b60405161029693929190613075565b61028c610e76565b6102d2610e97565b60655460ff166040519015158152602001610296565b609c546102b2906001600160a01b031681565b609d5461028c565b6102d26103f83660046130c1565b610f53565b61028c610f89565b6102d26104133660046130c1565b611218565b61028c61124b565b6102d261042e366004612f68565b6112c7565b6102d2611333565b6102d26104493660046130c1565b611388565b6102d261045c366004612f68565b6113d4565b61028c61046f3660046130de565b611446565b6098546102b2906001600160a01b031681565b6102d2610495366004612f68565b6116db565b609b546102b2906001600160a01b031681565b6104b5611723565b6040516102969190600061012082019050825182526020830151602083015260408301516040830152606083015160608301526080830151608083015260a083015160a083015260c083015160c083015260e0830151151560e083015261010080840151818401525092915050565b6102d2610532366004612f68565b6117f0565b6102d261054536600461310a565b611881565b6099546102b2906001600160a01b031681565b6102d261056b366004612f8f565b611990565b6102d261057e3660046130c1565b611a4d565b6102d2610591366004612f8f565b611aac565b6102d26105a4366004613155565b611b69565b6102d26105b7366004612f68565b611cf0565b61028c6120e8565b6102d26105d236600461318a565b61212d565b61028c6121f3565b60a5546102b2906001600160a01b031681565b6105fb61271081565b60405161ffff9091168152602001610296565b6102d261061c366004612f8f565b61222d565b6097546102b2906001600160a01b031681565b61028c610642366004612f8f565b61227f565b600080821161065857506000919050565b6000805b609d548110156106e1576000609d828154811061067b5761067b6131c3565b600091825260208220600160029092020190810154909250612710906106a59061ffff16886131ef565b6106af919061320e565b9050600081116106c05750506106cf565b6106ca8185613230565b935050505b806106d981613248565b91505061065c565b5092915050565b60655460ff16156107145760405162461bcd60e51b815260040161070b90613263565b60405180910390fd5b6099546040516370a0823160e01b8152336004820152610791916001600160a01b0316906370a082319060240160206040518083038186803b15801561075957600080fd5b505afa15801561076d573d6000803e3d6000fd5b505050506040513d601f19601f820116820180604052508101906105b7919061328d565b565b6097546001600160a01b03163314806107b657506098546001600160a01b031633145b6107d25760405162461bcd60e51b815260040161070b906132a6565b60a1805460ff1916911515919091179055565b6097546001600160a01b031633148061080857506098546001600160a01b031633145b6108245760405162461bcd60e51b815260040161070b906132a6565b60008160200135116108875760405162461bcd60e51b815260206004820152602660248201527f636f6e7665727461626c6546726f6d206d75737420626520677265617465722060448201526507468616e20360d41b606482015260840161070b565b80604001358160200135106108f95760405162461bcd60e51b815260206004820152603260248201527f72656465656d61626c6546726f6d206d757374206265206561726c69657220746044820152711a185b8818dbdb9d995c9d18589b19515b9960721b606482015260840161070b565b8060400135816080013511801561091857508060c00135816080013510155b61098a5760405162461bcd60e51b815260206004820152603d60248201527f72656465656d61626c6546726f6d206d757374206265206c617465722074686160448201527f6e20636f6e7665727461626c65456e6420616e64206d61747572697479000000606482015260840161070b565b80608001358160a00135116109f95760405162461bcd60e51b815260206004820152602f60248201527f72656465656d61626c65456e64206d757374206265206c61746572207468616e60448201526e2072656465656d61626c6546726f6d60881b606482015260840161070b565b80609e610a0682826132cc565b505050565b6097546001600160a01b03163314610a355760405162461bcd60e51b815260040161070b906132a6565b6000610a47604083016020840161334f565b61ffff1611610a8e5760405162461bcd60e51b8152602060048201526013602482015272466565207261746520697320746f6f206c6f7760681b604482015260640161070b565b80609d8381548110610aa257610aa26131c3565b90600052602060002090600202018181610abc9190613401565b9050506000805b609d54811015610b1657609d8181548110610ae057610ae06131c3565b6000918252602090912060016002909202010154610b029061ffff1683613230565b915080610b0e81613248565b915050610ac3565b50612710811115610a065760405162461bcd60e51b815260040161070b9061354a565b60655460ff1615610b5c5760405162461bcd60e51b815260040161070b90613263565b60026001541415610b7f5760405162461bcd60e51b815260040161070b9061358b565b600260015580610bc65760405162461bcd60e51b8152602060048201526012602482015271139bdd1a1a5b99c81d1bc818dbdb9d995c9d60721b604482015260640161070b565b610bce612444565b610bd66124bf565b609a543390610bf0906001600160a01b031682308561258b565b610bf9826125f6565b6099546040516340c10f1960e01b81526001600160a01b03909116906340c10f1990610c2b90309086906004016135c2565b600060405180830381600087803b158015610c4557600080fd5b505af1158015610c59573d6000803e3d6000fd5b5050609b54609954610c7a93506001600160a01b0390811692501684612793565b609b54604051637ebce35160e11b81526001600160a01b039091169063fd79c6a290610cac90849086906004016135c2565b600060405180830381600087803b158015610cc657600080fd5b505af1158015610cda573d6000803e3d6000fd5b50505050806001600160a01b03167fe506c5b38303257173417712c8d702c3ca26f81804dab9d4232beab595a4967883604051610d1991815260200190565b60405180910390a2505060018055565b6097546001600160a01b03163314610d535760405162461bcd60e51b815260040161070b906132a6565b60655460ff16610d9c5760405162461bcd60e51b815260206004820152601460248201527314185d5cd8589b194e881b9bdd081c185d5cd95960621b604482015260640161070b565b6107916128a6565b609d8181548110610db457600080fd5b9060005260206000209060020201600091509050806000018054610dd79061336c565b80601f0160208091040260200160405190810160405280929190818152602001828054610e039061336c565b8015610e505780601f10610e2557610100808354040283529160200191610e50565b820191906000526020600020905b815481529060010190602001808311610e3357829003601f168201915b5050506001909301549192505061ffff8116906001600160a01b03620100009091041683565b6000610e80610f89565b610e8861124b565b610e929190613230565b905090565b6097546001600160a01b0316331480610eba57506098546001600160a01b031633145b610ed65760405162461bcd60e51b815260040161070b906132a6565b609a546040516370a0823160e01b8152306004820152610791916001600160a01b0316906370a082319060240160206040518083038186803b158015610f1b57600080fd5b505afa158015610f2f573d6000803e3d6000fd5b505050506040513d601f19601f82011682018060405250810190610495919061328d565b6097546001600160a01b03163314610f7d5760405162461bcd60e51b815260040161070b906132a6565b610f8681612939565b50565b60a554604051630cacd00160e11b815230600482015260009182916001600160a01b0390911690631959a002906024016101206040518083038186803b158015610fd257600080fd5b505afa158015610fe6573d6000803e3d6000fd5b505050506040513d601f19601f8201168201806040525081019061100a919061361e565b9050600060a560009054906101000a90046001600160a01b03166001600160a01b03166377c7b8fc6040518163ffffffff1660e01b815260040160206040518083038186803b15801561105c57600080fd5b505afa158015611070573d6000803e3d6000fd5b505050506040513d601f19601f82011682018060405250810190611094919061328d565b82519091506110a65760009250505090565b60a55460408051636f885a7360e11b815290516000926001600160a01b03169163df10b4e6916004808301926020929190829003018186803b1580156110eb57600080fd5b505afa1580156110ff573d6000803e3d6000fd5b505050506040513d601f19601f82011682018060405250810190611123919061328d565b83602001516111329190613230565b8360e001516111415742611147565b8360a001515b10156111d35760a55483516040516314d2e7eb60e11b81526001600160a01b03909216916329a5cfd691611180913091906004016135c2565b60206040518083038186803b15801561119857600080fd5b505afa1580156111ac573d6000803e3d6000fd5b505050506040513d601f19601f820116820180604052508101906111d0919061328d565b90505b808360c00151670de0b6b3a76400008486600001516111f291906131ef565b6111fc919061320e565b611206919061369e565b611210919061369e565b935050505090565b6097546001600160a01b031633146112425760405162461bcd60e51b815260040161070b906132a6565b610f86816129e5565b609a546040516370a0823160e01b81523060048201526000916001600160a01b0316906370a082319060240160206040518083038186803b15801561128f57600080fd5b505afa1580156112a3573d6000803e3d6000fd5b505050506040513d601f19601f82011682018060405250810190610e92919061328d565b6097546001600160a01b031633146112f15760405162461bcd60e51b815260040161070b906132a6565b609d8181548110611304576113046131c3565b6000918252602082206002909102019061131e8282612f1a565b5060010180546001600160b01b031916905550565b6097546001600160a01b0316331461135d5760405162461bcd60e51b815260040161070b906132a6565b60655460ff16156113805760405162461bcd60e51b815260040161070b90613263565b610791612a31565b6097546001600160a01b031633146113b25760405162461bcd60e51b815260040161070b906132a6565b60a580546001600160a01b0319166001600160a01b0392909216919091179055565b60655460ff16156113f75760405162461bcd60e51b815260040161070b90613263565b6000811161143c5760405162461bcd60e51b8152602060048201526012602482015271139bdd1a1a5b99c81d1bc818dbdb9d995c9d60721b604482015260640161070b565b610f868133612a89565b609b546000906001600160a01b031633148061146c5750609c546001600160a01b031633145b6114b15760405162461bcd60e51b81526020600482015260166024820152751bdb9b1e48199c9bdb4819985c9b5a5b99c81c1bdbdb60521b604482015260640161070b565b6114b9610e76565b826114c26120e8565b6114cc9190613230565b111561150f5760405162461bcd60e51b815260206004820152601260248201527143616e206e6f74206f76657220697373756560701b604482015260640161070b565b6000821161151f575060006116d5565b8160005b609d54811015611618576000609d8281548110611542576115426131c3565b6000918252602082206001600290920201908101549092506127109061156c9061ffff16866131ef565b611576919061320e565b905060008111611587575050611606565b611591818561369e565b60995460018401546040516340c10f1960e01b81529296506001600160a01b03918216926340c10f19926115d192620100009004169085906004016135c2565b600060405180830381600087803b1580156115eb57600080fd5b505af11580156115ff573d6000803e3d6000fd5b5050505050505b8061161081613248565b915050611523565b508015611684576099546040516340c10f1960e01b81526001600160a01b03909116906340c10f199061165190879085906004016135c2565b600060405180830381600087803b15801561166b57600080fd5b505af115801561167f573d6000803e3d6000fd5b505050505b836001600160a01b03167fe983a9107ef1ede2128027c84916ca9d350512f44c4502e560a1fda90a77a462846040516116bf91815260200190565b60405180910390a26116d1818461369e565b9150505b92915050565b6097546001600160a01b03163314806116fe57506098546001600160a01b031633145b61171a5760405162461bcd60e51b815260040161070b906132a6565b610f86816125f6565b61177460405180610120016040528060008152602001600081526020016000815260200160008152602001600081526020016000815260200160008152602001600015158152602001600081525090565b60a554604051630cacd00160e11b81523060048201526001600160a01b0390911690631959a002906024016101206040518083038186803b1580156117b857600080fd5b505afa1580156117cc573d6000803e3d6000fd5b505050506040513d601f19601f82011682018060405250810190610e92919061361e565b6097546001600160a01b0316331461181a5760405162461bcd60e51b815260040161070b906132a6565b60995460405163079cc67960e41b81526001600160a01b03909116906379cc67909061184c90339085906004016135c2565b600060405180830381600087803b15801561186657600080fd5b505af115801561187a573d6000803e3d6000fd5b5050505050565b600061188d6001612b14565b905080156118a5576000805461ff0019166101001790555b6001600160a01b0382166118fb5760405162461bcd60e51b815260206004820152601e60248201527f43616e74207365742061646d696e20746f207a65726f20616464726573730000604482015260640161070b565b611903612ba1565b61190b612bd0565b61191433612939565b609980546001600160a01b038087166001600160a01b031992831617909255609a805492861692909116919091179055801561198a576000805461ff0019169055604051600181527f7f26b83ff96e1f2b6a682f133852f6798a09c465da95921460cefb38474024989060200160405180910390a15b50505050565b6097546001600160a01b03163314806119b357506098546001600160a01b031633145b6119cf5760405162461bcd60e51b815260040161070b906132a6565b60006119da8261227f565b90508015611a495760a554604051631c57762b60e31b815260006004820152602481018390526001600160a01b039091169063e2bbb158906044015b600060405180830381600087803b158015611a3057600080fd5b505af1158015611a44573d6000803e3d6000fd5b505050505b5050565b6097546001600160a01b03163314611a775760405162461bcd60e51b815260040161070b906132a6565b609e805460ff1990811690915560a180549091169055610f8681611a9961124b565b609a546001600160a01b03169190612bff565b6097546001600160a01b0316331480611acf57506098546001600160a01b031633145b611aeb5760405162461bcd60e51b815260040161070b906132a6565b609e805460ff1916905560a5546040805163429c145b60e11b815290516001600160a01b039092169163853828b69160048082019260009290919082900301818387803b158015611b3b57600080fd5b505af1158015611b4f573d6000803e3d6000fd5b505050508015610f865760a1805460ff1916600117905550565b6097546001600160a01b03163314611b935760405162461bcd60e51b815260040161070b906132a6565b609d54600511611bda5760405162461bcd60e51b8152602060048201526012602482015271546f6f206d616e792066656520737065637360701b604482015260640161070b565b6000611bec604083016020840161334f565b61ffff1611611c335760405162461bcd60e51b8152602060048201526013602482015272466565207261746520697320746f6f206c6f7760681b604482015260640161070b565b609d805460018101825560009190915281906002027fd26e832454299e9fabb89e0e5fffdc046d4e14431bc1bf607ffb2e8a1ddecf7b01611c748282613401565b50506000805b609d54811015611ccd57609d8181548110611c9757611c976131c3565b6000918252602090912060016002909202010154611cb99061ffff1683613230565b915080611cc581613248565b915050611c7a565b50612710811115611a495760405162461bcd60e51b815260040161070b9061354a565b60655460ff1615611d135760405162461bcd60e51b815260040161070b90613263565b60026001541415611d365760405162461bcd60e51b815260040161070b9061358b565b600260015580611d7c5760405162461bcd60e51b81526020600482015260116024820152704e6f7468696e6720746f2072656465656d60781b604482015260640161070b565b60a15460ff168015611d90575060a2544210155b8015611d9e575060a3544211155b8015611dab575060a05442115b611df75760405162461bcd60e51b815260206004820152601c60248201527f43616e206e6f742072656465656d20617420746869732074696d652e00000000604482015260640161070b565b6099546040516370a0823160e01b81523360048201819052916000916001600160a01b03909116906370a082319060240160206040518083038186803b158015611e4057600080fd5b505afa158015611e54573d6000803e3d6000fd5b505050506040513d601f19601f82011682018060405250810190611e78919061328d565b905080831115611ec15760405162461bcd60e51b8152602060048201526014602482015273496e73756666696369656e742062616c616e636560601b604482015260640161070b565b60995460405163079cc67960e41b81526001600160a01b03909116906379cc679090611ef390859087906004016135c2565b600060405180830381600087803b158015611f0d57600080fd5b505af1158015611f21573d6000803e3d6000fd5b5050609a546040516370a0823160e01b8152306004820152600093506001600160a01b0390911691506370a082319060240160206040518083038186803b158015611f6b57600080fd5b505afa158015611f7f573d6000803e3d6000fd5b505050506040513d601f19601f82011682018060405250810190611fa3919061328d565b905083811015611fbf57611fbf611fba828661369e565b612c1e565b609a546040516370a0823160e01b81523060048201526001600160a01b03909116906370a082319060240160206040518083038186803b15801561200257600080fd5b505afa158015612016573d6000803e3d6000fd5b505050506040513d601f19601f8201168201806040525081019061203a919061328d565b8411156120c757609a546040516370a0823160e01b81523060048201526120c29185916001600160a01b03909116906370a082319060240160206040518083038186803b15801561208a57600080fd5b505afa15801561209e573d6000803e3d6000fd5b505050506040513d601f19601f82011682018060405250810190611a99919061328d565b6120de565b609a546120de906001600160a01b03168486612bff565b5050600180555050565b609954604080516318160ddd60e01b815290516000926001600160a01b0316916318160ddd916004808301926020929190829003018186803b15801561128f57600080fd5b6097546001600160a01b031633146121575760405162461bcd60e51b815260040161070b906132a6565b6001600160a01b038216158015906121815750806001600160a01b0316826001600160a01b031614155b6121c55760405162461bcd60e51b8152602060048201526015602482015274696e76616c6964206661726d696e6720706f6f6c7360581b604482015260640161070b565b609b80546001600160a01b039384166001600160a01b031991821617909155609c8054929093169116179055565b6000806121fe610e76565b9050600061220a6120e8565b905081811061221c5760009250505090565b612226818361369e565b9250505090565b6097546001600160a01b031633148061225057506098546001600160a01b031633145b61226c5760405162461bcd60e51b815260040161070b906132a6565b609e805460ff1916911515919091179055565b60a554604051630cacd00160e11b8152306004820152600091429183916001600160a01b031690631959a002906024016101206040518083038186803b1580156122c857600080fd5b505afa1580156122dc573d6000803e3d6000fd5b505050506040513d601f19601f82011682018060405250810190612300919061361e565b9050600060a560009054906101000a90046001600160a01b03166001600160a01b0316634f1bfc9e6040518163ffffffff1660e01b815260040160206040518083038186803b15801561235257600080fd5b505afa158015612366573d6000803e3d6000fd5b505050506040513d601f19601f8201168201806040525081019061238a919061328d565b9050609e600601548260a001511080156123a5575060a45442105b80156123ca575084806123ca57508082608001518360a001516123c8919061369e565b105b1561243c57428260a001511061241b5760a4546000906123eb90429061369e565b90508260a00151426123fd8385612c4f565b6124079190613230565b612411919061369e565b9695505050505050565b60a4546124339061242d90429061369e565b82612c4f565b95945050505050565b505050919050565b609e5460ff1680156124585750609f544210155b8015612466575060a0544211155b8015612473575060a25442105b6107915760405162461bcd60e51b815260206004820152601d60248201527f43616e206e6f7420636f6e7665727420617420746869732074696d652e000000604482015260640161070b565b609b60009054906101000a90046001600160a01b03166001600160a01b031663e3161ddd6040518163ffffffff1660e01b8152600401600060405180830381600087803b15801561250f57600080fd5b505af1158015612523573d6000803e3d6000fd5b50505050609c60009054906101000a90046001600160a01b03166001600160a01b031663e3161ddd6040518163ffffffff1660e01b8152600401600060405180830381600087803b15801561257757600080fd5b505af115801561198a573d6000803e3d6000fd5b6040516001600160a01b038085166024830152831660448201526064810182905261198a9085906323b872dd60e01b906084015b60408051601f198184030181529190526020810180516001600160e01b03166001600160e01b031990931692909217909152612c67565b609a546040516370a0823160e01b81523060048201526000916001600160a01b0316906370a082319060240160206040518083038186803b15801561263a57600080fd5b505afa15801561264e573d6000803e3d6000fd5b505050506040513d601f19601f82011682018060405250810190612672919061328d565b90506000811180156126845750818110155b6126c55760405162461bcd60e51b81526020600482015260126024820152711b9bdd1a1a5b99c81d1bc819195c1bdcda5d60721b604482015260640161070b565b609a5460a55460405163095ea7b360e01b81526001600160a01b039283169263095ea7b3926126fb9291169086906004016135c2565b602060405180830381600087803b15801561271557600080fd5b505af1158015612729573d6000803e3d6000fd5b505050506040513d601f19601f8201168201806040525081019061274d91906136b5565b5060a5546001600160a01b031663e2bbb1588361276a600161227f565b6040516001600160e01b031960e085901b16815260048101929092526024820152604401611a16565b80158061281c5750604051636eb1769f60e11b81523060048201526001600160a01b03838116602483015284169063dd62ed3e9060440160206040518083038186803b1580156127e257600080fd5b505afa1580156127f6573d6000803e3d6000fd5b505050506040513d601f19601f8201168201806040525081019061281a919061328d565b155b6128875760405162461bcd60e51b815260206004820152603660248201527f5361666545524332303a20617070726f76652066726f6d206e6f6e2d7a65726f60448201527520746f206e6f6e2d7a65726f20616c6c6f77616e636560501b606482015260840161070b565b610a068363095ea7b360e01b84846040516024016125bf9291906135c2565b60655460ff166128ef5760405162461bcd60e51b815260206004820152601460248201527314185d5cd8589b194e881b9bdd081c185d5cd95960621b604482015260640161070b565b6065805460ff191690557f5db9ee0a495bf2e6ff9c91a7834c1ba4fdd244a5e8aa4e537bd38aeae4b073aa335b6040516001600160a01b03909116815260200160405180910390a1565b6001600160a01b0381166129995760405162461bcd60e51b815260206004820152602160248201527f43616e206e6f74207365742061646d696e20746f207a65726f206164647265736044820152607360f81b606482015260840161070b565b609780546001600160a01b0319166001600160a01b03831690811790915560405133907f101b8081ff3b56bbf45deb824d86a3b0fd38b7e3dd42421105cf8abe9106db0b90600090a350565b609880546001600160a01b0319166001600160a01b03831690811790915560405133907f53d3703fe259def57584466f32d1b94c30278008c683c21b04501c4966f13a6990600090a350565b60655460ff1615612a545760405162461bcd60e51b815260040161070b90613263565b6065805460ff191660011790557f62e78cea01bee320cd4e420270b5ea74000d11b0c9f74754ebdbfc544b05a25861291c3390565b60026001541415612aac5760405162461bcd60e51b815260040161070b9061358b565b6002600155612ab9612444565b612ac16124bf565b609a54612ad9906001600160a01b031682308561258b565b612ae2826125f6565b6099546040516340c10f1960e01b81526001600160a01b03909116906340c10f1990610cac90849086906004016135c2565b60008054610100900460ff1615612b5b578160ff166001148015612b375750303b155b612b535760405162461bcd60e51b815260040161070b906136d2565b506000919050565b60005460ff808416911610612b825760405162461bcd60e51b815260040161070b906136d2565b506000805460ff191660ff92909216919091179055600190565b919050565b600054610100900460ff16612bc85760405162461bcd60e51b815260040161070b90613720565b610791612d39565b600054610100900460ff16612bf75760405162461bcd60e51b815260040161070b90613720565b610791612d6c565b610a068363a9059cbb60e01b84846040516024016125bf9291906135c2565b60a554604051635521e9bf60e01b8152600481018390526001600160a01b0390911690635521e9bf9060240161184c565b6000818310612c5e5781612c60565b825b9392505050565b6000612cbc826040518060400160405280602081526020017f5361666545524332303a206c6f772d6c6576656c2063616c6c206661696c6564815250856001600160a01b0316612d999092919063ffffffff16565b805190915015610a065780806020019051810190612cda91906136b5565b610a065760405162461bcd60e51b815260206004820152602a60248201527f5361666545524332303a204552433230206f7065726174696f6e20646964206e6044820152691bdd081cdd58d8d9595960b21b606482015260840161070b565b600054610100900460ff16612d605760405162461bcd60e51b815260040161070b90613720565b6065805460ff19169055565b600054610100900460ff16612d935760405162461bcd60e51b815260040161070b90613720565b60018055565b6060612da88484600085612db0565b949350505050565b606082471015612e115760405162461bcd60e51b815260206004820152602660248201527f416464726573733a20696e73756666696369656e742062616c616e636520666f6044820152651c8818d85b1b60d21b606482015260840161070b565b6001600160a01b0385163b612e685760405162461bcd60e51b815260206004820152601d60248201527f416464726573733a2063616c6c20746f206e6f6e2d636f6e7472616374000000604482015260640161070b565b600080866001600160a01b03168587604051612e84919061376b565b60006040518083038185875af1925050503d8060008114612ec1576040519150601f19603f3d011682016040523d82523d6000602084013e612ec6565b606091505b5091509150612ed6828286612ee1565b979650505050505050565b60608315612ef0575081612c60565b825115612f005782518084602001fd5b8160405162461bcd60e51b815260040161070b9190613787565b508054612f269061336c565b6000825580601f10612f36575050565b601f016020900490600052602060002090810190610f8691905b80821115612f645760008155600101612f50565b5090565b600060208284031215612f7a57600080fd5b5035919050565b8015158114610f8657600080fd5b600060208284031215612fa157600080fd5b8135612c6081612f81565b600060e08284031215612fbe57600080fd5b50919050565b600060608284031215612fbe57600080fd5b60008060408385031215612fe957600080fd5b82359150602083013567ffffffffffffffff81111561300757600080fd5b61301385828601612fc4565b9150509250929050565b60005b83811015613038578181015183820152602001613020565b8381111561198a5750506000910152565b6000815180845261306181602086016020860161301d565b601f01601f19169290920160200192915050565b6060815260006130886060830186613049565b61ffff949094166020830152506001600160a01b0391909116604090910152919050565b6001600160a01b0381168114610f8657600080fd5b6000602082840312156130d357600080fd5b8135612c60816130ac565b600080604083850312156130f157600080fd5b82356130fc816130ac565b946020939093013593505050565b60008060006060848603121561311f57600080fd5b833561312a816130ac565b9250602084013561313a816130ac565b9150604084013561314a816130ac565b809150509250925092565b60006020828403121561316757600080fd5b813567ffffffffffffffff81111561317e57600080fd5b6116d184828501612fc4565b6000806040838503121561319d57600080fd5b82356131a8816130ac565b915060208301356131b8816130ac565b809150509250929050565b634e487b7160e01b600052603260045260246000fd5b634e487b7160e01b600052601160045260246000fd5b6000816000190483118215151615613209576132096131d9565b500290565b60008261322b57634e487b7160e01b600052601260045260246000fd5b500490565b60008219821115613243576132436131d9565b500190565b600060001982141561325c5761325c6131d9565b5060010190565b60208082526010908201526f14185d5cd8589b194e881c185d5cd95960821b604082015260600190565b60006020828403121561329f57600080fd5b5051919050565b6020808252600c908201526b15539055551213d49256915160a21b604082015260600190565b81356132d781612f81565b815460ff191660ff82151516178255506020820135600182015560408201356002820155606082013561330981612f81565b60038201805460ff191660ff83151516179055506080820135600482015560a0820135600582015560c082013560068201555050565b61ffff81168114610f8657600080fd5b60006020828403121561336157600080fd5b8135612c608161333f565b600181811c9082168061338057607f821691505b60208210811415612fbe57634e487b7160e01b600052602260045260246000fd5b601f821115610a0657600081815260208120601f850160051c810160208610156133c85750805b601f850160051c820191505b81811015611a44578281556001016133d4565b600081356116d58161333f565b600081356116d5816130ac565b8135601e1983360301811261341557600080fd5b8201803567ffffffffffffffff81111561342e57600080fd5b6020813603818401131561344157600080fd5b6134558261344f865461336c565b866133a1565b6000601f83116001811461348b576000841561347357508482018301355b600019600386901b1c1916600185901b1786556134e8565b600086815260209020601f19851690835b828110156134bd57878501860135825593850193600190910190850161349c565b50858210156134dc5760001960f88760031b161c198585890101351681555b505060018460011b0186555b50506001840192506135116134fe8287016133e7565b845461ffff191661ffff91909116178455565b5050610a06613522604085016133f4565b82805462010000600160b01b03191660109290921b62010000600160b01b0316919091179055565b60208082526021908201527f546f74616c2066656520726174652067726561746572207468616e20313030256040820152601760f91b606082015260800190565b6020808252601f908201527f5265656e7472616e637947756172643a207265656e7472616e742063616c6c00604082015260600190565b6001600160a01b03929092168252602082015260400190565b604051610120810167ffffffffffffffff8111828210171561360d57634e487b7160e01b600052604160045260246000fd5b60405290565b8051612b9c81612f81565b6000610120828403121561363157600080fd5b6136396135db565b825181526020830151602082015260408301516040820152606083015160608201526080830151608082015260a083015160a082015260c083015160c082015261368560e08401613613565b60e0820152610100928301519281019290925250919050565b6000828210156136b0576136b06131d9565b500390565b6000602082840312156136c757600080fd5b8151612c6081612f81565b6020808252602e908201527f496e697469616c697a61626c653a20636f6e747261637420697320616c72656160408201526d191e481a5b9a5d1a585b1a5e995960921b606082015260800190565b6020808252602b908201527f496e697469616c697a61626c653a20636f6e7472616374206973206e6f74206960408201526a6e697469616c697a696e6760a81b606082015260800190565b6000825161377d81846020870161301d565b9190910192915050565b602081526000612c60602083018461304956fea2646970667358221220c8a675bb48eea21cd03e6b056f593f6aa2e319cdf5237a5b981dcb17f17c13a364736f6c63430008090033",
  "devdoc": {
    "kind": "dev",
    "methods": {
      "convert(uint256)": {
        "details": "convert underlying token to bond token to current user",
        "params": {
          "amount_": "amount of underlying token to convert"
        }
      },
      "convertAndStake(uint256)": {
        "details": "convert underlying token to bond token and stake to bondFarmingPool for current user"
      },
      "emergencyTransferUnderlyingTokens(address)": {
        "details": "emergency transfer underlying token for security issue or bug encounted."
      },
      "extendPancakeLockDuration(bool)": {
        "details": "extend pancake lock duration if needs",
        "params": {
          "force_": "force extend even it's unnecessary"
        }
      },
      "mintBondTokenForRewards(address,uint256)": {
        "details": "mint bond token for rewards and allocate fees."
      },
      "pancakeUserInfo()": {
        "details": "calculate cake amount from pancake."
      },
      "pause()": {
        "details": "Only possible when contract not paused."
      },
      "paused()": {
        "details": "Returns true if the contract is paused, and false otherwise."
      },
      "redeem(uint256)": {
        "details": "Redeem specific amount of my bond tokens.",
        "params": {
          "amount_": "amount to redeem"
        }
      },
      "redeemAll()": {
        "details": "Redeem all my bond tokens to underlying tokens."
      },
      "remoteUnderlyingAmount()": {
        "details": "calculate cake amount from pancake."
      },
      "secondsToPancakeLockExtend(bool)": {
        "details": "calculate lock extend seconds",
        "params": {
          "deposit_": "whether use as deposit param."
        }
      },
      "totalPendingRewards()": {
        "details": "Total pending rewards for bond. May be negative in some unexpected circumstances,      such as remote underlying amount has unexpectedly decreased makes bond token over issued."
      },
      "unpause()": {
        "details": "Only possible when contract is paused."
      },
      "updateCheckPoints((bool,uint256,uint256,bool,uint256,uint256,uint256))": {
        "details": "update checkPoints",
        "params": {
          "checkPoints_": "new checkpoints"
        }
      },
      "withdrawAllCakesFromPancake(bool)": {
        "details": "Withdraw cake from cake pool."
      }
    },
    "version": 1
  },
  "userdoc": {
    "events": {
      "Converted(uint256,address)": {
        "notice": "Emitted when someone convert underlying token to the bond."
      }
    },
    "kind": "user",
    "methods": {
      "addFeeSpec((string,uint16,address))": {
        "notice": "add fee specification"
      },
      "bondToken()": {
        "notice": "Bond token contract"
      },
      "cakePool()": {
        "notice": "CakePool contract"
      },
      "feeSpecs(uint256)": {
        "notice": "Fee specifications"
      },
      "pause()": {
        "notice": "Trigger stopped state"
      },
      "setFeeSpec(uint256,(string,uint16,address))": {
        "notice": "update fee specification"
      },
      "totalBondTokenAmount()": {
        "notice": "Bond token total amount."
      },
      "totalUnderlyingAmount()": {
        "notice": "total underlying token amount, including hold in current contract and remote"
      },
      "underlyingAmount()": {
        "notice": "Underlying token amount that hold in current contract."
      },
      "underlyingToken()": {
        "notice": "Bond underlying asset"
      },
      "unpause()": {
        "notice": "Return to normal state"
      }
    },
    "version": 1
  },
  "storageLayout": {
    "storage": [
      {
        "astId": 6,
        "contract": "contracts/underlyings/pancake/ExtendableBondedCake.sol:ExtendableBondedCake",
        "label": "_initialized",
        "offset": 0,
        "slot": "0",
        "type": "t_uint8"
      },
      {
        "astId": 9,
        "contract": "contracts/underlyings/pancake/ExtendableBondedCake.sol:ExtendableBondedCake",
        "label": "_initializing",
        "offset": 1,
        "slot": "0",
        "type": "t_bool"
      },
      {
        "astId": 266,
        "contract": "contracts/underlyings/pancake/ExtendableBondedCake.sol:ExtendableBondedCake",
        "label": "_status",
        "offset": 0,
        "slot": "1",
        "type": "t_uint256"
      },
      {
        "astId": 310,
        "contract": "contracts/underlyings/pancake/ExtendableBondedCake.sol:ExtendableBondedCake",
        "label": "__gap",
        "offset": 0,
        "slot": "2",
        "type": "t_array(t_uint256)49_storage"
      },
      {
        "astId": 897,
        "contract": "contracts/underlyings/pancake/ExtendableBondedCake.sol:ExtendableBondedCake",
        "label": "__gap",
        "offset": 0,
        "slot": "51",
        "type": "t_array(t_uint256)50_storage"
      },
      {
        "astId": 162,
        "contract": "contracts/underlyings/pancake/ExtendableBondedCake.sol:ExtendableBondedCake",
        "label": "_paused",
        "offset": 0,
        "slot": "101",
        "type": "t_bool"
      },
      {
        "astId": 251,
        "contract": "contracts/underlyings/pancake/ExtendableBondedCake.sol:ExtendableBondedCake",
        "label": "__gap",
        "offset": 0,
        "slot": "102",
        "type": "t_array(t_uint256)49_storage"
      },
      {
        "astId": 7810,
        "contract": "contracts/underlyings/pancake/ExtendableBondedCake.sol:ExtendableBondedCake",
        "label": "admin",
        "offset": 0,
        "slot": "151",
        "type": "t_address"
      },
      {
        "astId": 8046,
        "contract": "contracts/underlyings/pancake/ExtendableBondedCake.sol:ExtendableBondedCake",
        "label": "keeper",
        "offset": 0,
        "slot": "152",
        "type": "t_address"
      },
      {
        "astId": 4762,
        "contract": "contracts/underlyings/pancake/ExtendableBondedCake.sol:ExtendableBondedCake",
        "label": "bondToken",
        "offset": 0,
        "slot": "153",
        "type": "t_contract(IBondTokenUpgradeable)7655"
      },
      {
        "astId": 4766,
        "contract": "contracts/underlyings/pancake/ExtendableBondedCake.sol:ExtendableBondedCake",
        "label": "underlyingToken",
        "offset": 0,
        "slot": "154",
        "type": "t_contract(IERC20Upgradeable)389"
      },
      {
        "astId": 4773,
        "contract": "contracts/underlyings/pancake/ExtendableBondedCake.sol:ExtendableBondedCake",
        "label": "bondFarmingPool",
        "offset": 0,
        "slot": "155",
        "type": "t_contract(IBondFarmingPool)7635"
      },
      {
        "astId": 4776,
        "contract": "contracts/underlyings/pancake/ExtendableBondedCake.sol:ExtendableBondedCake",
        "label": "bondLPFarmingPool",
        "offset": 0,
        "slot": "156",
        "type": "t_contract(IBondFarmingPool)7635"
      },
      {
        "astId": 4801,
        "contract": "contracts/underlyings/pancake/ExtendableBondedCake.sol:ExtendableBondedCake",
        "label": "feeSpecs",
        "offset": 0,
        "slot": "157",
        "type": "t_array(t_struct(FeeSpec)4796_storage)dyn_storage"
      },
      {
        "astId": 4819,
        "contract": "contracts/underlyings/pancake/ExtendableBondedCake.sol:ExtendableBondedCake",
        "label": "checkPoints",
        "offset": 0,
        "slot": "158",
        "type": "t_struct(CheckPoints)4816_storage"
      },
      {
        "astId": 16847,
        "contract": "contracts/underlyings/pancake/ExtendableBondedCake.sol:ExtendableBondedCake",
        "label": "cakePool",
        "offset": 0,
        "slot": "165",
        "type": "t_contract(ICakePool)7752"
      }
    ],
    "types": {
      "t_address": {
        "encoding": "inplace",
        "label": "address",
        "numberOfBytes": "20"
      },
      "t_array(t_struct(FeeSpec)4796_storage)dyn_storage": {
        "base": "t_struct(FeeSpec)4796_storage",
        "encoding": "dynamic_array",
        "label": "struct ExtendableBond.FeeSpec[]",
        "numberOfBytes": "32"
      },
      "t_array(t_uint256)49_storage": {
        "base": "t_uint256",
        "encoding": "inplace",
        "label": "uint256[49]",
        "numberOfBytes": "1568"
      },
      "t_array(t_uint256)50_storage": {
        "base": "t_uint256",
        "encoding": "inplace",
        "label": "uint256[50]",
        "numberOfBytes": "1600"
      },
      "t_bool": {
        "encoding": "inplace",
        "label": "bool",
        "numberOfBytes": "1"
      },
      "t_contract(IBondFarmingPool)7635": {
        "encoding": "inplace",
        "label": "contract IBondFarmingPool",
        "numberOfBytes": "20"
      },
      "t_contract(IBondTokenUpgradeable)7655": {
        "encoding": "inplace",
        "label": "contract IBondTokenUpgradeable",
        "numberOfBytes": "20"
      },
      "t_contract(ICakePool)7752": {
        "encoding": "inplace",
        "label": "contract ICakePool",
        "numberOfBytes": "20"
      },
      "t_contract(IERC20Upgradeable)389": {
        "encoding": "inplace",
        "label": "contract IERC20Upgradeable",
        "numberOfBytes": "20"
      },
      "t_string_storage": {
        "encoding": "bytes",
        "label": "string",
        "numberOfBytes": "32"
      },
      "t_struct(CheckPoints)4816_storage": {
        "encoding": "inplace",
        "label": "struct ExtendableBond.CheckPoints",
        "members": [
          {
            "astId": 4803,
            "contract": "contracts/underlyings/pancake/ExtendableBondedCake.sol:ExtendableBondedCake",
            "label": "convertable",
            "offset": 0,
            "slot": "0",
            "type": "t_bool"
          },
          {
            "astId": 4805,
            "contract": "contracts/underlyings/pancake/ExtendableBondedCake.sol:ExtendableBondedCake",
            "label": "convertableFrom",
            "offset": 0,
            "slot": "1",
            "type": "t_uint256"
          },
          {
            "astId": 4807,
            "contract": "contracts/underlyings/pancake/ExtendableBondedCake.sol:ExtendableBondedCake",
            "label": "convertableEnd",
            "offset": 0,
            "slot": "2",
            "type": "t_uint256"
          },
          {
            "astId": 4809,
            "contract": "contracts/underlyings/pancake/ExtendableBondedCake.sol:ExtendableBondedCake",
            "label": "redeemable",
            "offset": 0,
            "slot": "3",
            "type": "t_bool"
          },
          {
            "astId": 4811,
            "contract": "contracts/underlyings/pancake/ExtendableBondedCake.sol:ExtendableBondedCake",
            "label": "redeemableFrom",
            "offset": 0,
            "slot": "4",
            "type": "t_uint256"
          },
          {
            "astId": 4813,
            "contract": "contracts/underlyings/pancake/ExtendableBondedCake.sol:ExtendableBondedCake",
            "label": "redeemableEnd",
            "offset": 0,
            "slot": "5",
            "type": "t_uint256"
          },
          {
            "astId": 4815,
            "contract": "contracts/underlyings/pancake/ExtendableBondedCake.sol:ExtendableBondedCake",
            "label": "maturity",
            "offset": 0,
            "slot": "6",
            "type": "t_uint256"
          }
        ],
        "numberOfBytes": "224"
      },
      "t_struct(FeeSpec)4796_storage": {
        "encoding": "inplace",
        "label": "struct ExtendableBond.FeeSpec",
        "members": [
          {
            "astId": 4791,
            "contract": "contracts/underlyings/pancake/ExtendableBondedCake.sol:ExtendableBondedCake",
            "label": "desc",
            "offset": 0,
            "slot": "0",
            "type": "t_string_storage"
          },
          {
            "astId": 4793,
            "contract": "contracts/underlyings/pancake/ExtendableBondedCake.sol:ExtendableBondedCake",
            "label": "rate",
            "offset": 0,
            "slot": "1",
            "type": "t_uint16"
          },
          {
            "astId": 4795,
            "contract": "contracts/underlyings/pancake/ExtendableBondedCake.sol:ExtendableBondedCake",
            "label": "receiver",
            "offset": 2,
            "slot": "1",
            "type": "t_address"
          }
        ],
        "numberOfBytes": "64"
      },
      "t_uint16": {
        "encoding": "inplace",
        "label": "uint16",
        "numberOfBytes": "2"
      },
      "t_uint256": {
        "encoding": "inplace",
        "label": "uint256",
        "numberOfBytes": "32"
      },
      "t_uint8": {
        "encoding": "inplace",
        "label": "uint8",
        "numberOfBytes": "1"
      }
    }
  }
}