{
  "address": "0x75F5423c2c524Ee6Cf216A78A509E9093B049915",
  "abi": [
    {
      "inputs": [
        {
          "internalType": "address",
          "name": "admin_",
          "type": "address"
        }
      ],
      "stateMutability": "nonpayable",
      "type": "constructor"
    },
    {
      "anonymous": false,
      "inputs": [
        {
          "indexed": true,
          "internalType": "address",
          "name": "user",
          "type": "address"
        },
        {
          "indexed": true,
          "internalType": "address",
          "name": "newAdmin",
          "type": "address"
        }
      ],
      "name": "AdminUpdated",
      "type": "event"
    },
    {
      "inputs": [],
      "name": "admin",
      "outputs": [
        {
          "internalType": "address",
          "name": "",
          "type": "address"
        }
      ],
      "stateMutability": "view",
      "type": "function"
    },
    {
      "inputs": [
        {
          "internalType": "string",
          "name": "groupName_",
          "type": "string"
        },
        {
          "internalType": "address",
          "name": "itemAddress_",
          "type": "address"
        }
      ],
      "name": "appendGroupItem",
      "outputs": [],
      "stateMutability": "nonpayable",
      "type": "function"
    },
    {
      "inputs": [
        {
          "internalType": "string",
          "name": "groupName_",
          "type": "string"
        }
      ],
      "name": "createGroup",
      "outputs": [],
      "stateMutability": "nonpayable",
      "type": "function"
    },
    {
      "inputs": [
        {
          "internalType": "string",
          "name": "groupName_",
          "type": "string"
        }
      ],
      "name": "destroyGroup",
      "outputs": [],
      "stateMutability": "nonpayable",
      "type": "function"
    },
    {
      "inputs": [],
      "name": "groupNames",
      "outputs": [
        {
          "internalType": "string[]",
          "name": "",
          "type": "string[]"
        }
      ],
      "stateMutability": "view",
      "type": "function"
    },
    {
      "inputs": [
        {
          "internalType": "string",
          "name": "groupName_",
          "type": "string"
        }
      ],
      "name": "groupedAddresses",
      "outputs": [
        {
          "internalType": "address[]",
          "name": "",
          "type": "address[]"
        }
      ],
      "stateMutability": "view",
      "type": "function"
    },
    {
      "inputs": [
        {
          "internalType": "string",
          "name": "groupName_",
          "type": "string"
        },
        {
          "internalType": "address",
          "name": "itemAddress_",
          "type": "address"
        }
      ],
      "name": "removeGroupItem",
      "outputs": [],
      "stateMutability": "nonpayable",
      "type": "function"
    },
    {
      "inputs": [
        {
          "internalType": "address",
          "name": "newAdmin",
          "type": "address"
        }
      ],
      "name": "setAdmin",
      "outputs": [],
      "stateMutability": "nonpayable",
      "type": "function"
    }
  ],
  "transactionHash": "0x11b5c3a113f77613249c23558f3dcb1c78df3ffe87f18f29abd7358719a060c3",
  "args": [
    "0xe7a2b8C8feD53713F69227e6c3d2384E80CF88a6"
  ],
  "numDeployments": 2,
  "solcInputHash": "97a1800c00e4b4e230f9553b7cb0b317",
  "bytecode": "0x608060405234801561001057600080fd5b5060405161121038038061121083398101604081905261002f91610144565b6001600160a01b03811661008a5760405162461bcd60e51b815260206004820152601e60248201527f43616e74207365742061646d696e20746f207a65726f2061646472657373000060448201526064015b60405180910390fd5b61009333610099565b50610174565b6001600160a01b0381166100f95760405162461bcd60e51b815260206004820152602160248201527f43616e206e6f74207365742061646d696e20746f207a65726f206164647265736044820152607360f81b6064820152608401610081565b600080546001600160a01b0319166001600160a01b0383169081178255604051909133917f101b8081ff3b56bbf45deb824d86a3b0fd38b7e3dd42421105cf8abe9106db0b9190a350565b60006020828403121561015657600080fd5b81516001600160a01b038116811461016d57600080fd5b9392505050565b61108d806101836000396000f3fe608060405234801561001057600080fd5b50600436106100885760003560e01c8063dc2ddcae1161005b578063dc2ddcae146100e6578063e0ea7b31146100f9578063ec41f7a114610119578063f851a4401461012c57600080fd5b806331a937001461008d578063704b6c02146100a257806392f7dac1146100b5578063bb8016dd146100d3575b600080fd5b6100a061009b366004610cd3565b610157565b005b6100a06100b0366004610d31565b610306565b6100bd61033c565b6040516100ca9190610d53565b60405180910390f35b6100a06100e1366004610dee565b610415565b6100a06100f4366004610cd3565b61064d565b61010c610107366004610cd3565b6107c1565b6040516100ca9190610e42565b6100a0610127366004610dee565b61083e565b60005461013f906001600160a01b031681565b6040516001600160a01b0390911681526020016100ca565b6000546001600160a01b0316331461018a5760405162461bcd60e51b815260040161018190610e8f565b60405180910390fd5b60001960005b6001548110156102265783836040516020016101ad929190610eb5565b60405160208183030381529060405280519060200120600182815481106101d6576101d6610ec5565b906000526020600020016040516020016101f09190610f16565b60405160208183030381529060405280519060200120141561021457809150610226565b8061021e81610fc8565b915050610190565b5060008112156102485760405162461bcd60e51b815260040161018190610fe3565b60018054610257908290611013565b8154811061026757610267610ec5565b906000526020600020016001828154811061028457610284610ec5565b9060005260206000200190805461029a90610edb565b6102a5929190610ac9565b5060018054806102b7576102b761102a565b6001900381819060005260206000200160006102d39190610b54565b9055600283836040516102e7929190610eb5565b908152602001604051809103902060006103019190610b8e565b505050565b6000546001600160a01b031633146103305760405162461bcd60e51b815260040161018190610e8f565b61033981610a1e565b50565b60606001805480602002602001604051908101604052809291908181526020016000905b8282101561040c57838290600052602060002001805461037f90610edb565b80601f01602080910402602001604051908101604052809291908181526020018280546103ab90610edb565b80156103f85780601f106103cd576101008083540402835291602001916103f8565b820191906000526020600020905b8154815290600101906020018083116103db57829003601f168201915b505050505081526020019060010190610360565b50505050905090565b6000546001600160a01b0316331461043f5760405162461bcd60e51b815260040161018190610e8f565b82826000805b6001548110156104dc578383604051602001610462929190610eb5565b604051602081830303815290604052805190602001206001828154811061048b5761048b610ec5565b906000526020600020016040516020016104a59190610f16565b6040516020818303038152906040528051906020012014156104ca57600191506104dc565b806104d481610fc8565b915050610445565b50806104fa5760405162461bcd60e51b815260040161018190610fe3565b60006002878760405161050e929190610eb5565b908152604051908190036020019020805490915061052c5750610645565b805460009061053d90600190611013565b90505b856001600160a01b031682828154811061055c5761055c610ec5565b6000918252602090912001546001600160a01b03161461057b57610630565b8154829061058b90600190611013565b8154811061059b5761059b610ec5565b9060005260206000200160009054906101000a90046001600160a01b03168282815481106105cb576105cb610ec5565b9060005260206000200160006101000a8154816001600160a01b0302191690836001600160a01b03160217905550818054806106095761060961102a565b600082815260209020810160001990810180546001600160a01b0319169055019055610642565b8061063a81611040565b915050610540565b50505b505050505050565b6000546001600160a01b031633146106775760405162461bcd60e51b815260040161018190610e8f565b60005b600154811015610747578282604051602001610697929190610eb5565b60405160208183030381529060405280519060200120600182815481106106c0576106c0610ec5565b906000526020600020016040516020016106da9190610f16565b6040516020818303038152906040528051906020012014156107355760405162461bcd60e51b81526020600482015260146024820152734475706c69636174652067726f7570206e616d6560601b6044820152606401610181565b8061073f81610fc8565b91505061067a565b506060806002848460405161075d929190610eb5565b9081526020016040518091039020908051906020019061077e929190610bac565b506001805480820182556000919091526107bb907fb10e2d527612073b26eecdfd717e6a320cf44b4afac2b0732d9fcbe2b7fa0cf6018484610c01565b50505050565b6060600283836040516107d5929190610eb5565b908152604080519182900360209081018320805480830285018301909352828452919083018282801561083157602002820191906000526020600020905b81546001600160a01b03168152600190910190602001808311610813575b5050505050905092915050565b6000546001600160a01b031633146108685760405162461bcd60e51b815260040161018190610e8f565b82826000805b60015481101561090557838360405160200161088b929190610eb5565b60405160208183030381529060405280519060200120600182815481106108b4576108b4610ec5565b906000526020600020016040516020016108ce9190610f16565b6040516020818303038152906040528051906020012014156108f35760019150610905565b806108fd81610fc8565b91505061086e565b50806109235760405162461bcd60e51b815260040161018190610fe3565b600060028787604051610937929190610eb5565b9081526020016040518091039020905060005b81548110156109e457856001600160a01b031682828154811061096f5761096f610ec5565b6000918252602090912001546001600160a01b031614156109d25760405162461bcd60e51b815260206004820152601a60248201527f4475706c6963617465206164647265737320696e2067726f75700000000000006044820152606401610181565b806109dc81610fc8565b91505061094a565b508054600181018255600091825260209091200180546001600160a01b0319166001600160a01b0395909516949094179093555050505050565b6001600160a01b038116610a7e5760405162461bcd60e51b815260206004820152602160248201527f43616e206e6f74207365742061646d696e20746f207a65726f206164647265736044820152607360f81b6064820152608401610181565b600080546001600160a01b0319166001600160a01b0383169081178255604051909133917f101b8081ff3b56bbf45deb824d86a3b0fd38b7e3dd42421105cf8abe9106db0b9190a350565b828054610ad590610edb565b90600052602060002090601f016020900481019282610af75760008555610b44565b82601f10610b085780548555610b44565b82800160010185558215610b4457600052602060002091601f016020900482015b82811115610b44578254825591600101919060010190610b29565b50610b50929150610c75565b5090565b508054610b6090610edb565b6000825580601f10610b70575050565b601f0160209004906000526020600020908101906103399190610c75565b50805460008255906000526020600020908101906103399190610c75565b828054828255906000526020600020908101928215610b44579160200282015b82811115610b4457825182546001600160a01b0319166001600160a01b03909116178255602090920191600190910190610bcc565b828054610c0d90610edb565b90600052602060002090601f016020900481019282610c2f5760008555610b44565b82601f10610c485782800160ff19823516178555610b44565b82800160010185558215610b44579182015b82811115610b44578235825591602001919060010190610c5a565b5b80821115610b505760008155600101610c76565b60008083601f840112610c9c57600080fd5b50813567ffffffffffffffff811115610cb457600080fd5b602083019150836020828501011115610ccc57600080fd5b9250929050565b60008060208385031215610ce657600080fd5b823567ffffffffffffffff811115610cfd57600080fd5b610d0985828601610c8a565b90969095509350505050565b80356001600160a01b0381168114610d2c57600080fd5b919050565b600060208284031215610d4357600080fd5b610d4c82610d15565b9392505050565b6000602080830181845280855180835260408601915060408160051b87010192508387016000805b83811015610de057888603603f1901855282518051808852835b81811015610db0578281018a01518982018b01528901610d95565b81811115610dc057848a838b0101525b50601f01601f191696909601870195509386019391860191600101610d7b565b509398975050505050505050565b600080600060408486031215610e0357600080fd5b833567ffffffffffffffff811115610e1a57600080fd5b610e2686828701610c8a565b9094509250610e39905060208501610d15565b90509250925092565b6020808252825182820181905260009190848201906040850190845b81811015610e835783516001600160a01b031683529284019291840191600101610e5e565b50909695505050505050565b6020808252600c908201526b15539055551213d49256915160a21b604082015260600190565b8183823760009101908152919050565b634e487b7160e01b600052603260045260246000fd5b600181811c90821680610eef57607f821691505b60208210811415610f1057634e487b7160e01b600052602260045260246000fd5b50919050565b600080835481600182811c915080831680610f3257607f831692505b6020808410821415610f5257634e487b7160e01b86526022600452602486fd5b818015610f665760018114610f7757610fa4565b60ff19861689528489019650610fa4565b60008a81526020902060005b86811015610f9c5781548b820152908501908301610f83565b505084890196505b509498975050505050505050565b634e487b7160e01b600052601160045260246000fd5b6000600019821415610fdc57610fdc610fb2565b5060010190565b602080825260169082015275556e7265676973747265642067726f7570206e616d6560501b604082015260600190565b60008282101561102557611025610fb2565b500390565b634e487b7160e01b600052603160045260246000fd5b60008161104f5761104f610fb2565b50600019019056fea2646970667358221220010e08e8b61dde850db25400f78c290efa6e9c9b407061e5ed2c5c6931be955c64736f6c63430008090033",
  "devdoc": {
    "kind": "dev",
    "methods": {},
    "version": 1
  },
  "userdoc": {
    "kind": "user",
    "methods": {},
    "version": 1
  },
  "storageLayout": {
    "storage": [
      {
        "astId": 9203,
        "contract": "contracts/ExtendableBondAdmin.sol:ExtendableBondAdmin",
        "label": "admin",
        "offset": 0,
        "slot": "0",
        "type": "t_address"
      },
      {
        "astId": 5884,
        "contract": "contracts/ExtendableBondAdmin.sol:ExtendableBondAdmin",
        "label": "groups",
        "offset": 0,
        "slot": "1",
        "type": "t_array(t_string_storage)dyn_storage"
      },
      {
        "astId": 5889,
        "contract": "contracts/ExtendableBondAdmin.sol:ExtendableBondAdmin",
        "label": "groupedExtendableBonds",
        "offset": 0,
        "slot": "2",
        "type": "t_mapping(t_string_memory_ptr,t_array(t_address)dyn_storage)"
      }
    ],
    "types": {
      "t_address": {
        "encoding": "inplace",
        "label": "address",
        "numberOfBytes": "20"
      },
      "t_array(t_address)dyn_storage": {
        "base": "t_address",
        "encoding": "dynamic_array",
        "label": "address[]",
        "numberOfBytes": "32"
      },
      "t_array(t_string_storage)dyn_storage": {
        "base": "t_string_storage",
        "encoding": "dynamic_array",
        "label": "string[]",
        "numberOfBytes": "32"
      },
      "t_mapping(t_string_memory_ptr,t_array(t_address)dyn_storage)": {
        "encoding": "mapping",
        "key": "t_string_memory_ptr",
        "label": "mapping(string => address[])",
        "numberOfBytes": "32",
        "value": "t_array(t_address)dyn_storage"
      },
      "t_string_memory_ptr": {
        "encoding": "bytes",
        "label": "string",
        "numberOfBytes": "32"
      },
      "t_string_storage": {
        "encoding": "bytes",
        "label": "string",
        "numberOfBytes": "32"
      }
    }
  }
}