{
  "address": "0x533E407662bf70d5D25955BfD0302D81Ab780FC9",
  "abi": [
    {
      "inputs": [
        {
          "internalType": "string",
          "name": "name",
          "type": "string"
        },
        {
          "internalType": "string",
          "name": "symbol",
          "type": "string"
        },
        {
          "internalType": "uint256",
          "name": "supply",
          "type": "uint256"
        }
      ],
      "stateMutability": "nonpayable",
      "type": "constructor"
    },
    {
      "anonymous": false,
      "inputs": [
        {
          "indexed": true,
          "internalType": "address",
          "name": "owner",
          "type": "address"
        },
        {
          "indexed": true,
          "internalType": "address",
          "name": "spender",
          "type": "address"
        },
        {
          "indexed": false,
          "internalType": "uint256",
          "name": "value",
          "type": "uint256"
        }
      ],
      "name": "Approval",
      "type": "event"
    },
    {
      "anonymous": false,
      "inputs": [
        {
          "indexed": true,
          "internalType": "address",
          "name": "previousOwner",
          "type": "address"
        },
        {
          "indexed": true,
          "internalType": "address",
          "name": "newOwner",
          "type": "address"
        }
      ],
      "name": "OwnershipTransferred",
      "type": "event"
    },
    {
      "anonymous": false,
      "inputs": [
        {
          "indexed": true,
          "internalType": "address",
          "name": "from",
          "type": "address"
        },
        {
          "indexed": true,
          "internalType": "address",
          "name": "to",
          "type": "address"
        },
        {
          "indexed": false,
          "internalType": "uint256",
          "name": "value",
          "type": "uint256"
        }
      ],
      "name": "Transfer",
      "type": "event"
    },
    {
      "inputs": [
        {
          "internalType": "address",
          "name": "owner",
          "type": "address"
        },
        {
          "internalType": "address",
          "name": "spender",
          "type": "address"
        }
      ],
      "name": "allowance",
      "outputs": [
        {
          "internalType": "uint256",
          "name": "",
          "type": "uint256"
        }
      ],
      "stateMutability": "view",
      "type": "function"
    },
    {
      "inputs": [
        {
          "internalType": "address",
          "name": "spender",
          "type": "address"
        },
        {
          "internalType": "uint256",
          "name": "amount",
          "type": "uint256"
        }
      ],
      "name": "approve",
      "outputs": [
        {
          "internalType": "bool",
          "name": "",
          "type": "bool"
        }
      ],
      "stateMutability": "nonpayable",
      "type": "function"
    },
    {
      "inputs": [
        {
          "internalType": "address",
          "name": "account",
          "type": "address"
        }
      ],
      "name": "balanceOf",
      "outputs": [
        {
          "internalType": "uint256",
          "name": "",
          "type": "uint256"
        }
      ],
      "stateMutability": "view",
      "type": "function"
    },
    {
      "inputs": [],
      "name": "decimals",
      "outputs": [
        {
          "internalType": "uint8",
          "name": "",
          "type": "uint8"
        }
      ],
      "stateMutability": "view",
      "type": "function"
    },
    {
      "inputs": [
        {
          "internalType": "address",
          "name": "spender",
          "type": "address"
        },
        {
          "internalType": "uint256",
          "name": "subtractedValue",
          "type": "uint256"
        }
      ],
      "name": "decreaseAllowance",
      "outputs": [
        {
          "internalType": "bool",
          "name": "",
          "type": "bool"
        }
      ],
      "stateMutability": "nonpayable",
      "type": "function"
    },
    {
      "inputs": [],
      "name": "getOwner",
      "outputs": [
        {
          "internalType": "address",
          "name": "",
          "type": "address"
        }
      ],
      "stateMutability": "view",
      "type": "function"
    },
    {
      "inputs": [
        {
          "internalType": "address",
          "name": "spender",
          "type": "address"
        },
        {
          "internalType": "uint256",
          "name": "addedValue",
          "type": "uint256"
        }
      ],
      "name": "increaseAllowance",
      "outputs": [
        {
          "internalType": "bool",
          "name": "",
          "type": "bool"
        }
      ],
      "stateMutability": "nonpayable",
      "type": "function"
    },
    {
      "inputs": [
        {
          "internalType": "address",
          "name": "to_",
          "type": "address"
        },
        {
          "internalType": "uint256",
          "name": "_amount",
          "type": "uint256"
        }
      ],
      "name": "mint",
      "outputs": [],
      "stateMutability": "nonpayable",
      "type": "function"
    },
    {
      "inputs": [
        {
          "internalType": "uint256",
          "name": "amount",
          "type": "uint256"
        }
      ],
      "name": "mint",
      "outputs": [
        {
          "internalType": "bool",
          "name": "",
          "type": "bool"
        }
      ],
      "stateMutability": "nonpayable",
      "type": "function"
    },
    {
      "inputs": [
        {
          "internalType": "uint256",
          "name": "_amount",
          "type": "uint256"
        }
      ],
      "name": "mintTokens",
      "outputs": [],
      "stateMutability": "nonpayable",
      "type": "function"
    },
    {
      "inputs": [],
      "name": "name",
      "outputs": [
        {
          "internalType": "string",
          "name": "",
          "type": "string"
        }
      ],
      "stateMutability": "view",
      "type": "function"
    },
    {
      "inputs": [],
      "name": "owner",
      "outputs": [
        {
          "internalType": "address",
          "name": "",
          "type": "address"
        }
      ],
      "stateMutability": "view",
      "type": "function"
    },
    {
      "inputs": [],
      "name": "renounceOwnership",
      "outputs": [],
      "stateMutability": "nonpayable",
      "type": "function"
    },
    {
      "inputs": [],
      "name": "symbol",
      "outputs": [
        {
          "internalType": "string",
          "name": "",
          "type": "string"
        }
      ],
      "stateMutability": "view",
      "type": "function"
    },
    {
      "inputs": [],
      "name": "totalSupply",
      "outputs": [
        {
          "internalType": "uint256",
          "name": "",
          "type": "uint256"
        }
      ],
      "stateMutability": "view",
      "type": "function"
    },
    {
      "inputs": [
        {
          "internalType": "address",
          "name": "recipient",
          "type": "address"
        },
        {
          "internalType": "uint256",
          "name": "amount",
          "type": "uint256"
        }
      ],
      "name": "transfer",
      "outputs": [
        {
          "internalType": "bool",
          "name": "",
          "type": "bool"
        }
      ],
      "stateMutability": "nonpayable",
      "type": "function"
    },
    {
      "inputs": [
        {
          "internalType": "address",
          "name": "sender",
          "type": "address"
        },
        {
          "internalType": "address",
          "name": "recipient",
          "type": "address"
        },
        {
          "internalType": "uint256",
          "name": "amount",
          "type": "uint256"
        }
      ],
      "name": "transferFrom",
      "outputs": [
        {
          "internalType": "bool",
          "name": "",
          "type": "bool"
        }
      ],
      "stateMutability": "nonpayable",
      "type": "function"
    },
    {
      "inputs": [
        {
          "internalType": "address",
          "name": "newOwner",
          "type": "address"
        }
      ],
      "name": "transferOwnership",
      "outputs": [],
      "stateMutability": "nonpayable",
      "type": "function"
    }
  ],
  "transactionHash": "0x875401f6ea31167f99f844504b264c3e04cc3388f808d1d5f54074cd5cbc1a12",
  "args": [
    "mock bDUET 0603",
    "bDUET-MOCK-0603",
    "1000000000000000000000000"
  ],
  "numDeployments": 2,
  "solcInputHash": "56108d1e80ac4df0de564c253faf07c8",
  "bytecode": "0x60806040523480156200001157600080fd5b506040516200109938038062001099833981016040819052620000349162000373565b8282620000413362000091565b81516200005690600490602085019062000200565b5080516200006c90600590602084019062000200565b50506006805460ff1916601217905550620000883382620000e1565b5050506200044a565b600080546001600160a01b038381166001600160a01b0319831681178455604051919092169283917f8be0079c531659141344cd1fd0a4f28419497f9722a3daafe3b4186f6b6457e09190a35050565b6001600160a01b0382166200013c5760405162461bcd60e51b815260206004820152601f60248201527f42455032303a206d696e7420746f20746865207a65726f206164647265737300604482015260640160405180910390fd5b6200015881600354620001eb60201b620005a71790919060201c565b6003556001600160a01b0382166000908152600160209081526040909120546200018d918390620005a7620001eb821b17901c565b6001600160a01b0383166000818152600160205260408082209390935591519091907fddf252ad1be2c89b69c2b068fc378daa952ba7f163c4a11628f55a4df523b3ef90620001df9085815260200190565b60405180910390a35050565b6000620001f98284620003e6565b9392505050565b8280546200020e906200040d565b90600052602060002090601f0160209004810192826200023257600085556200027d565b82601f106200024d57805160ff19168380011785556200027d565b828001600101855582156200027d579182015b828111156200027d57825182559160200191906001019062000260565b506200028b9291506200028f565b5090565b5b808211156200028b576000815560010162000290565b634e487b7160e01b600052604160045260246000fd5b600082601f830112620002ce57600080fd5b81516001600160401b0380821115620002eb57620002eb620002a6565b604051601f8301601f19908116603f01168101908282118183101715620003165762000316620002a6565b816040528381526020925086838588010111156200033357600080fd5b600091505b8382101562000357578582018301518183018401529082019062000338565b83821115620003695760008385830101525b9695505050505050565b6000806000606084860312156200038957600080fd5b83516001600160401b0380821115620003a157600080fd5b620003af87838801620002bc565b94506020860151915080821115620003c657600080fd5b50620003d586828701620002bc565b925050604084015190509250925092565b600082198211156200040857634e487b7160e01b600052601160045260246000fd5b500190565b600181811c908216806200042257607f821691505b602082108114156200044457634e487b7160e01b600052602260045260246000fd5b50919050565b610c3f806200045a6000396000f3fe608060405234801561001057600080fd5b50600436106101165760003560e01c8063893d20e8116100a2578063a0712d6811610071578063a0712d6814610240578063a457c2d714610253578063a9059cbb14610266578063dd62ed3e14610279578063f2fde38b146102b257600080fd5b8063893d20e8146101ef5780638da5cb5b1461021457806395d89b411461022557806397304ced1461022d57600080fd5b8063313ce567116100e9578063313ce56714610181578063395093511461019657806340c10f19146101a957806370a08231146101be578063715018a6146101e757600080fd5b806306fdde031461011b578063095ea7b31461013957806318160ddd1461015c57806323b872dd1461016e575b600080fd5b6101236102c5565b60405161013091906109c7565b60405180910390f35b61014c610147366004610a33565b610357565b6040519015158152602001610130565b6003545b604051908152602001610130565b61014c61017c366004610a5d565b61036d565b60065460405160ff9091168152602001610130565b61014c6101a4366004610a33565b6103d6565b6101bc6101b7366004610a33565b61040c565b005b6101606101cc366004610a99565b6001600160a01b031660009081526001602052604090205490565b6101bc61041a565b6000546001600160a01b03165b6040516001600160a01b039091168152602001610130565b6000546001600160a01b03166101fc565b610123610459565b6101bc61023b366004610ab4565b610468565b61014c61024e366004610ab4565b610475565b61014c610261366004610a33565b6104b3565b61014c610274366004610a33565b610502565b610160610287366004610acd565b6001600160a01b03918216600090815260026020908152604080832093909416825291909152205490565b6101bc6102c0366004610a99565b61050f565b6060600480546102d490610b00565b80601f016020809104026020016040519081016040528092919081815260200182805461030090610b00565b801561034d5780601f106103225761010080835404028352916020019161034d565b820191906000526020600020905b81548152906001019060200180831161033057829003601f168201915b5050505050905090565b60006103643384846105ba565b50600192915050565b600061037a8484846106df565b6103cc84336103c785604051806060016040528060288152602001610b97602891396001600160a01b038a1660009081526002602090815260408083203384529091529020549190610865565b6105ba565b5060019392505050565b3360008181526002602090815260408083206001600160a01b038716845290915281205490916103649185906103c790866105a7565b6104168282610891565b5050565b6000546001600160a01b0316331461044d5760405162461bcd60e51b815260040161044490610b3b565b60405180910390fd5b6104576000610977565b565b6060600580546102d490610b00565b6104723382610891565b50565b600080546001600160a01b031633146104a05760405162461bcd60e51b815260040161044490610b3b565b6104aa3383610891565b5060015b919050565b600061036433846103c785604051806060016040528060258152602001610be5602591393360009081526002602090815260408083206001600160a01b038d1684529091529020549190610865565b60006103643384846106df565b6000546001600160a01b031633146105395760405162461bcd60e51b815260040161044490610b3b565b6001600160a01b03811661059e5760405162461bcd60e51b815260206004820152602660248201527f4f776e61626c653a206e6577206f776e657220697320746865207a65726f206160448201526564647265737360d01b6064820152608401610444565b61047281610977565b60006105b38284610b70565b9392505050565b6001600160a01b03831661061c5760405162461bcd60e51b8152602060048201526024808201527f42455032303a20617070726f76652066726f6d20746865207a65726f206164646044820152637265737360e01b6064820152608401610444565b6001600160a01b03821661067d5760405162461bcd60e51b815260206004820152602260248201527f42455032303a20617070726f766520746f20746865207a65726f206164647265604482015261737360f01b6064820152608401610444565b6001600160a01b0383811660008181526002602090815260408083209487168084529482529182902085905590518481527f8c5be1e5ebec7d5bd14f71427d1e84f3dd0314c0f7b2291e5b200ac8c7c3b92591015b60405180910390a3505050565b6001600160a01b0383166107435760405162461bcd60e51b815260206004820152602560248201527f42455032303a207472616e736665722066726f6d20746865207a65726f206164604482015264647265737360d81b6064820152608401610444565b6001600160a01b0382166107a55760405162461bcd60e51b815260206004820152602360248201527f42455032303a207472616e7366657220746f20746865207a65726f206164647260448201526265737360e81b6064820152608401610444565b6107e281604051806060016040528060268152602001610bbf602691396001600160a01b0386166000908152600160205260409020549190610865565b6001600160a01b03808516600090815260016020526040808220939093559084168152205461081190826105a7565b6001600160a01b0380841660008181526001602052604090819020939093559151908516907fddf252ad1be2c89b69c2b068fc378daa952ba7f163c4a11628f55a4df523b3ef906106d29085815260200190565b600081848411156108895760405162461bcd60e51b815260040161044491906109c7565b505050900390565b6001600160a01b0382166108e75760405162461bcd60e51b815260206004820152601f60248201527f42455032303a206d696e7420746f20746865207a65726f2061646472657373006044820152606401610444565b6003546108f490826105a7565b6003556001600160a01b03821660009081526001602052604090205461091a90826105a7565b6001600160a01b0383166000818152600160205260408082209390935591519091907fddf252ad1be2c89b69c2b068fc378daa952ba7f163c4a11628f55a4df523b3ef9061096b9085815260200190565b60405180910390a35050565b600080546001600160a01b038381166001600160a01b0319831681178455604051919092169283917f8be0079c531659141344cd1fd0a4f28419497f9722a3daafe3b4186f6b6457e09190a35050565b600060208083528351808285015260005b818110156109f4578581018301518582016040015282016109d8565b81811115610a06576000604083870101525b50601f01601f1916929092016040019392505050565b80356001600160a01b03811681146104ae57600080fd5b60008060408385031215610a4657600080fd5b610a4f83610a1c565b946020939093013593505050565b600080600060608486031215610a7257600080fd5b610a7b84610a1c565b9250610a8960208501610a1c565b9150604084013590509250925092565b600060208284031215610aab57600080fd5b6105b382610a1c565b600060208284031215610ac657600080fd5b5035919050565b60008060408385031215610ae057600080fd5b610ae983610a1c565b9150610af760208401610a1c565b90509250929050565b600181811c90821680610b1457607f821691505b60208210811415610b3557634e487b7160e01b600052602260045260246000fd5b50919050565b6020808252818101527f4f776e61626c653a2063616c6c6572206973206e6f7420746865206f776e6572604082015260600190565b60008219821115610b9157634e487b7160e01b600052601160045260246000fd5b50019056fe42455032303a207472616e7366657220616d6f756e74206578636565647320616c6c6f77616e636542455032303a207472616e7366657220616d6f756e7420657863656564732062616c616e636542455032303a2064656372656173656420616c6c6f77616e63652062656c6f77207a65726fa2646970667358221220f1110dd7f2032c10843ed44f6dcabc5c681e434ec94aff0a9e4f7699aeadf47b64736f6c63430008090033",
  "devdoc": {
    "kind": "dev",
    "methods": {
      "allowance(address,address)": {
        "details": "See {BEP20-allowance}."
      },
      "approve(address,uint256)": {
        "details": "See {BEP20-approve}. Requirements: - `spender` cannot be the zero address."
      },
      "balanceOf(address)": {
        "details": "See {BEP20-balanceOf}."
      },
      "decimals()": {
        "details": "Returns the token decimals."
      },
      "decreaseAllowance(address,uint256)": {
        "details": "Atomically decreases the allowance granted to `spender` by the caller. This is an alternative to {approve} that can be used as a mitigation for problems described in {BEP20-approve}. Emits an {Approval} event indicating the updated allowance. Requirements: - `spender` cannot be the zero address. - `spender` must have allowance for the caller of at least `subtractedValue`."
      },
      "getOwner()": {
        "details": "Returns the bep token owner."
      },
      "increaseAllowance(address,uint256)": {
        "details": "Atomically increases the allowance granted to `spender` by the caller. This is an alternative to {approve} that can be used as a mitigation for problems described in {BEP20-approve}. Emits an {Approval} event indicating the updated allowance. Requirements: - `spender` cannot be the zero address."
      },
      "mint(uint256)": {
        "details": "Creates `amount` tokens and assigns them to `msg.sender`, increasing the total supply. Requirements - `msg.sender` must be the token owner"
      },
      "name()": {
        "details": "Returns the token name."
      },
      "owner()": {
        "details": "Returns the address of the current owner."
      },
      "renounceOwnership()": {
        "details": "Leaves the contract without owner. It will not be possible to call `onlyOwner` functions anymore. Can only be called by the current owner. NOTE: Renouncing ownership will leave the contract without an owner, thereby removing any functionality that is only available to the owner."
      },
      "symbol()": {
        "details": "Returns the token symbol."
      },
      "totalSupply()": {
        "details": "See {BEP20-totalSupply}."
      },
      "transfer(address,uint256)": {
        "details": "See {BEP20-transfer}. Requirements: - `recipient` cannot be the zero address. - the caller must have a balance of at least `amount`."
      },
      "transferFrom(address,address,uint256)": {
        "details": "See {BEP20-transferFrom}. Emits an {Approval} event indicating the updated allowance. This is not required by the EIP. See the note at the beginning of {BEP20}; Requirements: - `sender` and `recipient` cannot be the zero address. - `sender` must have a balance of at least `amount`. - the caller must have allowance for `sender`'s tokens of at least `amount`."
      },
      "transferOwnership(address)": {
        "details": "Transfers ownership of the contract to a new account (`newOwner`). Can only be called by the current owner."
      }
    },
    "version": 1
  },
  "userdoc": {
    "kind": "user",
    "methods": {},
    "version": 1
  },
  "storageLayout": {
    "storage": [
      {
        "astId": 994,
        "contract": "@private/shared/mocks/MockBEP20.sol:MockBEP20",
        "label": "_owner",
        "offset": 0,
        "slot": "0",
        "type": "t_address"
      },
      {
        "astId": 3176,
        "contract": "@private/shared/mocks/MockBEP20.sol:MockBEP20",
        "label": "_balances",
        "offset": 0,
        "slot": "1",
        "type": "t_mapping(t_address,t_uint256)"
      },
      {
        "astId": 3182,
        "contract": "@private/shared/mocks/MockBEP20.sol:MockBEP20",
        "label": "_allowances",
        "offset": 0,
        "slot": "2",
        "type": "t_mapping(t_address,t_mapping(t_address,t_uint256))"
      },
      {
        "astId": 3184,
        "contract": "@private/shared/mocks/MockBEP20.sol:MockBEP20",
        "label": "_totalSupply",
        "offset": 0,
        "slot": "3",
        "type": "t_uint256"
      },
      {
        "astId": 3186,
        "contract": "@private/shared/mocks/MockBEP20.sol:MockBEP20",
        "label": "_name",
        "offset": 0,
        "slot": "4",
        "type": "t_string_storage"
      },
      {
        "astId": 3188,
        "contract": "@private/shared/mocks/MockBEP20.sol:MockBEP20",
        "label": "_symbol",
        "offset": 0,
        "slot": "5",
        "type": "t_string_storage"
      },
      {
        "astId": 3190,
        "contract": "@private/shared/mocks/MockBEP20.sol:MockBEP20",
        "label": "_decimals",
        "offset": 0,
        "slot": "6",
        "type": "t_uint8"
      }
    ],
    "types": {
      "t_address": {
        "encoding": "inplace",
        "label": "address",
        "numberOfBytes": "20"
      },
      "t_mapping(t_address,t_mapping(t_address,t_uint256))": {
        "encoding": "mapping",
        "key": "t_address",
        "label": "mapping(address => mapping(address => uint256))",
        "numberOfBytes": "32",
        "value": "t_mapping(t_address,t_uint256)"
      },
      "t_mapping(t_address,t_uint256)": {
        "encoding": "mapping",
        "key": "t_address",
        "label": "mapping(address => uint256)",
        "numberOfBytes": "32",
        "value": "t_uint256"
      },
      "t_string_storage": {
        "encoding": "bytes",
        "label": "string",
        "numberOfBytes": "32"
      },
      "t_uint256": {
        "encoding": "inplace",
        "label": "uint256",
        "numberOfBytes": "32"
      },
      "t_uint8": {
        "encoding": "inplace",
        "label": "uint8",
        "numberOfBytes": "1"
      }
    }
  }
}