{
  "address": "0xEa06f68DF2aDd7cfD290546db7394DfEa3869e98",
  "abi": [
    {
      "anonymous": false,
      "inputs": [
        {
          "indexed": true,
          "internalType": "address",
          "name": "previousAdmin",
          "type": "address"
        },
        {
          "indexed": true,
          "internalType": "address",
          "name": "newAdmin",
          "type": "address"
        }
      ],
      "name": "AdminChanged",
      "type": "event"
    },
    {
      "anonymous": false,
      "inputs": [
        {
          "indexed": true,
          "internalType": "address",
          "name": "user",
          "type": "address"
        },
        {
          "indexed": true,
          "internalType": "uint256",
          "name": "pid",
          "type": "uint256"
        }
      ],
      "name": "ClaimRewards",
      "type": "event"
    },
    {
      "anonymous": false,
      "inputs": [
        {
          "indexed": true,
          "internalType": "address",
          "name": "user",
          "type": "address"
        },
        {
          "indexed": true,
          "internalType": "uint256",
          "name": "pid",
          "type": "uint256"
        },
        {
          "indexed": false,
          "internalType": "uint256",
          "name": "amount",
          "type": "uint256"
        }
      ],
      "name": "Deposit",
      "type": "event"
    },
    {
      "anonymous": false,
      "inputs": [
        {
          "indexed": true,
          "internalType": "address",
          "name": "user",
          "type": "address"
        },
        {
          "indexed": true,
          "internalType": "uint256",
          "name": "pid",
          "type": "uint256"
        },
        {
          "indexed": false,
          "internalType": "uint256",
          "name": "amount",
          "type": "uint256"
        }
      ],
      "name": "EmergencyWithdraw",
      "type": "event"
    },
    {
      "anonymous": false,
      "inputs": [
        {
          "indexed": false,
          "internalType": "uint8",
          "name": "version",
          "type": "uint8"
        }
      ],
      "name": "Initialized",
      "type": "event"
    },
    {
      "anonymous": false,
      "inputs": [
        {
          "indexed": true,
          "internalType": "address",
          "name": "user",
          "type": "address"
        },
        {
          "indexed": true,
          "internalType": "uint256",
          "name": "pid",
          "type": "uint256"
        },
        {
          "indexed": false,
          "internalType": "uint256",
          "name": "amount",
          "type": "uint256"
        }
      ],
      "name": "Withdraw",
      "type": "event"
    },
    {
      "inputs": [
        {
          "internalType": "uint256",
          "name": "_allocPoint",
          "type": "uint256"
        },
        {
          "internalType": "contract IERC20",
          "name": "_lpToken",
          "type": "address"
        },
        {
          "internalType": "address",
          "name": "_proxyFarmer",
          "type": "address"
        },
        {
          "internalType": "bool",
          "name": "_withUpdate",
          "type": "bool"
        }
      ],
      "name": "add",
      "outputs": [],
      "stateMutability": "nonpayable",
      "type": "function"
    },
    {
      "inputs": [
        {
          "internalType": "contract IERC20",
          "name": "token",
          "type": "address"
        },
        {
          "internalType": "uint256",
          "name": "rewardPerBlock",
          "type": "uint256"
        },
        {
          "internalType": "uint256",
          "name": "startedAtBlock",
          "type": "uint256"
        },
        {
          "internalType": "uint256",
          "name": "endedAtBlock",
          "type": "uint256"
        }
      ],
      "name": "addRewardSpec",
      "outputs": [],
      "stateMutability": "nonpayable",
      "type": "function"
    },
    {
      "inputs": [],
      "name": "admin",
      "outputs": [
        {
          "internalType": "address",
          "name": "",
          "type": "address"
        }
      ],
      "stateMutability": "view",
      "type": "function"
    },
    {
      "inputs": [
        {
          "internalType": "uint256",
          "name": "_pid",
          "type": "uint256"
        },
        {
          "internalType": "uint256",
          "name": "_amount",
          "type": "uint256"
        }
      ],
      "name": "deposit",
      "outputs": [],
      "stateMutability": "nonpayable",
      "type": "function"
    },
    {
      "inputs": [
        {
          "internalType": "uint256",
          "name": "_pid",
          "type": "uint256"
        },
        {
          "internalType": "uint256",
          "name": "_amount",
          "type": "uint256"
        },
        {
          "internalType": "address",
          "name": "user_",
          "type": "address"
        }
      ],
      "name": "depositForUser",
      "outputs": [],
      "stateMutability": "nonpayable",
      "type": "function"
    },
    {
      "inputs": [
        {
          "internalType": "uint256",
          "name": "_pid",
          "type": "uint256"
        }
      ],
      "name": "emergencyWithdraw",
      "outputs": [],
      "stateMutability": "nonpayable",
      "type": "function"
    },
    {
      "inputs": [
        {
          "internalType": "uint256",
          "name": "_from",
          "type": "uint256"
        },
        {
          "internalType": "uint256",
          "name": "_to",
          "type": "uint256"
        },
        {
          "internalType": "uint256",
          "name": "rewardId",
          "type": "uint256"
        }
      ],
      "name": "getMultiplier",
      "outputs": [
        {
          "internalType": "uint256",
          "name": "",
          "type": "uint256"
        }
      ],
      "stateMutability": "view",
      "type": "function"
    },
    {
      "inputs": [
        {
          "internalType": "address",
          "name": "admin_",
          "type": "address"
        }
      ],
      "name": "initialize",
      "outputs": [],
      "stateMutability": "nonpayable",
      "type": "function"
    },
    {
      "inputs": [],
      "name": "massUpdatePools",
      "outputs": [],
      "stateMutability": "nonpayable",
      "type": "function"
    },
    {
      "inputs": [
        {
          "internalType": "uint256",
          "name": "_pid",
          "type": "uint256"
        }
      ],
      "name": "migrate",
      "outputs": [],
      "stateMutability": "nonpayable",
      "type": "function"
    },
    {
      "inputs": [],
      "name": "migrator",
      "outputs": [
        {
          "internalType": "contract IMigratorChef",
          "name": "",
          "type": "address"
        }
      ],
      "stateMutability": "view",
      "type": "function"
    },
    {
      "inputs": [
        {
          "internalType": "uint256",
          "name": "_pid",
          "type": "uint256"
        },
        {
          "internalType": "address",
          "name": "_user",
          "type": "address"
        }
      ],
      "name": "pendingRewards",
      "outputs": [
        {
          "components": [
            {
              "internalType": "contract IERC20",
              "name": "token",
              "type": "address"
            },
            {
              "internalType": "uint256",
              "name": "amount",
              "type": "uint256"
            }
          ],
          "internalType": "struct MultiRewardsMasterChef.RewardInfo[]",
          "name": "",
          "type": "tuple[]"
        }
      ],
      "stateMutability": "view",
      "type": "function"
    },
    {
      "inputs": [
        {
          "internalType": "uint256",
          "name": "",
          "type": "uint256"
        }
      ],
      "name": "poolInfo",
      "outputs": [
        {
          "internalType": "contract IERC20",
          "name": "lpToken",
          "type": "address"
        },
        {
          "internalType": "uint256",
          "name": "allocPoint",
          "type": "uint256"
        },
        {
          "internalType": "uint256",
          "name": "lastRewardBlock",
          "type": "uint256"
        },
        {
          "internalType": "address",
          "name": "proxyFarmer",
          "type": "address"
        },
        {
          "internalType": "uint256",
          "name": "totalAmount",
          "type": "uint256"
        }
      ],
      "stateMutability": "view",
      "type": "function"
    },
    {
      "inputs": [],
      "name": "poolLength",
      "outputs": [
        {
          "internalType": "uint256",
          "name": "",
          "type": "uint256"
        }
      ],
      "stateMutability": "view",
      "type": "function"
    },
    {
      "inputs": [
        {
          "internalType": "uint256",
          "name": "",
          "type": "uint256"
        }
      ],
      "name": "rewardSpecs",
      "outputs": [
        {
          "internalType": "contract IERC20",
          "name": "token",
          "type": "address"
        },
        {
          "internalType": "uint256",
          "name": "rewardPerBlock",
          "type": "uint256"
        },
        {
          "internalType": "uint256",
          "name": "startedAtBlock",
          "type": "uint256"
        },
        {
          "internalType": "uint256",
          "name": "endedAtBlock",
          "type": "uint256"
        },
        {
          "internalType": "uint256",
          "name": "claimedAmount",
          "type": "uint256"
        }
      ],
      "stateMutability": "view",
      "type": "function"
    },
    {
      "inputs": [
        {
          "internalType": "uint256",
          "name": "_pid",
          "type": "uint256"
        },
        {
          "internalType": "uint256",
          "name": "_allocPoint",
          "type": "uint256"
        },
        {
          "internalType": "bool",
          "name": "_withUpdate",
          "type": "bool"
        }
      ],
      "name": "set",
      "outputs": [],
      "stateMutability": "nonpayable",
      "type": "function"
    },
    {
      "inputs": [
        {
          "internalType": "address",
          "name": "admin_",
          "type": "address"
        }
      ],
      "name": "setAdmin",
      "outputs": [],
      "stateMutability": "nonpayable",
      "type": "function"
    },
    {
      "inputs": [
        {
          "internalType": "contract IMigratorChef",
          "name": "_migrator",
          "type": "address"
        }
      ],
      "name": "setMigrator",
      "outputs": [],
      "stateMutability": "nonpayable",
      "type": "function"
    },
    {
      "inputs": [
        {
          "internalType": "uint256",
          "name": "rewardId",
          "type": "uint256"
        },
        {
          "internalType": "uint256",
          "name": "rewardPerBlock",
          "type": "uint256"
        },
        {
          "internalType": "uint256",
          "name": "startedAtBlock",
          "type": "uint256"
        },
        {
          "internalType": "uint256",
          "name": "endedAtBlock",
          "type": "uint256"
        }
      ],
      "name": "setRewardSpec",
      "outputs": [],
      "stateMutability": "nonpayable",
      "type": "function"
    },
    {
      "inputs": [],
      "name": "totalAllocPoint",
      "outputs": [
        {
          "internalType": "uint256",
          "name": "",
          "type": "uint256"
        }
      ],
      "stateMutability": "view",
      "type": "function"
    },
    {
      "inputs": [
        {
          "internalType": "uint256",
          "name": "_pid",
          "type": "uint256"
        }
      ],
      "name": "updatePool",
      "outputs": [],
      "stateMutability": "nonpayable",
      "type": "function"
    },
    {
      "inputs": [
        {
          "internalType": "uint256",
          "name": "",
          "type": "uint256"
        },
        {
          "internalType": "address",
          "name": "",
          "type": "address"
        }
      ],
      "name": "userInfo",
      "outputs": [
        {
          "internalType": "uint256",
          "name": "amount",
          "type": "uint256"
        }
      ],
      "stateMutability": "view",
      "type": "function"
    },
    {
      "inputs": [
        {
          "internalType": "uint256",
          "name": "_pid",
          "type": "uint256"
        },
        {
          "internalType": "uint256",
          "name": "_amount",
          "type": "uint256"
        }
      ],
      "name": "withdraw",
      "outputs": [],
      "stateMutability": "nonpayable",
      "type": "function"
    },
    {
      "inputs": [
        {
          "internalType": "uint256",
          "name": "_pid",
          "type": "uint256"
        },
        {
          "internalType": "uint256",
          "name": "_amount",
          "type": "uint256"
        },
        {
          "internalType": "address",
          "name": "user_",
          "type": "address"
        }
      ],
      "name": "withdrawForUser",
      "outputs": [],
      "stateMutability": "nonpayable",
      "type": "function"
    }
  ],
  "transactionHash": "0x8e0c7a1685316d8f048de2ef1d6b754fa835e9b51009f911aade4b11362ce8d5",
  "args": [],
  "numDeployments": 1,
  "solcInputHash": "d7e10768f9d40d1aec8a6e0bf1c7c156",
  "bytecode": "0x6080604052600060075534801561001557600080fd5b5060016000556126048061002a6000396000f3fe608060405234801561001057600080fd5b50600436106101585760003560e01c80637bafb029116100c3578063d18df53c1161007c578063d18df53c1461030b578063e11f2f7d1461032b578063e15a003a14610370578063e2bbb15814610383578063f401426114610396578063f851a440146103a957600080fd5b80637bafb029146102695780637cd07e471461027c57806393f1a40b146102a7578063a3f30d27146102d2578063c4d66de8146102e5578063c71b4b43146102f857600080fd5b8063454b060811610115578063454b06081461020257806351eb05a6146102155780635312ea8e14610228578063630b5ba11461023b57806364482f7914610243578063704b6c021461025657600080fd5b8063081e3eda1461015d5780631526fe271461017457806317caf6f1146101be57806323cf3118146101c757806338cc39af146101dc578063441a3e70146101ef575b600080fd5b6004545b6040519081526020015b60405180910390f35b6101876101823660046120df565b6103c2565b604080516001600160a01b03968716815260208101959095528401929092529092166060820152608081019190915260a00161016b565b61016160075481565b6101da6101d5366004612110565b61040f565b005b6101da6101ea36600461212d565b61046a565b6101da6101fd36600461215f565b610700565b6101da6102103660046120df565b61070f565b6101da6102233660046120df565b6109a6565b6101da6102363660046120df565b610adc565b6101da610c2e565b6101da61025136600461218f565b610c55565b6101da610264366004612110565b610d15565b6101616102773660046121c8565b610df7565b60035461028f906001600160a01b031681565b6040516001600160a01b03909116815260200161016b565b6101616102b53660046121f4565b600660209081526000928352604080842090915290825290205481565b6101da6102e0366004612224565b610e82565b6101da6102f3366004612110565b610e92565b6101da610306366004612252565b610f20565b61031e6103193660046121f4565b611118565b60405161016b91906122a5565b61033e6103393660046120df565b61134e565b604080516001600160a01b0390961686526020860194909452928401919091526060830152608082015260a00161016b565b6101da61037e366004612224565b611399565b6101da61039136600461215f565b6113a4565b6101da6103a43660046122fd565b6113af565b60015461028f906201000090046001600160a01b031681565b600481815481106103d257600080fd5b6000918252602090912060059091020180546001820154600283015460038401546004909401546001600160a01b03938416955091939092169085565b6001546201000090046001600160a01b031633146104485760405162461bcd60e51b815260040161043f90612338565b60405180910390fd5b600380546001600160a01b0319166001600160a01b0392909216919091179055565b6001546201000090046001600160a01b0316331461049a5760405162461bcd60e51b815260040161043f90612338565b6000600285815481106104af576104af61235c565b90600052602060002090600502019050438160020154116105455780600201548314610545576040805162461bcd60e51b81526020600482015260248101919091527f63616e206e6f74206d6f6469667920737461727465644174426c6f636b20616660448201527f74657220726577617264732068617320626567616e20616c6c6f636174696e67606482015260840161043f565b4382116105af5760405162461bcd60e51b815260206004820152603260248201527f63616e206e6f74206d6f6469667920656e6465644174426c6f636b20746f2061604482015271103830b9ba10313637b1b590373ab6b132b960711b606482015260840161043f565b8282116105ce5760405162461bcd60e51b815260040161043f90612372565b6105d6610c2e565b6000846105e385856123da565b6105ed91906123f1565b82546040516370a0823160e01b81523060048201529192506000916001600160a01b03909116906370a082319060240160206040518083038186803b15801561063557600080fd5b505afa158015610649573d6000803e3d6000fd5b505050506040513d601f19601f8201168201806040525081019061066d9190612410565b905082600401548161067f9190612429565b8211156106be576106b933308560040154848661069c91906123da565b6106a691906123da565b86546001600160a01b03169291906115a5565b6106ea565b60048301546106cd9082612429565b8210156106ea576106ea30338486600401548561069c9190612429565b5050600281019290925560038201556001015550565b61070b828233611610565b5050565b6001546201000090046001600160a01b0316331461073f5760405162461bcd60e51b815260040161043f90612338565b6003546001600160a01b031661078e5760405162461bcd60e51b815260206004820152601460248201527336b4b3b930ba329d1037379036b4b3b930ba37b960611b604482015260640161043f565b6000600482815481106107a3576107a361235c565b6000918252602082206005919091020180546040516370a0823160e01b81523060048201529193506001600160a01b0316919082906370a082319060240160206040518083038186803b1580156107f957600080fd5b505afa15801561080d573d6000803e3d6000fd5b505050506040513d601f19601f820116820180604052508101906108319190612410565b60035490915061084e906001600160a01b0384811691168361198c565b60035460405163ce5494bb60e01b81526001600160a01b038481166004830152600092169063ce5494bb90602401602060405180830381600087803b15801561089657600080fd5b505af11580156108aa573d6000803e3d6000fd5b505050506040513d601f19601f820116820180604052508101906108ce9190612441565b6040516370a0823160e01b81523060048201529091506001600160a01b038216906370a082319060240160206040518083038186803b15801561091057600080fd5b505afa158015610924573d6000803e3d6000fd5b505050506040513d601f19601f820116820180604052508101906109489190612410565b82146109855760405162461bcd60e51b815260206004820152600c60248201526b1b5a59dc985d194e8818985960a21b604482015260640161043f565b83546001600160a01b0319166001600160a01b039190911617909255505050565b6000600482815481106109bb576109bb61235c565b90600052602060002090600502019050806002015443116109da575050565b6004810154806109ef57504360029091015550565b60005b600254811015610ad057600060028281548110610a1157610a1161235c565b906000526020600020906005020190506000610a3285600201544385610df7565b90506000610a67600754610a618860010154610a5b876001015487611ab090919063ffffffff16565b90611ab0565b90611abc565b9050610a9f610a7f86610a618464e8d4a51000611ab0565b600089815260056020908152604080832089845290915290205490611ac8565b600088815260056020908152604080832088845290915290205550829150610ac890508161245e565b9150506109f2565b50504360029091015550565b60026000541415610aff5760405162461bcd60e51b815260040161043f90612479565b600260009081556004805483908110610b1a57610b1a61235c565b60009182526020808320858452600682526040808520338652909252922060036005909202909201908101549092506001600160a01b0316610b945760405162461bcd60e51b81526020600482015260136024820152726e6f7468696e6720746f20776974686472617760681b604482015260640161043f565b80546004830154610ba491611ad4565b600483015580548254610bc4916001600160a01b03909116903390611ae0565b60008082555b600254811015610bea576000818152600283016020526040812055610bca565b508054604051908152839033907fbb757047c2b5f3974fe26b7c10f732e7bce710b0952a71082702781e62ae05959060200160405180910390a35050600160005550565b60045460005b8181101561070b57610c45816109a6565b610c4e8161245e565b9050610c34565b6001546201000090046001600160a01b03163314610c855760405162461bcd60e51b815260040161043f90612338565b8015610c9357610c93610c2e565b600060048481548110610ca857610ca861235c565b90600052602060002090600502016001015490508260048581548110610cd057610cd061235c565b906000526020600020906005020160010181905550828114610d0f57610d0b83610d0583600754611ad490919063ffffffff16565b90611ac8565b6007555b50505050565b6001546201000090046001600160a01b03163314610d455760405162461bcd60e51b815260040161043f90612338565b6001600160a01b038116610d9b5760405162461bcd60e51b815260206004820152601760248201527f63616e206e6f74206265207a65726f2061646472657373000000000000000000604482015260640161043f565b600180546001600160a01b038381166201000081810262010000600160b01b031985161790945560405193909204169182907f7e644d79422f17c01e4894b5f4f588d331ebfa28653d42ae832dc59e38c9798f90600090a35050565b60008060028381548110610e0d57610e0d61235c565b906000526020600020906005020190508060020154841015610e33576000915050610e7b565b8060020154851015610e4757806002015494505b8060030154841115610e5b57806003015493505b83851115610e6d576000915050610e7b565b610e778486611ad4565b9150505b9392505050565b610e8d838383611b10565b505050565b6000610e9e6001611e04565b90508015610eb6576001805461ff0019166101001790555b6001805462010000600160b01b031916620100006001600160a01b03851602179055801561070b576001805461ff00191681556040519081527f7f26b83ff96e1f2b6a682f133852f6798a09c465da95921460cefb38474024989060200160405180910390a15050565b6001546201000090046001600160a01b03163314610f505760405162461bcd60e51b815260040161043f90612338565b8015610f5e57610f5e610c2e565b6001600160a01b03821615610fdd576001600160a01b03831615610fdd5760405162461bcd60e51b815260206004820152603060248201527f4c50546f6b656e2073686f756c6420626520616464726573732030207768656e60448201526f10383937bc34b2b2103330b936b2b91760811b606482015260840161043f565b6007544390610fec9086611ac8565b6007556040805160a0810182526001600160a01b0395861681526020810196875290810191825292841660608401908152600060808501818152600480546001810182559252945160059091027f8a35acfbc15ff81a39ae7d344fd709f28e8600b4aa8c65c6b64bfe7fe36bd19b810180549288166001600160a01b031993841617905596517f8a35acfbc15ff81a39ae7d344fd709f28e8600b4aa8c65c6b64bfe7fe36bd19c88015591517f8a35acfbc15ff81a39ae7d344fd709f28e8600b4aa8c65c6b64bfe7fe36bd19d870155517f8a35acfbc15ff81a39ae7d344fd709f28e8600b4aa8c65c6b64bfe7fe36bd19e8601805491909516911617909255517f8a35acfbc15ff81a39ae7d344fd709f28e8600b4aa8c65c6b64bfe7fe36bd19f9092019190915550565b60025460609060009067ffffffffffffffff811115611139576111396124b0565b60405190808252806020026020018201604052801561117e57816020015b60408051808201909152600080825260208201528152602001906001900390816111575790505b5090506000600485815481106111965761119661235c565b600091825260208083208884526006825260408085206001600160a01b038a1686529092529083206005909202019250905b600254811015611343576000600282815481106111e7576111e761235c565b906000526020600020906005020190508060020154431015611246576040805180820190915281546001600160a01b031681526000602082015285518690849081106112355761123561235c565b602002602001018190525050611331565b6000888152600560209081526040808320858452909152902054600485015460028601544311801561127757508015155b156112da57600061128d87600201544387610df7565b905060006112b6600754610a618a60010154610a5b896001015487611ab090919063ffffffff16565b90506112d56112ce84610a618464e8d4a51000611ab0565b8590611ac8565b935050505b6040805180820190915283546001600160a01b031681528554602082019061130d9064e8d4a5100090610a619087611ab0565b8152508785815181106113225761132261235c565b60200260200101819052505050505b8061133b8161245e565b9150506111c8565b509195945050505050565b6002818154811061135e57600080fd5b6000918252602090912060059091020180546001820154600283015460038401546004909401546001600160a01b0390931694509092909185565b610e8d838383611610565b61070b828233611b10565b6001546201000090046001600160a01b031633146113df5760405162461bcd60e51b815260040161043f90612338565b8181116113fe5760405162461bcd60e51b815260040161043f90612372565b600083116114615760405162461bcd60e51b815260206004820152602a60248201527f726577617264506572426c6f636b2073686f756c642062652067726561746572604482015269207468616e207a65726f60b01b606482015260840161043f565b61148d33308561147186866123da565b61147b91906123f1565b6001600160a01b0388169291906115a5565b6040805160a0810182526001600160a01b039586168152602081019485529081019283526060810191825260006080820181815260028054600181018255925291517f405787fa12a823e0f2b7631cc41b3ba8828b3321ca811111fa75cd3aa3bb5ace600590920291820180546001600160a01b031916919097161790955592517f405787fa12a823e0f2b7631cc41b3ba8828b3321ca811111fa75cd3aa3bb5acf85015590517f405787fa12a823e0f2b7631cc41b3ba8828b3321ca811111fa75cd3aa3bb5ad0840155517f405787fa12a823e0f2b7631cc41b3ba8828b3321ca811111fa75cd3aa3bb5ad1830155517f405787fa12a823e0f2b7631cc41b3ba8828b3321ca811111fa75cd3aa3bb5ad290910155565b6040516001600160a01b0380851660248301528316604482015260648101829052610d0f9085906323b872dd60e01b906084015b60408051601f198184030181529190526020810180516001600160e01b03166001600160e01b031990931692909217909152611e8c565b600260005414156116335760405162461bcd60e51b815260040161043f90612479565b60026000908155600480548590811061164e5761164e61235c565b600091825260208083208784526006825260408085206001600160a01b038816865290925292208054600590920290920192508411156116d05760405162461bcd60e51b815260206004820152601e60248201527f77697468647261773a20496e73756666696369656e742062616c616e63650000604482015260640161043f565b60038201546001600160a01b0316156117385760038201546001600160a01b031633146117335760405162461bcd60e51b815260206004820152601160248201527027b7363c90383937bc3c903330b936b2b960791b604482015260640161043f565b611790565b336001600160a01b038416146117905760405162461bcd60e51b815260206004820152601b60248201527f43616e206e6f7420776974686472617720666f72206f74686572730000000000604482015260640161043f565b611799856109a6565b60005b6002548110156118f7576000600282815481106117bb576117bb61235c565b600091825260208083208a84526005808352604080862088875290935291909320548654929091029092019250156118a65760008381526002850160205260408120548554611820919061181a9064e8d4a5100090610a619087611ab0565b90611ad4565b9050801561187c578083600401600082825461183c9190612429565b9091555050600084815260018601602052604081208054839290611861908490612429565b9091555050825461187c906001600160a01b03168883611ae0565b84546118939064e8d4a5100090610a619085611ab0565b6000858152600287016020526040902055505b86156118e2576118d064e8d4a51000610a6183610a5b8b8960000154611ad490919063ffffffff16565b60008481526002860160205260409020555b505080806118ef9061245e565b91505061179c565b50831561194857805461190a9085611ad4565b8155600482015461191b9085611ad4565b600483015560038201546001600160a01b0316611948578154611948906001600160a01b03168486611ae0565b604051848152859033907ff279e6a1f5e320cca91135676d9cb6e44ca8a08c0b88342bcdb1144f6511b568906020015b60405180910390a350506001600055505050565b801580611a155750604051636eb1769f60e11b81523060048201526001600160a01b03838116602483015284169063dd62ed3e9060440160206040518083038186803b1580156119db57600080fd5b505afa1580156119ef573d6000803e3d6000fd5b505050506040513d601f19601f82011682018060405250810190611a139190612410565b155b611a805760405162461bcd60e51b815260206004820152603660248201527f5361666545524332303a20617070726f76652066726f6d206e6f6e2d7a65726f60448201527520746f206e6f6e2d7a65726f20616c6c6f77616e636560501b606482015260840161043f565b6040516001600160a01b038316602482015260448101829052610e8d90849063095ea7b360e01b906064016115d9565b6000610e7b82846123f1565b6000610e7b82846124c6565b6000610e7b8284612429565b6000610e7b82846123da565b6040516001600160a01b038316602482015260448101829052610e8d90849063a9059cbb60e01b906064016115d9565b60026000541415611b335760405162461bcd60e51b815260040161043f90612479565b600260009081556004805485908110611b4e57611b4e61235c565b6000918252602090912060059091020160038101549091506001600160a01b031615611bc95760038101546001600160a01b03163314611bc45760405162461bcd60e51b815260206004820152601160248201527027b7363c90383937bc3c903330b936b2b960791b604482015260640161043f565b611c21565b336001600160a01b03831614611c215760405162461bcd60e51b815260206004820152601a60248201527f43616e206e6f74206465706f73697420666f72206f7468657273000000000000604482015260640161043f565b60008481526006602090815260408083206001600160a01b03861684529091529020611c4c856109a6565b60005b600254811015611d7557600060028281548110611c6e57611c6e61235c565b600091825260208083208a8452600580835260408086208887529093529190932054865492909102909201925015611d2b5760008381526002850160205260408120548554611ccd919061181a9064e8d4a5100090610a619087611ab0565b90508015611d295780836004016000828254611ce99190612429565b9091555050600084815260018601602052604081208054839290611d0e908490612429565b90915550508254611d29906001600160a01b03168883611ae0565b505b611d4f64e8d4a51000610a6183610a5b8b8960000154611ac890919063ffffffff16565b600084815260028601602052604090205550819050611d6d8161245e565b915050611c4f565b508315611dc85760038201546001600160a01b0316611da5578154611da5906001600160a01b03168430876115a5565b6004820154611db49085611ac8565b60048301558054611dc59085611ac8565b81555b84836001600160a01b03167f90890809c654f11d6e72a28fa60149770a0d11ec6c92319d6ceb2bb0a4ea1a158660405161197891815260200190565b600154600090610100900460ff1615611e4d578160ff166001148015611e295750303b155b611e455760405162461bcd60e51b815260040161043f906124e8565b506000919050565b60015460ff808416911610611e745760405162461bcd60e51b815260040161043f906124e8565b506001805460ff191660ff9290921691909117815590565b6000611ee1826040518060400160405280602081526020017f5361666545524332303a206c6f772d6c6576656c2063616c6c206661696c6564815250856001600160a01b0316611f5e9092919063ffffffff16565b805190915015610e8d5780806020019051810190611eff9190612536565b610e8d5760405162461bcd60e51b815260206004820152602a60248201527f5361666545524332303a204552433230206f7065726174696f6e20646964206e6044820152691bdd081cdd58d8d9595960b21b606482015260840161043f565b6060611f6d8484600085611f75565b949350505050565b606082471015611fd65760405162461bcd60e51b815260206004820152602660248201527f416464726573733a20696e73756666696369656e742062616c616e636520666f6044820152651c8818d85b1b60d21b606482015260840161043f565b6001600160a01b0385163b61202d5760405162461bcd60e51b815260206004820152601d60248201527f416464726573733a2063616c6c20746f206e6f6e2d636f6e7472616374000000604482015260640161043f565b600080866001600160a01b03168587604051612049919061257f565b60006040518083038185875af1925050503d8060008114612086576040519150601f19603f3d011682016040523d82523d6000602084013e61208b565b606091505b509150915061209b8282866120a6565b979650505050505050565b606083156120b5575081610e7b565b8251156120c55782518084602001fd5b8160405162461bcd60e51b815260040161043f919061259b565b6000602082840312156120f157600080fd5b5035919050565b6001600160a01b038116811461210d57600080fd5b50565b60006020828403121561212257600080fd5b8135610e7b816120f8565b6000806000806080858703121561214357600080fd5b5050823594602084013594506040840135936060013592509050565b6000806040838503121561217257600080fd5b50508035926020909101359150565b801515811461210d57600080fd5b6000806000606084860312156121a457600080fd5b833592506020840135915060408401356121bd81612181565b809150509250925092565b6000806000606084860312156121dd57600080fd5b505081359360208301359350604090920135919050565b6000806040838503121561220757600080fd5b823591506020830135612219816120f8565b809150509250929050565b60008060006060848603121561223957600080fd5b833592506020840135915060408401356121bd816120f8565b6000806000806080858703121561226857600080fd5b84359350602085013561227a816120f8565b9250604085013561228a816120f8565b9150606085013561229a81612181565b939692955090935050565b602080825282518282018190526000919060409081850190868401855b828110156122f057815180516001600160a01b031685528601518685015292840192908501906001016122c2565b5091979650505050505050565b6000806000806080858703121561231357600080fd5b843561231e816120f8565b966020860135965060408601359560600135945092505050565b6020808252600a908201526927b7363c9030b236b4b760b11b604082015260600190565b634e487b7160e01b600052603260045260246000fd5b60208082526032908201527f656e6465644174426c6f636b2073686f756c642062652067726561746572207460408201527168616e20737461727465644174426c6f636b60701b606082015260800190565b634e487b7160e01b600052601160045260246000fd5b6000828210156123ec576123ec6123c4565b500390565b600081600019048311821515161561240b5761240b6123c4565b500290565b60006020828403121561242257600080fd5b5051919050565b6000821982111561243c5761243c6123c4565b500190565b60006020828403121561245357600080fd5b8151610e7b816120f8565b6000600019821415612472576124726123c4565b5060010190565b6020808252601f908201527f5265656e7472616e637947756172643a207265656e7472616e742063616c6c00604082015260600190565b634e487b7160e01b600052604160045260246000fd5b6000826124e357634e487b7160e01b600052601260045260246000fd5b500490565b6020808252602e908201527f496e697469616c697a61626c653a20636f6e747261637420697320616c72656160408201526d191e481a5b9a5d1a585b1a5e995960921b606082015260800190565b60006020828403121561254857600080fd5b8151610e7b81612181565b60005b8381101561256e578181015183820152602001612556565b83811115610d0f5750506000910152565b60008251612591818460208701612553565b9190910192915050565b60208152600082518060208401526125ba816040850160208701612553565b601f01601f1916919091016040019291505056fea26469706673582212202478d826ec171d87672f3de7f7fd78a76aed02703141a7a0488383dd71ea0ffe64736f6c63430008090033",
  "devdoc": {
    "kind": "dev",
    "methods": {},
    "version": 1
  },
  "userdoc": {
    "kind": "user",
    "methods": {},
    "version": 1
  },
  "storageLayout": {
    "storage": [
      {
        "astId": 1194,
        "contract": "contracts/MultiRewardsMasterChef.sol:MultiRewardsMasterChef",
        "label": "_status",
        "offset": 0,
        "slot": "0",
        "type": "t_uint256"
      },
      {
        "astId": 6,
        "contract": "contracts/MultiRewardsMasterChef.sol:MultiRewardsMasterChef",
        "label": "_initialized",
        "offset": 0,
        "slot": "1",
        "type": "t_uint8"
      },
      {
        "astId": 9,
        "contract": "contracts/MultiRewardsMasterChef.sol:MultiRewardsMasterChef",
        "label": "_initializing",
        "offset": 1,
        "slot": "1",
        "type": "t_bool"
      },
      {
        "astId": 5486,
        "contract": "contracts/MultiRewardsMasterChef.sol:MultiRewardsMasterChef",
        "label": "admin",
        "offset": 2,
        "slot": "1",
        "type": "t_address"
      },
      {
        "astId": 5535,
        "contract": "contracts/MultiRewardsMasterChef.sol:MultiRewardsMasterChef",
        "label": "rewardSpecs",
        "offset": 0,
        "slot": "2",
        "type": "t_array(t_struct(RewardSpec)5531_storage)dyn_storage"
      },
      {
        "astId": 5538,
        "contract": "contracts/MultiRewardsMasterChef.sol:MultiRewardsMasterChef",
        "label": "migrator",
        "offset": 0,
        "slot": "3",
        "type": "t_contract(IMigratorChef)5473"
      },
      {
        "astId": 5542,
        "contract": "contracts/MultiRewardsMasterChef.sol:MultiRewardsMasterChef",
        "label": "poolInfo",
        "offset": 0,
        "slot": "4",
        "type": "t_array(t_struct(PoolInfo)5513_storage)dyn_storage"
      },
      {
        "astId": 5548,
        "contract": "contracts/MultiRewardsMasterChef.sol:MultiRewardsMasterChef",
        "label": "poolsRewardsAccRewardsPerShare",
        "offset": 0,
        "slot": "5",
        "type": "t_mapping(t_uint256,t_mapping(t_uint256,t_uint256))"
      },
      {
        "astId": 5555,
        "contract": "contracts/MultiRewardsMasterChef.sol:MultiRewardsMasterChef",
        "label": "userInfo",
        "offset": 0,
        "slot": "6",
        "type": "t_mapping(t_uint256,t_mapping(t_address,t_struct(UserInfo)5499_storage))"
      },
      {
        "astId": 5558,
        "contract": "contracts/MultiRewardsMasterChef.sol:MultiRewardsMasterChef",
        "label": "totalAllocPoint",
        "offset": 0,
        "slot": "7",
        "type": "t_uint256"
      }
    ],
    "types": {
      "t_address": {
        "encoding": "inplace",
        "label": "address",
        "numberOfBytes": "20"
      },
      "t_array(t_struct(PoolInfo)5513_storage)dyn_storage": {
        "base": "t_struct(PoolInfo)5513_storage",
        "encoding": "dynamic_array",
        "label": "struct MultiRewardsMasterChef.PoolInfo[]",
        "numberOfBytes": "32"
      },
      "t_array(t_struct(RewardSpec)5531_storage)dyn_storage": {
        "base": "t_struct(RewardSpec)5531_storage",
        "encoding": "dynamic_array",
        "label": "struct MultiRewardsMasterChef.RewardSpec[]",
        "numberOfBytes": "32"
      },
      "t_bool": {
        "encoding": "inplace",
        "label": "bool",
        "numberOfBytes": "1"
      },
      "t_contract(IERC20)1887": {
        "encoding": "inplace",
        "label": "contract IERC20",
        "numberOfBytes": "20"
      },
      "t_contract(IMigratorChef)5473": {
        "encoding": "inplace",
        "label": "contract IMigratorChef",
        "numberOfBytes": "20"
      },
      "t_mapping(t_address,t_struct(UserInfo)5499_storage)": {
        "encoding": "mapping",
        "key": "t_address",
        "label": "mapping(address => struct MultiRewardsMasterChef.UserInfo)",
        "numberOfBytes": "32",
        "value": "t_struct(UserInfo)5499_storage"
      },
      "t_mapping(t_uint256,t_mapping(t_address,t_struct(UserInfo)5499_storage))": {
        "encoding": "mapping",
        "key": "t_uint256",
        "label": "mapping(uint256 => mapping(address => struct MultiRewardsMasterChef.UserInfo))",
        "numberOfBytes": "32",
        "value": "t_mapping(t_address,t_struct(UserInfo)5499_storage)"
      },
      "t_mapping(t_uint256,t_mapping(t_uint256,t_uint256))": {
        "encoding": "mapping",
        "key": "t_uint256",
        "label": "mapping(uint256 => mapping(uint256 => uint256))",
        "numberOfBytes": "32",
        "value": "t_mapping(t_uint256,t_uint256)"
      },
      "t_mapping(t_uint256,t_uint256)": {
        "encoding": "mapping",
        "key": "t_uint256",
        "label": "mapping(uint256 => uint256)",
        "numberOfBytes": "32",
        "value": "t_uint256"
      },
      "t_struct(PoolInfo)5513_storage": {
        "encoding": "inplace",
        "label": "struct MultiRewardsMasterChef.PoolInfo",
        "members": [
          {
            "astId": 5502,
            "contract": "contracts/MultiRewardsMasterChef.sol:MultiRewardsMasterChef",
            "label": "lpToken",
            "offset": 0,
            "slot": "0",
            "type": "t_contract(IERC20)1887"
          },
          {
            "astId": 5504,
            "contract": "contracts/MultiRewardsMasterChef.sol:MultiRewardsMasterChef",
            "label": "allocPoint",
            "offset": 0,
            "slot": "1",
            "type": "t_uint256"
          },
          {
            "astId": 5506,
            "contract": "contracts/MultiRewardsMasterChef.sol:MultiRewardsMasterChef",
            "label": "lastRewardBlock",
            "offset": 0,
            "slot": "2",
            "type": "t_uint256"
          },
          {
            "astId": 5509,
            "contract": "contracts/MultiRewardsMasterChef.sol:MultiRewardsMasterChef",
            "label": "proxyFarmer",
            "offset": 0,
            "slot": "3",
            "type": "t_address"
          },
          {
            "astId": 5512,
            "contract": "contracts/MultiRewardsMasterChef.sol:MultiRewardsMasterChef",
            "label": "totalAmount",
            "offset": 0,
            "slot": "4",
            "type": "t_uint256"
          }
        ],
        "numberOfBytes": "160"
      },
      "t_struct(RewardSpec)5531_storage": {
        "encoding": "inplace",
        "label": "struct MultiRewardsMasterChef.RewardSpec",
        "members": [
          {
            "astId": 5522,
            "contract": "contracts/MultiRewardsMasterChef.sol:MultiRewardsMasterChef",
            "label": "token",
            "offset": 0,
            "slot": "0",
            "type": "t_contract(IERC20)1887"
          },
          {
            "astId": 5524,
            "contract": "contracts/MultiRewardsMasterChef.sol:MultiRewardsMasterChef",
            "label": "rewardPerBlock",
            "offset": 0,
            "slot": "1",
            "type": "t_uint256"
          },
          {
            "astId": 5526,
            "contract": "contracts/MultiRewardsMasterChef.sol:MultiRewardsMasterChef",
            "label": "startedAtBlock",
            "offset": 0,
            "slot": "2",
            "type": "t_uint256"
          },
          {
            "astId": 5528,
            "contract": "contracts/MultiRewardsMasterChef.sol:MultiRewardsMasterChef",
            "label": "endedAtBlock",
            "offset": 0,
            "slot": "3",
            "type": "t_uint256"
          },
          {
            "astId": 5530,
            "contract": "contracts/MultiRewardsMasterChef.sol:MultiRewardsMasterChef",
            "label": "claimedAmount",
            "offset": 0,
            "slot": "4",
            "type": "t_uint256"
          }
        ],
        "numberOfBytes": "160"
      },
      "t_struct(UserInfo)5499_storage": {
        "encoding": "inplace",
        "label": "struct MultiRewardsMasterChef.UserInfo",
        "members": [
          {
            "astId": 5488,
            "contract": "contracts/MultiRewardsMasterChef.sol:MultiRewardsMasterChef",
            "label": "amount",
            "offset": 0,
            "slot": "0",
            "type": "t_uint256"
          },
          {
            "astId": 5493,
            "contract": "contracts/MultiRewardsMasterChef.sol:MultiRewardsMasterChef",
            "label": "claimedRewards",
            "offset": 0,
            "slot": "1",
            "type": "t_mapping(t_uint256,t_uint256)"
          },
          {
            "astId": 5498,
            "contract": "contracts/MultiRewardsMasterChef.sol:MultiRewardsMasterChef",
            "label": "rewardDebt",
            "offset": 0,
            "slot": "2",
            "type": "t_mapping(t_uint256,t_uint256)"
          }
        ],
        "numberOfBytes": "96"
      },
      "t_uint256": {
        "encoding": "inplace",
        "label": "uint256",
        "numberOfBytes": "32"
      },
      "t_uint8": {
        "encoding": "inplace",
        "label": "uint8",
        "numberOfBytes": "1"
      }
    }
  }
}