{
  "address": "0xC18bfB651Cb57f24779a6792AE991BCB9728241F",
  "abi": [
    {
      "anonymous": false,
      "inputs": [
        {
          "indexed": true,
          "internalType": "address",
          "name": "previousAdmin",
          "type": "address"
        },
        {
          "indexed": true,
          "internalType": "address",
          "name": "newAdmin",
          "type": "address"
        }
      ],
      "name": "AdminChanged",
      "type": "event"
    },
    {
      "anonymous": false,
      "inputs": [
        {
          "indexed": true,
          "internalType": "address",
          "name": "user",
          "type": "address"
        },
        {
          "indexed": true,
          "internalType": "uint256",
          "name": "pid",
          "type": "uint256"
        }
      ],
      "name": "ClaimRewards",
      "type": "event"
    },
    {
      "anonymous": false,
      "inputs": [
        {
          "indexed": true,
          "internalType": "address",
          "name": "user",
          "type": "address"
        },
        {
          "indexed": true,
          "internalType": "uint256",
          "name": "pid",
          "type": "uint256"
        },
        {
          "indexed": false,
          "internalType": "uint256",
          "name": "amount",
          "type": "uint256"
        }
      ],
      "name": "Deposit",
      "type": "event"
    },
    {
      "anonymous": false,
      "inputs": [
        {
          "indexed": true,
          "internalType": "address",
          "name": "user",
          "type": "address"
        },
        {
          "indexed": true,
          "internalType": "uint256",
          "name": "pid",
          "type": "uint256"
        },
        {
          "indexed": false,
          "internalType": "uint256",
          "name": "amount",
          "type": "uint256"
        }
      ],
      "name": "EmergencyWithdraw",
      "type": "event"
    },
    {
      "anonymous": false,
      "inputs": [
        {
          "indexed": false,
          "internalType": "uint8",
          "name": "version",
          "type": "uint8"
        }
      ],
      "name": "Initialized",
      "type": "event"
    },
    {
      "anonymous": false,
      "inputs": [
        {
          "indexed": true,
          "internalType": "uint256",
          "name": "pid",
          "type": "uint256"
        },
        {
          "indexed": true,
          "internalType": "address",
          "name": "lpToken",
          "type": "address"
        },
        {
          "indexed": true,
          "internalType": "address",
          "name": "proxyFarmer",
          "type": "address"
        },
        {
          "indexed": false,
          "internalType": "uint256",
          "name": "allocPoint",
          "type": "uint256"
        }
      ],
      "name": "PoolAdded",
      "type": "event"
    },
    {
      "anonymous": false,
      "inputs": [
        {
          "indexed": true,
          "internalType": "uint256",
          "name": "pid",
          "type": "uint256"
        },
        {
          "indexed": false,
          "internalType": "uint256",
          "name": "allocPoint",
          "type": "uint256"
        }
      ],
      "name": "PoolUpdated",
      "type": "event"
    },
    {
      "anonymous": false,
      "inputs": [
        {
          "indexed": true,
          "internalType": "uint256",
          "name": "rewardId",
          "type": "uint256"
        },
        {
          "indexed": true,
          "internalType": "address",
          "name": "rewardToken",
          "type": "address"
        },
        {
          "indexed": false,
          "internalType": "uint256",
          "name": "rewardPerBlock",
          "type": "uint256"
        },
        {
          "indexed": false,
          "internalType": "uint256",
          "name": "startedAtBlock",
          "type": "uint256"
        },
        {
          "indexed": false,
          "internalType": "uint256",
          "name": "endedAtBlock",
          "type": "uint256"
        }
      ],
      "name": "RewardSpecAdded",
      "type": "event"
    },
    {
      "anonymous": false,
      "inputs": [
        {
          "indexed": true,
          "internalType": "uint256",
          "name": "rewardId",
          "type": "uint256"
        },
        {
          "indexed": false,
          "internalType": "uint256",
          "name": "rewardPerBlock",
          "type": "uint256"
        },
        {
          "indexed": false,
          "internalType": "uint256",
          "name": "startedAtBlock",
          "type": "uint256"
        },
        {
          "indexed": false,
          "internalType": "uint256",
          "name": "endedAtBlock",
          "type": "uint256"
        }
      ],
      "name": "RewardSpecUpdated",
      "type": "event"
    },
    {
      "anonymous": false,
      "inputs": [
        {
          "indexed": true,
          "internalType": "address",
          "name": "user",
          "type": "address"
        },
        {
          "indexed": true,
          "internalType": "uint256",
          "name": "pid",
          "type": "uint256"
        },
        {
          "indexed": false,
          "internalType": "uint256",
          "name": "amount",
          "type": "uint256"
        }
      ],
      "name": "Withdraw",
      "type": "event"
    },
    {
      "inputs": [
        {
          "internalType": "uint256",
          "name": "_allocPoint",
          "type": "uint256"
        },
        {
          "internalType": "contract IERC20",
          "name": "_lpToken",
          "type": "address"
        },
        {
          "internalType": "address",
          "name": "_proxyFarmer",
          "type": "address"
        },
        {
          "internalType": "bool",
          "name": "_withUpdate",
          "type": "bool"
        }
      ],
      "name": "add",
      "outputs": [
        {
          "internalType": "uint256",
          "name": "pid",
          "type": "uint256"
        }
      ],
      "stateMutability": "nonpayable",
      "type": "function"
    },
    {
      "inputs": [
        {
          "internalType": "contract IERC20",
          "name": "token",
          "type": "address"
        },
        {
          "internalType": "uint256",
          "name": "rewardPerBlock",
          "type": "uint256"
        },
        {
          "internalType": "uint256",
          "name": "startedAtBlock",
          "type": "uint256"
        },
        {
          "internalType": "uint256",
          "name": "endedAtBlock",
          "type": "uint256"
        }
      ],
      "name": "addRewardSpec",
      "outputs": [
        {
          "internalType": "uint256",
          "name": "rewardId",
          "type": "uint256"
        }
      ],
      "stateMutability": "nonpayable",
      "type": "function"
    },
    {
      "inputs": [],
      "name": "admin",
      "outputs": [
        {
          "internalType": "address",
          "name": "",
          "type": "address"
        }
      ],
      "stateMutability": "view",
      "type": "function"
    },
    {
      "inputs": [
        {
          "internalType": "uint256",
          "name": "_pid",
          "type": "uint256"
        },
        {
          "internalType": "uint256",
          "name": "_amount",
          "type": "uint256"
        }
      ],
      "name": "deposit",
      "outputs": [],
      "stateMutability": "nonpayable",
      "type": "function"
    },
    {
      "inputs": [
        {
          "internalType": "uint256",
          "name": "_pid",
          "type": "uint256"
        },
        {
          "internalType": "uint256",
          "name": "_amount",
          "type": "uint256"
        },
        {
          "internalType": "address",
          "name": "user_",
          "type": "address"
        }
      ],
      "name": "depositForUser",
      "outputs": [],
      "stateMutability": "nonpayable",
      "type": "function"
    },
    {
      "inputs": [
        {
          "internalType": "uint256",
          "name": "_pid",
          "type": "uint256"
        }
      ],
      "name": "emergencyWithdraw",
      "outputs": [],
      "stateMutability": "nonpayable",
      "type": "function"
    },
    {
      "inputs": [
        {
          "internalType": "uint256",
          "name": "_from",
          "type": "uint256"
        },
        {
          "internalType": "uint256",
          "name": "_to",
          "type": "uint256"
        },
        {
          "internalType": "uint256",
          "name": "rewardId",
          "type": "uint256"
        }
      ],
      "name": "getMultiplier",
      "outputs": [
        {
          "internalType": "uint256",
          "name": "",
          "type": "uint256"
        }
      ],
      "stateMutability": "view",
      "type": "function"
    },
    {
      "inputs": [],
      "name": "getRewardSpecsLength",
      "outputs": [
        {
          "internalType": "uint256",
          "name": "",
          "type": "uint256"
        }
      ],
      "stateMutability": "view",
      "type": "function"
    },
    {
      "inputs": [
        {
          "internalType": "uint256",
          "name": "pid_",
          "type": "uint256"
        },
        {
          "internalType": "address",
          "name": "user_",
          "type": "address"
        }
      ],
      "name": "getUserAmount",
      "outputs": [
        {
          "internalType": "uint256",
          "name": "",
          "type": "uint256"
        }
      ],
      "stateMutability": "view",
      "type": "function"
    },
    {
      "inputs": [
        {
          "internalType": "uint256",
          "name": "pid_",
          "type": "uint256"
        },
        {
          "internalType": "address",
          "name": "user_",
          "type": "address"
        },
        {
          "internalType": "uint256",
          "name": "rewardId_",
          "type": "uint256"
        }
      ],
      "name": "getUserClaimedRewards",
      "outputs": [
        {
          "internalType": "uint256",
          "name": "",
          "type": "uint256"
        }
      ],
      "stateMutability": "view",
      "type": "function"
    },
    {
      "inputs": [
        {
          "internalType": "uint256",
          "name": "pid_",
          "type": "uint256"
        },
        {
          "internalType": "address",
          "name": "user_",
          "type": "address"
        },
        {
          "internalType": "uint256",
          "name": "rewardId_",
          "type": "uint256"
        }
      ],
      "name": "getUserRewardDebit",
      "outputs": [
        {
          "internalType": "uint256",
          "name": "",
          "type": "uint256"
        }
      ],
      "stateMutability": "view",
      "type": "function"
    },
    {
      "inputs": [
        {
          "internalType": "address",
          "name": "admin_",
          "type": "address"
        }
      ],
      "name": "initialize",
      "outputs": [],
      "stateMutability": "nonpayable",
      "type": "function"
    },
    {
      "inputs": [],
      "name": "massUpdatePools",
      "outputs": [],
      "stateMutability": "nonpayable",
      "type": "function"
    },
    {
      "inputs": [
        {
          "internalType": "uint256",
          "name": "_pid",
          "type": "uint256"
        }
      ],
      "name": "migrate",
      "outputs": [],
      "stateMutability": "nonpayable",
      "type": "function"
    },
    {
      "inputs": [],
      "name": "migrator",
      "outputs": [
        {
          "internalType": "contract IMigratorChef",
          "name": "",
          "type": "address"
        }
      ],
      "stateMutability": "view",
      "type": "function"
    },
    {
      "inputs": [
        {
          "internalType": "uint256",
          "name": "_pid",
          "type": "uint256"
        },
        {
          "internalType": "address",
          "name": "_user",
          "type": "address"
        }
      ],
      "name": "pendingRewards",
      "outputs": [
        {
          "components": [
            {
              "internalType": "contract IERC20",
              "name": "token",
              "type": "address"
            },
            {
              "internalType": "uint256",
              "name": "amount",
              "type": "uint256"
            }
          ],
          "internalType": "struct MultiRewardsMasterChef.RewardInfo[]",
          "name": "",
          "type": "tuple[]"
        }
      ],
      "stateMutability": "view",
      "type": "function"
    },
    {
      "inputs": [
        {
          "internalType": "uint256",
          "name": "",
          "type": "uint256"
        }
      ],
      "name": "poolInfo",
      "outputs": [
        {
          "internalType": "contract IERC20",
          "name": "lpToken",
          "type": "address"
        },
        {
          "internalType": "uint256",
          "name": "allocPoint",
          "type": "uint256"
        },
        {
          "internalType": "uint256",
          "name": "lastRewardBlock",
          "type": "uint256"
        },
        {
          "internalType": "address",
          "name": "proxyFarmer",
          "type": "address"
        },
        {
          "internalType": "uint256",
          "name": "totalAmount",
          "type": "uint256"
        }
      ],
      "stateMutability": "view",
      "type": "function"
    },
    {
      "inputs": [],
      "name": "poolLength",
      "outputs": [
        {
          "internalType": "uint256",
          "name": "",
          "type": "uint256"
        }
      ],
      "stateMutability": "view",
      "type": "function"
    },
    {
      "inputs": [
        {
          "internalType": "uint256",
          "name": "",
          "type": "uint256"
        },
        {
          "internalType": "uint256",
          "name": "",
          "type": "uint256"
        }
      ],
      "name": "poolsRewardsAccRewardsPerShare",
      "outputs": [
        {
          "internalType": "uint256",
          "name": "",
          "type": "uint256"
        }
      ],
      "stateMutability": "view",
      "type": "function"
    },
    {
      "inputs": [
        {
          "internalType": "uint256",
          "name": "",
          "type": "uint256"
        }
      ],
      "name": "rewardSpecs",
      "outputs": [
        {
          "internalType": "contract IERC20",
          "name": "token",
          "type": "address"
        },
        {
          "internalType": "uint256",
          "name": "rewardPerBlock",
          "type": "uint256"
        },
        {
          "internalType": "uint256",
          "name": "startedAtBlock",
          "type": "uint256"
        },
        {
          "internalType": "uint256",
          "name": "endedAtBlock",
          "type": "uint256"
        },
        {
          "internalType": "uint256",
          "name": "claimedAmount",
          "type": "uint256"
        }
      ],
      "stateMutability": "view",
      "type": "function"
    },
    {
      "inputs": [
        {
          "internalType": "uint256",
          "name": "_pid",
          "type": "uint256"
        },
        {
          "internalType": "uint256",
          "name": "_allocPoint",
          "type": "uint256"
        },
        {
          "internalType": "bool",
          "name": "_withUpdate",
          "type": "bool"
        }
      ],
      "name": "set",
      "outputs": [],
      "stateMutability": "nonpayable",
      "type": "function"
    },
    {
      "inputs": [
        {
          "internalType": "address",
          "name": "admin_",
          "type": "address"
        }
      ],
      "name": "setAdmin",
      "outputs": [],
      "stateMutability": "nonpayable",
      "type": "function"
    },
    {
      "inputs": [
        {
          "internalType": "contract IMigratorChef",
          "name": "_migrator",
          "type": "address"
        }
      ],
      "name": "setMigrator",
      "outputs": [],
      "stateMutability": "nonpayable",
      "type": "function"
    },
    {
      "inputs": [
        {
          "internalType": "uint256",
          "name": "rewardId",
          "type": "uint256"
        },
        {
          "internalType": "uint256",
          "name": "rewardPerBlock",
          "type": "uint256"
        },
        {
          "internalType": "uint256",
          "name": "startedAtBlock",
          "type": "uint256"
        },
        {
          "internalType": "uint256",
          "name": "endedAtBlock",
          "type": "uint256"
        }
      ],
      "name": "setRewardSpec",
      "outputs": [],
      "stateMutability": "nonpayable",
      "type": "function"
    },
    {
      "inputs": [],
      "name": "totalAllocPoint",
      "outputs": [
        {
          "internalType": "uint256",
          "name": "",
          "type": "uint256"
        }
      ],
      "stateMutability": "view",
      "type": "function"
    },
    {
      "inputs": [
        {
          "internalType": "uint256",
          "name": "_pid",
          "type": "uint256"
        }
      ],
      "name": "updatePool",
      "outputs": [],
      "stateMutability": "nonpayable",
      "type": "function"
    },
    {
      "inputs": [
        {
          "internalType": "uint256",
          "name": "",
          "type": "uint256"
        },
        {
          "internalType": "address",
          "name": "",
          "type": "address"
        }
      ],
      "name": "userInfo",
      "outputs": [
        {
          "internalType": "uint256",
          "name": "amount",
          "type": "uint256"
        }
      ],
      "stateMutability": "view",
      "type": "function"
    },
    {
      "inputs": [
        {
          "internalType": "uint256",
          "name": "_pid",
          "type": "uint256"
        },
        {
          "internalType": "uint256",
          "name": "_amount",
          "type": "uint256"
        }
      ],
      "name": "withdraw",
      "outputs": [],
      "stateMutability": "nonpayable",
      "type": "function"
    },
    {
      "inputs": [
        {
          "internalType": "uint256",
          "name": "_pid",
          "type": "uint256"
        },
        {
          "internalType": "uint256",
          "name": "_amount",
          "type": "uint256"
        },
        {
          "internalType": "address",
          "name": "user_",
          "type": "address"
        }
      ],
      "name": "withdrawForUser",
      "outputs": [],
      "stateMutability": "nonpayable",
      "type": "function"
    }
  ],
  "transactionHash": "0x9bec6e2a344536bfae3cfc553eb91a4533e252b12d27655a629de29c38de5c5f",
  "args": [],
  "numDeployments": 2,
  "solcInputHash": "e4d473242e9fec77f279c6086d6c656f",
  "bytecode": "0x6080604052600060075534801561001557600080fd5b50600160005561292e8061002a6000396000f3fe608060405234801561001057600080fd5b50600436106101cf5760003560e01c8063704b6c0211610104578063c4d66de8116100a2578063e15a003a11610071578063e15a003a146104a6578063e2bbb158146104b9578063f4014261146104cc578063f851a440146104df57600080fd5b8063c4d66de81461041b578063c71b4b431461042e578063d18df53c14610441578063e11f2f7d1461046157600080fd5b806393f1a40b116100de57806393f1a40b14610392578063a3f30d27146103bd578063a754837a146103d0578063b3c799d61461041357600080fd5b8063704b6c02146103415780637bafb029146103545780637cd07e471461036757600080fd5b8063441a3e70116101715780635312ea8e1161014b5780635312ea8e146102e8578063630b5ba1146102fb57806364482f79146103035780636d053f821461031657600080fd5b8063441a3e70146102af578063454b0608146102c257806351eb05a6146102d557600080fd5b806317caf6f1116101ad57806317caf6f11461024857806323cf3118146102515780633437586b1461026657806338cc39af1461029c57600080fd5b8063081e3eda146101d45780630f03a24a146101eb5780631526fe27146101fe575b600080fd5b6004545b6040519081526020015b60405180910390f35b6101d86101f93660046123e9565b6104f8565b61021161020c366004612421565b61052e565b604080516001600160a01b03968716815260208101959095528401929092529092166060820152608081019190915260a0016101e2565b6101d860075481565b61026461025f36600461243a565b61057b565b005b6101d8610274366004612457565b60009182526006602090815260408084206001600160a01b0393909316845291905290205490565b6102646102aa366004612487565b6105d6565b6102646102bd3660046124b9565b6108b7565b6102646102d0366004612421565b6108c6565b6102646102e3366004612421565b610b5d565b6102646102f6366004612421565b610c93565b610264610df2565b6102646103113660046124e9565b610e19565b6101d86103243660046124b9565b600560209081526000928352604080842090915290825290205481565b61026461034f36600461243a565b610f13565b6101d8610362366004612522565b610ff5565b60035461037a906001600160a01b031681565b6040516001600160a01b0390911681526020016101e2565b6101d86103a0366004612457565b600660209081526000928352604080842090915290825290205481565b6102646103cb36600461254e565b61107e565b6101d86103de3660046123e9565b60008381526006602090815260408083206001600160a01b038616845282528083208484526002019091529020549392505050565b6002546101d8565b61026461042936600461243a565b61108e565b6101d861043c36600461257c565b61111c565b61045461044f366004612457565b611380565b6040516101e291906125cf565b61047461046f366004612421565b6115d2565b604080516001600160a01b0390961686526020860194909452928401919091526060830152608082015260a0016101e2565b6102646104b436600461254e565b61161d565b6102646104c73660046124b9565b611628565b6101d86104da366004612627565b611633565b60015461037a906201000090046001600160a01b031681565b60008381526006602090815260408083206001600160a01b038616845282528083208484526001019091529020545b9392505050565b6004818154811061053e57600080fd5b6000918252602090912060059091020180546001820154600283015460038401546004909401546001600160a01b03938416955091939092169085565b6001546201000090046001600160a01b031633146105b45760405162461bcd60e51b81526004016105ab90612662565b60405180910390fd5b600380546001600160a01b0319166001600160a01b0392909216919091179055565b6001546201000090046001600160a01b031633146106065760405162461bcd60e51b81526004016105ab90612662565b60006002858154811061061b5761061b612686565b90600052602060002090600502019050438160020154116106b157806002015483146106b1576040805162461bcd60e51b81526020600482015260248101919091527f63616e206e6f74206d6f6469667920737461727465644174426c6f636b20616660448201527f74657220726577617264732068617320626567616e20616c6c6f636174696e6760648201526084016105ab565b43821161071b5760405162461bcd60e51b815260206004820152603260248201527f63616e206e6f74206d6f6469667920656e6465644174426c6f636b20746f2061604482015271103830b9ba10313637b1b590373ab6b132b960711b60648201526084016105ab565b82821161073a5760405162461bcd60e51b81526004016105ab9061269c565b610742610df2565b60008461074f8585612704565b610759919061271b565b82546040516370a0823160e01b81523060048201529192506000916001600160a01b03909116906370a082319060240160206040518083038186803b1580156107a157600080fd5b505afa1580156107b5573d6000803e3d6000fd5b505050506040513d601f19601f820116820180604052508101906107d9919061273a565b90508260040154816107eb9190612753565b82111561082a576108253330856004015484866108089190612704565b6108129190612704565b86546001600160a01b0316929190611897565b610856565b60048301546108399082612753565b821015610856576108563033848660040154856108089190612753565b600283018590556003830184905560018301869055604080518781526020810187905290810185905287907f530b7180ca2663982be0715862d074b6f7076d01f48fd143a4c82e0b7beebaf89060600160405180910390a250505050505050565b6108c2828233611908565b5050565b6001546201000090046001600160a01b031633146108f65760405162461bcd60e51b81526004016105ab90612662565b6003546001600160a01b03166109455760405162461bcd60e51b815260206004820152601460248201527336b4b3b930ba329d1037379036b4b3b930ba37b960611b60448201526064016105ab565b60006004828154811061095a5761095a612686565b6000918252602082206005919091020180546040516370a0823160e01b81523060048201529193506001600160a01b0316919082906370a082319060240160206040518083038186803b1580156109b057600080fd5b505afa1580156109c4573d6000803e3d6000fd5b505050506040513d601f19601f820116820180604052508101906109e8919061273a565b600354909150610a05906001600160a01b03848116911683611c7e565b60035460405163ce5494bb60e01b81526001600160a01b038481166004830152600092169063ce5494bb90602401602060405180830381600087803b158015610a4d57600080fd5b505af1158015610a61573d6000803e3d6000fd5b505050506040513d601f19601f82011682018060405250810190610a85919061276b565b6040516370a0823160e01b81523060048201529091506001600160a01b038216906370a082319060240160206040518083038186803b158015610ac757600080fd5b505afa158015610adb573d6000803e3d6000fd5b505050506040513d601f19601f82011682018060405250810190610aff919061273a565b8214610b3c5760405162461bcd60e51b815260206004820152600c60248201526b1b5a59dc985d194e8818985960a21b60448201526064016105ab565b83546001600160a01b0319166001600160a01b039190911617909255505050565b600060048281548110610b7257610b72612686565b9060005260206000209060050201905080600201544311610b91575050565b600481015480610ba657504360029091015550565b60005b600254811015610c8757600060028281548110610bc857610bc8612686565b906000526020600020906005020190506000610be985600201544385610ff5565b90506000610c1e600754610c188860010154610c12876001015487611da290919063ffffffff16565b90611da2565b90611dae565b9050610c56610c3686610c188464e8d4a51000611da2565b600089815260056020908152604080832089845290915290205490611dba565b600088815260056020908152604080832088845290915290205550829150610c7f905081612788565b915050610ba9565b50504360029091015550565b60026000541415610cb65760405162461bcd60e51b81526004016105ab906127a3565b600260009081556004805483908110610cd157610cd1612686565b60009182526020808320858452600682526040808520338652909252922060036005909202909201908101549092506001600160a01b0316610d4b5760405162461bcd60e51b81526020600482015260136024820152726e6f7468696e6720746f20776974686472617760681b60448201526064016105ab565b80546004830154610d5b91611dc6565b600483015580548254610d7b916001600160a01b03909116903390611dd2565b60008082555b600254811015610dae57600081815260028301602052604081205580610da681612788565b915050610d81565b508054604051908152839033907fbb757047c2b5f3974fe26b7c10f732e7bce710b0952a71082702781e62ae05959060200160405180910390a35050600160005550565b60045460005b818110156108c257610e0981610b5d565b610e1281612788565b9050610df8565b6001546201000090046001600160a01b03163314610e495760405162461bcd60e51b81526004016105ab90612662565b8015610e5757610e57610df2565b600060048481548110610e6c57610e6c612686565b90600052602060002090600502016001015490508260048581548110610e9457610e94612686565b906000526020600020906005020160010181905550828114610ed357610ecf83610ec983600754611dc690919063ffffffff16565b90611dba565b6007555b837f7fa9647ec1cc14e3822b46d05a2b9d4e019bde8875c0088c46b6503d71bf172284604051610f0591815260200190565b60405180910390a250505050565b6001546201000090046001600160a01b03163314610f435760405162461bcd60e51b81526004016105ab90612662565b6001600160a01b038116610f995760405162461bcd60e51b815260206004820152601760248201527f63616e206e6f74206265207a65726f206164647265737300000000000000000060448201526064016105ab565b600180546001600160a01b038381166201000081810262010000600160b01b031985161790945560405193909204169182907f7e644d79422f17c01e4894b5f4f588d331ebfa28653d42ae832dc59e38c9798f90600090a35050565b6000806002838154811061100b5761100b612686565b906000526020600020906005020190508060020154841015611031576000915050610527565b806002015485101561104557806002015494505b806003015484111561105957806003015493505b8385111561106b576000915050610527565b6110758486611dc6565b95945050505050565b611089838383611e02565b505050565b600061109a60016120f6565b905080156110b2576001805461ff0019166101001790555b6001805462010000600160b01b031916620100006001600160a01b0385160217905580156108c2576001805461ff00191681556040519081527f7f26b83ff96e1f2b6a682f133852f6798a09c465da95921460cefb38474024989060200160405180910390a15050565b6001546000906201000090046001600160a01b0316331461114f5760405162461bcd60e51b81526004016105ab90612662565b811561115d5761115d610df2565b6001600160a01b038316156111dc576001600160a01b038416156111dc5760405162461bcd60e51b815260206004820152603060248201527f4c50546f6b656e2073686f756c6420626520616464726573732030207768656e60448201526f10383937bc34b2b2103330b936b2b91760811b60648201526084016105ab565b60075443906111eb9087611dba565b6007556040805160a0810182526001600160a01b0387811682526020820189815292820184815287821660608401908152600060808501818152600480546001808201835582855297517f8a35acfbc15ff81a39ae7d344fd709f28e8600b4aa8c65c6b64bfe7fe36bd19b600590920291820180546001600160a01b0319908116928a1692909217905598517f8a35acfbc15ff81a39ae7d344fd709f28e8600b4aa8c65c6b64bfe7fe36bd19c82015594517f8a35acfbc15ff81a39ae7d344fd709f28e8600b4aa8c65c6b64bfe7fe36bd19d86015592517f8a35acfbc15ff81a39ae7d344fd709f28e8600b4aa8c65c6b64bfe7fe36bd19e8501805490981695169490941790955591517f8a35acfbc15ff81a39ae7d344fd709f28e8600b4aa8c65c6b64bfe7fe36bd19f90910155546113269190612704565b9050846001600160a01b0316866001600160a01b0316827f32a60bdf9445a75fb5c95e4fb9c0131216cc2970d2dc89dd6a1babe40459c53c8a60405161136e91815260200190565b60405180910390a49695505050505050565b60025460609060009067ffffffffffffffff8111156113a1576113a16127da565b6040519080825280602002602001820160405280156113e657816020015b60408051808201909152600080825260208201528152602001906001900390816113bf5790505b5090506000600485815481106113fe576113fe612686565b600091825260208083208884526006825260408085206001600160a01b038a1686529092529083206005909202019250905b6002548110156115c75760006002828154811061144f5761144f612686565b9060005260206000209060050201905080600201544310156114ae576040805180820190915281546001600160a01b0316815260006020820152855186908490811061149d5761149d612686565b6020026020010181905250506115b5565b600088815260056020908152604080832085845290915290205460048501546002860154431180156114df57508015155b156115425760006114f587600201544387610ff5565b9050600061151e600754610c188a60010154610c12896001015487611da290919063ffffffff16565b905061153d61153684610c188464e8d4a51000611da2565b8590611dba565b935050505b60408051808201825284546001600160a01b0316815260008681526002880160209081529290205487549192830191611591919061158b9064e8d4a5100090610c189089611da2565b90611dc6565b8152508785815181106115a6576115a6612686565b60200260200101819052505050505b806115bf81612788565b915050611430565b509195945050505050565b600281815481106115e257600080fd5b6000918252602090912060059091020180546001820154600283015460038401546004909401546001600160a01b0390931694509092909185565b611089838383611908565b6108c2828233611e02565b6001546000906201000090046001600160a01b031633146116665760405162461bcd60e51b81526004016105ab90612662565b8282116116855760405162461bcd60e51b81526004016105ab9061269c565b600084116116e85760405162461bcd60e51b815260206004820152602a60248201527f726577617264506572426c6f636b2073686f756c642062652067726561746572604482015269207468616e207a65726f60b01b60648201526084016105ab565b6117143330866116f88787612704565b611702919061271b565b6001600160a01b038916929190611897565b6040805160a0810182526001600160a01b0387811682526020820187815292820186815260608301868152600060808501818152600280546001808201835582855297517f405787fa12a823e0f2b7631cc41b3ba8828b3321ca811111fa75cd3aa3bb5ace600590920291820180546001600160a01b031916919098161790965596517f405787fa12a823e0f2b7631cc41b3ba8828b3321ca811111fa75cd3aa3bb5acf86015592517f405787fa12a823e0f2b7631cc41b3ba8828b3321ca811111fa75cd3aa3bb5ad085015590517f405787fa12a823e0f2b7631cc41b3ba8828b3321ca811111fa75cd3aa3bb5ad184015590517f405787fa12a823e0f2b7631cc41b3ba8828b3321ca811111fa75cd3aa3bb5ad290920191909155915461183d9190612704565b60408051878152602081018790529081018590529091506001600160a01b0387169082907f5559fa33cc724bbfe0d3288dac40529fcc3ee1de0328f4739e13ec4b57eb03d19060600160405180910390a395945050505050565b6040516001600160a01b03808516602483015283166044820152606481018290526119029085906323b872dd60e01b906084015b60408051601f198184030181529190526020810180516001600160e01b03166001600160e01b03199093169290921790915261217e565b50505050565b6002600054141561192b5760405162461bcd60e51b81526004016105ab906127a3565b60026000908155600480548590811061194657611946612686565b600091825260208083208784526006825260408085206001600160a01b038816865290925292208054600590920290920192508411156119c85760405162461bcd60e51b815260206004820152601e60248201527f77697468647261773a20496e73756666696369656e742062616c616e6365000060448201526064016105ab565b60038201546001600160a01b031615611a305760038201546001600160a01b03163314611a2b5760405162461bcd60e51b815260206004820152601160248201527027b7363c90383937bc3c903330b936b2b960791b60448201526064016105ab565b611a88565b336001600160a01b03841614611a885760405162461bcd60e51b815260206004820152601b60248201527f43616e206e6f7420776974686472617720666f72206f7468657273000000000060448201526064016105ab565b611a9185610b5d565b60005b600254811015611be957600060028281548110611ab357611ab3612686565b600091825260208083208a8452600580835260408086208887529093529190932054865492909102909201925015611b985760008381526002850160205260408120548554611b12919061158b9064e8d4a5100090610c189087611da2565b90508015611b6e5780836004016000828254611b2e9190612753565b9091555050600084815260018601602052604081208054839290611b53908490612753565b90915550508254611b6e906001600160a01b03168883611dd2565b8454611b859064e8d4a5100090610c189085611da2565b6000858152600287016020526040902055505b8615611bd457611bc264e8d4a51000610c1883610c128b8960000154611dc690919063ffffffff16565b60008481526002860160205260409020555b50508080611be190612788565b915050611a94565b508315611c3a578054611bfc9085611dc6565b81556004820154611c0d9085611dc6565b600483015560038201546001600160a01b0316611c3a578154611c3a906001600160a01b03168486611dd2565b604051848152859033907ff279e6a1f5e320cca91135676d9cb6e44ca8a08c0b88342bcdb1144f6511b568906020015b60405180910390a350506001600055505050565b801580611d075750604051636eb1769f60e11b81523060048201526001600160a01b03838116602483015284169063dd62ed3e9060440160206040518083038186803b158015611ccd57600080fd5b505afa158015611ce1573d6000803e3d6000fd5b505050506040513d601f19601f82011682018060405250810190611d05919061273a565b155b611d725760405162461bcd60e51b815260206004820152603660248201527f5361666545524332303a20617070726f76652066726f6d206e6f6e2d7a65726f60448201527520746f206e6f6e2d7a65726f20616c6c6f77616e636560501b60648201526084016105ab565b6040516001600160a01b03831660248201526044810182905261108990849063095ea7b360e01b906064016118cb565b6000610527828461271b565b600061052782846127f0565b60006105278284612753565b60006105278284612704565b6040516001600160a01b03831660248201526044810182905261108990849063a9059cbb60e01b906064016118cb565b60026000541415611e255760405162461bcd60e51b81526004016105ab906127a3565b600260009081556004805485908110611e4057611e40612686565b6000918252602090912060059091020160038101549091506001600160a01b031615611ebb5760038101546001600160a01b03163314611eb65760405162461bcd60e51b815260206004820152601160248201527027b7363c90383937bc3c903330b936b2b960791b60448201526064016105ab565b611f13565b336001600160a01b03831614611f135760405162461bcd60e51b815260206004820152601a60248201527f43616e206e6f74206465706f73697420666f72206f746865727300000000000060448201526064016105ab565b60008481526006602090815260408083206001600160a01b03861684529091529020611f3e85610b5d565b60005b60025481101561206757600060028281548110611f6057611f60612686565b600091825260208083208a845260058083526040808620888752909352919093205486549290910290920192501561201d5760008381526002850160205260408120548554611fbf919061158b9064e8d4a5100090610c189087611da2565b9050801561201b5780836004016000828254611fdb9190612753565b9091555050600084815260018601602052604081208054839290612000908490612753565b9091555050825461201b906001600160a01b03168883611dd2565b505b61204164e8d4a51000610c1883610c128b8960000154611dba90919063ffffffff16565b60008481526002860160205260409020555081905061205f81612788565b915050611f41565b5083156120ba5760038201546001600160a01b0316612097578154612097906001600160a01b0316843087611897565b60048201546120a69085611dba565b600483015580546120b79085611dba565b81555b84836001600160a01b03167f90890809c654f11d6e72a28fa60149770a0d11ec6c92319d6ceb2bb0a4ea1a1586604051611c6a91815260200190565b600154600090610100900460ff161561213f578160ff16600114801561211b5750303b155b6121375760405162461bcd60e51b81526004016105ab90612812565b506000919050565b60015460ff8084169116106121665760405162461bcd60e51b81526004016105ab90612812565b506001805460ff191660ff9290921691909117815590565b60006121d3826040518060400160405280602081526020017f5361666545524332303a206c6f772d6c6576656c2063616c6c206661696c6564815250856001600160a01b03166122509092919063ffffffff16565b80519091501561108957808060200190518101906121f19190612860565b6110895760405162461bcd60e51b815260206004820152602a60248201527f5361666545524332303a204552433230206f7065726174696f6e20646964206e6044820152691bdd081cdd58d8d9595960b21b60648201526084016105ab565b606061225f8484600085612267565b949350505050565b6060824710156122c85760405162461bcd60e51b815260206004820152602660248201527f416464726573733a20696e73756666696369656e742062616c616e636520666f6044820152651c8818d85b1b60d21b60648201526084016105ab565b6001600160a01b0385163b61231f5760405162461bcd60e51b815260206004820152601d60248201527f416464726573733a2063616c6c20746f206e6f6e2d636f6e747261637400000060448201526064016105ab565b600080866001600160a01b0316858760405161233b91906128a9565b60006040518083038185875af1925050503d8060008114612378576040519150601f19603f3d011682016040523d82523d6000602084013e61237d565b606091505b509150915061238d828286612398565b979650505050505050565b606083156123a7575081610527565b8251156123b75782518084602001fd5b8160405162461bcd60e51b81526004016105ab91906128c5565b6001600160a01b03811681146123e657600080fd5b50565b6000806000606084860312156123fe57600080fd5b833592506020840135612410816123d1565b929592945050506040919091013590565b60006020828403121561243357600080fd5b5035919050565b60006020828403121561244c57600080fd5b8135610527816123d1565b6000806040838503121561246a57600080fd5b82359150602083013561247c816123d1565b809150509250929050565b6000806000806080858703121561249d57600080fd5b5050823594602084013594506040840135936060013592509050565b600080604083850312156124cc57600080fd5b50508035926020909101359150565b80151581146123e657600080fd5b6000806000606084860312156124fe57600080fd5b83359250602084013591506040840135612517816124db565b809150509250925092565b60008060006060848603121561253757600080fd5b505081359360208301359350604090920135919050565b60008060006060848603121561256357600080fd5b83359250602084013591506040840135612517816123d1565b6000806000806080858703121561259257600080fd5b8435935060208501356125a4816123d1565b925060408501356125b4816123d1565b915060608501356125c4816124db565b939692955090935050565b602080825282518282018190526000919060409081850190868401855b8281101561261a57815180516001600160a01b031685528601518685015292840192908501906001016125ec565b5091979650505050505050565b6000806000806080858703121561263d57600080fd5b8435612648816123d1565b966020860135965060408601359560600135945092505050565b6020808252600a908201526927b7363c9030b236b4b760b11b604082015260600190565b634e487b7160e01b600052603260045260246000fd5b60208082526032908201527f656e6465644174426c6f636b2073686f756c642062652067726561746572207460408201527168616e20737461727465644174426c6f636b60701b606082015260800190565b634e487b7160e01b600052601160045260246000fd5b600082821015612716576127166126ee565b500390565b6000816000190483118215151615612735576127356126ee565b500290565b60006020828403121561274c57600080fd5b5051919050565b60008219821115612766576127666126ee565b500190565b60006020828403121561277d57600080fd5b8151610527816123d1565b600060001982141561279c5761279c6126ee565b5060010190565b6020808252601f908201527f5265656e7472616e637947756172643a207265656e7472616e742063616c6c00604082015260600190565b634e487b7160e01b600052604160045260246000fd5b60008261280d57634e487b7160e01b600052601260045260246000fd5b500490565b6020808252602e908201527f496e697469616c697a61626c653a20636f6e747261637420697320616c72656160408201526d191e481a5b9a5d1a585b1a5e995960921b606082015260800190565b60006020828403121561287257600080fd5b8151610527816124db565b60005b83811015612898578181015183820152602001612880565b838111156119025750506000910152565b600082516128bb81846020870161287d565b9190910192915050565b60208152600082518060208401526128e481604085016020870161287d565b601f01601f1916919091016040019291505056fea2646970667358221220c756181cce116e1a885dbde6fd9be53bf685b0809b776e5e1415cd2e83f8a58464736f6c63430008090033",
  "devdoc": {
    "kind": "dev",
    "methods": {},
    "version": 1
  },
  "userdoc": {
    "kind": "user",
    "methods": {},
    "version": 1
  },
  "storageLayout": {
    "storage": [
      {
        "astId": 1194,
        "contract": "contracts/MultiRewardsMasterChef.sol:MultiRewardsMasterChef",
        "label": "_status",
        "offset": 0,
        "slot": "0",
        "type": "t_uint256"
      },
      {
        "astId": 6,
        "contract": "contracts/MultiRewardsMasterChef.sol:MultiRewardsMasterChef",
        "label": "_initialized",
        "offset": 0,
        "slot": "1",
        "type": "t_uint8"
      },
      {
        "astId": 9,
        "contract": "contracts/MultiRewardsMasterChef.sol:MultiRewardsMasterChef",
        "label": "_initializing",
        "offset": 1,
        "slot": "1",
        "type": "t_bool"
      },
      {
        "astId": 5592,
        "contract": "contracts/MultiRewardsMasterChef.sol:MultiRewardsMasterChef",
        "label": "admin",
        "offset": 2,
        "slot": "1",
        "type": "t_address"
      },
      {
        "astId": 5641,
        "contract": "contracts/MultiRewardsMasterChef.sol:MultiRewardsMasterChef",
        "label": "rewardSpecs",
        "offset": 0,
        "slot": "2",
        "type": "t_array(t_struct(RewardSpec)5637_storage)dyn_storage"
      },
      {
        "astId": 5644,
        "contract": "contracts/MultiRewardsMasterChef.sol:MultiRewardsMasterChef",
        "label": "migrator",
        "offset": 0,
        "slot": "3",
        "type": "t_contract(IMigratorChef)5579"
      },
      {
        "astId": 5648,
        "contract": "contracts/MultiRewardsMasterChef.sol:MultiRewardsMasterChef",
        "label": "poolInfo",
        "offset": 0,
        "slot": "4",
        "type": "t_array(t_struct(PoolInfo)5619_storage)dyn_storage"
      },
      {
        "astId": 5654,
        "contract": "contracts/MultiRewardsMasterChef.sol:MultiRewardsMasterChef",
        "label": "poolsRewardsAccRewardsPerShare",
        "offset": 0,
        "slot": "5",
        "type": "t_mapping(t_uint256,t_mapping(t_uint256,t_uint256))"
      },
      {
        "astId": 5661,
        "contract": "contracts/MultiRewardsMasterChef.sol:MultiRewardsMasterChef",
        "label": "userInfo",
        "offset": 0,
        "slot": "6",
        "type": "t_mapping(t_uint256,t_mapping(t_address,t_struct(UserInfo)5605_storage))"
      },
      {
        "astId": 5664,
        "contract": "contracts/MultiRewardsMasterChef.sol:MultiRewardsMasterChef",
        "label": "totalAllocPoint",
        "offset": 0,
        "slot": "7",
        "type": "t_uint256"
      }
    ],
    "types": {
      "t_address": {
        "encoding": "inplace",
        "label": "address",
        "numberOfBytes": "20"
      },
      "t_array(t_struct(PoolInfo)5619_storage)dyn_storage": {
        "base": "t_struct(PoolInfo)5619_storage",
        "encoding": "dynamic_array",
        "label": "struct MultiRewardsMasterChef.PoolInfo[]",
        "numberOfBytes": "32"
      },
      "t_array(t_struct(RewardSpec)5637_storage)dyn_storage": {
        "base": "t_struct(RewardSpec)5637_storage",
        "encoding": "dynamic_array",
        "label": "struct MultiRewardsMasterChef.RewardSpec[]",
        "numberOfBytes": "32"
      },
      "t_bool": {
        "encoding": "inplace",
        "label": "bool",
        "numberOfBytes": "1"
      },
      "t_contract(IERC20)1887": {
        "encoding": "inplace",
        "label": "contract IERC20",
        "numberOfBytes": "20"
      },
      "t_contract(IMigratorChef)5579": {
        "encoding": "inplace",
        "label": "contract IMigratorChef",
        "numberOfBytes": "20"
      },
      "t_mapping(t_address,t_struct(UserInfo)5605_storage)": {
        "encoding": "mapping",
        "key": "t_address",
        "label": "mapping(address => struct MultiRewardsMasterChef.UserInfo)",
        "numberOfBytes": "32",
        "value": "t_struct(UserInfo)5605_storage"
      },
      "t_mapping(t_uint256,t_mapping(t_address,t_struct(UserInfo)5605_storage))": {
        "encoding": "mapping",
        "key": "t_uint256",
        "label": "mapping(uint256 => mapping(address => struct MultiRewardsMasterChef.UserInfo))",
        "numberOfBytes": "32",
        "value": "t_mapping(t_address,t_struct(UserInfo)5605_storage)"
      },
      "t_mapping(t_uint256,t_mapping(t_uint256,t_uint256))": {
        "encoding": "mapping",
        "key": "t_uint256",
        "label": "mapping(uint256 => mapping(uint256 => uint256))",
        "numberOfBytes": "32",
        "value": "t_mapping(t_uint256,t_uint256)"
      },
      "t_mapping(t_uint256,t_uint256)": {
        "encoding": "mapping",
        "key": "t_uint256",
        "label": "mapping(uint256 => uint256)",
        "numberOfBytes": "32",
        "value": "t_uint256"
      },
      "t_struct(PoolInfo)5619_storage": {
        "encoding": "inplace",
        "label": "struct MultiRewardsMasterChef.PoolInfo",
        "members": [
          {
            "astId": 5608,
            "contract": "contracts/MultiRewardsMasterChef.sol:MultiRewardsMasterChef",
            "label": "lpToken",
            "offset": 0,
            "slot": "0",
            "type": "t_contract(IERC20)1887"
          },
          {
            "astId": 5610,
            "contract": "contracts/MultiRewardsMasterChef.sol:MultiRewardsMasterChef",
            "label": "allocPoint",
            "offset": 0,
            "slot": "1",
            "type": "t_uint256"
          },
          {
            "astId": 5612,
            "contract": "contracts/MultiRewardsMasterChef.sol:MultiRewardsMasterChef",
            "label": "lastRewardBlock",
            "offset": 0,
            "slot": "2",
            "type": "t_uint256"
          },
          {
            "astId": 5615,
            "contract": "contracts/MultiRewardsMasterChef.sol:MultiRewardsMasterChef",
            "label": "proxyFarmer",
            "offset": 0,
            "slot": "3",
            "type": "t_address"
          },
          {
            "astId": 5618,
            "contract": "contracts/MultiRewardsMasterChef.sol:MultiRewardsMasterChef",
            "label": "totalAmount",
            "offset": 0,
            "slot": "4",
            "type": "t_uint256"
          }
        ],
        "numberOfBytes": "160"
      },
      "t_struct(RewardSpec)5637_storage": {
        "encoding": "inplace",
        "label": "struct MultiRewardsMasterChef.RewardSpec",
        "members": [
          {
            "astId": 5628,
            "contract": "contracts/MultiRewardsMasterChef.sol:MultiRewardsMasterChef",
            "label": "token",
            "offset": 0,
            "slot": "0",
            "type": "t_contract(IERC20)1887"
          },
          {
            "astId": 5630,
            "contract": "contracts/MultiRewardsMasterChef.sol:MultiRewardsMasterChef",
            "label": "rewardPerBlock",
            "offset": 0,
            "slot": "1",
            "type": "t_uint256"
          },
          {
            "astId": 5632,
            "contract": "contracts/MultiRewardsMasterChef.sol:MultiRewardsMasterChef",
            "label": "startedAtBlock",
            "offset": 0,
            "slot": "2",
            "type": "t_uint256"
          },
          {
            "astId": 5634,
            "contract": "contracts/MultiRewardsMasterChef.sol:MultiRewardsMasterChef",
            "label": "endedAtBlock",
            "offset": 0,
            "slot": "3",
            "type": "t_uint256"
          },
          {
            "astId": 5636,
            "contract": "contracts/MultiRewardsMasterChef.sol:MultiRewardsMasterChef",
            "label": "claimedAmount",
            "offset": 0,
            "slot": "4",
            "type": "t_uint256"
          }
        ],
        "numberOfBytes": "160"
      },
      "t_struct(UserInfo)5605_storage": {
        "encoding": "inplace",
        "label": "struct MultiRewardsMasterChef.UserInfo",
        "members": [
          {
            "astId": 5594,
            "contract": "contracts/MultiRewardsMasterChef.sol:MultiRewardsMasterChef",
            "label": "amount",
            "offset": 0,
            "slot": "0",
            "type": "t_uint256"
          },
          {
            "astId": 5599,
            "contract": "contracts/MultiRewardsMasterChef.sol:MultiRewardsMasterChef",
            "label": "claimedRewards",
            "offset": 0,
            "slot": "1",
            "type": "t_mapping(t_uint256,t_uint256)"
          },
          {
            "astId": 5604,
            "contract": "contracts/MultiRewardsMasterChef.sol:MultiRewardsMasterChef",
            "label": "rewardDebt",
            "offset": 0,
            "slot": "2",
            "type": "t_mapping(t_uint256,t_uint256)"
          }
        ],
        "numberOfBytes": "96"
      },
      "t_uint256": {
        "encoding": "inplace",
        "label": "uint256",
        "numberOfBytes": "32"
      },
      "t_uint8": {
        "encoding": "inplace",
        "label": "uint8",
        "numberOfBytes": "1"
      }
    }
  }
}