{
  "address": "0x724Fe80674e5491466710B3280E196190826a2dA",
  "abi": [
    {
      "anonymous": false,
      "inputs": [
        {
          "indexed": true,
          "internalType": "address",
          "name": "previousAdmin",
          "type": "address"
        },
        {
          "indexed": true,
          "internalType": "address",
          "name": "newAdmin",
          "type": "address"
        }
      ],
      "name": "AdminChanged",
      "type": "event"
    },
    {
      "anonymous": false,
      "inputs": [
        {
          "indexed": true,
          "internalType": "address",
          "name": "user",
          "type": "address"
        },
        {
          "indexed": true,
          "internalType": "uint256",
          "name": "pid",
          "type": "uint256"
        }
      ],
      "name": "ClaimRewards",
      "type": "event"
    },
    {
      "anonymous": false,
      "inputs": [
        {
          "indexed": true,
          "internalType": "address",
          "name": "user",
          "type": "address"
        },
        {
          "indexed": true,
          "internalType": "uint256",
          "name": "pid",
          "type": "uint256"
        },
        {
          "indexed": false,
          "internalType": "uint256",
          "name": "amount",
          "type": "uint256"
        }
      ],
      "name": "Deposit",
      "type": "event"
    },
    {
      "anonymous": false,
      "inputs": [
        {
          "indexed": true,
          "internalType": "address",
          "name": "user",
          "type": "address"
        },
        {
          "indexed": true,
          "internalType": "uint256",
          "name": "pid",
          "type": "uint256"
        },
        {
          "indexed": false,
          "internalType": "uint256",
          "name": "amount",
          "type": "uint256"
        }
      ],
      "name": "EmergencyWithdraw",
      "type": "event"
    },
    {
      "anonymous": false,
      "inputs": [
        {
          "indexed": false,
          "internalType": "uint8",
          "name": "version",
          "type": "uint8"
        }
      ],
      "name": "Initialized",
      "type": "event"
    },
    {
      "anonymous": false,
      "inputs": [
        {
          "indexed": true,
          "internalType": "address",
          "name": "user",
          "type": "address"
        },
        {
          "indexed": true,
          "internalType": "uint256",
          "name": "pid",
          "type": "uint256"
        },
        {
          "indexed": false,
          "internalType": "uint256",
          "name": "amount",
          "type": "uint256"
        }
      ],
      "name": "Withdraw",
      "type": "event"
    },
    {
      "inputs": [
        {
          "internalType": "uint256",
          "name": "_allocPoint",
          "type": "uint256"
        },
        {
          "internalType": "contract IERC20",
          "name": "_lpToken",
          "type": "address"
        },
        {
          "internalType": "address",
          "name": "_proxyFarmer",
          "type": "address"
        },
        {
          "internalType": "bool",
          "name": "_withUpdate",
          "type": "bool"
        }
      ],
      "name": "add",
      "outputs": [],
      "stateMutability": "nonpayable",
      "type": "function"
    },
    {
      "inputs": [
        {
          "internalType": "contract IERC20",
          "name": "token",
          "type": "address"
        },
        {
          "internalType": "uint256",
          "name": "rewardPerBlock",
          "type": "uint256"
        },
        {
          "internalType": "uint256",
          "name": "startedAtBlock",
          "type": "uint256"
        },
        {
          "internalType": "uint256",
          "name": "endedAtBlock",
          "type": "uint256"
        }
      ],
      "name": "addRewardSpec",
      "outputs": [],
      "stateMutability": "nonpayable",
      "type": "function"
    },
    {
      "inputs": [],
      "name": "admin",
      "outputs": [
        {
          "internalType": "address",
          "name": "",
          "type": "address"
        }
      ],
      "stateMutability": "view",
      "type": "function"
    },
    {
      "inputs": [
        {
          "internalType": "uint256",
          "name": "_pid",
          "type": "uint256"
        },
        {
          "internalType": "uint256",
          "name": "_amount",
          "type": "uint256"
        }
      ],
      "name": "deposit",
      "outputs": [],
      "stateMutability": "nonpayable",
      "type": "function"
    },
    {
      "inputs": [
        {
          "internalType": "uint256",
          "name": "_pid",
          "type": "uint256"
        },
        {
          "internalType": "uint256",
          "name": "_amount",
          "type": "uint256"
        },
        {
          "internalType": "address",
          "name": "user_",
          "type": "address"
        }
      ],
      "name": "depositForUser",
      "outputs": [],
      "stateMutability": "nonpayable",
      "type": "function"
    },
    {
      "inputs": [
        {
          "internalType": "uint256",
          "name": "_pid",
          "type": "uint256"
        }
      ],
      "name": "emergencyWithdraw",
      "outputs": [],
      "stateMutability": "nonpayable",
      "type": "function"
    },
    {
      "inputs": [
        {
          "internalType": "uint256",
          "name": "_from",
          "type": "uint256"
        },
        {
          "internalType": "uint256",
          "name": "_to",
          "type": "uint256"
        },
        {
          "internalType": "uint256",
          "name": "rewardId",
          "type": "uint256"
        }
      ],
      "name": "getMultiplier",
      "outputs": [
        {
          "internalType": "uint256",
          "name": "",
          "type": "uint256"
        }
      ],
      "stateMutability": "view",
      "type": "function"
    },
    {
      "inputs": [
        {
          "internalType": "address",
          "name": "admin_",
          "type": "address"
        }
      ],
      "name": "initialize",
      "outputs": [],
      "stateMutability": "nonpayable",
      "type": "function"
    },
    {
      "inputs": [],
      "name": "massUpdatePools",
      "outputs": [],
      "stateMutability": "nonpayable",
      "type": "function"
    },
    {
      "inputs": [
        {
          "internalType": "uint256",
          "name": "_pid",
          "type": "uint256"
        }
      ],
      "name": "migrate",
      "outputs": [],
      "stateMutability": "nonpayable",
      "type": "function"
    },
    {
      "inputs": [],
      "name": "migrator",
      "outputs": [
        {
          "internalType": "contract IMigratorChef",
          "name": "",
          "type": "address"
        }
      ],
      "stateMutability": "view",
      "type": "function"
    },
    {
      "inputs": [
        {
          "internalType": "uint256",
          "name": "_pid",
          "type": "uint256"
        },
        {
          "internalType": "address",
          "name": "_user",
          "type": "address"
        }
      ],
      "name": "pendingRewards",
      "outputs": [
        {
          "components": [
            {
              "internalType": "contract IERC20",
              "name": "token",
              "type": "address"
            },
            {
              "internalType": "uint256",
              "name": "amount",
              "type": "uint256"
            }
          ],
          "internalType": "struct MultiRewardsMasterChef.RewardInfo[]",
          "name": "",
          "type": "tuple[]"
        }
      ],
      "stateMutability": "view",
      "type": "function"
    },
    {
      "inputs": [
        {
          "internalType": "uint256",
          "name": "",
          "type": "uint256"
        }
      ],
      "name": "poolInfo",
      "outputs": [
        {
          "internalType": "contract IERC20",
          "name": "lpToken",
          "type": "address"
        },
        {
          "internalType": "uint256",
          "name": "allocPoint",
          "type": "uint256"
        },
        {
          "internalType": "uint256",
          "name": "lastRewardBlock",
          "type": "uint256"
        },
        {
          "internalType": "address",
          "name": "proxyFarmer",
          "type": "address"
        },
        {
          "internalType": "uint256",
          "name": "totalAmount",
          "type": "uint256"
        }
      ],
      "stateMutability": "view",
      "type": "function"
    },
    {
      "inputs": [],
      "name": "poolLength",
      "outputs": [
        {
          "internalType": "uint256",
          "name": "",
          "type": "uint256"
        }
      ],
      "stateMutability": "view",
      "type": "function"
    },
    {
      "inputs": [
        {
          "internalType": "uint256",
          "name": "",
          "type": "uint256"
        }
      ],
      "name": "rewardSpecs",
      "outputs": [
        {
          "internalType": "contract IERC20",
          "name": "token",
          "type": "address"
        },
        {
          "internalType": "uint256",
          "name": "rewardPerBlock",
          "type": "uint256"
        },
        {
          "internalType": "uint256",
          "name": "startedAtBlock",
          "type": "uint256"
        },
        {
          "internalType": "uint256",
          "name": "endedAtBlock",
          "type": "uint256"
        },
        {
          "internalType": "uint256",
          "name": "claimedAmount",
          "type": "uint256"
        }
      ],
      "stateMutability": "view",
      "type": "function"
    },
    {
      "inputs": [
        {
          "internalType": "uint256",
          "name": "_pid",
          "type": "uint256"
        },
        {
          "internalType": "uint256",
          "name": "_allocPoint",
          "type": "uint256"
        },
        {
          "internalType": "bool",
          "name": "_withUpdate",
          "type": "bool"
        }
      ],
      "name": "set",
      "outputs": [],
      "stateMutability": "nonpayable",
      "type": "function"
    },
    {
      "inputs": [
        {
          "internalType": "address",
          "name": "admin_",
          "type": "address"
        }
      ],
      "name": "setAdmin",
      "outputs": [],
      "stateMutability": "nonpayable",
      "type": "function"
    },
    {
      "inputs": [
        {
          "internalType": "contract IMigratorChef",
          "name": "_migrator",
          "type": "address"
        }
      ],
      "name": "setMigrator",
      "outputs": [],
      "stateMutability": "nonpayable",
      "type": "function"
    },
    {
      "inputs": [
        {
          "internalType": "uint256",
          "name": "rewardId",
          "type": "uint256"
        },
        {
          "internalType": "uint256",
          "name": "rewardPerBlock",
          "type": "uint256"
        },
        {
          "internalType": "uint256",
          "name": "startedAtBlock",
          "type": "uint256"
        },
        {
          "internalType": "uint256",
          "name": "endedAtBlock",
          "type": "uint256"
        }
      ],
      "name": "setRewardSpec",
      "outputs": [],
      "stateMutability": "nonpayable",
      "type": "function"
    },
    {
      "inputs": [],
      "name": "totalAllocPoint",
      "outputs": [
        {
          "internalType": "uint256",
          "name": "",
          "type": "uint256"
        }
      ],
      "stateMutability": "view",
      "type": "function"
    },
    {
      "inputs": [
        {
          "internalType": "uint256",
          "name": "_pid",
          "type": "uint256"
        }
      ],
      "name": "updatePool",
      "outputs": [],
      "stateMutability": "nonpayable",
      "type": "function"
    },
    {
      "inputs": [
        {
          "internalType": "uint256",
          "name": "",
          "type": "uint256"
        },
        {
          "internalType": "address",
          "name": "",
          "type": "address"
        }
      ],
      "name": "userInfo",
      "outputs": [
        {
          "internalType": "uint256",
          "name": "amount",
          "type": "uint256"
        }
      ],
      "stateMutability": "view",
      "type": "function"
    },
    {
      "inputs": [
        {
          "internalType": "uint256",
          "name": "_pid",
          "type": "uint256"
        },
        {
          "internalType": "uint256",
          "name": "_amount",
          "type": "uint256"
        }
      ],
      "name": "withdraw",
      "outputs": [],
      "stateMutability": "nonpayable",
      "type": "function"
    },
    {
      "inputs": [
        {
          "internalType": "uint256",
          "name": "_pid",
          "type": "uint256"
        },
        {
          "internalType": "uint256",
          "name": "_amount",
          "type": "uint256"
        },
        {
          "internalType": "address",
          "name": "user_",
          "type": "address"
        }
      ],
      "name": "withdrawForUser",
      "outputs": [],
      "stateMutability": "nonpayable",
      "type": "function"
    }
  ],
  "transactionHash": "0x99a888dc77aed4d54235c22441e3ece1115cc69ee9b4f7ff0678178c8a2bcdda",
  "args": [],
  "numDeployments": 2,
  "solcInputHash": "39e76159c6219ae83d48729e0541164d",
  "bytecode": "0x6080604052600060075534801561001557600080fd5b5060016000556132168061002a6000396000f3fe608060405234801561001057600080fd5b50600436106101985760003560e01c80637bafb029116100e3578063d18df53c1161008c578063e2bbb15811610066578063e2bbb158146103f7578063f40142611461040a578063f851a4401461041d57600080fd5b8063d18df53c14610372578063e11f2f7d14610392578063e15a003a146103e457600080fd5b8063a3f30d27116100bd578063a3f30d2714610339578063c4d66de81461034c578063c71b4b431461035f57600080fd5b80637bafb029146102b65780637cd07e47146102c957806393f1a40b1461030e57600080fd5b8063454b060811610145578063630b5ba11161011f578063630b5ba11461028857806364482f7914610290578063704b6c02146102a357600080fd5b8063454b06081461024f57806351eb05a6146102625780635312ea8e1461027557600080fd5b806323cf31181161017657806323cf31181461021457806338cc39af14610229578063441a3e701461023c57600080fd5b8063081e3eda1461019d5780631526fe27146101b457806317caf6f11461020b575b600080fd5b6004545b6040519081526020015b60405180910390f35b6101c76101c2366004612d14565b610443565b6040805173ffffffffffffffffffffffffffffffffffffffff968716815260208101959095528401929092529092166060820152608081019190915260a0016101ab565b6101a160075481565b610227610222366004612d52565b61049d565b005b610227610237366004612d6f565b610570565b61022761024a366004612da1565b61093f565b61022761025d366004612d14565b61094e565b610227610270366004612d14565b610d3b565b610227610283366004612d14565b610e71565b61022761104b565b61022761029e366004612dd1565b611072565b6102276102b1366004612d52565b611189565b6101a16102c4366004612e0a565b61130c565b6003546102e99073ffffffffffffffffffffffffffffffffffffffff1681565b60405173ffffffffffffffffffffffffffffffffffffffff90911681526020016101ab565b6101a161031c366004612e36565b600660209081526000928352604080842090915290825290205481565b610227610347366004612e66565b611397565b61022761035a366004612d52565b6113a7565b61022761036d366004612e94565b611492565b610385610380366004612e36565b611747565b6040516101ab9190612ee7565b6103a56103a0366004612d14565b6119a4565b6040805173ffffffffffffffffffffffffffffffffffffffff90961686526020860194909452928401919091526060830152608082015260a0016101ab565b6102276103f2366004612e66565b6119fc565b610227610405366004612da1565b611a07565b610227610418366004612f4c565b611a12565b6001546102e99062010000900473ffffffffffffffffffffffffffffffffffffffff1681565b6004818154811061045357600080fd5b60009182526020909120600590910201805460018201546002830154600384015460049094015473ffffffffffffffffffffffffffffffffffffffff938416955091939092169085565b60015462010000900473ffffffffffffffffffffffffffffffffffffffff163314610529576040517f08c379a000000000000000000000000000000000000000000000000000000000815260206004820152600a60248201527f4f6e6c792061646d696e0000000000000000000000000000000000000000000060448201526064015b60405180910390fd5b600380547fffffffffffffffffffffffff00000000000000000000000000000000000000001673ffffffffffffffffffffffffffffffffffffffff92909216919091179055565b60015462010000900473ffffffffffffffffffffffffffffffffffffffff1633146105f7576040517f08c379a000000000000000000000000000000000000000000000000000000000815260206004820152600a60248201527f4f6e6c792061646d696e000000000000000000000000000000000000000000006044820152606401610520565b60006002858154811061060c5761060c612f87565b90600052602060002090600502019050438160020154116106bc57806002015483146106bc57604080517f08c379a00000000000000000000000000000000000000000000000000000000081526020600482015260248101919091527f63616e206e6f74206d6f6469667920737461727465644174426c6f636b20616660448201527f74657220726577617264732068617320626567616e20616c6c6f636174696e676064820152608401610520565b43821161074b576040517f08c379a000000000000000000000000000000000000000000000000000000000815260206004820152603260248201527f63616e206e6f74206d6f6469667920656e6465644174426c6f636b20746f206160448201527f207061737420626c6f636b206e756d62657200000000000000000000000000006064820152608401610520565b8282116107da576040517f08c379a000000000000000000000000000000000000000000000000000000000815260206004820152603260248201527f656e6465644174426c6f636b2073686f756c642062652067726561746572207460448201527f68616e20737461727465644174426c6f636b00000000000000000000000000006064820152608401610520565b6107e261104b565b6000846107ef8585612fe5565b6107f99190612ffc565b82546040517f70a0823100000000000000000000000000000000000000000000000000000000815230600482015291925060009173ffffffffffffffffffffffffffffffffffffffff909116906370a082319060240160206040518083038186803b15801561086757600080fd5b505afa15801561087b573d6000803e3d6000fd5b505050506040513d601f19601f8201168201806040525081019061089f9190613039565b90508260040154816108b19190613052565b8211156108fd576108f83330856004015484866108ce9190612fe5565b6108d89190612fe5565b865473ffffffffffffffffffffffffffffffffffffffff16929190611d2e565b610929565b600483015461090c9082613052565b821015610929576109293033848660040154856108ce9190613052565b5050600281019290925560038201556001015550565b61094a828233611e0a565b5050565b60015462010000900473ffffffffffffffffffffffffffffffffffffffff1633146109d5576040517f08c379a000000000000000000000000000000000000000000000000000000000815260206004820152600a60248201527f4f6e6c792061646d696e000000000000000000000000000000000000000000006044820152606401610520565b60035473ffffffffffffffffffffffffffffffffffffffff16610a54576040517f08c379a000000000000000000000000000000000000000000000000000000000815260206004820152601460248201527f6d6967726174653a206e6f206d69677261746f720000000000000000000000006044820152606401610520565b600060048281548110610a6957610a69612f87565b6000918252602082206005919091020180546040517f70a0823100000000000000000000000000000000000000000000000000000000815230600482015291935073ffffffffffffffffffffffffffffffffffffffff16919082906370a082319060240160206040518083038186803b158015610ae557600080fd5b505afa158015610af9573d6000803e3d6000fd5b505050506040513d601f19601f82011682018060405250810190610b1d9190613039565b600354909150610b479073ffffffffffffffffffffffffffffffffffffffff848116911683612285565b6003546040517fce5494bb00000000000000000000000000000000000000000000000000000000815273ffffffffffffffffffffffffffffffffffffffff8481166004830152600092169063ce5494bb90602401602060405180830381600087803b158015610bb557600080fd5b505af1158015610bc9573d6000803e3d6000fd5b505050506040513d601f19601f82011682018060405250810190610bed919061306a565b6040517f70a0823100000000000000000000000000000000000000000000000000000000815230600482015290915073ffffffffffffffffffffffffffffffffffffffff8216906370a082319060240160206040518083038186803b158015610c5557600080fd5b505afa158015610c69573d6000803e3d6000fd5b505050506040513d601f19601f82011682018060405250810190610c8d9190613039565b8214610cf5576040517f08c379a000000000000000000000000000000000000000000000000000000000815260206004820152600c60248201527f6d6967726174653a2062616400000000000000000000000000000000000000006044820152606401610520565b83547fffffffffffffffffffffffff00000000000000000000000000000000000000001673ffffffffffffffffffffffffffffffffffffffff9190911617909255505050565b600060048281548110610d5057610d50612f87565b9060005260206000209060050201905080600201544311610d6f575050565b600481015480610d8457504360029091015550565b60005b600254811015610e6557600060028281548110610da657610da6612f87565b906000526020600020906005020190506000610dc78560020154438561130c565b90506000610dfc600754610df68860010154610df087600101548761241690919063ffffffff16565b90612416565b90612422565b9050610e34610e1486610df68464e8d4a51000612416565b60008981526005602090815260408083208984529091529020549061242e565b600088815260056020908152604080832088845290915290205550829150610e5d905081613087565b915050610d87565b50504360029091015550565b60026000541415610ede576040517f08c379a000000000000000000000000000000000000000000000000000000000815260206004820152601f60248201527f5265656e7472616e637947756172643a207265656e7472616e742063616c6c006044820152606401610520565b600260009081556004805483908110610ef957610ef9612f87565b600091825260208083208584526006825260408085203386529092529220600360059092029092019081015490925073ffffffffffffffffffffffffffffffffffffffff16610fa4576040517f08c379a000000000000000000000000000000000000000000000000000000000815260206004820152601360248201527f6e6f7468696e6720746f207769746864726177000000000000000000000000006044820152606401610520565b80546004830154610fb49161243a565b600483015580548254610fe19173ffffffffffffffffffffffffffffffffffffffff909116903390612446565b60008082555b600254811015611007576000818152600283016020526040812055610fe7565b508054604051908152839033907fbb757047c2b5f3974fe26b7c10f732e7bce710b0952a71082702781e62ae05959060200160405180910390a35050600160005550565b60045460005b8181101561094a5761106281610d3b565b61106b81613087565b9050611051565b60015462010000900473ffffffffffffffffffffffffffffffffffffffff1633146110f9576040517f08c379a000000000000000000000000000000000000000000000000000000000815260206004820152600a60248201527f4f6e6c792061646d696e000000000000000000000000000000000000000000006044820152606401610520565b80156111075761110761104b565b60006004848154811061111c5761111c612f87565b9060005260206000209060050201600101549050826004858154811061114457611144612f87565b9060005260206000209060050201600101819055508281146111835761117f836111798360075461243a90919063ffffffff16565b9061242e565b6007555b50505050565b60015462010000900473ffffffffffffffffffffffffffffffffffffffff163314611210576040517f08c379a000000000000000000000000000000000000000000000000000000000815260206004820152600a60248201527f4f6e6c792061646d696e000000000000000000000000000000000000000000006044820152606401610520565b73ffffffffffffffffffffffffffffffffffffffff811661128d576040517f08c379a000000000000000000000000000000000000000000000000000000000815260206004820152601760248201527f63616e206e6f74206265207a65726f20616464726573730000000000000000006044820152606401610520565b6001805473ffffffffffffffffffffffffffffffffffffffff838116620100008181027fffffffffffffffffffff0000000000000000000000000000000000000000ffff85161790945560405193909204169182907f7e644d79422f17c01e4894b5f4f588d331ebfa28653d42ae832dc59e38c9798f90600090a35050565b6000806002838154811061132257611322612f87565b906000526020600020906005020190508060020154841015611348576000915050611390565b806002015485101561135c57806002015494505b806003015484111561137057806003015493505b83851115611382576000915050611390565b61138c848661243a565b9150505b9392505050565b6113a283838361249c565b505050565b60006113b36001612882565b905080156113e857600180547fffffffffffffffffffffffffffffffffffffffffffffffffffffffffffff00ff166101001790555b600180547fffffffffffffffffffff0000000000000000000000000000000000000000ffff166201000073ffffffffffffffffffffffffffffffffffffffff851602179055801561094a57600180547fffffffffffffffffffffffffffffffffffffffffffffffffffffffffffff00ff1681556040519081527f7f26b83ff96e1f2b6a682f133852f6798a09c465da95921460cefb38474024989060200160405180910390a15050565b60015462010000900473ffffffffffffffffffffffffffffffffffffffff163314611519576040517f08c379a000000000000000000000000000000000000000000000000000000000815260206004820152600a60248201527f4f6e6c792061646d696e000000000000000000000000000000000000000000006044820152606401610520565b80156115275761152761104b565b73ffffffffffffffffffffffffffffffffffffffff8216156115e75773ffffffffffffffffffffffffffffffffffffffff8316156115e7576040517f08c379a000000000000000000000000000000000000000000000000000000000815260206004820152603060248201527f4c50546f6b656e2073686f756c6420626520616464726573732030207768656e60448201527f2070726f78696564206661726d65722e000000000000000000000000000000006064820152608401610520565b60075443906115f6908661242e565b6007556040805160a08101825273ffffffffffffffffffffffffffffffffffffffff95861681526020810196875290810191825292841660608401908152600060808501818152600480546001810182559252945160059091027f8a35acfbc15ff81a39ae7d344fd709f28e8600b4aa8c65c6b64bfe7fe36bd19b810180549288167fffffffffffffffffffffffff000000000000000000000000000000000000000093841617905596517f8a35acfbc15ff81a39ae7d344fd709f28e8600b4aa8c65c6b64bfe7fe36bd19c88015591517f8a35acfbc15ff81a39ae7d344fd709f28e8600b4aa8c65c6b64bfe7fe36bd19d870155517f8a35acfbc15ff81a39ae7d344fd709f28e8600b4aa8c65c6b64bfe7fe36bd19e8601805491909516911617909255517f8a35acfbc15ff81a39ae7d344fd709f28e8600b4aa8c65c6b64bfe7fe36bd19f9092019190915550565b60025460609060009067ffffffffffffffff811115611768576117686130c0565b6040519080825280602002602001820160405280156117ad57816020015b60408051808201909152600080825260208201528152602001906001900390816117865790505b5090506000600485815481106117c5576117c5612f87565b6000918252602080832088845260068252604080852073ffffffffffffffffffffffffffffffffffffffff8a1686529092529083206005909202019250905b6002548110156119995760006002828154811061182357611823612f87565b90600052602060002090600502019050806002015443101561188f5760408051808201909152815473ffffffffffffffffffffffffffffffffffffffff16815260006020820152855186908490811061187e5761187e612f87565b602002602001018190525050611987565b600088815260056020908152604080832085845290915290205460048501546002860154431180156118c057508015155b156119235760006118d68760020154438761130c565b905060006118ff600754610df68a60010154610df089600101548761241690919063ffffffff16565b905061191e61191784610df68464e8d4a51000612416565b859061242e565b935050505b60408051808201909152835473ffffffffffffffffffffffffffffffffffffffff168152855460208201906119639064e8d4a5100090610df69087612416565b81525087858151811061197857611978612f87565b60200260200101819052505050505b8061199181613087565b915050611804565b509195945050505050565b600281815481106119b457600080fd5b60009182526020909120600590910201805460018201546002830154600384015460049094015473ffffffffffffffffffffffffffffffffffffffff90931694509092909185565b6113a2838383611e0a565b61094a82823361249c565b60015462010000900473ffffffffffffffffffffffffffffffffffffffff163314611a99576040517f08c379a000000000000000000000000000000000000000000000000000000000815260206004820152600a60248201527f4f6e6c792061646d696e000000000000000000000000000000000000000000006044820152606401610520565b818111611b28576040517f08c379a000000000000000000000000000000000000000000000000000000000815260206004820152603260248201527f656e6465644174426c6f636b2073686f756c642062652067726561746572207460448201527f68616e20737461727465644174426c6f636b00000000000000000000000000006064820152608401610520565b60008311611bb8576040517f08c379a000000000000000000000000000000000000000000000000000000000815260206004820152602a60248201527f726577617264506572426c6f636b2073686f756c64206265206772656174657260448201527f207468616e207a65726f000000000000000000000000000000000000000000006064820152608401610520565b611bf1333085611bc88686612fe5565b611bd29190612ffc565b73ffffffffffffffffffffffffffffffffffffffff8816929190611d2e565b6040805160a08101825273ffffffffffffffffffffffffffffffffffffffff9586168152602081019485529081019283526060810191825260006080820181815260028054600181018255925291517f405787fa12a823e0f2b7631cc41b3ba8828b3321ca811111fa75cd3aa3bb5ace600590920291820180547fffffffffffffffffffffffff000000000000000000000000000000000000000016919097161790955592517f405787fa12a823e0f2b7631cc41b3ba8828b3321ca811111fa75cd3aa3bb5acf85015590517f405787fa12a823e0f2b7631cc41b3ba8828b3321ca811111fa75cd3aa3bb5ad0840155517f405787fa12a823e0f2b7631cc41b3ba8828b3321ca811111fa75cd3aa3bb5ad1830155517f405787fa12a823e0f2b7631cc41b3ba8828b3321ca811111fa75cd3aa3bb5ad290910155565b60405173ffffffffffffffffffffffffffffffffffffffff808516602483015283166044820152606481018290526111839085907f23b872dd00000000000000000000000000000000000000000000000000000000906084015b604080517fffffffffffffffffffffffffffffffffffffffffffffffffffffffffffffffe08184030181529190526020810180517bffffffffffffffffffffffffffffffffffffffffffffffffffffffff167fffffffff0000000000000000000000000000000000000000000000000000000090931692909217909152612a08565b60026000541415611e77576040517f08c379a000000000000000000000000000000000000000000000000000000000815260206004820152601f60248201527f5265656e7472616e637947756172643a207265656e7472616e742063616c6c006044820152606401610520565b600260009081556004805485908110611e9257611e92612f87565b6000918252602080832087845260068252604080852073ffffffffffffffffffffffffffffffffffffffff881686529092529220805460059092029092019250841115611f3b576040517f08c379a000000000000000000000000000000000000000000000000000000000815260206004820152601e60248201527f77697468647261773a20496e73756666696369656e742062616c616e636500006044820152606401610520565b600382015473ffffffffffffffffffffffffffffffffffffffff1615611fe357600382015473ffffffffffffffffffffffffffffffffffffffff163314611fde576040517f08c379a000000000000000000000000000000000000000000000000000000000815260206004820152601160248201527f4f6e6c792070726f7879206661726d65720000000000000000000000000000006044820152606401610520565b612062565b3373ffffffffffffffffffffffffffffffffffffffff841614612062576040517f08c379a000000000000000000000000000000000000000000000000000000000815260206004820152601b60248201527f43616e206e6f7420776974686472617720666f72206f746865727300000000006044820152606401610520565b61206b85610d3b565b60005b6002548110156121d65760006002828154811061208d5761208d612f87565b600091825260208083208a845260058083526040808620888752909352919093205486549290910290920192501561218557600083815260028501602052604081205485546120f291906120ec9064e8d4a5100090610df69087612416565b9061243a565b9050801561215b578083600401600082825461210e9190613052565b9091555050600084815260018601602052604081208054839290612133908490613052565b9091555050825461215b9073ffffffffffffffffffffffffffffffffffffffff168883612446565b84546121729064e8d4a5100090610df69085612416565b6000858152600287016020526040902055505b86156121c1576121af64e8d4a51000610df683610df08b896000015461243a90919063ffffffff16565b60008481526002860160205260409020555b505080806121ce90613087565b91505061206e565b5083156122415780546121e9908561243a565b815560048201546121fa908561243a565b6004830155600382015473ffffffffffffffffffffffffffffffffffffffff166122415781546122419073ffffffffffffffffffffffffffffffffffffffff168486612446565b604051848152859033907ff279e6a1f5e320cca91135676d9cb6e44ca8a08c0b88342bcdb1144f6511b568906020015b60405180910390a350506001600055505050565b80158061233457506040517fdd62ed3e00000000000000000000000000000000000000000000000000000000815230600482015273ffffffffffffffffffffffffffffffffffffffff838116602483015284169063dd62ed3e9060440160206040518083038186803b1580156122fa57600080fd5b505afa15801561230e573d6000803e3d6000fd5b505050506040513d601f19601f820116820180604052508101906123329190613039565b155b6123c0576040517f08c379a000000000000000000000000000000000000000000000000000000000815260206004820152603660248201527f5361666545524332303a20617070726f76652066726f6d206e6f6e2d7a65726f60448201527f20746f206e6f6e2d7a65726f20616c6c6f77616e6365000000000000000000006064820152608401610520565b60405173ffffffffffffffffffffffffffffffffffffffff83166024820152604481018290526113a29084907f095ea7b30000000000000000000000000000000000000000000000000000000090606401611d88565b60006113908284612ffc565b600061139082846130ef565b60006113908284613052565b60006113908284612fe5565b60405173ffffffffffffffffffffffffffffffffffffffff83166024820152604481018290526113a29084907fa9059cbb0000000000000000000000000000000000000000000000000000000090606401611d88565b60026000541415612509576040517f08c379a000000000000000000000000000000000000000000000000000000000815260206004820152601f60248201527f5265656e7472616e637947756172643a207265656e7472616e742063616c6c006044820152606401610520565b60026000908155600480548590811061252457612524612f87565b60009182526020909120600590910201600381015490915073ffffffffffffffffffffffffffffffffffffffff16156125df57600381015473ffffffffffffffffffffffffffffffffffffffff1633146125da576040517f08c379a000000000000000000000000000000000000000000000000000000000815260206004820152601160248201527f4f6e6c792070726f7879206661726d65720000000000000000000000000000006044820152606401610520565b61265e565b3373ffffffffffffffffffffffffffffffffffffffff83161461265e576040517f08c379a000000000000000000000000000000000000000000000000000000000815260206004820152601a60248201527f43616e206e6f74206465706f73697420666f72206f74686572730000000000006044820152606401610520565b600084815260066020908152604080832073ffffffffffffffffffffffffffffffffffffffff86168452909152902061269685610d3b565b60005b6002548110156127cc576000600282815481106126b8576126b8612f87565b600091825260208083208a8452600580835260408086208887529093529190932054865492909102909201925015612782576000838152600285016020526040812054855461271791906120ec9064e8d4a5100090610df69087612416565b9050801561278057808360040160008282546127339190613052565b9091555050600084815260018601602052604081208054839290612758908490613052565b909155505082546127809073ffffffffffffffffffffffffffffffffffffffff168883612446565b505b6127a664e8d4a51000610df683610df08b896000015461242e90919063ffffffff16565b6000848152600286016020526040902055508190506127c481613087565b915050612699565b50831561283957600382015473ffffffffffffffffffffffffffffffffffffffff166128165781546128169073ffffffffffffffffffffffffffffffffffffffff16843087611d2e565b6004820154612825908561242e565b60048301558054612836908561242e565b81555b848373ffffffffffffffffffffffffffffffffffffffff167f90890809c654f11d6e72a28fa60149770a0d11ec6c92319d6ceb2bb0a4ea1a158660405161227191815260200190565b600154600090610100900460ff161561293b578160ff1660011480156128a75750303b155b612933576040517f08c379a000000000000000000000000000000000000000000000000000000000815260206004820152602e60248201527f496e697469616c697a61626c653a20636f6e747261637420697320616c72656160448201527f647920696e697469616c697a65640000000000000000000000000000000000006064820152608401610520565b506000919050565b60015460ff8084169116106129d2576040517f08c379a000000000000000000000000000000000000000000000000000000000815260206004820152602e60248201527f496e697469616c697a61626c653a20636f6e747261637420697320616c72656160448201527f647920696e697469616c697a65640000000000000000000000000000000000006064820152608401610520565b50600180547fffffffffffffffffffffffffffffffffffffffffffffffffffffffffffffff001660ff9290921691909117815590565b6000612a6a826040518060400160405280602081526020017f5361666545524332303a206c6f772d6c6576656c2063616c6c206661696c65648152508573ffffffffffffffffffffffffffffffffffffffff16612b149092919063ffffffff16565b8051909150156113a25780806020019051810190612a88919061312a565b6113a2576040517f08c379a000000000000000000000000000000000000000000000000000000000815260206004820152602a60248201527f5361666545524332303a204552433230206f7065726174696f6e20646964206e60448201527f6f742073756363656564000000000000000000000000000000000000000000006064820152608401610520565b6060612b238484600085612b2b565b949350505050565b606082471015612bbd576040517f08c379a000000000000000000000000000000000000000000000000000000000815260206004820152602660248201527f416464726573733a20696e73756666696369656e742062616c616e636520666f60448201527f722063616c6c00000000000000000000000000000000000000000000000000006064820152608401610520565b73ffffffffffffffffffffffffffffffffffffffff85163b612c3b576040517f08c379a000000000000000000000000000000000000000000000000000000000815260206004820152601d60248201527f416464726573733a2063616c6c20746f206e6f6e2d636f6e74726163740000006044820152606401610520565b6000808673ffffffffffffffffffffffffffffffffffffffff168587604051612c649190613173565b60006040518083038185875af1925050503d8060008114612ca1576040519150601f19603f3d011682016040523d82523d6000602084013e612ca6565b606091505b5091509150612cb6828286612cc1565b979650505050505050565b60608315612cd0575081611390565b825115612ce05782518084602001fd5b816040517f08c379a0000000000000000000000000000000000000000000000000000000008152600401610520919061318f565b600060208284031215612d2657600080fd5b5035919050565b73ffffffffffffffffffffffffffffffffffffffff81168114612d4f57600080fd5b50565b600060208284031215612d6457600080fd5b813561139081612d2d565b60008060008060808587031215612d8557600080fd5b5050823594602084013594506040840135936060013592509050565b60008060408385031215612db457600080fd5b50508035926020909101359150565b8015158114612d4f57600080fd5b600080600060608486031215612de657600080fd5b83359250602084013591506040840135612dff81612dc3565b809150509250925092565b600080600060608486031215612e1f57600080fd5b505081359360208301359350604090920135919050565b60008060408385031215612e4957600080fd5b823591506020830135612e5b81612d2d565b809150509250929050565b600080600060608486031215612e7b57600080fd5b83359250602084013591506040840135612dff81612d2d565b60008060008060808587031215612eaa57600080fd5b843593506020850135612ebc81612d2d565b92506040850135612ecc81612d2d565b91506060850135612edc81612dc3565b939692955090935050565b602080825282518282018190526000919060409081850190868401855b82811015612f3f578151805173ffffffffffffffffffffffffffffffffffffffff168552860151868501529284019290850190600101612f04565b5091979650505050505050565b60008060008060808587031215612f6257600080fd5b8435612f6d81612d2d565b966020860135965060408601359560600135945092505050565b7f4e487b7100000000000000000000000000000000000000000000000000000000600052603260045260246000fd5b7f4e487b7100000000000000000000000000000000000000000000000000000000600052601160045260246000fd5b600082821015612ff757612ff7612fb6565b500390565b6000817fffffffffffffffffffffffffffffffffffffffffffffffffffffffffffffffff048311821515161561303457613034612fb6565b500290565b60006020828403121561304b57600080fd5b5051919050565b6000821982111561306557613065612fb6565b500190565b60006020828403121561307c57600080fd5b815161139081612d2d565b60007fffffffffffffffffffffffffffffffffffffffffffffffffffffffffffffffff8214156130b9576130b9612fb6565b5060010190565b7f4e487b7100000000000000000000000000000000000000000000000000000000600052604160045260246000fd5b600082613125577f4e487b7100000000000000000000000000000000000000000000000000000000600052601260045260246000fd5b500490565b60006020828403121561313c57600080fd5b815161139081612dc3565b60005b8381101561316257818101518382015260200161314a565b838111156111835750506000910152565b60008251613185818460208701613147565b9190910192915050565b60208152600082518060208401526131ae816040850160208701613147565b601f017fffffffffffffffffffffffffffffffffffffffffffffffffffffffffffffffe016919091016040019291505056fea264697066735822122045f976f7f7a1390bde04d097e28f6c261339db5fc4f87115d20fe83c14f998a064736f6c63430008090033",
  "devdoc": {
    "kind": "dev",
    "methods": {},
    "version": 1
  },
  "userdoc": {
    "kind": "user",
    "methods": {},
    "version": 1
  },
  "storageLayout": {
    "storage": [
      {
        "astId": 1194,
        "contract": "contracts/MultiRewardsMasterChef.sol:MultiRewardsMasterChef",
        "label": "_status",
        "offset": 0,
        "slot": "0",
        "type": "t_uint256"
      },
      {
        "astId": 6,
        "contract": "contracts/MultiRewardsMasterChef.sol:MultiRewardsMasterChef",
        "label": "_initialized",
        "offset": 0,
        "slot": "1",
        "type": "t_uint8"
      },
      {
        "astId": 9,
        "contract": "contracts/MultiRewardsMasterChef.sol:MultiRewardsMasterChef",
        "label": "_initializing",
        "offset": 1,
        "slot": "1",
        "type": "t_bool"
      },
      {
        "astId": 5509,
        "contract": "contracts/MultiRewardsMasterChef.sol:MultiRewardsMasterChef",
        "label": "admin",
        "offset": 2,
        "slot": "1",
        "type": "t_address"
      },
      {
        "astId": 5558,
        "contract": "contracts/MultiRewardsMasterChef.sol:MultiRewardsMasterChef",
        "label": "rewardSpecs",
        "offset": 0,
        "slot": "2",
        "type": "t_array(t_struct(RewardSpec)5554_storage)dyn_storage"
      },
      {
        "astId": 5561,
        "contract": "contracts/MultiRewardsMasterChef.sol:MultiRewardsMasterChef",
        "label": "migrator",
        "offset": 0,
        "slot": "3",
        "type": "t_contract(IMigratorChef)5496"
      },
      {
        "astId": 5565,
        "contract": "contracts/MultiRewardsMasterChef.sol:MultiRewardsMasterChef",
        "label": "poolInfo",
        "offset": 0,
        "slot": "4",
        "type": "t_array(t_struct(PoolInfo)5536_storage)dyn_storage"
      },
      {
        "astId": 5571,
        "contract": "contracts/MultiRewardsMasterChef.sol:MultiRewardsMasterChef",
        "label": "poolsRewardsAccRewardsPerShare",
        "offset": 0,
        "slot": "5",
        "type": "t_mapping(t_uint256,t_mapping(t_uint256,t_uint256))"
      },
      {
        "astId": 5578,
        "contract": "contracts/MultiRewardsMasterChef.sol:MultiRewardsMasterChef",
        "label": "userInfo",
        "offset": 0,
        "slot": "6",
        "type": "t_mapping(t_uint256,t_mapping(t_address,t_struct(UserInfo)5522_storage))"
      },
      {
        "astId": 5581,
        "contract": "contracts/MultiRewardsMasterChef.sol:MultiRewardsMasterChef",
        "label": "totalAllocPoint",
        "offset": 0,
        "slot": "7",
        "type": "t_uint256"
      }
    ],
    "types": {
      "t_address": {
        "encoding": "inplace",
        "label": "address",
        "numberOfBytes": "20"
      },
      "t_array(t_struct(PoolInfo)5536_storage)dyn_storage": {
        "base": "t_struct(PoolInfo)5536_storage",
        "encoding": "dynamic_array",
        "label": "struct MultiRewardsMasterChef.PoolInfo[]",
        "numberOfBytes": "32"
      },
      "t_array(t_struct(RewardSpec)5554_storage)dyn_storage": {
        "base": "t_struct(RewardSpec)5554_storage",
        "encoding": "dynamic_array",
        "label": "struct MultiRewardsMasterChef.RewardSpec[]",
        "numberOfBytes": "32"
      },
      "t_bool": {
        "encoding": "inplace",
        "label": "bool",
        "numberOfBytes": "1"
      },
      "t_contract(IERC20)1887": {
        "encoding": "inplace",
        "label": "contract IERC20",
        "numberOfBytes": "20"
      },
      "t_contract(IMigratorChef)5496": {
        "encoding": "inplace",
        "label": "contract IMigratorChef",
        "numberOfBytes": "20"
      },
      "t_mapping(t_address,t_struct(UserInfo)5522_storage)": {
        "encoding": "mapping",
        "key": "t_address",
        "label": "mapping(address => struct MultiRewardsMasterChef.UserInfo)",
        "numberOfBytes": "32",
        "value": "t_struct(UserInfo)5522_storage"
      },
      "t_mapping(t_uint256,t_mapping(t_address,t_struct(UserInfo)5522_storage))": {
        "encoding": "mapping",
        "key": "t_uint256",
        "label": "mapping(uint256 => mapping(address => struct MultiRewardsMasterChef.UserInfo))",
        "numberOfBytes": "32",
        "value": "t_mapping(t_address,t_struct(UserInfo)5522_storage)"
      },
      "t_mapping(t_uint256,t_mapping(t_uint256,t_uint256))": {
        "encoding": "mapping",
        "key": "t_uint256",
        "label": "mapping(uint256 => mapping(uint256 => uint256))",
        "numberOfBytes": "32",
        "value": "t_mapping(t_uint256,t_uint256)"
      },
      "t_mapping(t_uint256,t_uint256)": {
        "encoding": "mapping",
        "key": "t_uint256",
        "label": "mapping(uint256 => uint256)",
        "numberOfBytes": "32",
        "value": "t_uint256"
      },
      "t_struct(PoolInfo)5536_storage": {
        "encoding": "inplace",
        "label": "struct MultiRewardsMasterChef.PoolInfo",
        "members": [
          {
            "astId": 5525,
            "contract": "contracts/MultiRewardsMasterChef.sol:MultiRewardsMasterChef",
            "label": "lpToken",
            "offset": 0,
            "slot": "0",
            "type": "t_contract(IERC20)1887"
          },
          {
            "astId": 5527,
            "contract": "contracts/MultiRewardsMasterChef.sol:MultiRewardsMasterChef",
            "label": "allocPoint",
            "offset": 0,
            "slot": "1",
            "type": "t_uint256"
          },
          {
            "astId": 5529,
            "contract": "contracts/MultiRewardsMasterChef.sol:MultiRewardsMasterChef",
            "label": "lastRewardBlock",
            "offset": 0,
            "slot": "2",
            "type": "t_uint256"
          },
          {
            "astId": 5532,
            "contract": "contracts/MultiRewardsMasterChef.sol:MultiRewardsMasterChef",
            "label": "proxyFarmer",
            "offset": 0,
            "slot": "3",
            "type": "t_address"
          },
          {
            "astId": 5535,
            "contract": "contracts/MultiRewardsMasterChef.sol:MultiRewardsMasterChef",
            "label": "totalAmount",
            "offset": 0,
            "slot": "4",
            "type": "t_uint256"
          }
        ],
        "numberOfBytes": "160"
      },
      "t_struct(RewardSpec)5554_storage": {
        "encoding": "inplace",
        "label": "struct MultiRewardsMasterChef.RewardSpec",
        "members": [
          {
            "astId": 5545,
            "contract": "contracts/MultiRewardsMasterChef.sol:MultiRewardsMasterChef",
            "label": "token",
            "offset": 0,
            "slot": "0",
            "type": "t_contract(IERC20)1887"
          },
          {
            "astId": 5547,
            "contract": "contracts/MultiRewardsMasterChef.sol:MultiRewardsMasterChef",
            "label": "rewardPerBlock",
            "offset": 0,
            "slot": "1",
            "type": "t_uint256"
          },
          {
            "astId": 5549,
            "contract": "contracts/MultiRewardsMasterChef.sol:MultiRewardsMasterChef",
            "label": "startedAtBlock",
            "offset": 0,
            "slot": "2",
            "type": "t_uint256"
          },
          {
            "astId": 5551,
            "contract": "contracts/MultiRewardsMasterChef.sol:MultiRewardsMasterChef",
            "label": "endedAtBlock",
            "offset": 0,
            "slot": "3",
            "type": "t_uint256"
          },
          {
            "astId": 5553,
            "contract": "contracts/MultiRewardsMasterChef.sol:MultiRewardsMasterChef",
            "label": "claimedAmount",
            "offset": 0,
            "slot": "4",
            "type": "t_uint256"
          }
        ],
        "numberOfBytes": "160"
      },
      "t_struct(UserInfo)5522_storage": {
        "encoding": "inplace",
        "label": "struct MultiRewardsMasterChef.UserInfo",
        "members": [
          {
            "astId": 5511,
            "contract": "contracts/MultiRewardsMasterChef.sol:MultiRewardsMasterChef",
            "label": "amount",
            "offset": 0,
            "slot": "0",
            "type": "t_uint256"
          },
          {
            "astId": 5516,
            "contract": "contracts/MultiRewardsMasterChef.sol:MultiRewardsMasterChef",
            "label": "claimedRewards",
            "offset": 0,
            "slot": "1",
            "type": "t_mapping(t_uint256,t_uint256)"
          },
          {
            "astId": 5521,
            "contract": "contracts/MultiRewardsMasterChef.sol:MultiRewardsMasterChef",
            "label": "rewardDebt",
            "offset": 0,
            "slot": "2",
            "type": "t_mapping(t_uint256,t_uint256)"
          }
        ],
        "numberOfBytes": "96"
      },
      "t_uint256": {
        "encoding": "inplace",
        "label": "uint256",
        "numberOfBytes": "32"
      },
      "t_uint8": {
        "encoding": "inplace",
        "label": "uint8",
        "numberOfBytes": "1"
      }
    }
  }
}