{
  "address": "0xE681048274Fdf8acA62C3438c517C2d0f30f3639",
  "abi": [
    {
      "inputs": [
        {
          "internalType": "string",
          "name": "name_",
          "type": "string"
        },
        {
          "internalType": "string",
          "name": "symbol_",
          "type": "string"
        },
        {
          "internalType": "address",
          "name": "minter_",
          "type": "address"
        }
      ],
      "stateMutability": "nonpayable",
      "type": "constructor"
    },
    {
      "anonymous": false,
      "inputs": [
        {
          "indexed": true,
          "internalType": "address",
          "name": "owner",
          "type": "address"
        },
        {
          "indexed": true,
          "internalType": "address",
          "name": "spender",
          "type": "address"
        },
        {
          "indexed": false,
          "internalType": "uint256",
          "name": "value",
          "type": "uint256"
        }
      ],
      "name": "Approval",
      "type": "event"
    },
    {
      "anonymous": false,
      "inputs": [
        {
          "indexed": true,
          "internalType": "address",
          "name": "previousOwner",
          "type": "address"
        },
        {
          "indexed": true,
          "internalType": "address",
          "name": "newOwner",
          "type": "address"
        }
      ],
      "name": "OwnershipTransferred",
      "type": "event"
    },
    {
      "anonymous": false,
      "inputs": [
        {
          "indexed": true,
          "internalType": "address",
          "name": "from",
          "type": "address"
        },
        {
          "indexed": true,
          "internalType": "address",
          "name": "to",
          "type": "address"
        },
        {
          "indexed": false,
          "internalType": "uint256",
          "name": "value",
          "type": "uint256"
        }
      ],
      "name": "Transfer",
      "type": "event"
    },
    {
      "inputs": [
        {
          "internalType": "address",
          "name": "owner",
          "type": "address"
        },
        {
          "internalType": "address",
          "name": "spender",
          "type": "address"
        }
      ],
      "name": "allowance",
      "outputs": [
        {
          "internalType": "uint256",
          "name": "",
          "type": "uint256"
        }
      ],
      "stateMutability": "view",
      "type": "function"
    },
    {
      "inputs": [
        {
          "internalType": "address",
          "name": "spender",
          "type": "address"
        },
        {
          "internalType": "uint256",
          "name": "amount",
          "type": "uint256"
        }
      ],
      "name": "approve",
      "outputs": [
        {
          "internalType": "bool",
          "name": "",
          "type": "bool"
        }
      ],
      "stateMutability": "nonpayable",
      "type": "function"
    },
    {
      "inputs": [
        {
          "internalType": "address",
          "name": "account",
          "type": "address"
        }
      ],
      "name": "balanceOf",
      "outputs": [
        {
          "internalType": "uint256",
          "name": "",
          "type": "uint256"
        }
      ],
      "stateMutability": "view",
      "type": "function"
    },
    {
      "inputs": [
        {
          "internalType": "address",
          "name": "account_",
          "type": "address"
        },
        {
          "internalType": "uint256",
          "name": "amount_",
          "type": "uint256"
        }
      ],
      "name": "burnFrom",
      "outputs": [],
      "stateMutability": "nonpayable",
      "type": "function"
    },
    {
      "inputs": [],
      "name": "decimals",
      "outputs": [
        {
          "internalType": "uint8",
          "name": "",
          "type": "uint8"
        }
      ],
      "stateMutability": "view",
      "type": "function"
    },
    {
      "inputs": [
        {
          "internalType": "address",
          "name": "spender",
          "type": "address"
        },
        {
          "internalType": "uint256",
          "name": "subtractedValue",
          "type": "uint256"
        }
      ],
      "name": "decreaseAllowance",
      "outputs": [
        {
          "internalType": "bool",
          "name": "",
          "type": "bool"
        }
      ],
      "stateMutability": "nonpayable",
      "type": "function"
    },
    {
      "inputs": [
        {
          "internalType": "address",
          "name": "spender",
          "type": "address"
        },
        {
          "internalType": "uint256",
          "name": "addedValue",
          "type": "uint256"
        }
      ],
      "name": "increaseAllowance",
      "outputs": [
        {
          "internalType": "bool",
          "name": "",
          "type": "bool"
        }
      ],
      "stateMutability": "nonpayable",
      "type": "function"
    },
    {
      "inputs": [
        {
          "internalType": "address",
          "name": "to_",
          "type": "address"
        },
        {
          "internalType": "uint256",
          "name": "amount_",
          "type": "uint256"
        }
      ],
      "name": "mint",
      "outputs": [],
      "stateMutability": "nonpayable",
      "type": "function"
    },
    {
      "inputs": [],
      "name": "minter",
      "outputs": [
        {
          "internalType": "address",
          "name": "",
          "type": "address"
        }
      ],
      "stateMutability": "view",
      "type": "function"
    },
    {
      "inputs": [],
      "name": "name",
      "outputs": [
        {
          "internalType": "string",
          "name": "",
          "type": "string"
        }
      ],
      "stateMutability": "view",
      "type": "function"
    },
    {
      "inputs": [],
      "name": "owner",
      "outputs": [
        {
          "internalType": "address",
          "name": "",
          "type": "address"
        }
      ],
      "stateMutability": "view",
      "type": "function"
    },
    {
      "inputs": [],
      "name": "renounceOwnership",
      "outputs": [],
      "stateMutability": "nonpayable",
      "type": "function"
    },
    {
      "inputs": [
        {
          "internalType": "address",
          "name": "minter_",
          "type": "address"
        }
      ],
      "name": "setMinter",
      "outputs": [],
      "stateMutability": "nonpayable",
      "type": "function"
    },
    {
      "inputs": [],
      "name": "symbol",
      "outputs": [
        {
          "internalType": "string",
          "name": "",
          "type": "string"
        }
      ],
      "stateMutability": "view",
      "type": "function"
    },
    {
      "inputs": [],
      "name": "totalSupply",
      "outputs": [
        {
          "internalType": "uint256",
          "name": "",
          "type": "uint256"
        }
      ],
      "stateMutability": "view",
      "type": "function"
    },
    {
      "inputs": [
        {
          "internalType": "address",
          "name": "to",
          "type": "address"
        },
        {
          "internalType": "uint256",
          "name": "amount",
          "type": "uint256"
        }
      ],
      "name": "transfer",
      "outputs": [
        {
          "internalType": "bool",
          "name": "",
          "type": "bool"
        }
      ],
      "stateMutability": "nonpayable",
      "type": "function"
    },
    {
      "inputs": [
        {
          "internalType": "address",
          "name": "from",
          "type": "address"
        },
        {
          "internalType": "address",
          "name": "to",
          "type": "address"
        },
        {
          "internalType": "uint256",
          "name": "amount",
          "type": "uint256"
        }
      ],
      "name": "transferFrom",
      "outputs": [
        {
          "internalType": "bool",
          "name": "",
          "type": "bool"
        }
      ],
      "stateMutability": "nonpayable",
      "type": "function"
    },
    {
      "inputs": [
        {
          "internalType": "address",
          "name": "newOwner",
          "type": "address"
        }
      ],
      "name": "transferOwnership",
      "outputs": [],
      "stateMutability": "nonpayable",
      "type": "function"
    }
  ],
  "transactionHash": "0x9adf8a8da471a430da6ebfd43273a3f842c7e21838ed6373f398e6a4874d146d",
  "args": [
    "test weekly ebCAKE 0603",
    "ebCAKE-W-0603",
    "0xe7a2b8C8feD53713F69227e6c3d2384E80CF88a6"
  ],
  "numDeployments": 1,
  "solcInputHash": "42e37268afa670fbfab3d735f89d6527",
  "bytecode": "0x60806040523480156200001157600080fd5b506040516200123d3803806200123d833981016040819052620000349162000272565b8251839083906200004d906003906020850190620000ff565b50805162000063906004906020840190620000ff565b505050620000806200007a620000a960201b60201c565b620000ad565b600680546001600160a01b0319166001600160a01b0392909216919091179055506200033c9050565b3390565b600580546001600160a01b038381166001600160a01b0319831681179093556040519116919082907f8be0079c531659141344cd1fd0a4f28419497f9722a3daafe3b4186f6b6457e090600090a35050565b8280546200010d90620002ff565b90600052602060002090601f0160209004810192826200013157600085556200017c565b82601f106200014c57805160ff19168380011785556200017c565b828001600101855582156200017c579182015b828111156200017c5782518255916020019190600101906200015f565b506200018a9291506200018e565b5090565b5b808211156200018a57600081556001016200018f565b634e487b7160e01b600052604160045260246000fd5b600082601f830112620001cd57600080fd5b81516001600160401b0380821115620001ea57620001ea620001a5565b604051601f8301601f19908116603f01168101908282118183101715620002155762000215620001a5565b816040528381526020925086838588010111156200023257600080fd5b600091505b8382101562000256578582018301518183018401529082019062000237565b83821115620002685760008385830101525b9695505050505050565b6000806000606084860312156200028857600080fd5b83516001600160401b0380821115620002a057600080fd5b620002ae87838801620001bb565b94506020860151915080821115620002c557600080fd5b50620002d486828701620001bb565b604086015190935090506001600160a01b0381168114620002f457600080fd5b809150509250925092565b600181811c908216806200031457607f821691505b602082108114156200033657634e487b7160e01b600052602260045260246000fd5b50919050565b610ef1806200034c6000396000f3fe608060405234801561001057600080fd5b50600436106101165760003560e01c8063715018a6116100a2578063a457c2d711610071578063a457c2d714610240578063a9059cbb14610253578063dd62ed3e14610266578063f2fde38b14610279578063fca3b5aa1461028c57600080fd5b8063715018a61461020c57806379cc6790146102145780638da5cb5b1461022757806395d89b411461023857600080fd5b806323b872dd116100e957806323b872dd14610199578063313ce567146101ac57806339509351146101bb57806340c10f19146101ce57806370a08231146101e357600080fd5b806306fdde031461011b5780630754617214610139578063095ea7b31461016457806318160ddd14610187575b600080fd5b61012361029f565b6040516101309190610cda565b60405180910390f35b60065461014c906001600160a01b031681565b6040516001600160a01b039091168152602001610130565b610177610172366004610d4b565b610331565b6040519015158152602001610130565b6002545b604051908152602001610130565b6101776101a7366004610d75565b610349565b60405160128152602001610130565b6101776101c9366004610d4b565b61036d565b6101e16101dc366004610d4b565b61038f565b005b61018b6101f1366004610db1565b6001600160a01b031660009081526020819052604090205490565b6101e161042c565b6101e1610222366004610d4b565b610462565b6005546001600160a01b031661014c565b6101236104f6565b61017761024e366004610d4b565b610505565b610177610261366004610d4b565b610580565b61018b610274366004610dd3565b61058e565b6101e1610287366004610db1565b6105b9565b6101e161029a366004610db1565b610654565b6060600380546102ae90610e06565b80601f01602080910402602001604051908101604052809291908181526020018280546102da90610e06565b80156103275780601f106102fc57610100808354040283529160200191610327565b820191906000526020600020905b81548152906001019060200180831161030a57829003601f168201915b5050505050905090565b60003361033f8185856106f6565b5060019392505050565b60003361035785828561081b565b610362858585610895565b506001949350505050565b60003361033f818585610380838361058e565b61038a9190610e57565b6106f6565b6006546001600160a01b031633146103dc5760405162461bcd60e51b815260206004820152600b60248201526a4d696e746572206f6e6c7960a81b60448201526064015b60405180910390fd5b6000811161041e5760405162461bcd60e51b815260206004820152600f60248201526e139bdd1a1a5b99c81d1bc81b5a5b9d608a1b60448201526064016103d3565b6104288282610a63565b5050565b6005546001600160a01b031633146104565760405162461bcd60e51b81526004016103d390610e6f565b6104606000610b42565b565b6006546001600160a01b031633146104aa5760405162461bcd60e51b815260206004820152600b60248201526a4d696e746572206f6e6c7960a81b60448201526064016103d3565b600081116104ec5760405162461bcd60e51b815260206004820152600f60248201526e2737ba3434b733903a3790313ab93760891b60448201526064016103d3565b6104288282610b94565b6060600480546102ae90610e06565b60003381610513828661058e565b9050838110156105735760405162461bcd60e51b815260206004820152602560248201527f45524332303a2064656372656173656420616c6c6f77616e63652062656c6f77604482015264207a65726f60d81b60648201526084016103d3565b61036282868684036106f6565b60003361033f818585610895565b6001600160a01b03918216600090815260016020908152604080832093909416825291909152205490565b6005546001600160a01b031633146105e35760405162461bcd60e51b81526004016103d390610e6f565b6001600160a01b0381166106485760405162461bcd60e51b815260206004820152602660248201527f4f776e61626c653a206e6577206f776e657220697320746865207a65726f206160448201526564647265737360d01b60648201526084016103d3565b61065181610b42565b50565b6005546001600160a01b0316331461067e5760405162461bcd60e51b81526004016103d390610e6f565b6001600160a01b0381166106d45760405162461bcd60e51b815260206004820152601f60248201527f43616e7420736574206d696e74657220746f207a65726f20616464726573730060448201526064016103d3565b600680546001600160a01b0319166001600160a01b0392909216919091179055565b6001600160a01b0383166107585760405162461bcd60e51b8152602060048201526024808201527f45524332303a20617070726f76652066726f6d20746865207a65726f206164646044820152637265737360e01b60648201526084016103d3565b6001600160a01b0382166107b95760405162461bcd60e51b815260206004820152602260248201527f45524332303a20617070726f766520746f20746865207a65726f206164647265604482015261737360f01b60648201526084016103d3565b6001600160a01b0383811660008181526001602090815260408083209487168084529482529182902085905590518481527f8c5be1e5ebec7d5bd14f71427d1e84f3dd0314c0f7b2291e5b200ac8c7c3b92591015b60405180910390a3505050565b6000610827848461058e565b9050600019811461088f57818110156108825760405162461bcd60e51b815260206004820152601d60248201527f45524332303a20696e73756666696369656e7420616c6c6f77616e636500000060448201526064016103d3565b61088f84848484036106f6565b50505050565b6001600160a01b0383166108f95760405162461bcd60e51b815260206004820152602560248201527f45524332303a207472616e736665722066726f6d20746865207a65726f206164604482015264647265737360d81b60648201526084016103d3565b6001600160a01b03821661095b5760405162461bcd60e51b815260206004820152602360248201527f45524332303a207472616e7366657220746f20746865207a65726f206164647260448201526265737360e81b60648201526084016103d3565b6001600160a01b038316600090815260208190526040902054818110156109d35760405162461bcd60e51b815260206004820152602660248201527f45524332303a207472616e7366657220616d6f756e7420657863656564732062604482015265616c616e636560d01b60648201526084016103d3565b6001600160a01b03808516600090815260208190526040808220858503905591851681529081208054849290610a0a908490610e57565b92505081905550826001600160a01b0316846001600160a01b03167fddf252ad1be2c89b69c2b068fc378daa952ba7f163c4a11628f55a4df523b3ef84604051610a5691815260200190565b60405180910390a361088f565b6001600160a01b038216610ab95760405162461bcd60e51b815260206004820152601f60248201527f45524332303a206d696e7420746f20746865207a65726f20616464726573730060448201526064016103d3565b8060026000828254610acb9190610e57565b90915550506001600160a01b03821660009081526020819052604081208054839290610af8908490610e57565b90915550506040518181526001600160a01b038316906000907fddf252ad1be2c89b69c2b068fc378daa952ba7f163c4a11628f55a4df523b3ef9060200160405180910390a35050565b600580546001600160a01b038381166001600160a01b0319831681179093556040519116919082907f8be0079c531659141344cd1fd0a4f28419497f9722a3daafe3b4186f6b6457e090600090a35050565b6001600160a01b038216610bf45760405162461bcd60e51b815260206004820152602160248201527f45524332303a206275726e2066726f6d20746865207a65726f206164647265736044820152607360f81b60648201526084016103d3565b6001600160a01b03821660009081526020819052604090205481811015610c685760405162461bcd60e51b815260206004820152602260248201527f45524332303a206275726e20616d6f756e7420657863656564732062616c616e604482015261636560f01b60648201526084016103d3565b6001600160a01b0383166000908152602081905260408120838303905560028054849290610c97908490610ea4565b90915550506040518281526000906001600160a01b038516907fddf252ad1be2c89b69c2b068fc378daa952ba7f163c4a11628f55a4df523b3ef9060200161080e565b600060208083528351808285015260005b81811015610d0757858101830151858201604001528201610ceb565b81811115610d19576000604083870101525b50601f01601f1916929092016040019392505050565b80356001600160a01b0381168114610d4657600080fd5b919050565b60008060408385031215610d5e57600080fd5b610d6783610d2f565b946020939093013593505050565b600080600060608486031215610d8a57600080fd5b610d9384610d2f565b9250610da160208501610d2f565b9150604084013590509250925092565b600060208284031215610dc357600080fd5b610dcc82610d2f565b9392505050565b60008060408385031215610de657600080fd5b610def83610d2f565b9150610dfd60208401610d2f565b90509250929050565b600181811c90821680610e1a57607f821691505b60208210811415610e3b57634e487b7160e01b600052602260045260246000fd5b50919050565b634e487b7160e01b600052601160045260246000fd5b60008219821115610e6a57610e6a610e41565b500190565b6020808252818101527f4f776e61626c653a2063616c6c6572206973206e6f7420746865206f776e6572604082015260600190565b600082821015610eb657610eb6610e41565b50039056fea2646970667358221220986f4c2e0cf3d22017ec68382b93d1fae7557a88ca9099a7482187a1e86a56ee64736f6c63430008090033",
  "devdoc": {
    "kind": "dev",
    "methods": {
      "allowance(address,address)": {
        "details": "See {IERC20-allowance}."
      },
      "approve(address,uint256)": {
        "details": "See {IERC20-approve}. NOTE: If `amount` is the maximum `uint256`, the allowance is not updated on `transferFrom`. This is semantically equivalent to an infinite approval. Requirements: - `spender` cannot be the zero address."
      },
      "balanceOf(address)": {
        "details": "See {IERC20-balanceOf}."
      },
      "decimals()": {
        "details": "Returns the number of decimals used to get its user representation. For example, if `decimals` equals `2`, a balance of `505` tokens should be displayed to a user as `5.05` (`505 / 10 ** 2`). Tokens usually opt for a value of 18, imitating the relationship between Ether and Wei. This is the value {ERC20} uses, unless this function is overridden; NOTE: This information is only used for _display_ purposes: it in no way affects any of the arithmetic of the contract, including {IERC20-balanceOf} and {IERC20-transfer}."
      },
      "decreaseAllowance(address,uint256)": {
        "details": "Atomically decreases the allowance granted to `spender` by the caller. This is an alternative to {approve} that can be used as a mitigation for problems described in {IERC20-approve}. Emits an {Approval} event indicating the updated allowance. Requirements: - `spender` cannot be the zero address. - `spender` must have allowance for the caller of at least `subtractedValue`."
      },
      "increaseAllowance(address,uint256)": {
        "details": "Atomically increases the allowance granted to `spender` by the caller. This is an alternative to {approve} that can be used as a mitigation for problems described in {IERC20-approve}. Emits an {Approval} event indicating the updated allowance. Requirements: - `spender` cannot be the zero address."
      },
      "name()": {
        "details": "Returns the name of the token."
      },
      "owner()": {
        "details": "Returns the address of the current owner."
      },
      "renounceOwnership()": {
        "details": "Leaves the contract without owner. It will not be possible to call `onlyOwner` functions anymore. Can only be called by the current owner. NOTE: Renouncing ownership will leave the contract without an owner, thereby removing any functionality that is only available to the owner."
      },
      "symbol()": {
        "details": "Returns the symbol of the token, usually a shorter version of the name."
      },
      "totalSupply()": {
        "details": "See {IERC20-totalSupply}."
      },
      "transfer(address,uint256)": {
        "details": "See {IERC20-transfer}. Requirements: - `to` cannot be the zero address. - the caller must have a balance of at least `amount`."
      },
      "transferFrom(address,address,uint256)": {
        "details": "See {IERC20-transferFrom}. Emits an {Approval} event indicating the updated allowance. This is not required by the EIP. See the note at the beginning of {ERC20}. NOTE: Does not update the allowance if the current allowance is the maximum `uint256`. Requirements: - `from` and `to` cannot be the zero address. - `from` must have a balance of at least `amount`. - the caller must have allowance for ``from``'s tokens of at least `amount`."
      },
      "transferOwnership(address)": {
        "details": "Transfers ownership of the contract to a new account (`newOwner`). Can only be called by the current owner."
      }
    },
    "version": 1
  },
  "userdoc": {
    "kind": "user",
    "methods": {},
    "version": 1
  },
  "storageLayout": {
    "storage": [
      {
        "astId": 1239,
        "contract": "contracts/BondToken.sol:BondToken",
        "label": "_balances",
        "offset": 0,
        "slot": "0",
        "type": "t_mapping(t_address,t_uint256)"
      },
      {
        "astId": 1245,
        "contract": "contracts/BondToken.sol:BondToken",
        "label": "_allowances",
        "offset": 0,
        "slot": "1",
        "type": "t_mapping(t_address,t_mapping(t_address,t_uint256))"
      },
      {
        "astId": 1247,
        "contract": "contracts/BondToken.sol:BondToken",
        "label": "_totalSupply",
        "offset": 0,
        "slot": "2",
        "type": "t_uint256"
      },
      {
        "astId": 1249,
        "contract": "contracts/BondToken.sol:BondToken",
        "label": "_name",
        "offset": 0,
        "slot": "3",
        "type": "t_string_storage"
      },
      {
        "astId": 1251,
        "contract": "contracts/BondToken.sol:BondToken",
        "label": "_symbol",
        "offset": 0,
        "slot": "4",
        "type": "t_string_storage"
      },
      {
        "astId": 994,
        "contract": "contracts/BondToken.sol:BondToken",
        "label": "_owner",
        "offset": 0,
        "slot": "5",
        "type": "t_address"
      },
      {
        "astId": 4478,
        "contract": "contracts/BondToken.sol:BondToken",
        "label": "minter",
        "offset": 0,
        "slot": "6",
        "type": "t_address"
      }
    ],
    "types": {
      "t_address": {
        "encoding": "inplace",
        "label": "address",
        "numberOfBytes": "20"
      },
      "t_mapping(t_address,t_mapping(t_address,t_uint256))": {
        "encoding": "mapping",
        "key": "t_address",
        "label": "mapping(address => mapping(address => uint256))",
        "numberOfBytes": "32",
        "value": "t_mapping(t_address,t_uint256)"
      },
      "t_mapping(t_address,t_uint256)": {
        "encoding": "mapping",
        "key": "t_address",
        "label": "mapping(address => uint256)",
        "numberOfBytes": "32",
        "value": "t_uint256"
      },
      "t_string_storage": {
        "encoding": "bytes",
        "label": "string",
        "numberOfBytes": "32"
      },
      "t_uint256": {
        "encoding": "inplace",
        "label": "uint256",
        "numberOfBytes": "32"
      }
    }
  }
}