{
  "address": "0xc056Eed83d0789e5775e613ba76eE7bEfa370981",
  "abi": [
    {
      "anonymous": false,
      "inputs": [
        {
          "indexed": true,
          "internalType": "address",
          "name": "user",
          "type": "address"
        },
        {
          "indexed": true,
          "internalType": "address",
          "name": "newAdmin",
          "type": "address"
        }
      ],
      "name": "AdminUpdated",
      "type": "event"
    },
    {
      "anonymous": false,
      "inputs": [
        {
          "indexed": false,
          "internalType": "uint256",
          "name": "amount",
          "type": "uint256"
        },
        {
          "indexed": true,
          "internalType": "address",
          "name": "user",
          "type": "address"
        }
      ],
      "name": "Converted",
      "type": "event"
    },
    {
      "anonymous": false,
      "inputs": [
        {
          "indexed": false,
          "internalType": "uint8",
          "name": "version",
          "type": "uint8"
        }
      ],
      "name": "Initialized",
      "type": "event"
    },
    {
      "anonymous": false,
      "inputs": [
        {
          "indexed": true,
          "internalType": "address",
          "name": "user",
          "type": "address"
        },
        {
          "indexed": true,
          "internalType": "address",
          "name": "newKeeper",
          "type": "address"
        }
      ],
      "name": "KeeperUpdated",
      "type": "event"
    },
    {
      "anonymous": false,
      "inputs": [
        {
          "indexed": true,
          "internalType": "address",
          "name": "to",
          "type": "address"
        },
        {
          "indexed": false,
          "internalType": "uint256",
          "name": "amount",
          "type": "uint256"
        }
      ],
      "name": "MintedBondTokenForRewards",
      "type": "event"
    },
    {
      "anonymous": false,
      "inputs": [
        {
          "indexed": false,
          "internalType": "address",
          "name": "account",
          "type": "address"
        }
      ],
      "name": "Paused",
      "type": "event"
    },
    {
      "anonymous": false,
      "inputs": [
        {
          "indexed": false,
          "internalType": "address",
          "name": "account",
          "type": "address"
        }
      ],
      "name": "Unpaused",
      "type": "event"
    },
    {
      "inputs": [],
      "name": "PERCENTAGE_FACTOR",
      "outputs": [
        {
          "internalType": "uint16",
          "name": "",
          "type": "uint16"
        }
      ],
      "stateMutability": "view",
      "type": "function"
    },
    {
      "inputs": [
        {
          "components": [
            {
              "internalType": "string",
              "name": "desc",
              "type": "string"
            },
            {
              "internalType": "uint16",
              "name": "rate",
              "type": "uint16"
            },
            {
              "internalType": "address",
              "name": "receiver",
              "type": "address"
            }
          ],
          "internalType": "struct ExtendableBond.FeeSpec",
          "name": "feeSpec_",
          "type": "tuple"
        }
      ],
      "name": "addFeeSpec",
      "outputs": [],
      "stateMutability": "nonpayable",
      "type": "function"
    },
    {
      "inputs": [],
      "name": "admin",
      "outputs": [
        {
          "internalType": "address",
          "name": "",
          "type": "address"
        }
      ],
      "stateMutability": "view",
      "type": "function"
    },
    {
      "inputs": [],
      "name": "bondFarmingPool",
      "outputs": [
        {
          "internalType": "contract IBondFarmingPool",
          "name": "",
          "type": "address"
        }
      ],
      "stateMutability": "view",
      "type": "function"
    },
    {
      "inputs": [],
      "name": "bondLPFarmingPool",
      "outputs": [
        {
          "internalType": "contract IBondFarmingPool",
          "name": "",
          "type": "address"
        }
      ],
      "stateMutability": "view",
      "type": "function"
    },
    {
      "inputs": [],
      "name": "bondToken",
      "outputs": [
        {
          "internalType": "contract IBondTokenUpgradeable",
          "name": "",
          "type": "address"
        }
      ],
      "stateMutability": "view",
      "type": "function"
    },
    {
      "inputs": [],
      "name": "cakePool",
      "outputs": [
        {
          "internalType": "contract ICakePool",
          "name": "",
          "type": "address"
        }
      ],
      "stateMutability": "view",
      "type": "function"
    },
    {
      "inputs": [],
      "name": "checkPoints",
      "outputs": [
        {
          "internalType": "bool",
          "name": "convertable",
          "type": "bool"
        },
        {
          "internalType": "uint256",
          "name": "convertableFrom",
          "type": "uint256"
        },
        {
          "internalType": "uint256",
          "name": "convertableEnd",
          "type": "uint256"
        },
        {
          "internalType": "bool",
          "name": "redeemable",
          "type": "bool"
        },
        {
          "internalType": "uint256",
          "name": "redeemableFrom",
          "type": "uint256"
        },
        {
          "internalType": "uint256",
          "name": "redeemableEnd",
          "type": "uint256"
        },
        {
          "internalType": "uint256",
          "name": "maturity",
          "type": "uint256"
        }
      ],
      "stateMutability": "view",
      "type": "function"
    },
    {
      "inputs": [
        {
          "internalType": "uint256",
          "name": "amount_",
          "type": "uint256"
        }
      ],
      "name": "convert",
      "outputs": [],
      "stateMutability": "nonpayable",
      "type": "function"
    },
    {
      "inputs": [
        {
          "internalType": "uint256",
          "name": "amount_",
          "type": "uint256"
        }
      ],
      "name": "convertAndStake",
      "outputs": [],
      "stateMutability": "nonpayable",
      "type": "function"
    },
    {
      "inputs": [],
      "name": "depositAllToRemote",
      "outputs": [],
      "stateMutability": "nonpayable",
      "type": "function"
    },
    {
      "inputs": [
        {
          "internalType": "uint256",
          "name": "amount_",
          "type": "uint256"
        }
      ],
      "name": "depositToRemote",
      "outputs": [],
      "stateMutability": "nonpayable",
      "type": "function"
    },
    {
      "inputs": [
        {
          "internalType": "address",
          "name": "to_",
          "type": "address"
        }
      ],
      "name": "emergencyTransferUnderlyingTokens",
      "outputs": [],
      "stateMutability": "nonpayable",
      "type": "function"
    },
    {
      "inputs": [],
      "name": "extendPancakeLockDuration",
      "outputs": [],
      "stateMutability": "nonpayable",
      "type": "function"
    },
    {
      "inputs": [
        {
          "internalType": "uint256",
          "name": "",
          "type": "uint256"
        }
      ],
      "name": "feeSpecs",
      "outputs": [
        {
          "internalType": "string",
          "name": "desc",
          "type": "string"
        },
        {
          "internalType": "uint16",
          "name": "rate",
          "type": "uint16"
        },
        {
          "internalType": "address",
          "name": "receiver",
          "type": "address"
        }
      ],
      "stateMutability": "view",
      "type": "function"
    },
    {
      "inputs": [
        {
          "internalType": "contract IBondTokenUpgradeable",
          "name": "bondToken_",
          "type": "address"
        },
        {
          "internalType": "contract IERC20Upgradeable",
          "name": "underlyingToken_",
          "type": "address"
        },
        {
          "internalType": "address",
          "name": "admin_",
          "type": "address"
        }
      ],
      "name": "initialize",
      "outputs": [],
      "stateMutability": "nonpayable",
      "type": "function"
    },
    {
      "inputs": [],
      "name": "keeper",
      "outputs": [
        {
          "internalType": "address",
          "name": "",
          "type": "address"
        }
      ],
      "stateMutability": "view",
      "type": "function"
    },
    {
      "inputs": [
        {
          "internalType": "address",
          "name": "to_",
          "type": "address"
        },
        {
          "internalType": "uint256",
          "name": "amount_",
          "type": "uint256"
        }
      ],
      "name": "mintBondTokenForRewards",
      "outputs": [],
      "stateMutability": "nonpayable",
      "type": "function"
    },
    {
      "inputs": [],
      "name": "pause",
      "outputs": [],
      "stateMutability": "nonpayable",
      "type": "function"
    },
    {
      "inputs": [],
      "name": "paused",
      "outputs": [
        {
          "internalType": "bool",
          "name": "",
          "type": "bool"
        }
      ],
      "stateMutability": "view",
      "type": "function"
    },
    {
      "inputs": [
        {
          "internalType": "uint256",
          "name": "amount_",
          "type": "uint256"
        }
      ],
      "name": "redeem",
      "outputs": [],
      "stateMutability": "nonpayable",
      "type": "function"
    },
    {
      "inputs": [],
      "name": "redeemAll",
      "outputs": [],
      "stateMutability": "nonpayable",
      "type": "function"
    },
    {
      "inputs": [],
      "name": "remoteUnderlyingAmount",
      "outputs": [
        {
          "internalType": "uint256",
          "name": "",
          "type": "uint256"
        }
      ],
      "stateMutability": "view",
      "type": "function"
    },
    {
      "inputs": [
        {
          "internalType": "uint256",
          "name": "feeSpecIndex",
          "type": "uint256"
        }
      ],
      "name": "removeFeeSpec",
      "outputs": [],
      "stateMutability": "nonpayable",
      "type": "function"
    },
    {
      "inputs": [],
      "name": "secondsToPancakeLockExtend",
      "outputs": [
        {
          "internalType": "uint256",
          "name": "",
          "type": "uint256"
        }
      ],
      "stateMutability": "view",
      "type": "function"
    },
    {
      "inputs": [
        {
          "internalType": "address",
          "name": "newAdmin",
          "type": "address"
        }
      ],
      "name": "setAdmin",
      "outputs": [],
      "stateMutability": "nonpayable",
      "type": "function"
    },
    {
      "inputs": [
        {
          "internalType": "contract ICakePool",
          "name": "cakePool_",
          "type": "address"
        }
      ],
      "name": "setCakePool",
      "outputs": [],
      "stateMutability": "nonpayable",
      "type": "function"
    },
    {
      "inputs": [
        {
          "internalType": "bool",
          "name": "convertable_",
          "type": "bool"
        }
      ],
      "name": "setConvertable",
      "outputs": [],
      "stateMutability": "nonpayable",
      "type": "function"
    },
    {
      "inputs": [
        {
          "internalType": "contract IBondFarmingPool",
          "name": "bondPool_",
          "type": "address"
        },
        {
          "internalType": "contract IBondFarmingPool",
          "name": "lpPool_",
          "type": "address"
        }
      ],
      "name": "setFarmingPools",
      "outputs": [],
      "stateMutability": "nonpayable",
      "type": "function"
    },
    {
      "inputs": [
        {
          "internalType": "uint256",
          "name": "feeId_",
          "type": "uint256"
        },
        {
          "components": [
            {
              "internalType": "string",
              "name": "desc",
              "type": "string"
            },
            {
              "internalType": "uint16",
              "name": "rate",
              "type": "uint16"
            },
            {
              "internalType": "address",
              "name": "receiver",
              "type": "address"
            }
          ],
          "internalType": "struct ExtendableBond.FeeSpec",
          "name": "feeSpec_",
          "type": "tuple"
        }
      ],
      "name": "setFeeSpec",
      "outputs": [],
      "stateMutability": "nonpayable",
      "type": "function"
    },
    {
      "inputs": [
        {
          "internalType": "address",
          "name": "newKeeper",
          "type": "address"
        }
      ],
      "name": "setKeeper",
      "outputs": [],
      "stateMutability": "nonpayable",
      "type": "function"
    },
    {
      "inputs": [
        {
          "internalType": "bool",
          "name": "redeemable_",
          "type": "bool"
        }
      ],
      "name": "setRedeemable",
      "outputs": [],
      "stateMutability": "nonpayable",
      "type": "function"
    },
    {
      "inputs": [],
      "name": "totalBondTokenAmount",
      "outputs": [
        {
          "internalType": "uint256",
          "name": "",
          "type": "uint256"
        }
      ],
      "stateMutability": "view",
      "type": "function"
    },
    {
      "inputs": [],
      "name": "totalPendingRewards",
      "outputs": [
        {
          "internalType": "uint256",
          "name": "",
          "type": "uint256"
        }
      ],
      "stateMutability": "view",
      "type": "function"
    },
    {
      "inputs": [],
      "name": "totalUnderlyingAmount",
      "outputs": [
        {
          "internalType": "uint256",
          "name": "",
          "type": "uint256"
        }
      ],
      "stateMutability": "view",
      "type": "function"
    },
    {
      "inputs": [],
      "name": "underlyingAmount",
      "outputs": [
        {
          "internalType": "uint256",
          "name": "",
          "type": "uint256"
        }
      ],
      "stateMutability": "view",
      "type": "function"
    },
    {
      "inputs": [],
      "name": "underlyingToken",
      "outputs": [
        {
          "internalType": "contract IERC20Upgradeable",
          "name": "",
          "type": "address"
        }
      ],
      "stateMutability": "view",
      "type": "function"
    },
    {
      "inputs": [],
      "name": "unpause",
      "outputs": [],
      "stateMutability": "nonpayable",
      "type": "function"
    },
    {
      "inputs": [
        {
          "components": [
            {
              "internalType": "bool",
              "name": "convertable",
              "type": "bool"
            },
            {
              "internalType": "uint256",
              "name": "convertableFrom",
              "type": "uint256"
            },
            {
              "internalType": "uint256",
              "name": "convertableEnd",
              "type": "uint256"
            },
            {
              "internalType": "bool",
              "name": "redeemable",
              "type": "bool"
            },
            {
              "internalType": "uint256",
              "name": "redeemableFrom",
              "type": "uint256"
            },
            {
              "internalType": "uint256",
              "name": "redeemableEnd",
              "type": "uint256"
            },
            {
              "internalType": "uint256",
              "name": "maturity",
              "type": "uint256"
            }
          ],
          "internalType": "struct ExtendableBond.CheckPoints",
          "name": "checkPoints_",
          "type": "tuple"
        }
      ],
      "name": "updateCheckPoints",
      "outputs": [],
      "stateMutability": "nonpayable",
      "type": "function"
    },
    {
      "inputs": [
        {
          "internalType": "bool",
          "name": "makeRedeemable_",
          "type": "bool"
        }
      ],
      "name": "withdrawAllCakesFromPancake",
      "outputs": [],
      "stateMutability": "nonpayable",
      "type": "function"
    }
  ],
  "transactionHash": "0x480b85baa528f8b5a723112fd3e3c0d443b62a1ce74898ee54a4967ff5d22550",
  "args": [],
  "numDeployments": 2,
  "solcInputHash": "e4d473242e9fec77f279c6086d6c656f",
  "bytecode": "0x608060405234801561001057600080fd5b506132b2806100206000396000f3fe608060405234801561001057600080fd5b50600436106102485760003560e01c8063a18487731161013b578063d629b80c116100b8578063ec1371f21161007c578063ec1371f214610503578063ed64a9671461050b578063ee01e5e71461051e578063f7d97faf1461053a578063f851a4401461054d57600080fd5b8063d629b80c146104ba578063db006a75146104cd578063dbfb206a146104e0578063de21647c146104e8578063e1a1ab21146104fb57600080fd5b8063b3cb305b116100ff578063b3cb305b1461045b578063c0c53b8b1461046e578063c28f439214610481578063cd49b17814610494578063d3d63770146104a757600080fd5b8063a1848773146103fc578063a3908e1b1461040f578063a94b569414610422578063aced166114610435578063b1acc8a41461044857600080fd5b80634a1dfebf116101c9578063741a0e321161018d578063741a0e32146103be578063748747e6146103c65780637614115c146103d95780637bd5490e146103e15780638456cb59146103f457600080fd5b80634a1dfebf146103645780634eccc36a1461037a5780635c975abb146103825780635cb7758e14610398578063704b6c02146103ab57600080fd5b80633dae08cc116102105780633dae08cc146102c05780633ec3edcf1461031f5780633f2d25c1146103275780633f4ba83a1461033a57806344877d161461034257600080fd5b80632495a5991461024d5780632f4350c21461027d57806338907118146102875780633a1739d21461029a5780633ab45271146102ad575b600080fd5b609a54610260906001600160a01b031681565b6040516001600160a01b0390911681526020015b60405180910390f35b610285610560565b005b610285610295366004612a52565b61060b565b6102856102a8366004612a6f565b61065d565b6102856102bb366004612a99565b610883565b609e54609f5460a05460a15460a25460a35460a4546102e89660ff9081169695941692919087565b6040805197151588526020880196909652948601939093529015156060850152608084015260a083015260c082015260e001610274565b6102856109b1565b610285610335366004612ae0565b610a78565b610285610c68565b610355610350366004612ae0565b610ce3565b60405161027493929190612b51565b61036c610db5565b604051908152602001610274565b610285610dd6565b60655460ff166040519015158152602001610274565b609c54610260906001600160a01b031681565b6102856103b9366004612b9d565b610e92565b61036c610ec5565b6102856103d4366004612b9d565b611088565b61036c6110bb565b6102856103ef366004612ae0565b611137565b6102856111a3565b61028561040a366004612b9d565b6111f8565b61028561041d366004612ae0565b611244565b610285610430366004612bba565b6112b6565b609854610260906001600160a01b031681565b610285610456366004612ae0565b611535565b609b54610260906001600160a01b031681565b61028561047c366004612be6565b61157d565b609954610260906001600160a01b031681565b6102856104a2366004612b9d565b61168c565b6102856104b5366004612a52565b6116eb565b6102856104c8366004612c31565b6117a8565b6102856104db366004612ae0565b611933565b61036c611c15565b6102856104f6366004612c66565b611c5a565b61036c611d20565b61036c611e79565b60a554610260906001600160a01b031681565b61052761271081565b60405161ffff9091168152602001610274565b610285610548366004612a52565b611eac565b609754610260906001600160a01b031681565b60655460ff161561058c5760405162461bcd60e51b815260040161058390612c9f565b60405180910390fd5b6099546040516370a0823160e01b8152336004820152610609916001600160a01b0316906370a082319060240160206040518083038186803b1580156105d157600080fd5b505afa1580156105e5573d6000803e3d6000fd5b505050506040513d601f19601f820116820180604052508101906104db9190612cc9565b565b6097546001600160a01b031633148061062e57506098546001600160a01b031633145b61064a5760405162461bcd60e51b815260040161058390612ce2565b60a1805460ff1916911515919091179055565b6097546001600160a01b031633148061068057506098546001600160a01b031633145b61069c5760405162461bcd60e51b815260040161058390612ce2565b60008160200135116106ff5760405162461bcd60e51b815260206004820152602660248201527f636f6e7665727461626c6546726f6d206d75737420626520677265617465722060448201526507468616e20360d41b6064820152608401610583565b80604001358160200135106107715760405162461bcd60e51b815260206004820152603260248201527f72656465656d61626c6546726f6d206d757374206265206561726c69657220746044820152711a185b8818dbdb9d995c9d18589b19515b9960721b6064820152608401610583565b8060400135816080013511801561079057508060c00135816080013510155b6108025760405162461bcd60e51b815260206004820152603d60248201527f72656465656d61626c6546726f6d206d757374206265206c617465722074686160448201527f6e20636f6e7665727461626c65456e6420616e64206d617475726974790000006064820152608401610583565b80608001358160a00135116108715760405162461bcd60e51b815260206004820152602f60248201527f72656465656d61626c65456e64206d757374206265206c61746572207468616e60448201526e2072656465656d61626c6546726f6d60881b6064820152608401610583565b80609e61087e8282612d08565b505050565b6097546001600160a01b031633146108ad5760405162461bcd60e51b815260040161058390612ce2565b60006108bf6040830160208401612d8b565b61ffff16116109065760405162461bcd60e51b8152602060048201526013602482015272466565207261746520697320746f6f206c6f7760681b6044820152606401610583565b80609d838154811061091a5761091a612da8565b906000526020600020906002020181816109349190612e59565b9050506000805b609d5481101561098e57609d818154811061095857610958612da8565b600091825260209091206001600290920201015461097a9061ffff1683612fb8565b91508061098681612fd0565b91505061093b565b5061271081111561087e5760405162461bcd60e51b815260040161058390612feb565b6097546001600160a01b03163314806109d457506098546001600160a01b031633145b6109f05760405162461bcd60e51b815260040161058390612ce2565b60006109fa611d20565b90508015610a755760a5546001600160a01b031663e2bbb1586000610a1d611d20565b6040516001600160e01b031960e085901b168152600481019290925260248201526044015b600060405180830381600087803b158015610a5c57600080fd5b505af1158015610a70573d6000803e3d6000fd5b505050505b50565b60655460ff1615610a9b5760405162461bcd60e51b815260040161058390612c9f565b60026001541415610abe5760405162461bcd60e51b81526004016105839061302c565b600260015580610b055760405162461bcd60e51b8152602060048201526012602482015271139bdd1a1a5b99c81d1bc818dbdb9d995c9d60721b6044820152606401610583565b610b0d611efe565b610b15611f6c565b609a543390610b2f906001600160a01b0316823085612038565b610b38826120a3565b6099546040516340c10f1960e01b81526001600160a01b03909116906340c10f1990610b6a9030908690600401613063565b600060405180830381600087803b158015610b8457600080fd5b505af1158015610b98573d6000803e3d6000fd5b5050609b54609954610bb993506001600160a01b039081169250168461226f565b609b54604051637ebce35160e11b81526001600160a01b039091169063fd79c6a290610beb9084908690600401613063565b600060405180830381600087803b158015610c0557600080fd5b505af1158015610c19573d6000803e3d6000fd5b50505050806001600160a01b03167fe506c5b38303257173417712c8d702c3ca26f81804dab9d4232beab595a4967883604051610c5891815260200190565b60405180910390a2505060018055565b6097546001600160a01b03163314610c925760405162461bcd60e51b815260040161058390612ce2565b60655460ff16610cdb5760405162461bcd60e51b815260206004820152601460248201527314185d5cd8589b194e881b9bdd081c185d5cd95960621b6044820152606401610583565b610609612382565b609d8181548110610cf357600080fd5b9060005260206000209060020201600091509050806000018054610d1690612dbe565b80601f0160208091040260200160405190810160405280929190818152602001828054610d4290612dbe565b8015610d8f5780601f10610d6457610100808354040283529160200191610d8f565b820191906000526020600020905b815481529060010190602001808311610d7257829003601f168201915b5050506001909301549192505061ffff8116906001600160a01b03620100009091041683565b6000610dbf610ec5565b610dc76110bb565b610dd19190612fb8565b905090565b6097546001600160a01b0316331480610df957506098546001600160a01b031633145b610e155760405162461bcd60e51b815260040161058390612ce2565b609a546040516370a0823160e01b8152306004820152610609916001600160a01b0316906370a082319060240160206040518083038186803b158015610e5a57600080fd5b505afa158015610e6e573d6000803e3d6000fd5b505050506040513d601f19601f820116820180604052508101906104569190612cc9565b6097546001600160a01b03163314610ebc5760405162461bcd60e51b815260040161058390612ce2565b610a7581612415565b60a554604051630cacd00160e11b815230600482015260009182916001600160a01b0390911690631959a002906024016101206040518083038186803b158015610f0e57600080fd5b505afa158015610f22573d6000803e3d6000fd5b505050506040513d601f19601f82011682018060405250810190610f4691906130bf565b9050600060a560009054906101000a90046001600160a01b03166001600160a01b03166377c7b8fc6040518163ffffffff1660e01b815260040160206040518083038186803b158015610f9857600080fd5b505afa158015610fac573d6000803e3d6000fd5b505050506040513d601f19601f82011682018060405250810190610fd09190612cc9565b60a55483516040516314d2e7eb60e11b81529293506001600160a01b03909116916329a5cfd69161100691309190600401613063565b60206040518083038186803b15801561101e57600080fd5b505afa158015611032573d6000803e3d6000fd5b505050506040513d601f19601f820116820180604052508101906110569190612cc9565b8251670de0b6b3a76400009061106d90849061313f565b611077919061315e565b6110819190613180565b9250505090565b6097546001600160a01b031633146110b25760405162461bcd60e51b815260040161058390612ce2565b610a75816124c1565b609a546040516370a0823160e01b81523060048201526000916001600160a01b0316906370a082319060240160206040518083038186803b1580156110ff57600080fd5b505afa158015611113573d6000803e3d6000fd5b505050506040513d601f19601f82011682018060405250810190610dd19190612cc9565b6097546001600160a01b031633146111615760405162461bcd60e51b815260040161058390612ce2565b609d818154811061117457611174612da8565b6000918252602082206002909102019061118e82826129f6565b5060010180546001600160b01b031916905550565b6097546001600160a01b031633146111cd5760405162461bcd60e51b815260040161058390612ce2565b60655460ff16156111f05760405162461bcd60e51b815260040161058390612c9f565b61060961250d565b6097546001600160a01b031633146112225760405162461bcd60e51b815260040161058390612ce2565b60a580546001600160a01b0319166001600160a01b0392909216919091179055565b60655460ff16156112675760405162461bcd60e51b815260040161058390612c9f565b600081116112ac5760405162461bcd60e51b8152602060048201526012602482015271139bdd1a1a5b99c81d1bc818dbdb9d995c9d60721b6044820152606401610583565b610a758133612565565b609b546001600160a01b03163314806112d95750609c546001600160a01b031633145b61131e5760405162461bcd60e51b81526020600482015260166024820152751bdb9b1e48199c9bdb4819985c9b5a5b99c81c1bdbdb60521b6044820152606401610583565b611326610db5565b8161132f611c15565b6113399190612fb8565b111561137c5760405162461bcd60e51b815260206004820152601260248201527143616e206e6f74206f76657220697373756560701b6044820152606401610583565b60008111611388575050565b8060005b609d54811015611481576000609d82815481106113ab576113ab612da8565b600091825260208220600160029092020190810154909250612710906113d59061ffff168661313f565b6113df919061315e565b9050600081116113f057505061146f565b6113fa8185613180565b60995460018401546040516340c10f1960e01b81529296506001600160a01b03918216926340c10f199261143a9262010000900416908590600401613063565b600060405180830381600087803b15801561145457600080fd5b505af1158015611468573d6000803e3d6000fd5b5050505050505b8061147981612fd0565b91505061138c565b5080156114ed576099546040516340c10f1960e01b81526001600160a01b03909116906340c10f19906114ba9086908590600401613063565b600060405180830381600087803b1580156114d457600080fd5b505af11580156114e8573d6000803e3d6000fd5b505050505b826001600160a01b03167fe983a9107ef1ede2128027c84916ca9d350512f44c4502e560a1fda90a77a4628360405161152891815260200190565b60405180910390a2505050565b6097546001600160a01b031633148061155857506098546001600160a01b031633145b6115745760405162461bcd60e51b815260040161058390612ce2565b610a75816120a3565b600061158960016125f0565b905080156115a1576000805461ff0019166101001790555b6001600160a01b0382166115f75760405162461bcd60e51b815260206004820152601e60248201527f43616e74207365742061646d696e20746f207a65726f206164647265737300006044820152606401610583565b6115ff61267d565b6116076126ac565b61161033612415565b609980546001600160a01b038087166001600160a01b031992831617909255609a8054928616929091169190911790558015611686576000805461ff0019169055604051600181527f7f26b83ff96e1f2b6a682f133852f6798a09c465da95921460cefb38474024989060200160405180910390a15b50505050565b6097546001600160a01b031633146116b65760405162461bcd60e51b815260040161058390612ce2565b609e805460ff1990811690915560a180549091169055610a75816116d86110bb565b609a546001600160a01b031691906126db565b6097546001600160a01b031633148061170e57506098546001600160a01b031633145b61172a5760405162461bcd60e51b815260040161058390612ce2565b609e805460ff1916905560a5546040805163429c145b60e11b815290516001600160a01b039092169163853828b69160048082019260009290919082900301818387803b15801561177a57600080fd5b505af115801561178e573d6000803e3d6000fd5b505050508015610a755760a1805460ff1916600117905550565b6097546001600160a01b031633146117d25760405162461bcd60e51b815260040161058390612ce2565b609d546005116118195760405162461bcd60e51b8152602060048201526012602482015271546f6f206d616e792066656520737065637360701b6044820152606401610583565b600061182b6040830160208401612d8b565b61ffff16116118725760405162461bcd60e51b8152602060048201526013602482015272466565207261746520697320746f6f206c6f7760681b6044820152606401610583565b609d805460018101825560009190915281906002027fd26e832454299e9fabb89e0e5fffdc046d4e14431bc1bf607ffb2e8a1ddecf7b016118b38282612e59565b50506000805b609d5481101561190c57609d81815481106118d6576118d6612da8565b60009182526020909120600160029092020101546118f89061ffff1683612fb8565b91508061190481612fd0565b9150506118b9565b5061271081111561192f5760405162461bcd60e51b815260040161058390612feb565b5050565b60655460ff16156119565760405162461bcd60e51b815260040161058390612c9f565b600260015414156119795760405162461bcd60e51b81526004016105839061302c565b6002600155806119bf5760405162461bcd60e51b81526020600482015260116024820152704e6f7468696e6720746f2072656465656d60781b6044820152606401610583565b60a15460ff1680156119d3575060a2544210155b80156119e1575060a3544211155b80156119ee575060a05442115b611a2c5760405162461bcd60e51b815260206004820152600f60248201526e21b0b7103737ba103932b232b2b69760891b6044820152606401610583565b6099546040516370a0823160e01b81523360048201819052916000916001600160a01b03909116906370a082319060240160206040518083038186803b158015611a7557600080fd5b505afa158015611a89573d6000803e3d6000fd5b505050506040513d601f19601f82011682018060405250810190611aad9190612cc9565b905080831115611af65760405162461bcd60e51b8152602060048201526014602482015273496e73756666696369656e742062616c616e636560601b6044820152606401610583565b60995460405163079cc67960e41b81526001600160a01b03909116906379cc679090611b289085908790600401613063565b600060405180830381600087803b158015611b4257600080fd5b505af1158015611b56573d6000803e3d6000fd5b5050609a546040516370a0823160e01b8152306004820152600093506001600160a01b0390911691506370a082319060240160206040518083038186803b158015611ba057600080fd5b505afa158015611bb4573d6000803e3d6000fd5b505050506040513d601f19601f82011682018060405250810190611bd89190612cc9565b905083811015611bf457611bf4611bef8286613180565b6126fa565b609a54611c0b906001600160a01b031684866126db565b5050600180555050565b609954604080516318160ddd60e01b815290516000926001600160a01b0316916318160ddd916004808301926020929190829003018186803b1580156110ff57600080fd5b6097546001600160a01b03163314611c845760405162461bcd60e51b815260040161058390612ce2565b6001600160a01b03821615801590611cae5750806001600160a01b0316826001600160a01b031614155b611cf25760405162461bcd60e51b8152602060048201526015602482015274696e76616c6964206661726d696e6720706f6f6c7360581b6044820152606401610583565b609b80546001600160a01b039384166001600160a01b031991821617909155609c8054929093169116179055565b60a554604051630cacd00160e11b81523060048201526000918291429183916001600160a01b0390911690631959a002906024016101206040518083038186803b158015611d6d57600080fd5b505afa158015611d81573d6000803e3d6000fd5b505050506040513d601f19601f82011682018060405250810190611da591906130bf565b9050818160a00151111580611dbc57508060e00151155b80611dcc575060a45460a0820151105b15611e715760a454611e6e90611de3908490613180565b60a560009054906101000a90046001600160a01b03166001600160a01b0316634f1bfc9e6040518163ffffffff1660e01b815260040160206040518083038186803b158015611e3157600080fd5b505afa158015611e45573d6000803e3d6000fd5b505050506040513d601f19601f82011682018060405250810190611e699190612cc9565b61272b565b92505b509092915050565b600080611e84610db5565b90506000611e90611c15565b9050818110611ea25760009250505090565b6110818183613180565b6097546001600160a01b0316331480611ecf57506098546001600160a01b031633145b611eeb5760405162461bcd60e51b815260040161058390612ce2565b609e805460ff1916911515919091179055565b609e5460ff168015611f125750609f544210155b8015611f20575060a0544211155b8015611f2d575060a25442105b6106095760405162461bcd60e51b815260206004820152601060248201526f21b0b7103737ba1031b7b73b32b93a1760811b6044820152606401610583565b609b60009054906101000a90046001600160a01b03166001600160a01b031663e3161ddd6040518163ffffffff1660e01b8152600401600060405180830381600087803b158015611fbc57600080fd5b505af1158015611fd0573d6000803e3d6000fd5b50505050609c60009054906101000a90046001600160a01b03166001600160a01b031663e3161ddd6040518163ffffffff1660e01b8152600401600060405180830381600087803b15801561202457600080fd5b505af1158015611686573d6000803e3d6000fd5b6040516001600160a01b03808516602483015283166044820152606481018290526116869085906323b872dd60e01b906084015b60408051601f198184030181529190526020810180516001600160e01b03166001600160e01b031990931692909217909152612743565b609a546040516370a0823160e01b81523060048201526000916001600160a01b0316906370a082319060240160206040518083038186803b1580156120e757600080fd5b505afa1580156120fb573d6000803e3d6000fd5b505050506040513d601f19601f8201168201806040525081019061211f9190612cc9565b90506000811180156121315750818110155b6121725760405162461bcd60e51b81526020600482015260126024820152711b9bdd1a1a5b99c81d1bc819195c1bdcda5d60721b6044820152606401610583565b609a5460a55460405163095ea7b360e01b81526001600160a01b039283169263095ea7b3926121a8929116908690600401613063565b602060405180830381600087803b1580156121c257600080fd5b505af11580156121d6573d6000803e3d6000fd5b505050506040513d601f19601f820116820180604052508101906121fa9190613197565b5060a5546001600160a01b031663e2bbb15883612215611d20565b6040516001600160e01b031960e085901b16815260048101929092526024820152604401600060405180830381600087803b15801561225357600080fd5b505af1158015612267573d6000803e3d6000fd5b505050505050565b8015806122f85750604051636eb1769f60e11b81523060048201526001600160a01b03838116602483015284169063dd62ed3e9060440160206040518083038186803b1580156122be57600080fd5b505afa1580156122d2573d6000803e3d6000fd5b505050506040513d601f19601f820116820180604052508101906122f69190612cc9565b155b6123635760405162461bcd60e51b815260206004820152603660248201527f5361666545524332303a20617070726f76652066726f6d206e6f6e2d7a65726f60448201527520746f206e6f6e2d7a65726f20616c6c6f77616e636560501b6064820152608401610583565b61087e8363095ea7b360e01b848460405160240161206c929190613063565b60655460ff166123cb5760405162461bcd60e51b815260206004820152601460248201527314185d5cd8589b194e881b9bdd081c185d5cd95960621b6044820152606401610583565b6065805460ff191690557f5db9ee0a495bf2e6ff9c91a7834c1ba4fdd244a5e8aa4e537bd38aeae4b073aa335b6040516001600160a01b03909116815260200160405180910390a1565b6001600160a01b0381166124755760405162461bcd60e51b815260206004820152602160248201527f43616e206e6f74207365742061646d696e20746f207a65726f206164647265736044820152607360f81b6064820152608401610583565b609780546001600160a01b0319166001600160a01b03831690811790915560405133907f101b8081ff3b56bbf45deb824d86a3b0fd38b7e3dd42421105cf8abe9106db0b90600090a350565b609880546001600160a01b0319166001600160a01b03831690811790915560405133907f53d3703fe259def57584466f32d1b94c30278008c683c21b04501c4966f13a6990600090a350565b60655460ff16156125305760405162461bcd60e51b815260040161058390612c9f565b6065805460ff191660011790557f62e78cea01bee320cd4e420270b5ea74000d11b0c9f74754ebdbfc544b05a2586123f83390565b600260015414156125885760405162461bcd60e51b81526004016105839061302c565b6002600155612595611efe565b61259d611f6c565b609a546125b5906001600160a01b0316823085612038565b6125be826120a3565b6099546040516340c10f1960e01b81526001600160a01b03909116906340c10f1990610beb9084908690600401613063565b60008054610100900460ff1615612637578160ff1660011480156126135750303b155b61262f5760405162461bcd60e51b8152600401610583906131b4565b506000919050565b60005460ff80841691161061265e5760405162461bcd60e51b8152600401610583906131b4565b506000805460ff191660ff92909216919091179055600190565b919050565b600054610100900460ff166126a45760405162461bcd60e51b815260040161058390613202565b610609612815565b600054610100900460ff166126d35760405162461bcd60e51b815260040161058390613202565b610609612848565b61087e8363a9059cbb60e01b848460405160240161206c929190613063565b60a554604051635521e9bf60e01b8152600481018390526001600160a01b0390911690635521e9bf90602401610a42565b600081831061273a578161273c565b825b9392505050565b6000612798826040518060400160405280602081526020017f5361666545524332303a206c6f772d6c6576656c2063616c6c206661696c6564815250856001600160a01b03166128759092919063ffffffff16565b80519091501561087e57808060200190518101906127b69190613197565b61087e5760405162461bcd60e51b815260206004820152602a60248201527f5361666545524332303a204552433230206f7065726174696f6e20646964206e6044820152691bdd081cdd58d8d9595960b21b6064820152608401610583565b600054610100900460ff1661283c5760405162461bcd60e51b815260040161058390613202565b6065805460ff19169055565b600054610100900460ff1661286f5760405162461bcd60e51b815260040161058390613202565b60018055565b6060612884848460008561288c565b949350505050565b6060824710156128ed5760405162461bcd60e51b815260206004820152602660248201527f416464726573733a20696e73756666696369656e742062616c616e636520666f6044820152651c8818d85b1b60d21b6064820152608401610583565b6001600160a01b0385163b6129445760405162461bcd60e51b815260206004820152601d60248201527f416464726573733a2063616c6c20746f206e6f6e2d636f6e74726163740000006044820152606401610583565b600080866001600160a01b03168587604051612960919061324d565b60006040518083038185875af1925050503d806000811461299d576040519150601f19603f3d011682016040523d82523d6000602084013e6129a2565b606091505b50915091506129b28282866129bd565b979650505050505050565b606083156129cc57508161273c565b8251156129dc5782518084602001fd5b8160405162461bcd60e51b81526004016105839190613269565b508054612a0290612dbe565b6000825580601f10612a12575050565b601f016020900490600052602060002090810190610a7591905b80821115612a405760008155600101612a2c565b5090565b8015158114610a7557600080fd5b600060208284031215612a6457600080fd5b813561273c81612a44565b600060e08284031215612a8157600080fd5b50919050565b600060608284031215612a8157600080fd5b60008060408385031215612aac57600080fd5b82359150602083013567ffffffffffffffff811115612aca57600080fd5b612ad685828601612a87565b9150509250929050565b600060208284031215612af257600080fd5b5035919050565b60005b83811015612b14578181015183820152602001612afc565b838111156116865750506000910152565b60008151808452612b3d816020860160208601612af9565b601f01601f19169290920160200192915050565b606081526000612b646060830186612b25565b61ffff949094166020830152506001600160a01b0391909116604090910152919050565b6001600160a01b0381168114610a7557600080fd5b600060208284031215612baf57600080fd5b813561273c81612b88565b60008060408385031215612bcd57600080fd5b8235612bd881612b88565b946020939093013593505050565b600080600060608486031215612bfb57600080fd5b8335612c0681612b88565b92506020840135612c1681612b88565b91506040840135612c2681612b88565b809150509250925092565b600060208284031215612c4357600080fd5b813567ffffffffffffffff811115612c5a57600080fd5b61288484828501612a87565b60008060408385031215612c7957600080fd5b8235612c8481612b88565b91506020830135612c9481612b88565b809150509250929050565b60208082526010908201526f14185d5cd8589b194e881c185d5cd95960821b604082015260600190565b600060208284031215612cdb57600080fd5b5051919050565b6020808252600c908201526b15539055551213d49256915160a21b604082015260600190565b8135612d1381612a44565b815460ff191660ff821515161782555060208201356001820155604082013560028201556060820135612d4581612a44565b60038201805460ff191660ff83151516179055506080820135600482015560a0820135600582015560c082013560068201555050565b61ffff81168114610a7557600080fd5b600060208284031215612d9d57600080fd5b813561273c81612d7b565b634e487b7160e01b600052603260045260246000fd5b600181811c90821680612dd257607f821691505b60208210811415612a8157634e487b7160e01b600052602260045260246000fd5b601f82111561087e57600081815260208120601f850160051c81016020861015612e1a5750805b601f850160051c820191505b8181101561226757828155600101612e26565b60008135612e4681612d7b565b92915050565b60008135612e4681612b88565b8135601e19833603018112612e6d57600080fd5b8201803567ffffffffffffffff811115612e8657600080fd5b60208136038184011315612e9957600080fd5b612ead82612ea78654612dbe565b86612df3565b6000601f831160018114612ee35760008415612ecb57508482018301355b600019600386901b1c1916600185901b178655612f40565b600086815260209020601f19851690835b82811015612f15578785018601358255938501936001909101908501612ef4565b5085821015612f345760001960f88760031b161c198585890101351681555b505060018460011b0186555b5050600184019250612f69612f56828701612e39565b845461ffff191661ffff91909116178455565b505061087e612f7a60408501612e4c565b82805462010000600160b01b03191660109290921b62010000600160b01b0316919091179055565b634e487b7160e01b600052601160045260246000fd5b60008219821115612fcb57612fcb612fa2565b500190565b6000600019821415612fe457612fe4612fa2565b5060010190565b60208082526021908201527f546f74616c2066656520726174652067726561746572207468616e20313030256040820152601760f91b606082015260800190565b6020808252601f908201527f5265656e7472616e637947756172643a207265656e7472616e742063616c6c00604082015260600190565b6001600160a01b03929092168252602082015260400190565b604051610120810167ffffffffffffffff811182821017156130ae57634e487b7160e01b600052604160045260246000fd5b60405290565b805161267881612a44565b600061012082840312156130d257600080fd5b6130da61307c565b825181526020830151602082015260408301516040820152606083015160608201526080830151608082015260a083015160a082015260c083015160c082015261312660e084016130b4565b60e0820152610100928301519281019290925250919050565b600081600019048311821515161561315957613159612fa2565b500290565b60008261317b57634e487b7160e01b600052601260045260246000fd5b500490565b60008282101561319257613192612fa2565b500390565b6000602082840312156131a957600080fd5b815161273c81612a44565b6020808252602e908201527f496e697469616c697a61626c653a20636f6e747261637420697320616c72656160408201526d191e481a5b9a5d1a585b1a5e995960921b606082015260800190565b6020808252602b908201527f496e697469616c697a61626c653a20636f6e7472616374206973206e6f74206960408201526a6e697469616c697a696e6760a81b606082015260800190565b6000825161325f818460208701612af9565b9190910192915050565b60208152600061273c6020830184612b2556fea2646970667358221220794d2cbf3014dd71aa4f331562fdabde52ce17d99d1d700bae1937bc115bd32c64736f6c63430008090033",
  "devdoc": {
    "kind": "dev",
    "methods": {
      "convert(uint256)": {
        "details": "convert underlying token to bond token to current user",
        "params": {
          "amount_": "amount of underlying token to convert"
        }
      },
      "convertAndStake(uint256)": {
        "details": "convert underlying token to bond token and stake to bondFarmingPool for current user"
      },
      "emergencyTransferUnderlyingTokens(address)": {
        "details": "emergency transfer underlying token for security issue or bug encounted."
      },
      "extendPancakeLockDuration()": {
        "details": "extend pancake lock duration if needs"
      },
      "mintBondTokenForRewards(address,uint256)": {
        "details": "mint bond token for rewards and allocate fees."
      },
      "pause()": {
        "details": "Only possible when contract not paused."
      },
      "paused()": {
        "details": "Returns true if the contract is paused, and false otherwise."
      },
      "redeem(uint256)": {
        "details": "Redeem specific amount of my bond tokens.",
        "params": {
          "amount_": "amount to redeem"
        }
      },
      "redeemAll()": {
        "details": "Redeem all my bond tokens to underlying tokens."
      },
      "remoteUnderlyingAmount()": {
        "details": "calculate cake amount from pancake."
      },
      "totalPendingRewards()": {
        "details": "Total pending rewards for bond. May be negative in some unexpected circumstances,      such as remote underlying amount has unexpectedly decreased makes bond token over issued."
      },
      "unpause()": {
        "details": "Only possible when contract is paused."
      },
      "updateCheckPoints((bool,uint256,uint256,bool,uint256,uint256,uint256))": {
        "details": "update checkPoints",
        "params": {
          "checkPoints_": "new checkpoints"
        }
      },
      "withdrawAllCakesFromPancake(bool)": {
        "details": "Withdraw cake from cake pool."
      }
    },
    "version": 1
  },
  "userdoc": {
    "events": {
      "Converted(uint256,address)": {
        "notice": "Emitted when someone convert underlying token to the bond."
      }
    },
    "kind": "user",
    "methods": {
      "addFeeSpec((string,uint16,address))": {
        "notice": "add fee specification"
      },
      "bondToken()": {
        "notice": "Bond token contract"
      },
      "cakePool()": {
        "notice": "CakePool contract"
      },
      "feeSpecs(uint256)": {
        "notice": "Fee specifications"
      },
      "pause()": {
        "notice": "Trigger stopped state"
      },
      "setFeeSpec(uint256,(string,uint16,address))": {
        "notice": "update fee specification"
      },
      "totalBondTokenAmount()": {
        "notice": "Bond token total amount."
      },
      "totalUnderlyingAmount()": {
        "notice": "total underlying token amount, including hold in current contract and remote"
      },
      "underlyingAmount()": {
        "notice": "Underlying token amount that hold in current contract."
      },
      "underlyingToken()": {
        "notice": "Bond underlying asset"
      },
      "unpause()": {
        "notice": "Return to normal state"
      }
    },
    "version": 1
  },
  "storageLayout": {
    "storage": [
      {
        "astId": 6,
        "contract": "contracts/underlyings/pancake/ExtendableBondedCake.sol:ExtendableBondedCake",
        "label": "_initialized",
        "offset": 0,
        "slot": "0",
        "type": "t_uint8"
      },
      {
        "astId": 9,
        "contract": "contracts/underlyings/pancake/ExtendableBondedCake.sol:ExtendableBondedCake",
        "label": "_initializing",
        "offset": 1,
        "slot": "0",
        "type": "t_bool"
      },
      {
        "astId": 266,
        "contract": "contracts/underlyings/pancake/ExtendableBondedCake.sol:ExtendableBondedCake",
        "label": "_status",
        "offset": 0,
        "slot": "1",
        "type": "t_uint256"
      },
      {
        "astId": 310,
        "contract": "contracts/underlyings/pancake/ExtendableBondedCake.sol:ExtendableBondedCake",
        "label": "__gap",
        "offset": 0,
        "slot": "2",
        "type": "t_array(t_uint256)49_storage"
      },
      {
        "astId": 897,
        "contract": "contracts/underlyings/pancake/ExtendableBondedCake.sol:ExtendableBondedCake",
        "label": "__gap",
        "offset": 0,
        "slot": "51",
        "type": "t_array(t_uint256)50_storage"
      },
      {
        "astId": 162,
        "contract": "contracts/underlyings/pancake/ExtendableBondedCake.sol:ExtendableBondedCake",
        "label": "_paused",
        "offset": 0,
        "slot": "101",
        "type": "t_bool"
      },
      {
        "astId": 251,
        "contract": "contracts/underlyings/pancake/ExtendableBondedCake.sol:ExtendableBondedCake",
        "label": "__gap",
        "offset": 0,
        "slot": "102",
        "type": "t_array(t_uint256)49_storage"
      },
      {
        "astId": 7503,
        "contract": "contracts/underlyings/pancake/ExtendableBondedCake.sol:ExtendableBondedCake",
        "label": "admin",
        "offset": 0,
        "slot": "151",
        "type": "t_address"
      },
      {
        "astId": 7739,
        "contract": "contracts/underlyings/pancake/ExtendableBondedCake.sol:ExtendableBondedCake",
        "label": "keeper",
        "offset": 0,
        "slot": "152",
        "type": "t_address"
      },
      {
        "astId": 4594,
        "contract": "contracts/underlyings/pancake/ExtendableBondedCake.sol:ExtendableBondedCake",
        "label": "bondToken",
        "offset": 0,
        "slot": "153",
        "type": "t_contract(IBondTokenUpgradeable)7369"
      },
      {
        "astId": 4598,
        "contract": "contracts/underlyings/pancake/ExtendableBondedCake.sol:ExtendableBondedCake",
        "label": "underlyingToken",
        "offset": 0,
        "slot": "154",
        "type": "t_contract(IERC20Upgradeable)389"
      },
      {
        "astId": 4605,
        "contract": "contracts/underlyings/pancake/ExtendableBondedCake.sol:ExtendableBondedCake",
        "label": "bondFarmingPool",
        "offset": 0,
        "slot": "155",
        "type": "t_contract(IBondFarmingPool)7349"
      },
      {
        "astId": 4608,
        "contract": "contracts/underlyings/pancake/ExtendableBondedCake.sol:ExtendableBondedCake",
        "label": "bondLPFarmingPool",
        "offset": 0,
        "slot": "156",
        "type": "t_contract(IBondFarmingPool)7349"
      },
      {
        "astId": 4633,
        "contract": "contracts/underlyings/pancake/ExtendableBondedCake.sol:ExtendableBondedCake",
        "label": "feeSpecs",
        "offset": 0,
        "slot": "157",
        "type": "t_array(t_struct(FeeSpec)4628_storage)dyn_storage"
      },
      {
        "astId": 4651,
        "contract": "contracts/underlyings/pancake/ExtendableBondedCake.sol:ExtendableBondedCake",
        "label": "checkPoints",
        "offset": 0,
        "slot": "158",
        "type": "t_struct(CheckPoints)4648_storage"
      },
      {
        "astId": 16388,
        "contract": "contracts/underlyings/pancake/ExtendableBondedCake.sol:ExtendableBondedCake",
        "label": "cakePool",
        "offset": 0,
        "slot": "165",
        "type": "t_contract(ICakePool)7454"
      }
    ],
    "types": {
      "t_address": {
        "encoding": "inplace",
        "label": "address",
        "numberOfBytes": "20"
      },
      "t_array(t_struct(FeeSpec)4628_storage)dyn_storage": {
        "base": "t_struct(FeeSpec)4628_storage",
        "encoding": "dynamic_array",
        "label": "struct ExtendableBond.FeeSpec[]",
        "numberOfBytes": "32"
      },
      "t_array(t_uint256)49_storage": {
        "base": "t_uint256",
        "encoding": "inplace",
        "label": "uint256[49]",
        "numberOfBytes": "1568"
      },
      "t_array(t_uint256)50_storage": {
        "base": "t_uint256",
        "encoding": "inplace",
        "label": "uint256[50]",
        "numberOfBytes": "1600"
      },
      "t_bool": {
        "encoding": "inplace",
        "label": "bool",
        "numberOfBytes": "1"
      },
      "t_contract(IBondFarmingPool)7349": {
        "encoding": "inplace",
        "label": "contract IBondFarmingPool",
        "numberOfBytes": "20"
      },
      "t_contract(IBondTokenUpgradeable)7369": {
        "encoding": "inplace",
        "label": "contract IBondTokenUpgradeable",
        "numberOfBytes": "20"
      },
      "t_contract(ICakePool)7454": {
        "encoding": "inplace",
        "label": "contract ICakePool",
        "numberOfBytes": "20"
      },
      "t_contract(IERC20Upgradeable)389": {
        "encoding": "inplace",
        "label": "contract IERC20Upgradeable",
        "numberOfBytes": "20"
      },
      "t_string_storage": {
        "encoding": "bytes",
        "label": "string",
        "numberOfBytes": "32"
      },
      "t_struct(CheckPoints)4648_storage": {
        "encoding": "inplace",
        "label": "struct ExtendableBond.CheckPoints",
        "members": [
          {
            "astId": 4635,
            "contract": "contracts/underlyings/pancake/ExtendableBondedCake.sol:ExtendableBondedCake",
            "label": "convertable",
            "offset": 0,
            "slot": "0",
            "type": "t_bool"
          },
          {
            "astId": 4637,
            "contract": "contracts/underlyings/pancake/ExtendableBondedCake.sol:ExtendableBondedCake",
            "label": "convertableFrom",
            "offset": 0,
            "slot": "1",
            "type": "t_uint256"
          },
          {
            "astId": 4639,
            "contract": "contracts/underlyings/pancake/ExtendableBondedCake.sol:ExtendableBondedCake",
            "label": "convertableEnd",
            "offset": 0,
            "slot": "2",
            "type": "t_uint256"
          },
          {
            "astId": 4641,
            "contract": "contracts/underlyings/pancake/ExtendableBondedCake.sol:ExtendableBondedCake",
            "label": "redeemable",
            "offset": 0,
            "slot": "3",
            "type": "t_bool"
          },
          {
            "astId": 4643,
            "contract": "contracts/underlyings/pancake/ExtendableBondedCake.sol:ExtendableBondedCake",
            "label": "redeemableFrom",
            "offset": 0,
            "slot": "4",
            "type": "t_uint256"
          },
          {
            "astId": 4645,
            "contract": "contracts/underlyings/pancake/ExtendableBondedCake.sol:ExtendableBondedCake",
            "label": "redeemableEnd",
            "offset": 0,
            "slot": "5",
            "type": "t_uint256"
          },
          {
            "astId": 4647,
            "contract": "contracts/underlyings/pancake/ExtendableBondedCake.sol:ExtendableBondedCake",
            "label": "maturity",
            "offset": 0,
            "slot": "6",
            "type": "t_uint256"
          }
        ],
        "numberOfBytes": "224"
      },
      "t_struct(FeeSpec)4628_storage": {
        "encoding": "inplace",
        "label": "struct ExtendableBond.FeeSpec",
        "members": [
          {
            "astId": 4623,
            "contract": "contracts/underlyings/pancake/ExtendableBondedCake.sol:ExtendableBondedCake",
            "label": "desc",
            "offset": 0,
            "slot": "0",
            "type": "t_string_storage"
          },
          {
            "astId": 4625,
            "contract": "contracts/underlyings/pancake/ExtendableBondedCake.sol:ExtendableBondedCake",
            "label": "rate",
            "offset": 0,
            "slot": "1",
            "type": "t_uint16"
          },
          {
            "astId": 4627,
            "contract": "contracts/underlyings/pancake/ExtendableBondedCake.sol:ExtendableBondedCake",
            "label": "receiver",
            "offset": 2,
            "slot": "1",
            "type": "t_address"
          }
        ],
        "numberOfBytes": "64"
      },
      "t_uint16": {
        "encoding": "inplace",
        "label": "uint16",
        "numberOfBytes": "2"
      },
      "t_uint256": {
        "encoding": "inplace",
        "label": "uint256",
        "numberOfBytes": "32"
      },
      "t_uint8": {
        "encoding": "inplace",
        "label": "uint8",
        "numberOfBytes": "1"
      }
    }
  }
}