{
  "address": "0x7DA88F60893A0D60ec7F105e1e988C31dE9743c2",
  "abi": [
    {
      "anonymous": false,
      "inputs": [
        {
          "indexed": true,
          "internalType": "address",
          "name": "user",
          "type": "address"
        },
        {
          "indexed": true,
          "internalType": "address",
          "name": "newAdmin",
          "type": "address"
        }
      ],
      "name": "AdminUpdated",
      "type": "event"
    },
    {
      "anonymous": false,
      "inputs": [
        {
          "indexed": false,
          "internalType": "uint256",
          "name": "amount",
          "type": "uint256"
        },
        {
          "indexed": true,
          "internalType": "address",
          "name": "user",
          "type": "address"
        }
      ],
      "name": "Converted",
      "type": "event"
    },
    {
      "anonymous": false,
      "inputs": [
        {
          "indexed": false,
          "internalType": "uint8",
          "name": "version",
          "type": "uint8"
        }
      ],
      "name": "Initialized",
      "type": "event"
    },
    {
      "anonymous": false,
      "inputs": [
        {
          "indexed": true,
          "internalType": "address",
          "name": "user",
          "type": "address"
        },
        {
          "indexed": true,
          "internalType": "address",
          "name": "newKeeper",
          "type": "address"
        }
      ],
      "name": "KeeperUpdated",
      "type": "event"
    },
    {
      "anonymous": false,
      "inputs": [
        {
          "indexed": true,
          "internalType": "address",
          "name": "to",
          "type": "address"
        },
        {
          "indexed": false,
          "internalType": "uint256",
          "name": "amount",
          "type": "uint256"
        }
      ],
      "name": "MintedBondTokenForRewards",
      "type": "event"
    },
    {
      "anonymous": false,
      "inputs": [
        {
          "indexed": false,
          "internalType": "address",
          "name": "account",
          "type": "address"
        }
      ],
      "name": "Paused",
      "type": "event"
    },
    {
      "anonymous": false,
      "inputs": [
        {
          "indexed": false,
          "internalType": "address",
          "name": "account",
          "type": "address"
        }
      ],
      "name": "Unpaused",
      "type": "event"
    },
    {
      "inputs": [],
      "name": "PERCENTAGE_FACTOR",
      "outputs": [
        {
          "internalType": "uint16",
          "name": "",
          "type": "uint16"
        }
      ],
      "stateMutability": "view",
      "type": "function"
    },
    {
      "inputs": [
        {
          "components": [
            {
              "internalType": "string",
              "name": "desc",
              "type": "string"
            },
            {
              "internalType": "uint16",
              "name": "rate",
              "type": "uint16"
            },
            {
              "internalType": "address",
              "name": "receiver",
              "type": "address"
            }
          ],
          "internalType": "struct ExtendableBond.FeeSpec",
          "name": "feeSpec_",
          "type": "tuple"
        }
      ],
      "name": "addFeeSpec",
      "outputs": [],
      "stateMutability": "nonpayable",
      "type": "function"
    },
    {
      "inputs": [],
      "name": "admin",
      "outputs": [
        {
          "internalType": "address",
          "name": "",
          "type": "address"
        }
      ],
      "stateMutability": "view",
      "type": "function"
    },
    {
      "inputs": [],
      "name": "bondFarmingPool",
      "outputs": [
        {
          "internalType": "contract IBondFarmingPool",
          "name": "",
          "type": "address"
        }
      ],
      "stateMutability": "view",
      "type": "function"
    },
    {
      "inputs": [],
      "name": "bondLPFarmingPool",
      "outputs": [
        {
          "internalType": "contract IBondFarmingPool",
          "name": "",
          "type": "address"
        }
      ],
      "stateMutability": "view",
      "type": "function"
    },
    {
      "inputs": [],
      "name": "bondToken",
      "outputs": [
        {
          "internalType": "contract IBondTokenUpgradeable",
          "name": "",
          "type": "address"
        }
      ],
      "stateMutability": "view",
      "type": "function"
    },
    {
      "inputs": [
        {
          "internalType": "uint256",
          "name": "amount_",
          "type": "uint256"
        }
      ],
      "name": "burnBondToken",
      "outputs": [],
      "stateMutability": "nonpayable",
      "type": "function"
    },
    {
      "inputs": [],
      "name": "cakePool",
      "outputs": [
        {
          "internalType": "contract ICakePool",
          "name": "",
          "type": "address"
        }
      ],
      "stateMutability": "view",
      "type": "function"
    },
    {
      "inputs": [
        {
          "internalType": "uint256",
          "name": "amount_",
          "type": "uint256"
        }
      ],
      "name": "calculateFeeAmount",
      "outputs": [
        {
          "internalType": "uint256",
          "name": "",
          "type": "uint256"
        }
      ],
      "stateMutability": "view",
      "type": "function"
    },
    {
      "inputs": [],
      "name": "checkPoints",
      "outputs": [
        {
          "internalType": "bool",
          "name": "convertable",
          "type": "bool"
        },
        {
          "internalType": "uint256",
          "name": "convertableFrom",
          "type": "uint256"
        },
        {
          "internalType": "uint256",
          "name": "convertableEnd",
          "type": "uint256"
        },
        {
          "internalType": "bool",
          "name": "redeemable",
          "type": "bool"
        },
        {
          "internalType": "uint256",
          "name": "redeemableFrom",
          "type": "uint256"
        },
        {
          "internalType": "uint256",
          "name": "redeemableEnd",
          "type": "uint256"
        },
        {
          "internalType": "uint256",
          "name": "maturity",
          "type": "uint256"
        }
      ],
      "stateMutability": "view",
      "type": "function"
    },
    {
      "inputs": [
        {
          "internalType": "uint256",
          "name": "amount_",
          "type": "uint256"
        }
      ],
      "name": "convert",
      "outputs": [],
      "stateMutability": "nonpayable",
      "type": "function"
    },
    {
      "inputs": [
        {
          "internalType": "uint256",
          "name": "amount_",
          "type": "uint256"
        }
      ],
      "name": "convertAndStake",
      "outputs": [],
      "stateMutability": "nonpayable",
      "type": "function"
    },
    {
      "inputs": [],
      "name": "depositAllToRemote",
      "outputs": [],
      "stateMutability": "nonpayable",
      "type": "function"
    },
    {
      "inputs": [
        {
          "internalType": "uint256",
          "name": "amount_",
          "type": "uint256"
        }
      ],
      "name": "depositToRemote",
      "outputs": [],
      "stateMutability": "nonpayable",
      "type": "function"
    },
    {
      "inputs": [
        {
          "internalType": "address",
          "name": "to_",
          "type": "address"
        }
      ],
      "name": "emergencyTransferUnderlyingTokens",
      "outputs": [],
      "stateMutability": "nonpayable",
      "type": "function"
    },
    {
      "inputs": [],
      "name": "extendPancakeLockDuration",
      "outputs": [],
      "stateMutability": "nonpayable",
      "type": "function"
    },
    {
      "inputs": [
        {
          "internalType": "uint256",
          "name": "",
          "type": "uint256"
        }
      ],
      "name": "feeSpecs",
      "outputs": [
        {
          "internalType": "string",
          "name": "desc",
          "type": "string"
        },
        {
          "internalType": "uint16",
          "name": "rate",
          "type": "uint16"
        },
        {
          "internalType": "address",
          "name": "receiver",
          "type": "address"
        }
      ],
      "stateMutability": "view",
      "type": "function"
    },
    {
      "inputs": [],
      "name": "feeSpecsLength",
      "outputs": [
        {
          "internalType": "uint256",
          "name": "",
          "type": "uint256"
        }
      ],
      "stateMutability": "view",
      "type": "function"
    },
    {
      "inputs": [
        {
          "internalType": "contract IBondTokenUpgradeable",
          "name": "bondToken_",
          "type": "address"
        },
        {
          "internalType": "contract IERC20Upgradeable",
          "name": "underlyingToken_",
          "type": "address"
        },
        {
          "internalType": "address",
          "name": "admin_",
          "type": "address"
        }
      ],
      "name": "initialize",
      "outputs": [],
      "stateMutability": "nonpayable",
      "type": "function"
    },
    {
      "inputs": [],
      "name": "keeper",
      "outputs": [
        {
          "internalType": "address",
          "name": "",
          "type": "address"
        }
      ],
      "stateMutability": "view",
      "type": "function"
    },
    {
      "inputs": [
        {
          "internalType": "address",
          "name": "to_",
          "type": "address"
        },
        {
          "internalType": "uint256",
          "name": "amount_",
          "type": "uint256"
        }
      ],
      "name": "mintBondTokenForRewards",
      "outputs": [
        {
          "internalType": "uint256",
          "name": "totalFeeAmount",
          "type": "uint256"
        }
      ],
      "stateMutability": "nonpayable",
      "type": "function"
    },
    {
      "inputs": [],
      "name": "pancakeUserInfo",
      "outputs": [
        {
          "components": [
            {
              "internalType": "uint256",
              "name": "shares",
              "type": "uint256"
            },
            {
              "internalType": "uint256",
              "name": "lastDepositedTime",
              "type": "uint256"
            },
            {
              "internalType": "uint256",
              "name": "cakeAtLastUserAction",
              "type": "uint256"
            },
            {
              "internalType": "uint256",
              "name": "lastUserActionTime",
              "type": "uint256"
            },
            {
              "internalType": "uint256",
              "name": "lockStartTime",
              "type": "uint256"
            },
            {
              "internalType": "uint256",
              "name": "lockEndTime",
              "type": "uint256"
            },
            {
              "internalType": "uint256",
              "name": "userBoostedShare",
              "type": "uint256"
            },
            {
              "internalType": "bool",
              "name": "locked",
              "type": "bool"
            },
            {
              "internalType": "uint256",
              "name": "lockedAmount",
              "type": "uint256"
            }
          ],
          "internalType": "struct ICakePool.UserInfo",
          "name": "",
          "type": "tuple"
        }
      ],
      "stateMutability": "view",
      "type": "function"
    },
    {
      "inputs": [],
      "name": "pause",
      "outputs": [],
      "stateMutability": "nonpayable",
      "type": "function"
    },
    {
      "inputs": [],
      "name": "paused",
      "outputs": [
        {
          "internalType": "bool",
          "name": "",
          "type": "bool"
        }
      ],
      "stateMutability": "view",
      "type": "function"
    },
    {
      "inputs": [
        {
          "internalType": "uint256",
          "name": "amount_",
          "type": "uint256"
        }
      ],
      "name": "redeem",
      "outputs": [],
      "stateMutability": "nonpayable",
      "type": "function"
    },
    {
      "inputs": [],
      "name": "redeemAll",
      "outputs": [],
      "stateMutability": "nonpayable",
      "type": "function"
    },
    {
      "inputs": [],
      "name": "remoteUnderlyingAmount",
      "outputs": [
        {
          "internalType": "uint256",
          "name": "",
          "type": "uint256"
        }
      ],
      "stateMutability": "view",
      "type": "function"
    },
    {
      "inputs": [
        {
          "internalType": "uint256",
          "name": "feeSpecIndex",
          "type": "uint256"
        }
      ],
      "name": "removeFeeSpec",
      "outputs": [],
      "stateMutability": "nonpayable",
      "type": "function"
    },
    {
      "inputs": [],
      "name": "secondsToPancakeLockExtend",
      "outputs": [
        {
          "internalType": "uint256",
          "name": "",
          "type": "uint256"
        }
      ],
      "stateMutability": "view",
      "type": "function"
    },
    {
      "inputs": [
        {
          "internalType": "address",
          "name": "newAdmin",
          "type": "address"
        }
      ],
      "name": "setAdmin",
      "outputs": [],
      "stateMutability": "nonpayable",
      "type": "function"
    },
    {
      "inputs": [
        {
          "internalType": "contract ICakePool",
          "name": "cakePool_",
          "type": "address"
        }
      ],
      "name": "setCakePool",
      "outputs": [],
      "stateMutability": "nonpayable",
      "type": "function"
    },
    {
      "inputs": [
        {
          "internalType": "bool",
          "name": "convertable_",
          "type": "bool"
        }
      ],
      "name": "setConvertable",
      "outputs": [],
      "stateMutability": "nonpayable",
      "type": "function"
    },
    {
      "inputs": [
        {
          "internalType": "contract IBondFarmingPool",
          "name": "bondPool_",
          "type": "address"
        },
        {
          "internalType": "contract IBondFarmingPool",
          "name": "lpPool_",
          "type": "address"
        }
      ],
      "name": "setFarmingPools",
      "outputs": [],
      "stateMutability": "nonpayable",
      "type": "function"
    },
    {
      "inputs": [
        {
          "internalType": "uint256",
          "name": "feeId_",
          "type": "uint256"
        },
        {
          "components": [
            {
              "internalType": "string",
              "name": "desc",
              "type": "string"
            },
            {
              "internalType": "uint16",
              "name": "rate",
              "type": "uint16"
            },
            {
              "internalType": "address",
              "name": "receiver",
              "type": "address"
            }
          ],
          "internalType": "struct ExtendableBond.FeeSpec",
          "name": "feeSpec_",
          "type": "tuple"
        }
      ],
      "name": "setFeeSpec",
      "outputs": [],
      "stateMutability": "nonpayable",
      "type": "function"
    },
    {
      "inputs": [
        {
          "internalType": "address",
          "name": "newKeeper",
          "type": "address"
        }
      ],
      "name": "setKeeper",
      "outputs": [],
      "stateMutability": "nonpayable",
      "type": "function"
    },
    {
      "inputs": [
        {
          "internalType": "bool",
          "name": "redeemable_",
          "type": "bool"
        }
      ],
      "name": "setRedeemable",
      "outputs": [],
      "stateMutability": "nonpayable",
      "type": "function"
    },
    {
      "inputs": [],
      "name": "totalBondTokenAmount",
      "outputs": [
        {
          "internalType": "uint256",
          "name": "",
          "type": "uint256"
        }
      ],
      "stateMutability": "view",
      "type": "function"
    },
    {
      "inputs": [],
      "name": "totalPendingRewards",
      "outputs": [
        {
          "internalType": "uint256",
          "name": "",
          "type": "uint256"
        }
      ],
      "stateMutability": "view",
      "type": "function"
    },
    {
      "inputs": [],
      "name": "totalUnderlyingAmount",
      "outputs": [
        {
          "internalType": "uint256",
          "name": "",
          "type": "uint256"
        }
      ],
      "stateMutability": "view",
      "type": "function"
    },
    {
      "inputs": [],
      "name": "underlyingAmount",
      "outputs": [
        {
          "internalType": "uint256",
          "name": "",
          "type": "uint256"
        }
      ],
      "stateMutability": "view",
      "type": "function"
    },
    {
      "inputs": [],
      "name": "underlyingToken",
      "outputs": [
        {
          "internalType": "contract IERC20Upgradeable",
          "name": "",
          "type": "address"
        }
      ],
      "stateMutability": "view",
      "type": "function"
    },
    {
      "inputs": [],
      "name": "unpause",
      "outputs": [],
      "stateMutability": "nonpayable",
      "type": "function"
    },
    {
      "inputs": [
        {
          "components": [
            {
              "internalType": "bool",
              "name": "convertable",
              "type": "bool"
            },
            {
              "internalType": "uint256",
              "name": "convertableFrom",
              "type": "uint256"
            },
            {
              "internalType": "uint256",
              "name": "convertableEnd",
              "type": "uint256"
            },
            {
              "internalType": "bool",
              "name": "redeemable",
              "type": "bool"
            },
            {
              "internalType": "uint256",
              "name": "redeemableFrom",
              "type": "uint256"
            },
            {
              "internalType": "uint256",
              "name": "redeemableEnd",
              "type": "uint256"
            },
            {
              "internalType": "uint256",
              "name": "maturity",
              "type": "uint256"
            }
          ],
          "internalType": "struct ExtendableBond.CheckPoints",
          "name": "checkPoints_",
          "type": "tuple"
        }
      ],
      "name": "updateCheckPoints",
      "outputs": [],
      "stateMutability": "nonpayable",
      "type": "function"
    },
    {
      "inputs": [
        {
          "internalType": "bool",
          "name": "makeRedeemable_",
          "type": "bool"
        }
      ],
      "name": "withdrawAllCakesFromPancake",
      "outputs": [],
      "stateMutability": "nonpayable",
      "type": "function"
    }
  ],
  "transactionHash": "0x99f03b1088d95372710995404cbd0440772cee37e3ff86efedb8ba711e8f0c9d",
  "args": [],
  "numDeployments": 7,
  "solcInputHash": "1fd92a7a1dc07c4bb8c457bfa3594851",
  "bytecode": "0x608060405234801561001057600080fd5b506137ae806100206000396000f3fe608060405234801561001057600080fd5b50600436106102745760003560e01c8063a184877311610151578063d3d63770116100c3578063e1a1ab2111610087578063e1a1ab21146105cc578063ec1371f2146105d4578063ed64a967146105dc578063ee01e5e7146105ef578063f7d97faf1461060b578063f851a4401461061e57600080fd5b8063d3d6377014610578578063d629b80c1461058b578063db006a751461059e578063dbfb206a146105b1578063de21647c146105b957600080fd5b8063b3cb305b11610115578063b3cb305b146104a2578063b59f2796146104b5578063b87b33121461052c578063c0c53b8b1461053f578063c28f439214610552578063cd49b1781461056557600080fd5b8063a184877314610443578063a3908e1b14610456578063a94b569414610469578063aced16611461047c578063b1acc8a41461048f57600080fd5b80634a1dfebf116101ea578063704b6c02116101ae578063704b6c02146103f2578063741a0e3214610405578063748747e61461040d5780637614115c146104205780637bd5490e146104285780638456cb591461043b57600080fd5b80634a1dfebf146103b15780634eccc36a146103b95780635c975abb146103c15780635cb7758e146103d757806365389451146103ea57600080fd5b80633ab452711161023c5780633ab45271146102fa5780633dae08cc1461030d5780633ec3edcf1461036c5780633f2d25c1146103745780633f4ba83a1461038757806344877d161461038f57600080fd5b8063178f7b40146102795780632495a5991461029f5780632f4350c2146102ca57806338907118146102d45780633a1739d2146102e7575b600080fd5b61028c610287366004612f46565b610631565b6040519081526020015b60405180910390f35b609a546102b2906001600160a01b031681565b6040516001600160a01b039091168152602001610296565b6102d26106d2565b005b6102d26102e2366004612f6d565b61077d565b6102d26102f5366004612f8a565b6107cf565b6102d2610308366004612fb4565b6109f5565b609e54609f5460a05460a15460a25460a35460a4546103359660ff9081169695941692919087565b6040805197151588526020880196909652948601939093529015156060850152608084015260a083015260c082015260e001610296565b6102d2610b23565b6102d2610382366004612f46565b610bea565b6102d2610dda565b6103a261039d366004612f46565b610e55565b60405161029693929190613053565b61028c610f27565b6102d2610f48565b60655460ff166040519015158152602001610296565b609c546102b2906001600160a01b031681565b609d5461028c565b6102d261040036600461309f565b611004565b61028c611037565b6102d261041b36600461309f565b61133c565b61028c61136f565b6102d2610436366004612f46565b6113eb565b6102d2611457565b6102d261045136600461309f565b6114ac565b6102d2610464366004612f46565b6114f8565b61028c6104773660046130bc565b61156a565b6098546102b2906001600160a01b031681565b6102d261049d366004612f46565b6117ff565b609b546102b2906001600160a01b031681565b6104bd611847565b6040516102969190600061012082019050825182526020830151602083015260408301516040830152606083015160608301526080830151608083015260a083015160a083015260c083015160c083015260e0830151151560e083015261010080840151818401525092915050565b6102d261053a366004612f46565b611914565b6102d261054d3660046130e8565b611970565b6099546102b2906001600160a01b031681565b6102d261057336600461309f565b611a7f565b6102d2610586366004612f6d565b611ade565b6102d2610599366004613133565b611b9b565b6102d26105ac366004612f46565b611d26565b61028c612110565b6102d26105c7366004613168565b612155565b61028c61221b565b61028c612374565b60a5546102b2906001600160a01b031681565b6105f861271081565b60405161ffff9091168152602001610296565b6102d2610619366004612f6d565b6123ae565b6097546102b2906001600160a01b031681565b600080821161064257506000919050565b6000805b609d548110156106cb576000609d8281548110610665576106656131a1565b6000918252602082206001600290920201908101549092506127109061068f9061ffff16886131cd565b61069991906131ec565b9050600081116106aa5750506106b9565b6106b4818561320e565b935050505b806106c381613226565b915050610646565b5092915050565b60655460ff16156106fe5760405162461bcd60e51b81526004016106f590613241565b60405180910390fd5b6099546040516370a0823160e01b815233600482015261077b916001600160a01b0316906370a082319060240160206040518083038186803b15801561074357600080fd5b505afa158015610757573d6000803e3d6000fd5b505050506040513d601f19601f820116820180604052508101906105ac919061326b565b565b6097546001600160a01b03163314806107a057506098546001600160a01b031633145b6107bc5760405162461bcd60e51b81526004016106f590613284565b60a1805460ff1916911515919091179055565b6097546001600160a01b03163314806107f257506098546001600160a01b031633145b61080e5760405162461bcd60e51b81526004016106f590613284565b60008160200135116108715760405162461bcd60e51b815260206004820152602660248201527f636f6e7665727461626c6546726f6d206d75737420626520677265617465722060448201526507468616e20360d41b60648201526084016106f5565b80604001358160200135106108e35760405162461bcd60e51b815260206004820152603260248201527f72656465656d61626c6546726f6d206d757374206265206561726c69657220746044820152711a185b8818dbdb9d995c9d18589b19515b9960721b60648201526084016106f5565b8060400135816080013511801561090257508060c00135816080013510155b6109745760405162461bcd60e51b815260206004820152603d60248201527f72656465656d61626c6546726f6d206d757374206265206c617465722074686160448201527f6e20636f6e7665727461626c65456e6420616e64206d6174757269747900000060648201526084016106f5565b80608001358160a00135116109e35760405162461bcd60e51b815260206004820152602f60248201527f72656465656d61626c65456e64206d757374206265206c61746572207468616e60448201526e2072656465656d61626c6546726f6d60881b60648201526084016106f5565b80609e6109f082826132aa565b505050565b6097546001600160a01b03163314610a1f5760405162461bcd60e51b81526004016106f590613284565b6000610a31604083016020840161332d565b61ffff1611610a785760405162461bcd60e51b8152602060048201526013602482015272466565207261746520697320746f6f206c6f7760681b60448201526064016106f5565b80609d8381548110610a8c57610a8c6131a1565b90600052602060002090600202018181610aa691906133df565b9050506000805b609d54811015610b0057609d8181548110610aca57610aca6131a1565b6000918252602090912060016002909202010154610aec9061ffff168361320e565b915080610af881613226565b915050610aad565b506127108111156109f05760405162461bcd60e51b81526004016106f590613528565b6097546001600160a01b0316331480610b4657506098546001600160a01b031633145b610b625760405162461bcd60e51b81526004016106f590613284565b6000610b6c61221b565b90508015610be75760a5546001600160a01b031663e2bbb1586000610b8f61221b565b6040516001600160e01b031960e085901b168152600481019290925260248201526044015b600060405180830381600087803b158015610bce57600080fd5b505af1158015610be2573d6000803e3d6000fd5b505050505b50565b60655460ff1615610c0d5760405162461bcd60e51b81526004016106f590613241565b60026001541415610c305760405162461bcd60e51b81526004016106f590613569565b600260015580610c775760405162461bcd60e51b8152602060048201526012602482015271139bdd1a1a5b99c81d1bc818dbdb9d995c9d60721b60448201526064016106f5565b610c7f612400565b610c8761246e565b609a543390610ca1906001600160a01b031682308561253a565b610caa826125a5565b6099546040516340c10f1960e01b81526001600160a01b03909116906340c10f1990610cdc90309086906004016135a0565b600060405180830381600087803b158015610cf657600080fd5b505af1158015610d0a573d6000803e3d6000fd5b5050609b54609954610d2b93506001600160a01b0390811692501684612771565b609b54604051637ebce35160e11b81526001600160a01b039091169063fd79c6a290610d5d90849086906004016135a0565b600060405180830381600087803b158015610d7757600080fd5b505af1158015610d8b573d6000803e3d6000fd5b50505050806001600160a01b03167fe506c5b38303257173417712c8d702c3ca26f81804dab9d4232beab595a4967883604051610dca91815260200190565b60405180910390a2505060018055565b6097546001600160a01b03163314610e045760405162461bcd60e51b81526004016106f590613284565b60655460ff16610e4d5760405162461bcd60e51b815260206004820152601460248201527314185d5cd8589b194e881b9bdd081c185d5cd95960621b60448201526064016106f5565b61077b612884565b609d8181548110610e6557600080fd5b9060005260206000209060020201600091509050806000018054610e889061334a565b80601f0160208091040260200160405190810160405280929190818152602001828054610eb49061334a565b8015610f015780601f10610ed657610100808354040283529160200191610f01565b820191906000526020600020905b815481529060010190602001808311610ee457829003601f168201915b5050506001909301549192505061ffff8116906001600160a01b03620100009091041683565b6000610f31611037565b610f3961136f565b610f43919061320e565b905090565b6097546001600160a01b0316331480610f6b57506098546001600160a01b031633145b610f875760405162461bcd60e51b81526004016106f590613284565b609a546040516370a0823160e01b815230600482015261077b916001600160a01b0316906370a082319060240160206040518083038186803b158015610fcc57600080fd5b505afa158015610fe0573d6000803e3d6000fd5b505050506040513d601f19601f8201168201806040525081019061049d919061326b565b6097546001600160a01b0316331461102e5760405162461bcd60e51b81526004016106f590613284565b610be781612917565b60a554604051630cacd00160e11b815230600482015260009182916001600160a01b0390911690631959a002906024016101206040518083038186803b15801561108057600080fd5b505afa158015611094573d6000803e3d6000fd5b505050506040513d601f19601f820116820180604052508101906110b891906135fc565b9050600060a560009054906101000a90046001600160a01b03166001600160a01b03166377c7b8fc6040518163ffffffff1660e01b815260040160206040518083038186803b15801561110a57600080fd5b505afa15801561111e573d6000803e3d6000fd5b505050506040513d601f19601f82011682018060405250810190611142919061326b565b60a5546040516387d4bda960e01b81523060048201529192506000916001600160a01b03909116906387d4bda99060240160206040518083038186803b15801561118b57600080fd5b505afa15801561119f573d6000803e3d6000fd5b505050506040513d601f19601f820116820180604052508101906111c3919061367c565b158015611267575060a560009054906101000a90046001600160a01b03166001600160a01b031663df10b4e66040518163ffffffff1660e01b815260040160206040518083038186803b15801561121957600080fd5b505afa15801561122d573d6000803e3d6000fd5b505050506040513d601f19601f82011682018060405250810190611251919061326b565b8360200151611260919061320e565b8360a00151105b6112725760006112f5565b60a55483516040516314d2e7eb60e11b81526001600160a01b03909216916329a5cfd6916112a5913091906004016135a0565b60206040518083038186803b1580156112bd57600080fd5b505afa1580156112d1573d6000803e3d6000fd5b505050506040513d601f19601f820116820180604052508101906112f5919061326b565b9050808360c00151670de0b6b3a764000084866000015161131691906131cd565b61132091906131ec565b61132a9190613699565b6113349190613699565b935050505090565b6097546001600160a01b031633146113665760405162461bcd60e51b81526004016106f590613284565b610be7816129c3565b609a546040516370a0823160e01b81523060048201526000916001600160a01b0316906370a082319060240160206040518083038186803b1580156113b357600080fd5b505afa1580156113c7573d6000803e3d6000fd5b505050506040513d601f19601f82011682018060405250810190610f43919061326b565b6097546001600160a01b031633146114155760405162461bcd60e51b81526004016106f590613284565b609d8181548110611428576114286131a1565b600091825260208220600290910201906114428282612ef8565b5060010180546001600160b01b031916905550565b6097546001600160a01b031633146114815760405162461bcd60e51b81526004016106f590613284565b60655460ff16156114a45760405162461bcd60e51b81526004016106f590613241565b61077b612a0f565b6097546001600160a01b031633146114d65760405162461bcd60e51b81526004016106f590613284565b60a580546001600160a01b0319166001600160a01b0392909216919091179055565b60655460ff161561151b5760405162461bcd60e51b81526004016106f590613241565b600081116115605760405162461bcd60e51b8152602060048201526012602482015271139bdd1a1a5b99c81d1bc818dbdb9d995c9d60721b60448201526064016106f5565b610be78133612a67565b609b546000906001600160a01b03163314806115905750609c546001600160a01b031633145b6115d55760405162461bcd60e51b81526020600482015260166024820152751bdb9b1e48199c9bdb4819985c9b5a5b99c81c1bdbdb60521b60448201526064016106f5565b6115dd610f27565b826115e6612110565b6115f0919061320e565b11156116335760405162461bcd60e51b815260206004820152601260248201527143616e206e6f74206f76657220697373756560701b60448201526064016106f5565b60008211611643575060006117f9565b8160005b609d5481101561173c576000609d8281548110611666576116666131a1565b600091825260208220600160029092020190810154909250612710906116909061ffff16866131cd565b61169a91906131ec565b9050600081116116ab57505061172a565b6116b58185613699565b60995460018401546040516340c10f1960e01b81529296506001600160a01b03918216926340c10f19926116f592620100009004169085906004016135a0565b600060405180830381600087803b15801561170f57600080fd5b505af1158015611723573d6000803e3d6000fd5b5050505050505b8061173481613226565b915050611647565b5080156117a8576099546040516340c10f1960e01b81526001600160a01b03909116906340c10f199061177590879085906004016135a0565b600060405180830381600087803b15801561178f57600080fd5b505af11580156117a3573d6000803e3d6000fd5b505050505b836001600160a01b03167fe983a9107ef1ede2128027c84916ca9d350512f44c4502e560a1fda90a77a462846040516117e391815260200190565b60405180910390a26117f58184613699565b9150505b92915050565b6097546001600160a01b031633148061182257506098546001600160a01b031633145b61183e5760405162461bcd60e51b81526004016106f590613284565b610be7816125a5565b61189860405180610120016040528060008152602001600081526020016000815260200160008152602001600081526020016000815260200160008152602001600015158152602001600081525090565b60a554604051630cacd00160e11b81523060048201526001600160a01b0390911690631959a002906024016101206040518083038186803b1580156118dc57600080fd5b505afa1580156118f0573d6000803e3d6000fd5b505050506040513d601f19601f82011682018060405250810190610f4391906135fc565b6097546001600160a01b0316331461193e5760405162461bcd60e51b81526004016106f590613284565b60995460405163079cc67960e41b81526001600160a01b03909116906379cc679090610bb490339085906004016135a0565b600061197c6001612af2565b90508015611994576000805461ff0019166101001790555b6001600160a01b0382166119ea5760405162461bcd60e51b815260206004820152601e60248201527f43616e74207365742061646d696e20746f207a65726f2061646472657373000060448201526064016106f5565b6119f2612b7f565b6119fa612bae565b611a0333612917565b609980546001600160a01b038087166001600160a01b031992831617909255609a8054928616929091169190911790558015611a79576000805461ff0019169055604051600181527f7f26b83ff96e1f2b6a682f133852f6798a09c465da95921460cefb38474024989060200160405180910390a15b50505050565b6097546001600160a01b03163314611aa95760405162461bcd60e51b81526004016106f590613284565b609e805460ff1990811690915560a180549091169055610be781611acb61136f565b609a546001600160a01b03169190612bdd565b6097546001600160a01b0316331480611b0157506098546001600160a01b031633145b611b1d5760405162461bcd60e51b81526004016106f590613284565b609e805460ff1916905560a5546040805163429c145b60e11b815290516001600160a01b039092169163853828b69160048082019260009290919082900301818387803b158015611b6d57600080fd5b505af1158015611b81573d6000803e3d6000fd5b505050508015610be75760a1805460ff1916600117905550565b6097546001600160a01b03163314611bc55760405162461bcd60e51b81526004016106f590613284565b609d54600511611c0c5760405162461bcd60e51b8152602060048201526012602482015271546f6f206d616e792066656520737065637360701b60448201526064016106f5565b6000611c1e604083016020840161332d565b61ffff1611611c655760405162461bcd60e51b8152602060048201526013602482015272466565207261746520697320746f6f206c6f7760681b60448201526064016106f5565b609d805460018101825560009190915281906002027fd26e832454299e9fabb89e0e5fffdc046d4e14431bc1bf607ffb2e8a1ddecf7b01611ca682826133df565b50506000805b609d54811015611cff57609d8181548110611cc957611cc96131a1565b6000918252602090912060016002909202010154611ceb9061ffff168361320e565b915080611cf781613226565b915050611cac565b50612710811115611d225760405162461bcd60e51b81526004016106f590613528565b5050565b60655460ff1615611d495760405162461bcd60e51b81526004016106f590613241565b60026001541415611d6c5760405162461bcd60e51b81526004016106f590613569565b600260015580611db25760405162461bcd60e51b81526020600482015260116024820152704e6f7468696e6720746f2072656465656d60781b60448201526064016106f5565b60a15460ff168015611dc6575060a2544210155b8015611dd4575060a3544211155b8015611de1575060a05442115b611e1f5760405162461bcd60e51b815260206004820152600f60248201526e21b0b7103737ba103932b232b2b69760891b60448201526064016106f5565b6099546040516370a0823160e01b81523360048201819052916000916001600160a01b03909116906370a082319060240160206040518083038186803b158015611e6857600080fd5b505afa158015611e7c573d6000803e3d6000fd5b505050506040513d601f19601f82011682018060405250810190611ea0919061326b565b905080831115611ee95760405162461bcd60e51b8152602060048201526014602482015273496e73756666696369656e742062616c616e636560601b60448201526064016106f5565b60995460405163079cc67960e41b81526001600160a01b03909116906379cc679090611f1b90859087906004016135a0565b600060405180830381600087803b158015611f3557600080fd5b505af1158015611f49573d6000803e3d6000fd5b5050609a546040516370a0823160e01b8152306004820152600093506001600160a01b0390911691506370a082319060240160206040518083038186803b158015611f9357600080fd5b505afa158015611fa7573d6000803e3d6000fd5b505050506040513d601f19601f82011682018060405250810190611fcb919061326b565b905083811015611fe757611fe7611fe28286613699565b612bfc565b609a546040516370a0823160e01b81523060048201526001600160a01b03909116906370a082319060240160206040518083038186803b15801561202a57600080fd5b505afa15801561203e573d6000803e3d6000fd5b505050506040513d601f19601f82011682018060405250810190612062919061326b565b8411156120ef57609a546040516370a0823160e01b81523060048201526120ea9185916001600160a01b03909116906370a082319060240160206040518083038186803b1580156120b257600080fd5b505afa1580156120c6573d6000803e3d6000fd5b505050506040513d601f19601f82011682018060405250810190611acb919061326b565b612106565b609a54612106906001600160a01b03168486612bdd565b5050600180555050565b609954604080516318160ddd60e01b815290516000926001600160a01b0316916318160ddd916004808301926020929190829003018186803b1580156113b357600080fd5b6097546001600160a01b0316331461217f5760405162461bcd60e51b81526004016106f590613284565b6001600160a01b038216158015906121a95750806001600160a01b0316826001600160a01b031614155b6121ed5760405162461bcd60e51b8152602060048201526015602482015274696e76616c6964206661726d696e6720706f6f6c7360581b60448201526064016106f5565b609b80546001600160a01b039384166001600160a01b031991821617909155609c8054929093169116179055565b60a554604051630cacd00160e11b81523060048201526000918291429183916001600160a01b0390911690631959a002906024016101206040518083038186803b15801561226857600080fd5b505afa15801561227c573d6000803e3d6000fd5b505050506040513d601f19601f820116820180604052508101906122a091906135fc565b9050818160a001511115806122b757508060e00151155b806122c7575060a45460a0820151105b1561236c5760a454612369906122de908490613699565b60a560009054906101000a90046001600160a01b03166001600160a01b0316634f1bfc9e6040518163ffffffff1660e01b815260040160206040518083038186803b15801561232c57600080fd5b505afa158015612340573d6000803e3d6000fd5b505050506040513d601f19601f82011682018060405250810190612364919061326b565b612c2d565b92505b509092915050565b60008061237f610f27565b9050600061238b612110565b905081811061239d5760009250505090565b6123a78183613699565b9250505090565b6097546001600160a01b03163314806123d157506098546001600160a01b031633145b6123ed5760405162461bcd60e51b81526004016106f590613284565b609e805460ff1916911515919091179055565b609e5460ff1680156124145750609f544210155b8015612422575060a0544211155b801561242f575060a25442105b61077b5760405162461bcd60e51b815260206004820152601060248201526f21b0b7103737ba1031b7b73b32b93a1760811b60448201526064016106f5565b609b60009054906101000a90046001600160a01b03166001600160a01b031663e3161ddd6040518163ffffffff1660e01b8152600401600060405180830381600087803b1580156124be57600080fd5b505af11580156124d2573d6000803e3d6000fd5b50505050609c60009054906101000a90046001600160a01b03166001600160a01b031663e3161ddd6040518163ffffffff1660e01b8152600401600060405180830381600087803b15801561252657600080fd5b505af1158015611a79573d6000803e3d6000fd5b6040516001600160a01b0380851660248301528316604482015260648101829052611a799085906323b872dd60e01b906084015b60408051601f198184030181529190526020810180516001600160e01b03166001600160e01b031990931692909217909152612c45565b609a546040516370a0823160e01b81523060048201526000916001600160a01b0316906370a082319060240160206040518083038186803b1580156125e957600080fd5b505afa1580156125fd573d6000803e3d6000fd5b505050506040513d601f19601f82011682018060405250810190612621919061326b565b90506000811180156126335750818110155b6126745760405162461bcd60e51b81526020600482015260126024820152711b9bdd1a1a5b99c81d1bc819195c1bdcda5d60721b60448201526064016106f5565b609a5460a55460405163095ea7b360e01b81526001600160a01b039283169263095ea7b3926126aa9291169086906004016135a0565b602060405180830381600087803b1580156126c457600080fd5b505af11580156126d8573d6000803e3d6000fd5b505050506040513d601f19601f820116820180604052508101906126fc919061367c565b5060a5546001600160a01b031663e2bbb1588361271761221b565b6040516001600160e01b031960e085901b16815260048101929092526024820152604401600060405180830381600087803b15801561275557600080fd5b505af1158015612769573d6000803e3d6000fd5b505050505050565b8015806127fa5750604051636eb1769f60e11b81523060048201526001600160a01b03838116602483015284169063dd62ed3e9060440160206040518083038186803b1580156127c057600080fd5b505afa1580156127d4573d6000803e3d6000fd5b505050506040513d601f19601f820116820180604052508101906127f8919061326b565b155b6128655760405162461bcd60e51b815260206004820152603660248201527f5361666545524332303a20617070726f76652066726f6d206e6f6e2d7a65726f60448201527520746f206e6f6e2d7a65726f20616c6c6f77616e636560501b60648201526084016106f5565b6109f08363095ea7b360e01b848460405160240161256e9291906135a0565b60655460ff166128cd5760405162461bcd60e51b815260206004820152601460248201527314185d5cd8589b194e881b9bdd081c185d5cd95960621b60448201526064016106f5565b6065805460ff191690557f5db9ee0a495bf2e6ff9c91a7834c1ba4fdd244a5e8aa4e537bd38aeae4b073aa335b6040516001600160a01b03909116815260200160405180910390a1565b6001600160a01b0381166129775760405162461bcd60e51b815260206004820152602160248201527f43616e206e6f74207365742061646d696e20746f207a65726f206164647265736044820152607360f81b60648201526084016106f5565b609780546001600160a01b0319166001600160a01b03831690811790915560405133907f101b8081ff3b56bbf45deb824d86a3b0fd38b7e3dd42421105cf8abe9106db0b90600090a350565b609880546001600160a01b0319166001600160a01b03831690811790915560405133907f53d3703fe259def57584466f32d1b94c30278008c683c21b04501c4966f13a6990600090a350565b60655460ff1615612a325760405162461bcd60e51b81526004016106f590613241565b6065805460ff191660011790557f62e78cea01bee320cd4e420270b5ea74000d11b0c9f74754ebdbfc544b05a2586128fa3390565b60026001541415612a8a5760405162461bcd60e51b81526004016106f590613569565b6002600155612a97612400565b612a9f61246e565b609a54612ab7906001600160a01b031682308561253a565b612ac0826125a5565b6099546040516340c10f1960e01b81526001600160a01b03909116906340c10f1990610d5d90849086906004016135a0565b60008054610100900460ff1615612b39578160ff166001148015612b155750303b155b612b315760405162461bcd60e51b81526004016106f5906136b0565b506000919050565b60005460ff808416911610612b605760405162461bcd60e51b81526004016106f5906136b0565b506000805460ff191660ff92909216919091179055600190565b919050565b600054610100900460ff16612ba65760405162461bcd60e51b81526004016106f5906136fe565b61077b612d17565b600054610100900460ff16612bd55760405162461bcd60e51b81526004016106f5906136fe565b61077b612d4a565b6109f08363a9059cbb60e01b848460405160240161256e9291906135a0565b60a554604051635521e9bf60e01b8152600481018390526001600160a01b0390911690635521e9bf90602401610bb4565b6000818310612c3c5781612c3e565b825b9392505050565b6000612c9a826040518060400160405280602081526020017f5361666545524332303a206c6f772d6c6576656c2063616c6c206661696c6564815250856001600160a01b0316612d779092919063ffffffff16565b8051909150156109f05780806020019051810190612cb8919061367c565b6109f05760405162461bcd60e51b815260206004820152602a60248201527f5361666545524332303a204552433230206f7065726174696f6e20646964206e6044820152691bdd081cdd58d8d9595960b21b60648201526084016106f5565b600054610100900460ff16612d3e5760405162461bcd60e51b81526004016106f5906136fe565b6065805460ff19169055565b600054610100900460ff16612d715760405162461bcd60e51b81526004016106f5906136fe565b60018055565b6060612d868484600085612d8e565b949350505050565b606082471015612def5760405162461bcd60e51b815260206004820152602660248201527f416464726573733a20696e73756666696369656e742062616c616e636520666f6044820152651c8818d85b1b60d21b60648201526084016106f5565b6001600160a01b0385163b612e465760405162461bcd60e51b815260206004820152601d60248201527f416464726573733a2063616c6c20746f206e6f6e2d636f6e747261637400000060448201526064016106f5565b600080866001600160a01b03168587604051612e629190613749565b60006040518083038185875af1925050503d8060008114612e9f576040519150601f19603f3d011682016040523d82523d6000602084013e612ea4565b606091505b5091509150612eb4828286612ebf565b979650505050505050565b60608315612ece575081612c3e565b825115612ede5782518084602001fd5b8160405162461bcd60e51b81526004016106f59190613765565b508054612f049061334a565b6000825580601f10612f14575050565b601f016020900490600052602060002090810190610be791905b80821115612f425760008155600101612f2e565b5090565b600060208284031215612f5857600080fd5b5035919050565b8015158114610be757600080fd5b600060208284031215612f7f57600080fd5b8135612c3e81612f5f565b600060e08284031215612f9c57600080fd5b50919050565b600060608284031215612f9c57600080fd5b60008060408385031215612fc757600080fd5b82359150602083013567ffffffffffffffff811115612fe557600080fd5b612ff185828601612fa2565b9150509250929050565b60005b83811015613016578181015183820152602001612ffe565b83811115611a795750506000910152565b6000815180845261303f816020860160208601612ffb565b601f01601f19169290920160200192915050565b6060815260006130666060830186613027565b61ffff949094166020830152506001600160a01b0391909116604090910152919050565b6001600160a01b0381168114610be757600080fd5b6000602082840312156130b157600080fd5b8135612c3e8161308a565b600080604083850312156130cf57600080fd5b82356130da8161308a565b946020939093013593505050565b6000806000606084860312156130fd57600080fd5b83356131088161308a565b925060208401356131188161308a565b915060408401356131288161308a565b809150509250925092565b60006020828403121561314557600080fd5b813567ffffffffffffffff81111561315c57600080fd5b6117f584828501612fa2565b6000806040838503121561317b57600080fd5b82356131868161308a565b915060208301356131968161308a565b809150509250929050565b634e487b7160e01b600052603260045260246000fd5b634e487b7160e01b600052601160045260246000fd5b60008160001904831182151516156131e7576131e76131b7565b500290565b60008261320957634e487b7160e01b600052601260045260246000fd5b500490565b60008219821115613221576132216131b7565b500190565b600060001982141561323a5761323a6131b7565b5060010190565b60208082526010908201526f14185d5cd8589b194e881c185d5cd95960821b604082015260600190565b60006020828403121561327d57600080fd5b5051919050565b6020808252600c908201526b15539055551213d49256915160a21b604082015260600190565b81356132b581612f5f565b815460ff191660ff8215151617825550602082013560018201556040820135600282015560608201356132e781612f5f565b60038201805460ff191660ff83151516179055506080820135600482015560a0820135600582015560c082013560068201555050565b61ffff81168114610be757600080fd5b60006020828403121561333f57600080fd5b8135612c3e8161331d565b600181811c9082168061335e57607f821691505b60208210811415612f9c57634e487b7160e01b600052602260045260246000fd5b601f8211156109f057600081815260208120601f850160051c810160208610156133a65750805b601f850160051c820191505b81811015612769578281556001016133b2565b600081356117f98161331d565b600081356117f98161308a565b8135601e198336030181126133f357600080fd5b8201803567ffffffffffffffff81111561340c57600080fd5b6020813603818401131561341f57600080fd5b6134338261342d865461334a565b8661337f565b6000601f831160018114613469576000841561345157508482018301355b600019600386901b1c1916600185901b1786556134c6565b600086815260209020601f19851690835b8281101561349b57878501860135825593850193600190910190850161347a565b50858210156134ba5760001960f88760031b161c198585890101351681555b505060018460011b0186555b50506001840192506134ef6134dc8287016133c5565b845461ffff191661ffff91909116178455565b50506109f0613500604085016133d2565b82805462010000600160b01b03191660109290921b62010000600160b01b0316919091179055565b60208082526021908201527f546f74616c2066656520726174652067726561746572207468616e20313030256040820152601760f91b606082015260800190565b6020808252601f908201527f5265656e7472616e637947756172643a207265656e7472616e742063616c6c00604082015260600190565b6001600160a01b03929092168252602082015260400190565b604051610120810167ffffffffffffffff811182821017156135eb57634e487b7160e01b600052604160045260246000fd5b60405290565b8051612b7a81612f5f565b6000610120828403121561360f57600080fd5b6136176135b9565b825181526020830151602082015260408301516040820152606083015160608201526080830151608082015260a083015160a082015260c083015160c082015261366360e084016135f1565b60e0820152610100928301519281019290925250919050565b60006020828403121561368e57600080fd5b8151612c3e81612f5f565b6000828210156136ab576136ab6131b7565b500390565b6020808252602e908201527f496e697469616c697a61626c653a20636f6e747261637420697320616c72656160408201526d191e481a5b9a5d1a585b1a5e995960921b606082015260800190565b6020808252602b908201527f496e697469616c697a61626c653a20636f6e7472616374206973206e6f74206960408201526a6e697469616c697a696e6760a81b606082015260800190565b6000825161375b818460208701612ffb565b9190910192915050565b602081526000612c3e602083018461302756fea264697066735822122002bec45467a4d3cd050be6b253621175d425658b62e4f64f0514f2759ac34a0664736f6c63430008090033",
  "devdoc": {
    "kind": "dev",
    "methods": {
      "convert(uint256)": {
        "details": "convert underlying token to bond token to current user",
        "params": {
          "amount_": "amount of underlying token to convert"
        }
      },
      "convertAndStake(uint256)": {
        "details": "convert underlying token to bond token and stake to bondFarmingPool for current user"
      },
      "emergencyTransferUnderlyingTokens(address)": {
        "details": "emergency transfer underlying token for security issue or bug encounted."
      },
      "extendPancakeLockDuration()": {
        "details": "extend pancake lock duration if needs"
      },
      "mintBondTokenForRewards(address,uint256)": {
        "details": "mint bond token for rewards and allocate fees."
      },
      "pancakeUserInfo()": {
        "details": "calculate cake amount from pancake."
      },
      "pause()": {
        "details": "Only possible when contract not paused."
      },
      "paused()": {
        "details": "Returns true if the contract is paused, and false otherwise."
      },
      "redeem(uint256)": {
        "details": "Redeem specific amount of my bond tokens.",
        "params": {
          "amount_": "amount to redeem"
        }
      },
      "redeemAll()": {
        "details": "Redeem all my bond tokens to underlying tokens."
      },
      "remoteUnderlyingAmount()": {
        "details": "calculate cake amount from pancake."
      },
      "totalPendingRewards()": {
        "details": "Total pending rewards for bond. May be negative in some unexpected circumstances,      such as remote underlying amount has unexpectedly decreased makes bond token over issued."
      },
      "unpause()": {
        "details": "Only possible when contract is paused."
      },
      "updateCheckPoints((bool,uint256,uint256,bool,uint256,uint256,uint256))": {
        "details": "update checkPoints",
        "params": {
          "checkPoints_": "new checkpoints"
        }
      },
      "withdrawAllCakesFromPancake(bool)": {
        "details": "Withdraw cake from cake pool."
      }
    },
    "version": 1
  },
  "userdoc": {
    "events": {
      "Converted(uint256,address)": {
        "notice": "Emitted when someone convert underlying token to the bond."
      }
    },
    "kind": "user",
    "methods": {
      "addFeeSpec((string,uint16,address))": {
        "notice": "add fee specification"
      },
      "bondToken()": {
        "notice": "Bond token contract"
      },
      "cakePool()": {
        "notice": "CakePool contract"
      },
      "feeSpecs(uint256)": {
        "notice": "Fee specifications"
      },
      "pause()": {
        "notice": "Trigger stopped state"
      },
      "setFeeSpec(uint256,(string,uint16,address))": {
        "notice": "update fee specification"
      },
      "totalBondTokenAmount()": {
        "notice": "Bond token total amount."
      },
      "totalUnderlyingAmount()": {
        "notice": "total underlying token amount, including hold in current contract and remote"
      },
      "underlyingAmount()": {
        "notice": "Underlying token amount that hold in current contract."
      },
      "underlyingToken()": {
        "notice": "Bond underlying asset"
      },
      "unpause()": {
        "notice": "Return to normal state"
      }
    },
    "version": 1
  },
  "storageLayout": {
    "storage": [
      {
        "astId": 6,
        "contract": "contracts/underlyings/pancake/ExtendableBondedCake.sol:ExtendableBondedCake",
        "label": "_initialized",
        "offset": 0,
        "slot": "0",
        "type": "t_uint8"
      },
      {
        "astId": 9,
        "contract": "contracts/underlyings/pancake/ExtendableBondedCake.sol:ExtendableBondedCake",
        "label": "_initializing",
        "offset": 1,
        "slot": "0",
        "type": "t_bool"
      },
      {
        "astId": 266,
        "contract": "contracts/underlyings/pancake/ExtendableBondedCake.sol:ExtendableBondedCake",
        "label": "_status",
        "offset": 0,
        "slot": "1",
        "type": "t_uint256"
      },
      {
        "astId": 310,
        "contract": "contracts/underlyings/pancake/ExtendableBondedCake.sol:ExtendableBondedCake",
        "label": "__gap",
        "offset": 0,
        "slot": "2",
        "type": "t_array(t_uint256)49_storage"
      },
      {
        "astId": 897,
        "contract": "contracts/underlyings/pancake/ExtendableBondedCake.sol:ExtendableBondedCake",
        "label": "__gap",
        "offset": 0,
        "slot": "51",
        "type": "t_array(t_uint256)50_storage"
      },
      {
        "astId": 162,
        "contract": "contracts/underlyings/pancake/ExtendableBondedCake.sol:ExtendableBondedCake",
        "label": "_paused",
        "offset": 0,
        "slot": "101",
        "type": "t_bool"
      },
      {
        "astId": 251,
        "contract": "contracts/underlyings/pancake/ExtendableBondedCake.sol:ExtendableBondedCake",
        "label": "__gap",
        "offset": 0,
        "slot": "102",
        "type": "t_array(t_uint256)49_storage"
      },
      {
        "astId": 7810,
        "contract": "contracts/underlyings/pancake/ExtendableBondedCake.sol:ExtendableBondedCake",
        "label": "admin",
        "offset": 0,
        "slot": "151",
        "type": "t_address"
      },
      {
        "astId": 8046,
        "contract": "contracts/underlyings/pancake/ExtendableBondedCake.sol:ExtendableBondedCake",
        "label": "keeper",
        "offset": 0,
        "slot": "152",
        "type": "t_address"
      },
      {
        "astId": 4762,
        "contract": "contracts/underlyings/pancake/ExtendableBondedCake.sol:ExtendableBondedCake",
        "label": "bondToken",
        "offset": 0,
        "slot": "153",
        "type": "t_contract(IBondTokenUpgradeable)7655"
      },
      {
        "astId": 4766,
        "contract": "contracts/underlyings/pancake/ExtendableBondedCake.sol:ExtendableBondedCake",
        "label": "underlyingToken",
        "offset": 0,
        "slot": "154",
        "type": "t_contract(IERC20Upgradeable)389"
      },
      {
        "astId": 4773,
        "contract": "contracts/underlyings/pancake/ExtendableBondedCake.sol:ExtendableBondedCake",
        "label": "bondFarmingPool",
        "offset": 0,
        "slot": "155",
        "type": "t_contract(IBondFarmingPool)7635"
      },
      {
        "astId": 4776,
        "contract": "contracts/underlyings/pancake/ExtendableBondedCake.sol:ExtendableBondedCake",
        "label": "bondLPFarmingPool",
        "offset": 0,
        "slot": "156",
        "type": "t_contract(IBondFarmingPool)7635"
      },
      {
        "astId": 4801,
        "contract": "contracts/underlyings/pancake/ExtendableBondedCake.sol:ExtendableBondedCake",
        "label": "feeSpecs",
        "offset": 0,
        "slot": "157",
        "type": "t_array(t_struct(FeeSpec)4796_storage)dyn_storage"
      },
      {
        "astId": 4819,
        "contract": "contracts/underlyings/pancake/ExtendableBondedCake.sol:ExtendableBondedCake",
        "label": "checkPoints",
        "offset": 0,
        "slot": "158",
        "type": "t_struct(CheckPoints)4816_storage"
      },
      {
        "astId": 16745,
        "contract": "contracts/underlyings/pancake/ExtendableBondedCake.sol:ExtendableBondedCake",
        "label": "cakePool",
        "offset": 0,
        "slot": "165",
        "type": "t_contract(ICakePool)7752"
      }
    ],
    "types": {
      "t_address": {
        "encoding": "inplace",
        "label": "address",
        "numberOfBytes": "20"
      },
      "t_array(t_struct(FeeSpec)4796_storage)dyn_storage": {
        "base": "t_struct(FeeSpec)4796_storage",
        "encoding": "dynamic_array",
        "label": "struct ExtendableBond.FeeSpec[]",
        "numberOfBytes": "32"
      },
      "t_array(t_uint256)49_storage": {
        "base": "t_uint256",
        "encoding": "inplace",
        "label": "uint256[49]",
        "numberOfBytes": "1568"
      },
      "t_array(t_uint256)50_storage": {
        "base": "t_uint256",
        "encoding": "inplace",
        "label": "uint256[50]",
        "numberOfBytes": "1600"
      },
      "t_bool": {
        "encoding": "inplace",
        "label": "bool",
        "numberOfBytes": "1"
      },
      "t_contract(IBondFarmingPool)7635": {
        "encoding": "inplace",
        "label": "contract IBondFarmingPool",
        "numberOfBytes": "20"
      },
      "t_contract(IBondTokenUpgradeable)7655": {
        "encoding": "inplace",
        "label": "contract IBondTokenUpgradeable",
        "numberOfBytes": "20"
      },
      "t_contract(ICakePool)7752": {
        "encoding": "inplace",
        "label": "contract ICakePool",
        "numberOfBytes": "20"
      },
      "t_contract(IERC20Upgradeable)389": {
        "encoding": "inplace",
        "label": "contract IERC20Upgradeable",
        "numberOfBytes": "20"
      },
      "t_string_storage": {
        "encoding": "bytes",
        "label": "string",
        "numberOfBytes": "32"
      },
      "t_struct(CheckPoints)4816_storage": {
        "encoding": "inplace",
        "label": "struct ExtendableBond.CheckPoints",
        "members": [
          {
            "astId": 4803,
            "contract": "contracts/underlyings/pancake/ExtendableBondedCake.sol:ExtendableBondedCake",
            "label": "convertable",
            "offset": 0,
            "slot": "0",
            "type": "t_bool"
          },
          {
            "astId": 4805,
            "contract": "contracts/underlyings/pancake/ExtendableBondedCake.sol:ExtendableBondedCake",
            "label": "convertableFrom",
            "offset": 0,
            "slot": "1",
            "type": "t_uint256"
          },
          {
            "astId": 4807,
            "contract": "contracts/underlyings/pancake/ExtendableBondedCake.sol:ExtendableBondedCake",
            "label": "convertableEnd",
            "offset": 0,
            "slot": "2",
            "type": "t_uint256"
          },
          {
            "astId": 4809,
            "contract": "contracts/underlyings/pancake/ExtendableBondedCake.sol:ExtendableBondedCake",
            "label": "redeemable",
            "offset": 0,
            "slot": "3",
            "type": "t_bool"
          },
          {
            "astId": 4811,
            "contract": "contracts/underlyings/pancake/ExtendableBondedCake.sol:ExtendableBondedCake",
            "label": "redeemableFrom",
            "offset": 0,
            "slot": "4",
            "type": "t_uint256"
          },
          {
            "astId": 4813,
            "contract": "contracts/underlyings/pancake/ExtendableBondedCake.sol:ExtendableBondedCake",
            "label": "redeemableEnd",
            "offset": 0,
            "slot": "5",
            "type": "t_uint256"
          },
          {
            "astId": 4815,
            "contract": "contracts/underlyings/pancake/ExtendableBondedCake.sol:ExtendableBondedCake",
            "label": "maturity",
            "offset": 0,
            "slot": "6",
            "type": "t_uint256"
          }
        ],
        "numberOfBytes": "224"
      },
      "t_struct(FeeSpec)4796_storage": {
        "encoding": "inplace",
        "label": "struct ExtendableBond.FeeSpec",
        "members": [
          {
            "astId": 4791,
            "contract": "contracts/underlyings/pancake/ExtendableBondedCake.sol:ExtendableBondedCake",
            "label": "desc",
            "offset": 0,
            "slot": "0",
            "type": "t_string_storage"
          },
          {
            "astId": 4793,
            "contract": "contracts/underlyings/pancake/ExtendableBondedCake.sol:ExtendableBondedCake",
            "label": "rate",
            "offset": 0,
            "slot": "1",
            "type": "t_uint16"
          },
          {
            "astId": 4795,
            "contract": "contracts/underlyings/pancake/ExtendableBondedCake.sol:ExtendableBondedCake",
            "label": "receiver",
            "offset": 2,
            "slot": "1",
            "type": "t_address"
          }
        ],
        "numberOfBytes": "64"
      },
      "t_uint16": {
        "encoding": "inplace",
        "label": "uint16",
        "numberOfBytes": "2"
      },
      "t_uint256": {
        "encoding": "inplace",
        "label": "uint256",
        "numberOfBytes": "32"
      },
      "t_uint8": {
        "encoding": "inplace",
        "label": "uint8",
        "numberOfBytes": "1"
      }
    }
  }
}