{
  "address": "0x11e4Fa4966060F14354765Cd92F233EA65455eB2",
  "abi": [
    {
      "inputs": [
        {
          "internalType": "contract IERC20",
          "name": "bondToken_",
          "type": "address"
        },
        {
          "internalType": "contract IExtendableBond",
          "name": "bond_",
          "type": "address"
        }
      ],
      "stateMutability": "nonpayable",
      "type": "constructor"
    },
    {
      "anonymous": false,
      "inputs": [
        {
          "indexed": true,
          "internalType": "address",
          "name": "previousOwner",
          "type": "address"
        },
        {
          "indexed": true,
          "internalType": "address",
          "name": "newOwner",
          "type": "address"
        }
      ],
      "name": "OwnershipTransferred",
      "type": "event"
    },
    {
      "anonymous": false,
      "inputs": [
        {
          "indexed": false,
          "internalType": "address",
          "name": "account",
          "type": "address"
        }
      ],
      "name": "Paused",
      "type": "event"
    },
    {
      "anonymous": false,
      "inputs": [
        {
          "indexed": true,
          "internalType": "address",
          "name": "user",
          "type": "address"
        },
        {
          "indexed": false,
          "internalType": "uint256",
          "name": "amount",
          "type": "uint256"
        }
      ],
      "name": "Staked",
      "type": "event"
    },
    {
      "anonymous": false,
      "inputs": [
        {
          "indexed": false,
          "internalType": "address",
          "name": "account",
          "type": "address"
        }
      ],
      "name": "Unpaused",
      "type": "event"
    },
    {
      "anonymous": false,
      "inputs": [
        {
          "indexed": true,
          "internalType": "address",
          "name": "user",
          "type": "address"
        },
        {
          "indexed": false,
          "internalType": "uint256",
          "name": "amount",
          "type": "uint256"
        }
      ],
      "name": "Unstaked",
      "type": "event"
    },
    {
      "inputs": [
        {
          "internalType": "uint256",
          "name": "amount_",
          "type": "uint256"
        }
      ],
      "name": "amountToShares",
      "outputs": [
        {
          "internalType": "uint256",
          "name": "",
          "type": "uint256"
        }
      ],
      "stateMutability": "view",
      "type": "function"
    },
    {
      "inputs": [],
      "name": "bond",
      "outputs": [
        {
          "internalType": "contract IExtendableBond",
          "name": "",
          "type": "address"
        }
      ],
      "stateMutability": "view",
      "type": "function"
    },
    {
      "inputs": [],
      "name": "bondToken",
      "outputs": [
        {
          "internalType": "contract IERC20",
          "name": "",
          "type": "address"
        }
      ],
      "stateMutability": "view",
      "type": "function"
    },
    {
      "inputs": [],
      "name": "claimBonuses",
      "outputs": [],
      "stateMutability": "nonpayable",
      "type": "function"
    },
    {
      "inputs": [
        {
          "internalType": "address",
          "name": "user_",
          "type": "address"
        }
      ],
      "name": "earnedToDate",
      "outputs": [
        {
          "internalType": "int256",
          "name": "",
          "type": "int256"
        }
      ],
      "stateMutability": "view",
      "type": "function"
    },
    {
      "inputs": [],
      "name": "lastUpdatedPoolAt",
      "outputs": [
        {
          "internalType": "uint256",
          "name": "",
          "type": "uint256"
        }
      ],
      "stateMutability": "view",
      "type": "function"
    },
    {
      "inputs": [],
      "name": "masterChef",
      "outputs": [
        {
          "internalType": "contract MultiRewardsMasterChef",
          "name": "",
          "type": "address"
        }
      ],
      "stateMutability": "view",
      "type": "function"
    },
    {
      "inputs": [],
      "name": "masterChefPid",
      "outputs": [
        {
          "internalType": "uint256",
          "name": "",
          "type": "uint256"
        }
      ],
      "stateMutability": "view",
      "type": "function"
    },
    {
      "inputs": [],
      "name": "owner",
      "outputs": [
        {
          "internalType": "address",
          "name": "",
          "type": "address"
        }
      ],
      "stateMutability": "view",
      "type": "function"
    },
    {
      "inputs": [],
      "name": "paused",
      "outputs": [
        {
          "internalType": "bool",
          "name": "",
          "type": "bool"
        }
      ],
      "stateMutability": "view",
      "type": "function"
    },
    {
      "inputs": [
        {
          "internalType": "uint256",
          "name": "shares_",
          "type": "uint256"
        }
      ],
      "name": "pendingRewardsByShares",
      "outputs": [
        {
          "internalType": "uint256",
          "name": "",
          "type": "uint256"
        }
      ],
      "stateMutability": "view",
      "type": "function"
    },
    {
      "inputs": [],
      "name": "renounceOwnership",
      "outputs": [],
      "stateMutability": "nonpayable",
      "type": "function"
    },
    {
      "inputs": [
        {
          "internalType": "contract MultiRewardsMasterChef",
          "name": "masterChef_",
          "type": "address"
        },
        {
          "internalType": "uint256",
          "name": "masterChefPid_",
          "type": "uint256"
        }
      ],
      "name": "setMasterChef",
      "outputs": [],
      "stateMutability": "nonpayable",
      "type": "function"
    },
    {
      "inputs": [
        {
          "internalType": "contract IBondFarmingPool",
          "name": "siblingPool_",
          "type": "address"
        }
      ],
      "name": "setSiblingPool",
      "outputs": [],
      "stateMutability": "nonpayable",
      "type": "function"
    },
    {
      "inputs": [
        {
          "internalType": "uint256",
          "name": "shares_",
          "type": "uint256"
        }
      ],
      "name": "sharesToBondAmount",
      "outputs": [
        {
          "internalType": "uint256",
          "name": "",
          "type": "uint256"
        }
      ],
      "stateMutability": "view",
      "type": "function"
    },
    {
      "inputs": [],
      "name": "siblingPool",
      "outputs": [
        {
          "internalType": "contract IBondFarmingPool",
          "name": "",
          "type": "address"
        }
      ],
      "stateMutability": "view",
      "type": "function"
    },
    {
      "inputs": [
        {
          "internalType": "uint256",
          "name": "amount_",
          "type": "uint256"
        }
      ],
      "name": "stake",
      "outputs": [],
      "stateMutability": "nonpayable",
      "type": "function"
    },
    {
      "inputs": [
        {
          "internalType": "address",
          "name": "user_",
          "type": "address"
        },
        {
          "internalType": "uint256",
          "name": "amount_",
          "type": "uint256"
        }
      ],
      "name": "stakeForUser",
      "outputs": [],
      "stateMutability": "nonpayable",
      "type": "function"
    },
    {
      "inputs": [],
      "name": "totalPendingRewards",
      "outputs": [
        {
          "internalType": "uint256",
          "name": "",
          "type": "uint256"
        }
      ],
      "stateMutability": "view",
      "type": "function"
    },
    {
      "inputs": [],
      "name": "totalShares",
      "outputs": [
        {
          "internalType": "uint256",
          "name": "",
          "type": "uint256"
        }
      ],
      "stateMutability": "view",
      "type": "function"
    },
    {
      "inputs": [
        {
          "internalType": "address",
          "name": "newOwner",
          "type": "address"
        }
      ],
      "name": "transferOwnership",
      "outputs": [],
      "stateMutability": "nonpayable",
      "type": "function"
    },
    {
      "inputs": [],
      "name": "underlyingAmount",
      "outputs": [
        {
          "internalType": "uint256",
          "name": "",
          "type": "uint256"
        }
      ],
      "stateMutability": "view",
      "type": "function"
    },
    {
      "inputs": [
        {
          "internalType": "uint256",
          "name": "shares_",
          "type": "uint256"
        }
      ],
      "name": "unstake",
      "outputs": [],
      "stateMutability": "nonpayable",
      "type": "function"
    },
    {
      "inputs": [],
      "name": "unstakeAll",
      "outputs": [],
      "stateMutability": "nonpayable",
      "type": "function"
    },
    {
      "inputs": [],
      "name": "updatePool",
      "outputs": [],
      "stateMutability": "nonpayable",
      "type": "function"
    },
    {
      "inputs": [
        {
          "internalType": "address",
          "name": "",
          "type": "address"
        }
      ],
      "name": "usersInfo",
      "outputs": [
        {
          "internalType": "uint256",
          "name": "shares",
          "type": "uint256"
        },
        {
          "internalType": "int256",
          "name": "accNetStaked",
          "type": "int256"
        }
      ],
      "stateMutability": "view",
      "type": "function"
    }
  ],
  "transactionHash": "0x5e3af1c7ddd8072aaf7ac366b355d446e1c577d59b9428bd185b73aa12a4eb27",
  "args": [
    "0x914a9fc7E131Ba505e4E255026CE147d42eC0Af8",
    "0x1CdB6a97FE1137e924aF29FB7b308261CB81CEda"
  ],
  "numDeployments": 2,
  "solcInputHash": "96cf958370427767f964ffffef09c306",
  "bytecode": "0x6080604052600060055560006006553480156200001b57600080fd5b5060405162001772380380620017728339810160408190526200003e91620000f4565b6000805460ff1916905560018055620000573362000089565b600380546001600160a01b039384166001600160a01b0319918216179091556004805492909316911617905562000133565b600280546001600160a01b038381166001600160a01b0319831681179093556040519116919082907f8be0079c531659141344cd1fd0a4f28419497f9722a3daafe3b4186f6b6457e090600090a35050565b6001600160a01b0381168114620000f157600080fd5b50565b600080604083850312156200010857600080fd5b82516200011581620000db565b60208401519092506200012881620000db565b809150509250929050565b61162f80620001436000396000f3fe608060405234801561001057600080fd5b506004361061018e5760003560e01c80637614115c116100de578063c28f439211610097578063e3161ddd11610071578063e3161ddd14610342578063ec1371f21461034a578063f2fde38b14610352578063fd79c6a21461036557600080fd5b8063c28f43921461031e578063c62c610b14610331578063d9d72c191461033a57600080fd5b80637614115c146102b9578063768e52c8146102c15780638da5cb5b146102d4578063a694fc3a146102e5578063a90fbd20146102f8578063b811540e1461030b57600080fd5b8063575a86b21161014b5780635d0eaaaf116101255780635d0eaaaf1461024f57806364c9ec6f1461028b578063672f14901461029e578063715018a6146102b157600080fd5b8063575a86b21461021d5780635c975abb146102305780635d0198811461024657600080fd5b80630ad83c7814610193578063123cecbe146101b95780632e17de78146101ce5780633530c61e146101e157806335322f371461020c5780633a98ef3914610214575b600080fd5b6101a66101a1366004611405565b610378565b6040519081526020015b60405180910390f35b6101cc6101c7366004611405565b6103b1565b005b6101cc6101dc366004611422565b610556565b6007546101f4906001600160a01b031681565b6040516001600160a01b0390911681526020016101b0565b6101cc610807565b6101a660055481565b6008546101f4906001600160a01b031681565b60005460ff1660405190151581526020016101b0565b6101a660065481565b61027661025d366004611405565b600a602052600090815260409020805460019091015482565b604080519283526020830191909152016101b0565b6004546101f4906001600160a01b031681565b6101cc6102ac36600461143b565b610873565b6101cc6108c3565b6101a66108f7565b6101a66102cf366004611422565b61098a565b6002546001600160a01b03166101f4565b6101cc6102f3366004611422565b6109b5565b6101a6610306366004611422565b6109e7565b6101a6610319366004611422565b610a03565b6003546101f4906001600160a01b031681565b6101a660095481565b6101cc610a28565b6101cc610aed565b6101a6610b8a565b6101cc610360366004611405565b610d39565b6101cc61037336600461143b565b610dd4565b6001600160a01b0381166000908152600a60205260408120600181015481546103a09061098a565b6103aa919061147d565b9392505050565b6002546001600160a01b031633146103e45760405162461bcd60e51b81526004016103db906114bc565b60405180910390fd5b60006001600160a01b0316816001600160a01b0316633530c61e6040518163ffffffff1660e01b815260040160206040518083038186803b15801561042857600080fd5b505afa15801561043c573d6000803e3d6000fd5b505050506040513d601f19601f8201168201806040525081019061046091906114f1565b6001600160a01b031614806104f65750306001600160a01b0316816001600160a01b0316633530c61e6040518163ffffffff1660e01b815260040160206040518083038186803b1580156104b357600080fd5b505afa1580156104c7573d6000803e3d6000fd5b505050506040513d601f19601f820116820180604052508101906104eb91906114f1565b6001600160a01b0316145b6105345760405162461bcd60e51b815260206004820152600f60248201526e496e76616c6964207369626c696e6760881b60448201526064016103db565b600780546001600160a01b0319166001600160a01b0392909216919091179055565b60005460ff16156105795760405162461bcd60e51b81526004016103db9061150e565b600260015414156105cc5760405162461bcd60e51b815260206004820152601f60248201527f5265656e7472616e637947756172643a207265656e7472616e742063616c6c0060448201526064016103db565b6002600155336000818152600a60205260409020805483118015906105f357508260055410155b61064b5760405162461bcd60e51b815260206004820152602360248201527f756e7374616b65207368617265732065786365656473206f776e65642073686160448201526272657360e81b60648201526084016103db565b61065361101f565b600061065e8461098a565b9050838260000160008282546106749190611538565b92505081905550836005600082825461068d9190611538565b909155505060035460405163a9059cbb60e01b81526001600160a01b038581166004830152602482018490529091169063a9059cbb90604401602060405180830381600087803b1580156106e057600080fd5b505af11580156106f4573d6000803e3d6000fd5b505050506040513d601f19601f82011682018060405250810190610718919061154f565b506001600160a01b0383166000908152600a60205260408120600101805483929061074490849061147d565b90915550506008546009546040516370ad001d60e11b81526004810191909152602481018690526001600160a01b0385811660448301529091169063e15a003a90606401600060405180830381600087803b1580156107a257600080fd5b505af11580156107b6573d6000803e3d6000fd5b50505050826001600160a01b03167f0f5bb82176feb1b5e747e28471aa92156a04d9f3ab9f45f28e2d704232b93f75826040516107f591815260200190565b60405180910390a25050600180555050565b336000908152600a60205260409020546108585760405162461bcd60e51b81526020600482015260126024820152716e6f7468696e6720746f20756e7374616b6560701b60448201526064016103db565b336000908152600a602052604090205461087190610556565b565b6002546001600160a01b0316331461089d5760405162461bcd60e51b81526004016103db906114bc565b600880546001600160a01b0319166001600160a01b039390931692909217909155600955565b6002546001600160a01b031633146108ed5760405162461bcd60e51b81526004016103db906114bc565b6108716000611091565b6003546040516370a0823160e01b81523060048201526000916001600160a01b0316906370a082319060240160206040518083038186803b15801561093b57600080fd5b505afa15801561094f573d6000803e3d6000fd5b505050506040513d601f19601f820116820180604052508101906109739190611571565b61097b610b8a565b610985919061158a565b905090565b600080821161099b57506000919050565b6109af6109a66108f7565b836005546110e3565b92915050565b60005460ff16156109d85760405162461bcd60e51b81526004016103db9061150e565b336109e38183610dd4565b5050565b60008082116109f857506000919050565b6109af6109a6610b8a565b60008060055411610a1457816109af565b6109af82600554610a236108f7565b6110e3565b336000818152600a602052604090208054610a785760405162461bcd60e51b815260206004820152601060248201526f4e6f7468696e6720746f20636c61696d60801b60448201526064016103db565b6008546009546040516370ad001d60e11b81526004810191909152600060248201526001600160a01b0384811660448301529091169063e15a003a90606401600060405180830381600087803b158015610ad157600080fd5b505af1158015610ae5573d6000803e3d6000fd5b505050505050565b6007546001600160a01b0316331480610b1057506004546001600160a01b031633145b610b825760405162461bcd60e51b815260206004820152603960248201527f426f6e644c504661726d696e67506f6f6c3a2043616c6c696e672066726f6d2060448201527f7369626c696e6720706f6f6c206f7220626f6e64206f6e6c790000000000000060648201526084016103db565b6108716111a1565b6004805460408051637609b8f960e11b8152905160009384936001600160a01b03169263ec1371f29281830192602092829003018186803b158015610bce57600080fd5b505afa158015610be2573d6000803e3d6000fd5b505050506040513d601f19601f82011682018060405250810190610c069190611571565b905060008111610c1857600091505090565b6003546040516370a0823160e01b81523060048201526000916001600160a01b0316906370a082319060240160206040518083038186803b158015610c5c57600080fd5b505afa158015610c70573d6000803e3d6000fd5b505050506040513d601f19601f82011682018060405250810190610c949190611571565b905060008111610ca75760009250505090565b610d328282600360009054906101000a90046001600160a01b03166001600160a01b03166318160ddd6040518163ffffffff1660e01b815260040160206040518083038186803b158015610cfa57600080fd5b505afa158015610d0e573d6000803e3d6000fd5b505050506040513d601f19601f82011682018060405250810190610a239190611571565b9250505090565b6002546001600160a01b03163314610d635760405162461bcd60e51b81526004016103db906114bc565b6001600160a01b038116610dc85760405162461bcd60e51b815260206004820152602660248201527f4f776e61626c653a206e6577206f776e657220697320746865207a65726f206160448201526564647265737360d01b60648201526084016103db565b610dd181611091565b50565b60005460ff1615610df75760405162461bcd60e51b81526004016103db9061150e565b60026001541415610e4a5760405162461bcd60e51b815260206004820152601f60248201527f5265656e7472616e637947756172643a207265656e7472616e742063616c6c0060448201526064016103db565b6002600155610e5761101f565b6000610e6282610a03565b6003546040516323b872dd60e01b8152336004820152306024820152604481018590529192506001600160a01b0316906323b872dd90606401602060405180830381600087803b158015610eb557600080fd5b505af1158015610ec9573d6000803e3d6000fd5b505050506040513d601f19601f82011682018060405250810190610eed919061154f565b508060056000828254610f00919061158a565b90915550506001600160a01b0383166000908152600a602052604081208054839290610f2d90849061158a565b90915550506001600160a01b0383166000908152600a602052604081206001018054849290610f5d9084906115a2565b909155505060085460095460405163a3f30d2760e01b81526004810191909152602481018390526001600160a01b0385811660448301529091169063a3f30d2790606401600060405180830381600087803b158015610fbb57600080fd5b505af1158015610fcf573d6000803e3d6000fd5b50505050826001600160a01b03167f9e71bc8eea02a63969f509818f2dafb9254532904319f9dbda79b67bd34a5f3d8360405161100e91815260200190565b60405180910390a250506001805550565b6110276111a1565b600760009054906101000a90046001600160a01b03166001600160a01b031663e3161ddd6040518163ffffffff1660e01b8152600401600060405180830381600087803b15801561107757600080fd5b505af115801561108b573d6000803e3d6000fd5b50505050565b600280546001600160a01b038381166001600160a01b0319831681179093556040519116919082907f8be0079c531659141344cd1fd0a4f28419497f9722a3daafe3b4186f6b6457e090600090a35050565b60008080600019858709858702925082811083820303915050806000141561112b576000841161111257600080fd5b838281611121576111216115e3565b04925050506103aa565b80841161113757600080fd5b600084868809600360018719810188169788900491820a808302600290810390910280840282030280840282030280840282030280840282030292830290039091026000889003889004909101858311909403939093029303949094049190911702949350505050565b6007546001600160a01b031661120a5760405162461bcd60e51b815260206004820152602860248201527f426f6e644661726d696e67506f6f6c3a20436f6e7472616374206e6f7420726560448201526730b23c903cb2ba1760c11b60648201526084016103db565b60075460408051635d01988160e01b8152905143926001600160a01b031691635d019881916004808301926020929190829003018186803b15801561124e57600080fd5b505afa158015611262573d6000803e3d6000fd5b505050506040513d601f19601f820116820180604052508101906112869190611571565b10806113245750600654600760009054906101000a90046001600160a01b03166001600160a01b0316635d0198816040518163ffffffff1660e01b815260040160206040518083038186803b1580156112de57600080fd5b505afa1580156112f2573d6000803e3d6000fd5b505050506040513d601f19601f820116820180604052508101906113169190611571565b148015611324575043600654145b6113705760405162461bcd60e51b815260206004820152601960248201527f75706461746520626f6e6420706f6f6c2066697273746c792e0000000000000060448201526064016103db565b600061137a610b8a565b436006559050806113885750565b60048054604051632a52d5a560e21b81523092810192909252602482018390526001600160a01b03169063a94b569490604401600060405180830381600087803b1580156113d557600080fd5b505af11580156113e9573d6000803e3d6000fd5b5050505050565b6001600160a01b0381168114610dd157600080fd5b60006020828403121561141757600080fd5b81356103aa816113f0565b60006020828403121561143457600080fd5b5035919050565b6000806040838503121561144e57600080fd5b8235611459816113f0565b946020939093013593505050565b634e487b7160e01b600052601160045260246000fd5b60008083128015600160ff1b85018412161561149b5761149b611467565b6001600160ff1b03840183138116156114b6576114b6611467565b50500390565b6020808252818101527f4f776e61626c653a2063616c6c6572206973206e6f7420746865206f776e6572604082015260600190565b60006020828403121561150357600080fd5b81516103aa816113f0565b60208082526010908201526f14185d5cd8589b194e881c185d5cd95960821b604082015260600190565b60008282101561154a5761154a611467565b500390565b60006020828403121561156157600080fd5b815180151581146103aa57600080fd5b60006020828403121561158357600080fd5b5051919050565b6000821982111561159d5761159d611467565b500190565b600080821280156001600160ff1b03849003851316156115c4576115c4611467565b600160ff1b83900384128116156115dd576115dd611467565b50500190565b634e487b7160e01b600052601260045260246000fdfea26469706673582212207959d6babd9892ae96804ad053b2c52629d58101cb025536f68b1eca16a7d86164736f6c63430008090033",
  "devdoc": {
    "kind": "dev",
    "methods": {
      "earnedToDate(address)": {
        "details": "calculate earned amount to date of specific user."
      },
      "owner()": {
        "details": "Returns the address of the current owner."
      },
      "paused()": {
        "details": "Returns true if the contract is paused, and false otherwise."
      },
      "renounceOwnership()": {
        "details": "Leaves the contract without owner. It will not be possible to call `onlyOwner` functions anymore. Can only be called by the current owner. NOTE: Renouncing ownership will leave the contract without an owner, thereby removing any functionality that is only available to the owner."
      },
      "transferOwnership(address)": {
        "details": "Transfers ownership of the contract to a new account (`newOwner`). Can only be called by the current owner."
      },
      "updatePool()": {
        "details": "see: _updatePool"
      }
    },
    "version": 1
  },
  "userdoc": {
    "kind": "user",
    "methods": {
      "unstake(uint256)": {
        "notice": "unstake by shares"
      }
    },
    "version": 1
  },
  "storageLayout": {
    "storage": [
      {
        "astId": 1109,
        "contract": "contracts/BondFarmingPool.sol:BondFarmingPool",
        "label": "_paused",
        "offset": 0,
        "slot": "0",
        "type": "t_bool"
      },
      {
        "astId": 1194,
        "contract": "contracts/BondFarmingPool.sol:BondFarmingPool",
        "label": "_status",
        "offset": 0,
        "slot": "1",
        "type": "t_uint256"
      },
      {
        "astId": 994,
        "contract": "contracts/BondFarmingPool.sol:BondFarmingPool",
        "label": "_owner",
        "offset": 0,
        "slot": "2",
        "type": "t_address"
      },
      {
        "astId": 3083,
        "contract": "contracts/BondFarmingPool.sol:BondFarmingPool",
        "label": "bondToken",
        "offset": 0,
        "slot": "3",
        "type": "t_contract(IERC20)1887"
      },
      {
        "astId": 3086,
        "contract": "contracts/BondFarmingPool.sol:BondFarmingPool",
        "label": "bond",
        "offset": 0,
        "slot": "4",
        "type": "t_contract(IExtendableBond)7175"
      },
      {
        "astId": 3089,
        "contract": "contracts/BondFarmingPool.sol:BondFarmingPool",
        "label": "totalShares",
        "offset": 0,
        "slot": "5",
        "type": "t_uint256"
      },
      {
        "astId": 3092,
        "contract": "contracts/BondFarmingPool.sol:BondFarmingPool",
        "label": "lastUpdatedPoolAt",
        "offset": 0,
        "slot": "6",
        "type": "t_uint256"
      },
      {
        "astId": 3095,
        "contract": "contracts/BondFarmingPool.sol:BondFarmingPool",
        "label": "siblingPool",
        "offset": 0,
        "slot": "7",
        "type": "t_contract(IBondFarmingPool)7075"
      },
      {
        "astId": 3098,
        "contract": "contracts/BondFarmingPool.sol:BondFarmingPool",
        "label": "masterChef",
        "offset": 0,
        "slot": "8",
        "type": "t_contract(MultiRewardsMasterChef)7035"
      },
      {
        "astId": 3100,
        "contract": "contracts/BondFarmingPool.sol:BondFarmingPool",
        "label": "masterChefPid",
        "offset": 0,
        "slot": "9",
        "type": "t_uint256"
      },
      {
        "astId": 3112,
        "contract": "contracts/BondFarmingPool.sol:BondFarmingPool",
        "label": "usersInfo",
        "offset": 0,
        "slot": "10",
        "type": "t_mapping(t_address,t_struct(UserInfo)3107_storage)"
      }
    ],
    "types": {
      "t_address": {
        "encoding": "inplace",
        "label": "address",
        "numberOfBytes": "20"
      },
      "t_bool": {
        "encoding": "inplace",
        "label": "bool",
        "numberOfBytes": "1"
      },
      "t_contract(IBondFarmingPool)7075": {
        "encoding": "inplace",
        "label": "contract IBondFarmingPool",
        "numberOfBytes": "20"
      },
      "t_contract(IERC20)1887": {
        "encoding": "inplace",
        "label": "contract IERC20",
        "numberOfBytes": "20"
      },
      "t_contract(IExtendableBond)7175": {
        "encoding": "inplace",
        "label": "contract IExtendableBond",
        "numberOfBytes": "20"
      },
      "t_contract(MultiRewardsMasterChef)7035": {
        "encoding": "inplace",
        "label": "contract MultiRewardsMasterChef",
        "numberOfBytes": "20"
      },
      "t_int256": {
        "encoding": "inplace",
        "label": "int256",
        "numberOfBytes": "32"
      },
      "t_mapping(t_address,t_struct(UserInfo)3107_storage)": {
        "encoding": "mapping",
        "key": "t_address",
        "label": "mapping(address => struct BondFarmingPool.UserInfo)",
        "numberOfBytes": "32",
        "value": "t_struct(UserInfo)3107_storage"
      },
      "t_struct(UserInfo)3107_storage": {
        "encoding": "inplace",
        "label": "struct BondFarmingPool.UserInfo",
        "members": [
          {
            "astId": 3103,
            "contract": "contracts/BondFarmingPool.sol:BondFarmingPool",
            "label": "shares",
            "offset": 0,
            "slot": "0",
            "type": "t_uint256"
          },
          {
            "astId": 3106,
            "contract": "contracts/BondFarmingPool.sol:BondFarmingPool",
            "label": "accNetStaked",
            "offset": 0,
            "slot": "1",
            "type": "t_int256"
          }
        ],
        "numberOfBytes": "64"
      },
      "t_uint256": {
        "encoding": "inplace",
        "label": "uint256",
        "numberOfBytes": "32"
      }
    }
  }
}