{
  "address": "0x70028bb330DBb7c4Ee0E6a1BD103dfD5A1e4aE0A",
  "abi": [
    {
      "anonymous": false,
      "inputs": [
        {
          "indexed": true,
          "internalType": "address",
          "name": "user",
          "type": "address"
        },
        {
          "indexed": true,
          "internalType": "address",
          "name": "newAdmin",
          "type": "address"
        }
      ],
      "name": "AdminUpdated",
      "type": "event"
    },
    {
      "anonymous": false,
      "inputs": [
        {
          "indexed": false,
          "internalType": "uint8",
          "name": "version",
          "type": "uint8"
        }
      ],
      "name": "Initialized",
      "type": "event"
    },
    {
      "anonymous": false,
      "inputs": [
        {
          "indexed": false,
          "internalType": "address",
          "name": "account",
          "type": "address"
        }
      ],
      "name": "Paused",
      "type": "event"
    },
    {
      "anonymous": false,
      "inputs": [
        {
          "indexed": true,
          "internalType": "address",
          "name": "user",
          "type": "address"
        },
        {
          "indexed": false,
          "internalType": "uint256",
          "name": "amount",
          "type": "uint256"
        }
      ],
      "name": "Staked",
      "type": "event"
    },
    {
      "anonymous": false,
      "inputs": [
        {
          "indexed": false,
          "internalType": "address",
          "name": "account",
          "type": "address"
        }
      ],
      "name": "Unpaused",
      "type": "event"
    },
    {
      "anonymous": false,
      "inputs": [
        {
          "indexed": true,
          "internalType": "address",
          "name": "user",
          "type": "address"
        },
        {
          "indexed": false,
          "internalType": "uint256",
          "name": "amount",
          "type": "uint256"
        }
      ],
      "name": "Unstaked",
      "type": "event"
    },
    {
      "inputs": [],
      "name": "ACC_REWARDS_PRECISION",
      "outputs": [
        {
          "internalType": "uint256",
          "name": "",
          "type": "uint256"
        }
      ],
      "stateMutability": "view",
      "type": "function"
    },
    {
      "inputs": [],
      "name": "accRewardPerShare",
      "outputs": [
        {
          "internalType": "uint256",
          "name": "",
          "type": "uint256"
        }
      ],
      "stateMutability": "view",
      "type": "function"
    },
    {
      "inputs": [],
      "name": "admin",
      "outputs": [
        {
          "internalType": "address",
          "name": "",
          "type": "address"
        }
      ],
      "stateMutability": "view",
      "type": "function"
    },
    {
      "inputs": [],
      "name": "bond",
      "outputs": [
        {
          "internalType": "contract IExtendableBond",
          "name": "",
          "type": "address"
        }
      ],
      "stateMutability": "view",
      "type": "function"
    },
    {
      "inputs": [],
      "name": "bondRewardsSuspended",
      "outputs": [
        {
          "internalType": "bool",
          "name": "",
          "type": "bool"
        }
      ],
      "stateMutability": "view",
      "type": "function"
    },
    {
      "inputs": [],
      "name": "bondToken",
      "outputs": [
        {
          "internalType": "contract IERC20Upgradeable",
          "name": "",
          "type": "address"
        }
      ],
      "stateMutability": "view",
      "type": "function"
    },
    {
      "inputs": [],
      "name": "claimBonuses",
      "outputs": [],
      "stateMutability": "nonpayable",
      "type": "function"
    },
    {
      "inputs": [
        {
          "internalType": "contract IERC20Upgradeable",
          "name": "bondToken_",
          "type": "address"
        },
        {
          "internalType": "contract IExtendableBond",
          "name": "bond_",
          "type": "address"
        },
        {
          "internalType": "address",
          "name": "admin_",
          "type": "address"
        }
      ],
      "name": "initialize",
      "outputs": [],
      "stateMutability": "nonpayable",
      "type": "function"
    },
    {
      "inputs": [],
      "name": "lastUpdatedPoolAt",
      "outputs": [
        {
          "internalType": "uint256",
          "name": "",
          "type": "uint256"
        }
      ],
      "stateMutability": "view",
      "type": "function"
    },
    {
      "inputs": [],
      "name": "lpToken",
      "outputs": [
        {
          "internalType": "contract IERC20Upgradeable",
          "name": "",
          "type": "address"
        }
      ],
      "stateMutability": "view",
      "type": "function"
    },
    {
      "inputs": [],
      "name": "masterChef",
      "outputs": [
        {
          "internalType": "contract MultiRewardsMasterChef",
          "name": "",
          "type": "address"
        }
      ],
      "stateMutability": "view",
      "type": "function"
    },
    {
      "inputs": [],
      "name": "masterChefPid",
      "outputs": [
        {
          "internalType": "uint256",
          "name": "",
          "type": "uint256"
        }
      ],
      "stateMutability": "view",
      "type": "function"
    },
    {
      "inputs": [],
      "name": "paused",
      "outputs": [
        {
          "internalType": "bool",
          "name": "",
          "type": "bool"
        }
      ],
      "stateMutability": "view",
      "type": "function"
    },
    {
      "inputs": [
        {
          "internalType": "address",
          "name": "newAdmin",
          "type": "address"
        }
      ],
      "name": "setAdmin",
      "outputs": [],
      "stateMutability": "nonpayable",
      "type": "function"
    },
    {
      "inputs": [
        {
          "internalType": "bool",
          "name": "suspended_",
          "type": "bool"
        }
      ],
      "name": "setBondRewardsSuspended",
      "outputs": [],
      "stateMutability": "nonpayable",
      "type": "function"
    },
    {
      "inputs": [
        {
          "internalType": "contract IERC20Upgradeable",
          "name": "lpToken_",
          "type": "address"
        }
      ],
      "name": "setLpToken",
      "outputs": [],
      "stateMutability": "nonpayable",
      "type": "function"
    },
    {
      "inputs": [
        {
          "internalType": "contract MultiRewardsMasterChef",
          "name": "masterChef_",
          "type": "address"
        },
        {
          "internalType": "uint256",
          "name": "masterChefPid_",
          "type": "uint256"
        }
      ],
      "name": "setMasterChef",
      "outputs": [],
      "stateMutability": "nonpayable",
      "type": "function"
    },
    {
      "inputs": [
        {
          "internalType": "contract IBondFarmingPool",
          "name": "siblingPool_",
          "type": "address"
        }
      ],
      "name": "setSiblingPool",
      "outputs": [],
      "stateMutability": "nonpayable",
      "type": "function"
    },
    {
      "inputs": [],
      "name": "siblingPool",
      "outputs": [
        {
          "internalType": "contract IBondFarmingPool",
          "name": "",
          "type": "address"
        }
      ],
      "stateMutability": "view",
      "type": "function"
    },
    {
      "inputs": [
        {
          "internalType": "uint256",
          "name": "amount_",
          "type": "uint256"
        }
      ],
      "name": "stake",
      "outputs": [],
      "stateMutability": "nonpayable",
      "type": "function"
    },
    {
      "inputs": [
        {
          "internalType": "address",
          "name": "user_",
          "type": "address"
        },
        {
          "internalType": "uint256",
          "name": "amount_",
          "type": "uint256"
        }
      ],
      "name": "stakeForUser",
      "outputs": [],
      "stateMutability": "nonpayable",
      "type": "function"
    },
    {
      "inputs": [],
      "name": "totalLpAmount",
      "outputs": [
        {
          "internalType": "uint256",
          "name": "",
          "type": "uint256"
        }
      ],
      "stateMutability": "view",
      "type": "function"
    },
    {
      "inputs": [],
      "name": "totalPendingRewards",
      "outputs": [
        {
          "internalType": "uint256",
          "name": "",
          "type": "uint256"
        }
      ],
      "stateMutability": "view",
      "type": "function"
    },
    {
      "inputs": [
        {
          "internalType": "uint256",
          "name": "amount_",
          "type": "uint256"
        }
      ],
      "name": "unstake",
      "outputs": [],
      "stateMutability": "nonpayable",
      "type": "function"
    },
    {
      "inputs": [],
      "name": "unstakeAll",
      "outputs": [],
      "stateMutability": "nonpayable",
      "type": "function"
    },
    {
      "inputs": [],
      "name": "updatePool",
      "outputs": [],
      "stateMutability": "nonpayable",
      "type": "function"
    },
    {
      "inputs": [
        {
          "internalType": "address",
          "name": "",
          "type": "address"
        }
      ],
      "name": "usersInfo",
      "outputs": [
        {
          "internalType": "uint256",
          "name": "lpAmount",
          "type": "uint256"
        },
        {
          "internalType": "uint256",
          "name": "rewardDebit",
          "type": "uint256"
        },
        {
          "internalType": "uint256",
          "name": "pendingRewards",
          "type": "uint256"
        },
        {
          "internalType": "uint256",
          "name": "claimedRewards",
          "type": "uint256"
        }
      ],
      "stateMutability": "view",
      "type": "function"
    }
  ],
  "transactionHash": "0xfd14e3c62579cf7bd946dd826a252fd29e5cd2407b3d16446d18d97458955da7",
  "args": [],
  "numDeployments": 3,
  "solcInputHash": "0b1fd83a26cb791143379a696c8467ab",
  "bytecode": "0x60806040526000609c5564e8d4a5100060a05560a2805460ff1916905534801561002857600080fd5b50612436806100386000396000f3fe608060405234801561001057600080fd5b50600436106101b95760003560e01c80636702679a116100f9578063c28f439211610097578063e3161ddd11610071578063e3161ddd146103e6578063ec1371f2146103ee578063f851a440146103f6578063fd79c6a21461041657600080fd5b8063c28f4392146103b5578063c62c610b146103d5578063d9d72c19146103de57600080fd5b8063939d6237116100d3578063939d6237146103735780639ee933b51461037c578063a694fc3a1461038f578063c0c53b8b146103a257600080fd5b80636702679a14610340578063672f14901461034d578063704b6c021461036057600080fd5b8063575a86b2116101665780635d019881116101405780635d019881146102a25780635d0eaaaf146102ab5780635fcbd2851461030057806364c9ec6f1461032057600080fd5b8063575a86b2146102625780635b755f39146102825780635c975abb1461028b57600080fd5b806335322f371161019757806335322f371461023057806345a13b9614610238578063532d73971461024b57600080fd5b8063123cecbe146101be5780632e17de78146101d35780633530c61e146101e6575b600080fd5b6101d16101cc366004612166565b610429565b005b6101d16101e1366004612183565b6106de565b609b546102069073ffffffffffffffffffffffffffffffffffffffff1681565b60405173ffffffffffffffffffffffffffffffffffffffff90911681526020015b60405180910390f35b6101d1610a35565b6101d16102463660046121aa565b610ac6565b61025460a15481565b604051908152602001610227565b609d546102069073ffffffffffffffffffffffffffffffffffffffff1681565b61025460a05481565b60655460ff165b6040519015158152602001610227565b610254609c5481565b6102e06102b9366004612166565b60a36020526000908152604090208054600182015460028301546003909301549192909184565b604080519485526020850193909352918301526060820152608001610227565b6099546102069073ffffffffffffffffffffffffffffffffffffffff1681565b609a546102069073ffffffffffffffffffffffffffffffffffffffff1681565b60a2546102929060ff1681565b6101d161035b3660046121c7565b610b80565b6101d161036e366004612166565b610c4c565b610254609f5481565b6101d161038a366004612166565b610cd9565b6101d161039d366004612183565b610da1565b6101d16103b03660046121f3565b610eb0565b6098546102069073ffffffffffffffffffffffffffffffffffffffff1681565b610254609e5481565b6101d1610fcc565b6101d1610fd6565b6102546110a7565b6097546102069073ffffffffffffffffffffffffffffffffffffffff1681565b6101d16104243660046121c7565b611175565b60975473ffffffffffffffffffffffffffffffffffffffff1633146104af576040517f08c379a000000000000000000000000000000000000000000000000000000000815260206004820152600c60248201527f554e415554484f52495a4544000000000000000000000000000000000000000060448201526064015b60405180910390fd5b600073ffffffffffffffffffffffffffffffffffffffff168173ffffffffffffffffffffffffffffffffffffffff16633530c61e6040518163ffffffff1660e01b815260040160206040518083038186803b15801561050d57600080fd5b505afa158015610521573d6000803e3d6000fd5b505050506040513d601f19601f82011682018060405250810190610545919061223e565b73ffffffffffffffffffffffffffffffffffffffff16148061060f57503073ffffffffffffffffffffffffffffffffffffffff168173ffffffffffffffffffffffffffffffffffffffff16633530c61e6040518163ffffffff1660e01b815260040160206040518083038186803b1580156105bf57600080fd5b505afa1580156105d3573d6000803e3d6000fd5b505050506040513d601f19601f820116820180604052508101906105f7919061223e565b73ffffffffffffffffffffffffffffffffffffffff16145b8015610631575073ffffffffffffffffffffffffffffffffffffffff81163014155b610697576040517f08c379a000000000000000000000000000000000000000000000000000000000815260206004820152600f60248201527f496e76616c6964207369626c696e67000000000000000000000000000000000060448201526064016104a6565b609b80547fffffffffffffffffffffffff00000000000000000000000000000000000000001673ffffffffffffffffffffffffffffffffffffffff92909216919091179055565b60655460ff161561074b576040517f08c379a000000000000000000000000000000000000000000000000000000000815260206004820152601060248201527f5061757361626c653a207061757365640000000000000000000000000000000060448201526064016104a6565b600260015414156107b8576040517f08c379a000000000000000000000000000000000000000000000000000000000815260206004820152601f60248201527f5265656e7472616e637947756172643a207265656e7472616e742063616c6c0060448201526064016104a6565b600260015533600081815260a360205260409020805483118015906107dd5750805415155b610869576040517f08c379a000000000000000000000000000000000000000000000000000000000815260206004820152602360248201527f756e7374616b6520616d6f756e742065786365656473206f776e656420616d6f60448201527f756e74000000000000000000000000000000000000000000000000000000000060648201526084016104a6565b610871611485565b60a0548154609f54600092916108869161228a565b61089091906122c7565b9050600082600101548284600201546108a99190612302565b6108b3919061231a565b60018401839055600060028501559050841561090657848360000160008282546108dd919061231a565b90915550506099546109069073ffffffffffffffffffffffffffffffffffffffff16858761151c565b60985461092a9073ffffffffffffffffffffffffffffffffffffffff16858361151c565b8083600301600082825461093e9190612302565b9091555050609d54609e546040517fe15a003a00000000000000000000000000000000000000000000000000000000815260048101919091526024810187905273ffffffffffffffffffffffffffffffffffffffff86811660448301529091169063e15a003a90606401600060405180830381600087803b1580156109c257600080fd5b505af11580156109d6573d6000803e3d6000fd5b505050508373ffffffffffffffffffffffffffffffffffffffff167f0f5bb82176feb1b5e747e28471aa92156a04d9f3ab9f45f28e2d704232b93f7586604051610a2291815260200190565b60405180910390a2505060018055505050565b33600090815260a36020526040902054610aab576040517f08c379a000000000000000000000000000000000000000000000000000000000815260206004820152601260248201527f6e6f7468696e6720746f20756e7374616b65000000000000000000000000000060448201526064016104a6565b33600090815260a36020526040902054610ac4906106de565b565b60975473ffffffffffffffffffffffffffffffffffffffff163314610b47576040517f08c379a000000000000000000000000000000000000000000000000000000000815260206004820152600c60248201527f554e415554484f52495a4544000000000000000000000000000000000000000060448201526064016104a6565b610b4f611485565b60a280547fffffffffffffffffffffffffffffffffffffffffffffffffffffffffffffff0016911515919091179055565b60975473ffffffffffffffffffffffffffffffffffffffff163314610c01576040517f08c379a000000000000000000000000000000000000000000000000000000000815260206004820152600c60248201527f554e415554484f52495a4544000000000000000000000000000000000000000060448201526064016104a6565b609d80547fffffffffffffffffffffffff00000000000000000000000000000000000000001673ffffffffffffffffffffffffffffffffffffffff9390931692909217909155609e55565b60975473ffffffffffffffffffffffffffffffffffffffff163314610ccd576040517f08c379a000000000000000000000000000000000000000000000000000000000815260206004820152600c60248201527f554e415554484f52495a4544000000000000000000000000000000000000000060448201526064016104a6565b610cd6816115f5565b50565b60975473ffffffffffffffffffffffffffffffffffffffff163314610d5a576040517f08c379a000000000000000000000000000000000000000000000000000000000815260206004820152600c60248201527f554e415554484f52495a4544000000000000000000000000000000000000000060448201526064016104a6565b609980547fffffffffffffffffffffffff00000000000000000000000000000000000000001673ffffffffffffffffffffffffffffffffffffffff92909216919091179055565b60655460ff1615610e0e576040517f08c379a000000000000000000000000000000000000000000000000000000000815260206004820152601060248201527f5061757361626c653a207061757365640000000000000000000000000000000060448201526064016104a6565b60a25460ff1615610ea1576040517f08c379a000000000000000000000000000000000000000000000000000000000815260206004820152603960248201527f5265776172642073757370656e6465642e20506c6561736520666f6c6c6f772060448201527f7468652070726f6a65637420616e6e6f756e63656d656e74200000000000000060648201526084016104a6565b33610eac8183611175565b5050565b6000610ebc6001611709565b90508015610ef157600080547fffffffffffffffffffffffffffffffffffffffffffffffffffffffffffff00ff166101001790555b610ef961188f565b610f0161192e565b6097805473ffffffffffffffffffffffffffffffffffffffff8085167fffffffffffffffffffffffff00000000000000000000000000000000000000009283161790925560988054878416908316179055609a8054928616929091169190911790558015610fc657600080547fffffffffffffffffffffffffffffffffffffffffffffffffffffffffffff00ff169055604051600181527f7f26b83ff96e1f2b6a682f133852f6798a09c465da95921460cefb38474024989060200160405180910390a15b50505050565b610ac460006106de565b609b5473ffffffffffffffffffffffffffffffffffffffff163314806110135750609a5473ffffffffffffffffffffffffffffffffffffffff1633145b61109f576040517f08c379a000000000000000000000000000000000000000000000000000000000815260206004820152603960248201527f426f6e644c504661726d696e67506f6f6c3a2043616c6c696e672066726f6d2060448201527f7369626c696e6720706f6f6c206f7220626f6e64206f6e6c790000000000000060648201526084016104a6565b610ac46119cd565b60a25460009060ff16156110bb5750600090565b609a54604080517fec1371f2000000000000000000000000000000000000000000000000000000008152905160009273ffffffffffffffffffffffffffffffffffffffff169163ec1371f2916004808301926020929190829003018186803b15801561112657600080fd5b505afa15801561113a573d6000803e3d6000fd5b505050506040513d601f19601f8201168201806040525081019061115e9190612331565b90506000811161117057600091505090565b919050565b60655460ff16156111e2576040517f08c379a000000000000000000000000000000000000000000000000000000000815260206004820152601060248201527f5061757361626c653a207061757365640000000000000000000000000000000060448201526064016104a6565b6002600154141561124f576040517f08c379a000000000000000000000000000000000000000000000000000000000815260206004820152601f60248201527f5265656e7472616e637947756172643a207265656e7472616e742063616c6c0060448201526064016104a6565b6002600155806112bb576040517f08c379a000000000000000000000000000000000000000000000000000000000815260206004820152601060248201527f6e6f7468696e6720746f207374616b650000000000000000000000000000000060448201526064016104a6565b6112c3611485565b73ffffffffffffffffffffffffffffffffffffffff8216600090815260a36020526040902080541561133e5760a0548154609f54600092916113049161228a565b61130e91906122c7565b9050816001015481611320919061231a565b8260020160008282546113339190612302565b909155505060018201555b6099546113639073ffffffffffffffffffffffffffffffffffffffff16333085611c7a565b818160000160008282546113779190612302565b925050819055508160a160008282546113909190612302565b9091555050609d54609e546040517fa3f30d2700000000000000000000000000000000000000000000000000000000815260048101919091526024810184905273ffffffffffffffffffffffffffffffffffffffff85811660448301529091169063a3f30d2790606401600060405180830381600087803b15801561141457600080fd5b505af1158015611428573d6000803e3d6000fd5b505050508273ffffffffffffffffffffffffffffffffffffffff167f9e71bc8eea02a63969f509818f2dafb9254532904319f9dbda79b67bd34a5f3d8360405161147491815260200190565b60405180910390a250506001805550565b60a25460ff161561149257565b609b60009054906101000a900473ffffffffffffffffffffffffffffffffffffffff1673ffffffffffffffffffffffffffffffffffffffff1663e3161ddd6040518163ffffffff1660e01b8152600401600060405180830381600087803b1580156114fc57600080fd5b505af1158015611510573d6000803e3d6000fd5b50505050610ac46119cd565b60405173ffffffffffffffffffffffffffffffffffffffff83166024820152604481018290526115f09084907fa9059cbb00000000000000000000000000000000000000000000000000000000906064015b604080517fffffffffffffffffffffffffffffffffffffffffffffffffffffffffffffffe08184030181529190526020810180517bffffffffffffffffffffffffffffffffffffffffffffffffffffffff167fffffffff0000000000000000000000000000000000000000000000000000000090931692909217909152611cd8565b505050565b73ffffffffffffffffffffffffffffffffffffffff8116611698576040517f08c379a000000000000000000000000000000000000000000000000000000000815260206004820152602160248201527f43616e206e6f74207365742061646d696e20746f207a65726f2061646472657360448201527f730000000000000000000000000000000000000000000000000000000000000060648201526084016104a6565b609780547fffffffffffffffffffffffff00000000000000000000000000000000000000001673ffffffffffffffffffffffffffffffffffffffff831690811790915560405133907f101b8081ff3b56bbf45deb824d86a3b0fd38b7e3dd42421105cf8abe9106db0b90600090a350565b60008054610100900460ff16156117c0578160ff16600114801561172c5750303b155b6117b8576040517f08c379a000000000000000000000000000000000000000000000000000000000815260206004820152602e60248201527f496e697469616c697a61626c653a20636f6e747261637420697320616c72656160448201527f647920696e697469616c697a656400000000000000000000000000000000000060648201526084016104a6565b506000919050565b60005460ff808416911610611857576040517f08c379a000000000000000000000000000000000000000000000000000000000815260206004820152602e60248201527f496e697469616c697a61626c653a20636f6e747261637420697320616c72656160448201527f647920696e697469616c697a656400000000000000000000000000000000000060648201526084016104a6565b50600080547fffffffffffffffffffffffffffffffffffffffffffffffffffffffffffffff001660ff92909216919091179055600190565b600054610100900460ff16611926576040517f08c379a000000000000000000000000000000000000000000000000000000000815260206004820152602b60248201527f496e697469616c697a61626c653a20636f6e7472616374206973206e6f74206960448201527f6e697469616c697a696e6700000000000000000000000000000000000000000060648201526084016104a6565b610ac4611de4565b600054610100900460ff166119c5576040517f08c379a000000000000000000000000000000000000000000000000000000000815260206004820152602b60248201527f496e697469616c697a61626c653a20636f6e7472616374206973206e6f74206960448201527f6e697469616c697a696e6700000000000000000000000000000000000000000060648201526084016104a6565b610ac4611e81565b609c54609b60009054906101000a900473ffffffffffffffffffffffffffffffffffffffff1673ffffffffffffffffffffffffffffffffffffffff16635d0198816040518163ffffffff1660e01b815260040160206040518083038186803b158015611a3857600080fd5b505afa158015611a4c573d6000803e3d6000fd5b505050506040513d601f19601f82011682018060405250810190611a709190612331565b1180611b285750609c54609b60009054906101000a900473ffffffffffffffffffffffffffffffffffffffff1673ffffffffffffffffffffffffffffffffffffffff16635d0198816040518163ffffffff1660e01b815260040160206040518083038186803b158015611ae257600080fd5b505afa158015611af6573d6000803e3d6000fd5b505050506040513d601f19601f82011682018060405250810190611b1a9190612331565b148015611b28575043609c54145b611b8e576040517f08c379a000000000000000000000000000000000000000000000000000000000815260206004820152601960248201527f75706461746520626f6e6420706f6f6c2066697273746c792e0000000000000060448201526064016104a6565b6000611b986110a7565b43609c55905060008111611ba95750565b60a15415611be75760a15460a054611bc1908361228a565b611bcb91906122c7565b609f6000828254611bdc9190612302565b90915550611bed9050565b6000609f555b609a546040517fa94b56940000000000000000000000000000000000000000000000000000000081523060048201526024810183905273ffffffffffffffffffffffffffffffffffffffff9091169063a94b569490604401600060405180830381600087803b158015611c5f57600080fd5b505af1158015611c73573d6000803e3d6000fd5b5050505050565b60405173ffffffffffffffffffffffffffffffffffffffff80851660248301528316604482015260648101829052610fc69085907f23b872dd000000000000000000000000000000000000000000000000000000009060840161156e565b6000611d3a826040518060400160405280602081526020017f5361666545524332303a206c6f772d6c6576656c2063616c6c206661696c65648152508573ffffffffffffffffffffffffffffffffffffffff16611f429092919063ffffffff16565b8051909150156115f05780806020019051810190611d58919061234a565b6115f0576040517f08c379a000000000000000000000000000000000000000000000000000000000815260206004820152602a60248201527f5361666545524332303a204552433230206f7065726174696f6e20646964206e60448201527f6f7420737563636565640000000000000000000000000000000000000000000060648201526084016104a6565b600054610100900460ff16611e7b576040517f08c379a000000000000000000000000000000000000000000000000000000000815260206004820152602b60248201527f496e697469616c697a61626c653a20636f6e7472616374206973206e6f74206960448201527f6e697469616c697a696e6700000000000000000000000000000000000000000060648201526084016104a6565b60018055565b600054610100900460ff16611f18576040517f08c379a000000000000000000000000000000000000000000000000000000000815260206004820152602b60248201527f496e697469616c697a61626c653a20636f6e7472616374206973206e6f74206960448201527f6e697469616c697a696e6700000000000000000000000000000000000000000060648201526084016104a6565b606580547fffffffffffffffffffffffffffffffffffffffffffffffffffffffffffffff00169055565b6060611f518484600085611f5b565b90505b9392505050565b606082471015611fed576040517f08c379a000000000000000000000000000000000000000000000000000000000815260206004820152602660248201527f416464726573733a20696e73756666696369656e742062616c616e636520666f60448201527f722063616c6c000000000000000000000000000000000000000000000000000060648201526084016104a6565b73ffffffffffffffffffffffffffffffffffffffff85163b61206b576040517f08c379a000000000000000000000000000000000000000000000000000000000815260206004820152601d60248201527f416464726573733a2063616c6c20746f206e6f6e2d636f6e747261637400000060448201526064016104a6565b6000808673ffffffffffffffffffffffffffffffffffffffff1685876040516120949190612393565b60006040518083038185875af1925050503d80600081146120d1576040519150601f19603f3d011682016040523d82523d6000602084013e6120d6565b606091505b50915091506120e68282866120f1565b979650505050505050565b60608315612100575081611f54565b8251156121105782518084602001fd5b816040517f08c379a00000000000000000000000000000000000000000000000000000000081526004016104a691906123af565b73ffffffffffffffffffffffffffffffffffffffff81168114610cd657600080fd5b60006020828403121561217857600080fd5b8135611f5481612144565b60006020828403121561219557600080fd5b5035919050565b8015158114610cd657600080fd5b6000602082840312156121bc57600080fd5b8135611f548161219c565b600080604083850312156121da57600080fd5b82356121e581612144565b946020939093013593505050565b60008060006060848603121561220857600080fd5b833561221381612144565b9250602084013561222381612144565b9150604084013561223381612144565b809150509250925092565b60006020828403121561225057600080fd5b8151611f5481612144565b7f4e487b7100000000000000000000000000000000000000000000000000000000600052601160045260246000fd5b6000817fffffffffffffffffffffffffffffffffffffffffffffffffffffffffffffffff04831182151516156122c2576122c261225b565b500290565b6000826122fd577f4e487b7100000000000000000000000000000000000000000000000000000000600052601260045260246000fd5b500490565b600082198211156123155761231561225b565b500190565b60008282101561232c5761232c61225b565b500390565b60006020828403121561234357600080fd5b5051919050565b60006020828403121561235c57600080fd5b8151611f548161219c565b60005b8381101561238257818101518382015260200161236a565b83811115610fc65750506000910152565b600082516123a5818460208701612367565b9190910192915050565b60208152600082518060208401526123ce816040850160208701612367565b601f017fffffffffffffffffffffffffffffffffffffffffffffffffffffffffffffffe016919091016040019291505056fea26469706673582212208e181745f39f5495727043269fd296457f2d45b6ada6499a5d9c7a1cf2c8c22964736f6c63430008090033",
  "devdoc": {
    "kind": "dev",
    "methods": {
      "paused()": {
        "details": "Returns true if the contract is paused, and false otherwise."
      },
      "totalPendingRewards()": {
        "details": "distribute single bond pool first, then LP pool will get the remaining rewards. see _updatePools"
      },
      "updatePool()": {
        "details": "see: _updatePool"
      }
    },
    "stateVariables": {
      "accRewardPerShare": {
        "details": "accumulated bond token rewards of each lp token."
      },
      "bondRewardsSuspended": {
        "details": "_updatePools() no longer works after bondRewardsSuspended is true."
      }
    },
    "version": 1
  },
  "userdoc": {
    "kind": "user",
    "methods": {
      "bondRewardsSuspended()": {
        "notice": "mark bond reward is suspended. If the LP Token needs to be migrated, such as from pancake to ESP, the bond rewards will be suspended.you can not stake anymore when bond rewards has been suspended."
      },
      "unstake(uint256)": {
        "notice": "unstake by shares"
      }
    },
    "version": 1
  },
  "storageLayout": {
    "storage": [
      {
        "astId": 6,
        "contract": "contracts/BondLPFarmingPool.sol:BondLPFarmingPool",
        "label": "_initialized",
        "offset": 0,
        "slot": "0",
        "type": "t_uint8"
      },
      {
        "astId": 9,
        "contract": "contracts/BondLPFarmingPool.sol:BondLPFarmingPool",
        "label": "_initializing",
        "offset": 1,
        "slot": "0",
        "type": "t_bool"
      },
      {
        "astId": 266,
        "contract": "contracts/BondLPFarmingPool.sol:BondLPFarmingPool",
        "label": "_status",
        "offset": 0,
        "slot": "1",
        "type": "t_uint256"
      },
      {
        "astId": 310,
        "contract": "contracts/BondLPFarmingPool.sol:BondLPFarmingPool",
        "label": "__gap",
        "offset": 0,
        "slot": "2",
        "type": "t_array(t_uint256)49_storage"
      },
      {
        "astId": 897,
        "contract": "contracts/BondLPFarmingPool.sol:BondLPFarmingPool",
        "label": "__gap",
        "offset": 0,
        "slot": "51",
        "type": "t_array(t_uint256)50_storage"
      },
      {
        "astId": 162,
        "contract": "contracts/BondLPFarmingPool.sol:BondLPFarmingPool",
        "label": "_paused",
        "offset": 0,
        "slot": "101",
        "type": "t_bool"
      },
      {
        "astId": 251,
        "contract": "contracts/BondLPFarmingPool.sol:BondLPFarmingPool",
        "label": "__gap",
        "offset": 0,
        "slot": "102",
        "type": "t_array(t_uint256)49_storage"
      },
      {
        "astId": 7206,
        "contract": "contracts/BondLPFarmingPool.sol:BondLPFarmingPool",
        "label": "admin",
        "offset": 0,
        "slot": "151",
        "type": "t_address"
      },
      {
        "astId": 3714,
        "contract": "contracts/BondLPFarmingPool.sol:BondLPFarmingPool",
        "label": "bondToken",
        "offset": 0,
        "slot": "152",
        "type": "t_contract(IERC20Upgradeable)389"
      },
      {
        "astId": 3717,
        "contract": "contracts/BondLPFarmingPool.sol:BondLPFarmingPool",
        "label": "lpToken",
        "offset": 0,
        "slot": "153",
        "type": "t_contract(IERC20Upgradeable)389"
      },
      {
        "astId": 3724,
        "contract": "contracts/BondLPFarmingPool.sol:BondLPFarmingPool",
        "label": "bond",
        "offset": 0,
        "slot": "154",
        "type": "t_contract(IExtendableBond)7174"
      },
      {
        "astId": 3727,
        "contract": "contracts/BondLPFarmingPool.sol:BondLPFarmingPool",
        "label": "siblingPool",
        "offset": 0,
        "slot": "155",
        "type": "t_contract(IBondFarmingPool)7074"
      },
      {
        "astId": 3730,
        "contract": "contracts/BondLPFarmingPool.sol:BondLPFarmingPool",
        "label": "lastUpdatedPoolAt",
        "offset": 0,
        "slot": "156",
        "type": "t_uint256"
      },
      {
        "astId": 3733,
        "contract": "contracts/BondLPFarmingPool.sol:BondLPFarmingPool",
        "label": "masterChef",
        "offset": 0,
        "slot": "157",
        "type": "t_contract(MultiRewardsMasterChef)7034"
      },
      {
        "astId": 3735,
        "contract": "contracts/BondLPFarmingPool.sol:BondLPFarmingPool",
        "label": "masterChefPid",
        "offset": 0,
        "slot": "158",
        "type": "t_uint256"
      },
      {
        "astId": 3738,
        "contract": "contracts/BondLPFarmingPool.sol:BondLPFarmingPool",
        "label": "accRewardPerShare",
        "offset": 0,
        "slot": "159",
        "type": "t_uint256"
      },
      {
        "astId": 3741,
        "contract": "contracts/BondLPFarmingPool.sol:BondLPFarmingPool",
        "label": "ACC_REWARDS_PRECISION",
        "offset": 0,
        "slot": "160",
        "type": "t_uint256"
      },
      {
        "astId": 3743,
        "contract": "contracts/BondLPFarmingPool.sol:BondLPFarmingPool",
        "label": "totalLpAmount",
        "offset": 0,
        "slot": "161",
        "type": "t_uint256"
      },
      {
        "astId": 3747,
        "contract": "contracts/BondLPFarmingPool.sol:BondLPFarmingPool",
        "label": "bondRewardsSuspended",
        "offset": 0,
        "slot": "162",
        "type": "t_bool"
      },
      {
        "astId": 3765,
        "contract": "contracts/BondLPFarmingPool.sol:BondLPFarmingPool",
        "label": "usersInfo",
        "offset": 0,
        "slot": "163",
        "type": "t_mapping(t_address,t_struct(UserInfo)3760_storage)"
      }
    ],
    "types": {
      "t_address": {
        "encoding": "inplace",
        "label": "address",
        "numberOfBytes": "20"
      },
      "t_array(t_uint256)49_storage": {
        "base": "t_uint256",
        "encoding": "inplace",
        "label": "uint256[49]",
        "numberOfBytes": "1568"
      },
      "t_array(t_uint256)50_storage": {
        "base": "t_uint256",
        "encoding": "inplace",
        "label": "uint256[50]",
        "numberOfBytes": "1600"
      },
      "t_bool": {
        "encoding": "inplace",
        "label": "bool",
        "numberOfBytes": "1"
      },
      "t_contract(IBondFarmingPool)7074": {
        "encoding": "inplace",
        "label": "contract IBondFarmingPool",
        "numberOfBytes": "20"
      },
      "t_contract(IERC20Upgradeable)389": {
        "encoding": "inplace",
        "label": "contract IERC20Upgradeable",
        "numberOfBytes": "20"
      },
      "t_contract(IExtendableBond)7174": {
        "encoding": "inplace",
        "label": "contract IExtendableBond",
        "numberOfBytes": "20"
      },
      "t_contract(MultiRewardsMasterChef)7034": {
        "encoding": "inplace",
        "label": "contract MultiRewardsMasterChef",
        "numberOfBytes": "20"
      },
      "t_mapping(t_address,t_struct(UserInfo)3760_storage)": {
        "encoding": "mapping",
        "key": "t_address",
        "label": "mapping(address => struct BondLPFarmingPool.UserInfo)",
        "numberOfBytes": "32",
        "value": "t_struct(UserInfo)3760_storage"
      },
      "t_struct(UserInfo)3760_storage": {
        "encoding": "inplace",
        "label": "struct BondLPFarmingPool.UserInfo",
        "members": [
          {
            "astId": 3750,
            "contract": "contracts/BondLPFarmingPool.sol:BondLPFarmingPool",
            "label": "lpAmount",
            "offset": 0,
            "slot": "0",
            "type": "t_uint256"
          },
          {
            "astId": 3753,
            "contract": "contracts/BondLPFarmingPool.sol:BondLPFarmingPool",
            "label": "rewardDebit",
            "offset": 0,
            "slot": "1",
            "type": "t_uint256"
          },
          {
            "astId": 3756,
            "contract": "contracts/BondLPFarmingPool.sol:BondLPFarmingPool",
            "label": "pendingRewards",
            "offset": 0,
            "slot": "2",
            "type": "t_uint256"
          },
          {
            "astId": 3759,
            "contract": "contracts/BondLPFarmingPool.sol:BondLPFarmingPool",
            "label": "claimedRewards",
            "offset": 0,
            "slot": "3",
            "type": "t_uint256"
          }
        ],
        "numberOfBytes": "128"
      },
      "t_uint256": {
        "encoding": "inplace",
        "label": "uint256",
        "numberOfBytes": "32"
      },
      "t_uint8": {
        "encoding": "inplace",
        "label": "uint8",
        "numberOfBytes": "1"
      }
    }
  }
}