{
  "address": "0x9290a3aAf4828a52b34EEe69E450ECC975f1d0A5",
  "abi": [
    {
      "anonymous": false,
      "inputs": [
        {
          "indexed": true,
          "internalType": "address",
          "name": "user",
          "type": "address"
        },
        {
          "indexed": true,
          "internalType": "address",
          "name": "newAdmin",
          "type": "address"
        }
      ],
      "name": "AdminUpdated",
      "type": "event"
    },
    {
      "anonymous": false,
      "inputs": [
        {
          "indexed": false,
          "internalType": "uint256",
          "name": "amount",
          "type": "uint256"
        },
        {
          "indexed": true,
          "internalType": "address",
          "name": "user",
          "type": "address"
        }
      ],
      "name": "Converted",
      "type": "event"
    },
    {
      "anonymous": false,
      "inputs": [
        {
          "indexed": false,
          "internalType": "uint8",
          "name": "version",
          "type": "uint8"
        }
      ],
      "name": "Initialized",
      "type": "event"
    },
    {
      "anonymous": false,
      "inputs": [
        {
          "indexed": true,
          "internalType": "address",
          "name": "user",
          "type": "address"
        },
        {
          "indexed": true,
          "internalType": "address",
          "name": "newKeeper",
          "type": "address"
        }
      ],
      "name": "KeeperUpdated",
      "type": "event"
    },
    {
      "anonymous": false,
      "inputs": [
        {
          "indexed": true,
          "internalType": "address",
          "name": "to",
          "type": "address"
        },
        {
          "indexed": false,
          "internalType": "uint256",
          "name": "amount",
          "type": "uint256"
        }
      ],
      "name": "MintedBondTokenForRewards",
      "type": "event"
    },
    {
      "anonymous": false,
      "inputs": [
        {
          "indexed": false,
          "internalType": "address",
          "name": "account",
          "type": "address"
        }
      ],
      "name": "Paused",
      "type": "event"
    },
    {
      "anonymous": false,
      "inputs": [
        {
          "indexed": false,
          "internalType": "address",
          "name": "account",
          "type": "address"
        }
      ],
      "name": "Unpaused",
      "type": "event"
    },
    {
      "inputs": [],
      "name": "PERCENTAGE_FACTOR",
      "outputs": [
        {
          "internalType": "uint16",
          "name": "",
          "type": "uint16"
        }
      ],
      "stateMutability": "view",
      "type": "function"
    },
    {
      "inputs": [
        {
          "components": [
            {
              "internalType": "string",
              "name": "desc",
              "type": "string"
            },
            {
              "internalType": "uint16",
              "name": "rate",
              "type": "uint16"
            },
            {
              "internalType": "address",
              "name": "receiver",
              "type": "address"
            }
          ],
          "internalType": "struct ExtendableBond.FeeSpec",
          "name": "feeSpec_",
          "type": "tuple"
        }
      ],
      "name": "addFeeSpec",
      "outputs": [],
      "stateMutability": "nonpayable",
      "type": "function"
    },
    {
      "inputs": [],
      "name": "admin",
      "outputs": [
        {
          "internalType": "address",
          "name": "",
          "type": "address"
        }
      ],
      "stateMutability": "view",
      "type": "function"
    },
    {
      "inputs": [],
      "name": "bondFarmingPool",
      "outputs": [
        {
          "internalType": "contract IBondFarmingPool",
          "name": "",
          "type": "address"
        }
      ],
      "stateMutability": "view",
      "type": "function"
    },
    {
      "inputs": [],
      "name": "bondLPFarmingPool",
      "outputs": [
        {
          "internalType": "contract IBondFarmingPool",
          "name": "",
          "type": "address"
        }
      ],
      "stateMutability": "view",
      "type": "function"
    },
    {
      "inputs": [],
      "name": "bondToken",
      "outputs": [
        {
          "internalType": "contract BondToken",
          "name": "",
          "type": "address"
        }
      ],
      "stateMutability": "view",
      "type": "function"
    },
    {
      "inputs": [],
      "name": "cakePool",
      "outputs": [
        {
          "internalType": "contract ICakePool",
          "name": "",
          "type": "address"
        }
      ],
      "stateMutability": "view",
      "type": "function"
    },
    {
      "inputs": [],
      "name": "checkPoints",
      "outputs": [
        {
          "internalType": "bool",
          "name": "convertable",
          "type": "bool"
        },
        {
          "internalType": "uint256",
          "name": "convertableFrom",
          "type": "uint256"
        },
        {
          "internalType": "uint256",
          "name": "convertableEnd",
          "type": "uint256"
        },
        {
          "internalType": "bool",
          "name": "redeemable",
          "type": "bool"
        },
        {
          "internalType": "uint256",
          "name": "redeemableFrom",
          "type": "uint256"
        },
        {
          "internalType": "uint256",
          "name": "redeemableEnd",
          "type": "uint256"
        },
        {
          "internalType": "uint256",
          "name": "maturity",
          "type": "uint256"
        }
      ],
      "stateMutability": "view",
      "type": "function"
    },
    {
      "inputs": [
        {
          "internalType": "uint256",
          "name": "amount_",
          "type": "uint256"
        }
      ],
      "name": "convert",
      "outputs": [],
      "stateMutability": "nonpayable",
      "type": "function"
    },
    {
      "inputs": [
        {
          "internalType": "uint256",
          "name": "amount_",
          "type": "uint256"
        }
      ],
      "name": "convertAndStake",
      "outputs": [],
      "stateMutability": "nonpayable",
      "type": "function"
    },
    {
      "inputs": [],
      "name": "depositAllToRemote",
      "outputs": [],
      "stateMutability": "nonpayable",
      "type": "function"
    },
    {
      "inputs": [
        {
          "internalType": "uint256",
          "name": "amount_",
          "type": "uint256"
        }
      ],
      "name": "depositToRemote",
      "outputs": [],
      "stateMutability": "nonpayable",
      "type": "function"
    },
    {
      "inputs": [
        {
          "internalType": "address",
          "name": "to_",
          "type": "address"
        }
      ],
      "name": "emergencyTransferUnderlyingTokens",
      "outputs": [],
      "stateMutability": "nonpayable",
      "type": "function"
    },
    {
      "inputs": [],
      "name": "extendPancakeLockDuration",
      "outputs": [],
      "stateMutability": "nonpayable",
      "type": "function"
    },
    {
      "inputs": [
        {
          "internalType": "uint256",
          "name": "",
          "type": "uint256"
        }
      ],
      "name": "feeSpecs",
      "outputs": [
        {
          "internalType": "string",
          "name": "desc",
          "type": "string"
        },
        {
          "internalType": "uint16",
          "name": "rate",
          "type": "uint16"
        },
        {
          "internalType": "address",
          "name": "receiver",
          "type": "address"
        }
      ],
      "stateMutability": "view",
      "type": "function"
    },
    {
      "inputs": [
        {
          "internalType": "contract BondToken",
          "name": "bondToken_",
          "type": "address"
        },
        {
          "internalType": "contract IERC20Upgradeable",
          "name": "underlyingToken_",
          "type": "address"
        },
        {
          "internalType": "address",
          "name": "admin_",
          "type": "address"
        }
      ],
      "name": "initialize",
      "outputs": [],
      "stateMutability": "nonpayable",
      "type": "function"
    },
    {
      "inputs": [],
      "name": "keeper",
      "outputs": [
        {
          "internalType": "address",
          "name": "",
          "type": "address"
        }
      ],
      "stateMutability": "view",
      "type": "function"
    },
    {
      "inputs": [
        {
          "internalType": "address",
          "name": "to_",
          "type": "address"
        },
        {
          "internalType": "uint256",
          "name": "amount_",
          "type": "uint256"
        }
      ],
      "name": "mintBondTokenForRewards",
      "outputs": [],
      "stateMutability": "nonpayable",
      "type": "function"
    },
    {
      "inputs": [],
      "name": "pause",
      "outputs": [],
      "stateMutability": "nonpayable",
      "type": "function"
    },
    {
      "inputs": [],
      "name": "paused",
      "outputs": [
        {
          "internalType": "bool",
          "name": "",
          "type": "bool"
        }
      ],
      "stateMutability": "view",
      "type": "function"
    },
    {
      "inputs": [
        {
          "internalType": "uint256",
          "name": "amount_",
          "type": "uint256"
        }
      ],
      "name": "redeem",
      "outputs": [],
      "stateMutability": "nonpayable",
      "type": "function"
    },
    {
      "inputs": [],
      "name": "redeemAll",
      "outputs": [],
      "stateMutability": "nonpayable",
      "type": "function"
    },
    {
      "inputs": [],
      "name": "remoteUnderlyingAmount",
      "outputs": [
        {
          "internalType": "uint256",
          "name": "",
          "type": "uint256"
        }
      ],
      "stateMutability": "view",
      "type": "function"
    },
    {
      "inputs": [
        {
          "internalType": "uint256",
          "name": "feeSpecIndex",
          "type": "uint256"
        }
      ],
      "name": "removeFeeSpec",
      "outputs": [],
      "stateMutability": "nonpayable",
      "type": "function"
    },
    {
      "inputs": [],
      "name": "secondsToPancakeLockExtend",
      "outputs": [
        {
          "internalType": "uint256",
          "name": "",
          "type": "uint256"
        }
      ],
      "stateMutability": "view",
      "type": "function"
    },
    {
      "inputs": [
        {
          "internalType": "address",
          "name": "newAdmin",
          "type": "address"
        }
      ],
      "name": "setAdmin",
      "outputs": [],
      "stateMutability": "nonpayable",
      "type": "function"
    },
    {
      "inputs": [
        {
          "internalType": "contract ICakePool",
          "name": "cakePool_",
          "type": "address"
        }
      ],
      "name": "setCakePool",
      "outputs": [],
      "stateMutability": "nonpayable",
      "type": "function"
    },
    {
      "inputs": [
        {
          "internalType": "bool",
          "name": "convertable_",
          "type": "bool"
        }
      ],
      "name": "setConvertable",
      "outputs": [],
      "stateMutability": "nonpayable",
      "type": "function"
    },
    {
      "inputs": [
        {
          "internalType": "contract IBondFarmingPool",
          "name": "bondPool_",
          "type": "address"
        },
        {
          "internalType": "contract IBondFarmingPool",
          "name": "lpPool_",
          "type": "address"
        }
      ],
      "name": "setFarmingPools",
      "outputs": [],
      "stateMutability": "nonpayable",
      "type": "function"
    },
    {
      "inputs": [
        {
          "internalType": "uint256",
          "name": "feeId_",
          "type": "uint256"
        },
        {
          "components": [
            {
              "internalType": "string",
              "name": "desc",
              "type": "string"
            },
            {
              "internalType": "uint16",
              "name": "rate",
              "type": "uint16"
            },
            {
              "internalType": "address",
              "name": "receiver",
              "type": "address"
            }
          ],
          "internalType": "struct ExtendableBond.FeeSpec",
          "name": "feeSpec_",
          "type": "tuple"
        }
      ],
      "name": "setFeeSpec",
      "outputs": [],
      "stateMutability": "nonpayable",
      "type": "function"
    },
    {
      "inputs": [
        {
          "internalType": "address",
          "name": "newKeeper",
          "type": "address"
        }
      ],
      "name": "setKeeper",
      "outputs": [],
      "stateMutability": "nonpayable",
      "type": "function"
    },
    {
      "inputs": [
        {
          "internalType": "bool",
          "name": "redeemable_",
          "type": "bool"
        }
      ],
      "name": "setRedeemable",
      "outputs": [],
      "stateMutability": "nonpayable",
      "type": "function"
    },
    {
      "inputs": [],
      "name": "totalBondTokenAmount",
      "outputs": [
        {
          "internalType": "uint256",
          "name": "",
          "type": "uint256"
        }
      ],
      "stateMutability": "view",
      "type": "function"
    },
    {
      "inputs": [],
      "name": "totalPendingRewards",
      "outputs": [
        {
          "internalType": "uint256",
          "name": "",
          "type": "uint256"
        }
      ],
      "stateMutability": "view",
      "type": "function"
    },
    {
      "inputs": [],
      "name": "totalUnderlyingAmount",
      "outputs": [
        {
          "internalType": "uint256",
          "name": "",
          "type": "uint256"
        }
      ],
      "stateMutability": "view",
      "type": "function"
    },
    {
      "inputs": [],
      "name": "underlyingAmount",
      "outputs": [
        {
          "internalType": "uint256",
          "name": "",
          "type": "uint256"
        }
      ],
      "stateMutability": "view",
      "type": "function"
    },
    {
      "inputs": [],
      "name": "underlyingToken",
      "outputs": [
        {
          "internalType": "contract IERC20Upgradeable",
          "name": "",
          "type": "address"
        }
      ],
      "stateMutability": "view",
      "type": "function"
    },
    {
      "inputs": [],
      "name": "unpause",
      "outputs": [],
      "stateMutability": "nonpayable",
      "type": "function"
    },
    {
      "inputs": [
        {
          "components": [
            {
              "internalType": "bool",
              "name": "convertable",
              "type": "bool"
            },
            {
              "internalType": "uint256",
              "name": "convertableFrom",
              "type": "uint256"
            },
            {
              "internalType": "uint256",
              "name": "convertableEnd",
              "type": "uint256"
            },
            {
              "internalType": "bool",
              "name": "redeemable",
              "type": "bool"
            },
            {
              "internalType": "uint256",
              "name": "redeemableFrom",
              "type": "uint256"
            },
            {
              "internalType": "uint256",
              "name": "redeemableEnd",
              "type": "uint256"
            },
            {
              "internalType": "uint256",
              "name": "maturity",
              "type": "uint256"
            }
          ],
          "internalType": "struct ExtendableBond.CheckPoints",
          "name": "checkPoints_",
          "type": "tuple"
        }
      ],
      "name": "updateCheckPoints",
      "outputs": [],
      "stateMutability": "nonpayable",
      "type": "function"
    },
    {
      "inputs": [
        {
          "internalType": "bool",
          "name": "makeRedeemable_",
          "type": "bool"
        }
      ],
      "name": "withdrawAllCakesFromPancake",
      "outputs": [],
      "stateMutability": "nonpayable",
      "type": "function"
    }
  ],
  "transactionHash": "0xef55633c56da63a723bc90b81630546025b3ddd58323e662a93acb6bc4827af5",
  "args": [],
  "numDeployments": 2,
  "solcInputHash": "39e76159c6219ae83d48729e0541164d",
  "bytecode": "0x608060405234801561001057600080fd5b50614d07806100206000396000f3fe608060405234801561001057600080fd5b50600436106102c85760003560e01c8063a18487731161017b578063d629b80c116100d8578063ec1371f21161008c578063ee01e5e711610071578063ee01e5e7146105f9578063f7d97faf14610632578063f851a4401461064557600080fd5b8063ec1371f2146105d1578063ed64a967146105d957600080fd5b8063dbfb206a116100bd578063dbfb206a146105ae578063de21647c146105b6578063e1a1ab21146105c957600080fd5b8063d629b80c14610588578063db006a751461059b57600080fd5b8063b3cb305b1161012f578063c28f439211610114578063c28f439214610542578063cd49b17814610562578063d3d637701461057557600080fd5b8063b3cb305b1461050f578063c0c53b8b1461052f57600080fd5b8063a94b569411610160578063a94b5694146104c9578063aced1661146104dc578063b1acc8a4146104fc57600080fd5b8063a1848773146104a3578063a3908e1b146104b657600080fd5b80634a1dfebf11610229578063741a0e32116101dd5780637614115c116101c25780637614115c146104805780637bd5490e146104885780638456cb591461049b57600080fd5b8063741a0e3214610465578063748747e61461046d57600080fd5b80635c975abb1161020e5780635c975abb1461041c5780635cb7758e14610432578063704b6c021461045257600080fd5b80634a1dfebf146103fe5780634eccc36a1461041457600080fd5b80633dae08cc116102805780633f2d25c1116102655780633f2d25c1146103c15780633f4ba83a146103d457806344877d16146103dc57600080fd5b80633dae08cc1461035a5780633ec3edcf146103b957600080fd5b806338907118116102b157806338907118146103215780633a1739d2146103345780633ab452711461034757600080fd5b80632495a599146102cd5780632f4350c214610317575b600080fd5b609a546102ed9073ffffffffffffffffffffffffffffffffffffffff1681565b60405173ffffffffffffffffffffffffffffffffffffffff90911681526020015b60405180910390f35b61031f610665565b005b61031f61032f366004614441565b61077c565b61031f61034236600461445e565b610850565b61031f610355366004614488565b610b72565b609e54609f5460a05460a15460a25460a35460a4546103829660ff9081169695941692919087565b6040805197151588526020880196909652948601939093529015156060850152608084015260a083015260c082015260e00161030e565b61031f610e42565b61031f6103cf3660046144cf565b610f92565b61031f6112c2565b6103ef6103ea3660046144cf565b6113b7565b60405161030e9392919061455e565b610406611496565b60405190815260200161030e565b61031f6114b7565b60655460ff16604051901515815260200161030e565b609c546102ed9073ffffffffffffffffffffffffffffffffffffffff1681565b61031f6104603660046145c3565b6115fd565b610406611687565b61031f61047b3660046145c3565b6118b0565b61040661193a565b61031f6104963660046144cf565b6119dc565b61031f611ab7565b61031f6104b13660046145c3565b611bad565b61031f6104c43660046144cf565b611c75565b61031f6104d73660046145e0565b611d56565b6098546102ed9073ffffffffffffffffffffffffffffffffffffffff1681565b61031f61050a3660046144cf565b612124565b609b546102ed9073ffffffffffffffffffffffffffffffffffffffff1681565b61031f61053d36600461460c565b6121d0565b6099546102ed9073ffffffffffffffffffffffffffffffffffffffff1681565b61031f6105703660046145c3565b61231e565b61031f610583366004614441565b6123ff565b61031f610596366004614657565b612582565b61031f6105a93660046144cf565b6128d4565b610406612d3c565b61031f6105c436600461468c565b612da7565b610406612f32565b6104066130cb565b60a5546102ed9073ffffffffffffffffffffffffffffffffffffffff1681565b609a5461061f9074010000000000000000000000000000000000000000900461ffff1681565b60405161ffff909116815260200161030e565b61031f610640366004614441565b6130fe565b6097546102ed9073ffffffffffffffffffffffffffffffffffffffff1681565b60655460ff16156106d7576040517f08c379a000000000000000000000000000000000000000000000000000000000815260206004820152601060248201527f5061757361626c653a207061757365640000000000000000000000000000000060448201526064015b60405180910390fd5b6099546040517f70a0823100000000000000000000000000000000000000000000000000000000815233600482015261077a9173ffffffffffffffffffffffffffffffffffffffff16906370a082319060240160206040518083038186803b15801561074257600080fd5b505afa158015610756573d6000803e3d6000fd5b505050506040513d601f19601f820116820180604052508101906105a991906146c5565b565b60975473ffffffffffffffffffffffffffffffffffffffff163314806107b9575060985473ffffffffffffffffffffffffffffffffffffffff1633145b61081f576040517f08c379a000000000000000000000000000000000000000000000000000000000815260206004820152600c60248201527f554e415554484f52495a4544000000000000000000000000000000000000000060448201526064016106ce565b60a180547fffffffffffffffffffffffffffffffffffffffffffffffffffffffffffffff0016911515919091179055565b60975473ffffffffffffffffffffffffffffffffffffffff1633148061088d575060985473ffffffffffffffffffffffffffffffffffffffff1633145b6108f3576040517f08c379a000000000000000000000000000000000000000000000000000000000815260206004820152600c60248201527f554e415554484f52495a4544000000000000000000000000000000000000000060448201526064016106ce565b6000816020013511610987576040517f08c379a000000000000000000000000000000000000000000000000000000000815260206004820152602660248201527f636f6e7665727461626c6546726f6d206d75737420626520677265617465722060448201527f7468616e2030000000000000000000000000000000000000000000000000000060648201526084016106ce565b8060400135816020013510610a1e576040517f08c379a000000000000000000000000000000000000000000000000000000000815260206004820152603260248201527f72656465656d61626c6546726f6d206d757374206265206561726c696572207460448201527f68616e20636f6e7665727461626c65456e64000000000000000000000000000060648201526084016106ce565b80604001358160800135118015610a3d57508060c00135816080013510155b610ac9576040517f08c379a000000000000000000000000000000000000000000000000000000000815260206004820152603d60248201527f72656465656d61626c6546726f6d206d757374206265206c617465722074686160448201527f6e20636f6e7665727461626c65456e6420616e64206d6174757269747900000060648201526084016106ce565b80608001358160a0013511610b60576040517f08c379a000000000000000000000000000000000000000000000000000000000815260206004820152602f60248201527f72656465656d61626c65456e64206d757374206265206c61746572207468616e60448201527f2072656465656d61626c6546726f6d000000000000000000000000000000000060648201526084016106ce565b80609e610b6d82826146de565b505050565b60975473ffffffffffffffffffffffffffffffffffffffff163314610bf3576040517f08c379a000000000000000000000000000000000000000000000000000000000815260206004820152600c60248201527f554e415554484f52495a4544000000000000000000000000000000000000000060448201526064016106ce565b6000610c05604083016020840161479d565b61ffff1611610c70576040517f08c379a000000000000000000000000000000000000000000000000000000000815260206004820152601360248201527f466565207261746520697320746f6f206c6f770000000000000000000000000060448201526064016106ce565b609a5474010000000000000000000000000000000000000000900461ffff16610c9f604083016020840161479d565b61ffff161115610d0b576040517f08c379a000000000000000000000000000000000000000000000000000000000815260206004820152601460248201527f466565207261746520697320746f6f206869676800000000000000000000000060448201526064016106ce565b80609d8381548110610d1f57610d1f6147ba565b90600052602060002090600202018181610d39919061489d565b9050506000805b609d54811015610d9357609d8181548110610d5d57610d5d6147ba565b6000918252602090912060016002909202010154610d7f9061ffff1683614ac9565b915080610d8b81614ae1565b915050610d40565b50609a5474010000000000000000000000000000000000000000900461ffff16811115610b6d576040517f08c379a000000000000000000000000000000000000000000000000000000000815260206004820152602160248201527f546f74616c2066656520726174652067726561746572207468616e203130302560448201527f2e0000000000000000000000000000000000000000000000000000000000000060648201526084016106ce565b60975473ffffffffffffffffffffffffffffffffffffffff16331480610e7f575060985473ffffffffffffffffffffffffffffffffffffffff1633145b610ee5576040517f08c379a000000000000000000000000000000000000000000000000000000000815260206004820152600c60248201527f554e415554484f52495a4544000000000000000000000000000000000000000060448201526064016106ce565b6000610eef612f32565b90508015610f8f5760a55473ffffffffffffffffffffffffffffffffffffffff1663e2bbb1586000610f1f612f32565b6040517fffffffff0000000000000000000000000000000000000000000000000000000060e085901b168152600481019290925260248201526044015b600060405180830381600087803b158015610f7657600080fd5b505af1158015610f8a573d6000803e3d6000fd5b505050505b50565b60655460ff1615610fff576040517f08c379a000000000000000000000000000000000000000000000000000000000815260206004820152601060248201527f5061757361626c653a207061757365640000000000000000000000000000000060448201526064016106ce565b60008111611069576040517f08c379a000000000000000000000000000000000000000000000000000000000815260206004820152601260248201527f4e6f7468696e6720746f20636f6e76657274000000000000000000000000000060448201526064016106ce565b6110716131d2565b611079613267565b609a5433906110a09073ffffffffffffffffffffffffffffffffffffffff16823085613367565b6110a982613443565b6099546040517f40c10f190000000000000000000000000000000000000000000000000000000081523060048201526024810184905273ffffffffffffffffffffffffffffffffffffffff909116906340c10f1990604401600060405180830381600087803b15801561111b57600080fd5b505af115801561112f573d6000803e3d6000fd5b5050609954609b546040517f095ea7b300000000000000000000000000000000000000000000000000000000815273ffffffffffffffffffffffffffffffffffffffff9182166004820152602481018790529116925063095ea7b39150604401602060405180830381600087803b1580156111a957600080fd5b505af11580156111bd573d6000803e3d6000fd5b505050506040513d601f19601f820116820180604052508101906111e19190614b25565b50609b546040517ffd79c6a200000000000000000000000000000000000000000000000000000000815273ffffffffffffffffffffffffffffffffffffffff8381166004830152602482018590529091169063fd79c6a290604401600060405180830381600087803b15801561125657600080fd5b505af115801561126a573d6000803e3d6000fd5b505050508073ffffffffffffffffffffffffffffffffffffffff167fe506c5b38303257173417712c8d702c3ca26f81804dab9d4232beab595a49678836040516112b691815260200190565b60405180910390a25050565b60975473ffffffffffffffffffffffffffffffffffffffff163314611343576040517f08c379a000000000000000000000000000000000000000000000000000000000815260206004820152600c60248201527f554e415554484f52495a4544000000000000000000000000000000000000000060448201526064016106ce565b60655460ff166113af576040517f08c379a000000000000000000000000000000000000000000000000000000000815260206004820152601460248201527f5061757361626c653a206e6f742070617573656400000000000000000000000060448201526064016106ce565b61077a6136a5565b609d81815481106113c757600080fd5b90600052602060002090600202016000915090508060000180546113ea906147e9565b80601f0160208091040260200160405190810160405280929190818152602001828054611416906147e9565b80156114635780601f1061143857610100808354040283529160200191611463565b820191906000526020600020905b81548152906001019060200180831161144657829003601f168201915b5050506001909301549192505061ffff81169073ffffffffffffffffffffffffffffffffffffffff620100009091041683565b60006114a0611687565b6114a861193a565b6114b29190614ac9565b905090565b60975473ffffffffffffffffffffffffffffffffffffffff163314806114f4575060985473ffffffffffffffffffffffffffffffffffffffff1633145b61155a576040517f08c379a000000000000000000000000000000000000000000000000000000000815260206004820152600c60248201527f554e415554484f52495a4544000000000000000000000000000000000000000060448201526064016106ce565b609a546040517f70a0823100000000000000000000000000000000000000000000000000000000815230600482015261077a9173ffffffffffffffffffffffffffffffffffffffff16906370a082319060240160206040518083038186803b1580156115c557600080fd5b505afa1580156115d9573d6000803e3d6000fd5b505050506040513d601f19601f8201168201806040525081019061050a91906146c5565b60975473ffffffffffffffffffffffffffffffffffffffff16331461167e576040517f08c379a000000000000000000000000000000000000000000000000000000000815260206004820152600c60248201527f554e415554484f52495a4544000000000000000000000000000000000000000060448201526064016106ce565b610f8f81613786565b60a5546040517f1959a002000000000000000000000000000000000000000000000000000000008152306004820152600091829173ffffffffffffffffffffffffffffffffffffffff90911690631959a002906024016101206040518083038186803b1580156116f657600080fd5b505afa15801561170a573d6000803e3d6000fd5b505050506040513d601f19601f8201168201806040525081019061172e9190614b93565b9050600060a560009054906101000a900473ffffffffffffffffffffffffffffffffffffffff1673ffffffffffffffffffffffffffffffffffffffff166377c7b8fc6040518163ffffffff1660e01b815260040160206040518083038186803b15801561179a57600080fd5b505afa1580156117ae573d6000803e3d6000fd5b505050506040513d601f19601f820116820180604052508101906117d291906146c5565b60a55483516040517f29a5cfd6000000000000000000000000000000000000000000000000000000008152306004820152602481019190915291925073ffffffffffffffffffffffffffffffffffffffff16906329a5cfd69060440160206040518083038186803b15801561184657600080fd5b505afa15801561185a573d6000803e3d6000fd5b505050506040513d601f19601f8201168201806040525081019061187e91906146c5565b8251670de0b6b3a764000090611895908490614c13565b61189f9190614c50565b6118a99190614c8b565b9250505090565b60975473ffffffffffffffffffffffffffffffffffffffff163314611931576040517f08c379a000000000000000000000000000000000000000000000000000000000815260206004820152600c60248201527f554e415554484f52495a4544000000000000000000000000000000000000000060448201526064016106ce565b610f8f8161389a565b609a546040517f70a0823100000000000000000000000000000000000000000000000000000000815230600482015260009173ffffffffffffffffffffffffffffffffffffffff16906370a082319060240160206040518083038186803b1580156119a457600080fd5b505afa1580156119b8573d6000803e3d6000fd5b505050506040513d601f19601f820116820180604052508101906114b291906146c5565b60975473ffffffffffffffffffffffffffffffffffffffff163314611a5d576040517f08c379a000000000000000000000000000000000000000000000000000000000815260206004820152600c60248201527f554e415554484f52495a4544000000000000000000000000000000000000000060448201526064016106ce565b609d8181548110611a7057611a706147ba565b60009182526020822060029091020190611a8a82826143e5565b5060010180547fffffffffffffffffffff0000000000000000000000000000000000000000000016905550565b60975473ffffffffffffffffffffffffffffffffffffffff163314611b38576040517f08c379a000000000000000000000000000000000000000000000000000000000815260206004820152600c60248201527f554e415554484f52495a4544000000000000000000000000000000000000000060448201526064016106ce565b60655460ff1615611ba5576040517f08c379a000000000000000000000000000000000000000000000000000000000815260206004820152601060248201527f5061757361626c653a207061757365640000000000000000000000000000000060448201526064016106ce565b61077a61390b565b60975473ffffffffffffffffffffffffffffffffffffffff163314611c2e576040517f08c379a000000000000000000000000000000000000000000000000000000000815260206004820152600c60248201527f554e415554484f52495a4544000000000000000000000000000000000000000060448201526064016106ce565b60a580547fffffffffffffffffffffffff00000000000000000000000000000000000000001673ffffffffffffffffffffffffffffffffffffffff92909216919091179055565b60655460ff1615611ce2576040517f08c379a000000000000000000000000000000000000000000000000000000000815260206004820152601060248201527f5061757361626c653a207061757365640000000000000000000000000000000060448201526064016106ce565b60008111611d4c576040517f08c379a000000000000000000000000000000000000000000000000000000000815260206004820152601260248201527f4e6f7468696e6720746f20636f6e76657274000000000000000000000000000060448201526064016106ce565b610f8f81336139cb565b60026001541415611dc3576040517f08c379a000000000000000000000000000000000000000000000000000000000815260206004820152601f60248201527f5265656e7472616e637947756172643a207265656e7472616e742063616c6c0060448201526064016106ce565b6002600155609b5473ffffffffffffffffffffffffffffffffffffffff16331480611e055750609c5473ffffffffffffffffffffffffffffffffffffffff1633145b611e6b576040517f08c379a000000000000000000000000000000000000000000000000000000000815260206004820152601660248201527f6f6e6c792066726f6d206661726d696e6720706f6f6c0000000000000000000060448201526064016106ce565b611e73611496565b81611e7c612d3c565b611e869190614ac9565b1115611eee576040517f08c379a000000000000000000000000000000000000000000000000000000000815260206004820152601260248201527f43616e206e6f74206f766572206973737565000000000000000000000000000060448201526064016106ce565b60008111611efb5761211c565b8060005b609d54811015612036576000609d8281548110611f1e57611f1e6147ba565b600091825260208220609a546002929092020160018101549093507401000000000000000000000000000000000000000090910461ffff90811691611f64911686614c13565b611f6e9190614c50565b905060008111611f7f575050612024565b611f898185614c8b565b60995460018401546040517f40c10f1900000000000000000000000000000000000000000000000000000000815273ffffffffffffffffffffffffffffffffffffffff62010000909204821660048201526024810185905292965016906340c10f1990604401600060405180830381600087803b15801561200957600080fd5b505af115801561201d573d6000803e3d6000fd5b5050505050505b8061202e81614ae1565b915050611eff565b5080156120ca576099546040517f40c10f1900000000000000000000000000000000000000000000000000000000815273ffffffffffffffffffffffffffffffffffffffff858116600483015260248201849052909116906340c10f1990604401600060405180830381600087803b1580156120b157600080fd5b505af11580156120c5573d6000803e3d6000fd5b505050505b8273ffffffffffffffffffffffffffffffffffffffff167fe983a9107ef1ede2128027c84916ca9d350512f44c4502e560a1fda90a77a4628360405161211291815260200190565b60405180910390a2505b505060018055565b60975473ffffffffffffffffffffffffffffffffffffffff16331480612161575060985473ffffffffffffffffffffffffffffffffffffffff1633145b6121c7576040517f08c379a000000000000000000000000000000000000000000000000000000000815260206004820152600c60248201527f554e415554484f52495a4544000000000000000000000000000000000000000060448201526064016106ce565b610f8f81613443565b60006121dc6001613bed565b9050801561221157600080547fffffffffffffffffffffffffffffffffffffffffffffffffffffffffffff00ff166101001790555b612219613d78565b612221613e17565b61222a82613786565b609a8054609980547fffffffffffffffffffffffff00000000000000000000000000000000000000001673ffffffffffffffffffffffffffffffffffffffff8881169190911790915575271000000000000000000000000000000000000000007fffffffffffffffffffff0000000000000000000000000000000000000000000090921690861617179055801561231857600080547fffffffffffffffffffffffffffffffffffffffffffffffffffffffffffff00ff169055604051600181527f7f26b83ff96e1f2b6a682f133852f6798a09c465da95921460cefb38474024989060200160405180910390a15b50505050565b60975473ffffffffffffffffffffffffffffffffffffffff16331461239f576040517f08c379a000000000000000000000000000000000000000000000000000000000815260206004820152600c60248201527f554e415554484f52495a4544000000000000000000000000000000000000000060448201526064016106ce565b609e80547fffffffffffffffffffffffffffffffffffffffffffffffffffffffffffffff0090811690915560a180549091169055610f8f816123df61193a565b609a5473ffffffffffffffffffffffffffffffffffffffff169190613eb6565b60975473ffffffffffffffffffffffffffffffffffffffff1633148061243c575060985473ffffffffffffffffffffffffffffffffffffffff1633145b6124a2576040517f08c379a000000000000000000000000000000000000000000000000000000000815260206004820152600c60248201527f554e415554484f52495a4544000000000000000000000000000000000000000060448201526064016106ce565b609e80547fffffffffffffffffffffffffffffffffffffffffffffffffffffffffffffff0016905560a554604080517f853828b6000000000000000000000000000000000000000000000000000000008152905173ffffffffffffffffffffffffffffffffffffffff9092169163853828b69160048082019260009290919082900301818387803b15801561253657600080fd5b505af115801561254a573d6000803e3d6000fd5b505050508015610f8f5760a180547fffffffffffffffffffffffffffffffffffffffffffffffffffffffffffffff0016600117905550565b60975473ffffffffffffffffffffffffffffffffffffffff163314612603576040517f08c379a000000000000000000000000000000000000000000000000000000000815260206004820152600c60248201527f554e415554484f52495a4544000000000000000000000000000000000000000060448201526064016106ce565b609d5460051161266f576040517f08c379a000000000000000000000000000000000000000000000000000000000815260206004820152601260248201527f546f6f206d616e7920666565207370656373000000000000000000000000000060448201526064016106ce565b6000612681604083016020840161479d565b61ffff16116126ec576040517f08c379a000000000000000000000000000000000000000000000000000000000815260206004820152601360248201527f466565207261746520697320746f6f206c6f770000000000000000000000000060448201526064016106ce565b609a5474010000000000000000000000000000000000000000900461ffff1661271b604083016020840161479d565b61ffff161115612787576040517f08c379a000000000000000000000000000000000000000000000000000000000815260206004820152601460248201527f466565207261746520697320746f6f206869676800000000000000000000000060448201526064016106ce565b609d805460018101825560009190915281906002027fd26e832454299e9fabb89e0e5fffdc046d4e14431bc1bf607ffb2e8a1ddecf7b016127c8828261489d565b50506000805b609d5481101561282157609d81815481106127eb576127eb6147ba565b600091825260209091206001600290920201015461280d9061ffff1683614ac9565b91508061281981614ae1565b9150506127ce565b50609a5474010000000000000000000000000000000000000000900461ffff168111156128d0576040517f08c379a000000000000000000000000000000000000000000000000000000000815260206004820152602160248201527f546f74616c2066656520726174652067726561746572207468616e203130302560448201527f2e0000000000000000000000000000000000000000000000000000000000000060648201526084016106ce565b5050565b60655460ff1615612941576040517f08c379a000000000000000000000000000000000000000000000000000000000815260206004820152601060248201527f5061757361626c653a207061757365640000000000000000000000000000000060448201526064016106ce565b600260015414156129ae576040517f08c379a000000000000000000000000000000000000000000000000000000000815260206004820152601f60248201527f5265656e7472616e637947756172643a207265656e7472616e742063616c6c0060448201526064016106ce565b600260015580612a1a576040517f08c379a000000000000000000000000000000000000000000000000000000000815260206004820152601160248201527f4e6f7468696e6720746f2072656465656d00000000000000000000000000000060448201526064016106ce565b60a15460ff168015612a2e575060a2544210155b8015612a3c575060a3544211155b8015612a49575060a05442115b612aaf576040517f08c379a000000000000000000000000000000000000000000000000000000000815260206004820152600f60248201527f43616e206e6f742072656465656d2e000000000000000000000000000000000060448201526064016106ce565b6099546040517f70a0823100000000000000000000000000000000000000000000000000000000815233600482018190529160009173ffffffffffffffffffffffffffffffffffffffff909116906370a082319060240160206040518083038186803b158015612b1e57600080fd5b505afa158015612b32573d6000803e3d6000fd5b505050506040513d601f19601f82011682018060405250810190612b5691906146c5565b905080831115612bc2576040517f08c379a000000000000000000000000000000000000000000000000000000000815260206004820152601460248201527f496e73756666696369656e742062616c616e636500000000000000000000000060448201526064016106ce565b6099546040517f79cc679000000000000000000000000000000000000000000000000000000000815273ffffffffffffffffffffffffffffffffffffffff848116600483015260248201869052909116906379cc679090604401600060405180830381600087803b158015612c3657600080fd5b505af1158015612c4a573d6000803e3d6000fd5b5050609a546040517f70a082310000000000000000000000000000000000000000000000000000000081523060048201526000935073ffffffffffffffffffffffffffffffffffffffff90911691506370a082319060240160206040518083038186803b158015612cba57600080fd5b505afa158015612cce573d6000803e3d6000fd5b505050506040513d601f19601f82011682018060405250810190612cf291906146c5565b905083811015612d0e57612d0e612d098286614c8b565b613f0c565b609a54612d329073ffffffffffffffffffffffffffffffffffffffff168486613eb6565b5050600180555050565b609954604080517f18160ddd000000000000000000000000000000000000000000000000000000008152905160009273ffffffffffffffffffffffffffffffffffffffff16916318160ddd916004808301926020929190829003018186803b1580156119a457600080fd5b60975473ffffffffffffffffffffffffffffffffffffffff163314612e28576040517f08c379a000000000000000000000000000000000000000000000000000000000815260206004820152600c60248201527f554e415554484f52495a4544000000000000000000000000000000000000000060448201526064016106ce565b73ffffffffffffffffffffffffffffffffffffffff821615801590612e7957508073ffffffffffffffffffffffffffffffffffffffff168273ffffffffffffffffffffffffffffffffffffffff1614155b612edf576040517f08c379a000000000000000000000000000000000000000000000000000000000815260206004820152601560248201527f696e76616c6964206661726d696e6720706f6f6c73000000000000000000000060448201526064016106ce565b609b805473ffffffffffffffffffffffffffffffffffffffff9384167fffffffffffffffffffffffff000000000000000000000000000000000000000091821617909155609c8054929093169116179055565b60a5546040517f1959a00200000000000000000000000000000000000000000000000000000000815230600482015260009182914291839173ffffffffffffffffffffffffffffffffffffffff90911690631959a002906024016101206040518083038186803b158015612fa557600080fd5b505afa158015612fb9573d6000803e3d6000fd5b505050506040513d601f19601f82011682018060405250810190612fdd9190614b93565b9050818160a00151111580612ff457508060e00151155b80613004575060a45460a0820151105b156130c35760a4546130c09061301b908490614c8b565b60a560009054906101000a900473ffffffffffffffffffffffffffffffffffffffff1673ffffffffffffffffffffffffffffffffffffffff16634f1bfc9e6040518163ffffffff1660e01b815260040160206040518083038186803b15801561308357600080fd5b505afa158015613097573d6000803e3d6000fd5b505050506040513d601f19601f820116820180604052508101906130bb91906146c5565b613f63565b92505b509092915050565b6000806130d6611496565b905060006130e2612d3c565b90508181106130f45760009250505090565b6118a98183614c8b565b60975473ffffffffffffffffffffffffffffffffffffffff1633148061313b575060985473ffffffffffffffffffffffffffffffffffffffff1633145b6131a1576040517f08c379a000000000000000000000000000000000000000000000000000000000815260206004820152600c60248201527f554e415554484f52495a4544000000000000000000000000000000000000000060448201526064016106ce565b609e80547fffffffffffffffffffffffffffffffffffffffffffffffffffffffffffffff0016911515919091179055565b609e5460ff1680156131e65750609f544210155b80156131f4575060a0544211155b8015613201575060a25442105b61077a576040517f08c379a000000000000000000000000000000000000000000000000000000000815260206004820152601060248201527f43616e206e6f7420636f6e766572742e0000000000000000000000000000000060448201526064016106ce565b609b60009054906101000a900473ffffffffffffffffffffffffffffffffffffffff1673ffffffffffffffffffffffffffffffffffffffff1663e3161ddd6040518163ffffffff1660e01b8152600401600060405180830381600087803b1580156132d157600080fd5b505af11580156132e5573d6000803e3d6000fd5b50505050609c60009054906101000a900473ffffffffffffffffffffffffffffffffffffffff1673ffffffffffffffffffffffffffffffffffffffff1663e3161ddd6040518163ffffffff1660e01b8152600401600060405180830381600087803b15801561335357600080fd5b505af1158015612318573d6000803e3d6000fd5b60405173ffffffffffffffffffffffffffffffffffffffff808516602483015283166044820152606481018290526123189085907f23b872dd00000000000000000000000000000000000000000000000000000000906084015b604080517fffffffffffffffffffffffffffffffffffffffffffffffffffffffffffffffe08184030181529190526020810180517bffffffffffffffffffffffffffffffffffffffffffffffffffffffff167fffffffff0000000000000000000000000000000000000000000000000000000090931692909217909152613f7b565b609a546040517f70a0823100000000000000000000000000000000000000000000000000000000815230600482015260009173ffffffffffffffffffffffffffffffffffffffff16906370a082319060240160206040518083038186803b1580156134ad57600080fd5b505afa1580156134c1573d6000803e3d6000fd5b505050506040513d601f19601f820116820180604052508101906134e591906146c5565b90506000811180156134f75750818110155b61355d576040517f08c379a000000000000000000000000000000000000000000000000000000000815260206004820152601260248201527f6e6f7468696e6720746f206465706f736974000000000000000000000000000060448201526064016106ce565b609a5460a5546040517f095ea7b300000000000000000000000000000000000000000000000000000000815273ffffffffffffffffffffffffffffffffffffffff91821660048201526024810185905291169063095ea7b390604401602060405180830381600087803b1580156135d357600080fd5b505af11580156135e7573d6000803e3d6000fd5b505050506040513d601f19601f8201168201806040525081019061360b9190614b25565b5060a55473ffffffffffffffffffffffffffffffffffffffff1663e2bbb15883613633612f32565b6040517fffffffff0000000000000000000000000000000000000000000000000000000060e085901b16815260048101929092526024820152604401600060405180830381600087803b15801561368957600080fd5b505af115801561369d573d6000803e3d6000fd5b505050505050565b60655460ff16613711576040517f08c379a000000000000000000000000000000000000000000000000000000000815260206004820152601460248201527f5061757361626c653a206e6f742070617573656400000000000000000000000060448201526064016106ce565b606580547fffffffffffffffffffffffffffffffffffffffffffffffffffffffffffffff001690557f5db9ee0a495bf2e6ff9c91a7834c1ba4fdd244a5e8aa4e537bd38aeae4b073aa335b60405173ffffffffffffffffffffffffffffffffffffffff909116815260200160405180910390a1565b73ffffffffffffffffffffffffffffffffffffffff8116613829576040517f08c379a000000000000000000000000000000000000000000000000000000000815260206004820152602160248201527f43616e206e6f74207365742061646d696e20746f207a65726f2061646472657360448201527f730000000000000000000000000000000000000000000000000000000000000060648201526084016106ce565b609780547fffffffffffffffffffffffff00000000000000000000000000000000000000001673ffffffffffffffffffffffffffffffffffffffff831690811790915560405133907f101b8081ff3b56bbf45deb824d86a3b0fd38b7e3dd42421105cf8abe9106db0b90600090a350565b609880547fffffffffffffffffffffffff00000000000000000000000000000000000000001673ffffffffffffffffffffffffffffffffffffffff831690811790915560405133907f53d3703fe259def57584466f32d1b94c30278008c683c21b04501c4966f13a6990600090a350565b60655460ff1615613978576040517f08c379a000000000000000000000000000000000000000000000000000000000815260206004820152601060248201527f5061757361626c653a207061757365640000000000000000000000000000000060448201526064016106ce565b606580547fffffffffffffffffffffffffffffffffffffffffffffffffffffffffffffff001660011790557f62e78cea01bee320cd4e420270b5ea74000d11b0c9f74754ebdbfc544b05a25861375c3390565b60026001541415613a38576040517f08c379a000000000000000000000000000000000000000000000000000000000815260206004820152601f60248201527f5265656e7472616e637947756172643a207265656e7472616e742063616c6c0060448201526064016106ce565b6002600155613a456131d2565b613a4d613267565b609a546040517f23b872dd00000000000000000000000000000000000000000000000000000000815273ffffffffffffffffffffffffffffffffffffffff838116600483015230602483015260448201859052909116906323b872dd90606401602060405180830381600087803b158015613ac757600080fd5b505af1158015613adb573d6000803e3d6000fd5b505050506040513d601f19601f82011682018060405250810190613aff9190614b25565b50613b0982613443565b6099546040517f40c10f1900000000000000000000000000000000000000000000000000000000815273ffffffffffffffffffffffffffffffffffffffff838116600483015260248201859052909116906340c10f1990604401600060405180830381600087803b158015613b7d57600080fd5b505af1158015613b91573d6000803e3d6000fd5b505050508073ffffffffffffffffffffffffffffffffffffffff167fe506c5b38303257173417712c8d702c3ca26f81804dab9d4232beab595a4967883604051613bdd91815260200190565b60405180910390a2505060018055565b60008054610100900460ff1615613ca4578160ff166001148015613c105750303b155b613c9c576040517f08c379a000000000000000000000000000000000000000000000000000000000815260206004820152602e60248201527f496e697469616c697a61626c653a20636f6e747261637420697320616c72656160448201527f647920696e697469616c697a656400000000000000000000000000000000000060648201526084016106ce565b506000919050565b60005460ff808416911610613d3b576040517f08c379a000000000000000000000000000000000000000000000000000000000815260206004820152602e60248201527f496e697469616c697a61626c653a20636f6e747261637420697320616c72656160448201527f647920696e697469616c697a656400000000000000000000000000000000000060648201526084016106ce565b50600080547fffffffffffffffffffffffffffffffffffffffffffffffffffffffffffffff001660ff92909216919091179055600190565b919050565b600054610100900460ff16613e0f576040517f08c379a000000000000000000000000000000000000000000000000000000000815260206004820152602b60248201527f496e697469616c697a61626c653a20636f6e7472616374206973206e6f74206960448201527f6e697469616c697a696e6700000000000000000000000000000000000000000060648201526084016106ce565b61077a614087565b600054610100900460ff16613eae576040517f08c379a000000000000000000000000000000000000000000000000000000000815260206004820152602b60248201527f496e697469616c697a61626c653a20636f6e7472616374206973206e6f74206960448201527f6e697469616c697a696e6700000000000000000000000000000000000000000060648201526084016106ce565b61077a614148565b60405173ffffffffffffffffffffffffffffffffffffffff8316602482015260448101829052610b6d9084907fa9059cbb00000000000000000000000000000000000000000000000000000000906064016133c1565b60a5546040517f5521e9bf0000000000000000000000000000000000000000000000000000000081526004810183905273ffffffffffffffffffffffffffffffffffffffff90911690635521e9bf90602401610f5c565b6000818310613f725781613f74565b825b9392505050565b6000613fdd826040518060400160405280602081526020017f5361666545524332303a206c6f772d6c6576656c2063616c6c206661696c65648152508573ffffffffffffffffffffffffffffffffffffffff166141e59092919063ffffffff16565b805190915015610b6d5780806020019051810190613ffb9190614b25565b610b6d576040517f08c379a000000000000000000000000000000000000000000000000000000000815260206004820152602a60248201527f5361666545524332303a204552433230206f7065726174696f6e20646964206e60448201527f6f7420737563636565640000000000000000000000000000000000000000000060648201526084016106ce565b600054610100900460ff1661411e576040517f08c379a000000000000000000000000000000000000000000000000000000000815260206004820152602b60248201527f496e697469616c697a61626c653a20636f6e7472616374206973206e6f74206960448201527f6e697469616c697a696e6700000000000000000000000000000000000000000060648201526084016106ce565b606580547fffffffffffffffffffffffffffffffffffffffffffffffffffffffffffffff00169055565b600054610100900460ff166141df576040517f08c379a000000000000000000000000000000000000000000000000000000000815260206004820152602b60248201527f496e697469616c697a61626c653a20636f6e7472616374206973206e6f74206960448201527f6e697469616c697a696e6700000000000000000000000000000000000000000060648201526084016106ce565b60018055565b60606141f484846000856141fc565b949350505050565b60608247101561428e576040517f08c379a000000000000000000000000000000000000000000000000000000000815260206004820152602660248201527f416464726573733a20696e73756666696369656e742062616c616e636520666f60448201527f722063616c6c000000000000000000000000000000000000000000000000000060648201526084016106ce565b73ffffffffffffffffffffffffffffffffffffffff85163b61430c576040517f08c379a000000000000000000000000000000000000000000000000000000000815260206004820152601d60248201527f416464726573733a2063616c6c20746f206e6f6e2d636f6e747261637400000060448201526064016106ce565b6000808673ffffffffffffffffffffffffffffffffffffffff1685876040516143359190614ca2565b60006040518083038185875af1925050503d8060008114614372576040519150601f19603f3d011682016040523d82523d6000602084013e614377565b606091505b5091509150614387828286614392565b979650505050505050565b606083156143a1575081613f74565b8251156143b15782518084602001fd5b816040517f08c379a00000000000000000000000000000000000000000000000000000000081526004016106ce9190614cbe565b5080546143f1906147e9565b6000825580601f10614401575050565b601f016020900490600052602060002090810190610f8f91905b8082111561442f576000815560010161441b565b5090565b8015158114610f8f57600080fd5b60006020828403121561445357600080fd5b8135613f7481614433565b600060e0828403121561447057600080fd5b50919050565b60006060828403121561447057600080fd5b6000806040838503121561449b57600080fd5b82359150602083013567ffffffffffffffff8111156144b957600080fd5b6144c585828601614476565b9150509250929050565b6000602082840312156144e157600080fd5b5035919050565b60005b838110156145035781810151838201526020016144eb565b838111156123185750506000910152565b6000815180845261452c8160208601602086016144e8565b601f017fffffffffffffffffffffffffffffffffffffffffffffffffffffffffffffffe0169290920160200192915050565b6060815260006145716060830186614514565b905061ffff8416602083015273ffffffffffffffffffffffffffffffffffffffff83166040830152949350505050565b73ffffffffffffffffffffffffffffffffffffffff81168114610f8f57600080fd5b6000602082840312156145d557600080fd5b8135613f74816145a1565b600080604083850312156145f357600080fd5b82356145fe816145a1565b946020939093013593505050565b60008060006060848603121561462157600080fd5b833561462c816145a1565b9250602084013561463c816145a1565b9150604084013561464c816145a1565b809150509250925092565b60006020828403121561466957600080fd5b813567ffffffffffffffff81111561468057600080fd5b6141f484828501614476565b6000806040838503121561469f57600080fd5b82356146aa816145a1565b915060208301356146ba816145a1565b809150509250929050565b6000602082840312156146d757600080fd5b5051919050565b81356146e981614433565b81547fffffffffffffffffffffffffffffffffffffffffffffffffffffffffffffff001660ff82151516178255506020820135600182015560408201356002820155606082013561473981614433565b6003820180547fffffffffffffffffffffffffffffffffffffffffffffffffffffffffffffff001660ff83151516179055506080820135600482015560a0820135600582015560c082013560068201555050565b61ffff81168114610f8f57600080fd5b6000602082840312156147af57600080fd5b8135613f748161478d565b7f4e487b7100000000000000000000000000000000000000000000000000000000600052603260045260246000fd5b600181811c908216806147fd57607f821691505b60208210811415614470577f4e487b7100000000000000000000000000000000000000000000000000000000600052602260045260246000fd5b601f821115610b6d57600081815260208120601f850160051c8101602086101561485e5750805b601f850160051c820191505b8181101561369d5782815560010161486a565b6000813561488a8161478d565b92915050565b6000813561488a816145a1565b81357fffffffffffffffffffffffffffffffffffffffffffffffffffffffffffffffe18336030181126148cf57600080fd5b8201803567ffffffffffffffff8111156148e857600080fd5b602081360381840113156148fb57600080fd5b61490f8261490986546147e9565b86614837565b6000601f831160018114614963576000841561492d57508482018301355b7fffffffffffffffffffffffffffffffffffffffffffffffffffffffffffffffff600386901b1c1916600185901b1786556149fc565b6000868152602090207fffffffffffffffffffffffffffffffffffffffffffffffffffffffffffffffe0851690835b828110156149b3578785018601358255938501936001909101908501614992565b50858210156149f0577fffffffffffffffffffffffffffffffffffffffffffffffffffffffffffffffff60f88760031b161c198585890101351681555b505060018460011b0186555b5050600184019250614a42614a1282870161487d565b84547fffffffffffffffffffffffffffffffffffffffffffffffffffffffffffff00001661ffff91909116178455565b5050610b6d614a5360408501614890565b82547fffffffffffffffffffff0000000000000000000000000000000000000000ffff1660109190911b75ffffffffffffffffffffffffffffffffffffffff000016178255565b7f4e487b7100000000000000000000000000000000000000000000000000000000600052601160045260246000fd5b60008219821115614adc57614adc614a9a565b500190565b60007fffffffffffffffffffffffffffffffffffffffffffffffffffffffffffffffff821415614b1357614b13614a9a565b5060010190565b8051613d7381614433565b600060208284031215614b3757600080fd5b8151613f7481614433565b604051610120810167ffffffffffffffff81118282101715614b8d577f4e487b7100000000000000000000000000000000000000000000000000000000600052604160045260246000fd5b60405290565b60006101208284031215614ba657600080fd5b614bae614b42565b825181526020830151602082015260408301516040820152606083015160608201526080830151608082015260a083015160a082015260c083015160c0820152614bfa60e08401614b1a565b60e0820152610100928301519281019290925250919050565b6000817fffffffffffffffffffffffffffffffffffffffffffffffffffffffffffffffff0483118215151615614c4b57614c4b614a9a565b500290565b600082614c86577f4e487b7100000000000000000000000000000000000000000000000000000000600052601260045260246000fd5b500490565b600082821015614c9d57614c9d614a9a565b500390565b60008251614cb48184602087016144e8565b9190910192915050565b602081526000613f74602083018461451456fea2646970667358221220eddf173a51d39fb729f0cb6290342d90c43bbd37166b77cc5dc7e9a165d3892a64736f6c63430008090033",
  "devdoc": {
    "kind": "dev",
    "methods": {
      "convert(uint256)": {
        "details": "convert underlying token to bond token to current user",
        "params": {
          "amount_": "amount of underlying token to convert"
        }
      },
      "convertAndStake(uint256)": {
        "details": "convert underlying token to bond token and stake to bondFarmingPool for current user"
      },
      "emergencyTransferUnderlyingTokens(address)": {
        "details": "emergency transfer underlying token for security issue or bug encounted."
      },
      "extendPancakeLockDuration()": {
        "details": "extend pancake lock duration if needs"
      },
      "mintBondTokenForRewards(address,uint256)": {
        "details": "mint bond token for rewards and allocate fees."
      },
      "pause()": {
        "details": "Only possible when contract not paused."
      },
      "paused()": {
        "details": "Returns true if the contract is paused, and false otherwise."
      },
      "redeem(uint256)": {
        "details": "Redeem specific amount of my bond tokens.",
        "params": {
          "amount_": "amount to redeem"
        }
      },
      "redeemAll()": {
        "details": "Redeem all my bond tokens to underlying tokens."
      },
      "remoteUnderlyingAmount()": {
        "details": "calculate cake amount from pancake."
      },
      "totalPendingRewards()": {
        "details": "Total pending rewards for bond. May be negative in some unexpected circumstances,      such as remote underlying amount has unexpectedly decreased makes bond token over issued."
      },
      "unpause()": {
        "details": "Only possible when contract is paused."
      },
      "updateCheckPoints((bool,uint256,uint256,bool,uint256,uint256,uint256))": {
        "details": "update checkPoints",
        "params": {
          "checkPoints_": "new checkpoints"
        }
      },
      "withdrawAllCakesFromPancake(bool)": {
        "details": "Withdraw cake from cake pool."
      }
    },
    "version": 1
  },
  "userdoc": {
    "events": {
      "Converted(uint256,address)": {
        "notice": "Emitted when someone convert underlying token to the bond."
      }
    },
    "kind": "user",
    "methods": {
      "addFeeSpec((string,uint16,address))": {
        "notice": "add fee specification"
      },
      "bondToken()": {
        "notice": "Bond token contract"
      },
      "cakePool()": {
        "notice": "CakePool contract"
      },
      "feeSpecs(uint256)": {
        "notice": "Fee specifications"
      },
      "pause()": {
        "notice": "Trigger stopped state"
      },
      "setFeeSpec(uint256,(string,uint16,address))": {
        "notice": "update fee specification"
      },
      "totalBondTokenAmount()": {
        "notice": "Bond token total amount."
      },
      "totalUnderlyingAmount()": {
        "notice": "total underlying token amount, including hold in current contract and remote"
      },
      "underlyingAmount()": {
        "notice": "Underlying token amount that hold in current contract."
      },
      "underlyingToken()": {
        "notice": "Bond underlying asset"
      },
      "unpause()": {
        "notice": "Return to normal state"
      }
    },
    "version": 1
  },
  "storageLayout": {
    "storage": [
      {
        "astId": 6,
        "contract": "contracts/underlyings/pancake/ExtendableBondedCake.sol:ExtendableBondedCake",
        "label": "_initialized",
        "offset": 0,
        "slot": "0",
        "type": "t_uint8"
      },
      {
        "astId": 9,
        "contract": "contracts/underlyings/pancake/ExtendableBondedCake.sol:ExtendableBondedCake",
        "label": "_initializing",
        "offset": 1,
        "slot": "0",
        "type": "t_bool"
      },
      {
        "astId": 266,
        "contract": "contracts/underlyings/pancake/ExtendableBondedCake.sol:ExtendableBondedCake",
        "label": "_status",
        "offset": 0,
        "slot": "1",
        "type": "t_uint256"
      },
      {
        "astId": 310,
        "contract": "contracts/underlyings/pancake/ExtendableBondedCake.sol:ExtendableBondedCake",
        "label": "__gap",
        "offset": 0,
        "slot": "2",
        "type": "t_array(t_uint256)49_storage"
      },
      {
        "astId": 897,
        "contract": "contracts/underlyings/pancake/ExtendableBondedCake.sol:ExtendableBondedCake",
        "label": "__gap",
        "offset": 0,
        "slot": "51",
        "type": "t_array(t_uint256)50_storage"
      },
      {
        "astId": 162,
        "contract": "contracts/underlyings/pancake/ExtendableBondedCake.sol:ExtendableBondedCake",
        "label": "_paused",
        "offset": 0,
        "slot": "101",
        "type": "t_bool"
      },
      {
        "astId": 251,
        "contract": "contracts/underlyings/pancake/ExtendableBondedCake.sol:ExtendableBondedCake",
        "label": "__gap",
        "offset": 0,
        "slot": "102",
        "type": "t_array(t_uint256)49_storage"
      },
      {
        "astId": 7230,
        "contract": "contracts/underlyings/pancake/ExtendableBondedCake.sol:ExtendableBondedCake",
        "label": "admin",
        "offset": 0,
        "slot": "151",
        "type": "t_address"
      },
      {
        "astId": 7466,
        "contract": "contracts/underlyings/pancake/ExtendableBondedCake.sol:ExtendableBondedCake",
        "label": "keeper",
        "offset": 0,
        "slot": "152",
        "type": "t_address"
      },
      {
        "astId": 4503,
        "contract": "contracts/underlyings/pancake/ExtendableBondedCake.sol:ExtendableBondedCake",
        "label": "bondToken",
        "offset": 0,
        "slot": "153",
        "type": "t_contract(BondToken)4471"
      },
      {
        "astId": 4507,
        "contract": "contracts/underlyings/pancake/ExtendableBondedCake.sol:ExtendableBondedCake",
        "label": "underlyingToken",
        "offset": 0,
        "slot": "154",
        "type": "t_contract(IERC20Upgradeable)389"
      },
      {
        "astId": 4510,
        "contract": "contracts/underlyings/pancake/ExtendableBondedCake.sol:ExtendableBondedCake",
        "label": "PERCENTAGE_FACTOR",
        "offset": 20,
        "slot": "154",
        "type": "t_uint16"
      },
      {
        "astId": 4513,
        "contract": "contracts/underlyings/pancake/ExtendableBondedCake.sol:ExtendableBondedCake",
        "label": "bondFarmingPool",
        "offset": 0,
        "slot": "155",
        "type": "t_contract(IBondFarmingPool)7098"
      },
      {
        "astId": 4516,
        "contract": "contracts/underlyings/pancake/ExtendableBondedCake.sol:ExtendableBondedCake",
        "label": "bondLPFarmingPool",
        "offset": 0,
        "slot": "156",
        "type": "t_contract(IBondFarmingPool)7098"
      },
      {
        "astId": 4541,
        "contract": "contracts/underlyings/pancake/ExtendableBondedCake.sol:ExtendableBondedCake",
        "label": "feeSpecs",
        "offset": 0,
        "slot": "157",
        "type": "t_array(t_struct(FeeSpec)4536_storage)dyn_storage"
      },
      {
        "astId": 4559,
        "contract": "contracts/underlyings/pancake/ExtendableBondedCake.sol:ExtendableBondedCake",
        "label": "checkPoints",
        "offset": 0,
        "slot": "158",
        "type": "t_struct(CheckPoints)4556_storage"
      },
      {
        "astId": 16114,
        "contract": "contracts/underlyings/pancake/ExtendableBondedCake.sol:ExtendableBondedCake",
        "label": "cakePool",
        "offset": 0,
        "slot": "165",
        "type": "t_contract(ICakePool)7183"
      }
    ],
    "types": {
      "t_address": {
        "encoding": "inplace",
        "label": "address",
        "numberOfBytes": "20"
      },
      "t_array(t_struct(FeeSpec)4536_storage)dyn_storage": {
        "base": "t_struct(FeeSpec)4536_storage",
        "encoding": "dynamic_array",
        "label": "struct ExtendableBond.FeeSpec[]",
        "numberOfBytes": "32"
      },
      "t_array(t_uint256)49_storage": {
        "base": "t_uint256",
        "encoding": "inplace",
        "label": "uint256[49]",
        "numberOfBytes": "1568"
      },
      "t_array(t_uint256)50_storage": {
        "base": "t_uint256",
        "encoding": "inplace",
        "label": "uint256[50]",
        "numberOfBytes": "1600"
      },
      "t_bool": {
        "encoding": "inplace",
        "label": "bool",
        "numberOfBytes": "1"
      },
      "t_contract(BondToken)4471": {
        "encoding": "inplace",
        "label": "contract BondToken",
        "numberOfBytes": "20"
      },
      "t_contract(IBondFarmingPool)7098": {
        "encoding": "inplace",
        "label": "contract IBondFarmingPool",
        "numberOfBytes": "20"
      },
      "t_contract(ICakePool)7183": {
        "encoding": "inplace",
        "label": "contract ICakePool",
        "numberOfBytes": "20"
      },
      "t_contract(IERC20Upgradeable)389": {
        "encoding": "inplace",
        "label": "contract IERC20Upgradeable",
        "numberOfBytes": "20"
      },
      "t_string_storage": {
        "encoding": "bytes",
        "label": "string",
        "numberOfBytes": "32"
      },
      "t_struct(CheckPoints)4556_storage": {
        "encoding": "inplace",
        "label": "struct ExtendableBond.CheckPoints",
        "members": [
          {
            "astId": 4543,
            "contract": "contracts/underlyings/pancake/ExtendableBondedCake.sol:ExtendableBondedCake",
            "label": "convertable",
            "offset": 0,
            "slot": "0",
            "type": "t_bool"
          },
          {
            "astId": 4545,
            "contract": "contracts/underlyings/pancake/ExtendableBondedCake.sol:ExtendableBondedCake",
            "label": "convertableFrom",
            "offset": 0,
            "slot": "1",
            "type": "t_uint256"
          },
          {
            "astId": 4547,
            "contract": "contracts/underlyings/pancake/ExtendableBondedCake.sol:ExtendableBondedCake",
            "label": "convertableEnd",
            "offset": 0,
            "slot": "2",
            "type": "t_uint256"
          },
          {
            "astId": 4549,
            "contract": "contracts/underlyings/pancake/ExtendableBondedCake.sol:ExtendableBondedCake",
            "label": "redeemable",
            "offset": 0,
            "slot": "3",
            "type": "t_bool"
          },
          {
            "astId": 4551,
            "contract": "contracts/underlyings/pancake/ExtendableBondedCake.sol:ExtendableBondedCake",
            "label": "redeemableFrom",
            "offset": 0,
            "slot": "4",
            "type": "t_uint256"
          },
          {
            "astId": 4553,
            "contract": "contracts/underlyings/pancake/ExtendableBondedCake.sol:ExtendableBondedCake",
            "label": "redeemableEnd",
            "offset": 0,
            "slot": "5",
            "type": "t_uint256"
          },
          {
            "astId": 4555,
            "contract": "contracts/underlyings/pancake/ExtendableBondedCake.sol:ExtendableBondedCake",
            "label": "maturity",
            "offset": 0,
            "slot": "6",
            "type": "t_uint256"
          }
        ],
        "numberOfBytes": "224"
      },
      "t_struct(FeeSpec)4536_storage": {
        "encoding": "inplace",
        "label": "struct ExtendableBond.FeeSpec",
        "members": [
          {
            "astId": 4531,
            "contract": "contracts/underlyings/pancake/ExtendableBondedCake.sol:ExtendableBondedCake",
            "label": "desc",
            "offset": 0,
            "slot": "0",
            "type": "t_string_storage"
          },
          {
            "astId": 4533,
            "contract": "contracts/underlyings/pancake/ExtendableBondedCake.sol:ExtendableBondedCake",
            "label": "rate",
            "offset": 0,
            "slot": "1",
            "type": "t_uint16"
          },
          {
            "astId": 4535,
            "contract": "contracts/underlyings/pancake/ExtendableBondedCake.sol:ExtendableBondedCake",
            "label": "receiver",
            "offset": 2,
            "slot": "1",
            "type": "t_address"
          }
        ],
        "numberOfBytes": "64"
      },
      "t_uint16": {
        "encoding": "inplace",
        "label": "uint16",
        "numberOfBytes": "2"
      },
      "t_uint256": {
        "encoding": "inplace",
        "label": "uint256",
        "numberOfBytes": "32"
      },
      "t_uint8": {
        "encoding": "inplace",
        "label": "uint8",
        "numberOfBytes": "1"
      }
    }
  }
}