{
  "address": "0x9f592Ddb01B27170dDe989921aC4ee60800f9CDa",
  "abi": [
    {
      "anonymous": false,
      "inputs": [
        {
          "indexed": true,
          "internalType": "address",
          "name": "user",
          "type": "address"
        },
        {
          "indexed": true,
          "internalType": "address",
          "name": "newAdmin",
          "type": "address"
        }
      ],
      "name": "AdminUpdated",
      "type": "event"
    },
    {
      "anonymous": false,
      "inputs": [
        {
          "indexed": false,
          "internalType": "uint8",
          "name": "version",
          "type": "uint8"
        }
      ],
      "name": "Initialized",
      "type": "event"
    },
    {
      "anonymous": false,
      "inputs": [
        {
          "indexed": false,
          "internalType": "address",
          "name": "account",
          "type": "address"
        }
      ],
      "name": "Paused",
      "type": "event"
    },
    {
      "anonymous": false,
      "inputs": [
        {
          "indexed": true,
          "internalType": "address",
          "name": "previousPool",
          "type": "address"
        },
        {
          "indexed": true,
          "internalType": "address",
          "name": "newPool",
          "type": "address"
        }
      ],
      "name": "SiblingPoolUpdated",
      "type": "event"
    },
    {
      "anonymous": false,
      "inputs": [
        {
          "indexed": true,
          "internalType": "address",
          "name": "user",
          "type": "address"
        },
        {
          "indexed": false,
          "internalType": "uint256",
          "name": "amount",
          "type": "uint256"
        }
      ],
      "name": "Staked",
      "type": "event"
    },
    {
      "anonymous": false,
      "inputs": [
        {
          "indexed": false,
          "internalType": "address",
          "name": "account",
          "type": "address"
        }
      ],
      "name": "Unpaused",
      "type": "event"
    },
    {
      "anonymous": false,
      "inputs": [
        {
          "indexed": true,
          "internalType": "address",
          "name": "user",
          "type": "address"
        },
        {
          "indexed": false,
          "internalType": "uint256",
          "name": "amount",
          "type": "uint256"
        }
      ],
      "name": "Unstaked",
      "type": "event"
    },
    {
      "inputs": [],
      "name": "ACC_REWARDS_PRECISION",
      "outputs": [
        {
          "internalType": "uint256",
          "name": "",
          "type": "uint256"
        }
      ],
      "stateMutability": "view",
      "type": "function"
    },
    {
      "inputs": [],
      "name": "accRewardPerShare",
      "outputs": [
        {
          "internalType": "uint256",
          "name": "",
          "type": "uint256"
        }
      ],
      "stateMutability": "view",
      "type": "function"
    },
    {
      "inputs": [],
      "name": "admin",
      "outputs": [
        {
          "internalType": "address",
          "name": "",
          "type": "address"
        }
      ],
      "stateMutability": "view",
      "type": "function"
    },
    {
      "inputs": [],
      "name": "bond",
      "outputs": [
        {
          "internalType": "contract IExtendableBond",
          "name": "",
          "type": "address"
        }
      ],
      "stateMutability": "view",
      "type": "function"
    },
    {
      "inputs": [],
      "name": "bondRewardsSuspended",
      "outputs": [
        {
          "internalType": "bool",
          "name": "",
          "type": "bool"
        }
      ],
      "stateMutability": "view",
      "type": "function"
    },
    {
      "inputs": [],
      "name": "bondToken",
      "outputs": [
        {
          "internalType": "contract IERC20Upgradeable",
          "name": "",
          "type": "address"
        }
      ],
      "stateMutability": "view",
      "type": "function"
    },
    {
      "inputs": [],
      "name": "claimBonuses",
      "outputs": [],
      "stateMutability": "nonpayable",
      "type": "function"
    },
    {
      "inputs": [
        {
          "internalType": "address",
          "name": "user_",
          "type": "address"
        }
      ],
      "name": "getUserPendingRewards",
      "outputs": [
        {
          "internalType": "uint256",
          "name": "",
          "type": "uint256"
        }
      ],
      "stateMutability": "view",
      "type": "function"
    },
    {
      "inputs": [
        {
          "internalType": "contract IERC20Upgradeable",
          "name": "bondToken_",
          "type": "address"
        },
        {
          "internalType": "contract IExtendableBond",
          "name": "bond_",
          "type": "address"
        },
        {
          "internalType": "address",
          "name": "admin_",
          "type": "address"
        }
      ],
      "name": "initialize",
      "outputs": [],
      "stateMutability": "nonpayable",
      "type": "function"
    },
    {
      "inputs": [],
      "name": "lastUpdatedPoolAt",
      "outputs": [
        {
          "internalType": "uint256",
          "name": "",
          "type": "uint256"
        }
      ],
      "stateMutability": "view",
      "type": "function"
    },
    {
      "inputs": [],
      "name": "lpToken",
      "outputs": [
        {
          "internalType": "contract IERC20Upgradeable",
          "name": "",
          "type": "address"
        }
      ],
      "stateMutability": "view",
      "type": "function"
    },
    {
      "inputs": [],
      "name": "masterChef",
      "outputs": [
        {
          "internalType": "contract IMultiRewardsMasterChef",
          "name": "",
          "type": "address"
        }
      ],
      "stateMutability": "view",
      "type": "function"
    },
    {
      "inputs": [],
      "name": "masterChefPid",
      "outputs": [
        {
          "internalType": "uint256",
          "name": "",
          "type": "uint256"
        }
      ],
      "stateMutability": "view",
      "type": "function"
    },
    {
      "inputs": [],
      "name": "paused",
      "outputs": [
        {
          "internalType": "bool",
          "name": "",
          "type": "bool"
        }
      ],
      "stateMutability": "view",
      "type": "function"
    },
    {
      "inputs": [
        {
          "internalType": "address",
          "name": "newAdmin",
          "type": "address"
        }
      ],
      "name": "setAdmin",
      "outputs": [],
      "stateMutability": "nonpayable",
      "type": "function"
    },
    {
      "inputs": [
        {
          "internalType": "bool",
          "name": "suspended_",
          "type": "bool"
        }
      ],
      "name": "setBondRewardsSuspended",
      "outputs": [],
      "stateMutability": "nonpayable",
      "type": "function"
    },
    {
      "inputs": [
        {
          "internalType": "contract IERC20Upgradeable",
          "name": "lpToken_",
          "type": "address"
        }
      ],
      "name": "setLpToken",
      "outputs": [],
      "stateMutability": "nonpayable",
      "type": "function"
    },
    {
      "inputs": [
        {
          "internalType": "contract IMultiRewardsMasterChef",
          "name": "masterChef_",
          "type": "address"
        },
        {
          "internalType": "uint256",
          "name": "masterChefPid_",
          "type": "uint256"
        }
      ],
      "name": "setMasterChef",
      "outputs": [],
      "stateMutability": "nonpayable",
      "type": "function"
    },
    {
      "inputs": [
        {
          "internalType": "contract IBondFarmingPool",
          "name": "siblingPool_",
          "type": "address"
        }
      ],
      "name": "setSiblingPool",
      "outputs": [],
      "stateMutability": "nonpayable",
      "type": "function"
    },
    {
      "inputs": [],
      "name": "siblingPool",
      "outputs": [
        {
          "internalType": "contract IBondFarmingPool",
          "name": "",
          "type": "address"
        }
      ],
      "stateMutability": "view",
      "type": "function"
    },
    {
      "inputs": [
        {
          "internalType": "uint256",
          "name": "amount_",
          "type": "uint256"
        }
      ],
      "name": "stake",
      "outputs": [],
      "stateMutability": "nonpayable",
      "type": "function"
    },
    {
      "inputs": [
        {
          "internalType": "address",
          "name": "user_",
          "type": "address"
        },
        {
          "internalType": "uint256",
          "name": "amount_",
          "type": "uint256"
        }
      ],
      "name": "stakeForUser",
      "outputs": [],
      "stateMutability": "nonpayable",
      "type": "function"
    },
    {
      "inputs": [],
      "name": "totalLpAmount",
      "outputs": [
        {
          "internalType": "uint256",
          "name": "",
          "type": "uint256"
        }
      ],
      "stateMutability": "view",
      "type": "function"
    },
    {
      "inputs": [],
      "name": "totalPendingRewards",
      "outputs": [
        {
          "internalType": "uint256",
          "name": "",
          "type": "uint256"
        }
      ],
      "stateMutability": "view",
      "type": "function"
    },
    {
      "inputs": [
        {
          "internalType": "uint256",
          "name": "amount_",
          "type": "uint256"
        }
      ],
      "name": "unstake",
      "outputs": [],
      "stateMutability": "nonpayable",
      "type": "function"
    },
    {
      "inputs": [],
      "name": "unstakeAll",
      "outputs": [],
      "stateMutability": "nonpayable",
      "type": "function"
    },
    {
      "inputs": [],
      "name": "updatePool",
      "outputs": [],
      "stateMutability": "nonpayable",
      "type": "function"
    },
    {
      "inputs": [
        {
          "internalType": "address",
          "name": "",
          "type": "address"
        }
      ],
      "name": "usersInfo",
      "outputs": [
        {
          "internalType": "uint256",
          "name": "lpAmount",
          "type": "uint256"
        },
        {
          "internalType": "uint256",
          "name": "rewardDebt",
          "type": "uint256"
        },
        {
          "internalType": "uint256",
          "name": "pendingRewards",
          "type": "uint256"
        },
        {
          "internalType": "uint256",
          "name": "claimedRewards",
          "type": "uint256"
        }
      ],
      "stateMutability": "view",
      "type": "function"
    }
  ],
  "transactionHash": "0xa5ad4f2becb65c9d366278b00e03583c0178df3b69ec73ee2b291e012d9c72d7",
  "args": [],
  "numDeployments": 10,
  "solcInputHash": "56108d1e80ac4df0de564c253faf07c8",
  "bytecode": "0x60806040526000609c5560a1805460ff1916905534801561001f57600080fd5b50611cef8061002f6000396000f3fe608060405234801561001057600080fd5b50600436106101c45760003560e01c8063672f1490116100f9578063c62c610b11610097578063e3161ddd11610071578063e3161ddd146103b9578063ec1371f2146103c1578063f851a440146103c9578063fd79c6a2146103dc57600080fd5b8063c62c610b14610395578063cf7c11fa1461039e578063d9d72c19146103b157600080fd5b80639ee933b5116100d35780639ee933b514610349578063a694fc3a1461035c578063c0c53b8b1461036f578063c28f43921461038257600080fd5b8063672f14901461031a578063704b6c021461032d578063939d62371461034057600080fd5b80635b755f39116101665780635d0eaaaf116101405780635d0eaaaf146102925780635fcbd285146102e757806364c9ec6f146102fa5780636702679a1461030d57600080fd5b80635b755f39146102665780635c975abb146102725780635d0198811461028957600080fd5b806335322f37116101a257806335322f371461022157806345a13b9614610229578063532d73971461023c578063575a86b21461025357600080fd5b8063123cecbe146101c95780632e17de78146101de5780633530c61e146101f1575b600080fd5b6101dc6101d73660046119a4565b6103ef565b005b6101dc6101ec3660046119c1565b6105e3565b609b54610204906001600160a01b031681565b6040516001600160a01b0390911681526020015b60405180910390f35b6101dc610937565b6101dc6102373660046119e8565b6109a3565b61024560a05481565b604051908152602001610218565b609d54610204906001600160a01b031681565b61024564e8d4a5100081565b60655460ff165b6040519015158152602001610218565b610245609c5481565b6102c76102a03660046119a4565b60a26020526000908152604090208054600182015460028301546003909301549192909184565b604080519485526020850193909352918301526060820152608001610218565b609954610204906001600160a01b031681565b609a54610204906001600160a01b031681565b60a1546102799060ff1681565b6101dc610328366004611a05565b6109e8565b6101dc61033b3660046119a4565b610a38565b610245609f5481565b6101dc6103573660046119a4565b610a6e565b6101dc61036a3660046119c1565b610aba565b6101dc61037d366004611a31565b610b65565b609854610204906001600160a01b031681565b610245609e5481565b6102456103ac3660046119a4565b610c1e565b6101dc610d59565b6101dc610d63565b610245610e00565b609754610204906001600160a01b031681565b6101dc6103ea366004611a05565b610f39565b6097546001600160a01b031633146104225760405162461bcd60e51b815260040161041990611a7c565b60405180910390fd5b60006001600160a01b0316816001600160a01b0316633530c61e6040518163ffffffff1660e01b815260040160206040518083038186803b15801561046657600080fd5b505afa15801561047a573d6000803e3d6000fd5b505050506040513d601f19601f8201168201806040525081019061049e9190611aa2565b6001600160a01b031614806105345750306001600160a01b0316816001600160a01b0316633530c61e6040518163ffffffff1660e01b815260040160206040518083038186803b1580156104f157600080fd5b505afa158015610505573d6000803e3d6000fd5b505050506040513d601f19601f820116820180604052508101906105299190611aa2565b6001600160a01b0316145b801561054957506001600160a01b0381163014155b6105875760405162461bcd60e51b815260206004820152600f60248201526e496e76616c6964207369626c696e6760881b6044820152606401610419565b609b546040516001600160a01b038084169216907f5c0b1436fffe2be9a261bad04f4b4c330db8e95f54f09d910e47447e94f4329490600090a3609b80546001600160a01b0319166001600160a01b0392909216919091179055565b60655460ff16156106065760405162461bcd60e51b815260040161041990611abf565b600260015414156106595760405162461bcd60e51b815260206004820152601f60248201527f5265656e7472616e637947756172643a207265656e7472616e742063616c6c006044820152606401610419565b600260015533600081815260a2602052604090208054831180159061067e5750805415155b6106d65760405162461bcd60e51b815260206004820152602360248201527f756e7374616b6520616d6f756e742065786365656473206f776e656420616d6f6044820152621d5b9d60ea1b6064820152608401610419565b6106de6111ca565b600064e8d4a510008260000154609f546106f89190611aff565b6107029190611b1e565b90506000826001015482846002015461071b9190611b40565b6107259190611b58565b6098546040516370a0823160e01b81523060048201529192506000916001600160a01b03909116906370a082319060240160206040518083038186803b15801561076e57600080fd5b505afa158015610782573d6000803e3d6000fd5b505050506040513d601f19601f820116820180604052508101906107a69190611b6f565b9050808211156107b4578091505b6001840183905560006002850155851561084157835464e8d4a51000906107dc908890611b58565b609f546107e99190611aff565b6107f39190611b1e565b600185015583548690859060009061080c908490611b58565b925050819055508560a060008282546108259190611b58565b9091555050609954610841906001600160a01b03168688611247565b811561085e5760985461085e906001600160a01b03168684611247565b818460030160008282546108729190611b40565b9091555050609d54609e546040516370ad001d60e11b81526004810191909152602481018890526001600160a01b0387811660448301529091169063e15a003a90606401600060405180830381600087803b1580156108d057600080fd5b505af11580156108e4573d6000803e3d6000fd5b50505050846001600160a01b03167f0f5bb82176feb1b5e747e28471aa92156a04d9f3ab9f45f28e2d704232b93f758760405161092391815260200190565b60405180910390a250506001805550505050565b33600090815260a260205260409020546109885760405162461bcd60e51b81526020600482015260126024820152716e6f7468696e6720746f20756e7374616b6560701b6044820152606401610419565b33600090815260a260205260409020546109a1906105e3565b565b6097546001600160a01b031633146109cd5760405162461bcd60e51b815260040161041990611a7c565b6109d56111ca565b60a1805460ff1916911515919091179055565b6097546001600160a01b03163314610a125760405162461bcd60e51b815260040161041990611a7c565b609d80546001600160a01b0319166001600160a01b039390931692909217909155609e55565b6097546001600160a01b03163314610a625760405162461bcd60e51b815260040161041990611a7c565b610a6b816112af565b50565b6097546001600160a01b03163314610a985760405162461bcd60e51b815260040161041990611a7c565b609980546001600160a01b0319166001600160a01b0392909216919091179055565b60655460ff1615610add5760405162461bcd60e51b815260040161041990611abf565b60a15460ff1615610b565760405162461bcd60e51b815260206004820152603960248201527f5265776172642073757370656e6465642e20506c6561736520666f6c6c6f772060448201527f7468652070726f6a65637420616e6e6f756e63656d656e7420000000000000006064820152608401610419565b33610b618183610f39565b5050565b6000610b71600161135b565b90508015610b89576000805461ff0019166101001790555b610b916113e3565b610b99611412565b610ba2826112af565b609880546001600160a01b038087166001600160a01b031992831617909255609a8054928616929091169190911790558015610c18576000805461ff0019169055604051600181527f7f26b83ff96e1f2b6a682f133852f6798a09c465da95921460cefb38474024989060200160405180910390a15b50505050565b6001600160a01b038116600090815260a26020526040812060a0541580610c4457508054155b15610c525750600092915050565b6000610c5c610e00565b609f5460a054609a54604051625e3ded60e61b81526004810185905293945060009364e8d4a51000916001600160a01b03169063178f7b409060240160206040518083038186803b158015610cb057600080fd5b505afa158015610cc4573d6000803e3d6000fd5b505050506040513d601f19601f82011682018060405250810190610ce89190611b6f565b610cf29086611b58565b610cfc9190611aff565b610d069190611b1e565b610d109190611b40565b90508260010154836002015464e8d4a51000856000015484610d329190611aff565b610d3c9190611b1e565b610d469190611b40565b610d509190611b58565b95945050505050565b6109a160006105e3565b609b546001600160a01b0316331480610d865750609a546001600160a01b031633145b610df85760405162461bcd60e51b815260206004820152603960248201527f426f6e644c504661726d696e67506f6f6c3a2043616c6c696e672066726f6d2060448201527f7369626c696e6720706f6f6c206f7220626f6e64206f6e6c79000000000000006064820152608401610419565b6109a1611441565b60a15460009060ff1615610e145750600090565b609a5460408051637609b8f960e11b815290516000926001600160a01b03169163ec1371f2916004808301926020929190829003018186803b158015610e5957600080fd5b505afa158015610e6d573d6000803e3d6000fd5b505050506040513d601f19601f82011682018060405250810190610e919190611b6f565b905060008111610ea357600091505090565b609b60009054906101000a90046001600160a01b03166001600160a01b031663ec1371f26040518163ffffffff1660e01b815260040160206040518083038186803b158015610ef157600080fd5b505afa158015610f05573d6000803e3d6000fd5b505050506040513d601f19601f82011682018060405250810190610f299190611b6f565b610f339082611b58565b91505090565b60655460ff1615610f5c5760405162461bcd60e51b815260040161041990611abf565b60026001541415610faf5760405162461bcd60e51b815260206004820152601f60248201527f5265656e7472616e637947756172643a207265656e7472616e742063616c6c006044820152606401610419565b600260015580610ff45760405162461bcd60e51b815260206004820152601060248201526f6e6f7468696e6720746f207374616b6560801b6044820152606401610419565b610ffc6111ca565b6001600160a01b038216600090815260a26020526040902080541561109f57600064e8d4a510008260000154609f546110359190611aff565b61103f9190611b1e565b90508160010154816110519190611b58565b8260020160008282546110649190611b40565b9091555050815464e8d4a510009061107d908590611b40565b609f5461108a9190611aff565b6110949190611b1e565b6001830155506110c3565b64e8d4a5100082609f546110b39190611aff565b6110bd9190611b1e565b60018201555b6099546110db906001600160a01b03163330856116a2565b818160000160008282546110ef9190611b40565b925050819055508160a060008282546111089190611b40565b9091555050609d54609e5460405163a3f30d2760e01b81526004810191909152602481018490526001600160a01b0385811660448301529091169063a3f30d2790606401600060405180830381600087803b15801561116657600080fd5b505af115801561117a573d6000803e3d6000fd5b50505050826001600160a01b03167f9e71bc8eea02a63969f509818f2dafb9254532904319f9dbda79b67bd34a5f3d836040516111b991815260200190565b60405180910390a250506001805550565b60a15460ff16156111d757565b609b60009054906101000a90046001600160a01b03166001600160a01b031663e3161ddd6040518163ffffffff1660e01b8152600401600060405180830381600087803b15801561122757600080fd5b505af115801561123b573d6000803e3d6000fd5b505050506109a1611441565b6040516001600160a01b0383166024820152604481018290526112aa90849063a9059cbb60e01b906064015b60408051601f198184030181529190526020810180516001600160e01b03166001600160e01b0319909316929092179091526116da565b505050565b6001600160a01b03811661130f5760405162461bcd60e51b815260206004820152602160248201527f43616e206e6f74207365742061646d696e20746f207a65726f206164647265736044820152607360f81b6064820152608401610419565b609780546001600160a01b0319166001600160a01b03831690811790915560405133907f101b8081ff3b56bbf45deb824d86a3b0fd38b7e3dd42421105cf8abe9106db0b90600090a350565b60008054610100900460ff16156113a2578160ff16600114801561137e5750303b155b61139a5760405162461bcd60e51b815260040161041990611b88565b506000919050565b60005460ff8084169116106113c95760405162461bcd60e51b815260040161041990611b88565b506000805460ff191660ff92909216919091179055600190565b600054610100900460ff1661140a5760405162461bcd60e51b815260040161041990611bd6565b6109a16117ac565b600054610100900460ff166114395760405162461bcd60e51b815260040161041990611bd6565b6109a16117d9565b609c54609b60009054906101000a90046001600160a01b03166001600160a01b0316635d0198816040518163ffffffff1660e01b815260040160206040518083038186803b15801561149257600080fd5b505afa1580156114a6573d6000803e3d6000fd5b505050506040513d601f19601f820116820180604052508101906114ca9190611b6f565b11806115685750609c54609b60009054906101000a90046001600160a01b03166001600160a01b0316635d0198816040518163ffffffff1660e01b815260040160206040518083038186803b15801561152257600080fd5b505afa158015611536573d6000803e3d6000fd5b505050506040513d601f19601f8201168201806040525081019061155a9190611b6f565b148015611568575043609c54145b6115b45760405162461bcd60e51b815260206004820152601960248201527f75706461746520626f6e6420706f6f6c2066697273746c792e000000000000006044820152606401610419565b60006115be610e00565b43609c5590508015806115d1575060a054155b156115d95750565b609a54604051632a52d5a560e21b8152306004820152602481018390526000916001600160a01b03169063a94b569490604401602060405180830381600087803b15801561162657600080fd5b505af115801561163a573d6000803e3d6000fd5b505050506040513d601f19601f8201168201806040525081019061165e9190611b6f565b60a05490915064e8d4a510006116748385611b58565b61167e9190611aff565b6116889190611b1e565b609f60008282546116999190611b40565b90915550505050565b6040516001600160a01b0380851660248301528316604482015260648101829052610c189085906323b872dd60e01b90608401611273565b600061172f826040518060400160405280602081526020017f5361666545524332303a206c6f772d6c6576656c2063616c6c206661696c6564815250856001600160a01b031661180c9092919063ffffffff16565b8051909150156112aa578080602001905181019061174d9190611c21565b6112aa5760405162461bcd60e51b815260206004820152602a60248201527f5361666545524332303a204552433230206f7065726174696f6e20646964206e6044820152691bdd081cdd58d8d9595960b21b6064820152608401610419565b600054610100900460ff166117d35760405162461bcd60e51b815260040161041990611bd6565b60018055565b600054610100900460ff166118005760405162461bcd60e51b815260040161041990611bd6565b6065805460ff19169055565b606061181b8484600085611825565b90505b9392505050565b6060824710156118865760405162461bcd60e51b815260206004820152602660248201527f416464726573733a20696e73756666696369656e742062616c616e636520666f6044820152651c8818d85b1b60d21b6064820152608401610419565b6001600160a01b0385163b6118dd5760405162461bcd60e51b815260206004820152601d60248201527f416464726573733a2063616c6c20746f206e6f6e2d636f6e74726163740000006044820152606401610419565b600080866001600160a01b031685876040516118f99190611c6a565b60006040518083038185875af1925050503d8060008114611936576040519150601f19603f3d011682016040523d82523d6000602084013e61193b565b606091505b509150915061194b828286611956565b979650505050505050565b6060831561196557508161181e565b8251156119755782518084602001fd5b8160405162461bcd60e51b81526004016104199190611c86565b6001600160a01b0381168114610a6b57600080fd5b6000602082840312156119b657600080fd5b813561181e8161198f565b6000602082840312156119d357600080fd5b5035919050565b8015158114610a6b57600080fd5b6000602082840312156119fa57600080fd5b813561181e816119da565b60008060408385031215611a1857600080fd5b8235611a238161198f565b946020939093013593505050565b600080600060608486031215611a4657600080fd5b8335611a518161198f565b92506020840135611a618161198f565b91506040840135611a718161198f565b809150509250925092565b6020808252600c908201526b15539055551213d49256915160a21b604082015260600190565b600060208284031215611ab457600080fd5b815161181e8161198f565b60208082526010908201526f14185d5cd8589b194e881c185d5cd95960821b604082015260600190565b634e487b7160e01b600052601160045260246000fd5b6000816000190483118215151615611b1957611b19611ae9565b500290565b600082611b3b57634e487b7160e01b600052601260045260246000fd5b500490565b60008219821115611b5357611b53611ae9565b500190565b600082821015611b6a57611b6a611ae9565b500390565b600060208284031215611b8157600080fd5b5051919050565b6020808252602e908201527f496e697469616c697a61626c653a20636f6e747261637420697320616c72656160408201526d191e481a5b9a5d1a585b1a5e995960921b606082015260800190565b6020808252602b908201527f496e697469616c697a61626c653a20636f6e7472616374206973206e6f74206960408201526a6e697469616c697a696e6760a81b606082015260800190565b600060208284031215611c3357600080fd5b815161181e816119da565b60005b83811015611c59578181015183820152602001611c41565b83811115610c185750506000910152565b60008251611c7c818460208701611c3e565b9190910192915050565b6020815260008251806020840152611ca5816040850160208701611c3e565b601f01601f1916919091016040019291505056fea26469706673582212204ca5ac4981ff0471b69be03d7eb5606d6d9a9fed31d8cc29db8afb3e9c1bcef364736f6c63430008090033",
  "devdoc": {
    "kind": "dev",
    "methods": {
      "getUserPendingRewards(address)": {
        "details": "get pending rewards by specific user"
      },
      "paused()": {
        "details": "Returns true if the contract is paused, and false otherwise."
      },
      "totalPendingRewards()": {
        "details": "distribute single bond pool first, then LP pool will get the remaining rewards. see _updatePools"
      },
      "updatePool()": {
        "details": "see: _updatePool"
      }
    },
    "stateVariables": {
      "accRewardPerShare": {
        "details": "accumulated bond token rewards of each lp token."
      },
      "bondRewardsSuspended": {
        "details": "_updatePools() no longer works after bondRewardsSuspended is true."
      }
    },
    "version": 1
  },
  "userdoc": {
    "kind": "user",
    "methods": {
      "bondRewardsSuspended()": {
        "notice": "mark bond reward is suspended. If the LP Token needs to be migrated, such as from pancake to ESP, the bond rewards will be suspended.you can not stake anymore when bond rewards has been suspended."
      },
      "unstake(uint256)": {
        "notice": "unstake by shares"
      }
    },
    "version": 1
  },
  "storageLayout": {
    "storage": [
      {
        "astId": 6,
        "contract": "contracts/BondLPFarmingPool.sol:BondLPFarmingPool",
        "label": "_initialized",
        "offset": 0,
        "slot": "0",
        "type": "t_uint8"
      },
      {
        "astId": 9,
        "contract": "contracts/BondLPFarmingPool.sol:BondLPFarmingPool",
        "label": "_initializing",
        "offset": 1,
        "slot": "0",
        "type": "t_bool"
      },
      {
        "astId": 266,
        "contract": "contracts/BondLPFarmingPool.sol:BondLPFarmingPool",
        "label": "_status",
        "offset": 0,
        "slot": "1",
        "type": "t_uint256"
      },
      {
        "astId": 310,
        "contract": "contracts/BondLPFarmingPool.sol:BondLPFarmingPool",
        "label": "__gap",
        "offset": 0,
        "slot": "2",
        "type": "t_array(t_uint256)49_storage"
      },
      {
        "astId": 897,
        "contract": "contracts/BondLPFarmingPool.sol:BondLPFarmingPool",
        "label": "__gap",
        "offset": 0,
        "slot": "51",
        "type": "t_array(t_uint256)50_storage"
      },
      {
        "astId": 162,
        "contract": "contracts/BondLPFarmingPool.sol:BondLPFarmingPool",
        "label": "_paused",
        "offset": 0,
        "slot": "101",
        "type": "t_bool"
      },
      {
        "astId": 251,
        "contract": "contracts/BondLPFarmingPool.sol:BondLPFarmingPool",
        "label": "__gap",
        "offset": 0,
        "slot": "102",
        "type": "t_array(t_uint256)49_storage"
      },
      {
        "astId": 3100,
        "contract": "contracts/BondLPFarmingPool.sol:BondLPFarmingPool",
        "label": "admin",
        "offset": 0,
        "slot": "151",
        "type": "t_address"
      },
      {
        "astId": 4827,
        "contract": "contracts/BondLPFarmingPool.sol:BondLPFarmingPool",
        "label": "bondToken",
        "offset": 0,
        "slot": "152",
        "type": "t_contract(IERC20Upgradeable)389"
      },
      {
        "astId": 4830,
        "contract": "contracts/BondLPFarmingPool.sol:BondLPFarmingPool",
        "label": "lpToken",
        "offset": 0,
        "slot": "153",
        "type": "t_contract(IERC20Upgradeable)389"
      },
      {
        "astId": 4837,
        "contract": "contracts/BondLPFarmingPool.sol:BondLPFarmingPool",
        "label": "bond",
        "offset": 0,
        "slot": "154",
        "type": "t_contract(IExtendableBond)8808"
      },
      {
        "astId": 4840,
        "contract": "contracts/BondLPFarmingPool.sol:BondLPFarmingPool",
        "label": "siblingPool",
        "offset": 0,
        "slot": "155",
        "type": "t_contract(IBondFarmingPool)8764"
      },
      {
        "astId": 4843,
        "contract": "contracts/BondLPFarmingPool.sol:BondLPFarmingPool",
        "label": "lastUpdatedPoolAt",
        "offset": 0,
        "slot": "156",
        "type": "t_uint256"
      },
      {
        "astId": 4846,
        "contract": "contracts/BondLPFarmingPool.sol:BondLPFarmingPool",
        "label": "masterChef",
        "offset": 0,
        "slot": "157",
        "type": "t_contract(IMultiRewardsMasterChef)8843"
      },
      {
        "astId": 4848,
        "contract": "contracts/BondLPFarmingPool.sol:BondLPFarmingPool",
        "label": "masterChefPid",
        "offset": 0,
        "slot": "158",
        "type": "t_uint256"
      },
      {
        "astId": 4851,
        "contract": "contracts/BondLPFarmingPool.sol:BondLPFarmingPool",
        "label": "accRewardPerShare",
        "offset": 0,
        "slot": "159",
        "type": "t_uint256"
      },
      {
        "astId": 4856,
        "contract": "contracts/BondLPFarmingPool.sol:BondLPFarmingPool",
        "label": "totalLpAmount",
        "offset": 0,
        "slot": "160",
        "type": "t_uint256"
      },
      {
        "astId": 4860,
        "contract": "contracts/BondLPFarmingPool.sol:BondLPFarmingPool",
        "label": "bondRewardsSuspended",
        "offset": 0,
        "slot": "161",
        "type": "t_bool"
      },
      {
        "astId": 4878,
        "contract": "contracts/BondLPFarmingPool.sol:BondLPFarmingPool",
        "label": "usersInfo",
        "offset": 0,
        "slot": "162",
        "type": "t_mapping(t_address,t_struct(UserInfo)4873_storage)"
      }
    ],
    "types": {
      "t_address": {
        "encoding": "inplace",
        "label": "address",
        "numberOfBytes": "20"
      },
      "t_array(t_uint256)49_storage": {
        "base": "t_uint256",
        "encoding": "inplace",
        "label": "uint256[49]",
        "numberOfBytes": "1568"
      },
      "t_array(t_uint256)50_storage": {
        "base": "t_uint256",
        "encoding": "inplace",
        "label": "uint256[50]",
        "numberOfBytes": "1600"
      },
      "t_bool": {
        "encoding": "inplace",
        "label": "bool",
        "numberOfBytes": "1"
      },
      "t_contract(IBondFarmingPool)8764": {
        "encoding": "inplace",
        "label": "contract IBondFarmingPool",
        "numberOfBytes": "20"
      },
      "t_contract(IERC20Upgradeable)389": {
        "encoding": "inplace",
        "label": "contract IERC20Upgradeable",
        "numberOfBytes": "20"
      },
      "t_contract(IExtendableBond)8808": {
        "encoding": "inplace",
        "label": "contract IExtendableBond",
        "numberOfBytes": "20"
      },
      "t_contract(IMultiRewardsMasterChef)8843": {
        "encoding": "inplace",
        "label": "contract IMultiRewardsMasterChef",
        "numberOfBytes": "20"
      },
      "t_mapping(t_address,t_struct(UserInfo)4873_storage)": {
        "encoding": "mapping",
        "key": "t_address",
        "label": "mapping(address => struct BondLPFarmingPool.UserInfo)",
        "numberOfBytes": "32",
        "value": "t_struct(UserInfo)4873_storage"
      },
      "t_struct(UserInfo)4873_storage": {
        "encoding": "inplace",
        "label": "struct BondLPFarmingPool.UserInfo",
        "members": [
          {
            "astId": 4863,
            "contract": "contracts/BondLPFarmingPool.sol:BondLPFarmingPool",
            "label": "lpAmount",
            "offset": 0,
            "slot": "0",
            "type": "t_uint256"
          },
          {
            "astId": 4866,
            "contract": "contracts/BondLPFarmingPool.sol:BondLPFarmingPool",
            "label": "rewardDebt",
            "offset": 0,
            "slot": "1",
            "type": "t_uint256"
          },
          {
            "astId": 4869,
            "contract": "contracts/BondLPFarmingPool.sol:BondLPFarmingPool",
            "label": "pendingRewards",
            "offset": 0,
            "slot": "2",
            "type": "t_uint256"
          },
          {
            "astId": 4872,
            "contract": "contracts/BondLPFarmingPool.sol:BondLPFarmingPool",
            "label": "claimedRewards",
            "offset": 0,
            "slot": "3",
            "type": "t_uint256"
          }
        ],
        "numberOfBytes": "128"
      },
      "t_uint256": {
        "encoding": "inplace",
        "label": "uint256",
        "numberOfBytes": "32"
      },
      "t_uint8": {
        "encoding": "inplace",
        "label": "uint8",
        "numberOfBytes": "1"
      }
    }
  }
}