{
  "address": "0x4A41657DD6b36Ef2376aC7Ee1a5eA50771e385b3",
  "abi": [
    {
      "inputs": [
        {
          "internalType": "address",
          "name": "prototype",
          "type": "address"
        }
      ],
      "name": "clone",
      "outputs": [
        {
          "internalType": "address",
          "name": "proxy",
          "type": "address"
        }
      ],
      "stateMutability": "nonpayable",
      "type": "function"
    }
  ],
  "transactionHash": "0x08d98292ad6c1bb31eba9cf3381d981caf9fc3ecfc308410f502406d06092086",
  "args": [],
  "numDeployments": 1,
  "solcInputHash": "010d19d2824a92bd25be986df93e8d50",
  "bytecode": "0x608060405234801561001057600080fd5b50610172806100206000396000f3fe608060405234801561001057600080fd5b506004361061002b5760003560e01c80638124b78e14610030575b600080fd5b61004361003e36600461010c565b61005f565b6040516001600160a01b03909116815260200160405180910390f35b6000808260601b9050604051733d602d80600a3d3981f3363d3d373d3d3d363d7360601b81528160148201526e5af43d82803e903d91602b57fd5bf360881b60288201526037816000f09250506001600160a01b0382166101065760405162461bcd60e51b815260206004820152601e60248201527f44756574436c6f6e65466163746f72793a2061646472657373207a65726f0000604482015260640160405180910390fd5b50919050565b60006020828403121561011e57600080fd5b81356001600160a01b038116811461013557600080fd5b939250505056fea264697066735822122083242ccf4dee1b1d0e4c3c67a285cced789e0770f072b8b8844486a2380cf4be64736f6c63430008090033",
  "devdoc": {
    "kind": "dev",
    "methods": {},
    "version": 1
  },
  "userdoc": {
    "kind": "user",
    "methods": {},
    "version": 1
  },
  "storageLayout": {
    "storage": [],
    "types": null
  }
}