{
  "address": "0x8e0d4beF4e13443ddb7Ac24E36B19fe44d70C45E",
  "abi": [
    {
      "inputs": [
        {
          "internalType": "address",
          "name": "prototype",
          "type": "address"
        }
      ],
      "name": "clone",
      "outputs": [
        {
          "internalType": "address",
          "name": "proxy",
          "type": "address"
        }
      ],
      "stateMutability": "nonpayable",
      "type": "function"
    }
  ],
  "transactionHash": "0xf10ebfa594602c40c17b93b50a43b3408f1869cd83c832808057f445f33adf87",
  "args": [],
  "numDeployments": 1,
  "solcInputHash": "dcc3fabce80967d9e00b0f08f1a0b4c4",
  "bytecode": "0x608060405234801561001057600080fd5b5061010e806100206000396000f3fe6080604052348015600f57600080fd5b506004361060285760003560e01c80638124b78e14602d575b600080fd5b603c603836600460aa565b6058565b6040516001600160a01b03909116815260200160405180910390f35b6000808260601b9050604051733d602d80600a3d3981f3363d3d373d3d3d363d7360601b81528160148201526e5af43d82803e903d91602b57fd5bf360881b60288201526037816000f0949350505050565b60006020828403121560bb57600080fd5b81356001600160a01b038116811460d157600080fd5b939250505056fea2646970667358221220bd782f5ca495ee7e905aef1424360ac2e844f2123c8fe504595789cb45f88dff64736f6c63430008090033",
  "devdoc": {
    "kind": "dev",
    "methods": {},
    "version": 1
  },
  "userdoc": {
    "kind": "user",
    "methods": {},
    "version": 1
  },
  "storageLayout": {
    "storage": [],
    "types": null
  }
}