{
  "address": "0x7aeA9668339E42B3BC6debcF261D646953915a50",
  "abi": [
    {
      "anonymous": false,
      "inputs": [
        {
          "indexed": true,
          "internalType": "address",
          "name": "user",
          "type": "address"
        },
        {
          "indexed": true,
          "internalType": "address",
          "name": "newAdmin",
          "type": "address"
        }
      ],
      "name": "AdminUpdated",
      "type": "event"
    },
    {
      "anonymous": false,
      "inputs": [
        {
          "indexed": true,
          "internalType": "address",
          "name": "owner",
          "type": "address"
        },
        {
          "indexed": true,
          "internalType": "address",
          "name": "spender",
          "type": "address"
        },
        {
          "indexed": false,
          "internalType": "uint256",
          "name": "amount",
          "type": "uint256"
        }
      ],
      "name": "Approval",
      "type": "event"
    },
    {
      "anonymous": false,
      "inputs": [
        {
          "indexed": true,
          "internalType": "address",
          "name": "user",
          "type": "address"
        },
        {
          "indexed": false,
          "internalType": "uint256",
          "name": "value",
          "type": "uint256"
        }
      ],
      "name": "Burn",
      "type": "event"
    },
    {
      "anonymous": false,
      "inputs": [
        {
          "indexed": false,
          "internalType": "address",
          "name": "to",
          "type": "address"
        },
        {
          "indexed": false,
          "internalType": "uint256",
          "name": "increaseShares",
          "type": "uint256"
        },
        {
          "indexed": false,
          "internalType": "uint256",
          "name": "totalShares",
          "type": "uint256"
        }
      ],
      "name": "BuyShares",
      "type": "event"
    },
    {
      "anonymous": false,
      "inputs": [
        {
          "indexed": true,
          "internalType": "address",
          "name": "user",
          "type": "address"
        },
        {
          "indexed": false,
          "internalType": "uint256",
          "name": "value",
          "type": "uint256"
        }
      ],
      "name": "Mint",
      "type": "event"
    },
    {
      "anonymous": false,
      "inputs": [
        {
          "indexed": false,
          "internalType": "address",
          "name": "payer",
          "type": "address"
        },
        {
          "indexed": false,
          "internalType": "address",
          "name": "to",
          "type": "address"
        },
        {
          "indexed": false,
          "internalType": "uint256",
          "name": "decreaseShares",
          "type": "uint256"
        },
        {
          "indexed": false,
          "internalType": "uint256",
          "name": "totalShares",
          "type": "uint256"
        }
      ],
      "name": "SellShares",
      "type": "event"
    },
    {
      "anonymous": false,
      "inputs": [
        {
          "indexed": true,
          "internalType": "address",
          "name": "from",
          "type": "address"
        },
        {
          "indexed": true,
          "internalType": "address",
          "name": "to",
          "type": "address"
        },
        {
          "indexed": false,
          "internalType": "uint256",
          "name": "amount",
          "type": "uint256"
        }
      ],
      "name": "Transfer",
      "type": "event"
    },
    {
      "stateMutability": "payable",
      "type": "fallback"
    },
    {
      "inputs": [],
      "name": "DOMAIN_SEPARATOR",
      "outputs": [
        {
          "internalType": "bytes32",
          "name": "",
          "type": "bytes32"
        }
      ],
      "stateMutability": "view",
      "type": "function"
    },
    {
      "inputs": [],
      "name": "MINIMUM_SUPPLY",
      "outputs": [
        {
          "internalType": "uint256",
          "name": "",
          "type": "uint256"
        }
      ],
      "stateMutability": "view",
      "type": "function"
    },
    {
      "inputs": [],
      "name": "PERMIT_TYPEHASH",
      "outputs": [
        {
          "internalType": "bytes32",
          "name": "",
          "type": "bytes32"
        }
      ],
      "stateMutability": "view",
      "type": "function"
    },
    {
      "inputs": [],
      "name": "_BASE_TOKEN_",
      "outputs": [
        {
          "internalType": "contract IERC20Metadata",
          "name": "",
          "type": "address"
        }
      ],
      "stateMutability": "view",
      "type": "function"
    },
    {
      "inputs": [],
      "name": "_DPP_ADDRESS_",
      "outputs": [
        {
          "internalType": "address",
          "name": "",
          "type": "address"
        }
      ],
      "stateMutability": "view",
      "type": "function"
    },
    {
      "inputs": [],
      "name": "_DPP_ADMIN_ADDRESS_",
      "outputs": [
        {
          "internalType": "address",
          "name": "",
          "type": "address"
        }
      ],
      "stateMutability": "view",
      "type": "function"
    },
    {
      "inputs": [],
      "name": "_I_",
      "outputs": [
        {
          "internalType": "uint128",
          "name": "",
          "type": "uint128"
        }
      ],
      "stateMutability": "view",
      "type": "function"
    },
    {
      "inputs": [],
      "name": "_K_",
      "outputs": [
        {
          "internalType": "uint64",
          "name": "",
          "type": "uint64"
        }
      ],
      "stateMutability": "view",
      "type": "function"
    },
    {
      "inputs": [],
      "name": "_LP_FEE_RATE_",
      "outputs": [
        {
          "internalType": "uint64",
          "name": "",
          "type": "uint64"
        }
      ],
      "stateMutability": "view",
      "type": "function"
    },
    {
      "inputs": [],
      "name": "_QUOTE_TOKEN_",
      "outputs": [
        {
          "internalType": "contract IERC20Metadata",
          "name": "",
          "type": "address"
        }
      ],
      "stateMutability": "view",
      "type": "function"
    },
    {
      "inputs": [],
      "name": "_WETH_",
      "outputs": [
        {
          "internalType": "address",
          "name": "",
          "type": "address"
        }
      ],
      "stateMutability": "view",
      "type": "function"
    },
    {
      "inputs": [
        {
          "internalType": "uint256",
          "name": "baseInAmount",
          "type": "uint256"
        },
        {
          "internalType": "uint256",
          "name": "quoteInAmount",
          "type": "uint256"
        },
        {
          "internalType": "uint256",
          "name": "baseMinAmount",
          "type": "uint256"
        },
        {
          "internalType": "uint256",
          "name": "quoteMinAmount",
          "type": "uint256"
        },
        {
          "internalType": "uint8",
          "name": "flag",
          "type": "uint8"
        },
        {
          "internalType": "uint256",
          "name": "deadLine",
          "type": "uint256"
        }
      ],
      "name": "addDuetDppLiquidity",
      "outputs": [
        {
          "internalType": "uint256",
          "name": "shares",
          "type": "uint256"
        },
        {
          "internalType": "uint256",
          "name": "baseAdjustedInAmount",
          "type": "uint256"
        },
        {
          "internalType": "uint256",
          "name": "quoteAdjustedInAmount",
          "type": "uint256"
        }
      ],
      "stateMutability": "payable",
      "type": "function"
    },
    {
      "inputs": [
        {
          "internalType": "address",
          "name": "_addr",
          "type": "address"
        }
      ],
      "name": "addressToShortString",
      "outputs": [
        {
          "internalType": "string",
          "name": "",
          "type": "string"
        }
      ],
      "stateMutability": "pure",
      "type": "function"
    },
    {
      "inputs": [],
      "name": "admin",
      "outputs": [
        {
          "internalType": "address",
          "name": "",
          "type": "address"
        }
      ],
      "stateMutability": "view",
      "type": "function"
    },
    {
      "inputs": [
        {
          "internalType": "address",
          "name": "owner",
          "type": "address"
        },
        {
          "internalType": "address",
          "name": "spender",
          "type": "address"
        }
      ],
      "name": "allowance",
      "outputs": [
        {
          "internalType": "uint256",
          "name": "",
          "type": "uint256"
        }
      ],
      "stateMutability": "view",
      "type": "function"
    },
    {
      "inputs": [
        {
          "internalType": "address",
          "name": "spender",
          "type": "address"
        },
        {
          "internalType": "uint256",
          "name": "amount",
          "type": "uint256"
        }
      ],
      "name": "approve",
      "outputs": [
        {
          "internalType": "bool",
          "name": "",
          "type": "bool"
        }
      ],
      "stateMutability": "nonpayable",
      "type": "function"
    },
    {
      "inputs": [
        {
          "internalType": "address",
          "name": "owner",
          "type": "address"
        }
      ],
      "name": "balanceOf",
      "outputs": [
        {
          "internalType": "uint256",
          "name": "balance",
          "type": "uint256"
        }
      ],
      "stateMutability": "view",
      "type": "function"
    },
    {
      "inputs": [
        {
          "internalType": "uint256",
          "name": "newBaseR_",
          "type": "uint256"
        },
        {
          "internalType": "uint256",
          "name": "newQuoteR_",
          "type": "uint256"
        }
      ],
      "name": "changeMinRes",
      "outputs": [],
      "stateMutability": "nonpayable",
      "type": "function"
    },
    {
      "inputs": [
        {
          "internalType": "address",
          "name": "newOracle",
          "type": "address"
        }
      ],
      "name": "changeOracle",
      "outputs": [],
      "stateMutability": "nonpayable",
      "type": "function"
    },
    {
      "inputs": [],
      "name": "decimals",
      "outputs": [
        {
          "internalType": "uint8",
          "name": "",
          "type": "uint8"
        }
      ],
      "stateMutability": "view",
      "type": "function"
    },
    {
      "inputs": [
        {
          "internalType": "uint256",
          "name": "newI",
          "type": "uint256"
        }
      ],
      "name": "disableOracle",
      "outputs": [],
      "stateMutability": "nonpayable",
      "type": "function"
    },
    {
      "inputs": [],
      "name": "enableOracle",
      "outputs": [],
      "stateMutability": "nonpayable",
      "type": "function"
    },
    {
      "inputs": [
        {
          "internalType": "address",
          "name": "admin",
          "type": "address"
        },
        {
          "internalType": "address",
          "name": "dppAddress",
          "type": "address"
        },
        {
          "internalType": "address",
          "name": "dppAdminAddress",
          "type": "address"
        },
        {
          "internalType": "address",
          "name": "weth",
          "type": "address"
        }
      ],
      "name": "init",
      "outputs": [],
      "stateMutability": "nonpayable",
      "type": "function"
    },
    {
      "inputs": [],
      "name": "minBaseReserve",
      "outputs": [
        {
          "internalType": "uint256",
          "name": "",
          "type": "uint256"
        }
      ],
      "stateMutability": "view",
      "type": "function"
    },
    {
      "inputs": [],
      "name": "minQuoteReserve",
      "outputs": [
        {
          "internalType": "uint256",
          "name": "",
          "type": "uint256"
        }
      ],
      "stateMutability": "view",
      "type": "function"
    },
    {
      "inputs": [],
      "name": "name",
      "outputs": [
        {
          "internalType": "string",
          "name": "",
          "type": "string"
        }
      ],
      "stateMutability": "view",
      "type": "function"
    },
    {
      "inputs": [
        {
          "internalType": "address",
          "name": "",
          "type": "address"
        }
      ],
      "name": "nonces",
      "outputs": [
        {
          "internalType": "uint256",
          "name": "",
          "type": "uint256"
        }
      ],
      "stateMutability": "view",
      "type": "function"
    },
    {
      "inputs": [
        {
          "internalType": "address",
          "name": "owner",
          "type": "address"
        },
        {
          "internalType": "address",
          "name": "spender",
          "type": "address"
        },
        {
          "internalType": "uint256",
          "name": "value",
          "type": "uint256"
        },
        {
          "internalType": "uint256",
          "name": "deadline",
          "type": "uint256"
        },
        {
          "internalType": "uint8",
          "name": "v",
          "type": "uint8"
        },
        {
          "internalType": "bytes32",
          "name": "r",
          "type": "bytes32"
        },
        {
          "internalType": "bytes32",
          "name": "s",
          "type": "bytes32"
        }
      ],
      "name": "permit",
      "outputs": [],
      "stateMutability": "nonpayable",
      "type": "function"
    },
    {
      "inputs": [
        {
          "internalType": "uint256",
          "name": "shareAmount_",
          "type": "uint256"
        }
      ],
      "name": "recommendBaseAndQuote",
      "outputs": [
        {
          "internalType": "uint256",
          "name": "baseAmount",
          "type": "uint256"
        },
        {
          "internalType": "uint256",
          "name": "quoteAmount",
          "type": "uint256"
        }
      ],
      "stateMutability": "view",
      "type": "function"
    },
    {
      "inputs": [
        {
          "internalType": "uint256",
          "name": "quoteInAmount_",
          "type": "uint256"
        }
      ],
      "name": "recommendBaseInAmount",
      "outputs": [
        {
          "internalType": "uint256",
          "name": "baseAdjustedInAmount",
          "type": "uint256"
        },
        {
          "internalType": "uint256",
          "name": "quoteAdjustedInAmount",
          "type": "uint256"
        }
      ],
      "stateMutability": "view",
      "type": "function"
    },
    {
      "inputs": [
        {
          "internalType": "uint256",
          "name": "baseInAmount_",
          "type": "uint256"
        }
      ],
      "name": "recommendQuoteInAmount",
      "outputs": [
        {
          "internalType": "uint256",
          "name": "baseAdjustedInAmount",
          "type": "uint256"
        },
        {
          "internalType": "uint256",
          "name": "quoteAdjustedInAmount",
          "type": "uint256"
        }
      ],
      "stateMutability": "view",
      "type": "function"
    },
    {
      "inputs": [
        {
          "internalType": "uint256",
          "name": "shareAmount",
          "type": "uint256"
        },
        {
          "internalType": "uint256",
          "name": "baseMinAmount",
          "type": "uint256"
        },
        {
          "internalType": "uint256",
          "name": "quoteMinAmount",
          "type": "uint256"
        },
        {
          "internalType": "uint8",
          "name": "flag",
          "type": "uint8"
        },
        {
          "internalType": "uint256",
          "name": "deadLine",
          "type": "uint256"
        }
      ],
      "name": "removeDuetDppLiquidity",
      "outputs": [
        {
          "internalType": "uint256",
          "name": "shares",
          "type": "uint256"
        },
        {
          "internalType": "uint256",
          "name": "baseOutAmount",
          "type": "uint256"
        },
        {
          "internalType": "uint256",
          "name": "quoteOutAmount",
          "type": "uint256"
        }
      ],
      "stateMutability": "nonpayable",
      "type": "function"
    },
    {
      "inputs": [
        {
          "internalType": "address",
          "name": "newAdmin",
          "type": "address"
        }
      ],
      "name": "setAdmin",
      "outputs": [],
      "stateMutability": "nonpayable",
      "type": "function"
    },
    {
      "inputs": [
        {
          "internalType": "uint256",
          "name": "timestamp_",
          "type": "uint256"
        }
      ],
      "name": "setFreezeTimestamp",
      "outputs": [],
      "stateMutability": "nonpayable",
      "type": "function"
    },
    {
      "inputs": [],
      "name": "symbol",
      "outputs": [
        {
          "internalType": "string",
          "name": "",
          "type": "string"
        }
      ],
      "stateMutability": "view",
      "type": "function"
    },
    {
      "inputs": [],
      "name": "totalSupply",
      "outputs": [
        {
          "internalType": "uint256",
          "name": "",
          "type": "uint256"
        }
      ],
      "stateMutability": "view",
      "type": "function"
    },
    {
      "inputs": [
        {
          "internalType": "address",
          "name": "to",
          "type": "address"
        },
        {
          "internalType": "uint256",
          "name": "amount",
          "type": "uint256"
        }
      ],
      "name": "transfer",
      "outputs": [
        {
          "internalType": "bool",
          "name": "",
          "type": "bool"
        }
      ],
      "stateMutability": "nonpayable",
      "type": "function"
    },
    {
      "inputs": [
        {
          "internalType": "address",
          "name": "from",
          "type": "address"
        },
        {
          "internalType": "address",
          "name": "to",
          "type": "address"
        },
        {
          "internalType": "uint256",
          "name": "amount",
          "type": "uint256"
        }
      ],
      "name": "transferFrom",
      "outputs": [
        {
          "internalType": "bool",
          "name": "",
          "type": "bool"
        }
      ],
      "stateMutability": "nonpayable",
      "type": "function"
    },
    {
      "inputs": [
        {
          "internalType": "uint256",
          "name": "newLpFeeRate",
          "type": "uint256"
        },
        {
          "internalType": "uint256",
          "name": "newI",
          "type": "uint256"
        },
        {
          "internalType": "uint256",
          "name": "newK",
          "type": "uint256"
        },
        {
          "internalType": "uint256",
          "name": "minBaseReserve_",
          "type": "uint256"
        },
        {
          "internalType": "uint256",
          "name": "minQuoteReserve_",
          "type": "uint256"
        }
      ],
      "name": "tuneParameters",
      "outputs": [
        {
          "internalType": "bool",
          "name": "",
          "type": "bool"
        }
      ],
      "stateMutability": "nonpayable",
      "type": "function"
    },
    {
      "inputs": [
        {
          "internalType": "uint256",
          "name": "newI",
          "type": "uint256"
        },
        {
          "internalType": "uint256",
          "name": "minBaseReserve_",
          "type": "uint256"
        },
        {
          "internalType": "uint256",
          "name": "minQuoteReserve_",
          "type": "uint256"
        }
      ],
      "name": "tunePrice",
      "outputs": [
        {
          "internalType": "bool",
          "name": "",
          "type": "bool"
        }
      ],
      "stateMutability": "nonpayable",
      "type": "function"
    },
    {
      "stateMutability": "payable",
      "type": "receive"
    }
  ],
  "transactionHash": "0x78429f03d12c0843ca3eabf648cc1e9a6717bdb37482f8af47d821002e6faf0c",
  "args": [],
  "numDeployments": 1,
  "solcInputHash": "dcc3fabce80967d9e00b0f08f1a0b4c4",
  "bytecode": "0x6080604052600f805460ff60a01b191690556000601081905560115534801561002757600080fd5b506001600e55613e2b8061003c6000396000f3fe6080604052600436106102275760003560e01c8063704b6c0211610122578063c9775a44116100a5578063dee624171161006c578063dee6241714610740578063e7bd25fa14610756578063ec2fd46d14610776578063f811d6921461079e578063f851a440146107d657005b8063c9775a441461067a578063cf877e7b1461069a578063d4b97046146106ba578063d505accf146106da578063dd62ed3e146106fa57005b806395d89b41116100e957806395d89b41146105ce5780639a3ce49b146105e35780639c6cb682146105f9578063a9059cbb14610619578063ab44a7a31461063957005b8063704b6c02146104fd57806370a082311461051d5780637a06ab3e146105535780637d1b5d9c146105815780637ecebe00146105a157005b80632bb42fb8116101aa57806347c421b51161017157806347c421b514610452578063491f088f146104725780634a248d2a146104a75780636a56e046146104c75780636e734306146104dd57005b80632bb42fb81461039c57806330adf81f146103bc578063313ce567146103f05780633644e5151461041c5780633b20884a1461043257005b806310d76460116101ee57806310d7646014610303578063171019401461032357806318160ddd1461034357806323b872dd14610367578063292c914a1461038757005b806306552ff31461023057806306fdde0314610250578063095ea7b31461027b5780630a953924146102ab5780630d4eec8f146102cb57005b3661022e57005b005b34801561023c57600080fd5b5061022e61024b36600461359a565b6107f6565b34801561025c57600080fd5b50610265610cf8565b6040516102729190613622565b60405180910390f35b34801561028757600080fd5b5061029b610296366004613655565b610d86565b6040519015158152602001610272565b3480156102b757600080fd5b5061022e6102c6366004613681565b610d9d565b3480156102d757600080fd5b50600f546102eb906001600160a01b031681565b6040516001600160a01b039091168152602001610272565b34801561030f57600080fd5b5061029b61031e3660046136a3565b610dd2565b34801561032f57600080fd5b5061026561033e3660046136cf565b610e9c565b34801561034f57600080fd5b5061035960095481565b604051908152602001610272565b34801561037357600080fd5b5061029b6103823660046136ec565b61101f565b34801561039357600080fd5b5061022e6111cc565b3480156103a857600080fd5b5061022e6103b736600461372d565b61137f565b3480156103c857600080fd5b506103597f6e71edae12b1b97f4d1f60370fef10105fa2faae0126114a169c64845d6126c981565b3480156103fc57600080fd5b5060075461040a9060ff1681565b60405160ff9091168152602001610272565b34801561042857600080fd5b50610359600c5481565b34801561043e57600080fd5b5061029b61044d366004613746565b6113f0565b34801561045e57600080fd5b5061022e61046d3660046136cf565b6114ca565b34801561047e57600080fd5b5061049261048d36600461372d565b6115c2565b60408051928352602083019190915201610272565b3480156104b357600080fd5b506003546102eb906001600160a01b031681565b3480156104d357600080fd5b506103596103e981565b3480156104e957600080fd5b506104926104f836600461372d565b611683565b34801561050957600080fd5b5061022e6105183660046136cf565b61169c565b34801561052957600080fd5b506103596105383660046136cf565b6001600160a01b03166000908152600a602052604090205490565b610566610561366004613790565b6116d2565b60408051938452602084019290925290820152606001610272565b34801561058d57600080fd5b5061022e61059c36600461372d565b611b40565b3480156105ad57600080fd5b506103596105bc3660046136cf565b600d6020526000908152604090205481565b3480156105da57600080fd5b50610265611bf6565b3480156105ef57600080fd5b5061035960115481565b34801561060557600080fd5b506002546102eb906001600160a01b031681565b34801561062557600080fd5b5061029b610634366004613655565b611c03565b34801561064557600080fd5b5060045461066190600160a01b900467ffffffffffffffff1681565b60405167ffffffffffffffff9091168152602001610272565b34801561068657600080fd5b5061049261069536600461372d565b611ced565b3480156106a657600080fd5b506001546102eb906001600160a01b031681565b3480156106c657600080fd5b506004546102eb906001600160a01b031681565b3480156106e657600080fd5b5061022e6106f53660046137e5565b611cfc565b34801561070657600080fd5b50610359610715366004613856565b6001600160a01b039182166000908152600b6020908152604080832093909416825291909152205490565b34801561074c57600080fd5b5061035960105481565b34801561076257600080fd5b5061056661077136600461388f565b611f0e565b34801561078257600080fd5b5060055461066190600160801b900467ffffffffffffffff1681565b3480156107aa57600080fd5b506005546107be906001600160801b031681565b6040516001600160801b039091168152602001610272565b3480156107e257600080fd5b506000546102eb906001600160a01b031681565b600f54600160a01b900460ff161561084d5760405162461bcd60e51b81526020600482015260156024820152741a185d99481899595b881a5b9a5d1a585b1a5e9959605a1b60448201526064015b60405180910390fd5b600f80546001600160a01b038084166001600160a81b031990921691909117600160a01b17909155600180548583166001600160a01b03199182161790915560028054928516929091169190911790556108a684612264565b600160009054906101000a90046001600160a01b03166001600160a01b0316634a248d2a6040518163ffffffff1660e01b815260040160206040518083038186803b1580156108f457600080fd5b505afa158015610908573d6000803e3d6000fd5b505050506040513d601f19601f8201168201806040525081019061092c91906138d8565b600380546001600160a01b0319166001600160a01b0392831617905560015460408051636a5cb82360e11b81529051919092169163d4b97046916004808301926020929190829003018186803b15801561098557600080fd5b505afa158015610999573d6000803e3d6000fd5b505050506040513d601f19601f820116820180604052508101906109bd91906138d8565b600480546001600160a01b0319166001600160a01b03929092169190911790556109e561230f565b6000604051806040016040528060018152602001602d60f81b8152509050600060405180604001604052806007815260200166447565744c505f60c81b815250905080600360009054906101000a90046001600160a01b03166001600160a01b03166395d89b416040518163ffffffff1660e01b815260040160006040518083038186803b158015610a7657600080fd5b505afa158015610a8a573d6000803e3d6000fd5b505050506040513d6000823e601f3d908101601f19168201604052610ab2919081019061390b565b83600460009054906101000a90046001600160a01b03166001600160a01b03166395d89b416040518163ffffffff1660e01b815260040160006040518083038186803b158015610b0157600080fd5b505afa158015610b15573d6000803e3d6000fd5b505050506040513d6000823e601f3d908101601f19168201604052610b3d919081019061390b565b604051602001610b5094939291906139ad565b60405160208183030381529060405260089080519060200190610b749291906134ec565b50604080518082019091526007808252660447565742d4c560cc1b6020909201918252610ba3916006916134ec565b50600360009054906101000a90046001600160a01b03166001600160a01b031663313ce5676040518163ffffffff1660e01b815260040160206040518083038186803b158015610bf257600080fd5b505afa158015610c06573d6000803e3d6000fd5b505050506040513d601f19601f82011682018060405250810190610c2a9190613a04565b6007805460ff191660ff9290921691909117905560405146907f8b73c3c69bb8fe3d512ecc4cf759cc79239f7b179b0ffacaa9a75d522b39400f90610c7190600890613a5c565b60408051918290038220828201825260018352603160f81b6020938401528151928301939093528101919091527fc89efdaa54c0f20c7adf612882df0950f5a951637e0307cdcb4c672f298b8bc66060820152608081018290523060a082015260c00160408051601f198184030181529190528051602090910120600c5550505050505050565b60088054610d0590613a21565b80601f0160208091040260200160405190810160405280929190818152602001828054610d3190613a21565b8015610d7e5780601f10610d5357610100808354040283529160200191610d7e565b820191906000526020600020905b815481529060010190602001808311610d6157829003601f168201915b505050505081565b6000610d9333848461251a565b5060015b92915050565b6000546001600160a01b03163314610dc75760405162461bcd60e51b815260040161084490613af8565b601091909155601155565b600080546001600160a01b03163314610dfd5760405162461bcd60e51b815260040161084490613af8565b6002546040516286bb2360e51b81526004810186905260248101859052604481018490526001600160a01b03909116906310d7646090606401602060405180830381600087803b158015610e5057600080fd5b505af1158015610e64573d6000803e3d6000fd5b505050506040513d601f19601f82011682018060405250810190610e889190613b1e565b50610e9161230f565b5060015b9392505050565b604080518082018252601081526f181899199a1a9b1b9c1cb0b131b232b360811b6020820152815160088082528184019093526060926001600160a01b038516929160009160208201818036833701905050905060005b60048110156110165782600485610f0b84600c613b56565b60208110610f1b57610f1b613b6e565b1a60f81b6001600160f81b031916901c60f81c60ff1681518110610f4157610f41613b6e565b01602001516001600160f81b03191682610f5c836002613b84565b81518110610f6c57610f6c613b6e565b60200101906001600160f81b031916908160001a9053508284610f9083600c613b56565b60208110610fa057610fa0613b6e565b825191901a600f16908110610fb757610fb7613b6e565b01602001516001600160f81b03191682610fd2836002613b84565b610fdd906001613b56565b81518110610fed57610fed613b6e565b60200101906001600160f81b031916908160001a9053508061100e81613ba3565b915050610ef3565b50949350505050565b6001600160a01b0383166000908152600a602052604081205482111561107c5760405162461bcd60e51b81526020600482015260126024820152710848298829c868abe9c9ea8be8a9c9eaa8e960731b6044820152606401610844565b6001600160a01b0384166000908152600b602090815260408083203384529091529020548211156110e65760405162461bcd60e51b815260206004820152601460248201527308298989eae829c868abe9c9ea8be8a9c9eaa8e960631b6044820152606401610844565b6001600160a01b0384166000908152600a6020526040902054611109908361257b565b6001600160a01b038086166000908152600a602052604080822093909355908516815220546111389083612587565b6001600160a01b038085166000908152600a60209081526040808320949094559187168152600b82528281203382529091522054611176908361257b565b6001600160a01b038581166000818152600b602090815260408083203384528252918290209490945551858152918616929091600080516020613dd6833981519152910160405180910390a35060019392505050565b6000546001600160a01b031633146111f65760405162461bcd60e51b815260040161084490613af8565b600154604080516373563cb960e01b815290516000926001600160a01b0316916373563cb991600480830192602092919082900301818787803b15801561123c57600080fd5b505af1158015611250573d6000803e3d6000fd5b505050506040513d601f19601f8201168201806040525081019061127491906138d8565b60035460405163cfed246b60e01b81526001600160a01b0391821660048201529192506000919083169063cfed246b9060240160206040518083038186803b1580156112bf57600080fd5b505afa1580156112d3573d6000803e3d6000fd5b505050506040513d601f19601f820116820180604052508101906112f79190613bbe565b116113145760405162461bcd60e51b815260040161084490613bd7565b600260009054906101000a90046001600160a01b03166001600160a01b031663292c914a6040518163ffffffff1660e01b8152600401600060405180830381600087803b15801561136457600080fd5b505af1158015611378573d6000803e3d6000fd5b5050505050565b6000546001600160a01b031633146113a95760405162461bcd60e51b815260040161084490613af8565b60025460405163057685f760e31b8152600481018390526001600160a01b0390911690632bb42fb8906024015b600060405180830381600087803b15801561136457600080fd5b600080546001600160a01b0316331461141b5760405162461bcd60e51b815260040161084490613af8565b600254604051631d90442560e11b815260048101889052602481018790526044810186905260648101859052608481018490526001600160a01b0390911690633b20884a9060a401602060405180830381600087803b15801561147d57600080fd5b505af1158015611491573d6000803e3d6000fd5b505050506040513d601f19601f820116820180604052508101906114b59190613b1e565b506114be61230f565b50600195945050505050565b6000546001600160a01b031633146114f45760405162461bcd60e51b815260040161084490613af8565b60035460405163cfed246b60e01b81526001600160a01b03918216600482015260009183169063cfed246b9060240160206040518083038186803b15801561153b57600080fd5b505afa15801561154f573d6000803e3d6000fd5b505050506040513d601f19601f820116820180604052508101906115739190613bbe565b116115905760405162461bcd60e51b815260040161084490613bd7565b6002546040516347c421b560e01b81526001600160a01b038381166004830152909116906347c421b5906024016113d6565b600080600080600160009054906101000a90046001600160a01b03166001600160a01b03166336223ce96040518163ffffffff1660e01b8152600401604080518083038186803b15801561161557600080fd5b505afa158015611629573d6000803e3d6000fd5b505050506040513d601f19601f8201168201806040525081019061164d9190613c20565b6009549193509150611669816116638589612593565b9061259f565b9450611679816116638489612593565b9350505050915091565b60008061169360008460016125ab565b91509150915091565b6000546001600160a01b031633146116c65760405162461bcd60e51b815260040161084490613af8565b6116cf81612264565b50565b60008060006002600e54141561172a5760405162461bcd60e51b815260206004820152601f60248201527f5265656e7472616e637947756172643a207265656e7472616e742063616c6c006044820152606401610844565b6002600e5583428110156117805760405162461bcd60e51b815260206004820152601c60248201527f447565742044707020436f6e74726f6c6c65723a2045585049524544000000006044820152606401610844565b61178a8a8a612703565b909350915087831080159061179f5750868210155b6118055760405162461bcd60e51b815260206004820152603160248201527f447565742044707020436f6e74726f6c6c65723a206465706f73697420616d6f6044820152700eadce840d2e640dcdee840cadcdeeaced607b1b6064820152608401610844565b60015460408051632512469560e11b815290516118969233926001600160a01b03909116918291634a248d2a916004808301926020929190829003018186803b15801561185157600080fd5b505afa158015611865573d6000803e3d6000fd5b505050506040513d601f19601f8201168201806040525081019061188991906138d8565b868a60ff16600114612859565b60015460408051636a5cb82360e11b815290516119279233926001600160a01b0390911691829163d4b97046916004808301926020929190829003018186803b1580156118e257600080fd5b505afa1580156118f6573d6000803e3d6000fd5b505050506040513d601f19601f8201168201806040525081019061191a91906138d8565b858a60ff16600214612859565b61193033612958565b50506001546040805163058122f160e21b815290519296506001600160a01b03909116916316048bc4916004808201926020929091908290030181600087803b15801561197c57600080fd5b505af1158015611990573d6000803e3d6000fd5b505050506040513d601f19601f820116820180604052508101906119b491906138d8565b600480546005546010546011546040516323fce4a360e21b81526001600160a01b039690961695638ff3928c95611a1f95309567ffffffffffffffff600160a01b9092048216956001600160801b03821695600160801b909204909216936000938493929101613c44565b602060405180830381600087803b158015611a3957600080fd5b505af1158015611a4d573d6000803e3d6000fd5b505050506040513d601f19601f82011682018060405250810190611a719190613b1e565b611a8d5760405162461bcd60e51b815260040161084490613c9e565b8560ff166001148015611a9f57508234115b15611adc57336108fc611ab28534613cdf565b6040518115909202916000818181858888f19350505050158015611ada573d6000803e3d6000fd5b505b8560ff166002148015611aee57508134115b15611b2b57336108fc611b018434613cdf565b6040518115909202916000818181858888f19350505050158015611b29573d6000803e3d6000fd5b505b506001600e8190555096509650969350505050565b6000546001600160a01b03163314611b6a5760405162461bcd60e51b815260040161084490613af8565b60008111611bc55760405162461bcd60e51b815260206004820152602260248201527f447565742044707020436f6e74726f6c6c65723a20696e7661696c64206e6577604482015261204960f01b6064820152608401610844565b600254604051631f46d76760e21b8152600481018390526001600160a01b0390911690637d1b5d9c906024016113d6565b60068054610d0590613a21565b336000908152600a6020526040812054821115611c575760405162461bcd60e51b81526020600482015260126024820152710848298829c868abe9c9ea8be8a9c9eaa8e960731b6044820152606401610844565b336000908152600a6020526040902054611c71908361257b565b336000908152600a6020526040808220929092556001600160a01b03851681522054611c9d9083612587565b6001600160a01b0384166000818152600a6020526040908190209290925590513390600080516020613dd683398151915290611cdc9086815260200190565b60405180910390a350600192915050565b600080611693836000806125ab565b42841015611d3f5760405162461bcd60e51b815260206004820152601060248201526f111d595d17d3140e881156141254915160821b6044820152606401610844565b600c546001600160a01b0388166000908152600d6020526040812080549192917f6e71edae12b1b97f4d1f60370fef10105fa2faae0126114a169c64845d6126c9918b918b918b919087611d9283613ba3565b909155506040805160208101969096526001600160a01b0394851690860152929091166060840152608083015260a082015260c0810187905260e00160405160208183030381529060405280519060200120604051602001611e0b92919061190160f01b81526002810192909252602282015260420190565b60408051601f198184030181528282528051602091820120600080855291840180845281905260ff88169284019290925260608301869052608083018590529092509060019060a0016020604051602081039080840390855afa158015611e76573d6000803e3d6000fd5b5050604051601f1901519150506001600160a01b03811615801590611eac5750886001600160a01b0316816001600160a01b0316145b611ef85760405162461bcd60e51b815260206004820152601a60248201527f447565745f4c503a20494e56414c49445f5349474e41545552450000000000006044820152606401610844565b611f0389898961251a565b505050505050505050565b60008060006002600e541415611f665760405162461bcd60e51b815260206004820152601f60248201527f5265656e7472616e637947756172643a207265656e7472616e742063616c6c006044820152606401610844565b6002600e558342811015611fbc5760405162461bcd60e51b815260206004820152601c60248201527f447565742044707020436f6e74726f6c6c65723a2045585049524544000000006044820152606401610844565b611fc889338a8a612cab565b6001546040805163058122f160e21b815290519396509194506001600160a01b0316916316048bc4916004808201926020929091908290030181600087803b15801561201357600080fd5b505af1158015612027573d6000803e3d6000fd5b505050506040513d601f19601f8201168201806040525081019061204b91906138d8565b600480546005546010546011546040516323fce4a360e21b81526001600160a01b039690961695638ff3928c956120b595309567ffffffffffffffff600160a01b9092048216956001600160801b03821695600160801b909204909216938d938d93929101613c44565b602060405180830381600087803b1580156120cf57600080fd5b505af11580156120e3573d6000803e3d6000fd5b505050506040513d601f19601f820116820180604052508101906121079190613b1e565b6121235760405162461bcd60e51b815260040161084490613c9e565b6121ba33600160009054906101000a90046001600160a01b03166001600160a01b0316634a248d2a6040518163ffffffff1660e01b815260040160206040518083038186803b15801561217557600080fd5b505afa158015612189573d6000803e3d6000fd5b505050506040513d601f19601f820116820180604052508101906121ad91906138d8565b858960ff16600314612e94565b61225133600160009054906101000a90046001600160a01b03166001600160a01b031663d4b970466040518163ffffffff1660e01b815260040160206040518083038186803b15801561220c57600080fd5b505afa158015612220573d6000803e3d6000fd5b505050506040513d601f19601f8201168201806040525081019061224491906138d8565b848960ff16600414612e94565b506001600e559697909695509350505050565b6001600160a01b0381166122c45760405162461bcd60e51b815260206004820152602160248201527f43616e206e6f74207365742061646d696e20746f207a65726f206164647265736044820152607360f81b6064820152608401610844565b600080546001600160a01b0319166001600160a01b0383169081178255604051909133917f101b8081ff3b56bbf45deb824d86a3b0fd38b7e3dd42421105cf8abe9106db0b9190a350565b600160009054906101000a90046001600160a01b03166001600160a01b031663ab44a7a36040518163ffffffff1660e01b8152600401602060405180830381600087803b15801561235f57600080fd5b505af1158015612373573d6000803e3d6000fd5b505050506040513d601f19601f820116820180604052508101906123979190613cf6565b6004805467ffffffffffffffff92909216600160a01b0267ffffffffffffffff60a01b199092169190911781556001546040805163ec2fd46d60e01b815290516001600160a01b039092169263ec2fd46d9282820192602092908290030181600087803b15801561240757600080fd5b505af115801561241b573d6000803e3d6000fd5b505050506040513d601f19601f8201168201806040525081019061243f9190613cf6565b600560106101000a81548167ffffffffffffffff021916908367ffffffffffffffff160217905550600160009054906101000a90046001600160a01b03166001600160a01b031663f811d6926040518163ffffffff1660e01b8152600401602060405180830381600087803b1580156124b757600080fd5b505af11580156124cb573d6000803e3d6000fd5b505050506040513d601f19601f820116820180604052508101906124ef9190613d20565b600580546fffffffffffffffffffffffffffffffff19166001600160801b0392909216919091179055565b6001600160a01b038381166000818152600b602090815260408083209487168084529482529182902085905590518481527f8c5be1e5ebec7d5bd14f71427d1e84f3dd0314c0f7b2291e5b200ac8c7c3b925910160405180910390a3505050565b6000610e958284613cdf565b6000610e958284613b56565b6000610e958284613b84565b6000610e958284613d49565b600080600080600160009054906101000a90046001600160a01b03166001600160a01b03166336223ce96040518163ffffffff1660e01b8152600401604080518083038186803b1580156125fe57600080fd5b505afa158015612612573d6000803e3d6000fd5b505050506040513d601f19601f820116820180604052508101906126369190613c20565b91509150806000148015612648575081155b1561267e576000546001600160a01b031633146126775760405162461bcd60e51b815260040161084490613d6b565b8693508592505b8015801561268c5750600082115b1561269957869350600092505b6000811180156126a95750600082115b156126f95760006126ba8884612f5b565b905060006126c88884612f5b565b905060ff87166126e6578895506126df8383612f79565b94506126f6565b8794506126f38482612f79565b95505b50505b5050935093915050565b600080600080600160009054906101000a90046001600160a01b03166001600160a01b03166336223ce96040518163ffffffff1660e01b8152600401604080518083038186803b15801561275657600080fd5b505afa15801561276a573d6000803e3d6000fd5b505050506040513d601f19601f8201168201806040525081019061278e9190613c20565b915091508060001480156127a0575081155b156127d6576000546001600160a01b031633146127cf5760405162461bcd60e51b815260040161084490613d6b565b8593508492505b801580156127e45750600082115b156127f157859350600092505b6000811180156128015750600082115b156128505760006128128784612f5b565b905060006128208784612f5b565b905080821161283d578795506128368383612f79565b945061284d565b86945061284a8482612f79565b95505b50505b50509250929050565b801561293d57811561293857813410156128a75760405162461bcd60e51b815260206004820152600f60248201526e4554485f56414c55455f57524f4e4760881b6044820152606401610844565b600f60009054906101000a90046001600160a01b03166001600160a01b031663d0e30db0836040518263ffffffff1660e01b81526004016000604051808303818588803b1580156128f757600080fd5b505af115801561290b573d6000803e3d6000fd5b505050506001600160a01b0385163014905061293857600f54612938906001600160a01b03168584612f98565b611378565b8115611378576113786001600160a01b038416868685613000565b6003546001546040516370a0823160e01b81526001600160a01b03918216600482015260009283928392839291909116906370a082319060240160206040518083038186803b1580156129aa57600080fd5b505afa1580156129be573d6000803e3d6000fd5b505050506040513d601f19601f820116820180604052508101906129e29190613bbe565b600480546001546040516370a0823160e01b81526001600160a01b039182169381019390935292935060009216906370a082319060240160206040518083038186803b158015612a3157600080fd5b505afa158015612a45573d6000803e3d6000fd5b505050506040513d601f19601f82011682018060405250810190612a699190613bbe565b600154604080516336223ce960e01b8152815193945060009384936001600160a01b0316926336223ce99260048082019391829003018186803b158015612aaf57600080fd5b505afa158015612ac3573d6000803e3d6000fd5b505050506040513d601f19601f82011682018060405250810190612ae79190613c20565b9092509050612af6848361257b565b9550612b02838261257b565b945060008611612b445760405162461bcd60e51b815260206004820152600d60248201526c1393d7d09054d157d253941555609a1b6044820152606401610844565b600954612bbd576103e8841015612b9d5760405162461bcd60e51b815260206004820152601c60248201527f494e53554646494349454e545f4c49515549444954595f4d494e4544000000006044820152606401610844565b612baa60006103e9613038565b612bb6846103e961257b565b9650612c3f565b600082118015612bcb575080155b15612be957612bb6826116636009548961259390919063ffffffff16565b600082118015612bf95750600081115b15612c3f576000612c0a8784612f5b565b90506000612c188784612f5b565b90506000828210612c295782612c2b565b815b9050612c3960095482612f79565b99505050505b612c498888613038565b6001600160a01b0388166000818152600a60209081526040918290205482519384529083018a905282820152517f1c172440bdebb59cd92a7f08f4227903a3305ab6f880cb25f93eddb66843a1029181900360600190a1505050509193909250565b6001600160a01b0383166000908152600a60205260408120548190861115612d0a5760405162461bcd60e51b8152602060048201526012602482015271088eacae8be98a0be9c9ea8be8a9c9eaa8e960731b6044820152606401610844565b600154604080516336223ce960e01b8152815160009384936001600160a01b03909116926336223ce99260048083019392829003018186803b158015612d4f57600080fd5b505afa158015612d63573d6000803e3d6000fd5b505050506040513d601f19601f82011682018060405250810190612d879190613c20565b6009549193509150612d9d81611663858c612593565b9450612dad81611663848c612593565b9350868510158015612dbf5750858410155b612e1c5760405162461bcd60e51b815260206004820152602860248201527f447565742044707020436f6e74726f6c6c65723a2057495448445241575f4e4f6044820152670a8be8a9c9eaa8e960c31b6064820152608401610844565b612e26888a613136565b6001600160a01b0388166000818152600a6020908152604091829020548251848152918201939093528082018c90526060810192909252517f55caccde83781f39bfc1296eff45655b6496729443a7d48958b18b3b685600a59181900360800190a150505094509492505050565b8015612f3b578115612f3657600f54604051632e1a7d4d60e01b8152600481018490526001600160a01b0390911690632e1a7d4d90602401600060405180830381600087803b158015612ee657600080fd5b505af1158015612efa573d6000803e3d6000fd5b50506040516001600160a01b038716925084156108fc02915084906000818181858888f19350505050158015612f34573d6000803e3d6000fd5b505b612f55565b8115612f5557612f556001600160a01b0384168584612f98565b50505050565b6000610e9582612f7385670de0b6b3a76400006131ec565b9061324d565b6000670de0b6b3a7640000612f8e84846131ec565b610e959190613d49565b6040516001600160a01b038316602482015260448101829052612ffb90849063a9059cbb60e01b906064015b60408051601f198184030181529190526020810180516001600160e01b03166001600160e01b031990931692909217909152613299565b505050565b6040516001600160a01b0380851660248301528316604482015260648101829052612f559085906323b872dd60e01b90608401612fc4565b6103e881116130785760405162461bcd60e51b815260206004820152600c60248201526b1352539517d253959053125160a21b6044820152606401610844565b6001600160a01b0382166000908152600a602052604090205461309b9082612587565b6001600160a01b0383166000908152600a60205260409020556009546130c19082612587565b6009556040518181526001600160a01b038316907f0f6798a560793a54c3bcfe86a93cde1e73087d944c0ea20544137d41213968859060200160405180910390a26040518181526001600160a01b03831690600090600080516020613dd6833981519152906020015b60405180910390a35050565b6001600160a01b0382166000908152600a6020526040902054613159908261257b565b6001600160a01b0383166000908152600a602052604090205560095461317f908261257b565b6009556040518181526001600160a01b038316907fcc16f5dbb4873280815c1ee09dbd06736cffcc184412cf7a71a0fdb75d397ca59060200160405180910390a26040518181526000906001600160a01b03841690600080516020613dd68339815191529060200161312a565b6000826131fb57506000610d97565b60006132078385613b84565b9050826132148583613d49565b14610e955760405162461bcd60e51b815260206004820152600960248201526826aaa62fa2a92927a960b91b6044820152606401610844565b600080821161328f5760405162461bcd60e51b815260206004820152600e60248201526d2224ab24a224a723afa2a92927a960911b6044820152606401610844565b610e958284613d49565b60006132ee826040518060400160405280602081526020017f5361666545524332303a206c6f772d6c6576656c2063616c6c206661696c6564815250856001600160a01b031661336b9092919063ffffffff16565b805190915015612ffb578080602001905181019061330c9190613b1e565b612ffb5760405162461bcd60e51b815260206004820152602a60248201527f5361666545524332303a204552433230206f7065726174696f6e20646964206e6044820152691bdd081cdd58d8d9595960b21b6064820152608401610844565b606061337a8484600085613382565b949350505050565b6060824710156133e35760405162461bcd60e51b815260206004820152602660248201527f416464726573733a20696e73756666696369656e742062616c616e636520666f6044820152651c8818d85b1b60d21b6064820152608401610844565b6001600160a01b0385163b61343a5760405162461bcd60e51b815260206004820152601d60248201527f416464726573733a2063616c6c20746f206e6f6e2d636f6e74726163740000006044820152606401610844565b600080866001600160a01b031685876040516134569190613db9565b60006040518083038185875af1925050503d8060008114613493576040519150601f19603f3d011682016040523d82523d6000602084013e613498565b606091505b50915091506134a88282866134b3565b979650505050505050565b606083156134c2575081610e95565b8251156134d25782518084602001fd5b8160405162461bcd60e51b81526004016108449190613622565b8280546134f890613a21565b90600052602060002090601f01602090048101928261351a5760008555613560565b82601f1061353357805160ff1916838001178555613560565b82800160010185558215613560579182015b82811115613560578251825591602001919060010190613545565b5061356c929150613570565b5090565b5b8082111561356c5760008155600101613571565b6001600160a01b03811681146116cf57600080fd5b600080600080608085870312156135b057600080fd5b84356135bb81613585565b935060208501356135cb81613585565b925060408501356135db81613585565b915060608501356135eb81613585565b939692955090935050565b60005b838110156136115781810151838201526020016135f9565b83811115612f555750506000910152565b60208152600082518060208401526136418160408501602087016135f6565b601f01601f19169190910160400192915050565b6000806040838503121561366857600080fd5b823561367381613585565b946020939093013593505050565b6000806040838503121561369457600080fd5b50508035926020909101359150565b6000806000606084860312156136b857600080fd5b505081359360208301359350604090920135919050565b6000602082840312156136e157600080fd5b8135610e9581613585565b60008060006060848603121561370157600080fd5b833561370c81613585565b9250602084013561371c81613585565b929592945050506040919091013590565b60006020828403121561373f57600080fd5b5035919050565b600080600080600060a0868803121561375e57600080fd5b505083359560208501359550604085013594606081013594506080013592509050565b60ff811681146116cf57600080fd5b60008060008060008060c087890312156137a957600080fd5b8635955060208701359450604087013593506060870135925060808701356137d081613781565b8092505060a087013590509295509295509295565b600080600080600080600060e0888a03121561380057600080fd5b873561380b81613585565b9650602088013561381b81613585565b95506040880135945060608801359350608088013561383981613781565b9699959850939692959460a0840135945060c09093013592915050565b6000806040838503121561386957600080fd5b823561387481613585565b9150602083013561388481613585565b809150509250929050565b600080600080600060a086880312156138a757600080fd5b85359450602086013593506040860135925060608601356138c781613781565b949793965091946080013592915050565b6000602082840312156138ea57600080fd5b8151610e9581613585565b634e487b7160e01b600052604160045260246000fd5b60006020828403121561391d57600080fd5b815167ffffffffffffffff8082111561393557600080fd5b818401915084601f83011261394957600080fd5b81518181111561395b5761395b6138f5565b604051601f8201601f19908116603f01168101908382118183101715613983576139836138f5565b8160405282815287602084870101111561399c57600080fd5b6134a88360208301602088016135f6565b600085516139bf818460208a016135f6565b8551908301906139d3818360208a016135f6565b85519101906139e68183602089016135f6565b84519101906139f98183602088016135f6565b019695505050505050565b600060208284031215613a1657600080fd5b8151610e9581613781565b600181811c90821680613a3557607f821691505b60208210811415613a5657634e487b7160e01b600052602260045260246000fd5b50919050565b600080835481600182811c915080831680613a7857607f831692505b6020808410821415613a9857634e487b7160e01b86526022600452602486fd5b818015613aac5760018114613abd57613aea565b60ff19861689528489019650613aea565b60008a81526020902060005b86811015613ae25781548b820152908501908301613ac9565b505084890196505b509498975050505050505050565b6020808252600c908201526b15539055551213d49256915160a21b604082015260600190565b600060208284031215613b3057600080fd5b81518015158114610e9557600080fd5b634e487b7160e01b600052601160045260246000fd5b60008219821115613b6957613b69613b40565b500190565b634e487b7160e01b600052603260045260246000fd5b6000816000190483118215151615613b9e57613b9e613b40565b500290565b6000600019821415613bb757613bb7613b40565b5060010190565b600060208284031215613bd057600080fd5b5051919050565b60208082526029908201527f447565742044707020436f6e74726f6c6c65723a20696e7661696c64206f7261604082015268636c6520707269636560b81b606082015260800190565b60008060408385031215613c3357600080fd5b505080516020909101519092909150565b6001600160a01b0398909816885267ffffffffffffffff96871660208901526001600160801b03959095166040880152929094166060860152608085015260a084019290925260c083019190915260e08201526101000190565b60208082526021908201527f447565742044707020436f6e74726f6c6c65723a205265736574204661696c656040820152601960fa1b606082015260800190565b600082821015613cf157613cf1613b40565b500390565b600060208284031215613d0857600080fd5b815167ffffffffffffffff81168114610e9557600080fd5b600060208284031215613d3257600080fd5b81516001600160801b0381168114610e9557600080fd5b600082613d6657634e487b7160e01b600052601260045260246000fd5b500490565b6020808252602e908201527f447565742044707020436f6e74726f6c6c65723a204d75737420696e6974696160408201526d3634bd32b210313c9030b236b4b760911b606082015260800190565b60008251613dcb8184602087016135f6565b919091019291505056feddf252ad1be2c89b69c2b068fc378daa952ba7f163c4a11628f55a4df523b3efa2646970667358221220125515400a0b651f6e0db0896f50e24f187cbb9dd4622604dba640b8b9419dcc64736f6c63430008090033",
  "devdoc": {
    "author": "So. Lu",
    "kind": "dev",
    "methods": {
      "addDuetDppLiquidity(uint256,uint256,uint256,uint256,uint8,uint256)": {
        "params": {
          "baseInAmount": "users declare adding base amount",
          "baseMinAmount": "slippage protection, baseInAmount *(1 - slippage)",
          "deadLine": "time limit",
          "flag": "describe token type, 0 - ERC20, 1 - baseInETH, 2 - quoteInETH",
          "quoteInAmount": "users declare adding quote amount",
          "quoteMinAmount": "slippage protection, quoteInAmount *(1 - slippage)"
        }
      },
      "allowance(address,address)": {
        "details": "Function to check the amount of tokens that an owner _ALLOWED_ to a spender.",
        "params": {
          "owner": "address The address which owns the funds.",
          "spender": "address The address which will spend the funds."
        },
        "returns": {
          "_0": "A uint256 specifying the amount of tokens still available for the spender."
        }
      },
      "approve(address,uint256)": {
        "details": "Approve the passed address to spend the specified amount of tokens on behalf of msg.sender.",
        "params": {
          "amount": "The amount of tokens to be spent.",
          "spender": "The address which will spend the funds."
        }
      },
      "balanceOf(address)": {
        "details": "Gets the balance of the specified address.",
        "params": {
          "owner": "The address to query the the balance of."
        },
        "returns": {
          "balance": "An uint256 representing the amount owned by the passed address."
        }
      },
      "removeDuetDppLiquidity(uint256,uint256,uint256,uint8,uint256)": {
        "params": {
          "baseMinAmount": "slippage protection, baseOutAmount *(1 - slippage)",
          "deadLine": "time limit",
          "flag": "describe token type, 0 - ERC20, 3 - baseOutETH, 4 - quoteOutETH",
          "quoteMinAmount": "slippage protection, quoteOutAmount *(1 - slippage)",
          "shareAmount": "users withdraw lp amount"
        }
      },
      "transfer(address,uint256)": {
        "details": "transfer token for a specified address",
        "params": {
          "amount": "The amount to be transferred.",
          "to": "The address to transfer to."
        }
      },
      "transferFrom(address,address,uint256)": {
        "details": "Transfer tokens from one address to another",
        "params": {
          "amount": "uint256 the amount of tokens to be transferred",
          "from": "address The address which you want to send tokens from",
          "to": "address The address which you want to transfer to"
        }
      },
      "tuneParameters(uint256,uint256,uint256,uint256,uint256)": {
        "params": {
          "minBaseReserve_": "for frontrun protection,",
          "minQuoteReserve_": "for frontrun protection",
          "newI": "new price I of dpp pool",
          "newK": "a param for swap curve, limit in [010**18], unit is  10**180 is stable price curve10**18 is bonding curve like uni",
          "newLpFeeRate": "lp fee rate for dpp pool"
        }
      },
      "tunePrice(uint256,uint256,uint256)": {
        "params": {
          "minBaseReserve_": "for frontrun protection,",
          "minQuoteReserve_": "for frontrun protection",
          "newI": "new price I of dpp pool"
        }
      }
    },
    "title": "DppController",
    "version": 1
  },
  "userdoc": {
    "kind": "user",
    "methods": {
      "addDuetDppLiquidity(uint256,uint256,uint256,uint256,uint8,uint256)": {
        "notice": "add dpp liquidity"
      },
      "changeMinRes(uint256,uint256)": {
        "notice": "change default minBaseReserve and minQuoteReserve"
      },
      "changeOracle(address)": {
        "notice": "change oracle address"
      },
      "disableOracle(uint256)": {
        "notice": "disable oracle and set new I"
      },
      "minBaseReserve()": {
        "notice": "minBaseReserve for frontrun protection, reset function default param, no use minQuoteReserve for frontrun protection, reset function default param, no use"
      },
      "recommendBaseAndQuote(uint256)": {
        "notice": "enter lp amount  cal baseAmount and quoteAmount"
      },
      "recommendBaseInAmount(uint256)": {
        "notice": "enter quoteInAmount cal outBaseAmount"
      },
      "recommendQuoteInAmount(uint256)": {
        "notice": "enter baseInAmount cal outAmount"
      },
      "removeDuetDppLiquidity(uint256,uint256,uint256,uint8,uint256)": {
        "notice": "remove dpp liquidity"
      },
      "setFreezeTimestamp(uint256)": {
        "notice": "use for freeze dppAdmin to change params, while swap is normal"
      },
      "tuneParameters(uint256,uint256,uint256,uint256,uint256)": {
        "notice": "change params for dpp pool"
      },
      "tunePrice(uint256,uint256,uint256)": {
        "notice": "change price I"
      }
    },
    "notice": "Use this contract to control dpp state(onlyAdmin), withdraw and deposit lps",
    "version": 1
  },
  "storageLayout": {
    "storage": [
      {
        "astId": 9943,
        "contract": "contracts/DuetDPPController.sol:DuetDppController",
        "label": "admin",
        "offset": 0,
        "slot": "0",
        "type": "t_address"
      },
      {
        "astId": 4633,
        "contract": "contracts/DuetDPPController.sol:DuetDppController",
        "label": "_DPP_ADDRESS_",
        "offset": 0,
        "slot": "1",
        "type": "t_address"
      },
      {
        "astId": 4635,
        "contract": "contracts/DuetDPPController.sol:DuetDppController",
        "label": "_DPP_ADMIN_ADDRESS_",
        "offset": 0,
        "slot": "2",
        "type": "t_address"
      },
      {
        "astId": 4638,
        "contract": "contracts/DuetDPPController.sol:DuetDppController",
        "label": "_BASE_TOKEN_",
        "offset": 0,
        "slot": "3",
        "type": "t_contract(IERC20Metadata)1686"
      },
      {
        "astId": 4641,
        "contract": "contracts/DuetDPPController.sol:DuetDppController",
        "label": "_QUOTE_TOKEN_",
        "offset": 0,
        "slot": "4",
        "type": "t_contract(IERC20Metadata)1686"
      },
      {
        "astId": 4643,
        "contract": "contracts/DuetDPPController.sol:DuetDppController",
        "label": "_LP_FEE_RATE_",
        "offset": 20,
        "slot": "4",
        "type": "t_uint64"
      },
      {
        "astId": 4645,
        "contract": "contracts/DuetDPPController.sol:DuetDppController",
        "label": "_I_",
        "offset": 0,
        "slot": "5",
        "type": "t_uint128"
      },
      {
        "astId": 4647,
        "contract": "contracts/DuetDPPController.sol:DuetDppController",
        "label": "_K_",
        "offset": 16,
        "slot": "5",
        "type": "t_uint64"
      },
      {
        "astId": 4649,
        "contract": "contracts/DuetDPPController.sol:DuetDppController",
        "label": "symbol",
        "offset": 0,
        "slot": "6",
        "type": "t_string_storage"
      },
      {
        "astId": 4651,
        "contract": "contracts/DuetDPPController.sol:DuetDppController",
        "label": "decimals",
        "offset": 0,
        "slot": "7",
        "type": "t_uint8"
      },
      {
        "astId": 4653,
        "contract": "contracts/DuetDPPController.sol:DuetDppController",
        "label": "name",
        "offset": 0,
        "slot": "8",
        "type": "t_string_storage"
      },
      {
        "astId": 4655,
        "contract": "contracts/DuetDPPController.sol:DuetDppController",
        "label": "totalSupply",
        "offset": 0,
        "slot": "9",
        "type": "t_uint256"
      },
      {
        "astId": 4659,
        "contract": "contracts/DuetDPPController.sol:DuetDppController",
        "label": "_SHARES_",
        "offset": 0,
        "slot": "10",
        "type": "t_mapping(t_address,t_uint256)"
      },
      {
        "astId": 4665,
        "contract": "contracts/DuetDPPController.sol:DuetDppController",
        "label": "_ALLOWED_",
        "offset": 0,
        "slot": "11",
        "type": "t_mapping(t_address,t_mapping(t_address,t_uint256))"
      },
      {
        "astId": 4667,
        "contract": "contracts/DuetDPPController.sol:DuetDppController",
        "label": "DOMAIN_SEPARATOR",
        "offset": 0,
        "slot": "12",
        "type": "t_bytes32"
      },
      {
        "astId": 4674,
        "contract": "contracts/DuetDPPController.sol:DuetDppController",
        "label": "nonces",
        "offset": 0,
        "slot": "13",
        "type": "t_mapping(t_address,t_uint256)"
      },
      {
        "astId": 968,
        "contract": "contracts/DuetDPPController.sol:DuetDppController",
        "label": "_status",
        "offset": 0,
        "slot": "14",
        "type": "t_uint256"
      },
      {
        "astId": 2749,
        "contract": "contracts/DuetDPPController.sol:DuetDppController",
        "label": "_WETH_",
        "offset": 0,
        "slot": "15",
        "type": "t_address"
      },
      {
        "astId": 2752,
        "contract": "contracts/DuetDPPController.sol:DuetDppController",
        "label": "flagInit",
        "offset": 20,
        "slot": "15",
        "type": "t_bool"
      },
      {
        "astId": 2756,
        "contract": "contracts/DuetDPPController.sol:DuetDppController",
        "label": "minBaseReserve",
        "offset": 0,
        "slot": "16",
        "type": "t_uint256"
      },
      {
        "astId": 2759,
        "contract": "contracts/DuetDPPController.sol:DuetDppController",
        "label": "minQuoteReserve",
        "offset": 0,
        "slot": "17",
        "type": "t_uint256"
      }
    ],
    "types": {
      "t_address": {
        "encoding": "inplace",
        "label": "address",
        "numberOfBytes": "20"
      },
      "t_bool": {
        "encoding": "inplace",
        "label": "bool",
        "numberOfBytes": "1"
      },
      "t_bytes32": {
        "encoding": "inplace",
        "label": "bytes32",
        "numberOfBytes": "32"
      },
      "t_contract(IERC20Metadata)1686": {
        "encoding": "inplace",
        "label": "contract IERC20Metadata",
        "numberOfBytes": "20"
      },
      "t_mapping(t_address,t_mapping(t_address,t_uint256))": {
        "encoding": "mapping",
        "key": "t_address",
        "label": "mapping(address => mapping(address => uint256))",
        "numberOfBytes": "32",
        "value": "t_mapping(t_address,t_uint256)"
      },
      "t_mapping(t_address,t_uint256)": {
        "encoding": "mapping",
        "key": "t_address",
        "label": "mapping(address => uint256)",
        "numberOfBytes": "32",
        "value": "t_uint256"
      },
      "t_string_storage": {
        "encoding": "bytes",
        "label": "string",
        "numberOfBytes": "32"
      },
      "t_uint128": {
        "encoding": "inplace",
        "label": "uint128",
        "numberOfBytes": "16"
      },
      "t_uint256": {
        "encoding": "inplace",
        "label": "uint256",
        "numberOfBytes": "32"
      },
      "t_uint64": {
        "encoding": "inplace",
        "label": "uint64",
        "numberOfBytes": "8"
      },
      "t_uint8": {
        "encoding": "inplace",
        "label": "uint8",
        "numberOfBytes": "1"
      }
    }
  }
}