{
  "address": "0x79D580448e07606E9fbf9F7947bAe067853cdb92",
  "abi": [
    {
      "inputs": [],
      "stateMutability": "nonpayable",
      "type": "constructor"
    },
    {
      "anonymous": false,
      "inputs": [
        {
          "indexed": true,
          "internalType": "address",
          "name": "user",
          "type": "address"
        },
        {
          "indexed": true,
          "internalType": "address",
          "name": "newAdmin",
          "type": "address"
        }
      ],
      "name": "AdminUpdated",
      "type": "event"
    },
    {
      "anonymous": false,
      "inputs": [
        {
          "indexed": false,
          "internalType": "address",
          "name": "baseToken",
          "type": "address"
        },
        {
          "indexed": false,
          "internalType": "address",
          "name": "quoteToken",
          "type": "address"
        },
        {
          "indexed": false,
          "internalType": "address",
          "name": "creator",
          "type": "address"
        },
        {
          "indexed": false,
          "internalType": "address",
          "name": "dppController",
          "type": "address"
        }
      ],
      "name": "DelDPPCtrl",
      "type": "event"
    },
    {
      "anonymous": false,
      "inputs": [
        {
          "indexed": false,
          "internalType": "uint8",
          "name": "version",
          "type": "uint8"
        }
      ],
      "name": "Initialized",
      "type": "event"
    },
    {
      "anonymous": false,
      "inputs": [
        {
          "indexed": false,
          "internalType": "address",
          "name": "baseToken",
          "type": "address"
        },
        {
          "indexed": false,
          "internalType": "address",
          "name": "quoteToken",
          "type": "address"
        },
        {
          "indexed": false,
          "internalType": "address",
          "name": "creator",
          "type": "address"
        },
        {
          "indexed": false,
          "internalType": "address",
          "name": "dpp",
          "type": "address"
        },
        {
          "indexed": false,
          "internalType": "address",
          "name": "dppController",
          "type": "address"
        }
      ],
      "name": "NewDPP",
      "type": "event"
    },
    {
      "anonymous": false,
      "inputs": [
        {
          "indexed": false,
          "internalType": "address",
          "name": "newAdminTemp",
          "type": "address"
        }
      ],
      "name": "UpdateAdminTemplate",
      "type": "event"
    },
    {
      "anonymous": false,
      "inputs": [
        {
          "indexed": false,
          "internalType": "address",
          "name": "newCtrlTemp",
          "type": "address"
        }
      ],
      "name": "UpdateCtrlTemplate",
      "type": "event"
    },
    {
      "anonymous": false,
      "inputs": [
        {
          "indexed": false,
          "internalType": "address",
          "name": "newDODOApprove",
          "type": "address"
        }
      ],
      "name": "UpdateDODOApprove",
      "type": "event"
    },
    {
      "anonymous": false,
      "inputs": [
        {
          "indexed": false,
          "internalType": "address",
          "name": "newDPPTemplate",
          "type": "address"
        }
      ],
      "name": "UpdateDppTemplate",
      "type": "event"
    },
    {
      "anonymous": false,
      "inputs": [
        {
          "indexed": false,
          "internalType": "address",
          "name": "newFeeModel",
          "type": "address"
        }
      ],
      "name": "UpdateFeeModel",
      "type": "event"
    },
    {
      "anonymous": false,
      "inputs": [
        {
          "indexed": false,
          "internalType": "address",
          "name": "newMaintainer",
          "type": "address"
        }
      ],
      "name": "UpdateMaintainer",
      "type": "event"
    },
    {
      "inputs": [],
      "name": "CLONE_FACTORY",
      "outputs": [
        {
          "internalType": "address",
          "name": "",
          "type": "address"
        }
      ],
      "stateMutability": "view",
      "type": "function"
    },
    {
      "inputs": [],
      "name": "WETH",
      "outputs": [
        {
          "internalType": "address",
          "name": "",
          "type": "address"
        }
      ],
      "stateMutability": "view",
      "type": "function"
    },
    {
      "inputs": [],
      "name": "admin",
      "outputs": [
        {
          "internalType": "address",
          "name": "",
          "type": "address"
        }
      ],
      "stateMutability": "view",
      "type": "function"
    },
    {
      "inputs": [
        {
          "internalType": "address",
          "name": "creator_",
          "type": "address"
        },
        {
          "internalType": "address",
          "name": "baseToken_",
          "type": "address"
        },
        {
          "internalType": "address",
          "name": "quoteToken_",
          "type": "address"
        },
        {
          "internalType": "uint256",
          "name": "lpFeeRate_",
          "type": "uint256"
        },
        {
          "internalType": "uint256",
          "name": "k_",
          "type": "uint256"
        },
        {
          "internalType": "uint256",
          "name": "i_",
          "type": "uint256"
        },
        {
          "internalType": "address",
          "name": "o_",
          "type": "address"
        },
        {
          "internalType": "bool",
          "name": "isOpenTwap_",
          "type": "bool"
        },
        {
          "internalType": "bool",
          "name": "isOracleEnabled_",
          "type": "bool"
        }
      ],
      "name": "createDPPController",
      "outputs": [],
      "stateMutability": "nonpayable",
      "type": "function"
    },
    {
      "inputs": [
        {
          "internalType": "address",
          "name": "baseToken_",
          "type": "address"
        },
        {
          "internalType": "address",
          "name": "quoteToken_",
          "type": "address"
        },
        {
          "internalType": "address",
          "name": "dppCtrlAddress_",
          "type": "address"
        },
        {
          "internalType": "address",
          "name": "creator_",
          "type": "address"
        }
      ],
      "name": "delOnePool",
      "outputs": [],
      "stateMutability": "nonpayable",
      "type": "function"
    },
    {
      "inputs": [],
      "name": "dodoApproveProxy",
      "outputs": [
        {
          "internalType": "address",
          "name": "",
          "type": "address"
        }
      ],
      "stateMutability": "view",
      "type": "function"
    },
    {
      "inputs": [],
      "name": "dodoDefaultMaintainer",
      "outputs": [
        {
          "internalType": "address",
          "name": "",
          "type": "address"
        }
      ],
      "stateMutability": "view",
      "type": "function"
    },
    {
      "inputs": [],
      "name": "dodoDefautMtFeeRateModel",
      "outputs": [
        {
          "internalType": "address",
          "name": "",
          "type": "address"
        }
      ],
      "stateMutability": "view",
      "type": "function"
    },
    {
      "inputs": [],
      "name": "dppAdminTemplate",
      "outputs": [
        {
          "internalType": "address",
          "name": "",
          "type": "address"
        }
      ],
      "stateMutability": "view",
      "type": "function"
    },
    {
      "inputs": [],
      "name": "dppControllerTemplate",
      "outputs": [
        {
          "internalType": "address",
          "name": "",
          "type": "address"
        }
      ],
      "stateMutability": "view",
      "type": "function"
    },
    {
      "inputs": [],
      "name": "dppTemplate",
      "outputs": [
        {
          "internalType": "address",
          "name": "",
          "type": "address"
        }
      ],
      "stateMutability": "view",
      "type": "function"
    },
    {
      "inputs": [
        {
          "internalType": "address",
          "name": "admin_",
          "type": "address"
        },
        {
          "internalType": "address",
          "name": "cloneFactory_",
          "type": "address"
        },
        {
          "internalType": "address",
          "name": "dppTemplate_",
          "type": "address"
        },
        {
          "internalType": "address",
          "name": "dppAdminTemplate_",
          "type": "address"
        },
        {
          "internalType": "address",
          "name": "dppControllerTemplate_",
          "type": "address"
        },
        {
          "internalType": "address",
          "name": "defaultMaintainer_",
          "type": "address"
        },
        {
          "internalType": "address",
          "name": "defaultMtFeeRateModel_",
          "type": "address"
        },
        {
          "internalType": "address",
          "name": "dodoApproveProxy_",
          "type": "address"
        },
        {
          "internalType": "address",
          "name": "weth_",
          "type": "address"
        }
      ],
      "name": "initialize",
      "outputs": [],
      "stateMutability": "nonpayable",
      "type": "function"
    },
    {
      "inputs": [
        {
          "internalType": "address",
          "name": "",
          "type": "address"
        },
        {
          "internalType": "address",
          "name": "",
          "type": "address"
        }
      ],
      "name": "registry",
      "outputs": [
        {
          "internalType": "address",
          "name": "",
          "type": "address"
        }
      ],
      "stateMutability": "view",
      "type": "function"
    },
    {
      "inputs": [
        {
          "internalType": "address",
          "name": "newAdmin",
          "type": "address"
        }
      ],
      "name": "setAdmin",
      "outputs": [],
      "stateMutability": "nonpayable",
      "type": "function"
    },
    {
      "inputs": [
        {
          "internalType": "address",
          "name": "newDPPAdminTemplate_",
          "type": "address"
        }
      ],
      "name": "updateAdminTemplate",
      "outputs": [],
      "stateMutability": "nonpayable",
      "type": "function"
    },
    {
      "inputs": [
        {
          "internalType": "address",
          "name": "newController_",
          "type": "address"
        }
      ],
      "name": "updateControllerTemplate",
      "outputs": [],
      "stateMutability": "nonpayable",
      "type": "function"
    },
    {
      "inputs": [
        {
          "internalType": "address",
          "name": "newFeeModel_",
          "type": "address"
        }
      ],
      "name": "updateDefaultFeeModel",
      "outputs": [],
      "stateMutability": "nonpayable",
      "type": "function"
    },
    {
      "inputs": [
        {
          "internalType": "address",
          "name": "newMaintainer_",
          "type": "address"
        }
      ],
      "name": "updateDefaultMaintainer",
      "outputs": [],
      "stateMutability": "nonpayable",
      "type": "function"
    },
    {
      "inputs": [
        {
          "internalType": "address",
          "name": "newDodoApprove_",
          "type": "address"
        }
      ],
      "name": "updateDodoApprove",
      "outputs": [],
      "stateMutability": "nonpayable",
      "type": "function"
    },
    {
      "inputs": [
        {
          "internalType": "address",
          "name": "newDPPTemplate_",
          "type": "address"
        }
      ],
      "name": "updateDppTemplate",
      "outputs": [],
      "stateMutability": "nonpayable",
      "type": "function"
    }
  ],
  "transactionHash": "0x9bf2287bf82343607b0ca9d75be4c7ca08fcd00aaf4e13b29a044a49b95c288a",
  "args": [],
  "numDeployments": 1,
  "solcInputHash": "010d19d2824a92bd25be986df93e8d50",
  "bytecode": "0x60806040523480156200001157600080fd5b5060006200002060016200008d565b905080156200003d576000805460ff60a81b1916600160a81b1790555b801562000086576000805460ff60a81b19169055604051600181527f7f26b83ff96e1f2b6a682f133852f6798a09c465da95921460cefb38474024989060200160405180910390a15b50620001c1565b60008054600160a81b900460ff161562000128578160ff166001148015620000c85750620000c630620001b260201b62000fda1760201c565b155b620001205760405162461bcd60e51b815260206004820152602e60248201526000805160206200180283398151915260448201526d191e481a5b9a5d1a585b1a5e995960921b60648201526084015b60405180910390fd5b506000919050565b60005460ff808416600160a01b90920416106200018e5760405162461bcd60e51b815260206004820152602e60248201526000805160206200180283398151915260448201526d191e481a5b9a5d1a585b1a5e995960921b606482015260840162000117565b506000805460ff909216600160a01b0260ff60a01b19909216919091179055600190565b6001600160a01b03163b151590565b61163180620001d16000396000f3fe608060405234801561001057600080fd5b506004361061012b5760003560e01c80639e988ee3116100ad578063db715fea11610071578063db715fea1461028c578063ef23977c1461029f578063f5e95acb146102b2578063f7220971146102c5578063f851a440146102d857600080fd5b80639e988ee31461020c578063a5afd1b61461021f578063ad5c464814610253578063be7537f214610266578063caedbaf81461027957600080fd5b806344b7f78e116100f457806344b7f78e146101ad5780636494752a146101c0578063704b6c02146101d3578063708f0b3a146101e65780637d2c82d7146101f957600080fd5b806242f701146101305780630bd4651a146101455780631426ca9b146101745780632bc609d514610187578063434244311461019a575b600080fd5b61014361013e366004611316565b6102eb565b005b600554610158906001600160a01b031681565b6040516001600160a01b03909116815260200160405180910390f35b600654610158906001600160a01b031681565b6101436101953660046113b1565b610670565b600854610158906001600160a01b031681565b6101436101bb3660046113b1565b61075b565b6101436101ce3660046113b1565b610840565b6101436101e13660046113b1565b610929565b6101436101f43660046113d5565b61095f565b6101436102073660046113b1565b610a65565b61014361021a3660046113b1565b610b50565b61015861022d366004611431565b60096020908152600092835260408084209091529082529020546001600160a01b031681565b600254610158906001600160a01b031681565b600754610158906001600160a01b031681565b600354610158906001600160a01b031681565b61014361029a3660046113b1565b610c33565b600154610158906001600160a01b031681565b6101436102c036600461146a565b610d14565b600454610158906001600160a01b031681565b600054610158906001600160a01b031681565b6000546001600160a01b0316331461031e5760405162461bcd60e51b815260040161031590611526565b60405180910390fd5b6001600160a01b0388811660009081526009602090815260408083208b851684529091529020541615801561037857506001600160a01b0387811660009081526009602090815260408083208c8516845290915290205416155b6103b35760405162461bcd60e51b815260206004820152600c60248201526b121055914810d4915055115160a21b6044820152606401610315565b801561048f5760405163cfed246b60e01b81526001600160a01b0389811660048301526000919085169063cfed246b9060240160206040518083038186803b1580156103fe57600080fd5b505afa158015610412573d6000803e3d6000fd5b505050506040513d601f19601f82011682018060405250810190610436919061154c565b1161048f5760405162461bcd60e51b8152602060048201526024808201527f447565742044707020466163746f72793a2073657420696e76616c6964206f7260448201526361636c6560e01b6064820152608401610315565b60008061049a610fe9565b915060006104a6611075565b600554600354604051634f115ccb60e01b81526001600160a01b03808516600483015292831660248201528e831660448201528d83166064820152608481018d905290821660a482015260c481018b905260e481018a9052888216610104820152871515610124820152861515610144820152919250841690634f115ccb9061016401600060405180830381600087803b15801561054357600080fd5b505af1158015610557573d6000803e3d6000fd5b505050506105668c84836110ae565b600480546040516306552ff360e01b81529294506001600160a01b03808516936306552ff3936105a19388938a938593929091169101611565565b600060405180830381600087803b1580156105bb57600080fd5b505af11580156105cf573d6000803e3d6000fd5b505050506001600160a01b038b811660008181526009602090815260408083208f86168085529083529281902080548887166001600160a01b031990911681179091558151948552918401929092528f8416838301529286166060830152608082019290925290517f5e55631db9f29584cb7b1abfa64a49ff89a39711c531b3c6bf05d389f62ac79392509081900360a00190a15050505050505050505050565b6000546001600160a01b0316331461069a5760405162461bcd60e51b815260040161031590611526565b6001600160a01b0381166107065760405162461bcd60e51b815260206004820152602d60248201527f447565745f6470705f666163746f72793a20646f646f417070726f766520697360448201526c207a65726f206164647265737360981b6064820152608401610315565b600480546001600160a01b0319166001600160a01b0383169081179091556040519081527f22e11bb50472c5926f73cb662487fea884eff39769745d27281599943f717c7f906020015b60405180910390a150565b6000546001600160a01b031633146107855760405162461bcd60e51b815260040161031590611526565b6001600160a01b0381166107f25760405162461bcd60e51b815260206004820152602e60248201527f447565745f6470705f666163746f72793a206470702074656d706c617465206960448201526d73207a65726f206164647265737360901b6064820152608401610315565b600680546001600160a01b0319166001600160a01b0383169081179091556040519081527fd005fff9c7f83c129aa07b4509db863643f2015e9ee77558797cd8b0d2b5c02a90602001610750565b6000546001600160a01b0316331461086a5760405162461bcd60e51b815260040161031590611526565b6001600160a01b0381166108dc5760405162461bcd60e51b815260206004820152603360248201527f447565745f6470705f666163746f72793a20647070206374726c2074656d706c604482015272617465206973207a65726f206164647265737360681b6064820152608401610315565b600880546001600160a01b0319166001600160a01b0383169081179091556040519081527e4dd2c6ac11259cc04ebd830dcab6eeeab3cade0f03a429cdfc29492bccd0bb90602001610750565b6000546001600160a01b031633146109535760405162461bcd60e51b815260040161031590611526565b61095c816111a6565b50565b6000546001600160a01b031633146109895760405162461bcd60e51b815260040161031590611526565b6001600160a01b0384811660009081526009602090815260408083208785168452909152902054166109ee5760405162461bcd60e51b815260206004820152600e60248201526d1c1bdbdb081b9bdd08195e1a5cdd60921b6044820152606401610315565b6001600160a01b038085166000908152600960209081526040808320938716835292905281902080546001600160a01b0319169055517f7ac52f5c0ee5de05666a9cb8cf51b1735f38e6b2e5a99b946b1a7fdbd2907ce290610a57908690869085908790611565565b60405180910390a150505050565b6000546001600160a01b03163314610a8f5760405162461bcd60e51b815260040161031590611526565b6001600160a01b038116610b025760405162461bcd60e51b815260206004820152603460248201527f447565745f6470705f666163746f72793a206470702061646d696e2074656d706044820152736c617465206973207a65726f206164647265737360601b6064820152608401610315565b600780546001600160a01b0319166001600160a01b0383169081179091556040519081527f550115cbed277252b3735b4662f486e262dc4d072a8d43c6cc571cf2e641e23690602001610750565b6000546001600160a01b03163314610b7a5760405162461bcd60e51b815260040161031590611526565b6001600160a01b038116610be55760405162461bcd60e51b815260206004820152602c60248201527f447565745f6470705f666163746f72793a206d61696e7461696e65722069732060448201526b7a65726f206164647265737360a01b6064820152608401610315565b600580546001600160a01b0319166001600160a01b0383169081179091556040519081527ffb734cad8abd874e9213b56ecae5e39d9569bada1d76cd5f5938869bc34647fb90602001610750565b6000546001600160a01b03163314610c5d5760405162461bcd60e51b815260040161031590611526565b6001600160a01b038116610cc65760405162461bcd60e51b815260206004820152602a60248201527f447565745f6470705f666163746f72793a206665654d6f64656c206973207a65604482015269726f206164647265737360b01b6064820152608401610315565b600380546001600160a01b0319166001600160a01b0383169081179091556040519081527f602109af93f127e29acf890713b5893218f7e26815fcf6217510271969a4874190602001610750565b6000610d206001611251565b90508015610d3c576000805460ff60a81b1916600160a81b1790555b6001600160a01b038a16610da25760405162461bcd60e51b815260206004820152602760248201527f447565745f6470705f666163746f72793a2061646d696e206973207a65726f206044820152666164647265737360c81b6064820152608401610315565b610dab8a6111a6565b600280546001600160a01b03199081166001600160a01b03858116919091179092556001805482168c84161790556006805482168b84161790556007805482168a8416179055600880548216898416179055600580548216888416908117909155600380548316888516179055600480549092169286169290921790556040519081527ffb734cad8abd874e9213b56ecae5e39d9569bada1d76cd5f5938869bc34647fb9060200160405180910390a16040516001600160a01b03851681527f602109af93f127e29acf890713b5893218f7e26815fcf6217510271969a487419060200160405180910390a16040516001600160a01b03841681527f22e11bb50472c5926f73cb662487fea884eff39769745d27281599943f717c7f9060200160405180910390a16040516001600160a01b03891681527fd005fff9c7f83c129aa07b4509db863643f2015e9ee77558797cd8b0d2b5c02a9060200160405180910390a16040516001600160a01b03871681527e4dd2c6ac11259cc04ebd830dcab6eeeab3cade0f03a429cdfc29492bccd0bb9060200160405180910390a16040516001600160a01b03881681527f550115cbed277252b3735b4662f486e262dc4d072a8d43c6cc571cf2e641e2369060200160405180910390a18015610fce576000805460ff60a81b19169055604051600181527f7f26b83ff96e1f2b6a682f133852f6798a09c465da95921460cefb38474024989060200160405180910390a15b50505050505050505050565b6001600160a01b03163b151590565b6001546006546040516340925bc760e11b81526001600160a01b0391821660048201526000929190911690638124b78e906024015b602060405180830381600087803b15801561103857600080fd5b505af115801561104c573d6000803e3d6000fd5b505050506040513d601f19601f820116820180604052508101906110709190611590565b905090565b6001546007546040516340925bc760e11b81526001600160a01b0391821660048201526000929190911690638124b78e9060240161101e565b6001546008546040516340925bc760e11b81526001600160a01b0391821660048201526000929190911690638124b78e90602401602060405180830381600087803b1580156110fc57600080fd5b505af1158015611110573d6000803e3d6000fd5b505050506040513d601f19601f820116820180604052508101906111349190611590565b6002546040516306552ff360e01b81529192506001600160a01b03808416926306552ff39261116d928992899289921690600401611565565b600060405180830381600087803b15801561118757600080fd5b505af115801561119b573d6000803e3d6000fd5b505050509392505050565b6001600160a01b0381166112065760405162461bcd60e51b815260206004820152602160248201527f43616e206e6f74207365742061646d696e20746f207a65726f206164647265736044820152607360f81b6064820152608401610315565b600080546001600160a01b0319166001600160a01b0383169081178255604051909133917f101b8081ff3b56bbf45deb824d86a3b0fd38b7e3dd42421105cf8abe9106db0b9190a350565b60008054600160a81b900460ff161561129a578160ff1660011480156112765750303b155b6112925760405162461bcd60e51b8152600401610315906115ad565b506000919050565b60005460ff808416600160a01b90920416106112c85760405162461bcd60e51b8152600401610315906115ad565b506000805460ff909216600160a01b0260ff60a01b19909216919091179055600190565b919050565b6001600160a01b038116811461095c57600080fd5b803580151581146112ec57600080fd5b60008060008060008060008060006101208a8c03121561133557600080fd5b8935611340816112f1565b985060208a0135611350816112f1565b975060408a0135611360816112f1565b965060608a0135955060808a0135945060a08a0135935060c08a0135611385816112f1565b925061139360e08b01611306565b91506113a26101008b01611306565b90509295985092959850929598565b6000602082840312156113c357600080fd5b81356113ce816112f1565b9392505050565b600080600080608085870312156113eb57600080fd5b84356113f6816112f1565b93506020850135611406816112f1565b92506040850135611416816112f1565b91506060850135611426816112f1565b939692955090935050565b6000806040838503121561144457600080fd5b823561144f816112f1565b9150602083013561145f816112f1565b809150509250929050565b60008060008060008060008060006101208a8c03121561148957600080fd5b8935611494816112f1565b985060208a01356114a4816112f1565b975060408a01356114b4816112f1565b965060608a01356114c4816112f1565b955060808a01356114d4816112f1565b945060a08a01356114e4816112f1565b935060c08a01356114f4816112f1565b925060e08a0135611504816112f1565b91506101008a0135611515816112f1565b809150509295985092959850929598565b6020808252600c908201526b15539055551213d49256915160a21b604082015260600190565b60006020828403121561155e57600080fd5b5051919050565b6001600160a01b03948516815292841660208401529083166040830152909116606082015260800190565b6000602082840312156115a257600080fd5b81516113ce816112f1565b6020808252602e908201527f496e697469616c697a61626c653a20636f6e747261637420697320616c72656160408201526d191e481a5b9a5d1a585b1a5e995960921b60608201526080019056fea2646970667358221220806c0a58e0564abee46b6f9d7db0979a95a6067bcaae61af69d9022058b4543964736f6c63430008090033496e697469616c697a61626c653a20636f6e747261637420697320616c726561",
  "devdoc": {
    "author": "So. Lu",
    "kind": "dev",
    "methods": {
      "createDPPController(address,address,address,uint256,uint256,uint256,address,bool,bool)": {
        "params": {
          "baseToken_": "basetoken address",
          "creator_": "dpp controller's admin and dppAdmin's operator",
          "i_": "base to quote price, decimals 18 - baseTokenDecimals+ quoteTokenDecimals. If use oracle, i set here wouldn't be used.",
          "isOpenTwap_": "use twap price or not",
          "isOracleEnabled_": "use oracle or not",
          "k_": "a param for swap curve, limit in [010**18], unit is  10**180 is stable price curve10**18 is bonding curve like uni",
          "lpFeeRate_": "lp fee rate, unit is 10**18, range in [0, 10**18], eg 3,00000,00000,00000 = 0.003 = 0.3%",
          "o_": "oracle address",
          "quoteToken_": "quotetoken address"
        }
      }
    },
    "title": "DppController",
    "version": 1
  },
  "userdoc": {
    "kind": "user",
    "methods": {
      "createDPPController(address,address,address,uint256,uint256,uint256,address,bool,bool)": {
        "notice": "create dpp Controller"
      },
      "updateDefaultFeeModel(address)": {
        "notice": "change dpp param - dodo feeModel"
      },
      "updateDefaultMaintainer(address)": {
        "notice": "change dpp param - dodo maintainer"
      },
      "updateDodoApprove(address)": {
        "notice": "change dpp param - dodo approve"
      }
    },
    "notice": "Use this contract to create controller",
    "version": 1
  },
  "storageLayout": {
    "storage": [
      {
        "astId": 10176,
        "contract": "contracts/factory/DuetDppFactory.sol:DuetDPPFactory",
        "label": "admin",
        "offset": 0,
        "slot": "0",
        "type": "t_address"
      },
      {
        "astId": 130,
        "contract": "contracts/factory/DuetDppFactory.sol:DuetDPPFactory",
        "label": "_initialized",
        "offset": 20,
        "slot": "0",
        "type": "t_uint8"
      },
      {
        "astId": 133,
        "contract": "contracts/factory/DuetDppFactory.sol:DuetDPPFactory",
        "label": "_initializing",
        "offset": 21,
        "slot": "0",
        "type": "t_bool"
      },
      {
        "astId": 9038,
        "contract": "contracts/factory/DuetDppFactory.sol:DuetDPPFactory",
        "label": "CLONE_FACTORY",
        "offset": 0,
        "slot": "1",
        "type": "t_address"
      },
      {
        "astId": 9040,
        "contract": "contracts/factory/DuetDppFactory.sol:DuetDPPFactory",
        "label": "WETH",
        "offset": 0,
        "slot": "2",
        "type": "t_address"
      },
      {
        "astId": 9042,
        "contract": "contracts/factory/DuetDppFactory.sol:DuetDPPFactory",
        "label": "dodoDefautMtFeeRateModel",
        "offset": 0,
        "slot": "3",
        "type": "t_address"
      },
      {
        "astId": 9044,
        "contract": "contracts/factory/DuetDppFactory.sol:DuetDPPFactory",
        "label": "dodoApproveProxy",
        "offset": 0,
        "slot": "4",
        "type": "t_address"
      },
      {
        "astId": 9046,
        "contract": "contracts/factory/DuetDppFactory.sol:DuetDPPFactory",
        "label": "dodoDefaultMaintainer",
        "offset": 0,
        "slot": "5",
        "type": "t_address"
      },
      {
        "astId": 9048,
        "contract": "contracts/factory/DuetDppFactory.sol:DuetDPPFactory",
        "label": "dppTemplate",
        "offset": 0,
        "slot": "6",
        "type": "t_address"
      },
      {
        "astId": 9050,
        "contract": "contracts/factory/DuetDppFactory.sol:DuetDPPFactory",
        "label": "dppAdminTemplate",
        "offset": 0,
        "slot": "7",
        "type": "t_address"
      },
      {
        "astId": 9052,
        "contract": "contracts/factory/DuetDppFactory.sol:DuetDPPFactory",
        "label": "dppControllerTemplate",
        "offset": 0,
        "slot": "8",
        "type": "t_address"
      },
      {
        "astId": 9058,
        "contract": "contracts/factory/DuetDppFactory.sol:DuetDPPFactory",
        "label": "registry",
        "offset": 0,
        "slot": "9",
        "type": "t_mapping(t_address,t_mapping(t_address,t_address))"
      }
    ],
    "types": {
      "t_address": {
        "encoding": "inplace",
        "label": "address",
        "numberOfBytes": "20"
      },
      "t_bool": {
        "encoding": "inplace",
        "label": "bool",
        "numberOfBytes": "1"
      },
      "t_mapping(t_address,t_address)": {
        "encoding": "mapping",
        "key": "t_address",
        "label": "mapping(address => address)",
        "numberOfBytes": "32",
        "value": "t_address"
      },
      "t_mapping(t_address,t_mapping(t_address,t_address))": {
        "encoding": "mapping",
        "key": "t_address",
        "label": "mapping(address => mapping(address => address))",
        "numberOfBytes": "32",
        "value": "t_mapping(t_address,t_address)"
      },
      "t_uint8": {
        "encoding": "inplace",
        "label": "uint8",
        "numberOfBytes": "1"
      }
    }
  }
}