{
  "address": "0x8f4af03e392B32090837Abee892359106b062BFA",
  "abi": [
    {
      "inputs": [],
      "stateMutability": "nonpayable",
      "type": "constructor"
    },
    {
      "anonymous": false,
      "inputs": [
        {
          "indexed": true,
          "internalType": "address",
          "name": "user",
          "type": "address"
        },
        {
          "indexed": true,
          "internalType": "address",
          "name": "newAdmin",
          "type": "address"
        }
      ],
      "name": "AdminUpdated",
      "type": "event"
    },
    {
      "anonymous": false,
      "inputs": [
        {
          "indexed": false,
          "internalType": "address",
          "name": "baseToken",
          "type": "address"
        },
        {
          "indexed": false,
          "internalType": "address",
          "name": "quoteToken",
          "type": "address"
        },
        {
          "indexed": false,
          "internalType": "address",
          "name": "creator",
          "type": "address"
        },
        {
          "indexed": false,
          "internalType": "address",
          "name": "dppController",
          "type": "address"
        }
      ],
      "name": "DelDPPCtrl",
      "type": "event"
    },
    {
      "anonymous": false,
      "inputs": [
        {
          "indexed": false,
          "internalType": "uint8",
          "name": "version",
          "type": "uint8"
        }
      ],
      "name": "Initialized",
      "type": "event"
    },
    {
      "anonymous": false,
      "inputs": [
        {
          "indexed": false,
          "internalType": "address",
          "name": "baseToken",
          "type": "address"
        },
        {
          "indexed": false,
          "internalType": "address",
          "name": "quoteToken",
          "type": "address"
        },
        {
          "indexed": false,
          "internalType": "address",
          "name": "creator",
          "type": "address"
        },
        {
          "indexed": false,
          "internalType": "address",
          "name": "dpp",
          "type": "address"
        },
        {
          "indexed": false,
          "internalType": "address",
          "name": "dppController",
          "type": "address"
        }
      ],
      "name": "NewDPP",
      "type": "event"
    },
    {
      "anonymous": false,
      "inputs": [
        {
          "indexed": false,
          "internalType": "address",
          "name": "newAdminTemp",
          "type": "address"
        }
      ],
      "name": "UpdateAdminTemplate",
      "type": "event"
    },
    {
      "anonymous": false,
      "inputs": [
        {
          "indexed": false,
          "internalType": "address",
          "name": "newCtrlTemp",
          "type": "address"
        }
      ],
      "name": "UpdateCtrlTemplate",
      "type": "event"
    },
    {
      "anonymous": false,
      "inputs": [
        {
          "indexed": false,
          "internalType": "address",
          "name": "newDODOApprove",
          "type": "address"
        }
      ],
      "name": "UpdateDODOApprove",
      "type": "event"
    },
    {
      "anonymous": false,
      "inputs": [
        {
          "indexed": false,
          "internalType": "address",
          "name": "newDPPTemplate",
          "type": "address"
        }
      ],
      "name": "UpdateDppTemplate",
      "type": "event"
    },
    {
      "anonymous": false,
      "inputs": [
        {
          "indexed": false,
          "internalType": "address",
          "name": "newFeeModel",
          "type": "address"
        }
      ],
      "name": "UpdateFeeModel",
      "type": "event"
    },
    {
      "anonymous": false,
      "inputs": [
        {
          "indexed": false,
          "internalType": "address",
          "name": "newMaintainer",
          "type": "address"
        }
      ],
      "name": "UpdateMaintainer",
      "type": "event"
    },
    {
      "inputs": [],
      "name": "CLONE_FACTORY",
      "outputs": [
        {
          "internalType": "address",
          "name": "",
          "type": "address"
        }
      ],
      "stateMutability": "view",
      "type": "function"
    },
    {
      "inputs": [],
      "name": "WETH",
      "outputs": [
        {
          "internalType": "address",
          "name": "",
          "type": "address"
        }
      ],
      "stateMutability": "view",
      "type": "function"
    },
    {
      "inputs": [],
      "name": "admin",
      "outputs": [
        {
          "internalType": "address",
          "name": "",
          "type": "address"
        }
      ],
      "stateMutability": "view",
      "type": "function"
    },
    {
      "inputs": [
        {
          "internalType": "address",
          "name": "creator_",
          "type": "address"
        },
        {
          "internalType": "address",
          "name": "baseToken_",
          "type": "address"
        },
        {
          "internalType": "address",
          "name": "quoteToken_",
          "type": "address"
        },
        {
          "internalType": "uint256",
          "name": "lpFeeRate_",
          "type": "uint256"
        },
        {
          "internalType": "uint256",
          "name": "k_",
          "type": "uint256"
        },
        {
          "internalType": "uint256",
          "name": "i_",
          "type": "uint256"
        },
        {
          "internalType": "address",
          "name": "o_",
          "type": "address"
        },
        {
          "internalType": "bool",
          "name": "isOpenTwap_",
          "type": "bool"
        },
        {
          "internalType": "bool",
          "name": "isOracleEnabled_",
          "type": "bool"
        }
      ],
      "name": "createDPPController",
      "outputs": [],
      "stateMutability": "nonpayable",
      "type": "function"
    },
    {
      "inputs": [
        {
          "internalType": "address",
          "name": "baseToken_",
          "type": "address"
        },
        {
          "internalType": "address",
          "name": "quoteToken_",
          "type": "address"
        },
        {
          "internalType": "address",
          "name": "dppCtrlAddress_",
          "type": "address"
        },
        {
          "internalType": "address",
          "name": "creator_",
          "type": "address"
        }
      ],
      "name": "delOnePool",
      "outputs": [],
      "stateMutability": "nonpayable",
      "type": "function"
    },
    {
      "inputs": [],
      "name": "dodoApproveProxy",
      "outputs": [
        {
          "internalType": "address",
          "name": "",
          "type": "address"
        }
      ],
      "stateMutability": "view",
      "type": "function"
    },
    {
      "inputs": [],
      "name": "dodoDefaultMaintainer",
      "outputs": [
        {
          "internalType": "address",
          "name": "",
          "type": "address"
        }
      ],
      "stateMutability": "view",
      "type": "function"
    },
    {
      "inputs": [],
      "name": "dodoDefautMtFeeRateModel",
      "outputs": [
        {
          "internalType": "address",
          "name": "",
          "type": "address"
        }
      ],
      "stateMutability": "view",
      "type": "function"
    },
    {
      "inputs": [],
      "name": "dppAdminTemplate",
      "outputs": [
        {
          "internalType": "address",
          "name": "",
          "type": "address"
        }
      ],
      "stateMutability": "view",
      "type": "function"
    },
    {
      "inputs": [],
      "name": "dppControllerTemplate",
      "outputs": [
        {
          "internalType": "address",
          "name": "",
          "type": "address"
        }
      ],
      "stateMutability": "view",
      "type": "function"
    },
    {
      "inputs": [],
      "name": "dppTemplate",
      "outputs": [
        {
          "internalType": "address",
          "name": "",
          "type": "address"
        }
      ],
      "stateMutability": "view",
      "type": "function"
    },
    {
      "inputs": [
        {
          "internalType": "address",
          "name": "base_",
          "type": "address"
        },
        {
          "internalType": "address",
          "name": "quote_",
          "type": "address"
        }
      ],
      "name": "getDppController",
      "outputs": [
        {
          "internalType": "address",
          "name": "dppAddress",
          "type": "address"
        }
      ],
      "stateMutability": "view",
      "type": "function"
    },
    {
      "inputs": [
        {
          "internalType": "address",
          "name": "admin_",
          "type": "address"
        },
        {
          "internalType": "address",
          "name": "cloneFactory_",
          "type": "address"
        },
        {
          "internalType": "address",
          "name": "dppTemplate_",
          "type": "address"
        },
        {
          "internalType": "address",
          "name": "dppAdminTemplate_",
          "type": "address"
        },
        {
          "internalType": "address",
          "name": "dppControllerTemplate_",
          "type": "address"
        },
        {
          "internalType": "address",
          "name": "defaultMaintainer_",
          "type": "address"
        },
        {
          "internalType": "address",
          "name": "defaultMtFeeRateModel_",
          "type": "address"
        },
        {
          "internalType": "address",
          "name": "dodoApproveProxy_",
          "type": "address"
        },
        {
          "internalType": "address",
          "name": "weth_",
          "type": "address"
        }
      ],
      "name": "initialize",
      "outputs": [],
      "stateMutability": "nonpayable",
      "type": "function"
    },
    {
      "inputs": [
        {
          "internalType": "address",
          "name": "",
          "type": "address"
        },
        {
          "internalType": "address",
          "name": "",
          "type": "address"
        }
      ],
      "name": "registry",
      "outputs": [
        {
          "internalType": "address",
          "name": "",
          "type": "address"
        }
      ],
      "stateMutability": "view",
      "type": "function"
    },
    {
      "inputs": [
        {
          "internalType": "address",
          "name": "newAdmin",
          "type": "address"
        }
      ],
      "name": "setAdmin",
      "outputs": [],
      "stateMutability": "nonpayable",
      "type": "function"
    },
    {
      "inputs": [
        {
          "internalType": "address",
          "name": "newDPPAdminTemplate_",
          "type": "address"
        }
      ],
      "name": "updateAdminTemplate",
      "outputs": [],
      "stateMutability": "nonpayable",
      "type": "function"
    },
    {
      "inputs": [
        {
          "internalType": "address",
          "name": "newController_",
          "type": "address"
        }
      ],
      "name": "updateControllerTemplate",
      "outputs": [],
      "stateMutability": "nonpayable",
      "type": "function"
    },
    {
      "inputs": [
        {
          "internalType": "address",
          "name": "newFeeModel_",
          "type": "address"
        }
      ],
      "name": "updateDefaultFeeModel",
      "outputs": [],
      "stateMutability": "nonpayable",
      "type": "function"
    },
    {
      "inputs": [
        {
          "internalType": "address",
          "name": "newMaintainer_",
          "type": "address"
        }
      ],
      "name": "updateDefaultMaintainer",
      "outputs": [],
      "stateMutability": "nonpayable",
      "type": "function"
    },
    {
      "inputs": [
        {
          "internalType": "address",
          "name": "newDodoApprove_",
          "type": "address"
        }
      ],
      "name": "updateDodoApprove",
      "outputs": [],
      "stateMutability": "nonpayable",
      "type": "function"
    },
    {
      "inputs": [
        {
          "internalType": "address",
          "name": "newDPPTemplate_",
          "type": "address"
        }
      ],
      "name": "updateDppTemplate",
      "outputs": [],
      "stateMutability": "nonpayable",
      "type": "function"
    }
  ],
  "transactionHash": "0x92b4f8298f63579c9ffb7e8361218fa23ccc57dd235cb9a6765916d40b937555",
  "args": [],
  "numDeployments": 2,
  "solcInputHash": "f124b8beb0493f5e989f798d54c20d3a",
  "bytecode": "0x60806040523480156200001157600080fd5b5060006200002060016200008d565b905080156200003d576000805460ff60a81b1916600160a81b1790555b801562000086576000805460ff60a81b19169055604051600181527f7f26b83ff96e1f2b6a682f133852f6798a09c465da95921460cefb38474024989060200160405180910390a15b50620001c1565b60008054600160a81b900460ff161562000128578160ff166001148015620000c85750620000c630620001b260201b6200101d1760201c565b155b620001205760405162461bcd60e51b815260206004820152602e60248201526000805160206200184583398151915260448201526d191e481a5b9a5d1a585b1a5e995960921b60648201526084015b60405180910390fd5b506000919050565b60005460ff808416600160a01b90920416106200018e5760405162461bcd60e51b815260206004820152602e60248201526000805160206200184583398151915260448201526d191e481a5b9a5d1a585b1a5e995960921b606482015260840162000117565b506000805460ff909216600160a01b0260ff60a01b19909216919091179055600190565b6001600160a01b03163b151590565b61167480620001d16000396000f3fe608060405234801561001057600080fd5b50600436106101365760003560e01c80637d2c82d7116100b8578063caedbaf81161007c578063caedbaf8146102bc578063db715fea146102cf578063ef23977c146102e2578063f5e95acb146102f5578063f722097114610308578063f851a4401461031b57600080fd5b80637d2c82d71461023c5780639e988ee31461024f578063a5afd1b614610262578063ad5c464814610296578063be7537f2146102a957600080fd5b80634354d1ee116100ff5780634354d1ee146101b857806344b7f78e146101f05780636494752a14610203578063704b6c0214610216578063708f0b3a1461022957600080fd5b806242f7011461013b5780630bd4651a146101505780631426ca9b1461017f5780632bc609d51461019257806343424431146101a5575b600080fd5b61014e610149366004611359565b61032e565b005b600554610163906001600160a01b031681565b6040516001600160a01b03909116815260200160405180910390f35b600654610163906001600160a01b031681565b61014e6101a03660046113f4565b6106b3565b600854610163906001600160a01b031681565b6101636101c6366004611418565b6001600160a01b039182166000908152600960209081526040808320938516835292905220541690565b61014e6101fe3660046113f4565b61079e565b61014e6102113660046113f4565b610883565b61014e6102243660046113f4565b61096c565b61014e610237366004611451565b6109a2565b61014e61024a3660046113f4565b610aa8565b61014e61025d3660046113f4565b610b93565b610163610270366004611418565b60096020908152600092835260408084209091529082529020546001600160a01b031681565b600254610163906001600160a01b031681565b600754610163906001600160a01b031681565b600354610163906001600160a01b031681565b61014e6102dd3660046113f4565b610c76565b600154610163906001600160a01b031681565b61014e6103033660046114ad565b610d57565b600454610163906001600160a01b031681565b600054610163906001600160a01b031681565b6000546001600160a01b031633146103615760405162461bcd60e51b815260040161035890611569565b60405180910390fd5b6001600160a01b0388811660009081526009602090815260408083208b85168452909152902054161580156103bb57506001600160a01b0387811660009081526009602090815260408083208c8516845290915290205416155b6103f65760405162461bcd60e51b815260206004820152600c60248201526b121055914810d4915055115160a21b6044820152606401610358565b80156104d25760405163cfed246b60e01b81526001600160a01b0389811660048301526000919085169063cfed246b9060240160206040518083038186803b15801561044157600080fd5b505afa158015610455573d6000803e3d6000fd5b505050506040513d601f19601f82011682018060405250810190610479919061158f565b116104d25760405162461bcd60e51b8152602060048201526024808201527f447565742044707020466163746f72793a2073657420696e76616c6964206f7260448201526361636c6560e01b6064820152608401610358565b6000806104dd61102c565b915060006104e96110b8565b600554600354604051634f115ccb60e01b81526001600160a01b03808516600483015292831660248201528e831660448201528d83166064820152608481018d905290821660a482015260c481018b905260e481018a9052888216610104820152871515610124820152861515610144820152919250841690634f115ccb9061016401600060405180830381600087803b15801561058657600080fd5b505af115801561059a573d6000803e3d6000fd5b505050506105a98c84836110f1565b600480546040516306552ff360e01b81529294506001600160a01b03808516936306552ff3936105e49388938a9385939290911691016115a8565b600060405180830381600087803b1580156105fe57600080fd5b505af1158015610612573d6000803e3d6000fd5b505050506001600160a01b038b811660008181526009602090815260408083208f86168085529083529281902080548887166001600160a01b031990911681179091558151948552918401929092528f8416838301529286166060830152608082019290925290517f5e55631db9f29584cb7b1abfa64a49ff89a39711c531b3c6bf05d389f62ac79392509081900360a00190a15050505050505050505050565b6000546001600160a01b031633146106dd5760405162461bcd60e51b815260040161035890611569565b6001600160a01b0381166107495760405162461bcd60e51b815260206004820152602d60248201527f447565745f6470705f666163746f72793a20646f646f417070726f766520697360448201526c207a65726f206164647265737360981b6064820152608401610358565b600480546001600160a01b0319166001600160a01b0383169081179091556040519081527f22e11bb50472c5926f73cb662487fea884eff39769745d27281599943f717c7f906020015b60405180910390a150565b6000546001600160a01b031633146107c85760405162461bcd60e51b815260040161035890611569565b6001600160a01b0381166108355760405162461bcd60e51b815260206004820152602e60248201527f447565745f6470705f666163746f72793a206470702074656d706c617465206960448201526d73207a65726f206164647265737360901b6064820152608401610358565b600680546001600160a01b0319166001600160a01b0383169081179091556040519081527fd005fff9c7f83c129aa07b4509db863643f2015e9ee77558797cd8b0d2b5c02a90602001610793565b6000546001600160a01b031633146108ad5760405162461bcd60e51b815260040161035890611569565b6001600160a01b03811661091f5760405162461bcd60e51b815260206004820152603360248201527f447565745f6470705f666163746f72793a20647070206374726c2074656d706c604482015272617465206973207a65726f206164647265737360681b6064820152608401610358565b600880546001600160a01b0319166001600160a01b0383169081179091556040519081527e4dd2c6ac11259cc04ebd830dcab6eeeab3cade0f03a429cdfc29492bccd0bb90602001610793565b6000546001600160a01b031633146109965760405162461bcd60e51b815260040161035890611569565b61099f816111e9565b50565b6000546001600160a01b031633146109cc5760405162461bcd60e51b815260040161035890611569565b6001600160a01b038481166000908152600960209081526040808320878516845290915290205416610a315760405162461bcd60e51b815260206004820152600e60248201526d1c1bdbdb081b9bdd08195e1a5cdd60921b6044820152606401610358565b6001600160a01b038085166000908152600960209081526040808320938716835292905281902080546001600160a01b0319169055517f7ac52f5c0ee5de05666a9cb8cf51b1735f38e6b2e5a99b946b1a7fdbd2907ce290610a9a9086908690859087906115a8565b60405180910390a150505050565b6000546001600160a01b03163314610ad25760405162461bcd60e51b815260040161035890611569565b6001600160a01b038116610b455760405162461bcd60e51b815260206004820152603460248201527f447565745f6470705f666163746f72793a206470702061646d696e2074656d706044820152736c617465206973207a65726f206164647265737360601b6064820152608401610358565b600780546001600160a01b0319166001600160a01b0383169081179091556040519081527f550115cbed277252b3735b4662f486e262dc4d072a8d43c6cc571cf2e641e23690602001610793565b6000546001600160a01b03163314610bbd5760405162461bcd60e51b815260040161035890611569565b6001600160a01b038116610c285760405162461bcd60e51b815260206004820152602c60248201527f447565745f6470705f666163746f72793a206d61696e7461696e65722069732060448201526b7a65726f206164647265737360a01b6064820152608401610358565b600580546001600160a01b0319166001600160a01b0383169081179091556040519081527ffb734cad8abd874e9213b56ecae5e39d9569bada1d76cd5f5938869bc34647fb90602001610793565b6000546001600160a01b03163314610ca05760405162461bcd60e51b815260040161035890611569565b6001600160a01b038116610d095760405162461bcd60e51b815260206004820152602a60248201527f447565745f6470705f666163746f72793a206665654d6f64656c206973207a65604482015269726f206164647265737360b01b6064820152608401610358565b600380546001600160a01b0319166001600160a01b0383169081179091556040519081527f602109af93f127e29acf890713b5893218f7e26815fcf6217510271969a4874190602001610793565b6000610d636001611294565b90508015610d7f576000805460ff60a81b1916600160a81b1790555b6001600160a01b038a16610de55760405162461bcd60e51b815260206004820152602760248201527f447565745f6470705f666163746f72793a2061646d696e206973207a65726f206044820152666164647265737360c81b6064820152608401610358565b610dee8a6111e9565b600280546001600160a01b03199081166001600160a01b03858116919091179092556001805482168c84161790556006805482168b84161790556007805482168a8416179055600880548216898416179055600580548216888416908117909155600380548316888516179055600480549092169286169290921790556040519081527ffb734cad8abd874e9213b56ecae5e39d9569bada1d76cd5f5938869bc34647fb9060200160405180910390a16040516001600160a01b03851681527f602109af93f127e29acf890713b5893218f7e26815fcf6217510271969a487419060200160405180910390a16040516001600160a01b03841681527f22e11bb50472c5926f73cb662487fea884eff39769745d27281599943f717c7f9060200160405180910390a16040516001600160a01b03891681527fd005fff9c7f83c129aa07b4509db863643f2015e9ee77558797cd8b0d2b5c02a9060200160405180910390a16040516001600160a01b03871681527e4dd2c6ac11259cc04ebd830dcab6eeeab3cade0f03a429cdfc29492bccd0bb9060200160405180910390a16040516001600160a01b03881681527f550115cbed277252b3735b4662f486e262dc4d072a8d43c6cc571cf2e641e2369060200160405180910390a18015611011576000805460ff60a81b19169055604051600181527f7f26b83ff96e1f2b6a682f133852f6798a09c465da95921460cefb38474024989060200160405180910390a15b50505050505050505050565b6001600160a01b03163b151590565b6001546006546040516340925bc760e11b81526001600160a01b0391821660048201526000929190911690638124b78e906024015b602060405180830381600087803b15801561107b57600080fd5b505af115801561108f573d6000803e3d6000fd5b505050506040513d601f19601f820116820180604052508101906110b391906115d3565b905090565b6001546007546040516340925bc760e11b81526001600160a01b0391821660048201526000929190911690638124b78e90602401611061565b6001546008546040516340925bc760e11b81526001600160a01b0391821660048201526000929190911690638124b78e90602401602060405180830381600087803b15801561113f57600080fd5b505af1158015611153573d6000803e3d6000fd5b505050506040513d601f19601f8201168201806040525081019061117791906115d3565b6002546040516306552ff360e01b81529192506001600160a01b03808416926306552ff3926111b09289928992899216906004016115a8565b600060405180830381600087803b1580156111ca57600080fd5b505af11580156111de573d6000803e3d6000fd5b505050509392505050565b6001600160a01b0381166112495760405162461bcd60e51b815260206004820152602160248201527f43616e206e6f74207365742061646d696e20746f207a65726f206164647265736044820152607360f81b6064820152608401610358565b600080546001600160a01b0319166001600160a01b0383169081178255604051909133917f101b8081ff3b56bbf45deb824d86a3b0fd38b7e3dd42421105cf8abe9106db0b9190a350565b60008054600160a81b900460ff16156112dd578160ff1660011480156112b95750303b155b6112d55760405162461bcd60e51b8152600401610358906115f0565b506000919050565b60005460ff808416600160a01b909204161061130b5760405162461bcd60e51b8152600401610358906115f0565b506000805460ff909216600160a01b0260ff60a01b19909216919091179055600190565b919050565b6001600160a01b038116811461099f57600080fd5b8035801515811461132f57600080fd5b60008060008060008060008060006101208a8c03121561137857600080fd5b893561138381611334565b985060208a013561139381611334565b975060408a01356113a381611334565b965060608a0135955060808a0135945060a08a0135935060c08a01356113c881611334565b92506113d660e08b01611349565b91506113e56101008b01611349565b90509295985092959850929598565b60006020828403121561140657600080fd5b813561141181611334565b9392505050565b6000806040838503121561142b57600080fd5b823561143681611334565b9150602083013561144681611334565b809150509250929050565b6000806000806080858703121561146757600080fd5b843561147281611334565b9350602085013561148281611334565b9250604085013561149281611334565b915060608501356114a281611334565b939692955090935050565b60008060008060008060008060006101208a8c0312156114cc57600080fd5b89356114d781611334565b985060208a01356114e781611334565b975060408a01356114f781611334565b965060608a013561150781611334565b955060808a013561151781611334565b945060a08a013561152781611334565b935060c08a013561153781611334565b925060e08a013561154781611334565b91506101008a013561155881611334565b809150509295985092959850929598565b6020808252600c908201526b15539055551213d49256915160a21b604082015260600190565b6000602082840312156115a157600080fd5b5051919050565b6001600160a01b03948516815292841660208401529083166040830152909116606082015260800190565b6000602082840312156115e557600080fd5b815161141181611334565b6020808252602e908201527f496e697469616c697a61626c653a20636f6e747261637420697320616c72656160408201526d191e481a5b9a5d1a585b1a5e995960921b60608201526080019056fea2646970667358221220134b9a20ae67c16817ae0acc334cc339a603d22f537ba281c1f3d47d02a591c464736f6c63430008090033496e697469616c697a61626c653a20636f6e747261637420697320616c726561",
  "devdoc": {
    "author": "So. Lu",
    "kind": "dev",
    "methods": {
      "createDPPController(address,address,address,uint256,uint256,uint256,address,bool,bool)": {
        "params": {
          "baseToken_": "basetoken address",
          "creator_": "dpp controller's admin and dppAdmin's operator",
          "i_": "base to quote price, decimals 18 - baseTokenDecimals+ quoteTokenDecimals. If use oracle, i set here wouldn't be used.",
          "isOpenTwap_": "use twap price or not",
          "isOracleEnabled_": "use oracle or not",
          "k_": "a param for swap curve, limit in [010**18], unit is  10**180 is stable price curve10**18 is bonding curve like uni",
          "lpFeeRate_": "lp fee rate, unit is 10**18, range in [0, 10**18], eg 3,00000,00000,00000 = 0.003 = 0.3%",
          "o_": "oracle address",
          "quoteToken_": "quotetoken address"
        }
      }
    },
    "title": "DppController",
    "version": 1
  },
  "userdoc": {
    "kind": "user",
    "methods": {
      "createDPPController(address,address,address,uint256,uint256,uint256,address,bool,bool)": {
        "notice": "create dpp Controller"
      },
      "updateDefaultFeeModel(address)": {
        "notice": "change dpp param - dodo feeModel"
      },
      "updateDefaultMaintainer(address)": {
        "notice": "change dpp param - dodo maintainer"
      },
      "updateDodoApprove(address)": {
        "notice": "change dpp param - dodo approve"
      }
    },
    "notice": "Use this contract to create controller",
    "version": 1
  },
  "storageLayout": {
    "storage": [
      {
        "astId": 10257,
        "contract": "contracts/factory/DuetDppFactory.sol:DuetDPPFactory",
        "label": "admin",
        "offset": 0,
        "slot": "0",
        "type": "t_address"
      },
      {
        "astId": 130,
        "contract": "contracts/factory/DuetDppFactory.sol:DuetDPPFactory",
        "label": "_initialized",
        "offset": 20,
        "slot": "0",
        "type": "t_uint8"
      },
      {
        "astId": 133,
        "contract": "contracts/factory/DuetDppFactory.sol:DuetDPPFactory",
        "label": "_initializing",
        "offset": 21,
        "slot": "0",
        "type": "t_bool"
      },
      {
        "astId": 9091,
        "contract": "contracts/factory/DuetDppFactory.sol:DuetDPPFactory",
        "label": "CLONE_FACTORY",
        "offset": 0,
        "slot": "1",
        "type": "t_address"
      },
      {
        "astId": 9093,
        "contract": "contracts/factory/DuetDppFactory.sol:DuetDPPFactory",
        "label": "WETH",
        "offset": 0,
        "slot": "2",
        "type": "t_address"
      },
      {
        "astId": 9095,
        "contract": "contracts/factory/DuetDppFactory.sol:DuetDPPFactory",
        "label": "dodoDefautMtFeeRateModel",
        "offset": 0,
        "slot": "3",
        "type": "t_address"
      },
      {
        "astId": 9097,
        "contract": "contracts/factory/DuetDppFactory.sol:DuetDPPFactory",
        "label": "dodoApproveProxy",
        "offset": 0,
        "slot": "4",
        "type": "t_address"
      },
      {
        "astId": 9099,
        "contract": "contracts/factory/DuetDppFactory.sol:DuetDPPFactory",
        "label": "dodoDefaultMaintainer",
        "offset": 0,
        "slot": "5",
        "type": "t_address"
      },
      {
        "astId": 9101,
        "contract": "contracts/factory/DuetDppFactory.sol:DuetDPPFactory",
        "label": "dppTemplate",
        "offset": 0,
        "slot": "6",
        "type": "t_address"
      },
      {
        "astId": 9103,
        "contract": "contracts/factory/DuetDppFactory.sol:DuetDPPFactory",
        "label": "dppAdminTemplate",
        "offset": 0,
        "slot": "7",
        "type": "t_address"
      },
      {
        "astId": 9105,
        "contract": "contracts/factory/DuetDppFactory.sol:DuetDPPFactory",
        "label": "dppControllerTemplate",
        "offset": 0,
        "slot": "8",
        "type": "t_address"
      },
      {
        "astId": 9111,
        "contract": "contracts/factory/DuetDppFactory.sol:DuetDPPFactory",
        "label": "registry",
        "offset": 0,
        "slot": "9",
        "type": "t_mapping(t_address,t_mapping(t_address,t_address))"
      }
    ],
    "types": {
      "t_address": {
        "encoding": "inplace",
        "label": "address",
        "numberOfBytes": "20"
      },
      "t_bool": {
        "encoding": "inplace",
        "label": "bool",
        "numberOfBytes": "1"
      },
      "t_mapping(t_address,t_address)": {
        "encoding": "mapping",
        "key": "t_address",
        "label": "mapping(address => address)",
        "numberOfBytes": "32",
        "value": "t_address"
      },
      "t_mapping(t_address,t_mapping(t_address,t_address))": {
        "encoding": "mapping",
        "key": "t_address",
        "label": "mapping(address => mapping(address => address))",
        "numberOfBytes": "32",
        "value": "t_mapping(t_address,t_address)"
      },
      "t_uint8": {
        "encoding": "inplace",
        "label": "uint8",
        "numberOfBytes": "1"
      }
    }
  }
}