{
  "address": "0x0E24dFb6C8CA1557922642eb58D7Ee9648eE0832",
  "abi": [
    {
      "inputs": [],
      "stateMutability": "nonpayable",
      "type": "constructor"
    },
    {
      "anonymous": false,
      "inputs": [
        {
          "indexed": true,
          "internalType": "address",
          "name": "user",
          "type": "address"
        },
        {
          "indexed": true,
          "internalType": "address",
          "name": "newAdmin",
          "type": "address"
        }
      ],
      "name": "AdminUpdated",
      "type": "event"
    },
    {
      "anonymous": false,
      "inputs": [
        {
          "indexed": false,
          "internalType": "uint8",
          "name": "version",
          "type": "uint8"
        }
      ],
      "name": "Initialized",
      "type": "event"
    },
    {
      "inputs": [],
      "name": "admin",
      "outputs": [
        {
          "internalType": "address",
          "name": "",
          "type": "address"
        }
      ],
      "stateMutability": "view",
      "type": "function"
    },
    {
      "inputs": [
        {
          "internalType": "uint256",
          "name": "value_",
          "type": "uint256"
        },
        {
          "internalType": "uint256",
          "name": "sourceDecimal_",
          "type": "uint256"
        },
        {
          "internalType": "uint256",
          "name": "targetDecimal_",
          "type": "uint256"
        }
      ],
      "name": "convertDecimal",
      "outputs": [
        {
          "internalType": "uint256",
          "name": "",
          "type": "uint256"
        }
      ],
      "stateMutability": "pure",
      "type": "function"
    },
    {
      "inputs": [],
      "name": "decimals",
      "outputs": [
        {
          "internalType": "uint256",
          "name": "",
          "type": "uint256"
        }
      ],
      "stateMutability": "view",
      "type": "function"
    },
    {
      "inputs": [],
      "name": "dodoOracle",
      "outputs": [
        {
          "internalType": "contract IDodoOracle",
          "name": "",
          "type": "address"
        }
      ],
      "stateMutability": "view",
      "type": "function"
    },
    {
      "inputs": [
        {
          "internalType": "address",
          "name": "controllerToken_",
          "type": "address"
        }
      ],
      "name": "getCtrlInfo",
      "outputs": [
        {
          "components": [
            {
              "internalType": "contract IDPPController",
              "name": "controller",
              "type": "address"
            },
            {
              "internalType": "address",
              "name": "baseToken",
              "type": "address"
            },
            {
              "internalType": "address",
              "name": "quoteToken",
              "type": "address"
            },
            {
              "internalType": "uint256",
              "name": "baseTokenDecimals",
              "type": "uint256"
            },
            {
              "internalType": "uint256",
              "name": "quoteTokenDecimals",
              "type": "uint256"
            }
          ],
          "internalType": "struct DuetDppLpOracle.CtrlInfo",
          "name": "ctrlInfo",
          "type": "tuple"
        }
      ],
      "stateMutability": "view",
      "type": "function"
    },
    {
      "inputs": [
        {
          "internalType": "address",
          "name": "controllerToken_",
          "type": "address"
        }
      ],
      "name": "getPrice",
      "outputs": [
        {
          "internalType": "uint256",
          "name": "",
          "type": "uint256"
        }
      ],
      "stateMutability": "view",
      "type": "function"
    },
    {
      "inputs": [
        {
          "internalType": "address",
          "name": "admin_",
          "type": "address"
        },
        {
          "internalType": "address",
          "name": "usdLikeToken_",
          "type": "address"
        },
        {
          "internalType": "contract IDodoOracle",
          "name": "dodoOracle_",
          "type": "address"
        }
      ],
      "name": "initialize",
      "outputs": [],
      "stateMutability": "nonpayable",
      "type": "function"
    },
    {
      "inputs": [
        {
          "internalType": "address",
          "name": "newAdmin",
          "type": "address"
        }
      ],
      "name": "setAdmin",
      "outputs": [],
      "stateMutability": "nonpayable",
      "type": "function"
    },
    {
      "inputs": [
        {
          "internalType": "contract IDodoOracle",
          "name": "dodoOracle_",
          "type": "address"
        }
      ],
      "name": "setDodoOracle",
      "outputs": [],
      "stateMutability": "nonpayable",
      "type": "function"
    },
    {
      "inputs": [
        {
          "internalType": "address",
          "name": "usdLikeToken_",
          "type": "address"
        }
      ],
      "name": "setUsdLikeToken",
      "outputs": [],
      "stateMutability": "nonpayable",
      "type": "function"
    },
    {
      "inputs": [],
      "name": "usdLikeToken",
      "outputs": [
        {
          "internalType": "address",
          "name": "",
          "type": "address"
        }
      ],
      "stateMutability": "view",
      "type": "function"
    }
  ],
  "transactionHash": "0xed674449dd3df8093722497a5a0f7fc8cc59cd4e9aaff672baae71031b6a7872",
  "args": [],
  "numDeployments": 4,
  "solcInputHash": "2ca820f0d7828adb270f9c677d7b6736",
  "bytecode": "0x608060405234801561001057600080fd5b50600061001d6001610081565b90508015610035576000805461ff0019166101001790555b801561007b576000805461ff0019169055604051600181527f7f26b83ff96e1f2b6a682f133852f6798a09c465da95921460cefb38474024989060200160405180910390a15b50610198565b60008054610100900460ff1615610113578160ff1660011480156100b557506100b33061018960201b6108f71760201c565b155b61010b5760405162461bcd60e51b815260206004820152602e6024820152600080516020610f4183398151915260448201526d191e481a5b9a5d1a585b1a5e995960921b60648201526084015b60405180910390fd5b506000919050565b60005460ff80841691161061016f5760405162461bcd60e51b815260206004820152602e6024820152600080516020610f4183398151915260448201526d191e481a5b9a5d1a585b1a5e995960921b6064820152608401610102565b506000805460ff191660ff92909216919091179055600190565b6001600160a01b03163b151590565b610d9a806101a76000396000f3fe608060405234801561001057600080fd5b50600436106100a95760003560e01c8063704b6c0211610071578063704b6c021461012d578063bf61b2de14610142578063c0c53b8b14610155578063d518a49014610168578063eb059dd51461017b578063f851a440146101d857600080fd5b8063313ce567146100ae57806341976e09146100c95780635cdeea08146100dc5780636081057a146101075780636f00788a1461011a575b600080fd5b6100b6600881565b6040519081526020015b60405180910390f35b6100b66100d7366004610a58565b6101f1565b6001546100ef906001600160a01b031681565b6040516001600160a01b0390911681526020016100c0565b6002546100ef906001600160a01b031681565b6100b6610128366004610a75565b6104bc565b61014061013b366004610a58565b61051d565b005b610140610150366004610a58565b610559565b610140610163366004610aa1565b6105ab565b610140610176366004610a58565b610654565b61018e610189366004610a58565b6106a6565b6040805182516001600160a01b039081168252602080850151821690830152838301511691810191909152606080830151908201526080918201519181019190915260a0016100c0565b6000546100ef906201000090046001600160a01b031681565b6000806101fd836106a6565b60015460408201519192506001600160a01b039182169116146102715760405162461bcd60e51b815260206004820152602160248201527f447565744470704c704f7261636c653a20496e76616c6964204c5020546f6b656044820152603760f91b60648201526084015b60405180910390fd5b60008082600001516001600160a01b031663491f088f84600001516001600160a01b031663313ce5676040518163ffffffff1660e01b815260040160206040518083038186803b1580156102c457600080fd5b505afa1580156102d8573d6000803e3d6000fd5b505050506040513d601f19601f820116820180604052508101906102fc9190610aec565b61030790600a610c0b565b6040518263ffffffff1660e01b815260040161032591815260200190565b604080518083038186803b15801561033c57600080fd5b505afa158015610350573d6000803e3d6000fd5b505050506040513d601f19601f820116820180604052508101906103749190610c1a565b600254602086015160405163cfed246b60e01b81526001600160a01b03918216600482015293955091935060009291169063cfed246b9060240160206040518083038186803b1580156103c657600080fd5b505afa1580156103da573d6000803e3d6000fd5b505050506040513d601f19601f820116820180604052508101906103fe9190610c3e565b9050600081116104625760405162461bcd60e51b815260206004820152602960248201527f447565744470704c704f7261636c653a20496e76616c6964206261736520746f6044820152686b656e20707269636560b81b6064820152608401610268565b6000610490670de0b6b3a764000061047a8487610c57565b6104849190610c76565b866060015160086104bc565b905060006104a484876080015160086104bc565b90506104b08183610c98565b98975050505050505050565b6000818311156104ec576104d08284610cb0565b6104db90600a610cc7565b6104e59085610c76565b9050610516565b81831015610513576104fe8383610cb0565b61050990600a610cc7565b6104e59085610c57565b50825b9392505050565b6000546201000090046001600160a01b0316331461054d5760405162461bcd60e51b815260040161026890610cd3565b61055681610906565b50565b6000546201000090046001600160a01b031633146105895760405162461bcd60e51b815260040161026890610cd3565b600180546001600160a01b0319166001600160a01b0392909216919091179055565b60006105b760016109bb565b905080156105cf576000805461ff0019166101001790555b6105d884610906565b600180546001600160a01b038086166001600160a01b0319928316179092556002805492851692909116919091179055801561064e576000805461ff0019169055604051600181527f7f26b83ff96e1f2b6a682f133852f6798a09c465da95921460cefb38474024989060200160405180910390a15b50505050565b6000546201000090046001600160a01b031633146106845760405162461bcd60e51b815260040161026890610cd3565b600280546001600160a01b0319166001600160a01b0392909216919091179055565b6040805160a081018252600060208083018290528284018290526060830182905260808301919091526001600160a01b0384168083528351632512469560e11b8152935192939092634a248d2a92600480840193919291829003018186803b15801561071157600080fd5b505afa158015610725573d6000803e3d6000fd5b505050506040513d601f19601f820116820180604052508101906107499190610cf9565b81602001906001600160a01b031690816001600160a01b031681525050816001600160a01b031663d4b970466040518163ffffffff1660e01b815260040160206040518083038186803b15801561079f57600080fd5b505afa1580156107b3573d6000803e3d6000fd5b505050506040513d601f19601f820116820180604052508101906107d79190610cf9565b81604001906001600160a01b031690816001600160a01b03168152505080602001516001600160a01b031663313ce5676040518163ffffffff1660e01b815260040160206040518083038186803b15801561083157600080fd5b505afa158015610845573d6000803e3d6000fd5b505050506040513d601f19601f820116820180604052508101906108699190610aec565b60ff1681606001818152505080604001516001600160a01b031663313ce5676040518163ffffffff1660e01b815260040160206040518083038186803b1580156108b257600080fd5b505afa1580156108c6573d6000803e3d6000fd5b505050506040513d601f19601f820116820180604052508101906108ea9190610aec565b60ff166080820152919050565b6001600160a01b03163b151590565b6001600160a01b0381166109665760405162461bcd60e51b815260206004820152602160248201527f43616e206e6f74207365742061646d696e20746f207a65726f206164647265736044820152607360f81b6064820152608401610268565b6000805462010000600160b01b031916620100006001600160a01b038416908102919091178255604051909133917f101b8081ff3b56bbf45deb824d86a3b0fd38b7e3dd42421105cf8abe9106db0b9190a350565b60008054610100900460ff1615610a02578160ff1660011480156109de5750303b155b6109fa5760405162461bcd60e51b815260040161026890610d16565b506000919050565b60005460ff808416911610610a295760405162461bcd60e51b815260040161026890610d16565b506000805460ff191660ff92909216919091179055600190565b6001600160a01b038116811461055657600080fd5b600060208284031215610a6a57600080fd5b813561051681610a43565b600080600060608486031215610a8a57600080fd5b505081359360208301359350604090920135919050565b600080600060608486031215610ab657600080fd5b8335610ac181610a43565b92506020840135610ad181610a43565b91506040840135610ae181610a43565b809150509250925092565b600060208284031215610afe57600080fd5b815160ff8116811461051657600080fd5b634e487b7160e01b600052601160045260246000fd5b600181815b80851115610b60578160001904821115610b4657610b46610b0f565b80851615610b5357918102915b93841c9390800290610b2a565b509250929050565b600082610b7757506001610c05565b81610b8457506000610c05565b8160018114610b9a5760028114610ba457610bc0565b6001915050610c05565b60ff841115610bb557610bb5610b0f565b50506001821b610c05565b5060208310610133831016604e8410600b8410161715610be3575081810a610c05565b610bed8383610b25565b8060001904821115610c0157610c01610b0f565b0290505b92915050565b600061051660ff841683610b68565b60008060408385031215610c2d57600080fd5b505080516020909101519092909150565b600060208284031215610c5057600080fd5b5051919050565b6000816000190483118215151615610c7157610c71610b0f565b500290565b600082610c9357634e487b7160e01b600052601260045260246000fd5b500490565b60008219821115610cab57610cab610b0f565b500190565b600082821015610cc257610cc2610b0f565b500390565b60006105168383610b68565b6020808252600c908201526b15539055551213d49256915160a21b604082015260600190565b600060208284031215610d0b57600080fd5b815161051681610a43565b6020808252602e908201527f496e697469616c697a61626c653a20636f6e747261637420697320616c72656160408201526d191e481a5b9a5d1a585b1a5e995960921b60608201526080019056fea26469706673582212203ab1c84fa68206cf0dd421eba9f0e398a5611c6dec70de48c1de7718991b6d0b64736f6c63430008090033496e697469616c697a61626c653a20636f6e747261637420697320616c726561",
  "devdoc": {
    "kind": "dev",
    "methods": {
      "convertDecimal(uint256,uint256,uint256)": {
        "details": "convert a value from sourceDecimal to targetDecimal"
      },
      "getPrice(address)": {
        "details": "This oracle can only be used for display purposes and cannot be used as any actual value judgment basis.",
        "returns": {
          "_0": "Unsafe USD value with precision of 8"
        }
      }
    },
    "version": 1
  },
  "userdoc": {
    "kind": "user",
    "methods": {
      "getPrice(address)": {
        "notice": "!!! UNSAFE !!! !!! FOR DISPLAY ONLY !!!"
      }
    },
    "version": 1
  },
  "storageLayout": {
    "storage": [
      {
        "astId": 6,
        "contract": "contracts/appendix/DuetDppLpOracle.sol:DuetDppLpOracle",
        "label": "_initialized",
        "offset": 0,
        "slot": "0",
        "type": "t_uint8"
      },
      {
        "astId": 9,
        "contract": "contracts/appendix/DuetDppLpOracle.sol:DuetDppLpOracle",
        "label": "_initializing",
        "offset": 1,
        "slot": "0",
        "type": "t_bool"
      },
      {
        "astId": 5415,
        "contract": "contracts/appendix/DuetDppLpOracle.sol:DuetDppLpOracle",
        "label": "admin",
        "offset": 2,
        "slot": "0",
        "type": "t_address"
      },
      {
        "astId": 3461,
        "contract": "contracts/appendix/DuetDppLpOracle.sol:DuetDppLpOracle",
        "label": "usdLikeToken",
        "offset": 0,
        "slot": "1",
        "type": "t_address"
      },
      {
        "astId": 3464,
        "contract": "contracts/appendix/DuetDppLpOracle.sol:DuetDppLpOracle",
        "label": "dodoOracle",
        "offset": 0,
        "slot": "2",
        "type": "t_contract(IDodoOracle)5333"
      }
    ],
    "types": {
      "t_address": {
        "encoding": "inplace",
        "label": "address",
        "numberOfBytes": "20"
      },
      "t_bool": {
        "encoding": "inplace",
        "label": "bool",
        "numberOfBytes": "1"
      },
      "t_contract(IDodoOracle)5333": {
        "encoding": "inplace",
        "label": "contract IDodoOracle",
        "numberOfBytes": "20"
      },
      "t_uint8": {
        "encoding": "inplace",
        "label": "uint8",
        "numberOfBytes": "1"
      }
    }
  }
}