{
  "address": "0xeBDb3308174D1B04D156b973DB9047FEf6D09F21",
  "abi": [
    {
      "inputs": [],
      "stateMutability": "nonpayable",
      "type": "constructor"
    },
    {
      "anonymous": false,
      "inputs": [
        {
          "indexed": true,
          "internalType": "address",
          "name": "user",
          "type": "address"
        },
        {
          "indexed": true,
          "internalType": "address",
          "name": "newAdmin",
          "type": "address"
        }
      ],
      "name": "AdminUpdated",
      "type": "event"
    },
    {
      "anonymous": false,
      "inputs": [
        {
          "indexed": false,
          "internalType": "uint8",
          "name": "version",
          "type": "uint8"
        }
      ],
      "name": "Initialized",
      "type": "event"
    },
    {
      "inputs": [],
      "name": "admin",
      "outputs": [
        {
          "internalType": "address",
          "name": "",
          "type": "address"
        }
      ],
      "stateMutability": "view",
      "type": "function"
    },
    {
      "inputs": [
        {
          "internalType": "uint256",
          "name": "value_",
          "type": "uint256"
        },
        {
          "internalType": "uint256",
          "name": "sourceDecimal_",
          "type": "uint256"
        },
        {
          "internalType": "uint256",
          "name": "targetDecimal_",
          "type": "uint256"
        }
      ],
      "name": "convertDecimal",
      "outputs": [
        {
          "internalType": "uint256",
          "name": "",
          "type": "uint256"
        }
      ],
      "stateMutability": "pure",
      "type": "function"
    },
    {
      "inputs": [],
      "name": "decimals",
      "outputs": [
        {
          "internalType": "uint256",
          "name": "",
          "type": "uint256"
        }
      ],
      "stateMutability": "view",
      "type": "function"
    },
    {
      "inputs": [],
      "name": "dodoOracle",
      "outputs": [
        {
          "internalType": "contract IDodoOracle",
          "name": "",
          "type": "address"
        }
      ],
      "stateMutability": "view",
      "type": "function"
    },
    {
      "inputs": [
        {
          "internalType": "address",
          "name": "controllerToken_",
          "type": "address"
        }
      ],
      "name": "getCtrlInfo",
      "outputs": [
        {
          "components": [
            {
              "internalType": "contract IDPPController",
              "name": "controller",
              "type": "address"
            },
            {
              "internalType": "address",
              "name": "baseToken",
              "type": "address"
            },
            {
              "internalType": "address",
              "name": "quoteToken",
              "type": "address"
            },
            {
              "internalType": "uint256",
              "name": "baseTokenDecimals",
              "type": "uint256"
            },
            {
              "internalType": "uint256",
              "name": "quoteTokenDecimals",
              "type": "uint256"
            }
          ],
          "internalType": "struct DuetDppLpOracle.CtrlInfo",
          "name": "ctrlInfo",
          "type": "tuple"
        }
      ],
      "stateMutability": "view",
      "type": "function"
    },
    {
      "inputs": [
        {
          "internalType": "address",
          "name": "controllerToken_",
          "type": "address"
        }
      ],
      "name": "getPrice",
      "outputs": [
        {
          "internalType": "uint256",
          "name": "",
          "type": "uint256"
        }
      ],
      "stateMutability": "view",
      "type": "function"
    },
    {
      "inputs": [
        {
          "internalType": "address",
          "name": "admin_",
          "type": "address"
        },
        {
          "internalType": "address",
          "name": "usdLikeToken_",
          "type": "address"
        },
        {
          "internalType": "contract IDodoOracle",
          "name": "dodoOracle_",
          "type": "address"
        }
      ],
      "name": "initialize",
      "outputs": [],
      "stateMutability": "nonpayable",
      "type": "function"
    },
    {
      "inputs": [
        {
          "internalType": "address",
          "name": "newAdmin",
          "type": "address"
        }
      ],
      "name": "setAdmin",
      "outputs": [],
      "stateMutability": "nonpayable",
      "type": "function"
    },
    {
      "inputs": [
        {
          "internalType": "contract IDodoOracle",
          "name": "dodoOracle_",
          "type": "address"
        }
      ],
      "name": "setDodoOracle",
      "outputs": [],
      "stateMutability": "nonpayable",
      "type": "function"
    },
    {
      "inputs": [
        {
          "internalType": "address",
          "name": "usdLikeToken_",
          "type": "address"
        }
      ],
      "name": "setUsdLikeToken",
      "outputs": [],
      "stateMutability": "nonpayable",
      "type": "function"
    },
    {
      "inputs": [],
      "name": "usdLikeToken",
      "outputs": [
        {
          "internalType": "address",
          "name": "",
          "type": "address"
        }
      ],
      "stateMutability": "view",
      "type": "function"
    }
  ],
  "transactionHash": "0x7dad3e0c6070e5e6545bfea279385ab28c0eaee6d3f4f1647b13167051d48095",
  "args": [],
  "numDeployments": 3,
  "solcInputHash": "7604e694805739d9e39d178b966ebb40",
  "bytecode": "0x608060405234801561001057600080fd5b50600061001d6001610081565b90508015610035576000805461ff0019166101001790555b801561007b576000805461ff0019169055604051600181527f7f26b83ff96e1f2b6a682f133852f6798a09c465da95921460cefb38474024989060200160405180910390a15b50610198565b60008054610100900460ff1615610113578160ff1660011480156100b557506100b33061018960201b6108e11760201c565b155b61010b5760405162461bcd60e51b815260206004820152602e6024820152600080516020610f1f83398151915260448201526d191e481a5b9a5d1a585b1a5e995960921b60648201526084015b60405180910390fd5b506000919050565b60005460ff80841691161061016f5760405162461bcd60e51b815260206004820152602e6024820152600080516020610f1f83398151915260448201526d191e481a5b9a5d1a585b1a5e995960921b6064820152608401610102565b506000805460ff191660ff92909216919091179055600190565b6001600160a01b03163b151590565b610d78806101a76000396000f3fe608060405234801561001057600080fd5b50600436106100a95760003560e01c8063704b6c0211610071578063704b6c021461012d578063bf61b2de14610142578063c0c53b8b14610155578063d518a49014610168578063eb059dd51461017b578063f851a440146101d857600080fd5b8063313ce567146100ae57806341976e09146100c95780635cdeea08146100dc5780636081057a146101075780636f00788a1461011a575b600080fd5b6100b6600881565b6040519081526020015b60405180910390f35b6100b66100d7366004610a42565b6101f1565b6001546100ef906001600160a01b031681565b6040516001600160a01b0390911681526020016100c0565b6002546100ef906001600160a01b031681565b6100b6610128366004610a5f565b6104bc565b61014061013b366004610a42565b610507565b005b610140610150366004610a42565b610543565b610140610163366004610a8b565b610595565b610140610176366004610a42565b61063e565b61018e610189366004610a42565b610690565b6040805182516001600160a01b039081168252602080850151821690830152838301511691810191909152606080830151908201526080918201519181019190915260a0016100c0565b6000546100ef906201000090046001600160a01b031681565b6000806101fd83610690565b60015460408201519192506001600160a01b039182169116146102715760405162461bcd60e51b815260206004820152602160248201527f447565744470704c704f7261636c653a20496e76616c6964204c5020546f6b656044820152603760f91b60648201526084015b60405180910390fd5b60008082600001516001600160a01b031663491f088f84600001516001600160a01b031663313ce5676040518163ffffffff1660e01b815260040160206040518083038186803b1580156102c457600080fd5b505afa1580156102d8573d6000803e3d6000fd5b505050506040513d601f19601f820116820180604052508101906102fc9190610ad6565b61030790600a610bf5565b6040518263ffffffff1660e01b815260040161032591815260200190565b604080518083038186803b15801561033c57600080fd5b505afa158015610350573d6000803e3d6000fd5b505050506040513d601f19601f820116820180604052508101906103749190610c04565b600254602086015160405163cfed246b60e01b81526001600160a01b03918216600482015293955091935060009291169063cfed246b9060240160206040518083038186803b1580156103c657600080fd5b505afa1580156103da573d6000803e3d6000fd5b505050506040513d601f19601f820116820180604052508101906103fe9190610c28565b9050600081116104625760405162461bcd60e51b815260206004820152602960248201527f447565744470704c704f7261636c653a20496e76616c6964206261736520746f6044820152686b656e20707269636560b81b6064820152608401610268565b6000610490670de0b6b3a764000061047a8487610c41565b6104849190610c60565b866060015160086104bc565b905060006104a484876080015160086104bc565b90506104b08183610c82565b98975050505050505050565b6000818311156104e1576104d08284610c9a565b6104da9085610c60565b9050610500565b818310156104fd576104f38383610c9a565b6104da9085610c41565b50825b9392505050565b6000546201000090046001600160a01b031633146105375760405162461bcd60e51b815260040161026890610cb1565b610540816108f0565b50565b6000546201000090046001600160a01b031633146105735760405162461bcd60e51b815260040161026890610cb1565b600180546001600160a01b0319166001600160a01b0392909216919091179055565b60006105a160016109a5565b905080156105b9576000805461ff0019166101001790555b6105c2846108f0565b600180546001600160a01b038086166001600160a01b03199283161790925560028054928516929091169190911790558015610638576000805461ff0019169055604051600181527f7f26b83ff96e1f2b6a682f133852f6798a09c465da95921460cefb38474024989060200160405180910390a15b50505050565b6000546201000090046001600160a01b0316331461066e5760405162461bcd60e51b815260040161026890610cb1565b600280546001600160a01b0319166001600160a01b0392909216919091179055565b6040805160a081018252600060208083018290528284018290526060830182905260808301919091526001600160a01b0384168083528351632512469560e11b8152935192939092634a248d2a92600480840193919291829003018186803b1580156106fb57600080fd5b505afa15801561070f573d6000803e3d6000fd5b505050506040513d601f19601f820116820180604052508101906107339190610cd7565b81602001906001600160a01b031690816001600160a01b031681525050816001600160a01b031663d4b970466040518163ffffffff1660e01b815260040160206040518083038186803b15801561078957600080fd5b505afa15801561079d573d6000803e3d6000fd5b505050506040513d601f19601f820116820180604052508101906107c19190610cd7565b81604001906001600160a01b031690816001600160a01b03168152505080602001516001600160a01b031663313ce5676040518163ffffffff1660e01b815260040160206040518083038186803b15801561081b57600080fd5b505afa15801561082f573d6000803e3d6000fd5b505050506040513d601f19601f820116820180604052508101906108539190610ad6565b60ff1681606001818152505080604001516001600160a01b031663313ce5676040518163ffffffff1660e01b815260040160206040518083038186803b15801561089c57600080fd5b505afa1580156108b0573d6000803e3d6000fd5b505050506040513d601f19601f820116820180604052508101906108d49190610ad6565b60ff166080820152919050565b6001600160a01b03163b151590565b6001600160a01b0381166109505760405162461bcd60e51b815260206004820152602160248201527f43616e206e6f74207365742061646d696e20746f207a65726f206164647265736044820152607360f81b6064820152608401610268565b6000805462010000600160b01b031916620100006001600160a01b038416908102919091178255604051909133917f101b8081ff3b56bbf45deb824d86a3b0fd38b7e3dd42421105cf8abe9106db0b9190a350565b60008054610100900460ff16156109ec578160ff1660011480156109c85750303b155b6109e45760405162461bcd60e51b815260040161026890610cf4565b506000919050565b60005460ff808416911610610a135760405162461bcd60e51b815260040161026890610cf4565b506000805460ff191660ff92909216919091179055600190565b6001600160a01b038116811461054057600080fd5b600060208284031215610a5457600080fd5b813561050081610a2d565b600080600060608486031215610a7457600080fd5b505081359360208301359350604090920135919050565b600080600060608486031215610aa057600080fd5b8335610aab81610a2d565b92506020840135610abb81610a2d565b91506040840135610acb81610a2d565b809150509250925092565b600060208284031215610ae857600080fd5b815160ff8116811461050057600080fd5b634e487b7160e01b600052601160045260246000fd5b600181815b80851115610b4a578160001904821115610b3057610b30610af9565b80851615610b3d57918102915b93841c9390800290610b14565b509250929050565b600082610b6157506001610bef565b81610b6e57506000610bef565b8160018114610b845760028114610b8e57610baa565b6001915050610bef565b60ff841115610b9f57610b9f610af9565b50506001821b610bef565b5060208310610133831016604e8410600b8410161715610bcd575081810a610bef565b610bd78383610b0f565b8060001904821115610beb57610beb610af9565b0290505b92915050565b600061050060ff841683610b52565b60008060408385031215610c1757600080fd5b505080516020909101519092909150565b600060208284031215610c3a57600080fd5b5051919050565b6000816000190483118215151615610c5b57610c5b610af9565b500290565b600082610c7d57634e487b7160e01b600052601260045260246000fd5b500490565b60008219821115610c9557610c95610af9565b500190565b600082821015610cac57610cac610af9565b500390565b6020808252600c908201526b15539055551213d49256915160a21b604082015260600190565b600060208284031215610ce957600080fd5b815161050081610a2d565b6020808252602e908201527f496e697469616c697a61626c653a20636f6e747261637420697320616c72656160408201526d191e481a5b9a5d1a585b1a5e995960921b60608201526080019056fea2646970667358221220bf13417d89d27db73bf6b61b6bb02071ea6f1015d658b64c0d7fa848d12bd6b164736f6c63430008090033496e697469616c697a61626c653a20636f6e747261637420697320616c726561",
  "devdoc": {
    "kind": "dev",
    "methods": {
      "convertDecimal(uint256,uint256,uint256)": {
        "details": "convert a value from sourceDecimal to targetDecimal"
      },
      "getPrice(address)": {
        "details": "This oracle can only be used for display purposes and cannot be used as any actual value judgment basis.",
        "returns": {
          "_0": "Unsafe USD value with precision of 8"
        }
      }
    },
    "version": 1
  },
  "userdoc": {
    "kind": "user",
    "methods": {
      "getPrice(address)": {
        "notice": "!!! UNSAFE !!! !!! FOR DISPLAY ONLY !!!"
      }
    },
    "version": 1
  },
  "storageLayout": {
    "storage": [
      {
        "astId": 6,
        "contract": "contracts/appendix/DuetDppLpOracle.sol:DuetDppLpOracle",
        "label": "_initialized",
        "offset": 0,
        "slot": "0",
        "type": "t_uint8"
      },
      {
        "astId": 9,
        "contract": "contracts/appendix/DuetDppLpOracle.sol:DuetDppLpOracle",
        "label": "_initializing",
        "offset": 1,
        "slot": "0",
        "type": "t_bool"
      },
      {
        "astId": 875,
        "contract": "contracts/appendix/DuetDppLpOracle.sol:DuetDppLpOracle",
        "label": "admin",
        "offset": 2,
        "slot": "0",
        "type": "t_address"
      },
      {
        "astId": 505,
        "contract": "contracts/appendix/DuetDppLpOracle.sol:DuetDppLpOracle",
        "label": "usdLikeToken",
        "offset": 0,
        "slot": "1",
        "type": "t_address"
      },
      {
        "astId": 508,
        "contract": "contracts/appendix/DuetDppLpOracle.sol:DuetDppLpOracle",
        "label": "dodoOracle",
        "offset": 0,
        "slot": "2",
        "type": "t_contract(IDodoOracle)855"
      }
    ],
    "types": {
      "t_address": {
        "encoding": "inplace",
        "label": "address",
        "numberOfBytes": "20"
      },
      "t_bool": {
        "encoding": "inplace",
        "label": "bool",
        "numberOfBytes": "1"
      },
      "t_contract(IDodoOracle)855": {
        "encoding": "inplace",
        "label": "contract IDodoOracle",
        "numberOfBytes": "20"
      },
      "t_uint8": {
        "encoding": "inplace",
        "label": "uint8",
        "numberOfBytes": "1"
      }
    }
  }
}