{
  "address": "0x89A11f03f57553278505eFbC4c03CDFb8A0d8A93",
  "abi": [
    {
      "anonymous": false,
      "inputs": [
        {
          "indexed": true,
          "internalType": "address",
          "name": "user",
          "type": "address"
        },
        {
          "indexed": true,
          "internalType": "address",
          "name": "newAdmin",
          "type": "address"
        }
      ],
      "name": "AdminUpdated",
      "type": "event"
    },
    {
      "anonymous": false,
      "inputs": [
        {
          "indexed": false,
          "internalType": "uint8",
          "name": "version",
          "type": "uint8"
        }
      ],
      "name": "Initialized",
      "type": "event"
    },
    {
      "anonymous": false,
      "inputs": [
        {
          "indexed": false,
          "internalType": "address",
          "name": "baseToken",
          "type": "address"
        },
        {
          "indexed": false,
          "internalType": "address",
          "name": "quoteToken",
          "type": "address"
        },
        {
          "indexed": false,
          "internalType": "address",
          "name": "creator",
          "type": "address"
        },
        {
          "indexed": false,
          "internalType": "address",
          "name": "dpp",
          "type": "address"
        },
        {
          "indexed": false,
          "internalType": "address",
          "name": "dppController",
          "type": "address"
        }
      ],
      "name": "NewDPP",
      "type": "event"
    },
    {
      "inputs": [],
      "name": "CLONE_FACTORY",
      "outputs": [
        {
          "internalType": "address",
          "name": "",
          "type": "address"
        }
      ],
      "stateMutability": "view",
      "type": "function"
    },
    {
      "inputs": [],
      "name": "WETH",
      "outputs": [
        {
          "internalType": "address",
          "name": "",
          "type": "address"
        }
      ],
      "stateMutability": "view",
      "type": "function"
    },
    {
      "inputs": [],
      "name": "admin",
      "outputs": [
        {
          "internalType": "address",
          "name": "",
          "type": "address"
        }
      ],
      "stateMutability": "view",
      "type": "function"
    },
    {
      "inputs": [
        {
          "internalType": "address",
          "name": "creator_",
          "type": "address"
        },
        {
          "internalType": "address",
          "name": "baseToken_",
          "type": "address"
        },
        {
          "internalType": "address",
          "name": "quoteToken_",
          "type": "address"
        },
        {
          "internalType": "uint256",
          "name": "lpFeeRate_",
          "type": "uint256"
        },
        {
          "internalType": "uint256",
          "name": "k_",
          "type": "uint256"
        },
        {
          "internalType": "uint256",
          "name": "i_",
          "type": "uint256"
        },
        {
          "internalType": "address",
          "name": "o_",
          "type": "address"
        },
        {
          "internalType": "bool",
          "name": "isOpenTwap_",
          "type": "bool"
        },
        {
          "internalType": "bool",
          "name": "isOracleEnabled_",
          "type": "bool"
        }
      ],
      "name": "createDPPController",
      "outputs": [],
      "stateMutability": "nonpayable",
      "type": "function"
    },
    {
      "inputs": [
        {
          "internalType": "address",
          "name": "baseToken_",
          "type": "address"
        },
        {
          "internalType": "address",
          "name": "quoteToken_",
          "type": "address"
        },
        {
          "internalType": "address",
          "name": "dppCtrlAddress_",
          "type": "address"
        },
        {
          "internalType": "address",
          "name": "creator_",
          "type": "address"
        }
      ],
      "name": "delOnePool",
      "outputs": [],
      "stateMutability": "nonpayable",
      "type": "function"
    },
    {
      "inputs": [],
      "name": "dodoApproveProxy",
      "outputs": [
        {
          "internalType": "address",
          "name": "",
          "type": "address"
        }
      ],
      "stateMutability": "view",
      "type": "function"
    },
    {
      "inputs": [],
      "name": "dodoDefaultMaintainer",
      "outputs": [
        {
          "internalType": "address",
          "name": "",
          "type": "address"
        }
      ],
      "stateMutability": "view",
      "type": "function"
    },
    {
      "inputs": [],
      "name": "dodoDefautMtFeeRateModel",
      "outputs": [
        {
          "internalType": "address",
          "name": "",
          "type": "address"
        }
      ],
      "stateMutability": "view",
      "type": "function"
    },
    {
      "inputs": [],
      "name": "dppAdminTemplate",
      "outputs": [
        {
          "internalType": "address",
          "name": "",
          "type": "address"
        }
      ],
      "stateMutability": "view",
      "type": "function"
    },
    {
      "inputs": [],
      "name": "dppControllerTemplate",
      "outputs": [
        {
          "internalType": "address",
          "name": "",
          "type": "address"
        }
      ],
      "stateMutability": "view",
      "type": "function"
    },
    {
      "inputs": [],
      "name": "dppTemplate",
      "outputs": [
        {
          "internalType": "address",
          "name": "",
          "type": "address"
        }
      ],
      "stateMutability": "view",
      "type": "function"
    },
    {
      "inputs": [
        {
          "internalType": "address",
          "name": "admin_",
          "type": "address"
        },
        {
          "internalType": "address",
          "name": "cloneFactory_",
          "type": "address"
        },
        {
          "internalType": "address",
          "name": "dppTemplate_",
          "type": "address"
        },
        {
          "internalType": "address",
          "name": "dppAdminTemplate_",
          "type": "address"
        },
        {
          "internalType": "address",
          "name": "dppControllerTemplate_",
          "type": "address"
        },
        {
          "internalType": "address",
          "name": "defaultMaintainer_",
          "type": "address"
        },
        {
          "internalType": "address",
          "name": "defaultMtFeeRateModel_",
          "type": "address"
        },
        {
          "internalType": "address",
          "name": "dodoApproveProxy_",
          "type": "address"
        },
        {
          "internalType": "address",
          "name": "weth_",
          "type": "address"
        }
      ],
      "name": "initialize",
      "outputs": [],
      "stateMutability": "nonpayable",
      "type": "function"
    },
    {
      "inputs": [
        {
          "internalType": "address",
          "name": "",
          "type": "address"
        },
        {
          "internalType": "address",
          "name": "",
          "type": "address"
        }
      ],
      "name": "registry",
      "outputs": [
        {
          "internalType": "address",
          "name": "",
          "type": "address"
        }
      ],
      "stateMutability": "view",
      "type": "function"
    },
    {
      "inputs": [
        {
          "internalType": "address",
          "name": "newAdmin",
          "type": "address"
        }
      ],
      "name": "setAdmin",
      "outputs": [],
      "stateMutability": "nonpayable",
      "type": "function"
    },
    {
      "inputs": [
        {
          "internalType": "address",
          "name": "newDPPAdminTemplate_",
          "type": "address"
        }
      ],
      "name": "updateAdminTemplate",
      "outputs": [],
      "stateMutability": "nonpayable",
      "type": "function"
    },
    {
      "inputs": [
        {
          "internalType": "address",
          "name": "newController_",
          "type": "address"
        }
      ],
      "name": "updateControllerTemplate",
      "outputs": [],
      "stateMutability": "nonpayable",
      "type": "function"
    },
    {
      "inputs": [
        {
          "internalType": "address",
          "name": "newFeeModel_",
          "type": "address"
        }
      ],
      "name": "updateDefaultFeeModel",
      "outputs": [],
      "stateMutability": "nonpayable",
      "type": "function"
    },
    {
      "inputs": [
        {
          "internalType": "address",
          "name": "newMaintainer_",
          "type": "address"
        }
      ],
      "name": "updateDefaultMaintainer",
      "outputs": [],
      "stateMutability": "nonpayable",
      "type": "function"
    },
    {
      "inputs": [
        {
          "internalType": "address",
          "name": "newDodoApprove_",
          "type": "address"
        }
      ],
      "name": "updateDodoApprove",
      "outputs": [],
      "stateMutability": "nonpayable",
      "type": "function"
    },
    {
      "inputs": [
        {
          "internalType": "address",
          "name": "newDPPTemplate_",
          "type": "address"
        }
      ],
      "name": "updateDppTemplate",
      "outputs": [],
      "stateMutability": "nonpayable",
      "type": "function"
    },
    {
      "inputs": [
        {
          "internalType": "address",
          "name": "",
          "type": "address"
        },
        {
          "internalType": "uint256",
          "name": "",
          "type": "uint256"
        }
      ],
      "name": "userRegistry",
      "outputs": [
        {
          "internalType": "address",
          "name": "",
          "type": "address"
        }
      ],
      "stateMutability": "view",
      "type": "function"
    }
  ],
  "transactionHash": "0xeede01193f3ce0400729a122b66a419e02876faa5159987a57e927902d4de74d",
  "args": [],
  "numDeployments": 1,
  "solcInputHash": "dcc3fabce80967d9e00b0f08f1a0b4c4",
  "bytecode": "0x608060405234801561001057600080fd5b50611275806100206000396000f3fe608060405234801561001057600080fd5b50600436106101365760003560e01c80637d2c82d7116100b8578063caedbaf81161007c578063caedbaf814610297578063db715fea146102aa578063ef23977c146102bd578063f5e95acb146102d0578063f7220971146102e3578063f851a440146102f657600080fd5b80637d2c82d7146102175780639e988ee31461022a578063a5afd1b61461023d578063ad5c464814610271578063be7537f21461028457600080fd5b806343424431116100ff57806343424431146101b857806344b7f78e146101cb5780636494752a146101de578063704b6c02146101f1578063708f0b3a1461020457600080fd5b806242f7011461013b5780630214cb4c146101505780630bd4651a1461017f5780631426ca9b146101925780632bc609d5146101a5575b600080fd5b61014e610149366004610efe565b610309565b005b61016361015e366004610f99565b610676565b6040516001600160a01b03909116815260200160405180910390f35b600554610163906001600160a01b031681565b600654610163906001600160a01b031681565b61014e6101b3366004610fc5565b6106ae565b600854610163906001600160a01b031681565b61014e6101d9366004610fc5565b6106fa565b61014e6101ec366004610fc5565b610746565b61014e6101ff366004610fc5565b610792565b61014e610212366004610fe9565b6107c8565b61014e610225366004610fc5565b6109e0565b61014e610238366004610fc5565b610a2c565b61016361024b366004611045565b60096020908152600092835260408084209091529082529020546001600160a01b031681565b600254610163906001600160a01b031681565b600754610163906001600160a01b031681565b600354610163906001600160a01b031681565b61014e6102b8366004610fc5565b610a78565b600154610163906001600160a01b031681565b61014e6102de36600461107e565b610ac4565b600454610163906001600160a01b031681565b600054610163906001600160a01b031681565b6000546001600160a01b0316331461033c5760405162461bcd60e51b81526004016103339061113a565b60405180910390fd5b6001600160a01b0388811660009081526009602090815260408083208b851684529091529020541615801561039657506001600160a01b0387811660009081526009602090815260408083208c8516845290915290205416155b6103d15760405162461bcd60e51b815260206004820152600c60248201526b121055914810d4915055115160a21b6044820152606401610333565b6000806103dc610bc3565b915060006103e8610c4f565b600554600354604051634f115ccb60e01b81526001600160a01b03808516600483015292831660248201528e831660448201528d83166064820152608481018d905290821660a482015260c481018b905260e481018a9052888216610104820152871515610124820152861515610144820152919250841690634f115ccb9061016401600060405180830381600087803b15801561048557600080fd5b505af1158015610499573d6000803e3d6000fd5b505050506104a88c8483610c88565b600480546040516306552ff360e01b81526001600160a01b038085169382018490528781166024830152604482019390935290821660648201529193508216906306552ff390608401600060405180830381600087803b15801561050b57600080fd5b505af115801561051f573d6000803e3d6000fd5b505050505080600960008c6001600160a01b03166001600160a01b0316815260200190815260200160002060008b6001600160a01b03166001600160a01b0316815260200190815260200160002060006101000a8154816001600160a01b0302191690836001600160a01b03160217905550600a60008c6001600160a01b03166001600160a01b03168152602001908152602001600020819080600181540180825580915050600190039060005260206000200160009091909190916101000a8154816001600160a01b0302191690836001600160a01b031602179055507f5e55631db9f29584cb7b1abfa64a49ff89a39711c531b3c6bf05d389f62ac7938a8a8d85856040516106619594939291906001600160a01b0395861681529385166020850152918416604084015283166060830152909116608082015260a00190565b60405180910390a15050505050505050505050565b600a602052816000526040600020818154811061069257600080fd5b6000918252602090912001546001600160a01b03169150829050565b6000546001600160a01b031633146106d85760405162461bcd60e51b81526004016103339061113a565b600480546001600160a01b0319166001600160a01b0392909216919091179055565b6000546001600160a01b031633146107245760405162461bcd60e51b81526004016103339061113a565b600680546001600160a01b0319166001600160a01b0392909216919091179055565b6000546001600160a01b031633146107705760405162461bcd60e51b81526004016103339061113a565b600880546001600160a01b0319166001600160a01b0392909216919091179055565b6000546001600160a01b031633146107bc5760405162461bcd60e51b81526004016103339061113a565b6107c581610d8e565b50565b6000546001600160a01b031633146107f25760405162461bcd60e51b81526004016103339061113a565b6001600160a01b0384811660009081526009602090815260408083208785168452909152902054166108575760405162461bcd60e51b815260206004820152600e60248201526d1c1bdbdb081b9bdd08195e1a5cdd60921b6044820152606401610333565b6001600160a01b0380851660009081526009602090815260408083208785168452825280832080546001600160a01b03191690559284168252600a905290812054905b818110156109d8576001600160a01b038381166000908152600a60205260409020805491861691839081106108d1576108d1611160565b6000918252602090912001546001600160a01b031614156109c8576001600160a01b0383166000908152600a6020526040902061090f60018461118c565b8154811061091f5761091f611160565b60009182526020808320909101546001600160a01b038681168452600a909252604090922080549190921691908390811061095c5761095c611160565b600091825260208083209190910180546001600160a01b0319166001600160a01b039485161790559185168152600a909152604090208054806109a1576109a16111a3565b600082815260209020810160001990810180546001600160a01b03191690550190556109d8565b6109d1816111b9565b905061089a565b505050505050565b6000546001600160a01b03163314610a0a5760405162461bcd60e51b81526004016103339061113a565b600780546001600160a01b0319166001600160a01b0392909216919091179055565b6000546001600160a01b03163314610a565760405162461bcd60e51b81526004016103339061113a565b600580546001600160a01b0319166001600160a01b0392909216919091179055565b6000546001600160a01b03163314610aa25760405162461bcd60e51b81526004016103339061113a565b600380546001600160a01b0319166001600160a01b0392909216919091179055565b6000610ad06001610e39565b90508015610aec576000805460ff60a81b1916600160a81b1790555b610af58a610d8e565b600280546001600160a01b03199081166001600160a01b03858116919091179092556001805482168c84161790556006805482168b84161790556007805482168a8416179055600880548216898416179055600580548216888416179055600380548216878416179055600480549091169185169190911790558015610bb7576000805460ff60a81b19169055604051600181527f7f26b83ff96e1f2b6a682f133852f6798a09c465da95921460cefb38474024989060200160405180910390a15b50505050505050505050565b6001546006546040516340925bc760e11b81526001600160a01b0391821660048201526000929190911690638124b78e906024015b602060405180830381600087803b158015610c1257600080fd5b505af1158015610c26573d6000803e3d6000fd5b505050506040513d601f19601f82011682018060405250810190610c4a91906111d4565b905090565b6001546007546040516340925bc760e11b81526001600160a01b0391821660048201526000929190911690638124b78e90602401610bf8565b6001546008546040516340925bc760e11b81526001600160a01b0391821660048201526000929190911690638124b78e90602401602060405180830381600087803b158015610cd657600080fd5b505af1158015610cea573d6000803e3d6000fd5b505050506040513d601f19601f82011682018060405250810190610d0e91906111d4565b6002546040516306552ff360e01b81526001600160a01b0387811660048301528681166024830152858116604483015291821660648201529192508216906306552ff390608401600060405180830381600087803b158015610d6f57600080fd5b505af1158015610d83573d6000803e3d6000fd5b505050509392505050565b6001600160a01b038116610dee5760405162461bcd60e51b815260206004820152602160248201527f43616e206e6f74207365742061646d696e20746f207a65726f206164647265736044820152607360f81b6064820152608401610333565b600080546001600160a01b0319166001600160a01b0383169081178255604051909133917f101b8081ff3b56bbf45deb824d86a3b0fd38b7e3dd42421105cf8abe9106db0b9190a350565b60008054600160a81b900460ff1615610e82578160ff166001148015610e5e5750303b155b610e7a5760405162461bcd60e51b8152600401610333906111f1565b506000919050565b60005460ff808416600160a01b9092041610610eb05760405162461bcd60e51b8152600401610333906111f1565b506000805460ff909216600160a01b0260ff60a01b19909216919091179055600190565b919050565b6001600160a01b03811681146107c557600080fd5b80358015158114610ed457600080fd5b60008060008060008060008060006101208a8c031215610f1d57600080fd5b8935610f2881610ed9565b985060208a0135610f3881610ed9565b975060408a0135610f4881610ed9565b965060608a0135955060808a0135945060a08a0135935060c08a0135610f6d81610ed9565b9250610f7b60e08b01610eee565b9150610f8a6101008b01610eee565b90509295985092959850929598565b60008060408385031215610fac57600080fd5b8235610fb781610ed9565b946020939093013593505050565b600060208284031215610fd757600080fd5b8135610fe281610ed9565b9392505050565b60008060008060808587031215610fff57600080fd5b843561100a81610ed9565b9350602085013561101a81610ed9565b9250604085013561102a81610ed9565b9150606085013561103a81610ed9565b939692955090935050565b6000806040838503121561105857600080fd5b823561106381610ed9565b9150602083013561107381610ed9565b809150509250929050565b60008060008060008060008060006101208a8c03121561109d57600080fd5b89356110a881610ed9565b985060208a01356110b881610ed9565b975060408a01356110c881610ed9565b965060608a01356110d881610ed9565b955060808a01356110e881610ed9565b945060a08a01356110f881610ed9565b935060c08a013561110881610ed9565b925060e08a013561111881610ed9565b91506101008a013561112981610ed9565b809150509295985092959850929598565b6020808252600c908201526b15539055551213d49256915160a21b604082015260600190565b634e487b7160e01b600052603260045260246000fd5b634e487b7160e01b600052601160045260246000fd5b60008282101561119e5761119e611176565b500390565b634e487b7160e01b600052603160045260246000fd5b60006000198214156111cd576111cd611176565b5060010190565b6000602082840312156111e657600080fd5b8151610fe281610ed9565b6020808252602e908201527f496e697469616c697a61626c653a20636f6e747261637420697320616c72656160408201526d191e481a5b9a5d1a585b1a5e995960921b60608201526080019056fea26469706673582212208ee1c2cbb16a039f90b80a99febc260d94f912d7064fb6845457e116b134b1c164736f6c63430008090033",
  "devdoc": {
    "author": "So. Lu",
    "kind": "dev",
    "methods": {
      "createDPPController(address,address,address,uint256,uint256,uint256,address,bool,bool)": {
        "params": {
          "baseToken_": "basetoken address",
          "creator_": "dpp controller's admin and dppAdmin's operator",
          "i_": "base to quote price, decimals 18 - baseTokenDecimals+ quoteTokenDecimals. If use oracle, i set here wouldn't be used.",
          "isOpenTwap_": "use twap price or not",
          "isOracleEnabled_": "use oracle or not",
          "k_": "a param for swap curve, limit in [010**18], unit is  10**180 is stable price curve10**18 is bonding curve like uni",
          "lpFeeRate_": "lp fee rate, unit is 10**18, range in [0, 10**18]",
          "o_": "oracle address",
          "quoteToken_": "quotetoken address"
        }
      }
    },
    "title": "DppController",
    "version": 1
  },
  "userdoc": {
    "kind": "user",
    "methods": {
      "createDPPController(address,address,address,uint256,uint256,uint256,address,bool,bool)": {
        "notice": "create dpp Controller"
      },
      "updateDefaultFeeModel(address)": {
        "notice": "change dpp param - dodo feeModel"
      },
      "updateDefaultMaintainer(address)": {
        "notice": "change dpp param - dodo maintainer"
      },
      "updateDodoApprove(address)": {
        "notice": "change dpp param - dodo approve"
      }
    },
    "notice": "Use this contract to create controller",
    "version": 1
  },
  "storageLayout": {
    "storage": [
      {
        "astId": 9943,
        "contract": "contracts/factory/DuetDppFactory.sol:DuetDPPFactory",
        "label": "admin",
        "offset": 0,
        "slot": "0",
        "type": "t_address"
      },
      {
        "astId": 130,
        "contract": "contracts/factory/DuetDppFactory.sol:DuetDPPFactory",
        "label": "_initialized",
        "offset": 20,
        "slot": "0",
        "type": "t_uint8"
      },
      {
        "astId": 133,
        "contract": "contracts/factory/DuetDppFactory.sol:DuetDPPFactory",
        "label": "_initializing",
        "offset": 21,
        "slot": "0",
        "type": "t_bool"
      },
      {
        "astId": 8932,
        "contract": "contracts/factory/DuetDppFactory.sol:DuetDPPFactory",
        "label": "CLONE_FACTORY",
        "offset": 0,
        "slot": "1",
        "type": "t_address"
      },
      {
        "astId": 8934,
        "contract": "contracts/factory/DuetDppFactory.sol:DuetDPPFactory",
        "label": "WETH",
        "offset": 0,
        "slot": "2",
        "type": "t_address"
      },
      {
        "astId": 8936,
        "contract": "contracts/factory/DuetDppFactory.sol:DuetDPPFactory",
        "label": "dodoDefautMtFeeRateModel",
        "offset": 0,
        "slot": "3",
        "type": "t_address"
      },
      {
        "astId": 8938,
        "contract": "contracts/factory/DuetDppFactory.sol:DuetDPPFactory",
        "label": "dodoApproveProxy",
        "offset": 0,
        "slot": "4",
        "type": "t_address"
      },
      {
        "astId": 8940,
        "contract": "contracts/factory/DuetDppFactory.sol:DuetDPPFactory",
        "label": "dodoDefaultMaintainer",
        "offset": 0,
        "slot": "5",
        "type": "t_address"
      },
      {
        "astId": 8942,
        "contract": "contracts/factory/DuetDppFactory.sol:DuetDPPFactory",
        "label": "dppTemplate",
        "offset": 0,
        "slot": "6",
        "type": "t_address"
      },
      {
        "astId": 8944,
        "contract": "contracts/factory/DuetDppFactory.sol:DuetDPPFactory",
        "label": "dppAdminTemplate",
        "offset": 0,
        "slot": "7",
        "type": "t_address"
      },
      {
        "astId": 8946,
        "contract": "contracts/factory/DuetDppFactory.sol:DuetDPPFactory",
        "label": "dppControllerTemplate",
        "offset": 0,
        "slot": "8",
        "type": "t_address"
      },
      {
        "astId": 8952,
        "contract": "contracts/factory/DuetDppFactory.sol:DuetDPPFactory",
        "label": "registry",
        "offset": 0,
        "slot": "9",
        "type": "t_mapping(t_address,t_mapping(t_address,t_address))"
      },
      {
        "astId": 8957,
        "contract": "contracts/factory/DuetDppFactory.sol:DuetDPPFactory",
        "label": "userRegistry",
        "offset": 0,
        "slot": "10",
        "type": "t_mapping(t_address,t_array(t_address)dyn_storage)"
      }
    ],
    "types": {
      "t_address": {
        "encoding": "inplace",
        "label": "address",
        "numberOfBytes": "20"
      },
      "t_array(t_address)dyn_storage": {
        "base": "t_address",
        "encoding": "dynamic_array",
        "label": "address[]",
        "numberOfBytes": "32"
      },
      "t_bool": {
        "encoding": "inplace",
        "label": "bool",
        "numberOfBytes": "1"
      },
      "t_mapping(t_address,t_address)": {
        "encoding": "mapping",
        "key": "t_address",
        "label": "mapping(address => address)",
        "numberOfBytes": "32",
        "value": "t_address"
      },
      "t_mapping(t_address,t_array(t_address)dyn_storage)": {
        "encoding": "mapping",
        "key": "t_address",
        "label": "mapping(address => address[])",
        "numberOfBytes": "32",
        "value": "t_array(t_address)dyn_storage"
      },
      "t_mapping(t_address,t_mapping(t_address,t_address))": {
        "encoding": "mapping",
        "key": "t_address",
        "label": "mapping(address => mapping(address => address))",
        "numberOfBytes": "32",
        "value": "t_mapping(t_address,t_address)"
      },
      "t_uint8": {
        "encoding": "inplace",
        "label": "uint8",
        "numberOfBytes": "1"
      }
    }
  }
}