{
  "address": "0xFA3a9748403cc16998Bf2B0FB58388c70540361D",
  "abi": [
    {
      "anonymous": false,
      "inputs": [
        {
          "indexed": true,
          "internalType": "address",
          "name": "user",
          "type": "address"
        },
        {
          "indexed": true,
          "internalType": "address",
          "name": "newAdmin",
          "type": "address"
        }
      ],
      "name": "AdminUpdated",
      "type": "event"
    },
    {
      "anonymous": false,
      "inputs": [
        {
          "indexed": false,
          "internalType": "uint8",
          "name": "version",
          "type": "uint8"
        }
      ],
      "name": "Initialized",
      "type": "event"
    },
    {
      "inputs": [],
      "name": "admin",
      "outputs": [
        {
          "internalType": "address",
          "name": "",
          "type": "address"
        }
      ],
      "stateMutability": "view",
      "type": "function"
    },
    {
      "inputs": [
        {
          "internalType": "contract IERC20Upgradeable",
          "name": "token_",
          "type": "address"
        },
        {
          "internalType": "address",
          "name": "spender_",
          "type": "address"
        }
      ],
      "name": "approveToken",
      "outputs": [],
      "stateMutability": "nonpayable",
      "type": "function"
    },
    {
      "inputs": [
        {
          "internalType": "contract IERC20Upgradeable",
          "name": "token_",
          "type": "address"
        },
        {
          "internalType": "address",
          "name": "spender_",
          "type": "address"
        },
        {
          "internalType": "uint256",
          "name": "amount_",
          "type": "uint256"
        }
      ],
      "name": "approveTokenByAmount",
      "outputs": [],
      "stateMutability": "nonpayable",
      "type": "function"
    },
    {
      "inputs": [],
      "name": "controller",
      "outputs": [
        {
          "internalType": "contract IController",
          "name": "",
          "type": "address"
        }
      ],
      "stateMutability": "view",
      "type": "function"
    },
    {
      "inputs": [
        {
          "internalType": "address",
          "name": "admin_",
          "type": "address"
        },
        {
          "internalType": "contract IController",
          "name": "controller_",
          "type": "address"
        }
      ],
      "name": "initialize",
      "outputs": [],
      "stateMutability": "nonpayable",
      "type": "function"
    },
    {
      "inputs": [
        {
          "internalType": "address",
          "name": "borrower_",
          "type": "address"
        },
        {
          "internalType": "bytes",
          "name": "data_",
          "type": "bytes"
        }
      ],
      "name": "liquidate",
      "outputs": [],
      "stateMutability": "nonpayable",
      "type": "function"
    },
    {
      "inputs": [
        {
          "internalType": "address",
          "name": "borrower_",
          "type": "address"
        },
        {
          "internalType": "address",
          "name": "underlying_",
          "type": "address"
        },
        {
          "internalType": "uint256",
          "name": "amount_",
          "type": "uint256"
        },
        {
          "internalType": "bytes",
          "name": "data_",
          "type": "bytes"
        }
      ],
      "name": "liquidateBorrow",
      "outputs": [],
      "stateMutability": "nonpayable",
      "type": "function"
    },
    {
      "inputs": [
        {
          "internalType": "address",
          "name": "borrower_",
          "type": "address"
        },
        {
          "internalType": "address",
          "name": "underlying_",
          "type": "address"
        },
        {
          "internalType": "uint256",
          "name": "amount_",
          "type": "uint256"
        },
        {
          "internalType": "bytes",
          "name": "data_",
          "type": "bytes"
        }
      ],
      "name": "liquidateDeposit",
      "outputs": [],
      "stateMutability": "nonpayable",
      "type": "function"
    },
    {
      "inputs": [
        {
          "internalType": "address",
          "name": "newAdmin",
          "type": "address"
        }
      ],
      "name": "setAdmin",
      "outputs": [],
      "stateMutability": "nonpayable",
      "type": "function"
    },
    {
      "inputs": [
        {
          "internalType": "contract IController",
          "name": "controller_",
          "type": "address"
        }
      ],
      "name": "setController",
      "outputs": [],
      "stateMutability": "nonpayable",
      "type": "function"
    },
    {
      "inputs": [
        {
          "internalType": "contract IERC20Upgradeable",
          "name": "token_",
          "type": "address"
        },
        {
          "internalType": "address",
          "name": "to_",
          "type": "address"
        }
      ],
      "name": "transferToken",
      "outputs": [],
      "stateMutability": "nonpayable",
      "type": "function"
    },
    {
      "inputs": [
        {
          "internalType": "contract IERC20Upgradeable",
          "name": "token_",
          "type": "address"
        },
        {
          "internalType": "address",
          "name": "to_",
          "type": "address"
        },
        {
          "internalType": "uint256",
          "name": "amount_",
          "type": "uint256"
        }
      ],
      "name": "transferTokenByAmount",
      "outputs": [],
      "stateMutability": "nonpayable",
      "type": "function"
    }
  ],
  "transactionHash": "0x51f67de580ed10a5bf420ad26ffa98702736b5dda908052d37971eb88f8436d4",
  "args": [],
  "numDeployments": 2,
  "solcInputHash": "45060d2c403533d3458d170afa3d505b",
  "bytecode": "0x608060405234801561001057600080fd5b50610f7f806100206000396000f3fe608060405234801561001057600080fd5b50600436106100b45760003560e01c806348ae238f1161007157806348ae238f1461012d578063704b6c021461014057806392eefe9b14610153578063f77c479114610166578063f851a44014610195578063fb66893b146101a857600080fd5b8063029c083b146100b957806303105b04146100ce5780630eccd2c9146100e157806312f4a1ee146100f45780631d20dce714610107578063485cc9551461011a575b600080fd5b6100cc6100c7366004610bb6565b6101bb565b005b6100cc6100dc366004610bf7565b610207565b6100cc6100ef366004610c79565b610242565b6100cc610102366004610bb6565b6102d7565b6100cc610115366004610cce565b610315565b6100cc610128366004610bf7565b6103da565b6100cc61013b366004610bf7565b61047e565b6100cc61014e366004610d41565b610527565b6100cc610161366004610d41565b61055d565b600154610179906001600160a01b031681565b6040516001600160a01b03909116815260200160405180910390f35b600054610179906001600160a01b031681565b6100cc6101b6366004610cce565b6105a9565b6000546001600160a01b031633146101ee5760405162461bcd60e51b81526004016101e590610d5e565b60405180910390fd5b6102026001600160a01b038416838361067a565b505050565b6000546001600160a01b031633146102315760405162461bcd60e51b81526004016101e590610d5e565b61023e82826000196102d7565b5050565b6000546001600160a01b0316331461026c5760405162461bcd60e51b81526004016101e590610d5e565b600154604051630eccd2c960e01b81526001600160a01b0390911690630eccd2c9906102a090869086908690600401610d84565b600060405180830381600087803b1580156102ba57600080fd5b505af11580156102ce573d6000803e3d6000fd5b50505050505050565b6000546001600160a01b031633146103015760405162461bcd60e51b81526004016101e590610d5e565b6102026001600160a01b03841683836106dd565b600154604051635f49202f60e01b81523360048201526000916001600160a01b031690635f49202f9060240160c06040518083038186803b15801561035957600080fd5b505afa15801561036d573d6000803e3d6000fd5b505050506040513d601f19601f820116820180604052508101906103919190610dd4565b95505050505050806103d25760405162461bcd60e51b815260206004820152600a6024820152695661756c74204f6e6c7960b01b60448201526064016101e5565b505050505050565b60006103e66001610801565b90508015610402576000805460ff60a81b1916600160a81b1790555b600080546001600160a01b038086166001600160a01b03199283161790925560018054928516929091169190911790558015610202576000805460ff60a81b19169055604051600181527f7f26b83ff96e1f2b6a682f133852f6798a09c465da95921460cefb38474024989060200160405180910390a1505050565b6000546001600160a01b031633146104a85760405162461bcd60e51b81526004016101e590610d5e565b6040516370a0823160e01b815230600482015261023e90839083906001600160a01b038316906370a082319060240160206040518083038186803b1580156104ef57600080fd5b505afa158015610503573d6000803e3d6000fd5b505050506040513d601f19601f820116820180604052508101906100c79190610e48565b6000546001600160a01b031633146105515760405162461bcd60e51b81526004016101e590610d5e565b61055a816108a1565b50565b6000546001600160a01b031633146105875760405162461bcd60e51b81526004016101e590610d5e565b600180546001600160a01b0319166001600160a01b0392909216919091179055565b600154604051635f49202f60e01b81523360048201526000916001600160a01b031690635f49202f9060240160c06040518083038186803b1580156105ed57600080fd5b505afa158015610601573d6000803e3d6000fd5b505050506040513d601f19601f820116820180604052508101906106259190610dd4565b95505050505050806106665760405162461bcd60e51b815260206004820152600a6024820152695661756c74204f6e6c7960b01b60448201526064016101e5565b6103d26001600160a01b03861633866106dd565b6040516001600160a01b03831660248201526044810182905261020290849063a9059cbb60e01b906064015b60408051601f198184030181529190526020810180516001600160e01b03166001600160e01b03199093169290921790915261094c565b8015806107665750604051636eb1769f60e11b81523060048201526001600160a01b03838116602483015284169063dd62ed3e9060440160206040518083038186803b15801561072c57600080fd5b505afa158015610740573d6000803e3d6000fd5b505050506040513d601f19601f820116820180604052508101906107649190610e48565b155b6107d15760405162461bcd60e51b815260206004820152603660248201527f5361666545524332303a20617070726f76652066726f6d206e6f6e2d7a65726f60448201527520746f206e6f6e2d7a65726f20616c6c6f77616e636560501b60648201526084016101e5565b6040516001600160a01b03831660248201526044810182905261020290849063095ea7b360e01b906064016106a6565b60008054600160a81b900460ff161561084a578160ff1660011480156108265750303b155b6108425760405162461bcd60e51b81526004016101e590610e61565b506000919050565b60005460ff808416600160a01b90920416106108785760405162461bcd60e51b81526004016101e590610e61565b506000805460ff909216600160a01b0260ff60a01b19909216919091179055600190565b919050565b6001600160a01b0381166109015760405162461bcd60e51b815260206004820152602160248201527f43616e206e6f74207365742061646d696e20746f207a65726f206164647265736044820152607360f81b60648201526084016101e5565b600080546001600160a01b0319166001600160a01b0383169081178255604051909133917f101b8081ff3b56bbf45deb824d86a3b0fd38b7e3dd42421105cf8abe9106db0b9190a350565b60006109a1826040518060400160405280602081526020017f5361666545524332303a206c6f772d6c6576656c2063616c6c206661696c6564815250856001600160a01b0316610a1e9092919063ffffffff16565b80519091501561020257808060200190518101906109bf9190610eaf565b6102025760405162461bcd60e51b815260206004820152602a60248201527f5361666545524332303a204552433230206f7065726174696f6e20646964206e6044820152691bdd081cdd58d8d9595960b21b60648201526084016101e5565b6060610a2d8484600085610a37565b90505b9392505050565b606082471015610a985760405162461bcd60e51b815260206004820152602660248201527f416464726573733a20696e73756666696369656e742062616c616e636520666f6044820152651c8818d85b1b60d21b60648201526084016101e5565b6001600160a01b0385163b610aef5760405162461bcd60e51b815260206004820152601d60248201527f416464726573733a2063616c6c20746f206e6f6e2d636f6e747261637400000060448201526064016101e5565b600080866001600160a01b03168587604051610b0b9190610efa565b60006040518083038185875af1925050503d8060008114610b48576040519150601f19603f3d011682016040523d82523d6000602084013e610b4d565b606091505b5091509150610b5d828286610b68565b979650505050505050565b60608315610b77575081610a30565b825115610b875782518084602001fd5b8160405162461bcd60e51b81526004016101e59190610f16565b6001600160a01b038116811461055a57600080fd5b600080600060608486031215610bcb57600080fd5b8335610bd681610ba1565b92506020840135610be681610ba1565b929592945050506040919091013590565b60008060408385031215610c0a57600080fd5b8235610c1581610ba1565b91506020830135610c2581610ba1565b809150509250929050565b60008083601f840112610c4257600080fd5b50813567ffffffffffffffff811115610c5a57600080fd5b602083019150836020828501011115610c7257600080fd5b9250929050565b600080600060408486031215610c8e57600080fd5b8335610c9981610ba1565b9250602084013567ffffffffffffffff811115610cb557600080fd5b610cc186828701610c30565b9497909650939450505050565b600080600080600060808688031215610ce657600080fd5b8535610cf181610ba1565b94506020860135610d0181610ba1565b935060408601359250606086013567ffffffffffffffff811115610d2457600080fd5b610d3088828901610c30565b969995985093965092949392505050565b600060208284031215610d5357600080fd5b8135610a3081610ba1565b6020808252600c908201526b15539055551213d49256915160a21b604082015260600190565b6001600160a01b03841681526040602082018190528101829052818360608301376000818301606090810191909152601f909201601f1916010192915050565b8051801515811461089c57600080fd5b60008060008060008060c08789031215610ded57600080fd5b610df687610dc4565b9550610e0460208801610dc4565b9450610e1260408801610dc4565b9350610e2060608801610dc4565b9250610e2e60808801610dc4565b9150610e3c60a08801610dc4565b90509295509295509295565b600060208284031215610e5a57600080fd5b5051919050565b6020808252602e908201527f496e697469616c697a61626c653a20636f6e747261637420697320616c72656160408201526d191e481a5b9a5d1a585b1a5e995960921b606082015260800190565b600060208284031215610ec157600080fd5b610a3082610dc4565b60005b83811015610ee5578181015183820152602001610ecd565b83811115610ef4576000848401525b50505050565b60008251610f0c818460208701610eca565b9190910192915050565b6020815260008251806020840152610f35816040850160208701610eca565b601f01601f1916919091016040019291505056fea2646970667358221220b92f0824339c75e47da2a0938824ff310c0c29cd719c119aa500892d9cede25f64736f6c63430008090033",
  "devdoc": {
    "kind": "dev",
    "methods": {},
    "version": 1
  },
  "userdoc": {
    "kind": "user",
    "methods": {},
    "version": 1
  },
  "storageLayout": {
    "storage": [
      {
        "astId": 1102,
        "contract": "contracts/DuetNaiveLiquidator.sol:DuetNaiveLiquidator",
        "label": "admin",
        "offset": 0,
        "slot": "0",
        "type": "t_address"
      },
      {
        "astId": 6,
        "contract": "contracts/DuetNaiveLiquidator.sol:DuetNaiveLiquidator",
        "label": "_initialized",
        "offset": 20,
        "slot": "0",
        "type": "t_uint8"
      },
      {
        "astId": 9,
        "contract": "contracts/DuetNaiveLiquidator.sol:DuetNaiveLiquidator",
        "label": "_initializing",
        "offset": 21,
        "slot": "0",
        "type": "t_bool"
      },
      {
        "astId": 703,
        "contract": "contracts/DuetNaiveLiquidator.sol:DuetNaiveLiquidator",
        "label": "controller",
        "offset": 0,
        "slot": "1",
        "type": "t_contract(IController)1067"
      }
    ],
    "types": {
      "t_address": {
        "encoding": "inplace",
        "label": "address",
        "numberOfBytes": "20"
      },
      "t_bool": {
        "encoding": "inplace",
        "label": "bool",
        "numberOfBytes": "1"
      },
      "t_contract(IController)1067": {
        "encoding": "inplace",
        "label": "contract IController",
        "numberOfBytes": "20"
      },
      "t_uint8": {
        "encoding": "inplace",
        "label": "uint8",
        "numberOfBytes": "1"
      }
    }
  }
}