{
  "address": "0x4b797d9a694d38489d51C75F83f34d9b7D195fB0",
  "abi": [
    {
      "anonymous": false,
      "inputs": [
        {
          "indexed": true,
          "internalType": "address",
          "name": "user",
          "type": "address"
        },
        {
          "indexed": true,
          "internalType": "address",
          "name": "newAdmin",
          "type": "address"
        }
      ],
      "name": "AdminUpdated",
      "type": "event"
    },
    {
      "anonymous": false,
      "inputs": [
        {
          "indexed": false,
          "internalType": "uint8",
          "name": "version",
          "type": "uint8"
        }
      ],
      "name": "Initialized",
      "type": "event"
    },
    {
      "inputs": [],
      "name": "admin",
      "outputs": [
        {
          "internalType": "address",
          "name": "",
          "type": "address"
        }
      ],
      "stateMutability": "view",
      "type": "function"
    },
    {
      "inputs": [
        {
          "internalType": "contract IERC20Upgradeable",
          "name": "token_",
          "type": "address"
        },
        {
          "internalType": "address",
          "name": "spender_",
          "type": "address"
        }
      ],
      "name": "approveToken",
      "outputs": [],
      "stateMutability": "nonpayable",
      "type": "function"
    },
    {
      "inputs": [
        {
          "internalType": "contract IERC20Upgradeable",
          "name": "token_",
          "type": "address"
        },
        {
          "internalType": "address",
          "name": "spender_",
          "type": "address"
        },
        {
          "internalType": "uint256",
          "name": "amount_",
          "type": "uint256"
        }
      ],
      "name": "approveTokenByAmount",
      "outputs": [],
      "stateMutability": "nonpayable",
      "type": "function"
    },
    {
      "inputs": [],
      "name": "controller",
      "outputs": [
        {
          "internalType": "contract IController",
          "name": "",
          "type": "address"
        }
      ],
      "stateMutability": "view",
      "type": "function"
    },
    {
      "inputs": [
        {
          "internalType": "address",
          "name": "admin_",
          "type": "address"
        },
        {
          "internalType": "contract IController",
          "name": "controller_",
          "type": "address"
        }
      ],
      "name": "initialize",
      "outputs": [],
      "stateMutability": "nonpayable",
      "type": "function"
    },
    {
      "inputs": [
        {
          "internalType": "address",
          "name": "borrower_",
          "type": "address"
        },
        {
          "internalType": "bytes",
          "name": "data_",
          "type": "bytes"
        }
      ],
      "name": "liquidate",
      "outputs": [],
      "stateMutability": "nonpayable",
      "type": "function"
    },
    {
      "inputs": [
        {
          "internalType": "address",
          "name": "borrower_",
          "type": "address"
        },
        {
          "internalType": "address",
          "name": "underlying_",
          "type": "address"
        },
        {
          "internalType": "uint256",
          "name": "amount_",
          "type": "uint256"
        },
        {
          "internalType": "bytes",
          "name": "data_",
          "type": "bytes"
        }
      ],
      "name": "liquidateBorrow",
      "outputs": [],
      "stateMutability": "nonpayable",
      "type": "function"
    },
    {
      "inputs": [
        {
          "internalType": "address",
          "name": "borrower_",
          "type": "address"
        },
        {
          "internalType": "address",
          "name": "underlying_",
          "type": "address"
        },
        {
          "internalType": "uint256",
          "name": "amount_",
          "type": "uint256"
        },
        {
          "internalType": "bytes",
          "name": "data_",
          "type": "bytes"
        }
      ],
      "name": "liquidateDeposit",
      "outputs": [],
      "stateMutability": "nonpayable",
      "type": "function"
    },
    {
      "inputs": [
        {
          "internalType": "address",
          "name": "newAdmin",
          "type": "address"
        }
      ],
      "name": "setAdmin",
      "outputs": [],
      "stateMutability": "nonpayable",
      "type": "function"
    },
    {
      "inputs": [
        {
          "internalType": "contract IController",
          "name": "controller_",
          "type": "address"
        }
      ],
      "name": "setController",
      "outputs": [],
      "stateMutability": "nonpayable",
      "type": "function"
    },
    {
      "inputs": [
        {
          "internalType": "contract IERC20Upgradeable",
          "name": "token_",
          "type": "address"
        },
        {
          "internalType": "address",
          "name": "to_",
          "type": "address"
        }
      ],
      "name": "transferToken",
      "outputs": [],
      "stateMutability": "nonpayable",
      "type": "function"
    },
    {
      "inputs": [
        {
          "internalType": "contract IERC20Upgradeable",
          "name": "token_",
          "type": "address"
        },
        {
          "internalType": "address",
          "name": "to_",
          "type": "address"
        },
        {
          "internalType": "uint256",
          "name": "amount_",
          "type": "uint256"
        }
      ],
      "name": "transferTokenByAmount",
      "outputs": [],
      "stateMutability": "nonpayable",
      "type": "function"
    },
    {
      "inputs": [
        {
          "internalType": "contract IERC20Upgradeable[]",
          "name": "tokens_",
          "type": "address[]"
        }
      ],
      "name": "transferTokens",
      "outputs": [],
      "stateMutability": "nonpayable",
      "type": "function"
    },
    {
      "inputs": [
        {
          "internalType": "contract IDYToken[]",
          "name": "dyTokens_",
          "type": "address[]"
        }
      ],
      "name": "withdrawDyTokens",
      "outputs": [],
      "stateMutability": "nonpayable",
      "type": "function"
    }
  ],
  "transactionHash": "0xdb2647012750fd407545436d6f3479cf9f5aad1671d6b2ad6aafbd1ea725d8fb",
  "args": [],
  "numDeployments": 4,
  "solcInputHash": "a903e64bae63213ad6e5c8aae5b22219",
  "bytecode": "0x608060405234801561001057600080fd5b506112a5806100206000396000f3fe608060405234801561001057600080fd5b50600436106100ea5760003560e01c8063704b6c021161008c578063cc8ddc4211610066578063cc8ddc42146101af578063f77c4791146101c2578063f851a440146101f1578063fb66893b1461020457600080fd5b8063704b6c021461017657806392eefe9b14610189578063a4d5b6f31461019c57600080fd5b806312f4a1ee116100c857806312f4a1ee1461012a5780631d20dce71461013d578063485cc9551461015057806348ae238f1461016357600080fd5b8063029c083b146100ef57806303105b04146101045780630eccd2c914610117575b600080fd5b6101026100fd366004610e16565b610217565b005b610102610112366004610e57565b610263565b610102610125366004610ed9565b61029e565b610102610138366004610e16565b610333565b61010261014b366004610f2e565b610371565b61010261015e366004610e57565b610436565b610102610171366004610e57565b6104da565b610102610184366004610fa1565b610584565b610102610197366004610fa1565b6105ba565b6101026101aa366004611003565b610606565b6101026101bd366004611003565b6106ae565b6001546101d5906001600160a01b031681565b6040516001600160a01b03909116815260200160405180910390f35b6000546101d5906001600160a01b031681565b610102610212366004610f2e565b610809565b6000546001600160a01b0316331461024a5760405162461bcd60e51b815260040161024190611045565b60405180910390fd5b61025e6001600160a01b03841683836108da565b505050565b6000546001600160a01b0316331461028d5760405162461bcd60e51b815260040161024190611045565b61029a8282600019610333565b5050565b6000546001600160a01b031633146102c85760405162461bcd60e51b815260040161024190611045565b600154604051630eccd2c960e01b81526001600160a01b0390911690630eccd2c9906102fc9086908690869060040161106b565b600060405180830381600087803b15801561031657600080fd5b505af115801561032a573d6000803e3d6000fd5b50505050505050565b6000546001600160a01b0316331461035d5760405162461bcd60e51b815260040161024190611045565b61025e6001600160a01b038416838361093d565b600154604051635f49202f60e01b81523360048201526000916001600160a01b031690635f49202f9060240160c06040518083038186803b1580156103b557600080fd5b505afa1580156103c9573d6000803e3d6000fd5b505050506040513d601f19601f820116820180604052508101906103ed91906110bb565b955050505050508061042e5760405162461bcd60e51b815260206004820152600a6024820152695661756c74204f6e6c7960b01b6044820152606401610241565b505050505050565b60006104426001610a61565b9050801561045e576000805460ff60a81b1916600160a81b1790555b600080546001600160a01b038086166001600160a01b0319928316179092556001805492851692909116919091179055801561025e576000805460ff60a81b19169055604051600181527f7f26b83ff96e1f2b6a682f133852f6798a09c465da95921460cefb38474024989060200160405180910390a1505050565b6000546001600160a01b031633146105045760405162461bcd60e51b815260040161024190611045565b6040516370a0823160e01b815230600482015261029a90839083906001600160a01b038316906370a08231906024015b60206040518083038186803b15801561054c57600080fd5b505afa158015610560573d6000803e3d6000fd5b505050506040513d601f19601f820116820180604052508101906100fd919061112f565b6000546001600160a01b031633146105ae5760405162461bcd60e51b815260040161024190611045565b6105b781610b01565b50565b6000546001600160a01b031633146105e45760405162461bcd60e51b815260040161024190611045565b600180546001600160a01b0319166001600160a01b0392909216919091179055565b6000546001600160a01b031633146106305760405162461bcd60e51b815260040161024190611045565b60005b8181101561025e57600083838381811061064f5761064f611148565b90506020020160208101906106649190610fa1565b6040516370a0823160e01b815230600482015290915061069b90829033906001600160a01b038316906370a0823190602401610534565b50806106a68161115e565b915050610633565b6000546001600160a01b031633146106d85760405162461bcd60e51b815260040161024190611045565b60005b8181101561025e5760008383838181106106f7576106f7611148565b905060200201602081019061070c9190610fa1565b6040516370a0823160e01b81523060048201529091506001600160a01b0382169063ead5d35990339083906370a082319060240160206040518083038186803b15801561075857600080fd5b505afa15801561076c573d6000803e3d6000fd5b505050506040513d601f19601f82011682018060405250810190610790919061112f565b6040516001600160e01b031960e085901b1681526001600160a01b039092166004830152602482015260006044820152606401600060405180830381600087803b1580156107dd57600080fd5b505af11580156107f1573d6000803e3d6000fd5b505050505080806108019061115e565b9150506106db565b600154604051635f49202f60e01b81523360048201526000916001600160a01b031690635f49202f9060240160c06040518083038186803b15801561084d57600080fd5b505afa158015610861573d6000803e3d6000fd5b505050506040513d601f19601f8201168201806040525081019061088591906110bb565b95505050505050806108c65760405162461bcd60e51b815260206004820152600a6024820152695661756c74204f6e6c7960b01b6044820152606401610241565b61042e6001600160a01b038616338661093d565b6040516001600160a01b03831660248201526044810182905261025e90849063a9059cbb60e01b906064015b60408051601f198184030181529190526020810180516001600160e01b03166001600160e01b031990931692909217909152610bac565b8015806109c65750604051636eb1769f60e11b81523060048201526001600160a01b03838116602483015284169063dd62ed3e9060440160206040518083038186803b15801561098c57600080fd5b505afa1580156109a0573d6000803e3d6000fd5b505050506040513d601f19601f820116820180604052508101906109c4919061112f565b155b610a315760405162461bcd60e51b815260206004820152603660248201527f5361666545524332303a20617070726f76652066726f6d206e6f6e2d7a65726f60448201527520746f206e6f6e2d7a65726f20616c6c6f77616e636560501b6064820152608401610241565b6040516001600160a01b03831660248201526044810182905261025e90849063095ea7b360e01b90606401610906565b60008054600160a81b900460ff1615610aaa578160ff166001148015610a865750303b155b610aa25760405162461bcd60e51b815260040161024190611187565b506000919050565b60005460ff808416600160a01b9092041610610ad85760405162461bcd60e51b815260040161024190611187565b506000805460ff909216600160a01b0260ff60a01b19909216919091179055600190565b919050565b6001600160a01b038116610b615760405162461bcd60e51b815260206004820152602160248201527f43616e206e6f74207365742061646d696e20746f207a65726f206164647265736044820152607360f81b6064820152608401610241565b600080546001600160a01b0319166001600160a01b0383169081178255604051909133917f101b8081ff3b56bbf45deb824d86a3b0fd38b7e3dd42421105cf8abe9106db0b9190a350565b6000610c01826040518060400160405280602081526020017f5361666545524332303a206c6f772d6c6576656c2063616c6c206661696c6564815250856001600160a01b0316610c7e9092919063ffffffff16565b80519091501561025e5780806020019051810190610c1f91906111d5565b61025e5760405162461bcd60e51b815260206004820152602a60248201527f5361666545524332303a204552433230206f7065726174696f6e20646964206e6044820152691bdd081cdd58d8d9595960b21b6064820152608401610241565b6060610c8d8484600085610c97565b90505b9392505050565b606082471015610cf85760405162461bcd60e51b815260206004820152602660248201527f416464726573733a20696e73756666696369656e742062616c616e636520666f6044820152651c8818d85b1b60d21b6064820152608401610241565b6001600160a01b0385163b610d4f5760405162461bcd60e51b815260206004820152601d60248201527f416464726573733a2063616c6c20746f206e6f6e2d636f6e74726163740000006044820152606401610241565b600080866001600160a01b03168587604051610d6b9190611220565b60006040518083038185875af1925050503d8060008114610da8576040519150601f19603f3d011682016040523d82523d6000602084013e610dad565b606091505b5091509150610dbd828286610dc8565b979650505050505050565b60608315610dd7575081610c90565b825115610de75782518084602001fd5b8160405162461bcd60e51b8152600401610241919061123c565b6001600160a01b03811681146105b757600080fd5b600080600060608486031215610e2b57600080fd5b8335610e3681610e01565b92506020840135610e4681610e01565b929592945050506040919091013590565b60008060408385031215610e6a57600080fd5b8235610e7581610e01565b91506020830135610e8581610e01565b809150509250929050565b60008083601f840112610ea257600080fd5b50813567ffffffffffffffff811115610eba57600080fd5b602083019150836020828501011115610ed257600080fd5b9250929050565b600080600060408486031215610eee57600080fd5b8335610ef981610e01565b9250602084013567ffffffffffffffff811115610f1557600080fd5b610f2186828701610e90565b9497909650939450505050565b600080600080600060808688031215610f4657600080fd5b8535610f5181610e01565b94506020860135610f6181610e01565b935060408601359250606086013567ffffffffffffffff811115610f8457600080fd5b610f9088828901610e90565b969995985093965092949392505050565b600060208284031215610fb357600080fd5b8135610c9081610e01565b60008083601f840112610fd057600080fd5b50813567ffffffffffffffff811115610fe857600080fd5b6020830191508360208260051b8501011115610ed257600080fd5b6000806020838503121561101657600080fd5b823567ffffffffffffffff81111561102d57600080fd5b61103985828601610fbe565b90969095509350505050565b6020808252600c908201526b15539055551213d49256915160a21b604082015260600190565b6001600160a01b03841681526040602082018190528101829052818360608301376000818301606090810191909152601f909201601f1916010192915050565b80518015158114610afc57600080fd5b60008060008060008060c087890312156110d457600080fd5b6110dd876110ab565b95506110eb602088016110ab565b94506110f9604088016110ab565b9350611107606088016110ab565b9250611115608088016110ab565b915061112360a088016110ab565b90509295509295509295565b60006020828403121561114157600080fd5b5051919050565b634e487b7160e01b600052603260045260246000fd5b600060001982141561118057634e487b7160e01b600052601160045260246000fd5b5060010190565b6020808252602e908201527f496e697469616c697a61626c653a20636f6e747261637420697320616c72656160408201526d191e481a5b9a5d1a585b1a5e995960921b606082015260800190565b6000602082840312156111e757600080fd5b610c90826110ab565b60005b8381101561120b5781810151838201526020016111f3565b8381111561121a576000848401525b50505050565b600082516112328184602087016111f0565b9190910192915050565b602081526000825180602084015261125b8160408501602087016111f0565b601f01601f1916919091016040019291505056fea264697066735822122063d9d852594038961f2529f7958602afc612de17079bf6c7a31771a82345f37764736f6c63430008090033",
  "devdoc": {
    "kind": "dev",
    "methods": {},
    "version": 1
  },
  "userdoc": {
    "kind": "user",
    "methods": {},
    "version": 1
  },
  "storageLayout": {
    "storage": [
      {
        "astId": 1255,
        "contract": "contracts/DuetNaiveLiquidator.sol:DuetNaiveLiquidator",
        "label": "admin",
        "offset": 0,
        "slot": "0",
        "type": "t_address"
      },
      {
        "astId": 6,
        "contract": "contracts/DuetNaiveLiquidator.sol:DuetNaiveLiquidator",
        "label": "_initialized",
        "offset": 20,
        "slot": "0",
        "type": "t_uint8"
      },
      {
        "astId": 9,
        "contract": "contracts/DuetNaiveLiquidator.sol:DuetNaiveLiquidator",
        "label": "_initializing",
        "offset": 21,
        "slot": "0",
        "type": "t_bool"
      },
      {
        "astId": 704,
        "contract": "contracts/DuetNaiveLiquidator.sol:DuetNaiveLiquidator",
        "label": "controller",
        "offset": 0,
        "slot": "1",
        "type": "t_contract(IController)1161"
      }
    ],
    "types": {
      "t_address": {
        "encoding": "inplace",
        "label": "address",
        "numberOfBytes": "20"
      },
      "t_bool": {
        "encoding": "inplace",
        "label": "bool",
        "numberOfBytes": "1"
      },
      "t_contract(IController)1161": {
        "encoding": "inplace",
        "label": "contract IController",
        "numberOfBytes": "20"
      },
      "t_uint8": {
        "encoding": "inplace",
        "label": "uint8",
        "numberOfBytes": "1"
      }
    }
  }
}