{
  "address": "0xF75fbFee6A1Dbe92fB9A8Aa8b8946C8cA0A97761",
  "abi": [
    {
      "inputs": [
        {
          "internalType": "string",
          "name": "name_",
          "type": "string"
        },
        {
          "internalType": "string",
          "name": "symbol_",
          "type": "string"
        },
        {
          "internalType": "contract IERC20Metadata",
          "name": "underlying_",
          "type": "address"
        },
        {
          "internalType": "uint256",
          "name": "maturity_",
          "type": "uint256"
        },
        {
          "internalType": "bool",
          "name": "onlyOwnerMintable_",
          "type": "bool"
        }
      ],
      "stateMutability": "nonpayable",
      "type": "constructor"
    },
    {
      "anonymous": false,
      "inputs": [
        {
          "indexed": true,
          "internalType": "address",
          "name": "owner",
          "type": "address"
        },
        {
          "indexed": true,
          "internalType": "address",
          "name": "spender",
          "type": "address"
        },
        {
          "indexed": false,
          "internalType": "uint256",
          "name": "value",
          "type": "uint256"
        }
      ],
      "name": "Approval",
      "type": "event"
    },
    {
      "anonymous": false,
      "inputs": [
        {
          "indexed": true,
          "internalType": "address",
          "name": "to",
          "type": "address"
        },
        {
          "indexed": false,
          "internalType": "uint256",
          "name": "amount",
          "type": "uint256"
        }
      ],
      "name": "Mint",
      "type": "event"
    },
    {
      "anonymous": false,
      "inputs": [
        {
          "indexed": true,
          "internalType": "address",
          "name": "previousOwner",
          "type": "address"
        },
        {
          "indexed": true,
          "internalType": "address",
          "name": "newOwner",
          "type": "address"
        }
      ],
      "name": "OwnershipTransferred",
      "type": "event"
    },
    {
      "anonymous": false,
      "inputs": [
        {
          "indexed": true,
          "internalType": "address",
          "name": "to",
          "type": "address"
        },
        {
          "indexed": false,
          "internalType": "uint256",
          "name": "amount",
          "type": "uint256"
        }
      ],
      "name": "Redeem",
      "type": "event"
    },
    {
      "anonymous": false,
      "inputs": [
        {
          "indexed": true,
          "internalType": "address",
          "name": "from",
          "type": "address"
        },
        {
          "indexed": true,
          "internalType": "address",
          "name": "to",
          "type": "address"
        },
        {
          "indexed": false,
          "internalType": "uint256",
          "name": "value",
          "type": "uint256"
        }
      ],
      "name": "Transfer",
      "type": "event"
    },
    {
      "inputs": [
        {
          "internalType": "address",
          "name": "owner",
          "type": "address"
        },
        {
          "internalType": "address",
          "name": "spender",
          "type": "address"
        }
      ],
      "name": "allowance",
      "outputs": [
        {
          "internalType": "uint256",
          "name": "",
          "type": "uint256"
        }
      ],
      "stateMutability": "view",
      "type": "function"
    },
    {
      "inputs": [
        {
          "internalType": "address",
          "name": "spender",
          "type": "address"
        },
        {
          "internalType": "uint256",
          "name": "amount",
          "type": "uint256"
        }
      ],
      "name": "approve",
      "outputs": [
        {
          "internalType": "bool",
          "name": "",
          "type": "bool"
        }
      ],
      "stateMutability": "nonpayable",
      "type": "function"
    },
    {
      "inputs": [
        {
          "internalType": "address",
          "name": "account",
          "type": "address"
        }
      ],
      "name": "balanceOf",
      "outputs": [
        {
          "internalType": "uint256",
          "name": "",
          "type": "uint256"
        }
      ],
      "stateMutability": "view",
      "type": "function"
    },
    {
      "inputs": [],
      "name": "decimals",
      "outputs": [
        {
          "internalType": "uint8",
          "name": "",
          "type": "uint8"
        }
      ],
      "stateMutability": "view",
      "type": "function"
    },
    {
      "inputs": [
        {
          "internalType": "address",
          "name": "spender",
          "type": "address"
        },
        {
          "internalType": "uint256",
          "name": "subtractedValue",
          "type": "uint256"
        }
      ],
      "name": "decreaseAllowance",
      "outputs": [
        {
          "internalType": "bool",
          "name": "",
          "type": "bool"
        }
      ],
      "stateMutability": "nonpayable",
      "type": "function"
    },
    {
      "inputs": [
        {
          "internalType": "address",
          "name": "spender",
          "type": "address"
        },
        {
          "internalType": "uint256",
          "name": "addedValue",
          "type": "uint256"
        }
      ],
      "name": "increaseAllowance",
      "outputs": [
        {
          "internalType": "bool",
          "name": "",
          "type": "bool"
        }
      ],
      "stateMutability": "nonpayable",
      "type": "function"
    },
    {
      "inputs": [],
      "name": "maturity",
      "outputs": [
        {
          "internalType": "uint256",
          "name": "",
          "type": "uint256"
        }
      ],
      "stateMutability": "view",
      "type": "function"
    },
    {
      "inputs": [
        {
          "internalType": "address",
          "name": "to_",
          "type": "address"
        },
        {
          "internalType": "uint256",
          "name": "amount_",
          "type": "uint256"
        }
      ],
      "name": "mint",
      "outputs": [],
      "stateMutability": "nonpayable",
      "type": "function"
    },
    {
      "inputs": [],
      "name": "name",
      "outputs": [
        {
          "internalType": "string",
          "name": "",
          "type": "string"
        }
      ],
      "stateMutability": "view",
      "type": "function"
    },
    {
      "inputs": [],
      "name": "onlyOwnerMintable",
      "outputs": [
        {
          "internalType": "bool",
          "name": "",
          "type": "bool"
        }
      ],
      "stateMutability": "view",
      "type": "function"
    },
    {
      "inputs": [],
      "name": "owner",
      "outputs": [
        {
          "internalType": "address",
          "name": "",
          "type": "address"
        }
      ],
      "stateMutability": "view",
      "type": "function"
    },
    {
      "inputs": [
        {
          "internalType": "address",
          "name": "to_",
          "type": "address"
        },
        {
          "internalType": "uint256",
          "name": "amount_",
          "type": "uint256"
        }
      ],
      "name": "redeem",
      "outputs": [],
      "stateMutability": "nonpayable",
      "type": "function"
    },
    {
      "inputs": [
        {
          "internalType": "address",
          "name": "to_",
          "type": "address"
        }
      ],
      "name": "redeemAll",
      "outputs": [],
      "stateMutability": "nonpayable",
      "type": "function"
    },
    {
      "inputs": [],
      "name": "renounceOwnership",
      "outputs": [],
      "stateMutability": "nonpayable",
      "type": "function"
    },
    {
      "inputs": [
        {
          "internalType": "bool",
          "name": "onlyOwnerMintable_",
          "type": "bool"
        }
      ],
      "name": "setOnlyOwnerMintable",
      "outputs": [],
      "stateMutability": "nonpayable",
      "type": "function"
    },
    {
      "inputs": [],
      "name": "symbol",
      "outputs": [
        {
          "internalType": "string",
          "name": "",
          "type": "string"
        }
      ],
      "stateMutability": "view",
      "type": "function"
    },
    {
      "inputs": [],
      "name": "totalSupply",
      "outputs": [
        {
          "internalType": "uint256",
          "name": "",
          "type": "uint256"
        }
      ],
      "stateMutability": "view",
      "type": "function"
    },
    {
      "inputs": [
        {
          "internalType": "address",
          "name": "to",
          "type": "address"
        },
        {
          "internalType": "uint256",
          "name": "amount",
          "type": "uint256"
        }
      ],
      "name": "transfer",
      "outputs": [
        {
          "internalType": "bool",
          "name": "",
          "type": "bool"
        }
      ],
      "stateMutability": "nonpayable",
      "type": "function"
    },
    {
      "inputs": [
        {
          "internalType": "address",
          "name": "from",
          "type": "address"
        },
        {
          "internalType": "address",
          "name": "to",
          "type": "address"
        },
        {
          "internalType": "uint256",
          "name": "amount",
          "type": "uint256"
        }
      ],
      "name": "transferFrom",
      "outputs": [
        {
          "internalType": "bool",
          "name": "",
          "type": "bool"
        }
      ],
      "stateMutability": "nonpayable",
      "type": "function"
    },
    {
      "inputs": [
        {
          "internalType": "address",
          "name": "newOwner",
          "type": "address"
        }
      ],
      "name": "transferOwnership",
      "outputs": [],
      "stateMutability": "nonpayable",
      "type": "function"
    },
    {
      "inputs": [],
      "name": "underlying",
      "outputs": [
        {
          "internalType": "contract IERC20Metadata",
          "name": "",
          "type": "address"
        }
      ],
      "stateMutability": "view",
      "type": "function"
    }
  ],
  "transactionHash": "0x9926fbf22d691a3c277db4185b1f3c433261623774478dbab9d65adfdaa4770e",
  "args": [
    "dummy contract",
    "dummy symbol",
    "0xe9e7cea3dedca5984780bafc599bd69add087d56",
    1,
    true
  ],
  "numDeployments": 1,
  "solcInputHash": "15c0cddb7e329ac658f70615876d6cf7",
  "bytecode": "0x60c06040523480156200001157600080fd5b506040516200197a3803806200197a833981016040819052620000349162000261565b84846003620000448382620003a1565b506004620000538282620003a1565b505060016005555062000066336200014a565b60008211620000bc5760405162461bcd60e51b815260206004820152601960248201527f53696e676c65426f6e643a206d6174757269747920697320300000000000000060448201526064015b60405180910390fd5b6001600160a01b038316620001145760405162461bcd60e51b815260206004820152601e60248201527f53696e676c65426f6e643a20696e76616c696420756e6465726c79696e6700006044820152606401620000b3565b6001600160a01b0390921660805260a05260068054911515600160a01b0260ff60a01b19909216919091179055506200046d9050565b600680546001600160a01b038381166001600160a01b0319831681179093556040519116919082907f8be0079c531659141344cd1fd0a4f28419497f9722a3daafe3b4186f6b6457e090600090a35050565b634e487b7160e01b600052604160045260246000fd5b600082601f830112620001c457600080fd5b81516001600160401b0380821115620001e157620001e16200019c565b604051601f8301601f19908116603f011681019082821181831017156200020c576200020c6200019c565b816040528381526020925086838588010111156200022957600080fd5b600091505b838210156200024d57858201830151818301840152908201906200022e565b600093810190920192909252949350505050565b600080600080600060a086880312156200027a57600080fd5b85516001600160401b03808211156200029257600080fd5b620002a089838a01620001b2565b96506020880151915080821115620002b757600080fd5b50620002c688828901620001b2565b604088015190955090506001600160a01b0381168114620002e657600080fd5b60608701516080880151919450925080151581146200030457600080fd5b809150509295509295909350565b600181811c908216806200032757607f821691505b6020821081036200034857634e487b7160e01b600052602260045260246000fd5b50919050565b601f8211156200039c57600081815260208120601f850160051c81016020861015620003775750805b601f850160051c820191505b81811015620003985782815560010162000383565b5050505b505050565b81516001600160401b03811115620003bd57620003bd6200019c565b620003d581620003ce845462000312565b846200034e565b602080601f8311600181146200040d5760008415620003f45750858301515b600019600386901b1c1916600185901b17855562000398565b600085815260208120601f198616915b828110156200043e578886015182559484019460019091019084016200041d565b50858210156200045d5787850151600019600388901b60f8161c191681555b5050505050600190811b01905550565b60805160a0516114bd620004bd600039600081816101a9015281816103db0152818161053f015261075a015260008181610237015281816104960152818161062d0152610a5401526114bd6000f3fe608060405234801561001057600080fd5b50600436106101375760003560e01c80636f307dc3116100b8578063a457c2d71161007c578063a457c2d7146102bb578063a9059cbb146102ce578063be399be5146102e1578063dd62ed3e146102f4578063f0130d6814610307578063f2fde38b1461031a57600080fd5b80636f307dc31461023257806370a0823114610271578063715018a61461029a5780638da5cb5b146102a257806395d89b41146102b357600080fd5b806323b872dd116100ff57806323b872dd146101cb578063313ce567146101de57806336ee6eae146101f8578063395093511461020c57806340c10f191461021f57600080fd5b806306fdde031461013c578063095ea7b31461015a57806318160ddd1461017d5780631e9a69501461018f578063204f83f9146101a4575b600080fd5b61014461032d565b604051610151919061129b565b60405180910390f35b61016d6101683660046112ea565b6103bf565b6040519015158152602001610151565b6002545b604051908152602001610151565b6101a261019d3660046112ea565b6103d9565b005b6101817f000000000000000000000000000000000000000000000000000000000000000081565b61016d6101d9366004611314565b61046e565b6101e6610492565b60405160ff9091168152602001610151565b60065461016d90600160a01b900460ff1681565b61016d61021a3660046112ea565b61051b565b6101a261022d3660046112ea565b61053d565b6102597f000000000000000000000000000000000000000000000000000000000000000081565b6040516001600160a01b039091168152602001610151565b61018161027f366004611350565b6001600160a01b031660009081526020819052604090205490565b6101a26106ac565b6006546001600160a01b0316610259565b6101446106c0565b61016d6102c93660046112ea565b6106cf565b61016d6102dc3660046112ea565b61074a565b6101a26102ef366004611350565b610758565b610181610302366004611372565b6107f8565b6101a26103153660046113b3565b610823565b6101a2610328366004611350565b610849565b60606003805461033c906113d0565b80601f0160208091040260200160405190810160405280929190818152602001828054610368906113d0565b80156103b55780601f1061038a576101008083540402835291602001916103b5565b820191906000526020600020905b81548152906001019060200180831161039857829003601f168201915b5050505050905090565b6000336103cd8185856108bf565b60019150505b92915050565b7f000000000000000000000000000000000000000000000000000000000000000042101561044e5760405162461bcd60e51b815260206004820152601f60248201527f53696e676c65426f6e643a204d5553545f41465445525f4d415455524954590060448201526064015b60405180910390fd5b6104566109e4565b6104608282610a3d565b61046a6001600555565b5050565b60003361047c858285610ac2565b610487858585610b3c565b506001949350505050565b60007f00000000000000000000000000000000000000000000000000000000000000006001600160a01b031663313ce5676040518163ffffffff1660e01b8152600401602060405180830381865afa1580156104f2573d6000803e3d6000fd5b505050506040513d601f19601f82011682018060405250810190610516919061140a565b905090565b6000336103cd81858561052e83836107f8565b610538919061142d565b6108bf565b7f000000000000000000000000000000000000000000000000000000000000000042106105ac5760405162461bcd60e51b815260206004820181905260248201527f53696e676c65426f6e643a204d5553545f4245464f52455f4d415455524954596044820152606401610445565b600654600160a01b900460ff1615610618576006546001600160a01b031633146106185760405162461bcd60e51b815260206004820152601f60248201527f53696e676c65426f6e643a206f6e6c79206f776e65722063616e206d696e74006044820152606401610445565b6106206109e4565b6106556001600160a01b037f000000000000000000000000000000000000000000000000000000000000000016333084610ce0565b61065f8282610d4b565b816001600160a01b03167f0f6798a560793a54c3bcfe86a93cde1e73087d944c0ea20544137d41213968858260405161069a91815260200190565b60405180910390a261046a6001600555565b6106b4610e0a565b6106be6000610e64565b565b60606004805461033c906113d0565b600033816106dd82866107f8565b90508381101561073d5760405162461bcd60e51b815260206004820152602560248201527f45524332303a2064656372656173656420616c6c6f77616e63652062656c6f77604482015264207a65726f60d81b6064820152608401610445565b61048782868684036108bf565b6000336103cd818585610b3c565b7f00000000000000000000000000000000000000000000000000000000000000004210156107c85760405162461bcd60e51b815260206004820152601f60248201527f53696e676c65426f6e643a204d5553545f41465445525f4d41545552495459006044820152606401610445565b6107d06109e4565b336000908152602081905260409020546107eb908290610a3d565b6107f56001600555565b50565b6001600160a01b03918216600090815260016020908152604080832093909416825291909152205490565b61082b610e0a565b60068054911515600160a01b0260ff60a01b19909216919091179055565b610851610e0a565b6001600160a01b0381166108b65760405162461bcd60e51b815260206004820152602660248201527f4f776e61626c653a206e6577206f776e657220697320746865207a65726f206160448201526564647265737360d01b6064820152608401610445565b6107f581610e64565b6001600160a01b0383166109215760405162461bcd60e51b8152602060048201526024808201527f45524332303a20617070726f76652066726f6d20746865207a65726f206164646044820152637265737360e01b6064820152608401610445565b6001600160a01b0382166109825760405162461bcd60e51b815260206004820152602260248201527f45524332303a20617070726f766520746f20746865207a65726f206164647265604482015261737360f01b6064820152608401610445565b6001600160a01b0383811660008181526001602090815260408083209487168084529482529182902085905590518481527f8c5be1e5ebec7d5bd14f71427d1e84f3dd0314c0f7b2291e5b200ac8c7c3b92591015b60405180910390a3505050565b600260055403610a365760405162461bcd60e51b815260206004820152601f60248201527f5265656e7472616e637947756172643a207265656e7472616e742063616c6c006044820152606401610445565b6002600555565b610a473382610eb6565b610a7b6001600160a01b037f0000000000000000000000000000000000000000000000000000000000000000168383610fe5565b816001600160a01b03167f222838db2794d11532d940e8dec38ae307ed0b63cd97c233322e221f998767a682604051610ab691815260200190565b60405180910390a25050565b6000610ace84846107f8565b90506000198114610b365781811015610b295760405162461bcd60e51b815260206004820152601d60248201527f45524332303a20696e73756666696369656e7420616c6c6f77616e63650000006044820152606401610445565b610b3684848484036108bf565b50505050565b6001600160a01b038316610ba05760405162461bcd60e51b815260206004820152602560248201527f45524332303a207472616e736665722066726f6d20746865207a65726f206164604482015264647265737360d81b6064820152608401610445565b6001600160a01b038216610c025760405162461bcd60e51b815260206004820152602360248201527f45524332303a207472616e7366657220746f20746865207a65726f206164647260448201526265737360e81b6064820152608401610445565b6001600160a01b03831660009081526020819052604090205481811015610c7a5760405162461bcd60e51b815260206004820152602660248201527f45524332303a207472616e7366657220616d6f756e7420657863656564732062604482015265616c616e636560d01b6064820152608401610445565b6001600160a01b03848116600081815260208181526040808320878703905593871680835291849020805487019055925185815290927fddf252ad1be2c89b69c2b068fc378daa952ba7f163c4a11628f55a4df523b3ef910160405180910390a3610b36565b6040516001600160a01b0380851660248301528316604482015260648101829052610b369085906323b872dd60e01b906084015b60408051601f198184030181529190526020810180516001600160e01b03166001600160e01b031990931692909217909152611015565b6001600160a01b038216610da15760405162461bcd60e51b815260206004820152601f60248201527f45524332303a206d696e7420746f20746865207a65726f2061646472657373006044820152606401610445565b8060026000828254610db3919061142d565b90915550506001600160a01b038216600081815260208181526040808320805486019055518481527fddf252ad1be2c89b69c2b068fc378daa952ba7f163c4a11628f55a4df523b3ef910160405180910390a35050565b6006546001600160a01b031633146106be5760405162461bcd60e51b815260206004820181905260248201527f4f776e61626c653a2063616c6c6572206973206e6f7420746865206f776e65726044820152606401610445565b600680546001600160a01b038381166001600160a01b0319831681179093556040519116919082907f8be0079c531659141344cd1fd0a4f28419497f9722a3daafe3b4186f6b6457e090600090a35050565b6001600160a01b038216610f165760405162461bcd60e51b815260206004820152602160248201527f45524332303a206275726e2066726f6d20746865207a65726f206164647265736044820152607360f81b6064820152608401610445565b6001600160a01b03821660009081526020819052604090205481811015610f8a5760405162461bcd60e51b815260206004820152602260248201527f45524332303a206275726e20616d6f756e7420657863656564732062616c616e604482015261636560f01b6064820152608401610445565b6001600160a01b0383166000818152602081815260408083208686039055600280548790039055518581529192917fddf252ad1be2c89b69c2b068fc378daa952ba7f163c4a11628f55a4df523b3ef91016109d7565b505050565b6040516001600160a01b038316602482015260448101829052610fe090849063a9059cbb60e01b90606401610d14565b600061106a826040518060400160405280602081526020017f5361666545524332303a206c6f772d6c6576656c2063616c6c206661696c6564815250856001600160a01b03166110e79092919063ffffffff16565b805190915015610fe05780806020019051810190611088919061144e565b610fe05760405162461bcd60e51b815260206004820152602a60248201527f5361666545524332303a204552433230206f7065726174696f6e20646964206e6044820152691bdd081cdd58d8d9595960b21b6064820152608401610445565b60606110f684846000856110fe565b949350505050565b60608247101561115f5760405162461bcd60e51b815260206004820152602660248201527f416464726573733a20696e73756666696369656e742062616c616e636520666f6044820152651c8818d85b1b60d21b6064820152608401610445565b600080866001600160a01b0316858760405161117b919061146b565b60006040518083038185875af1925050503d80600081146111b8576040519150601f19603f3d011682016040523d82523d6000602084013e6111bd565b606091505b50915091506111ce878383876111d9565b979650505050505050565b60608315611248578251600003611241576001600160a01b0385163b6112415760405162461bcd60e51b815260206004820152601d60248201527f416464726573733a2063616c6c20746f206e6f6e2d636f6e74726163740000006044820152606401610445565b50816110f6565b6110f6838381511561125d5781518083602001fd5b8060405162461bcd60e51b8152600401610445919061129b565b60005b8381101561129257818101518382015260200161127a565b50506000910152565b60208152600082518060208401526112ba816040850160208701611277565b601f01601f19169190910160400192915050565b80356001600160a01b03811681146112e557600080fd5b919050565b600080604083850312156112fd57600080fd5b611306836112ce565b946020939093013593505050565b60008060006060848603121561132957600080fd5b611332846112ce565b9250611340602085016112ce565b9150604084013590509250925092565b60006020828403121561136257600080fd5b61136b826112ce565b9392505050565b6000806040838503121561138557600080fd5b61138e836112ce565b915061139c602084016112ce565b90509250929050565b80151581146107f557600080fd5b6000602082840312156113c557600080fd5b813561136b816113a5565b600181811c908216806113e457607f821691505b60208210810361140457634e487b7160e01b600052602260045260246000fd5b50919050565b60006020828403121561141c57600080fd5b815160ff8116811461136b57600080fd5b808201808211156103d357634e487b7160e01b600052601160045260246000fd5b60006020828403121561146057600080fd5b815161136b816113a5565b6000825161147d818460208701611277565b919091019291505056fea264697066735822122024bbf87ba33cc98c228e7828195f873a11bf26b6435201820ccf492b65e5a0a564736f6c63430008110033",
  "devdoc": {
    "kind": "dev",
    "methods": {
      "allowance(address,address)": {
        "details": "See {IERC20-allowance}."
      },
      "approve(address,uint256)": {
        "details": "See {IERC20-approve}. NOTE: If `amount` is the maximum `uint256`, the allowance is not updated on `transferFrom`. This is semantically equivalent to an infinite approval. Requirements: - `spender` cannot be the zero address."
      },
      "balanceOf(address)": {
        "details": "See {IERC20-balanceOf}."
      },
      "decimals()": {
        "details": "Returns the number of decimals used to get its user representation. For example, if `decimals` equals `2`, a balance of `505` tokens should be displayed to a user as `5.05` (`505 / 10 ** 2`). Tokens usually opt for a value of 18, imitating the relationship between Ether and Wei. This is the value {ERC20} uses, unless this function is overridden; NOTE: This information is only used for _display_ purposes: it in no way affects any of the arithmetic of the contract, including {IERC20-balanceOf} and {IERC20-transfer}."
      },
      "decreaseAllowance(address,uint256)": {
        "details": "Atomically decreases the allowance granted to `spender` by the caller. This is an alternative to {approve} that can be used as a mitigation for problems described in {IERC20-approve}. Emits an {Approval} event indicating the updated allowance. Requirements: - `spender` cannot be the zero address. - `spender` must have allowance for the caller of at least `subtractedValue`."
      },
      "increaseAllowance(address,uint256)": {
        "details": "Atomically increases the allowance granted to `spender` by the caller. This is an alternative to {approve} that can be used as a mitigation for problems described in {IERC20-approve}. Emits an {Approval} event indicating the updated allowance. Requirements: - `spender` cannot be the zero address."
      },
      "name()": {
        "details": "Returns the name of the token."
      },
      "owner()": {
        "details": "Returns the address of the current owner."
      },
      "renounceOwnership()": {
        "details": "Leaves the contract without owner. It will not be possible to call `onlyOwner` functions anymore. Can only be called by the current owner. NOTE: Renouncing ownership will leave the contract without an owner, thereby removing any functionality that is only available to the owner."
      },
      "symbol()": {
        "details": "Returns the symbol of the token, usually a shorter version of the name."
      },
      "totalSupply()": {
        "details": "See {IERC20-totalSupply}."
      },
      "transfer(address,uint256)": {
        "details": "See {IERC20-transfer}. Requirements: - `to` cannot be the zero address. - the caller must have a balance of at least `amount`."
      },
      "transferFrom(address,address,uint256)": {
        "details": "See {IERC20-transferFrom}. Emits an {Approval} event indicating the updated allowance. This is not required by the EIP. See the note at the beginning of {ERC20}. NOTE: Does not update the allowance if the current allowance is the maximum `uint256`. Requirements: - `from` and `to` cannot be the zero address. - `from` must have a balance of at least `amount`. - the caller must have allowance for ``from``'s tokens of at least `amount`."
      },
      "transferOwnership(address)": {
        "details": "Transfers ownership of the contract to a new account (`newOwner`). Can only be called by the current owner."
      }
    },
    "version": 1
  },
  "userdoc": {
    "kind": "user",
    "methods": {},
    "version": 1
  },
  "storageLayout": {
    "storage": [
      {
        "astId": 1055,
        "contract": "contracts/SingleBond.sol:SingleBond",
        "label": "_balances",
        "offset": 0,
        "slot": "0",
        "type": "t_mapping(t_address,t_uint256)"
      },
      {
        "astId": 1061,
        "contract": "contracts/SingleBond.sol:SingleBond",
        "label": "_allowances",
        "offset": 0,
        "slot": "1",
        "type": "t_mapping(t_address,t_mapping(t_address,t_uint256))"
      },
      {
        "astId": 1063,
        "contract": "contracts/SingleBond.sol:SingleBond",
        "label": "_totalSupply",
        "offset": 0,
        "slot": "2",
        "type": "t_uint256"
      },
      {
        "astId": 1065,
        "contract": "contracts/SingleBond.sol:SingleBond",
        "label": "_name",
        "offset": 0,
        "slot": "3",
        "type": "t_string_storage"
      },
      {
        "astId": 1067,
        "contract": "contracts/SingleBond.sol:SingleBond",
        "label": "_symbol",
        "offset": 0,
        "slot": "4",
        "type": "t_string_storage"
      },
      {
        "astId": 996,
        "contract": "contracts/SingleBond.sol:SingleBond",
        "label": "_status",
        "offset": 0,
        "slot": "5",
        "type": "t_uint256"
      },
      {
        "astId": 880,
        "contract": "contracts/SingleBond.sol:SingleBond",
        "label": "_owner",
        "offset": 0,
        "slot": "6",
        "type": "t_address"
      },
      {
        "astId": 3532,
        "contract": "contracts/SingleBond.sol:SingleBond",
        "label": "onlyOwnerMintable",
        "offset": 20,
        "slot": "6",
        "type": "t_bool"
      }
    ],
    "types": {
      "t_address": {
        "encoding": "inplace",
        "label": "address",
        "numberOfBytes": "20"
      },
      "t_bool": {
        "encoding": "inplace",
        "label": "bool",
        "numberOfBytes": "1"
      },
      "t_mapping(t_address,t_mapping(t_address,t_uint256))": {
        "encoding": "mapping",
        "key": "t_address",
        "label": "mapping(address => mapping(address => uint256))",
        "numberOfBytes": "32",
        "value": "t_mapping(t_address,t_uint256)"
      },
      "t_mapping(t_address,t_uint256)": {
        "encoding": "mapping",
        "key": "t_address",
        "label": "mapping(address => uint256)",
        "numberOfBytes": "32",
        "value": "t_uint256"
      },
      "t_string_storage": {
        "encoding": "bytes",
        "label": "string",
        "numberOfBytes": "32"
      },
      "t_uint256": {
        "encoding": "inplace",
        "label": "uint256",
        "numberOfBytes": "32"
      }
    }
  }
}