{
  "address": "0xe1fdA208D4528d5cD95696e7c7F49221a5C10AdB",
  "abi": [
    {
      "inputs": [],
      "stateMutability": "nonpayable",
      "type": "constructor"
    },
    {
      "anonymous": false,
      "inputs": [
        {
          "indexed": false,
          "internalType": "address",
          "name": "liquidator",
          "type": "address"
        },
        {
          "indexed": false,
          "internalType": "bool",
          "name": "allowed",
          "type": "bool"
        }
      ],
      "name": "AllowedLiquidatorChanged",
      "type": "event"
    },
    {
      "anonymous": false,
      "inputs": [
        {
          "indexed": false,
          "internalType": "address",
          "name": "vault",
          "type": "address"
        },
        {
          "indexed": false,
          "internalType": "address",
          "name": "operator",
          "type": "address"
        },
        {
          "indexed": false,
          "internalType": "uint256",
          "name": "prevQuota",
          "type": "uint256"
        },
        {
          "indexed": false,
          "internalType": "uint256",
          "name": "newQuota",
          "type": "uint256"
        }
      ],
      "name": "BorrowQuotaChanged",
      "type": "event"
    },
    {
      "anonymous": false,
      "inputs": [
        {
          "indexed": false,
          "internalType": "uint256",
          "name": "collateralRate",
          "type": "uint256"
        }
      ],
      "name": "CollateralRateChanged",
      "type": "event"
    },
    {
      "anonymous": false,
      "inputs": [
        {
          "indexed": true,
          "internalType": "address",
          "name": "dToken",
          "type": "address"
        },
        {
          "indexed": false,
          "internalType": "address",
          "name": "oldVault",
          "type": "address"
        },
        {
          "indexed": false,
          "internalType": "address",
          "name": "newVault",
          "type": "address"
        },
        {
          "indexed": false,
          "internalType": "uint256",
          "name": "vtype",
          "type": "uint256"
        }
      ],
      "name": "DTokenVaultChanged",
      "type": "event"
    },
    {
      "anonymous": false,
      "inputs": [
        {
          "indexed": true,
          "internalType": "address",
          "name": "user",
          "type": "address"
        },
        {
          "indexed": false,
          "internalType": "address",
          "name": "vault",
          "type": "address"
        },
        {
          "indexed": false,
          "internalType": "uint256",
          "name": "amount",
          "type": "uint256"
        },
        {
          "indexed": false,
          "internalType": "uint256",
          "name": "usdValue",
          "type": "uint256"
        }
      ],
      "name": "DepositVaultReleased",
      "type": "event"
    },
    {
      "anonymous": false,
      "inputs": [
        {
          "indexed": true,
          "internalType": "address",
          "name": "user",
          "type": "address"
        },
        {
          "indexed": false,
          "internalType": "address",
          "name": "sourceVault",
          "type": "address"
        },
        {
          "indexed": false,
          "internalType": "uint256",
          "name": "sourceAmount",
          "type": "uint256"
        },
        {
          "indexed": false,
          "internalType": "address",
          "name": "targetVault",
          "type": "address"
        },
        {
          "indexed": false,
          "internalType": "uint256",
          "name": "targetAmount",
          "type": "uint256"
        }
      ],
      "name": "DepositVaultSwapped",
      "type": "event"
    },
    {
      "anonymous": false,
      "inputs": [
        {
          "indexed": false,
          "internalType": "address",
          "name": "vault",
          "type": "address"
        },
        {
          "indexed": false,
          "internalType": "enum IController.ValidVault",
          "name": "state",
          "type": "uint8"
        }
      ],
      "name": "InitValidVault",
      "type": "event"
    },
    {
      "anonymous": false,
      "inputs": [
        {
          "indexed": false,
          "internalType": "uint8",
          "name": "version",
          "type": "uint8"
        }
      ],
      "name": "Initialized",
      "type": "event"
    },
    {
      "anonymous": false,
      "inputs": [
        {
          "indexed": false,
          "internalType": "uint256",
          "name": "liquidateRate",
          "type": "uint256"
        }
      ],
      "name": "LiquidateRateChanged",
      "type": "event"
    },
    {
      "anonymous": false,
      "inputs": [
        {
          "indexed": true,
          "internalType": "address",
          "name": "user",
          "type": "address"
        },
        {
          "indexed": false,
          "internalType": "address",
          "name": "vault",
          "type": "address"
        },
        {
          "indexed": false,
          "internalType": "uint256",
          "name": "amount",
          "type": "uint256"
        },
        {
          "indexed": false,
          "internalType": "uint256",
          "name": "usdValue",
          "type": "uint256"
        }
      ],
      "name": "MintVaultReleased",
      "type": "event"
    },
    {
      "anonymous": false,
      "inputs": [
        {
          "indexed": false,
          "internalType": "bool",
          "name": "open",
          "type": "bool"
        }
      ],
      "name": "OpenLiquidateChanged",
      "type": "event"
    },
    {
      "anonymous": false,
      "inputs": [
        {
          "indexed": true,
          "internalType": "address",
          "name": "previousOwner",
          "type": "address"
        },
        {
          "indexed": true,
          "internalType": "address",
          "name": "newOwner",
          "type": "address"
        }
      ],
      "name": "OwnershipTransferred",
      "type": "event"
    },
    {
      "anonymous": false,
      "inputs": [
        {
          "indexed": false,
          "internalType": "address",
          "name": "vault",
          "type": "address"
        },
        {
          "indexed": false,
          "internalType": "address",
          "name": "user",
          "type": "address"
        },
        {
          "indexed": false,
          "internalType": "enum IController.ValidVault",
          "name": "state",
          "type": "uint8"
        }
      ],
      "name": "SetValidVault",
      "type": "event"
    },
    {
      "anonymous": false,
      "inputs": [
        {
          "indexed": false,
          "internalType": "address",
          "name": "vault",
          "type": "address"
        },
        {
          "components": [
            {
              "internalType": "bool",
              "name": "enabled",
              "type": "bool"
            },
            {
              "internalType": "bool",
              "name": "enableDeposit",
              "type": "bool"
            },
            {
              "internalType": "bool",
              "name": "enableWithdraw",
              "type": "bool"
            },
            {
              "internalType": "bool",
              "name": "enableBorrow",
              "type": "bool"
            },
            {
              "internalType": "bool",
              "name": "enableRepay",
              "type": "bool"
            },
            {
              "internalType": "bool",
              "name": "enableLiquidate",
              "type": "bool"
            }
          ],
          "indexed": false,
          "internalType": "struct AppController.VaultState",
          "name": "state",
          "type": "tuple"
        }
      ],
      "name": "SetVaultStates",
      "type": "event"
    },
    {
      "anonymous": false,
      "inputs": [
        {
          "indexed": true,
          "internalType": "address",
          "name": "underlying",
          "type": "address"
        },
        {
          "indexed": false,
          "internalType": "address",
          "name": "oldDToken",
          "type": "address"
        },
        {
          "indexed": false,
          "internalType": "address",
          "name": "newDToken",
          "type": "address"
        }
      ],
      "name": "UnderlyingDTokenChanged",
      "type": "event"
    },
    {
      "anonymous": false,
      "inputs": [
        {
          "indexed": true,
          "internalType": "address",
          "name": "underlying",
          "type": "address"
        },
        {
          "indexed": false,
          "internalType": "address",
          "name": "oldStrage",
          "type": "address"
        },
        {
          "indexed": false,
          "internalType": "address",
          "name": "newDToken",
          "type": "address"
        },
        {
          "indexed": false,
          "internalType": "uint256",
          "name": "stype",
          "type": "uint256"
        }
      ],
      "name": "UnderlyingStrategyChanged",
      "type": "event"
    },
    {
      "anonymous": false,
      "inputs": [
        {
          "indexed": true,
          "internalType": "address",
          "name": "underlying",
          "type": "address"
        },
        {
          "indexed": false,
          "internalType": "address",
          "name": "oracle",
          "type": "address"
        },
        {
          "indexed": false,
          "internalType": "uint256",
          "name": "discount",
          "type": "uint256"
        },
        {
          "indexed": false,
          "internalType": "uint256",
          "name": "premium",
          "type": "uint256"
        }
      ],
      "name": "ValueConfChanged",
      "type": "event"
    },
    {
      "anonymous": false,
      "inputs": [
        {
          "indexed": true,
          "internalType": "address",
          "name": "user",
          "type": "address"
        },
        {
          "indexed": false,
          "internalType": "uint256",
          "name": "expectedUsdValue",
          "type": "uint256"
        },
        {
          "indexed": false,
          "internalType": "uint256",
          "name": "releasedUsdValue",
          "type": "uint256"
        }
      ],
      "name": "VaultsReleased",
      "type": "event"
    },
    {
      "inputs": [
        {
          "internalType": "address",
          "name": "",
          "type": "address"
        }
      ],
      "name": "allowedLiquidator",
      "outputs": [
        {
          "internalType": "bool",
          "name": "",
          "type": "bool"
        }
      ],
      "stateMutability": "view",
      "type": "function"
    },
    {
      "inputs": [
        {
          "internalType": "address",
          "name": "_user",
          "type": "address"
        },
        {
          "internalType": "address",
          "name": "_vault",
          "type": "address"
        },
        {
          "internalType": "uint256",
          "name": "_amount",
          "type": "uint256"
        }
      ],
      "name": "beforeBorrow",
      "outputs": [],
      "stateMutability": "view",
      "type": "function"
    },
    {
      "inputs": [
        {
          "internalType": "address",
          "name": "",
          "type": "address"
        },
        {
          "internalType": "address",
          "name": "_vault",
          "type": "address"
        },
        {
          "internalType": "uint256",
          "name": "",
          "type": "uint256"
        }
      ],
      "name": "beforeDeposit",
      "outputs": [],
      "stateMutability": "view",
      "type": "function"
    },
    {
      "inputs": [
        {
          "internalType": "address",
          "name": "_repayer",
          "type": "address"
        },
        {
          "internalType": "address",
          "name": "_vault",
          "type": "address"
        },
        {
          "internalType": "uint256",
          "name": "_amount",
          "type": "uint256"
        }
      ],
      "name": "beforeRepay",
      "outputs": [],
      "stateMutability": "view",
      "type": "function"
    },
    {
      "inputs": [
        {
          "internalType": "address",
          "name": "_user",
          "type": "address"
        },
        {
          "internalType": "address",
          "name": "_vault",
          "type": "address"
        },
        {
          "internalType": "uint256",
          "name": "_amount",
          "type": "uint256"
        }
      ],
      "name": "beforeWithdraw",
      "outputs": [],
      "stateMutability": "view",
      "type": "function"
    },
    {
      "inputs": [],
      "name": "collateralRate",
      "outputs": [
        {
          "internalType": "uint256",
          "name": "",
          "type": "uint256"
        }
      ],
      "stateMutability": "view",
      "type": "function"
    },
    {
      "inputs": [
        {
          "internalType": "address",
          "name": "",
          "type": "address"
        }
      ],
      "name": "dyTokenVaults",
      "outputs": [
        {
          "internalType": "address",
          "name": "",
          "type": "address"
        }
      ],
      "stateMutability": "view",
      "type": "function"
    },
    {
      "inputs": [
        {
          "internalType": "address",
          "name": "",
          "type": "address"
        }
      ],
      "name": "dyTokens",
      "outputs": [
        {
          "internalType": "address",
          "name": "",
          "type": "address"
        }
      ],
      "stateMutability": "view",
      "type": "function"
    },
    {
      "inputs": [
        {
          "internalType": "address",
          "name": "_underlying",
          "type": "address"
        }
      ],
      "name": "emergencyWithdrawAll",
      "outputs": [],
      "stateMutability": "nonpayable",
      "type": "function"
    },
    {
      "inputs": [
        {
          "internalType": "address",
          "name": "_user",
          "type": "address"
        },
        {
          "internalType": "bool",
          "name": "isDepositVault",
          "type": "bool"
        }
      ],
      "name": "exitVault",
      "outputs": [],
      "stateMutability": "nonpayable",
      "type": "function"
    },
    {
      "inputs": [
        {
          "internalType": "address",
          "name": "_underlying",
          "type": "address"
        }
      ],
      "name": "getValueConf",
      "outputs": [
        {
          "internalType": "address",
          "name": "oracle",
          "type": "address"
        },
        {
          "internalType": "uint16",
          "name": "dr",
          "type": "uint16"
        },
        {
          "internalType": "uint16",
          "name": "pr",
          "type": "uint16"
        }
      ],
      "stateMutability": "view",
      "type": "function"
    },
    {
      "inputs": [
        {
          "internalType": "address",
          "name": "token0",
          "type": "address"
        },
        {
          "internalType": "address",
          "name": "token1",
          "type": "address"
        }
      ],
      "name": "getValueConfs",
      "outputs": [
        {
          "internalType": "address",
          "name": "oracle0",
          "type": "address"
        },
        {
          "internalType": "uint16",
          "name": "dr0",
          "type": "uint16"
        },
        {
          "internalType": "uint16",
          "name": "pr0",
          "type": "uint16"
        },
        {
          "internalType": "address",
          "name": "oracle1",
          "type": "address"
        },
        {
          "internalType": "uint16",
          "name": "dr1",
          "type": "uint16"
        },
        {
          "internalType": "uint16",
          "name": "pr1",
          "type": "uint16"
        }
      ],
      "stateMutability": "view",
      "type": "function"
    },
    {
      "inputs": [
        {
          "internalType": "address[]",
          "name": "_vault",
          "type": "address[]"
        },
        {
          "internalType": "enum IController.ValidVault[]",
          "name": "_state",
          "type": "uint8[]"
        }
      ],
      "name": "initValidVault",
      "outputs": [],
      "stateMutability": "nonpayable",
      "type": "function"
    },
    {
      "inputs": [],
      "name": "initialize",
      "outputs": [],
      "stateMutability": "nonpayable",
      "type": "function"
    },
    {
      "inputs": [
        {
          "internalType": "address",
          "name": "_borrower",
          "type": "address"
        }
      ],
      "name": "isNeedLiquidate",
      "outputs": [
        {
          "internalType": "bool",
          "name": "",
          "type": "bool"
        }
      ],
      "stateMutability": "view",
      "type": "function"
    },
    {
      "inputs": [],
      "name": "isOpenLiquidate",
      "outputs": [
        {
          "internalType": "bool",
          "name": "",
          "type": "bool"
        }
      ],
      "stateMutability": "view",
      "type": "function"
    },
    {
      "inputs": [
        {
          "internalType": "address",
          "name": "_user",
          "type": "address"
        },
        {
          "internalType": "bool",
          "name": "isDepositVault",
          "type": "bool"
        }
      ],
      "name": "joinVault",
      "outputs": [],
      "stateMutability": "nonpayable",
      "type": "function"
    },
    {
      "inputs": [
        {
          "internalType": "address",
          "name": "_borrower",
          "type": "address"
        },
        {
          "internalType": "bytes",
          "name": "data",
          "type": "bytes"
        }
      ],
      "name": "liquidate",
      "outputs": [],
      "stateMutability": "nonpayable",
      "type": "function"
    },
    {
      "inputs": [],
      "name": "liquidateRate",
      "outputs": [
        {
          "internalType": "uint256",
          "name": "",
          "type": "uint256"
        }
      ],
      "stateMutability": "view",
      "type": "function"
    },
    {
      "inputs": [
        {
          "internalType": "address",
          "name": "_user",
          "type": "address"
        },
        {
          "internalType": "address",
          "name": "vault",
          "type": "address"
        }
      ],
      "name": "maxBorrow",
      "outputs": [
        {
          "internalType": "uint256",
          "name": "",
          "type": "uint256"
        }
      ],
      "stateMutability": "view",
      "type": "function"
    },
    {
      "inputs": [],
      "name": "owner",
      "outputs": [
        {
          "internalType": "address",
          "name": "",
          "type": "address"
        }
      ],
      "stateMutability": "view",
      "type": "function"
    },
    {
      "inputs": [
        {
          "internalType": "address",
          "name": "user_",
          "type": "address"
        },
        {
          "internalType": "address",
          "name": "liquidator_",
          "type": "address"
        },
        {
          "internalType": "contract IVault[]",
          "name": "mintVaults_",
          "type": "address[]"
        }
      ],
      "name": "releaseMintVaults",
      "outputs": [],
      "stateMutability": "nonpayable",
      "type": "function"
    },
    {
      "inputs": [
        {
          "internalType": "address",
          "name": "user_",
          "type": "address"
        },
        {
          "internalType": "address",
          "name": "liquidator_",
          "type": "address"
        }
      ],
      "name": "releaseZeroValueVaults",
      "outputs": [],
      "stateMutability": "nonpayable",
      "type": "function"
    },
    {
      "inputs": [],
      "name": "renounceOwnership",
      "outputs": [],
      "stateMutability": "nonpayable",
      "type": "function"
    },
    {
      "inputs": [
        {
          "internalType": "uint256",
          "name": "_collateralRate",
          "type": "uint256"
        }
      ],
      "name": "setCollateralRate",
      "outputs": [],
      "stateMutability": "nonpayable",
      "type": "function"
    },
    {
      "inputs": [
        {
          "internalType": "address",
          "name": "_underlying",
          "type": "address"
        },
        {
          "internalType": "address",
          "name": "_dToken",
          "type": "address"
        }
      ],
      "name": "setDYToken",
      "outputs": [],
      "stateMutability": "nonpayable",
      "type": "function"
    },
    {
      "inputs": [
        {
          "internalType": "uint256",
          "name": "_liquidateRate",
          "type": "uint256"
        }
      ],
      "name": "setLiquidateRate",
      "outputs": [],
      "stateMutability": "nonpayable",
      "type": "function"
    },
    {
      "inputs": [
        {
          "internalType": "bool",
          "name": "_open",
          "type": "bool"
        }
      ],
      "name": "setOpenLiquidate",
      "outputs": [],
      "stateMutability": "nonpayable",
      "type": "function"
    },
    {
      "inputs": [
        {
          "internalType": "address",
          "name": "_underlying",
          "type": "address"
        },
        {
          "internalType": "address",
          "name": "_oracle",
          "type": "address"
        },
        {
          "internalType": "uint16",
          "name": "_discount",
          "type": "uint16"
        },
        {
          "internalType": "uint16",
          "name": "_premium",
          "type": "uint16"
        }
      ],
      "name": "setOracles",
      "outputs": [],
      "stateMutability": "nonpayable",
      "type": "function"
    },
    {
      "inputs": [
        {
          "internalType": "address",
          "name": "_underlying",
          "type": "address"
        },
        {
          "internalType": "address",
          "name": "_strategy",
          "type": "address"
        },
        {
          "internalType": "uint256",
          "name": "stype",
          "type": "uint256"
        }
      ],
      "name": "setStrategy",
      "outputs": [],
      "stateMutability": "nonpayable",
      "type": "function"
    },
    {
      "inputs": [
        {
          "internalType": "address[]",
          "name": "_vault",
          "type": "address[]"
        },
        {
          "internalType": "enum IController.ValidVault[]",
          "name": "_state",
          "type": "uint8[]"
        }
      ],
      "name": "setValidVault",
      "outputs": [],
      "stateMutability": "nonpayable",
      "type": "function"
    },
    {
      "inputs": [
        {
          "internalType": "address",
          "name": "_dyToken",
          "type": "address"
        },
        {
          "internalType": "address",
          "name": "_vault",
          "type": "address"
        },
        {
          "internalType": "uint256",
          "name": "vtype",
          "type": "uint256"
        }
      ],
      "name": "setVault",
      "outputs": [],
      "stateMutability": "nonpayable",
      "type": "function"
    },
    {
      "inputs": [
        {
          "internalType": "address",
          "name": "vault_",
          "type": "address"
        },
        {
          "internalType": "uint256",
          "name": "quota_",
          "type": "uint256"
        }
      ],
      "name": "setVaultBorrowQuota",
      "outputs": [],
      "stateMutability": "nonpayable",
      "type": "function"
    },
    {
      "inputs": [
        {
          "internalType": "address",
          "name": "_vault",
          "type": "address"
        },
        {
          "components": [
            {
              "internalType": "bool",
              "name": "enabled",
              "type": "bool"
            },
            {
              "internalType": "bool",
              "name": "enableDeposit",
              "type": "bool"
            },
            {
              "internalType": "bool",
              "name": "enableWithdraw",
              "type": "bool"
            },
            {
              "internalType": "bool",
              "name": "enableBorrow",
              "type": "bool"
            },
            {
              "internalType": "bool",
              "name": "enableRepay",
              "type": "bool"
            },
            {
              "internalType": "bool",
              "name": "enableLiquidate",
              "type": "bool"
            }
          ],
          "internalType": "struct AppController.VaultState",
          "name": "_state",
          "type": "tuple"
        }
      ],
      "name": "setVaultStates",
      "outputs": [],
      "stateMutability": "nonpayable",
      "type": "function"
    },
    {
      "inputs": [
        {
          "internalType": "address",
          "name": "",
          "type": "address"
        }
      ],
      "name": "strategies",
      "outputs": [
        {
          "internalType": "address",
          "name": "",
          "type": "address"
        }
      ],
      "stateMutability": "view",
      "type": "function"
    },
    {
      "inputs": [
        {
          "internalType": "address",
          "name": "user_",
          "type": "address"
        },
        {
          "internalType": "address",
          "name": "liquidator_",
          "type": "address"
        },
        {
          "internalType": "contract IVault[]",
          "name": "sourceVaults_",
          "type": "address[]"
        },
        {
          "internalType": "contract IVault[]",
          "name": "targetVaults_",
          "type": "address[]"
        }
      ],
      "name": "swapUserDepositVaults",
      "outputs": [],
      "stateMutability": "nonpayable",
      "type": "function"
    },
    {
      "inputs": [
        {
          "internalType": "address",
          "name": "newOwner",
          "type": "address"
        }
      ],
      "name": "transferOwnership",
      "outputs": [],
      "stateMutability": "nonpayable",
      "type": "function"
    },
    {
      "inputs": [
        {
          "internalType": "address",
          "name": "liquidator",
          "type": "address"
        },
        {
          "internalType": "bool",
          "name": "allowed",
          "type": "bool"
        }
      ],
      "name": "updateAllowedLiquidator",
      "outputs": [],
      "stateMutability": "nonpayable",
      "type": "function"
    },
    {
      "inputs": [
        {
          "internalType": "address",
          "name": "_user",
          "type": "address"
        },
        {
          "internalType": "bool",
          "name": "isDepositVault",
          "type": "bool"
        }
      ],
      "name": "userJoinedVaultCount",
      "outputs": [
        {
          "internalType": "uint256",
          "name": "",
          "type": "uint256"
        }
      ],
      "stateMutability": "view",
      "type": "function"
    },
    {
      "inputs": [
        {
          "internalType": "address",
          "name": "_user",
          "type": "address"
        },
        {
          "internalType": "bool",
          "name": "isDepositVault",
          "type": "bool"
        },
        {
          "internalType": "uint256",
          "name": "index",
          "type": "uint256"
        }
      ],
      "name": "userJoinedVaultInfoAt",
      "outputs": [
        {
          "internalType": "address",
          "name": "vault",
          "type": "address"
        },
        {
          "components": [
            {
              "internalType": "bool",
              "name": "enabled",
              "type": "bool"
            },
            {
              "internalType": "bool",
              "name": "enableDeposit",
              "type": "bool"
            },
            {
              "internalType": "bool",
              "name": "enableWithdraw",
              "type": "bool"
            },
            {
              "internalType": "bool",
              "name": "enableBorrow",
              "type": "bool"
            },
            {
              "internalType": "bool",
              "name": "enableRepay",
              "type": "bool"
            },
            {
              "internalType": "bool",
              "name": "enableLiquidate",
              "type": "bool"
            }
          ],
          "internalType": "struct AppController.VaultState",
          "name": "state",
          "type": "tuple"
        }
      ],
      "stateMutability": "view",
      "type": "function"
    },
    {
      "inputs": [
        {
          "internalType": "address",
          "name": "_user",
          "type": "address"
        },
        {
          "internalType": "contract IVault",
          "name": "_vault",
          "type": "address"
        },
        {
          "internalType": "int256",
          "name": "_amount",
          "type": "int256"
        },
        {
          "internalType": "bool",
          "name": "_dp",
          "type": "bool"
        }
      ],
      "name": "userPendingValues",
      "outputs": [
        {
          "internalType": "uint256",
          "name": "pendingDepositValue",
          "type": "uint256"
        },
        {
          "internalType": "uint256",
          "name": "pendingBrorowValue",
          "type": "uint256"
        }
      ],
      "stateMutability": "view",
      "type": "function"
    },
    {
      "inputs": [
        {
          "internalType": "address",
          "name": "_user",
          "type": "address"
        },
        {
          "internalType": "contract IVault",
          "name": "_vault",
          "type": "address"
        },
        {
          "internalType": "int256",
          "name": "_amount",
          "type": "int256"
        },
        {
          "internalType": "bool",
          "name": "_dp",
          "type": "bool"
        }
      ],
      "name": "userTotalPendingValues",
      "outputs": [
        {
          "internalType": "uint256",
          "name": "pendingDepositValue",
          "type": "uint256"
        },
        {
          "internalType": "uint256",
          "name": "pendingBrorowValue",
          "type": "uint256"
        }
      ],
      "stateMutability": "view",
      "type": "function"
    },
    {
      "inputs": [
        {
          "internalType": "address",
          "name": "_user",
          "type": "address"
        },
        {
          "internalType": "bool",
          "name": "_dp",
          "type": "bool"
        }
      ],
      "name": "userTotalValues",
      "outputs": [
        {
          "internalType": "uint256",
          "name": "totalDepositValue",
          "type": "uint256"
        },
        {
          "internalType": "uint256",
          "name": "totalBorrowValue",
          "type": "uint256"
        }
      ],
      "stateMutability": "view",
      "type": "function"
    },
    {
      "inputs": [
        {
          "internalType": "address",
          "name": "_user",
          "type": "address"
        },
        {
          "internalType": "bool",
          "name": "_dp",
          "type": "bool"
        }
      ],
      "name": "userValues",
      "outputs": [
        {
          "internalType": "uint256",
          "name": "totalDepositValue",
          "type": "uint256"
        },
        {
          "internalType": "uint256",
          "name": "totalBorrowValue",
          "type": "uint256"
        }
      ],
      "stateMutability": "view",
      "type": "function"
    },
    {
      "inputs": [
        {
          "internalType": "address",
          "name": "",
          "type": "address"
        }
      ],
      "name": "validVaults",
      "outputs": [
        {
          "internalType": "enum IController.ValidVault",
          "name": "",
          "type": "uint8"
        }
      ],
      "stateMutability": "view",
      "type": "function"
    },
    {
      "inputs": [
        {
          "internalType": "address",
          "name": "",
          "type": "address"
        },
        {
          "internalType": "address",
          "name": "",
          "type": "address"
        }
      ],
      "name": "validVaultsOfUser",
      "outputs": [
        {
          "internalType": "enum IController.ValidVault",
          "name": "",
          "type": "uint8"
        }
      ],
      "stateMutability": "view",
      "type": "function"
    },
    {
      "inputs": [
        {
          "internalType": "address",
          "name": "",
          "type": "address"
        }
      ],
      "name": "vaultStates",
      "outputs": [
        {
          "internalType": "bool",
          "name": "enabled",
          "type": "bool"
        },
        {
          "internalType": "bool",
          "name": "enableDeposit",
          "type": "bool"
        },
        {
          "internalType": "bool",
          "name": "enableWithdraw",
          "type": "bool"
        },
        {
          "internalType": "bool",
          "name": "enableBorrow",
          "type": "bool"
        },
        {
          "internalType": "bool",
          "name": "enableRepay",
          "type": "bool"
        },
        {
          "internalType": "bool",
          "name": "enableLiquidate",
          "type": "bool"
        }
      ],
      "stateMutability": "view",
      "type": "function"
    },
    {
      "inputs": [
        {
          "internalType": "address",
          "name": "",
          "type": "address"
        }
      ],
      "name": "vaultsBorrowQuota",
      "outputs": [
        {
          "internalType": "uint256",
          "name": "",
          "type": "uint256"
        }
      ],
      "stateMutability": "view",
      "type": "function"
    }
  ],
  "transactionHash": "0xa9f39e6023aad8978eccf9ea86dd6e4ebb15ddf836d049c2aa4126459afebb8c",
  "args": [],
  "numDeployments": 2,
  "solcInputHash": "7c105b815c493d49d66db31847a1ffea",
  "bytecode": "0x60806040523480156200001157600080fd5b50600062000020600162000087565b9050801562000039576000805461ff0019166101001790555b801562000080576000805461ff0019169055604051600181527f7f26b83ff96e1f2b6a682f133852f6798a09c465da95921460cefb38474024989060200160405180910390a15b50620001a8565b60008054610100900460ff161562000120578160ff166001148015620000c05750620000be306200019960201b620037561760201c565b155b620001185760405162461bcd60e51b815260206004820152602e60248201526000805160206200541883398151915260448201526d191e481a5b9a5d1a585b1a5e995960921b60648201526084015b60405180910390fd5b506000919050565b60005460ff8084169116106200017f5760405162461bcd60e51b815260206004820152602e60248201526000805160206200541883398151915260448201526d191e481a5b9a5d1a585b1a5e995960921b60648201526084016200010f565b506000805460ff191660ff92909216919091179055600190565b6001600160a01b03163b151590565b61526080620001b86000396000f3fe608060405234801561001057600080fd5b50600436106102a05760003560e01c80636af2482d11610167578063b66d927a116100ce578063d7a6681c11610087578063d7a6681c14610773578063e26ec36a14610786578063f2fde38b14610799578063f7d22673146107ac578063f9009ee8146107bf578063fdeef046146107cc57600080fd5b8063b66d927a146106e6578063b74e8b05146106f9578063c4c004871461070c578063c5321fb01461071f578063c8b268b314610732578063d2786d451461074557600080fd5b80638da5cb5b116101205780638da5cb5b1461065c57806390a83dc21461066d57806396721753146106805780639c045f3e14610693578063aaace601146106b4578063ab27197e146106dd57600080fd5b80636af2482d146105ea5780636c459677146105fd578063715018a61461061057806379bf27b1146106185780638129fc1c1461062b57806383d576501461063357600080fd5b806338b204211161020b5780635911a1ae116101c45780635911a1ae146104e257806359e27fc4146104f55780635f49202f14610508578063624b5ed4146105945780636657fc67146105a75780636989725c146105d757600080fd5b806338b20421146103f557806339ebf8231461041d5780633dcecc2f1461045e57806346b45be7146104b357806354ab6269146104c657806358a6be1c146104d957600080fd5b8063149088161161025d57806314908816146103195780631a5ab4c91461032c5780631acd8c9c1461035f5780631e5160511461039c5780632b9553ce146103cf5780632ea87482146103e257600080fd5b8063054c1344146102a5578063095e377d146102ba57806309ba9b47146102cd5780630d37a290146102e05780630ebdee19146102f35780630eccd2c914610306575b600080fd5b6102b86102b33660046146d9565b6107df565b005b6102b86102c836600461471a565b610966565b6102b86102db3660046146d9565b610e0d565b6102b86102ee366004614765565b610eda565b6102b86103013660046147cb565b61107a565b6102b86103143660046147f9565b611106565b6102b861032736600461471a565b61135d565b61034c61033a36600461487e565b60726020526000908152604090205481565b6040519081526020015b60405180910390f35b61037261036d36600461487e565b61143c565b604080516001600160a01b03909416845261ffff9283166020850152911690820152606001610356565b6103bf6103aa36600461487e565b606f6020526000908152604090205460ff1681565b6040519015158152602001610356565b6102b86103dd3660046146d9565b61148f565b61034c6103f03660046147cb565b611768565b61040861040336600461489b565b6117bf565b60408051928352602083019190915201610356565b61044661042b36600461487e565b6066602052600090815260409020546001600160a01b031681565b6040516001600160a01b039091168152602001610356565b61047161046c36600461471a565b61181b565b604080516001600160a01b03978816815261ffff96871660208201529486169085015294909116606083015282166080820152911660a082015260c001610356565b6102b86104c13660046149fb565b61184e565b6102b86104d436600461487e565b611af3565b61034c606d5481565b61034c6104f036600461471a565b611baa565b6102b86105033660046146d9565b611cb8565b61055b61051636600461487e565b606b6020526000908152604090205460ff80821691610100810482169162010000820481169163010000008104821691600160201b8204811691600160281b90041686565b604080519615158752941515602087015292151593850193909352151560608401529015156080830152151560a082015260c001610356565b6102b86105a2366004614abd565b611e02565b6105ca6105b536600461487e565b60706020526000908152604090205460ff1681565b6040516103569190614b0e565b6102b86105e53660046146d9565b611e68565b6102b86105f8366004614b1c565b611f33565b6102b861060b366004614bd2565b61203d565b6102b86120a8565b6102b86106263660046147cb565b6120de565b6102b86121a1565b61044661064136600461487e565b6068602052600090815260409020546001600160a01b031681565b6033546001600160a01b0316610446565b6102b861067b3660046146d9565b61222b565b61040861068e36600461489b565b61239b565b6106a66106a1366004614bef565b6123aa565b604051610356929190614c1f565b6104466106c236600461487e565b6065602052600090815260409020546001600160a01b031681565b61034c606c5481565b6103bf6106f436600461487e565b6124b1565b6102b8610707366004614cca565b6124e8565b6102b861071a3660046147cb565b612aa4565b6102b861072d3660046149fb565b612baf565b6102b8610740366004614abd565b612e6c565b6105ca61075336600461471a565b607160209081526000928352604080842090915290825290205460ff1681565b6102b8610781366004614d5f565b612ecb565b6104086107943660046147cb565b6135b5565b6102b86107a736600461487e565b6135f2565b6104086107ba3660046147cb565b61368a565b606e546103bf9060ff1681565b6102b86107da366004614dc4565b6136b0565b6001600160a01b0382166000908152606b6020908152604091829020825160c081018452905460ff80821615801580855261010084048316151595850195909552620100008304821615159584019590955263010000008204811615156060840152600160201b8204811615156080840152600160281b90910416151560a08201529161086d575080604001515b6108b25760405162461bcd60e51b815260206004820152601160248201527015d2551211149055d7d11254d050931151607a1b60448201526064015b60405180910390fd5b6108bc8385613765565b156109605760006108d985856108d28685614e06565b6001613854565b6001600160a01b0386166000908152606a60205260408120919250906109029087906001613a9f565b9050606d54816109129190614e45565b61091e61271084614e45565b101561095d5760405162461bcd60e51b815260206004820152600e60248201526d1313d5d7d0d3d31310551154905360921b60448201526064016108a9565b50505b50505050565b6033546001600160a01b031633146109905760405162461bcd60e51b81526004016108a990614e64565b6001600160a01b0381166000908152606f602052604090205460ff166109c85760405162461bcd60e51b81526004016108a990614e99565b60408051600160208201526000910160408051601f198184030181529181526001600160a01b0385166000908152606a6020529081209192505b610a0b82613b6e565b811015610bed576000610a1e8383613b78565b90506000816001600160a01b031663ae318c4d8860006040518363ffffffff1660e01b8152600401610a51929190614ec5565b60206040518083038186803b158015610a6957600080fd5b505afa158015610a7d573d6000803e3d6000fd5b505050506040513d601f19601f82011682018060405250810190610aa19190614ee0565b90508015610ab0575050610bdb565b6040516354a5706f60e01b81526001600160a01b038881166004830152600091908416906354a5706f9060240160206040518083038186803b158015610af557600080fd5b505afa158015610b09573d6000803e3d6000fd5b505050506040513d601f19601f82011682018060405250810190610b2d9190614ee0565b6040516374eb83c160e01b81529091506001600160a01b038416906374eb83c190610b60908a908c908b90600401614f51565b600060405180830381600087803b158015610b7a57600080fd5b505af1158015610b8e573d6000803e3d6000fd5b50505050876001600160a01b03167f7114e74d858e0dbdc24007f787fb65581d52fdcd4e8517d6f3a1f9448323428c848385604051610bcf93929190614f86565b60405180910390a25050505b80610be581614fa7565b915050610a02565b506001600160a01b0384166000908152606960205260408120905b610c1182613b6e565b81101561095d576000610c248383613b78565b90506000816001600160a01b031663ae318c4d8960006040518363ffffffff1660e01b8152600401610c57929190614ec5565b60206040518083038186803b158015610c6f57600080fd5b505afa158015610c83573d6000803e3d6000fd5b505050506040513d601f19601f82011682018060405250810190610ca79190614ee0565b9050600081118015610cd65750731e3174c5757cf5457f8a3a8c3e4a35ed2d1383226001600160a01b03831614155b15610ce2575050610dfb565b60405163fc7e286d60e01b81526001600160a01b0389811660048301526000919084169063fc7e286d9060240160206040518083038186803b158015610d2757600080fd5b505afa158015610d3b573d6000803e3d6000fd5b505050506040513d601f19601f82011682018060405250810190610d5f9190614ee0565b6040516374eb83c160e01b81529091506001600160a01b038416906374eb83c190610d92908b908d908c90600401614f51565b600060405180830381600087803b158015610dac57600080fd5b505af1158015610dc0573d6000803e3d6000fd5b50505050886001600160a01b031660008051602061520b833981519152848385604051610def93929190614f86565b60405180910390a25050505b80610e0581614fa7565b915050610c08565b6001600160a01b0382166000908152606b6020908152604091829020825160c081018452905460ff80821615801580855261010084048316151595850195909552620100008304821615159584019590955263010000008204811615156060840152600160201b8204811615156080840152600160281b90910416151560a082015291610e9b575080602001515b6109605760405162461bcd60e51b815260206004820152601060248201526f4445504f534954455f44495341424c4560801b60448201526064016108a9565b6033546001600160a01b03163314610f045760405162461bcd60e51b81526004016108a990614e64565b6001600160a01b038316610f4b5760405162461bcd60e51b815260206004820152600e60248201526d494e56414c49445f4f5241434c4560901b60448201526064016108a9565b6127108261ffff161115610f935760405162461bcd60e51b815260206004820152600f60248201526e444953434f55545f544f4f5f42494760881b60448201526064016108a9565b6127108161ffff161015610fdd5760405162461bcd60e51b81526020600482015260116024820152701414915352555357d513d3d7d4d3505313607a1b60448201526064016108a9565b6001600160a01b0384811660008181526067602090815260409182902080549488166001600160b01b03199095168517600160a01b61ffff8981169182029290921761ffff60b01b1916600160b01b92891692830217835584519687529286019290925291840152917f7cb71f764a6240297d887d23473a61cf07ba9d34ccfbdd326620a5b896cd33469060600160405180910390a25050505050565b6033546001600160a01b031633146110a45760405162461bcd60e51b81526004016108a990614e64565b6001600160a01b0382166000908152606f602052604090819020805460ff1916831515179055517fd8949265082223b72749a7863e551684ee0df9a0c8ece536b9f14686b68425fc906110fa9084908490614ec5565b60405180910390a15050565b606e54339060ff168061113157506001600160a01b0381166000908152606f602052604090205460ff165b6111725760405162461bcd60e51b815260206004820152601260248201527124a72b20a624a22fa624a8aaa4a220aa27a960711b60448201526064016108a9565b61117b846124b1565b6111bb5760405162461bcd60e51b81526020600482015260116024820152700869e989882a88aa48298be8a9c9eaa8e9607b1b60448201526064016108a9565b6001600160a01b0384166000908152606960205260408120906111dd82613b6e565b9050805b80156112915760006111fe6111f7600184614fc2565b8590613b78565b905061120a8189613765565b1561127e576112198882613b84565b6040516374eb83c160e01b81526001600160a01b038216906374eb83c19061124b9088908c908c908c90600401614fd9565b600060405180830381600087803b15801561126557600080fd5b505af1158015611279573d6000803e3d6000fd5b505050505b508061128981615025565b9150506111e1565b506001600160a01b0386166000908152606a60205260408120906112b482613b6e565b9050805b80156113525760006112ce6111f7600184614fc2565b90506112da8a82613b84565b6040516374eb83c160e01b81526001600160a01b038216906374eb83c19061130c908a908e908e908e90600401614fd9565b600060405180830381600087803b15801561132657600080fd5b505af115801561133a573d6000803e3d6000fd5b5050505050808061134a90615025565b9150506112b8565b505050505050505050565b6033546001600160a01b031633146113875760405162461bcd60e51b81526004016108a990614e64565b6001600160a01b0381166113ce5760405162461bcd60e51b815260206004820152600e60248201526d24a72b20a624a22fa22a27a5a2a760911b60448201526064016108a9565b6001600160a01b0382811660008181526065602090815260409182902080548686166001600160a01b0319821681179092558351951680865291850152927fd5c0cad2a6b3eea813a7bdf548752779e26da201508f6e807ec5ec3d65d020d6910160405180910390a2505050565b6001600160a01b039081166000908152606760209081526040918290208251606081018452905493841680825261ffff600160a01b86048116938301849052600160b01b90950490941692018290529192565b6001600160a01b0382166000908152606b6020908152604091829020825160c081018452905460ff80821615801580855261010084048316151595850195909552620100008304821615159584019590955263010000008204811615156060840152600160201b8204811615156080840152600160281b90910416151560a08201529161151d575080606001515b61155b5760405162461bcd60e51b815260206004820152600f60248201526e1093d49493d5d7d11254d050931151608a1b60448201526064016108a9565b6001600160a01b0383166000818152607260209081526040808320548151636f307dc360e01b81529151909492636f307dc39260048082019391829003018186803b1580156115a957600080fd5b505afa1580156115bd573d6000803e3d6000fd5b505050506040513d601f19601f820116820180604052508101906115e1919061503c565b6001600160a01b03166318160ddd6040518163ffffffff1660e01b815260040160206040518083038186803b15801561161957600080fd5b505afa15801561162d573d6000803e3d6000fd5b505050506040513d601f19601f820116820180604052508101906116519190614ee0565b90508115806116695750816116668583615059565b11155b6116cb5760405162461bcd60e51b815260206004820152602d60248201527f417070436f6e74726f6c6c65723a20616d6f756e7420746f20626f72726f772060448201526c657863656564732071756f746160981b60648201526084016108a9565b60006116d8876001613c52565b6001600160a01b0388166000908152606a602052604081209192509061170390899089896001613d3c565b9050606d54816117139190614e45565b61171f61271084614e45565b101561175e5760405162461bcd60e51b815260206004820152600e60248201526d1313d5d7d0d3d31310551154905360921b60448201526064016108a9565b5050505050505050565b600081611795576001600160a01b0383166000908152606a6020526040902061179090613b6e565b6117b6565b6001600160a01b03831660009081526069602052604090206117b690613b6e565b90505b92915050565b6001600160a01b038416600090815260696020526040812081906117e7908790878787613d3c565b6001600160a01b0387166000908152606a60205260409020909250611810908790878787613d3c565b905094509492505050565b60008060008060008061182d8861143c565b9197509550935061183d8761143c565b979a96995094975095939492505050565b6033546001600160a01b031633146118785760405162461bcd60e51b81526004016108a990614e64565b81518151808214801561188a57508115155b6118c65760405162461bcd60e51b815260206004820152600d60248201526c494e56414c49445f504152414d60981b60448201526064016108a9565b60005b82811015611aec576000607060008784815181106118e9576118e9615071565b6020908102919091018101516001600160a01b031682528101919091526040016000205460ff16600281111561192157611921614ad6565b1461195e5760405162461bcd60e51b815260206004820152600d60248201526c5345545f4f4e4c595f4f4e434560981b60448201526064016108a9565b600284828151811061197257611972615071565b6020026020010151600281111561198b5761198b614ad6565b14806119c1575060018482815181106119a6576119a6615071565b602002602001015160028111156119bf576119bf614ad6565b145b6119fd5760405162461bcd60e51b815260206004820152600d60248201526c494e56414c49445f56414c554560981b60448201526064016108a9565b838181518110611a0f57611a0f615071565b602002602001015160706000878481518110611a2d57611a2d615071565b6020908102919091018101516001600160a01b03168252810191909152604001600020805460ff19166001836002811115611a6a57611a6a614ad6565b02179055507f05334cade7d5051a457d6cddb92a76a5266e31459f3118a536c99b169beaa0f5858281518110611aa257611aa2615071565b6020026020010151858381518110611abc57611abc615071565b6020026020010151604051611ad2929190615087565b60405180910390a180611ae481614fa7565b9150506118c9565b5050505050565b6033546001600160a01b03163314611b1d5760405162461bcd60e51b81526004016108a990614e64565b6001600160a01b03808216600090815260666020908152604080832054815163429c145b60e11b8152915194169363853828b693600480840194938390030190829087803b158015611b6e57600080fd5b505af1158015611b82573d6000803e3d6000fd5b505050506040513d601f19601f82011682018060405250810190611ba69190614ee0565b5050565b600080611bb8846001613c52565b6001600160a01b0385166000908152606a6020526040812091925090611be19086906001613a9f565b90506000606d5461271084611bf69190614e45565b611c0091906150a4565b905081811115611ca3576000611c168383614fc2565b60405163281aa7fd60e21b815260048101829052600160248201529091506001600160a01b0387169063a06a9ff49060440160206040518083038186803b158015611c6057600080fd5b505afa158015611c74573d6000803e3d6000fd5b505050506040513d601f19601f82011682018060405250810190611c989190614ee0565b9450505050506117b9565b600093505050506117b9565b50505092915050565b6033546001600160a01b03163314611ce25760405162461bcd60e51b81526004016108a990614e64565b816001600160a01b031663ba58591c6040518163ffffffff1660e01b815260040160206040518083038186803b158015611d1b57600080fd5b505afa158015611d2f573d6000803e3d6000fd5b505050506040513d601f19601f82011682018060405250810190611d5391906150c6565b611d8f5760405162461bcd60e51b815260206004820152600d60248201526c1253959053125157d590531555609a1b60448201526064016108a9565b6001600160a01b038084166000818152606860205260409081902080548685166001600160a01b031982161790915590519216917f0ff9c79e47a5eed61bfb093d8315d37efcfa7f6679e507f608289c78941b0e5190611df4908490879087906150e3565b60405180910390a250505050565b6033546001600160a01b03163314611e2c5760405162461bcd60e51b81526004016108a990614e64565b606d8190556040518181527f13e612fc69e30b3adcca3cb6573fa94782e94f59261f9b32c96c34b90552b335906020015b60405180910390a150565b6001600160a01b0382166000908152606b6020908152604091829020825160c081018452905460ff80821615801580855261010084048316151595850195909552620100008304821615159584019590955263010000008204811615156060840152600160201b8204811615156080840152600160281b90910416151560a082015291611ef6575080608001515b6109605760405162461bcd60e51b815260206004820152600e60248201526d149154105657d11254d05093115160921b60448201526064016108a9565b6033546001600160a01b03163314611f5d5760405162461bcd60e51b81526004016108a990614e64565b6001600160a01b0382166000908152606b60209081526040918290208351815492850151858501516060870151608088015160a089015161ffff1990971694151561ff00191694909417610100931515939093029290921763ffff00001916620100009115159190910263ff0000001916176301000000911515919091021765ffff000000001916600160201b9115159190910265ff0000000000191617600160281b92151592909202919091179055517f0f86f36676a78407d88aa894e600955aca44b6b9eaff4740c81228e2fa75d628906110fa9084908490614c1f565b6033546001600160a01b031633146120675760405162461bcd60e51b81526004016108a990614e64565b606e805460ff19168215159081179091556040519081527fcfa23450328fe03391963dc3e54c19ebeecb28fd8a628b495b71ab8534d61c3290602001611e5d565b6033546001600160a01b031633146120d25760405162461bcd60e51b81526004016108a990614e64565b6120dc6000613f4f565b565b336000818152606b602052604090205460ff168061211b57506001600160a01b0381166000908152606b6020526040902054600160281b900460ff165b6121585760405162461bcd60e51b815260206004820152600e60248201526d24a72b20a624a22fa1a0a62622a960911b60448201526064016108a9565b60008261217c576001600160a01b0384166000908152606a60205260409020612195565b6001600160a01b03841660009081526069602052604090205b9050611aec8183613fa1565b60006121ad6001613fb6565b905080156121c5576000805461ff0019166101001790555b6121cd614043565b612af8606c556132c8606d55606e805460ff191660011790558015612228576000805461ff0019169055604051600181527f7f26b83ff96e1f2b6a682f133852f6798a09c465da95921460cefb384740249890602001611e5d565b50565b6033546001600160a01b031633146122555760405162461bcd60e51b81526004016108a990614e64565b6001600160a01b0382166122a15760405162461bcd60e51b815260206004820152601360248201527214dd1c985d1959da595cc8111a5cd8589b1959606a1b60448201526064016108a9565b6001600160a01b0380841660009081526066602052604090205416801561233757806001600160a01b031663853828b66040518163ffffffff1660e01b8152600401602060405180830381600087803b1580156122fd57600080fd5b505af1158015612311573d6000803e3d6000fd5b505050506040513d601f19601f820116820180604052508101906123359190614ee0565b505b6001600160a01b038481166000818152606660205260409081902080546001600160a01b0319169387169390931790925590517fcc7d45f325309ae5b4940b5de638a482be2a51aa3a917326a84f65bcc2f7352390611df4908490879087906150e3565b6000806117e786868686613854565b6040805160c081018252600080825260208201819052918101829052606081018290526080810182905260a081018290526000846123ff576001600160a01b0386166000908152606a60205260409020612418565b6001600160a01b03861660009081526069602052604090205b90506124248185613b78565b6001600160a01b0381166000908152606b6020908152604091829020825160c081018452905460ff8082161515835261010082048116151593830193909352620100008104831615159382019390935263010000008304821615156060820152600160201b8304821615156080820152600160281b90920416151560a08201529097909650945050505050565b60008060006124c18460016135b5565b91509150606c54816124d39190614e45565b6124df61271084614e45565b10949350505050565b6033546001600160a01b031633146125125760405162461bcd60e51b81526004016108a990614e64565b6001600160a01b0385166000908152606f602052604090205460ff1661254a5760405162461bcd60e51b81526004016108a990614e99565b826125895760405162461bcd60e51b815260206004820152600f60248201526e06e6f7468696e6720746f207377617608c1b60448201526064016108a9565b8281146125fe5760405162461bcd60e51b815260206004820152603a60248201527f6c656e677468206f6620736f757263655661756c74735f2073686f756c64206260448201527f6520657175616c20746f207461726765745661756c74735f277300000000000060648201526084016108a9565b604080516001602082015260009101604051602081830303815290604052905060005b8481101561175e57600086868381811061263d5761263d615071565b9050602002016020810190612652919061487e565b9050600085858481811061266857612668615071565b905060200201602081019061267d919061487e565b90506000826001600160a01b031663ae318c4d8c60006040518363ffffffff1660e01b81526004016126b0929190614ec5565b60206040518083038186803b1580156126c857600080fd5b505afa1580156126dc573d6000803e3d6000fd5b505050506040513d601f19601f820116820180604052508101906127009190614ee0565b60405163fc7e286d60e01b81526001600160a01b038d8116600483015291925060009185169063fc7e286d9060240160206040518083038186803b15801561274757600080fd5b505afa15801561275b573d6000803e3d6000fd5b505050506040513d601f19601f8201168201806040525081019061277f9190614ee0565b9050836001600160a01b03166374eb83c18c8e896040518463ffffffff1660e01b81526004016127b193929190614f51565b600060405180830381600087803b1580156127cb57600080fd5b505af11580156127df573d6000803e3d6000fd5b505050506001600160a01b038416734527ba20f16f86525b6d174b6314502ca6d5256e141561281d57612816816301d2eb40614e45565b9150612853565b73c703fdad6ca5df56bd729fef24157e196a4810f86001600160a01b03851614156128535761285081630c0a4680614e45565b91505b600082116128645750505050612a92565b604051630eda25c760e11b8152670de0b6b3a76400006004820152600060248201819052906001600160a01b03851690631db44b8e9060440160206040518083038186803b1580156128b557600080fd5b505afa1580156128c9573d6000803e3d6000fd5b505050506040513d601f19601f820116820180604052508101906128ed9190614ee0565b9050600064e8d4a51000826129028683614e45565b61290c91906150a4565b61291691906150a4565b90506129a0333083886001600160a01b0316636f307dc36040518163ffffffff1660e01b815260040160206040518083038186803b15801561295757600080fd5b505afa15801561296b573d6000803e3d6000fd5b505050506040513d601f19601f8201168201806040525081019061298f919061503c565b6001600160a01b0316929190614072565b612a268582876001600160a01b0316636f307dc36040518163ffffffff1660e01b815260040160206040518083038186803b1580156129de57600080fd5b505afa1580156129f2573d6000803e3d6000fd5b505050506040513d601f19601f82011682018060405250810190612a16919061503c565b6001600160a01b031691906140ca565b612a31858f836141ee565b604080516001600160a01b038881168252602082018690528781169282019290925260608101839052908f16907fcba74a9a38e532ea920e947d3babe6efc7b838cb416f82d9b9d79f32744b34ca9060800160405180910390a25050505050505b80612a9c81614fa7565b915050612621565b336000818152606b602052604090205460ff1680612ae157506001600160a01b0381166000908152606b6020526040902054600160281b900460ff165b612b1e5760405162461bcd60e51b815260206004820152600e60248201526d24a72b20a624a22fa1a0a62622a960911b60448201526064016108a9565b600082612b42576001600160a01b0384166000908152606a60205260409020612b5b565b6001600160a01b03841660009081526069602052604090205b90506014612b6882613b6e565b10612ba55760405162461bcd60e51b815260206004820152600d60248201526c0949e929cbea89e9ebe9aaa869609b1b60448201526064016108a9565b611aec81836142c5565b815181513391908082148015612bc457508115155b612c005760405162461bcd60e51b815260206004820152600d60248201526c494e56414c49445f504152414d60981b60448201526064016108a9565b60005b82811015612dac576002858281518110612c1f57612c1f615071565b60200260200101516002811115612c3857612c38614ad6565b1480612c6e57506001858281518110612c5357612c53615071565b60200260200101516002811115612c6c57612c6c614ad6565b145b612caa5760405162461bcd60e51b815260206004820152600d60248201526c494e56414c49445f56414c554560981b60448201526064016108a9565b848181518110612cbc57612cbc615071565b602002602001015160716000888481518110612cda57612cda615071565b6020908102919091018101516001600160a01b039081168352828201939093526040918201600090812093891681529290529020805460ff19166001836002811115612d2857612d28614ad6565b02179055507f65d4763abdc1e045affaf50aed5fc2a1f4f466da45ee41ea701e0ad5029ff0b0868281518110612d6057612d60615071565b602002602001015185878481518110612d7b57612d7b615071565b6020026020010151604051612d9293929190615107565b60405180910390a180612da481614fa7565b915050612c03565b506000612dba846001613c52565b6001600160a01b0385166000908152606a6020526040812091925090612de39086906001613a9f565b90506000606d5461271084612df89190614e45565b612e0291906150a4565b9050606d5482612e129190614e45565b612e1e61271085614e45565b101561175e5760405162461bcd60e51b815260206004820152601d60248201527f53455456414c49445641554c543a204c4f575f434f4c4c41544552414c00000060448201526064016108a9565b6033546001600160a01b03163314612e965760405162461bcd60e51b81526004016108a990614e64565b606c8190556040518181527f138a4f81e91d7ed8109625537819aae162d22b1e4b5f73e1919d1f6e21bfbb4b90602001611e5d565b6033546001600160a01b03163314612ef55760405162461bcd60e51b81526004016108a990614e64565b6001600160a01b0383166000908152606f602052604090205460ff16612f2d5760405162461bcd60e51b81526004016108a990614e99565b6001600160a01b038416600090815260696020908152604080832081516001818501528251808203909401845282019091529190815b84811015613162576000868683818110612f7f57612f7f615071565b9050602002016020810190612f94919061487e565b90506000816001600160a01b031663ae318c4d8b60006040518363ffffffff1660e01b8152600401612fc7929190614ec5565b60206040518083038186803b158015612fdf57600080fd5b505afa158015612ff3573d6000803e3d6000fd5b505050506040513d601f19601f820116820180604052508101906130179190614ee0565b6040516354a5706f60e01b81526001600160a01b038c811660048301529192506000918416906354a5706f9060240160206040518083038186803b15801561305e57600080fd5b505afa158015613072573d6000803e3d6000fd5b505050506040513d601f19601f820116820180604052508101906130969190614ee0565b90506130a28287615059565b6040516374eb83c160e01b81529096506001600160a01b038416906374eb83c1906130d5908d908f908a90600401614f51565b600060405180830381600087803b1580156130ef57600080fd5b505af1158015613103573d6000803e3d6000fd5b505050508a6001600160a01b03167f7114e74d858e0dbdc24007f787fb65581d52fdcd4e8517d6f3a1f9448323428c84838560405161314493929190614f86565b60405180910390a2505050808061315a90614fa7565b915050612f63565b506000821161317357505050610960565b60008061317f85613b6e565b90505b801561356657600061319f613198600184614fc2565b8790613b78565b90506131ab818b613765565b15806131d757506001600160a01b0381166000908152606b6020526040902054600160281b900460ff16155b156131e25750613554565b60405163ae318c4d60e01b81526000906001600160a01b0383169063ae318c4d90613213908e908590600401614ec5565b60206040518083038186803b15801561322b57600080fd5b505afa15801561323f573d6000803e3d6000fd5b505050506040513d601f19601f820116820180604052508101906132639190614ee0565b905061326f8185615059565b60405163fc7e286d60e01b81526001600160a01b038d8116600483015291955060009184169063fc7e286d9060240160206040518083038186803b1580156132b657600080fd5b505afa1580156132ca573d6000803e3d6000fd5b505050506040513d601f19601f820116820180604052508101906132ee9190614ee0565b9050826001600160a01b03166374eb83c18c8e896040518463ffffffff1660e01b815260040161332093929190614f51565b600060405180830381600087803b15801561333a57600080fd5b505af115801561334e573d6000803e3d6000fd5b5050505086851415613395578b6001600160a01b031660008051602061520b83398151915284838560405161338593929190614f86565b60405180910390a2505050613566565b868510156133d8578b6001600160a01b031660008051602061520b8339815191528483856040516133c893929190614f86565b60405180910390a2505050613554565b60006133e48887614fc2565b90506305f5e10081101561342e578c6001600160a01b031660008051602061520b83398151915285848660405161341d93929190614f86565b60405180910390a250505050613566565b600064e8d4a51000846134418486614e45565b6134509064e8d4a51000614e45565b61345a91906150a4565b61346491906150a4565b9050828111156134715750815b6134b08d3083886001600160a01b0316636f307dc36040518163ffffffff1660e01b815260040160206040518083038186803b15801561295757600080fd5b6134ee8582876001600160a01b0316636f307dc36040518163ffffffff1660e01b815260040160206040518083038186803b1580156129de57600080fd5b6134f9858f836141ee565b6001600160a01b038e1660008051602061520b8339815191528661351d8487614fc2565b6135278689614fc2565b60405161353693929190614f86565b60405180910390a26135488288614fc2565b96505050505050613566565b8061355e81615025565b915050613182565b5060408051848152602081018390526001600160a01b038a16917f26e0bc17070eb8681630837613dc291e5976262044227decb74f578aee1eee5c910160405180910390a25050505050505050565b6000806135c28484613c52565b6001600160a01b0385166000908152606a602052604090209092506135e990859085613a9f565b90509250929050565b6033546001600160a01b0316331461361c5760405162461bcd60e51b81526004016108a990614e64565b6001600160a01b0381166136815760405162461bcd60e51b815260206004820152602660248201527f4f776e61626c653a206e6577206f776e657220697320746865207a65726f206160448201526564647265737360d01b60648201526084016108a9565b61222881613f4f565b6001600160a01b038216600090815260696020526040812081906135c290859085613a9f565b6033546001600160a01b031633146136da5760405162461bcd60e51b81526004016108a990614e64565b6001600160a01b03821660008181526072602090815260409182902054825193845233918401919091528282015260608201839052517f3293d79c25c2df19fbbce583d677755d261349535e2ac61d5a06e6524fcbed759181900360800190a16001600160a01b03909116600090815260726020526040902055565b6001600160a01b03163b151590565b6001600160a01b03808316600090815260716020908152604080832093851683529290529081205460ff1681808260028111156137a4576137a4614ad6565b146137af57816137cc565b6001600160a01b03851660009081526070602052604090205460ff165b905060008160028111156137e2576137e2614ad6565b14156138245760405162461bcd60e51b81526020600482015260116024820152701590531251159055531517d55392539255607a1b60448201526064016108a9565b600281600281111561383857613838614ad6565b1415613849576001925050506117b9565b506000949350505050565b6001600160a01b03841660009081526069602052604081208161387682613b6e565b90506000805b828110156139ee5760006138908583613b78565b905061389c818b613765565b156139db57806001600160a01b0316896001600160a01b0316141561395057604051635ac28bf960e01b81526001600160a01b038b81166004830152602482018a9052821690635ac28bf99060440160206040518083038186803b15801561390357600080fd5b505afa158015613917573d6000803e3d6000fd5b505050506040513d601f19601f8201168201806040525081019061393b9190614ee0565b6139459087615059565b9550600192506139db565b60405163ae318c4d60e01b81526001600160a01b0382169063ae318c4d9061397e908d908b90600401614ec5565b60206040518083038186803b15801561399657600080fd5b505afa1580156139aa573d6000803e3d6000fd5b505050506040513d601f19601f820116820180604052508101906139ce9190614ee0565b6139d89087615059565b95505b50806139e681614fa7565b91505061387c565b5080158015613a025750613a028789613765565b15613a9457604051635ac28bf960e01b81526001600160a01b03898116600483015260248201889052881690635ac28bf99060440160206040518083038186803b158015613a4f57600080fd5b505afa158015613a63573d6000803e3d6000fd5b505050506040513d601f19601f82011682018060405250810190613a879190614ee0565b613a919085615059565b93505b505050949350505050565b600080613aab84613b6e565b905060005b81811015613b65576000613ac48683613b78565b60405163ae318c4d60e01b81529091506001600160a01b0382169063ae318c4d90613af5908a908990600401614ec5565b60206040518083038186803b158015613b0d57600080fd5b505afa158015613b21573d6000803e3d6000fd5b505050506040513d601f19601f82011682018060405250810190613b459190614ee0565b613b4f9085615059565b9350508080613b5d90614fa7565b915050613ab0565b50509392505050565b60006117b9825490565b60006117b683836142da565b6001600160a01b0381166000908152606b6020908152604091829020825160c081018452905460ff80821615801580855261010084048316151595850195909552620100008304821615159584019590955263010000008204811615156060840152600160201b8204811615156080840152600160281b90910416151560a082015291613c1257508060a001515b613c4d5760405162461bcd60e51b815260206004820152600c60248201526b13125457d11254d05093115160a21b60448201526064016108a9565b505050565b6001600160a01b038216600090815260696020526040812081613c7482613b6e565b905060005b81811015611caf576000613c8d8483613b78565b9050613c998188613765565b15613d295760405163ae318c4d60e01b81526001600160a01b0382169063ae318c4d90613ccc908a908a90600401614ec5565b60206040518083038186803b158015613ce457600080fd5b505afa158015613cf8573d6000803e3d6000fd5b505050506040513d601f19601f82011682018060405250810190613d1c9190614ee0565b613d269086615059565b94505b5080613d3481614fa7565b915050613c79565b600080613d4886613b6e565b90506000805b82811015613eb1576000613d628983613b78565b9050806001600160a01b0316886001600160a01b03161415613e1357604051635ac28bf960e01b81526001600160a01b038b8116600483015260248201899052821690635ac28bf99060440160206040518083038186803b158015613dc657600080fd5b505afa158015613dda573d6000803e3d6000fd5b505050506040513d601f19601f82011682018060405250810190613dfe9190614ee0565b613e089086615059565b945060019250613e9e565b60405163ae318c4d60e01b81526001600160a01b0382169063ae318c4d90613e41908d908a90600401614ec5565b60206040518083038186803b158015613e5957600080fd5b505afa158015613e6d573d6000803e3d6000fd5b505050506040513d601f19601f82011682018060405250810190613e919190614ee0565b613e9b9086615059565b94505b5080613ea981614fa7565b915050613d4e565b5080613f4457604051635ac28bf960e01b81526001600160a01b03898116600483015260248201879052871690635ac28bf99060440160206040518083038186803b158015613eff57600080fd5b505afa158015613f13573d6000803e3d6000fd5b505050506040513d601f19601f82011682018060405250810190613f379190614ee0565b613f419084615059565b92505b505095945050505050565b603380546001600160a01b038381166001600160a01b0319831681179093556040519116919082907f8be0079c531659141344cd1fd0a4f28419497f9722a3daafe3b4186f6b6457e090600090a35050565b60006117b6836001600160a01b038416614304565b60008054610100900460ff1615613ffd578160ff166001148015613fd95750303b155b613ff55760405162461bcd60e51b81526004016108a99061512c565b506000919050565b60005460ff8084169116106140245760405162461bcd60e51b81526004016108a99061512c565b506000805460ff191660ff92909216919091179055600190565b919050565b600054610100900460ff1661406a5760405162461bcd60e51b81526004016108a99061517a565b6120dc6143f7565b610960846323b872dd60e01b858585604051602401614093939291906150e3565b60408051601f198184030181529190526020810180516001600160e01b03166001600160e01b031990931692909217909152614427565b8015806141535750604051636eb1769f60e11b81523060048201526001600160a01b03838116602483015284169063dd62ed3e9060440160206040518083038186803b15801561411957600080fd5b505afa15801561412d573d6000803e3d6000fd5b505050506040513d601f19601f820116820180604052508101906141519190614ee0565b155b6141be5760405162461bcd60e51b815260206004820152603660248201527f5361666545524332303a20617070726f76652066726f6d206e6f6e2d7a65726f60448201527520746f206e6f6e2d7a65726f20616c6c6f77616e636560501b60648201526084016108a9565b6040516001600160a01b038316602482015260448101829052613c4d90849063095ea7b360e01b90606401614093565b826001600160a01b031663f213159c846001600160a01b0316636f307dc36040518163ffffffff1660e01b815260040160206040518083038186803b15801561423657600080fd5b505afa15801561424a573d6000803e3d6000fd5b505050506040513d601f19601f8201168201806040525081019061426e919061503c565b84846040518463ffffffff1660e01b815260040161428e939291906150e3565b600060405180830381600087803b1580156142a857600080fd5b505af11580156142bc573d6000803e3d6000fd5b50505050505050565b60006117b6836001600160a01b0384166144f9565b60008260000182815481106142f1576142f1615071565b9060005260206000200154905092915050565b600081815260018301602052604081205480156143ed576000614328600183614fc2565b855490915060009061433c90600190614fc2565b90508181146143a157600086600001828154811061435c5761435c615071565b906000526020600020015490508087600001848154811061437f5761437f615071565b6000918252602080832090910192909255918252600188019052604090208390555b85548690806143b2576143b26151c5565b6001900381819060005260206000200160009055905585600101600086815260200190815260200160002060009055600193505050506117b9565b60009150506117b9565b600054610100900460ff1661441e5760405162461bcd60e51b81526004016108a99061517a565b6120dc33613f4f565b600061447c826040518060400160405280602081526020017f5361666545524332303a206c6f772d6c6576656c2063616c6c206661696c6564815250856001600160a01b03166145489092919063ffffffff16565b805190915015613c4d578080602001905181019061449a91906150c6565b613c4d5760405162461bcd60e51b815260206004820152602a60248201527f5361666545524332303a204552433230206f7065726174696f6e20646964206e6044820152691bdd081cdd58d8d9595960b21b60648201526084016108a9565b6000818152600183016020526040812054614540575081546001818101845560008481526020808220909301849055845484825282860190935260409020919091556117b9565b5060006117b9565b60606145578484600085614561565b90505b9392505050565b6060824710156145c25760405162461bcd60e51b815260206004820152602660248201527f416464726573733a20696e73756666696369656e742062616c616e636520666f6044820152651c8818d85b1b60d21b60648201526084016108a9565b843b6146105760405162461bcd60e51b815260206004820152601d60248201527f416464726573733a2063616c6c20746f206e6f6e2d636f6e747261637400000060448201526064016108a9565b600080866001600160a01b0316858760405161462c91906151db565b60006040518083038185875af1925050503d8060008114614669576040519150601f19603f3d011682016040523d82523d6000602084013e61466e565b606091505b509150915061467e82828661468b565b925050505b949350505050565b6060831561469a57508161455a565b8251156146aa5782518084602001fd5b8160405162461bcd60e51b81526004016108a991906151f7565b6001600160a01b038116811461222857600080fd5b6000806000606084860312156146ee57600080fd5b83356146f9816146c4565b92506020840135614709816146c4565b929592945050506040919091013590565b6000806040838503121561472d57600080fd5b8235614738816146c4565b91506020830135614748816146c4565b809150509250929050565b803561ffff8116811461403e57600080fd5b6000806000806080858703121561477b57600080fd5b8435614786816146c4565b93506020850135614796816146c4565b92506147a460408601614753565b91506147b260608601614753565b905092959194509250565b801515811461222857600080fd5b600080604083850312156147de57600080fd5b82356147e9816146c4565b91506020830135614748816147bd565b60008060006040848603121561480e57600080fd5b8335614819816146c4565b9250602084013567ffffffffffffffff8082111561483657600080fd5b818601915086601f83011261484a57600080fd5b81358181111561485957600080fd5b87602082850101111561486b57600080fd5b6020830194508093505050509250925092565b60006020828403121561489057600080fd5b813561455a816146c4565b600080600080608085870312156148b157600080fd5b84356148bc816146c4565b935060208501356148cc816146c4565b92506040850135915060608501356148e3816147bd565b939692955090935050565b634e487b7160e01b600052604160045260246000fd5b60405160c0810167ffffffffffffffff81118282101715614927576149276148ee565b60405290565b604051601f8201601f1916810167ffffffffffffffff81118282101715614956576149566148ee565b604052919050565b600067ffffffffffffffff821115614978576149786148ee565b5060051b60200190565b600082601f83011261499357600080fd5b813560206149a86149a38361495e565b61492d565b82815260059290921b840181019181810190868411156149c757600080fd5b8286015b848110156149f0578035600381106149e35760008081fd5b83529183019183016149cb565b509695505050505050565b60008060408385031215614a0e57600080fd5b823567ffffffffffffffff80821115614a2657600080fd5b818501915085601f830112614a3a57600080fd5b81356020614a4a6149a38361495e565b82815260059290921b84018101918181019089841115614a6957600080fd5b948201945b83861015614a90578535614a81816146c4565b82529482019490820190614a6e565b96505086013592505080821115614aa657600080fd5b50614ab385828601614982565b9150509250929050565b600060208284031215614acf57600080fd5b5035919050565b634e487b7160e01b600052602160045260246000fd5b60038110614b0a57634e487b7160e01b600052602160045260246000fd5b9052565b602081016117b98284614aec565b60008082840360e0811215614b3057600080fd5b8335614b3b816146c4565b925060c0601f1982011215614b4f57600080fd5b50614b58614904565b6020840135614b66816147bd565b81526040840135614b76816147bd565b60208201526060840135614b89816147bd565b60408201526080840135614b9c816147bd565b606082015260a0840135614baf816147bd565b608082015260c0840135614bc2816147bd565b60a0820152919491935090915050565b600060208284031215614be457600080fd5b813561455a816147bd565b600080600060608486031215614c0457600080fd5b8335614c0f816146c4565b92506020840135614709816147bd565b600060e08201905060018060a01b03841682528251151560208301526020830151151560408301526040830151151560608301526060830151151560808301526080830151151560a083015260a0830151151560c08301529392505050565b60008083601f840112614c9057600080fd5b50813567ffffffffffffffff811115614ca857600080fd5b6020830191508360208260051b8501011115614cc357600080fd5b9250929050565b60008060008060008060808789031215614ce357600080fd5b8635614cee816146c4565b95506020870135614cfe816146c4565b9450604087013567ffffffffffffffff80821115614d1b57600080fd5b614d278a838b01614c7e565b90965094506060890135915080821115614d4057600080fd5b50614d4d89828a01614c7e565b979a9699509497509295939492505050565b60008060008060608587031215614d7557600080fd5b8435614d80816146c4565b93506020850135614d90816146c4565b9250604085013567ffffffffffffffff811115614dac57600080fd5b614db887828801614c7e565b95989497509550505050565b60008060408385031215614dd757600080fd5b8235614de2816146c4565b946020939093013593505050565b634e487b7160e01b600052601160045260246000fd5b60008083128015600160ff1b850184121615614e2457614e24614df0565b6001600160ff1b0384018313811615614e3f57614e3f614df0565b50500390565b6000816000190483118215151615614e5f57614e5f614df0565b500290565b6020808252818101527f4f776e61626c653a2063616c6c6572206973206e6f7420746865206f776e6572604082015260600190565b60208082526012908201527124b73b30b634b2103634b8bab4b230ba37b960711b604082015260600190565b6001600160a01b039290921682521515602082015260400190565b600060208284031215614ef257600080fd5b5051919050565b60005b83811015614f14578181015183820152602001614efc565b838111156109605750506000910152565b60008151808452614f3d816020860160208601614ef9565b601f01601f19169290920160200192915050565b6001600160a01b03848116825283166020820152606060408201819052600090614f7d90830184614f25565b95945050505050565b6001600160a01b039390931683526020830191909152604082015260600190565b6000600019821415614fbb57614fbb614df0565b5060010190565b600082821015614fd457614fd4614df0565b500390565b6001600160a01b0385811682528416602082015260606040820181905281018290526000828460808401376000608084840101526080601f19601f850116830101905095945050505050565b60008161503457615034614df0565b506000190190565b60006020828403121561504e57600080fd5b815161455a816146c4565b6000821982111561506c5761506c614df0565b500190565b634e487b7160e01b600052603260045260246000fd5b6001600160a01b03831681526040810161455a6020830184614aec565b6000826150c157634e487b7160e01b600052601260045260246000fd5b500490565b6000602082840312156150d857600080fd5b815161455a816147bd565b6001600160a01b039384168152919092166020820152604081019190915260600190565b6001600160a01b03848116825283166020820152606081016146836040830184614aec565b6020808252602e908201527f496e697469616c697a61626c653a20636f6e747261637420697320616c72656160408201526d191e481a5b9a5d1a585b1a5e995960921b606082015260800190565b6020808252602b908201527f496e697469616c697a61626c653a20636f6e7472616374206973206e6f74206960408201526a6e697469616c697a696e6760a81b606082015260800190565b634e487b7160e01b600052603160045260246000fd5b600082516151ed818460208701614ef9565b9190910192915050565b6020815260006117b66020830184614f2556fe007534de14ea9193847e0ffc37f145402749f07b3c792a421470da99278f1359a2646970667358221220551362e75341660a2d280e06b0b221342a577b32f6548eaa5c78a2b7cc21cc6264736f6c63430008090033496e697469616c697a61626c653a20636f6e747261637420697320616c726561",
  "devdoc": {
    "kind": "dev",
    "methods": {
      "beforeBorrow(address,address,uint256)": {
        "params": {
          "_amount": "loan amount",
          "_user": "borrower",
          "_vault": "address of loan market"
        }
      },
      "beforeDeposit(address,address,uint256)": {
        "params": {
          "_vault": "address of deposit market param  _amount deposit amount"
        }
      },
      "owner()": {
        "details": "Returns the address of the current owner."
      },
      "renounceOwnership()": {
        "details": "Leaves the contract without owner. It will not be possible to call `onlyOwner` functions anymore. Can only be called by the current owner. NOTE: Renouncing ownership will leave the contract without an owner, thereby removing any functionality that is only available to the owner."
      },
      "transferOwnership(address)": {
        "details": "Transfers ownership of the contract to a new account (`newOwner`). Can only be called by the current owner."
      },
      "userPendingValues(address,address,int256,bool)": {
        "params": {
          "_amount": "the amount of deposits or withdrawals",
          "_dp": "discount or premium",
          "_user": "depositors",
          "_vault": "target vault"
        }
      },
      "userTotalPendingValues(address,address,int256,bool)": {
        "params": {
          "_amount": "the amount of deposits or withdrawals",
          "_dp": "discount or premium",
          "_user": "depositors",
          "_vault": "target vault"
        }
      },
      "userTotalValues(address,bool)": {
        "params": {
          "_dp": "discount or premium",
          "_user": "depositors"
        }
      },
      "userValues(address,bool)": {
        "params": {
          "_dp": "discount or premium",
          "_user": "depositors"
        }
      }
    },
    "version": 1
  },
  "userdoc": {
    "kind": "user",
    "methods": {
      "beforeBorrow(address,address,uint256)": {
        "notice": "Risk control check before borrowing"
      },
      "beforeDeposit(address,address,uint256)": {
        "notice": "Risk control check before deposit param _user depositors"
      },
      "isNeedLiquidate(address)": {
        "notice": "determine whether the borrower needs to be liquidated"
      },
      "maxBorrow(address,address)": {
        "notice": "maximum that a user can borrow from a Vault"
      },
      "userPendingValues(address,address,int256,bool)": {
        "notice": "predict total valid vault value after the user operating vault (i.e., Vault of deposit only counts collateral)"
      },
      "userTotalPendingValues(address,address,int256,bool)": {
        "notice": "predict total vault value after the user operating Vault"
      },
      "userTotalValues(address,bool)": {
        "notice": "Get user total Vault value"
      },
      "userValues(address,bool)": {
        "notice": "Get user total valid Vault value (i.e., Vault of deposit only counts collateral)"
      }
    },
    "version": 1
  },
  "storageLayout": {
    "storage": [
      {
        "astId": 188,
        "contract": "contracts/AppController.sol:AppController",
        "label": "_initialized",
        "offset": 0,
        "slot": "0",
        "type": "t_uint8"
      },
      {
        "astId": 191,
        "contract": "contracts/AppController.sol:AppController",
        "label": "_initializing",
        "offset": 1,
        "slot": "0",
        "type": "t_bool"
      },
      {
        "astId": 1640,
        "contract": "contracts/AppController.sol:AppController",
        "label": "__gap",
        "offset": 0,
        "slot": "1",
        "type": "t_array(t_uint256)50_storage"
      },
      {
        "astId": 68,
        "contract": "contracts/AppController.sol:AppController",
        "label": "_owner",
        "offset": 0,
        "slot": "51",
        "type": "t_address"
      },
      {
        "astId": 180,
        "contract": "contracts/AppController.sol:AppController",
        "label": "__gap",
        "offset": 0,
        "slot": "52",
        "type": "t_array(t_uint256)49_storage"
      },
      {
        "astId": 5807,
        "contract": "contracts/AppController.sol:AppController",
        "label": "dyTokens",
        "offset": 0,
        "slot": "101",
        "type": "t_mapping(t_address,t_address)"
      },
      {
        "astId": 5811,
        "contract": "contracts/AppController.sol:AppController",
        "label": "strategies",
        "offset": 0,
        "slot": "102",
        "type": "t_mapping(t_address,t_address)"
      },
      {
        "astId": 5823,
        "contract": "contracts/AppController.sol:AppController",
        "label": "valueConfs",
        "offset": 0,
        "slot": "103",
        "type": "t_mapping(t_address,t_struct(ValueConf)5818_storage)"
      },
      {
        "astId": 5828,
        "contract": "contracts/AppController.sol:AppController",
        "label": "dyTokenVaults",
        "offset": 0,
        "slot": "104",
        "type": "t_mapping(t_address,t_address)"
      },
      {
        "astId": 5833,
        "contract": "contracts/AppController.sol:AppController",
        "label": "userJoinedDepositVaults",
        "offset": 0,
        "slot": "105",
        "type": "t_mapping(t_address,t_struct(AddressSet)5179_storage)"
      },
      {
        "astId": 5838,
        "contract": "contracts/AppController.sol:AppController",
        "label": "userJoinedBorrowVaults",
        "offset": 0,
        "slot": "106",
        "type": "t_mapping(t_address,t_struct(AddressSet)5179_storage)"
      },
      {
        "astId": 5856,
        "contract": "contracts/AppController.sol:AppController",
        "label": "vaultStates",
        "offset": 0,
        "slot": "107",
        "type": "t_mapping(t_address,t_struct(VaultState)5851_storage)"
      },
      {
        "astId": 5858,
        "contract": "contracts/AppController.sol:AppController",
        "label": "liquidateRate",
        "offset": 0,
        "slot": "108",
        "type": "t_uint256"
      },
      {
        "astId": 5860,
        "contract": "contracts/AppController.sol:AppController",
        "label": "collateralRate",
        "offset": 0,
        "slot": "109",
        "type": "t_uint256"
      },
      {
        "astId": 5862,
        "contract": "contracts/AppController.sol:AppController",
        "label": "isOpenLiquidate",
        "offset": 0,
        "slot": "110",
        "type": "t_bool"
      },
      {
        "astId": 5866,
        "contract": "contracts/AppController.sol:AppController",
        "label": "allowedLiquidator",
        "offset": 0,
        "slot": "111",
        "type": "t_mapping(t_address,t_bool)"
      },
      {
        "astId": 5872,
        "contract": "contracts/AppController.sol:AppController",
        "label": "validVaults",
        "offset": 0,
        "slot": "112",
        "type": "t_mapping(t_address,t_enum(ValidVault)16866)"
      },
      {
        "astId": 5880,
        "contract": "contracts/AppController.sol:AppController",
        "label": "validVaultsOfUser",
        "offset": 0,
        "slot": "113",
        "type": "t_mapping(t_address,t_mapping(t_address,t_enum(ValidVault)16866))"
      },
      {
        "astId": 5884,
        "contract": "contracts/AppController.sol:AppController",
        "label": "vaultsBorrowQuota",
        "offset": 0,
        "slot": "114",
        "type": "t_mapping(t_address,t_uint256)"
      }
    ],
    "types": {
      "t_address": {
        "encoding": "inplace",
        "label": "address",
        "numberOfBytes": "20"
      },
      "t_array(t_bytes32)dyn_storage": {
        "base": "t_bytes32",
        "encoding": "dynamic_array",
        "label": "bytes32[]",
        "numberOfBytes": "32"
      },
      "t_array(t_uint256)49_storage": {
        "base": "t_uint256",
        "encoding": "inplace",
        "label": "uint256[49]",
        "numberOfBytes": "1568"
      },
      "t_array(t_uint256)50_storage": {
        "base": "t_uint256",
        "encoding": "inplace",
        "label": "uint256[50]",
        "numberOfBytes": "1600"
      },
      "t_bool": {
        "encoding": "inplace",
        "label": "bool",
        "numberOfBytes": "1"
      },
      "t_bytes32": {
        "encoding": "inplace",
        "label": "bytes32",
        "numberOfBytes": "32"
      },
      "t_enum(ValidVault)16866": {
        "encoding": "inplace",
        "label": "enum IController.ValidVault",
        "numberOfBytes": "1"
      },
      "t_mapping(t_address,t_address)": {
        "encoding": "mapping",
        "key": "t_address",
        "label": "mapping(address => address)",
        "numberOfBytes": "32",
        "value": "t_address"
      },
      "t_mapping(t_address,t_bool)": {
        "encoding": "mapping",
        "key": "t_address",
        "label": "mapping(address => bool)",
        "numberOfBytes": "32",
        "value": "t_bool"
      },
      "t_mapping(t_address,t_enum(ValidVault)16866)": {
        "encoding": "mapping",
        "key": "t_address",
        "label": "mapping(address => enum IController.ValidVault)",
        "numberOfBytes": "32",
        "value": "t_enum(ValidVault)16866"
      },
      "t_mapping(t_address,t_mapping(t_address,t_enum(ValidVault)16866))": {
        "encoding": "mapping",
        "key": "t_address",
        "label": "mapping(address => mapping(address => enum IController.ValidVault))",
        "numberOfBytes": "32",
        "value": "t_mapping(t_address,t_enum(ValidVault)16866)"
      },
      "t_mapping(t_address,t_struct(AddressSet)5179_storage)": {
        "encoding": "mapping",
        "key": "t_address",
        "label": "mapping(address => struct EnumerableSet.AddressSet)",
        "numberOfBytes": "32",
        "value": "t_struct(AddressSet)5179_storage"
      },
      "t_mapping(t_address,t_struct(ValueConf)5818_storage)": {
        "encoding": "mapping",
        "key": "t_address",
        "label": "mapping(address => struct AppController.ValueConf)",
        "numberOfBytes": "32",
        "value": "t_struct(ValueConf)5818_storage"
      },
      "t_mapping(t_address,t_struct(VaultState)5851_storage)": {
        "encoding": "mapping",
        "key": "t_address",
        "label": "mapping(address => struct AppController.VaultState)",
        "numberOfBytes": "32",
        "value": "t_struct(VaultState)5851_storage"
      },
      "t_mapping(t_address,t_uint256)": {
        "encoding": "mapping",
        "key": "t_address",
        "label": "mapping(address => uint256)",
        "numberOfBytes": "32",
        "value": "t_uint256"
      },
      "t_mapping(t_bytes32,t_uint256)": {
        "encoding": "mapping",
        "key": "t_bytes32",
        "label": "mapping(bytes32 => uint256)",
        "numberOfBytes": "32",
        "value": "t_uint256"
      },
      "t_struct(AddressSet)5179_storage": {
        "encoding": "inplace",
        "label": "struct EnumerableSet.AddressSet",
        "members": [
          {
            "astId": 5178,
            "contract": "contracts/AppController.sol:AppController",
            "label": "_inner",
            "offset": 0,
            "slot": "0",
            "type": "t_struct(Set)4878_storage"
          }
        ],
        "numberOfBytes": "64"
      },
      "t_struct(Set)4878_storage": {
        "encoding": "inplace",
        "label": "struct EnumerableSet.Set",
        "members": [
          {
            "astId": 4873,
            "contract": "contracts/AppController.sol:AppController",
            "label": "_values",
            "offset": 0,
            "slot": "0",
            "type": "t_array(t_bytes32)dyn_storage"
          },
          {
            "astId": 4877,
            "contract": "contracts/AppController.sol:AppController",
            "label": "_indexes",
            "offset": 0,
            "slot": "1",
            "type": "t_mapping(t_bytes32,t_uint256)"
          }
        ],
        "numberOfBytes": "64"
      },
      "t_struct(ValueConf)5818_storage": {
        "encoding": "inplace",
        "label": "struct AppController.ValueConf",
        "members": [
          {
            "astId": 5813,
            "contract": "contracts/AppController.sol:AppController",
            "label": "oracle",
            "offset": 0,
            "slot": "0",
            "type": "t_address"
          },
          {
            "astId": 5815,
            "contract": "contracts/AppController.sol:AppController",
            "label": "dr",
            "offset": 20,
            "slot": "0",
            "type": "t_uint16"
          },
          {
            "astId": 5817,
            "contract": "contracts/AppController.sol:AppController",
            "label": "pr",
            "offset": 22,
            "slot": "0",
            "type": "t_uint16"
          }
        ],
        "numberOfBytes": "32"
      },
      "t_struct(VaultState)5851_storage": {
        "encoding": "inplace",
        "label": "struct AppController.VaultState",
        "members": [
          {
            "astId": 5840,
            "contract": "contracts/AppController.sol:AppController",
            "label": "enabled",
            "offset": 0,
            "slot": "0",
            "type": "t_bool"
          },
          {
            "astId": 5842,
            "contract": "contracts/AppController.sol:AppController",
            "label": "enableDeposit",
            "offset": 1,
            "slot": "0",
            "type": "t_bool"
          },
          {
            "astId": 5844,
            "contract": "contracts/AppController.sol:AppController",
            "label": "enableWithdraw",
            "offset": 2,
            "slot": "0",
            "type": "t_bool"
          },
          {
            "astId": 5846,
            "contract": "contracts/AppController.sol:AppController",
            "label": "enableBorrow",
            "offset": 3,
            "slot": "0",
            "type": "t_bool"
          },
          {
            "astId": 5848,
            "contract": "contracts/AppController.sol:AppController",
            "label": "enableRepay",
            "offset": 4,
            "slot": "0",
            "type": "t_bool"
          },
          {
            "astId": 5850,
            "contract": "contracts/AppController.sol:AppController",
            "label": "enableLiquidate",
            "offset": 5,
            "slot": "0",
            "type": "t_bool"
          }
        ],
        "numberOfBytes": "32"
      },
      "t_uint16": {
        "encoding": "inplace",
        "label": "uint16",
        "numberOfBytes": "2"
      },
      "t_uint256": {
        "encoding": "inplace",
        "label": "uint256",
        "numberOfBytes": "32"
      },
      "t_uint8": {
        "encoding": "inplace",
        "label": "uint8",
        "numberOfBytes": "1"
      }
    }
  }
}