{
  "address": "0xF76B0Cb5Bacc262b0EB38b195BB812F0049a3b55",
  "abi": [
    {
      "inputs": [],
      "stateMutability": "nonpayable",
      "type": "constructor"
    },
    {
      "anonymous": false,
      "inputs": [
        {
          "indexed": false,
          "internalType": "address",
          "name": "liquidator",
          "type": "address"
        },
        {
          "indexed": false,
          "internalType": "bool",
          "name": "allowed",
          "type": "bool"
        }
      ],
      "name": "AllowedLiquidatorChanged",
      "type": "event"
    },
    {
      "anonymous": false,
      "inputs": [
        {
          "indexed": false,
          "internalType": "address",
          "name": "vault",
          "type": "address"
        },
        {
          "indexed": false,
          "internalType": "address",
          "name": "operator",
          "type": "address"
        },
        {
          "indexed": false,
          "internalType": "uint256",
          "name": "prevQuota",
          "type": "uint256"
        },
        {
          "indexed": false,
          "internalType": "uint256",
          "name": "newQuota",
          "type": "uint256"
        }
      ],
      "name": "BorrowQuotaChanged",
      "type": "event"
    },
    {
      "anonymous": false,
      "inputs": [
        {
          "indexed": false,
          "internalType": "uint256",
          "name": "collateralRate",
          "type": "uint256"
        }
      ],
      "name": "CollateralRateChanged",
      "type": "event"
    },
    {
      "anonymous": false,
      "inputs": [
        {
          "indexed": true,
          "internalType": "address",
          "name": "dToken",
          "type": "address"
        },
        {
          "indexed": false,
          "internalType": "address",
          "name": "oldVault",
          "type": "address"
        },
        {
          "indexed": false,
          "internalType": "address",
          "name": "newVault",
          "type": "address"
        },
        {
          "indexed": false,
          "internalType": "uint256",
          "name": "vtype",
          "type": "uint256"
        }
      ],
      "name": "DTokenVaultChanged",
      "type": "event"
    },
    {
      "anonymous": false,
      "inputs": [
        {
          "indexed": true,
          "internalType": "address",
          "name": "user",
          "type": "address"
        },
        {
          "indexed": false,
          "internalType": "address",
          "name": "vault",
          "type": "address"
        },
        {
          "indexed": false,
          "internalType": "uint256",
          "name": "amount",
          "type": "uint256"
        },
        {
          "indexed": false,
          "internalType": "uint256",
          "name": "usdValue",
          "type": "uint256"
        }
      ],
      "name": "DepositVaultReleased",
      "type": "event"
    },
    {
      "anonymous": false,
      "inputs": [
        {
          "indexed": true,
          "internalType": "address",
          "name": "user",
          "type": "address"
        },
        {
          "indexed": false,
          "internalType": "address",
          "name": "sourceVault",
          "type": "address"
        },
        {
          "indexed": false,
          "internalType": "uint256",
          "name": "sourceAmount",
          "type": "uint256"
        },
        {
          "indexed": false,
          "internalType": "address",
          "name": "targetVault",
          "type": "address"
        },
        {
          "indexed": false,
          "internalType": "uint256",
          "name": "targetAmount",
          "type": "uint256"
        }
      ],
      "name": "DepositVaultSwapped",
      "type": "event"
    },
    {
      "anonymous": false,
      "inputs": [
        {
          "indexed": false,
          "internalType": "address",
          "name": "vault",
          "type": "address"
        },
        {
          "indexed": false,
          "internalType": "enum IController.ValidVault",
          "name": "state",
          "type": "uint8"
        }
      ],
      "name": "InitValidVault",
      "type": "event"
    },
    {
      "anonymous": false,
      "inputs": [
        {
          "indexed": false,
          "internalType": "uint8",
          "name": "version",
          "type": "uint8"
        }
      ],
      "name": "Initialized",
      "type": "event"
    },
    {
      "anonymous": false,
      "inputs": [
        {
          "indexed": false,
          "internalType": "uint256",
          "name": "liquidateRate",
          "type": "uint256"
        }
      ],
      "name": "LiquidateRateChanged",
      "type": "event"
    },
    {
      "anonymous": false,
      "inputs": [
        {
          "indexed": true,
          "internalType": "address",
          "name": "user",
          "type": "address"
        },
        {
          "indexed": false,
          "internalType": "address",
          "name": "vault",
          "type": "address"
        },
        {
          "indexed": false,
          "internalType": "uint256",
          "name": "amount",
          "type": "uint256"
        },
        {
          "indexed": false,
          "internalType": "uint256",
          "name": "usdValue",
          "type": "uint256"
        }
      ],
      "name": "MintVaultReleased",
      "type": "event"
    },
    {
      "anonymous": false,
      "inputs": [
        {
          "indexed": false,
          "internalType": "bool",
          "name": "open",
          "type": "bool"
        }
      ],
      "name": "OpenLiquidateChanged",
      "type": "event"
    },
    {
      "anonymous": false,
      "inputs": [
        {
          "indexed": true,
          "internalType": "address",
          "name": "previousOwner",
          "type": "address"
        },
        {
          "indexed": true,
          "internalType": "address",
          "name": "newOwner",
          "type": "address"
        }
      ],
      "name": "OwnershipTransferred",
      "type": "event"
    },
    {
      "anonymous": false,
      "inputs": [
        {
          "indexed": false,
          "internalType": "address",
          "name": "vault",
          "type": "address"
        },
        {
          "indexed": false,
          "internalType": "address",
          "name": "user",
          "type": "address"
        },
        {
          "indexed": false,
          "internalType": "enum IController.ValidVault",
          "name": "state",
          "type": "uint8"
        }
      ],
      "name": "SetValidVault",
      "type": "event"
    },
    {
      "anonymous": false,
      "inputs": [
        {
          "indexed": false,
          "internalType": "address",
          "name": "vault",
          "type": "address"
        },
        {
          "components": [
            {
              "internalType": "bool",
              "name": "enabled",
              "type": "bool"
            },
            {
              "internalType": "bool",
              "name": "enableDeposit",
              "type": "bool"
            },
            {
              "internalType": "bool",
              "name": "enableWithdraw",
              "type": "bool"
            },
            {
              "internalType": "bool",
              "name": "enableBorrow",
              "type": "bool"
            },
            {
              "internalType": "bool",
              "name": "enableRepay",
              "type": "bool"
            },
            {
              "internalType": "bool",
              "name": "enableLiquidate",
              "type": "bool"
            }
          ],
          "indexed": false,
          "internalType": "struct IController.VaultState",
          "name": "state",
          "type": "tuple"
        }
      ],
      "name": "SetVaultStates",
      "type": "event"
    },
    {
      "anonymous": false,
      "inputs": [
        {
          "indexed": true,
          "internalType": "address",
          "name": "underlying",
          "type": "address"
        },
        {
          "indexed": false,
          "internalType": "address",
          "name": "oldDToken",
          "type": "address"
        },
        {
          "indexed": false,
          "internalType": "address",
          "name": "newDToken",
          "type": "address"
        }
      ],
      "name": "UnderlyingDTokenChanged",
      "type": "event"
    },
    {
      "anonymous": false,
      "inputs": [
        {
          "indexed": true,
          "internalType": "address",
          "name": "underlying",
          "type": "address"
        },
        {
          "indexed": false,
          "internalType": "address",
          "name": "oldStrage",
          "type": "address"
        },
        {
          "indexed": false,
          "internalType": "address",
          "name": "newDToken",
          "type": "address"
        },
        {
          "indexed": false,
          "internalType": "uint256",
          "name": "stype",
          "type": "uint256"
        }
      ],
      "name": "UnderlyingStrategyChanged",
      "type": "event"
    },
    {
      "anonymous": false,
      "inputs": [
        {
          "indexed": true,
          "internalType": "address",
          "name": "underlying",
          "type": "address"
        },
        {
          "indexed": false,
          "internalType": "address",
          "name": "oracle",
          "type": "address"
        },
        {
          "indexed": false,
          "internalType": "uint256",
          "name": "discount",
          "type": "uint256"
        },
        {
          "indexed": false,
          "internalType": "uint256",
          "name": "premium",
          "type": "uint256"
        }
      ],
      "name": "ValueConfChanged",
      "type": "event"
    },
    {
      "anonymous": false,
      "inputs": [
        {
          "indexed": false,
          "internalType": "address",
          "name": "preivousFactory",
          "type": "address"
        },
        {
          "indexed": false,
          "internalType": "address",
          "name": "newFactory",
          "type": "address"
        }
      ],
      "name": "VaultFactoryChanged",
      "type": "event"
    },
    {
      "anonymous": false,
      "inputs": [
        {
          "indexed": true,
          "internalType": "address",
          "name": "user",
          "type": "address"
        },
        {
          "indexed": false,
          "internalType": "uint256",
          "name": "expectedUsdValue",
          "type": "uint256"
        },
        {
          "indexed": false,
          "internalType": "uint256",
          "name": "releasedUsdValue",
          "type": "uint256"
        }
      ],
      "name": "VaultsReleased",
      "type": "event"
    },
    {
      "inputs": [
        {
          "internalType": "address",
          "name": "",
          "type": "address"
        }
      ],
      "name": "allowedLiquidator",
      "outputs": [
        {
          "internalType": "bool",
          "name": "",
          "type": "bool"
        }
      ],
      "stateMutability": "view",
      "type": "function"
    },
    {
      "inputs": [
        {
          "internalType": "address",
          "name": "_user",
          "type": "address"
        },
        {
          "internalType": "address",
          "name": "_vault",
          "type": "address"
        },
        {
          "internalType": "uint256",
          "name": "_amount",
          "type": "uint256"
        }
      ],
      "name": "beforeBorrow",
      "outputs": [],
      "stateMutability": "view",
      "type": "function"
    },
    {
      "inputs": [
        {
          "internalType": "address",
          "name": "",
          "type": "address"
        },
        {
          "internalType": "address",
          "name": "_vault",
          "type": "address"
        },
        {
          "internalType": "uint256",
          "name": "",
          "type": "uint256"
        }
      ],
      "name": "beforeDeposit",
      "outputs": [],
      "stateMutability": "view",
      "type": "function"
    },
    {
      "inputs": [
        {
          "internalType": "address",
          "name": "_repayer",
          "type": "address"
        },
        {
          "internalType": "address",
          "name": "_vault",
          "type": "address"
        },
        {
          "internalType": "uint256",
          "name": "_amount",
          "type": "uint256"
        }
      ],
      "name": "beforeRepay",
      "outputs": [],
      "stateMutability": "view",
      "type": "function"
    },
    {
      "inputs": [
        {
          "internalType": "address",
          "name": "_user",
          "type": "address"
        },
        {
          "internalType": "address",
          "name": "_vault",
          "type": "address"
        },
        {
          "internalType": "uint256",
          "name": "_amount",
          "type": "uint256"
        }
      ],
      "name": "beforeWithdraw",
      "outputs": [],
      "stateMutability": "view",
      "type": "function"
    },
    {
      "inputs": [],
      "name": "collateralRate",
      "outputs": [
        {
          "internalType": "uint256",
          "name": "",
          "type": "uint256"
        }
      ],
      "stateMutability": "view",
      "type": "function"
    },
    {
      "inputs": [
        {
          "internalType": "address",
          "name": "",
          "type": "address"
        }
      ],
      "name": "dyTokenVaults",
      "outputs": [
        {
          "internalType": "address",
          "name": "",
          "type": "address"
        }
      ],
      "stateMutability": "view",
      "type": "function"
    },
    {
      "inputs": [
        {
          "internalType": "address",
          "name": "",
          "type": "address"
        }
      ],
      "name": "dyTokens",
      "outputs": [
        {
          "internalType": "address",
          "name": "",
          "type": "address"
        }
      ],
      "stateMutability": "view",
      "type": "function"
    },
    {
      "inputs": [
        {
          "internalType": "address",
          "name": "_underlying",
          "type": "address"
        }
      ],
      "name": "emergencyWithdrawAll",
      "outputs": [],
      "stateMutability": "nonpayable",
      "type": "function"
    },
    {
      "inputs": [
        {
          "internalType": "address",
          "name": "_user",
          "type": "address"
        },
        {
          "internalType": "bool",
          "name": "isDepositVault",
          "type": "bool"
        }
      ],
      "name": "exitVault",
      "outputs": [],
      "stateMutability": "nonpayable",
      "type": "function"
    },
    {
      "inputs": [
        {
          "internalType": "address",
          "name": "_underlying",
          "type": "address"
        }
      ],
      "name": "getValueConf",
      "outputs": [
        {
          "internalType": "address",
          "name": "oracle",
          "type": "address"
        },
        {
          "internalType": "uint16",
          "name": "dr",
          "type": "uint16"
        },
        {
          "internalType": "uint16",
          "name": "pr",
          "type": "uint16"
        }
      ],
      "stateMutability": "view",
      "type": "function"
    },
    {
      "inputs": [
        {
          "internalType": "address",
          "name": "token0",
          "type": "address"
        },
        {
          "internalType": "address",
          "name": "token1",
          "type": "address"
        }
      ],
      "name": "getValueConfs",
      "outputs": [
        {
          "internalType": "address",
          "name": "oracle0",
          "type": "address"
        },
        {
          "internalType": "uint16",
          "name": "dr0",
          "type": "uint16"
        },
        {
          "internalType": "uint16",
          "name": "pr0",
          "type": "uint16"
        },
        {
          "internalType": "address",
          "name": "oracle1",
          "type": "address"
        },
        {
          "internalType": "uint16",
          "name": "dr1",
          "type": "uint16"
        },
        {
          "internalType": "uint16",
          "name": "pr1",
          "type": "uint16"
        }
      ],
      "stateMutability": "view",
      "type": "function"
    },
    {
      "inputs": [],
      "name": "globalState",
      "outputs": [
        {
          "internalType": "bool",
          "name": "enabled",
          "type": "bool"
        },
        {
          "internalType": "bool",
          "name": "enableDeposit",
          "type": "bool"
        },
        {
          "internalType": "bool",
          "name": "enableWithdraw",
          "type": "bool"
        },
        {
          "internalType": "bool",
          "name": "enableBorrow",
          "type": "bool"
        },
        {
          "internalType": "bool",
          "name": "enableRepay",
          "type": "bool"
        },
        {
          "internalType": "bool",
          "name": "enableLiquidate",
          "type": "bool"
        }
      ],
      "stateMutability": "view",
      "type": "function"
    },
    {
      "inputs": [
        {
          "internalType": "address[]",
          "name": "_vault",
          "type": "address[]"
        },
        {
          "internalType": "enum IController.ValidVault[]",
          "name": "_state",
          "type": "uint8[]"
        }
      ],
      "name": "initValidVault",
      "outputs": [],
      "stateMutability": "nonpayable",
      "type": "function"
    },
    {
      "inputs": [],
      "name": "initialize",
      "outputs": [],
      "stateMutability": "nonpayable",
      "type": "function"
    },
    {
      "inputs": [
        {
          "internalType": "address",
          "name": "_borrower",
          "type": "address"
        }
      ],
      "name": "isNeedLiquidate",
      "outputs": [
        {
          "internalType": "bool",
          "name": "",
          "type": "bool"
        }
      ],
      "stateMutability": "view",
      "type": "function"
    },
    {
      "inputs": [],
      "name": "isOpenLiquidate",
      "outputs": [
        {
          "internalType": "bool",
          "name": "",
          "type": "bool"
        }
      ],
      "stateMutability": "view",
      "type": "function"
    },
    {
      "inputs": [
        {
          "internalType": "address",
          "name": "_user",
          "type": "address"
        },
        {
          "internalType": "bool",
          "name": "isDepositVault",
          "type": "bool"
        }
      ],
      "name": "joinVault",
      "outputs": [],
      "stateMutability": "nonpayable",
      "type": "function"
    },
    {
      "inputs": [
        {
          "internalType": "address",
          "name": "_borrower",
          "type": "address"
        },
        {
          "internalType": "bytes",
          "name": "data",
          "type": "bytes"
        }
      ],
      "name": "liquidate",
      "outputs": [],
      "stateMutability": "nonpayable",
      "type": "function"
    },
    {
      "inputs": [],
      "name": "liquidateRate",
      "outputs": [
        {
          "internalType": "uint256",
          "name": "",
          "type": "uint256"
        }
      ],
      "stateMutability": "view",
      "type": "function"
    },
    {
      "inputs": [
        {
          "internalType": "address",
          "name": "_user",
          "type": "address"
        },
        {
          "internalType": "address",
          "name": "vault",
          "type": "address"
        }
      ],
      "name": "maxBorrow",
      "outputs": [
        {
          "internalType": "uint256",
          "name": "",
          "type": "uint256"
        }
      ],
      "stateMutability": "view",
      "type": "function"
    },
    {
      "inputs": [],
      "name": "owner",
      "outputs": [
        {
          "internalType": "address",
          "name": "",
          "type": "address"
        }
      ],
      "stateMutability": "view",
      "type": "function"
    },
    {
      "inputs": [
        {
          "internalType": "address",
          "name": "user_",
          "type": "address"
        },
        {
          "internalType": "address",
          "name": "liquidator_",
          "type": "address"
        },
        {
          "internalType": "contract IVault[]",
          "name": "mintVaults_",
          "type": "address[]"
        }
      ],
      "name": "releaseMintVaults",
      "outputs": [],
      "stateMutability": "nonpayable",
      "type": "function"
    },
    {
      "inputs": [
        {
          "internalType": "address",
          "name": "user_",
          "type": "address"
        },
        {
          "internalType": "address",
          "name": "liquidator_",
          "type": "address"
        }
      ],
      "name": "releaseZeroValueVaults",
      "outputs": [],
      "stateMutability": "nonpayable",
      "type": "function"
    },
    {
      "inputs": [],
      "name": "renounceOwnership",
      "outputs": [],
      "stateMutability": "nonpayable",
      "type": "function"
    },
    {
      "inputs": [
        {
          "internalType": "uint256",
          "name": "_collateralRate",
          "type": "uint256"
        }
      ],
      "name": "setCollateralRate",
      "outputs": [],
      "stateMutability": "nonpayable",
      "type": "function"
    },
    {
      "inputs": [
        {
          "internalType": "address",
          "name": "_underlying",
          "type": "address"
        },
        {
          "internalType": "address",
          "name": "_dToken",
          "type": "address"
        }
      ],
      "name": "setDYToken",
      "outputs": [],
      "stateMutability": "nonpayable",
      "type": "function"
    },
    {
      "inputs": [
        {
          "components": [
            {
              "internalType": "bool",
              "name": "enabled",
              "type": "bool"
            },
            {
              "internalType": "bool",
              "name": "enableDeposit",
              "type": "bool"
            },
            {
              "internalType": "bool",
              "name": "enableWithdraw",
              "type": "bool"
            },
            {
              "internalType": "bool",
              "name": "enableBorrow",
              "type": "bool"
            },
            {
              "internalType": "bool",
              "name": "enableRepay",
              "type": "bool"
            },
            {
              "internalType": "bool",
              "name": "enableLiquidate",
              "type": "bool"
            }
          ],
          "internalType": "struct IController.VaultState",
          "name": "state_",
          "type": "tuple"
        }
      ],
      "name": "setGlobalState",
      "outputs": [],
      "stateMutability": "nonpayable",
      "type": "function"
    },
    {
      "inputs": [
        {
          "internalType": "uint256",
          "name": "_liquidateRate",
          "type": "uint256"
        }
      ],
      "name": "setLiquidateRate",
      "outputs": [],
      "stateMutability": "nonpayable",
      "type": "function"
    },
    {
      "inputs": [
        {
          "internalType": "bool",
          "name": "_open",
          "type": "bool"
        }
      ],
      "name": "setOpenLiquidate",
      "outputs": [],
      "stateMutability": "nonpayable",
      "type": "function"
    },
    {
      "inputs": [
        {
          "internalType": "address",
          "name": "_underlying",
          "type": "address"
        },
        {
          "internalType": "address",
          "name": "_oracle",
          "type": "address"
        },
        {
          "internalType": "uint16",
          "name": "_discount",
          "type": "uint16"
        },
        {
          "internalType": "uint16",
          "name": "_premium",
          "type": "uint16"
        }
      ],
      "name": "setOracles",
      "outputs": [],
      "stateMutability": "nonpayable",
      "type": "function"
    },
    {
      "inputs": [
        {
          "internalType": "address",
          "name": "_underlying",
          "type": "address"
        },
        {
          "internalType": "address",
          "name": "_strategy",
          "type": "address"
        },
        {
          "internalType": "uint256",
          "name": "stype",
          "type": "uint256"
        }
      ],
      "name": "setStrategy",
      "outputs": [],
      "stateMutability": "nonpayable",
      "type": "function"
    },
    {
      "inputs": [
        {
          "internalType": "address[]",
          "name": "_vault",
          "type": "address[]"
        },
        {
          "internalType": "enum IController.ValidVault[]",
          "name": "_state",
          "type": "uint8[]"
        }
      ],
      "name": "setValidVault",
      "outputs": [],
      "stateMutability": "nonpayable",
      "type": "function"
    },
    {
      "inputs": [
        {
          "internalType": "address",
          "name": "_dyToken",
          "type": "address"
        },
        {
          "internalType": "address",
          "name": "_vault",
          "type": "address"
        },
        {
          "internalType": "uint256",
          "name": "vtype",
          "type": "uint256"
        }
      ],
      "name": "setVault",
      "outputs": [],
      "stateMutability": "nonpayable",
      "type": "function"
    },
    {
      "inputs": [
        {
          "internalType": "address",
          "name": "vault_",
          "type": "address"
        },
        {
          "internalType": "uint256",
          "name": "quota_",
          "type": "uint256"
        }
      ],
      "name": "setVaultBorrowQuota",
      "outputs": [],
      "stateMutability": "nonpayable",
      "type": "function"
    },
    {
      "inputs": [
        {
          "internalType": "address",
          "name": "vaultFactory_",
          "type": "address"
        }
      ],
      "name": "setVaultFactory",
      "outputs": [],
      "stateMutability": "nonpayable",
      "type": "function"
    },
    {
      "inputs": [
        {
          "internalType": "address",
          "name": "_vault",
          "type": "address"
        },
        {
          "components": [
            {
              "internalType": "bool",
              "name": "enabled",
              "type": "bool"
            },
            {
              "internalType": "bool",
              "name": "enableDeposit",
              "type": "bool"
            },
            {
              "internalType": "bool",
              "name": "enableWithdraw",
              "type": "bool"
            },
            {
              "internalType": "bool",
              "name": "enableBorrow",
              "type": "bool"
            },
            {
              "internalType": "bool",
              "name": "enableRepay",
              "type": "bool"
            },
            {
              "internalType": "bool",
              "name": "enableLiquidate",
              "type": "bool"
            }
          ],
          "internalType": "struct IController.VaultState",
          "name": "_state",
          "type": "tuple"
        }
      ],
      "name": "setVaultStates",
      "outputs": [],
      "stateMutability": "nonpayable",
      "type": "function"
    },
    {
      "inputs": [
        {
          "internalType": "address",
          "name": "",
          "type": "address"
        }
      ],
      "name": "strategies",
      "outputs": [
        {
          "internalType": "address",
          "name": "",
          "type": "address"
        }
      ],
      "stateMutability": "view",
      "type": "function"
    },
    {
      "inputs": [
        {
          "internalType": "address",
          "name": "user_",
          "type": "address"
        },
        {
          "internalType": "address",
          "name": "liquidator_",
          "type": "address"
        },
        {
          "internalType": "contract IVault[]",
          "name": "sourceVaults_",
          "type": "address[]"
        },
        {
          "internalType": "contract IVault[]",
          "name": "targetVaults_",
          "type": "address[]"
        }
      ],
      "name": "swapUserDepositVaults",
      "outputs": [],
      "stateMutability": "nonpayable",
      "type": "function"
    },
    {
      "inputs": [
        {
          "internalType": "address",
          "name": "newOwner",
          "type": "address"
        }
      ],
      "name": "transferOwnership",
      "outputs": [],
      "stateMutability": "nonpayable",
      "type": "function"
    },
    {
      "inputs": [
        {
          "internalType": "address",
          "name": "liquidator",
          "type": "address"
        },
        {
          "internalType": "bool",
          "name": "allowed",
          "type": "bool"
        }
      ],
      "name": "updateAllowedLiquidator",
      "outputs": [],
      "stateMutability": "nonpayable",
      "type": "function"
    },
    {
      "inputs": [
        {
          "internalType": "address",
          "name": "_user",
          "type": "address"
        },
        {
          "internalType": "bool",
          "name": "isDepositVault",
          "type": "bool"
        }
      ],
      "name": "userJoinedVaultCount",
      "outputs": [
        {
          "internalType": "uint256",
          "name": "",
          "type": "uint256"
        }
      ],
      "stateMutability": "view",
      "type": "function"
    },
    {
      "inputs": [
        {
          "internalType": "address",
          "name": "_user",
          "type": "address"
        },
        {
          "internalType": "bool",
          "name": "isDepositVault",
          "type": "bool"
        },
        {
          "internalType": "uint256",
          "name": "index",
          "type": "uint256"
        }
      ],
      "name": "userJoinedVaultInfoAt",
      "outputs": [
        {
          "internalType": "address",
          "name": "vault",
          "type": "address"
        },
        {
          "components": [
            {
              "internalType": "bool",
              "name": "enabled",
              "type": "bool"
            },
            {
              "internalType": "bool",
              "name": "enableDeposit",
              "type": "bool"
            },
            {
              "internalType": "bool",
              "name": "enableWithdraw",
              "type": "bool"
            },
            {
              "internalType": "bool",
              "name": "enableBorrow",
              "type": "bool"
            },
            {
              "internalType": "bool",
              "name": "enableRepay",
              "type": "bool"
            },
            {
              "internalType": "bool",
              "name": "enableLiquidate",
              "type": "bool"
            }
          ],
          "internalType": "struct IController.VaultState",
          "name": "state",
          "type": "tuple"
        }
      ],
      "stateMutability": "view",
      "type": "function"
    },
    {
      "inputs": [
        {
          "internalType": "address",
          "name": "_user",
          "type": "address"
        },
        {
          "internalType": "contract IVault",
          "name": "_vault",
          "type": "address"
        },
        {
          "internalType": "int256",
          "name": "_amount",
          "type": "int256"
        },
        {
          "internalType": "bool",
          "name": "_dp",
          "type": "bool"
        }
      ],
      "name": "userPendingValues",
      "outputs": [
        {
          "internalType": "uint256",
          "name": "pendingDepositValue",
          "type": "uint256"
        },
        {
          "internalType": "uint256",
          "name": "pendingBrorowValue",
          "type": "uint256"
        }
      ],
      "stateMutability": "view",
      "type": "function"
    },
    {
      "inputs": [
        {
          "internalType": "address",
          "name": "_user",
          "type": "address"
        },
        {
          "internalType": "contract IVault",
          "name": "_vault",
          "type": "address"
        },
        {
          "internalType": "int256",
          "name": "_amount",
          "type": "int256"
        },
        {
          "internalType": "bool",
          "name": "_dp",
          "type": "bool"
        }
      ],
      "name": "userTotalPendingValues",
      "outputs": [
        {
          "internalType": "uint256",
          "name": "pendingDepositValue",
          "type": "uint256"
        },
        {
          "internalType": "uint256",
          "name": "pendingBrorowValue",
          "type": "uint256"
        }
      ],
      "stateMutability": "view",
      "type": "function"
    },
    {
      "inputs": [
        {
          "internalType": "address",
          "name": "_user",
          "type": "address"
        },
        {
          "internalType": "bool",
          "name": "_dp",
          "type": "bool"
        }
      ],
      "name": "userTotalValues",
      "outputs": [
        {
          "internalType": "uint256",
          "name": "totalDepositValue",
          "type": "uint256"
        },
        {
          "internalType": "uint256",
          "name": "totalBorrowValue",
          "type": "uint256"
        }
      ],
      "stateMutability": "view",
      "type": "function"
    },
    {
      "inputs": [
        {
          "internalType": "address",
          "name": "_user",
          "type": "address"
        },
        {
          "internalType": "bool",
          "name": "_dp",
          "type": "bool"
        }
      ],
      "name": "userValues",
      "outputs": [
        {
          "internalType": "uint256",
          "name": "totalDepositValue",
          "type": "uint256"
        },
        {
          "internalType": "uint256",
          "name": "totalBorrowValue",
          "type": "uint256"
        }
      ],
      "stateMutability": "view",
      "type": "function"
    },
    {
      "inputs": [
        {
          "internalType": "address",
          "name": "",
          "type": "address"
        }
      ],
      "name": "validVaults",
      "outputs": [
        {
          "internalType": "enum IController.ValidVault",
          "name": "",
          "type": "uint8"
        }
      ],
      "stateMutability": "view",
      "type": "function"
    },
    {
      "inputs": [
        {
          "internalType": "address",
          "name": "",
          "type": "address"
        },
        {
          "internalType": "address",
          "name": "",
          "type": "address"
        }
      ],
      "name": "validVaultsOfUser",
      "outputs": [
        {
          "internalType": "enum IController.ValidVault",
          "name": "",
          "type": "uint8"
        }
      ],
      "stateMutability": "view",
      "type": "function"
    },
    {
      "inputs": [],
      "name": "vaultFactory",
      "outputs": [
        {
          "internalType": "address",
          "name": "",
          "type": "address"
        }
      ],
      "stateMutability": "view",
      "type": "function"
    },
    {
      "inputs": [
        {
          "internalType": "address",
          "name": "",
          "type": "address"
        }
      ],
      "name": "vaultStates",
      "outputs": [
        {
          "internalType": "bool",
          "name": "enabled",
          "type": "bool"
        },
        {
          "internalType": "bool",
          "name": "enableDeposit",
          "type": "bool"
        },
        {
          "internalType": "bool",
          "name": "enableWithdraw",
          "type": "bool"
        },
        {
          "internalType": "bool",
          "name": "enableBorrow",
          "type": "bool"
        },
        {
          "internalType": "bool",
          "name": "enableRepay",
          "type": "bool"
        },
        {
          "internalType": "bool",
          "name": "enableLiquidate",
          "type": "bool"
        }
      ],
      "stateMutability": "view",
      "type": "function"
    },
    {
      "inputs": [
        {
          "internalType": "address",
          "name": "",
          "type": "address"
        }
      ],
      "name": "vaultsBorrowQuota",
      "outputs": [
        {
          "internalType": "uint256",
          "name": "",
          "type": "uint256"
        }
      ],
      "stateMutability": "view",
      "type": "function"
    }
  ],
  "transactionHash": "0x4fe3e28ebd5d06aa0e1735b8038d8f5d6067f034f69d5c534ef2e454e9f921a9",
  "args": [],
  "numDeployments": 3,
  "solcInputHash": "50533bbc2263ea706e6ea5e9a8a32ea2",
  "bytecode": "0x60806040523480156200001157600080fd5b50600062000020600162000087565b9050801562000039576000805461ff0019166101001790555b801562000080576000805461ff0019169055604051600181527f7f26b83ff96e1f2b6a682f133852f6798a09c465da95921460cefb38474024989060200160405180910390a15b50620001a8565b60008054610100900460ff161562000120578160ff166001148015620000c05750620000be306200019960201b62003a851760201c565b155b620001185760405162461bcd60e51b815260206004820152602e6024820152600080516020620057ce83398151915260448201526d191e481a5b9a5d1a585b1a5e995960921b60648201526084015b60405180910390fd5b506000919050565b60005460ff8084169116106200017f5760405162461bcd60e51b815260206004820152602e6024820152600080516020620057ce83398151915260448201526d191e481a5b9a5d1a585b1a5e995960921b60648201526084016200010f565b506000805460ff191660ff92909216919091179055600190565b6001600160a01b03163b151590565b61561680620001b86000396000f3fe608060405234801561001057600080fd5b506004361061030c5760003560e01c80636c4596771161019d578063b74e8b05116100e9578063d8a06f73116100a2578063f2fde38b1161007c578063f2fde38b1461087b578063f7d226731461088e578063f9009ee8146108a1578063fdeef046146108ae57600080fd5b8063d8a06f7314610818578063e26ec36a1461082b578063e76c01e41461083e57600080fd5b8063b74e8b051461078b578063c4c004871461079e578063c5321fb0146107b1578063c8b268b3146107c4578063d2786d45146107d7578063d7a6681c1461080557600080fd5b80638da5cb5b116101565780639c045f3e116101305780639c045f3e14610725578063aaace60114610746578063ab27197e1461076f578063b66d927a1461077857600080fd5b80638da5cb5b146106ee57806390a83dc2146106ff578063967217531461071257600080fd5b80636c4596771461067c5780636e7e6a1e1461068f578063715018a6146106a257806379bf27b1146106aa5780638129fc1c146106bd57806383d57650146106c557600080fd5b806339ebf8231161025c5780635911a1ae11610215578063624b5ed4116101ef578063624b5ed4146106135780636657fc67146106265780636989725c146106565780636af2482d1461066957600080fd5b80635911a1ae1461056157806359e27fc4146105745780635f49202f1461058757600080fd5b806339ebf823146104895780633dcecc2f146104ca5780633ea7fbdb1461051f57806346b45be71461053257806354ab62691461054557806358a6be1c1461055857600080fd5b806314908816116102c95780631e516051116102a35780631e516051146104085780632b9553ce1461043b5780632ea874821461044e57806338b204211461046157600080fd5b806314908816146103855780631a5ab4c9146103985780631acd8c9c146103cb57600080fd5b8063054c134414610311578063095e377d1461032657806309ba9b47146103395780630d37a2901461034c5780630ebdee191461035f5780630eccd2c914610372575b600080fd5b61032461031f366004614a2b565b6108c1565b005b610324610334366004614a6c565b610a6a565b610324610347366004614a2b565b610f11565b61032461035a366004614ab7565b610fff565b61032461036d366004614b1d565b6111b4565b610324610380366004614b4b565b611240565b610324610393366004614a6c565b611497565b6103b86103a6366004614bd0565b60746020526000908152604090205481565b6040519081526020015b60405180910390f35b6103de6103d9366004614bd0565b61158b565b604080516001600160a01b03909416845261ffff92831660208501529116908201526060016103c2565b61042b610416366004614bd0565b606f6020526000908152604090205460ff1681565b60405190151581526020016103c2565b610324610449366004614a2b565b6115de565b6103b861045c366004614b1d565b6118da565b61047461046f366004614bed565b611931565b604080519283526020830191909152016103c2565b6104b2610497366004614bd0565b6066602052600090815260409020546001600160a01b031681565b6040516001600160a01b0390911681526020016103c2565b6104dd6104d8366004614a6c565b61198d565b604080516001600160a01b03978816815261ffff96871660208201529486169085015294909116606083015282166080820152911660a082015260c0016103c2565b61032461052d366004614bd0565b6119c0565b610324610540366004614d24565b611a53565b610324610553366004614bd0565b611d0d565b6103b8606d5481565b6103b861056f366004614a6c565b611dc4565b610324610582366004614a2b565b611ed2565b6105da610595366004614bd0565b606b6020526000908152604090205460ff80821691610100810482169162010000820481169163010000008104821691600160201b8204811691600160281b90041686565b604080519615158752941515602087015292151593850193909352151560608401529015156080830152151560a082015260c0016103c2565b610324610621366004614de6565b612031565b610649610634366004614bd0565b60706020526000908152604090205460ff1681565b6040516103c29190614e37565b610324610664366004614a2b565b612097565b610324610677366004614ef4565b612185565b61032461068a366004614f21565b6122a4565b61032461069d366004614f3e565b61230f565b6103246123d7565b6103246106b8366004614b1d565b61240d565b6103246124d0565b6104b26106d3366004614bd0565b6068602052600090815260409020546001600160a01b031681565b6033546001600160a01b03166104b2565b61032461070d366004614a2b565b61255a565b610474610720366004614bed565b6126ca565b610738610733366004614f5a565b6126d9565b6040516103c2929190614f8a565b6104b2610754366004614bd0565b6065602052600090815260409020546001600160a01b031681565b6103b8606c5481565b61042b610786366004614bd0565b6127e0565b610324610799366004615035565b612817565b6103246107ac366004614b1d565b612dd3565b6103246107bf366004614d24565b612ede565b6103246107d2366004614de6565b61319b565b6106496107e5366004614a6c565b607160209081526000928352604080842090915290825290205460ff1681565b6103246108133660046150ca565b6131fa565b6073546104b2906001600160a01b031681565b610474610839366004614b1d565b6138e4565b6072546105da9060ff80821691610100810482169162010000820481169163010000008104821691600160201b8204811691600160281b90041686565b610324610889366004614bd0565b613921565b61047461089c366004614b1d565b6139b9565b606e5461042b9060ff1681565b6103246108bc36600461512f565b6139df565b6001600160a01b0382166000908152606b6020908152604091829020825160c081018452905460ff8082161515835261010082048116151593830193909352620100008104831615159382019390935263010000008304821615156060820152600160201b8304821615156080820152600160281b9092048116151560a083015260725416801561095a575060725462010000900460ff165b8015610964575080515b8015610971575080604001515b6109b65760405162461bcd60e51b815260206004820152601160248201527015d2551211149055d7d11254d050931151607a1b60448201526064015b60405180910390fd5b6109c08385613a94565b15610a645760006109dd85856109d68685615171565b6001613b83565b6001600160a01b0386166000908152606a6020526040812091925090610a069087906001613dce565b9050606d5481610a1691906151b0565b610a22612710846151b0565b1015610a615760405162461bcd60e51b815260206004820152600e60248201526d1313d5d7d0d3d31310551154905360921b60448201526064016109ad565b50505b50505050565b6033546001600160a01b03163314610a945760405162461bcd60e51b81526004016109ad906151cf565b6001600160a01b0381166000908152606f602052604090205460ff16610acc5760405162461bcd60e51b81526004016109ad90615204565b60408051600160208201526000910160408051601f198184030181529181526001600160a01b0385166000908152606a6020529081209192505b610b0f82613e9d565b811015610cf1576000610b228383613ea7565b90506000816001600160a01b031663ae318c4d8860006040518363ffffffff1660e01b8152600401610b55929190615230565b60206040518083038186803b158015610b6d57600080fd5b505afa158015610b81573d6000803e3d6000fd5b505050506040513d601f19601f82011682018060405250810190610ba5919061524b565b90508015610bb4575050610cdf565b6040516354a5706f60e01b81526001600160a01b038881166004830152600091908416906354a5706f9060240160206040518083038186803b158015610bf957600080fd5b505afa158015610c0d573d6000803e3d6000fd5b505050506040513d601f19601f82011682018060405250810190610c31919061524b565b6040516374eb83c160e01b81529091506001600160a01b038416906374eb83c190610c64908a908c908b906004016152bc565b600060405180830381600087803b158015610c7e57600080fd5b505af1158015610c92573d6000803e3d6000fd5b50505050876001600160a01b03167f7114e74d858e0dbdc24007f787fb65581d52fdcd4e8517d6f3a1f9448323428c848385604051610cd3939291906152f1565b60405180910390a25050505b80610ce981615312565b915050610b06565b506001600160a01b0384166000908152606960205260408120905b610d1582613e9d565b811015610a61576000610d288383613ea7565b90506000816001600160a01b031663ae318c4d8960006040518363ffffffff1660e01b8152600401610d5b929190615230565b60206040518083038186803b158015610d7357600080fd5b505afa158015610d87573d6000803e3d6000fd5b505050506040513d601f19601f82011682018060405250810190610dab919061524b565b9050600081118015610dda5750731e3174c5757cf5457f8a3a8c3e4a35ed2d1383226001600160a01b03831614155b15610de6575050610eff565b60405163fc7e286d60e01b81526001600160a01b0389811660048301526000919084169063fc7e286d9060240160206040518083038186803b158015610e2b57600080fd5b505afa158015610e3f573d6000803e3d6000fd5b505050506040513d601f19601f82011682018060405250810190610e63919061524b565b6040516374eb83c160e01b81529091506001600160a01b038416906374eb83c190610e96908b908d908c906004016152bc565b600060405180830381600087803b158015610eb057600080fd5b505af1158015610ec4573d6000803e3d6000fd5b50505050886001600160a01b03166000805160206155c1833981519152848385604051610ef3939291906152f1565b60405180910390a25050505b80610f0981615312565b915050610d0c565b6001600160a01b0382166000908152606b6020908152604091829020825160c081018452905460ff8082161515835261010082048116151593830193909352620100008104831615159382019390935263010000008304821615156060820152600160201b8304821615156080820152600160281b9092048116151560a0830152607254168015610fa95750607254610100900460ff165b8015610fb3575080515b8015610fc0575080602001515b610a645760405162461bcd60e51b815260206004820152601060248201526f4445504f534954455f44495341424c4560801b60448201526064016109ad565b6033546001600160a01b031633148061102257506073546001600160a01b031633145b61103e5760405162461bcd60e51b81526004016109ad9061532d565b6001600160a01b0383166110855760405162461bcd60e51b815260206004820152600e60248201526d494e56414c49445f4f5241434c4560901b60448201526064016109ad565b6127108261ffff1611156110cd5760405162461bcd60e51b815260206004820152600f60248201526e444953434f55545f544f4f5f42494760881b60448201526064016109ad565b6127108161ffff1610156111175760405162461bcd60e51b81526020600482015260116024820152701414915352555357d513d3d7d4d3505313607a1b60448201526064016109ad565b6001600160a01b0384811660008181526067602090815260409182902080549488166001600160b01b03199095168517600160a01b61ffff8981169182029290921761ffff60b01b1916600160b01b92891692830217835584519687529286019290925291840152917f7cb71f764a6240297d887d23473a61cf07ba9d34ccfbdd326620a5b896cd33469060600160405180910390a25050505050565b6033546001600160a01b031633146111de5760405162461bcd60e51b81526004016109ad906151cf565b6001600160a01b0382166000908152606f602052604090819020805460ff1916831515179055517fd8949265082223b72749a7863e551684ee0df9a0c8ece536b9f14686b68425fc906112349084908490615230565b60405180910390a15050565b606e54339060ff168061126b57506001600160a01b0381166000908152606f602052604090205460ff165b6112ac5760405162461bcd60e51b815260206004820152601260248201527124a72b20a624a22fa624a8aaa4a220aa27a960711b60448201526064016109ad565b6112b5846127e0565b6112f55760405162461bcd60e51b81526020600482015260116024820152700869e989882a88aa48298be8a9c9eaa8e9607b1b60448201526064016109ad565b6001600160a01b03841660009081526069602052604081209061131782613e9d565b9050805b80156113cb576000611338611331600184615378565b8590613ea7565b90506113448189613a94565b156113b8576113538882613eb3565b6040516374eb83c160e01b81526001600160a01b038216906374eb83c1906113859088908c908c908c9060040161538f565b600060405180830381600087803b15801561139f57600080fd5b505af11580156113b3573d6000803e3d6000fd5b505050505b50806113c3816153db565b91505061131b565b506001600160a01b0386166000908152606a60205260408120906113ee82613e9d565b9050805b801561148c576000611408611331600184615378565b90506114148a82613eb3565b6040516374eb83c160e01b81526001600160a01b038216906374eb83c190611446908a908e908e908e9060040161538f565b600060405180830381600087803b15801561146057600080fd5b505af1158015611474573d6000803e3d6000fd5b50505050508080611484906153db565b9150506113f2565b505050505050505050565b6033546001600160a01b03163314806114ba57506073546001600160a01b031633145b6114d65760405162461bcd60e51b81526004016109ad9061532d565b6001600160a01b03811661151d5760405162461bcd60e51b815260206004820152600e60248201526d24a72b20a624a22fa22a27a5a2a760911b60448201526064016109ad565b6001600160a01b0382811660008181526065602090815260409182902080548686166001600160a01b0319821681179092558351951680865291850152927fd5c0cad2a6b3eea813a7bdf548752779e26da201508f6e807ec5ec3d65d020d6910160405180910390a2505050565b6001600160a01b039081166000908152606760209081526040918290208251606081018452905493841680825261ffff600160a01b86048116938301849052600160b01b90950490941692018290529192565b6001600160a01b0382166000908152606b6020908152604091829020825160c081018452905460ff8082161515835261010082048116151593830193909352620100008104831615159382019390935263010000008304821615156060820152600160201b8304821615156080820152600160281b9092048116151560a083015260725416801561167857506072546301000000900460ff165b8015611682575080515b801561168f575080606001515b6116cd5760405162461bcd60e51b815260206004820152600f60248201526e1093d49493d5d7d11254d050931151608a1b60448201526064016109ad565b6001600160a01b0383166000818152607460209081526040808320548151636f307dc360e01b81529151909492636f307dc39260048082019391829003018186803b15801561171b57600080fd5b505afa15801561172f573d6000803e3d6000fd5b505050506040513d601f19601f8201168201806040525081019061175391906153f2565b6001600160a01b03166318160ddd6040518163ffffffff1660e01b815260040160206040518083038186803b15801561178b57600080fd5b505afa15801561179f573d6000803e3d6000fd5b505050506040513d601f19601f820116820180604052508101906117c3919061524b565b90508115806117db5750816117d8858361540f565b11155b61183d5760405162461bcd60e51b815260206004820152602d60248201527f417070436f6e74726f6c6c65723a20616d6f756e7420746f20626f72726f772060448201526c657863656564732071756f746160981b60648201526084016109ad565b600061184a876001613fa4565b6001600160a01b0388166000908152606a60205260408120919250906118759089908989600161408e565b9050606d548161188591906151b0565b611891612710846151b0565b10156118d05760405162461bcd60e51b815260206004820152600e60248201526d1313d5d7d0d3d31310551154905360921b60448201526064016109ad565b5050505050505050565b600081611907576001600160a01b0383166000908152606a6020526040902061190290613e9d565b611928565b6001600160a01b038316600090815260696020526040902061192890613e9d565b90505b92915050565b6001600160a01b0384166000908152606960205260408120819061195990879087878761408e565b6001600160a01b0387166000908152606a6020526040902090925061198290879087878761408e565b905094509492505050565b60008060008060008061199f8861158b565b919750955093506119af8761158b565b979a96995094975095939492505050565b6033546001600160a01b031633146119ea5760405162461bcd60e51b81526004016109ad906151cf565b607354604080516001600160a01b03928316815291831660208301527f8dea3c42cf6bdedf4c3c6397296fe418086bb6ced33d229f2d5a3c0d109927e2910160405180910390a1607380546001600160a01b0319166001600160a01b0392909216919091179055565b6033546001600160a01b0316331480611a7657506073546001600160a01b031633145b611a925760405162461bcd60e51b81526004016109ad9061532d565b815181518082148015611aa457508115155b611ae05760405162461bcd60e51b815260206004820152600d60248201526c494e56414c49445f504152414d60981b60448201526064016109ad565b60005b82811015611d0657600060706000878481518110611b0357611b03615427565b6020908102919091018101516001600160a01b031682528101919091526040016000205460ff166002811115611b3b57611b3b614dff565b14611b785760405162461bcd60e51b815260206004820152600d60248201526c5345545f4f4e4c595f4f4e434560981b60448201526064016109ad565b6002848281518110611b8c57611b8c615427565b60200260200101516002811115611ba557611ba5614dff565b1480611bdb57506001848281518110611bc057611bc0615427565b60200260200101516002811115611bd957611bd9614dff565b145b611c175760405162461bcd60e51b815260206004820152600d60248201526c494e56414c49445f56414c554560981b60448201526064016109ad565b838181518110611c2957611c29615427565b602002602001015160706000878481518110611c4757611c47615427565b6020908102919091018101516001600160a01b03168252810191909152604001600020805460ff19166001836002811115611c8457611c84614dff565b02179055507f05334cade7d5051a457d6cddb92a76a5266e31459f3118a536c99b169beaa0f5858281518110611cbc57611cbc615427565b6020026020010151858381518110611cd657611cd6615427565b6020026020010151604051611cec92919061543d565b60405180910390a180611cfe81615312565b915050611ae3565b5050505050565b6033546001600160a01b03163314611d375760405162461bcd60e51b81526004016109ad906151cf565b6001600160a01b03808216600090815260666020908152604080832054815163429c145b60e11b8152915194169363853828b693600480840194938390030190829087803b158015611d8857600080fd5b505af1158015611d9c573d6000803e3d6000fd5b505050506040513d601f19601f82011682018060405250810190611dc0919061524b565b5050565b600080611dd2846001613fa4565b6001600160a01b0385166000908152606a6020526040812091925090611dfb9086906001613dce565b90506000606d5461271084611e1091906151b0565b611e1a919061545a565b905081811115611ebd576000611e308383615378565b60405163281aa7fd60e21b815260048101829052600160248201529091506001600160a01b0387169063a06a9ff49060440160206040518083038186803b158015611e7a57600080fd5b505afa158015611e8e573d6000803e3d6000fd5b505050506040513d601f19601f82011682018060405250810190611eb2919061524b565b94505050505061192b565b6000935050505061192b565b50505092915050565b6033546001600160a01b0316331480611ef557506073546001600160a01b031633145b611f115760405162461bcd60e51b81526004016109ad9061532d565b816001600160a01b031663ba58591c6040518163ffffffff1660e01b815260040160206040518083038186803b158015611f4a57600080fd5b505afa158015611f5e573d6000803e3d6000fd5b505050506040513d601f19601f82011682018060405250810190611f82919061547c565b611fbe5760405162461bcd60e51b815260206004820152600d60248201526c1253959053125157d590531555609a1b60448201526064016109ad565b6001600160a01b038084166000818152606860205260409081902080548685166001600160a01b031982161790915590519216917f0ff9c79e47a5eed61bfb093d8315d37efcfa7f6679e507f608289c78941b0e519061202390849087908790615499565b60405180910390a250505050565b6033546001600160a01b0316331461205b5760405162461bcd60e51b81526004016109ad906151cf565b606d8190556040518181527f13e612fc69e30b3adcca3cb6573fa94782e94f59261f9b32c96c34b90552b335906020015b60405180910390a150565b6001600160a01b0382166000908152606b6020908152604091829020825160c081018452905460ff8082161515835261010082048116151593830193909352620100008104831615159382019390935263010000008304821615156060820152600160201b8304821615156080820152600160281b9092048116151560a08301526072541680156121315750607254600160201b900460ff165b801561213b575080515b8015612148575080608001515b610a645760405162461bcd60e51b815260206004820152600e60248201526d149154105657d11254d05093115160921b60448201526064016109ad565b6033546001600160a01b03163314806121a857506073546001600160a01b031633145b6121c45760405162461bcd60e51b81526004016109ad9061532d565b6001600160a01b0382166000908152606b60209081526040918290208351815492850151858501516060870151608088015160a089015161ffff1990971694151561ff00191694909417610100931515939093029290921763ffff00001916620100009115159190910263ff0000001916176301000000911515919091021765ffff000000001916600160201b9115159190910265ff0000000000191617600160281b92151592909202919091179055517f0f86f36676a78407d88aa894e600955aca44b6b9eaff4740c81228e2fa75d628906112349084908490614f8a565b6033546001600160a01b031633146122ce5760405162461bcd60e51b81526004016109ad906151cf565b606e805460ff19168215159081179091556040519081527fcfa23450328fe03391963dc3e54c19ebeecb28fd8a628b495b71ab8534d61c329060200161208c565b6033546001600160a01b031633146123395760405162461bcd60e51b81526004016109ad906151cf565b805160728054602084015160408501516060860151608087015160a09097015161ffff1990941695151561ff00191695909517610100921515929092029190911763ffff00001916620100009115159190910263ff0000001916176301000000931515939093029290921765ffff000000001916600160201b9315159390930265ff0000000000191692909217600160281b91151591909102179055565b6033546001600160a01b031633146124015760405162461bcd60e51b81526004016109ad906151cf565b61240b60006142a1565b565b336000818152606b602052604090205460ff168061244a57506001600160a01b0381166000908152606b6020526040902054600160281b900460ff165b6124875760405162461bcd60e51b815260206004820152600e60248201526d24a72b20a624a22fa1a0a62622a960911b60448201526064016109ad565b6000826124ab576001600160a01b0384166000908152606a602052604090206124c4565b6001600160a01b03841660009081526069602052604090205b9050611d0681836142f3565b60006124dc6001614308565b905080156124f4576000805461ff0019166101001790555b6124fc614395565b612af8606c556132c8606d55606e805460ff191660011790558015612557576000805461ff0019169055604051600181527f7f26b83ff96e1f2b6a682f133852f6798a09c465da95921460cefb38474024989060200161208c565b50565b6033546001600160a01b031633146125845760405162461bcd60e51b81526004016109ad906151cf565b6001600160a01b0382166125d05760405162461bcd60e51b815260206004820152601360248201527214dd1c985d1959da595cc8111a5cd8589b1959606a1b60448201526064016109ad565b6001600160a01b0380841660009081526066602052604090205416801561266657806001600160a01b031663853828b66040518163ffffffff1660e01b8152600401602060405180830381600087803b15801561262c57600080fd5b505af1158015612640573d6000803e3d6000fd5b505050506040513d601f19601f82011682018060405250810190612664919061524b565b505b6001600160a01b038481166000818152606660205260409081902080546001600160a01b0319169387169390931790925590517fcc7d45f325309ae5b4940b5de638a482be2a51aa3a917326a84f65bcc2f735239061202390849087908790615499565b60008061195986868686613b83565b6040805160c081018252600080825260208201819052918101829052606081018290526080810182905260a0810182905260008461272e576001600160a01b0386166000908152606a60205260409020612747565b6001600160a01b03861660009081526069602052604090205b90506127538185613ea7565b6001600160a01b0381166000908152606b6020908152604091829020825160c081018452905460ff8082161515835261010082048116151593830193909352620100008104831615159382019390935263010000008304821615156060820152600160201b8304821615156080820152600160281b90920416151560a08201529097909650945050505050565b60008060006127f08460016138e4565b91509150606c548161280291906151b0565b61280e612710846151b0565b10949350505050565b6033546001600160a01b031633146128415760405162461bcd60e51b81526004016109ad906151cf565b6001600160a01b0385166000908152606f602052604090205460ff166128795760405162461bcd60e51b81526004016109ad90615204565b826128b85760405162461bcd60e51b815260206004820152600f60248201526e06e6f7468696e6720746f207377617608c1b60448201526064016109ad565b82811461292d5760405162461bcd60e51b815260206004820152603a60248201527f6c656e677468206f6620736f757263655661756c74735f2073686f756c64206260448201527f6520657175616c20746f207461726765745661756c74735f277300000000000060648201526084016109ad565b604080516001602082015260009101604051602081830303815290604052905060005b848110156118d057600086868381811061296c5761296c615427565b90506020020160208101906129819190614bd0565b9050600085858481811061299757612997615427565b90506020020160208101906129ac9190614bd0565b90506000826001600160a01b031663ae318c4d8c60006040518363ffffffff1660e01b81526004016129df929190615230565b60206040518083038186803b1580156129f757600080fd5b505afa158015612a0b573d6000803e3d6000fd5b505050506040513d601f19601f82011682018060405250810190612a2f919061524b565b60405163fc7e286d60e01b81526001600160a01b038d8116600483015291925060009185169063fc7e286d9060240160206040518083038186803b158015612a7657600080fd5b505afa158015612a8a573d6000803e3d6000fd5b505050506040513d601f19601f82011682018060405250810190612aae919061524b565b9050836001600160a01b03166374eb83c18c8e896040518463ffffffff1660e01b8152600401612ae0939291906152bc565b600060405180830381600087803b158015612afa57600080fd5b505af1158015612b0e573d6000803e3d6000fd5b505050506001600160a01b038416734527ba20f16f86525b6d174b6314502ca6d5256e1415612b4c57612b45816301d2eb406151b0565b9150612b82565b73c703fdad6ca5df56bd729fef24157e196a4810f86001600160a01b0385161415612b8257612b7f81630c0a46806151b0565b91505b60008211612b935750505050612dc1565b604051630eda25c760e11b8152670de0b6b3a76400006004820152600060248201819052906001600160a01b03851690631db44b8e9060440160206040518083038186803b158015612be457600080fd5b505afa158015612bf8573d6000803e3d6000fd5b505050506040513d601f19601f82011682018060405250810190612c1c919061524b565b9050600064e8d4a5100082612c3186836151b0565b612c3b919061545a565b612c45919061545a565b9050612ccf333083886001600160a01b0316636f307dc36040518163ffffffff1660e01b815260040160206040518083038186803b158015612c8657600080fd5b505afa158015612c9a573d6000803e3d6000fd5b505050506040513d601f19601f82011682018060405250810190612cbe91906153f2565b6001600160a01b03169291906143c4565b612d558582876001600160a01b0316636f307dc36040518163ffffffff1660e01b815260040160206040518083038186803b158015612d0d57600080fd5b505afa158015612d21573d6000803e3d6000fd5b505050506040513d601f19601f82011682018060405250810190612d4591906153f2565b6001600160a01b0316919061441c565b612d60858f83614540565b604080516001600160a01b038881168252602082018690528781169282019290925260608101839052908f16907fcba74a9a38e532ea920e947d3babe6efc7b838cb416f82d9b9d79f32744b34ca9060800160405180910390a25050505050505b80612dcb81615312565b915050612950565b336000818152606b602052604090205460ff1680612e1057506001600160a01b0381166000908152606b6020526040902054600160281b900460ff165b612e4d5760405162461bcd60e51b815260206004820152600e60248201526d24a72b20a624a22fa1a0a62622a960911b60448201526064016109ad565b600082612e71576001600160a01b0384166000908152606a60205260409020612e8a565b6001600160a01b03841660009081526069602052604090205b90506014612e9782613e9d565b10612ed45760405162461bcd60e51b815260206004820152600d60248201526c0949e929cbea89e9ebe9aaa869609b1b60448201526064016109ad565b611d068183614617565b815181513391908082148015612ef357508115155b612f2f5760405162461bcd60e51b815260206004820152600d60248201526c494e56414c49445f504152414d60981b60448201526064016109ad565b60005b828110156130db576002858281518110612f4e57612f4e615427565b60200260200101516002811115612f6757612f67614dff565b1480612f9d57506001858281518110612f8257612f82615427565b60200260200101516002811115612f9b57612f9b614dff565b145b612fd95760405162461bcd60e51b815260206004820152600d60248201526c494e56414c49445f56414c554560981b60448201526064016109ad565b848181518110612feb57612feb615427565b60200260200101516071600088848151811061300957613009615427565b6020908102919091018101516001600160a01b039081168352828201939093526040918201600090812093891681529290529020805460ff1916600183600281111561305757613057614dff565b02179055507f65d4763abdc1e045affaf50aed5fc2a1f4f466da45ee41ea701e0ad5029ff0b086828151811061308f5761308f615427565b6020026020010151858784815181106130aa576130aa615427565b60200260200101516040516130c1939291906154bd565b60405180910390a1806130d381615312565b915050612f32565b5060006130e9846001613fa4565b6001600160a01b0385166000908152606a60205260408120919250906131129086906001613dce565b90506000606d546127108461312791906151b0565b613131919061545a565b9050606d548261314191906151b0565b61314d612710856151b0565b10156118d05760405162461bcd60e51b815260206004820152601d60248201527f53455456414c49445641554c543a204c4f575f434f4c4c41544552414c00000060448201526064016109ad565b6033546001600160a01b031633146131c55760405162461bcd60e51b81526004016109ad906151cf565b606c8190556040518181527f138a4f81e91d7ed8109625537819aae162d22b1e4b5f73e1919d1f6e21bfbb4b9060200161208c565b6033546001600160a01b031633146132245760405162461bcd60e51b81526004016109ad906151cf565b6001600160a01b0383166000908152606f602052604090205460ff1661325c5760405162461bcd60e51b81526004016109ad90615204565b6001600160a01b038416600090815260696020908152604080832081516001818501528251808203909401845282019091529190815b848110156134915760008686838181106132ae576132ae615427565b90506020020160208101906132c39190614bd0565b90506000816001600160a01b031663ae318c4d8b60006040518363ffffffff1660e01b81526004016132f6929190615230565b60206040518083038186803b15801561330e57600080fd5b505afa158015613322573d6000803e3d6000fd5b505050506040513d601f19601f82011682018060405250810190613346919061524b565b6040516354a5706f60e01b81526001600160a01b038c811660048301529192506000918416906354a5706f9060240160206040518083038186803b15801561338d57600080fd5b505afa1580156133a1573d6000803e3d6000fd5b505050506040513d601f19601f820116820180604052508101906133c5919061524b565b90506133d1828761540f565b6040516374eb83c160e01b81529096506001600160a01b038416906374eb83c190613404908d908f908a906004016152bc565b600060405180830381600087803b15801561341e57600080fd5b505af1158015613432573d6000803e3d6000fd5b505050508a6001600160a01b03167f7114e74d858e0dbdc24007f787fb65581d52fdcd4e8517d6f3a1f9448323428c848385604051613473939291906152f1565b60405180910390a2505050808061348990615312565b915050613292565b50600082116134a257505050610a64565b6000806134ae85613e9d565b90505b80156138955760006134ce6134c7600184615378565b8790613ea7565b90506134da818b613a94565b158061350657506001600160a01b0381166000908152606b6020526040902054600160281b900460ff16155b156135115750613883565b60405163ae318c4d60e01b81526000906001600160a01b0383169063ae318c4d90613542908e908590600401615230565b60206040518083038186803b15801561355a57600080fd5b505afa15801561356e573d6000803e3d6000fd5b505050506040513d601f19601f82011682018060405250810190613592919061524b565b905061359e818561540f565b60405163fc7e286d60e01b81526001600160a01b038d8116600483015291955060009184169063fc7e286d9060240160206040518083038186803b1580156135e557600080fd5b505afa1580156135f9573d6000803e3d6000fd5b505050506040513d601f19601f8201168201806040525081019061361d919061524b565b9050826001600160a01b03166374eb83c18c8e896040518463ffffffff1660e01b815260040161364f939291906152bc565b600060405180830381600087803b15801561366957600080fd5b505af115801561367d573d6000803e3d6000fd5b50505050868514156136c4578b6001600160a01b03166000805160206155c18339815191528483856040516136b4939291906152f1565b60405180910390a2505050613895565b86851015613707578b6001600160a01b03166000805160206155c18339815191528483856040516136f7939291906152f1565b60405180910390a2505050613883565b60006137138887615378565b90506305f5e10081101561375d578c6001600160a01b03166000805160206155c183398151915285848660405161374c939291906152f1565b60405180910390a250505050613895565b600064e8d4a510008461377084866151b0565b61377f9064e8d4a510006151b0565b613789919061545a565b613793919061545a565b9050828111156137a05750815b6137df8d3083886001600160a01b0316636f307dc36040518163ffffffff1660e01b815260040160206040518083038186803b158015612c8657600080fd5b61381d8582876001600160a01b0316636f307dc36040518163ffffffff1660e01b815260040160206040518083038186803b158015612d0d57600080fd5b613828858f83614540565b6001600160a01b038e166000805160206155c18339815191528661384c8487615378565b6138568689615378565b604051613865939291906152f1565b60405180910390a26138778288615378565b96505050505050613895565b8061388d816153db565b9150506134b1565b5060408051848152602081018390526001600160a01b038a16917f26e0bc17070eb8681630837613dc291e5976262044227decb74f578aee1eee5c910160405180910390a25050505050505050565b6000806138f18484613fa4565b6001600160a01b0385166000908152606a6020526040902090925061391890859085613dce565b90509250929050565b6033546001600160a01b0316331461394b5760405162461bcd60e51b81526004016109ad906151cf565b6001600160a01b0381166139b05760405162461bcd60e51b815260206004820152602660248201527f4f776e61626c653a206e6577206f776e657220697320746865207a65726f206160448201526564647265737360d01b60648201526084016109ad565b612557816142a1565b6001600160a01b038216600090815260696020526040812081906138f190859085613dce565b6033546001600160a01b03163314613a095760405162461bcd60e51b81526004016109ad906151cf565b6001600160a01b03821660008181526074602090815260409182902054825193845233918401919091528282015260608201839052517f3293d79c25c2df19fbbce583d677755d261349535e2ac61d5a06e6524fcbed759181900360800190a16001600160a01b03909116600090815260746020526040902055565b6001600160a01b03163b151590565b6001600160a01b03808316600090815260716020908152604080832093851683529290529081205460ff168180826002811115613ad357613ad3614dff565b14613ade5781613afb565b6001600160a01b03851660009081526070602052604090205460ff165b90506000816002811115613b1157613b11614dff565b1415613b535760405162461bcd60e51b81526020600482015260116024820152701590531251159055531517d55392539255607a1b60448201526064016109ad565b6002816002811115613b6757613b67614dff565b1415613b785760019250505061192b565b506000949350505050565b6001600160a01b038416600090815260696020526040812081613ba582613e9d565b90506000805b82811015613d1d576000613bbf8583613ea7565b9050613bcb818b613a94565b15613d0a57806001600160a01b0316896001600160a01b03161415613c7f57604051635ac28bf960e01b81526001600160a01b038b81166004830152602482018a9052821690635ac28bf99060440160206040518083038186803b158015613c3257600080fd5b505afa158015613c46573d6000803e3d6000fd5b505050506040513d601f19601f82011682018060405250810190613c6a919061524b565b613c74908761540f565b955060019250613d0a565b60405163ae318c4d60e01b81526001600160a01b0382169063ae318c4d90613cad908d908b90600401615230565b60206040518083038186803b158015613cc557600080fd5b505afa158015613cd9573d6000803e3d6000fd5b505050506040513d601f19601f82011682018060405250810190613cfd919061524b565b613d07908761540f565b95505b5080613d1581615312565b915050613bab565b5080158015613d315750613d318789613a94565b15613dc357604051635ac28bf960e01b81526001600160a01b03898116600483015260248201889052881690635ac28bf99060440160206040518083038186803b158015613d7e57600080fd5b505afa158015613d92573d6000803e3d6000fd5b505050506040513d601f19601f82011682018060405250810190613db6919061524b565b613dc0908561540f565b93505b505050949350505050565b600080613dda84613e9d565b905060005b81811015613e94576000613df38683613ea7565b60405163ae318c4d60e01b81529091506001600160a01b0382169063ae318c4d90613e24908a908990600401615230565b60206040518083038186803b158015613e3c57600080fd5b505afa158015613e50573d6000803e3d6000fd5b505050506040513d601f19601f82011682018060405250810190613e74919061524b565b613e7e908561540f565b9350508080613e8c90615312565b915050613ddf565b50509392505050565b600061192b825490565b6000611928838361462c565b6001600160a01b0381166000908152606b6020908152604091829020825160c081018452905460ff8082161515835261010082048116151593830193909352620100008104831615159382019390935263010000008304821615156060820152600160201b8304821615156080820152600160281b9092048116151560a0830152607254168015613f4d5750607254600160281b900460ff165b8015613f57575080515b8015613f6457508060a001515b613f9f5760405162461bcd60e51b815260206004820152600c60248201526b13125457d11254d05093115160a21b60448201526064016109ad565b505050565b6001600160a01b038216600090815260696020526040812081613fc682613e9d565b905060005b81811015611ec9576000613fdf8483613ea7565b9050613feb8188613a94565b1561407b5760405163ae318c4d60e01b81526001600160a01b0382169063ae318c4d9061401e908a908a90600401615230565b60206040518083038186803b15801561403657600080fd5b505afa15801561404a573d6000803e3d6000fd5b505050506040513d601f19601f8201168201806040525081019061406e919061524b565b614078908661540f565b94505b508061408681615312565b915050613fcb565b60008061409a86613e9d565b90506000805b828110156142035760006140b48983613ea7565b9050806001600160a01b0316886001600160a01b0316141561416557604051635ac28bf960e01b81526001600160a01b038b8116600483015260248201899052821690635ac28bf99060440160206040518083038186803b15801561411857600080fd5b505afa15801561412c573d6000803e3d6000fd5b505050506040513d601f19601f82011682018060405250810190614150919061524b565b61415a908661540f565b9450600192506141f0565b60405163ae318c4d60e01b81526001600160a01b0382169063ae318c4d90614193908d908a90600401615230565b60206040518083038186803b1580156141ab57600080fd5b505afa1580156141bf573d6000803e3d6000fd5b505050506040513d601f19601f820116820180604052508101906141e3919061524b565b6141ed908661540f565b94505b50806141fb81615312565b9150506140a0565b508061429657604051635ac28bf960e01b81526001600160a01b03898116600483015260248201879052871690635ac28bf99060440160206040518083038186803b15801561425157600080fd5b505afa158015614265573d6000803e3d6000fd5b505050506040513d601f19601f82011682018060405250810190614289919061524b565b614293908461540f565b92505b505095945050505050565b603380546001600160a01b038381166001600160a01b0319831681179093556040519116919082907f8be0079c531659141344cd1fd0a4f28419497f9722a3daafe3b4186f6b6457e090600090a35050565b6000611928836001600160a01b038416614656565b60008054610100900460ff161561434f578160ff16600114801561432b5750303b155b6143475760405162461bcd60e51b81526004016109ad906154e2565b506000919050565b60005460ff8084169116106143765760405162461bcd60e51b81526004016109ad906154e2565b506000805460ff191660ff92909216919091179055600190565b919050565b600054610100900460ff166143bc5760405162461bcd60e51b81526004016109ad90615530565b61240b614749565b610a64846323b872dd60e01b8585856040516024016143e593929190615499565b60408051601f198184030181529190526020810180516001600160e01b03166001600160e01b031990931692909217909152614779565b8015806144a55750604051636eb1769f60e11b81523060048201526001600160a01b03838116602483015284169063dd62ed3e9060440160206040518083038186803b15801561446b57600080fd5b505afa15801561447f573d6000803e3d6000fd5b505050506040513d601f19601f820116820180604052508101906144a3919061524b565b155b6145105760405162461bcd60e51b815260206004820152603660248201527f5361666545524332303a20617070726f76652066726f6d206e6f6e2d7a65726f60448201527520746f206e6f6e2d7a65726f20616c6c6f77616e636560501b60648201526084016109ad565b6040516001600160a01b038316602482015260448101829052613f9f90849063095ea7b360e01b906064016143e5565b826001600160a01b031663f213159c846001600160a01b0316636f307dc36040518163ffffffff1660e01b815260040160206040518083038186803b15801561458857600080fd5b505afa15801561459c573d6000803e3d6000fd5b505050506040513d601f19601f820116820180604052508101906145c091906153f2565b84846040518463ffffffff1660e01b81526004016145e093929190615499565b600060405180830381600087803b1580156145fa57600080fd5b505af115801561460e573d6000803e3d6000fd5b50505050505050565b6000611928836001600160a01b03841661484b565b600082600001828154811061464357614643615427565b9060005260206000200154905092915050565b6000818152600183016020526040812054801561473f57600061467a600183615378565b855490915060009061468e90600190615378565b90508181146146f35760008660000182815481106146ae576146ae615427565b90600052602060002001549050808760000184815481106146d1576146d1615427565b6000918252602080832090910192909255918252600188019052604090208390555b85548690806147045761470461557b565b60019003818190600052602060002001600090559055856001016000868152602001908152602001600020600090556001935050505061192b565b600091505061192b565b600054610100900460ff166147705760405162461bcd60e51b81526004016109ad90615530565b61240b336142a1565b60006147ce826040518060400160405280602081526020017f5361666545524332303a206c6f772d6c6576656c2063616c6c206661696c6564815250856001600160a01b031661489a9092919063ffffffff16565b805190915015613f9f57808060200190518101906147ec919061547c565b613f9f5760405162461bcd60e51b815260206004820152602a60248201527f5361666545524332303a204552433230206f7065726174696f6e20646964206e6044820152691bdd081cdd58d8d9595960b21b60648201526084016109ad565b60008181526001830160205260408120546148925750815460018181018455600084815260208082209093018490558454848252828601909352604090209190915561192b565b50600061192b565b60606148a984846000856148b3565b90505b9392505050565b6060824710156149145760405162461bcd60e51b815260206004820152602660248201527f416464726573733a20696e73756666696369656e742062616c616e636520666f6044820152651c8818d85b1b60d21b60648201526084016109ad565b843b6149625760405162461bcd60e51b815260206004820152601d60248201527f416464726573733a2063616c6c20746f206e6f6e2d636f6e747261637400000060448201526064016109ad565b600080866001600160a01b0316858760405161497e9190615591565b60006040518083038185875af1925050503d80600081146149bb576040519150601f19603f3d011682016040523d82523d6000602084013e6149c0565b606091505b50915091506149d08282866149dd565b925050505b949350505050565b606083156149ec5750816148ac565b8251156149fc5782518084602001fd5b8160405162461bcd60e51b81526004016109ad91906155ad565b6001600160a01b038116811461255757600080fd5b600080600060608486031215614a4057600080fd5b8335614a4b81614a16565b92506020840135614a5b81614a16565b929592945050506040919091013590565b60008060408385031215614a7f57600080fd5b8235614a8a81614a16565b91506020830135614a9a81614a16565b809150509250929050565b803561ffff8116811461439057600080fd5b60008060008060808587031215614acd57600080fd5b8435614ad881614a16565b93506020850135614ae881614a16565b9250614af660408601614aa5565b9150614b0460608601614aa5565b905092959194509250565b801515811461255757600080fd5b60008060408385031215614b3057600080fd5b8235614b3b81614a16565b91506020830135614a9a81614b0f565b600080600060408486031215614b6057600080fd5b8335614b6b81614a16565b9250602084013567ffffffffffffffff80821115614b8857600080fd5b818601915086601f830112614b9c57600080fd5b813581811115614bab57600080fd5b876020828501011115614bbd57600080fd5b6020830194508093505050509250925092565b600060208284031215614be257600080fd5b81356148ac81614a16565b60008060008060808587031215614c0357600080fd5b8435614c0e81614a16565b93506020850135614c1e81614a16565b9250604085013591506060850135614c3581614b0f565b939692955090935050565b634e487b7160e01b600052604160045260246000fd5b604051601f8201601f1916810167ffffffffffffffff81118282101715614c7f57614c7f614c40565b604052919050565b600067ffffffffffffffff821115614ca157614ca1614c40565b5060051b60200190565b600082601f830112614cbc57600080fd5b81356020614cd1614ccc83614c87565b614c56565b82815260059290921b84018101918181019086841115614cf057600080fd5b8286015b84811015614d1957803560038110614d0c5760008081fd5b8352918301918301614cf4565b509695505050505050565b60008060408385031215614d3757600080fd5b823567ffffffffffffffff80821115614d4f57600080fd5b818501915085601f830112614d6357600080fd5b81356020614d73614ccc83614c87565b82815260059290921b84018101918181019089841115614d9257600080fd5b948201945b83861015614db9578535614daa81614a16565b82529482019490820190614d97565b96505086013592505080821115614dcf57600080fd5b50614ddc85828601614cab565b9150509250929050565b600060208284031215614df857600080fd5b5035919050565b634e487b7160e01b600052602160045260246000fd5b60038110614e3357634e487b7160e01b600052602160045260246000fd5b9052565b6020810161192b8284614e15565b600060c08284031215614e5757600080fd5b60405160c0810181811067ffffffffffffffff82111715614e7a57614e7a614c40565b6040529050808235614e8b81614b0f565b81526020830135614e9b81614b0f565b60208201526040830135614eae81614b0f565b60408201526060830135614ec181614b0f565b60608201526080830135614ed481614b0f565b608082015260a0830135614ee781614b0f565b60a0919091015292915050565b60008060e08385031215614f0757600080fd5b8235614f1281614a16565b91506139188460208501614e45565b600060208284031215614f3357600080fd5b81356148ac81614b0f565b600060c08284031215614f5057600080fd5b6119288383614e45565b600080600060608486031215614f6f57600080fd5b8335614f7a81614a16565b92506020840135614a5b81614b0f565b600060e08201905060018060a01b03841682528251151560208301526020830151151560408301526040830151151560608301526060830151151560808301526080830151151560a083015260a0830151151560c08301529392505050565b60008083601f840112614ffb57600080fd5b50813567ffffffffffffffff81111561501357600080fd5b6020830191508360208260051b850101111561502e57600080fd5b9250929050565b6000806000806000806080878903121561504e57600080fd5b863561505981614a16565b9550602087013561506981614a16565b9450604087013567ffffffffffffffff8082111561508657600080fd5b6150928a838b01614fe9565b909650945060608901359150808211156150ab57600080fd5b506150b889828a01614fe9565b979a9699509497509295939492505050565b600080600080606085870312156150e057600080fd5b84356150eb81614a16565b935060208501356150fb81614a16565b9250604085013567ffffffffffffffff81111561511757600080fd5b61512387828801614fe9565b95989497509550505050565b6000806040838503121561514257600080fd5b823561514d81614a16565b946020939093013593505050565b634e487b7160e01b600052601160045260246000fd5b60008083128015600160ff1b85018412161561518f5761518f61515b565b6001600160ff1b03840183138116156151aa576151aa61515b565b50500390565b60008160001904831182151516156151ca576151ca61515b565b500290565b6020808252818101527f4f776e61626c653a2063616c6c6572206973206e6f7420746865206f776e6572604082015260600190565b60208082526012908201527124b73b30b634b2103634b8bab4b230ba37b960711b604082015260600190565b6001600160a01b039290921682521515602082015260400190565b60006020828403121561525d57600080fd5b5051919050565b60005b8381101561527f578181015183820152602001615267565b83811115610a645750506000910152565b600081518084526152a8816020860160208601615264565b601f01601f19169290920160200192915050565b6001600160a01b038481168252831660208201526060604082018190526000906152e890830184615290565b95945050505050565b6001600160a01b039390931683526020830191909152604082015260600190565b60006000198214156153265761532661515b565b5060010190565b6020808252602b908201527f4f776e61626c653a2063616c6c6572206973206e6f7420746865206f776e657260408201526a206f7220666163746f727960a81b606082015260800190565b60008282101561538a5761538a61515b565b500390565b6001600160a01b0385811682528416602082015260606040820181905281018290526000828460808401376000608084840101526080601f19601f850116830101905095945050505050565b6000816153ea576153ea61515b565b506000190190565b60006020828403121561540457600080fd5b81516148ac81614a16565b600082198211156154225761542261515b565b500190565b634e487b7160e01b600052603260045260246000fd5b6001600160a01b0383168152604081016148ac6020830184614e15565b60008261547757634e487b7160e01b600052601260045260246000fd5b500490565b60006020828403121561548e57600080fd5b81516148ac81614b0f565b6001600160a01b039384168152919092166020820152604081019190915260600190565b6001600160a01b03848116825283166020820152606081016149d56040830184614e15565b6020808252602e908201527f496e697469616c697a61626c653a20636f6e747261637420697320616c72656160408201526d191e481a5b9a5d1a585b1a5e995960921b606082015260800190565b6020808252602b908201527f496e697469616c697a61626c653a20636f6e7472616374206973206e6f74206960408201526a6e697469616c697a696e6760a81b606082015260800190565b634e487b7160e01b600052603160045260246000fd5b600082516155a3818460208701615264565b9190910192915050565b602081526000611928602083018461529056fe007534de14ea9193847e0ffc37f145402749f07b3c792a421470da99278f1359a26469706673582212201f37adb096ae31b9429336a3226644efbb8520e90f664080b6112a77806cb97664736f6c63430008090033496e697469616c697a61626c653a20636f6e747261637420697320616c726561",
  "devdoc": {
    "kind": "dev",
    "methods": {
      "beforeBorrow(address,address,uint256)": {
        "params": {
          "_amount": "loan amount",
          "_user": "borrower",
          "_vault": "address of loan market"
        }
      },
      "beforeDeposit(address,address,uint256)": {
        "params": {
          "_vault": "address of deposit market param  _amount deposit amount"
        }
      },
      "owner()": {
        "details": "Returns the address of the current owner."
      },
      "renounceOwnership()": {
        "details": "Leaves the contract without owner. It will not be possible to call `onlyOwner` functions anymore. Can only be called by the current owner. NOTE: Renouncing ownership will leave the contract without an owner, thereby removing any functionality that is only available to the owner."
      },
      "transferOwnership(address)": {
        "details": "Transfers ownership of the contract to a new account (`newOwner`). Can only be called by the current owner."
      },
      "userPendingValues(address,address,int256,bool)": {
        "params": {
          "_amount": "the amount of deposits or withdrawals",
          "_dp": "discount or premium",
          "_user": "depositors",
          "_vault": "target vault"
        }
      },
      "userTotalPendingValues(address,address,int256,bool)": {
        "params": {
          "_amount": "the amount of deposits or withdrawals",
          "_dp": "discount or premium",
          "_user": "depositors",
          "_vault": "target vault"
        }
      },
      "userTotalValues(address,bool)": {
        "params": {
          "_dp": "discount or premium",
          "_user": "depositors"
        }
      },
      "userValues(address,bool)": {
        "params": {
          "_dp": "discount or premium",
          "_user": "depositors"
        }
      }
    },
    "version": 1
  },
  "userdoc": {
    "kind": "user",
    "methods": {
      "beforeBorrow(address,address,uint256)": {
        "notice": "Risk control check before borrowing"
      },
      "beforeDeposit(address,address,uint256)": {
        "notice": "Risk control check before deposit param _user depositors"
      },
      "isNeedLiquidate(address)": {
        "notice": "determine whether the borrower needs to be liquidated"
      },
      "maxBorrow(address,address)": {
        "notice": "maximum that a user can borrow from a Vault"
      },
      "userPendingValues(address,address,int256,bool)": {
        "notice": "predict total valid vault value after the user operating vault (i.e., Vault of deposit only counts collateral)"
      },
      "userTotalPendingValues(address,address,int256,bool)": {
        "notice": "predict total vault value after the user operating Vault"
      },
      "userTotalValues(address,bool)": {
        "notice": "Get user total Vault value"
      },
      "userValues(address,bool)": {
        "notice": "Get user total valid Vault value (i.e., Vault of deposit only counts collateral)"
      }
    },
    "version": 1
  },
  "storageLayout": {
    "storage": [
      {
        "astId": 188,
        "contract": "contracts/AppController.sol:AppController",
        "label": "_initialized",
        "offset": 0,
        "slot": "0",
        "type": "t_uint8"
      },
      {
        "astId": 191,
        "contract": "contracts/AppController.sol:AppController",
        "label": "_initializing",
        "offset": 1,
        "slot": "0",
        "type": "t_bool"
      },
      {
        "astId": 1640,
        "contract": "contracts/AppController.sol:AppController",
        "label": "__gap",
        "offset": 0,
        "slot": "1",
        "type": "t_array(t_uint256)50_storage"
      },
      {
        "astId": 68,
        "contract": "contracts/AppController.sol:AppController",
        "label": "_owner",
        "offset": 0,
        "slot": "51",
        "type": "t_address"
      },
      {
        "astId": 180,
        "contract": "contracts/AppController.sol:AppController",
        "label": "__gap",
        "offset": 0,
        "slot": "52",
        "type": "t_array(t_uint256)49_storage"
      },
      {
        "astId": 6495,
        "contract": "contracts/AppController.sol:AppController",
        "label": "dyTokens",
        "offset": 0,
        "slot": "101",
        "type": "t_mapping(t_address,t_address)"
      },
      {
        "astId": 6499,
        "contract": "contracts/AppController.sol:AppController",
        "label": "strategies",
        "offset": 0,
        "slot": "102",
        "type": "t_mapping(t_address,t_address)"
      },
      {
        "astId": 6511,
        "contract": "contracts/AppController.sol:AppController",
        "label": "valueConfs",
        "offset": 0,
        "slot": "103",
        "type": "t_mapping(t_address,t_struct(ValueConf)6506_storage)"
      },
      {
        "astId": 6516,
        "contract": "contracts/AppController.sol:AppController",
        "label": "dyTokenVaults",
        "offset": 0,
        "slot": "104",
        "type": "t_mapping(t_address,t_address)"
      },
      {
        "astId": 6521,
        "contract": "contracts/AppController.sol:AppController",
        "label": "userJoinedDepositVaults",
        "offset": 0,
        "slot": "105",
        "type": "t_mapping(t_address,t_struct(AddressSet)5867_storage)"
      },
      {
        "astId": 6526,
        "contract": "contracts/AppController.sol:AppController",
        "label": "userJoinedBorrowVaults",
        "offset": 0,
        "slot": "106",
        "type": "t_mapping(t_address,t_struct(AddressSet)5867_storage)"
      },
      {
        "astId": 6531,
        "contract": "contracts/AppController.sol:AppController",
        "label": "vaultStates",
        "offset": 0,
        "slot": "107",
        "type": "t_mapping(t_address,t_struct(VaultState)17869_storage)"
      },
      {
        "astId": 6533,
        "contract": "contracts/AppController.sol:AppController",
        "label": "liquidateRate",
        "offset": 0,
        "slot": "108",
        "type": "t_uint256"
      },
      {
        "astId": 6535,
        "contract": "contracts/AppController.sol:AppController",
        "label": "collateralRate",
        "offset": 0,
        "slot": "109",
        "type": "t_uint256"
      },
      {
        "astId": 6537,
        "contract": "contracts/AppController.sol:AppController",
        "label": "isOpenLiquidate",
        "offset": 0,
        "slot": "110",
        "type": "t_bool"
      },
      {
        "astId": 6541,
        "contract": "contracts/AppController.sol:AppController",
        "label": "allowedLiquidator",
        "offset": 0,
        "slot": "111",
        "type": "t_mapping(t_address,t_bool)"
      },
      {
        "astId": 6547,
        "contract": "contracts/AppController.sol:AppController",
        "label": "validVaults",
        "offset": 0,
        "slot": "112",
        "type": "t_mapping(t_address,t_enum(ValidVault)18003)"
      },
      {
        "astId": 6555,
        "contract": "contracts/AppController.sol:AppController",
        "label": "validVaultsOfUser",
        "offset": 0,
        "slot": "113",
        "type": "t_mapping(t_address,t_mapping(t_address,t_enum(ValidVault)18003))"
      },
      {
        "astId": 6558,
        "contract": "contracts/AppController.sol:AppController",
        "label": "globalState",
        "offset": 0,
        "slot": "114",
        "type": "t_struct(VaultState)17869_storage"
      },
      {
        "astId": 6560,
        "contract": "contracts/AppController.sol:AppController",
        "label": "vaultFactory",
        "offset": 0,
        "slot": "115",
        "type": "t_address"
      },
      {
        "astId": 6564,
        "contract": "contracts/AppController.sol:AppController",
        "label": "vaultsBorrowQuota",
        "offset": 0,
        "slot": "116",
        "type": "t_mapping(t_address,t_uint256)"
      }
    ],
    "types": {
      "t_address": {
        "encoding": "inplace",
        "label": "address",
        "numberOfBytes": "20"
      },
      "t_array(t_bytes32)dyn_storage": {
        "base": "t_bytes32",
        "encoding": "dynamic_array",
        "label": "bytes32[]",
        "numberOfBytes": "32"
      },
      "t_array(t_uint256)49_storage": {
        "base": "t_uint256",
        "encoding": "inplace",
        "label": "uint256[49]",
        "numberOfBytes": "1568"
      },
      "t_array(t_uint256)50_storage": {
        "base": "t_uint256",
        "encoding": "inplace",
        "label": "uint256[50]",
        "numberOfBytes": "1600"
      },
      "t_bool": {
        "encoding": "inplace",
        "label": "bool",
        "numberOfBytes": "1"
      },
      "t_bytes32": {
        "encoding": "inplace",
        "label": "bytes32",
        "numberOfBytes": "32"
      },
      "t_enum(ValidVault)18003": {
        "encoding": "inplace",
        "label": "enum IController.ValidVault",
        "numberOfBytes": "1"
      },
      "t_mapping(t_address,t_address)": {
        "encoding": "mapping",
        "key": "t_address",
        "label": "mapping(address => address)",
        "numberOfBytes": "32",
        "value": "t_address"
      },
      "t_mapping(t_address,t_bool)": {
        "encoding": "mapping",
        "key": "t_address",
        "label": "mapping(address => bool)",
        "numberOfBytes": "32",
        "value": "t_bool"
      },
      "t_mapping(t_address,t_enum(ValidVault)18003)": {
        "encoding": "mapping",
        "key": "t_address",
        "label": "mapping(address => enum IController.ValidVault)",
        "numberOfBytes": "32",
        "value": "t_enum(ValidVault)18003"
      },
      "t_mapping(t_address,t_mapping(t_address,t_enum(ValidVault)18003))": {
        "encoding": "mapping",
        "key": "t_address",
        "label": "mapping(address => mapping(address => enum IController.ValidVault))",
        "numberOfBytes": "32",
        "value": "t_mapping(t_address,t_enum(ValidVault)18003)"
      },
      "t_mapping(t_address,t_struct(AddressSet)5867_storage)": {
        "encoding": "mapping",
        "key": "t_address",
        "label": "mapping(address => struct EnumerableSet.AddressSet)",
        "numberOfBytes": "32",
        "value": "t_struct(AddressSet)5867_storage"
      },
      "t_mapping(t_address,t_struct(ValueConf)6506_storage)": {
        "encoding": "mapping",
        "key": "t_address",
        "label": "mapping(address => struct AppController.ValueConf)",
        "numberOfBytes": "32",
        "value": "t_struct(ValueConf)6506_storage"
      },
      "t_mapping(t_address,t_struct(VaultState)17869_storage)": {
        "encoding": "mapping",
        "key": "t_address",
        "label": "mapping(address => struct IController.VaultState)",
        "numberOfBytes": "32",
        "value": "t_struct(VaultState)17869_storage"
      },
      "t_mapping(t_address,t_uint256)": {
        "encoding": "mapping",
        "key": "t_address",
        "label": "mapping(address => uint256)",
        "numberOfBytes": "32",
        "value": "t_uint256"
      },
      "t_mapping(t_bytes32,t_uint256)": {
        "encoding": "mapping",
        "key": "t_bytes32",
        "label": "mapping(bytes32 => uint256)",
        "numberOfBytes": "32",
        "value": "t_uint256"
      },
      "t_struct(AddressSet)5867_storage": {
        "encoding": "inplace",
        "label": "struct EnumerableSet.AddressSet",
        "members": [
          {
            "astId": 5866,
            "contract": "contracts/AppController.sol:AppController",
            "label": "_inner",
            "offset": 0,
            "slot": "0",
            "type": "t_struct(Set)5566_storage"
          }
        ],
        "numberOfBytes": "64"
      },
      "t_struct(Set)5566_storage": {
        "encoding": "inplace",
        "label": "struct EnumerableSet.Set",
        "members": [
          {
            "astId": 5561,
            "contract": "contracts/AppController.sol:AppController",
            "label": "_values",
            "offset": 0,
            "slot": "0",
            "type": "t_array(t_bytes32)dyn_storage"
          },
          {
            "astId": 5565,
            "contract": "contracts/AppController.sol:AppController",
            "label": "_indexes",
            "offset": 0,
            "slot": "1",
            "type": "t_mapping(t_bytes32,t_uint256)"
          }
        ],
        "numberOfBytes": "64"
      },
      "t_struct(ValueConf)6506_storage": {
        "encoding": "inplace",
        "label": "struct AppController.ValueConf",
        "members": [
          {
            "astId": 6501,
            "contract": "contracts/AppController.sol:AppController",
            "label": "oracle",
            "offset": 0,
            "slot": "0",
            "type": "t_address"
          },
          {
            "astId": 6503,
            "contract": "contracts/AppController.sol:AppController",
            "label": "dr",
            "offset": 20,
            "slot": "0",
            "type": "t_uint16"
          },
          {
            "astId": 6505,
            "contract": "contracts/AppController.sol:AppController",
            "label": "pr",
            "offset": 22,
            "slot": "0",
            "type": "t_uint16"
          }
        ],
        "numberOfBytes": "32"
      },
      "t_struct(VaultState)17869_storage": {
        "encoding": "inplace",
        "label": "struct IController.VaultState",
        "members": [
          {
            "astId": 17858,
            "contract": "contracts/AppController.sol:AppController",
            "label": "enabled",
            "offset": 0,
            "slot": "0",
            "type": "t_bool"
          },
          {
            "astId": 17860,
            "contract": "contracts/AppController.sol:AppController",
            "label": "enableDeposit",
            "offset": 1,
            "slot": "0",
            "type": "t_bool"
          },
          {
            "astId": 17862,
            "contract": "contracts/AppController.sol:AppController",
            "label": "enableWithdraw",
            "offset": 2,
            "slot": "0",
            "type": "t_bool"
          },
          {
            "astId": 17864,
            "contract": "contracts/AppController.sol:AppController",
            "label": "enableBorrow",
            "offset": 3,
            "slot": "0",
            "type": "t_bool"
          },
          {
            "astId": 17866,
            "contract": "contracts/AppController.sol:AppController",
            "label": "enableRepay",
            "offset": 4,
            "slot": "0",
            "type": "t_bool"
          },
          {
            "astId": 17868,
            "contract": "contracts/AppController.sol:AppController",
            "label": "enableLiquidate",
            "offset": 5,
            "slot": "0",
            "type": "t_bool"
          }
        ],
        "numberOfBytes": "32"
      },
      "t_uint16": {
        "encoding": "inplace",
        "label": "uint16",
        "numberOfBytes": "2"
      },
      "t_uint256": {
        "encoding": "inplace",
        "label": "uint256",
        "numberOfBytes": "32"
      },
      "t_uint8": {
        "encoding": "inplace",
        "label": "uint8",
        "numberOfBytes": "1"
      }
    }
  }
}