{
  "address": "0xF9fF91A06F12d6e788B1fdBbCCA427A0E1FdBec7",
  "abi": [
    {
      "inputs": [],
      "stateMutability": "nonpayable",
      "type": "constructor"
    },
    {
      "anonymous": false,
      "inputs": [
        {
          "indexed": false,
          "internalType": "address",
          "name": "controller",
          "type": "address"
        }
      ],
      "name": "ControllerChanged",
      "type": "event"
    },
    {
      "anonymous": false,
      "inputs": [
        {
          "indexed": true,
          "internalType": "address",
          "name": "supplyer",
          "type": "address"
        },
        {
          "indexed": false,
          "internalType": "uint256",
          "name": "amount",
          "type": "uint256"
        }
      ],
      "name": "Deposit",
      "type": "event"
    },
    {
      "anonymous": false,
      "inputs": [
        {
          "indexed": false,
          "internalType": "address",
          "name": "farm",
          "type": "address"
        }
      ],
      "name": "FarmChanged",
      "type": "event"
    },
    {
      "anonymous": false,
      "inputs": [
        {
          "indexed": false,
          "internalType": "address",
          "name": "feeconf",
          "type": "address"
        }
      ],
      "name": "FeeConfChanged",
      "type": "event"
    },
    {
      "anonymous": false,
      "inputs": [
        {
          "indexed": false,
          "internalType": "uint8",
          "name": "version",
          "type": "uint8"
        }
      ],
      "name": "Initialized",
      "type": "event"
    },
    {
      "anonymous": false,
      "inputs": [
        {
          "indexed": true,
          "internalType": "address",
          "name": "liquidator",
          "type": "address"
        },
        {
          "indexed": true,
          "internalType": "address",
          "name": "borrower",
          "type": "address"
        },
        {
          "indexed": false,
          "internalType": "uint256",
          "name": "supplies",
          "type": "uint256"
        }
      ],
      "name": "Liquidated",
      "type": "event"
    },
    {
      "anonymous": false,
      "inputs": [
        {
          "indexed": true,
          "internalType": "address",
          "name": "previousOwner",
          "type": "address"
        },
        {
          "indexed": true,
          "internalType": "address",
          "name": "newOwner",
          "type": "address"
        }
      ],
      "name": "OwnershipTransferred",
      "type": "event"
    },
    {
      "anonymous": false,
      "inputs": [
        {
          "indexed": true,
          "internalType": "address",
          "name": "redeemer",
          "type": "address"
        },
        {
          "indexed": false,
          "internalType": "uint256",
          "name": "amount",
          "type": "uint256"
        }
      ],
      "name": "Withdraw",
      "type": "event"
    },
    {
      "inputs": [],
      "name": "controller",
      "outputs": [
        {
          "internalType": "address",
          "name": "",
          "type": "address"
        }
      ],
      "stateMutability": "view",
      "type": "function"
    },
    {
      "inputs": [
        {
          "internalType": "address",
          "name": "dtoken",
          "type": "address"
        },
        {
          "internalType": "uint256",
          "name": "amount",
          "type": "uint256"
        }
      ],
      "name": "deposit",
      "outputs": [],
      "stateMutability": "nonpayable",
      "type": "function"
    },
    {
      "inputs": [
        {
          "internalType": "address",
          "name": "dtoken",
          "type": "address"
        },
        {
          "internalType": "address",
          "name": "to",
          "type": "address"
        },
        {
          "internalType": "uint256",
          "name": "amount",
          "type": "uint256"
        }
      ],
      "name": "depositTo",
      "outputs": [],
      "stateMutability": "nonpayable",
      "type": "function"
    },
    {
      "inputs": [
        {
          "internalType": "address",
          "name": "",
          "type": "address"
        }
      ],
      "name": "deposits",
      "outputs": [
        {
          "internalType": "uint256",
          "name": "",
          "type": "uint256"
        }
      ],
      "stateMutability": "view",
      "type": "function"
    },
    {
      "inputs": [],
      "name": "farm",
      "outputs": [
        {
          "internalType": "contract IVaultFarm",
          "name": "",
          "type": "address"
        }
      ],
      "stateMutability": "view",
      "type": "function"
    },
    {
      "inputs": [],
      "name": "feeConf",
      "outputs": [
        {
          "internalType": "contract IFeeConf",
          "name": "",
          "type": "address"
        }
      ],
      "stateMutability": "view",
      "type": "function"
    },
    {
      "inputs": [
        {
          "internalType": "address",
          "name": "_controller",
          "type": "address"
        },
        {
          "internalType": "address",
          "name": "_feeConf",
          "type": "address"
        },
        {
          "internalType": "address",
          "name": "_underlying",
          "type": "address"
        }
      ],
      "name": "initialize",
      "outputs": [],
      "stateMutability": "nonpayable",
      "type": "function"
    },
    {
      "inputs": [],
      "name": "isDuetVault",
      "outputs": [
        {
          "internalType": "bool",
          "name": "",
          "type": "bool"
        }
      ],
      "stateMutability": "view",
      "type": "function"
    },
    {
      "inputs": [
        {
          "internalType": "address",
          "name": "liquidator",
          "type": "address"
        },
        {
          "internalType": "address",
          "name": "borrower",
          "type": "address"
        },
        {
          "internalType": "bytes",
          "name": "data",
          "type": "bytes"
        }
      ],
      "name": "liquidate",
      "outputs": [],
      "stateMutability": "nonpayable",
      "type": "function"
    },
    {
      "inputs": [],
      "name": "owner",
      "outputs": [
        {
          "internalType": "address",
          "name": "",
          "type": "address"
        }
      ],
      "stateMutability": "view",
      "type": "function"
    },
    {
      "inputs": [],
      "name": "pair",
      "outputs": [
        {
          "internalType": "address",
          "name": "",
          "type": "address"
        }
      ],
      "stateMutability": "view",
      "type": "function"
    },
    {
      "inputs": [
        {
          "internalType": "address",
          "name": "user",
          "type": "address"
        },
        {
          "internalType": "int256",
          "name": "amount",
          "type": "int256"
        }
      ],
      "name": "pendingValue",
      "outputs": [
        {
          "internalType": "uint256",
          "name": "",
          "type": "uint256"
        }
      ],
      "stateMutability": "view",
      "type": "function"
    },
    {
      "inputs": [],
      "name": "renounceOwnership",
      "outputs": [],
      "stateMutability": "nonpayable",
      "type": "function"
    },
    {
      "inputs": [
        {
          "internalType": "address",
          "name": "_controller",
          "type": "address"
        }
      ],
      "name": "setAppController",
      "outputs": [],
      "stateMutability": "nonpayable",
      "type": "function"
    },
    {
      "inputs": [
        {
          "internalType": "address",
          "name": "_feeConf",
          "type": "address"
        }
      ],
      "name": "setFeeConf",
      "outputs": [],
      "stateMutability": "nonpayable",
      "type": "function"
    },
    {
      "inputs": [
        {
          "internalType": "address",
          "name": "_farm",
          "type": "address"
        }
      ],
      "name": "setVaultFarm",
      "outputs": [],
      "stateMutability": "nonpayable",
      "type": "function"
    },
    {
      "inputs": [
        {
          "internalType": "address",
          "name": "dtoken",
          "type": "address"
        },
        {
          "internalType": "uint256",
          "name": "amount",
          "type": "uint256"
        },
        {
          "internalType": "address",
          "name": "user",
          "type": "address"
        }
      ],
      "name": "syncDeposit",
      "outputs": [],
      "stateMutability": "nonpayable",
      "type": "function"
    },
    {
      "inputs": [],
      "name": "token0",
      "outputs": [
        {
          "internalType": "address",
          "name": "",
          "type": "address"
        }
      ],
      "stateMutability": "view",
      "type": "function"
    },
    {
      "inputs": [],
      "name": "token1",
      "outputs": [
        {
          "internalType": "address",
          "name": "",
          "type": "address"
        }
      ],
      "stateMutability": "view",
      "type": "function"
    },
    {
      "inputs": [
        {
          "internalType": "address",
          "name": "newOwner",
          "type": "address"
        }
      ],
      "name": "transferOwnership",
      "outputs": [],
      "stateMutability": "nonpayable",
      "type": "function"
    },
    {
      "inputs": [],
      "name": "underlying",
      "outputs": [
        {
          "internalType": "address",
          "name": "",
          "type": "address"
        }
      ],
      "stateMutability": "view",
      "type": "function"
    },
    {
      "inputs": [
        {
          "internalType": "uint256",
          "name": "_amount",
          "type": "uint256"
        },
        {
          "internalType": "bool",
          "name": "dp",
          "type": "bool"
        }
      ],
      "name": "underlyingAmountValue",
      "outputs": [
        {
          "internalType": "uint256",
          "name": "value",
          "type": "uint256"
        }
      ],
      "stateMutability": "view",
      "type": "function"
    },
    {
      "inputs": [
        {
          "internalType": "address",
          "name": "user",
          "type": "address"
        },
        {
          "internalType": "bool",
          "name": "dp",
          "type": "bool"
        }
      ],
      "name": "userValue",
      "outputs": [
        {
          "internalType": "uint256",
          "name": "",
          "type": "uint256"
        }
      ],
      "stateMutability": "view",
      "type": "function"
    },
    {
      "inputs": [
        {
          "internalType": "uint256",
          "name": "amount",
          "type": "uint256"
        },
        {
          "internalType": "bool",
          "name": "unpack",
          "type": "bool"
        }
      ],
      "name": "withdraw",
      "outputs": [],
      "stateMutability": "nonpayable",
      "type": "function"
    },
    {
      "inputs": [
        {
          "internalType": "address",
          "name": "to",
          "type": "address"
        },
        {
          "internalType": "uint256",
          "name": "amount",
          "type": "uint256"
        },
        {
          "internalType": "bool",
          "name": "unpack",
          "type": "bool"
        },
        {
          "internalType": "bytes",
          "name": "data",
          "type": "bytes"
        }
      ],
      "name": "withdrawCall",
      "outputs": [],
      "stateMutability": "nonpayable",
      "type": "function"
    },
    {
      "inputs": [
        {
          "internalType": "address",
          "name": "to",
          "type": "address"
        },
        {
          "internalType": "uint256",
          "name": "amount",
          "type": "uint256"
        },
        {
          "internalType": "bool",
          "name": "unpack",
          "type": "bool"
        }
      ],
      "name": "withdrawTo",
      "outputs": [],
      "stateMutability": "nonpayable",
      "type": "function"
    }
  ],
  "transactionHash": "0x24e16f59ff3dd6453d4ba951cf1fb9ef3a12907779e5a7b2bb8de58f005c3499",
  "args": [],
  "numDeployments": 2,
  "solcInputHash": "59311a7eb745f9de896053573ab57b20",
  "bytecode": "0x60806040523480156200001157600080fd5b50600062000020600162000087565b9050801562000039576000805461ff0019166101001790555b801562000080576000805461ff0019169055604051600181527f7f26b83ff96e1f2b6a682f133852f6798a09c465da95921460cefb38474024989060200160405180910390a15b50620001a8565b60008054610100900460ff161562000120578160ff166001148015620000c05750620000be306200019960201b6200107e1760201c565b155b620001185760405162461bcd60e51b815260206004820152602e6024820152600080516020620029db83398151915260448201526d191e481a5b9a5d1a585b1a5e995960921b60648201526084015b60405180910390fd5b506000919050565b60005460ff8084169116106200017f5760405162461bcd60e51b815260206004820152602e6024820152600080516020620029db83398151915260448201526d191e481a5b9a5d1a585b1a5e995960921b60648201526084016200010f565b506000805460ff191660ff92909216919091179055600190565b6001600160a01b03163b151590565b61282380620001b86000396000f3fe608060405234801561001057600080fd5b506004361061018e5760003560e01c8063877c8cd1116100de578063c0c53b8b11610097578063f213159c11610071578063f213159c14610351578063f2fde38b14610364578063f77c479114610377578063fc7e286d1461038a57600080fd5b8063c0c53b8b14610318578063d21220a71461032b578063eb1cc3ba1461033e57600080fd5b8063877c8cd1146102ac5780638da5cb5b146102bf578063a0d9d1d9146102d0578063a8aa1b31146102e3578063ae318c4d146102f6578063ba58591c1461030957600080fd5b806347e7ef241161014b5780636f307dc3116101255780636f307dc31461026b578063715018a61461027e57806373e2290c1461028657806374eb83c11461029957600080fd5b806347e7ef24146102325780635ac28bf9146102455780636695535c1461025857600080fd5b8063035262b9146101935780630dfe1681146101a85780631a6d413e146101d85780631db44b8e146101eb57806336e9332d1461020c57806338d074361461021f575b600080fd5b6101a66101a136600461214d565b6103aa565b005b609d546101bb906001600160a01b031681565b6040516001600160a01b0390911681526020015b60405180910390f35b6101a66101e63660046121c0565b610457565b6101fe6101f93660046121dd565b610524565b6040519081526020016101cf565b609a546101bb906001600160a01b031681565b6101a661022d3660046121dd565b610979565b6101a661024036600461220d565b610989565b6101fe61025336600461220d565b6109ce565b6101a66102663660046121c0565b610a3e565b6097546101bb906001600160a01b031681565b6101a6610afe565b6101a6610294366004612239565b610b34565b6101a66102a736600461227b565b610b45565b6099546101bb906001600160a01b031681565b6033546001600160a01b03166101bb565b6101a66102de3660046121c0565b610b51565b609c546101bb906001600160a01b031681565b6101fe6103043660046122e0565b610c14565b604051600181526020016101cf565b6101a661032636600461230e565b610c63565b609f546101bb906001600160a01b031681565b6101a661034c36600461234e565b610e8c565b6101a661035f366004612385565b610fa2565b6101a66103723660046121c0565b610fe3565b6098546101bb906001600160a01b031681565b6101fe6103983660046121c0565b609b6020526000908152604090205481565b60006103b786868661108d565b9050811561044f576000846103d7576097546001600160a01b03166103e4565b609c546001600160a01b03165b6040516304dc8c2160e01b81529091506001600160a01b038816906304dc8c219061041b903390859087908a908a906004016123c6565b600060405180830381600087803b15801561043557600080fd5b505af1158015610449573d6000803e3d6000fd5b50505050505b505050505050565b6033546001600160a01b0316331461048a5760405162461bcd60e51b81526004016104819061241a565b60405180910390fd5b6001600160a01b0381166104cf5760405162461bcd60e51b815260206004820152600c60248201526b494e56414c49445f4641524d60a01b6044820152606401610481565b609a80546001600160a01b0319166001600160a01b0383169081179091556040519081527fe8d79c9831b9b25abf1785ab7027993c1cca203c617c418d316776b3c980ec8a906020015b60405180910390a150565b60008261053357506000610973565b609c54604080516318160ddd60e01b815290516000926001600160a01b0316916318160ddd916004808301926020929190829003018186803b15801561057857600080fd5b505afa15801561058c573d6000803e3d6000fd5b505050506040513d601f19601f820116820180604052508101906105b0919061244f565b9050600080609c60009054906101000a90046001600160a01b03166001600160a01b0316630902f1ac6040518163ffffffff1660e01b815260040160606040518083038186803b15801561060357600080fd5b505afa158015610617573d6000803e3d6000fd5b505050506040513d601f19601f8201168201806040525081019061063b919061247f565b506001600160701b039182169350169050600061066a8461066461065f85876124da565b6113d1565b9061154f565b60975460405163f755b39d60e01b8152600481018a90529192506000916001600160a01b039091169063f755b39d9060240160206040518083038186803b1580156106b457600080fd5b505afa1580156106c8573d6000803e3d6000fd5b505050506040513d601f19601f820116820180604052508101906106ec919061244f565b609854609d54609f54604051633dcecc2f60e01b81526001600160a01b0392831660048201529082166024820152929350600092839283928392911690633dcecc2f9060440160c06040518083038186803b15801561074a57600080fd5b505afa15801561075e573d6000803e3d6000fd5b505050506040513d601f19601f82011682018060405250810190610782919061250b565b50609d546040516341976e0960e01b81526001600160a01b03918216600482015295995061ffff94851698509196509092169350600092918716916341976e09915060240160206040518083038186803b1580156107df57600080fd5b505afa1580156107f3573d6000803e3d6000fd5b505050506040513d601f19601f82011682018060405250810190610817919061244f565b609f546040516341976e0960e01b81526001600160a01b039182166004820152919250600091908516906341976e099060240160206040518083038186803b15801561086257600080fd5b505afa158015610876573d6000803e3d6000fd5b505050506040513d601f19601f8201168201806040525081019061089a919061244f565b90506000600160381b6108ac836113d1565b600160381b6108ba866113d1565b6108c58d60026124da565b6108cf91906124da565b6108d99190612583565b6108e391906124da565b6108ed9190612583565b90508d1561094657670de0b6b3a7640000612710600261090d878a6125a5565b6109178c866124da565b61092191906124da565b61092b9190612583565b6109359190612583565b61093f9190612583565b9c50610966565b670de0b6b3a764000061095989836124da565b6109639190612583565b9c505b5050505050505050505050505b92915050565b61098433838361108d565b505050565b6097546001600160a01b038381169116146109b65760405162461bcd60e51b8152600401610481906125bd565b6109c0338261156a565b6109ca3382611582565b5050565b6000808212610a0d576001600160a01b0383166000908152609b6020526040902054610a06906109ff9084906125a5565b6001610524565b9050610973565b610a06610a1b8360006125e4565b6001600160a01b0385166000908152609b60205260409020546109ff9190612623565b6033546001600160a01b03163314610a685760405162461bcd60e51b81526004016104819061241a565b6001600160a01b038116610ab05760405162461bcd60e51b815260206004820152600f60248201526e24a72b20a624a22fa322a2a1a7a72360891b6044820152606401610481565b609980546001600160a01b0319166001600160a01b0383169081179091556040519081527f2f848457f88c295370f87d543957f8cfe46e0759b3a528ae233eb79885a2949d90602001610519565b6033546001600160a01b03163314610b285760405162461bcd60e51b81526004016104819061241a565b610b326000611825565b565b610b3f83838361108d565b50505050565b610b3f84848484611877565b6033546001600160a01b03163314610b7b5760405162461bcd60e51b81526004016104819061241a565b6001600160a01b038116610bc65760405162461bcd60e51b815260206004820152601260248201527124a72b20a624a22fa1a7a72a2927a62622a960711b6044820152606401610481565b609880546001600160a01b0319166001600160a01b0383169081179091556040519081527f027c3e080ed9215f564a9455a666f7e459b3edc0bb6e02a1bf842fde4d0ccfc190602001610519565b6001600160a01b0382166000908152609b6020526040812054610c3957506000610973565b6001600160a01b0383166000908152609b6020526040902054610c5c9083610524565b9392505050565b6000610c6f6001611b8b565b90508015610c87576000805461ff0019166101001790555b610c92848484611c18565b816001600160a01b0316636f307dc36040518163ffffffff1660e01b815260040160206040518083038186803b158015610ccb57600080fd5b505afa158015610cdf573d6000803e3d6000fd5b505050506040513d601f19601f82011682018060405250810190610d03919061263a565b609c80546001600160a01b0319166001600160a01b0392909216918217905560408051630dfe168160e01b81529051630dfe168191600480820192602092909190829003018186803b158015610d5857600080fd5b505afa158015610d6c573d6000803e3d6000fd5b505050506040513d601f19601f82011682018060405250810190610d90919061263a565b609d80546001600160a01b0319166001600160a01b03928316179055609c546040805163d21220a760e01b81529051919092169163d21220a7916004808301926020929190829003018186803b158015610de957600080fd5b505afa158015610dfd573d6000803e3d6000fd5b505050506040513d601f19601f82011682018060405250810190610e21919061263a565b609f80546001600160a01b0319166001600160a01b03929092169190911790558015610b3f576000805461ff0019169055604051600181527f7f26b83ff96e1f2b6a682f133852f6798a09c465da95921460cefb38474024989060200160405180910390a150505050565b60985460405163083d576560e41b81526001600160a01b03858116600483015260009216906383d576509060240160206040518083038186803b158015610ed257600080fd5b505afa158015610ee6573d6000803e3d6000fd5b505050506040513d601f19601f82011682018060405250810190610f0a919061263a565b6097549091506001600160a01b031633148015610f3457506097546001600160a01b038581169116145b610f505760405162461bcd60e51b8152600401610481906125bd565b6001600160a01b0381163014610f985760405162461bcd60e51b815260206004820152600d60248201526c0ac82aa98a8beaa9c9a82a8869609b1b6044820152606401610481565b610b3f8284611582565b6097546001600160a01b03848116911614610fcf5760405162461bcd60e51b8152600401610481906125bd565b610fd9338261156a565b6109848282611582565b6033546001600160a01b0316331461100d5760405162461bcd60e51b81526004016104819061241a565b6001600160a01b0381166110725760405162461bcd60e51b815260206004820152602660248201527f4f776e61626c653a206e6577206f776e657220697320746865207a65726f206160448201526564647265737360d01b6064820152608401610481565b61107b81611825565b50565b6001600160a01b03163b151590565b6000600260655414156110b25760405162461bcd60e51b815260040161048190612657565b6002606555336000818152609b602052604090205484111561110d5760405162461bcd60e51b8152602060048201526014602482015273125394d551919250d251539517d1115413d4d25560621b6044820152606401610481565b60985460405163015304d160e21b81526001600160a01b038381166004830152306024830152604482018790529091169063054c13449060640160006040518083038186803b15801561115f57600080fd5b505afa158015611173573d6000803e3d6000fd5b505050506001600160a01b0381166000908152609b60205260408120805486929061119f908490612623565b90915550506040518481526001600160a01b038216907f884edad9ce6fa2440d8a54cc123490eb96d2768479d49ff9c7366125a94243649060200160405180910390a26111eb81611c5f565b609a546001600160a01b03161561126d57609a5460975460405163a66bd52160e01b81526001600160a01b03848116600483015260248201889052918216604482015291169063a66bd52190606401600060405180830381600087803b15801561125457600080fd5b505af1158015611268573d6000803e3d6000fd5b505050505b609954604051636dd5b69d60e01b81526b77697468647261775f66656560a01b600482015260009182916001600160a01b0390911690636dd5b69d90602401604080518083038186803b1580156112c357600080fd5b505afa1580156112d7573d6000803e3d6000fd5b505050506040513d601f19601f820116820180604052508101906112fb919061268e565b8795509092509050801561133e57600061271061131883896124da565b6113229190612583565b905061132e8188612623565b945061133c83826000611d1e565b505b84156113b65760975460405163ead5d35960e01b81526001600160a01b03898116600483015260248201879052600160448301529091169063ead5d35990606401600060405180830381600087803b15801561139957600080fd5b505af11580156113ad573d6000803e3d6000fd5b505050506113c2565b6113c287856000611d1e565b50506001606555509392505050565b6000816113e057506000919050565b816001600160801b82106113f95760809190911c9060401b5b6801000000000000000082106114145760409190911c9060201b5b640100000000821061142b5760209190911c9060101b5b6201000082106114405760109190911c9060081b5b61010082106114545760089190911c9060041b5b601082106114675760049190911c9060021b5b600882106114735760011b5b600161147f8286612583565b61148990836125a5565b901c905060016114998286612583565b6114a390836125a5565b901c905060016114b38286612583565b6114bd90836125a5565b901c905060016114cd8286612583565b6114d790836125a5565b901c905060016114e78286612583565b6114f190836125a5565b901c905060016115018286612583565b61150b90836125a5565b901c9050600161151b8286612583565b61152590836125a5565b901c905060006115358286612583565b90508082106115445780611546565b815b95945050505050565b60008161156084600160701b6124da565b610c5c9190612583565b6097546109ca906001600160a01b0316833084611d94565b600260655414156115a55760405162461bcd60e51b815260040161048190612657565b6002606555806115ea5760405162461bcd60e51b815260206004820152601060248201526f4445504f534954455f49535f5a45524f60801b6044820152606401610481565b6098546040516309ba9b4760e01b81526001600160a01b03848116600483015230602483015260448201849052909116906309ba9b479060640160006040518083038186803b15801561163c57600080fd5b505afa158015611650573d6000803e3d6000fd5b5050609954604051636dd5b69d60e01b81526a6465706f7369745f66656560a81b6004820152600093508392506001600160a01b0390911690636dd5b69d90602401604080518083038186803b1580156116a957600080fd5b505afa1580156116bd573d6000803e3d6000fd5b505050506040513d601f19601f820116820180604052508101906116e1919061268e565b90925090508281156117225760006127106116fc84876124da565b6117069190612583565b90506117128186612623565b915061172084826000611d1e565b505b6001600160a01b0385166000908152609b60205260408120805483929061174a9084906125a5565b90915550506040518181526001600160a01b038616907fe1fffcc4923d04b559f4d29a8bfc6cda04eb5b0d3c460751c2402c5c5cc9109c9060200160405180910390a261179685611c5f565b609a546001600160a01b03161561181957609a5460975460405163758e61dd60e11b81526001600160a01b03888116600483015260248201859052918216604482015291169063eb1cc3ba906064015b600060405180830381600087803b15801561180057600080fd5b505af1158015611814573d6000803e3d6000fd5b505050505b50506001606555505050565b603380546001600160a01b038381166001600160a01b0319831681179093556040519116919082907f8be0079c531659141344cd1fd0a4f28419497f9722a3daafe3b4186f6b6457e090600090a35050565b6002606554141561189a5760405162461bcd60e51b815260040161048190612657565b60026065556098546001600160a01b031633146118f95760405162461bcd60e51b815260206004820152601860248201527f4c49515549444154455f494e56414c49445f43414c4c455200000000000000006044820152606401610481565b826001600160a01b0316846001600160a01b0316141561195b5760405162461bcd60e51b815260206004820152601a60248201527f4c49515549444154455f44495341424c455f594f555253454c460000000000006044820152606401610481565b6001600160a01b0383166000908152609b60205260409020548015611ada57609954604051636dd5b69d60e01b8152666c69715f66656560c81b6004820152829160009182916001600160a01b031690636dd5b69d90602401604080518083038186803b1580156119cb57600080fd5b505afa1580156119df573d6000803e3d6000fd5b505050506040513d601f19601f82011682018060405250810190611a03919061268e565b91509150600081118015611a1f57506001600160a01b03821615155b15611a59576000612710611a3383876124da565b611a3d9190612583565b9050611a498185612623565b9350611a5783826001611d1e565b505b611a6588846001611d1e565b8415611ad657609754604051631d20dce760e01b81526001600160a01b03808b1692631d20dce792611aa3928c92169088908c908c906004016123c6565b600060405180830381600087803b158015611abd57600080fd5b505af1158015611ad1573d6000803e3d6000fd5b505050505b5050505b6001600160a01b038085166000818152609b6020526040808220919091555190918716907fde0aa27286f5cb3a4ed853dc4823ead62d63e92cdf13de09d6aece56970721a490611b2d9085815260200190565b60405180910390a3611b3e84611c5f565b609a546001600160a01b03161561181957609a546097546040516322211d1160e21b81526001600160a01b03878116600483015291821660248201529116906388847444906044016117e6565b60008054610100900460ff1615611bd2578160ff166001148015611bae5750303b155b611bca5760405162461bcd60e51b8152600401610481906126bc565b506000919050565b60005460ff808416911610611bf95760405162461bcd60e51b8152600401610481906126bc565b506000805460ff191660ff92909216919091179055600190565b919050565b611c20611dff565b609880546001600160a01b039485166001600160a01b031991821617909155609980549385169382169390931790925560978054919093169116179055565b6001600160a01b0381166000908152609b602052604090205460019015611ce45760985460405163c4c0048760e01b81526001600160a01b03848116600483015283151560248301529091169063c4c00487906044015b600060405180830381600087803b158015611cd057600080fd5b505af115801561044f573d6000803e3d6000fd5b6098546040516379bf27b160e01b81526001600160a01b0384811660048301528315156024830152909116906379bf27b190604401611cb6565b6001600160a01b038316301415611d3457505050565b6001600160a01b038316611d7d5760405162461bcd60e51b815260206004820152601060248201526f7265636569707420697320656d70747960801b6044820152606401610481565b609754610984906001600160a01b03168484611e2e565b6040516001600160a01b0380851660248301528316604482015260648101829052610b3f9085906323b872dd60e01b906084015b60408051601f198184030181529190526020810180516001600160e01b03166001600160e01b031990931692909217909152611e5e565b600054610100900460ff16611e265760405162461bcd60e51b81526004016104819061270a565b610b32611f30565b6040516001600160a01b03831660248201526044810182905261098490849063a9059cbb60e01b90606401611dc8565b6000611eb3826040518060400160405280602081526020017f5361666545524332303a206c6f772d6c6576656c2063616c6c206661696c6564815250856001600160a01b0316611f609092919063ffffffff16565b8051909150156109845780806020019051810190611ed19190612755565b6109845760405162461bcd60e51b815260206004820152602a60248201527f5361666545524332303a204552433230206f7065726174696f6e20646964206e6044820152691bdd081cdd58d8d9595960b21b6064820152608401610481565b600054610100900460ff16611f575760405162461bcd60e51b81526004016104819061270a565b610b3233611825565b6060611f6f8484600085611f77565b949350505050565b606082471015611fd85760405162461bcd60e51b815260206004820152602660248201527f416464726573733a20696e73756666696369656e742062616c616e636520666f6044820152651c8818d85b1b60d21b6064820152608401610481565b6001600160a01b0385163b61202f5760405162461bcd60e51b815260206004820152601d60248201527f416464726573733a2063616c6c20746f206e6f6e2d636f6e74726163740000006044820152606401610481565b600080866001600160a01b0316858760405161204b919061279e565b60006040518083038185875af1925050503d8060008114612088576040519150601f19603f3d011682016040523d82523d6000602084013e61208d565b606091505b509150915061209d8282866120a8565b979650505050505050565b606083156120b7575081610c5c565b8251156120c75782518084602001fd5b8160405162461bcd60e51b815260040161048191906127ba565b6001600160a01b038116811461107b57600080fd5b801515811461107b57600080fd5b60008083601f84011261211657600080fd5b50813567ffffffffffffffff81111561212e57600080fd5b60208301915083602082850101111561214657600080fd5b9250929050565b60008060008060006080868803121561216557600080fd5b8535612170816120e1565b9450602086013593506040860135612187816120f6565b9250606086013567ffffffffffffffff8111156121a357600080fd5b6121af88828901612104565b969995985093965092949392505050565b6000602082840312156121d257600080fd5b8135610c5c816120e1565b600080604083850312156121f057600080fd5b823591506020830135612202816120f6565b809150509250929050565b6000806040838503121561222057600080fd5b823561222b816120e1565b946020939093013593505050565b60008060006060848603121561224e57600080fd5b8335612259816120e1565b9250602084013591506040840135612270816120f6565b809150509250925092565b6000806000806060858703121561229157600080fd5b843561229c816120e1565b935060208501356122ac816120e1565b9250604085013567ffffffffffffffff8111156122c857600080fd5b6122d487828801612104565b95989497509550505050565b600080604083850312156122f357600080fd5b82356122fe816120e1565b91506020830135612202816120f6565b60008060006060848603121561232357600080fd5b833561232e816120e1565b9250602084013561233e816120e1565b91506040840135612270816120e1565b60008060006060848603121561236357600080fd5b833561236e816120e1565b9250602084013591506040840135612270816120e1565b60008060006060848603121561239a57600080fd5b83356123a5816120e1565b925060208401356123b5816120e1565b929592945050506040919091013590565b6001600160a01b038681168252851660208201526040810184905260806060820181905281018290526000828460a0840137600060a0848401015260a0601f19601f85011683010190509695505050505050565b6020808252818101527f4f776e61626c653a2063616c6c6572206973206e6f7420746865206f776e6572604082015260600190565b60006020828403121561246157600080fd5b5051919050565b80516001600160701b0381168114611c1357600080fd5b60008060006060848603121561249457600080fd5b61249d84612468565b92506124ab60208501612468565b9150604084015163ffffffff8116811461227057600080fd5b634e487b7160e01b600052601160045260246000fd5b60008160001904831182151516156124f4576124f46124c4565b500290565b805161ffff81168114611c1357600080fd5b60008060008060008060c0878903121561252457600080fd5b865161252f816120e1565b955061253d602088016124f9565b945061254b604088016124f9565b9350606087015161255b816120e1565b9250612569608088016124f9565b915061257760a088016124f9565b90509295509295509295565b6000826125a057634e487b7160e01b600052601260045260246000fd5b500490565b600082198211156125b8576125b86124c4565b500190565b6020808252600d908201526c0a89e968a9cbeaa9c9a82a8869609b1b604082015260600190565b60008083128015600160ff1b850184121615612602576126026124c4565b6001600160ff1b038401831381161561261d5761261d6124c4565b50500390565b600082821015612635576126356124c4565b500390565b60006020828403121561264c57600080fd5b8151610c5c816120e1565b6020808252601f908201527f5265656e7472616e637947756172643a207265656e7472616e742063616c6c00604082015260600190565b600080604083850312156126a157600080fd5b82516126ac816120e1565b6020939093015192949293505050565b6020808252602e908201527f496e697469616c697a61626c653a20636f6e747261637420697320616c72656160408201526d191e481a5b9a5d1a585b1a5e995960921b606082015260800190565b6020808252602b908201527f496e697469616c697a61626c653a20636f6e7472616374206973206e6f74206960408201526a6e697469616c697a696e6760a81b606082015260800190565b60006020828403121561276757600080fd5b8151610c5c816120f6565b60005b8381101561278d578181015183820152602001612775565b83811115610b3f5750506000910152565b600082516127b0818460208701612772565b9190910192915050565b60208152600082518060208401526127d9816040850160208701612772565b601f01601f1916919091016040019291505056fea26469706673582212204853692aa7e8e9124d794c2640d0e865940168cee5c9083ca5dc4b4b9e758d6864736f6c63430008090033496e697469616c697a61626c653a20636f6e747261637420697320616c726561",
  "devdoc": {
    "kind": "dev",
    "methods": {
      "owner()": {
        "details": "Returns the address of the current owner."
      },
      "renounceOwnership()": {
        "details": "Leaves the contract without owner. It will not be possible to call `onlyOwner` functions anymore. Can only be called by the current owner. NOTE: Renouncing ownership will leave the contract without an owner, thereby removing any functionality that is only available to the owner."
      },
      "transferOwnership(address)": {
        "details": "Transfers ownership of the contract to a new account (`newOwner`). Can only be called by the current owner."
      },
      "userValue(address,bool)": {
        "params": {
          "dp": "Discount  Premium"
        }
      }
    },
    "version": 1
  },
  "userdoc": {
    "events": {
      "Deposit(address,uint256)": {
        "notice": ""
      },
      "Liquidated(address,address,uint256)": {
        "notice": ""
      },
      "Withdraw(address,uint256)": {
        "notice": ""
      }
    },
    "kind": "user",
    "methods": {
      "userValue(address,bool)": {
        "notice": " Vault "
      }
    },
    "version": 1
  },
  "storageLayout": {
    "storage": [
      {
        "astId": 188,
        "contract": "contracts/vault/LpFarmingVault.sol:LpFarmingVault",
        "label": "_initialized",
        "offset": 0,
        "slot": "0",
        "type": "t_uint8"
      },
      {
        "astId": 191,
        "contract": "contracts/vault/LpFarmingVault.sol:LpFarmingVault",
        "label": "_initializing",
        "offset": 1,
        "slot": "0",
        "type": "t_bool"
      },
      {
        "astId": 1640,
        "contract": "contracts/vault/LpFarmingVault.sol:LpFarmingVault",
        "label": "__gap",
        "offset": 0,
        "slot": "1",
        "type": "t_array(t_uint256)50_storage"
      },
      {
        "astId": 68,
        "contract": "contracts/vault/LpFarmingVault.sol:LpFarmingVault",
        "label": "_owner",
        "offset": 0,
        "slot": "51",
        "type": "t_address"
      },
      {
        "astId": 180,
        "contract": "contracts/vault/LpFarmingVault.sol:LpFarmingVault",
        "label": "__gap",
        "offset": 0,
        "slot": "52",
        "type": "t_array(t_uint256)49_storage"
      },
      {
        "astId": 337,
        "contract": "contracts/vault/LpFarmingVault.sol:LpFarmingVault",
        "label": "_status",
        "offset": 0,
        "slot": "101",
        "type": "t_uint256"
      },
      {
        "astId": 381,
        "contract": "contracts/vault/LpFarmingVault.sol:LpFarmingVault",
        "label": "__gap",
        "offset": 0,
        "slot": "102",
        "type": "t_array(t_uint256)49_storage"
      },
      {
        "astId": 26464,
        "contract": "contracts/vault/LpFarmingVault.sol:LpFarmingVault",
        "label": "underlying",
        "offset": 0,
        "slot": "151",
        "type": "t_address"
      },
      {
        "astId": 26466,
        "contract": "contracts/vault/LpFarmingVault.sol:LpFarmingVault",
        "label": "controller",
        "offset": 0,
        "slot": "152",
        "type": "t_address"
      },
      {
        "astId": 26469,
        "contract": "contracts/vault/LpFarmingVault.sol:LpFarmingVault",
        "label": "feeConf",
        "offset": 0,
        "slot": "153",
        "type": "t_contract(IFeeConf)18388"
      },
      {
        "astId": 26472,
        "contract": "contracts/vault/LpFarmingVault.sol:LpFarmingVault",
        "label": "farm",
        "offset": 0,
        "slot": "154",
        "type": "t_contract(IVaultFarm)19191"
      },
      {
        "astId": 26476,
        "contract": "contracts/vault/LpFarmingVault.sol:LpFarmingVault",
        "label": "deposits",
        "offset": 0,
        "slot": "155",
        "type": "t_mapping(t_address,t_uint256)"
      },
      {
        "astId": 27087,
        "contract": "contracts/vault/LpFarmingVault.sol:LpFarmingVault",
        "label": "pair",
        "offset": 0,
        "slot": "156",
        "type": "t_address"
      },
      {
        "astId": 27089,
        "contract": "contracts/vault/LpFarmingVault.sol:LpFarmingVault",
        "label": "token0",
        "offset": 0,
        "slot": "157",
        "type": "t_address"
      },
      {
        "astId": 27091,
        "contract": "contracts/vault/LpFarmingVault.sol:LpFarmingVault",
        "label": "decimal0Scale",
        "offset": 0,
        "slot": "158",
        "type": "t_uint256"
      },
      {
        "astId": 27093,
        "contract": "contracts/vault/LpFarmingVault.sol:LpFarmingVault",
        "label": "token1",
        "offset": 0,
        "slot": "159",
        "type": "t_address"
      },
      {
        "astId": 27095,
        "contract": "contracts/vault/LpFarmingVault.sol:LpFarmingVault",
        "label": "decimal1Scale",
        "offset": 0,
        "slot": "160",
        "type": "t_uint256"
      }
    ],
    "types": {
      "t_address": {
        "encoding": "inplace",
        "label": "address",
        "numberOfBytes": "20"
      },
      "t_array(t_uint256)49_storage": {
        "base": "t_uint256",
        "encoding": "inplace",
        "label": "uint256[49]",
        "numberOfBytes": "1568"
      },
      "t_array(t_uint256)50_storage": {
        "base": "t_uint256",
        "encoding": "inplace",
        "label": "uint256[50]",
        "numberOfBytes": "1600"
      },
      "t_bool": {
        "encoding": "inplace",
        "label": "bool",
        "numberOfBytes": "1"
      },
      "t_contract(IFeeConf)18388": {
        "encoding": "inplace",
        "label": "contract IFeeConf",
        "numberOfBytes": "20"
      },
      "t_contract(IVaultFarm)19191": {
        "encoding": "inplace",
        "label": "contract IVaultFarm",
        "numberOfBytes": "20"
      },
      "t_mapping(t_address,t_uint256)": {
        "encoding": "mapping",
        "key": "t_address",
        "label": "mapping(address => uint256)",
        "numberOfBytes": "32",
        "value": "t_uint256"
      },
      "t_uint256": {
        "encoding": "inplace",
        "label": "uint256",
        "numberOfBytes": "32"
      },
      "t_uint8": {
        "encoding": "inplace",
        "label": "uint8",
        "numberOfBytes": "1"
      }
    }
  }
}