{
  "address": "0xBc385233177F8b4951e780d1D1a77caF01e69FD0",
  "abi": [
    {
      "inputs": [],
      "stateMutability": "nonpayable",
      "type": "constructor"
    },
    {
      "anonymous": false,
      "inputs": [
        {
          "indexed": true,
          "internalType": "address",
          "name": "user",
          "type": "address"
        },
        {
          "indexed": true,
          "internalType": "address",
          "name": "newAdmin",
          "type": "address"
        }
      ],
      "name": "AdminUpdated",
      "type": "event"
    },
    {
      "anonymous": false,
      "inputs": [
        {
          "indexed": false,
          "internalType": "uint8",
          "name": "version",
          "type": "uint8"
        }
      ],
      "name": "Initialized",
      "type": "event"
    },
    {
      "anonymous": false,
      "inputs": [
        {
          "indexed": true,
          "internalType": "address",
          "name": "vault",
          "type": "address"
        }
      ],
      "name": "VaultCreated",
      "type": "event"
    },
    {
      "inputs": [],
      "name": "admin",
      "outputs": [
        {
          "internalType": "address",
          "name": "",
          "type": "address"
        }
      ],
      "stateMutability": "view",
      "type": "function"
    },
    {
      "inputs": [],
      "name": "controller",
      "outputs": [
        {
          "internalType": "contract IController",
          "name": "",
          "type": "address"
        }
      ],
      "stateMutability": "view",
      "type": "function"
    },
    {
      "inputs": [
        {
          "internalType": "contract IERC20Metadata",
          "name": "underlying_",
          "type": "address"
        },
        {
          "internalType": "contract IUSDOracle",
          "name": "oracle_",
          "type": "address"
        },
        {
          "internalType": "uint16",
          "name": "discount_",
          "type": "uint16"
        },
        {
          "internalType": "uint16",
          "name": "premium_",
          "type": "uint16"
        },
        {
          "internalType": "string",
          "name": "kind_",
          "type": "string"
        }
      ],
      "name": "createDepositVault",
      "outputs": [
        {
          "internalType": "address",
          "name": "vaultAddress",
          "type": "address"
        }
      ],
      "stateMutability": "nonpayable",
      "type": "function"
    },
    {
      "inputs": [],
      "name": "feeConf",
      "outputs": [
        {
          "internalType": "address",
          "name": "",
          "type": "address"
        }
      ],
      "stateMutability": "view",
      "type": "function"
    },
    {
      "inputs": [
        {
          "internalType": "contract IController",
          "name": "controller_",
          "type": "address"
        },
        {
          "internalType": "address",
          "name": "feeConf_",
          "type": "address"
        },
        {
          "internalType": "address",
          "name": "admin_",
          "type": "address"
        },
        {
          "internalType": "address",
          "name": "vaultProxyAdmin_",
          "type": "address"
        }
      ],
      "name": "initialize",
      "outputs": [],
      "stateMutability": "nonpayable",
      "type": "function"
    },
    {
      "inputs": [
        {
          "internalType": "address",
          "name": "newAdmin",
          "type": "address"
        }
      ],
      "name": "setAdmin",
      "outputs": [],
      "stateMutability": "nonpayable",
      "type": "function"
    },
    {
      "inputs": [
        {
          "internalType": "contract IController",
          "name": "controller_",
          "type": "address"
        }
      ],
      "name": "setController",
      "outputs": [],
      "stateMutability": "nonpayable",
      "type": "function"
    },
    {
      "inputs": [
        {
          "internalType": "address",
          "name": "feeConf_",
          "type": "address"
        }
      ],
      "name": "setFeeConf",
      "outputs": [],
      "stateMutability": "nonpayable",
      "type": "function"
    },
    {
      "inputs": [
        {
          "internalType": "string",
          "name": "kind_",
          "type": "string"
        },
        {
          "internalType": "address",
          "name": "impl_",
          "type": "address"
        }
      ],
      "name": "setVaultImplementation",
      "outputs": [],
      "stateMutability": "nonpayable",
      "type": "function"
    },
    {
      "inputs": [
        {
          "internalType": "address",
          "name": "vaultProxyAdmin_",
          "type": "address"
        }
      ],
      "name": "setVaultProxyAdmin",
      "outputs": [],
      "stateMutability": "nonpayable",
      "type": "function"
    },
    {
      "inputs": [
        {
          "internalType": "string",
          "name": "",
          "type": "string"
        }
      ],
      "name": "vaultImplementations",
      "outputs": [
        {
          "internalType": "address",
          "name": "",
          "type": "address"
        }
      ],
      "stateMutability": "view",
      "type": "function"
    },
    {
      "inputs": [
        {
          "internalType": "uint256",
          "name": "",
          "type": "uint256"
        }
      ],
      "name": "vaultKinds",
      "outputs": [
        {
          "internalType": "string",
          "name": "",
          "type": "string"
        }
      ],
      "stateMutability": "view",
      "type": "function"
    },
    {
      "inputs": [],
      "name": "vaultProxyAdmin",
      "outputs": [
        {
          "internalType": "address",
          "name": "",
          "type": "address"
        }
      ],
      "stateMutability": "view",
      "type": "function"
    },
    {
      "inputs": [
        {
          "internalType": "uint256",
          "name": "",
          "type": "uint256"
        }
      ],
      "name": "vaults",
      "outputs": [
        {
          "internalType": "address",
          "name": "",
          "type": "address"
        }
      ],
      "stateMutability": "view",
      "type": "function"
    }
  ],
  "transactionHash": "0x1e7545c75ceed8b2760e2ae70d0f7a83ce310e7f48a45117d44e9c09f1733307",
  "args": [],
  "numDeployments": 2,
  "solcInputHash": "59311a7eb745f9de896053573ab57b20",
  "bytecode": "0x60806040523480156200001157600080fd5b50600062000020600162000087565b9050801562000039576000805461ff0019166101001790555b801562000080576000805461ff0019169055604051600181527f7f26b83ff96e1f2b6a682f133852f6798a09c465da95921460cefb38474024989060200160405180910390a15b50620001a8565b60008054610100900460ff161562000120578160ff166001148015620000c05750620000be306200019960201b62000c451760201c565b155b620001185760405162461bcd60e51b815260206004820152602e60248201526000805160206200583c83398151915260448201526d191e481a5b9a5d1a585b1a5e995960921b60648201526084015b60405180910390fd5b506000919050565b60005460ff8084169116106200017f5760405162461bcd60e51b815260206004820152602e60248201526000805160206200583c83398151915260448201526d191e481a5b9a5d1a585b1a5e995960921b60648201526084016200010f565b506000805460ff191660ff92909216919091179055600190565b6001600160a01b03163b151590565b61568480620001b86000396000f3fe60806040523480156200001157600080fd5b5060043610620000fd5760003560e01c8063b9e08a931162000097578063eafe104d116200006e578063eafe104d1462000210578063f77c47911462000247578063f851a440146200025b578063f8c8765e146200027557600080fd5b8063b9e08a9314620001bc578063c8ac9cb714620001e2578063d6f51d6214620001f957600080fd5b806386a0294b11620000d857806386a0294b1462000166578063877c8cd1146200017a5780638c64ea4a146200018e57806392eefe9b14620001a557600080fd5b80634966193b14620001025780636695535c1462000136578063704b6c02146200014f575b600080fd5b620001196200011336600462000ff9565b6200028c565b6040516001600160a01b0390911681526020015b60405180910390f35b6200014d620001473660046200108f565b6200085e565b005b6200014d620001603660046200108f565b620008b3565b60065462000119906001600160a01b031681565b60025462000119906001600160a01b031681565b620001196200019f366004620010b6565b620008f4565b6200014d620001b63660046200108f565b6200091f565b620001d3620001cd366004620010b6565b62000974565b6040516200012d919062001131565b6200014d620001f33660046200108f565b62000a29565b6200014d6200020a36600462001146565b62000a7e565b620001196200022136600462001218565b80516020818301810180516004825292820191909301209152546001600160a01b031681565b60015462000119906001600160a01b031681565b60005462000119906201000090046001600160a01b031681565b6200014d62000286366004620012a0565b62000b7a565b600080546201000090046001600160a01b03163314620002c95760405162461bcd60e51b8152600401620002c09062001305565b60405180910390fd5b600087886001600160a01b03166395d89b416040518163ffffffff1660e01b815260040160006040518083038186803b1580156200030657600080fd5b505afa1580156200031b573d6000803e3d6000fd5b505050506040513d6000823e601f3d908101601f191682016040526200034591908101906200132b565b6001546040516001600160a01b0390911690620003629062000ec2565b6200037093929190620013ab565b604051809103906000f0801580156200038d573d6000803e3d6000fd5b50600154604051630a48440b60e11b81526001600160a01b038b811660048301528084166024830152929350839290911690631490881690604401600060405180830381600087803b158015620003e357600080fd5b505af1158015620003f8573d6000803e3d6000fd5b5050505060006004868660405162000412929190620013e2565b908152604051908190036020019020546001600160a01b0316905080620004715760405162461bcd60e51b8152602060048201526012602482015271125b9d985b1a59081d985d5b1d081ada5b9960721b6044820152606401620002c0565b6006546060906001600160a01b0316620004ce5760405162461bcd60e51b815260206004820152601960248201527f696e76616c6964207661756c742070726f78792061646d696e000000000000006044820152606401620002c0565b60065460405160009184916001600160a01b03909116908490620004f29062000ed0565b6200050093929190620013f2565b604051809103906000f0801580156200051d573d6000803e3d6000fd5b5060015460025460405163c0c53b8b60e01b81526001600160a01b0392831660048201529082166024820152868216604482015291975087925082919082169063c0c53b8b90606401600060405180830381600087803b1580156200058157600080fd5b505af115801562000596573d6000803e3d6000fd5b5050600180546040516316789ff160e21b81526001600160a01b038a811660048301528c811660248301526044820193909352911692506359e27fc49150606401600060405180830381600087803b158015620005f257600080fd5b505af115801562000607573d6000803e3d6000fd5b50505050620006168762000c54565b60015460405162d37a2960e41b81526001600160a01b038f811660048301528e8116602483015261ffff808f1660448401528d16606483015290911690630d37a29090608401600060405180830381600087803b1580156200067757600080fd5b505af11580156200068c573d6000803e3d6000fd5b5050600180546040805160c08101825283815260208101849052808201849052600060608201819052608082015260a081019390935251636af2482d60e01b81526001600160a01b039091169350636af2482d92506200074a918b91600401600060e08201905060018060a01b03841682528251151560208301526020830151151560408301526040830151151560608301526060830151151560808301526080830151151560a083015260a0830151151560c08301529392505050565b600060405180830381600087803b1580156200076557600080fd5b505af11580156200077a573d6000803e3d6000fd5b505060405163f2fde38b60e01b81523360048201526001600160a01b038416925063f2fde38b9150602401600060405180830381600087803b158015620007c057600080fd5b505af1158015620007d5573d6000803e3d6000fd5b50506003805460018101825560009182527fc2575a0e9e593c00f959f8c92f12db2869c3395a3b0502d05e2516446f71f85b0180546001600160a01b0319166001600160a01b038c169081179091556040519093507f2e49a5810fda2439a23771848b4acec786b0a64d4de3d124ac57fc8739c388759250a25050505050509695505050505050565b6000546201000090046001600160a01b03163314620008915760405162461bcd60e51b8152600401620002c09062001305565b600280546001600160a01b0319166001600160a01b0392909216919091179055565b6000546201000090046001600160a01b03163314620008e65760405162461bcd60e51b8152600401620002c09062001305565b620008f18162000d76565b50565b600381815481106200090557600080fd5b6000918252602090912001546001600160a01b0316905081565b6000546201000090046001600160a01b03163314620009525760405162461bcd60e51b8152600401620002c09062001305565b600180546001600160a01b0319166001600160a01b0392909216919091179055565b600581815481106200098557600080fd5b906000526020600020016000915090508054620009a29062001420565b80601f0160208091040260200160405190810160405280929190818152602001828054620009d09062001420565b801562000a215780601f10620009f55761010080835404028352916020019162000a21565b820191906000526020600020905b81548152906001019060200180831162000a0357829003601f168201915b505050505081565b6000546201000090046001600160a01b0316331462000a5c5760405162461bcd60e51b8152600401620002c09062001305565b600680546001600160a01b0319166001600160a01b0392909216919091179055565b6000546201000090046001600160a01b0316331462000ab15760405162461bcd60e51b8152600401620002c09062001305565b60006001600160a01b03166004848460405162000ad0929190620013e2565b908152604051908190036020019020546001600160a01b0316141562000b31576005805460018101825560009190915262000b2f907f036b6384b5eca791c62761152d0c79bb0604c104a5fb6f4eb0703f3154bb3db001848462000ede565b505b806004848460405162000b46929190620013e2565b90815260405190819003602001902080546001600160a01b03929092166001600160a01b0319909216919091179055505050565b600062000b88600162000e2d565b9050801562000ba1576000805461ff0019166101001790555b600180546001600160a01b038088166001600160a01b031992831617909255600280549287169290911691909117905562000bdc8362000d76565b600680546001600160a01b0319166001600160a01b038416179055801562000c3e576000805461ff0019169055604051600181527f7f26b83ff96e1f2b6a682f133852f6798a09c465da95921460cefb38474024989060200160405180910390a15b5050505050565b6001600160a01b03163b151590565b6040805160018082528183019092526000916020808301908036833701905050905060018160008151811062000c8e5762000c8e6200145d565b6020026020010190600281111562000caa5762000caa62001473565b9081600281111562000cc05762000cc062001473565b90525060408051600180825281830190925260009160208083019080368337019050509050828160008151811062000cfc5762000cfc6200145d565b6001600160a01b0392831660209182029290920101526001546040516346b45be760e01b81529116906346b45be79062000d3d908490869060040162001489565b600060405180830381600087803b15801562000d5857600080fd5b505af115801562000d6d573d6000803e3d6000fd5b50505050505050565b6001600160a01b03811662000dd85760405162461bcd60e51b815260206004820152602160248201527f43616e206e6f74207365742061646d696e20746f207a65726f206164647265736044820152607360f81b6064820152608401620002c0565b6000805462010000600160b01b031916620100006001600160a01b038416908102919091178255604051909133917f101b8081ff3b56bbf45deb824d86a3b0fd38b7e3dd42421105cf8abe9106db0b9190a350565b60008054610100900460ff161562000e79578160ff16600114801562000e525750303b155b62000e715760405162461bcd60e51b8152600401620002c09062001530565b506000919050565b60005460ff80841691161062000ea35760405162461bcd60e51b8152600401620002c09062001530565b506000805460ff191660ff92909216919091179055600190565b919050565b613197806200157f83390190565b610f39806200471683390190565b82805462000eec9062001420565b90600052602060002090601f01602090048101928262000f10576000855562000f5b565b82601f1062000f2b5782800160ff1982351617855562000f5b565b8280016001018555821562000f5b579182015b8281111562000f5b57823582559160200191906001019062000f3e565b5062000f6992915062000f6d565b5090565b5b8082111562000f69576000815560010162000f6e565b6001600160a01b0381168114620008f157600080fd5b803561ffff8116811462000ebd57600080fd5b60008083601f84011262000fc057600080fd5b50813567ffffffffffffffff81111562000fd957600080fd5b60208301915083602082850101111562000ff257600080fd5b9250929050565b60008060008060008060a087890312156200101357600080fd5b8635620010208162000f84565b95506020870135620010328162000f84565b9450620010426040880162000f9a565b9350620010526060880162000f9a565b9250608087013567ffffffffffffffff8111156200106f57600080fd5b6200107d89828a0162000fad565b979a9699509497509295939492505050565b600060208284031215620010a257600080fd5b8135620010af8162000f84565b9392505050565b600060208284031215620010c957600080fd5b5035919050565b60005b83811015620010ed578181015183820152602001620010d3565b83811115620010fd576000848401525b50505050565b600081518084526200111d816020860160208601620010d0565b601f01601f19169290920160200192915050565b602081526000620010af602083018462001103565b6000806000604084860312156200115c57600080fd5b833567ffffffffffffffff8111156200117457600080fd5b620011828682870162000fad565b9094509250506020840135620011988162000f84565b809150509250925092565b634e487b7160e01b600052604160045260246000fd5b604051601f8201601f1916810167ffffffffffffffff81118282101715620011e557620011e5620011a3565b604052919050565b600067ffffffffffffffff8211156200120a576200120a620011a3565b50601f01601f191660200190565b6000602082840312156200122b57600080fd5b813567ffffffffffffffff8111156200124357600080fd5b8201601f810184136200125557600080fd5b80356200126c6200126682620011ed565b620011b9565b8181528560208385010111156200128257600080fd5b81602084016020830137600091810160200191909152949350505050565b60008060008060808587031215620012b757600080fd5b8435620012c48162000f84565b93506020850135620012d68162000f84565b92506040850135620012e88162000f84565b91506060850135620012fa8162000f84565b939692955090935050565b6020808252600c908201526b15539055551213d49256915160a21b604082015260600190565b6000602082840312156200133e57600080fd5b815167ffffffffffffffff8111156200135657600080fd5b8201601f810184136200136857600080fd5b8051620013796200126682620011ed565b8181528560208385010111156200138f57600080fd5b620013a2826020830160208601620010d0565b95945050505050565b600060018060a01b03808616835260606020840152620013cf606084018662001103565b9150808416604084015250949350505050565b8183823760009101908152919050565b6001600160a01b03848116825283166020820152606060408201819052600090620013a29083018462001103565b600181811c908216806200143557607f821691505b602082108114156200145757634e487b7160e01b600052602260045260246000fd5b50919050565b634e487b7160e01b600052603260045260246000fd5b634e487b7160e01b600052602160045260246000fd5b604080825283519082018190526000906020906060840190828701845b82811015620014cd5781516001600160a01b031684529284019290840190600101620014a6565b5050508381038285015284518082528583019183019060005b8181101562001523578351600381106200151057634e487b7160e01b600052602160045260246000fd5b83529284019291840191600101620014e6565b5090979650505050505050565b6020808252602e908201527f496e697469616c697a61626c653a20636f6e747261637420697320616c72656160408201526d191e481a5b9a5d1a585b1a5e995960921b60608201526080019056fe6101606040527f6e71edae12b1b97f4d1f60370fef10105fa2faae0126114a169c64845d6126c9610120523480156200003757600080fd5b5060405162003197380380620031978339810160408190526200005a91620003cb565b82828260405180604001604052806007815260200166222caa37b5b2b760c91b81525080604051806040016040528060018152602001603160f81b81525060405180604001604052806007815260200166222caa37b5b2b760c91b81525085604051602001620000cb9190620004ab565b60408051601f198184030181529190528151620000f0906003906020850190620002bf565b50805162000106906004906020840190620002bf565b5050825160209384012082519284019290922060c083815260e08290524660a0818152604080517f8b73c3c69bb8fe3d512ecc4cf759cc79239f7b179b0ffacaa9a75d522b39400f818a0181905281830198909852606081019590955260808086019390935230858301528051808603909201825293909201909252805194019390932090925261010052506200019f9050336200026d565b6001600160a01b0383166101408190526040805163313ce56760e01b8152905163313ce56791600480820192602092909190829003018186803b158015620001e657600080fd5b505afa158015620001fb573d6000803e3d6000fd5b505050506040513d601f19601f82011682018060405250810190620002219190620004d8565b6006805460ff92909216600160a01b0260ff60a01b19909216919091179055600780546001600160a01b039092166001600160a01b031990921691909117905550620005419350505050565b600680546001600160a01b038381166001600160a01b0319831681179093556040519116919082907f8be0079c531659141344cd1fd0a4f28419497f9722a3daafe3b4186f6b6457e090600090a35050565b828054620002cd9062000504565b90600052602060002090601f016020900481019282620002f157600085556200033c565b82601f106200030c57805160ff19168380011785556200033c565b828001600101855582156200033c579182015b828111156200033c5782518255916020019190600101906200031f565b506200034a9291506200034e565b5090565b5b808211156200034a57600081556001016200034f565b80516001600160a01b03811681146200037d57600080fd5b919050565b634e487b7160e01b600052604160045260246000fd5b60005b83811015620003b55781810151838201526020016200039b565b83811115620003c5576000848401525b50505050565b600080600060608486031215620003e157600080fd5b620003ec8462000365565b60208501519093506001600160401b03808211156200040a57600080fd5b818601915086601f8301126200041f57600080fd5b81518181111562000434576200043462000382565b604051601f8201601f19908116603f011681019083821181831017156200045f576200045f62000382565b816040528281528960208487010111156200047957600080fd5b6200048c83602083016020880162000398565b8096505050505050620004a26040850162000365565b90509250925092565b6244592d60e81b815260008251620004cb81600385016020870162000398565b9190910160030192915050565b600060208284031215620004eb57600080fd5b815160ff81168114620004fd57600080fd5b9392505050565b600181811c908216806200051957607f821691505b602082108114156200053b57634e487b7160e01b600052602260045260246000fd5b50919050565b60805160a05160c05160e051610100516101205161014051612ba7620005f0600039600081816103a30152818161073201528181610eea015281816110700152818161118e01528181611235015281816112cf0152818161136b01528181611412015281816116c70152818161177901528181611890015261193c015260006114e401526000611ebe01526000611f0d01526000611ee801526000611e6c01526000611e950152612ba76000f3fe6080604052600436106101f95760003560e01c80638da5cb5b1161010d578063aa822472116100a0578063dd62ed3e1161006f578063dd62ed3e146105a2578063ead5d359146105e8578063f2fde38b14610608578063f755b39d14610628578063f77c47911461064857600080fd5b8063aa82247214610545578063c6adec5d14610558578063d389800f1461056d578063d505accf1461058257600080fd5b80639bd9bbc6116100dc5780639bd9bbc6146104c55780639f0d5f27146104e5578063a457c2d714610505578063a9059cbb1461052557600080fd5b80638da5cb5b1461045d57806392eefe9b1461047b57806395d89b411461049b57806399530b06146104b057600080fd5b80633af9e669116101905780636f307dc31161015f5780636f307dc31461039157806370a08231146103dd578063715018a6146104135780637ecebe0014610428578063853828b61461044857600080fd5b80633af9e6691461031b57806342966c681461033b5780636a56e0461461035b5780636e553f651461037157600080fd5b806323b872dd116101cc57806323b872dd1461029a578063313ce567146102ba5780633644e515146102e657806339509351146102fb57600080fd5b806306fdde03146101fe578063095ea7b31461022957806318160ddd1461025957806320acd9f314610278575b600080fd5b34801561020a57600080fd5b50610213610668565b60405161022091906126e4565b60405180910390f35b34801561023557600080fd5b5061024961024436600461272c565b6106fa565b6040519015158152602001610220565b34801561026557600080fd5b506002545b604051908152602001610220565b34801561028457600080fd5b50610298610293366004612758565b610710565b005b3480156102a657600080fd5b506102496102b536600461279a565b610add565b3480156102c657600080fd5b50600654600160a01b900460ff1660405160ff9091168152602001610220565b3480156102f257600080fd5b5061026a610b89565b34801561030757600080fd5b5061024961031636600461272c565b610b98565b34801561032757600080fd5b5061026a6103363660046127db565b610bd4565b34801561034757600080fd5b506102986103563660046127f8565b610c38565b34801561036757600080fd5b5061026a6103e881565b34801561037d57600080fd5b5061029861038c366004612811565b610c45565b34801561039d57600080fd5b506103c57f000000000000000000000000000000000000000000000000000000000000000081565b6040516001600160a01b039091168152602001610220565b3480156103e957600080fd5b5061026a6103f83660046127db565b6001600160a01b031660009081526020819052604090205490565b34801561041f57600080fd5b50610298610c54565b34801561043457600080fd5b5061026a6104433660046127db565b610c8a565b34801561045457600080fd5b50610298610ca8565b34801561046957600080fd5b506006546001600160a01b03166103c5565b34801561048757600080fd5b506102986104963660046127db565b610cc4565b3480156104a757600080fd5b50610213610d8d565b3480156104bc57600080fd5b5061026a610d9c565b3480156104d157600080fd5b506102496104e0366004612841565b610dd8565b3480156104f157600080fd5b506102986105003660046127db565b610ecc565b34801561051157600080fd5b5061024961052036600461272c565b610f72565b34801561053157600080fd5b5061024961054036600461272c565b61100b565b6102986105533660046128ca565b611018565b34801561056457600080fd5b5061026a611056565b34801561057957600080fd5b506102986112b7565b34801561058e57600080fd5b5061029861059d3660046128f8565b611490565b3480156105ae57600080fd5b5061026a6105bd3660046128ca565b6001600160a01b03918216600090815260016020908152604080832093909416825291909152205490565b3480156105f457600080fd5b5061029861060336600461297d565b6115f4565b34801561061457600080fd5b506102986106233660046127db565b61196a565b34801561063457600080fd5b5061026a6106433660046127f8565b611a02565b34801561065457600080fd5b506007546103c5906001600160a01b031681565b606060038054610677906129b4565b80601f01602080910402602001604051908101604052809291908181526020018280546106a3906129b4565b80156106f05780601f106106c5576101008083540402835291602001916106f0565b820191906000526020600020905b8154815290600101906020018083116106d357829003601f168201915b5050505050905090565b6000610707338484611a25565b50600192915050565b600061071a611056565b6040516370a0823160e01b81523060048201529091507f0000000000000000000000000000000000000000000000000000000000000000906000906001600160a01b038316906370a082319060240160206040518083038186803b15801561078157600080fd5b505afa158015610795573d6000803e3d6000fd5b505050506040513d601f19601f820116820180604052508101906107b991906129e9565b90506107d06001600160a01b038316333088611b4a565b6040516370a0823160e01b815230600482015260009082906001600160a01b038516906370a082319060240160206040518083038186803b15801561081457600080fd5b505afa158015610828573d6000803e3d6000fd5b505050506040513d601f19601f8201168201806040525081019061084c91906129e9565b6108569190612a18565b90508581101561089e5760405162461bcd60e51b815260206004820152600e60248201526d1a5b1b1959d85b08185b5bdd5b9d60921b60448201526064015b60405180910390fd5b60006108a960025490565b61090a576127108710156108eb5760405162461bcd60e51b81526020600482015260096024820152681d1bdbc81cdb585b1b60ba1b6044820152606401610895565b600754610903906001600160a01b03166103e8611bbb565b508561092b565b8461091460025490565b61091e9089612a2f565b6109289190612a4e565b90505b600081116109685760405162461bcd60e51b815260206004820152600a6024820152695a45524f5f534841524560b01b6044820152606401610895565b6001600160a01b03861615610ac15760075460405163083d576560e41b81523060048201526001600160a01b03909116906383d576509060240160206040518083038186803b1580156109ba57600080fd5b505afa1580156109ce573d6000803e3d6000fd5b505050506040513d601f19601f820116820180604052508101906109f29190612a70565b6001600160a01b0316866001600160a01b031614610a4a5760405162461bcd60e51b81526020600482015260156024820152741b5a5cdb585d18da0819151bdad95b881d985d5b1d605a1b6044820152606401610895565b610a548682611bbb565b60405163758e61dd60e11b8152306004820152602481018290526001600160a01b03898116604483015287169063eb1cc3ba90606401600060405180830381600087803b158015610aa457600080fd5b505af1158015610ab8573d6000803e3d6000fd5b50505050610acb565b610acb8882611bbb565b610ad36112b7565b5050505050505050565b6000610aea848484611c9a565b6001600160a01b038416600090815260016020908152604080832033845290915290205482811015610b6f5760405162461bcd60e51b815260206004820152602860248201527f45524332303a207472616e7366657220616d6f756e74206578636565647320616044820152676c6c6f77616e636560c01b6064820152608401610895565b610b7c8533858403611a25565b60019150505b9392505050565b6000610b93611e68565b905090565b3360008181526001602090815260408083206001600160a01b03871684529091528120549091610707918590610bcf908690612a8d565b611a25565b6001600160a01b03811660009081526020819052604081205415610c30576002546001600160a01b038316600090815260208190526040902054610c16611056565b610c209190612a2f565b610c2a9190612a4e565b92915050565b506000919050565b610c423382611f5b565b50565b610c50338383610710565b5050565b6006546001600160a01b03163314610c7e5760405162461bcd60e51b815260040161089590612aa5565b610c8860006120a6565b565b6001600160a01b038116600090815260056020526040812054610c2a565b33600081815260208190526040902054610c88919060016115f4565b6006546001600160a01b03163314610cee5760405162461bcd60e51b815260040161089590612aa5565b6001600160a01b038116610d395760405162461bcd60e51b815260206004820152601260248201527124a72b20a624a22fa1a7a72a2927a62622a960711b6044820152606401610895565b600780546001600160a01b0319166001600160a01b0383169081179091556040519081527f4ff638452bbf33c012645d18ae6f05515ff5f2d1dfb0cece8cbf018c60903f709060200160405180910390a150565b606060048054610677906129b4565b600080610da860025490565b1115610dd557600254610db9611056565b610dcb90670de0b6b3a7640000612a2f565b610b939190612a4e565b90565b6000610de5338686611c9a565b6001600160a01b0385163b15610ec15760405163d031426360e01b81526000906001600160a01b0387169063d031426390610e2a903390899089908990600401612ada565b602060405180830381600087803b158015610e4457600080fd5b505af1158015610e58573d6000803e3d6000fd5b505050506040513d601f19601f82011682018060405250810190610e7c9190612b22565b905080610ebf5760405162461bcd60e51b8152602060048201526011602482015270139bc81d1bdad95b9cd49958d95a5d9959607a1b6044820152606401610895565b505b506001949350505050565b6040516370a0823160e01b8152336004820181905290610c509082907f00000000000000000000000000000000000000000000000000000000000000006001600160a01b0316906370a082319060240160206040518083038186803b158015610f3457600080fd5b505afa158015610f48573d6000803e3d6000fd5b505050506040513d601f19601f82011682018060405250810190610f6c91906129e9565b84610710565b3360009081526001602090815260408083206001600160a01b038616845290915281205482811015610ff45760405162461bcd60e51b815260206004820152602560248201527f45524332303a2064656372656173656420616c6c6f77616e63652062656c6f77604482015264207a65726f60d81b6064820152608401610895565b6110013385858403611a25565b5060019392505050565b6000610707338484611c9a565b60405162461bcd60e51b81526020600482015260136024820152722227afa727aa2fa222a827a9a4aa2fa1a7a4a760691b6044820152606401610895565b6007546040516339ebf82360e01b81526001600160a01b037f00000000000000000000000000000000000000000000000000000000000000008116600483015260009283929116906339ebf8239060240160206040518083038186803b1580156110bf57600080fd5b505afa1580156110d3573d6000803e3d6000fd5b505050506040513d601f19601f820116820180604052508101906110f79190612a70565b90506001600160a01b0381161561122057806001600160a01b031663722713f76040518163ffffffff1660e01b815260040160206040518083038186803b15801561114157600080fd5b505afa158015611155573d6000803e3d6000fd5b505050506040513d601f19601f8201168201806040525081019061117991906129e9565b6040516370a0823160e01b81523060048201527f00000000000000000000000000000000000000000000000000000000000000006001600160a01b0316906370a082319060240160206040518083038186803b1580156111d857600080fd5b505afa1580156111ec573d6000803e3d6000fd5b505050506040513d601f19601f8201168201806040525081019061121091906129e9565b61121a9190612a8d565b91505090565b6040516370a0823160e01b81523060048201527f00000000000000000000000000000000000000000000000000000000000000006001600160a01b0316906370a082319060240160206040518083038186803b15801561127f57600080fd5b505afa158015611293573d6000803e3d6000fd5b505050506040513d601f19601f8201168201806040525081019061121a91906129e9565b6040516370a0823160e01b81523060048201526000907f00000000000000000000000000000000000000000000000000000000000000006001600160a01b0316906370a082319060240160206040518083038186803b15801561131957600080fd5b505afa15801561132d573d6000803e3d6000fd5b505050506040513d601f19601f8201168201806040525081019061135191906129e9565b6007546040516339ebf82360e01b81526001600160a01b037f000000000000000000000000000000000000000000000000000000000000000081166004830152929350600092909116906339ebf8239060240160206040518083038186803b1580156113bc57600080fd5b505afa1580156113d0573d6000803e3d6000fd5b505050506040513d601f19601f820116820180604052508101906113f49190612a70565b90506001600160a01b03811615610c50576114396001600160a01b037f00000000000000000000000000000000000000000000000000000000000000001682846120f8565b806001600160a01b031663d0e30db06040518163ffffffff1660e01b8152600401600060405180830381600087803b15801561147457600080fd5b505af1158015611488573d6000803e3d6000fd5b505050505050565b834211156114e05760405162461bcd60e51b815260206004820152601d60248201527f45524332305065726d69743a206578706972656420646561646c696e650000006044820152606401610895565b60007f000000000000000000000000000000000000000000000000000000000000000088888861150f8c612128565b6040805160208101969096526001600160a01b0394851690860152929091166060840152608083015260a082015260c0810186905260e001604051602081830303815290604052805190602001209050600061156a82612150565b9050600061157a8287878761219e565b9050896001600160a01b0316816001600160a01b0316146115dd5760405162461bcd60e51b815260206004820152601e60248201527f45524332305065726d69743a20696e76616c6964207369676e617475726500006044820152606401610895565b6115e88a8a8a611a25565b50505050505050505050565b600082116116365760405162461bcd60e51b815260206004820152600f60248201526e0736861726573206e656564203e203608c1b6044820152606401610895565b600061164160025490565b1161167b5760405162461bcd60e51b815260206004820152600a6024820152691b9bc819195c1bdcda5d60b21b6044820152606401610895565b600061168660025490565b8361168f611056565b6116999190612a2f565b6116a39190612a4e565b90506116af3384611f5b565b6040516370a0823160e01b81523060048201526000907f00000000000000000000000000000000000000000000000000000000000000006001600160a01b0316906370a082319060240160206040518083038186803b15801561171157600080fd5b505afa158015611725573d6000803e3d6000fd5b505050506040513d601f19601f8201168201806040525081019061174991906129e9565b90508181101561192f57600061175f8284612a18565b6007546040516339ebf82360e01b81526001600160a01b037f000000000000000000000000000000000000000000000000000000000000000081166004830152929350600092909116906339ebf8239060240160206040518083038186803b1580156117ca57600080fd5b505afa1580156117de573d6000803e3d6000fd5b505050506040513d601f19601f820116820180604052508101906118029190612a70565b90506001600160a01b0381161561186e57604051632e1a7d4d60e01b8152600481018390526001600160a01b03821690632e1a7d4d90602401600060405180830381600087803b15801561185557600080fd5b505af1158015611869573d6000803e3d6000fd5b505050505b6040516370a0823160e01b815230600482015260009084906001600160a01b037f000000000000000000000000000000000000000000000000000000000000000016906370a082319060240160206040518083038186803b1580156118d257600080fd5b505afa1580156118e6573d6000803e3d6000fd5b505050506040513d601f19601f8201168201806040525081019061190a91906129e9565b6119149190612a18565b90508281101561192b576119288185612a8d565b94505b5050505b6119636001600160a01b037f00000000000000000000000000000000000000000000000000000000000000001686846120f8565b5050505050565b6006546001600160a01b031633146119945760405162461bcd60e51b815260040161089590612aa5565b6001600160a01b0381166119f95760405162461bcd60e51b815260206004820152602660248201527f4f776e61626c653a206e6577206f776e657220697320746865207a65726f206160448201526564647265737360d01b6064820152608401610895565b610c42816120a6565b6000611a0d60025490565b611a1957506000919050565b60025482610c16611056565b6001600160a01b038316611a875760405162461bcd60e51b8152602060048201526024808201527f45524332303a20617070726f76652066726f6d20746865207a65726f206164646044820152637265737360e01b6064820152608401610895565b6001600160a01b038216611ae85760405162461bcd60e51b815260206004820152602260248201527f45524332303a20617070726f766520746f20746865207a65726f206164647265604482015261737360f01b6064820152608401610895565b6001600160a01b0383811660008181526001602090815260408083209487168084529482529182902085905590518481527f8c5be1e5ebec7d5bd14f71427d1e84f3dd0314c0f7b2291e5b200ac8c7c3b92591015b60405180910390a3505050565b6040516001600160a01b0380851660248301528316604482015260648101829052611bb59085906323b872dd60e01b906084015b60408051601f198184030181529190526020810180516001600160e01b03166001600160e01b0319909316929092179091526121c6565b50505050565b6001600160a01b038216611c115760405162461bcd60e51b815260206004820152601f60248201527f45524332303a206d696e7420746f20746865207a65726f2061646472657373006044820152606401610895565b8060026000828254611c239190612a8d565b90915550506001600160a01b03821660009081526020819052604081208054839290611c50908490612a8d565b90915550506040518181526001600160a01b038316906000907fddf252ad1be2c89b69c2b068fc378daa952ba7f163c4a11628f55a4df523b3ef9060200160405180910390a35050565b6001600160a01b038316611cfe5760405162461bcd60e51b815260206004820152602560248201527f45524332303a207472616e736665722066726f6d20746865207a65726f206164604482015264647265737360d81b6064820152608401610895565b6001600160a01b038216611d605760405162461bcd60e51b815260206004820152602360248201527f45524332303a207472616e7366657220746f20746865207a65726f206164647260448201526265737360e81b6064820152608401610895565b6001600160a01b03831660009081526020819052604090205481811015611dd85760405162461bcd60e51b815260206004820152602660248201527f45524332303a207472616e7366657220616d6f756e7420657863656564732062604482015265616c616e636560d01b6064820152608401610895565b6001600160a01b03808516600090815260208190526040808220858503905591851681529081208054849290611e0f908490612a8d565b92505081905550826001600160a01b0316846001600160a01b03167fddf252ad1be2c89b69c2b068fc378daa952ba7f163c4a11628f55a4df523b3ef84604051611e5b91815260200190565b60405180910390a3611bb5565b60007f0000000000000000000000000000000000000000000000000000000000000000461415611eb757507f000000000000000000000000000000000000000000000000000000000000000090565b50604080517f00000000000000000000000000000000000000000000000000000000000000006020808301919091527f0000000000000000000000000000000000000000000000000000000000000000828401527f000000000000000000000000000000000000000000000000000000000000000060608301524660808301523060a0808401919091528351808403909101815260c0909201909252805191012090565b6001600160a01b038216611fbb5760405162461bcd60e51b815260206004820152602160248201527f45524332303a206275726e2066726f6d20746865207a65726f206164647265736044820152607360f81b6064820152608401610895565b6001600160a01b0382166000908152602081905260409020548181101561202f5760405162461bcd60e51b815260206004820152602260248201527f45524332303a206275726e20616d6f756e7420657863656564732062616c616e604482015261636560f01b6064820152608401610895565b6001600160a01b038316600090815260208190526040812083830390556002805484929061205e908490612a18565b90915550506040518281526000906001600160a01b038516907fddf252ad1be2c89b69c2b068fc378daa952ba7f163c4a11628f55a4df523b3ef90602001611b3d565b505050565b600680546001600160a01b038381166001600160a01b0319831681179093556040519116919082907f8be0079c531659141344cd1fd0a4f28419497f9722a3daafe3b4186f6b6457e090600090a35050565b6040516001600160a01b0383166024820152604481018290526120a190849063a9059cbb60e01b90606401611b7e565b6001600160a01b03811660009081526005602052604090208054600181018255905b50919050565b6000610c2a61215d611e68565b8360405161190160f01b6020820152602281018390526042810182905260009060620160405160208183030381529060405280519060200120905092915050565b60008060006121af87878787612298565b915091506121bc81612385565b5095945050505050565b600061221b826040518060400160405280602081526020017f5361666545524332303a206c6f772d6c6576656c2063616c6c206661696c6564815250856001600160a01b03166125409092919063ffffffff16565b8051909150156120a157808060200190518101906122399190612b22565b6120a15760405162461bcd60e51b815260206004820152602a60248201527f5361666545524332303a204552433230206f7065726174696f6e20646964206e6044820152691bdd081cdd58d8d9595960b21b6064820152608401610895565b6000807f7fffffffffffffffffffffffffffffff5d576e7357a4501ddfe92f46681b20a08311156122cf575060009050600361237c565b8460ff16601b141580156122e757508460ff16601c14155b156122f8575060009050600461237c565b6040805160008082526020820180845289905260ff881692820192909252606081018690526080810185905260019060a0016020604051602081039080840390855afa15801561234c573d6000803e3d6000fd5b5050604051601f1901519150506001600160a01b0381166123755760006001925092505061237c565b9150600090505b94509492505050565b600081600481111561239957612399612b3f565b14156123a25750565b60018160048111156123b6576123b6612b3f565b14156124045760405162461bcd60e51b815260206004820152601860248201527f45434453413a20696e76616c6964207369676e617475726500000000000000006044820152606401610895565b600281600481111561241857612418612b3f565b14156124665760405162461bcd60e51b815260206004820152601f60248201527f45434453413a20696e76616c6964207369676e6174757265206c656e677468006044820152606401610895565b600381600481111561247a5761247a612b3f565b14156124d35760405162461bcd60e51b815260206004820152602260248201527f45434453413a20696e76616c6964207369676e6174757265202773272076616c604482015261756560f01b6064820152608401610895565b60048160048111156124e7576124e7612b3f565b1415610c425760405162461bcd60e51b815260206004820152602260248201527f45434453413a20696e76616c6964207369676e6174757265202776272076616c604482015261756560f01b6064820152608401610895565b606061254f8484600085612557565b949350505050565b6060824710156125b85760405162461bcd60e51b815260206004820152602660248201527f416464726573733a20696e73756666696369656e742062616c616e636520666f6044820152651c8818d85b1b60d21b6064820152608401610895565b843b6126065760405162461bcd60e51b815260206004820152601d60248201527f416464726573733a2063616c6c20746f206e6f6e2d636f6e74726163740000006044820152606401610895565b600080866001600160a01b031685876040516126229190612b55565b60006040518083038185875af1925050503d806000811461265f576040519150601f19603f3d011682016040523d82523d6000602084013e612664565b606091505b509150915061267482828661267f565b979650505050505050565b6060831561268e575081610b82565b82511561269e5782518084602001fd5b8160405162461bcd60e51b815260040161089591906126e4565b60005b838110156126d35781810151838201526020016126bb565b83811115611bb55750506000910152565b60208152600082518060208401526127038160408501602087016126b8565b601f01601f19169190910160400192915050565b6001600160a01b0381168114610c4257600080fd5b6000806040838503121561273f57600080fd5b823561274a81612717565b946020939093013593505050565b60008060006060848603121561276d57600080fd5b833561277881612717565b925060208401359150604084013561278f81612717565b809150509250925092565b6000806000606084860312156127af57600080fd5b83356127ba81612717565b925060208401356127ca81612717565b929592945050506040919091013590565b6000602082840312156127ed57600080fd5b8135610b8281612717565b60006020828403121561280a57600080fd5b5035919050565b6000806040838503121561282457600080fd5b82359150602083013561283681612717565b809150509250929050565b6000806000806060858703121561285757600080fd5b843561286281612717565b935060208501359250604085013567ffffffffffffffff8082111561288657600080fd5b818701915087601f83011261289a57600080fd5b8135818111156128a957600080fd5b8860208285010111156128bb57600080fd5b95989497505060200194505050565b600080604083850312156128dd57600080fd5b82356128e881612717565b9150602083013561283681612717565b600080600080600080600060e0888a03121561291357600080fd5b873561291e81612717565b9650602088013561292e81612717565b95506040880135945060608801359350608088013560ff8116811461295257600080fd5b9699959850939692959460a0840135945060c09093013592915050565b8015158114610c4257600080fd5b60008060006060848603121561299257600080fd5b833561299d81612717565b925060208401359150604084013561278f8161296f565b600181811c908216806129c857607f821691505b6020821081141561214a57634e487b7160e01b600052602260045260246000fd5b6000602082840312156129fb57600080fd5b5051919050565b634e487b7160e01b600052601160045260246000fd5b600082821015612a2a57612a2a612a02565b500390565b6000816000190483118215151615612a4957612a49612a02565b500290565b600082612a6b57634e487b7160e01b600052601260045260246000fd5b500490565b600060208284031215612a8257600080fd5b8151610b8281612717565b60008219821115612aa057612aa0612a02565b500190565b6020808252818101527f4f776e61626c653a2063616c6c6572206973206e6f7420746865206f776e6572604082015260600190565b6001600160a01b0385168152602081018490526060604082018190528101829052818360808301376000818301608090810191909152601f909201601f191601019392505050565b600060208284031215612b3457600080fd5b8151610b828161296f565b634e487b7160e01b600052602160045260246000fd5b60008251612b678184602087016126b8565b919091019291505056fea2646970667358221220c5bab9db164c4a79f1b4acd0dc545f95c452fe0e4b4cce2216697ce1ac663f5864736f6c63430008090033608060405260405162000f3938038062000f39833981016040819052620000269162000507565b82816200005560017f360894a13ba1a3210667c828492db98dca3e2076cc3735a920a3ca505d382bbd620005e7565b60008051602062000ef2833981519152146200007557620000756200060d565b6200008382826000620000e7565b50620000b3905060017fb53127684a568b3173ae13b9f8a6016e243e63b6e8ee1178d6a717850b5d6104620005e7565b60008051602062000ed283398151915214620000d357620000d36200060d565b620000de8262000124565b50505062000676565b620000f2836200017f565b600082511180620001005750805b156200011f576200011d8383620001c160201b620002601760201c565b505b505050565b7f7e644d79422f17c01e4894b5f4f588d331ebfa28653d42ae832dc59e38c9798f6200014f620001f0565b604080516001600160a01b03928316815291841660208301520160405180910390a16200017c8162000229565b50565b6200018a81620002de565b6040516001600160a01b038216907fbc7cd75a20ee27fd9adebab32041f755214dbc6bffa90cc0225b39da2e5c2d3b90600090a250565b6060620001e9838360405180606001604052806027815260200162000f126027913962000381565b9392505050565b60006200021a60008051602062000ed283398151915260001b6200045e60201b620002081760201c565b546001600160a01b0316919050565b6001600160a01b038116620002945760405162461bcd60e51b815260206004820152602660248201527f455243313936373a206e65772061646d696e20697320746865207a65726f206160448201526564647265737360d01b60648201526084015b60405180910390fd5b80620002bd60008051602062000ed283398151915260001b6200045e60201b620002081760201c565b80546001600160a01b0319166001600160a01b039290921691909117905550565b620002f4816200046160201b6200028c1760201c565b620003585760405162461bcd60e51b815260206004820152602d60248201527f455243313936373a206e657720696d706c656d656e746174696f6e206973206e60448201526c1bdd08184818dbdb9d1c9858dd609a1b60648201526084016200028b565b80620002bd60008051602062000ef283398151915260001b6200045e60201b620002081760201c565b6060833b620003e25760405162461bcd60e51b815260206004820152602660248201527f416464726573733a2064656c65676174652063616c6c20746f206e6f6e2d636f6044820152651b9d1c9858dd60d21b60648201526084016200028b565b600080856001600160a01b031685604051620003ff919062000623565b600060405180830381855af49150503d80600081146200043c576040519150601f19603f3d011682016040523d82523d6000602084013e62000441565b606091505b5090925090506200045482828662000467565b9695505050505050565b90565b3b151590565b6060831562000478575081620001e9565b825115620004895782518084602001fd5b8160405162461bcd60e51b81526004016200028b919062000641565b80516001600160a01b0381168114620004bd57600080fd5b919050565b634e487b7160e01b600052604160045260246000fd5b60005b83811015620004f5578181015183820152602001620004db565b838111156200011d5750506000910152565b6000806000606084860312156200051d57600080fd5b6200052884620004a5565b92506200053860208501620004a5565b60408501519092506001600160401b03808211156200055657600080fd5b818601915086601f8301126200056b57600080fd5b815181811115620005805762000580620004c2565b604051601f8201601f19908116603f01168101908382118183101715620005ab57620005ab620004c2565b81604052828152896020848701011115620005c557600080fd5b620005d8836020830160208801620004d8565b80955050505050509250925092565b6000828210156200060857634e487b7160e01b600052601160045260246000fd5b500390565b634e487b7160e01b600052600160045260246000fd5b6000825162000637818460208701620004d8565b9190910192915050565b602081526000825180602084015262000662816040850160208701620004d8565b601f01601f19169190910160400192915050565b61084c80620006866000396000f3fe60806040526004361061004e5760003560e01c80633659cfe6146100655780634f1ef286146100855780635c60da1b146100985780638f283970146100c9578063f851a440146100e95761005d565b3661005d5761005b6100fe565b005b61005b6100fe565b34801561007157600080fd5b5061005b6100803660046106d6565b610118565b61005b6100933660046106f1565b61015f565b3480156100a457600080fd5b506100ad6101d0565b6040516001600160a01b03909116815260200160405180910390f35b3480156100d557600080fd5b5061005b6100e43660046106d6565b61020b565b3480156100f557600080fd5b506100ad610235565b610106610292565b610116610111610331565b61033b565b565b61012061035f565b6001600160a01b0316336001600160a01b031614156101575761015481604051806020016040528060008152506000610392565b50565b6101546100fe565b61016761035f565b6001600160a01b0316336001600160a01b031614156101c8576101c38383838080601f01602080910402602001604051908101604052809392919081815260200183838082843760009201919091525060019250610392915050565b505050565b6101c36100fe565b60006101da61035f565b6001600160a01b0316336001600160a01b03161415610200576101fb610331565b905090565b6102086100fe565b90565b61021361035f565b6001600160a01b0316336001600160a01b0316141561015757610154816103bd565b600061023f61035f565b6001600160a01b0316336001600160a01b03161415610200576101fb61035f565b606061028583836040518060600160405280602781526020016107f060279139610411565b9392505050565b3b151590565b61029a61035f565b6001600160a01b0316336001600160a01b031614156101165760405162461bcd60e51b815260206004820152604260248201527f5472616e73706172656e745570677261646561626c6550726f78793a2061646d60448201527f696e2063616e6e6f742066616c6c6261636b20746f2070726f78792074617267606482015261195d60f21b608482015260a4015b60405180910390fd5b60006101fb6104e5565b3660008037600080366000845af43d6000803e80801561035a573d6000f35b3d6000fd5b60007fb53127684a568b3173ae13b9f8a6016e243e63b6e8ee1178d6a717850b5d61035b546001600160a01b0316919050565b61039b8361050d565b6000825111806103a85750805b156101c3576103b78383610260565b50505050565b7f7e644d79422f17c01e4894b5f4f588d331ebfa28653d42ae832dc59e38c9798f6103e661035f565b604080516001600160a01b03928316815291841660208301520160405180910390a16101548161054d565b6060833b6104705760405162461bcd60e51b815260206004820152602660248201527f416464726573733a2064656c65676174652063616c6c20746f206e6f6e2d636f6044820152651b9d1c9858dd60d21b6064820152608401610328565b600080856001600160a01b03168560405161048b91906107a0565b600060405180830381855af49150503d80600081146104c6576040519150601f19603f3d011682016040523d82523d6000602084013e6104cb565b606091505b50915091506104db8282866105f6565b9695505050505050565b60007f360894a13ba1a3210667c828492db98dca3e2076cc3735a920a3ca505d382bbc610383565b6105168161062f565b6040516001600160a01b038216907fbc7cd75a20ee27fd9adebab32041f755214dbc6bffa90cc0225b39da2e5c2d3b90600090a250565b6001600160a01b0381166105b25760405162461bcd60e51b815260206004820152602660248201527f455243313936373a206e65772061646d696e20697320746865207a65726f206160448201526564647265737360d01b6064820152608401610328565b807fb53127684a568b3173ae13b9f8a6016e243e63b6e8ee1178d6a717850b5d61035b80546001600160a01b0319166001600160a01b039290921691909117905550565b60608315610605575081610285565b8251156106155782518084602001fd5b8160405162461bcd60e51b815260040161032891906107bc565b803b6106935760405162461bcd60e51b815260206004820152602d60248201527f455243313936373a206e657720696d706c656d656e746174696f6e206973206e60448201526c1bdd08184818dbdb9d1c9858dd609a1b6064820152608401610328565b807f360894a13ba1a3210667c828492db98dca3e2076cc3735a920a3ca505d382bbc6105d5565b80356001600160a01b03811681146106d157600080fd5b919050565b6000602082840312156106e857600080fd5b610285826106ba565b60008060006040848603121561070657600080fd5b61070f846106ba565b9250602084013567ffffffffffffffff8082111561072c57600080fd5b818601915086601f83011261074057600080fd5b81358181111561074f57600080fd5b87602082850101111561076157600080fd5b6020830194508093505050509250925092565b60005b8381101561078f578181015183820152602001610777565b838111156103b75750506000910152565b600082516107b2818460208701610774565b9190910192915050565b60208152600082518060208401526107db816040850160208701610774565b601f01601f1916919091016040019291505056fe416464726573733a206c6f772d6c6576656c2064656c65676174652063616c6c206661696c6564a26469706673582212202816f1410ce4eb11d83d577e87e2cbd4b2195a825ee72784a0ecc44a402d389a64736f6c63430008090033b53127684a568b3173ae13b9f8a6016e243e63b6e8ee1178d6a717850b5d6103360894a13ba1a3210667c828492db98dca3e2076cc3735a920a3ca505d382bbc416464726573733a206c6f772d6c6576656c2064656c65676174652063616c6c206661696c6564a2646970667358221220607ee13a430294465ecc8d7ea68d195ee8d60c4ab6356dd2bf9ae9fa41fbf2fb64736f6c63430008090033496e697469616c697a61626c653a20636f6e747261637420697320616c726561",
  "devdoc": {
    "kind": "dev",
    "methods": {},
    "version": 1
  },
  "userdoc": {
    "kind": "user",
    "methods": {},
    "version": 1
  },
  "storageLayout": {
    "storage": [
      {
        "astId": 188,
        "contract": "contracts/VaultFactory.sol:VaultFactory",
        "label": "_initialized",
        "offset": 0,
        "slot": "0",
        "type": "t_uint8"
      },
      {
        "astId": 191,
        "contract": "contracts/VaultFactory.sol:VaultFactory",
        "label": "_initializing",
        "offset": 1,
        "slot": "0",
        "type": "t_bool"
      },
      {
        "astId": 19707,
        "contract": "contracts/VaultFactory.sol:VaultFactory",
        "label": "admin",
        "offset": 2,
        "slot": "0",
        "type": "t_address"
      },
      {
        "astId": 14596,
        "contract": "contracts/VaultFactory.sol:VaultFactory",
        "label": "controller",
        "offset": 0,
        "slot": "1",
        "type": "t_contract(IController)18073"
      },
      {
        "astId": 14598,
        "contract": "contracts/VaultFactory.sol:VaultFactory",
        "label": "feeConf",
        "offset": 0,
        "slot": "2",
        "type": "t_address"
      },
      {
        "astId": 14601,
        "contract": "contracts/VaultFactory.sol:VaultFactory",
        "label": "vaults",
        "offset": 0,
        "slot": "3",
        "type": "t_array(t_address)dyn_storage"
      },
      {
        "astId": 14605,
        "contract": "contracts/VaultFactory.sol:VaultFactory",
        "label": "vaultImplementations",
        "offset": 0,
        "slot": "4",
        "type": "t_mapping(t_string_memory_ptr,t_address)"
      },
      {
        "astId": 14608,
        "contract": "contracts/VaultFactory.sol:VaultFactory",
        "label": "vaultKinds",
        "offset": 0,
        "slot": "5",
        "type": "t_array(t_string_storage)dyn_storage"
      },
      {
        "astId": 14610,
        "contract": "contracts/VaultFactory.sol:VaultFactory",
        "label": "vaultProxyAdmin",
        "offset": 0,
        "slot": "6",
        "type": "t_address"
      }
    ],
    "types": {
      "t_address": {
        "encoding": "inplace",
        "label": "address",
        "numberOfBytes": "20"
      },
      "t_array(t_address)dyn_storage": {
        "base": "t_address",
        "encoding": "dynamic_array",
        "label": "address[]",
        "numberOfBytes": "32"
      },
      "t_array(t_string_storage)dyn_storage": {
        "base": "t_string_storage",
        "encoding": "dynamic_array",
        "label": "string[]",
        "numberOfBytes": "32"
      },
      "t_bool": {
        "encoding": "inplace",
        "label": "bool",
        "numberOfBytes": "1"
      },
      "t_contract(IController)18073": {
        "encoding": "inplace",
        "label": "contract IController",
        "numberOfBytes": "20"
      },
      "t_mapping(t_string_memory_ptr,t_address)": {
        "encoding": "mapping",
        "key": "t_string_memory_ptr",
        "label": "mapping(string => address)",
        "numberOfBytes": "32",
        "value": "t_address"
      },
      "t_string_memory_ptr": {
        "encoding": "bytes",
        "label": "string",
        "numberOfBytes": "32"
      },
      "t_string_storage": {
        "encoding": "bytes",
        "label": "string",
        "numberOfBytes": "32"
      },
      "t_uint8": {
        "encoding": "inplace",
        "label": "uint8",
        "numberOfBytes": "1"
      }
    }
  }
}