{
  "address": "0xDEe31240CC3601EbCdf707ECF55EC1b8D9b095B4",
  "abi": [
    {
      "inputs": [
        {
          "internalType": "address",
          "name": "token",
          "type": "address"
        }
      ],
      "name": "getPrice",
      "outputs": [
        {
          "internalType": "uint256",
          "name": "",
          "type": "uint256"
        }
      ],
      "stateMutability": "view",
      "type": "function"
    }
  ],
  "transactionHash": "0x2321a11ec47061b20a7a3166646b58a76e99693e36c2dccd18dc139a068052ca",
  "args": [],
  "numDeployments": 1,
  "solcInputHash": "bd640888a598675b6d369327b02f7e3e",
  "bytecode": "0x608060405234801561001057600080fd5b5060b48061001f6000396000f3fe6080604052348015600f57600080fd5b506004361060285760003560e01c806341976e0914602d575b600080fd5b603e60383660046050565b50600090565b60405190815260200160405180910390f35b600060208284031215606157600080fd5b81356001600160a01b0381168114607757600080fd5b939250505056fea2646970667358221220e7bdba9ae03552fb5da8526ccb5a1411ba2fc48f5a88d69ffb08f93c44d3bfbc64736f6c63430008090033",
  "devdoc": {
    "kind": "dev",
    "methods": {},
    "version": 1
  },
  "userdoc": {
    "kind": "user",
    "methods": {},
    "version": 1
  },
  "storageLayout": {
    "storage": [],
    "types": null
  }
}