{
  "address": "0x1A197925BFB0fc07FB6323FD40a9A98485720C6A",
  "abi": [
    {
      "anonymous": false,
      "inputs": [
        {
          "indexed": true,
          "internalType": "address",
          "name": "user",
          "type": "address"
        },
        {
          "indexed": true,
          "internalType": "address",
          "name": "newAdmin",
          "type": "address"
        }
      ],
      "name": "AdminUpdated",
      "type": "event"
    },
    {
      "anonymous": false,
      "inputs": [
        {
          "indexed": false,
          "internalType": "uint8",
          "name": "version",
          "type": "uint8"
        }
      ],
      "name": "Initialized",
      "type": "event"
    },
    {
      "anonymous": false,
      "inputs": [
        {
          "indexed": false,
          "internalType": "address",
          "name": "user",
          "type": "address"
        },
        {
          "indexed": false,
          "internalType": "address",
          "name": "token",
          "type": "address"
        },
        {
          "indexed": false,
          "internalType": "uint256",
          "name": "amount",
          "type": "uint256"
        }
      ],
      "name": "Retrieve",
      "type": "event"
    },
    {
      "inputs": [],
      "name": "admin",
      "outputs": [
        {
          "internalType": "address",
          "name": "",
          "type": "address"
        }
      ],
      "stateMutability": "view",
      "type": "function"
    },
    {
      "inputs": [],
      "name": "endingAt",
      "outputs": [
        {
          "internalType": "uint256",
          "name": "",
          "type": "uint256"
        }
      ],
      "stateMutability": "view",
      "type": "function"
    },
    {
      "inputs": [
        {
          "internalType": "address",
          "name": "admin_",
          "type": "address"
        },
        {
          "internalType": "uint256",
          "name": "endingAt_",
          "type": "uint256"
        }
      ],
      "name": "initialize",
      "outputs": [],
      "stateMutability": "nonpayable",
      "type": "function"
    },
    {
      "inputs": [
        {
          "internalType": "address",
          "name": "",
          "type": "address"
        }
      ],
      "name": "remainTokenMap",
      "outputs": [
        {
          "internalType": "uint256",
          "name": "",
          "type": "uint256"
        }
      ],
      "stateMutability": "view",
      "type": "function"
    },
    {
      "inputs": [
        {
          "internalType": "address[]",
          "name": "tokens",
          "type": "address[]"
        }
      ],
      "name": "retrievables",
      "outputs": [
        {
          "internalType": "uint256[]",
          "name": "",
          "type": "uint256[]"
        }
      ],
      "stateMutability": "view",
      "type": "function"
    },
    {
      "inputs": [
        {
          "internalType": "address[]",
          "name": "tokens",
          "type": "address[]"
        }
      ],
      "name": "retrieveTokens",
      "outputs": [],
      "stateMutability": "nonpayable",
      "type": "function"
    },
    {
      "inputs": [
        {
          "internalType": "address[]",
          "name": "tokens",
          "type": "address[]"
        }
      ],
      "name": "retrieved",
      "outputs": [
        {
          "internalType": "uint256[]",
          "name": "",
          "type": "uint256[]"
        }
      ],
      "stateMutability": "view",
      "type": "function"
    },
    {
      "inputs": [
        {
          "internalType": "address",
          "name": "newAdmin",
          "type": "address"
        }
      ],
      "name": "setAdmin",
      "outputs": [],
      "stateMutability": "nonpayable",
      "type": "function"
    },
    {
      "inputs": [
        {
          "internalType": "uint256",
          "name": "endingAt_",
          "type": "uint256"
        }
      ],
      "name": "setEndingAt",
      "outputs": [],
      "stateMutability": "nonpayable",
      "type": "function"
    },
    {
      "inputs": [
        {
          "components": [
            {
              "internalType": "address",
              "name": "user",
              "type": "address"
            },
            {
              "internalType": "address",
              "name": "token",
              "type": "address"
            },
            {
              "internalType": "uint256",
              "name": "amount",
              "type": "uint256"
            }
          ],
          "internalType": "struct AccidentHandler20220715V3.Record[]",
          "name": "records_",
          "type": "tuple[]"
        }
      ],
      "name": "setRecords",
      "outputs": [],
      "stateMutability": "nonpayable",
      "type": "function"
    },
    {
      "inputs": [
        {
          "internalType": "address",
          "name": "",
          "type": "address"
        },
        {
          "internalType": "address",
          "name": "",
          "type": "address"
        }
      ],
      "name": "userRetrievableTokenMap",
      "outputs": [
        {
          "internalType": "uint256",
          "name": "",
          "type": "uint256"
        }
      ],
      "stateMutability": "view",
      "type": "function"
    },
    {
      "inputs": [
        {
          "internalType": "address",
          "name": "",
          "type": "address"
        },
        {
          "internalType": "address",
          "name": "",
          "type": "address"
        }
      ],
      "name": "userRetrievedTokenMap",
      "outputs": [
        {
          "internalType": "uint256",
          "name": "",
          "type": "uint256"
        }
      ],
      "stateMutability": "view",
      "type": "function"
    }
  ],
  "transactionHash": "0xcda4799d9f61363b81803a028db38ac1095e62be57c6652e6534cc78203d1713",
  "args": [],
  "numDeployments": 1,
  "solcInputHash": "c64de78500c453458ed62a1018d284a7",
  "bytecode": "0x608060405234801561001057600080fd5b506110aa806100206000396000f3fe608060405234801561001057600080fd5b50600436106100b45760003560e01c80639a22d5a6116100715780639a22d5a61461017d578063c23b498814610190578063cd6dc68714610199578063e797e9ef146101ac578063f1a0d18b146101bf578063f851a440146101df57600080fd5b80632d915022146100b957806336463706146100f75780635ab2fd3214610117578063704b6c021461012c57806376de352d1461013f5780637fa3b3da14610152575b600080fd5b6100e46100c7366004610d26565b600260209081526000928352604080842090915290825290205481565b6040519081526020015b60405180910390f35b61010a610105366004610d59565b610210565b6040516100ee9190610dce565b61012a610125366004610e12565b6102f3565b005b61012a61013a366004610e2b565b610381565b61010a61014d366004610d59565b6103bd565b6100e4610160366004610d26565b600160209081526000928352604080842090915290825290205481565b61012a61018b366004610e46565b610498565b6100e460045481565b61012a6101a7366004610ea9565b6105d7565b61012a6101ba366004610d59565b6106ad565b6100e46101cd366004610e2b565b60036020526000908152604090205481565b6000546101f8906201000090046001600160a01b031681565b6040516001600160a01b0390911681526020016100ee565b606060008267ffffffffffffffff81111561022d5761022d610ed3565b604051908082528060200260200182016040528015610256578160200160208202803683370190505b50905060005b838110156102eb573360009081526001602052604081209086868481811061028657610286610ee9565b905060200201602081019061029b9190610e2b565b6001600160a01b03166001600160a01b03168152602001908152602001600020548282815181106102ce576102ce610ee9565b6020908102919091010152806102e381610f15565b91505061025c565b509392505050565b6000546201000090046001600160a01b0316331461032c5760405162461bcd60e51b815260040161032390610f30565b60405180910390fd5b801580159061033a57504281115b61037c5760405162461bcd60e51b8152602060048201526013602482015272496e76616c696420656e64696e672074696d6560681b6044820152606401610323565b600455565b6000546201000090046001600160a01b031633146103b15760405162461bcd60e51b815260040161032390610f30565b6103ba8161093d565b50565b606060008267ffffffffffffffff8111156103da576103da610ed3565b604051908082528060200260200182016040528015610403578160200160208202803683370190505b50905060005b838110156102eb573360009081526002602052604081209086868481811061043357610433610ee9565b90506020020160208101906104489190610e2b565b6001600160a01b03166001600160a01b031681526020019081526020016000205482828151811061047b5761047b610ee9565b60209081029190910101528061049081610f15565b915050610409565b6000546201000090046001600160a01b031633146104c85760405162461bcd60e51b815260040161032390610f30565b60005b818110156105d257368383838181106104e6576104e6610ee9565b606002919091019150506040810135600160006105066020850185610e2b565b6001600160a01b03166001600160a01b03168152602001908152602001600020600083602001602081019061053b9190610e2b565b6001600160a01b03166001600160a01b03168152602001908152602001600020600082825461056a9190610f56565b9091555050604081018035906003906000906105899060208601610e2b565b6001600160a01b03166001600160a01b0316815260200190815260200160002060008282546105b89190610f56565b909155508291506105ca905081610f15565b9150506104cb565b505050565b60006105e360016109f2565b905080156105fb576000805461ff0019166101001790555b6001600160a01b0383166106515760405162461bcd60e51b815260206004820152601f60248201527f43616e2774207365742061646d696e20746f207a65726f2061646472657373006044820152606401610323565b61065a8361093d565b610663826102f3565b80156105d2576000805461ff0019169055604051600181527f7f26b83ff96e1f2b6a682f133852f6798a09c465da95921460cefb38474024989060200160405180910390a1505050565b42600454116106ee5760405162461bcd60e51b815260206004820152600d60248201526c4f7574206f662077696e646f7760981b6044820152606401610323565b60005b818110156105d257600083838381811061070d5761070d610ee9565b90506020020160208101906107229190610e2b565b336000908152600160205260408120919250908186868681811061074857610748610ee9565b905060200201602081019061075d9190610e2b565b6001600160a01b031681526020810191909152604001600020549050801561092857336000908152600160205260408120908686868181106107a1576107a1610ee9565b90506020020160208101906107b69190610e2b565b6001600160a01b03168152602080820192909252604090810160009081208190553381526002909252812082918787878181106107f5576107f5610ee9565b905060200201602081019061080a9190610e2b565b6001600160a01b03166001600160a01b0316815260200190815260200160002060008282546108399190610f56565b909155508190506003600087878781811061085657610856610ee9565b905060200201602081019061086b9190610e2b565b6001600160a01b03166001600160a01b03168152602001908152602001600020600082825461089a9190610f6e565b909155506108b490506001600160a01b0383163383610a7f565b7f8bd0db04d7d748ae70a6a244675345c05f70e540f344927714da92f35b2418ce338686868181106108e8576108e8610ee9565b90506020020160208101906108fd9190610e2b565b604080516001600160a01b039384168152929091166020830152810183905260600160405180910390a15b5050808061093590610f15565b9150506106f1565b6001600160a01b03811661099d5760405162461bcd60e51b815260206004820152602160248201527f43616e206e6f74207365742061646d696e20746f207a65726f206164647265736044820152607360f81b6064820152608401610323565b6000805462010000600160b01b031916620100006001600160a01b038416908102919091178255604051909133917f101b8081ff3b56bbf45deb824d86a3b0fd38b7e3dd42421105cf8abe9106db0b9190a350565b60008054610100900460ff1615610a39578160ff166001148015610a155750303b155b610a315760405162461bcd60e51b815260040161032390610f85565b506000919050565b60005460ff808416911610610a605760405162461bcd60e51b815260040161032390610f85565b506000805460ff191660ff92909216919091179055600190565b919050565b604080516001600160a01b03848116602483015260448083018590528351808403909101815260649092018352602080830180516001600160e01b031663a9059cbb60e01b17905283518085019094528084527f5361666545524332303a206c6f772d6c6576656c2063616c6c206661696c6564908401526105d292869291600091610b0f918516908490610b8c565b8051909150156105d25780806020019051810190610b2d9190610fd3565b6105d25760405162461bcd60e51b815260206004820152602a60248201527f5361666545524332303a204552433230206f7065726174696f6e20646964206e6044820152691bdd081cdd58d8d9595960b21b6064820152608401610323565b6060610b9b8484600085610ba5565b90505b9392505050565b606082471015610c065760405162461bcd60e51b815260206004820152602660248201527f416464726573733a20696e73756666696369656e742062616c616e636520666f6044820152651c8818d85b1b60d21b6064820152608401610323565b6001600160a01b0385163b610c5d5760405162461bcd60e51b815260206004820152601d60248201527f416464726573733a2063616c6c20746f206e6f6e2d636f6e74726163740000006044820152606401610323565b600080866001600160a01b03168587604051610c799190611025565b60006040518083038185875af1925050503d8060008114610cb6576040519150601f19603f3d011682016040523d82523d6000602084013e610cbb565b606091505b5091509150610ccb828286610cd6565b979650505050505050565b60608315610ce5575081610b9e565b825115610cf55782518084602001fd5b8160405162461bcd60e51b81526004016103239190611041565b80356001600160a01b0381168114610a7a57600080fd5b60008060408385031215610d3957600080fd5b610d4283610d0f565b9150610d5060208401610d0f565b90509250929050565b60008060208385031215610d6c57600080fd5b823567ffffffffffffffff80821115610d8457600080fd5b818501915085601f830112610d9857600080fd5b813581811115610da757600080fd5b8660208260051b8501011115610dbc57600080fd5b60209290920196919550909350505050565b6020808252825182820181905260009190848201906040850190845b81811015610e0657835183529284019291840191600101610dea565b50909695505050505050565b600060208284031215610e2457600080fd5b5035919050565b600060208284031215610e3d57600080fd5b610b9e82610d0f565b60008060208385031215610e5957600080fd5b823567ffffffffffffffff80821115610e7157600080fd5b818501915085601f830112610e8557600080fd5b813581811115610e9457600080fd5b866020606083028501011115610dbc57600080fd5b60008060408385031215610ebc57600080fd5b610ec583610d0f565b946020939093013593505050565b634e487b7160e01b600052604160045260246000fd5b634e487b7160e01b600052603260045260246000fd5b634e487b7160e01b600052601160045260246000fd5b6000600019821415610f2957610f29610eff565b5060010190565b6020808252600c908201526b15539055551213d49256915160a21b604082015260600190565b60008219821115610f6957610f69610eff565b500190565b600082821015610f8057610f80610eff565b500390565b6020808252602e908201527f496e697469616c697a61626c653a20636f6e747261637420697320616c72656160408201526d191e481a5b9a5d1a585b1a5e995960921b606082015260800190565b600060208284031215610fe557600080fd5b81518015158114610b9e57600080fd5b60005b83811015611010578181015183820152602001610ff8565b8381111561101f576000848401525b50505050565b60008251611037818460208701610ff5565b9190910192915050565b6020815260008251806020840152611060816040850160208701610ff5565b601f01601f1916919091016040019291505056fea2646970667358221220b63c1f900c9f3a0830eaf226383d62da42e77d9feb8fe0cdd092528162e1e38264736f6c63430008090033",
  "devdoc": {
    "kind": "dev",
    "methods": {},
    "version": 1
  },
  "userdoc": {
    "kind": "user",
    "methods": {},
    "version": 1
  },
  "storageLayout": {
    "storage": [
      {
        "astId": 6,
        "contract": "contracts/AccidentHandler20220715V3.sol:AccidentHandler20220715V3",
        "label": "_initialized",
        "offset": 0,
        "slot": "0",
        "type": "t_uint8"
      },
      {
        "astId": 9,
        "contract": "contracts/AccidentHandler20220715V3.sol:AccidentHandler20220715V3",
        "label": "_initializing",
        "offset": 1,
        "slot": "0",
        "type": "t_bool"
      },
      {
        "astId": 696,
        "contract": "contracts/AccidentHandler20220715V3.sol:AccidentHandler20220715V3",
        "label": "admin",
        "offset": 2,
        "slot": "0",
        "type": "t_address"
      },
      {
        "astId": 768,
        "contract": "contracts/AccidentHandler20220715V3.sol:AccidentHandler20220715V3",
        "label": "userRetrievableTokenMap",
        "offset": 0,
        "slot": "1",
        "type": "t_mapping(t_address,t_mapping(t_address,t_uint256))"
      },
      {
        "astId": 774,
        "contract": "contracts/AccidentHandler20220715V3.sol:AccidentHandler20220715V3",
        "label": "userRetrievedTokenMap",
        "offset": 0,
        "slot": "2",
        "type": "t_mapping(t_address,t_mapping(t_address,t_uint256))"
      },
      {
        "astId": 778,
        "contract": "contracts/AccidentHandler20220715V3.sol:AccidentHandler20220715V3",
        "label": "remainTokenMap",
        "offset": 0,
        "slot": "3",
        "type": "t_mapping(t_address,t_uint256)"
      },
      {
        "astId": 780,
        "contract": "contracts/AccidentHandler20220715V3.sol:AccidentHandler20220715V3",
        "label": "endingAt",
        "offset": 0,
        "slot": "4",
        "type": "t_uint256"
      }
    ],
    "types": {
      "t_address": {
        "encoding": "inplace",
        "label": "address",
        "numberOfBytes": "20"
      },
      "t_bool": {
        "encoding": "inplace",
        "label": "bool",
        "numberOfBytes": "1"
      },
      "t_mapping(t_address,t_mapping(t_address,t_uint256))": {
        "encoding": "mapping",
        "key": "t_address",
        "label": "mapping(address => mapping(address => uint256))",
        "numberOfBytes": "32",
        "value": "t_mapping(t_address,t_uint256)"
      },
      "t_mapping(t_address,t_uint256)": {
        "encoding": "mapping",
        "key": "t_address",
        "label": "mapping(address => uint256)",
        "numberOfBytes": "32",
        "value": "t_uint256"
      },
      "t_uint256": {
        "encoding": "inplace",
        "label": "uint256",
        "numberOfBytes": "32"
      },
      "t_uint8": {
        "encoding": "inplace",
        "label": "uint8",
        "numberOfBytes": "1"
      }
    }
  }
}