{
  "address": "0xE1c4e3a0253574816C99A36fb7636d0200b223B5",
  "abi": [
    {
      "inputs": [],
      "stateMutability": "nonpayable",
      "type": "constructor"
    },
    {
      "anonymous": false,
      "inputs": [
        {
          "indexed": true,
          "internalType": "address",
          "name": "user",
          "type": "address"
        },
        {
          "indexed": true,
          "internalType": "address",
          "name": "newAdmin",
          "type": "address"
        }
      ],
      "name": "AdminUpdated",
      "type": "event"
    },
    {
      "anonymous": false,
      "inputs": [
        {
          "indexed": false,
          "internalType": "address",
          "name": "bondToken",
          "type": "address"
        }
      ],
      "name": "BondCreated",
      "type": "event"
    },
    {
      "anonymous": false,
      "inputs": [
        {
          "indexed": false,
          "internalType": "string",
          "name": "kind",
          "type": "string"
        },
        {
          "indexed": false,
          "internalType": "address",
          "name": "implementation",
          "type": "address"
        },
        {
          "indexed": false,
          "internalType": "address",
          "name": "previousImplementation",
          "type": "address"
        }
      ],
      "name": "BondImplementationUpdated",
      "type": "event"
    },
    {
      "anonymous": false,
      "inputs": [
        {
          "indexed": false,
          "internalType": "address",
          "name": "bondToken",
          "type": "address"
        }
      ],
      "name": "BondRemoved",
      "type": "event"
    },
    {
      "anonymous": false,
      "inputs": [
        {
          "indexed": false,
          "internalType": "uint8",
          "name": "version",
          "type": "uint8"
        }
      ],
      "name": "Initialized",
      "type": "event"
    },
    {
      "anonymous": false,
      "inputs": [
        {
          "indexed": true,
          "internalType": "address",
          "name": "user",
          "type": "address"
        },
        {
          "indexed": true,
          "internalType": "address",
          "name": "newKeeper",
          "type": "address"
        }
      ],
      "name": "KeeperUpdated",
      "type": "event"
    },
    {
      "anonymous": false,
      "inputs": [
        {
          "indexed": true,
          "internalType": "address",
          "name": "bondToken",
          "type": "address"
        },
        {
          "indexed": false,
          "internalType": "uint256",
          "name": "price",
          "type": "uint256"
        },
        {
          "indexed": false,
          "internalType": "uint256",
          "name": "previousPrice",
          "type": "uint256"
        }
      ],
      "name": "PriceUpdated",
      "type": "event"
    },
    {
      "inputs": [],
      "name": "PERCENTAGE_FACTOR",
      "outputs": [
        {
          "internalType": "uint16",
          "name": "",
          "type": "uint16"
        }
      ],
      "stateMutability": "view",
      "type": "function"
    },
    {
      "inputs": [],
      "name": "admin",
      "outputs": [
        {
          "internalType": "address",
          "name": "",
          "type": "address"
        }
      ],
      "stateMutability": "view",
      "type": "function"
    },
    {
      "inputs": [
        {
          "internalType": "string",
          "name": "",
          "type": "string"
        }
      ],
      "name": "bondImplementations",
      "outputs": [
        {
          "internalType": "address",
          "name": "",
          "type": "address"
        }
      ],
      "stateMutability": "view",
      "type": "function"
    },
    {
      "inputs": [
        {
          "internalType": "uint256",
          "name": "",
          "type": "uint256"
        }
      ],
      "name": "bondIsins",
      "outputs": [
        {
          "internalType": "string",
          "name": "",
          "type": "string"
        }
      ],
      "stateMutability": "view",
      "type": "function"
    },
    {
      "inputs": [
        {
          "internalType": "uint256",
          "name": "",
          "type": "uint256"
        }
      ],
      "name": "bondKinds",
      "outputs": [
        {
          "internalType": "string",
          "name": "",
          "type": "string"
        }
      ],
      "stateMutability": "view",
      "type": "function"
    },
    {
      "inputs": [
        {
          "internalType": "address",
          "name": "",
          "type": "address"
        }
      ],
      "name": "bondPrices",
      "outputs": [
        {
          "internalType": "uint256",
          "name": "price",
          "type": "uint256"
        },
        {
          "internalType": "uint256",
          "name": "bid",
          "type": "uint256"
        },
        {
          "internalType": "uint256",
          "name": "ask",
          "type": "uint256"
        },
        {
          "internalType": "uint256",
          "name": "lastUpdated",
          "type": "uint256"
        }
      ],
      "stateMutability": "view",
      "type": "function"
    },
    {
      "inputs": [
        {
          "internalType": "uint256",
          "name": "",
          "type": "uint256"
        }
      ],
      "name": "bondSeries",
      "outputs": [
        {
          "internalType": "string",
          "name": "",
          "type": "string"
        }
      ],
      "stateMutability": "view",
      "type": "function"
    },
    {
      "inputs": [
        {
          "internalType": "string",
          "name": "kind_",
          "type": "string"
        },
        {
          "internalType": "uint256",
          "name": "tradingAmount",
          "type": "uint256"
        }
      ],
      "name": "calculateFee",
      "outputs": [
        {
          "internalType": "uint256",
          "name": "",
          "type": "uint256"
        }
      ],
      "stateMutability": "view",
      "type": "function"
    },
    {
      "inputs": [
        {
          "internalType": "string",
          "name": "kind_",
          "type": "string"
        },
        {
          "internalType": "string",
          "name": "name_",
          "type": "string"
        },
        {
          "internalType": "string",
          "name": "symbol_",
          "type": "string"
        },
        {
          "components": [
            {
              "internalType": "uint256",
              "name": "price",
              "type": "uint256"
            },
            {
              "internalType": "uint256",
              "name": "bid",
              "type": "uint256"
            },
            {
              "internalType": "uint256",
              "name": "ask",
              "type": "uint256"
            },
            {
              "internalType": "uint256",
              "name": "lastUpdated",
              "type": "uint256"
            }
          ],
          "internalType": "struct IBondFactory.BondPrice",
          "name": "initialPrice_",
          "type": "tuple"
        },
        {
          "internalType": "uint256",
          "name": "initialGrant_",
          "type": "uint256"
        },
        {
          "internalType": "string",
          "name": "series_",
          "type": "string"
        },
        {
          "internalType": "contract IERC20Upgradeable",
          "name": "underlyingToken_",
          "type": "address"
        },
        {
          "internalType": "uint256",
          "name": "maturity_",
          "type": "uint256"
        },
        {
          "internalType": "string",
          "name": "isin_",
          "type": "string"
        }
      ],
      "name": "createBond",
      "outputs": [
        {
          "internalType": "address",
          "name": "bondTokenAddress",
          "type": "address"
        }
      ],
      "stateMutability": "nonpayable",
      "type": "function"
    },
    {
      "inputs": [
        {
          "internalType": "contract IBond",
          "name": "bond_",
          "type": "address"
        },
        {
          "internalType": "contract IERC20Upgradeable",
          "name": "token_",
          "type": "address"
        },
        {
          "internalType": "uint256",
          "name": "amount_",
          "type": "uint256"
        }
      ],
      "name": "emergencyWithdraw",
      "outputs": [],
      "stateMutability": "nonpayable",
      "type": "function"
    },
    {
      "inputs": [],
      "name": "getBondIsins",
      "outputs": [
        {
          "internalType": "string[]",
          "name": "",
          "type": "string[]"
        }
      ],
      "stateMutability": "view",
      "type": "function"
    },
    {
      "inputs": [],
      "name": "getBondKinds",
      "outputs": [
        {
          "internalType": "string[]",
          "name": "",
          "type": "string[]"
        }
      ],
      "stateMutability": "view",
      "type": "function"
    },
    {
      "inputs": [],
      "name": "getBondSeries",
      "outputs": [
        {
          "internalType": "string[]",
          "name": "",
          "type": "string[]"
        }
      ],
      "stateMutability": "view",
      "type": "function"
    },
    {
      "inputs": [
        {
          "internalType": "string",
          "name": "kind_",
          "type": "string"
        }
      ],
      "name": "getKindBondLength",
      "outputs": [
        {
          "internalType": "uint256",
          "name": "",
          "type": "uint256"
        }
      ],
      "stateMutability": "view",
      "type": "function"
    },
    {
      "inputs": [
        {
          "internalType": "address",
          "name": "bondToken_",
          "type": "address"
        }
      ],
      "name": "getPrice",
      "outputs": [
        {
          "components": [
            {
              "internalType": "uint256",
              "name": "price",
              "type": "uint256"
            },
            {
              "internalType": "uint256",
              "name": "bid",
              "type": "uint256"
            },
            {
              "internalType": "uint256",
              "name": "ask",
              "type": "uint256"
            },
            {
              "internalType": "uint256",
              "name": "lastUpdated",
              "type": "uint256"
            }
          ],
          "internalType": "struct IBondFactory.BondPrice",
          "name": "",
          "type": "tuple"
        }
      ],
      "stateMutability": "view",
      "type": "function"
    },
    {
      "inputs": [
        {
          "internalType": "string",
          "name": "series_",
          "type": "string"
        }
      ],
      "name": "getSeriesBondLength",
      "outputs": [
        {
          "internalType": "uint256",
          "name": "",
          "type": "uint256"
        }
      ],
      "stateMutability": "view",
      "type": "function"
    },
    {
      "inputs": [
        {
          "internalType": "address",
          "name": "bondToken_",
          "type": "address"
        },
        {
          "internalType": "uint256",
          "name": "amount_",
          "type": "uint256"
        }
      ],
      "name": "grant",
      "outputs": [],
      "stateMutability": "nonpayable",
      "type": "function"
    },
    {
      "inputs": [
        {
          "internalType": "address",
          "name": "admin_",
          "type": "address"
        }
      ],
      "name": "initialize",
      "outputs": [],
      "stateMutability": "nonpayable",
      "type": "function"
    },
    {
      "inputs": [
        {
          "internalType": "string",
          "name": "",
          "type": "string"
        }
      ],
      "name": "isinBondMapping",
      "outputs": [
        {
          "internalType": "address",
          "name": "",
          "type": "address"
        }
      ],
      "stateMutability": "view",
      "type": "function"
    },
    {
      "inputs": [],
      "name": "keeper",
      "outputs": [
        {
          "internalType": "address",
          "name": "",
          "type": "address"
        }
      ],
      "stateMutability": "view",
      "type": "function"
    },
    {
      "inputs": [
        {
          "internalType": "string",
          "name": "",
          "type": "string"
        },
        {
          "internalType": "uint256",
          "name": "",
          "type": "uint256"
        }
      ],
      "name": "kindBondsMapping",
      "outputs": [
        {
          "internalType": "address",
          "name": "",
          "type": "address"
        }
      ],
      "stateMutability": "view",
      "type": "function"
    },
    {
      "inputs": [],
      "name": "priceDecimals",
      "outputs": [
        {
          "internalType": "uint256",
          "name": "",
          "type": "uint256"
        }
      ],
      "stateMutability": "view",
      "type": "function"
    },
    {
      "inputs": [],
      "name": "priceFactor",
      "outputs": [
        {
          "internalType": "uint256",
          "name": "",
          "type": "uint256"
        }
      ],
      "stateMutability": "view",
      "type": "function"
    },
    {
      "inputs": [
        {
          "internalType": "contract IBond",
          "name": "bondToken_",
          "type": "address"
        }
      ],
      "name": "removeBond",
      "outputs": [],
      "stateMutability": "nonpayable",
      "type": "function"
    },
    {
      "inputs": [
        {
          "internalType": "string",
          "name": "",
          "type": "string"
        },
        {
          "internalType": "uint256",
          "name": "",
          "type": "uint256"
        }
      ],
      "name": "seriesBondsMapping",
      "outputs": [
        {
          "internalType": "address",
          "name": "",
          "type": "address"
        }
      ],
      "stateMutability": "view",
      "type": "function"
    },
    {
      "inputs": [
        {
          "internalType": "address",
          "name": "newAdmin",
          "type": "address"
        }
      ],
      "name": "setAdmin",
      "outputs": [],
      "stateMutability": "nonpayable",
      "type": "function"
    },
    {
      "inputs": [
        {
          "internalType": "string",
          "name": "kind_",
          "type": "string"
        },
        {
          "internalType": "address",
          "name": "impl_",
          "type": "address"
        },
        {
          "internalType": "bool",
          "name": "upgradeDeployed_",
          "type": "bool"
        }
      ],
      "name": "setBondImplementation",
      "outputs": [],
      "stateMutability": "nonpayable",
      "type": "function"
    },
    {
      "inputs": [
        {
          "internalType": "address",
          "name": "newKeeper",
          "type": "address"
        }
      ],
      "name": "setKeeper",
      "outputs": [],
      "stateMutability": "nonpayable",
      "type": "function"
    },
    {
      "inputs": [
        {
          "internalType": "address",
          "name": "bondToken_",
          "type": "address"
        },
        {
          "internalType": "uint256",
          "name": "price",
          "type": "uint256"
        },
        {
          "internalType": "uint256",
          "name": "bid",
          "type": "uint256"
        },
        {
          "internalType": "uint256",
          "name": "ask",
          "type": "uint256"
        }
      ],
      "name": "setPrice",
      "outputs": [],
      "stateMutability": "nonpayable",
      "type": "function"
    },
    {
      "inputs": [
        {
          "internalType": "address",
          "name": "bondToken_",
          "type": "address"
        },
        {
          "internalType": "uint256",
          "name": "amount_",
          "type": "uint256"
        }
      ],
      "name": "underlyingOut",
      "outputs": [],
      "stateMutability": "nonpayable",
      "type": "function"
    },
    {
      "inputs": [
        {
          "components": [
            {
              "internalType": "uint256",
              "name": "price",
              "type": "uint256"
            },
            {
              "internalType": "uint256",
              "name": "bid",
              "type": "uint256"
            },
            {
              "internalType": "uint256",
              "name": "ask",
              "type": "uint256"
            },
            {
              "internalType": "uint256",
              "name": "lastUpdated",
              "type": "uint256"
            }
          ],
          "internalType": "struct IBondFactory.BondPrice",
          "name": "price",
          "type": "tuple"
        }
      ],
      "name": "verifyPrice",
      "outputs": [
        {
          "components": [
            {
              "internalType": "uint256",
              "name": "price",
              "type": "uint256"
            },
            {
              "internalType": "uint256",
              "name": "bid",
              "type": "uint256"
            },
            {
              "internalType": "uint256",
              "name": "ask",
              "type": "uint256"
            },
            {
              "internalType": "uint256",
              "name": "lastUpdated",
              "type": "uint256"
            }
          ],
          "internalType": "struct IBondFactory.BondPrice",
          "name": "",
          "type": "tuple"
        }
      ],
      "stateMutability": "view",
      "type": "function"
    }
  ],
  "transactionHash": "0x6fb9d3063786bb74945f22b40c580436c6f75d9d160dbde0183c2eb28f19781f",
  "args": [],
  "numDeployments": 1,
  "solcInputHash": "ed72df09c2872d6f6fb7aa83acb754b4",
  "bytecode": "0x60806040523480156200001157600080fd5b506200001c62000022565b62000152565b6200002e60ff62000031565b50565b60008054610100900460ff1615620000ca578160ff1660011480156200006a575062000068306200014360201b62001d5e1760201c565b155b620000c25760405162461bcd60e51b815260206004820152602e602482015260008051602062003b7183398151915260448201526d191e481a5b9a5d1a585b1a5e995960921b60648201526084015b60405180910390fd5b506000919050565b60005460ff808416911610620001295760405162461bcd60e51b815260206004820152602e602482015260008051602062003b7183398151915260448201526d191e481a5b9a5d1a585b1a5e995960921b6064820152608401620000b9565b506000805460ff191660ff92909216919091179055600190565b6001600160a01b03163b151590565b613a0f80620001626000396000f3fe60806040523480156200001157600080fd5b50600436106200020d5760003560e01c8063a09330c41162000125578063e988b66f11620000af578063f21c5563116200007a578063f21c5563146200053d578063f851a4401462000554578063f920ea54146200056e578063fd5b9092146200058557600080fd5b8063e988b66f14620004c7578063ee01e5e714620004d1578063ef0cef6c14620004ef578063efc51bca146200050657600080fd5b8063dfb2866d11620000f0578063dfb2866d1462000458578063e44c8c1b1462000462578063e63ea4081462000479578063e804c9f6146200049057600080fd5b8063a09330c414620003ca578063aced166114620003d4578063b67afd8814620003e8578063c4d66de8146200044157600080fd5b80636141380211620001a757806373f7e98a116200017257806373f7e98a146200036e578063748747e614620003855780637c33d3d8146200039c57806380a4f74c14620003b357600080fd5b80636141380214620003035780636370920e14620003295780636cdf2f8d1462000340578063704b6c02146200035757600080fd5b806326eb508511620001e857806326eb50851462000258578063381bac33146200028857806341976e09146200029f5780636016338b14620002ea57600080fd5b80630450d53e146200021257806305300b28146200022b5780630f988f701462000241575b600080fd5b620002296200022336600462002106565b6200059c565b005b60085b6040519081526020015b60405180910390f35b620002296200025236600462002144565b620006c3565b6200026f6200026936600462002244565b6200075d565b6040516001600160a01b03909116815260200162000238565b6200022e620002993660046200228d565b620007a5565b620002b6620002b0366004620022ce565b620007cf565b6040516200023891908151815260208083015190820152604080830151908201526060918201519181019190915260800190565b620002f462000858565b60405162000238919062002352565b6200031a62000314366004620023b8565b6200093b565b604051620002389190620023d2565b620002296200033a36600462002144565b620009f0565b6200031a62000351366004620023b8565b62000a51565b6200022962000368366004620022ce565b62000a62565b6200022e6200037f36600462002244565b62000aa3565b6200022962000396366004620022ce565b62000aac565b6200026f620003ad36600462002244565b62000aea565b6200026f620003c43660046200240d565b62000b16565b620002f462000f4d565b6001546200026f906001600160a01b031681565b62000420620003f9366004620022ce565b60096020526000908152604090208054600182015460028301546003909301549192909184565b60408051948552602085019390935291830152606082015260800162000238565b6200022962000452366004620022ce565b62001027565b6200022e620010a4565b620002b6620004733660046200252c565b620010b9565b620002296200048a36600462002596565b62001172565b6200026f620004a13660046200228d565b80516020818301810180516008825292820191909301209152546001600160a01b031681565b620002f462001214565b620004db61271081565b60405161ffff909116815260200162000238565b6200031a62000500366004620023b8565b620012ee565b6200026f620005173660046200228d565b80516020818301810180516002825292820191909301209152546001600160a01b031681565b6200022e6200054e3660046200228d565b620012ff565b6000546200026f906201000090046001600160a01b031681565b620002296200057f366004620025dc565b62001313565b6200022962000596366004620022ce565b6200156b565b6000546201000090046001600160a01b0316331480620005c657506001546001600160a01b031633145b620005ee5760405162461bcd60e51b8152600401620005e5906200267d565b60405180910390fd5b6001600160a01b038416600081815260096020908152604091829020548251878152918201527fb556fac599c3c70efb9ab1fa725ecace6c81cc48d1455f886607def065f3e0c0910160405180910390a2604080516080808201835285825260208083018681528385018681524260608087019182526001600160a01b038c1660009081526009865288902096518088559351600188018190559251600288018190559151600390970187905587519586018852928552928401529382015291820152620006bc90620010b9565b5050505050565b6000546201000090046001600160a01b03163314620006f65760405162461bcd60e51b8152600401620005e5906200267d565b604051633f78aea360e21b8152600481018290523360248201526001600160a01b0383169063fde2ba8c906044015b600060405180830381600087803b1580156200074057600080fd5b505af115801562000755573d6000803e3d6000fd5b505050505050565b815160208184018101805160048252928201918501919091209190528054829081106200078957600080fd5b6000918252602090912001546001600160a01b03169150829050565b6000600382604051620007b99190620026a3565b9081526040519081900360200190205492915050565b620007fb6040518060800160405280600081526020016000815260200160008152602001600081525090565b6001600160a01b03821660009081526009602090815260409182902082516080810184528154815260018201549281019290925260028101549282019290925260039091015460608201526200085181620010b9565b5092915050565b60606005805480602002602001604051908101604052809291908181526020016000905b82821015620009325783829060005260206000200180546200089e90620026c1565b80601f0160208091040260200160405190810160405280929190818152602001828054620008cc90620026c1565b80156200091d5780601f10620008f1576101008083540402835291602001916200091d565b820191906000526020600020905b815481529060010190602001808311620008ff57829003601f168201915b5050505050815260200190600101906200087c565b50505050905090565b600681815481106200094c57600080fd5b9060005260206000200160009150905080546200096990620026c1565b80601f01602080910402602001604051908101604052809291908181526020018280546200099790620026c1565b8015620009e85780601f10620009bc57610100808354040283529160200191620009e8565b820191906000526020600020905b815481529060010190602001808311620009ca57829003601f168201915b505050505081565b6000546201000090046001600160a01b0316331462000a235760405162461bcd60e51b8152600401620005e5906200267d565b60405163160e3f3d60e01b8152600481018290526001600160a01b0383169063160e3f3d9060240162000725565b600781815481106200094c57600080fd5b6000546201000090046001600160a01b0316331462000a955760405162461bcd60e51b8152600401620005e5906200267d565b62000aa08162001d6d565b50565b60005b92915050565b6000546201000090046001600160a01b0316331462000adf5760405162461bcd60e51b8152600401620005e5906200267d565b62000aa08162001e24565b815160208184018101805160038252928201918501919091209190528054829081106200078957600080fd5b600080546201000090046001600160a01b0316331462000b4a5760405162461bcd60e51b8152600401620005e5906200267d565b6000309050600060028c60405162000b639190620026a3565b908152604051908190036020019020546001600160a01b031690508062000bde5760405162461bcd60e51b815260206004820152602860248201527f426f6e64466163746f72793a20496e76616c696420626f6e6420696d706c656d60448201526732b73a30ba34b7b760c11b6064820152608401620005e5565b60006001600160a01b031660088560405162000bfb9190620026a3565b908152604051908190036020019020546001600160a01b03161462000c6f5760405162461bcd60e51b815260206004820152602360248201527f4120626f6e6420666f722074686973206973696e20616c72656164792065786960448201526273747360e81b6064820152608401620005e5565b62000c8462000473368b90038b018b6200252c565b506060600082848360405162000c9a9062001f05565b62000ca893929190620026f8565b604051809103906000f08015801562000cc5573d6000803e3d6000fd5b509050809450846001600160a01b031663df776b2d8e8e8c308d8d8d6040518863ffffffff1660e01b815260040162000d0597969594939291906200272f565b600060405180830381600087803b15801562000d2057600080fd5b505af115801562000d35573d6000803e3d6000fd5b505050508460088760405162000d4c9190620026a3565b90815260405190819003602001812080546001600160a01b03939093166001600160a01b03199093169290921790915560049062000d8c908b90620026a3565b9081526040519081900360200190205462000de85760068054600181018255600091909152895162000de6917ff652222313e28459528d920b65115c16c04f3efc82aaedc97be59f3f377c0d3f019060208c019062001f13565b505b60078054600181018255600091909152865162000e2d917fa66cc928b5edb82af9bd49922954155ab7b0942694bea4ce44661d9a8736c6880190602089019062001f13565b5062000e45858c3560208e013560408f01356200059c565b891562000e585762000e58858b620009f0565b60048960405162000e6a9190620026a3565b9081526020016040518091039020859080600181540180825580915050600190039060005260206000200160009091909190916101000a8154816001600160a01b0302191690836001600160a01b0316021790555060038e60405162000ed19190620026a3565b9081526040516020918190038201812080546001810182556000918252908390200180546001600160a01b0319166001600160a01b03891690811790915581527f607dd1c5b5447c9bd5a6d83ea5b7aeeb40f4090e1363840bd8cf024eb33f86e2910160405180910390a1505050509998505050505050505050565b60606007805480602002602001604051908101604052809291908181526020016000905b828210156200093257838290600052602060002001805462000f9390620026c1565b80601f016020809104026020016040519081016040528092919081815260200182805462000fc190620026c1565b8015620010125780601f1062000fe65761010080835404028352916020019162001012565b820191906000526020600020905b81548152906001019060200180831162000ff457829003601f168201915b50505050508152602001906001019062000f71565b600062001035600162001e70565b905080156200104e576000805461ff0019166101001790555b620010598262001d6d565b8015620010a0576000805461ff0019169055604051600181527f7f26b83ff96e1f2b6a682f133852f6798a09c465da95921460cefb38474024989060200160405180910390a15b5050565b6000620010b46008600a620028c3565b905090565b620010e56040518060800160405280600081526020016000815260200160008152602001600081525090565b815115801590620010fa575060008260200151115b80156200110b575060008260400151115b80156200112057508160200151826040015110155b6200116e5760405162461bcd60e51b815260206004820152601a60248201527f426f6e64466163746f72793a20494e56414c49445f50524943450000000000006044820152606401620005e5565b5090565b6000546201000090046001600160a01b03163314620011a55760405162461bcd60e51b8152600401620005e5906200267d565b604051631cc7d48160e31b81526001600160a01b0383811660048301523360248301526044820183905284169063e63ea40890606401600060405180830381600087803b158015620011f657600080fd5b505af11580156200120b573d6000803e3d6000fd5b50505050505050565b60606006805480602002602001604051908101604052809291908181526020016000905b82821015620009325783829060005260206000200180546200125a90620026c1565b80601f01602080910402602001604051908101604052809291908181526020018280546200128890620026c1565b8015620012d95780601f10620012ad57610100808354040283529160200191620012d9565b820191906000526020600020905b815481529060010190602001808311620012bb57829003601f168201915b50505050508152602001906001019062001238565b600581815481106200094c57600080fd5b6000600482604051620007b99190620026a3565b6000546201000090046001600160a01b03163314620013465760405162461bcd60e51b8152600401620005e5906200267d565b60006001600160a01b03166002858560405162001365929190620028d1565b908152604051908190036020019020546001600160a01b03161415620013c65760058054600181018255600091909152620013c4907f036b6384b5eca791c62761152d0c79bb0604c104a5fb6f4eb0703f3154bb3db001858562001f9e565b505b7fe562b1204ef3c8cf86ddccbb5b4fe6ca6cea7d4c1721e54d179f2b76720be16684848460028888604051620013fe929190620028d1565b9081526040519081900360200181205462001428949392916001600160a01b0390911690620028e1565b60405180910390a1816002858560405162001445929190620028d1565b90815260405190819003602001902080546001600160a01b03929092166001600160a01b031990921691909117905580620014805762001565565b60005b6003858560405162001497929190620028d1565b90815260405190819003602001902054811015620006bc5760038585604051620014c3929190620028d1565b90815260200160405180910390208181548110620014e557620014e562002928565b600091825260209091200154604051631b2ce7f360e11b81526001600160a01b03858116600483015290911690633659cfe690602401600060405180830381600087803b1580156200153657600080fd5b505af11580156200154b573d6000803e3d6000fd5b5050505080806200155c906200293e565b91505062001483565b50505050565b6000546201000090046001600160a01b031633146200159e5760405162461bcd60e51b8152600401620005e5906200267d565b6000816001600160a01b03166318160ddd6040518163ffffffff1660e01b815260040160206040518083038186803b158015620015da57600080fd5b505afa158015620015ef573d6000803e3d6000fd5b505050506040513d601f19601f820116820180604052508101906200161591906200295c565b1115620016655760405162461bcd60e51b815260206004820152601860248201527f426f6e64466163746f72793a2043414e545f52454d4f564500000000000000006044820152606401620005e5565b6000816001600160a01b03166304baa00b6040518163ffffffff1660e01b8152600401600060405180830381600087803b158015620016a357600080fd5b505af1158015620016b8573d6000803e3d6000fd5b505050506040513d6000823e601f3d908101601f19168201604052620016e2919081019062002976565b90506000826001600160a01b031663f12d870f6040518163ffffffff1660e01b8152600401600060405180830381600087803b1580156200172257600080fd5b505af115801562001737573d6000803e3d6000fd5b505050506040513d6000823e601f3d908101601f1916820160405262001761919081019062002976565b90506000836001600160a01b03166382d5a60d6040518163ffffffff1660e01b8152600401600060405180830381600087803b158015620017a157600080fd5b505af1158015620017b6573d6000803e3d6000fd5b505050506040513d6000823e601f3d908101601f19168201604052620017e0919081019062002976565b80519060200120905060008490506000600385604051620018029190620026a3565b90815260405190819003602001902054905060005b81811015620019aa57826001600160a01b03166003876040516200183c9190620026a3565b908152602001604051809103902082815481106200185e576200185e62002928565b6000918252602090912001546001600160a01b0316146200187f5762001995565b600386604051620018919190620026a3565b908152604051908190036020019020620018ad600184620029ed565b81548110620018c057620018c062002928565b6000918252602090912001546040516001600160a01b0390911690600390620018eb908990620026a3565b908152602001604051809103902082815481106200190d576200190d62002928565b9060005260206000200160006101000a8154816001600160a01b0302191690836001600160a01b031602179055506003866040516200194d9190620026a3565b90815260200160405180910390208054806200196d576200196d62002a07565b600082815260209020810160001990810180546001600160a01b0319169055019055620019aa565b80620019a1816200293e565b91505062001817565b506000600485604051620019bf9190620026a3565b90815260405190819003602001902054905060005b8181101562001b6757836001600160a01b0316600487604051620019f99190620026a3565b9081526020016040518091039020828154811062001a1b5762001a1b62002928565b6000918252602090912001546001600160a01b03161462001a3c5762001b52565b60048660405162001a4e9190620026a3565b90815260405190819003602001902062001a6a600184620029ed565b8154811062001a7d5762001a7d62002928565b6000918252602090912001546040516001600160a01b039091169060049062001aa8908990620026a3565b9081526020016040518091039020828154811062001aca5762001aca62002928565b9060005260206000200160006101000a8154816001600160a01b0302191690836001600160a01b0316021790555060048660405162001b0a9190620026a3565b908152602001604051809103902080548062001b2a5762001b2a62002a07565b600082815260209020810160001990810180546001600160a01b031916905501905562001b67565b8062001b5e816200293e565b915050620019d4565b5060075460005b8181101562001c7257856007828154811062001b8e5762001b8e62002928565b9060005260206000200160405162001ba7919062002a1d565b60405180910390201462001bbb5762001c5d565b600762001bca600184620029ed565b8154811062001bdd5762001bdd62002928565b906000526020600020016007828154811062001bfd5762001bfd62002928565b9060005260206000200190805462001c1590620026c1565b62001c229291906200201b565b50600780548062001c375762001c3762002a07565b60019003818190600052602060002001600062001c5591906200209f565b905562001c72565b8062001c69816200293e565b91505062001b6e565b506008886001600160a01b03166382d5a60d6040518163ffffffff1660e01b8152600401600060405180830381600087803b15801562001cb157600080fd5b505af115801562001cc6573d6000803e3d6000fd5b505050506040513d6000823e601f3d908101601f1916820160405262001cf0919081019062002976565b60405162001cff9190620026a3565b9081526040516020918190038201812080546001600160a01b03191690556001600160a01b03861681527fff88a3b6ae790816ff4f385e4c1acba5a2f5abd3972c4a3c99aa212d8a46f6c3910160405180910390a15050505050505050565b6001600160a01b03163b151590565b6001600160a01b03811662001dcf5760405162461bcd60e51b815260206004820152602160248201527f43616e206e6f74207365742061646d696e20746f207a65726f206164647265736044820152607360f81b6064820152608401620005e5565b6000805462010000600160b01b031916620100006001600160a01b038416908102919091178255604051909133917f101b8081ff3b56bbf45deb824d86a3b0fd38b7e3dd42421105cf8abe9106db0b9190a350565b600180546001600160a01b0319166001600160a01b03831690811790915560405133907f53d3703fe259def57584466f32d1b94c30278008c683c21b04501c4966f13a6990600090a350565b60008054610100900460ff161562001ebc578160ff16600114801562001e955750303b155b62001eb45760405162461bcd60e51b8152600401620005e59062002ac1565b506000919050565b60005460ff80841691161062001ee65760405162461bcd60e51b8152600401620005e59062002ac1565b506000805460ff191660ff92909216919091179055600190565b919050565b610eca8062002b1083390190565b82805462001f2190620026c1565b90600052602060002090601f01602090048101928262001f45576000855562001f90565b82601f1062001f6057805160ff191683800117855562001f90565b8280016001018555821562001f90579182015b8281111562001f9057825182559160200191906001019062001f73565b506200116e929150620020d9565b82805462001fac90620026c1565b90600052602060002090601f01602090048101928262001fd0576000855562001f90565b82601f1062001feb5782800160ff1982351617855562001f90565b8280016001018555821562001f90579182015b8281111562001f9057823582559160200191906001019062001ffe565b8280546200202990620026c1565b90600052602060002090601f0160209004810192826200204d576000855562001f90565b82601f1062002060578054855562001f90565b8280016001018555821562001f9057600052602060002091601f016020900482015b8281111562001f9057825482559160010191906001019062002082565b508054620020ad90620026c1565b6000825580601f10620020be575050565b601f01602090049060005260206000209081019062000aa091905b5b808211156200116e5760008155600101620020da565b6001600160a01b038116811462000aa057600080fd5b600080600080608085870312156200211d57600080fd5b84356200212a81620020f0565b966020860135965060408601359560600135945092505050565b600080604083850312156200215857600080fd5b82356200216581620020f0565b946020939093013593505050565b634e487b7160e01b600052604160045260246000fd5b604051601f8201601f1916810167ffffffffffffffff81118282101715620021b557620021b562002173565b604052919050565b600067ffffffffffffffff821115620021da57620021da62002173565b50601f01601f191660200190565b600082601f830112620021fa57600080fd5b8135620022116200220b82620021bd565b62002189565b8181528460208386010111156200222757600080fd5b816020850160208301376000918101602001919091529392505050565b600080604083850312156200225857600080fd5b823567ffffffffffffffff8111156200227057600080fd5b6200227e85828601620021e8565b95602094909401359450505050565b600060208284031215620022a057600080fd5b813567ffffffffffffffff811115620022b857600080fd5b620022c684828501620021e8565b949350505050565b600060208284031215620022e157600080fd5b8135620022ee81620020f0565b9392505050565b60005b8381101562002312578181015183820152602001620022f8565b83811115620015655750506000910152565b600081518084526200233e816020860160208601620022f5565b601f01601f19169290920160200192915050565b6000602080830181845280855180835260408601915060408160051b870101925083870160005b82811015620023ab57603f198886030184526200239885835162002324565b9450928501929085019060010162002379565b5092979650505050505050565b600060208284031215620023cb57600080fd5b5035919050565b602081526000620022ee602083018462002324565b600060808284031215620023fa57600080fd5b50919050565b803562001f0081620020f0565b60008060008060008060008060006101808a8c0312156200242d57600080fd5b893567ffffffffffffffff808211156200244657600080fd5b620024548d838e01620021e8565b9a5060208c01359150808211156200246b57600080fd5b620024798d838e01620021e8565b995060408c01359150808211156200249057600080fd5b6200249e8d838e01620021e8565b9850620024af8d60608e01620023e7565b975060e08c013596506101008c0135915080821115620024ce57600080fd5b620024dc8d838e01620021e8565b9550620024ed6101208d0162002400565b94506101408c013593506101608c01359150808211156200250d57600080fd5b506200251c8c828d01620021e8565b9150509295985092959850929598565b6000608082840312156200253f57600080fd5b6040516080810181811067ffffffffffffffff8211171562002565576200256562002173565b8060405250823581526020830135602082015260408301356040820152606083013560608201528091505092915050565b600080600060608486031215620025ac57600080fd5b8335620025b981620020f0565b92506020840135620025cb81620020f0565b929592945050506040919091013590565b60008060008060608587031215620025f357600080fd5b843567ffffffffffffffff808211156200260c57600080fd5b818701915087601f8301126200262157600080fd5b8135818111156200263157600080fd5b8860208285010111156200264457600080fd5b602092830196509450508501356200265c81620020f0565b9150604085013580151581146200267257600080fd5b939692955090935050565b6020808252600c908201526b15539055551213d49256915160a21b604082015260600190565b60008251620026b7818460208701620022f5565b9190910192915050565b600181811c90821680620026d657607f821691505b60208210811415620023fa57634e487b7160e01b600052602260045260246000fd5b6001600160a01b03848116825283166020820152606060408201819052600090620027269083018462002324565b95945050505050565b60e0815260006200274460e083018a62002324565b828103602084015262002758818a62002324565b905082810360408401526200276e818962002324565b6001600160a01b0388811660608601528716608085015260a0840186905283810360c08501529050620027a2818562002324565b9a9950505050505050505050565b634e487b7160e01b600052601160045260246000fd5b600181815b8085111562002807578160001904821115620027eb57620027eb620027b0565b80851615620027f957918102915b93841c9390800290620027cb565b509250929050565b600082620028205750600162000aa6565b816200282f5750600062000aa6565b8160018114620028485760028114620028535762002873565b600191505062000aa6565b60ff841115620028675762002867620027b0565b50506001821b62000aa6565b5060208310610133831016604e8410600b841016171562002898575081810a62000aa6565b620028a48383620027c6565b8060001904821115620028bb57620028bb620027b0565b029392505050565b6000620022ee83836200280f565b8183823760009101908152919050565b6060815283606082015283856080830137600060808583018101919091526001600160a01b039384166020830152919092166040830152601f909201601f19160101919050565b634e487b7160e01b600052603260045260246000fd5b6000600019821415620029555762002955620027b0565b5060010190565b6000602082840312156200296f57600080fd5b5051919050565b6000602082840312156200298957600080fd5b815167ffffffffffffffff811115620029a157600080fd5b8201601f81018413620029b357600080fd5b8051620029c46200220b82620021bd565b818152856020838501011115620029da57600080fd5b62002726826020830160208601620022f5565b60008282101562002a025762002a02620027b0565b500390565b634e487b7160e01b600052603160045260246000fd5b600080835481600182811c91508083168062002a3a57607f831692505b602080841082141562002a5b57634e487b7160e01b86526022600452602486fd5b81801562002a72576001811462002a845762002ab3565b60ff1986168952848901965062002ab3565b60008a81526020902060005b8681101562002aab5781548b82015290850190830162002a90565b505084890196505b509498975050505050505050565b6020808252602e908201527f496e697469616c697a61626c653a20636f6e747261637420697320616c72656160408201526d191e481a5b9a5d1a585b1a5e995960921b60608201526080019056fe608060405260405162000eca38038062000eca83398101604081905262000026916200051f565b82828282816200005860017f360894a13ba1a3210667c828492db98dca3e2076cc3735a920a3ca505d382bbd620005ff565b60008051602062000e838339815191521462000078576200007862000625565b6200008682826000620000ed565b50620000b6905060017fb53127684a568b3173ae13b9f8a6016e243e63b6e8ee1178d6a717850b5d6104620005ff565b60008051602062000e6383398151915214620000d657620000d662000625565b620000e1826200012a565b5050505050506200068e565b620000f88362000185565b600082511180620001065750805b156200012557620001238383620001c760201b620002581760201c565b505b505050565b7f7e644d79422f17c01e4894b5f4f588d331ebfa28653d42ae832dc59e38c9798f62000155620001f6565b604080516001600160a01b03928316815291841660208301520160405180910390a162000182816200022f565b50565b6200019081620002e4565b6040516001600160a01b038216907fbc7cd75a20ee27fd9adebab32041f755214dbc6bffa90cc0225b39da2e5c2d3b90600090a250565b6060620001ef838360405180606001604052806027815260200162000ea36027913962000387565b9392505050565b60006200022060008051602062000e6383398151915260001b6200046d60201b620002001760201c565b546001600160a01b0316919050565b6001600160a01b0381166200029a5760405162461bcd60e51b815260206004820152602660248201527f455243313936373a206e65772061646d696e20697320746865207a65726f206160448201526564647265737360d01b60648201526084015b60405180910390fd5b80620002c360008051602062000e6383398151915260001b6200046d60201b620002001760201c565b80546001600160a01b0319166001600160a01b039290921691909117905550565b620002fa816200047060201b620002841760201c565b6200035e5760405162461bcd60e51b815260206004820152602d60248201527f455243313936373a206e657720696d706c656d656e746174696f6e206973206e60448201526c1bdd08184818dbdb9d1c9858dd609a1b606482015260840162000291565b80620002c360008051602062000e8383398151915260001b6200046d60201b620002001760201c565b60606001600160a01b0384163b620003f15760405162461bcd60e51b815260206004820152602660248201527f416464726573733a2064656c65676174652063616c6c20746f206e6f6e2d636f6044820152651b9d1c9858dd60d21b606482015260840162000291565b600080856001600160a01b0316856040516200040e91906200063b565b600060405180830381855af49150503d80600081146200044b576040519150601f19603f3d011682016040523d82523d6000602084013e62000450565b606091505b509092509050620004638282866200047f565b9695505050505050565b90565b6001600160a01b03163b151590565b6060831562000490575081620001ef565b825115620004a15782518084602001fd5b8160405162461bcd60e51b815260040162000291919062000659565b80516001600160a01b0381168114620004d557600080fd5b919050565b634e487b7160e01b600052604160045260246000fd5b60005b838110156200050d578181015183820152602001620004f3565b83811115620001235750506000910152565b6000806000606084860312156200053557600080fd5b6200054084620004bd565b92506200055060208501620004bd565b60408501519092506001600160401b03808211156200056e57600080fd5b818601915086601f8301126200058357600080fd5b815181811115620005985762000598620004da565b604051601f8201601f19908116603f01168101908382118183101715620005c357620005c3620004da565b81604052828152896020848701011115620005dd57600080fd5b620005f0836020830160208801620004f0565b80955050505050509250925092565b6000828210156200062057634e487b7160e01b600052601160045260246000fd5b500390565b634e487b7160e01b600052600160045260246000fd5b600082516200064f818460208701620004f0565b9190910192915050565b60208152600082518060208401526200067a816040850160208701620004f0565b601f01601f19169190910160400192915050565b6107c5806200069e6000396000f3fe60806040526004361061004e5760003560e01c80633659cfe6146100655780634f1ef286146100855780635c60da1b146100985780638f283970146100c9578063f851a440146100e95761005d565b3661005d5761005b6100fe565b005b61005b6100fe565b34801561007157600080fd5b5061005b61008036600461064f565b610110565b61005b61009336600461066a565b610157565b3480156100a457600080fd5b506100ad6101c8565b6040516001600160a01b03909116815260200160405180910390f35b3480156100d557600080fd5b5061005b6100e436600461064f565b610203565b3480156100f557600080fd5b506100ad61022d565b61010e610109610293565b61029d565b565b6101186102c1565b6001600160a01b0316336001600160a01b0316141561014f5761014c816040518060200160405280600081525060006102f4565b50565b61014c6100fe565b61015f6102c1565b6001600160a01b0316336001600160a01b031614156101c0576101bb8383838080601f016020809104026020016040519081016040528093929190818152602001838380828437600092019190915250600192506102f4915050565b505050565b6101bb6100fe565b60006101d26102c1565b6001600160a01b0316336001600160a01b031614156101f8576101f3610293565b905090565b6102006100fe565b90565b61020b6102c1565b6001600160a01b0316336001600160a01b0316141561014f5761014c8161031f565b60006102376102c1565b6001600160a01b0316336001600160a01b031614156101f8576101f36102c1565b606061027d838360405180606001604052806027815260200161076960279139610373565b9392505050565b6001600160a01b03163b151590565b60006101f3610455565b3660008037600080366000845af43d6000803e8080156102bc573d6000f35b3d6000fd5b60007fb53127684a568b3173ae13b9f8a6016e243e63b6e8ee1178d6a717850b5d61035b546001600160a01b0316919050565b6102fd8361047d565b60008251118061030a5750805b156101bb576103198383610258565b50505050565b7f7e644d79422f17c01e4894b5f4f588d331ebfa28653d42ae832dc59e38c9798f6103486102c1565b604080516001600160a01b03928316815291841660208301520160405180910390a161014c816104bd565b60606001600160a01b0384163b6103e05760405162461bcd60e51b815260206004820152602660248201527f416464726573733a2064656c65676174652063616c6c20746f206e6f6e2d636f6044820152651b9d1c9858dd60d21b60648201526084015b60405180910390fd5b600080856001600160a01b0316856040516103fb9190610719565b600060405180830381855af49150503d8060008114610436576040519150601f19603f3d011682016040523d82523d6000602084013e61043b565b606091505b509150915061044b828286610566565b9695505050505050565b60007f360894a13ba1a3210667c828492db98dca3e2076cc3735a920a3ca505d382bbc6102e5565b6104868161059f565b6040516001600160a01b038216907fbc7cd75a20ee27fd9adebab32041f755214dbc6bffa90cc0225b39da2e5c2d3b90600090a250565b6001600160a01b0381166105225760405162461bcd60e51b815260206004820152602660248201527f455243313936373a206e65772061646d696e20697320746865207a65726f206160448201526564647265737360d01b60648201526084016103d7565b807fb53127684a568b3173ae13b9f8a6016e243e63b6e8ee1178d6a717850b5d61035b80546001600160a01b0319166001600160a01b039290921691909117905550565b6060831561057557508161027d565b8251156105855782518084602001fd5b8160405162461bcd60e51b81526004016103d79190610735565b6001600160a01b0381163b61060c5760405162461bcd60e51b815260206004820152602d60248201527f455243313936373a206e657720696d706c656d656e746174696f6e206973206e60448201526c1bdd08184818dbdb9d1c9858dd609a1b60648201526084016103d7565b807f360894a13ba1a3210667c828492db98dca3e2076cc3735a920a3ca505d382bbc610545565b80356001600160a01b038116811461064a57600080fd5b919050565b60006020828403121561066157600080fd5b61027d82610633565b60008060006040848603121561067f57600080fd5b61068884610633565b9250602084013567ffffffffffffffff808211156106a557600080fd5b818601915086601f8301126106b957600080fd5b8135818111156106c857600080fd5b8760208285010111156106da57600080fd5b6020830194508093505050509250925092565b60005b838110156107085781810151838201526020016106f0565b838111156103195750506000910152565b6000825161072b8184602087016106ed565b9190910192915050565b60208152600082518060208401526107548160408501602087016106ed565b601f01601f1916919091016040019291505056fe416464726573733a206c6f772d6c6576656c2064656c65676174652063616c6c206661696c6564a2646970667358221220c9e1fbe41895f8bf7249337aca83abf16214aebbd0a1f744a3df3f57c9c8a4e264736f6c63430008090033b53127684a568b3173ae13b9f8a6016e243e63b6e8ee1178d6a717850b5d6103360894a13ba1a3210667c828492db98dca3e2076cc3735a920a3ca505d382bbc416464726573733a206c6f772d6c6576656c2064656c65676174652063616c6c206661696c6564a264697066735822122078973b8e18bc53022b656f421c5301eac64ed868bc990495dbfb8d5eb50804a264736f6c63430008090033496e697469616c697a61626c653a20636f6e747261637420697320616c726561",
  "devdoc": {
    "kind": "dev",
    "methods": {
      "constructor": {
        "custom:oz-upgrades-unsafe-allow": "constructor"
      }
    },
    "stateVariables": {
      "PERCENTAGE_FACTOR": {
        "details": "factor for percentage that described in integer. It makes 10000 means 100%, and 20 means 0.2%;      Calculation formula: x * percentage / PERCENTAGE_FACTOR"
      }
    },
    "version": 1
  },
  "userdoc": {
    "kind": "user",
    "methods": {},
    "version": 1
  },
  "storageLayout": {
    "storage": [
      {
        "astId": 6,
        "contract": "contracts/BondFactory.sol:BondFactory",
        "label": "_initialized",
        "offset": 0,
        "slot": "0",
        "type": "t_uint8"
      },
      {
        "astId": 9,
        "contract": "contracts/BondFactory.sol:BondFactory",
        "label": "_initializing",
        "offset": 1,
        "slot": "0",
        "type": "t_bool"
      },
      {
        "astId": 4153,
        "contract": "contracts/BondFactory.sol:BondFactory",
        "label": "admin",
        "offset": 2,
        "slot": "0",
        "type": "t_address"
      },
      {
        "astId": 2506,
        "contract": "contracts/BondFactory.sol:BondFactory",
        "label": "keeper",
        "offset": 0,
        "slot": "1",
        "type": "t_address"
      },
      {
        "astId": 2560,
        "contract": "contracts/BondFactory.sol:BondFactory",
        "label": "bondImplementations",
        "offset": 0,
        "slot": "2",
        "type": "t_mapping(t_string_memory_ptr,t_address)"
      },
      {
        "astId": 2565,
        "contract": "contracts/BondFactory.sol:BondFactory",
        "label": "kindBondsMapping",
        "offset": 0,
        "slot": "3",
        "type": "t_mapping(t_string_memory_ptr,t_array(t_address)dyn_storage)"
      },
      {
        "astId": 2570,
        "contract": "contracts/BondFactory.sol:BondFactory",
        "label": "seriesBondsMapping",
        "offset": 0,
        "slot": "4",
        "type": "t_mapping(t_string_memory_ptr,t_array(t_address)dyn_storage)"
      },
      {
        "astId": 2573,
        "contract": "contracts/BondFactory.sol:BondFactory",
        "label": "bondKinds",
        "offset": 0,
        "slot": "5",
        "type": "t_array(t_string_storage)dyn_storage"
      },
      {
        "astId": 2576,
        "contract": "contracts/BondFactory.sol:BondFactory",
        "label": "bondSeries",
        "offset": 0,
        "slot": "6",
        "type": "t_array(t_string_storage)dyn_storage"
      },
      {
        "astId": 2579,
        "contract": "contracts/BondFactory.sol:BondFactory",
        "label": "bondIsins",
        "offset": 0,
        "slot": "7",
        "type": "t_array(t_string_storage)dyn_storage"
      },
      {
        "astId": 2583,
        "contract": "contracts/BondFactory.sol:BondFactory",
        "label": "isinBondMapping",
        "offset": 0,
        "slot": "8",
        "type": "t_mapping(t_string_memory_ptr,t_address)"
      },
      {
        "astId": 2588,
        "contract": "contracts/BondFactory.sol:BondFactory",
        "label": "bondPrices",
        "offset": 0,
        "slot": "9",
        "type": "t_mapping(t_address,t_struct(BondPrice)4129_storage)"
      }
    ],
    "types": {
      "t_address": {
        "encoding": "inplace",
        "label": "address",
        "numberOfBytes": "20"
      },
      "t_array(t_address)dyn_storage": {
        "base": "t_address",
        "encoding": "dynamic_array",
        "label": "address[]",
        "numberOfBytes": "32"
      },
      "t_array(t_string_storage)dyn_storage": {
        "base": "t_string_storage",
        "encoding": "dynamic_array",
        "label": "string[]",
        "numberOfBytes": "32"
      },
      "t_bool": {
        "encoding": "inplace",
        "label": "bool",
        "numberOfBytes": "1"
      },
      "t_mapping(t_address,t_struct(BondPrice)4129_storage)": {
        "encoding": "mapping",
        "key": "t_address",
        "label": "mapping(address => struct IBondFactory.BondPrice)",
        "numberOfBytes": "32",
        "value": "t_struct(BondPrice)4129_storage"
      },
      "t_mapping(t_string_memory_ptr,t_address)": {
        "encoding": "mapping",
        "key": "t_string_memory_ptr",
        "label": "mapping(string => address)",
        "numberOfBytes": "32",
        "value": "t_address"
      },
      "t_mapping(t_string_memory_ptr,t_array(t_address)dyn_storage)": {
        "encoding": "mapping",
        "key": "t_string_memory_ptr",
        "label": "mapping(string => address[])",
        "numberOfBytes": "32",
        "value": "t_array(t_address)dyn_storage"
      },
      "t_string_memory_ptr": {
        "encoding": "bytes",
        "label": "string",
        "numberOfBytes": "32"
      },
      "t_string_storage": {
        "encoding": "bytes",
        "label": "string",
        "numberOfBytes": "32"
      },
      "t_struct(BondPrice)4129_storage": {
        "encoding": "inplace",
        "label": "struct IBondFactory.BondPrice",
        "members": [
          {
            "astId": 4122,
            "contract": "contracts/BondFactory.sol:BondFactory",
            "label": "price",
            "offset": 0,
            "slot": "0",
            "type": "t_uint256"
          },
          {
            "astId": 4124,
            "contract": "contracts/BondFactory.sol:BondFactory",
            "label": "bid",
            "offset": 0,
            "slot": "1",
            "type": "t_uint256"
          },
          {
            "astId": 4126,
            "contract": "contracts/BondFactory.sol:BondFactory",
            "label": "ask",
            "offset": 0,
            "slot": "2",
            "type": "t_uint256"
          },
          {
            "astId": 4128,
            "contract": "contracts/BondFactory.sol:BondFactory",
            "label": "lastUpdated",
            "offset": 0,
            "slot": "3",
            "type": "t_uint256"
          }
        ],
        "numberOfBytes": "128"
      },
      "t_uint256": {
        "encoding": "inplace",
        "label": "uint256",
        "numberOfBytes": "32"
      },
      "t_uint8": {
        "encoding": "inplace",
        "label": "uint8",
        "numberOfBytes": "1"
      }
    }
  }
}