{
  "address": "0x8e1d9be324C17D9a2F27d5a7470281f7FAAD8470",
  "abi": [
    {
      "inputs": [],
      "stateMutability": "nonpayable",
      "type": "constructor"
    },
    {
      "anonymous": false,
      "inputs": [
        {
          "indexed": true,
          "internalType": "address",
          "name": "user",
          "type": "address"
        },
        {
          "indexed": true,
          "internalType": "address",
          "name": "newAdmin",
          "type": "address"
        }
      ],
      "name": "AdminUpdated",
      "type": "event"
    },
    {
      "anonymous": false,
      "inputs": [
        {
          "indexed": false,
          "internalType": "address",
          "name": "bondToken",
          "type": "address"
        }
      ],
      "name": "BondCreated",
      "type": "event"
    },
    {
      "anonymous": false,
      "inputs": [
        {
          "indexed": false,
          "internalType": "string",
          "name": "kind",
          "type": "string"
        },
        {
          "indexed": false,
          "internalType": "address",
          "name": "implementation",
          "type": "address"
        },
        {
          "indexed": false,
          "internalType": "address",
          "name": "previousImplementation",
          "type": "address"
        }
      ],
      "name": "BondImplementationUpdated",
      "type": "event"
    },
    {
      "anonymous": false,
      "inputs": [
        {
          "indexed": false,
          "internalType": "address",
          "name": "bondToken",
          "type": "address"
        }
      ],
      "name": "BondRemoved",
      "type": "event"
    },
    {
      "anonymous": false,
      "inputs": [
        {
          "indexed": false,
          "internalType": "uint8",
          "name": "version",
          "type": "uint8"
        }
      ],
      "name": "Initialized",
      "type": "event"
    },
    {
      "anonymous": false,
      "inputs": [
        {
          "indexed": true,
          "internalType": "address",
          "name": "bondToken",
          "type": "address"
        },
        {
          "indexed": false,
          "internalType": "uint256",
          "name": "price",
          "type": "uint256"
        },
        {
          "indexed": false,
          "internalType": "uint256",
          "name": "previousPrice",
          "type": "uint256"
        }
      ],
      "name": "PriceUpdated",
      "type": "event"
    },
    {
      "inputs": [],
      "name": "PERCENTAGE_FACTOR",
      "outputs": [
        {
          "internalType": "uint16",
          "name": "",
          "type": "uint16"
        }
      ],
      "stateMutability": "view",
      "type": "function"
    },
    {
      "inputs": [],
      "name": "admin",
      "outputs": [
        {
          "internalType": "address",
          "name": "",
          "type": "address"
        }
      ],
      "stateMutability": "view",
      "type": "function"
    },
    {
      "inputs": [
        {
          "internalType": "string",
          "name": "",
          "type": "string"
        }
      ],
      "name": "bondImplementations",
      "outputs": [
        {
          "internalType": "address",
          "name": "",
          "type": "address"
        }
      ],
      "stateMutability": "view",
      "type": "function"
    },
    {
      "inputs": [
        {
          "internalType": "uint256",
          "name": "",
          "type": "uint256"
        }
      ],
      "name": "bondKinds",
      "outputs": [
        {
          "internalType": "string",
          "name": "",
          "type": "string"
        }
      ],
      "stateMutability": "view",
      "type": "function"
    },
    {
      "inputs": [
        {
          "internalType": "address",
          "name": "",
          "type": "address"
        }
      ],
      "name": "bondPrices",
      "outputs": [
        {
          "internalType": "uint256",
          "name": "price",
          "type": "uint256"
        },
        {
          "internalType": "uint256",
          "name": "bid",
          "type": "uint256"
        },
        {
          "internalType": "uint256",
          "name": "ask",
          "type": "uint256"
        },
        {
          "internalType": "uint256",
          "name": "lastUpdated",
          "type": "uint256"
        }
      ],
      "stateMutability": "view",
      "type": "function"
    },
    {
      "inputs": [
        {
          "internalType": "uint256",
          "name": "",
          "type": "uint256"
        }
      ],
      "name": "bondSeries",
      "outputs": [
        {
          "internalType": "string",
          "name": "",
          "type": "string"
        }
      ],
      "stateMutability": "view",
      "type": "function"
    },
    {
      "inputs": [
        {
          "internalType": "string",
          "name": "kind_",
          "type": "string"
        },
        {
          "internalType": "uint256",
          "name": "tradingAmount",
          "type": "uint256"
        }
      ],
      "name": "calculateFee",
      "outputs": [
        {
          "internalType": "uint256",
          "name": "",
          "type": "uint256"
        }
      ],
      "stateMutability": "view",
      "type": "function"
    },
    {
      "inputs": [
        {
          "internalType": "string",
          "name": "kind_",
          "type": "string"
        },
        {
          "internalType": "string",
          "name": "name_",
          "type": "string"
        },
        {
          "internalType": "string",
          "name": "symbol_",
          "type": "string"
        },
        {
          "components": [
            {
              "internalType": "uint256",
              "name": "price",
              "type": "uint256"
            },
            {
              "internalType": "uint256",
              "name": "bid",
              "type": "uint256"
            },
            {
              "internalType": "uint256",
              "name": "ask",
              "type": "uint256"
            },
            {
              "internalType": "uint256",
              "name": "lastUpdated",
              "type": "uint256"
            }
          ],
          "internalType": "struct IBondFactory.BondPrice",
          "name": "initialPrice_",
          "type": "tuple"
        },
        {
          "internalType": "uint256",
          "name": "initialGrant_",
          "type": "uint256"
        },
        {
          "internalType": "string",
          "name": "series_",
          "type": "string"
        },
        {
          "internalType": "contract IERC20Upgradeable",
          "name": "underlyingToken_",
          "type": "address"
        },
        {
          "internalType": "uint256",
          "name": "maturity_",
          "type": "uint256"
        },
        {
          "internalType": "string",
          "name": "isin_",
          "type": "string"
        }
      ],
      "name": "createBond",
      "outputs": [
        {
          "internalType": "address",
          "name": "bondTokenAddress",
          "type": "address"
        }
      ],
      "stateMutability": "nonpayable",
      "type": "function"
    },
    {
      "inputs": [],
      "name": "getBondKinds",
      "outputs": [
        {
          "internalType": "string[]",
          "name": "",
          "type": "string[]"
        }
      ],
      "stateMutability": "view",
      "type": "function"
    },
    {
      "inputs": [],
      "name": "getBondSeries",
      "outputs": [
        {
          "internalType": "string[]",
          "name": "",
          "type": "string[]"
        }
      ],
      "stateMutability": "view",
      "type": "function"
    },
    {
      "inputs": [
        {
          "internalType": "string",
          "name": "kind_",
          "type": "string"
        }
      ],
      "name": "getKindBondLength",
      "outputs": [
        {
          "internalType": "uint256",
          "name": "",
          "type": "uint256"
        }
      ],
      "stateMutability": "view",
      "type": "function"
    },
    {
      "inputs": [
        {
          "internalType": "address",
          "name": "bondToken_",
          "type": "address"
        }
      ],
      "name": "getPrice",
      "outputs": [
        {
          "components": [
            {
              "internalType": "uint256",
              "name": "price",
              "type": "uint256"
            },
            {
              "internalType": "uint256",
              "name": "bid",
              "type": "uint256"
            },
            {
              "internalType": "uint256",
              "name": "ask",
              "type": "uint256"
            },
            {
              "internalType": "uint256",
              "name": "lastUpdated",
              "type": "uint256"
            }
          ],
          "internalType": "struct IBondFactory.BondPrice",
          "name": "",
          "type": "tuple"
        }
      ],
      "stateMutability": "view",
      "type": "function"
    },
    {
      "inputs": [
        {
          "internalType": "string",
          "name": "series_",
          "type": "string"
        }
      ],
      "name": "getSeriesBondLength",
      "outputs": [
        {
          "internalType": "uint256",
          "name": "",
          "type": "uint256"
        }
      ],
      "stateMutability": "view",
      "type": "function"
    },
    {
      "inputs": [
        {
          "internalType": "address",
          "name": "bondToken_",
          "type": "address"
        },
        {
          "internalType": "uint256",
          "name": "amount_",
          "type": "uint256"
        }
      ],
      "name": "grant",
      "outputs": [],
      "stateMutability": "nonpayable",
      "type": "function"
    },
    {
      "inputs": [
        {
          "internalType": "address",
          "name": "admin_",
          "type": "address"
        }
      ],
      "name": "initialize",
      "outputs": [],
      "stateMutability": "nonpayable",
      "type": "function"
    },
    {
      "inputs": [
        {
          "internalType": "string",
          "name": "",
          "type": "string"
        }
      ],
      "name": "isinBondMapping",
      "outputs": [
        {
          "internalType": "address",
          "name": "",
          "type": "address"
        }
      ],
      "stateMutability": "view",
      "type": "function"
    },
    {
      "inputs": [
        {
          "internalType": "string",
          "name": "",
          "type": "string"
        },
        {
          "internalType": "uint256",
          "name": "",
          "type": "uint256"
        }
      ],
      "name": "kindBondsMapping",
      "outputs": [
        {
          "internalType": "address",
          "name": "",
          "type": "address"
        }
      ],
      "stateMutability": "view",
      "type": "function"
    },
    {
      "inputs": [],
      "name": "priceDecimals",
      "outputs": [
        {
          "internalType": "uint256",
          "name": "",
          "type": "uint256"
        }
      ],
      "stateMutability": "view",
      "type": "function"
    },
    {
      "inputs": [],
      "name": "priceFactor",
      "outputs": [
        {
          "internalType": "uint256",
          "name": "",
          "type": "uint256"
        }
      ],
      "stateMutability": "view",
      "type": "function"
    },
    {
      "inputs": [
        {
          "internalType": "contract IBond",
          "name": "bondToken_",
          "type": "address"
        }
      ],
      "name": "removeBond",
      "outputs": [],
      "stateMutability": "nonpayable",
      "type": "function"
    },
    {
      "inputs": [
        {
          "internalType": "string",
          "name": "",
          "type": "string"
        },
        {
          "internalType": "uint256",
          "name": "",
          "type": "uint256"
        }
      ],
      "name": "seriesBondsMapping",
      "outputs": [
        {
          "internalType": "address",
          "name": "",
          "type": "address"
        }
      ],
      "stateMutability": "view",
      "type": "function"
    },
    {
      "inputs": [
        {
          "internalType": "address",
          "name": "newAdmin",
          "type": "address"
        }
      ],
      "name": "setAdmin",
      "outputs": [],
      "stateMutability": "nonpayable",
      "type": "function"
    },
    {
      "inputs": [
        {
          "internalType": "string",
          "name": "kind_",
          "type": "string"
        },
        {
          "internalType": "address",
          "name": "impl_",
          "type": "address"
        },
        {
          "internalType": "bool",
          "name": "upgradeDeployed_",
          "type": "bool"
        }
      ],
      "name": "setBondImplementation",
      "outputs": [],
      "stateMutability": "nonpayable",
      "type": "function"
    },
    {
      "inputs": [
        {
          "internalType": "address",
          "name": "bondToken_",
          "type": "address"
        },
        {
          "internalType": "uint256",
          "name": "price",
          "type": "uint256"
        },
        {
          "internalType": "uint256",
          "name": "bid",
          "type": "uint256"
        },
        {
          "internalType": "uint256",
          "name": "ask",
          "type": "uint256"
        }
      ],
      "name": "setPrice",
      "outputs": [],
      "stateMutability": "nonpayable",
      "type": "function"
    },
    {
      "inputs": [
        {
          "internalType": "address",
          "name": "bondToken_",
          "type": "address"
        },
        {
          "internalType": "uint256",
          "name": "amount_",
          "type": "uint256"
        }
      ],
      "name": "underlyingOut",
      "outputs": [],
      "stateMutability": "nonpayable",
      "type": "function"
    },
    {
      "inputs": [
        {
          "components": [
            {
              "internalType": "uint256",
              "name": "price",
              "type": "uint256"
            },
            {
              "internalType": "uint256",
              "name": "bid",
              "type": "uint256"
            },
            {
              "internalType": "uint256",
              "name": "ask",
              "type": "uint256"
            },
            {
              "internalType": "uint256",
              "name": "lastUpdated",
              "type": "uint256"
            }
          ],
          "internalType": "struct IBondFactory.BondPrice",
          "name": "price",
          "type": "tuple"
        }
      ],
      "name": "verifyPrice",
      "outputs": [
        {
          "components": [
            {
              "internalType": "uint256",
              "name": "price",
              "type": "uint256"
            },
            {
              "internalType": "uint256",
              "name": "bid",
              "type": "uint256"
            },
            {
              "internalType": "uint256",
              "name": "ask",
              "type": "uint256"
            },
            {
              "internalType": "uint256",
              "name": "lastUpdated",
              "type": "uint256"
            }
          ],
          "internalType": "struct IBondFactory.BondPrice",
          "name": "",
          "type": "tuple"
        }
      ],
      "stateMutability": "view",
      "type": "function"
    }
  ],
  "transactionHash": "0xe340f20875534cb5fa091b7079b7c56b12f22ea447ba7633bba64de052df481f",
  "args": [],
  "numDeployments": 9,
  "solcInputHash": "6a13f6e055440a5408c02b9e5d62636b",
  "bytecode": "0x60806040523480156200001157600080fd5b506200001c62000022565b62000152565b6200002e60ff62000031565b50565b60008054610100900460ff1615620000ca578160ff1660011480156200006a575062000068306200014360201b620018b51760201c565b155b620000c25760405162461bcd60e51b815260206004820152602e6024820152600080516020620034d483398151915260448201526d191e481a5b9a5d1a585b1a5e995960921b60648201526084015b60405180910390fd5b506000919050565b60005460ff808416911610620001295760405162461bcd60e51b815260206004820152602e6024820152600080516020620034d483398151915260448201526d191e481a5b9a5d1a585b1a5e995960921b6064820152608401620000b9565b506000805460ff191660ff92909216919091179055600190565b6001600160a01b03163b151590565b61337280620001626000396000f3fe60806040523480156200001157600080fd5b5060043610620001af5760003560e01c8063b67afd8811620000f0578063ee01e5e711620000a3578063f21c5563116200007a578063f21c5563146200047c578063f851a4401462000493578063f920ea5414620004ad578063fd5b909214620004c457600080fd5b8063ee01e5e71462000410578063ef0cef6c146200042e578063efc51bca146200044557600080fd5b8063b67afd88146200033e578063c4d66de81462000397578063dfb2866d14620003ae578063e44c8c1b14620003b8578063e804c9f614620003cf578063e988b66f146200040657600080fd5b80636016338b1162000166578063704b6c02116200013d578063704b6c0214620002e257806373f7e98a14620002f95780637c33d3d8146200031057806380a4f74c146200032757600080fd5b80636016338b146200028c5780636141380214620002a55780636370920e14620002cb57600080fd5b80630450d53e14620001b457806305300b2814620001cd5780630f988f7014620001e357806326eb508514620001fa578063381bac33146200022a57806341976e091462000241575b600080fd5b620001cb620001c536600462001b53565b620004db565b005b60085b6040519081526020015b60405180910390f35b620001cb620001f436600462001b91565b620005bc565b620002116200020b36600462001c91565b62000656565b6040516001600160a01b039091168152602001620001da565b620001d06200023b36600462001cda565b6200069e565b620002586200025236600462001d1b565b620006c8565b604051620001da91908151815260208083015190820152604080830151908201526060918201519181019190915260800190565b6200029662000751565b604051620001da919062001d9f565b620002bc620002b636600462001e05565b62000834565b604051620001da919062001e1f565b620001cb620002dc36600462001b91565b620008e9565b620001cb620002f336600462001d1b565b6200094a565b620001d06200030a36600462001c91565b6200098b565b620002116200032136600462001c91565b62000994565b620002116200033836600462001e5a565b620009c0565b620003766200034f36600462001d1b565b60076020526000908152604090208054600182015460028301546003909301549192909184565b604080519485526020850193909352918301526060820152608001620001da565b620001cb620003a836600462001d1b565b62000db1565b620001d062000e2e565b62000258620003c936600462001f79565b62000e43565b62000211620003e036600462001cda565b80516020818301810180516006825292820191909301209152546001600160a01b031681565b6200029662000efc565b6200041a61271081565b60405161ffff9091168152602001620001da565b620002bc6200043f36600462001e05565b62000fd6565b620002116200045636600462001cda565b80516020818301810180516001825292820191909301209152546001600160a01b031681565b620001d06200048d36600462001cda565b62000fe7565b60005462000211906201000090046001600160a01b031681565b620001cb620004be36600462001fe3565b62000ffb565b620001cb620004d536600462001d1b565b62001255565b6000546201000090046001600160a01b03163314620005175760405162461bcd60e51b81526004016200050e9062002084565b60405180910390fd5b6001600160a01b038416600081815260076020908152604091829020548251878152918201527fb556fac599c3c70efb9ab1fa725ecace6c81cc48d1455f886607def065f3e0c0910160405180910390a260408051608081018252938452602080850193845284820192835242606086019081526001600160a01b03909616600090815260079091522092518355905160018301555160028201559051600390910155565b6000546201000090046001600160a01b03163314620005ef5760405162461bcd60e51b81526004016200050e9062002084565b604051633f78aea360e21b8152600481018290523360248201526001600160a01b0383169063fde2ba8c906044015b600060405180830381600087803b1580156200063957600080fd5b505af11580156200064e573d6000803e3d6000fd5b505050505050565b815160208184018101805160038252928201918501919091209190528054829081106200068257600080fd5b6000918252602090912001546001600160a01b03169150829050565b6000600282604051620006b29190620020aa565b9081526040519081900360200190205492915050565b620006f46040518060800160405280600081526020016000815260200160008152602001600081525090565b6001600160a01b03821660009081526007602090815260409182902082516080810184528154815260018201549281019290925260028101549282019290925260039091015460608201526200074a8162000e43565b5092915050565b60606004805480602002602001604051908101604052809291908181526020016000905b828210156200082b5783829060005260206000200180546200079790620020c8565b80601f0160208091040260200160405190810160405280929190818152602001828054620007c590620020c8565b8015620008165780601f10620007ea5761010080835404028352916020019162000816565b820191906000526020600020905b815481529060010190602001808311620007f857829003601f168201915b50505050508152602001906001019062000775565b50505050905090565b600581815481106200084557600080fd5b9060005260206000200160009150905080546200086290620020c8565b80601f01602080910402602001604051908101604052809291908181526020018280546200089090620020c8565b8015620008e15780601f10620008b557610100808354040283529160200191620008e1565b820191906000526020600020905b815481529060010190602001808311620008c357829003601f168201915b505050505081565b6000546201000090046001600160a01b031633146200091c5760405162461bcd60e51b81526004016200050e9062002084565b60405163160e3f3d60e01b8152600481018290526001600160a01b0383169063160e3f3d906024016200061e565b6000546201000090046001600160a01b031633146200097d5760405162461bcd60e51b81526004016200050e9062002084565b6200098881620018c4565b50565b60005b92915050565b815160208184018101805160028252928201918501919091209190528054829081106200068257600080fd5b600080546201000090046001600160a01b03163314620009f45760405162461bcd60e51b81526004016200050e9062002084565b6000309050600060018c60405162000a0d9190620020aa565b908152604051908190036020019020546001600160a01b031690508062000a885760405162461bcd60e51b815260206004820152602860248201527f426f6e64466163746f72793a20496e76616c696420626f6e6420696d706c656d60448201526732b73a30ba34b7b760c11b60648201526084016200050e565b60006001600160a01b031660068560405162000aa59190620020aa565b908152604051908190036020019020546001600160a01b03161462000b195760405162461bcd60e51b815260206004820152602360248201527f4120626f6e6420666f722074686973206973696e20616c72656164792065786960448201526273747360e81b60648201526084016200050e565b62000b2e620003c9368b90038b018b62001f79565b506060600082848360405162000b449062001a10565b62000b5293929190620020ff565b604051809103906000f08015801562000b6f573d6000803e3d6000fd5b509050809450846001600160a01b031663df776b2d8e8e8c308d8d8d6040518863ffffffff1660e01b815260040162000baf979695949392919062002136565b600060405180830381600087803b15801562000bca57600080fd5b505af115801562000bdf573d6000803e3d6000fd5b505050508460068760405162000bf69190620020aa565b90815260405190819003602001812080546001600160a01b03939093166001600160a01b03199093169290921790915560039062000c36908b90620020aa565b9081526040519081900360200190205462000c925760058054600181018255600091909152895162000c90917f036b6384b5eca791c62761152d0c79bb0604c104a5fb6f4eb0703f3154bb3db0019060208c019062001a1e565b505b62000ca9858c3560208e013560408f0135620004db565b891562000cbc5762000cbc858b620008e9565b60038960405162000cce9190620020aa565b9081526020016040518091039020859080600181540180825580915050600190039060005260206000200160009091909190916101000a8154816001600160a01b0302191690836001600160a01b0316021790555060028e60405162000d359190620020aa565b9081526040516020918190038201812080546001810182556000918252908390200180546001600160a01b0319166001600160a01b03891690811790915581527f607dd1c5b5447c9bd5a6d83ea5b7aeeb40f4090e1363840bd8cf024eb33f86e2910160405180910390a1505050509998505050505050505050565b600062000dbf60016200197b565b9050801562000dd8576000805461ff0019166101001790555b62000de382620018c4565b801562000e2a576000805461ff0019169055604051600181527f7f26b83ff96e1f2b6a682f133852f6798a09c465da95921460cefb38474024989060200160405180910390a15b5050565b600062000e3e6008600a620022ca565b905090565b62000e6f6040518060800160405280600081526020016000815260200160008152602001600081525090565b81511580159062000e84575060008260200151115b801562000e95575060008260400151115b801562000eaa57508160200151826040015110155b62000ef85760405162461bcd60e51b815260206004820152601a60248201527f426f6e64466163746f72793a20494e56414c49445f505249434500000000000060448201526064016200050e565b5090565b60606005805480602002602001604051908101604052809291908181526020016000905b828210156200082b57838290600052602060002001805462000f4290620020c8565b80601f016020809104026020016040519081016040528092919081815260200182805462000f7090620020c8565b801562000fc15780601f1062000f955761010080835404028352916020019162000fc1565b820191906000526020600020905b81548152906001019060200180831162000fa357829003601f168201915b50505050508152602001906001019062000f20565b600481815481106200084557600080fd5b6000600382604051620006b29190620020aa565b6000546201000090046001600160a01b031633146200102e5760405162461bcd60e51b81526004016200050e9062002084565b60006001600160a01b0316600185856040516200104d929190620022d8565b908152604051908190036020019020546001600160a01b03161415620010ae5760048054600181018255600091909152620010ac907f8a35acfbc15ff81a39ae7d344fd709f28e8600b4aa8c65c6b64bfe7fe36bd19b01858562001aa9565b505b7fe562b1204ef3c8cf86ddccbb5b4fe6ca6cea7d4c1721e54d179f2b76720be16684848460018888604051620010e6929190620022d8565b9081526040519081900360200181205462001110949392916001600160a01b0390911690620022e8565b60405180910390a181600185856040516200112d929190620022d8565b90815260405190819003602001902080546001600160a01b03929092166001600160a01b03199092169190911790558062001168576200124f565b60005b600285856040516200117f929190620022d8565b908152604051908190036020019020548110156200124d5760028585604051620011ab929190620022d8565b90815260200160405180910390208181548110620011cd57620011cd6200232f565b600091825260209091200154604051631b2ce7f360e11b81526001600160a01b03858116600483015290911690633659cfe690602401600060405180830381600087803b1580156200121e57600080fd5b505af115801562001233573d6000803e3d6000fd5b505050508080620012449062002345565b9150506200116b565b505b50505050565b6000546201000090046001600160a01b03163314620012885760405162461bcd60e51b81526004016200050e9062002084565b6000816001600160a01b03166318160ddd6040518163ffffffff1660e01b815260040160206040518083038186803b158015620012c457600080fd5b505afa158015620012d9573d6000803e3d6000fd5b505050506040513d601f19601f82011682018060405250810190620012ff919062002363565b11156200134f5760405162461bcd60e51b815260206004820152601860248201527f426f6e64466163746f72793a2043414e545f52454d4f5645000000000000000060448201526064016200050e565b6000816001600160a01b03166304baa00b6040518163ffffffff1660e01b8152600401600060405180830381600087803b1580156200138d57600080fd5b505af1158015620013a2573d6000803e3d6000fd5b505050506040513d6000823e601f3d908101601f19168201604052620013cc91908101906200237d565b90506000826001600160a01b031663f12d870f6040518163ffffffff1660e01b8152600401600060405180830381600087803b1580156200140c57600080fd5b505af115801562001421573d6000803e3d6000fd5b505050506040513d6000823e601f3d908101601f191682016040526200144b91908101906200237d565b905060008390506000600284604051620014669190620020aa565b90815260405190819003602001902054905060005b818110156200160e57826001600160a01b0316600286604051620014a09190620020aa565b90815260200160405180910390208281548110620014c257620014c26200232f565b6000918252602090912001546001600160a01b031614620014e357620015f9565b600285604051620014f59190620020aa565b90815260405190819003602001902062001511600184620023f4565b815481106200152457620015246200232f565b6000918252602090912001546040516001600160a01b03909116906002906200154f908890620020aa565b908152602001604051809103902082815481106200157157620015716200232f565b9060005260206000200160006101000a8154816001600160a01b0302191690836001600160a01b03160217905550600285604051620015b19190620020aa565b9081526020016040518091039020805480620015d157620015d16200240e565b600082815260209020810160001990810180546001600160a01b03191690550190556200160e565b80620016058162002345565b9150506200147b565b506000600384604051620016239190620020aa565b90815260405190819003602001902054905060005b81811015620017cb57836001600160a01b03166003866040516200165d9190620020aa565b908152602001604051809103902082815481106200167f576200167f6200232f565b6000918252602090912001546001600160a01b031614620016a057620017b6565b600385604051620016b29190620020aa565b908152604051908190036020019020620016ce600184620023f4565b81548110620016e157620016e16200232f565b6000918252602090912001546040516001600160a01b03909116906003906200170c908890620020aa565b908152602001604051809103902082815481106200172e576200172e6200232f565b9060005260206000200160006101000a8154816001600160a01b0302191690836001600160a01b031602179055506003856040516200176e9190620020aa565b90815260200160405180910390208054806200178e576200178e6200240e565b600082815260209020810160001990810180546001600160a01b0319169055019055620017cb565b80620017c28162002345565b91505062001638565b506006866001600160a01b03166382d5a60d6040518163ffffffff1660e01b8152600401600060405180830381600087803b1580156200180a57600080fd5b505af11580156200181f573d6000803e3d6000fd5b505050506040513d6000823e601f3d908101601f191682016040526200184991908101906200237d565b604051620018589190620020aa565b9081526040516020918190038201812080546001600160a01b03191690556001600160a01b03851681527fff88a3b6ae790816ff4f385e4c1acba5a2f5abd3972c4a3c99aa212d8a46f6c3910160405180910390a1505050505050565b6001600160a01b03163b151590565b6001600160a01b038116620019265760405162461bcd60e51b815260206004820152602160248201527f43616e206e6f74207365742061646d696e20746f207a65726f206164647265736044820152607360f81b60648201526084016200050e565b6000805462010000600160b01b031916620100006001600160a01b038416908102919091178255604051909133917f101b8081ff3b56bbf45deb824d86a3b0fd38b7e3dd42421105cf8abe9106db0b9190a350565b60008054610100900460ff1615620019c7578160ff166001148015620019a05750303b155b620019bf5760405162461bcd60e51b81526004016200050e9062002424565b506000919050565b60005460ff808416911610620019f15760405162461bcd60e51b81526004016200050e9062002424565b506000805460ff191660ff92909216919091179055600190565b919050565b610eca806200247383390190565b82805462001a2c90620020c8565b90600052602060002090601f01602090048101928262001a50576000855562001a9b565b82601f1062001a6b57805160ff191683800117855562001a9b565b8280016001018555821562001a9b579182015b8281111562001a9b57825182559160200191906001019062001a7e565b5062000ef892915062001b26565b82805462001ab790620020c8565b90600052602060002090601f01602090048101928262001adb576000855562001a9b565b82601f1062001af65782800160ff1982351617855562001a9b565b8280016001018555821562001a9b579182015b8281111562001a9b57823582559160200191906001019062001b09565b5b8082111562000ef8576000815560010162001b27565b6001600160a01b03811681146200098857600080fd5b6000806000806080858703121562001b6a57600080fd5b843562001b778162001b3d565b966020860135965060408601359560600135945092505050565b6000806040838503121562001ba557600080fd5b823562001bb28162001b3d565b946020939093013593505050565b634e487b7160e01b600052604160045260246000fd5b604051601f8201601f1916810167ffffffffffffffff8111828210171562001c025762001c0262001bc0565b604052919050565b600067ffffffffffffffff82111562001c275762001c2762001bc0565b50601f01601f191660200190565b600082601f83011262001c4757600080fd5b813562001c5e62001c588262001c0a565b62001bd6565b81815284602083860101111562001c7457600080fd5b816020850160208301376000918101602001919091529392505050565b6000806040838503121562001ca557600080fd5b823567ffffffffffffffff81111562001cbd57600080fd5b62001ccb8582860162001c35565b95602094909401359450505050565b60006020828403121562001ced57600080fd5b813567ffffffffffffffff81111562001d0557600080fd5b62001d138482850162001c35565b949350505050565b60006020828403121562001d2e57600080fd5b813562001d3b8162001b3d565b9392505050565b60005b8381101562001d5f57818101518382015260200162001d45565b838111156200124f5750506000910152565b6000815180845262001d8b81602086016020860162001d42565b601f01601f19169290920160200192915050565b6000602080830181845280855180835260408601915060408160051b870101925083870160005b8281101562001df857603f1988860301845262001de585835162001d71565b9450928501929085019060010162001dc6565b5092979650505050505050565b60006020828403121562001e1857600080fd5b5035919050565b60208152600062001d3b602083018462001d71565b60006080828403121562001e4757600080fd5b50919050565b803562001a0b8162001b3d565b60008060008060008060008060006101808a8c03121562001e7a57600080fd5b893567ffffffffffffffff8082111562001e9357600080fd5b62001ea18d838e0162001c35565b9a5060208c013591508082111562001eb857600080fd5b62001ec68d838e0162001c35565b995060408c013591508082111562001edd57600080fd5b62001eeb8d838e0162001c35565b985062001efc8d60608e0162001e34565b975060e08c013596506101008c013591508082111562001f1b57600080fd5b62001f298d838e0162001c35565b955062001f3a6101208d0162001e4d565b94506101408c013593506101608c013591508082111562001f5a57600080fd5b5062001f698c828d0162001c35565b9150509295985092959850929598565b60006080828403121562001f8c57600080fd5b6040516080810181811067ffffffffffffffff8211171562001fb25762001fb262001bc0565b8060405250823581526020830135602082015260408301356040820152606083013560608201528091505092915050565b6000806000806060858703121562001ffa57600080fd5b843567ffffffffffffffff808211156200201357600080fd5b818701915087601f8301126200202857600080fd5b8135818111156200203857600080fd5b8860208285010111156200204b57600080fd5b60209283019650945050850135620020638162001b3d565b9150604085013580151581146200207957600080fd5b939692955090935050565b6020808252600c908201526b15539055551213d49256915160a21b604082015260600190565b60008251620020be81846020870162001d42565b9190910192915050565b600181811c90821680620020dd57607f821691505b6020821081141562001e4757634e487b7160e01b600052602260045260246000fd5b6001600160a01b038481168252831660208201526060604082018190526000906200212d9083018462001d71565b95945050505050565b60e0815260006200214b60e083018a62001d71565b82810360208401526200215f818a62001d71565b9050828103604084015262002175818962001d71565b6001600160a01b0388811660608601528716608085015260a0840186905283810360c08501529050620021a9818562001d71565b9a9950505050505050505050565b634e487b7160e01b600052601160045260246000fd5b600181815b808511156200220e578160001904821115620021f257620021f2620021b7565b808516156200220057918102915b93841c9390800290620021d2565b509250929050565b60008262002227575060016200098e565b8162002236575060006200098e565b81600181146200224f57600281146200225a576200227a565b60019150506200098e565b60ff8411156200226e576200226e620021b7565b50506001821b6200098e565b5060208310610133831016604e8410600b84101617156200229f575081810a6200098e565b620022ab8383620021cd565b8060001904821115620022c257620022c2620021b7565b029392505050565b600062001d3b838362002216565b8183823760009101908152919050565b6060815283606082015283856080830137600060808583018101919091526001600160a01b039384166020830152919092166040830152601f909201601f19160101919050565b634e487b7160e01b600052603260045260246000fd5b60006000198214156200235c576200235c620021b7565b5060010190565b6000602082840312156200237657600080fd5b5051919050565b6000602082840312156200239057600080fd5b815167ffffffffffffffff811115620023a857600080fd5b8201601f81018413620023ba57600080fd5b8051620023cb62001c588262001c0a565b818152856020838501011115620023e157600080fd5b6200212d82602083016020860162001d42565b600082821015620024095762002409620021b7565b500390565b634e487b7160e01b600052603160045260246000fd5b6020808252602e908201527f496e697469616c697a61626c653a20636f6e747261637420697320616c72656160408201526d191e481a5b9a5d1a585b1a5e995960921b60608201526080019056fe608060405260405162000eca38038062000eca83398101604081905262000026916200051f565b82828282816200005860017f360894a13ba1a3210667c828492db98dca3e2076cc3735a920a3ca505d382bbd620005ff565b60008051602062000e838339815191521462000078576200007862000625565b6200008682826000620000ed565b50620000b6905060017fb53127684a568b3173ae13b9f8a6016e243e63b6e8ee1178d6a717850b5d6104620005ff565b60008051602062000e6383398151915214620000d657620000d662000625565b620000e1826200012a565b5050505050506200068e565b620000f88362000185565b600082511180620001065750805b156200012557620001238383620001c760201b620002581760201c565b505b505050565b7f7e644d79422f17c01e4894b5f4f588d331ebfa28653d42ae832dc59e38c9798f62000155620001f6565b604080516001600160a01b03928316815291841660208301520160405180910390a162000182816200022f565b50565b6200019081620002e4565b6040516001600160a01b038216907fbc7cd75a20ee27fd9adebab32041f755214dbc6bffa90cc0225b39da2e5c2d3b90600090a250565b6060620001ef838360405180606001604052806027815260200162000ea36027913962000387565b9392505050565b60006200022060008051602062000e6383398151915260001b6200046d60201b620002001760201c565b546001600160a01b0316919050565b6001600160a01b0381166200029a5760405162461bcd60e51b815260206004820152602660248201527f455243313936373a206e65772061646d696e20697320746865207a65726f206160448201526564647265737360d01b60648201526084015b60405180910390fd5b80620002c360008051602062000e6383398151915260001b6200046d60201b620002001760201c565b80546001600160a01b0319166001600160a01b039290921691909117905550565b620002fa816200047060201b620002841760201c565b6200035e5760405162461bcd60e51b815260206004820152602d60248201527f455243313936373a206e657720696d706c656d656e746174696f6e206973206e60448201526c1bdd08184818dbdb9d1c9858dd609a1b606482015260840162000291565b80620002c360008051602062000e8383398151915260001b6200046d60201b620002001760201c565b60606001600160a01b0384163b620003f15760405162461bcd60e51b815260206004820152602660248201527f416464726573733a2064656c65676174652063616c6c20746f206e6f6e2d636f6044820152651b9d1c9858dd60d21b606482015260840162000291565b600080856001600160a01b0316856040516200040e91906200063b565b600060405180830381855af49150503d80600081146200044b576040519150601f19603f3d011682016040523d82523d6000602084013e62000450565b606091505b509092509050620004638282866200047f565b9695505050505050565b90565b6001600160a01b03163b151590565b6060831562000490575081620001ef565b825115620004a15782518084602001fd5b8160405162461bcd60e51b815260040162000291919062000659565b80516001600160a01b0381168114620004d557600080fd5b919050565b634e487b7160e01b600052604160045260246000fd5b60005b838110156200050d578181015183820152602001620004f3565b83811115620001235750506000910152565b6000806000606084860312156200053557600080fd5b6200054084620004bd565b92506200055060208501620004bd565b60408501519092506001600160401b03808211156200056e57600080fd5b818601915086601f8301126200058357600080fd5b815181811115620005985762000598620004da565b604051601f8201601f19908116603f01168101908382118183101715620005c357620005c3620004da565b81604052828152896020848701011115620005dd57600080fd5b620005f0836020830160208801620004f0565b80955050505050509250925092565b6000828210156200062057634e487b7160e01b600052601160045260246000fd5b500390565b634e487b7160e01b600052600160045260246000fd5b600082516200064f818460208701620004f0565b9190910192915050565b60208152600082518060208401526200067a816040850160208701620004f0565b601f01601f19169190910160400192915050565b6107c5806200069e6000396000f3fe60806040526004361061004e5760003560e01c80633659cfe6146100655780634f1ef286146100855780635c60da1b146100985780638f283970146100c9578063f851a440146100e95761005d565b3661005d5761005b6100fe565b005b61005b6100fe565b34801561007157600080fd5b5061005b61008036600461064f565b610110565b61005b61009336600461066a565b610157565b3480156100a457600080fd5b506100ad6101c8565b6040516001600160a01b03909116815260200160405180910390f35b3480156100d557600080fd5b5061005b6100e436600461064f565b610203565b3480156100f557600080fd5b506100ad61022d565b61010e610109610293565b61029d565b565b6101186102c1565b6001600160a01b0316336001600160a01b0316141561014f5761014c816040518060200160405280600081525060006102f4565b50565b61014c6100fe565b61015f6102c1565b6001600160a01b0316336001600160a01b031614156101c0576101bb8383838080601f016020809104026020016040519081016040528093929190818152602001838380828437600092019190915250600192506102f4915050565b505050565b6101bb6100fe565b60006101d26102c1565b6001600160a01b0316336001600160a01b031614156101f8576101f3610293565b905090565b6102006100fe565b90565b61020b6102c1565b6001600160a01b0316336001600160a01b0316141561014f5761014c8161031f565b60006102376102c1565b6001600160a01b0316336001600160a01b031614156101f8576101f36102c1565b606061027d838360405180606001604052806027815260200161076960279139610373565b9392505050565b6001600160a01b03163b151590565b60006101f3610455565b3660008037600080366000845af43d6000803e8080156102bc573d6000f35b3d6000fd5b60007fb53127684a568b3173ae13b9f8a6016e243e63b6e8ee1178d6a717850b5d61035b546001600160a01b0316919050565b6102fd8361047d565b60008251118061030a5750805b156101bb576103198383610258565b50505050565b7f7e644d79422f17c01e4894b5f4f588d331ebfa28653d42ae832dc59e38c9798f6103486102c1565b604080516001600160a01b03928316815291841660208301520160405180910390a161014c816104bd565b60606001600160a01b0384163b6103e05760405162461bcd60e51b815260206004820152602660248201527f416464726573733a2064656c65676174652063616c6c20746f206e6f6e2d636f6044820152651b9d1c9858dd60d21b60648201526084015b60405180910390fd5b600080856001600160a01b0316856040516103fb9190610719565b600060405180830381855af49150503d8060008114610436576040519150601f19603f3d011682016040523d82523d6000602084013e61043b565b606091505b509150915061044b828286610566565b9695505050505050565b60007f360894a13ba1a3210667c828492db98dca3e2076cc3735a920a3ca505d382bbc6102e5565b6104868161059f565b6040516001600160a01b038216907fbc7cd75a20ee27fd9adebab32041f755214dbc6bffa90cc0225b39da2e5c2d3b90600090a250565b6001600160a01b0381166105225760405162461bcd60e51b815260206004820152602660248201527f455243313936373a206e65772061646d696e20697320746865207a65726f206160448201526564647265737360d01b60648201526084016103d7565b807fb53127684a568b3173ae13b9f8a6016e243e63b6e8ee1178d6a717850b5d61035b80546001600160a01b0319166001600160a01b039290921691909117905550565b6060831561057557508161027d565b8251156105855782518084602001fd5b8160405162461bcd60e51b81526004016103d79190610735565b6001600160a01b0381163b61060c5760405162461bcd60e51b815260206004820152602d60248201527f455243313936373a206e657720696d706c656d656e746174696f6e206973206e60448201526c1bdd08184818dbdb9d1c9858dd609a1b60648201526084016103d7565b807f360894a13ba1a3210667c828492db98dca3e2076cc3735a920a3ca505d382bbc610545565b80356001600160a01b038116811461064a57600080fd5b919050565b60006020828403121561066157600080fd5b61027d82610633565b60008060006040848603121561067f57600080fd5b61068884610633565b9250602084013567ffffffffffffffff808211156106a557600080fd5b818601915086601f8301126106b957600080fd5b8135818111156106c857600080fd5b8760208285010111156106da57600080fd5b6020830194508093505050509250925092565b60005b838110156107085781810151838201526020016106f0565b838111156103195750506000910152565b6000825161072b8184602087016106ed565b9190910192915050565b60208152600082518060208401526107548160408501602087016106ed565b601f01601f1916919091016040019291505056fe416464726573733a206c6f772d6c6576656c2064656c65676174652063616c6c206661696c6564a2646970667358221220c9e1fbe41895f8bf7249337aca83abf16214aebbd0a1f744a3df3f57c9c8a4e264736f6c63430008090033b53127684a568b3173ae13b9f8a6016e243e63b6e8ee1178d6a717850b5d6103360894a13ba1a3210667c828492db98dca3e2076cc3735a920a3ca505d382bbc416464726573733a206c6f772d6c6576656c2064656c65676174652063616c6c206661696c6564a2646970667358221220f32d533117001fbd247139ee3d0bed1ef03feb487c8a1cdcc92f8a7ceb3e165f64736f6c63430008090033496e697469616c697a61626c653a20636f6e747261637420697320616c726561",
  "devdoc": {
    "kind": "dev",
    "methods": {
      "constructor": {
        "custom:oz-upgrades-unsafe-allow": "constructor"
      }
    },
    "stateVariables": {
      "PERCENTAGE_FACTOR": {
        "details": "factor for percentage that described in integer. It makes 10000 means 100%, and 20 means 0.2%;      Calculation formula: x * percentage / PERCENTAGE_FACTOR"
      }
    },
    "version": 1
  },
  "userdoc": {
    "kind": "user",
    "methods": {},
    "version": 1
  },
  "storageLayout": {
    "storage": [
      {
        "astId": 6,
        "contract": "contracts/BondFactory.sol:BondFactory",
        "label": "_initialized",
        "offset": 0,
        "slot": "0",
        "type": "t_uint8"
      },
      {
        "astId": 9,
        "contract": "contracts/BondFactory.sol:BondFactory",
        "label": "_initializing",
        "offset": 1,
        "slot": "0",
        "type": "t_bool"
      },
      {
        "astId": 3907,
        "contract": "contracts/BondFactory.sol:BondFactory",
        "label": "admin",
        "offset": 2,
        "slot": "0",
        "type": "t_address"
      },
      {
        "astId": 2518,
        "contract": "contracts/BondFactory.sol:BondFactory",
        "label": "bondImplementations",
        "offset": 0,
        "slot": "1",
        "type": "t_mapping(t_string_memory_ptr,t_address)"
      },
      {
        "astId": 2523,
        "contract": "contracts/BondFactory.sol:BondFactory",
        "label": "kindBondsMapping",
        "offset": 0,
        "slot": "2",
        "type": "t_mapping(t_string_memory_ptr,t_array(t_address)dyn_storage)"
      },
      {
        "astId": 2528,
        "contract": "contracts/BondFactory.sol:BondFactory",
        "label": "seriesBondsMapping",
        "offset": 0,
        "slot": "3",
        "type": "t_mapping(t_string_memory_ptr,t_array(t_address)dyn_storage)"
      },
      {
        "astId": 2531,
        "contract": "contracts/BondFactory.sol:BondFactory",
        "label": "bondKinds",
        "offset": 0,
        "slot": "4",
        "type": "t_array(t_string_storage)dyn_storage"
      },
      {
        "astId": 2534,
        "contract": "contracts/BondFactory.sol:BondFactory",
        "label": "bondSeries",
        "offset": 0,
        "slot": "5",
        "type": "t_array(t_string_storage)dyn_storage"
      },
      {
        "astId": 2538,
        "contract": "contracts/BondFactory.sol:BondFactory",
        "label": "isinBondMapping",
        "offset": 0,
        "slot": "6",
        "type": "t_mapping(t_string_memory_ptr,t_address)"
      },
      {
        "astId": 2543,
        "contract": "contracts/BondFactory.sol:BondFactory",
        "label": "bondPrices",
        "offset": 0,
        "slot": "7",
        "type": "t_mapping(t_address,t_struct(BondPrice)3883_storage)"
      }
    ],
    "types": {
      "t_address": {
        "encoding": "inplace",
        "label": "address",
        "numberOfBytes": "20"
      },
      "t_array(t_address)dyn_storage": {
        "base": "t_address",
        "encoding": "dynamic_array",
        "label": "address[]",
        "numberOfBytes": "32"
      },
      "t_array(t_string_storage)dyn_storage": {
        "base": "t_string_storage",
        "encoding": "dynamic_array",
        "label": "string[]",
        "numberOfBytes": "32"
      },
      "t_bool": {
        "encoding": "inplace",
        "label": "bool",
        "numberOfBytes": "1"
      },
      "t_mapping(t_address,t_struct(BondPrice)3883_storage)": {
        "encoding": "mapping",
        "key": "t_address",
        "label": "mapping(address => struct IBondFactory.BondPrice)",
        "numberOfBytes": "32",
        "value": "t_struct(BondPrice)3883_storage"
      },
      "t_mapping(t_string_memory_ptr,t_address)": {
        "encoding": "mapping",
        "key": "t_string_memory_ptr",
        "label": "mapping(string => address)",
        "numberOfBytes": "32",
        "value": "t_address"
      },
      "t_mapping(t_string_memory_ptr,t_array(t_address)dyn_storage)": {
        "encoding": "mapping",
        "key": "t_string_memory_ptr",
        "label": "mapping(string => address[])",
        "numberOfBytes": "32",
        "value": "t_array(t_address)dyn_storage"
      },
      "t_string_memory_ptr": {
        "encoding": "bytes",
        "label": "string",
        "numberOfBytes": "32"
      },
      "t_string_storage": {
        "encoding": "bytes",
        "label": "string",
        "numberOfBytes": "32"
      },
      "t_struct(BondPrice)3883_storage": {
        "encoding": "inplace",
        "label": "struct IBondFactory.BondPrice",
        "members": [
          {
            "astId": 3876,
            "contract": "contracts/BondFactory.sol:BondFactory",
            "label": "price",
            "offset": 0,
            "slot": "0",
            "type": "t_uint256"
          },
          {
            "astId": 3878,
            "contract": "contracts/BondFactory.sol:BondFactory",
            "label": "bid",
            "offset": 0,
            "slot": "1",
            "type": "t_uint256"
          },
          {
            "astId": 3880,
            "contract": "contracts/BondFactory.sol:BondFactory",
            "label": "ask",
            "offset": 0,
            "slot": "2",
            "type": "t_uint256"
          },
          {
            "astId": 3882,
            "contract": "contracts/BondFactory.sol:BondFactory",
            "label": "lastUpdated",
            "offset": 0,
            "slot": "3",
            "type": "t_uint256"
          }
        ],
        "numberOfBytes": "128"
      },
      "t_uint256": {
        "encoding": "inplace",
        "label": "uint256",
        "numberOfBytes": "32"
      },
      "t_uint8": {
        "encoding": "inplace",
        "label": "uint8",
        "numberOfBytes": "1"
      }
    }
  }
}