{
  "address": "0x8b90EF85FeAC96E7A2453FE14D5Cb331C2baD374",
  "abi": [
    {
      "inputs": [],
      "stateMutability": "nonpayable",
      "type": "constructor"
    },
    {
      "anonymous": false,
      "inputs": [
        {
          "indexed": true,
          "internalType": "address",
          "name": "owner",
          "type": "address"
        },
        {
          "indexed": true,
          "internalType": "address",
          "name": "spender",
          "type": "address"
        },
        {
          "indexed": false,
          "internalType": "uint256",
          "name": "value",
          "type": "uint256"
        }
      ],
      "name": "Approval",
      "type": "event"
    },
    {
      "anonymous": false,
      "inputs": [
        {
          "indexed": false,
          "internalType": "uint256",
          "name": "amount",
          "type": "uint256"
        },
        {
          "indexed": false,
          "internalType": "uint256",
          "name": "inventoryAmount",
          "type": "uint256"
        }
      ],
      "name": "BondGranted",
      "type": "event"
    },
    {
      "anonymous": false,
      "inputs": [
        {
          "indexed": true,
          "internalType": "address",
          "name": "account",
          "type": "address"
        },
        {
          "indexed": false,
          "internalType": "uint256",
          "name": "bondAmount",
          "type": "uint256"
        },
        {
          "indexed": false,
          "internalType": "uint256",
          "name": "underlyingAmount",
          "type": "uint256"
        }
      ],
      "name": "BondMinted",
      "type": "event"
    },
    {
      "anonymous": false,
      "inputs": [
        {
          "indexed": true,
          "internalType": "address",
          "name": "account",
          "type": "address"
        },
        {
          "indexed": false,
          "internalType": "uint256",
          "name": "amount",
          "type": "uint256"
        }
      ],
      "name": "BondRedeemed",
      "type": "event"
    },
    {
      "anonymous": false,
      "inputs": [
        {
          "indexed": true,
          "internalType": "address",
          "name": "account",
          "type": "address"
        },
        {
          "indexed": false,
          "internalType": "uint256",
          "name": "bondAmount",
          "type": "uint256"
        },
        {
          "indexed": false,
          "internalType": "uint256",
          "name": "underlyingAmount",
          "type": "uint256"
        }
      ],
      "name": "BondSold",
      "type": "event"
    },
    {
      "anonymous": false,
      "inputs": [
        {
          "indexed": false,
          "internalType": "uint8",
          "name": "version",
          "type": "uint8"
        }
      ],
      "name": "Initialized",
      "type": "event"
    },
    {
      "anonymous": false,
      "inputs": [
        {
          "indexed": true,
          "internalType": "address",
          "name": "from",
          "type": "address"
        },
        {
          "indexed": true,
          "internalType": "address",
          "name": "to",
          "type": "address"
        },
        {
          "indexed": false,
          "internalType": "uint256",
          "name": "value",
          "type": "uint256"
        }
      ],
      "name": "Transfer",
      "type": "event"
    },
    {
      "inputs": [],
      "name": "MIN_TRADING_AMOUNT",
      "outputs": [
        {
          "internalType": "uint256",
          "name": "",
          "type": "uint256"
        }
      ],
      "stateMutability": "view",
      "type": "function"
    },
    {
      "inputs": [
        {
          "internalType": "address",
          "name": "owner",
          "type": "address"
        },
        {
          "internalType": "address",
          "name": "spender",
          "type": "address"
        }
      ],
      "name": "allowance",
      "outputs": [
        {
          "internalType": "uint256",
          "name": "",
          "type": "uint256"
        }
      ],
      "stateMutability": "view",
      "type": "function"
    },
    {
      "inputs": [
        {
          "internalType": "uint256",
          "name": "bondAmount_",
          "type": "uint256"
        }
      ],
      "name": "amountToUnderlying",
      "outputs": [
        {
          "internalType": "uint256",
          "name": "",
          "type": "uint256"
        }
      ],
      "stateMutability": "view",
      "type": "function"
    },
    {
      "inputs": [
        {
          "internalType": "address",
          "name": "spender",
          "type": "address"
        },
        {
          "internalType": "uint256",
          "name": "amount",
          "type": "uint256"
        }
      ],
      "name": "approve",
      "outputs": [
        {
          "internalType": "bool",
          "name": "",
          "type": "bool"
        }
      ],
      "stateMutability": "nonpayable",
      "type": "function"
    },
    {
      "inputs": [
        {
          "internalType": "address",
          "name": "account",
          "type": "address"
        }
      ],
      "name": "balanceOf",
      "outputs": [
        {
          "internalType": "uint256",
          "name": "",
          "type": "uint256"
        }
      ],
      "stateMutability": "view",
      "type": "function"
    },
    {
      "inputs": [],
      "name": "decimals",
      "outputs": [
        {
          "internalType": "uint8",
          "name": "",
          "type": "uint8"
        }
      ],
      "stateMutability": "view",
      "type": "function"
    },
    {
      "inputs": [
        {
          "internalType": "address",
          "name": "spender",
          "type": "address"
        },
        {
          "internalType": "uint256",
          "name": "subtractedValue",
          "type": "uint256"
        }
      ],
      "name": "decreaseAllowance",
      "outputs": [
        {
          "internalType": "bool",
          "name": "",
          "type": "bool"
        }
      ],
      "stateMutability": "nonpayable",
      "type": "function"
    },
    {
      "inputs": [
        {
          "internalType": "contract IERC20Upgradeable",
          "name": "token_",
          "type": "address"
        },
        {
          "internalType": "address",
          "name": "to_",
          "type": "address"
        },
        {
          "internalType": "uint256",
          "name": "amount_",
          "type": "uint256"
        }
      ],
      "name": "emergencyWithdraw",
      "outputs": [],
      "stateMutability": "nonpayable",
      "type": "function"
    },
    {
      "inputs": [
        {
          "internalType": "uint256",
          "name": "bondAmount_",
          "type": "uint256"
        }
      ],
      "name": "faceValue",
      "outputs": [
        {
          "internalType": "uint256",
          "name": "",
          "type": "uint256"
        }
      ],
      "stateMutability": "view",
      "type": "function"
    },
    {
      "inputs": [],
      "name": "factory",
      "outputs": [
        {
          "internalType": "contract IBondFactory",
          "name": "",
          "type": "address"
        }
      ],
      "stateMutability": "view",
      "type": "function"
    },
    {
      "inputs": [],
      "name": "getPrice",
      "outputs": [
        {
          "internalType": "uint256",
          "name": "",
          "type": "uint256"
        }
      ],
      "stateMutability": "view",
      "type": "function"
    },
    {
      "inputs": [
        {
          "internalType": "uint256",
          "name": "amount_",
          "type": "uint256"
        }
      ],
      "name": "grant",
      "outputs": [],
      "stateMutability": "nonpayable",
      "type": "function"
    },
    {
      "inputs": [
        {
          "internalType": "address",
          "name": "spender",
          "type": "address"
        },
        {
          "internalType": "uint256",
          "name": "addedValue",
          "type": "uint256"
        }
      ],
      "name": "increaseAllowance",
      "outputs": [
        {
          "internalType": "bool",
          "name": "",
          "type": "bool"
        }
      ],
      "stateMutability": "nonpayable",
      "type": "function"
    },
    {
      "inputs": [
        {
          "internalType": "string",
          "name": "name_",
          "type": "string"
        },
        {
          "internalType": "string",
          "name": "symbol_",
          "type": "string"
        },
        {
          "internalType": "string",
          "name": "series_",
          "type": "string"
        },
        {
          "internalType": "address",
          "name": "factory_",
          "type": "address"
        },
        {
          "internalType": "contract IERC20Upgradeable",
          "name": "underlyingToken_",
          "type": "address"
        },
        {
          "internalType": "uint256",
          "name": "maturity_",
          "type": "uint256"
        }
      ],
      "name": "initialize",
      "outputs": [],
      "stateMutability": "nonpayable",
      "type": "function"
    },
    {
      "inputs": [],
      "name": "inventoryAmount",
      "outputs": [
        {
          "internalType": "uint256",
          "name": "",
          "type": "uint256"
        }
      ],
      "stateMutability": "view",
      "type": "function"
    },
    {
      "inputs": [],
      "name": "kind",
      "outputs": [
        {
          "internalType": "string",
          "name": "",
          "type": "string"
        }
      ],
      "stateMutability": "view",
      "type": "function"
    },
    {
      "inputs": [],
      "name": "maturity",
      "outputs": [
        {
          "internalType": "uint256",
          "name": "",
          "type": "uint256"
        }
      ],
      "stateMutability": "view",
      "type": "function"
    },
    {
      "inputs": [
        {
          "internalType": "address",
          "name": "account_",
          "type": "address"
        },
        {
          "internalType": "uint256",
          "name": "bondAmount_",
          "type": "uint256"
        }
      ],
      "name": "mintByBondAmount",
      "outputs": [
        {
          "internalType": "uint256",
          "name": "underlyingAmount",
          "type": "uint256"
        }
      ],
      "stateMutability": "nonpayable",
      "type": "function"
    },
    {
      "inputs": [
        {
          "internalType": "address",
          "name": "account_",
          "type": "address"
        },
        {
          "internalType": "uint256",
          "name": "underlyingAmount_",
          "type": "uint256"
        }
      ],
      "name": "mintByUnderlyingAmount",
      "outputs": [
        {
          "internalType": "uint256",
          "name": "bondAmount",
          "type": "uint256"
        }
      ],
      "stateMutability": "nonpayable",
      "type": "function"
    },
    {
      "inputs": [],
      "name": "name",
      "outputs": [
        {
          "internalType": "string",
          "name": "",
          "type": "string"
        }
      ],
      "stateMutability": "view",
      "type": "function"
    },
    {
      "inputs": [
        {
          "internalType": "uint256",
          "name": "bondAmount_",
          "type": "uint256"
        }
      ],
      "name": "previewMintByBondAmount",
      "outputs": [
        {
          "internalType": "uint256",
          "name": "underlyingAmount",
          "type": "uint256"
        }
      ],
      "stateMutability": "view",
      "type": "function"
    },
    {
      "inputs": [
        {
          "internalType": "uint256",
          "name": "underlyingAmount_",
          "type": "uint256"
        }
      ],
      "name": "previewMintByUnderlyingAmount",
      "outputs": [
        {
          "internalType": "uint256",
          "name": "bondAmount",
          "type": "uint256"
        }
      ],
      "stateMutability": "view",
      "type": "function"
    },
    {
      "inputs": [
        {
          "internalType": "uint256",
          "name": "bondAmount_",
          "type": "uint256"
        }
      ],
      "name": "previewSellByBondAmount",
      "outputs": [
        {
          "internalType": "uint256",
          "name": "underlyingAmount",
          "type": "uint256"
        }
      ],
      "stateMutability": "view",
      "type": "function"
    },
    {
      "inputs": [
        {
          "internalType": "uint256",
          "name": "bondAmount_",
          "type": "uint256"
        }
      ],
      "name": "redeem",
      "outputs": [],
      "stateMutability": "nonpayable",
      "type": "function"
    },
    {
      "inputs": [
        {
          "internalType": "address",
          "name": "account_",
          "type": "address"
        },
        {
          "internalType": "uint256",
          "name": "bondAmount_",
          "type": "uint256"
        }
      ],
      "name": "redeemFor",
      "outputs": [],
      "stateMutability": "nonpayable",
      "type": "function"
    },
    {
      "inputs": [],
      "name": "redeemedAmount",
      "outputs": [
        {
          "internalType": "uint256",
          "name": "",
          "type": "uint256"
        }
      ],
      "stateMutability": "view",
      "type": "function"
    },
    {
      "inputs": [
        {
          "internalType": "uint256",
          "name": "bondAmount_",
          "type": "uint256"
        }
      ],
      "name": "sellByBondAmount",
      "outputs": [
        {
          "internalType": "uint256",
          "name": "underlyingAmount",
          "type": "uint256"
        }
      ],
      "stateMutability": "nonpayable",
      "type": "function"
    },
    {
      "inputs": [],
      "name": "series",
      "outputs": [
        {
          "internalType": "string",
          "name": "",
          "type": "string"
        }
      ],
      "stateMutability": "view",
      "type": "function"
    },
    {
      "inputs": [],
      "name": "symbol",
      "outputs": [
        {
          "internalType": "string",
          "name": "",
          "type": "string"
        }
      ],
      "stateMutability": "view",
      "type": "function"
    },
    {
      "inputs": [],
      "name": "totalSupply",
      "outputs": [
        {
          "internalType": "uint256",
          "name": "",
          "type": "uint256"
        }
      ],
      "stateMutability": "view",
      "type": "function"
    },
    {
      "inputs": [
        {
          "internalType": "address",
          "name": "to",
          "type": "address"
        },
        {
          "internalType": "uint256",
          "name": "amount",
          "type": "uint256"
        }
      ],
      "name": "transfer",
      "outputs": [
        {
          "internalType": "bool",
          "name": "",
          "type": "bool"
        }
      ],
      "stateMutability": "nonpayable",
      "type": "function"
    },
    {
      "inputs": [
        {
          "internalType": "address",
          "name": "from",
          "type": "address"
        },
        {
          "internalType": "address",
          "name": "to",
          "type": "address"
        },
        {
          "internalType": "uint256",
          "name": "amount",
          "type": "uint256"
        }
      ],
      "name": "transferFrom",
      "outputs": [
        {
          "internalType": "bool",
          "name": "",
          "type": "bool"
        }
      ],
      "stateMutability": "nonpayable",
      "type": "function"
    },
    {
      "inputs": [
        {
          "internalType": "uint256",
          "name": "amount_",
          "type": "uint256"
        },
        {
          "internalType": "address",
          "name": "to_",
          "type": "address"
        }
      ],
      "name": "underlyingOut",
      "outputs": [],
      "stateMutability": "nonpayable",
      "type": "function"
    },
    {
      "inputs": [],
      "name": "underlyingToken",
      "outputs": [
        {
          "internalType": "contract IERC20Upgradeable",
          "name": "",
          "type": "address"
        }
      ],
      "stateMutability": "view",
      "type": "function"
    }
  ],
  "transactionHash": "0x3783086ac5181a6b97b0de64f21f9da3e9f65c6f6025e2941d978e9dd3dbb066",
  "args": [],
  "numDeployments": 8,
  "solcInputHash": "86b5d7bad88174195e885f97b1fed94c",
  "bytecode": "0x60806040523480156200001157600080fd5b50600062000020600162000087565b9050801562000039576000805461ff0019166101001790555b801562000080576000805461ff0019169055604051600181527f7f26b83ff96e1f2b6a682f133852f6798a09c465da95921460cefb38474024989060200160405180910390a15b50620001a8565b60008054610100900460ff161562000120578160ff166001148015620000c05750620000be306200019960201b620011c11760201c565b155b620001185760405162461bcd60e51b815260206004820152602e6024820152600080516020620023e083398151915260448201526d191e481a5b9a5d1a585b1a5e995960921b60648201526084015b60405180910390fd5b506000919050565b60005460ff8084169116106200017f5760405162461bcd60e51b815260206004820152602e6024820152600080516020620023e083398151915260448201526d191e481a5b9a5d1a585b1a5e995960921b60648201526084016200010f565b506000805460ff191660ff92909216919091179055600190565b6001600160a01b03163b151590565b61222880620001b86000396000f3fe608060405234801561001057600080fd5b50600436106102065760003560e01c806395d89b411161011a578063c45a0155116100ad578063e63ea4081161007c578063e63ea40814610455578063f12d870f14610468578063fc48e64214610470578063fde2ba8c14610483578063fe8dbd8e1461049657600080fd5b8063c45a015514610409578063da7b038b1461041c578063db006a751461042f578063dd62ed3e1461044257600080fd5b8063a457c2d7116100e9578063a457c2d7146103c7578063a7731842146103da578063a9059cbb146103e3578063c0da2885146103f657600080fd5b806395d89b411461039157806396e35cea1461039957806398d5fdca146103ac57806398ecd688146103b457600080fd5b806323b872dd1161019d578063395093511161016c578063395093511461031c5780633ce896b81461032f5780634cb4bdc91461034257806370a08231146103555780637a82a1981461037e57600080fd5b806323b872dd146102c65780632491510a146102d95780632495a599146102e2578063313ce5671461030d57600080fd5b80630d6c2618116101d95780630d6c261814610294578063160e3f3d146102a057806318160ddd146102b5578063204f83f9146102bd57600080fd5b806304baa00b1461020b57806306d914061461024857806306fdde0314610269578063095ea7b314610271575b600080fd5b61023260405180604001604052806008815260200167111a5cd8dbdd5b9d60c21b81525081565b60405161023f9190611c82565b60405180910390f35b61025b610256366004611cca565b6104a7565b60405190815260200161023f565b610232610563565b61028461027f366004611cca565b6105f5565b604051901515815260200161023f565b61025b64e8d4a5100081565b6102b36102ae366004611cf6565b61060d565b005b60355461025b565b61025b60995481565b6102846102d4366004611d0f565b61068e565b61025b609b5481565b6098546102f5906001600160a01b031681565b6040516001600160a01b03909116815260200161023f565b6040516012815260200161023f565b61028461032a366004611cca565b6106b4565b61025b61033d366004611cca565b6106d6565b61025b610350366004611cf6565b610780565b61025b610363366004611d50565b6001600160a01b031660009081526033602052604090205490565b6102b361038c366004611cca565b610993565b610232610acd565b6102b36103a7366004611e10565b610adc565b61025b610c12565b61025b6103c2366004611cf6565b610c93565b6102846103d5366004611cca565b610d60565b61025b609c5481565b6102846103f1366004611cca565b610de6565b61025b610404366004611cf6565b610df4565b6097546102f5906001600160a01b031681565b61025b61042a366004611cf6565b610f2d565b6102b361043d366004611cf6565b610f3e565b61025b610450366004611ec8565b610f4b565b6102b3610463366004611d0f565b610f76565b610232610fb9565b61025b61047e366004611cf6565b611047565b6102b3610491366004611f01565b61117c565b61025b6104a4366004611cf6565b90565b600060995442106104d35760405162461bcd60e51b81526004016104ca90611f26565b60405180910390fd5b6098546104eb906001600160a01b03163330856111d0565b6104f482611047565b905080609b60008282546105089190611f7e565b9091555061051890508382611241565b60408051828152602081018490526001600160a01b038516917f877d49304b52a404e1f7fe620a933370ab38d3d49a4daf24591f8750848310ca91015b60405180910390a292915050565b60606036805461057290611f95565b80601f016020809104026020016040519081016040528092919081815260200182805461059e90611f95565b80156105eb5780601f106105c0576101008083540402835291602001916105eb565b820191906000526020600020905b8154815290600101906020018083116105ce57829003601f168201915b5050505050905090565b600033610603818585611320565b5060019392505050565b6097546001600160a01b031633146106375760405162461bcd60e51b81526004016104ca90611fd0565b80609b60008282546106499190612007565b9091555050609b546040805183815260208101929092527f632d02909e5759576f4a85e32a3793720a7ca5319576cc41010c4217ddbad0e9910160405180910390a150565b60003361069c858285611444565b6106a78585856114b8565b60019150505b9392505050565b6000336106038185856106c78383610f4b565b6106d19190612007565b611320565b600060995442106106f95760405162461bcd60e51b81526004016104ca90611f26565b61070282610df4565b60985490915061071d906001600160a01b03163330846111d0565b81609b600082825461072f9190611f7e565b9091555061073f90508383611241565b60408051838152602081018390526001600160a01b038516917f877d49304b52a404e1f7fe620a933370ab38d3d49a4daf24591f8750848310ca9101610555565b600060995442106107a35760405162461bcd60e51b81526004016104ca90611f26565b60006107ad610c12565b116107ca5760405162461bcd60e51b81526004016104ca9061201f565b64e8d4a510008210156107ef5760405162461bcd60e51b81526004016104ca90612046565b3360009081526033602052604090205482111561084e5760405162461bcd60e51b815260206004820152601d60248201527f446973636f756e74426f6e643a20455843454544535f42414c414e434500000060448201526064016104ca565b609760009054906101000a90046001600160a01b03166001600160a01b031663dfb2866d6040518163ffffffff1660e01b815260040160206040518083038186803b15801561089c57600080fd5b505afa1580156108b0573d6000803e3d6000fd5b505050506040513d601f19601f820116820180604052508101906108d4919061207d565b6108dc610c12565b6108e69084612096565b6108f091906120b5565b6098546040516370a0823160e01b815230600482015291925082916001600160a01b03909116906370a082319060240160206040518083038186803b15801561093857600080fd5b505afa15801561094c573d6000803e3d6000fd5b505050506040513d601f19601f82011682018060405250810190610970919061207d565b101561098e5760405162461bcd60e51b81526004016104ca906120d7565b919050565b6099544210156109ef5760405162461bcd60e51b815260206004820152602160248201527f446973636f756e74426f6e643a204d5553545f41465445525f4d4154555249546044820152605960f81b60648201526084016104ca565b33600090815260336020526040902054811115610a4e5760405162461bcd60e51b815260206004820152601d60248201527f446973636f756e74426f6e643a20455843454544535f42414c414e434500000060448201526064016104ca565b610a583382611686565b80609c6000828254610a6a9190612007565b9091555050609854610a86906001600160a01b031683836117d4565b816001600160a01b03167fbbb59c50b3cd05fe4982a9bc1fbab45bd421ac707f4fba6b080522e3a9cc03b382604051610ac191815260200190565b60405180910390a25050565b60606037805461057290611f95565b6000610ae86001611804565b90508015610b00576000805461ff0019166101001790555b610b0a878761188c565b610b126118bd565b4282118015610b2e5750610b2a426325980600612007565b8211155b610b7a5760405162461bcd60e51b815260206004820152601e60248201527f446973636f756e74426f6e643a20494e56414c49445f4d41545552495459000060448201526064016104ca565b8451610b8d90609a906020880190611bbd565b50609880546001600160a01b038086166001600160a01b031992831617909255609780549287169290911691909117905560998290558015610c09576000805461ff0019169055604051600181527f7f26b83ff96e1f2b6a682f133852f6798a09c465da95921460cefb38474024989060200160405180910390a15b50505050505050565b6097546040516341976e0960e01b81523060048201526000916001600160a01b0316906341976e099060240160206040518083038186803b158015610c5657600080fd5b505afa158015610c6a573d6000803e3d6000fd5b505050506040513d601f19601f82011682018060405250810190610c8e919061207d565b905090565b60006099544210610cb65760405162461bcd60e51b81526004016104ca90611f26565b6000610cc0610c12565b11610cdd5760405162461bcd60e51b81526004016104ca9061201f565b610ce682610780565b9050610cf23383611686565b81609b6000828254610d049190612007565b9091555050609854610d20906001600160a01b031633836117d4565b604080518381526020810183905233917f3dbe987d8c318f20a1d550dd52db9a8a20cc25aab2f175c7ccafb306ee48d210910160405180910390a2919050565b60003381610d6e8286610f4b565b905083811015610dce5760405162461bcd60e51b815260206004820152602560248201527f45524332303a2064656372656173656420616c6c6f77616e63652062656c6f77604482015264207a65726f60d81b60648201526084016104ca565b610ddb8286868403611320565b506001949350505050565b6000336106038185856114b8565b60006099544210610e175760405162461bcd60e51b81526004016104ca90611f26565b6000610e21610c12565b11610e3e5760405162461bcd60e51b81526004016104ca9061201f565b64e8d4a51000821015610e635760405162461bcd60e51b81526004016104ca90612046565b81609b541015610e855760405162461bcd60e51b81526004016104ca906120d7565b609760009054906101000a90046001600160a01b03166001600160a01b031663dfb2866d6040518163ffffffff1660e01b815260040160206040518083038186803b158015610ed357600080fd5b505afa158015610ee7573d6000803e3d6000fd5b505050506040513d601f19601f82011682018060405250810190610f0b919061207d565b610f13610c12565b610f1d9084612096565b610f2791906120b5565b92915050565b60006099544210610e855781610f27565b610f483382610993565b50565b6001600160a01b03918216600090815260346020908152604080832093909416825291909152205490565b6097546001600160a01b03163314610fa05760405162461bcd60e51b81526004016104ca90611fd0565b610fb46001600160a01b03841683836117d4565b505050565b609a8054610fc690611f95565b80601f0160208091040260200160405190810160405280929190818152602001828054610ff290611f95565b801561103f5780601f106110145761010080835404028352916020019161103f565b820191906000526020600020905b81548152906001019060200180831161102257829003601f168201915b505050505081565b6000609954421061106a5760405162461bcd60e51b81526004016104ca90611f26565b6000611074610c12565b116110915760405162461bcd60e51b81526004016104ca9061201f565b64e8d4a510008210156110b65760405162461bcd60e51b81526004016104ca90612046565b6110be610c12565b609760009054906101000a90046001600160a01b03166001600160a01b031663dfb2866d6040518163ffffffff1660e01b815260040160206040518083038186803b15801561110c57600080fd5b505afa158015611120573d6000803e3d6000fd5b505050506040513d601f19601f82011682018060405250810190611144919061207d565b61114e9084612096565b61115891906120b5565b905080609b54101561098e5760405162461bcd60e51b81526004016104ca906120d7565b6097546001600160a01b031633146111a65760405162461bcd60e51b81526004016104ca90611fd0565b6098546111bd906001600160a01b031682846117d4565b5050565b6001600160a01b03163b151590565b6040516001600160a01b038085166024830152831660448201526064810182905261123b9085906323b872dd60e01b906084015b60408051601f198184030181529190526020810180516001600160e01b03166001600160e01b0319909316929092179091526118ee565b50505050565b6001600160a01b0382166112975760405162461bcd60e51b815260206004820152601f60248201527f45524332303a206d696e7420746f20746865207a65726f20616464726573730060448201526064016104ca565b80603560008282546112a99190612007565b90915550506001600160a01b038216600090815260336020526040812080548392906112d6908490612007565b90915550506040518181526001600160a01b038316906000907fddf252ad1be2c89b69c2b068fc378daa952ba7f163c4a11628f55a4df523b3ef9060200160405180910390a35050565b6001600160a01b0383166113825760405162461bcd60e51b8152602060048201526024808201527f45524332303a20617070726f76652066726f6d20746865207a65726f206164646044820152637265737360e01b60648201526084016104ca565b6001600160a01b0382166113e35760405162461bcd60e51b815260206004820152602260248201527f45524332303a20617070726f766520746f20746865207a65726f206164647265604482015261737360f01b60648201526084016104ca565b6001600160a01b0383811660008181526034602090815260408083209487168084529482529182902085905590518481527f8c5be1e5ebec7d5bd14f71427d1e84f3dd0314c0f7b2291e5b200ac8c7c3b925910160405180910390a3505050565b60006114508484610f4b565b9050600019811461123b57818110156114ab5760405162461bcd60e51b815260206004820152601d60248201527f45524332303a20696e73756666696369656e7420616c6c6f77616e636500000060448201526064016104ca565b61123b8484848403611320565b6001600160a01b03831661151c5760405162461bcd60e51b815260206004820152602560248201527f45524332303a207472616e736665722066726f6d20746865207a65726f206164604482015264647265737360d81b60648201526084016104ca565b6001600160a01b03821661157e5760405162461bcd60e51b815260206004820152602360248201527f45524332303a207472616e7366657220746f20746865207a65726f206164647260448201526265737360e81b60648201526084016104ca565b6001600160a01b038316600090815260336020526040902054818110156115f65760405162461bcd60e51b815260206004820152602660248201527f45524332303a207472616e7366657220616d6f756e7420657863656564732062604482015265616c616e636560d01b60648201526084016104ca565b6001600160a01b0380851660009081526033602052604080822085850390559185168152908120805484929061162d908490612007565b92505081905550826001600160a01b0316846001600160a01b03167fddf252ad1be2c89b69c2b068fc378daa952ba7f163c4a11628f55a4df523b3ef8460405161167991815260200190565b60405180910390a361123b565b6001600160a01b0382166116e65760405162461bcd60e51b815260206004820152602160248201527f45524332303a206275726e2066726f6d20746865207a65726f206164647265736044820152607360f81b60648201526084016104ca565b6001600160a01b0382166000908152603360205260409020548181101561175a5760405162461bcd60e51b815260206004820152602260248201527f45524332303a206275726e20616d6f756e7420657863656564732062616c616e604482015261636560f01b60648201526084016104ca565b6001600160a01b0383166000908152603360205260408120838303905560358054849290611789908490611f7e565b90915550506040518281526000906001600160a01b038516907fddf252ad1be2c89b69c2b068fc378daa952ba7f163c4a11628f55a4df523b3ef9060200160405180910390a3505050565b6040516001600160a01b038316602482015260448101829052610fb490849063a9059cbb60e01b90606401611204565b60008054610100900460ff161561184b578160ff1660011480156118275750303b155b6118435760405162461bcd60e51b81526004016104ca9061211b565b506000919050565b60005460ff8084169116106118725760405162461bcd60e51b81526004016104ca9061211b565b506000805460ff191660ff92909216919091179055600190565b600054610100900460ff166118b35760405162461bcd60e51b81526004016104ca90612169565b6111bd82826119c0565b600054610100900460ff166118e45760405162461bcd60e51b81526004016104ca90612169565b6118ec611a0e565b565b6000611943826040518060400160405280602081526020017f5361666545524332303a206c6f772d6c6576656c2063616c6c206661696c6564815250856001600160a01b0316611a3c9092919063ffffffff16565b805190915015610fb4578080602001905181019061196191906121b4565b610fb45760405162461bcd60e51b815260206004820152602a60248201527f5361666545524332303a204552433230206f7065726174696f6e20646964206e6044820152691bdd081cdd58d8d9595960b21b60648201526084016104ca565b600054610100900460ff166119e75760405162461bcd60e51b81526004016104ca90612169565b81516119fa906036906020850190611bbd565b508051610fb4906037906020840190611bbd565b600054610100900460ff16611a355760405162461bcd60e51b81526004016104ca90612169565b6001606555565b6060611a4b8484600085611a53565b949350505050565b606082471015611ab45760405162461bcd60e51b815260206004820152602660248201527f416464726573733a20696e73756666696369656e742062616c616e636520666f6044820152651c8818d85b1b60d21b60648201526084016104ca565b6001600160a01b0385163b611b0b5760405162461bcd60e51b815260206004820152601d60248201527f416464726573733a2063616c6c20746f206e6f6e2d636f6e747261637400000060448201526064016104ca565b600080866001600160a01b03168587604051611b2791906121d6565b60006040518083038185875af1925050503d8060008114611b64576040519150601f19603f3d011682016040523d82523d6000602084013e611b69565b606091505b5091509150611b79828286611b84565b979650505050505050565b60608315611b935750816106ad565b825115611ba35782518084602001fd5b8160405162461bcd60e51b81526004016104ca9190611c82565b828054611bc990611f95565b90600052602060002090601f016020900481019282611beb5760008555611c31565b82601f10611c0457805160ff1916838001178555611c31565b82800160010185558215611c31579182015b82811115611c31578251825591602001919060010190611c16565b50611c3d929150611c41565b5090565b5b80821115611c3d5760008155600101611c42565b60005b83811015611c71578181015183820152602001611c59565b8381111561123b5750506000910152565b6020815260008251806020840152611ca1816040850160208701611c56565b601f01601f19169190910160400192915050565b6001600160a01b0381168114610f4857600080fd5b60008060408385031215611cdd57600080fd5b8235611ce881611cb5565b946020939093013593505050565b600060208284031215611d0857600080fd5b5035919050565b600080600060608486031215611d2457600080fd5b8335611d2f81611cb5565b92506020840135611d3f81611cb5565b929592945050506040919091013590565b600060208284031215611d6257600080fd5b81356106ad81611cb5565b634e487b7160e01b600052604160045260246000fd5b600082601f830112611d9457600080fd5b813567ffffffffffffffff80821115611daf57611daf611d6d565b604051601f8301601f19908116603f01168101908282118183101715611dd757611dd7611d6d565b81604052838152866020858801011115611df057600080fd5b836020870160208301376000602085830101528094505050505092915050565b60008060008060008060c08789031215611e2957600080fd5b863567ffffffffffffffff80821115611e4157600080fd5b611e4d8a838b01611d83565b97506020890135915080821115611e6357600080fd5b611e6f8a838b01611d83565b96506040890135915080821115611e8557600080fd5b50611e9289828a01611d83565b9450506060870135611ea381611cb5565b92506080870135611eb381611cb5565b8092505060a087013590509295509295509295565b60008060408385031215611edb57600080fd5b8235611ee681611cb5565b91506020830135611ef681611cb5565b809150509250929050565b60008060408385031215611f1457600080fd5b823591506020830135611ef681611cb5565b60208082526022908201527f446973636f756e74426f6e643a204d5553545f4245464f52455f4d4154555249604082015261545960f01b606082015260800190565b634e487b7160e01b600052601160045260246000fd5b600082821015611f9057611f90611f68565b500390565b600181811c90821680611fa957607f821691505b60208210811415611fca57634e487b7160e01b600052602260045260246000fd5b50919050565b6020808252601a908201527f446973636f756e74426f6e643a20554e415554484f52495a4544000000000000604082015260600190565b6000821982111561201a5761201a611f68565b500190565b6020808252600d908201526c494e56414c49445f505249434560981b604082015260600190565b6020808252601c908201527f446973636f756e74426f6e643a20414d4f554e545f544f4f5f4c4f5700000000604082015260600190565b60006020828403121561208f57600080fd5b5051919050565b60008160001904831182151516156120b0576120b0611f68565b500290565b6000826120d257634e487b7160e01b600052601260045260246000fd5b500490565b60208082526024908201527f446973636f756e74426f6e643a20494e53554646494349454e545f4c495155496040820152634449545960e01b606082015260800190565b6020808252602e908201527f496e697469616c697a61626c653a20636f6e747261637420697320616c72656160408201526d191e481a5b9a5d1a585b1a5e995960921b606082015260800190565b6020808252602b908201527f496e697469616c697a61626c653a20636f6e7472616374206973206e6f74206960408201526a6e697469616c697a696e6760a81b606082015260800190565b6000602082840312156121c657600080fd5b815180151581146106ad57600080fd5b600082516121e8818460208701611c56565b919091019291505056fea26469706673582212200271260375176e7f9e8b338e9e48b6eaa2d859cdce139e2cd0ea55af762055b064736f6c63430008090033496e697469616c697a61626c653a20636f6e747261637420697320616c726561",
  "devdoc": {
    "kind": "dev",
    "methods": {
      "allowance(address,address)": {
        "details": "See {IERC20-allowance}."
      },
      "approve(address,uint256)": {
        "details": "See {IERC20-approve}. NOTE: If `amount` is the maximum `uint256`, the allowance is not updated on `transferFrom`. This is semantically equivalent to an infinite approval. Requirements: - `spender` cannot be the zero address."
      },
      "balanceOf(address)": {
        "details": "See {IERC20-balanceOf}."
      },
      "decimals()": {
        "details": "Returns the number of decimals used to get its user representation. For example, if `decimals` equals `2`, a balance of `505` tokens should be displayed to a user as `5.05` (`505 / 10 ** 2`). Tokens usually opt for a value of 18, imitating the relationship between Ether and Wei. This is the value {ERC20} uses, unless this function is overridden; NOTE: This information is only used for _display_ purposes: it in no way affects any of the arithmetic of the contract, including {IERC20-balanceOf} and {IERC20-transfer}."
      },
      "decreaseAllowance(address,uint256)": {
        "details": "Atomically decreases the allowance granted to `spender` by the caller. This is an alternative to {approve} that can be used as a mitigation for problems described in {IERC20-approve}. Emits an {Approval} event indicating the updated allowance. Requirements: - `spender` cannot be the zero address. - `spender` must have allowance for the caller of at least `subtractedValue`."
      },
      "grant(uint256)": {
        "details": "grant specific amount of bond for user mint."
      },
      "increaseAllowance(address,uint256)": {
        "details": "Atomically increases the allowance granted to `spender` by the caller. This is an alternative to {approve} that can be used as a mitigation for problems described in {IERC20-approve}. Emits an {Approval} event indicating the updated allowance. Requirements: - `spender` cannot be the zero address."
      },
      "name()": {
        "details": "Returns the name of the token."
      },
      "symbol()": {
        "details": "Returns the symbol of the token, usually a shorter version of the name."
      },
      "totalSupply()": {
        "details": "See {IERC20-totalSupply}."
      },
      "transfer(address,uint256)": {
        "details": "See {IERC20-transfer}. Requirements: - `to` cannot be the zero address. - the caller must have a balance of at least `amount`."
      },
      "transferFrom(address,address,uint256)": {
        "details": "See {IERC20-transferFrom}. Emits an {Approval} event indicating the updated allowance. This is not required by the EIP. See the note at the beginning of {ERC20}. NOTE: Does not update the allowance if the current allowance is the maximum `uint256`. Requirements: - `from` and `to` cannot be the zero address. - `from` must have a balance of at least `amount`. - the caller must have allowance for ``from``'s tokens of at least `amount`."
      }
    },
    "version": 1
  },
  "userdoc": {
    "kind": "user",
    "methods": {},
    "version": 1
  },
  "storageLayout": {
    "storage": [
      {
        "astId": 6,
        "contract": "contracts/DiscountBond.sol:DiscountBond",
        "label": "_initialized",
        "offset": 0,
        "slot": "0",
        "type": "t_uint8"
      },
      {
        "astId": 9,
        "contract": "contracts/DiscountBond.sol:DiscountBond",
        "label": "_initializing",
        "offset": 1,
        "slot": "0",
        "type": "t_bool"
      },
      {
        "astId": 1533,
        "contract": "contracts/DiscountBond.sol:DiscountBond",
        "label": "__gap",
        "offset": 0,
        "slot": "1",
        "type": "t_array(t_uint256)50_storage"
      },
      {
        "astId": 330,
        "contract": "contracts/DiscountBond.sol:DiscountBond",
        "label": "_balances",
        "offset": 0,
        "slot": "51",
        "type": "t_mapping(t_address,t_uint256)"
      },
      {
        "astId": 336,
        "contract": "contracts/DiscountBond.sol:DiscountBond",
        "label": "_allowances",
        "offset": 0,
        "slot": "52",
        "type": "t_mapping(t_address,t_mapping(t_address,t_uint256))"
      },
      {
        "astId": 338,
        "contract": "contracts/DiscountBond.sol:DiscountBond",
        "label": "_totalSupply",
        "offset": 0,
        "slot": "53",
        "type": "t_uint256"
      },
      {
        "astId": 340,
        "contract": "contracts/DiscountBond.sol:DiscountBond",
        "label": "_name",
        "offset": 0,
        "slot": "54",
        "type": "t_string_storage"
      },
      {
        "astId": 342,
        "contract": "contracts/DiscountBond.sol:DiscountBond",
        "label": "_symbol",
        "offset": 0,
        "slot": "55",
        "type": "t_string_storage"
      },
      {
        "astId": 921,
        "contract": "contracts/DiscountBond.sol:DiscountBond",
        "label": "__gap",
        "offset": 0,
        "slot": "56",
        "type": "t_array(t_uint256)45_storage"
      },
      {
        "astId": 266,
        "contract": "contracts/DiscountBond.sol:DiscountBond",
        "label": "_status",
        "offset": 0,
        "slot": "101",
        "type": "t_uint256"
      },
      {
        "astId": 310,
        "contract": "contracts/DiscountBond.sol:DiscountBond",
        "label": "__gap",
        "offset": 0,
        "slot": "102",
        "type": "t_array(t_uint256)49_storage"
      },
      {
        "astId": 3097,
        "contract": "contracts/DiscountBond.sol:DiscountBond",
        "label": "factory",
        "offset": 0,
        "slot": "151",
        "type": "t_contract(IBondFactory)3756"
      },
      {
        "astId": 3100,
        "contract": "contracts/DiscountBond.sol:DiscountBond",
        "label": "underlyingToken",
        "offset": 0,
        "slot": "152",
        "type": "t_contract(IERC20Upgradeable)1000"
      },
      {
        "astId": 3102,
        "contract": "contracts/DiscountBond.sol:DiscountBond",
        "label": "maturity",
        "offset": 0,
        "slot": "153",
        "type": "t_uint256"
      },
      {
        "astId": 3104,
        "contract": "contracts/DiscountBond.sol:DiscountBond",
        "label": "series",
        "offset": 0,
        "slot": "154",
        "type": "t_string_storage"
      },
      {
        "astId": 3106,
        "contract": "contracts/DiscountBond.sol:DiscountBond",
        "label": "inventoryAmount",
        "offset": 0,
        "slot": "155",
        "type": "t_uint256"
      },
      {
        "astId": 3108,
        "contract": "contracts/DiscountBond.sol:DiscountBond",
        "label": "redeemedAmount",
        "offset": 0,
        "slot": "156",
        "type": "t_uint256"
      }
    ],
    "types": {
      "t_address": {
        "encoding": "inplace",
        "label": "address",
        "numberOfBytes": "20"
      },
      "t_array(t_uint256)45_storage": {
        "base": "t_uint256",
        "encoding": "inplace",
        "label": "uint256[45]",
        "numberOfBytes": "1440"
      },
      "t_array(t_uint256)49_storage": {
        "base": "t_uint256",
        "encoding": "inplace",
        "label": "uint256[49]",
        "numberOfBytes": "1568"
      },
      "t_array(t_uint256)50_storage": {
        "base": "t_uint256",
        "encoding": "inplace",
        "label": "uint256[50]",
        "numberOfBytes": "1600"
      },
      "t_bool": {
        "encoding": "inplace",
        "label": "bool",
        "numberOfBytes": "1"
      },
      "t_contract(IBondFactory)3756": {
        "encoding": "inplace",
        "label": "contract IBondFactory",
        "numberOfBytes": "20"
      },
      "t_contract(IERC20Upgradeable)1000": {
        "encoding": "inplace",
        "label": "contract IERC20Upgradeable",
        "numberOfBytes": "20"
      },
      "t_mapping(t_address,t_mapping(t_address,t_uint256))": {
        "encoding": "mapping",
        "key": "t_address",
        "label": "mapping(address => mapping(address => uint256))",
        "numberOfBytes": "32",
        "value": "t_mapping(t_address,t_uint256)"
      },
      "t_mapping(t_address,t_uint256)": {
        "encoding": "mapping",
        "key": "t_address",
        "label": "mapping(address => uint256)",
        "numberOfBytes": "32",
        "value": "t_uint256"
      },
      "t_string_storage": {
        "encoding": "bytes",
        "label": "string",
        "numberOfBytes": "32"
      },
      "t_uint256": {
        "encoding": "inplace",
        "label": "uint256",
        "numberOfBytes": "32"
      },
      "t_uint8": {
        "encoding": "inplace",
        "label": "uint8",
        "numberOfBytes": "1"
      }
    }
  }
}