{
  "address": "0xf7503447779de60706809d35526E52b9c96E2D16",
  "abi": [
    {
      "inputs": [],
      "stateMutability": "nonpayable",
      "type": "constructor"
    },
    {
      "anonymous": false,
      "inputs": [
        {
          "indexed": false,
          "internalType": "address",
          "name": "liquidator",
          "type": "address"
        },
        {
          "indexed": false,
          "internalType": "bool",
          "name": "allowed",
          "type": "bool"
        }
      ],
      "name": "AllowedLiquidatorChanged",
      "type": "event"
    },
    {
      "anonymous": false,
      "inputs": [
        {
          "indexed": false,
          "internalType": "uint256",
          "name": "collateralRate",
          "type": "uint256"
        }
      ],
      "name": "CollateralRateChanged",
      "type": "event"
    },
    {
      "anonymous": false,
      "inputs": [
        {
          "indexed": true,
          "internalType": "address",
          "name": "dToken",
          "type": "address"
        },
        {
          "indexed": false,
          "internalType": "address",
          "name": "oldVault",
          "type": "address"
        },
        {
          "indexed": false,
          "internalType": "address",
          "name": "newVault",
          "type": "address"
        },
        {
          "indexed": false,
          "internalType": "uint256",
          "name": "vtype",
          "type": "uint256"
        }
      ],
      "name": "DTokenVaultChanged",
      "type": "event"
    },
    {
      "anonymous": false,
      "inputs": [
        {
          "indexed": false,
          "internalType": "address",
          "name": "vault",
          "type": "address"
        },
        {
          "indexed": false,
          "internalType": "enum IController.ValidVault",
          "name": "state",
          "type": "uint8"
        }
      ],
      "name": "InitValidVault",
      "type": "event"
    },
    {
      "anonymous": false,
      "inputs": [
        {
          "indexed": false,
          "internalType": "uint8",
          "name": "version",
          "type": "uint8"
        }
      ],
      "name": "Initialized",
      "type": "event"
    },
    {
      "anonymous": false,
      "inputs": [
        {
          "indexed": false,
          "internalType": "uint256",
          "name": "liquidateRate",
          "type": "uint256"
        }
      ],
      "name": "LiquidateRateChanged",
      "type": "event"
    },
    {
      "anonymous": false,
      "inputs": [
        {
          "indexed": false,
          "internalType": "bool",
          "name": "open",
          "type": "bool"
        }
      ],
      "name": "OpenLiquidateChanged",
      "type": "event"
    },
    {
      "anonymous": false,
      "inputs": [
        {
          "indexed": true,
          "internalType": "address",
          "name": "previousOwner",
          "type": "address"
        },
        {
          "indexed": true,
          "internalType": "address",
          "name": "newOwner",
          "type": "address"
        }
      ],
      "name": "OwnershipTransferred",
      "type": "event"
    },
    {
      "anonymous": false,
      "inputs": [
        {
          "indexed": false,
          "internalType": "address",
          "name": "user",
          "type": "address"
        },
        {
          "indexed": false,
          "internalType": "uint256",
          "name": "amount",
          "type": "uint256"
        }
      ],
      "name": "ReleaseWithDebit",
      "type": "event"
    },
    {
      "anonymous": false,
      "inputs": [
        {
          "indexed": false,
          "internalType": "address",
          "name": "vault",
          "type": "address"
        },
        {
          "indexed": false,
          "internalType": "address",
          "name": "user",
          "type": "address"
        },
        {
          "indexed": false,
          "internalType": "enum IController.ValidVault",
          "name": "state",
          "type": "uint8"
        }
      ],
      "name": "SetValidVault",
      "type": "event"
    },
    {
      "anonymous": false,
      "inputs": [
        {
          "indexed": false,
          "internalType": "address",
          "name": "vault",
          "type": "address"
        },
        {
          "components": [
            {
              "internalType": "bool",
              "name": "enabled",
              "type": "bool"
            },
            {
              "internalType": "bool",
              "name": "enableDeposit",
              "type": "bool"
            },
            {
              "internalType": "bool",
              "name": "enableWithdraw",
              "type": "bool"
            },
            {
              "internalType": "bool",
              "name": "enableBorrow",
              "type": "bool"
            },
            {
              "internalType": "bool",
              "name": "enableRepay",
              "type": "bool"
            },
            {
              "internalType": "bool",
              "name": "enableLiquidate",
              "type": "bool"
            }
          ],
          "indexed": false,
          "internalType": "struct AppController.VaultState",
          "name": "state",
          "type": "tuple"
        }
      ],
      "name": "SetVaultStates",
      "type": "event"
    },
    {
      "anonymous": false,
      "inputs": [
        {
          "indexed": true,
          "internalType": "address",
          "name": "underlying",
          "type": "address"
        },
        {
          "indexed": false,
          "internalType": "address",
          "name": "oldDToken",
          "type": "address"
        },
        {
          "indexed": false,
          "internalType": "address",
          "name": "newDToken",
          "type": "address"
        }
      ],
      "name": "UnderlyingDTokenChanged",
      "type": "event"
    },
    {
      "anonymous": false,
      "inputs": [
        {
          "indexed": true,
          "internalType": "address",
          "name": "underlying",
          "type": "address"
        },
        {
          "indexed": false,
          "internalType": "address",
          "name": "oldStrage",
          "type": "address"
        },
        {
          "indexed": false,
          "internalType": "address",
          "name": "newDToken",
          "type": "address"
        },
        {
          "indexed": false,
          "internalType": "uint256",
          "name": "stype",
          "type": "uint256"
        }
      ],
      "name": "UnderlyingStrategyChanged",
      "type": "event"
    },
    {
      "anonymous": false,
      "inputs": [
        {
          "indexed": true,
          "internalType": "address",
          "name": "underlying",
          "type": "address"
        },
        {
          "indexed": false,
          "internalType": "address",
          "name": "oracle",
          "type": "address"
        },
        {
          "indexed": false,
          "internalType": "uint256",
          "name": "discount",
          "type": "uint256"
        },
        {
          "indexed": false,
          "internalType": "uint256",
          "name": "premium",
          "type": "uint256"
        }
      ],
      "name": "ValueConfChanged",
      "type": "event"
    },
    {
      "inputs": [
        {
          "internalType": "address",
          "name": "",
          "type": "address"
        }
      ],
      "name": "allowedLiquidator",
      "outputs": [
        {
          "internalType": "bool",
          "name": "",
          "type": "bool"
        }
      ],
      "stateMutability": "view",
      "type": "function"
    },
    {
      "inputs": [
        {
          "internalType": "address",
          "name": "_user",
          "type": "address"
        },
        {
          "internalType": "address",
          "name": "_vault",
          "type": "address"
        },
        {
          "internalType": "uint256",
          "name": "_amount",
          "type": "uint256"
        }
      ],
      "name": "beforeBorrow",
      "outputs": [],
      "stateMutability": "view",
      "type": "function"
    },
    {
      "inputs": [
        {
          "internalType": "address",
          "name": "",
          "type": "address"
        },
        {
          "internalType": "address",
          "name": "_vault",
          "type": "address"
        },
        {
          "internalType": "uint256",
          "name": "",
          "type": "uint256"
        }
      ],
      "name": "beforeDeposit",
      "outputs": [],
      "stateMutability": "view",
      "type": "function"
    },
    {
      "inputs": [
        {
          "internalType": "address",
          "name": "_repayer",
          "type": "address"
        },
        {
          "internalType": "address",
          "name": "_vault",
          "type": "address"
        },
        {
          "internalType": "uint256",
          "name": "_amount",
          "type": "uint256"
        }
      ],
      "name": "beforeRepay",
      "outputs": [],
      "stateMutability": "view",
      "type": "function"
    },
    {
      "inputs": [
        {
          "internalType": "address",
          "name": "_user",
          "type": "address"
        },
        {
          "internalType": "address",
          "name": "_vault",
          "type": "address"
        },
        {
          "internalType": "uint256",
          "name": "_amount",
          "type": "uint256"
        }
      ],
      "name": "beforeWithdraw",
      "outputs": [],
      "stateMutability": "view",
      "type": "function"
    },
    {
      "inputs": [],
      "name": "collateralRate",
      "outputs": [
        {
          "internalType": "uint256",
          "name": "",
          "type": "uint256"
        }
      ],
      "stateMutability": "view",
      "type": "function"
    },
    {
      "inputs": [
        {
          "internalType": "address",
          "name": "",
          "type": "address"
        }
      ],
      "name": "dyTokenVaults",
      "outputs": [
        {
          "internalType": "address",
          "name": "",
          "type": "address"
        }
      ],
      "stateMutability": "view",
      "type": "function"
    },
    {
      "inputs": [
        {
          "internalType": "address",
          "name": "",
          "type": "address"
        }
      ],
      "name": "dyTokens",
      "outputs": [
        {
          "internalType": "address",
          "name": "",
          "type": "address"
        }
      ],
      "stateMutability": "view",
      "type": "function"
    },
    {
      "inputs": [
        {
          "internalType": "address",
          "name": "_underlying",
          "type": "address"
        }
      ],
      "name": "emergencyWithdrawAll",
      "outputs": [],
      "stateMutability": "nonpayable",
      "type": "function"
    },
    {
      "inputs": [
        {
          "internalType": "address",
          "name": "_user",
          "type": "address"
        },
        {
          "internalType": "bool",
          "name": "isDepositVault",
          "type": "bool"
        }
      ],
      "name": "exitVault",
      "outputs": [],
      "stateMutability": "nonpayable",
      "type": "function"
    },
    {
      "inputs": [
        {
          "internalType": "address",
          "name": "_underlying",
          "type": "address"
        }
      ],
      "name": "getValueConf",
      "outputs": [
        {
          "internalType": "address",
          "name": "oracle",
          "type": "address"
        },
        {
          "internalType": "uint16",
          "name": "dr",
          "type": "uint16"
        },
        {
          "internalType": "uint16",
          "name": "pr",
          "type": "uint16"
        }
      ],
      "stateMutability": "view",
      "type": "function"
    },
    {
      "inputs": [
        {
          "internalType": "address",
          "name": "token0",
          "type": "address"
        },
        {
          "internalType": "address",
          "name": "token1",
          "type": "address"
        }
      ],
      "name": "getValueConfs",
      "outputs": [
        {
          "internalType": "address",
          "name": "oracle0",
          "type": "address"
        },
        {
          "internalType": "uint16",
          "name": "dr0",
          "type": "uint16"
        },
        {
          "internalType": "uint16",
          "name": "pr0",
          "type": "uint16"
        },
        {
          "internalType": "address",
          "name": "oracle1",
          "type": "address"
        },
        {
          "internalType": "uint16",
          "name": "dr1",
          "type": "uint16"
        },
        {
          "internalType": "uint16",
          "name": "pr1",
          "type": "uint16"
        }
      ],
      "stateMutability": "view",
      "type": "function"
    },
    {
      "inputs": [],
      "name": "globalVaultState",
      "outputs": [
        {
          "internalType": "bool",
          "name": "enabled",
          "type": "bool"
        },
        {
          "internalType": "bool",
          "name": "enableDeposit",
          "type": "bool"
        },
        {
          "internalType": "bool",
          "name": "enableWithdraw",
          "type": "bool"
        },
        {
          "internalType": "bool",
          "name": "enableBorrow",
          "type": "bool"
        },
        {
          "internalType": "bool",
          "name": "enableRepay",
          "type": "bool"
        },
        {
          "internalType": "bool",
          "name": "enableLiquidate",
          "type": "bool"
        }
      ],
      "stateMutability": "view",
      "type": "function"
    },
    {
      "inputs": [
        {
          "internalType": "address[]",
          "name": "_vault",
          "type": "address[]"
        },
        {
          "internalType": "enum IController.ValidVault[]",
          "name": "_state",
          "type": "uint8[]"
        }
      ],
      "name": "initValidVault",
      "outputs": [],
      "stateMutability": "nonpayable",
      "type": "function"
    },
    {
      "inputs": [],
      "name": "initialize",
      "outputs": [],
      "stateMutability": "nonpayable",
      "type": "function"
    },
    {
      "inputs": [
        {
          "internalType": "address",
          "name": "_borrower",
          "type": "address"
        }
      ],
      "name": "isNeedLiquidate",
      "outputs": [
        {
          "internalType": "bool",
          "name": "",
          "type": "bool"
        }
      ],
      "stateMutability": "view",
      "type": "function"
    },
    {
      "inputs": [],
      "name": "isOpenLiquidate",
      "outputs": [
        {
          "internalType": "bool",
          "name": "",
          "type": "bool"
        }
      ],
      "stateMutability": "view",
      "type": "function"
    },
    {
      "inputs": [
        {
          "internalType": "address",
          "name": "_user",
          "type": "address"
        },
        {
          "internalType": "bool",
          "name": "isDepositVault",
          "type": "bool"
        }
      ],
      "name": "joinVault",
      "outputs": [],
      "stateMutability": "nonpayable",
      "type": "function"
    },
    {
      "inputs": [
        {
          "internalType": "address",
          "name": "_borrower",
          "type": "address"
        },
        {
          "internalType": "bytes",
          "name": "data",
          "type": "bytes"
        }
      ],
      "name": "liquidate",
      "outputs": [],
      "stateMutability": "nonpayable",
      "type": "function"
    },
    {
      "inputs": [],
      "name": "liquidateRate",
      "outputs": [
        {
          "internalType": "uint256",
          "name": "",
          "type": "uint256"
        }
      ],
      "stateMutability": "view",
      "type": "function"
    },
    {
      "inputs": [
        {
          "internalType": "address",
          "name": "_user",
          "type": "address"
        },
        {
          "internalType": "address",
          "name": "vault",
          "type": "address"
        }
      ],
      "name": "maxBorrow",
      "outputs": [
        {
          "internalType": "uint256",
          "name": "",
          "type": "uint256"
        }
      ],
      "stateMutability": "view",
      "type": "function"
    },
    {
      "inputs": [],
      "name": "owner",
      "outputs": [
        {
          "internalType": "address",
          "name": "",
          "type": "address"
        }
      ],
      "stateMutability": "view",
      "type": "function"
    },
    {
      "inputs": [
        {
          "internalType": "address",
          "name": "user_",
          "type": "address"
        },
        {
          "internalType": "address[]",
          "name": "borrowVaults_",
          "type": "address[]"
        },
        {
          "internalType": "address",
          "name": "liquidator_",
          "type": "address"
        },
        {
          "internalType": "bytes",
          "name": "data_",
          "type": "bytes"
        }
      ],
      "name": "releaseVaultFor",
      "outputs": [],
      "stateMutability": "nonpayable",
      "type": "function"
    },
    {
      "inputs": [
        {
          "internalType": "address[]",
          "name": "users_",
          "type": "address[]"
        },
        {
          "internalType": "address[]",
          "name": "borrowVaults_",
          "type": "address[]"
        },
        {
          "internalType": "address",
          "name": "liquidator_",
          "type": "address"
        },
        {
          "internalType": "bytes",
          "name": "data_",
          "type": "bytes"
        }
      ],
      "name": "releaseVaults",
      "outputs": [],
      "stateMutability": "nonpayable",
      "type": "function"
    },
    {
      "inputs": [],
      "name": "renounceOwnership",
      "outputs": [],
      "stateMutability": "nonpayable",
      "type": "function"
    },
    {
      "inputs": [
        {
          "internalType": "uint256",
          "name": "_collateralRate",
          "type": "uint256"
        }
      ],
      "name": "setCollateralRate",
      "outputs": [],
      "stateMutability": "nonpayable",
      "type": "function"
    },
    {
      "inputs": [
        {
          "internalType": "address",
          "name": "_underlying",
          "type": "address"
        },
        {
          "internalType": "address",
          "name": "_dToken",
          "type": "address"
        }
      ],
      "name": "setDYToken",
      "outputs": [],
      "stateMutability": "nonpayable",
      "type": "function"
    },
    {
      "inputs": [
        {
          "components": [
            {
              "internalType": "bool",
              "name": "enabled",
              "type": "bool"
            },
            {
              "internalType": "bool",
              "name": "enableDeposit",
              "type": "bool"
            },
            {
              "internalType": "bool",
              "name": "enableWithdraw",
              "type": "bool"
            },
            {
              "internalType": "bool",
              "name": "enableBorrow",
              "type": "bool"
            },
            {
              "internalType": "bool",
              "name": "enableRepay",
              "type": "bool"
            },
            {
              "internalType": "bool",
              "name": "enableLiquidate",
              "type": "bool"
            }
          ],
          "internalType": "struct AppController.VaultState",
          "name": "_state",
          "type": "tuple"
        }
      ],
      "name": "setGlobalVaultState",
      "outputs": [],
      "stateMutability": "nonpayable",
      "type": "function"
    },
    {
      "inputs": [
        {
          "internalType": "uint256",
          "name": "_liquidateRate",
          "type": "uint256"
        }
      ],
      "name": "setLiquidateRate",
      "outputs": [],
      "stateMutability": "nonpayable",
      "type": "function"
    },
    {
      "inputs": [
        {
          "internalType": "bool",
          "name": "_open",
          "type": "bool"
        }
      ],
      "name": "setOpenLiquidate",
      "outputs": [],
      "stateMutability": "nonpayable",
      "type": "function"
    },
    {
      "inputs": [
        {
          "internalType": "address",
          "name": "_underlying",
          "type": "address"
        },
        {
          "internalType": "address",
          "name": "_oracle",
          "type": "address"
        },
        {
          "internalType": "uint16",
          "name": "_discount",
          "type": "uint16"
        },
        {
          "internalType": "uint16",
          "name": "_premium",
          "type": "uint16"
        }
      ],
      "name": "setOracles",
      "outputs": [],
      "stateMutability": "nonpayable",
      "type": "function"
    },
    {
      "inputs": [
        {
          "internalType": "address",
          "name": "_underlying",
          "type": "address"
        },
        {
          "internalType": "address",
          "name": "_strategy",
          "type": "address"
        },
        {
          "internalType": "uint256",
          "name": "stype",
          "type": "uint256"
        }
      ],
      "name": "setStrategy",
      "outputs": [],
      "stateMutability": "nonpayable",
      "type": "function"
    },
    {
      "inputs": [
        {
          "internalType": "address[]",
          "name": "_vault",
          "type": "address[]"
        },
        {
          "internalType": "enum IController.ValidVault[]",
          "name": "_state",
          "type": "uint8[]"
        }
      ],
      "name": "setValidVault",
      "outputs": [],
      "stateMutability": "nonpayable",
      "type": "function"
    },
    {
      "inputs": [
        {
          "internalType": "address",
          "name": "_dyToken",
          "type": "address"
        },
        {
          "internalType": "address",
          "name": "_vault",
          "type": "address"
        },
        {
          "internalType": "uint256",
          "name": "vtype",
          "type": "uint256"
        }
      ],
      "name": "setVault",
      "outputs": [],
      "stateMutability": "nonpayable",
      "type": "function"
    },
    {
      "inputs": [
        {
          "internalType": "address",
          "name": "_vault",
          "type": "address"
        },
        {
          "components": [
            {
              "internalType": "bool",
              "name": "enabled",
              "type": "bool"
            },
            {
              "internalType": "bool",
              "name": "enableDeposit",
              "type": "bool"
            },
            {
              "internalType": "bool",
              "name": "enableWithdraw",
              "type": "bool"
            },
            {
              "internalType": "bool",
              "name": "enableBorrow",
              "type": "bool"
            },
            {
              "internalType": "bool",
              "name": "enableRepay",
              "type": "bool"
            },
            {
              "internalType": "bool",
              "name": "enableLiquidate",
              "type": "bool"
            }
          ],
          "internalType": "struct AppController.VaultState",
          "name": "_state",
          "type": "tuple"
        }
      ],
      "name": "setVaultStates",
      "outputs": [],
      "stateMutability": "nonpayable",
      "type": "function"
    },
    {
      "inputs": [
        {
          "internalType": "address",
          "name": "",
          "type": "address"
        }
      ],
      "name": "strategies",
      "outputs": [
        {
          "internalType": "address",
          "name": "",
          "type": "address"
        }
      ],
      "stateMutability": "view",
      "type": "function"
    },
    {
      "inputs": [
        {
          "internalType": "address",
          "name": "newOwner",
          "type": "address"
        }
      ],
      "name": "transferOwnership",
      "outputs": [],
      "stateMutability": "nonpayable",
      "type": "function"
    },
    {
      "inputs": [
        {
          "internalType": "address",
          "name": "liquidator",
          "type": "address"
        },
        {
          "internalType": "bool",
          "name": "allowed",
          "type": "bool"
        }
      ],
      "name": "updateAllowedLiquidator",
      "outputs": [],
      "stateMutability": "nonpayable",
      "type": "function"
    },
    {
      "inputs": [
        {
          "internalType": "address",
          "name": "_user",
          "type": "address"
        },
        {
          "internalType": "bool",
          "name": "isDepositVault",
          "type": "bool"
        }
      ],
      "name": "userJoinedVaultCount",
      "outputs": [
        {
          "internalType": "uint256",
          "name": "",
          "type": "uint256"
        }
      ],
      "stateMutability": "view",
      "type": "function"
    },
    {
      "inputs": [
        {
          "internalType": "address",
          "name": "_user",
          "type": "address"
        },
        {
          "internalType": "bool",
          "name": "isDepositVault",
          "type": "bool"
        },
        {
          "internalType": "uint256",
          "name": "index",
          "type": "uint256"
        }
      ],
      "name": "userJoinedVaultInfoAt",
      "outputs": [
        {
          "internalType": "address",
          "name": "vault",
          "type": "address"
        },
        {
          "components": [
            {
              "internalType": "bool",
              "name": "enabled",
              "type": "bool"
            },
            {
              "internalType": "bool",
              "name": "enableDeposit",
              "type": "bool"
            },
            {
              "internalType": "bool",
              "name": "enableWithdraw",
              "type": "bool"
            },
            {
              "internalType": "bool",
              "name": "enableBorrow",
              "type": "bool"
            },
            {
              "internalType": "bool",
              "name": "enableRepay",
              "type": "bool"
            },
            {
              "internalType": "bool",
              "name": "enableLiquidate",
              "type": "bool"
            }
          ],
          "internalType": "struct AppController.VaultState",
          "name": "state",
          "type": "tuple"
        }
      ],
      "stateMutability": "view",
      "type": "function"
    },
    {
      "inputs": [
        {
          "internalType": "address",
          "name": "_user",
          "type": "address"
        },
        {
          "internalType": "contract IVault",
          "name": "_vault",
          "type": "address"
        },
        {
          "internalType": "int256",
          "name": "_amount",
          "type": "int256"
        },
        {
          "internalType": "bool",
          "name": "_dp",
          "type": "bool"
        }
      ],
      "name": "userPendingValues",
      "outputs": [
        {
          "internalType": "uint256",
          "name": "pendingDepositValue",
          "type": "uint256"
        },
        {
          "internalType": "uint256",
          "name": "pendingBrorowValue",
          "type": "uint256"
        }
      ],
      "stateMutability": "view",
      "type": "function"
    },
    {
      "inputs": [
        {
          "internalType": "address",
          "name": "_user",
          "type": "address"
        },
        {
          "internalType": "contract IVault",
          "name": "_vault",
          "type": "address"
        },
        {
          "internalType": "int256",
          "name": "_amount",
          "type": "int256"
        },
        {
          "internalType": "bool",
          "name": "_dp",
          "type": "bool"
        }
      ],
      "name": "userTotalPendingValues",
      "outputs": [
        {
          "internalType": "uint256",
          "name": "pendingDepositValue",
          "type": "uint256"
        },
        {
          "internalType": "uint256",
          "name": "pendingBrorowValue",
          "type": "uint256"
        }
      ],
      "stateMutability": "view",
      "type": "function"
    },
    {
      "inputs": [
        {
          "internalType": "address",
          "name": "_user",
          "type": "address"
        },
        {
          "internalType": "bool",
          "name": "_dp",
          "type": "bool"
        }
      ],
      "name": "userTotalValues",
      "outputs": [
        {
          "internalType": "uint256",
          "name": "totalDepositValue",
          "type": "uint256"
        },
        {
          "internalType": "uint256",
          "name": "totalBorrowValue",
          "type": "uint256"
        }
      ],
      "stateMutability": "view",
      "type": "function"
    },
    {
      "inputs": [
        {
          "internalType": "address",
          "name": "_user",
          "type": "address"
        },
        {
          "internalType": "bool",
          "name": "_dp",
          "type": "bool"
        }
      ],
      "name": "userValues",
      "outputs": [
        {
          "internalType": "uint256",
          "name": "totalDepositValue",
          "type": "uint256"
        },
        {
          "internalType": "uint256",
          "name": "totalBorrowValue",
          "type": "uint256"
        }
      ],
      "stateMutability": "view",
      "type": "function"
    },
    {
      "inputs": [
        {
          "internalType": "address",
          "name": "",
          "type": "address"
        }
      ],
      "name": "validVaults",
      "outputs": [
        {
          "internalType": "enum IController.ValidVault",
          "name": "",
          "type": "uint8"
        }
      ],
      "stateMutability": "view",
      "type": "function"
    },
    {
      "inputs": [
        {
          "internalType": "address",
          "name": "",
          "type": "address"
        },
        {
          "internalType": "address",
          "name": "",
          "type": "address"
        }
      ],
      "name": "validVaultsOfUser",
      "outputs": [
        {
          "internalType": "enum IController.ValidVault",
          "name": "",
          "type": "uint8"
        }
      ],
      "stateMutability": "view",
      "type": "function"
    },
    {
      "inputs": [
        {
          "internalType": "address",
          "name": "",
          "type": "address"
        }
      ],
      "name": "vaultStates",
      "outputs": [
        {
          "internalType": "bool",
          "name": "enabled",
          "type": "bool"
        },
        {
          "internalType": "bool",
          "name": "enableDeposit",
          "type": "bool"
        },
        {
          "internalType": "bool",
          "name": "enableWithdraw",
          "type": "bool"
        },
        {
          "internalType": "bool",
          "name": "enableBorrow",
          "type": "bool"
        },
        {
          "internalType": "bool",
          "name": "enableRepay",
          "type": "bool"
        },
        {
          "internalType": "bool",
          "name": "enableLiquidate",
          "type": "bool"
        }
      ],
      "stateMutability": "view",
      "type": "function"
    }
  ],
  "transactionHash": "0x1d7fa1c9fbf363148e624abf4f5b0c48856101b1fb839d324c7eab04f6fbbbea",
  "args": [],
  "numDeployments": 1,
  "solcInputHash": "b941bb895ceeb0b597d703813f4dbc22",
  "bytecode": "0x608060405234801561001057600080fd5b5061442d806100206000396000f3fe608060405234801561001057600080fd5b50600436106102955760003560e01c80636c45967711610167578063ace664b4116100ce578063dc95785a11610087578063dc95785a14610748578063e26ec36a14610785578063e271f76914610798578063f2fde38b146107ab578063f7d22673146107be578063f9009ee8146107d157600080fd5b8063ace664b4146106bb578063b66d927a146106ce578063c4c00487146106e1578063c5321fb0146106f4578063c8b268b314610707578063d2786d451461071a57600080fd5b806390a83dc21161012057806390a83dc21461062f57806396721753146106425780639af4608c146106555780639c045f3e14610668578063aaace60114610689578063ab27197e146106b257600080fd5b80636c459677146105bf578063715018a6146105d257806379bf27b1146105da5780638129fc1c146105ed57806383d57650146105f55780638da5cb5b1461061e57600080fd5b806339ebf8231161020b57806359e27fc4116101c457806359e27fc4146104b75780635f49202f146104ca578063624b5ed4146105565780636657fc67146105695780636989725c146105995780636af2482d146105ac57600080fd5b806339ebf823146103df5780633dcecc2f1461042057806346b45be71461047557806354ab62691461048857806358a6be1c1461049b5780635911a1ae146104a457600080fd5b8063149088161161025d57806314908816146102fb5780631acd8c9c1461030e5780631e516051146103505780632b9553ce146103835780632ea874821461039657806338b20421146103b757600080fd5b8063054c13441461029a57806309ba9b47146102af5780630d37a290146102c25780630ebdee19146102d55780630eccd2c9146102e8575b600080fd5b6102ad6102a83660046139b4565b6107de565b005b6102ad6102bd3660046139b4565b6109b4565b6102ad6102d0366004613a07565b610c2b565b6102ad6102e3366004613a6d565b610dcb565b6102ad6102f6366004613aef565b610e59565b6102ad610309366004613b44565b6110b0565b61032161031c366004613b72565b61118f565b604080516001600160a01b03909416845261ffff92831660208501529116908201526060015b60405180910390f35b61037361035e366004613b72565b606f6020526000908152604090205460ff1681565b6040519015158152602001610347565b6102ad6103913660046139b4565b6111e2565b6103a96103a4366004613a6d565b6114e4565b604051908152602001610347565b6103ca6103c5366004613b96565b61153b565b60408051928352602083019190915201610347565b6104086103ed366004613b72565b6066602052600090815260409020546001600160a01b031681565b6040516001600160a01b039091168152602001610347565b61043361042e366004613b44565b611597565b604080516001600160a01b03978816815261ffff96871660208201529486169085015294909116606083015282166080820152911660a082015260c001610347565b6102ad610483366004613ccd565b6115ca565b6102ad610496366004613b72565b61186f565b6103a9606d5481565b6103a96104b2366004613b44565b611926565b6102ad6104c53660046139b4565b611a34565b61051d6104d8366004613b72565b606b6020526000908152604090205460ff80821691610100810482169162010000820481169163010000008104821691600160201b8204811691600160281b90041686565b604080519615158752941515602087015292151593850193909352151560608401529015156080830152151560a082015260c001610347565b6102ad610564366004613d8f565b611b83565b61058c610577366004613b72565b60706020526000908152604090205460ff1681565b6040516103479190613de0565b6102ad6105a73660046139b4565b611be9565b6102ad6105ba366004613e9d565b611d04565b6102ad6105cd366004613eca565b611e0e565b6102ad611e79565b6102ad6105e8366004613a6d565b611eaf565b6102ad611f48565b610408610603366004613b72565b6068602052600090815260409020546001600160a01b031681565b6033546001600160a01b0316610408565b6102ad61063d3660046139b4565b611fd2565b6103ca610650366004613b96565b61214b565b6102ad610663366004613f2c565b61215a565b61067b610676366004613fc3565b612383565b604051610347929190613ff3565b610408610697366004613b72565b6065602052600090815260409020546001600160a01b031681565b6103a9606c5481565b6102ad6106c9366004614052565b61248a565b6103736106dc366004613b72565b612552565b6102ad6106ef366004613a6d565b612589565b6102ad610702366004613ccd565b61266a565b6102ad610715366004613d8f565b612927565b61058c610728366004613b44565b607160209081526000928352604080842090915290825290205460ff1681565b60725461051d9060ff80821691610100810482169162010000820481169163010000008104821691600160201b8204811691600160281b90041686565b6103ca610793366004613a6d565b612986565b6102ad6107a636600461406e565b6129c3565b6102ad6107b9366004613b72565b612a3e565b6103ca6107cc366004613a6d565b612ad6565b606e546103739060ff1681565b6001600160a01b0382166000908152606b6020908152604091829020825160c081018452905460ff8082161515835261010082048116151593830193909352620100008104831615159382019390935263010000008304821615156060820152600160201b8304821615156080820152600160281b90920416151560a0820152336001600160a01b031661087a6033546001600160a01b031690565b6001600160a01b031614806108bb575060725460ff1680156108a4575060725462010000900460ff165b80156108ae575080515b80156108bb575080604001515b6109005760405162461bcd60e51b815260206004820152601160248201527015d2551211149055d7d11254d050931151607a1b60448201526064015b60405180910390fd5b61090a8385612afc565b156109ae57600061092785856109208685614133565b6001612beb565b6001600160a01b0386166000908152606a60205260408120919250906109509087906001612e39565b9050606d54816109609190614172565b61096c61271084614172565b10156109ab5760405162461bcd60e51b815260206004820152600e60248201526d1313d5d7d0d3d31310551154905360921b60448201526064016108f7565b50505b50505050565b6001600160a01b0382166000908152606b6020908152604091829020825160c081018452905460ff8082161515835261010082048116151593830193909352620100008104831615159382019390935263010000008304821615156060820152600160201b8304821615156080820152600160281b90920416151560a0820152336001600160a01b0316610a506033546001600160a01b031690565b6001600160a01b03161480610a90575060725460ff168015610a795750607254610100900460ff165b8015610a83575080515b8015610a90575080602001515b610acf5760405162461bcd60e51b815260206004820152601060248201526f4445504f534954455f44495341424c4560801b60448201526064016108f7565b6000836001600160a01b0316636f307dc36040518163ffffffff1660e01b815260040160206040518083038186803b158015610b0a57600080fd5b505afa158015610b1e573d6000803e3d6000fd5b505050506040513d601f19601f82011682018060405250810190610b429190614191565b90506000610b4f8261118f565b50506040516341976e0960e01b81526001600160a01b0384811660048301529192506000918316906341976e099060240160206040518083038186803b158015610b9857600080fd5b505afa158015610bac573d6000803e3d6000fd5b505050506040513d601f19601f82011682018060405250810190610bd091906141ae565b905060008111610c225760405162461bcd60e51b815260206004820152601b60248201527f4e4f545f4143435045545f5a45524f5f50524943455f544f4b454e000000000060448201526064016108f7565b50505050505050565b6033546001600160a01b03163314610c555760405162461bcd60e51b81526004016108f7906141c7565b6001600160a01b038316610c9c5760405162461bcd60e51b815260206004820152600e60248201526d494e56414c49445f4f5241434c4560901b60448201526064016108f7565b6127108261ffff161115610ce45760405162461bcd60e51b815260206004820152600f60248201526e444953434f55545f544f4f5f42494760881b60448201526064016108f7565b6127108161ffff161015610d2e5760405162461bcd60e51b81526020600482015260116024820152701414915352555357d513d3d7d4d3505313607a1b60448201526064016108f7565b6001600160a01b0384811660008181526067602090815260409182902080549488166001600160b01b03199095168517600160a01b61ffff8981169182029290921761ffff60b01b1916600160b01b92891692830217835584519687529286019290925291840152917f7cb71f764a6240297d887d23473a61cf07ba9d34ccfbdd326620a5b896cd33469060600160405180910390a25050505050565b6033546001600160a01b03163314610df55760405162461bcd60e51b81526004016108f7906141c7565b6001600160a01b0382166000818152606f6020908152604091829020805460ff19168515159081179091558251938452908301527fd8949265082223b72749a7863e551684ee0df9a0c8ece536b9f14686b68425fc91015b60405180910390a15050565b606e54339060ff1680610e8457506001600160a01b0381166000908152606f602052604090205460ff165b610ec55760405162461bcd60e51b815260206004820152601260248201527124a72b20a624a22fa624a8aaa4a220aa27a960711b60448201526064016108f7565b610ece84612552565b610f0e5760405162461bcd60e51b81526020600482015260116024820152700869e989882a88aa48298be8a9c9eaa8e9607b1b60448201526064016108f7565b6001600160a01b038416600090815260696020526040812090610f3082612f0c565b9050805b8015610fe4576000610f51610f4a6001846141fc565b8590612f16565b9050610f5d8189612afc565b15610fd157610f6c8882612f22565b6040516374eb83c160e01b81526001600160a01b038216906374eb83c190610f9e9088908c908c908c90600401614213565b600060405180830381600087803b158015610fb857600080fd5b505af1158015610fcc573d6000803e3d6000fd5b505050505b5080610fdc8161425f565b915050610f34565b506001600160a01b0386166000908152606a602052604081209061100782612f0c565b9050805b80156110a5576000611021610f4a6001846141fc565b905061102d8a82612f22565b6040516374eb83c160e01b81526001600160a01b038216906374eb83c19061105f908a908e908e908e90600401614213565b600060405180830381600087803b15801561107957600080fd5b505af115801561108d573d6000803e3d6000fd5b5050505050808061109d9061425f565b91505061100b565b505050505050505050565b6033546001600160a01b031633146110da5760405162461bcd60e51b81526004016108f7906141c7565b6001600160a01b0381166111215760405162461bcd60e51b815260206004820152600e60248201526d24a72b20a624a22fa22a27a5a2a760911b60448201526064016108f7565b6001600160a01b0382811660008181526065602090815260409182902080548686166001600160a01b0319821681179092558351951680865291850152927fd5c0cad2a6b3eea813a7bdf548752779e26da201508f6e807ec5ec3d65d020d6910160405180910390a2505050565b6001600160a01b039081166000908152606760209081526040918290208251606081018452905493841680825261ffff600160a01b86048116938301849052600160b01b90950490941692018290529192565b6001600160a01b0382166000908152606b6020908152604091829020825160c081018452905460ff8082161515835261010082048116151593830193909352620100008104831615159382019390935263010000008304821615156060820152600160201b8304821615156080820152600160281b90920416151560a0820152336001600160a01b031661127e6033546001600160a01b031690565b6001600160a01b031614806112c0575060725460ff1680156112a957506072546301000000900460ff165b80156112b3575080515b80156112c0575080606001515b6112fe5760405162461bcd60e51b815260206004820152600f60248201526e1093d49493d5d7d11254d050931151608a1b60448201526064016108f7565b6000836001600160a01b0316636f307dc36040518163ffffffff1660e01b815260040160206040518083038186803b15801561133957600080fd5b505afa15801561134d573d6000803e3d6000fd5b505050506040513d601f19601f820116820180604052508101906113719190614191565b9050600061137e8261118f565b50506040516341976e0960e01b81526001600160a01b0384811660048301529192506000918316906341976e099060240160206040518083038186803b1580156113c757600080fd5b505afa1580156113db573d6000803e3d6000fd5b505050506040513d601f19601f820116820180604052508101906113ff91906141ae565b9050600081116114515760405162461bcd60e51b815260206004820152601b60248201527f4e4f545f4143435045545f5a45524f5f50524943455f544f4b454e000000000060448201526064016108f7565b600061145e886001613040565b6001600160a01b0389166000908152606a6020526040812091925090611489908a908a8a600161312d565b9050606d54816114999190614172565b6114a561271084614172565b10156110a55760405162461bcd60e51b815260206004820152600e60248201526d1313d5d7d0d3d31310551154905360921b60448201526064016108f7565b600081611511576001600160a01b0383166000908152606a6020526040902061150c90612f0c565b611532565b6001600160a01b038316600090815260696020526040902061153290612f0c565b90505b92915050565b6001600160a01b0384166000908152606960205260408120819061156390879087878761312d565b6001600160a01b0387166000908152606a6020526040902090925061158c90879087878761312d565b905094509492505050565b6000806000806000806115a98861118f565b919750955093506115b98761118f565b979a96995094975095939492505050565b6033546001600160a01b031633146115f45760405162461bcd60e51b81526004016108f7906141c7565b81518151808214801561160657508115155b6116425760405162461bcd60e51b815260206004820152600d60248201526c494e56414c49445f504152414d60981b60448201526064016108f7565b60005b828110156118685760006070600087848151811061166557611665614276565b6020908102919091018101516001600160a01b031682528101919091526040016000205460ff16600281111561169d5761169d613da8565b146116da5760405162461bcd60e51b815260206004820152600d60248201526c5345545f4f4e4c595f4f4e434560981b60448201526064016108f7565b60028482815181106116ee576116ee614276565b6020026020010151600281111561170757611707613da8565b148061173d5750600184828151811061172257611722614276565b6020026020010151600281111561173b5761173b613da8565b145b6117795760405162461bcd60e51b815260206004820152600d60248201526c494e56414c49445f56414c554560981b60448201526064016108f7565b83818151811061178b5761178b614276565b6020026020010151607060008784815181106117a9576117a9614276565b6020908102919091018101516001600160a01b03168252810191909152604001600020805460ff191660018360028111156117e6576117e6613da8565b02179055507f05334cade7d5051a457d6cddb92a76a5266e31459f3118a536c99b169beaa0f585828151811061181e5761181e614276565b602002602001015185838151811061183857611838614276565b602002602001015160405161184e92919061428c565b60405180910390a180611860816142a9565b915050611645565b5050505050565b6033546001600160a01b031633146118995760405162461bcd60e51b81526004016108f7906141c7565b6001600160a01b03808216600090815260666020908152604080832054815163429c145b60e11b8152915194169363853828b693600480840194938390030190829087803b1580156118ea57600080fd5b505af11580156118fe573d6000803e3d6000fd5b505050506040513d601f19601f8201168201806040525081019061192291906141ae565b5050565b600080611934846001613040565b6001600160a01b0385166000908152606a602052604081209192509061195d9086906001612e39565b90506000606d54612710846119729190614172565b61197c91906142c4565b905081811115611a1f57600061199283836141fc565b60405163281aa7fd60e21b815260048101829052600160248201529091506001600160a01b0387169063a06a9ff49060440160206040518083038186803b1580156119dc57600080fd5b505afa1580156119f0573d6000803e3d6000fd5b505050506040513d601f19601f82011682018060405250810190611a1491906141ae565b945050505050611535565b60009350505050611535565b50505092915050565b6033546001600160a01b03163314611a5e5760405162461bcd60e51b81526004016108f7906141c7565b816001600160a01b031663ba58591c6040518163ffffffff1660e01b815260040160206040518083038186803b158015611a9757600080fd5b505afa158015611aab573d6000803e3d6000fd5b505050506040513d601f19601f82011682018060405250810190611acf91906142e6565b611b0b5760405162461bcd60e51b815260206004820152600d60248201526c1253959053125157d590531555609a1b60448201526064016108f7565b6001600160a01b0383811660008181526068602090815260409182902080548786166001600160a01b0319821681179092558351951680865291850152908301849052917f0ff9c79e47a5eed61bfb093d8315d37efcfa7f6679e507f608289c78941b0e51906060015b60405180910390a250505050565b6033546001600160a01b03163314611bad5760405162461bcd60e51b81526004016108f7906141c7565b606d8190556040518181527f13e612fc69e30b3adcca3cb6573fa94782e94f59261f9b32c96c34b90552b335906020015b60405180910390a150565b6001600160a01b0382166000908152606b6020908152604091829020825160c081018452905460ff8082161515835261010082048116151593830193909352620100008104831615159382019390935263010000008304821615156060820152600160201b8304821615156080820152600160281b90920416151560a0820152336001600160a01b0316611c856033546001600160a01b031690565b6001600160a01b03161480611cc7575060725460ff168015611cb05750607254600160201b900460ff165b8015611cba575080515b8015611cc7575080608001515b6109ae5760405162461bcd60e51b815260206004820152600e60248201526d149154105657d11254d05093115160921b60448201526064016108f7565b6033546001600160a01b03163314611d2e5760405162461bcd60e51b81526004016108f7906141c7565b6001600160a01b0382166000908152606b60209081526040918290208351815492850151858501516060870151608088015160a089015161ffff1990971694151561ff00191694909417610100931515939093029290921763ffff00001916620100009115159190910263ff0000001916176301000000911515919091021765ffff000000001916600160201b9115159190910265ff0000000000191617600160281b92151592909202919091179055517f0f86f36676a78407d88aa894e600955aca44b6b9eaff4740c81228e2fa75d62890610e4d9084908490613ff3565b6033546001600160a01b03163314611e385760405162461bcd60e51b81526004016108f7906141c7565b606e805460ff19168215159081179091556040519081527fcfa23450328fe03391963dc3e54c19ebeecb28fd8a628b495b71ab8534d61c3290602001611bde565b6033546001600160a01b03163314611ea35760405162461bcd60e51b81526004016108f7906141c7565b611ead6000613343565b565b336000818152606b602052604090205460ff16611eff5760405162461bcd60e51b815260206004820152600e60248201526d24a72b20a624a22fa1a0a62622a960911b60448201526064016108f7565b600082611f23576001600160a01b0384166000908152606a60205260409020611f3c565b6001600160a01b03841660009081526069602052604090205b90506118688183613395565b6000611f5460016133aa565b90508015611f6c576000805461ff0019166101001790555b611f74613437565b612af8606c556132c8606d55606e805460ff191660011790558015611fcf576000805461ff0019169055604051600181527f7f26b83ff96e1f2b6a682f133852f6798a09c465da95921460cefb384740249890602001611bde565b50565b6033546001600160a01b03163314611ffc5760405162461bcd60e51b81526004016108f7906141c7565b6001600160a01b0382166120485760405162461bcd60e51b815260206004820152601360248201527214dd1c985d1959da595cc8111a5cd8589b1959606a1b60448201526064016108f7565b6001600160a01b038084166000908152606660205260409020541680156120de57806001600160a01b031663853828b66040518163ffffffff1660e01b8152600401602060405180830381600087803b1580156120a457600080fd5b505af11580156120b8573d6000803e3d6000fd5b505050506040513d601f19601f820116820180604052508101906120dc91906141ae565b505b6001600160a01b0384811660008181526066602090815260409182902080546001600160a01b03191688861690811790915582519486168552908401528201849052907fcc7d45f325309ae5b4940b5de638a482be2a51aa3a917326a84f65bcc2f7352390606001611b75565b60008061156386868686612beb565b6033546001600160a01b031633146121845760405162461bcd60e51b81526004016108f7906141c7565b6000805b858110156122955760008787838181106121a4576121a4614276565b90506020020160208101906121b99190613b72565b6001600160a01b038a1660009081526069602052604090209091506121de9082613466565b6121e85750612283565b60006121f78a83898989613488565b6001600160a01b038b16600090815260696020526040902090915061221c9083613466565b156122745760405162461bcd60e51b815260206004820152602260248201527f4e4f5420434f4d504c454c54454c592052455041494544204d494e5420564155604482015261131560f21b60648201526084016108f7565b61227e8185614303565b935050505b8061228d816142a9565b915050612188565b506001600160a01b0387166000908152606960205260408120906122b882612f0c565b90505b6000831180156122cb5750600081115b1561232f5760006122e76122e06001846141fc565b8490612f16565b90506122f28161357c565b6122fc575061231d565b600061230c8b83878b8b8b613602565b905061231881866141fc565b945050505b806123278161425f565b9150506122bb565b50811561237957604080516001600160a01b038a168152602081018490527fc649b38f60b165ec8c5a2f8f05cabe175203f0b0d407c4e071ed9ae73935a106910160405180910390a15b5050505050505050565b6040805160c081018252600080825260208201819052918101829052606081018290526080810182905260a081018290526000846123d8576001600160a01b0386166000908152606a602052604090206123f1565b6001600160a01b03861660009081526069602052604090205b90506123fd8185612f16565b6001600160a01b0381166000908152606b6020908152604091829020825160c081018452905460ff8082161515835261010082048116151593830193909352620100008104831615159382019390935263010000008304821615156060820152600160201b8304821615156080820152600160281b90920416151560a08201529097909650945050505050565b6033546001600160a01b031633146124b45760405162461bcd60e51b81526004016108f7906141c7565b805160728054602084015160408501516060860151608087015160a09097015161ffff1990941695151561ff00191695909517610100921515929092029190911763ffff00001916620100009115159190910263ff0000001916176301000000931515939093029290921765ffff000000001916600160201b9315159390930265ff0000000000191692909217600160281b91151591909102179055565b6000806000612562846001612986565b91509150606c54816125749190614172565b61258061271084614172565b10949350505050565b336000818152606b602052604090205460ff166125d95760405162461bcd60e51b815260206004820152600e60248201526d24a72b20a624a22fa1a0a62622a960911b60448201526064016108f7565b6000826125fd576001600160a01b0384166000908152606a60205260409020612616565b6001600160a01b03841660009081526069602052604090205b9050601461262382612f0c565b106126605760405162461bcd60e51b815260206004820152600d60248201526c0949e929cbea89e9ebe9aaa869609b1b60448201526064016108f7565b61186881836137ee565b81518151339190808214801561267f57508115155b6126bb5760405162461bcd60e51b815260206004820152600d60248201526c494e56414c49445f504152414d60981b60448201526064016108f7565b60005b828110156128675760028582815181106126da576126da614276565b602002602001015160028111156126f3576126f3613da8565b14806127295750600185828151811061270e5761270e614276565b6020026020010151600281111561272757612727613da8565b145b6127655760405162461bcd60e51b815260206004820152600d60248201526c494e56414c49445f56414c554560981b60448201526064016108f7565b84818151811061277757612777614276565b60200260200101516071600088848151811061279557612795614276565b6020908102919091018101516001600160a01b039081168352828201939093526040918201600090812093891681529290529020805460ff191660018360028111156127e3576127e3613da8565b02179055507f65d4763abdc1e045affaf50aed5fc2a1f4f466da45ee41ea701e0ad5029ff0b086828151811061281b5761281b614276565b60200260200101518587848151811061283657612836614276565b602002602001015160405161284d9392919061431b565b60405180910390a18061285f816142a9565b9150506126be565b506000612875846001613040565b6001600160a01b0385166000908152606a602052604081209192509061289e9086906001612e39565b90506000606d54612710846128b39190614172565b6128bd91906142c4565b9050606d54826128cd9190614172565b6128d961271085614172565b10156123795760405162461bcd60e51b815260206004820152601d60248201527f53455456414c49445641554c543a204c4f575f434f4c4c41544552414c00000060448201526064016108f7565b6033546001600160a01b031633146129515760405162461bcd60e51b81526004016108f7906141c7565b606c8190556040518181527f138a4f81e91d7ed8109625537819aae162d22b1e4b5f73e1919d1f6e21bfbb4b90602001611bde565b6000806129938484613040565b6001600160a01b0385166000908152606a602052604090209092506129ba90859085612e39565b90509250929050565b6033546001600160a01b031633146129ed5760405162461bcd60e51b81526004016108f7906141c7565b60005b8681101561237957612a2c888883818110612a0d57612a0d614276565b9050602002016020810190612a229190613b72565b878787878761215a565b80612a36816142a9565b9150506129f0565b6033546001600160a01b03163314612a685760405162461bcd60e51b81526004016108f7906141c7565b6001600160a01b038116612acd5760405162461bcd60e51b815260206004820152602660248201527f4f776e61626c653a206e6577206f776e657220697320746865207a65726f206160448201526564647265737360d01b60648201526084016108f7565b611fcf81613343565b6001600160a01b0382166000908152606960205260408120819061299390859085612e39565b6001600160a01b03808316600090815260716020908152604080832093851683529290529081205460ff168180826002811115612b3b57612b3b613da8565b14612b465781612b63565b6001600160a01b03851660009081526070602052604090205460ff165b90506000816002811115612b7957612b79613da8565b1415612bbb5760405162461bcd60e51b81526020600482015260116024820152701590531251159055531517d55392539255607a1b60448201526064016108f7565b6002816002811115612bcf57612bcf613da8565b1415612be057600192505050611535565b506000949350505050565b6001600160a01b038416600090815260696020526040812081612c0d82612f0c565b90506000805b82811015612d88576000612c278583612f16565b9050612c33818b612afc565b15612d7557806001600160a01b0316896001600160a01b03161415612ce757604051635ac28bf960e01b81526001600160a01b038b81166004830152602482018a9052821690635ac28bf99060440160206040518083038186803b158015612c9a57600080fd5b505afa158015612cae573d6000803e3d6000fd5b505050506040513d601f19601f82011682018060405250810190612cd291906141ae565b612cdc9087614303565b955060019250612d75565b60405163ae318c4d60e01b81526001600160a01b038b81166004830152881515602483015282169063ae318c4d9060440160206040518083038186803b158015612d3057600080fd5b505afa158015612d44573d6000803e3d6000fd5b505050506040513d601f19601f82011682018060405250810190612d6891906141ae565b612d729087614303565b95505b5080612d80816142a9565b915050612c13565b5080158015612d9c5750612d9c8789612afc565b15612e2e57604051635ac28bf960e01b81526001600160a01b03898116600483015260248201889052881690635ac28bf99060440160206040518083038186803b158015612de957600080fd5b505afa158015612dfd573d6000803e3d6000fd5b505050506040513d601f19601f82011682018060405250810190612e2191906141ae565b612e2b9085614303565b93505b505050949350505050565b600080612e4584612f0c565b905060005b81811015612f03576000612e5e8683612f16565b60405163ae318c4d60e01b81526001600160a01b03898116600483015287151560248301529192509082169063ae318c4d9060440160206040518083038186803b158015612eab57600080fd5b505afa158015612ebf573d6000803e3d6000fd5b505050506040513d601f19601f82011682018060405250810190612ee391906141ae565b612eed9085614303565b9350508080612efb906142a9565b915050612e4a565b50509392505050565b6000611535825490565b60006115328383613803565b6001600160a01b0381166000908152606b6020908152604091829020825160c081018452905460ff8082161515835261010082048116151593830193909352620100008104831615159382019390935263010000008304821615156060820152600160201b8304821615156080820152600160281b90920416151560a0820152336001600160a01b0316612fbe6033546001600160a01b031690565b6001600160a01b03161480613000575060725460ff168015612fe95750607254600160281b900460ff165b8015612ff3575080515b801561300057508060a001515b61303b5760405162461bcd60e51b815260206004820152600c60248201526b13125457d11254d05093115160a21b60448201526064016108f7565b505050565b6001600160a01b03821660009081526069602052604081208161306282612f0c565b905060005b81811015611a2b57600061307b8483612f16565b90506130878188612afc565b1561311a5760405163ae318c4d60e01b81526001600160a01b038881166004830152871515602483015282169063ae318c4d9060440160206040518083038186803b1580156130d557600080fd5b505afa1580156130e9573d6000803e3d6000fd5b505050506040513d601f19601f8201168201806040525081019061310d91906141ae565b6131179086614303565b94505b5080613125816142a9565b915050613067565b60008061313986612f0c565b90506000805b828110156132a55760006131538983612f16565b9050806001600160a01b0316886001600160a01b0316141561320457604051635ac28bf960e01b81526001600160a01b038b8116600483015260248201899052821690635ac28bf99060440160206040518083038186803b1580156131b757600080fd5b505afa1580156131cb573d6000803e3d6000fd5b505050506040513d601f19601f820116820180604052508101906131ef91906141ae565b6131f99086614303565b945060019250613292565b60405163ae318c4d60e01b81526001600160a01b038b81166004830152871515602483015282169063ae318c4d9060440160206040518083038186803b15801561324d57600080fd5b505afa158015613261573d6000803e3d6000fd5b505050506040513d601f19601f8201168201806040525081019061328591906141ae565b61328f9086614303565b94505b508061329d816142a9565b91505061313f565b508061333857604051635ac28bf960e01b81526001600160a01b03898116600483015260248201879052871690635ac28bf99060440160206040518083038186803b1580156132f357600080fd5b505afa158015613307573d6000803e3d6000fd5b505050506040513d601f19601f8201168201806040525081019061332b91906141ae565b6133359084614303565b92505b505095945050505050565b603380546001600160a01b038381166001600160a01b0319831681179093556040519116919082907f8be0079c531659141344cd1fd0a4f28419497f9722a3daafe3b4186f6b6457e090600090a35050565b6000611532836001600160a01b03841661382d565b60008054610100900460ff16156133f1578160ff1660011480156133cd5750303b155b6133e95760405162461bcd60e51b81526004016108f790614348565b506000919050565b60005460ff8084169116106134185760405162461bcd60e51b81526004016108f790614348565b506000805460ff191660ff92909216919091179055600190565b919050565b600054610100900460ff1661345e5760405162461bcd60e51b81526004016108f790614396565b611ead613920565b6001600160a01b03811660009081526001830160205260408120541515611532565b60405163ae318c4d60e01b81526001600160a01b038681166004830152600160248301526000919086169063ae318c4d9060440160206040518083038186803b1580156134d457600080fd5b505afa1580156134e8573d6000803e3d6000fd5b505050506040513d601f19601f8201168201806040525081019061350c91906141ae565b6040516374eb83c160e01b81529091506001600160a01b038616906374eb83c1906135419087908a9088908890600401614213565b600060405180830381600087803b15801561355b57600080fd5b505af115801561356f573d6000803e3d6000fd5b5050505095945050505050565b6000806135f3836001600160a01b0316636f307dc36040518163ffffffff1660e01b815260040160206040518083038186803b1580156135bb57600080fd5b505afa1580156135cf573d6000803e3d6000fd5b505050506040513d601f19601f8201168201806040525081019061031c9190614191565b5061ffff161515949350505050565b60405163fc7e286d60e01b81526001600160a01b0387811660048301526000919087169063fc7e286d9060240160206040518083038186803b15801561364757600080fd5b505afa15801561365b573d6000803e3d6000fd5b505050506040513d601f19601f8201168201806040525081019061367f91906141ae565b6040516374eb83c160e01b81529091506001600160a01b038716906374eb83c1906136b49087908b9088908890600401614213565b600060405180830381600087803b1580156136ce57600080fd5b505af11580156136e2573d6000803e3d6000fd5b50505050848111156137e457856001600160a01b031663f213159c876001600160a01b0316636f307dc36040518163ffffffff1660e01b815260040160206040518083038186803b15801561373657600080fd5b505afa15801561374a573d6000803e3d6000fd5b505050506040513d601f19601f8201168201806040525081019061376e9190614191565b8961377989866141fc565b6040516001600160e01b031960e086901b1681526001600160a01b0393841660048201529290911660248301526044820152606401600060405180830381600087803b1580156137c857600080fd5b505af11580156137dc573d6000803e3d6000fd5b505050508490505b9695505050505050565b6000611532836001600160a01b038416613950565b600082600001828154811061381a5761381a614276565b9060005260206000200154905092915050565b600081815260018301602052604081205480156139165760006138516001836141fc565b8554909150600090613865906001906141fc565b90508181146138ca57600086600001828154811061388557613885614276565b90600052602060002001549050808760000184815481106138a8576138a8614276565b6000918252602080832090910192909255918252600188019052604090208390555b85548690806138db576138db6143e1565b600190038181906000526020600020016000905590558560010160008681526020019081526020016000206000905560019350505050611535565b6000915050611535565b600054610100900460ff166139475760405162461bcd60e51b81526004016108f790614396565b611ead33613343565b600081815260018301602052604081205461399757508154600181810184556000848152602080822090930184905584548482528286019093526040902091909155611535565b506000611535565b6001600160a01b0381168114611fcf57600080fd5b6000806000606084860312156139c957600080fd5b83356139d48161399f565b925060208401356139e48161399f565b929592945050506040919091013590565b803561ffff8116811461343257600080fd5b60008060008060808587031215613a1d57600080fd5b8435613a288161399f565b93506020850135613a388161399f565b9250613a46604086016139f5565b9150613a54606086016139f5565b905092959194509250565b8015158114611fcf57600080fd5b60008060408385031215613a8057600080fd5b8235613a8b8161399f565b91506020830135613a9b81613a5f565b809150509250929050565b60008083601f840112613ab857600080fd5b50813567ffffffffffffffff811115613ad057600080fd5b602083019150836020828501011115613ae857600080fd5b9250929050565b600080600060408486031215613b0457600080fd5b8335613b0f8161399f565b9250602084013567ffffffffffffffff811115613b2b57600080fd5b613b3786828701613aa6565b9497909650939450505050565b60008060408385031215613b5757600080fd5b8235613b628161399f565b91506020830135613a9b8161399f565b600060208284031215613b8457600080fd5b8135613b8f8161399f565b9392505050565b60008060008060808587031215613bac57600080fd5b8435613bb78161399f565b93506020850135613bc78161399f565b9250604085013591506060850135613bde81613a5f565b939692955090935050565b634e487b7160e01b600052604160045260246000fd5b604051601f8201601f1916810167ffffffffffffffff81118282101715613c2857613c28613be9565b604052919050565b600067ffffffffffffffff821115613c4a57613c4a613be9565b5060051b60200190565b600082601f830112613c6557600080fd5b81356020613c7a613c7583613c30565b613bff565b82815260059290921b84018101918181019086841115613c9957600080fd5b8286015b84811015613cc257803560038110613cb55760008081fd5b8352918301918301613c9d565b509695505050505050565b60008060408385031215613ce057600080fd5b823567ffffffffffffffff80821115613cf857600080fd5b818501915085601f830112613d0c57600080fd5b81356020613d1c613c7583613c30565b82815260059290921b84018101918181019089841115613d3b57600080fd5b948201945b83861015613d62578535613d538161399f565b82529482019490820190613d40565b96505086013592505080821115613d7857600080fd5b50613d8585828601613c54565b9150509250929050565b600060208284031215613da157600080fd5b5035919050565b634e487b7160e01b600052602160045260246000fd5b60038110613ddc57634e487b7160e01b600052602160045260246000fd5b9052565b602081016115358284613dbe565b600060c08284031215613e0057600080fd5b60405160c0810181811067ffffffffffffffff82111715613e2357613e23613be9565b6040529050808235613e3481613a5f565b81526020830135613e4481613a5f565b60208201526040830135613e5781613a5f565b60408201526060830135613e6a81613a5f565b60608201526080830135613e7d81613a5f565b608082015260a0830135613e9081613a5f565b60a0919091015292915050565b60008060e08385031215613eb057600080fd5b8235613ebb8161399f565b91506129ba8460208501613dee565b600060208284031215613edc57600080fd5b8135613b8f81613a5f565b60008083601f840112613ef957600080fd5b50813567ffffffffffffffff811115613f1157600080fd5b6020830191508360208260051b8501011115613ae857600080fd5b60008060008060008060808789031215613f4557600080fd5b8635613f508161399f565b9550602087013567ffffffffffffffff80821115613f6d57600080fd5b613f798a838b01613ee7565b909750955060408901359150613f8e8261399f565b90935060608801359080821115613fa457600080fd5b50613fb189828a01613aa6565b979a9699509497509295939492505050565b600080600060608486031215613fd857600080fd5b8335613fe38161399f565b925060208401356139e481613a5f565b600060e08201905060018060a01b03841682528251151560208301526020830151151560408301526040830151151560608301526060830151151560808301526080830151151560a083015260a0830151151560c08301529392505050565b600060c0828403121561406457600080fd5b6115328383613dee565b60008060008060008060006080888a03121561408957600080fd5b873567ffffffffffffffff808211156140a157600080fd5b6140ad8b838c01613ee7565b909950975060208a01359150808211156140c657600080fd5b6140d28b838c01613ee7565b909750955060408a013591506140e78261399f565b909350606089013590808211156140fd57600080fd5b5061410a8a828b01613aa6565b989b979a50959850939692959293505050565b634e487b7160e01b600052601160045260246000fd5b60008083128015600160ff1b8501841216156141515761415161411d565b6001600160ff1b038401831381161561416c5761416c61411d565b50500390565b600081600019048311821515161561418c5761418c61411d565b500290565b6000602082840312156141a357600080fd5b8151613b8f8161399f565b6000602082840312156141c057600080fd5b5051919050565b6020808252818101527f4f776e61626c653a2063616c6c6572206973206e6f7420746865206f776e6572604082015260600190565b60008282101561420e5761420e61411d565b500390565b6001600160a01b0385811682528416602082015260606040820181905281018290526000828460808401376000608084840101526080601f19601f850116830101905095945050505050565b60008161426e5761426e61411d565b506000190190565b634e487b7160e01b600052603260045260246000fd5b6001600160a01b038316815260408101613b8f6020830184613dbe565b60006000198214156142bd576142bd61411d565b5060010190565b6000826142e157634e487b7160e01b600052601260045260246000fd5b500490565b6000602082840312156142f857600080fd5b8151613b8f81613a5f565b600082198211156143165761431661411d565b500190565b6001600160a01b03848116825283166020820152606081016143406040830184613dbe565b949350505050565b6020808252602e908201527f496e697469616c697a61626c653a20636f6e747261637420697320616c72656160408201526d191e481a5b9a5d1a585b1a5e995960921b606082015260800190565b6020808252602b908201527f496e697469616c697a61626c653a20636f6e7472616374206973206e6f74206960408201526a6e697469616c697a696e6760a81b606082015260800190565b634e487b7160e01b600052603160045260246000fdfea2646970667358221220cce8d0d530e53b65fc1b9dd35fec0a863a2e01cd06efa024bf28a7c32b3ebefe64736f6c63430008090033",
  "devdoc": {
    "kind": "dev",
    "methods": {
      "beforeBorrow(address,address,uint256)": {
        "params": {
          "_amount": "loan amount",
          "_user": "borrower",
          "_vault": "address of loan market"
        }
      },
      "beforeDeposit(address,address,uint256)": {
        "params": {
          "_vault": "address of deposit market param  _amount deposit amount"
        }
      },
      "owner()": {
        "details": "Returns the address of the current owner."
      },
      "renounceOwnership()": {
        "details": "Leaves the contract without owner. It will not be possible to call `onlyOwner` functions anymore. Can only be called by the current owner. NOTE: Renouncing ownership will leave the contract without an owner, thereby removing any functionality that is only available to the owner."
      },
      "transferOwnership(address)": {
        "details": "Transfers ownership of the contract to a new account (`newOwner`). Can only be called by the current owner."
      },
      "userPendingValues(address,address,int256,bool)": {
        "params": {
          "_amount": "the amount of deposits or withdrawals",
          "_dp": "discount or premium",
          "_user": "depositors",
          "_vault": "target vault"
        }
      },
      "userTotalPendingValues(address,address,int256,bool)": {
        "params": {
          "_amount": "the amount of deposits or withdrawals",
          "_dp": "discount or premium",
          "_user": "depositors",
          "_vault": "target vault"
        }
      },
      "userTotalValues(address,bool)": {
        "params": {
          "_dp": "discount or premium",
          "_user": "depositors"
        }
      },
      "userValues(address,bool)": {
        "params": {
          "_dp": "discount or premium",
          "_user": "depositors"
        }
      }
    },
    "version": 1
  },
  "userdoc": {
    "kind": "user",
    "methods": {
      "beforeBorrow(address,address,uint256)": {
        "notice": "Risk control check before borrowing"
      },
      "beforeDeposit(address,address,uint256)": {
        "notice": "Risk control check before deposit param _user depositors"
      },
      "isNeedLiquidate(address)": {
        "notice": "determine whether the borrower needs to be liquidated"
      },
      "maxBorrow(address,address)": {
        "notice": "maximum that a user can borrow from a Vault"
      },
      "userPendingValues(address,address,int256,bool)": {
        "notice": "predict total valid vault value after the user operating vault (i.e., Vault of deposit only counts collateral)"
      },
      "userTotalPendingValues(address,address,int256,bool)": {
        "notice": "predict total vault value after the user operating Vault"
      },
      "userTotalValues(address,bool)": {
        "notice": "Get user total Vault value"
      },
      "userValues(address,bool)": {
        "notice": "Get user total valid Vault value (i.e., Vault of deposit only counts collateral)"
      }
    },
    "version": 1
  },
  "storageLayout": {
    "storage": [
      {
        "astId": 188,
        "contract": "contracts/AppController.sol:AppController",
        "label": "_initialized",
        "offset": 0,
        "slot": "0",
        "type": "t_uint8"
      },
      {
        "astId": 191,
        "contract": "contracts/AppController.sol:AppController",
        "label": "_initializing",
        "offset": 1,
        "slot": "0",
        "type": "t_bool"
      },
      {
        "astId": 1640,
        "contract": "contracts/AppController.sol:AppController",
        "label": "__gap",
        "offset": 0,
        "slot": "1",
        "type": "t_array(t_uint256)50_storage"
      },
      {
        "astId": 68,
        "contract": "contracts/AppController.sol:AppController",
        "label": "_owner",
        "offset": 0,
        "slot": "51",
        "type": "t_address"
      },
      {
        "astId": 180,
        "contract": "contracts/AppController.sol:AppController",
        "label": "__gap",
        "offset": 0,
        "slot": "52",
        "type": "t_array(t_uint256)49_storage"
      },
      {
        "astId": 5801,
        "contract": "contracts/AppController.sol:AppController",
        "label": "dyTokens",
        "offset": 0,
        "slot": "101",
        "type": "t_mapping(t_address,t_address)"
      },
      {
        "astId": 5805,
        "contract": "contracts/AppController.sol:AppController",
        "label": "strategies",
        "offset": 0,
        "slot": "102",
        "type": "t_mapping(t_address,t_address)"
      },
      {
        "astId": 5817,
        "contract": "contracts/AppController.sol:AppController",
        "label": "valueConfs",
        "offset": 0,
        "slot": "103",
        "type": "t_mapping(t_address,t_struct(ValueConf)5812_storage)"
      },
      {
        "astId": 5822,
        "contract": "contracts/AppController.sol:AppController",
        "label": "dyTokenVaults",
        "offset": 0,
        "slot": "104",
        "type": "t_mapping(t_address,t_address)"
      },
      {
        "astId": 5827,
        "contract": "contracts/AppController.sol:AppController",
        "label": "userJoinedDepositVaults",
        "offset": 0,
        "slot": "105",
        "type": "t_mapping(t_address,t_struct(AddressSet)5179_storage)"
      },
      {
        "astId": 5832,
        "contract": "contracts/AppController.sol:AppController",
        "label": "userJoinedBorrowVaults",
        "offset": 0,
        "slot": "106",
        "type": "t_mapping(t_address,t_struct(AddressSet)5179_storage)"
      },
      {
        "astId": 5850,
        "contract": "contracts/AppController.sol:AppController",
        "label": "vaultStates",
        "offset": 0,
        "slot": "107",
        "type": "t_mapping(t_address,t_struct(VaultState)5845_storage)"
      },
      {
        "astId": 5852,
        "contract": "contracts/AppController.sol:AppController",
        "label": "liquidateRate",
        "offset": 0,
        "slot": "108",
        "type": "t_uint256"
      },
      {
        "astId": 5854,
        "contract": "contracts/AppController.sol:AppController",
        "label": "collateralRate",
        "offset": 0,
        "slot": "109",
        "type": "t_uint256"
      },
      {
        "astId": 5856,
        "contract": "contracts/AppController.sol:AppController",
        "label": "isOpenLiquidate",
        "offset": 0,
        "slot": "110",
        "type": "t_bool"
      },
      {
        "astId": 5860,
        "contract": "contracts/AppController.sol:AppController",
        "label": "allowedLiquidator",
        "offset": 0,
        "slot": "111",
        "type": "t_mapping(t_address,t_bool)"
      },
      {
        "astId": 5866,
        "contract": "contracts/AppController.sol:AppController",
        "label": "validVaults",
        "offset": 0,
        "slot": "112",
        "type": "t_mapping(t_address,t_enum(ValidVault)16375)"
      },
      {
        "astId": 5874,
        "contract": "contracts/AppController.sol:AppController",
        "label": "validVaultsOfUser",
        "offset": 0,
        "slot": "113",
        "type": "t_mapping(t_address,t_mapping(t_address,t_enum(ValidVault)16375))"
      },
      {
        "astId": 5877,
        "contract": "contracts/AppController.sol:AppController",
        "label": "globalVaultState",
        "offset": 0,
        "slot": "114",
        "type": "t_struct(VaultState)5845_storage"
      }
    ],
    "types": {
      "t_address": {
        "encoding": "inplace",
        "label": "address",
        "numberOfBytes": "20"
      },
      "t_array(t_bytes32)dyn_storage": {
        "base": "t_bytes32",
        "encoding": "dynamic_array",
        "label": "bytes32[]",
        "numberOfBytes": "32"
      },
      "t_array(t_uint256)49_storage": {
        "base": "t_uint256",
        "encoding": "inplace",
        "label": "uint256[49]",
        "numberOfBytes": "1568"
      },
      "t_array(t_uint256)50_storage": {
        "base": "t_uint256",
        "encoding": "inplace",
        "label": "uint256[50]",
        "numberOfBytes": "1600"
      },
      "t_bool": {
        "encoding": "inplace",
        "label": "bool",
        "numberOfBytes": "1"
      },
      "t_bytes32": {
        "encoding": "inplace",
        "label": "bytes32",
        "numberOfBytes": "32"
      },
      "t_enum(ValidVault)16375": {
        "encoding": "inplace",
        "label": "enum IController.ValidVault",
        "numberOfBytes": "1"
      },
      "t_mapping(t_address,t_address)": {
        "encoding": "mapping",
        "key": "t_address",
        "label": "mapping(address => address)",
        "numberOfBytes": "32",
        "value": "t_address"
      },
      "t_mapping(t_address,t_bool)": {
        "encoding": "mapping",
        "key": "t_address",
        "label": "mapping(address => bool)",
        "numberOfBytes": "32",
        "value": "t_bool"
      },
      "t_mapping(t_address,t_enum(ValidVault)16375)": {
        "encoding": "mapping",
        "key": "t_address",
        "label": "mapping(address => enum IController.ValidVault)",
        "numberOfBytes": "32",
        "value": "t_enum(ValidVault)16375"
      },
      "t_mapping(t_address,t_mapping(t_address,t_enum(ValidVault)16375))": {
        "encoding": "mapping",
        "key": "t_address",
        "label": "mapping(address => mapping(address => enum IController.ValidVault))",
        "numberOfBytes": "32",
        "value": "t_mapping(t_address,t_enum(ValidVault)16375)"
      },
      "t_mapping(t_address,t_struct(AddressSet)5179_storage)": {
        "encoding": "mapping",
        "key": "t_address",
        "label": "mapping(address => struct EnumerableSet.AddressSet)",
        "numberOfBytes": "32",
        "value": "t_struct(AddressSet)5179_storage"
      },
      "t_mapping(t_address,t_struct(ValueConf)5812_storage)": {
        "encoding": "mapping",
        "key": "t_address",
        "label": "mapping(address => struct AppController.ValueConf)",
        "numberOfBytes": "32",
        "value": "t_struct(ValueConf)5812_storage"
      },
      "t_mapping(t_address,t_struct(VaultState)5845_storage)": {
        "encoding": "mapping",
        "key": "t_address",
        "label": "mapping(address => struct AppController.VaultState)",
        "numberOfBytes": "32",
        "value": "t_struct(VaultState)5845_storage"
      },
      "t_mapping(t_bytes32,t_uint256)": {
        "encoding": "mapping",
        "key": "t_bytes32",
        "label": "mapping(bytes32 => uint256)",
        "numberOfBytes": "32",
        "value": "t_uint256"
      },
      "t_struct(AddressSet)5179_storage": {
        "encoding": "inplace",
        "label": "struct EnumerableSet.AddressSet",
        "members": [
          {
            "astId": 5178,
            "contract": "contracts/AppController.sol:AppController",
            "label": "_inner",
            "offset": 0,
            "slot": "0",
            "type": "t_struct(Set)4878_storage"
          }
        ],
        "numberOfBytes": "64"
      },
      "t_struct(Set)4878_storage": {
        "encoding": "inplace",
        "label": "struct EnumerableSet.Set",
        "members": [
          {
            "astId": 4873,
            "contract": "contracts/AppController.sol:AppController",
            "label": "_values",
            "offset": 0,
            "slot": "0",
            "type": "t_array(t_bytes32)dyn_storage"
          },
          {
            "astId": 4877,
            "contract": "contracts/AppController.sol:AppController",
            "label": "_indexes",
            "offset": 0,
            "slot": "1",
            "type": "t_mapping(t_bytes32,t_uint256)"
          }
        ],
        "numberOfBytes": "64"
      },
      "t_struct(ValueConf)5812_storage": {
        "encoding": "inplace",
        "label": "struct AppController.ValueConf",
        "members": [
          {
            "astId": 5807,
            "contract": "contracts/AppController.sol:AppController",
            "label": "oracle",
            "offset": 0,
            "slot": "0",
            "type": "t_address"
          },
          {
            "astId": 5809,
            "contract": "contracts/AppController.sol:AppController",
            "label": "dr",
            "offset": 20,
            "slot": "0",
            "type": "t_uint16"
          },
          {
            "astId": 5811,
            "contract": "contracts/AppController.sol:AppController",
            "label": "pr",
            "offset": 22,
            "slot": "0",
            "type": "t_uint16"
          }
        ],
        "numberOfBytes": "32"
      },
      "t_struct(VaultState)5845_storage": {
        "encoding": "inplace",
        "label": "struct AppController.VaultState",
        "members": [
          {
            "astId": 5834,
            "contract": "contracts/AppController.sol:AppController",
            "label": "enabled",
            "offset": 0,
            "slot": "0",
            "type": "t_bool"
          },
          {
            "astId": 5836,
            "contract": "contracts/AppController.sol:AppController",
            "label": "enableDeposit",
            "offset": 1,
            "slot": "0",
            "type": "t_bool"
          },
          {
            "astId": 5838,
            "contract": "contracts/AppController.sol:AppController",
            "label": "enableWithdraw",
            "offset": 2,
            "slot": "0",
            "type": "t_bool"
          },
          {
            "astId": 5840,
            "contract": "contracts/AppController.sol:AppController",
            "label": "enableBorrow",
            "offset": 3,
            "slot": "0",
            "type": "t_bool"
          },
          {
            "astId": 5842,
            "contract": "contracts/AppController.sol:AppController",
            "label": "enableRepay",
            "offset": 4,
            "slot": "0",
            "type": "t_bool"
          },
          {
            "astId": 5844,
            "contract": "contracts/AppController.sol:AppController",
            "label": "enableLiquidate",
            "offset": 5,
            "slot": "0",
            "type": "t_bool"
          }
        ],
        "numberOfBytes": "32"
      },
      "t_uint16": {
        "encoding": "inplace",
        "label": "uint16",
        "numberOfBytes": "2"
      },
      "t_uint256": {
        "encoding": "inplace",
        "label": "uint256",
        "numberOfBytes": "32"
      },
      "t_uint8": {
        "encoding": "inplace",
        "label": "uint8",
        "numberOfBytes": "1"
      }
    }
  }
}