{
  "address": "0x471440CAdCcF6fBC305b46ad383Fd9F739325bA5",
  "abi": [
    {
      "anonymous": false,
      "inputs": [
        {
          "indexed": true,
          "internalType": "address",
          "name": "user",
          "type": "address"
        },
        {
          "indexed": true,
          "internalType": "address",
          "name": "newAdmin",
          "type": "address"
        }
      ],
      "name": "AdminUpdated",
      "type": "event"
    },
    {
      "anonymous": false,
      "inputs": [
        {
          "indexed": false,
          "internalType": "uint8",
          "name": "version",
          "type": "uint8"
        }
      ],
      "name": "Initialized",
      "type": "event"
    },
    {
      "inputs": [],
      "name": "admin",
      "outputs": [
        {
          "internalType": "address",
          "name": "",
          "type": "address"
        }
      ],
      "stateMutability": "view",
      "type": "function"
    },
    {
      "inputs": [
        {
          "internalType": "address",
          "name": "",
          "type": "address"
        }
      ],
      "name": "duetOracleMapping",
      "outputs": [
        {
          "internalType": "contract IDuetOracle",
          "name": "",
          "type": "address"
        }
      ],
      "stateMutability": "view",
      "type": "function"
    },
    {
      "inputs": [],
      "name": "fallbackDuetOracle",
      "outputs": [
        {
          "internalType": "contract IDuetOracle",
          "name": "",
          "type": "address"
        }
      ],
      "stateMutability": "view",
      "type": "function"
    },
    {
      "inputs": [
        {
          "internalType": "address",
          "name": "admin_",
          "type": "address"
        }
      ],
      "name": "initialize",
      "outputs": [],
      "stateMutability": "nonpayable",
      "type": "function"
    },
    {
      "inputs": [
        {
          "internalType": "address",
          "name": "base_",
          "type": "address"
        }
      ],
      "name": "prices",
      "outputs": [
        {
          "internalType": "uint256",
          "name": "price",
          "type": "uint256"
        }
      ],
      "stateMutability": "view",
      "type": "function"
    },
    {
      "inputs": [
        {
          "internalType": "address",
          "name": "newAdmin",
          "type": "address"
        }
      ],
      "name": "setAdmin",
      "outputs": [],
      "stateMutability": "nonpayable",
      "type": "function"
    },
    {
      "inputs": [
        {
          "internalType": "address",
          "name": "token_",
          "type": "address"
        },
        {
          "internalType": "contract IDuetOracle",
          "name": "duetOracle_",
          "type": "address"
        }
      ],
      "name": "setDuetOracle",
      "outputs": [],
      "stateMutability": "nonpayable",
      "type": "function"
    },
    {
      "inputs": [
        {
          "internalType": "contract IDuetOracle",
          "name": "fallbackDuetOracle_",
          "type": "address"
        }
      ],
      "name": "setFallbackDuetOracle",
      "outputs": [],
      "stateMutability": "nonpayable",
      "type": "function"
    }
  ],
  "transactionHash": "0x8ee1f84d3817578b17d5572862d9075bec8dee2b31cb56d787460b068046e9f9",
  "args": [],
  "numDeployments": 1,
  "solcInputHash": "ea61f39cb2fc560e123acc8a19afc85d",
  "bytecode": "0x608060405234801561001057600080fd5b5061091b806100206000396000f3fe608060405234801561001057600080fd5b50600436106100885760003560e01c8063c4d66de81161005b578063c4d66de81461010e578063cdbe75fe14610121578063cfed246b14610134578063f851a4401461015557600080fd5b8063149423501461008d578063704b6c02146100d357806396c914ff146100e85780639d85084f146100fb575b600080fd5b6100b661009b36600461067f565b6001602052600090815260409020546001600160a01b031681565b6040516001600160a01b0390911681526020015b60405180910390f35b6100e66100e136600461067f565b610168565b005b6002546100b6906001600160a01b031681565b6100e661010936600461069c565b6101a7565b6100e661011c36600461067f565b6101ff565b6100e661012f36600461067f565b61027c565b61014761014236600461067f565b6102c8565b6040519081526020016100ca565b6000546100b6906001600160a01b031681565b6000546001600160a01b0316331461019b5760405162461bcd60e51b8152600401610192906106d5565b60405180910390fd5b6101a481610524565b50565b6000546001600160a01b031633146101d15760405162461bcd60e51b8152600401610192906106d5565b6001600160a01b03918216600090815260016020526040902080546001600160a01b03191691909216179055565b600061020b60016105cf565b90508015610227576000805460ff60a81b1916600160a81b1790555b61023082610524565b8015610278576000805460ff60a81b19169055604051600181527f7f26b83ff96e1f2b6a682f133852f6798a09c465da95921460cefb38474024989060200160405180910390a15b5050565b6000546001600160a01b031633146102a65760405162461bcd60e51b8152600401610192906106d5565b600280546001600160a01b0319166001600160a01b0392909216919091179055565b6001600160a01b0381811660009081526001602052604081205490911661036d576002546040516341976e0960e01b81526001600160a01b038481166004830152909116906341976e099060240160206040518083038186803b15801561032e57600080fd5b505afa158015610342573d6000803e3d6000fd5b505050506040513d601f19601f8201168201806040525081019061036691906106fb565b90506103fd565b6001600160a01b03828116600081815260016020526040908190205490516341976e0960e01b81526004810192909252909116906341976e099060240160206040518083038186803b1580156103c257600080fd5b505afa1580156103d6573d6000803e3d6000fd5b505050506040513d601f19601f820116820180604052508101906103fa91906106fb565b90505b6000811161044d5760405162461bcd60e51b815260206004820152601960248201527f496e76616c69642070726963652066726f6d206f7261636c65000000000000006044820152606401610192565b6000826001600160a01b031663313ce5676040518163ffffffff1660e01b815260040160206040518083038186803b15801561048857600080fd5b505afa15801561049c573d6000803e3d6000fd5b505050506040513d601f19601f820116820180604052508101906104c09190610714565b60ff16905080600814156104d45750919050565b6008811115610504576104e860088261074d565b6104f390600a61084a565b6104fd9083610856565b9392505050565b61050f81600861074d565b61051a90600a61084a565b6104fd9083610875565b6001600160a01b0381166105845760405162461bcd60e51b815260206004820152602160248201527f43616e206e6f74207365742061646d696e20746f207a65726f206164647265736044820152607360f81b6064820152608401610192565b600080546001600160a01b0319166001600160a01b0383169081178255604051909133917f101b8081ff3b56bbf45deb824d86a3b0fd38b7e3dd42421105cf8abe9106db0b9190a350565b60008054600160a81b900460ff1615610618578160ff1660011480156105f45750303b155b6106105760405162461bcd60e51b815260040161019290610897565b506000919050565b60005460ff808416600160a01b90920416106106465760405162461bcd60e51b815260040161019290610897565b506000805460ff909216600160a01b0260ff60a01b19909216919091179055600190565b6001600160a01b03811681146101a457600080fd5b60006020828403121561069157600080fd5b81356104fd8161066a565b600080604083850312156106af57600080fd5b82356106ba8161066a565b915060208301356106ca8161066a565b809150509250929050565b6020808252600c908201526b15539055551213d49256915160a21b604082015260600190565b60006020828403121561070d57600080fd5b5051919050565b60006020828403121561072657600080fd5b815160ff811681146104fd57600080fd5b634e487b7160e01b600052601160045260246000fd5b60008282101561075f5761075f610737565b500390565b600181815b8085111561079f57816000190482111561078557610785610737565b8085161561079257918102915b93841c9390800290610769565b509250929050565b6000826107b657506001610844565b816107c357506000610844565b81600181146107d957600281146107e3576107ff565b6001915050610844565b60ff8411156107f4576107f4610737565b50506001821b610844565b5060208310610133831016604e8410600b8410161715610822575081810a610844565b61082c8383610764565b806000190482111561084057610840610737565b0290505b92915050565b60006104fd83836107a7565b600081600019048311821515161561087057610870610737565b500290565b60008261089257634e487b7160e01b600052601260045260246000fd5b500490565b6020808252602e908201527f496e697469616c697a61626c653a20636f6e747261637420697320616c72656160408201526d191e481a5b9a5d1a585b1a5e995960921b60608201526080019056fea2646970667358221220e6ef2e70ec65c434b41bc2275ff44ead4edf7b37bc296723f3836a8d29d96ad164736f6c63430008090033",
  "devdoc": {
    "kind": "dev",
    "methods": {},
    "version": 1
  },
  "userdoc": {
    "kind": "user",
    "methods": {
      "fallbackDuetOracle()": {
        "notice": "fallback oracle for tokens which no oracle in duetOracleMapping"
      }
    },
    "version": 1
  },
  "storageLayout": {
    "storage": [
      {
        "astId": 9202,
        "contract": "contracts/DodoOracle.sol:DodoOracle",
        "label": "admin",
        "offset": 0,
        "slot": "0",
        "type": "t_address"
      },
      {
        "astId": 6,
        "contract": "contracts/DodoOracle.sol:DodoOracle",
        "label": "_initialized",
        "offset": 20,
        "slot": "0",
        "type": "t_uint8"
      },
      {
        "astId": 9,
        "contract": "contracts/DodoOracle.sol:DodoOracle",
        "label": "_initializing",
        "offset": 21,
        "slot": "0",
        "type": "t_bool"
      },
      {
        "astId": 2388,
        "contract": "contracts/DodoOracle.sol:DodoOracle",
        "label": "duetOracleMapping",
        "offset": 0,
        "slot": "1",
        "type": "t_mapping(t_address,t_contract(IDuetOracle)9054)"
      },
      {
        "astId": 2392,
        "contract": "contracts/DodoOracle.sol:DodoOracle",
        "label": "fallbackDuetOracle",
        "offset": 0,
        "slot": "2",
        "type": "t_contract(IDuetOracle)9054"
      }
    ],
    "types": {
      "t_address": {
        "encoding": "inplace",
        "label": "address",
        "numberOfBytes": "20"
      },
      "t_bool": {
        "encoding": "inplace",
        "label": "bool",
        "numberOfBytes": "1"
      },
      "t_contract(IDuetOracle)9054": {
        "encoding": "inplace",
        "label": "contract IDuetOracle",
        "numberOfBytes": "20"
      },
      "t_mapping(t_address,t_contract(IDuetOracle)9054)": {
        "encoding": "mapping",
        "key": "t_address",
        "label": "mapping(address => contract IDuetOracle)",
        "numberOfBytes": "32",
        "value": "t_contract(IDuetOracle)9054"
      },
      "t_uint8": {
        "encoding": "inplace",
        "label": "uint8",
        "numberOfBytes": "1"
      }
    }
  }
}