{
  "address": "0x87bd5F20bC2D611f381A0C41f54FF5834E99D2cF",
  "abi": [
    {
      "anonymous": false,
      "inputs": [
        {
          "indexed": true,
          "internalType": "address",
          "name": "user",
          "type": "address"
        },
        {
          "indexed": true,
          "internalType": "address",
          "name": "newAdmin",
          "type": "address"
        }
      ],
      "name": "AdminUpdated",
      "type": "event"
    },
    {
      "anonymous": false,
      "inputs": [
        {
          "indexed": true,
          "internalType": "address",
          "name": "owner",
          "type": "address"
        },
        {
          "indexed": true,
          "internalType": "address",
          "name": "spender",
          "type": "address"
        },
        {
          "indexed": false,
          "internalType": "uint256",
          "name": "amount",
          "type": "uint256"
        }
      ],
      "name": "Approval",
      "type": "event"
    },
    {
      "anonymous": false,
      "inputs": [
        {
          "indexed": true,
          "internalType": "address",
          "name": "user",
          "type": "address"
        },
        {
          "indexed": false,
          "internalType": "uint256",
          "name": "value",
          "type": "uint256"
        }
      ],
      "name": "Burn",
      "type": "event"
    },
    {
      "anonymous": false,
      "inputs": [
        {
          "indexed": false,
          "internalType": "address",
          "name": "to",
          "type": "address"
        },
        {
          "indexed": false,
          "internalType": "uint256",
          "name": "increaseShares",
          "type": "uint256"
        },
        {
          "indexed": false,
          "internalType": "uint256",
          "name": "totalShares",
          "type": "uint256"
        }
      ],
      "name": "BuyShares",
      "type": "event"
    },
    {
      "anonymous": false,
      "inputs": [
        {
          "indexed": true,
          "internalType": "address",
          "name": "user",
          "type": "address"
        },
        {
          "indexed": false,
          "internalType": "uint256",
          "name": "value",
          "type": "uint256"
        }
      ],
      "name": "Mint",
      "type": "event"
    },
    {
      "anonymous": false,
      "inputs": [
        {
          "indexed": false,
          "internalType": "address",
          "name": "payer",
          "type": "address"
        },
        {
          "indexed": false,
          "internalType": "address",
          "name": "to",
          "type": "address"
        },
        {
          "indexed": false,
          "internalType": "uint256",
          "name": "decreaseShares",
          "type": "uint256"
        },
        {
          "indexed": false,
          "internalType": "uint256",
          "name": "totalShares",
          "type": "uint256"
        }
      ],
      "name": "SellShares",
      "type": "event"
    },
    {
      "anonymous": false,
      "inputs": [
        {
          "indexed": true,
          "internalType": "address",
          "name": "from",
          "type": "address"
        },
        {
          "indexed": true,
          "internalType": "address",
          "name": "to",
          "type": "address"
        },
        {
          "indexed": false,
          "internalType": "uint256",
          "name": "amount",
          "type": "uint256"
        }
      ],
      "name": "Transfer",
      "type": "event"
    },
    {
      "stateMutability": "payable",
      "type": "fallback"
    },
    {
      "inputs": [],
      "name": "DOMAIN_SEPARATOR",
      "outputs": [
        {
          "internalType": "bytes32",
          "name": "",
          "type": "bytes32"
        }
      ],
      "stateMutability": "view",
      "type": "function"
    },
    {
      "inputs": [],
      "name": "PERMIT_TYPEHASH",
      "outputs": [
        {
          "internalType": "bytes32",
          "name": "",
          "type": "bytes32"
        }
      ],
      "stateMutability": "view",
      "type": "function"
    },
    {
      "inputs": [],
      "name": "_BASE_TOKEN_",
      "outputs": [
        {
          "internalType": "contract IERC20Metadata",
          "name": "",
          "type": "address"
        }
      ],
      "stateMutability": "view",
      "type": "function"
    },
    {
      "inputs": [],
      "name": "_DPP_ADDRESS_",
      "outputs": [
        {
          "internalType": "address",
          "name": "",
          "type": "address"
        }
      ],
      "stateMutability": "view",
      "type": "function"
    },
    {
      "inputs": [],
      "name": "_DPP_ADMIN_ADDRESS_",
      "outputs": [
        {
          "internalType": "address",
          "name": "",
          "type": "address"
        }
      ],
      "stateMutability": "view",
      "type": "function"
    },
    {
      "inputs": [],
      "name": "_I_",
      "outputs": [
        {
          "internalType": "uint128",
          "name": "",
          "type": "uint128"
        }
      ],
      "stateMutability": "view",
      "type": "function"
    },
    {
      "inputs": [],
      "name": "_K_",
      "outputs": [
        {
          "internalType": "uint64",
          "name": "",
          "type": "uint64"
        }
      ],
      "stateMutability": "view",
      "type": "function"
    },
    {
      "inputs": [],
      "name": "_LP_FEE_RATE_",
      "outputs": [
        {
          "internalType": "uint64",
          "name": "",
          "type": "uint64"
        }
      ],
      "stateMutability": "view",
      "type": "function"
    },
    {
      "inputs": [],
      "name": "_QUOTE_TOKEN_",
      "outputs": [
        {
          "internalType": "contract IERC20Metadata",
          "name": "",
          "type": "address"
        }
      ],
      "stateMutability": "view",
      "type": "function"
    },
    {
      "inputs": [],
      "name": "_WETH_",
      "outputs": [
        {
          "internalType": "address",
          "name": "",
          "type": "address"
        }
      ],
      "stateMutability": "view",
      "type": "function"
    },
    {
      "inputs": [
        {
          "internalType": "uint256",
          "name": "baseInAmount",
          "type": "uint256"
        },
        {
          "internalType": "uint256",
          "name": "quoteInAmount",
          "type": "uint256"
        },
        {
          "internalType": "uint256",
          "name": "baseMinAmount",
          "type": "uint256"
        },
        {
          "internalType": "uint256",
          "name": "quoteMinAmount",
          "type": "uint256"
        },
        {
          "internalType": "uint8",
          "name": "flag",
          "type": "uint8"
        },
        {
          "internalType": "uint256",
          "name": "deadLine",
          "type": "uint256"
        }
      ],
      "name": "addDuetDppLiquidity",
      "outputs": [
        {
          "internalType": "uint256",
          "name": "shares",
          "type": "uint256"
        },
        {
          "internalType": "uint256",
          "name": "baseAdjustedInAmount",
          "type": "uint256"
        },
        {
          "internalType": "uint256",
          "name": "quoteAdjustedInAmount",
          "type": "uint256"
        }
      ],
      "stateMutability": "payable",
      "type": "function"
    },
    {
      "inputs": [
        {
          "internalType": "address",
          "name": "_addr",
          "type": "address"
        }
      ],
      "name": "addressToShortString",
      "outputs": [
        {
          "internalType": "string",
          "name": "",
          "type": "string"
        }
      ],
      "stateMutability": "pure",
      "type": "function"
    },
    {
      "inputs": [],
      "name": "admin",
      "outputs": [
        {
          "internalType": "address",
          "name": "",
          "type": "address"
        }
      ],
      "stateMutability": "view",
      "type": "function"
    },
    {
      "inputs": [
        {
          "internalType": "address",
          "name": "owner",
          "type": "address"
        },
        {
          "internalType": "address",
          "name": "spender",
          "type": "address"
        }
      ],
      "name": "allowance",
      "outputs": [
        {
          "internalType": "uint256",
          "name": "",
          "type": "uint256"
        }
      ],
      "stateMutability": "view",
      "type": "function"
    },
    {
      "inputs": [
        {
          "internalType": "address",
          "name": "spender",
          "type": "address"
        },
        {
          "internalType": "uint256",
          "name": "amount",
          "type": "uint256"
        }
      ],
      "name": "approve",
      "outputs": [
        {
          "internalType": "bool",
          "name": "",
          "type": "bool"
        }
      ],
      "stateMutability": "nonpayable",
      "type": "function"
    },
    {
      "inputs": [
        {
          "internalType": "address",
          "name": "owner",
          "type": "address"
        }
      ],
      "name": "balanceOf",
      "outputs": [
        {
          "internalType": "uint256",
          "name": "balance",
          "type": "uint256"
        }
      ],
      "stateMutability": "view",
      "type": "function"
    },
    {
      "inputs": [
        {
          "internalType": "uint256",
          "name": "newBaseR_",
          "type": "uint256"
        },
        {
          "internalType": "uint256",
          "name": "newQuoteR_",
          "type": "uint256"
        }
      ],
      "name": "changeMinRes",
      "outputs": [],
      "stateMutability": "nonpayable",
      "type": "function"
    },
    {
      "inputs": [
        {
          "internalType": "address",
          "name": "newOracle",
          "type": "address"
        }
      ],
      "name": "changeOracle",
      "outputs": [],
      "stateMutability": "nonpayable",
      "type": "function"
    },
    {
      "inputs": [],
      "name": "decimals",
      "outputs": [
        {
          "internalType": "uint8",
          "name": "",
          "type": "uint8"
        }
      ],
      "stateMutability": "view",
      "type": "function"
    },
    {
      "inputs": [
        {
          "internalType": "uint256",
          "name": "newI",
          "type": "uint256"
        }
      ],
      "name": "disableOracle",
      "outputs": [],
      "stateMutability": "nonpayable",
      "type": "function"
    },
    {
      "inputs": [],
      "name": "enableOracle",
      "outputs": [],
      "stateMutability": "nonpayable",
      "type": "function"
    },
    {
      "inputs": [
        {
          "internalType": "address",
          "name": "admin",
          "type": "address"
        },
        {
          "internalType": "address",
          "name": "dppAddress",
          "type": "address"
        },
        {
          "internalType": "address",
          "name": "dppAdminAddress",
          "type": "address"
        },
        {
          "internalType": "address",
          "name": "weth",
          "type": "address"
        }
      ],
      "name": "init",
      "outputs": [],
      "stateMutability": "nonpayable",
      "type": "function"
    },
    {
      "inputs": [],
      "name": "name",
      "outputs": [
        {
          "internalType": "string",
          "name": "",
          "type": "string"
        }
      ],
      "stateMutability": "view",
      "type": "function"
    },
    {
      "inputs": [
        {
          "internalType": "address",
          "name": "",
          "type": "address"
        }
      ],
      "name": "nonces",
      "outputs": [
        {
          "internalType": "uint256",
          "name": "",
          "type": "uint256"
        }
      ],
      "stateMutability": "view",
      "type": "function"
    },
    {
      "inputs": [
        {
          "internalType": "address",
          "name": "owner",
          "type": "address"
        },
        {
          "internalType": "address",
          "name": "spender",
          "type": "address"
        },
        {
          "internalType": "uint256",
          "name": "value",
          "type": "uint256"
        },
        {
          "internalType": "uint256",
          "name": "deadline",
          "type": "uint256"
        },
        {
          "internalType": "uint8",
          "name": "v",
          "type": "uint8"
        },
        {
          "internalType": "bytes32",
          "name": "r",
          "type": "bytes32"
        },
        {
          "internalType": "bytes32",
          "name": "s",
          "type": "bytes32"
        }
      ],
      "name": "permit",
      "outputs": [],
      "stateMutability": "nonpayable",
      "type": "function"
    },
    {
      "inputs": [
        {
          "internalType": "uint256",
          "name": "shareAmount_",
          "type": "uint256"
        }
      ],
      "name": "recommendBaseAndQuote",
      "outputs": [
        {
          "internalType": "uint256",
          "name": "baseAmount",
          "type": "uint256"
        },
        {
          "internalType": "uint256",
          "name": "quoteAmount",
          "type": "uint256"
        }
      ],
      "stateMutability": "view",
      "type": "function"
    },
    {
      "inputs": [
        {
          "internalType": "uint256",
          "name": "quoteInAmount_",
          "type": "uint256"
        }
      ],
      "name": "recommendBaseInAmount",
      "outputs": [
        {
          "internalType": "uint256",
          "name": "baseAdjustedInAmount",
          "type": "uint256"
        },
        {
          "internalType": "uint256",
          "name": "quoteAdjustedInAmount",
          "type": "uint256"
        }
      ],
      "stateMutability": "view",
      "type": "function"
    },
    {
      "inputs": [
        {
          "internalType": "uint256",
          "name": "baseInAmount_",
          "type": "uint256"
        }
      ],
      "name": "recommendQuoteInAmount",
      "outputs": [
        {
          "internalType": "uint256",
          "name": "baseAdjustedInAmount",
          "type": "uint256"
        },
        {
          "internalType": "uint256",
          "name": "quoteAdjustedInAmount",
          "type": "uint256"
        }
      ],
      "stateMutability": "view",
      "type": "function"
    },
    {
      "inputs": [
        {
          "internalType": "uint256",
          "name": "shareAmount",
          "type": "uint256"
        },
        {
          "internalType": "uint256",
          "name": "baseMinAmount",
          "type": "uint256"
        },
        {
          "internalType": "uint256",
          "name": "quoteMinAmount",
          "type": "uint256"
        },
        {
          "internalType": "uint8",
          "name": "flag",
          "type": "uint8"
        },
        {
          "internalType": "uint256",
          "name": "deadLine",
          "type": "uint256"
        }
      ],
      "name": "removeDuetDppLiquidity",
      "outputs": [
        {
          "internalType": "uint256",
          "name": "shares",
          "type": "uint256"
        },
        {
          "internalType": "uint256",
          "name": "baseOutAmount",
          "type": "uint256"
        },
        {
          "internalType": "uint256",
          "name": "quoteOutAmount",
          "type": "uint256"
        }
      ],
      "stateMutability": "nonpayable",
      "type": "function"
    },
    {
      "inputs": [
        {
          "internalType": "address",
          "name": "newAdmin",
          "type": "address"
        }
      ],
      "name": "setAdmin",
      "outputs": [],
      "stateMutability": "nonpayable",
      "type": "function"
    },
    {
      "inputs": [],
      "name": "symbol",
      "outputs": [
        {
          "internalType": "string",
          "name": "",
          "type": "string"
        }
      ],
      "stateMutability": "view",
      "type": "function"
    },
    {
      "inputs": [],
      "name": "totalSupply",
      "outputs": [
        {
          "internalType": "uint256",
          "name": "",
          "type": "uint256"
        }
      ],
      "stateMutability": "view",
      "type": "function"
    },
    {
      "inputs": [
        {
          "internalType": "address",
          "name": "to",
          "type": "address"
        },
        {
          "internalType": "uint256",
          "name": "amount",
          "type": "uint256"
        }
      ],
      "name": "transfer",
      "outputs": [
        {
          "internalType": "bool",
          "name": "",
          "type": "bool"
        }
      ],
      "stateMutability": "nonpayable",
      "type": "function"
    },
    {
      "inputs": [
        {
          "internalType": "address",
          "name": "from",
          "type": "address"
        },
        {
          "internalType": "address",
          "name": "to",
          "type": "address"
        },
        {
          "internalType": "uint256",
          "name": "amount",
          "type": "uint256"
        }
      ],
      "name": "transferFrom",
      "outputs": [
        {
          "internalType": "bool",
          "name": "",
          "type": "bool"
        }
      ],
      "stateMutability": "nonpayable",
      "type": "function"
    },
    {
      "inputs": [
        {
          "internalType": "uint256",
          "name": "newLpFeeRate",
          "type": "uint256"
        },
        {
          "internalType": "uint256",
          "name": "newI",
          "type": "uint256"
        },
        {
          "internalType": "uint256",
          "name": "newK",
          "type": "uint256"
        },
        {
          "internalType": "uint256",
          "name": "minBaseReserve_",
          "type": "uint256"
        },
        {
          "internalType": "uint256",
          "name": "minQuoteReserve_",
          "type": "uint256"
        }
      ],
      "name": "tuneParameters",
      "outputs": [
        {
          "internalType": "bool",
          "name": "",
          "type": "bool"
        }
      ],
      "stateMutability": "nonpayable",
      "type": "function"
    },
    {
      "inputs": [
        {
          "internalType": "uint256",
          "name": "newI",
          "type": "uint256"
        },
        {
          "internalType": "uint256",
          "name": "minBaseReserve_",
          "type": "uint256"
        },
        {
          "internalType": "uint256",
          "name": "minQuoteReserve_",
          "type": "uint256"
        }
      ],
      "name": "tunePrice",
      "outputs": [
        {
          "internalType": "bool",
          "name": "",
          "type": "bool"
        }
      ],
      "stateMutability": "nonpayable",
      "type": "function"
    },
    {
      "stateMutability": "payable",
      "type": "receive"
    }
  ],
  "transactionHash": "0x775629324c0f60462893b681e60d06e95913518504e5274c0152b5ed6f492dfe",
  "args": [],
  "numDeployments": 8,
  "solcInputHash": "6719d9cd722dc797b9d8d5c31630e408",
  "bytecode": "0x6080604052600f805460ff60a01b191690556000601081905560115534801561002757600080fd5b506001600e55613d168061003c6000396000f3fe6080604052600436106101fb5760003560e01c8063704b6c021161010c578063c9775a441161009a578063dd62ed3e1161006c578063dd62ed3e14610682578063e7bd25fa146106c8578063ec2fd46d146106e8578063f811d69214610710578063f851a4401461074857005b8063c9775a4414610602578063cf877e7b14610622578063d4b9704614610642578063d505accf1461066257005b80637ecebe00116100de5780637ecebe001461053f57806395d89b411461056c5780639c6cb68214610581578063a9059cbb146105a1578063ab44a7a3146105c157005b8063704b6c021461049b57806370a08231146104bb5780637a06ab3e146104f15780637d1b5d9c1461051f57005b8063292c914a116101895780633b20884a1161015b5780633b20884a146103e657806347c421b514610406578063491f088f146104265780634a248d2a1461045b5780636e7343061461047b57005b8063292c914a1461035b57806330adf81f14610370578063313ce567146103a45780633644e515146103d057005b80630d4eec8f116101cd5780630d4eec8f1461029f57806310d76460146102d757806317101940146102f757806318160ddd1461031757806323b872dd1461033b57005b806306552ff31461020457806306fdde0314610224578063095ea7b31461024f5780630a9539241461027f57005b3661020257005b005b34801561021057600080fd5b5061020261021f366004613485565b610768565b34801561023057600080fd5b50610239610c6a565b604051610246919061350d565b60405180910390f35b34801561025b57600080fd5b5061026f61026a366004613540565b610cf8565b6040519015158152602001610246565b34801561028b57600080fd5b5061020261029a36600461356c565b610d0f565b3480156102ab57600080fd5b50600f546102bf906001600160a01b031681565b6040516001600160a01b039091168152602001610246565b3480156102e357600080fd5b5061026f6102f236600461358e565b610d44565b34801561030357600080fd5b506102396103123660046135ba565b610e0e565b34801561032357600080fd5b5061032d60095481565b604051908152602001610246565b34801561034757600080fd5b5061026f6103563660046135d7565b610f91565b34801561036757600080fd5b5061020261113e565b34801561037c57600080fd5b5061032d7f6e71edae12b1b97f4d1f60370fef10105fa2faae0126114a169c64845d6126c981565b3480156103b057600080fd5b506007546103be9060ff1681565b60405160ff9091168152602001610246565b3480156103dc57600080fd5b5061032d600c5481565b3480156103f257600080fd5b5061026f610401366004613618565b6112f1565b34801561041257600080fd5b506102026104213660046135ba565b6113cb565b34801561043257600080fd5b50610446610441366004613653565b6114d9565b60408051928352602083019190915201610246565b34801561046757600080fd5b506003546102bf906001600160a01b031681565b34801561048757600080fd5b50610446610496366004613653565b61159a565b3480156104a757600080fd5b506102026104b63660046135ba565b6115b3565b3480156104c757600080fd5b5061032d6104d63660046135ba565b6001600160a01b03166000908152600a602052604090205490565b6105046104ff36600461367b565b6115e9565b60408051938452602084019290925290820152606001610246565b34801561052b57600080fd5b5061020261053a366004613653565b611a57565b34801561054b57600080fd5b5061032d61055a3660046135ba565b600d6020526000908152604090205481565b34801561057857600080fd5b50610239611b0d565b34801561058d57600080fd5b506002546102bf906001600160a01b031681565b3480156105ad57600080fd5b5061026f6105bc366004613540565b611b1a565b3480156105cd57600080fd5b506004546105e990600160a01b900467ffffffffffffffff1681565b60405167ffffffffffffffff9091168152602001610246565b34801561060e57600080fd5b5061044661061d366004613653565b611c04565b34801561062e57600080fd5b506001546102bf906001600160a01b031681565b34801561064e57600080fd5b506004546102bf906001600160a01b031681565b34801561066e57600080fd5b5061020261067d3660046136d0565b611c13565b34801561068e57600080fd5b5061032d61069d366004613741565b6001600160a01b039182166000908152600b6020908152604080832093909416825291909152205490565b3480156106d457600080fd5b506105046106e336600461377a565b611e29565b3480156106f457600080fd5b506005546105e990600160801b900467ffffffffffffffff1681565b34801561071c57600080fd5b50600554610730906001600160801b031681565b6040516001600160801b039091168152602001610246565b34801561075457600080fd5b506000546102bf906001600160a01b031681565b600f54600160a01b900460ff16156107bf5760405162461bcd60e51b81526020600482015260156024820152741a185d99481899595b881a5b9a5d1a585b1a5e9959605a1b60448201526064015b60405180910390fd5b600f80546001600160a01b038084166001600160a81b031990921691909117600160a01b17909155600180548583166001600160a01b03199182161790915560028054928516929091169190911790556108188461217f565b600160009054906101000a90046001600160a01b03166001600160a01b0316634a248d2a6040518163ffffffff1660e01b815260040160206040518083038186803b15801561086657600080fd5b505afa15801561087a573d6000803e3d6000fd5b505050506040513d601f19601f8201168201806040525081019061089e91906137c3565b600380546001600160a01b0319166001600160a01b0392831617905560015460408051636a5cb82360e11b81529051919092169163d4b97046916004808301926020929190829003018186803b1580156108f757600080fd5b505afa15801561090b573d6000803e3d6000fd5b505050506040513d601f19601f8201168201806040525081019061092f91906137c3565b600480546001600160a01b0319166001600160a01b039290921691909117905561095761222a565b6000604051806040016040528060018152602001602d60f81b8152509050600060405180604001604052806007815260200166447565744c505f60c81b815250905080600360009054906101000a90046001600160a01b03166001600160a01b03166395d89b416040518163ffffffff1660e01b815260040160006040518083038186803b1580156109e857600080fd5b505afa1580156109fc573d6000803e3d6000fd5b505050506040513d6000823e601f3d908101601f19168201604052610a2491908101906137f6565b83600460009054906101000a90046001600160a01b03166001600160a01b03166395d89b416040518163ffffffff1660e01b815260040160006040518083038186803b158015610a7357600080fd5b505afa158015610a87573d6000803e3d6000fd5b505050506040513d6000823e601f3d908101601f19168201604052610aaf91908101906137f6565b604051602001610ac29493929190613898565b60405160208183030381529060405260089080519060200190610ae69291906133d7565b50604080518082019091526007808252660447565742d4c560cc1b6020909201918252610b15916006916133d7565b50600360009054906101000a90046001600160a01b03166001600160a01b031663313ce5676040518163ffffffff1660e01b815260040160206040518083038186803b158015610b6457600080fd5b505afa158015610b78573d6000803e3d6000fd5b505050506040513d601f19601f82011682018060405250810190610b9c91906138ef565b6007805460ff191660ff9290921691909117905560405146907f8b73c3c69bb8fe3d512ecc4cf759cc79239f7b179b0ffacaa9a75d522b39400f90610be390600890613947565b60408051918290038220828201825260018352603160f81b6020938401528151928301939093528101919091527fc89efdaa54c0f20c7adf612882df0950f5a951637e0307cdcb4c672f298b8bc66060820152608081018290523060a082015260c00160408051601f198184030181529190528051602090910120600c5550505050505050565b60088054610c779061390c565b80601f0160208091040260200160405190810160405280929190818152602001828054610ca39061390c565b8015610cf05780601f10610cc557610100808354040283529160200191610cf0565b820191906000526020600020905b815481529060010190602001808311610cd357829003601f168201915b505050505081565b6000610d05338484612435565b5060015b92915050565b6000546001600160a01b03163314610d395760405162461bcd60e51b81526004016107b6906139e3565b601091909155601155565b600080546001600160a01b03163314610d6f5760405162461bcd60e51b81526004016107b6906139e3565b6002546040516286bb2360e51b81526004810186905260248101859052604481018490526001600160a01b03909116906310d7646090606401602060405180830381600087803b158015610dc257600080fd5b505af1158015610dd6573d6000803e3d6000fd5b505050506040513d601f19601f82011682018060405250810190610dfa9190613a09565b50610e0361222a565b5060015b9392505050565b604080518082018252601081526f181899199a1a9b1b9c1cb0b131b232b360811b6020820152815160088082528184019093526060926001600160a01b038516929160009160208201818036833701905050905060005b6004811015610f885782600485610e7d84600c613a41565b60208110610e8d57610e8d613a59565b1a60f81b6001600160f81b031916901c60f81c60ff1681518110610eb357610eb3613a59565b01602001516001600160f81b03191682610ece836002613a6f565b81518110610ede57610ede613a59565b60200101906001600160f81b031916908160001a9053508284610f0283600c613a41565b60208110610f1257610f12613a59565b825191901a600f16908110610f2957610f29613a59565b01602001516001600160f81b03191682610f44836002613a6f565b610f4f906001613a41565b81518110610f5f57610f5f613a59565b60200101906001600160f81b031916908160001a90535080610f8081613a8e565b915050610e65565b50949350505050565b6001600160a01b0383166000908152600a6020526040812054821115610fee5760405162461bcd60e51b81526020600482015260126024820152710848298829c868abe9c9ea8be8a9c9eaa8e960731b60448201526064016107b6565b6001600160a01b0384166000908152600b602090815260408083203384529091529020548211156110585760405162461bcd60e51b815260206004820152601460248201527308298989eae829c868abe9c9ea8be8a9c9eaa8e960631b60448201526064016107b6565b6001600160a01b0384166000908152600a602052604090205461107b9083612496565b6001600160a01b038086166000908152600a602052604080822093909355908516815220546110aa90836124a2565b6001600160a01b038085166000908152600a60209081526040808320949094559187168152600b825282812033825290915220546110e89083612496565b6001600160a01b038581166000818152600b602090815260408083203384528252918290209490945551858152918616929091600080516020613cc1833981519152910160405180910390a35060019392505050565b6000546001600160a01b031633146111685760405162461bcd60e51b81526004016107b6906139e3565b600154604080516373563cb960e01b815290516000926001600160a01b0316916373563cb991600480830192602092919082900301818787803b1580156111ae57600080fd5b505af11580156111c2573d6000803e3d6000fd5b505050506040513d601f19601f820116820180604052508101906111e691906137c3565b60035460405163cfed246b60e01b81526001600160a01b0391821660048201529192506000919083169063cfed246b9060240160206040518083038186803b15801561123157600080fd5b505afa158015611245573d6000803e3d6000fd5b505050506040513d601f19601f820116820180604052508101906112699190613aa9565b116112865760405162461bcd60e51b81526004016107b690613ac2565b600260009054906101000a90046001600160a01b03166001600160a01b031663292c914a6040518163ffffffff1660e01b8152600401600060405180830381600087803b1580156112d657600080fd5b505af11580156112ea573d6000803e3d6000fd5b5050505050565b600080546001600160a01b0316331461131c5760405162461bcd60e51b81526004016107b6906139e3565b600254604051631d90442560e11b815260048101889052602481018790526044810186905260648101859052608481018490526001600160a01b0390911690633b20884a9060a401602060405180830381600087803b15801561137e57600080fd5b505af1158015611392573d6000803e3d6000fd5b505050506040513d601f19601f820116820180604052508101906113b69190613a09565b506113bf61222a565b50600195945050505050565b6000546001600160a01b031633146113f55760405162461bcd60e51b81526004016107b6906139e3565b60035460405163cfed246b60e01b81526001600160a01b03918216600482015260009183169063cfed246b9060240160206040518083038186803b15801561143c57600080fd5b505afa158015611450573d6000803e3d6000fd5b505050506040513d601f19601f820116820180604052508101906114749190613aa9565b116114915760405162461bcd60e51b81526004016107b690613ac2565b6002546040516347c421b560e01b81526001600160a01b038381166004830152909116906347c421b5906024015b600060405180830381600087803b1580156112d657600080fd5b600080600080600160009054906101000a90046001600160a01b03166001600160a01b03166336223ce96040518163ffffffff1660e01b8152600401604080518083038186803b15801561152c57600080fd5b505afa158015611540573d6000803e3d6000fd5b505050506040513d601f19601f820116820180604052508101906115649190613b0b565b60095491935091506115808161157a85896124ae565b906124ba565b94506115908161157a84896124ae565b9350505050915091565b6000806115aa60008460016124c6565b91509150915091565b6000546001600160a01b031633146115dd5760405162461bcd60e51b81526004016107b6906139e3565b6115e68161217f565b50565b60008060006002600e5414156116415760405162461bcd60e51b815260206004820152601f60248201527f5265656e7472616e637947756172643a207265656e7472616e742063616c6c0060448201526064016107b6565b6002600e5583428110156116975760405162461bcd60e51b815260206004820152601c60248201527f447565742044707020436f6e74726f6c6c65723a20455850495245440000000060448201526064016107b6565b6116a18a8a61261e565b90935091508783108015906116b65750868210155b61171c5760405162461bcd60e51b815260206004820152603160248201527f447565742044707020436f6e74726f6c6c65723a206465706f73697420616d6f6044820152700eadce840d2e640dcdee840cadcdeeaced607b1b60648201526084016107b6565b60015460408051632512469560e11b815290516117ad9233926001600160a01b03909116918291634a248d2a916004808301926020929190829003018186803b15801561176857600080fd5b505afa15801561177c573d6000803e3d6000fd5b505050506040513d601f19601f820116820180604052508101906117a091906137c3565b868a60ff16600114612774565b60015460408051636a5cb82360e11b8152905161183e9233926001600160a01b0390911691829163d4b97046916004808301926020929190829003018186803b1580156117f957600080fd5b505afa15801561180d573d6000803e3d6000fd5b505050506040513d601f19601f8201168201806040525081019061183191906137c3565b858a60ff16600214612774565b61184733612873565b50506001546040805163058122f160e21b815290519296506001600160a01b03909116916316048bc4916004808201926020929091908290030181600087803b15801561189357600080fd5b505af11580156118a7573d6000803e3d6000fd5b505050506040513d601f19601f820116820180604052508101906118cb91906137c3565b600480546005546010546011546040516323fce4a360e21b81526001600160a01b039690961695638ff3928c9561193695309567ffffffffffffffff600160a01b9092048216956001600160801b03821695600160801b909204909216936000938493929101613b2f565b602060405180830381600087803b15801561195057600080fd5b505af1158015611964573d6000803e3d6000fd5b505050506040513d601f19601f820116820180604052508101906119889190613a09565b6119a45760405162461bcd60e51b81526004016107b690613b89565b8560ff1660011480156119b657508234115b156119f357336108fc6119c98534613bca565b6040518115909202916000818181858888f193505050501580156119f1573d6000803e3d6000fd5b505b8560ff166002148015611a0557508134115b15611a4257336108fc611a188434613bca565b6040518115909202916000818181858888f19350505050158015611a40573d6000803e3d6000fd5b505b506001600e8190555096509650969350505050565b6000546001600160a01b03163314611a815760405162461bcd60e51b81526004016107b6906139e3565b60008111611adc5760405162461bcd60e51b815260206004820152602260248201527f447565742044707020436f6e74726f6c6c65723a20696e7661696c64206e6577604482015261204960f01b60648201526084016107b6565b600254604051631f46d76760e21b8152600481018390526001600160a01b0390911690637d1b5d9c906024016114bf565b60068054610c779061390c565b336000908152600a6020526040812054821115611b6e5760405162461bcd60e51b81526020600482015260126024820152710848298829c868abe9c9ea8be8a9c9eaa8e960731b60448201526064016107b6565b336000908152600a6020526040902054611b889083612496565b336000908152600a6020526040808220929092556001600160a01b03851681522054611bb490836124a2565b6001600160a01b0384166000818152600a6020526040908190209290925590513390600080516020613cc183398151915290611bf39086815260200190565b60405180910390a350600192915050565b6000806115aa836000806124c6565b42841015611c5a5760405162461bcd60e51b81526020600482015260146024820152731113d113d7d1159357d3140e881156141254915160621b60448201526064016107b6565b600c546001600160a01b0388166000908152600d6020526040812080549192917f6e71edae12b1b97f4d1f60370fef10105fa2faae0126114a169c64845d6126c9918b918b918b919087611cad83613a8e565b909155506040805160208101969096526001600160a01b0394851690860152929091166060840152608083015260a082015260c0810187905260e00160405160208183030381529060405280519060200120604051602001611d2692919061190160f01b81526002810192909252602282015260420190565b60408051601f198184030181528282528051602091820120600080855291840180845281905260ff88169284019290925260608301869052608083018590529092509060019060a0016020604051602081039080840390855afa158015611d91573d6000803e3d6000fd5b5050604051601f1901519150506001600160a01b03811615801590611dc75750886001600160a01b0316816001600160a01b0316145b611e135760405162461bcd60e51b815260206004820152601e60248201527f444f444f5f44564d5f4c503a20494e56414c49445f5349474e4154555245000060448201526064016107b6565b611e1e898989612435565b505050505050505050565b60008060006002600e541415611e815760405162461bcd60e51b815260206004820152601f60248201527f5265656e7472616e637947756172643a207265656e7472616e742063616c6c0060448201526064016107b6565b6002600e558342811015611ed75760405162461bcd60e51b815260206004820152601c60248201527f447565742044707020436f6e74726f6c6c65723a20455850495245440000000060448201526064016107b6565b611ee389338a8a612bb5565b6001546040805163058122f160e21b815290519396509194506001600160a01b0316916316048bc4916004808201926020929091908290030181600087803b158015611f2e57600080fd5b505af1158015611f42573d6000803e3d6000fd5b505050506040513d601f19601f82011682018060405250810190611f6691906137c3565b600480546005546010546011546040516323fce4a360e21b81526001600160a01b039690961695638ff3928c95611fd095309567ffffffffffffffff600160a01b9092048216956001600160801b03821695600160801b909204909216938d938d93929101613b2f565b602060405180830381600087803b158015611fea57600080fd5b505af1158015611ffe573d6000803e3d6000fd5b505050506040513d601f19601f820116820180604052508101906120229190613a09565b61203e5760405162461bcd60e51b81526004016107b690613b89565b6120d533600160009054906101000a90046001600160a01b03166001600160a01b0316634a248d2a6040518163ffffffff1660e01b815260040160206040518083038186803b15801561209057600080fd5b505afa1580156120a4573d6000803e3d6000fd5b505050506040513d601f19601f820116820180604052508101906120c891906137c3565b858960ff16600314612d7f565b61216c33600160009054906101000a90046001600160a01b03166001600160a01b031663d4b970466040518163ffffffff1660e01b815260040160206040518083038186803b15801561212757600080fd5b505afa15801561213b573d6000803e3d6000fd5b505050506040513d601f19601f8201168201806040525081019061215f91906137c3565b848960ff16600414612d7f565b506001600e559697909695509350505050565b6001600160a01b0381166121df5760405162461bcd60e51b815260206004820152602160248201527f43616e206e6f74207365742061646d696e20746f207a65726f206164647265736044820152607360f81b60648201526084016107b6565b600080546001600160a01b0319166001600160a01b0383169081178255604051909133917f101b8081ff3b56bbf45deb824d86a3b0fd38b7e3dd42421105cf8abe9106db0b9190a350565b600160009054906101000a90046001600160a01b03166001600160a01b031663ab44a7a36040518163ffffffff1660e01b8152600401602060405180830381600087803b15801561227a57600080fd5b505af115801561228e573d6000803e3d6000fd5b505050506040513d601f19601f820116820180604052508101906122b29190613be1565b6004805467ffffffffffffffff92909216600160a01b0267ffffffffffffffff60a01b199092169190911781556001546040805163ec2fd46d60e01b815290516001600160a01b039092169263ec2fd46d9282820192602092908290030181600087803b15801561232257600080fd5b505af1158015612336573d6000803e3d6000fd5b505050506040513d601f19601f8201168201806040525081019061235a9190613be1565b600560106101000a81548167ffffffffffffffff021916908367ffffffffffffffff160217905550600160009054906101000a90046001600160a01b03166001600160a01b031663f811d6926040518163ffffffff1660e01b8152600401602060405180830381600087803b1580156123d257600080fd5b505af11580156123e6573d6000803e3d6000fd5b505050506040513d601f19601f8201168201806040525081019061240a9190613c0b565b600580546fffffffffffffffffffffffffffffffff19166001600160801b0392909216919091179055565b6001600160a01b038381166000818152600b602090815260408083209487168084529482529182902085905590518481527f8c5be1e5ebec7d5bd14f71427d1e84f3dd0314c0f7b2291e5b200ac8c7c3b925910160405180910390a3505050565b6000610e078284613bca565b6000610e078284613a41565b6000610e078284613a6f565b6000610e078284613c34565b600080600080600160009054906101000a90046001600160a01b03166001600160a01b03166336223ce96040518163ffffffff1660e01b8152600401604080518083038186803b15801561251957600080fd5b505afa15801561252d573d6000803e3d6000fd5b505050506040513d601f19601f820116820180604052508101906125519190613b0b565b91509150806000148015612563575081155b15612599576000546001600160a01b031633146125925760405162461bcd60e51b81526004016107b690613c56565b8693508592505b801580156125a75750600082115b156125b457869350600092505b6000811180156125c45750600082115b156126145760006125d58884612e46565b905060006125e38884612e46565b905060ff8716612601578895506125fa8383612e64565b9450612611565b87945061260e8482612e64565b95505b50505b5050935093915050565b600080600080600160009054906101000a90046001600160a01b03166001600160a01b03166336223ce96040518163ffffffff1660e01b8152600401604080518083038186803b15801561267157600080fd5b505afa158015612685573d6000803e3d6000fd5b505050506040513d601f19601f820116820180604052508101906126a99190613b0b565b915091508060001480156126bb575081155b156126f1576000546001600160a01b031633146126ea5760405162461bcd60e51b81526004016107b690613c56565b8593508492505b801580156126ff5750600082115b1561270c57859350600092505b60008111801561271c5750600082115b1561276b57600061272d8784612e46565b9050600061273b8784612e46565b9050808211612758578795506127518383612e64565b9450612768565b8694506127658482612e64565b95505b50505b50509250929050565b801561285857811561285357813410156127c25760405162461bcd60e51b815260206004820152600f60248201526e4554485f56414c55455f57524f4e4760881b60448201526064016107b6565b600f60009054906101000a90046001600160a01b03166001600160a01b031663d0e30db0836040518263ffffffff1660e01b81526004016000604051808303818588803b15801561281257600080fd5b505af1158015612826573d6000803e3d6000fd5b505050506001600160a01b0385163014905061285357600f54612853906001600160a01b03168584612e83565b6112ea565b81156112ea576112ea6001600160a01b038416868685612eeb565b6003546001546040516370a0823160e01b81526001600160a01b03918216600482015260009283928392839291909116906370a082319060240160206040518083038186803b1580156128c557600080fd5b505afa1580156128d9573d6000803e3d6000fd5b505050506040513d601f19601f820116820180604052508101906128fd9190613aa9565b600480546001546040516370a0823160e01b81526001600160a01b039182169381019390935292935060009216906370a082319060240160206040518083038186803b15801561294c57600080fd5b505afa158015612960573d6000803e3d6000fd5b505050506040513d601f19601f820116820180604052508101906129849190613aa9565b600154604080516336223ce960e01b8152815193945060009384936001600160a01b0316926336223ce99260048082019391829003018186803b1580156129ca57600080fd5b505afa1580156129de573d6000803e3d6000fd5b505050506040513d601f19601f82011682018060405250810190612a029190613b0b565b9092509050612a118483612496565b9550612a1d8382612496565b945060008611612a5f5760405162461bcd60e51b815260206004820152600d60248201526c1393d7d09054d157d253941555609a1b60448201526064016107b6565b600954612ac0576103e8841015612ab85760405162461bcd60e51b815260206004820152601c60248201527f494e53554646494349454e545f4c49515549444954595f4d494e45440000000060448201526064016107b6565b839650612b49565b600082118015612ace575080155b15612af357612aec8261157a600954896124ae90919063ffffffff16565b9650612b49565b600082118015612b035750600081115b15612b49576000612b148784612e46565b90506000612b228784612e46565b90506000828210612b335782612b35565b815b9050612b4360095482612e64565b99505050505b612b538888612f23565b6001600160a01b0388166000818152600a60209081526040918290205482519384529083018a905282820152517f1c172440bdebb59cd92a7f08f4227903a3305ab6f880cb25f93eddb66843a1029181900360600190a1505050509193909250565b6001600160a01b0383166000908152600a60205260408120548190861115612c105760405162461bcd60e51b815260206004820152600e60248201526d08898a0be9c9ea8be8a9c9eaa8e960931b60448201526064016107b6565b600154604080516336223ce960e01b8152815160009384936001600160a01b03909116926336223ce99260048083019392829003018186803b158015612c5557600080fd5b505afa158015612c69573d6000803e3d6000fd5b505050506040513d601f19601f82011682018060405250810190612c8d9190613b0b565b6009549193509150612ca38161157a858c6124ae565b9450612cb38161157a848c6124ae565b9350868510158015612cc55750858410155b612d075760405162461bcd60e51b81526020600482015260136024820152720ae92a89088a482aebe9c9ea8be8a9c9eaa8e9606b1b60448201526064016107b6565b612d11888a613021565b6001600160a01b0388166000818152600a6020908152604091829020548251848152918201939093528082018c90526060810192909252517f55caccde83781f39bfc1296eff45655b6496729443a7d48958b18b3b685600a59181900360800190a150505094509492505050565b8015612e26578115612e2157600f54604051632e1a7d4d60e01b8152600481018490526001600160a01b0390911690632e1a7d4d90602401600060405180830381600087803b158015612dd157600080fd5b505af1158015612de5573d6000803e3d6000fd5b50506040516001600160a01b038716925084156108fc02915084906000818181858888f19350505050158015612e1f573d6000803e3d6000fd5b505b612e40565b8115612e4057612e406001600160a01b0384168584612e83565b50505050565b6000610e0782612e5e85670de0b6b3a76400006130d7565b90613138565b6000670de0b6b3a7640000612e7984846130d7565b610e079190613c34565b6040516001600160a01b038316602482015260448101829052612ee690849063a9059cbb60e01b906064015b60408051601f198184030181529190526020810180516001600160e01b03166001600160e01b031990931692909217909152613184565b505050565b6040516001600160a01b0380851660248301528316604482015260648101829052612e409085906323b872dd60e01b90608401612eaf565b6103e88111612f635760405162461bcd60e51b815260206004820152600c60248201526b1352539517d253959053125160a21b60448201526064016107b6565b6001600160a01b0382166000908152600a6020526040902054612f8690826124a2565b6001600160a01b0383166000908152600a6020526040902055600954612fac90826124a2565b6009556040518181526001600160a01b038316907f0f6798a560793a54c3bcfe86a93cde1e73087d944c0ea20544137d41213968859060200160405180910390a26040518181526001600160a01b03831690600090600080516020613cc1833981519152906020015b60405180910390a35050565b6001600160a01b0382166000908152600a60205260409020546130449082612496565b6001600160a01b0383166000908152600a602052604090205560095461306a9082612496565b6009556040518181526001600160a01b038316907fcc16f5dbb4873280815c1ee09dbd06736cffcc184412cf7a71a0fdb75d397ca59060200160405180910390a26040518181526000906001600160a01b03841690600080516020613cc183398151915290602001613015565b6000826130e657506000610d09565b60006130f28385613a6f565b9050826130ff8583613c34565b14610e075760405162461bcd60e51b815260206004820152600960248201526826aaa62fa2a92927a960b91b60448201526064016107b6565b600080821161317a5760405162461bcd60e51b815260206004820152600e60248201526d2224ab24a224a723afa2a92927a960911b60448201526064016107b6565b610e078284613c34565b60006131d9826040518060400160405280602081526020017f5361666545524332303a206c6f772d6c6576656c2063616c6c206661696c6564815250856001600160a01b03166132569092919063ffffffff16565b805190915015612ee657808060200190518101906131f79190613a09565b612ee65760405162461bcd60e51b815260206004820152602a60248201527f5361666545524332303a204552433230206f7065726174696f6e20646964206e6044820152691bdd081cdd58d8d9595960b21b60648201526084016107b6565b6060613265848460008561326d565b949350505050565b6060824710156132ce5760405162461bcd60e51b815260206004820152602660248201527f416464726573733a20696e73756666696369656e742062616c616e636520666f6044820152651c8818d85b1b60d21b60648201526084016107b6565b6001600160a01b0385163b6133255760405162461bcd60e51b815260206004820152601d60248201527f416464726573733a2063616c6c20746f206e6f6e2d636f6e747261637400000060448201526064016107b6565b600080866001600160a01b031685876040516133419190613ca4565b60006040518083038185875af1925050503d806000811461337e576040519150601f19603f3d011682016040523d82523d6000602084013e613383565b606091505b509150915061339382828661339e565b979650505050505050565b606083156133ad575081610e07565b8251156133bd5782518084602001fd5b8160405162461bcd60e51b81526004016107b6919061350d565b8280546133e39061390c565b90600052602060002090601f016020900481019282613405576000855561344b565b82601f1061341e57805160ff191683800117855561344b565b8280016001018555821561344b579182015b8281111561344b578251825591602001919060010190613430565b5061345792915061345b565b5090565b5b80821115613457576000815560010161345c565b6001600160a01b03811681146115e657600080fd5b6000806000806080858703121561349b57600080fd5b84356134a681613470565b935060208501356134b681613470565b925060408501356134c681613470565b915060608501356134d681613470565b939692955090935050565b60005b838110156134fc5781810151838201526020016134e4565b83811115612e405750506000910152565b602081526000825180602084015261352c8160408501602087016134e1565b601f01601f19169190910160400192915050565b6000806040838503121561355357600080fd5b823561355e81613470565b946020939093013593505050565b6000806040838503121561357f57600080fd5b50508035926020909101359150565b6000806000606084860312156135a357600080fd5b505081359360208301359350604090920135919050565b6000602082840312156135cc57600080fd5b8135610e0781613470565b6000806000606084860312156135ec57600080fd5b83356135f781613470565b9250602084013561360781613470565b929592945050506040919091013590565b600080600080600060a0868803121561363057600080fd5b505083359560208501359550604085013594606081013594506080013592509050565b60006020828403121561366557600080fd5b5035919050565b60ff811681146115e657600080fd5b60008060008060008060c0878903121561369457600080fd5b8635955060208701359450604087013593506060870135925060808701356136bb8161366c565b8092505060a087013590509295509295509295565b600080600080600080600060e0888a0312156136eb57600080fd5b87356136f681613470565b9650602088013561370681613470565b9550604088013594506060880135935060808801356137248161366c565b9699959850939692959460a0840135945060c09093013592915050565b6000806040838503121561375457600080fd5b823561375f81613470565b9150602083013561376f81613470565b809150509250929050565b600080600080600060a0868803121561379257600080fd5b85359450602086013593506040860135925060608601356137b28161366c565b949793965091946080013592915050565b6000602082840312156137d557600080fd5b8151610e0781613470565b634e487b7160e01b600052604160045260246000fd5b60006020828403121561380857600080fd5b815167ffffffffffffffff8082111561382057600080fd5b818401915084601f83011261383457600080fd5b815181811115613846576138466137e0565b604051601f8201601f19908116603f0116810190838211818310171561386e5761386e6137e0565b8160405282815287602084870101111561388757600080fd5b6133938360208301602088016134e1565b600085516138aa818460208a016134e1565b8551908301906138be818360208a016134e1565b85519101906138d18183602089016134e1565b84519101906138e48183602088016134e1565b019695505050505050565b60006020828403121561390157600080fd5b8151610e078161366c565b600181811c9082168061392057607f821691505b6020821081141561394157634e487b7160e01b600052602260045260246000fd5b50919050565b600080835481600182811c91508083168061396357607f831692505b602080841082141561398357634e487b7160e01b86526022600452602486fd5b81801561399757600181146139a8576139d5565b60ff198616895284890196506139d5565b60008a81526020902060005b868110156139cd5781548b8201529085019083016139b4565b505084890196505b509498975050505050505050565b6020808252600c908201526b15539055551213d49256915160a21b604082015260600190565b600060208284031215613a1b57600080fd5b81518015158114610e0757600080fd5b634e487b7160e01b600052601160045260246000fd5b60008219821115613a5457613a54613a2b565b500190565b634e487b7160e01b600052603260045260246000fd5b6000816000190483118215151615613a8957613a89613a2b565b500290565b6000600019821415613aa257613aa2613a2b565b5060010190565b600060208284031215613abb57600080fd5b5051919050565b60208082526029908201527f447565742044707020436f6e74726f6c6c65723a20696e7661696c64206f7261604082015268636c6520707269636560b81b606082015260800190565b60008060408385031215613b1e57600080fd5b505080516020909101519092909150565b6001600160a01b0398909816885267ffffffffffffffff96871660208901526001600160801b03959095166040880152929094166060860152608085015260a084019290925260c083019190915260e08201526101000190565b60208082526021908201527f447565742044707020436f6e74726f6c6c65723a205265736574204661696c656040820152601960fa1b606082015260800190565b600082821015613bdc57613bdc613a2b565b500390565b600060208284031215613bf357600080fd5b815167ffffffffffffffff81168114610e0757600080fd5b600060208284031215613c1d57600080fd5b81516001600160801b0381168114610e0757600080fd5b600082613c5157634e487b7160e01b600052601260045260246000fd5b500490565b6020808252602e908201527f447565742044707020436f6e74726f6c6c65723a204d75737420696e6974696160408201526d3634bd32b210313c9030b236b4b760911b606082015260800190565b60008251613cb68184602087016134e1565b919091019291505056feddf252ad1be2c89b69c2b068fc378daa952ba7f163c4a11628f55a4df523b3efa264697066735822122045258f6577d7ea04352fcab0312132462d4600983749ea3cc2629798daf740c264736f6c63430008090033",
  "devdoc": {
    "kind": "dev",
    "methods": {
      "allowance(address,address)": {
        "details": "Function to check the amount of tokens that an owner _ALLOWED_ to a spender.",
        "params": {
          "owner": "address The address which owns the funds.",
          "spender": "address The address which will spend the funds."
        },
        "returns": {
          "_0": "A uint256 specifying the amount of tokens still available for the spender."
        }
      },
      "approve(address,uint256)": {
        "details": "Approve the passed address to spend the specified amount of tokens on behalf of msg.sender.",
        "params": {
          "amount": "The amount of tokens to be spent.",
          "spender": "The address which will spend the funds."
        }
      },
      "balanceOf(address)": {
        "details": "Gets the balance of the specified address.",
        "params": {
          "owner": "The address to query the the balance of."
        },
        "returns": {
          "balance": "An uint256 representing the amount owned by the passed address."
        }
      },
      "transfer(address,uint256)": {
        "details": "transfer token for a specified address",
        "params": {
          "amount": "The amount to be transferred.",
          "to": "The address to transfer to."
        }
      },
      "transferFrom(address,address,uint256)": {
        "details": "Transfer tokens from one address to another",
        "params": {
          "amount": "uint256 the amount of tokens to be transferred",
          "from": "address The address which you want to send tokens from",
          "to": "address The address which you want to transfer to"
        }
      }
    },
    "version": 1
  },
  "userdoc": {
    "kind": "user",
    "methods": {},
    "version": 1
  },
  "storageLayout": {
    "storage": [
      {
        "astId": 9287,
        "contract": "contracts/DuetDPPController.sol:DuetDppController",
        "label": "admin",
        "offset": 0,
        "slot": "0",
        "type": "t_address"
      },
      {
        "astId": 4419,
        "contract": "contracts/DuetDPPController.sol:DuetDppController",
        "label": "_DPP_ADDRESS_",
        "offset": 0,
        "slot": "1",
        "type": "t_address"
      },
      {
        "astId": 4421,
        "contract": "contracts/DuetDPPController.sol:DuetDppController",
        "label": "_DPP_ADMIN_ADDRESS_",
        "offset": 0,
        "slot": "2",
        "type": "t_address"
      },
      {
        "astId": 4424,
        "contract": "contracts/DuetDPPController.sol:DuetDppController",
        "label": "_BASE_TOKEN_",
        "offset": 0,
        "slot": "3",
        "type": "t_contract(IERC20Metadata)1520"
      },
      {
        "astId": 4427,
        "contract": "contracts/DuetDPPController.sol:DuetDppController",
        "label": "_QUOTE_TOKEN_",
        "offset": 0,
        "slot": "4",
        "type": "t_contract(IERC20Metadata)1520"
      },
      {
        "astId": 4429,
        "contract": "contracts/DuetDPPController.sol:DuetDppController",
        "label": "_LP_FEE_RATE_",
        "offset": 20,
        "slot": "4",
        "type": "t_uint64"
      },
      {
        "astId": 4431,
        "contract": "contracts/DuetDPPController.sol:DuetDppController",
        "label": "_I_",
        "offset": 0,
        "slot": "5",
        "type": "t_uint128"
      },
      {
        "astId": 4433,
        "contract": "contracts/DuetDPPController.sol:DuetDppController",
        "label": "_K_",
        "offset": 16,
        "slot": "5",
        "type": "t_uint64"
      },
      {
        "astId": 4435,
        "contract": "contracts/DuetDPPController.sol:DuetDppController",
        "label": "symbol",
        "offset": 0,
        "slot": "6",
        "type": "t_string_storage"
      },
      {
        "astId": 4437,
        "contract": "contracts/DuetDPPController.sol:DuetDppController",
        "label": "decimals",
        "offset": 0,
        "slot": "7",
        "type": "t_uint8"
      },
      {
        "astId": 4439,
        "contract": "contracts/DuetDPPController.sol:DuetDppController",
        "label": "name",
        "offset": 0,
        "slot": "8",
        "type": "t_string_storage"
      },
      {
        "astId": 4441,
        "contract": "contracts/DuetDPPController.sol:DuetDppController",
        "label": "totalSupply",
        "offset": 0,
        "slot": "9",
        "type": "t_uint256"
      },
      {
        "astId": 4445,
        "contract": "contracts/DuetDPPController.sol:DuetDppController",
        "label": "_SHARES_",
        "offset": 0,
        "slot": "10",
        "type": "t_mapping(t_address,t_uint256)"
      },
      {
        "astId": 4451,
        "contract": "contracts/DuetDPPController.sol:DuetDppController",
        "label": "_ALLOWED_",
        "offset": 0,
        "slot": "11",
        "type": "t_mapping(t_address,t_mapping(t_address,t_uint256))"
      },
      {
        "astId": 4453,
        "contract": "contracts/DuetDPPController.sol:DuetDppController",
        "label": "DOMAIN_SEPARATOR",
        "offset": 0,
        "slot": "12",
        "type": "t_bytes32"
      },
      {
        "astId": 4460,
        "contract": "contracts/DuetDPPController.sol:DuetDppController",
        "label": "nonces",
        "offset": 0,
        "slot": "13",
        "type": "t_mapping(t_address,t_uint256)"
      },
      {
        "astId": 802,
        "contract": "contracts/DuetDPPController.sol:DuetDppController",
        "label": "_status",
        "offset": 0,
        "slot": "14",
        "type": "t_uint256"
      },
      {
        "astId": 2582,
        "contract": "contracts/DuetDPPController.sol:DuetDppController",
        "label": "_WETH_",
        "offset": 0,
        "slot": "15",
        "type": "t_address"
      },
      {
        "astId": 2585,
        "contract": "contracts/DuetDPPController.sol:DuetDppController",
        "label": "flagInit",
        "offset": 20,
        "slot": "15",
        "type": "t_bool"
      },
      {
        "astId": 2589,
        "contract": "contracts/DuetDPPController.sol:DuetDppController",
        "label": "minBaseReserve",
        "offset": 0,
        "slot": "16",
        "type": "t_uint256"
      },
      {
        "astId": 2592,
        "contract": "contracts/DuetDPPController.sol:DuetDppController",
        "label": "minQuoteReserve",
        "offset": 0,
        "slot": "17",
        "type": "t_uint256"
      }
    ],
    "types": {
      "t_address": {
        "encoding": "inplace",
        "label": "address",
        "numberOfBytes": "20"
      },
      "t_bool": {
        "encoding": "inplace",
        "label": "bool",
        "numberOfBytes": "1"
      },
      "t_bytes32": {
        "encoding": "inplace",
        "label": "bytes32",
        "numberOfBytes": "32"
      },
      "t_contract(IERC20Metadata)1520": {
        "encoding": "inplace",
        "label": "contract IERC20Metadata",
        "numberOfBytes": "20"
      },
      "t_mapping(t_address,t_mapping(t_address,t_uint256))": {
        "encoding": "mapping",
        "key": "t_address",
        "label": "mapping(address => mapping(address => uint256))",
        "numberOfBytes": "32",
        "value": "t_mapping(t_address,t_uint256)"
      },
      "t_mapping(t_address,t_uint256)": {
        "encoding": "mapping",
        "key": "t_address",
        "label": "mapping(address => uint256)",
        "numberOfBytes": "32",
        "value": "t_uint256"
      },
      "t_string_storage": {
        "encoding": "bytes",
        "label": "string",
        "numberOfBytes": "32"
      },
      "t_uint128": {
        "encoding": "inplace",
        "label": "uint128",
        "numberOfBytes": "16"
      },
      "t_uint256": {
        "encoding": "inplace",
        "label": "uint256",
        "numberOfBytes": "32"
      },
      "t_uint64": {
        "encoding": "inplace",
        "label": "uint64",
        "numberOfBytes": "8"
      },
      "t_uint8": {
        "encoding": "inplace",
        "label": "uint8",
        "numberOfBytes": "1"
      }
    }
  }
}