{
  "address": "0x41fa5457C7eECd7aDFde65c50947DBdb8Ec29F39",
  "abi": [
    {
      "anonymous": false,
      "inputs": [
        {
          "indexed": true,
          "internalType": "address",
          "name": "user",
          "type": "address"
        },
        {
          "indexed": true,
          "internalType": "address",
          "name": "newAdmin",
          "type": "address"
        }
      ],
      "name": "AdminUpdated",
      "type": "event"
    },
    {
      "anonymous": false,
      "inputs": [
        {
          "indexed": false,
          "internalType": "uint8",
          "name": "version",
          "type": "uint8"
        }
      ],
      "name": "Initialized",
      "type": "event"
    },
    {
      "anonymous": false,
      "inputs": [
        {
          "indexed": false,
          "internalType": "address",
          "name": "baseToken",
          "type": "address"
        },
        {
          "indexed": false,
          "internalType": "address",
          "name": "quoteToken",
          "type": "address"
        },
        {
          "indexed": false,
          "internalType": "address",
          "name": "creator",
          "type": "address"
        },
        {
          "indexed": false,
          "internalType": "address",
          "name": "dpp",
          "type": "address"
        },
        {
          "indexed": false,
          "internalType": "address",
          "name": "dppController",
          "type": "address"
        }
      ],
      "name": "NewDPP",
      "type": "event"
    },
    {
      "inputs": [],
      "name": "CLONE_FACTORY",
      "outputs": [
        {
          "internalType": "address",
          "name": "",
          "type": "address"
        }
      ],
      "stateMutability": "view",
      "type": "function"
    },
    {
      "inputs": [],
      "name": "WETH",
      "outputs": [
        {
          "internalType": "address",
          "name": "",
          "type": "address"
        }
      ],
      "stateMutability": "view",
      "type": "function"
    },
    {
      "inputs": [],
      "name": "admin",
      "outputs": [
        {
          "internalType": "address",
          "name": "",
          "type": "address"
        }
      ],
      "stateMutability": "view",
      "type": "function"
    },
    {
      "inputs": [
        {
          "internalType": "address",
          "name": "creator_",
          "type": "address"
        },
        {
          "internalType": "address",
          "name": "baseToken_",
          "type": "address"
        },
        {
          "internalType": "address",
          "name": "quoteToken_",
          "type": "address"
        },
        {
          "internalType": "uint256",
          "name": "lpFeeRate_",
          "type": "uint256"
        },
        {
          "internalType": "uint256",
          "name": "k_",
          "type": "uint256"
        },
        {
          "internalType": "uint256",
          "name": "i_",
          "type": "uint256"
        },
        {
          "internalType": "address",
          "name": "o_",
          "type": "address"
        },
        {
          "internalType": "bool",
          "name": "isOpenTwap_",
          "type": "bool"
        },
        {
          "internalType": "bool",
          "name": "isOracleEnabled_",
          "type": "bool"
        }
      ],
      "name": "createDPPController",
      "outputs": [],
      "stateMutability": "nonpayable",
      "type": "function"
    },
    {
      "inputs": [
        {
          "internalType": "address",
          "name": "baseToken_",
          "type": "address"
        },
        {
          "internalType": "address",
          "name": "quoteToken_",
          "type": "address"
        },
        {
          "internalType": "address",
          "name": "dppCtrlAddress_",
          "type": "address"
        },
        {
          "internalType": "address",
          "name": "creator_",
          "type": "address"
        }
      ],
      "name": "delOnePool",
      "outputs": [],
      "stateMutability": "nonpayable",
      "type": "function"
    },
    {
      "inputs": [],
      "name": "dodoApproveProxy",
      "outputs": [
        {
          "internalType": "address",
          "name": "",
          "type": "address"
        }
      ],
      "stateMutability": "view",
      "type": "function"
    },
    {
      "inputs": [],
      "name": "dodoDefaultMaintainer",
      "outputs": [
        {
          "internalType": "address",
          "name": "",
          "type": "address"
        }
      ],
      "stateMutability": "view",
      "type": "function"
    },
    {
      "inputs": [],
      "name": "dodoDefautMtFeeRateModel",
      "outputs": [
        {
          "internalType": "address",
          "name": "",
          "type": "address"
        }
      ],
      "stateMutability": "view",
      "type": "function"
    },
    {
      "inputs": [],
      "name": "dppAdminTemplate",
      "outputs": [
        {
          "internalType": "address",
          "name": "",
          "type": "address"
        }
      ],
      "stateMutability": "view",
      "type": "function"
    },
    {
      "inputs": [],
      "name": "dppControllerTemplate",
      "outputs": [
        {
          "internalType": "address",
          "name": "",
          "type": "address"
        }
      ],
      "stateMutability": "view",
      "type": "function"
    },
    {
      "inputs": [],
      "name": "dppTemplate",
      "outputs": [
        {
          "internalType": "address",
          "name": "",
          "type": "address"
        }
      ],
      "stateMutability": "view",
      "type": "function"
    },
    {
      "inputs": [
        {
          "internalType": "address",
          "name": "admin_",
          "type": "address"
        },
        {
          "internalType": "address",
          "name": "cloneFactory_",
          "type": "address"
        },
        {
          "internalType": "address",
          "name": "dppTemplate_",
          "type": "address"
        },
        {
          "internalType": "address",
          "name": "dppAdminTemplate_",
          "type": "address"
        },
        {
          "internalType": "address",
          "name": "dppControllerTemplate_",
          "type": "address"
        },
        {
          "internalType": "address",
          "name": "defaultMaintainer_",
          "type": "address"
        },
        {
          "internalType": "address",
          "name": "defaultMtFeeRateModel_",
          "type": "address"
        },
        {
          "internalType": "address",
          "name": "dodoApproveProxy_",
          "type": "address"
        },
        {
          "internalType": "address",
          "name": "weth_",
          "type": "address"
        }
      ],
      "name": "initialize",
      "outputs": [],
      "stateMutability": "nonpayable",
      "type": "function"
    },
    {
      "inputs": [
        {
          "internalType": "address",
          "name": "",
          "type": "address"
        },
        {
          "internalType": "address",
          "name": "",
          "type": "address"
        }
      ],
      "name": "registry",
      "outputs": [
        {
          "internalType": "address",
          "name": "",
          "type": "address"
        }
      ],
      "stateMutability": "view",
      "type": "function"
    },
    {
      "inputs": [
        {
          "internalType": "address",
          "name": "newAdmin",
          "type": "address"
        }
      ],
      "name": "setAdmin",
      "outputs": [],
      "stateMutability": "nonpayable",
      "type": "function"
    },
    {
      "inputs": [
        {
          "internalType": "address",
          "name": "newDPPAdminTemplate_",
          "type": "address"
        }
      ],
      "name": "updateAdminTemplate",
      "outputs": [],
      "stateMutability": "nonpayable",
      "type": "function"
    },
    {
      "inputs": [
        {
          "internalType": "address",
          "name": "newController_",
          "type": "address"
        }
      ],
      "name": "updateControllerTemplate",
      "outputs": [],
      "stateMutability": "nonpayable",
      "type": "function"
    },
    {
      "inputs": [
        {
          "internalType": "address",
          "name": "newFeeModel_",
          "type": "address"
        }
      ],
      "name": "updateDefaultFeeModel",
      "outputs": [],
      "stateMutability": "nonpayable",
      "type": "function"
    },
    {
      "inputs": [
        {
          "internalType": "address",
          "name": "newMaintainer_",
          "type": "address"
        }
      ],
      "name": "updateDefaultMaintainer",
      "outputs": [],
      "stateMutability": "nonpayable",
      "type": "function"
    },
    {
      "inputs": [
        {
          "internalType": "address",
          "name": "newDodoApprove_",
          "type": "address"
        }
      ],
      "name": "updateDodoApprove",
      "outputs": [],
      "stateMutability": "nonpayable",
      "type": "function"
    },
    {
      "inputs": [
        {
          "internalType": "address",
          "name": "newDPPTemplate_",
          "type": "address"
        }
      ],
      "name": "updateDppTemplate",
      "outputs": [],
      "stateMutability": "nonpayable",
      "type": "function"
    },
    {
      "inputs": [
        {
          "internalType": "address",
          "name": "",
          "type": "address"
        },
        {
          "internalType": "uint256",
          "name": "",
          "type": "uint256"
        }
      ],
      "name": "userRegistry",
      "outputs": [
        {
          "internalType": "address",
          "name": "",
          "type": "address"
        }
      ],
      "stateMutability": "view",
      "type": "function"
    }
  ],
  "transactionHash": "0x4e414d0200a853d5902f10f0b7722f546b2db77bdadb18a0ecdbae8d6674226b",
  "args": [],
  "numDeployments": 3,
  "solcInputHash": "e6d0333fb084b0e3b100d3ac8ae2c49c",
  "bytecode": "0x608060405234801561001057600080fd5b50611210806100206000396000f3fe608060405234801561001057600080fd5b50600436106101365760003560e01c80637d2c82d7116100b8578063caedbaf81161007c578063caedbaf814610297578063db715fea146102aa578063ef23977c146102bd578063f5e95acb146102d0578063f7220971146102e3578063f851a440146102f657600080fd5b80637d2c82d7146102175780639e988ee31461022a578063a5afd1b61461023d578063ad5c464814610271578063be7537f21461028457600080fd5b806343424431116100ff57806343424431146101b857806344b7f78e146101cb5780636494752a146101de578063704b6c02146101f1578063708f0b3a1461020457600080fd5b806242f7011461013b5780630214cb4c146101505780630bd4651a1461017f5780631426ca9b146101925780632bc609d5146101a5575b600080fd5b61014e610149366004610e99565b610309565b005b61016361015e366004610f34565b610676565b6040516001600160a01b03909116815260200160405180910390f35b600554610163906001600160a01b031681565b600654610163906001600160a01b031681565b61014e6101b3366004610f60565b6106ae565b600854610163906001600160a01b031681565b61014e6101d9366004610f60565b6106fa565b61014e6101ec366004610f60565b610746565b61014e6101ff366004610f60565b610792565b61014e610212366004610f84565b6107c8565b61014e610225366004610f60565b61097b565b61014e610238366004610f60565b6109c7565b61016361024b366004610fe0565b60096020908152600092835260408084209091529082529020546001600160a01b031681565b600254610163906001600160a01b031681565b600754610163906001600160a01b031681565b600354610163906001600160a01b031681565b61014e6102b8366004610f60565b610a13565b600154610163906001600160a01b031681565b61014e6102de366004611019565b610a5f565b600454610163906001600160a01b031681565b600054610163906001600160a01b031681565b6000546001600160a01b0316331461033c5760405162461bcd60e51b8152600401610333906110d5565b60405180910390fd5b6001600160a01b0388811660009081526009602090815260408083208b851684529091529020541615801561039657506001600160a01b0387811660009081526009602090815260408083208c8516845290915290205416155b6103d15760405162461bcd60e51b815260206004820152600c60248201526b121055914810d4915055115160a21b6044820152606401610333565b6000806103dc610b5e565b915060006103e8610bea565b600554600354604051634f115ccb60e01b81526001600160a01b03808516600483015292831660248201528e831660448201528d83166064820152608481018d905290821660a482015260c481018b905260e481018a9052888216610104820152871515610124820152861515610144820152919250841690634f115ccb9061016401600060405180830381600087803b15801561048557600080fd5b505af1158015610499573d6000803e3d6000fd5b505050506104a88c8483610c23565b600480546040516306552ff360e01b81526001600160a01b038085169382018490528781166024830152604482019390935290821660648201529193508216906306552ff390608401600060405180830381600087803b15801561050b57600080fd5b505af115801561051f573d6000803e3d6000fd5b505050505080600960008c6001600160a01b03166001600160a01b0316815260200190815260200160002060008b6001600160a01b03166001600160a01b0316815260200190815260200160002060006101000a8154816001600160a01b0302191690836001600160a01b03160217905550600a60008c6001600160a01b03166001600160a01b03168152602001908152602001600020819080600181540180825580915050600190039060005260206000200160009091909190916101000a8154816001600160a01b0302191690836001600160a01b031602179055507f5e55631db9f29584cb7b1abfa64a49ff89a39711c531b3c6bf05d389f62ac7938a8a8d85856040516106619594939291906001600160a01b0395861681529385166020850152918416604084015283166060830152909116608082015260a00190565b60405180910390a15050505050505050505050565b600a602052816000526040600020818154811061069257600080fd5b6000918252602090912001546001600160a01b03169150829050565b6000546001600160a01b031633146106d85760405162461bcd60e51b8152600401610333906110d5565b600480546001600160a01b0319166001600160a01b0392909216919091179055565b6000546001600160a01b031633146107245760405162461bcd60e51b8152600401610333906110d5565b600680546001600160a01b0319166001600160a01b0392909216919091179055565b6000546001600160a01b031633146107705760405162461bcd60e51b8152600401610333906110d5565b600880546001600160a01b0319166001600160a01b0392909216919091179055565b6000546001600160a01b031633146107bc5760405162461bcd60e51b8152600401610333906110d5565b6107c581610d29565b50565b6000546001600160a01b031633146107f25760405162461bcd60e51b8152600401610333906110d5565b6001600160a01b0380851660009081526009602090815260408083208785168452825280832080546001600160a01b03191690559284168252600a905290812054905b81811015610973576001600160a01b038381166000908152600a602052604090208054918616918390811061086c5761086c6110fb565b6000918252602090912001546001600160a01b03161415610963576001600160a01b0383166000908152600a602052604090206108aa600184611127565b815481106108ba576108ba6110fb565b60009182526020808320909101546001600160a01b038681168452600a90925260409092208054919092169190839081106108f7576108f76110fb565b600091825260208083209190910180546001600160a01b0319166001600160a01b039485161790559185168152600a9091526040902080548061093c5761093c61113e565b600082815260209020810160001990810180546001600160a01b0319169055019055610973565b61096c81611154565b9050610835565b505050505050565b6000546001600160a01b031633146109a55760405162461bcd60e51b8152600401610333906110d5565b600780546001600160a01b0319166001600160a01b0392909216919091179055565b6000546001600160a01b031633146109f15760405162461bcd60e51b8152600401610333906110d5565b600580546001600160a01b0319166001600160a01b0392909216919091179055565b6000546001600160a01b03163314610a3d5760405162461bcd60e51b8152600401610333906110d5565b600380546001600160a01b0319166001600160a01b0392909216919091179055565b6000610a6b6001610dd4565b90508015610a87576000805460ff60a81b1916600160a81b1790555b610a908a610d29565b600280546001600160a01b03199081166001600160a01b03858116919091179092556001805482168c84161790556006805482168b84161790556007805482168a8416179055600880548216898416179055600580548216888416179055600380548216878416179055600480549091169185169190911790558015610b52576000805460ff60a81b19169055604051600181527f7f26b83ff96e1f2b6a682f133852f6798a09c465da95921460cefb38474024989060200160405180910390a15b50505050505050505050565b6001546006546040516340925bc760e11b81526001600160a01b0391821660048201526000929190911690638124b78e906024015b602060405180830381600087803b158015610bad57600080fd5b505af1158015610bc1573d6000803e3d6000fd5b505050506040513d601f19601f82011682018060405250810190610be5919061116f565b905090565b6001546007546040516340925bc760e11b81526001600160a01b0391821660048201526000929190911690638124b78e90602401610b93565b6001546008546040516340925bc760e11b81526001600160a01b0391821660048201526000929190911690638124b78e90602401602060405180830381600087803b158015610c7157600080fd5b505af1158015610c85573d6000803e3d6000fd5b505050506040513d601f19601f82011682018060405250810190610ca9919061116f565b6002546040516306552ff360e01b81526001600160a01b0387811660048301528681166024830152858116604483015291821660648201529192508216906306552ff390608401600060405180830381600087803b158015610d0a57600080fd5b505af1158015610d1e573d6000803e3d6000fd5b505050509392505050565b6001600160a01b038116610d895760405162461bcd60e51b815260206004820152602160248201527f43616e206e6f74207365742061646d696e20746f207a65726f206164647265736044820152607360f81b6064820152608401610333565b600080546001600160a01b0319166001600160a01b0383169081178255604051909133917f101b8081ff3b56bbf45deb824d86a3b0fd38b7e3dd42421105cf8abe9106db0b9190a350565b60008054600160a81b900460ff1615610e1d578160ff166001148015610df95750303b155b610e155760405162461bcd60e51b81526004016103339061118c565b506000919050565b60005460ff808416600160a01b9092041610610e4b5760405162461bcd60e51b81526004016103339061118c565b506000805460ff909216600160a01b0260ff60a01b19909216919091179055600190565b919050565b6001600160a01b03811681146107c557600080fd5b80358015158114610e6f57600080fd5b60008060008060008060008060006101208a8c031215610eb857600080fd5b8935610ec381610e74565b985060208a0135610ed381610e74565b975060408a0135610ee381610e74565b965060608a0135955060808a0135945060a08a0135935060c08a0135610f0881610e74565b9250610f1660e08b01610e89565b9150610f256101008b01610e89565b90509295985092959850929598565b60008060408385031215610f4757600080fd5b8235610f5281610e74565b946020939093013593505050565b600060208284031215610f7257600080fd5b8135610f7d81610e74565b9392505050565b60008060008060808587031215610f9a57600080fd5b8435610fa581610e74565b93506020850135610fb581610e74565b92506040850135610fc581610e74565b91506060850135610fd581610e74565b939692955090935050565b60008060408385031215610ff357600080fd5b8235610ffe81610e74565b9150602083013561100e81610e74565b809150509250929050565b60008060008060008060008060006101208a8c03121561103857600080fd5b893561104381610e74565b985060208a013561105381610e74565b975060408a013561106381610e74565b965060608a013561107381610e74565b955060808a013561108381610e74565b945060a08a013561109381610e74565b935060c08a01356110a381610e74565b925060e08a01356110b381610e74565b91506101008a01356110c481610e74565b809150509295985092959850929598565b6020808252600c908201526b15539055551213d49256915160a21b604082015260600190565b634e487b7160e01b600052603260045260246000fd5b634e487b7160e01b600052601160045260246000fd5b60008282101561113957611139611111565b500390565b634e487b7160e01b600052603160045260246000fd5b600060001982141561116857611168611111565b5060010190565b60006020828403121561118157600080fd5b8151610f7d81610e74565b6020808252602e908201527f496e697469616c697a61626c653a20636f6e747261637420697320616c72656160408201526d191e481a5b9a5d1a585b1a5e995960921b60608201526080019056fea2646970667358221220fc1c64a481b504b83cdf708a263911af9ca353f99f4b403dc7b34531ba97899964736f6c63430008090033",
  "devdoc": {
    "kind": "dev",
    "methods": {},
    "version": 1
  },
  "userdoc": {
    "kind": "user",
    "methods": {},
    "version": 1
  },
  "storageLayout": {
    "storage": [
      {
        "astId": 9288,
        "contract": "contracts/factory/DuetDppFactory.sol:DuetDPPFactory",
        "label": "admin",
        "offset": 0,
        "slot": "0",
        "type": "t_address"
      },
      {
        "astId": 6,
        "contract": "contracts/factory/DuetDppFactory.sol:DuetDPPFactory",
        "label": "_initialized",
        "offset": 20,
        "slot": "0",
        "type": "t_uint8"
      },
      {
        "astId": 9,
        "contract": "contracts/factory/DuetDppFactory.sol:DuetDPPFactory",
        "label": "_initializing",
        "offset": 21,
        "slot": "0",
        "type": "t_bool"
      },
      {
        "astId": 8329,
        "contract": "contracts/factory/DuetDppFactory.sol:DuetDPPFactory",
        "label": "CLONE_FACTORY",
        "offset": 0,
        "slot": "1",
        "type": "t_address"
      },
      {
        "astId": 8331,
        "contract": "contracts/factory/DuetDppFactory.sol:DuetDPPFactory",
        "label": "WETH",
        "offset": 0,
        "slot": "2",
        "type": "t_address"
      },
      {
        "astId": 8333,
        "contract": "contracts/factory/DuetDppFactory.sol:DuetDPPFactory",
        "label": "dodoDefautMtFeeRateModel",
        "offset": 0,
        "slot": "3",
        "type": "t_address"
      },
      {
        "astId": 8335,
        "contract": "contracts/factory/DuetDppFactory.sol:DuetDPPFactory",
        "label": "dodoApproveProxy",
        "offset": 0,
        "slot": "4",
        "type": "t_address"
      },
      {
        "astId": 8337,
        "contract": "contracts/factory/DuetDppFactory.sol:DuetDPPFactory",
        "label": "dodoDefaultMaintainer",
        "offset": 0,
        "slot": "5",
        "type": "t_address"
      },
      {
        "astId": 8339,
        "contract": "contracts/factory/DuetDppFactory.sol:DuetDPPFactory",
        "label": "dppTemplate",
        "offset": 0,
        "slot": "6",
        "type": "t_address"
      },
      {
        "astId": 8341,
        "contract": "contracts/factory/DuetDppFactory.sol:DuetDPPFactory",
        "label": "dppAdminTemplate",
        "offset": 0,
        "slot": "7",
        "type": "t_address"
      },
      {
        "astId": 8343,
        "contract": "contracts/factory/DuetDppFactory.sol:DuetDPPFactory",
        "label": "dppControllerTemplate",
        "offset": 0,
        "slot": "8",
        "type": "t_address"
      },
      {
        "astId": 8349,
        "contract": "contracts/factory/DuetDppFactory.sol:DuetDPPFactory",
        "label": "registry",
        "offset": 0,
        "slot": "9",
        "type": "t_mapping(t_address,t_mapping(t_address,t_address))"
      },
      {
        "astId": 8354,
        "contract": "contracts/factory/DuetDppFactory.sol:DuetDPPFactory",
        "label": "userRegistry",
        "offset": 0,
        "slot": "10",
        "type": "t_mapping(t_address,t_array(t_address)dyn_storage)"
      }
    ],
    "types": {
      "t_address": {
        "encoding": "inplace",
        "label": "address",
        "numberOfBytes": "20"
      },
      "t_array(t_address)dyn_storage": {
        "base": "t_address",
        "encoding": "dynamic_array",
        "label": "address[]",
        "numberOfBytes": "32"
      },
      "t_bool": {
        "encoding": "inplace",
        "label": "bool",
        "numberOfBytes": "1"
      },
      "t_mapping(t_address,t_address)": {
        "encoding": "mapping",
        "key": "t_address",
        "label": "mapping(address => address)",
        "numberOfBytes": "32",
        "value": "t_address"
      },
      "t_mapping(t_address,t_array(t_address)dyn_storage)": {
        "encoding": "mapping",
        "key": "t_address",
        "label": "mapping(address => address[])",
        "numberOfBytes": "32",
        "value": "t_array(t_address)dyn_storage"
      },
      "t_mapping(t_address,t_mapping(t_address,t_address))": {
        "encoding": "mapping",
        "key": "t_address",
        "label": "mapping(address => mapping(address => address))",
        "numberOfBytes": "32",
        "value": "t_mapping(t_address,t_address)"
      },
      "t_uint8": {
        "encoding": "inplace",
        "label": "uint8",
        "numberOfBytes": "1"
      }
    }
  }
}