{
  "address": "0x089C6b223c453cf9d82A721F5DA0896fDB8F677a",
  "abi": [
    {
      "anonymous": false,
      "inputs": [
        {
          "indexed": true,
          "internalType": "address",
          "name": "user",
          "type": "address"
        },
        {
          "indexed": true,
          "internalType": "address",
          "name": "newAdmin",
          "type": "address"
        }
      ],
      "name": "AdminUpdated",
      "type": "event"
    },
    {
      "anonymous": false,
      "inputs": [
        {
          "indexed": false,
          "internalType": "uint8",
          "name": "version",
          "type": "uint8"
        }
      ],
      "name": "Initialized",
      "type": "event"
    },
    {
      "anonymous": false,
      "inputs": [
        {
          "indexed": false,
          "internalType": "address",
          "name": "baseToken",
          "type": "address"
        },
        {
          "indexed": false,
          "internalType": "address",
          "name": "quoteToken",
          "type": "address"
        },
        {
          "indexed": false,
          "internalType": "address",
          "name": "creator",
          "type": "address"
        },
        {
          "indexed": false,
          "internalType": "address",
          "name": "dpp",
          "type": "address"
        },
        {
          "indexed": false,
          "internalType": "address",
          "name": "dppController",
          "type": "address"
        }
      ],
      "name": "NewDPP",
      "type": "event"
    },
    {
      "inputs": [],
      "name": "CLONE_FACTORY",
      "outputs": [
        {
          "internalType": "address",
          "name": "",
          "type": "address"
        }
      ],
      "stateMutability": "view",
      "type": "function"
    },
    {
      "inputs": [],
      "name": "WETH",
      "outputs": [
        {
          "internalType": "address",
          "name": "",
          "type": "address"
        }
      ],
      "stateMutability": "view",
      "type": "function"
    },
    {
      "inputs": [],
      "name": "admin",
      "outputs": [
        {
          "internalType": "address",
          "name": "",
          "type": "address"
        }
      ],
      "stateMutability": "view",
      "type": "function"
    },
    {
      "inputs": [
        {
          "internalType": "address",
          "name": "creator_",
          "type": "address"
        },
        {
          "internalType": "address",
          "name": "baseToken_",
          "type": "address"
        },
        {
          "internalType": "address",
          "name": "quoteToken_",
          "type": "address"
        },
        {
          "internalType": "uint256",
          "name": "lpFeeRate_",
          "type": "uint256"
        },
        {
          "internalType": "uint256",
          "name": "k_",
          "type": "uint256"
        },
        {
          "internalType": "uint256",
          "name": "i_",
          "type": "uint256"
        },
        {
          "internalType": "address",
          "name": "o_",
          "type": "address"
        },
        {
          "internalType": "bool",
          "name": "isOpenTwap_",
          "type": "bool"
        },
        {
          "internalType": "bool",
          "name": "isOracleEnabled_",
          "type": "bool"
        }
      ],
      "name": "createDPPController",
      "outputs": [],
      "stateMutability": "nonpayable",
      "type": "function"
    },
    {
      "inputs": [],
      "name": "dodoApproveProxy",
      "outputs": [
        {
          "internalType": "address",
          "name": "",
          "type": "address"
        }
      ],
      "stateMutability": "view",
      "type": "function"
    },
    {
      "inputs": [],
      "name": "dodoDefaultMaintainer",
      "outputs": [
        {
          "internalType": "address",
          "name": "",
          "type": "address"
        }
      ],
      "stateMutability": "view",
      "type": "function"
    },
    {
      "inputs": [],
      "name": "dodoDefautMtFeeRateModel",
      "outputs": [
        {
          "internalType": "address",
          "name": "",
          "type": "address"
        }
      ],
      "stateMutability": "view",
      "type": "function"
    },
    {
      "inputs": [],
      "name": "dppAdminTemplate",
      "outputs": [
        {
          "internalType": "address",
          "name": "",
          "type": "address"
        }
      ],
      "stateMutability": "view",
      "type": "function"
    },
    {
      "inputs": [],
      "name": "dppControllerTemplate",
      "outputs": [
        {
          "internalType": "address",
          "name": "",
          "type": "address"
        }
      ],
      "stateMutability": "view",
      "type": "function"
    },
    {
      "inputs": [],
      "name": "dppTemplate",
      "outputs": [
        {
          "internalType": "address",
          "name": "",
          "type": "address"
        }
      ],
      "stateMutability": "view",
      "type": "function"
    },
    {
      "inputs": [
        {
          "internalType": "address",
          "name": "admin_",
          "type": "address"
        },
        {
          "internalType": "address",
          "name": "cloneFactory_",
          "type": "address"
        },
        {
          "internalType": "address",
          "name": "dppTemplate_",
          "type": "address"
        },
        {
          "internalType": "address",
          "name": "dppAdminTemplate_",
          "type": "address"
        },
        {
          "internalType": "address",
          "name": "dppControllerTemplate_",
          "type": "address"
        },
        {
          "internalType": "address",
          "name": "defaultMaintainer_",
          "type": "address"
        },
        {
          "internalType": "address",
          "name": "defaultMtFeeRateModel_",
          "type": "address"
        },
        {
          "internalType": "address",
          "name": "dodoApproveProxy_",
          "type": "address"
        },
        {
          "internalType": "address",
          "name": "weth_",
          "type": "address"
        }
      ],
      "name": "initialize",
      "outputs": [],
      "stateMutability": "nonpayable",
      "type": "function"
    },
    {
      "inputs": [
        {
          "internalType": "address",
          "name": "",
          "type": "address"
        },
        {
          "internalType": "address",
          "name": "",
          "type": "address"
        }
      ],
      "name": "registry",
      "outputs": [
        {
          "internalType": "address",
          "name": "",
          "type": "address"
        }
      ],
      "stateMutability": "view",
      "type": "function"
    },
    {
      "inputs": [
        {
          "internalType": "address",
          "name": "newAdmin",
          "type": "address"
        }
      ],
      "name": "setAdmin",
      "outputs": [],
      "stateMutability": "nonpayable",
      "type": "function"
    },
    {
      "inputs": [
        {
          "internalType": "address",
          "name": "newDPPAdminTemplate_",
          "type": "address"
        }
      ],
      "name": "updateAdminTemplate",
      "outputs": [],
      "stateMutability": "nonpayable",
      "type": "function"
    },
    {
      "inputs": [
        {
          "internalType": "address",
          "name": "newController_",
          "type": "address"
        }
      ],
      "name": "updateControllerTemplate",
      "outputs": [],
      "stateMutability": "nonpayable",
      "type": "function"
    },
    {
      "inputs": [
        {
          "internalType": "address",
          "name": "newFeeModel_",
          "type": "address"
        }
      ],
      "name": "updateDefaultFeeModel",
      "outputs": [],
      "stateMutability": "nonpayable",
      "type": "function"
    },
    {
      "inputs": [
        {
          "internalType": "address",
          "name": "newMaintainer_",
          "type": "address"
        }
      ],
      "name": "updateDefaultMaintainer",
      "outputs": [],
      "stateMutability": "nonpayable",
      "type": "function"
    },
    {
      "inputs": [
        {
          "internalType": "address",
          "name": "newDodoApprove_",
          "type": "address"
        }
      ],
      "name": "updateDodoApprove",
      "outputs": [],
      "stateMutability": "nonpayable",
      "type": "function"
    },
    {
      "inputs": [
        {
          "internalType": "address",
          "name": "newDPPTemplate_",
          "type": "address"
        }
      ],
      "name": "updateDppTemplate",
      "outputs": [],
      "stateMutability": "nonpayable",
      "type": "function"
    },
    {
      "inputs": [
        {
          "internalType": "address",
          "name": "",
          "type": "address"
        },
        {
          "internalType": "uint256",
          "name": "",
          "type": "uint256"
        }
      ],
      "name": "userRegistry",
      "outputs": [
        {
          "internalType": "address",
          "name": "",
          "type": "address"
        }
      ],
      "stateMutability": "view",
      "type": "function"
    }
  ],
  "transactionHash": "0xd99314f292989302804b145a074f9fd1d7b051613109de481b595fe31b139ed5",
  "args": [],
  "numDeployments": 1,
  "solcInputHash": "4c79fe16aaf1bed84cf3db391f24b3d1",
  "bytecode": "0x608060405234801561001057600080fd5b50610f3f806100206000396000f3fe608060405234801561001057600080fd5b506004361061012b5760003560e01c80639e988ee3116100ad578063db715fea11610071578063db715fea1461028c578063ef23977c1461029f578063f5e95acb146102b2578063f7220971146102c5578063f851a440146102d857600080fd5b80639e988ee31461020c578063a5afd1b61461021f578063ad5c464814610253578063be7537f214610266578063caedbaf81461027957600080fd5b806343424431116100f457806343424431146101ad57806344b7f78e146101c05780636494752a146101d3578063704b6c02146101e65780637d2c82d7146101f957600080fd5b806242f701146101305780630214cb4c146101455780630bd4651a146101745780631426ca9b146101875780632bc609d51461019a575b600080fd5b61014361013e366004610c98565b6102eb565b005b610158610153366004610d33565b610628565b6040516001600160a01b03909116815260200160405180910390f35b600554610158906001600160a01b031681565b600654610158906001600160a01b031681565b6101436101a8366004610d5f565b610660565b600854610158906001600160a01b031681565b6101436101ce366004610d5f565b6106ac565b6101436101e1366004610d5f565b6106f8565b6101436101f4366004610d5f565b610744565b610143610207366004610d5f565b61077a565b61014361021a366004610d5f565b6107c6565b61015861022d366004610d83565b60096020908152600092835260408084209091529082529020546001600160a01b031681565b600254610158906001600160a01b031681565b600754610158906001600160a01b031681565b600354610158906001600160a01b031681565b61014361029a366004610d5f565b610812565b600154610158906001600160a01b031681565b6101436102c0366004610dbc565b61085e565b600454610158906001600160a01b031681565b600054610158906001600160a01b031681565b6000546001600160a01b0316331461031e5760405162461bcd60e51b815260040161031590610e78565b60405180910390fd5b6001600160a01b0388811660009081526009602090815260408083208b8516845290915290205416156103825760405162461bcd60e51b815260206004820152600c60248201526b121055914810d4915055115160a21b6044820152606401610315565b60008061038d61095d565b915060006103996109e9565b600554600354604051634f115ccb60e01b81526001600160a01b03808516600483015292831660248201528e831660448201528d83166064820152608481018d905290821660a482015260c481018b905260e481018a9052888216610104820152871515610124820152861515610144820152919250841690634f115ccb9061016401600060405180830381600087803b15801561043657600080fd5b505af115801561044a573d6000803e3d6000fd5b505050506104598c8483610a22565b600480546040516306552ff360e01b81526001600160a01b038085169382019390935286831660248201528f8316604482015290821660648201529193508216906306552ff390608401600060405180830381600087803b1580156104bd57600080fd5b505af11580156104d1573d6000803e3d6000fd5b505050505080600960008c6001600160a01b03166001600160a01b0316815260200190815260200160002060008b6001600160a01b03166001600160a01b0316815260200190815260200160002060006101000a8154816001600160a01b0302191690836001600160a01b03160217905550600a60008c6001600160a01b03166001600160a01b03168152602001908152602001600020819080600181540180825580915050600190039060005260206000200160009091909190916101000a8154816001600160a01b0302191690836001600160a01b031602179055507f5e55631db9f29584cb7b1abfa64a49ff89a39711c531b3c6bf05d389f62ac7938a8a8d85856040516106139594939291906001600160a01b0395861681529385166020850152918416604084015283166060830152909116608082015260a00190565b60405180910390a15050505050505050505050565b600a602052816000526040600020818154811061064457600080fd5b6000918252602090912001546001600160a01b03169150829050565b6000546001600160a01b0316331461068a5760405162461bcd60e51b815260040161031590610e78565b600480546001600160a01b0319166001600160a01b0392909216919091179055565b6000546001600160a01b031633146106d65760405162461bcd60e51b815260040161031590610e78565b600680546001600160a01b0319166001600160a01b0392909216919091179055565b6000546001600160a01b031633146107225760405162461bcd60e51b815260040161031590610e78565b600880546001600160a01b0319166001600160a01b0392909216919091179055565b6000546001600160a01b0316331461076e5760405162461bcd60e51b815260040161031590610e78565b61077781610b28565b50565b6000546001600160a01b031633146107a45760405162461bcd60e51b815260040161031590610e78565b600780546001600160a01b0319166001600160a01b0392909216919091179055565b6000546001600160a01b031633146107f05760405162461bcd60e51b815260040161031590610e78565b600580546001600160a01b0319166001600160a01b0392909216919091179055565b6000546001600160a01b0316331461083c5760405162461bcd60e51b815260040161031590610e78565b600380546001600160a01b0319166001600160a01b0392909216919091179055565b600061086a6001610bd3565b90508015610886576000805460ff60a81b1916600160a81b1790555b61088f8a610b28565b600280546001600160a01b03199081166001600160a01b03858116919091179092556001805482168c84161790556006805482168b84161790556007805482168a8416179055600880548216898416179055600580548216888416179055600380548216878416179055600480549091169185169190911790558015610951576000805460ff60a81b19169055604051600181527f7f26b83ff96e1f2b6a682f133852f6798a09c465da95921460cefb38474024989060200160405180910390a15b50505050505050505050565b6001546006546040516340925bc760e11b81526001600160a01b0391821660048201526000929190911690638124b78e906024015b602060405180830381600087803b1580156109ac57600080fd5b505af11580156109c0573d6000803e3d6000fd5b505050506040513d601f19601f820116820180604052508101906109e49190610e9e565b905090565b6001546007546040516340925bc760e11b81526001600160a01b0391821660048201526000929190911690638124b78e90602401610992565b6001546008546040516340925bc760e11b81526001600160a01b0391821660048201526000929190911690638124b78e90602401602060405180830381600087803b158015610a7057600080fd5b505af1158015610a84573d6000803e3d6000fd5b505050506040513d601f19601f82011682018060405250810190610aa89190610e9e565b6002546040516306552ff360e01b81526001600160a01b0387811660048301528681166024830152858116604483015291821660648201529192508216906306552ff390608401600060405180830381600087803b158015610b0957600080fd5b505af1158015610b1d573d6000803e3d6000fd5b505050509392505050565b6001600160a01b038116610b885760405162461bcd60e51b815260206004820152602160248201527f43616e206e6f74207365742061646d696e20746f207a65726f206164647265736044820152607360f81b6064820152608401610315565b600080546001600160a01b0319166001600160a01b0383169081178255604051909133917f101b8081ff3b56bbf45deb824d86a3b0fd38b7e3dd42421105cf8abe9106db0b9190a350565b60008054600160a81b900460ff1615610c1c578160ff166001148015610bf85750303b155b610c145760405162461bcd60e51b815260040161031590610ebb565b506000919050565b60005460ff808416600160a01b9092041610610c4a5760405162461bcd60e51b815260040161031590610ebb565b506000805460ff909216600160a01b0260ff60a01b19909216919091179055600190565b919050565b6001600160a01b038116811461077757600080fd5b80358015158114610c6e57600080fd5b60008060008060008060008060006101208a8c031215610cb757600080fd5b8935610cc281610c73565b985060208a0135610cd281610c73565b975060408a0135610ce281610c73565b965060608a0135955060808a0135945060a08a0135935060c08a0135610d0781610c73565b9250610d1560e08b01610c88565b9150610d246101008b01610c88565b90509295985092959850929598565b60008060408385031215610d4657600080fd5b8235610d5181610c73565b946020939093013593505050565b600060208284031215610d7157600080fd5b8135610d7c81610c73565b9392505050565b60008060408385031215610d9657600080fd5b8235610da181610c73565b91506020830135610db181610c73565b809150509250929050565b60008060008060008060008060006101208a8c031215610ddb57600080fd5b8935610de681610c73565b985060208a0135610df681610c73565b975060408a0135610e0681610c73565b965060608a0135610e1681610c73565b955060808a0135610e2681610c73565b945060a08a0135610e3681610c73565b935060c08a0135610e4681610c73565b925060e08a0135610e5681610c73565b91506101008a0135610e6781610c73565b809150509295985092959850929598565b6020808252600c908201526b15539055551213d49256915160a21b604082015260600190565b600060208284031215610eb057600080fd5b8151610d7c81610c73565b6020808252602e908201527f496e697469616c697a61626c653a20636f6e747261637420697320616c72656160408201526d191e481a5b9a5d1a585b1a5e995960921b60608201526080019056fea26469706673582212200cd8c13e5414c899e3a9cbe79d32ac5983180710ba0a00e8b5e7064f589ba4f264736f6c63430008090033",
  "devdoc": {
    "kind": "dev",
    "methods": {},
    "version": 1
  },
  "userdoc": {
    "kind": "user",
    "methods": {},
    "version": 1
  },
  "storageLayout": {
    "storage": [
      {
        "astId": 6812,
        "contract": "contracts/factory/DuetDppFactory.sol:DuetDPPFactory",
        "label": "admin",
        "offset": 0,
        "slot": "0",
        "type": "t_address"
      },
      {
        "astId": 6,
        "contract": "contracts/factory/DuetDppFactory.sol:DuetDPPFactory",
        "label": "_initialized",
        "offset": 20,
        "slot": "0",
        "type": "t_uint8"
      },
      {
        "astId": 9,
        "contract": "contracts/factory/DuetDppFactory.sol:DuetDPPFactory",
        "label": "_initializing",
        "offset": 21,
        "slot": "0",
        "type": "t_bool"
      },
      {
        "astId": 5986,
        "contract": "contracts/factory/DuetDppFactory.sol:DuetDPPFactory",
        "label": "CLONE_FACTORY",
        "offset": 0,
        "slot": "1",
        "type": "t_address"
      },
      {
        "astId": 5988,
        "contract": "contracts/factory/DuetDppFactory.sol:DuetDPPFactory",
        "label": "WETH",
        "offset": 0,
        "slot": "2",
        "type": "t_address"
      },
      {
        "astId": 5990,
        "contract": "contracts/factory/DuetDppFactory.sol:DuetDPPFactory",
        "label": "dodoDefautMtFeeRateModel",
        "offset": 0,
        "slot": "3",
        "type": "t_address"
      },
      {
        "astId": 5992,
        "contract": "contracts/factory/DuetDppFactory.sol:DuetDPPFactory",
        "label": "dodoApproveProxy",
        "offset": 0,
        "slot": "4",
        "type": "t_address"
      },
      {
        "astId": 5994,
        "contract": "contracts/factory/DuetDppFactory.sol:DuetDPPFactory",
        "label": "dodoDefaultMaintainer",
        "offset": 0,
        "slot": "5",
        "type": "t_address"
      },
      {
        "astId": 5996,
        "contract": "contracts/factory/DuetDppFactory.sol:DuetDPPFactory",
        "label": "dppTemplate",
        "offset": 0,
        "slot": "6",
        "type": "t_address"
      },
      {
        "astId": 5998,
        "contract": "contracts/factory/DuetDppFactory.sol:DuetDPPFactory",
        "label": "dppAdminTemplate",
        "offset": 0,
        "slot": "7",
        "type": "t_address"
      },
      {
        "astId": 6000,
        "contract": "contracts/factory/DuetDppFactory.sol:DuetDPPFactory",
        "label": "dppControllerTemplate",
        "offset": 0,
        "slot": "8",
        "type": "t_address"
      },
      {
        "astId": 6006,
        "contract": "contracts/factory/DuetDppFactory.sol:DuetDPPFactory",
        "label": "registry",
        "offset": 0,
        "slot": "9",
        "type": "t_mapping(t_address,t_mapping(t_address,t_address))"
      },
      {
        "astId": 6011,
        "contract": "contracts/factory/DuetDppFactory.sol:DuetDPPFactory",
        "label": "userRegistry",
        "offset": 0,
        "slot": "10",
        "type": "t_mapping(t_address,t_array(t_address)dyn_storage)"
      }
    ],
    "types": {
      "t_address": {
        "encoding": "inplace",
        "label": "address",
        "numberOfBytes": "20"
      },
      "t_array(t_address)dyn_storage": {
        "base": "t_address",
        "encoding": "dynamic_array",
        "label": "address[]",
        "numberOfBytes": "32"
      },
      "t_bool": {
        "encoding": "inplace",
        "label": "bool",
        "numberOfBytes": "1"
      },
      "t_mapping(t_address,t_address)": {
        "encoding": "mapping",
        "key": "t_address",
        "label": "mapping(address => address)",
        "numberOfBytes": "32",
        "value": "t_address"
      },
      "t_mapping(t_address,t_array(t_address)dyn_storage)": {
        "encoding": "mapping",
        "key": "t_address",
        "label": "mapping(address => address[])",
        "numberOfBytes": "32",
        "value": "t_array(t_address)dyn_storage"
      },
      "t_mapping(t_address,t_mapping(t_address,t_address))": {
        "encoding": "mapping",
        "key": "t_address",
        "label": "mapping(address => mapping(address => address))",
        "numberOfBytes": "32",
        "value": "t_mapping(t_address,t_address)"
      },
      "t_uint8": {
        "encoding": "inplace",
        "label": "uint8",
        "numberOfBytes": "1"
      }
    }
  }
}