{
  "address": "0x6B24ca7CF0d4005b9D8cc4bDD2560c7Cf7240072",
  "abi": [
    {
      "anonymous": false,
      "inputs": [
        {
          "indexed": true,
          "internalType": "address",
          "name": "user",
          "type": "address"
        },
        {
          "indexed": true,
          "internalType": "address",
          "name": "newAdmin",
          "type": "address"
        }
      ],
      "name": "AdminUpdated",
      "type": "event"
    },
    {
      "anonymous": false,
      "inputs": [
        {
          "indexed": true,
          "internalType": "address",
          "name": "owner",
          "type": "address"
        },
        {
          "indexed": true,
          "internalType": "address",
          "name": "spender",
          "type": "address"
        },
        {
          "indexed": false,
          "internalType": "uint256",
          "name": "amount",
          "type": "uint256"
        }
      ],
      "name": "Approval",
      "type": "event"
    },
    {
      "anonymous": false,
      "inputs": [
        {
          "indexed": true,
          "internalType": "address",
          "name": "user",
          "type": "address"
        },
        {
          "indexed": false,
          "internalType": "uint256",
          "name": "value",
          "type": "uint256"
        }
      ],
      "name": "Burn",
      "type": "event"
    },
    {
      "anonymous": false,
      "inputs": [
        {
          "indexed": false,
          "internalType": "address",
          "name": "to",
          "type": "address"
        },
        {
          "indexed": false,
          "internalType": "uint256",
          "name": "increaseShares",
          "type": "uint256"
        },
        {
          "indexed": false,
          "internalType": "uint256",
          "name": "totalShares",
          "type": "uint256"
        }
      ],
      "name": "BuyShares",
      "type": "event"
    },
    {
      "anonymous": false,
      "inputs": [
        {
          "indexed": true,
          "internalType": "address",
          "name": "user",
          "type": "address"
        },
        {
          "indexed": false,
          "internalType": "uint256",
          "name": "value",
          "type": "uint256"
        }
      ],
      "name": "Mint",
      "type": "event"
    },
    {
      "anonymous": false,
      "inputs": [
        {
          "indexed": false,
          "internalType": "address",
          "name": "payer",
          "type": "address"
        },
        {
          "indexed": false,
          "internalType": "address",
          "name": "to",
          "type": "address"
        },
        {
          "indexed": false,
          "internalType": "uint256",
          "name": "decreaseShares",
          "type": "uint256"
        },
        {
          "indexed": false,
          "internalType": "uint256",
          "name": "totalShares",
          "type": "uint256"
        }
      ],
      "name": "SellShares",
      "type": "event"
    },
    {
      "anonymous": false,
      "inputs": [
        {
          "indexed": true,
          "internalType": "address",
          "name": "from",
          "type": "address"
        },
        {
          "indexed": true,
          "internalType": "address",
          "name": "to",
          "type": "address"
        },
        {
          "indexed": false,
          "internalType": "uint256",
          "name": "amount",
          "type": "uint256"
        }
      ],
      "name": "Transfer",
      "type": "event"
    },
    {
      "stateMutability": "payable",
      "type": "fallback"
    },
    {
      "inputs": [],
      "name": "DOMAIN_SEPARATOR",
      "outputs": [
        {
          "internalType": "bytes32",
          "name": "",
          "type": "bytes32"
        }
      ],
      "stateMutability": "view",
      "type": "function"
    },
    {
      "inputs": [],
      "name": "PERMIT_TYPEHASH",
      "outputs": [
        {
          "internalType": "bytes32",
          "name": "",
          "type": "bytes32"
        }
      ],
      "stateMutability": "view",
      "type": "function"
    },
    {
      "inputs": [],
      "name": "_BASE_TOKEN_",
      "outputs": [
        {
          "internalType": "contract IERC20",
          "name": "",
          "type": "address"
        }
      ],
      "stateMutability": "view",
      "type": "function"
    },
    {
      "inputs": [],
      "name": "_DPP_ADDRESS_",
      "outputs": [
        {
          "internalType": "address",
          "name": "",
          "type": "address"
        }
      ],
      "stateMutability": "view",
      "type": "function"
    },
    {
      "inputs": [],
      "name": "_DPP_ADMIN_ADDRESS_",
      "outputs": [
        {
          "internalType": "address",
          "name": "",
          "type": "address"
        }
      ],
      "stateMutability": "view",
      "type": "function"
    },
    {
      "inputs": [],
      "name": "_I_",
      "outputs": [
        {
          "internalType": "uint128",
          "name": "",
          "type": "uint128"
        }
      ],
      "stateMutability": "view",
      "type": "function"
    },
    {
      "inputs": [],
      "name": "_K_",
      "outputs": [
        {
          "internalType": "uint64",
          "name": "",
          "type": "uint64"
        }
      ],
      "stateMutability": "view",
      "type": "function"
    },
    {
      "inputs": [],
      "name": "_LP_FEE_RATE_",
      "outputs": [
        {
          "internalType": "uint64",
          "name": "",
          "type": "uint64"
        }
      ],
      "stateMutability": "view",
      "type": "function"
    },
    {
      "inputs": [],
      "name": "_QUOTE_TOKEN_",
      "outputs": [
        {
          "internalType": "contract IERC20",
          "name": "",
          "type": "address"
        }
      ],
      "stateMutability": "view",
      "type": "function"
    },
    {
      "inputs": [],
      "name": "_WETH_",
      "outputs": [
        {
          "internalType": "address",
          "name": "",
          "type": "address"
        }
      ],
      "stateMutability": "view",
      "type": "function"
    },
    {
      "inputs": [
        {
          "internalType": "uint256",
          "name": "baseInAmount",
          "type": "uint256"
        },
        {
          "internalType": "uint256",
          "name": "quoteInAmount",
          "type": "uint256"
        },
        {
          "internalType": "uint256",
          "name": "baseMinAmount",
          "type": "uint256"
        },
        {
          "internalType": "uint256",
          "name": "quoteMinAmount",
          "type": "uint256"
        },
        {
          "internalType": "uint8",
          "name": "flag",
          "type": "uint8"
        },
        {
          "internalType": "uint256",
          "name": "deadLine",
          "type": "uint256"
        }
      ],
      "name": "addDuetDppLiquidity",
      "outputs": [
        {
          "internalType": "uint256",
          "name": "shares",
          "type": "uint256"
        },
        {
          "internalType": "uint256",
          "name": "baseAdjustedInAmount",
          "type": "uint256"
        },
        {
          "internalType": "uint256",
          "name": "quoteAdjustedInAmount",
          "type": "uint256"
        }
      ],
      "stateMutability": "payable",
      "type": "function"
    },
    {
      "inputs": [
        {
          "internalType": "address",
          "name": "_addr",
          "type": "address"
        }
      ],
      "name": "addressToShortString",
      "outputs": [
        {
          "internalType": "string",
          "name": "",
          "type": "string"
        }
      ],
      "stateMutability": "pure",
      "type": "function"
    },
    {
      "inputs": [],
      "name": "admin",
      "outputs": [
        {
          "internalType": "address",
          "name": "",
          "type": "address"
        }
      ],
      "stateMutability": "view",
      "type": "function"
    },
    {
      "inputs": [
        {
          "internalType": "address",
          "name": "owner",
          "type": "address"
        },
        {
          "internalType": "address",
          "name": "spender",
          "type": "address"
        }
      ],
      "name": "allowance",
      "outputs": [
        {
          "internalType": "uint256",
          "name": "",
          "type": "uint256"
        }
      ],
      "stateMutability": "view",
      "type": "function"
    },
    {
      "inputs": [
        {
          "internalType": "address",
          "name": "spender",
          "type": "address"
        },
        {
          "internalType": "uint256",
          "name": "amount",
          "type": "uint256"
        }
      ],
      "name": "approve",
      "outputs": [
        {
          "internalType": "bool",
          "name": "",
          "type": "bool"
        }
      ],
      "stateMutability": "nonpayable",
      "type": "function"
    },
    {
      "inputs": [
        {
          "internalType": "address",
          "name": "owner",
          "type": "address"
        }
      ],
      "name": "balanceOf",
      "outputs": [
        {
          "internalType": "uint256",
          "name": "balance",
          "type": "uint256"
        }
      ],
      "stateMutability": "view",
      "type": "function"
    },
    {
      "inputs": [
        {
          "internalType": "uint256",
          "name": "newBaseR_",
          "type": "uint256"
        },
        {
          "internalType": "uint256",
          "name": "newQuoteR_",
          "type": "uint256"
        }
      ],
      "name": "changeMinRes",
      "outputs": [],
      "stateMutability": "nonpayable",
      "type": "function"
    },
    {
      "inputs": [
        {
          "internalType": "address",
          "name": "newOracle",
          "type": "address"
        }
      ],
      "name": "changeOracle",
      "outputs": [],
      "stateMutability": "nonpayable",
      "type": "function"
    },
    {
      "inputs": [],
      "name": "decimals",
      "outputs": [
        {
          "internalType": "uint8",
          "name": "",
          "type": "uint8"
        }
      ],
      "stateMutability": "view",
      "type": "function"
    },
    {
      "inputs": [
        {
          "internalType": "uint256",
          "name": "newI",
          "type": "uint256"
        }
      ],
      "name": "disableOracle",
      "outputs": [],
      "stateMutability": "nonpayable",
      "type": "function"
    },
    {
      "inputs": [],
      "name": "enableOracle",
      "outputs": [],
      "stateMutability": "nonpayable",
      "type": "function"
    },
    {
      "inputs": [
        {
          "internalType": "address",
          "name": "admin",
          "type": "address"
        },
        {
          "internalType": "address",
          "name": "dppAddress",
          "type": "address"
        },
        {
          "internalType": "address",
          "name": "dppAdminAddress",
          "type": "address"
        },
        {
          "internalType": "address",
          "name": "weth",
          "type": "address"
        }
      ],
      "name": "init",
      "outputs": [],
      "stateMutability": "nonpayable",
      "type": "function"
    },
    {
      "inputs": [],
      "name": "name",
      "outputs": [
        {
          "internalType": "string",
          "name": "",
          "type": "string"
        }
      ],
      "stateMutability": "view",
      "type": "function"
    },
    {
      "inputs": [
        {
          "internalType": "address",
          "name": "",
          "type": "address"
        }
      ],
      "name": "nonces",
      "outputs": [
        {
          "internalType": "uint256",
          "name": "",
          "type": "uint256"
        }
      ],
      "stateMutability": "view",
      "type": "function"
    },
    {
      "inputs": [
        {
          "internalType": "address",
          "name": "owner",
          "type": "address"
        },
        {
          "internalType": "address",
          "name": "spender",
          "type": "address"
        },
        {
          "internalType": "uint256",
          "name": "value",
          "type": "uint256"
        },
        {
          "internalType": "uint256",
          "name": "deadline",
          "type": "uint256"
        },
        {
          "internalType": "uint8",
          "name": "v",
          "type": "uint8"
        },
        {
          "internalType": "bytes32",
          "name": "r",
          "type": "bytes32"
        },
        {
          "internalType": "bytes32",
          "name": "s",
          "type": "bytes32"
        }
      ],
      "name": "permit",
      "outputs": [],
      "stateMutability": "nonpayable",
      "type": "function"
    },
    {
      "inputs": [
        {
          "internalType": "uint256",
          "name": "shareAmount",
          "type": "uint256"
        },
        {
          "internalType": "uint256",
          "name": "baseMinAmount",
          "type": "uint256"
        },
        {
          "internalType": "uint256",
          "name": "quoteMinAmount",
          "type": "uint256"
        },
        {
          "internalType": "uint8",
          "name": "flag",
          "type": "uint8"
        },
        {
          "internalType": "uint256",
          "name": "deadLine",
          "type": "uint256"
        }
      ],
      "name": "removeDuetDppLiquidity",
      "outputs": [
        {
          "internalType": "uint256",
          "name": "shares",
          "type": "uint256"
        },
        {
          "internalType": "uint256",
          "name": "baseOutAmount",
          "type": "uint256"
        },
        {
          "internalType": "uint256",
          "name": "quoteOutAmount",
          "type": "uint256"
        }
      ],
      "stateMutability": "nonpayable",
      "type": "function"
    },
    {
      "inputs": [
        {
          "internalType": "address",
          "name": "newAdmin",
          "type": "address"
        }
      ],
      "name": "setAdmin",
      "outputs": [],
      "stateMutability": "nonpayable",
      "type": "function"
    },
    {
      "inputs": [],
      "name": "symbol",
      "outputs": [
        {
          "internalType": "string",
          "name": "",
          "type": "string"
        }
      ],
      "stateMutability": "view",
      "type": "function"
    },
    {
      "inputs": [],
      "name": "totalSupply",
      "outputs": [
        {
          "internalType": "uint256",
          "name": "",
          "type": "uint256"
        }
      ],
      "stateMutability": "view",
      "type": "function"
    },
    {
      "inputs": [
        {
          "internalType": "address",
          "name": "to",
          "type": "address"
        },
        {
          "internalType": "uint256",
          "name": "amount",
          "type": "uint256"
        }
      ],
      "name": "transfer",
      "outputs": [
        {
          "internalType": "bool",
          "name": "",
          "type": "bool"
        }
      ],
      "stateMutability": "nonpayable",
      "type": "function"
    },
    {
      "inputs": [
        {
          "internalType": "address",
          "name": "from",
          "type": "address"
        },
        {
          "internalType": "address",
          "name": "to",
          "type": "address"
        },
        {
          "internalType": "uint256",
          "name": "amount",
          "type": "uint256"
        }
      ],
      "name": "transferFrom",
      "outputs": [
        {
          "internalType": "bool",
          "name": "",
          "type": "bool"
        }
      ],
      "stateMutability": "nonpayable",
      "type": "function"
    },
    {
      "inputs": [
        {
          "internalType": "uint256",
          "name": "newLpFeeRate",
          "type": "uint256"
        },
        {
          "internalType": "uint256",
          "name": "newI",
          "type": "uint256"
        },
        {
          "internalType": "uint256",
          "name": "newK",
          "type": "uint256"
        },
        {
          "internalType": "uint256",
          "name": "minBaseReserve_",
          "type": "uint256"
        },
        {
          "internalType": "uint256",
          "name": "minQuoteReserve_",
          "type": "uint256"
        }
      ],
      "name": "tuneParameters",
      "outputs": [
        {
          "internalType": "bool",
          "name": "",
          "type": "bool"
        }
      ],
      "stateMutability": "nonpayable",
      "type": "function"
    },
    {
      "inputs": [
        {
          "internalType": "uint256",
          "name": "newI",
          "type": "uint256"
        },
        {
          "internalType": "uint256",
          "name": "minBaseReserve_",
          "type": "uint256"
        },
        {
          "internalType": "uint256",
          "name": "minQuoteReserve_",
          "type": "uint256"
        }
      ],
      "name": "tunePrice",
      "outputs": [
        {
          "internalType": "bool",
          "name": "",
          "type": "bool"
        }
      ],
      "stateMutability": "nonpayable",
      "type": "function"
    },
    {
      "stateMutability": "payable",
      "type": "receive"
    }
  ],
  "transactionHash": "0x8f34b308bc2f7ad576c3e2179296f041afe2adb0d91b7cbaef7d5a68561318f7",
  "args": [],
  "numDeployments": 1,
  "solcInputHash": "4c79fe16aaf1bed84cf3db391f24b3d1",
  "bytecode": "0x6080604052600e805460ff60a81b191690556000600f81905560105534801561002757600080fd5b5061351f806100376000396000f3fe6080604052600436106101da5760003560e01c8063704b6c0211610101578063ab44a7a31161009a578063dd62ed3e1161006c578063dd62ed3e146105f1578063e7bd25fa14610637578063ec2fd46d14610657578063f811d6921461067f578063f851a440146106b757005b8063ab44a7a314610550578063cf877e7b14610591578063d4b97046146105b1578063d505accf146105d157005b80637ecebe00116100d35780637ecebe00146104ce57806395d89b41146104fb5780639c6cb68214610510578063a9059cbb1461053057005b8063704b6c021461042a57806370a082311461044a5780637a06ab3e146104805780637d1b5d9c146104ae57005b806323b872dd116101735780633644e515116101455780633644e515146103b45780633b20884a146103ca57806347c421b5146103ea5780634a248d2a1461040a57005b806323b872dd1461031f578063292c914a1461033f57806330adf81f14610354578063313ce5671461038857005b80630d4eec8f116101ac5780630d4eec8f1461027e57806310d76460146102bb57806317101940146102db57806318160ddd146102fb57005b806306552ff3146101e357806306fdde0314610203578063095ea7b31461022e5780630a9539241461025e57005b366101e157005b005b3480156101ef57600080fd5b506101e16101fe366004612e32565b6106d7565b34801561020f57600080fd5b50610218610ac4565b6040516102259190612eba565b60405180910390f35b34801561023a57600080fd5b5061024e610249366004612eed565b610b52565b6040519015158152602001610225565b34801561026a57600080fd5b506101e1610279366004612f19565b610b69565b34801561028a57600080fd5b50600e546102a39061010090046001600160a01b031681565b6040516001600160a01b039091168152602001610225565b3480156102c757600080fd5b5061024e6102d6366004612f3b565b610b9e565b3480156102e757600080fd5b506102186102f6366004612f67565b610c67565b34801561030757600080fd5b5061031160095481565b604051908152602001610225565b34801561032b57600080fd5b5061024e61033a366004612f84565b610dea565b34801561034b57600080fd5b506101e1610f97565b34801561036057600080fd5b506103117f6e71edae12b1b97f4d1f60370fef10105fa2faae0126114a169c64845d6126c981565b34801561039457600080fd5b506007546103a29060ff1681565b60405160ff9091168152602001610225565b3480156103c057600080fd5b50610311600c5481565b3480156103d657600080fd5b5061024e6103e5366004612fc5565b61102b565b3480156103f657600080fd5b506101e1610405366004612f67565b611105565b34801561041657600080fd5b506003546102a3906001600160a01b031681565b34801561043657600080fd5b506101e1610445366004612f67565b611192565b34801561045657600080fd5b50610311610465366004612f67565b6001600160a01b03166000908152600a602052604090205490565b61049361048e36600461300f565b6111c8565b60408051938452602084019290925290820152606001610225565b3480156104ba57600080fd5b506101e16104c9366004613064565b611649565b3480156104da57600080fd5b506103116104e9366004612f67565b600d6020526000908152604090205481565b34801561050757600080fd5b506102186116a4565b34801561051c57600080fd5b506002546102a3906001600160a01b031681565b34801561053c57600080fd5b5061024e61054b366004612eed565b6116b1565b34801561055c57600080fd5b5060045461057890600160a01b900467ffffffffffffffff1681565b60405167ffffffffffffffff9091168152602001610225565b34801561059d57600080fd5b506001546102a3906001600160a01b031681565b3480156105bd57600080fd5b506004546102a3906001600160a01b031681565b3480156105dd57600080fd5b506101e16105ec36600461307d565b61179b565b3480156105fd57600080fd5b5061031161060c3660046130ee565b6001600160a01b039182166000908152600b6020908152604080832093909416825291909152205490565b34801561064357600080fd5b50610493610652366004613127565b6119b1565b34801561066357600080fd5b5060055461057890600160801b900467ffffffffffffffff1681565b34801561068b57600080fd5b5060055461069f906001600160801b031681565b6040516001600160801b039091168152602001610225565b3480156106c357600080fd5b506000546102a3906001600160a01b031681565b600e54600160a81b900460ff161561072e5760405162461bcd60e51b81526020600482015260156024820152741a185d99481899595b881a5b9a5d1a585b1a5e9959605a1b60448201526064015b60405180910390fd5b600e80546001600160a01b0380841661010002610100600160b01b031990921691909117600160a81b17909155600180548583166001600160a01b031991821617909155600280549285169290911691909117905561078c84611d1a565b600160009054906101000a90046001600160a01b03166001600160a01b0316634a248d2a6040518163ffffffff1660e01b815260040160206040518083038186803b1580156107da57600080fd5b505afa1580156107ee573d6000803e3d6000fd5b505050506040513d601f19601f820116820180604052508101906108129190613170565b600380546001600160a01b0319166001600160a01b0392831617905560015460408051636a5cb82360e11b81529051919092169163d4b97046916004808301926020929190829003018186803b15801561086b57600080fd5b505afa15801561087f573d6000803e3d6000fd5b505050506040513d601f19601f820116820180604052508101906108a39190613170565b600480546001600160a01b0319166001600160a01b03929092169190911790556108cb611dc5565b60408051808201825260018152605f60f81b60208083019190915282518084019093526004835263111d595d60e21b9083015290808261090a30610c67565b60405160200161091c9392919061318d565b60405160208183030381529060405260089080519060200190610940929190612d84565b50604080518082019091526007808252660447565745f4c560cc1b602090920191825261096f91600691612d84565b50600360009054906101000a90046001600160a01b03166001600160a01b031663313ce5676040518163ffffffff1660e01b815260040160206040518083038186803b1580156109be57600080fd5b505afa1580156109d2573d6000803e3d6000fd5b505050506040513d601f19601f820116820180604052508101906109f691906131d0565b6007805460ff191660ff9290921691909117905560405146907f8b73c3c69bb8fe3d512ecc4cf759cc79239f7b179b0ffacaa9a75d522b39400f90610a3d90600890613228565b60408051918290038220828201825260018352603160f81b6020938401528151928301939093528101919091527fc89efdaa54c0f20c7adf612882df0950f5a951637e0307cdcb4c672f298b8bc66060820152608081018290523060a082015260c00160408051601f198184030181529190528051602090910120600c5550505050505050565b60088054610ad1906131ed565b80601f0160208091040260200160405190810160405280929190818152602001828054610afd906131ed565b8015610b4a5780601f10610b1f57610100808354040283529160200191610b4a565b820191906000526020600020905b815481529060010190602001808311610b2d57829003601f168201915b505050505081565b6000610b5f338484611fd0565b5060015b92915050565b6000546001600160a01b03163314610b935760405162461bcd60e51b8152600401610725906132c4565b600f91909155601055565b600080546001600160a01b03163314610bc95760405162461bcd60e51b8152600401610725906132c4565b6002546040516286bb2360e51b81526004810186905260248101859052604481018490526001600160a01b03909116906310d7646090606401602060405180830381600087803b158015610c1c57600080fd5b505af1158015610c30573d6000803e3d6000fd5b505050506040513d601f19601f82011682018060405250810190610c5491906132ea565b50610c5d611dc5565b5060019392505050565b604080518082018252601081526f181899199a1a9b1b9c1cb0b131b232b360811b6020820152815160088082528184019093526060926001600160a01b038516929160009160208201818036833701905050905060005b6004811015610de15782600485610cd684600c613322565b60208110610ce657610ce661333a565b1a60f81b6001600160f81b031916901c60f81c60ff1681518110610d0c57610d0c61333a565b01602001516001600160f81b03191682610d27836002613350565b81518110610d3757610d3761333a565b60200101906001600160f81b031916908160001a9053508284610d5b83600c613322565b60208110610d6b57610d6b61333a565b825191901a600f16908110610d8257610d8261333a565b01602001516001600160f81b03191682610d9d836002613350565b610da8906001613322565b81518110610db857610db861333a565b60200101906001600160f81b031916908160001a90535080610dd98161336f565b915050610cbe565b50949350505050565b6001600160a01b0383166000908152600a6020526040812054821115610e475760405162461bcd60e51b81526020600482015260126024820152710848298829c868abe9c9ea8be8a9c9eaa8e960731b6044820152606401610725565b6001600160a01b0384166000908152600b60209081526040808320338452909152902054821115610eb15760405162461bcd60e51b815260206004820152601460248201527308298989eae829c868abe9c9ea8be8a9c9eaa8e960631b6044820152606401610725565b6001600160a01b0384166000908152600a6020526040902054610ed49083612031565b6001600160a01b038086166000908152600a60205260408082209390935590851681522054610f039083612080565b6001600160a01b038085166000908152600a60209081526040808320949094559187168152600b82528281203382529091522054610f419083612031565b6001600160a01b038581166000818152600b6020908152604080832033845282529182902094909455518581529186169290916000805160206134ca833981519152910160405180910390a35060019392505050565b6000546001600160a01b03163314610fc15760405162461bcd60e51b8152600401610725906132c4565b600260009054906101000a90046001600160a01b03166001600160a01b031663292c914a6040518163ffffffff1660e01b8152600401600060405180830381600087803b15801561101157600080fd5b505af1158015611025573d6000803e3d6000fd5b50505050565b600080546001600160a01b031633146110565760405162461bcd60e51b8152600401610725906132c4565b600254604051631d90442560e11b815260048101889052602481018790526044810186905260648101859052608481018490526001600160a01b0390911690633b20884a9060a401602060405180830381600087803b1580156110b857600080fd5b505af11580156110cc573d6000803e3d6000fd5b505050506040513d601f19601f820116820180604052508101906110f091906132ea565b506110f9611dc5565b50600195945050505050565b6000546001600160a01b0316331461112f5760405162461bcd60e51b8152600401610725906132c4565b6002546040516347c421b560e01b81526001600160a01b038381166004830152909116906347c421b5906024015b600060405180830381600087803b15801561117757600080fd5b505af115801561118b573d6000803e3d6000fd5b5050505050565b6000546001600160a01b031633146111bc5760405162461bcd60e51b8152600401610725906132c4565b6111c581611d1a565b50565b600e546000908190819060ff161561120e5760405162461bcd60e51b815260206004820152600960248201526814915153951490539560ba1b6044820152606401610725565b600e805460ff1916600117905583428110156112655760405162461bcd60e51b81526020600482015260166024820152751113d113d58c941c9bde1e4c0c8e881156141254915160521b6044820152606401610725565b61126f8a8a6120cb565b90935091508783108015906112845750868210155b6112ea5760405162461bcd60e51b815260206004820152603160248201527f447565742044707020436f6e74726f6c6c65723a206465706f73697420616d6f6044820152700eadce840d2e640dcdee840cadcdeeaced607b1b6064820152608401610725565b60015460408051632512469560e11b8152905161137b9233926001600160a01b03909116918291634a248d2a916004808301926020929190829003018186803b15801561133657600080fd5b505afa15801561134a573d6000803e3d6000fd5b505050506040513d601f19601f8201168201806040525081019061136e9190613170565b868a60ff16600114612251565b60015460408051636a5cb82360e11b8152905161140c9233926001600160a01b0390911691829163d4b97046916004808301926020929190829003018186803b1580156113c757600080fd5b505afa1580156113db573d6000803e3d6000fd5b505050506040513d601f19601f820116820180604052508101906113ff9190613170565b858a60ff16600214612251565b61141533612355565b50506001546040805163058122f160e21b815290519296506001600160a01b03909116916316048bc4916004808201926020929091908290030181600087803b15801561146157600080fd5b505af1158015611475573d6000803e3d6000fd5b505050506040513d601f19601f820116820180604052508101906114999190613170565b60048054600554600f546010546040516323fce4a360e21b81526001600160a01b039690961695638ff3928c9561150495309567ffffffffffffffff600160a01b9092048216956001600160801b03821695600160801b90920490921693600093849392910161338a565b602060405180830381600087803b15801561151e57600080fd5b505af1158015611532573d6000803e3d6000fd5b505050506040513d601f19601f8201168201806040525081019061155691906132ea565b6115915760405162461bcd60e51b815260206004820152600c60248201526b14995cd95d0811985a5b195960a21b6044820152606401610725565b8560ff1660011480156115a357508234115b156115e057336108fc6115b685346133e4565b6040518115909202916000818181858888f193505050501580156115de573d6000803e3d6000fd5b505b8560ff1660021480156115f257508134115b1561162f57336108fc61160584346133e4565b6040518115909202916000818181858888f1935050505015801561162d573d6000803e3d6000fd5b505b50600e805460ff1916905591989097509095509350505050565b6000546001600160a01b031633146116735760405162461bcd60e51b8152600401610725906132c4565b600254604051631f46d76760e21b8152600481018390526001600160a01b0390911690637d1b5d9c9060240161115d565b60068054610ad1906131ed565b336000908152600a60205260408120548211156117055760405162461bcd60e51b81526020600482015260126024820152710848298829c868abe9c9ea8be8a9c9eaa8e960731b6044820152606401610725565b336000908152600a602052604090205461171f9083612031565b336000908152600a6020526040808220929092556001600160a01b0385168152205461174b9083612080565b6001600160a01b0384166000818152600a60205260409081902092909255905133906000805160206134ca8339815191529061178a9086815260200190565b60405180910390a350600192915050565b428410156117e25760405162461bcd60e51b81526020600482015260146024820152731113d113d7d1159357d3140e881156141254915160621b6044820152606401610725565b600c546001600160a01b0388166000908152600d6020526040812080549192917f6e71edae12b1b97f4d1f60370fef10105fa2faae0126114a169c64845d6126c9918b918b918b9190876118358361336f565b909155506040805160208101969096526001600160a01b0394851690860152929091166060840152608083015260a082015260c0810187905260e001604051602081830303815290604052805190602001206040516020016118ae92919061190160f01b81526002810192909252602282015260420190565b60408051601f198184030181528282528051602091820120600080855291840180845281905260ff88169284019290925260608301869052608083018590529092509060019060a0016020604051602081039080840390855afa158015611919573d6000803e3d6000fd5b5050604051601f1901519150506001600160a01b0381161580159061194f5750886001600160a01b0316816001600160a01b0316145b61199b5760405162461bcd60e51b815260206004820152601e60248201527f444f444f5f44564d5f4c503a20494e56414c49445f5349474e415455524500006044820152606401610725565b6119a6898989611fd0565b505050505050505050565b600e546000908190819060ff16156119f75760405162461bcd60e51b815260206004820152600960248201526814915153951490539560ba1b6044820152606401610725565b600e805460ff191660011790558342811015611a4e5760405162461bcd60e51b81526020600482015260166024820152751113d113d58c941c9bde1e4c0c8e881156141254915160521b6044820152606401610725565b611a5a89338a8a61269d565b6001546040805163058122f160e21b815290519396509194506001600160a01b0316916316048bc4916004808201926020929091908290030181600087803b158015611aa557600080fd5b505af1158015611ab9573d6000803e3d6000fd5b505050506040513d601f19601f82011682018060405250810190611add9190613170565b60048054600554600f546010546040516323fce4a360e21b81526001600160a01b039690961695638ff3928c95611b4795309567ffffffffffffffff600160a01b9092048216956001600160801b03821695600160801b909204909216938d938d9392910161338a565b602060405180830381600087803b158015611b6157600080fd5b505af1158015611b75573d6000803e3d6000fd5b505050506040513d601f19601f82011682018060405250810190611b9991906132ea565b611bd45760405162461bcd60e51b815260206004820152600c60248201526b14995cd95d0811985a5b195960a21b6044820152606401610725565b611c6b33600160009054906101000a90046001600160a01b03166001600160a01b0316634a248d2a6040518163ffffffff1660e01b815260040160206040518083038186803b158015611c2657600080fd5b505afa158015611c3a573d6000803e3d6000fd5b505050506040513d601f19601f82011682018060405250810190611c5e9190613170565b858960ff16600314612867565b611d0233600160009054906101000a90046001600160a01b03166001600160a01b031663d4b970466040518163ffffffff1660e01b815260040160206040518083038186803b158015611cbd57600080fd5b505afa158015611cd1573d6000803e3d6000fd5b505050506040513d601f19601f82011682018060405250810190611cf59190613170565b848960ff16600414612867565b50600e805460ff191690559697909695509350505050565b6001600160a01b038116611d7a5760405162461bcd60e51b815260206004820152602160248201527f43616e206e6f74207365742061646d696e20746f207a65726f206164647265736044820152607360f81b6064820152608401610725565b600080546001600160a01b0319166001600160a01b0383169081178255604051909133917f101b8081ff3b56bbf45deb824d86a3b0fd38b7e3dd42421105cf8abe9106db0b9190a350565b600160009054906101000a90046001600160a01b03166001600160a01b031663ab44a7a36040518163ffffffff1660e01b8152600401602060405180830381600087803b158015611e1557600080fd5b505af1158015611e29573d6000803e3d6000fd5b505050506040513d601f19601f82011682018060405250810190611e4d91906133fb565b6004805467ffffffffffffffff92909216600160a01b0267ffffffffffffffff60a01b199092169190911781556001546040805163ec2fd46d60e01b815290516001600160a01b039092169263ec2fd46d9282820192602092908290030181600087803b158015611ebd57600080fd5b505af1158015611ed1573d6000803e3d6000fd5b505050506040513d601f19601f82011682018060405250810190611ef591906133fb565b600560106101000a81548167ffffffffffffffff021916908367ffffffffffffffff160217905550600160009054906101000a90046001600160a01b03166001600160a01b031663f811d6926040518163ffffffff1660e01b8152600401602060405180830381600087803b158015611f6d57600080fd5b505af1158015611f81573d6000803e3d6000fd5b505050506040513d601f19601f82011682018060405250810190611fa59190613425565b600580546fffffffffffffffffffffffffffffffff19166001600160801b0392909216919091179055565b6001600160a01b038381166000818152600b602090815260408083209487168084529482529182902085905590518481527f8c5be1e5ebec7d5bd14f71427d1e84f3dd0314c0f7b2291e5b200ac8c7c3b925910160405180910390a3505050565b60008282111561206f5760405162461bcd60e51b815260206004820152600960248201526829aaa12fa2a92927a960b91b6044820152606401610725565b61207982846133e4565b9392505050565b60008061208d8385613322565b9050838110156120795760405162461bcd60e51b815260206004820152600960248201526820a2222fa2a92927a960b91b6044820152606401610725565b600080600080600160009054906101000a90046001600160a01b03166001600160a01b03166336223ce96040518163ffffffff1660e01b8152600401604080518083038186803b15801561211e57600080fd5b505afa158015612132573d6000803e3d6000fd5b505050506040513d601f19601f82011682018060405250810190612156919061344e565b91509150806000148015612168575081155b156121ce576000546001600160a01b031633146121c75760405162461bcd60e51b815260206004820152601960248201527f4d75737420696e697469616c697a65642062792061646d696e000000000000006044820152606401610725565b8593508492505b801580156121dc5750600082115b156121e957859350600092505b6000811180156121f95750600082115b1561224857600061220a8784612923565b905060006122188784612923565b90508082116122355787955061222e838361293b565b9450612245565b869450612242848261293b565b95505b50505b50509250929050565b801561233a578115612335578134101561229f5760405162461bcd60e51b815260206004820152600f60248201526e4554485f56414c55455f57524f4e4760881b6044820152606401610725565b600e60019054906101000a90046001600160a01b03166001600160a01b031663d0e30db0836040518263ffffffff1660e01b81526004016000604051808303818588803b1580156122ef57600080fd5b505af1158015612303573d6000803e3d6000fd5b505050506001600160a01b0385163014905061233557600e546123359061010090046001600160a01b0316858461295a565b61118b565b811561118b5761118b6001600160a01b0384168686856129c2565b6003546001546040516370a0823160e01b81526001600160a01b03918216600482015260009283928392839291909116906370a082319060240160206040518083038186803b1580156123a757600080fd5b505afa1580156123bb573d6000803e3d6000fd5b505050506040513d601f19601f820116820180604052508101906123df9190613472565b600480546001546040516370a0823160e01b81526001600160a01b039182169381019390935292935060009216906370a082319060240160206040518083038186803b15801561242e57600080fd5b505afa158015612442573d6000803e3d6000fd5b505050506040513d601f19601f820116820180604052508101906124669190613472565b600154604080516336223ce960e01b8152815193945060009384936001600160a01b0316926336223ce99260048082019391829003018186803b1580156124ac57600080fd5b505afa1580156124c0573d6000803e3d6000fd5b505050506040513d601f19601f820116820180604052508101906124e4919061344e565b90925090506124f38483612031565b95506124ff8382612031565b9450600086116125415760405162461bcd60e51b815260206004820152600d60248201526c1393d7d09054d157d253941555609a1b6044820152606401610725565b6009546125a2576103e884101561259a5760405162461bcd60e51b815260206004820152601c60248201527f494e53554646494349454e545f4c49515549444954595f4d494e4544000000006044820152606401610725565b839650612631565b6000821180156125b0575080155b156125db576125d4826125ce600954896129fa90919063ffffffff16565b90612a5b565b9650612631565b6000821180156125eb5750600081115b156126315760006125fc8784612923565b9050600061260a8784612923565b9050600082821061261b578261261d565b815b905061262b6009548261293b565b99505050505b61263b8888612aa7565b6001600160a01b0388166000818152600a60209081526040918290205482519384529083018a905282820152517f1c172440bdebb59cd92a7f08f4227903a3305ab6f880cb25f93eddb66843a1029181900360600190a1505050509193909250565b6001600160a01b0383166000908152600a602052604081205481908611156126f85760405162461bcd60e51b815260206004820152600e60248201526d08898a0be9c9ea8be8a9c9eaa8e960931b6044820152606401610725565b600154604080516336223ce960e01b8152815160009384936001600160a01b03909116926336223ce99260048083019392829003018186803b15801561273d57600080fd5b505afa158015612751573d6000803e3d6000fd5b505050506040513d601f19601f82011682018060405250810190612775919061344e565b600954919350915061278b816125ce858c6129fa565b945061279b816125ce848c6129fa565b93508685101580156127ad5750858410155b6127ef5760405162461bcd60e51b81526020600482015260136024820152720ae92a89088a482aebe9c9ea8be8a9c9eaa8e9606b1b6044820152606401610725565b6127f9888a612ba5565b6001600160a01b0388166000818152600a6020908152604091829020548251848152918201939093528082018c90526060810192909252517f55caccde83781f39bfc1296eff45655b6496729443a7d48958b18b3b685600a59181900360800190a150505094509492505050565b801561291257811561290d57600e54604051632e1a7d4d60e01b8152600481018490526101009091046001600160a01b031690632e1a7d4d90602401600060405180830381600087803b1580156128bd57600080fd5b505af11580156128d1573d6000803e3d6000fd5b50506040516001600160a01b038716925084156108fc02915084906000818181858888f1935050505015801561290b573d6000803e3d6000fd5b505b611025565b81156110255761102583858461295a565b6000612079826125ce85670de0b6b3a76400006129fa565b6000670de0b6b3a764000061295084846129fa565b612079919061348b565b6040516001600160a01b0383166024820152604481018290526129bd90849063a9059cbb60e01b906064015b60408051601f198184030181529190526020810180516001600160e01b03166001600160e01b031990931692909217909152612c5b565b505050565b6040516001600160a01b03808516602483015283166044820152606481018290526110259085906323b872dd60e01b90608401612986565b600082612a0957506000610b63565b6000612a158385613350565b905082612a22858361348b565b146120795760405162461bcd60e51b815260206004820152600960248201526826aaa62fa2a92927a960b91b6044820152606401610725565b6000808211612a9d5760405162461bcd60e51b815260206004820152600e60248201526d2224ab24a224a723afa2a92927a960911b6044820152606401610725565b612079828461348b565b6103e88111612ae75760405162461bcd60e51b815260206004820152600c60248201526b1352539517d253959053125160a21b6044820152606401610725565b6001600160a01b0382166000908152600a6020526040902054612b0a9082612080565b6001600160a01b0383166000908152600a6020526040902055600954612b309082612080565b6009556040518181526001600160a01b038316907f0f6798a560793a54c3bcfe86a93cde1e73087d944c0ea20544137d41213968859060200160405180910390a26040518181526001600160a01b038316906000906000805160206134ca833981519152906020015b60405180910390a35050565b6001600160a01b0382166000908152600a6020526040902054612bc89082612031565b6001600160a01b0383166000908152600a6020526040902055600954612bee9082612031565b6009556040518181526001600160a01b038316907fcc16f5dbb4873280815c1ee09dbd06736cffcc184412cf7a71a0fdb75d397ca59060200160405180910390a26040518181526000906001600160a01b038416906000805160206134ca83398151915290602001612b99565b600080836001600160a01b031683604051612c7691906134ad565b6000604051808303816000865af19150503d8060008114612cb3576040519150601f19603f3d011682016040523d82523d6000602084013e612cb8565b606091505b509150915081612d0a5760405162461bcd60e51b815260206004820181905260248201527f5361666545524332303a206c6f772d6c6576656c2063616c6c206661696c65646044820152606401610725565b8051156110255780806020019051810190612d2591906132ea565b6110255760405162461bcd60e51b815260206004820152602a60248201527f5361666545524332303a204552433230206f7065726174696f6e20646964206e6044820152691bdd081cdd58d8d9595960b21b6064820152608401610725565b828054612d90906131ed565b90600052602060002090601f016020900481019282612db25760008555612df8565b82601f10612dcb57805160ff1916838001178555612df8565b82800160010185558215612df8579182015b82811115612df8578251825591602001919060010190612ddd565b50612e04929150612e08565b5090565b5b80821115612e045760008155600101612e09565b6001600160a01b03811681146111c557600080fd5b60008060008060808587031215612e4857600080fd5b8435612e5381612e1d565b93506020850135612e6381612e1d565b92506040850135612e7381612e1d565b91506060850135612e8381612e1d565b939692955090935050565b60005b83811015612ea9578181015183820152602001612e91565b838111156110255750506000910152565b6020815260008251806020840152612ed9816040850160208701612e8e565b601f01601f19169190910160400192915050565b60008060408385031215612f0057600080fd5b8235612f0b81612e1d565b946020939093013593505050565b60008060408385031215612f2c57600080fd5b50508035926020909101359150565b600080600060608486031215612f5057600080fd5b505081359360208301359350604090920135919050565b600060208284031215612f7957600080fd5b813561207981612e1d565b600080600060608486031215612f9957600080fd5b8335612fa481612e1d565b92506020840135612fb481612e1d565b929592945050506040919091013590565b600080600080600060a08688031215612fdd57600080fd5b505083359560208501359550604085013594606081013594506080013592509050565b60ff811681146111c557600080fd5b60008060008060008060c0878903121561302857600080fd5b86359550602087013594506040870135935060608701359250608087013561304f81613000565b8092505060a087013590509295509295509295565b60006020828403121561307657600080fd5b5035919050565b600080600080600080600060e0888a03121561309857600080fd5b87356130a381612e1d565b965060208801356130b381612e1d565b9550604088013594506060880135935060808801356130d181613000565b9699959850939692959460a0840135945060c09093013592915050565b6000806040838503121561310157600080fd5b823561310c81612e1d565b9150602083013561311c81612e1d565b809150509250929050565b600080600080600060a0868803121561313f57600080fd5b853594506020860135935060408601359250606086013561315f81613000565b949793965091946080013592915050565b60006020828403121561318257600080fd5b815161207981612e1d565b6000845161319f818460208901612e8e565b8451908301906131b3818360208901612e8e565b84519101906131c6818360208801612e8e565b0195945050505050565b6000602082840312156131e257600080fd5b815161207981613000565b600181811c9082168061320157607f821691505b6020821081141561322257634e487b7160e01b600052602260045260246000fd5b50919050565b600080835481600182811c91508083168061324457607f831692505b602080841082141561326457634e487b7160e01b86526022600452602486fd5b8180156132785760018114613289576132b6565b60ff198616895284890196506132b6565b60008a81526020902060005b868110156132ae5781548b820152908501908301613295565b505084890196505b509498975050505050505050565b6020808252600c908201526b15539055551213d49256915160a21b604082015260600190565b6000602082840312156132fc57600080fd5b8151801515811461207957600080fd5b634e487b7160e01b600052601160045260246000fd5b600082198211156133355761333561330c565b500190565b634e487b7160e01b600052603260045260246000fd5b600081600019048311821515161561336a5761336a61330c565b500290565b60006000198214156133835761338361330c565b5060010190565b6001600160a01b0398909816885267ffffffffffffffff96871660208901526001600160801b03959095166040880152929094166060860152608085015260a084019290925260c083019190915260e08201526101000190565b6000828210156133f6576133f661330c565b500390565b60006020828403121561340d57600080fd5b815167ffffffffffffffff8116811461207957600080fd5b60006020828403121561343757600080fd5b81516001600160801b038116811461207957600080fd5b6000806040838503121561346157600080fd5b505080516020909101519092909150565b60006020828403121561348457600080fd5b5051919050565b6000826134a857634e487b7160e01b600052601260045260246000fd5b500490565b600082516134bf818460208701612e8e565b919091019291505056feddf252ad1be2c89b69c2b068fc378daa952ba7f163c4a11628f55a4df523b3efa2646970667358221220c7570850e46abdf5b470ca874ce69edc842f632f2e41ae58c9370bd013ff265e64736f6c63430008090033",
  "devdoc": {
    "kind": "dev",
    "methods": {
      "allowance(address,address)": {
        "details": "Function to check the amount of tokens that an owner _ALLOWED_ to a spender.",
        "params": {
          "owner": "address The address which owns the funds.",
          "spender": "address The address which will spend the funds."
        },
        "returns": {
          "_0": "A uint256 specifying the amount of tokens still available for the spender."
        }
      },
      "approve(address,uint256)": {
        "details": "Approve the passed address to spend the specified amount of tokens on behalf of msg.sender.",
        "params": {
          "amount": "The amount of tokens to be spent.",
          "spender": "The address which will spend the funds."
        }
      },
      "balanceOf(address)": {
        "details": "Gets the balance of the specified address.",
        "params": {
          "owner": "The address to query the the balance of."
        },
        "returns": {
          "balance": "An uint256 representing the amount owned by the passed address."
        }
      },
      "transfer(address,uint256)": {
        "details": "transfer token for a specified address",
        "params": {
          "amount": "The amount to be transferred.",
          "to": "The address to transfer to."
        }
      },
      "transferFrom(address,address,uint256)": {
        "details": "Transfer tokens from one address to another",
        "params": {
          "amount": "uint256 the amount of tokens to be transferred",
          "from": "address The address which you want to send tokens from",
          "to": "address The address which you want to transfer to"
        }
      }
    },
    "version": 1
  },
  "userdoc": {
    "kind": "user",
    "methods": {},
    "version": 1
  },
  "storageLayout": {
    "storage": [
      {
        "astId": 6812,
        "contract": "contracts/DuetDPPController.sol:DuetDppController",
        "label": "admin",
        "offset": 0,
        "slot": "0",
        "type": "t_address"
      },
      {
        "astId": 2024,
        "contract": "contracts/DuetDPPController.sol:DuetDppController",
        "label": "_DPP_ADDRESS_",
        "offset": 0,
        "slot": "1",
        "type": "t_address"
      },
      {
        "astId": 2026,
        "contract": "contracts/DuetDPPController.sol:DuetDppController",
        "label": "_DPP_ADMIN_ADDRESS_",
        "offset": 0,
        "slot": "2",
        "type": "t_address"
      },
      {
        "astId": 2029,
        "contract": "contracts/DuetDPPController.sol:DuetDppController",
        "label": "_BASE_TOKEN_",
        "offset": 0,
        "slot": "3",
        "type": "t_contract(IERC20)6740"
      },
      {
        "astId": 2032,
        "contract": "contracts/DuetDPPController.sol:DuetDppController",
        "label": "_QUOTE_TOKEN_",
        "offset": 0,
        "slot": "4",
        "type": "t_contract(IERC20)6740"
      },
      {
        "astId": 2034,
        "contract": "contracts/DuetDPPController.sol:DuetDppController",
        "label": "_LP_FEE_RATE_",
        "offset": 20,
        "slot": "4",
        "type": "t_uint64"
      },
      {
        "astId": 2036,
        "contract": "contracts/DuetDPPController.sol:DuetDppController",
        "label": "_I_",
        "offset": 0,
        "slot": "5",
        "type": "t_uint128"
      },
      {
        "astId": 2038,
        "contract": "contracts/DuetDPPController.sol:DuetDppController",
        "label": "_K_",
        "offset": 16,
        "slot": "5",
        "type": "t_uint64"
      },
      {
        "astId": 2040,
        "contract": "contracts/DuetDPPController.sol:DuetDppController",
        "label": "symbol",
        "offset": 0,
        "slot": "6",
        "type": "t_string_storage"
      },
      {
        "astId": 2042,
        "contract": "contracts/DuetDPPController.sol:DuetDppController",
        "label": "decimals",
        "offset": 0,
        "slot": "7",
        "type": "t_uint8"
      },
      {
        "astId": 2044,
        "contract": "contracts/DuetDPPController.sol:DuetDppController",
        "label": "name",
        "offset": 0,
        "slot": "8",
        "type": "t_string_storage"
      },
      {
        "astId": 2046,
        "contract": "contracts/DuetDPPController.sol:DuetDppController",
        "label": "totalSupply",
        "offset": 0,
        "slot": "9",
        "type": "t_uint256"
      },
      {
        "astId": 2050,
        "contract": "contracts/DuetDPPController.sol:DuetDppController",
        "label": "_SHARES_",
        "offset": 0,
        "slot": "10",
        "type": "t_mapping(t_address,t_uint256)"
      },
      {
        "astId": 2056,
        "contract": "contracts/DuetDPPController.sol:DuetDppController",
        "label": "_ALLOWED_",
        "offset": 0,
        "slot": "11",
        "type": "t_mapping(t_address,t_mapping(t_address,t_uint256))"
      },
      {
        "astId": 2058,
        "contract": "contracts/DuetDPPController.sol:DuetDppController",
        "label": "DOMAIN_SEPARATOR",
        "offset": 0,
        "slot": "12",
        "type": "t_bytes32"
      },
      {
        "astId": 2065,
        "contract": "contracts/DuetDPPController.sol:DuetDppController",
        "label": "nonces",
        "offset": 0,
        "slot": "13",
        "type": "t_mapping(t_address,t_uint256)"
      },
      {
        "astId": 7214,
        "contract": "contracts/DuetDPPController.sol:DuetDppController",
        "label": "_ENTERED_",
        "offset": 0,
        "slot": "14",
        "type": "t_bool"
      },
      {
        "astId": 425,
        "contract": "contracts/DuetDPPController.sol:DuetDppController",
        "label": "_WETH_",
        "offset": 1,
        "slot": "14",
        "type": "t_address"
      },
      {
        "astId": 428,
        "contract": "contracts/DuetDPPController.sol:DuetDppController",
        "label": "flagInit",
        "offset": 21,
        "slot": "14",
        "type": "t_bool"
      },
      {
        "astId": 432,
        "contract": "contracts/DuetDPPController.sol:DuetDppController",
        "label": "minBaseReserve",
        "offset": 0,
        "slot": "15",
        "type": "t_uint256"
      },
      {
        "astId": 435,
        "contract": "contracts/DuetDPPController.sol:DuetDppController",
        "label": "minQuoteReserve",
        "offset": 0,
        "slot": "16",
        "type": "t_uint256"
      }
    ],
    "types": {
      "t_address": {
        "encoding": "inplace",
        "label": "address",
        "numberOfBytes": "20"
      },
      "t_bool": {
        "encoding": "inplace",
        "label": "bool",
        "numberOfBytes": "1"
      },
      "t_bytes32": {
        "encoding": "inplace",
        "label": "bytes32",
        "numberOfBytes": "32"
      },
      "t_contract(IERC20)6740": {
        "encoding": "inplace",
        "label": "contract IERC20",
        "numberOfBytes": "20"
      },
      "t_mapping(t_address,t_mapping(t_address,t_uint256))": {
        "encoding": "mapping",
        "key": "t_address",
        "label": "mapping(address => mapping(address => uint256))",
        "numberOfBytes": "32",
        "value": "t_mapping(t_address,t_uint256)"
      },
      "t_mapping(t_address,t_uint256)": {
        "encoding": "mapping",
        "key": "t_address",
        "label": "mapping(address => uint256)",
        "numberOfBytes": "32",
        "value": "t_uint256"
      },
      "t_string_storage": {
        "encoding": "bytes",
        "label": "string",
        "numberOfBytes": "32"
      },
      "t_uint128": {
        "encoding": "inplace",
        "label": "uint128",
        "numberOfBytes": "16"
      },
      "t_uint256": {
        "encoding": "inplace",
        "label": "uint256",
        "numberOfBytes": "32"
      },
      "t_uint64": {
        "encoding": "inplace",
        "label": "uint64",
        "numberOfBytes": "8"
      },
      "t_uint8": {
        "encoding": "inplace",
        "label": "uint8",
        "numberOfBytes": "1"
      }
    }
  }
}