{
  "address": "0xcE33EbD63F27bC7Cbf2461A723569e8ADEB3f6A7",
  "abi": [
    {
      "anonymous": false,
      "inputs": [
        {
          "indexed": true,
          "internalType": "address",
          "name": "user",
          "type": "address"
        },
        {
          "indexed": true,
          "internalType": "address",
          "name": "newAdmin",
          "type": "address"
        }
      ],
      "name": "AdminUpdated",
      "type": "event"
    },
    {
      "anonymous": false,
      "inputs": [
        {
          "indexed": false,
          "internalType": "uint8",
          "name": "version",
          "type": "uint8"
        }
      ],
      "name": "Initialized",
      "type": "event"
    },
    {
      "inputs": [],
      "name": "admin",
      "outputs": [
        {
          "internalType": "address",
          "name": "",
          "type": "address"
        }
      ],
      "stateMutability": "view",
      "type": "function"
    },
    {
      "inputs": [
        {
          "internalType": "address",
          "name": "admin_",
          "type": "address"
        }
      ],
      "name": "initialize",
      "outputs": [],
      "stateMutability": "nonpayable",
      "type": "function"
    },
    {
      "inputs": [
        {
          "internalType": "address",
          "name": "",
          "type": "address"
        }
      ],
      "name": "priceMapping",
      "outputs": [
        {
          "internalType": "uint256",
          "name": "",
          "type": "uint256"
        }
      ],
      "stateMutability": "view",
      "type": "function"
    },
    {
      "inputs": [
        {
          "internalType": "address",
          "name": "base",
          "type": "address"
        }
      ],
      "name": "prices",
      "outputs": [
        {
          "internalType": "uint256",
          "name": "",
          "type": "uint256"
        }
      ],
      "stateMutability": "view",
      "type": "function"
    },
    {
      "inputs": [
        {
          "internalType": "address",
          "name": "newAdmin",
          "type": "address"
        }
      ],
      "name": "setAdmin",
      "outputs": [],
      "stateMutability": "nonpayable",
      "type": "function"
    },
    {
      "inputs": [
        {
          "internalType": "address",
          "name": "base_",
          "type": "address"
        },
        {
          "internalType": "uint256",
          "name": "newPrice_",
          "type": "uint256"
        }
      ],
      "name": "setPrice",
      "outputs": [],
      "stateMutability": "nonpayable",
      "type": "function"
    }
  ],
  "transactionHash": "0x8820b4a9a1f82da7779562d029617b57c4f02a6d42e26489037fa2f66aa806d2",
  "args": [],
  "numDeployments": 1,
  "solcInputHash": "dc7ed6c901eeedb6e981c38ef38991c9",
  "bytecode": "0x608060405234801561001057600080fd5b50610496806100206000396000f3fe608060405234801561001057600080fd5b50600436106100615760003560e01c8062e4768b146100665780635059f0fc1461007b578063704b6c02146100ae578063c4d66de8146100c1578063cfed246b146100d4578063f851a440146100fd575b600080fd5b6100796100743660046103c6565b610128565b005b61009b6100893660046103f0565b60016020526000908152604090205481565b6040519081526020015b60405180910390f35b6100796100bc3660046103f0565b610192565b6100796100cf3660046103f0565b6101e7565b61009b6100e23660046103f0565b6001600160a01b031660009081526001602052604090205490565b600054610110906001600160a01b031681565b6040516001600160a01b0390911681526020016100a5565b6000546001600160a01b031633146101765760405162461bcd60e51b815260206004820152600c60248201526b15539055551213d49256915160a21b60448201526064015b60405180910390fd5b6001600160a01b03909116600090815260016020526040902055565b6000546001600160a01b031633146101db5760405162461bcd60e51b815260206004820152600c60248201526b15539055551213d49256915160a21b604482015260640161016d565b6101e481610264565b50565b60006101f3600161030f565b9050801561020f576000805460ff60a81b1916600160a81b1790555b61021882610264565b8015610260576000805460ff60a81b19169055604051600181527f7f26b83ff96e1f2b6a682f133852f6798a09c465da95921460cefb38474024989060200160405180910390a15b5050565b6001600160a01b0381166102c45760405162461bcd60e51b815260206004820152602160248201527f43616e206e6f74207365742061646d696e20746f207a65726f206164647265736044820152607360f81b606482015260840161016d565b600080546001600160a01b0319166001600160a01b0383169081178255604051909133917f101b8081ff3b56bbf45deb824d86a3b0fd38b7e3dd42421105cf8abe9106db0b9190a350565b60008054600160a81b900460ff1615610358578160ff1660011480156103345750303b155b6103505760405162461bcd60e51b815260040161016d90610412565b506000919050565b60005460ff808416600160a01b90920416106103865760405162461bcd60e51b815260040161016d90610412565b506000805460ff909216600160a01b0260ff60a01b19909216919091179055600190565b919050565b80356001600160a01b03811681146103aa57600080fd5b600080604083850312156103d957600080fd5b6103e2836103af565b946020939093013593505050565b60006020828403121561040257600080fd5b61040b826103af565b9392505050565b6020808252602e908201527f496e697469616c697a61626c653a20636f6e747261637420697320616c72656160408201526d191e481a5b9a5d1a585b1a5e995960921b60608201526080019056fea264697066735822122049b201d2a0259e33c9acd273104231fbb7a068e139bc910e125f6aaf8d07eca464736f6c63430008090033",
  "devdoc": {
    "kind": "dev",
    "methods": {},
    "version": 1
  },
  "userdoc": {
    "kind": "user",
    "methods": {},
    "version": 1
  },
  "storageLayout": {
    "storage": [
      {
        "astId": 6759,
        "contract": "contracts/mocks/MockOracle.sol:MockOracle",
        "label": "admin",
        "offset": 0,
        "slot": "0",
        "type": "t_address"
      },
      {
        "astId": 6,
        "contract": "contracts/mocks/MockOracle.sol:MockOracle",
        "label": "_initialized",
        "offset": 20,
        "slot": "0",
        "type": "t_uint8"
      },
      {
        "astId": 9,
        "contract": "contracts/mocks/MockOracle.sol:MockOracle",
        "label": "_initializing",
        "offset": 21,
        "slot": "0",
        "type": "t_bool"
      },
      {
        "astId": 7697,
        "contract": "contracts/mocks/MockOracle.sol:MockOracle",
        "label": "priceMapping",
        "offset": 0,
        "slot": "1",
        "type": "t_mapping(t_address,t_uint256)"
      }
    ],
    "types": {
      "t_address": {
        "encoding": "inplace",
        "label": "address",
        "numberOfBytes": "20"
      },
      "t_bool": {
        "encoding": "inplace",
        "label": "bool",
        "numberOfBytes": "1"
      },
      "t_mapping(t_address,t_uint256)": {
        "encoding": "mapping",
        "key": "t_address",
        "label": "mapping(address => uint256)",
        "numberOfBytes": "32",
        "value": "t_uint256"
      },
      "t_uint256": {
        "encoding": "inplace",
        "label": "uint256",
        "numberOfBytes": "32"
      },
      "t_uint8": {
        "encoding": "inplace",
        "label": "uint8",
        "numberOfBytes": "1"
      }
    }
  }
}