{
  "address": "0xb04fFaF0fcd569CB896528eA69B5db371e6357e6",
  "abi": [
    {
      "inputs": [],
      "stateMutability": "nonpayable",
      "type": "constructor"
    },
    {
      "anonymous": false,
      "inputs": [
        {
          "indexed": false,
          "internalType": "address",
          "name": "liquidator",
          "type": "address"
        },
        {
          "indexed": false,
          "internalType": "bool",
          "name": "allowed",
          "type": "bool"
        }
      ],
      "name": "AllowedLiquidatorChanged",
      "type": "event"
    },
    {
      "anonymous": false,
      "inputs": [
        {
          "indexed": false,
          "internalType": "uint256",
          "name": "collateralRate",
          "type": "uint256"
        }
      ],
      "name": "CollateralRateChanged",
      "type": "event"
    },
    {
      "anonymous": false,
      "inputs": [
        {
          "indexed": true,
          "internalType": "address",
          "name": "dToken",
          "type": "address"
        },
        {
          "indexed": false,
          "internalType": "address",
          "name": "oldVault",
          "type": "address"
        },
        {
          "indexed": false,
          "internalType": "address",
          "name": "newVault",
          "type": "address"
        },
        {
          "indexed": false,
          "internalType": "uint256",
          "name": "vtype",
          "type": "uint256"
        }
      ],
      "name": "DTokenVaultChanged",
      "type": "event"
    },
    {
      "anonymous": false,
      "inputs": [
        {
          "indexed": false,
          "internalType": "address",
          "name": "vault",
          "type": "address"
        },
        {
          "indexed": false,
          "internalType": "enum IController.ValidVault",
          "name": "state",
          "type": "uint8"
        }
      ],
      "name": "InitValidVault",
      "type": "event"
    },
    {
      "anonymous": false,
      "inputs": [
        {
          "indexed": false,
          "internalType": "uint8",
          "name": "version",
          "type": "uint8"
        }
      ],
      "name": "Initialized",
      "type": "event"
    },
    {
      "anonymous": false,
      "inputs": [
        {
          "indexed": false,
          "internalType": "uint256",
          "name": "liquidateRate",
          "type": "uint256"
        }
      ],
      "name": "LiquidateRateChanged",
      "type": "event"
    },
    {
      "anonymous": false,
      "inputs": [
        {
          "indexed": false,
          "internalType": "bool",
          "name": "open",
          "type": "bool"
        }
      ],
      "name": "OpenLiquidateChanged",
      "type": "event"
    },
    {
      "anonymous": false,
      "inputs": [
        {
          "indexed": true,
          "internalType": "address",
          "name": "previousOwner",
          "type": "address"
        },
        {
          "indexed": true,
          "internalType": "address",
          "name": "newOwner",
          "type": "address"
        }
      ],
      "name": "OwnershipTransferred",
      "type": "event"
    },
    {
      "anonymous": false,
      "inputs": [
        {
          "indexed": false,
          "internalType": "address",
          "name": "vault",
          "type": "address"
        },
        {
          "indexed": false,
          "internalType": "address",
          "name": "user",
          "type": "address"
        },
        {
          "indexed": false,
          "internalType": "enum IController.ValidVault",
          "name": "state",
          "type": "uint8"
        }
      ],
      "name": "SetValidVault",
      "type": "event"
    },
    {
      "anonymous": false,
      "inputs": [
        {
          "indexed": false,
          "internalType": "address",
          "name": "vault",
          "type": "address"
        },
        {
          "components": [
            {
              "internalType": "bool",
              "name": "enabled",
              "type": "bool"
            },
            {
              "internalType": "bool",
              "name": "enableDeposit",
              "type": "bool"
            },
            {
              "internalType": "bool",
              "name": "enableWithdraw",
              "type": "bool"
            },
            {
              "internalType": "bool",
              "name": "enableBorrow",
              "type": "bool"
            },
            {
              "internalType": "bool",
              "name": "enableRepay",
              "type": "bool"
            },
            {
              "internalType": "bool",
              "name": "enableLiquidate",
              "type": "bool"
            }
          ],
          "indexed": false,
          "internalType": "struct AppController.VaultState",
          "name": "state",
          "type": "tuple"
        }
      ],
      "name": "SetVaultStates",
      "type": "event"
    },
    {
      "anonymous": false,
      "inputs": [
        {
          "indexed": true,
          "internalType": "address",
          "name": "underlying",
          "type": "address"
        },
        {
          "indexed": false,
          "internalType": "address",
          "name": "oldDToken",
          "type": "address"
        },
        {
          "indexed": false,
          "internalType": "address",
          "name": "newDToken",
          "type": "address"
        }
      ],
      "name": "UnderlyingDTokenChanged",
      "type": "event"
    },
    {
      "anonymous": false,
      "inputs": [
        {
          "indexed": true,
          "internalType": "address",
          "name": "underlying",
          "type": "address"
        },
        {
          "indexed": false,
          "internalType": "address",
          "name": "oldStrage",
          "type": "address"
        },
        {
          "indexed": false,
          "internalType": "address",
          "name": "newDToken",
          "type": "address"
        },
        {
          "indexed": false,
          "internalType": "uint256",
          "name": "stype",
          "type": "uint256"
        }
      ],
      "name": "UnderlyingStrategyChanged",
      "type": "event"
    },
    {
      "anonymous": false,
      "inputs": [
        {
          "indexed": true,
          "internalType": "address",
          "name": "underlying",
          "type": "address"
        },
        {
          "indexed": false,
          "internalType": "address",
          "name": "oracle",
          "type": "address"
        },
        {
          "indexed": false,
          "internalType": "uint256",
          "name": "discount",
          "type": "uint256"
        },
        {
          "indexed": false,
          "internalType": "uint256",
          "name": "premium",
          "type": "uint256"
        }
      ],
      "name": "ValueConfChanged",
      "type": "event"
    },
    {
      "anonymous": false,
      "inputs": [
        {
          "indexed": true,
          "internalType": "address",
          "name": "borrower",
          "type": "address"
        },
        {
          "indexed": false,
          "internalType": "uint256",
          "name": "amount",
          "type": "uint256"
        },
        {
          "indexed": false,
          "internalType": "uint256",
          "name": "usdValue",
          "type": "uint256"
        },
        {
          "indexed": false,
          "internalType": "uint256",
          "name": "blockNumber",
          "type": "uint256"
        }
      ],
      "name": "VaultReleased",
      "type": "event"
    },
    {
      "anonymous": false,
      "inputs": [
        {
          "indexed": true,
          "internalType": "address",
          "name": "borrower",
          "type": "address"
        },
        {
          "indexed": false,
          "internalType": "uint256",
          "name": "expectedUsdValue",
          "type": "uint256"
        },
        {
          "indexed": false,
          "internalType": "uint256",
          "name": "releasedUsdValue",
          "type": "uint256"
        },
        {
          "indexed": false,
          "internalType": "uint256",
          "name": "blockNumber",
          "type": "uint256"
        }
      ],
      "name": "VaultsReleased",
      "type": "event"
    },
    {
      "inputs": [
        {
          "internalType": "address",
          "name": "",
          "type": "address"
        }
      ],
      "name": "allowedLiquidator",
      "outputs": [
        {
          "internalType": "bool",
          "name": "",
          "type": "bool"
        }
      ],
      "stateMutability": "view",
      "type": "function"
    },
    {
      "inputs": [
        {
          "internalType": "address",
          "name": "_user",
          "type": "address"
        },
        {
          "internalType": "address",
          "name": "_vault",
          "type": "address"
        },
        {
          "internalType": "uint256",
          "name": "_amount",
          "type": "uint256"
        }
      ],
      "name": "beforeBorrow",
      "outputs": [],
      "stateMutability": "view",
      "type": "function"
    },
    {
      "inputs": [
        {
          "internalType": "address",
          "name": "",
          "type": "address"
        },
        {
          "internalType": "address",
          "name": "_vault",
          "type": "address"
        },
        {
          "internalType": "uint256",
          "name": "",
          "type": "uint256"
        }
      ],
      "name": "beforeDeposit",
      "outputs": [],
      "stateMutability": "view",
      "type": "function"
    },
    {
      "inputs": [
        {
          "internalType": "address",
          "name": "_repayer",
          "type": "address"
        },
        {
          "internalType": "address",
          "name": "_vault",
          "type": "address"
        },
        {
          "internalType": "uint256",
          "name": "_amount",
          "type": "uint256"
        }
      ],
      "name": "beforeRepay",
      "outputs": [],
      "stateMutability": "view",
      "type": "function"
    },
    {
      "inputs": [
        {
          "internalType": "address",
          "name": "_user",
          "type": "address"
        },
        {
          "internalType": "address",
          "name": "_vault",
          "type": "address"
        },
        {
          "internalType": "uint256",
          "name": "_amount",
          "type": "uint256"
        }
      ],
      "name": "beforeWithdraw",
      "outputs": [],
      "stateMutability": "view",
      "type": "function"
    },
    {
      "inputs": [],
      "name": "collateralRate",
      "outputs": [
        {
          "internalType": "uint256",
          "name": "",
          "type": "uint256"
        }
      ],
      "stateMutability": "view",
      "type": "function"
    },
    {
      "inputs": [
        {
          "internalType": "address",
          "name": "",
          "type": "address"
        }
      ],
      "name": "dyTokenVaults",
      "outputs": [
        {
          "internalType": "address",
          "name": "",
          "type": "address"
        }
      ],
      "stateMutability": "view",
      "type": "function"
    },
    {
      "inputs": [
        {
          "internalType": "address",
          "name": "",
          "type": "address"
        }
      ],
      "name": "dyTokens",
      "outputs": [
        {
          "internalType": "address",
          "name": "",
          "type": "address"
        }
      ],
      "stateMutability": "view",
      "type": "function"
    },
    {
      "inputs": [
        {
          "internalType": "address",
          "name": "_underlying",
          "type": "address"
        }
      ],
      "name": "emergencyWithdrawAll",
      "outputs": [],
      "stateMutability": "nonpayable",
      "type": "function"
    },
    {
      "inputs": [
        {
          "internalType": "address",
          "name": "_user",
          "type": "address"
        },
        {
          "internalType": "bool",
          "name": "isDepositVault",
          "type": "bool"
        }
      ],
      "name": "exitVault",
      "outputs": [],
      "stateMutability": "nonpayable",
      "type": "function"
    },
    {
      "inputs": [
        {
          "internalType": "address",
          "name": "_underlying",
          "type": "address"
        }
      ],
      "name": "getValueConf",
      "outputs": [
        {
          "internalType": "address",
          "name": "oracle",
          "type": "address"
        },
        {
          "internalType": "uint16",
          "name": "dr",
          "type": "uint16"
        },
        {
          "internalType": "uint16",
          "name": "pr",
          "type": "uint16"
        }
      ],
      "stateMutability": "view",
      "type": "function"
    },
    {
      "inputs": [
        {
          "internalType": "address",
          "name": "token0",
          "type": "address"
        },
        {
          "internalType": "address",
          "name": "token1",
          "type": "address"
        }
      ],
      "name": "getValueConfs",
      "outputs": [
        {
          "internalType": "address",
          "name": "oracle0",
          "type": "address"
        },
        {
          "internalType": "uint16",
          "name": "dr0",
          "type": "uint16"
        },
        {
          "internalType": "uint16",
          "name": "pr0",
          "type": "uint16"
        },
        {
          "internalType": "address",
          "name": "oracle1",
          "type": "address"
        },
        {
          "internalType": "uint16",
          "name": "dr1",
          "type": "uint16"
        },
        {
          "internalType": "uint16",
          "name": "pr1",
          "type": "uint16"
        }
      ],
      "stateMutability": "view",
      "type": "function"
    },
    {
      "inputs": [
        {
          "internalType": "address[]",
          "name": "_vault",
          "type": "address[]"
        },
        {
          "internalType": "enum IController.ValidVault[]",
          "name": "_state",
          "type": "uint8[]"
        }
      ],
      "name": "initValidVault",
      "outputs": [],
      "stateMutability": "nonpayable",
      "type": "function"
    },
    {
      "inputs": [],
      "name": "initialize",
      "outputs": [],
      "stateMutability": "nonpayable",
      "type": "function"
    },
    {
      "inputs": [
        {
          "internalType": "address",
          "name": "_borrower",
          "type": "address"
        }
      ],
      "name": "isNeedLiquidate",
      "outputs": [
        {
          "internalType": "bool",
          "name": "",
          "type": "bool"
        }
      ],
      "stateMutability": "view",
      "type": "function"
    },
    {
      "inputs": [],
      "name": "isOpenLiquidate",
      "outputs": [
        {
          "internalType": "bool",
          "name": "",
          "type": "bool"
        }
      ],
      "stateMutability": "view",
      "type": "function"
    },
    {
      "inputs": [
        {
          "internalType": "address",
          "name": "_user",
          "type": "address"
        },
        {
          "internalType": "bool",
          "name": "isDepositVault",
          "type": "bool"
        }
      ],
      "name": "joinVault",
      "outputs": [],
      "stateMutability": "nonpayable",
      "type": "function"
    },
    {
      "inputs": [
        {
          "internalType": "address",
          "name": "_borrower",
          "type": "address"
        },
        {
          "internalType": "bytes",
          "name": "data",
          "type": "bytes"
        }
      ],
      "name": "liquidate",
      "outputs": [],
      "stateMutability": "nonpayable",
      "type": "function"
    },
    {
      "inputs": [],
      "name": "liquidateRate",
      "outputs": [
        {
          "internalType": "uint256",
          "name": "",
          "type": "uint256"
        }
      ],
      "stateMutability": "view",
      "type": "function"
    },
    {
      "inputs": [
        {
          "internalType": "address",
          "name": "_user",
          "type": "address"
        },
        {
          "internalType": "address",
          "name": "vault",
          "type": "address"
        }
      ],
      "name": "maxBorrow",
      "outputs": [
        {
          "internalType": "uint256",
          "name": "",
          "type": "uint256"
        }
      ],
      "stateMutability": "view",
      "type": "function"
    },
    {
      "inputs": [],
      "name": "owner",
      "outputs": [
        {
          "internalType": "address",
          "name": "",
          "type": "address"
        }
      ],
      "stateMutability": "view",
      "type": "function"
    },
    {
      "inputs": [
        {
          "internalType": "address",
          "name": "borrower_",
          "type": "address"
        },
        {
          "internalType": "address",
          "name": "liquidator_",
          "type": "address"
        },
        {
          "internalType": "contract IVault[]",
          "name": "mintVaults_",
          "type": "address[]"
        }
      ],
      "name": "releaseMintVaults",
      "outputs": [],
      "stateMutability": "nonpayable",
      "type": "function"
    },
    {
      "inputs": [],
      "name": "renounceOwnership",
      "outputs": [],
      "stateMutability": "nonpayable",
      "type": "function"
    },
    {
      "inputs": [
        {
          "internalType": "uint256",
          "name": "_collateralRate",
          "type": "uint256"
        }
      ],
      "name": "setCollateralRate",
      "outputs": [],
      "stateMutability": "nonpayable",
      "type": "function"
    },
    {
      "inputs": [
        {
          "internalType": "address",
          "name": "_underlying",
          "type": "address"
        },
        {
          "internalType": "address",
          "name": "_dToken",
          "type": "address"
        }
      ],
      "name": "setDYToken",
      "outputs": [],
      "stateMutability": "nonpayable",
      "type": "function"
    },
    {
      "inputs": [
        {
          "internalType": "uint256",
          "name": "_liquidateRate",
          "type": "uint256"
        }
      ],
      "name": "setLiquidateRate",
      "outputs": [],
      "stateMutability": "nonpayable",
      "type": "function"
    },
    {
      "inputs": [
        {
          "internalType": "bool",
          "name": "_open",
          "type": "bool"
        }
      ],
      "name": "setOpenLiquidate",
      "outputs": [],
      "stateMutability": "nonpayable",
      "type": "function"
    },
    {
      "inputs": [
        {
          "internalType": "address",
          "name": "_underlying",
          "type": "address"
        },
        {
          "internalType": "address",
          "name": "_oracle",
          "type": "address"
        },
        {
          "internalType": "uint16",
          "name": "_discount",
          "type": "uint16"
        },
        {
          "internalType": "uint16",
          "name": "_premium",
          "type": "uint16"
        }
      ],
      "name": "setOracles",
      "outputs": [],
      "stateMutability": "nonpayable",
      "type": "function"
    },
    {
      "inputs": [
        {
          "internalType": "address",
          "name": "_underlying",
          "type": "address"
        },
        {
          "internalType": "address",
          "name": "_strategy",
          "type": "address"
        },
        {
          "internalType": "uint256",
          "name": "stype",
          "type": "uint256"
        }
      ],
      "name": "setStrategy",
      "outputs": [],
      "stateMutability": "nonpayable",
      "type": "function"
    },
    {
      "inputs": [
        {
          "internalType": "address[]",
          "name": "_vault",
          "type": "address[]"
        },
        {
          "internalType": "enum IController.ValidVault[]",
          "name": "_state",
          "type": "uint8[]"
        }
      ],
      "name": "setValidVault",
      "outputs": [],
      "stateMutability": "nonpayable",
      "type": "function"
    },
    {
      "inputs": [
        {
          "internalType": "address",
          "name": "_dyToken",
          "type": "address"
        },
        {
          "internalType": "address",
          "name": "_vault",
          "type": "address"
        },
        {
          "internalType": "uint256",
          "name": "vtype",
          "type": "uint256"
        }
      ],
      "name": "setVault",
      "outputs": [],
      "stateMutability": "nonpayable",
      "type": "function"
    },
    {
      "inputs": [
        {
          "internalType": "address",
          "name": "_vault",
          "type": "address"
        },
        {
          "components": [
            {
              "internalType": "bool",
              "name": "enabled",
              "type": "bool"
            },
            {
              "internalType": "bool",
              "name": "enableDeposit",
              "type": "bool"
            },
            {
              "internalType": "bool",
              "name": "enableWithdraw",
              "type": "bool"
            },
            {
              "internalType": "bool",
              "name": "enableBorrow",
              "type": "bool"
            },
            {
              "internalType": "bool",
              "name": "enableRepay",
              "type": "bool"
            },
            {
              "internalType": "bool",
              "name": "enableLiquidate",
              "type": "bool"
            }
          ],
          "internalType": "struct AppController.VaultState",
          "name": "_state",
          "type": "tuple"
        }
      ],
      "name": "setVaultStates",
      "outputs": [],
      "stateMutability": "nonpayable",
      "type": "function"
    },
    {
      "inputs": [
        {
          "internalType": "address",
          "name": "",
          "type": "address"
        }
      ],
      "name": "strategies",
      "outputs": [
        {
          "internalType": "address",
          "name": "",
          "type": "address"
        }
      ],
      "stateMutability": "view",
      "type": "function"
    },
    {
      "inputs": [
        {
          "internalType": "address",
          "name": "newOwner",
          "type": "address"
        }
      ],
      "name": "transferOwnership",
      "outputs": [],
      "stateMutability": "nonpayable",
      "type": "function"
    },
    {
      "inputs": [
        {
          "internalType": "address",
          "name": "liquidator",
          "type": "address"
        },
        {
          "internalType": "bool",
          "name": "allowed",
          "type": "bool"
        }
      ],
      "name": "updateAllowedLiquidator",
      "outputs": [],
      "stateMutability": "nonpayable",
      "type": "function"
    },
    {
      "inputs": [
        {
          "internalType": "address",
          "name": "_user",
          "type": "address"
        },
        {
          "internalType": "bool",
          "name": "isDepositVault",
          "type": "bool"
        }
      ],
      "name": "userJoinedVaultCount",
      "outputs": [
        {
          "internalType": "uint256",
          "name": "",
          "type": "uint256"
        }
      ],
      "stateMutability": "view",
      "type": "function"
    },
    {
      "inputs": [
        {
          "internalType": "address",
          "name": "_user",
          "type": "address"
        },
        {
          "internalType": "bool",
          "name": "isDepositVault",
          "type": "bool"
        },
        {
          "internalType": "uint256",
          "name": "index",
          "type": "uint256"
        }
      ],
      "name": "userJoinedVaultInfoAt",
      "outputs": [
        {
          "internalType": "address",
          "name": "vault",
          "type": "address"
        },
        {
          "components": [
            {
              "internalType": "bool",
              "name": "enabled",
              "type": "bool"
            },
            {
              "internalType": "bool",
              "name": "enableDeposit",
              "type": "bool"
            },
            {
              "internalType": "bool",
              "name": "enableWithdraw",
              "type": "bool"
            },
            {
              "internalType": "bool",
              "name": "enableBorrow",
              "type": "bool"
            },
            {
              "internalType": "bool",
              "name": "enableRepay",
              "type": "bool"
            },
            {
              "internalType": "bool",
              "name": "enableLiquidate",
              "type": "bool"
            }
          ],
          "internalType": "struct AppController.VaultState",
          "name": "state",
          "type": "tuple"
        }
      ],
      "stateMutability": "view",
      "type": "function"
    },
    {
      "inputs": [
        {
          "internalType": "address",
          "name": "_user",
          "type": "address"
        },
        {
          "internalType": "contract IVault",
          "name": "_vault",
          "type": "address"
        },
        {
          "internalType": "int256",
          "name": "_amount",
          "type": "int256"
        },
        {
          "internalType": "bool",
          "name": "_dp",
          "type": "bool"
        }
      ],
      "name": "userPendingValues",
      "outputs": [
        {
          "internalType": "uint256",
          "name": "pendingDepositValue",
          "type": "uint256"
        },
        {
          "internalType": "uint256",
          "name": "pendingBrorowValue",
          "type": "uint256"
        }
      ],
      "stateMutability": "view",
      "type": "function"
    },
    {
      "inputs": [
        {
          "internalType": "address",
          "name": "_user",
          "type": "address"
        },
        {
          "internalType": "contract IVault",
          "name": "_vault",
          "type": "address"
        },
        {
          "internalType": "int256",
          "name": "_amount",
          "type": "int256"
        },
        {
          "internalType": "bool",
          "name": "_dp",
          "type": "bool"
        }
      ],
      "name": "userTotalPendingValues",
      "outputs": [
        {
          "internalType": "uint256",
          "name": "pendingDepositValue",
          "type": "uint256"
        },
        {
          "internalType": "uint256",
          "name": "pendingBrorowValue",
          "type": "uint256"
        }
      ],
      "stateMutability": "view",
      "type": "function"
    },
    {
      "inputs": [
        {
          "internalType": "address",
          "name": "_user",
          "type": "address"
        },
        {
          "internalType": "bool",
          "name": "_dp",
          "type": "bool"
        }
      ],
      "name": "userTotalValues",
      "outputs": [
        {
          "internalType": "uint256",
          "name": "totalDepositValue",
          "type": "uint256"
        },
        {
          "internalType": "uint256",
          "name": "totalBorrowValue",
          "type": "uint256"
        }
      ],
      "stateMutability": "view",
      "type": "function"
    },
    {
      "inputs": [
        {
          "internalType": "address",
          "name": "_user",
          "type": "address"
        },
        {
          "internalType": "bool",
          "name": "_dp",
          "type": "bool"
        }
      ],
      "name": "userValues",
      "outputs": [
        {
          "internalType": "uint256",
          "name": "totalDepositValue",
          "type": "uint256"
        },
        {
          "internalType": "uint256",
          "name": "totalBorrowValue",
          "type": "uint256"
        }
      ],
      "stateMutability": "view",
      "type": "function"
    },
    {
      "inputs": [
        {
          "internalType": "address",
          "name": "",
          "type": "address"
        }
      ],
      "name": "validVaults",
      "outputs": [
        {
          "internalType": "enum IController.ValidVault",
          "name": "",
          "type": "uint8"
        }
      ],
      "stateMutability": "view",
      "type": "function"
    },
    {
      "inputs": [
        {
          "internalType": "address",
          "name": "",
          "type": "address"
        },
        {
          "internalType": "address",
          "name": "",
          "type": "address"
        }
      ],
      "name": "validVaultsOfUser",
      "outputs": [
        {
          "internalType": "enum IController.ValidVault",
          "name": "",
          "type": "uint8"
        }
      ],
      "stateMutability": "view",
      "type": "function"
    },
    {
      "inputs": [
        {
          "internalType": "address",
          "name": "",
          "type": "address"
        }
      ],
      "name": "vaultStates",
      "outputs": [
        {
          "internalType": "bool",
          "name": "enabled",
          "type": "bool"
        },
        {
          "internalType": "bool",
          "name": "enableDeposit",
          "type": "bool"
        },
        {
          "internalType": "bool",
          "name": "enableWithdraw",
          "type": "bool"
        },
        {
          "internalType": "bool",
          "name": "enableBorrow",
          "type": "bool"
        },
        {
          "internalType": "bool",
          "name": "enableRepay",
          "type": "bool"
        },
        {
          "internalType": "bool",
          "name": "enableLiquidate",
          "type": "bool"
        }
      ],
      "stateMutability": "view",
      "type": "function"
    }
  ],
  "transactionHash": "0x62acb05595f86186f1afcc2b9ea550b0a9855f1297e1d6effc8216d27ea8322d",
  "args": [],
  "numDeployments": 2,
  "solcInputHash": "f611c068ac22610d737af24897ee0633",
  "bytecode": "0x608060405234801561001057600080fd5b50614390806100206000396000f3fe608060405234801561001057600080fd5b50600436106102745760003560e01c80636af2482d11610151578063ab27197e116100c3578063d2786d4511610087578063d2786d45146106d3578063d7a6681c14610701578063e26ec36a14610714578063f2fde38b14610727578063f7d226731461073a578063f9009ee81461074d57600080fd5b8063ab27197e1461067e578063b66d927a14610687578063c4c004871461069a578063c5321fb0146106ad578063c8b268b3146106c057600080fd5b806383d576501161011557806383d57650146105d45780638da5cb5b146105fd57806390a83dc21461060e57806396721753146106215780639c045f3e14610634578063aaace6011461065557600080fd5b80636af2482d1461058b5780636c4596771461059e578063715018a6146105b157806379bf27b1146105b95780638129fc1c146105cc57600080fd5b806339ebf823116101ea5780635911a1ae116101ae5780635911a1ae1461048357806359e27fc4146104965780635f49202f146104a9578063624b5ed4146105355780636657fc67146105485780636989725c1461057857600080fd5b806339ebf823146103be5780633dcecc2f146103ff57806346b45be71461045457806354ab62691461046757806358a6be1c1461047a57600080fd5b8063149088161161023c57806314908816146102da5780631acd8c9c146102ed5780631e5160511461032f5780632b9553ce146103625780632ea874821461037557806338b204211461039657600080fd5b8063054c13441461027957806309ba9b471461028e5780630d37a290146102a15780630ebdee19146102b45780630eccd2c9146102c7575b600080fd5b61028c610287366004613933565b61075a565b005b61028c61029c366004613933565b6108e1565b61028c6102af366004613986565b6109ae565b61028c6102c23660046139ec565b610b4e565b61028c6102d5366004613a25565b610bda565b61028c6102e8366004613aaa565b610e31565b6103006102fb366004613ad8565b610f10565b604080516001600160a01b03909416845261ffff92831660208501529116908201526060015b60405180910390f35b61035261033d366004613ad8565b606f6020526000908152604090205460ff1681565b6040519015158152602001610326565b61028c610370366004613933565b610f63565b6103886103833660046139ec565b611067565b604051908152602001610326565b6103a96103a4366004613af5565b6110be565b60408051928352602083019190915201610326565b6103e76103cc366004613ad8565b6066602052600090815260409020546001600160a01b031681565b6040516001600160a01b039091168152602001610326565b61041261040d366004613aaa565b61111a565b604080516001600160a01b03978816815261ffff96871660208201529486169085015294909116606083015282166080820152911660a082015260c001610326565b61028c610462366004613c55565b61114d565b61028c610475366004613ad8565b6113f2565b610388606d5481565b610388610491366004613aaa565b6114a9565b61028c6104a4366004613933565b6115b7565b6104fc6104b7366004613ad8565b606b6020526000908152604090205460ff80821691610100810482169162010000820481169163010000008104821691600160201b8204811691600160281b90041686565b604080519615158752941515602087015292151593850193909352151560608401529015156080830152151560a082015260c001610326565b61028c610543366004613d17565b611701565b61056b610556366004613ad8565b60706020526000908152604090205460ff1681565b6040516103269190613d68565b61028c610586366004613933565b611767565b61028c610599366004613d76565b611832565b61028c6105ac366004613e2c565b61193c565b61028c6119a7565b61028c6105c73660046139ec565b6119dd565b61028c611a76565b6103e76105e2366004613ad8565b6068602052600090815260409020546001600160a01b031681565b6033546001600160a01b03166103e7565b61028c61061c366004613933565b611b00565b6103a961062f366004613af5565b611c70565b610647610642366004613e49565b611c7f565b604051610326929190613e79565b6103e7610663366004613ad8565b6065602052600090815260409020546001600160a01b031681565b610388606c5481565b610352610695366004613ad8565b611d86565b61028c6106a83660046139ec565b611dbd565b61028c6106bb366004613c55565b611e9e565b61028c6106ce366004613d17565b612165565b61056b6106e1366004613aaa565b607160209081526000928352604080842090915290825290205460ff1681565b61028c61070f366004613ed8565b6121c4565b6103a96107223660046139ec565b6128c4565b61028c610735366004613ad8565b612901565b6103a96107483660046139ec565b612999565b606e546103529060ff1681565b6001600160a01b0382166000908152606b6020908152604091829020825160c081018452905460ff80821615801580855261010084048316151595850195909552620100008304821615159584019590955263010000008204811615156060840152600160201b8204811615156080840152600160281b90910416151560a0820152916107e8575080604001515b61082d5760405162461bcd60e51b815260206004820152601160248201527015d2551211149055d7d11254d050931151607a1b60448201526064015b60405180910390fd5b61083783856129bf565b156108db576000610854858561084d8685613f83565b6001612aae565b6001600160a01b0386166000908152606a602052604081209192509061087d9087906001612cf9565b9050606d548161088d9190613fc2565b61089961271084613fc2565b10156108d85760405162461bcd60e51b815260206004820152600e60248201526d1313d5d7d0d3d31310551154905360921b6044820152606401610824565b50505b50505050565b6001600160a01b0382166000908152606b6020908152604091829020825160c081018452905460ff80821615801580855261010084048316151595850195909552620100008304821615159584019590955263010000008204811615156060840152600160201b8204811615156080840152600160281b90910416151560a08201529161096f575080602001515b6108db5760405162461bcd60e51b815260206004820152601060248201526f4445504f534954455f44495341424c4560801b6044820152606401610824565b6033546001600160a01b031633146109d85760405162461bcd60e51b815260040161082490613fe1565b6001600160a01b038316610a1f5760405162461bcd60e51b815260206004820152600e60248201526d494e56414c49445f4f5241434c4560901b6044820152606401610824565b6127108261ffff161115610a675760405162461bcd60e51b815260206004820152600f60248201526e444953434f55545f544f4f5f42494760881b6044820152606401610824565b6127108161ffff161015610ab15760405162461bcd60e51b81526020600482015260116024820152701414915352555357d513d3d7d4d3505313607a1b6044820152606401610824565b6001600160a01b0384811660008181526067602090815260409182902080549488166001600160b01b03199095168517600160a01b61ffff8981169182029290921761ffff60b01b1916600160b01b92891692830217835584519687529286019290925291840152917f7cb71f764a6240297d887d23473a61cf07ba9d34ccfbdd326620a5b896cd33469060600160405180910390a25050505050565b6033546001600160a01b03163314610b785760405162461bcd60e51b815260040161082490613fe1565b6001600160a01b0382166000908152606f602052604090819020805460ff1916831515179055517fd8949265082223b72749a7863e551684ee0df9a0c8ece536b9f14686b68425fc90610bce9084908490614016565b60405180910390a15050565b606e54339060ff1680610c0557506001600160a01b0381166000908152606f602052604090205460ff165b610c465760405162461bcd60e51b815260206004820152601260248201527124a72b20a624a22fa624a8aaa4a220aa27a960711b6044820152606401610824565b610c4f84611d86565b610c8f5760405162461bcd60e51b81526020600482015260116024820152700869e989882a88aa48298be8a9c9eaa8e9607b1b6044820152606401610824565b6001600160a01b038416600090815260696020526040812090610cb182612dc8565b9050805b8015610d65576000610cd2610ccb600184614031565b8590612dd2565b9050610cde81896129bf565b15610d5257610ced8882612dde565b6040516374eb83c160e01b81526001600160a01b038216906374eb83c190610d1f9088908c908c908c90600401614048565b600060405180830381600087803b158015610d3957600080fd5b505af1158015610d4d573d6000803e3d6000fd5b505050505b5080610d5d81614094565b915050610cb5565b506001600160a01b0386166000908152606a6020526040812090610d8882612dc8565b9050805b8015610e26576000610da2610ccb600184614031565b9050610dae8a82612dde565b6040516374eb83c160e01b81526001600160a01b038216906374eb83c190610de0908a908e908e908e90600401614048565b600060405180830381600087803b158015610dfa57600080fd5b505af1158015610e0e573d6000803e3d6000fd5b50505050508080610e1e90614094565b915050610d8c565b505050505050505050565b6033546001600160a01b03163314610e5b5760405162461bcd60e51b815260040161082490613fe1565b6001600160a01b038116610ea25760405162461bcd60e51b815260206004820152600e60248201526d24a72b20a624a22fa22a27a5a2a760911b6044820152606401610824565b6001600160a01b0382811660008181526065602090815260409182902080548686166001600160a01b0319821681179092558351951680865291850152927fd5c0cad2a6b3eea813a7bdf548752779e26da201508f6e807ec5ec3d65d020d6910160405180910390a2505050565b6001600160a01b039081166000908152606760209081526040918290208251606081018452905493841680825261ffff600160a01b86048116938301849052600160b01b90950490941692018290529192565b6001600160a01b0382166000908152606b6020908152604091829020825160c081018452905460ff80821615801580855261010084048316151595850195909552620100008304821615159584019590955263010000008204811615156060840152600160201b8204811615156080840152600160281b90910416151560a082015291610ff1575080606001515b61102f5760405162461bcd60e51b815260206004820152600f60248201526e1093d49493d5d7d11254d050931151608a1b6044820152606401610824565b600061103c856001612eac565b6001600160a01b0386166000908152606a602052604081209192509061087d90879087876001612f96565b600081611094576001600160a01b0383166000908152606a6020526040902061108f90612dc8565b6110b5565b6001600160a01b03831660009081526069602052604090206110b590612dc8565b90505b92915050565b6001600160a01b038416600090815260696020526040812081906110e6908790878787612f96565b6001600160a01b0387166000908152606a6020526040902090925061110f908790878787612f96565b905094509492505050565b60008060008060008061112c88610f10565b9197509550935061113c87610f10565b979a96995094975095939492505050565b6033546001600160a01b031633146111775760405162461bcd60e51b815260040161082490613fe1565b81518151808214801561118957508115155b6111c55760405162461bcd60e51b815260206004820152600d60248201526c494e56414c49445f504152414d60981b6044820152606401610824565b60005b828110156113eb576000607060008784815181106111e8576111e86140ab565b6020908102919091018101516001600160a01b031682528101919091526040016000205460ff16600281111561122057611220613d30565b1461125d5760405162461bcd60e51b815260206004820152600d60248201526c5345545f4f4e4c595f4f4e434560981b6044820152606401610824565b6002848281518110611271576112716140ab565b6020026020010151600281111561128a5761128a613d30565b14806112c0575060018482815181106112a5576112a56140ab565b602002602001015160028111156112be576112be613d30565b145b6112fc5760405162461bcd60e51b815260206004820152600d60248201526c494e56414c49445f56414c554560981b6044820152606401610824565b83818151811061130e5761130e6140ab565b60200260200101516070600087848151811061132c5761132c6140ab565b6020908102919091018101516001600160a01b03168252810191909152604001600020805460ff1916600183600281111561136957611369613d30565b02179055507f05334cade7d5051a457d6cddb92a76a5266e31459f3118a536c99b169beaa0f58582815181106113a1576113a16140ab565b60200260200101518583815181106113bb576113bb6140ab565b60200260200101516040516113d19291906140c1565b60405180910390a1806113e3816140de565b9150506111c8565b5050505050565b6033546001600160a01b0316331461141c5760405162461bcd60e51b815260040161082490613fe1565b6001600160a01b03808216600090815260666020908152604080832054815163429c145b60e11b8152915194169363853828b693600480840194938390030190829087803b15801561146d57600080fd5b505af1158015611481573d6000803e3d6000fd5b505050506040513d601f19601f820116820180604052508101906114a591906140f9565b5050565b6000806114b7846001612eac565b6001600160a01b0385166000908152606a60205260408120919250906114e09086906001612cf9565b90506000606d54612710846114f59190613fc2565b6114ff9190614112565b9050818111156115a25760006115158383614031565b60405163281aa7fd60e21b815260048101829052600160248201529091506001600160a01b0387169063a06a9ff49060440160206040518083038186803b15801561155f57600080fd5b505afa158015611573573d6000803e3d6000fd5b505050506040513d601f19601f8201168201806040525081019061159791906140f9565b9450505050506110b8565b600093505050506110b8565b50505092915050565b6033546001600160a01b031633146115e15760405162461bcd60e51b815260040161082490613fe1565b816001600160a01b031663ba58591c6040518163ffffffff1660e01b815260040160206040518083038186803b15801561161a57600080fd5b505afa15801561162e573d6000803e3d6000fd5b505050506040513d601f19601f820116820180604052508101906116529190614134565b61168e5760405162461bcd60e51b815260206004820152600d60248201526c1253959053125157d590531555609a1b6044820152606401610824565b6001600160a01b038084166000818152606860205260409081902080548685166001600160a01b031982161790915590519216917f0ff9c79e47a5eed61bfb093d8315d37efcfa7f6679e507f608289c78941b0e51906116f390849087908790614151565b60405180910390a250505050565b6033546001600160a01b0316331461172b5760405162461bcd60e51b815260040161082490613fe1565b606d8190556040518181527f13e612fc69e30b3adcca3cb6573fa94782e94f59261f9b32c96c34b90552b335906020015b60405180910390a150565b6001600160a01b0382166000908152606b6020908152604091829020825160c081018452905460ff80821615801580855261010084048316151595850195909552620100008304821615159584019590955263010000008204811615156060840152600160201b8204811615156080840152600160281b90910416151560a0820152916117f5575080608001515b6108db5760405162461bcd60e51b815260206004820152600e60248201526d149154105657d11254d05093115160921b6044820152606401610824565b6033546001600160a01b0316331461185c5760405162461bcd60e51b815260040161082490613fe1565b6001600160a01b0382166000908152606b60209081526040918290208351815492850151858501516060870151608088015160a089015161ffff1990971694151561ff00191694909417610100931515939093029290921763ffff00001916620100009115159190910263ff0000001916176301000000911515919091021765ffff000000001916600160201b9115159190910265ff0000000000191617600160281b92151592909202919091179055517f0f86f36676a78407d88aa894e600955aca44b6b9eaff4740c81228e2fa75d62890610bce9084908490613e79565b6033546001600160a01b031633146119665760405162461bcd60e51b815260040161082490613fe1565b606e805460ff19168215159081179091556040519081527fcfa23450328fe03391963dc3e54c19ebeecb28fd8a628b495b71ab8534d61c329060200161175c565b6033546001600160a01b031633146119d15760405162461bcd60e51b815260040161082490613fe1565b6119db60006131a9565b565b336000818152606b602052604090205460ff16611a2d5760405162461bcd60e51b815260206004820152600e60248201526d24a72b20a624a22fa1a0a62622a960911b6044820152606401610824565b600082611a51576001600160a01b0384166000908152606a60205260409020611a6a565b6001600160a01b03841660009081526069602052604090205b90506113eb81836131fb565b6000611a826001613210565b90508015611a9a576000805461ff0019166101001790555b611aa261329d565b612af8606c556132c8606d55606e805460ff191660011790558015611afd576000805461ff0019169055604051600181527f7f26b83ff96e1f2b6a682f133852f6798a09c465da95921460cefb38474024989060200161175c565b50565b6033546001600160a01b03163314611b2a5760405162461bcd60e51b815260040161082490613fe1565b6001600160a01b038216611b765760405162461bcd60e51b815260206004820152601360248201527214dd1c985d1959da595cc8111a5cd8589b1959606a1b6044820152606401610824565b6001600160a01b03808416600090815260666020526040902054168015611c0c57806001600160a01b031663853828b66040518163ffffffff1660e01b8152600401602060405180830381600087803b158015611bd257600080fd5b505af1158015611be6573d6000803e3d6000fd5b505050506040513d601f19601f82011682018060405250810190611c0a91906140f9565b505b6001600160a01b038481166000818152606660205260409081902080546001600160a01b0319169387169390931790925590517fcc7d45f325309ae5b4940b5de638a482be2a51aa3a917326a84f65bcc2f73523906116f390849087908790614151565b6000806110e686868686612aae565b6040805160c081018252600080825260208201819052918101829052606081018290526080810182905260a08101829052600084611cd4576001600160a01b0386166000908152606a60205260409020611ced565b6001600160a01b03861660009081526069602052604090205b9050611cf98185612dd2565b6001600160a01b0381166000908152606b6020908152604091829020825160c081018452905460ff8082161515835261010082048116151593830193909352620100008104831615159382019390935263010000008304821615156060820152600160201b8304821615156080820152600160281b90920416151560a08201529097909650945050505050565b6000806000611d968460016128c4565b91509150606c5481611da89190613fc2565b611db461271084613fc2565b10949350505050565b336000818152606b602052604090205460ff16611e0d5760405162461bcd60e51b815260206004820152600e60248201526d24a72b20a624a22fa1a0a62622a960911b6044820152606401610824565b600082611e31576001600160a01b0384166000908152606a60205260409020611e4a565b6001600160a01b03841660009081526069602052604090205b90506014611e5782612dc8565b10611e945760405162461bcd60e51b815260206004820152600d60248201526c0949e929cbea89e9ebe9aaa869609b1b6044820152606401610824565b6113eb81836132cc565b815181513391908082148015611eb357508115155b611eef5760405162461bcd60e51b815260206004820152600d60248201526c494e56414c49445f504152414d60981b6044820152606401610824565b60005b8281101561209b576002858281518110611f0e57611f0e6140ab565b60200260200101516002811115611f2757611f27613d30565b1480611f5d57506001858281518110611f4257611f426140ab565b60200260200101516002811115611f5b57611f5b613d30565b145b611f995760405162461bcd60e51b815260206004820152600d60248201526c494e56414c49445f56414c554560981b6044820152606401610824565b848181518110611fab57611fab6140ab565b602002602001015160716000888481518110611fc957611fc96140ab565b6020908102919091018101516001600160a01b039081168352828201939093526040918201600090812093891681529290529020805460ff1916600183600281111561201757612017613d30565b02179055507f65d4763abdc1e045affaf50aed5fc2a1f4f466da45ee41ea701e0ad5029ff0b086828151811061204f5761204f6140ab565b60200260200101518587848151811061206a5761206a6140ab565b602002602001015160405161208193929190614175565b60405180910390a180612093816140de565b915050611ef2565b5060006120a9846001612eac565b6001600160a01b0385166000908152606a60205260408120919250906120d29086906001612cf9565b90506000606d54612710846120e79190613fc2565b6120f19190614112565b9050606d54826121019190613fc2565b61210d61271085613fc2565b101561215b5760405162461bcd60e51b815260206004820152601d60248201527f53455456414c49445641554c543a204c4f575f434f4c4c41544552414c0000006044820152606401610824565b5050505050505050565b6033546001600160a01b0316331461218f5760405162461bcd60e51b815260040161082490613fe1565b606c8190556040518181527f138a4f81e91d7ed8109625537819aae162d22b1e4b5f73e1919d1f6e21bfbb4b9060200161175c565b6001600160a01b038416600090815260696020908152604080832081516001818501528251808203909401845282019091529190815b848110156123ed576000868683818110612216576122166140ab565b905060200201602081019061222b9190613ad8565b90506000816001600160a01b031663ae318c4d8b60006040518363ffffffff1660e01b815260040161225e929190614016565b60206040518083038186803b15801561227657600080fd5b505afa15801561228a573d6000803e3d6000fd5b505050506040513d601f19601f820116820180604052508101906122ae91906140f9565b6040516354a5706f60e01b81526001600160a01b038c811660048301529192506000918416906354a5706f9060240160206040518083038186803b1580156122f557600080fd5b505afa158015612309573d6000803e3d6000fd5b505050506040513d601f19601f8201168201806040525081019061232d91906140f9565b9050612339828761419a565b6040516374eb83c160e01b81529096506001600160a01b038416906374eb83c19061236c908d908f908a9060040161420a565b600060405180830381600087803b15801561238657600080fd5b505af115801561239a573d6000803e3d6000fd5b50506040805184815260208101869052438183015290516001600160a01b038f16935060008051602061433b83398151915292509081900360600190a250505080806123e5906140de565b9150506121fa565b50600082116123fe575050506108db565b60008061240a85612dc8565b90505b801561286e57600061242a612423600184614031565b8790612dd2565b9050612436818b6129bf565b612440575061285c565b60405163ae318c4d60e01b81526000906001600160a01b0383169063ae318c4d90612471908e908590600401614016565b60206040518083038186803b15801561248957600080fd5b505afa15801561249d573d6000803e3d6000fd5b505050506040513d601f19601f820116820180604052508101906124c191906140f9565b90506124cd818561419a565b60405163fc7e286d60e01b81526001600160a01b038d8116600483015291955060009184169063fc7e286d9060240160206040518083038186803b15801561251457600080fd5b505afa158015612528573d6000803e3d6000fd5b505050506040513d601f19601f8201168201806040525081019061254c91906140f9565b9050826001600160a01b03166374eb83c18c8e896040518463ffffffff1660e01b815260040161257e9392919061420a565b600060405180830381600087803b15801561259857600080fd5b505af11580156125ac573d6000803e3d6000fd5b50505050868514156125f9576040805182815260208101849052438183015290516001600160a01b038e169160008051602061433b833981519152919081900360600190a250505061286e565b86851015612642576040805182815260208101849052438183015290516001600160a01b038e169160008051602061433b833981519152919081900360600190a250505061285c565b600061264e8887614031565b90506305f5e10081101561269e576040805183815260208101859052438183015290516001600160a01b038f169160008051602061433b833981519152919081900360600190a25050505061286e565b600064e8d4a51000846126b18486613fc2565b6126c09064e8d4a51000613fc2565b6126ca9190614112565b6126d49190614112565b9050828111156126e15750815b6127698d3083886001600160a01b0316636f307dc36040518163ffffffff1660e01b815260040160206040518083038186803b15801561272057600080fd5b505afa158015612734573d6000803e3d6000fd5b505050506040513d601f19601f82011682018060405250810190612758919061423f565b6001600160a01b03169291906132e1565b6127ef8582876001600160a01b0316636f307dc36040518163ffffffff1660e01b815260040160206040518083038186803b1580156127a757600080fd5b505afa1580156127bb573d6000803e3d6000fd5b505050506040513d601f19601f820116820180604052508101906127df919061423f565b6001600160a01b03169190613339565b6127fa858f8361345d565b6001600160a01b038e1660008051602061433b83398151915261281d8386614031565b6128278588614031565b604080519283526020830191909152439082015260600160405180910390a26128508288614031565b9650505050505061286e565b8061286681614094565b91505061240d565b506040805184815260208101839052438183015290516001600160a01b038a16917f23ad44933ff95a60497b307e3618a8809d4cf206ee28eadb5e74dcbc1f95076b919081900360600190a25050505050505050565b6000806128d18484612eac565b6001600160a01b0385166000908152606a602052604090209092506128f890859085612cf9565b90509250929050565b6033546001600160a01b0316331461292b5760405162461bcd60e51b815260040161082490613fe1565b6001600160a01b0381166129905760405162461bcd60e51b815260206004820152602660248201527f4f776e61626c653a206e6577206f776e657220697320746865207a65726f206160448201526564647265737360d01b6064820152608401610824565b611afd816131a9565b6001600160a01b038216600090815260696020526040812081906128d190859085612cf9565b6001600160a01b03808316600090815260716020908152604080832093851683529290529081205460ff1681808260028111156129fe576129fe613d30565b14612a095781612a26565b6001600160a01b03851660009081526070602052604090205460ff165b90506000816002811115612a3c57612a3c613d30565b1415612a7e5760405162461bcd60e51b81526020600482015260116024820152701590531251159055531517d55392539255607a1b6044820152606401610824565b6002816002811115612a9257612a92613d30565b1415612aa3576001925050506110b8565b506000949350505050565b6001600160a01b038416600090815260696020526040812081612ad082612dc8565b90506000805b82811015612c48576000612aea8583612dd2565b9050612af6818b6129bf565b15612c3557806001600160a01b0316896001600160a01b03161415612baa57604051635ac28bf960e01b81526001600160a01b038b81166004830152602482018a9052821690635ac28bf99060440160206040518083038186803b158015612b5d57600080fd5b505afa158015612b71573d6000803e3d6000fd5b505050506040513d601f19601f82011682018060405250810190612b9591906140f9565b612b9f908761419a565b955060019250612c35565b60405163ae318c4d60e01b81526001600160a01b0382169063ae318c4d90612bd8908d908b90600401614016565b60206040518083038186803b158015612bf057600080fd5b505afa158015612c04573d6000803e3d6000fd5b505050506040513d601f19601f82011682018060405250810190612c2891906140f9565b612c32908761419a565b95505b5080612c40816140de565b915050612ad6565b5080158015612c5c5750612c5c87896129bf565b15612cee57604051635ac28bf960e01b81526001600160a01b03898116600483015260248201889052881690635ac28bf99060440160206040518083038186803b158015612ca957600080fd5b505afa158015612cbd573d6000803e3d6000fd5b505050506040513d601f19601f82011682018060405250810190612ce191906140f9565b612ceb908561419a565b93505b505050949350505050565b600080612d0584612dc8565b905060005b81811015612dbf576000612d1e8683612dd2565b60405163ae318c4d60e01b81529091506001600160a01b0382169063ae318c4d90612d4f908a908990600401614016565b60206040518083038186803b158015612d6757600080fd5b505afa158015612d7b573d6000803e3d6000fd5b505050506040513d601f19601f82011682018060405250810190612d9f91906140f9565b612da9908561419a565b9350508080612db7906140de565b915050612d0a565b50509392505050565b60006110b8825490565b60006110b58383613534565b6001600160a01b0381166000908152606b6020908152604091829020825160c081018452905460ff80821615801580855261010084048316151595850195909552620100008304821615159584019590955263010000008204811615156060840152600160201b8204811615156080840152600160281b90910416151560a082015291612e6c57508060a001515b612ea75760405162461bcd60e51b815260206004820152600c60248201526b13125457d11254d05093115160a21b6044820152606401610824565b505050565b6001600160a01b038216600090815260696020526040812081612ece82612dc8565b905060005b818110156115ae576000612ee78483612dd2565b9050612ef381886129bf565b15612f835760405163ae318c4d60e01b81526001600160a01b0382169063ae318c4d90612f26908a908a90600401614016565b60206040518083038186803b158015612f3e57600080fd5b505afa158015612f52573d6000803e3d6000fd5b505050506040513d601f19601f82011682018060405250810190612f7691906140f9565b612f80908661419a565b94505b5080612f8e816140de565b915050612ed3565b600080612fa286612dc8565b90506000805b8281101561310b576000612fbc8983612dd2565b9050806001600160a01b0316886001600160a01b0316141561306d57604051635ac28bf960e01b81526001600160a01b038b8116600483015260248201899052821690635ac28bf99060440160206040518083038186803b15801561302057600080fd5b505afa158015613034573d6000803e3d6000fd5b505050506040513d601f19601f8201168201806040525081019061305891906140f9565b613062908661419a565b9450600192506130f8565b60405163ae318c4d60e01b81526001600160a01b0382169063ae318c4d9061309b908d908a90600401614016565b60206040518083038186803b1580156130b357600080fd5b505afa1580156130c7573d6000803e3d6000fd5b505050506040513d601f19601f820116820180604052508101906130eb91906140f9565b6130f5908661419a565b94505b5080613103816140de565b915050612fa8565b508061319e57604051635ac28bf960e01b81526001600160a01b03898116600483015260248201879052871690635ac28bf99060440160206040518083038186803b15801561315957600080fd5b505afa15801561316d573d6000803e3d6000fd5b505050506040513d601f19601f8201168201806040525081019061319191906140f9565b61319b908461419a565b92505b505095945050505050565b603380546001600160a01b038381166001600160a01b0319831681179093556040519116919082907f8be0079c531659141344cd1fd0a4f28419497f9722a3daafe3b4186f6b6457e090600090a35050565b60006110b5836001600160a01b03841661355e565b60008054610100900460ff1615613257578160ff1660011480156132335750303b155b61324f5760405162461bcd60e51b81526004016108249061425c565b506000919050565b60005460ff80841691161061327e5760405162461bcd60e51b81526004016108249061425c565b506000805460ff191660ff92909216919091179055600190565b919050565b600054610100900460ff166132c45760405162461bcd60e51b8152600401610824906142aa565b6119db613651565b60006110b5836001600160a01b038416613681565b6108db846323b872dd60e01b85858560405160240161330293929190614151565b60408051601f198184030181529190526020810180516001600160e01b03166001600160e01b0319909316929092179091526136d0565b8015806133c25750604051636eb1769f60e11b81523060048201526001600160a01b03838116602483015284169063dd62ed3e9060440160206040518083038186803b15801561338857600080fd5b505afa15801561339c573d6000803e3d6000fd5b505050506040513d601f19601f820116820180604052508101906133c091906140f9565b155b61342d5760405162461bcd60e51b815260206004820152603660248201527f5361666545524332303a20617070726f76652066726f6d206e6f6e2d7a65726f60448201527520746f206e6f6e2d7a65726f20616c6c6f77616e636560501b6064820152608401610824565b6040516001600160a01b038316602482015260448101829052612ea790849063095ea7b360e01b90606401613302565b826001600160a01b031663f213159c846001600160a01b0316636f307dc36040518163ffffffff1660e01b815260040160206040518083038186803b1580156134a557600080fd5b505afa1580156134b9573d6000803e3d6000fd5b505050506040513d601f19601f820116820180604052508101906134dd919061423f565b84846040518463ffffffff1660e01b81526004016134fd93929190614151565b600060405180830381600087803b15801561351757600080fd5b505af115801561352b573d6000803e3d6000fd5b50505050505050565b600082600001828154811061354b5761354b6140ab565b9060005260206000200154905092915050565b60008181526001830160205260408120548015613647576000613582600183614031565b855490915060009061359690600190614031565b90508181146135fb5760008660000182815481106135b6576135b66140ab565b90600052602060002001549050808760000184815481106135d9576135d96140ab565b6000918252602080832090910192909255918252600188019052604090208390555b855486908061360c5761360c6142f5565b6001900381819060005260206000200160009055905585600101600086815260200190815260200160002060009055600193505050506110b8565b60009150506110b8565b600054610100900460ff166136785760405162461bcd60e51b8152600401610824906142aa565b6119db336131a9565b60008181526001830160205260408120546136c8575081546001818101845560008481526020808220909301849055845484825282860190935260409020919091556110b8565b5060006110b8565b6000613725826040518060400160405280602081526020017f5361666545524332303a206c6f772d6c6576656c2063616c6c206661696c6564815250856001600160a01b03166137a29092919063ffffffff16565b805190915015612ea757808060200190518101906137439190614134565b612ea75760405162461bcd60e51b815260206004820152602a60248201527f5361666545524332303a204552433230206f7065726174696f6e20646964206e6044820152691bdd081cdd58d8d9595960b21b6064820152608401610824565b60606137b184846000856137bb565b90505b9392505050565b60608247101561381c5760405162461bcd60e51b815260206004820152602660248201527f416464726573733a20696e73756666696369656e742062616c616e636520666f6044820152651c8818d85b1b60d21b6064820152608401610824565b843b61386a5760405162461bcd60e51b815260206004820152601d60248201527f416464726573733a2063616c6c20746f206e6f6e2d636f6e74726163740000006044820152606401610824565b600080866001600160a01b03168587604051613886919061430b565b60006040518083038185875af1925050503d80600081146138c3576040519150601f19603f3d011682016040523d82523d6000602084013e6138c8565b606091505b50915091506138d88282866138e5565b925050505b949350505050565b606083156138f45750816137b4565b8251156139045782518084602001fd5b8160405162461bcd60e51b81526004016108249190614327565b6001600160a01b0381168114611afd57600080fd5b60008060006060848603121561394857600080fd5b83356139538161391e565b925060208401356139638161391e565b929592945050506040919091013590565b803561ffff8116811461329857600080fd5b6000806000806080858703121561399c57600080fd5b84356139a78161391e565b935060208501356139b78161391e565b92506139c560408601613974565b91506139d360608601613974565b905092959194509250565b8015158114611afd57600080fd5b600080604083850312156139ff57600080fd5b8235613a0a8161391e565b91506020830135613a1a816139de565b809150509250929050565b600080600060408486031215613a3a57600080fd5b8335613a458161391e565b9250602084013567ffffffffffffffff80821115613a6257600080fd5b818601915086601f830112613a7657600080fd5b813581811115613a8557600080fd5b876020828501011115613a9757600080fd5b6020830194508093505050509250925092565b60008060408385031215613abd57600080fd5b8235613ac88161391e565b91506020830135613a1a8161391e565b600060208284031215613aea57600080fd5b81356137b48161391e565b60008060008060808587031215613b0b57600080fd5b8435613b168161391e565b93506020850135613b268161391e565b9250604085013591506060850135613b3d816139de565b939692955090935050565b634e487b7160e01b600052604160045260246000fd5b60405160c0810167ffffffffffffffff81118282101715613b8157613b81613b48565b60405290565b604051601f8201601f1916810167ffffffffffffffff81118282101715613bb057613bb0613b48565b604052919050565b600067ffffffffffffffff821115613bd257613bd2613b48565b5060051b60200190565b600082601f830112613bed57600080fd5b81356020613c02613bfd83613bb8565b613b87565b82815260059290921b84018101918181019086841115613c2157600080fd5b8286015b84811015613c4a57803560038110613c3d5760008081fd5b8352918301918301613c25565b509695505050505050565b60008060408385031215613c6857600080fd5b823567ffffffffffffffff80821115613c8057600080fd5b818501915085601f830112613c9457600080fd5b81356020613ca4613bfd83613bb8565b82815260059290921b84018101918181019089841115613cc357600080fd5b948201945b83861015613cea578535613cdb8161391e565b82529482019490820190613cc8565b96505086013592505080821115613d0057600080fd5b50613d0d85828601613bdc565b9150509250929050565b600060208284031215613d2957600080fd5b5035919050565b634e487b7160e01b600052602160045260246000fd5b60038110613d6457634e487b7160e01b600052602160045260246000fd5b9052565b602081016110b88284613d46565b60008082840360e0811215613d8a57600080fd5b8335613d958161391e565b925060c0601f1982011215613da957600080fd5b50613db2613b5e565b6020840135613dc0816139de565b81526040840135613dd0816139de565b60208201526060840135613de3816139de565b60408201526080840135613df6816139de565b606082015260a0840135613e09816139de565b608082015260c0840135613e1c816139de565b60a0820152919491935090915050565b600060208284031215613e3e57600080fd5b81356137b4816139de565b600080600060608486031215613e5e57600080fd5b8335613e698161391e565b92506020840135613963816139de565b600060e08201905060018060a01b03841682528251151560208301526020830151151560408301526040830151151560608301526060830151151560808301526080830151151560a083015260a0830151151560c08301529392505050565b60008060008060608587031215613eee57600080fd5b8435613ef98161391e565b93506020850135613f098161391e565b9250604085013567ffffffffffffffff80821115613f2657600080fd5b818701915087601f830112613f3a57600080fd5b813581811115613f4957600080fd5b8860208260051b8501011115613f5e57600080fd5b95989497505060200194505050565b634e487b7160e01b600052601160045260246000fd5b60008083128015600160ff1b850184121615613fa157613fa1613f6d565b6001600160ff1b0384018313811615613fbc57613fbc613f6d565b50500390565b6000816000190483118215151615613fdc57613fdc613f6d565b500290565b6020808252818101527f4f776e61626c653a2063616c6c6572206973206e6f7420746865206f776e6572604082015260600190565b6001600160a01b039290921682521515602082015260400190565b60008282101561404357614043613f6d565b500390565b6001600160a01b0385811682528416602082015260606040820181905281018290526000828460808401376000608084840101526080601f19601f850116830101905095945050505050565b6000816140a3576140a3613f6d565b506000190190565b634e487b7160e01b600052603260045260246000fd5b6001600160a01b0383168152604081016137b46020830184613d46565b60006000198214156140f2576140f2613f6d565b5060010190565b60006020828403121561410b57600080fd5b5051919050565b60008261412f57634e487b7160e01b600052601260045260246000fd5b500490565b60006020828403121561414657600080fd5b81516137b4816139de565b6001600160a01b039384168152919092166020820152604081019190915260600190565b6001600160a01b03848116825283166020820152606081016138dd6040830184613d46565b600082198211156141ad576141ad613f6d565b500190565b60005b838110156141cd5781810151838201526020016141b5565b838111156108db5750506000910152565b600081518084526141f68160208601602086016141b2565b601f01601f19169290920160200192915050565b6001600160a01b03848116825283166020820152606060408201819052600090614236908301846141de565b95945050505050565b60006020828403121561425157600080fd5b81516137b48161391e565b6020808252602e908201527f496e697469616c697a61626c653a20636f6e747261637420697320616c72656160408201526d191e481a5b9a5d1a585b1a5e995960921b606082015260800190565b6020808252602b908201527f496e697469616c697a61626c653a20636f6e7472616374206973206e6f74206960408201526a6e697469616c697a696e6760a81b606082015260800190565b634e487b7160e01b600052603160045260246000fd5b6000825161431d8184602087016141b2565b9190910192915050565b6020815260006110b560208301846141de56fe8c905fa391714313bda8eff3018f751fbc7bb371f7dac7b9f6e348332d57430ea264697066735822122017de035c0c19876ab5c985ca6f711222f3c901d012af7e2f6adafe735dd032e864736f6c63430008090033",
  "devdoc": {
    "kind": "dev",
    "methods": {
      "beforeBorrow(address,address,uint256)": {
        "params": {
          "_amount": "loan amount",
          "_user": "borrower",
          "_vault": "address of loan market"
        }
      },
      "beforeDeposit(address,address,uint256)": {
        "params": {
          "_vault": "address of deposit market param  _amount deposit amount"
        }
      },
      "owner()": {
        "details": "Returns the address of the current owner."
      },
      "renounceOwnership()": {
        "details": "Leaves the contract without owner. It will not be possible to call `onlyOwner` functions anymore. Can only be called by the current owner. NOTE: Renouncing ownership will leave the contract without an owner, thereby removing any functionality that is only available to the owner."
      },
      "transferOwnership(address)": {
        "details": "Transfers ownership of the contract to a new account (`newOwner`). Can only be called by the current owner."
      },
      "userPendingValues(address,address,int256,bool)": {
        "params": {
          "_amount": "the amount of deposits or withdrawals",
          "_dp": "discount or premium",
          "_user": "depositors",
          "_vault": "target vault"
        }
      },
      "userTotalPendingValues(address,address,int256,bool)": {
        "params": {
          "_amount": "the amount of deposits or withdrawals",
          "_dp": "discount or premium",
          "_user": "depositors",
          "_vault": "target vault"
        }
      },
      "userTotalValues(address,bool)": {
        "params": {
          "_dp": "discount or premium",
          "_user": "depositors"
        }
      },
      "userValues(address,bool)": {
        "params": {
          "_dp": "discount or premium",
          "_user": "depositors"
        }
      }
    },
    "version": 1
  },
  "userdoc": {
    "kind": "user",
    "methods": {
      "beforeBorrow(address,address,uint256)": {
        "notice": "Risk control check before borrowing"
      },
      "beforeDeposit(address,address,uint256)": {
        "notice": "Risk control check before deposit param _user depositors"
      },
      "isNeedLiquidate(address)": {
        "notice": "determine whether the borrower needs to be liquidated"
      },
      "maxBorrow(address,address)": {
        "notice": "maximum that a user can borrow from a Vault"
      },
      "userPendingValues(address,address,int256,bool)": {
        "notice": "predict total valid vault value after the user operating vault (i.e., Vault of deposit only counts collateral)"
      },
      "userTotalPendingValues(address,address,int256,bool)": {
        "notice": "predict total vault value after the user operating Vault"
      },
      "userTotalValues(address,bool)": {
        "notice": "Get user total Vault value"
      },
      "userValues(address,bool)": {
        "notice": "Get user total valid Vault value (i.e., Vault of deposit only counts collateral)"
      }
    },
    "version": 1
  },
  "storageLayout": {
    "storage": [
      {
        "astId": 188,
        "contract": "contracts/AppController.sol:AppController",
        "label": "_initialized",
        "offset": 0,
        "slot": "0",
        "type": "t_uint8"
      },
      {
        "astId": 191,
        "contract": "contracts/AppController.sol:AppController",
        "label": "_initializing",
        "offset": 1,
        "slot": "0",
        "type": "t_bool"
      },
      {
        "astId": 1640,
        "contract": "contracts/AppController.sol:AppController",
        "label": "__gap",
        "offset": 0,
        "slot": "1",
        "type": "t_array(t_uint256)50_storage"
      },
      {
        "astId": 68,
        "contract": "contracts/AppController.sol:AppController",
        "label": "_owner",
        "offset": 0,
        "slot": "51",
        "type": "t_address"
      },
      {
        "astId": 180,
        "contract": "contracts/AppController.sol:AppController",
        "label": "__gap",
        "offset": 0,
        "slot": "52",
        "type": "t_array(t_uint256)49_storage"
      },
      {
        "astId": 5807,
        "contract": "contracts/AppController.sol:AppController",
        "label": "dyTokens",
        "offset": 0,
        "slot": "101",
        "type": "t_mapping(t_address,t_address)"
      },
      {
        "astId": 5811,
        "contract": "contracts/AppController.sol:AppController",
        "label": "strategies",
        "offset": 0,
        "slot": "102",
        "type": "t_mapping(t_address,t_address)"
      },
      {
        "astId": 5823,
        "contract": "contracts/AppController.sol:AppController",
        "label": "valueConfs",
        "offset": 0,
        "slot": "103",
        "type": "t_mapping(t_address,t_struct(ValueConf)5818_storage)"
      },
      {
        "astId": 5828,
        "contract": "contracts/AppController.sol:AppController",
        "label": "dyTokenVaults",
        "offset": 0,
        "slot": "104",
        "type": "t_mapping(t_address,t_address)"
      },
      {
        "astId": 5833,
        "contract": "contracts/AppController.sol:AppController",
        "label": "userJoinedDepositVaults",
        "offset": 0,
        "slot": "105",
        "type": "t_mapping(t_address,t_struct(AddressSet)5179_storage)"
      },
      {
        "astId": 5838,
        "contract": "contracts/AppController.sol:AppController",
        "label": "userJoinedBorrowVaults",
        "offset": 0,
        "slot": "106",
        "type": "t_mapping(t_address,t_struct(AddressSet)5179_storage)"
      },
      {
        "astId": 5856,
        "contract": "contracts/AppController.sol:AppController",
        "label": "vaultStates",
        "offset": 0,
        "slot": "107",
        "type": "t_mapping(t_address,t_struct(VaultState)5851_storage)"
      },
      {
        "astId": 5858,
        "contract": "contracts/AppController.sol:AppController",
        "label": "liquidateRate",
        "offset": 0,
        "slot": "108",
        "type": "t_uint256"
      },
      {
        "astId": 5860,
        "contract": "contracts/AppController.sol:AppController",
        "label": "collateralRate",
        "offset": 0,
        "slot": "109",
        "type": "t_uint256"
      },
      {
        "astId": 5862,
        "contract": "contracts/AppController.sol:AppController",
        "label": "isOpenLiquidate",
        "offset": 0,
        "slot": "110",
        "type": "t_bool"
      },
      {
        "astId": 5866,
        "contract": "contracts/AppController.sol:AppController",
        "label": "allowedLiquidator",
        "offset": 0,
        "slot": "111",
        "type": "t_mapping(t_address,t_bool)"
      },
      {
        "astId": 5872,
        "contract": "contracts/AppController.sol:AppController",
        "label": "validVaults",
        "offset": 0,
        "slot": "112",
        "type": "t_mapping(t_address,t_enum(ValidVault)16300)"
      },
      {
        "astId": 5880,
        "contract": "contracts/AppController.sol:AppController",
        "label": "validVaultsOfUser",
        "offset": 0,
        "slot": "113",
        "type": "t_mapping(t_address,t_mapping(t_address,t_enum(ValidVault)16300))"
      }
    ],
    "types": {
      "t_address": {
        "encoding": "inplace",
        "label": "address",
        "numberOfBytes": "20"
      },
      "t_array(t_bytes32)dyn_storage": {
        "base": "t_bytes32",
        "encoding": "dynamic_array",
        "label": "bytes32[]",
        "numberOfBytes": "32"
      },
      "t_array(t_uint256)49_storage": {
        "base": "t_uint256",
        "encoding": "inplace",
        "label": "uint256[49]",
        "numberOfBytes": "1568"
      },
      "t_array(t_uint256)50_storage": {
        "base": "t_uint256",
        "encoding": "inplace",
        "label": "uint256[50]",
        "numberOfBytes": "1600"
      },
      "t_bool": {
        "encoding": "inplace",
        "label": "bool",
        "numberOfBytes": "1"
      },
      "t_bytes32": {
        "encoding": "inplace",
        "label": "bytes32",
        "numberOfBytes": "32"
      },
      "t_enum(ValidVault)16300": {
        "encoding": "inplace",
        "label": "enum IController.ValidVault",
        "numberOfBytes": "1"
      },
      "t_mapping(t_address,t_address)": {
        "encoding": "mapping",
        "key": "t_address",
        "label": "mapping(address => address)",
        "numberOfBytes": "32",
        "value": "t_address"
      },
      "t_mapping(t_address,t_bool)": {
        "encoding": "mapping",
        "key": "t_address",
        "label": "mapping(address => bool)",
        "numberOfBytes": "32",
        "value": "t_bool"
      },
      "t_mapping(t_address,t_enum(ValidVault)16300)": {
        "encoding": "mapping",
        "key": "t_address",
        "label": "mapping(address => enum IController.ValidVault)",
        "numberOfBytes": "32",
        "value": "t_enum(ValidVault)16300"
      },
      "t_mapping(t_address,t_mapping(t_address,t_enum(ValidVault)16300))": {
        "encoding": "mapping",
        "key": "t_address",
        "label": "mapping(address => mapping(address => enum IController.ValidVault))",
        "numberOfBytes": "32",
        "value": "t_mapping(t_address,t_enum(ValidVault)16300)"
      },
      "t_mapping(t_address,t_struct(AddressSet)5179_storage)": {
        "encoding": "mapping",
        "key": "t_address",
        "label": "mapping(address => struct EnumerableSet.AddressSet)",
        "numberOfBytes": "32",
        "value": "t_struct(AddressSet)5179_storage"
      },
      "t_mapping(t_address,t_struct(ValueConf)5818_storage)": {
        "encoding": "mapping",
        "key": "t_address",
        "label": "mapping(address => struct AppController.ValueConf)",
        "numberOfBytes": "32",
        "value": "t_struct(ValueConf)5818_storage"
      },
      "t_mapping(t_address,t_struct(VaultState)5851_storage)": {
        "encoding": "mapping",
        "key": "t_address",
        "label": "mapping(address => struct AppController.VaultState)",
        "numberOfBytes": "32",
        "value": "t_struct(VaultState)5851_storage"
      },
      "t_mapping(t_bytes32,t_uint256)": {
        "encoding": "mapping",
        "key": "t_bytes32",
        "label": "mapping(bytes32 => uint256)",
        "numberOfBytes": "32",
        "value": "t_uint256"
      },
      "t_struct(AddressSet)5179_storage": {
        "encoding": "inplace",
        "label": "struct EnumerableSet.AddressSet",
        "members": [
          {
            "astId": 5178,
            "contract": "contracts/AppController.sol:AppController",
            "label": "_inner",
            "offset": 0,
            "slot": "0",
            "type": "t_struct(Set)4878_storage"
          }
        ],
        "numberOfBytes": "64"
      },
      "t_struct(Set)4878_storage": {
        "encoding": "inplace",
        "label": "struct EnumerableSet.Set",
        "members": [
          {
            "astId": 4873,
            "contract": "contracts/AppController.sol:AppController",
            "label": "_values",
            "offset": 0,
            "slot": "0",
            "type": "t_array(t_bytes32)dyn_storage"
          },
          {
            "astId": 4877,
            "contract": "contracts/AppController.sol:AppController",
            "label": "_indexes",
            "offset": 0,
            "slot": "1",
            "type": "t_mapping(t_bytes32,t_uint256)"
          }
        ],
        "numberOfBytes": "64"
      },
      "t_struct(ValueConf)5818_storage": {
        "encoding": "inplace",
        "label": "struct AppController.ValueConf",
        "members": [
          {
            "astId": 5813,
            "contract": "contracts/AppController.sol:AppController",
            "label": "oracle",
            "offset": 0,
            "slot": "0",
            "type": "t_address"
          },
          {
            "astId": 5815,
            "contract": "contracts/AppController.sol:AppController",
            "label": "dr",
            "offset": 20,
            "slot": "0",
            "type": "t_uint16"
          },
          {
            "astId": 5817,
            "contract": "contracts/AppController.sol:AppController",
            "label": "pr",
            "offset": 22,
            "slot": "0",
            "type": "t_uint16"
          }
        ],
        "numberOfBytes": "32"
      },
      "t_struct(VaultState)5851_storage": {
        "encoding": "inplace",
        "label": "struct AppController.VaultState",
        "members": [
          {
            "astId": 5840,
            "contract": "contracts/AppController.sol:AppController",
            "label": "enabled",
            "offset": 0,
            "slot": "0",
            "type": "t_bool"
          },
          {
            "astId": 5842,
            "contract": "contracts/AppController.sol:AppController",
            "label": "enableDeposit",
            "offset": 1,
            "slot": "0",
            "type": "t_bool"
          },
          {
            "astId": 5844,
            "contract": "contracts/AppController.sol:AppController",
            "label": "enableWithdraw",
            "offset": 2,
            "slot": "0",
            "type": "t_bool"
          },
          {
            "astId": 5846,
            "contract": "contracts/AppController.sol:AppController",
            "label": "enableBorrow",
            "offset": 3,
            "slot": "0",
            "type": "t_bool"
          },
          {
            "astId": 5848,
            "contract": "contracts/AppController.sol:AppController",
            "label": "enableRepay",
            "offset": 4,
            "slot": "0",
            "type": "t_bool"
          },
          {
            "astId": 5850,
            "contract": "contracts/AppController.sol:AppController",
            "label": "enableLiquidate",
            "offset": 5,
            "slot": "0",
            "type": "t_bool"
          }
        ],
        "numberOfBytes": "32"
      },
      "t_uint16": {
        "encoding": "inplace",
        "label": "uint16",
        "numberOfBytes": "2"
      },
      "t_uint256": {
        "encoding": "inplace",
        "label": "uint256",
        "numberOfBytes": "32"
      },
      "t_uint8": {
        "encoding": "inplace",
        "label": "uint8",
        "numberOfBytes": "1"
      }
    }
  }
}